{
  "address": "0x02ad8Da8cCa3764DFb62d749E51Cb3d4b35643ad",
  "abi": [
    {
      "inputs": [
        {
          "internalType": "contract IERC20[]",
          "name": "_pooledTokens",
          "type": "address[]"
        },
        {
          "internalType": "uint8[]",
          "name": "decimals",
          "type": "uint8[]"
        },
        {
          "internalType": "string",
          "name": "lpTokenName",
          "type": "string"
        },
        {
          "internalType": "string",
          "name": "lpTokenSymbol",
          "type": "string"
        },
        {
          "internalType": "uint256",
          "name": "_a",
          "type": "uint256"
        },
        {
          "internalType": "uint256",
          "name": "_fee",
          "type": "uint256"
        },
        {
          "internalType": "uint256",
          "name": "_adminFee",
          "type": "uint256"
        },
        {
          "internalType": "uint256",
          "name": "_withdrawFee",
          "type": "uint256"
        },
        {
          "internalType": "contract IAllowlist",
          "name": "_allowlist",
          "type": "address"
        }
      ],
      "stateMutability": "nonpayable",
      "type": "constructor"
    },
    {
      "anonymous": false,
      "inputs": [
        {
          "indexed": true,
          "internalType": "address",
          "name": "provider",
          "type": "address"
        },
        {
          "indexed": false,
          "internalType": "uint256[]",
          "name": "tokenAmounts",
          "type": "uint256[]"
        },
        {
          "indexed": false,
          "internalType": "uint256[]",
          "name": "fees",
          "type": "uint256[]"
        },
        {
          "indexed": false,
          "internalType": "uint256",
          "name": "invariant",
          "type": "uint256"
        },
        {
          "indexed": false,
          "internalType": "uint256",
          "name": "lpTokenSupply",
          "type": "uint256"
        }
      ],
      "name": "AddLiquidity",
      "type": "event"
    },
    {
      "anonymous": false,
      "inputs": [
        {
          "indexed": false,
          "internalType": "uint256",
          "name": "newAdminFee",
          "type": "uint256"
        }
      ],
      "name": "NewAdminFee",
      "type": "event"
    },
    {
      "anonymous": false,
      "inputs": [
        {
          "indexed": false,
          "internalType": "uint256",
          "name": "newSwapFee",
          "type": "uint256"
        }
      ],
      "name": "NewSwapFee",
      "type": "event"
    },
    {
      "anonymous": false,
      "inputs": [
        {
          "indexed": false,
          "internalType": "uint256",
          "name": "newWithdrawFee",
          "type": "uint256"
        }
      ],
      "name": "NewWithdrawFee",
      "type": "event"
    },
    {
      "anonymous": false,
      "inputs": [
        {
          "indexed": true,
          "internalType": "address",
          "name": "previousOwner",
          "type": "address"
        },
        {
          "indexed": true,
          "internalType": "address",
          "name": "newOwner",
          "type": "address"
        }
      ],
      "name": "OwnershipTransferred",
      "type": "event"
    },
    {
      "anonymous": false,
      "inputs": [
        {
          "indexed": false,
          "internalType": "address",
          "name": "account",
          "type": "address"
        }
      ],
      "name": "Paused",
      "type": "event"
    },
    {
      "anonymous": false,
      "inputs": [
        {
          "indexed": false,
          "internalType": "uint256",
          "name": "oldA",
          "type": "uint256"
        },
        {
          "indexed": false,
          "internalType": "uint256",
          "name": "newA",
          "type": "uint256"
        },
        {
          "indexed": false,
          "internalType": "uint256",
          "name": "initialTime",
          "type": "uint256"
        },
        {
          "indexed": false,
          "internalType": "uint256",
          "name": "futureTime",
          "type": "uint256"
        }
      ],
      "name": "RampA",
      "type": "event"
    },
    {
      "anonymous": false,
      "inputs": [
        {
          "indexed": true,
          "internalType": "address",
          "name": "provider",
          "type": "address"
        },
        {
          "indexed": false,
          "internalType": "uint256[]",
          "name": "tokenAmounts",
          "type": "uint256[]"
        },
        {
          "indexed": false,
          "internalType": "uint256",
          "name": "lpTokenSupply",
          "type": "uint256"
        }
      ],
      "name": "RemoveLiquidity",
      "type": "event"
    },
    {
      "anonymous": false,
      "inputs": [
        {
          "indexed": true,
          "internalType": "address",
          "name": "provider",
          "type": "address"
        },
        {
          "indexed": false,
          "internalType": "uint256[]",
          "name": "tokenAmounts",
          "type": "uint256[]"
        },
        {
          "indexed": false,
          "internalType": "uint256[]",
          "name": "fees",
          "type": "uint256[]"
        },
        {
          "indexed": false,
          "internalType": "uint256",
          "name": "invariant",
          "type": "uint256"
        },
        {
          "indexed": false,
          "internalType": "uint256",
          "name": "lpTokenSupply",
          "type": "uint256"
        }
      ],
      "name": "RemoveLiquidityImbalance",
      "type": "event"
    },
    {
      "anonymous": false,
      "inputs": [
        {
          "indexed": true,
          "internalType": "address",
          "name": "provider",
          "type": "address"
        },
        {
          "indexed": false,
          "internalType": "uint256",
          "name": "lpTokenAmount",
          "type": "uint256"
        },
        {
          "indexed": false,
          "internalType": "uint256",
          "name": "lpTokenSupply",
          "type": "uint256"
        },
        {
          "indexed": false,
          "internalType": "uint256",
          "name": "boughtId",
          "type": "uint256"
        },
        {
          "indexed": false,
          "internalType": "uint256",
          "name": "tokensBought",
          "type": "uint256"
        }
      ],
      "name": "RemoveLiquidityOne",
      "type": "event"
    },
    {
      "anonymous": false,
      "inputs": [
        {
          "indexed": false,
          "internalType": "uint256",
          "name": "currentA",
          "type": "uint256"
        },
        {
          "indexed": false,
          "internalType": "uint256",
          "name": "time",
          "type": "uint256"
        }
      ],
      "name": "StopRampA",
      "type": "event"
    },
    {
      "anonymous": false,
      "inputs": [
        {
          "indexed": true,
          "internalType": "address",
          "name": "buyer",
          "type": "address"
        },
        {
          "indexed": false,
          "internalType": "uint256",
          "name": "tokensSold",
          "type": "uint256"
        },
        {
          "indexed": false,
          "internalType": "uint256",
          "name": "tokensBought",
          "type": "uint256"
        },
        {
          "indexed": false,
          "internalType": "uint128",
          "name": "soldId",
          "type": "uint128"
        },
        {
          "indexed": false,
          "internalType": "uint128",
          "name": "boughtId",
          "type": "uint128"
        }
      ],
      "name": "TokenSwap",
      "type": "event"
    },
    {
      "anonymous": false,
      "inputs": [
        {
          "indexed": false,
          "internalType": "address",
          "name": "account",
          "type": "address"
        }
      ],
      "name": "Unpaused",
      "type": "event"
    },
    {
      "inputs": [
        {
          "internalType": "uint256[]",
          "name": "amounts",
          "type": "uint256[]"
        },
        {
          "internalType": "uint256",
          "name": "minToMint",
          "type": "uint256"
        },
        {
          "internalType": "uint256",
          "name": "deadline",
          "type": "uint256"
        },
        {
          "internalType": "bytes32[]",
          "name": "merkleProof",
          "type": "bytes32[]"
        }
      ],
      "name": "addLiquidity",
      "outputs": [
        {
          "internalType": "uint256",
          "name": "",
          "type": "uint256"
        }
      ],
      "stateMutability": "nonpayable",
      "type": "function"
    },
    {
      "inputs": [
        {
          "internalType": "address",
          "name": "user",
          "type": "address"
        }
      ],
      "name": "calculateCurrentWithdrawFee",
      "outputs": [
        {
          "internalType": "uint256",
          "name": "",
          "type": "uint256"
        }
      ],
      "stateMutability": "view",
      "type": "function"
    },
    {
      "inputs": [
        {
          "internalType": "address",
          "name": "account",
          "type": "address"
        },
        {
          "internalType": "uint256",
          "name": "amount",
          "type": "uint256"
        }
      ],
      "name": "calculateRemoveLiquidity",
      "outputs": [
        {
          "internalType": "uint256[]",
          "name": "",
          "type": "uint256[]"
        }
      ],
      "stateMutability": "view",
      "type": "function"
    },
    {
      "inputs": [
        {
          "internalType": "address",
          "name": "account",
          "type": "address"
        },
        {
          "internalType": "uint256",
          "name": "tokenAmount",
          "type": "uint256"
        },
        {
          "internalType": "uint8",
          "name": "tokenIndex",
          "type": "uint8"
        }
      ],
      "name": "calculateRemoveLiquidityOneToken",
      "outputs": [
        {
          "internalType": "uint256",
          "name": "availableTokenAmount",
          "type": "uint256"
        }
      ],
      "stateMutability": "view",
      "type": "function"
    },
    {
      "inputs": [
        {
          "internalType": "uint8",
          "name": "tokenIndexFrom",
          "type": "uint8"
        },
        {
          "internalType": "uint8",
          "name": "tokenIndexTo",
          "type": "uint8"
        },
        {
          "internalType": "uint256",
          "name": "dx",
          "type": "uint256"
        }
      ],
      "name": "calculateSwap",
      "outputs": [
        {
          "internalType": "uint256",
          "name": "",
          "type": "uint256"
        }
      ],
      "stateMutability": "view",
      "type": "function"
    },
    {
      "inputs": [
        {
          "internalType": "address",
          "name": "account",
          "type": "address"
        },
        {
          "internalType": "uint256[]",
          "name": "amounts",
          "type": "uint256[]"
        },
        {
          "internalType": "bool",
          "name": "deposit",
          "type": "bool"
        }
      ],
      "name": "calculateTokenAmount",
      "outputs": [
        {
          "internalType": "uint256",
          "name": "",
          "type": "uint256"
        }
      ],
      "stateMutability": "view",
      "type": "function"
    },
    {
      "inputs": [],
      "name": "disableGuard",
      "outputs": [],
      "stateMutability": "nonpayable",
      "type": "function"
    },
    {
      "inputs": [],
      "name": "getA",
      "outputs": [
        {
          "internalType": "uint256",
          "name": "",
          "type": "uint256"
        }
      ],
      "stateMutability": "view",
      "type": "function"
    },
    {
      "inputs": [],
      "name": "getAPrecise",
      "outputs": [
        {
          "internalType": "uint256",
          "name": "",
          "type": "uint256"
        }
      ],
      "stateMutability": "view",
      "type": "function"
    },
    {
      "inputs": [
        {
          "internalType": "uint256",
          "name": "index",
          "type": "uint256"
        }
      ],
      "name": "getAdminBalance",
      "outputs": [
        {
          "internalType": "uint256",
          "name": "",
          "type": "uint256"
        }
      ],
      "stateMutability": "view",
      "type": "function"
    },
    {
      "inputs": [],
      "name": "getAllowlist",
      "outputs": [
        {
          "internalType": "contract IAllowlist",
          "name": "",
          "type": "address"
        }
      ],
      "stateMutability": "view",
      "type": "function"
    },
    {
      "inputs": [
        {
          "internalType": "address",
          "name": "user",
          "type": "address"
        }
      ],
      "name": "getDepositTimestamp",
      "outputs": [
        {
          "internalType": "uint256",
          "name": "",
          "type": "uint256"
        }
      ],
      "stateMutability": "view",
      "type": "function"
    },
    {
      "inputs": [
        {
          "internalType": "uint8",
          "name": "index",
          "type": "uint8"
        }
      ],
      "name": "getToken",
      "outputs": [
        {
          "internalType": "contract IERC20",
          "name": "",
          "type": "address"
        }
      ],
      "stateMutability": "view",
      "type": "function"
    },
    {
      "inputs": [
        {
          "internalType": "uint8",
          "name": "index",
          "type": "uint8"
        }
      ],
      "name": "getTokenBalance",
      "outputs": [
        {
          "internalType": "uint256",
          "name": "",
          "type": "uint256"
        }
      ],
      "stateMutability": "view",
      "type": "function"
    },
    {
      "inputs": [
        {
          "internalType": "address",
          "name": "tokenAddress",
          "type": "address"
        }
      ],
      "name": "getTokenIndex",
      "outputs": [
        {
          "internalType": "uint8",
          "name": "",
          "type": "uint8"
        }
      ],
      "stateMutability": "view",
      "type": "function"
    },
    {
      "inputs": [],
      "name": "getVirtualPrice",
      "outputs": [
        {
          "internalType": "uint256",
          "name": "",
          "type": "uint256"
        }
      ],
      "stateMutability": "view",
      "type": "function"
    },
    {
      "inputs": [],
      "name": "isGuarded",
      "outputs": [
        {
          "internalType": "bool",
          "name": "",
          "type": "bool"
        }
      ],
      "stateMutability": "view",
      "type": "function"
    },
    {
      "inputs": [],
      "name": "owner",
      "outputs": [
        {
          "internalType": "address",
          "name": "",
          "type": "address"
        }
      ],
      "stateMutability": "view",
      "type": "function"
    },
    {
      "inputs": [],
      "name": "pause",
      "outputs": [],
      "stateMutability": "nonpayable",
      "type": "function"
    },
    {
      "inputs": [],
      "name": "paused",
      "outputs": [
        {
          "internalType": "bool",
          "name": "",
          "type": "bool"
        }
      ],
      "stateMutability": "view",
      "type": "function"
    },
    {
      "inputs": [
        {
          "internalType": "uint256",
          "name": "futureA",
          "type": "uint256"
        },
        {
          "internalType": "uint256",
          "name": "futureTime",
          "type": "uint256"
        }
      ],
      "name": "rampA",
      "outputs": [],
      "stateMutability": "nonpayable",
      "type": "function"
    },
    {
      "inputs": [
        {
          "internalType": "uint256",
          "name": "amount",
          "type": "uint256"
        },
        {
          "internalType": "uint256[]",
          "name": "minAmounts",
          "type": "uint256[]"
        },
        {
          "internalType": "uint256",
          "name": "deadline",
          "type": "uint256"
        }
      ],
      "name": "removeLiquidity",
      "outputs": [
        {
          "internalType": "uint256[]",
          "name": "",
          "type": "uint256[]"
        }
      ],
      "stateMutability": "nonpayable",
      "type": "function"
    },
    {
      "inputs": [
        {
          "internalType": "uint256[]",
          "name": "amounts",
          "type": "uint256[]"
        },
        {
          "internalType": "uint256",
          "name": "maxBurnAmount",
          "type": "uint256"
        },
        {
          "internalType": "uint256",
          "name": "deadline",
          "type": "uint256"
        }
      ],
      "name": "removeLiquidityImbalance",
      "outputs": [
        {
          "internalType": "uint256",
          "name": "",
          "type": "uint256"
        }
      ],
      "stateMutability": "nonpayable",
      "type": "function"
    },
    {
      "inputs": [
        {
          "internalType": "uint256",
          "name": "tokenAmount",
          "type": "uint256"
        },
        {
          "internalType": "uint8",
          "name": "tokenIndex",
          "type": "uint8"
        },
        {
          "internalType": "uint256",
          "name": "minAmount",
          "type": "uint256"
        },
        {
          "internalType": "uint256",
          "name": "deadline",
          "type": "uint256"
        }
      ],
      "name": "removeLiquidityOneToken",
      "outputs": [
        {
          "internalType": "uint256",
          "name": "",
          "type": "uint256"
        }
      ],
      "stateMutability": "nonpayable",
      "type": "function"
    },
    {
      "inputs": [],
      "name": "renounceOwnership",
      "outputs": [],
      "stateMutability": "nonpayable",
      "type": "function"
    },
    {
      "inputs": [
        {
          "internalType": "uint256",
          "name": "newAdminFee",
          "type": "uint256"
        }
      ],
      "name": "setAdminFee",
      "outputs": [],
      "stateMutability": "nonpayable",
      "type": "function"
    },
    {
      "inputs": [
        {
          "internalType": "uint256",
          "name": "newWithdrawFee",
          "type": "uint256"
        }
      ],
      "name": "setDefaultWithdrawFee",
      "outputs": [],
      "stateMutability": "nonpayable",
      "type": "function"
    },
    {
      "inputs": [
        {
          "internalType": "uint256",
          "name": "newSwapFee",
          "type": "uint256"
        }
      ],
      "name": "setSwapFee",
      "outputs": [],
      "stateMutability": "nonpayable",
      "type": "function"
    },
    {
      "inputs": [],
      "name": "stopRampA",
      "outputs": [],
      "stateMutability": "nonpayable",
      "type": "function"
    },
    {
      "inputs": [
        {
          "internalType": "uint8",
          "name": "tokenIndexFrom",
          "type": "uint8"
        },
        {
          "internalType": "uint8",
          "name": "tokenIndexTo",
          "type": "uint8"
        },
        {
          "internalType": "uint256",
          "name": "dx",
          "type": "uint256"
        },
        {
          "internalType": "uint256",
          "name": "minDy",
          "type": "uint256"
        },
        {
          "internalType": "uint256",
          "name": "deadline",
          "type": "uint256"
        }
      ],
      "name": "swap",
      "outputs": [
        {
          "internalType": "uint256",
          "name": "",
          "type": "uint256"
        }
      ],
      "stateMutability": "nonpayable",
      "type": "function"
    },
    {
      "inputs": [],
      "name": "swapStorage",
      "outputs": [
        {
          "internalType": "uint256",
          "name": "initialA",
          "type": "uint256"
        },
        {
          "internalType": "uint256",
          "name": "futureA",
          "type": "uint256"
        },
        {
          "internalType": "uint256",
          "name": "initialATime",
          "type": "uint256"
        },
        {
          "internalType": "uint256",
          "name": "futureATime",
          "type": "uint256"
        },
        {
          "internalType": "uint256",
          "name": "swapFee",
          "type": "uint256"
        },
        {
          "internalType": "uint256",
          "name": "adminFee",
          "type": "uint256"
        },
        {
          "internalType": "uint256",
          "name": "defaultWithdrawFee",
          "type": "uint256"
        },
        {
          "internalType": "contract LPTokenGuarded",
          "name": "lpToken",
          "type": "address"
        }
      ],
      "stateMutability": "view",
      "type": "function"
    },
    {
      "inputs": [
        {
          "internalType": "address",
          "name": "newOwner",
          "type": "address"
        }
      ],
      "name": "transferOwnership",
      "outputs": [],
      "stateMutability": "nonpayable",
      "type": "function"
    },
    {
      "inputs": [],
      "name": "unpause",
      "outputs": [],
      "stateMutability": "nonpayable",
      "type": "function"
    },
    {
      "inputs": [
        {
          "internalType": "address",
          "name": "recipient",
          "type": "address"
        },
        {
          "internalType": "uint256",
          "name": "transferAmount",
          "type": "uint256"
        }
      ],
      "name": "updateUserWithdrawFee",
      "outputs": [],
      "stateMutability": "nonpayable",
      "type": "function"
    },
    {
      "inputs": [],
      "name": "withdrawAdminFees",
      "outputs": [],
      "stateMutability": "nonpayable",
      "type": "function"
    }
  ],
  "transactionHash": "0xf090df54cf27a8cb83eb152a81992812aebe34fa6dc3408f131dd8625356901d",
  "args": [
    [
      "0x9F6aA48f852Dd928F53A7dd3dcd2AC96a76c8727",
      "0x7264594dFB80a150f80b2988862605dDfda53727",
      "0x79B92D075d72d639D46D30CE15e6DdDE50ad5890",
      "0xAc2931cFA6ff57Aaf64B43DFdc5190ca3c341640"
    ],
    [
      18,
      8,
      8,
      18
    ],
    "Saddle tBTC/WBTC/renBTC/sBTC",
    "saddleTWRenSBTC",
    200,
    4000000,
    0,
    0,
    "0xAE0fE44A931C263B3c21971a86a1B8FceacD88e7"
  ],
  "solcInputHash": "8f41ed0bf5ed398a2f798685730bd171",
  "bytecode": "0x60a0604052600f805460ff191660011790553480156200001e57600080fd5b5060405162004fc638038062004fc683398181016040526101208110156200004557600080fd5b81019080805160405193929190846401000000008211156200006657600080fd5b9083019060208201858111156200007c57600080fd5b82518660208202830111640100000000821117156200009a57600080fd5b82525081516020918201928201910280838360005b83811015620000c9578181015183820152602001620000af565b5050505090500160405260200180516040519392919084640100000000821115620000f357600080fd5b9083019060208201858111156200010957600080fd5b82518660208202830111640100000000821117156200012757600080fd5b82525081516020918201928201910280838360005b83811015620001565781810151838201526020016200013c565b50505050905001604052602001805160405193929190846401000000008211156200018057600080fd5b9083019060208201858111156200019657600080fd5b8251640100000000811182820188101715620001b157600080fd5b82525081516020918201929091019080838360005b83811015620001e0578181015183820152602001620001c6565b50505050905090810190601f1680156200020e5780820380516001836020036101000a031916815260200191505b50604052602001805160405193929190846401000000008211156200023257600080fd5b9083019060208201858111156200024857600080fd5b82516401000000008111828201881017156200026357600080fd5b82525081516020918201929091019080838360005b838110156200029257818101518382015260200162000278565b50505050905090810190601f168015620002c05780820380516001836020036101000a031916815260200191505b5060409081526020820151908201516060830151608084015160a09094015192955090935091906000620002f362000b82565b600080546001600160a01b0319166001600160a01b0383169081178255604051929350917f8be0079c531659141344cd1fd0a4f28419497f9722a3daafe3b4186f6b6457e0908290a3506000805460ff60a01b191690556001808055895111620003a4576040805162461bcd60e51b815260206004820152601960248201527f5f706f6f6c6564546f6b656e732e6c656e677468203c3d203100000000000000604482015290519081900360640190fd5b602089511115620003fc576040805162461bcd60e51b815260206004820152601960248201527f5f706f6f6c6564546f6b656e732e6c656e677468203e20333200000000000000604482015290519081900360640190fd5b875189511462000453576040805162461bcd60e51b815260206004820152601f60248201527f5f706f6f6c6564546f6b656e7320646563696d616c73206d69736d6174636800604482015290519081900360640190fd5b606088516001600160401b03811180156200046d57600080fd5b5060405190808252806020026020018201604052801562000498578160200160208202803683370190505b50905060005b8a518160ff1610156200071f5760ff8116156200058157601060008c8360ff1681518110620004c957fe5b6020908102919091018101516001600160a01b031682528101919091526040016000205460ff161580156200053c57508a8160ff16815181106200050957fe5b60200260200101516001600160a01b03168b6000815181106200052857fe5b60200260200101516001600160a01b031614155b62000581576040805162461bcd60e51b815260206004820152601060248201526f4475706c696361746520746f6b656e7360801b604482015290519081900360640190fd5b60006001600160a01b03168b8260ff16815181106200059c57fe5b60200260200101516001600160a01b0316141562000601576040805162461bcd60e51b815260206004820152601d60248201527f546865203020616464726573732069736e277420616e204552432d3230000000604482015290519081900360640190fd5b601260ff168a8260ff16815181106200061657fe5b602002602001015160ff16111562000675576040805162461bcd60e51b815260206004820152601a60248201527f546f6b656e20646563696d616c732065786365656473206d6178000000000000604482015290519081900360640190fd5b620006ad8a8260ff16815181106200068957fe5b602002602001015160ff16601260ff1662000b8660201b620024d21790919060201c565b600a0a828260ff1681518110620006c057fe5b60200260200101818152505080601060008d8460ff1681518110620006e157fe5b6020908102919091018101516001600160a01b03168252810191909152604001600020805460ff191660ff929092169190911790556001016200049e565b50620f424086106200076d576040805162461bcd60e51b81526020600482015260126024820152715f612065786365656473206d6178696d756d60701b604482015290519081900360640190fd5b6305f5e1008510620007c6576040805162461bcd60e51b815260206004820152601460248201527f5f6665652065786365656473206d6178696d756d000000000000000000000000604482015290519081900360640190fd5b6402540be400841062000820576040805162461bcd60e51b815260206004820152601960248201527f5f61646d696e4665652065786365656473206d6178696d756d00000000000000604482015290519081900360640190fd5b6305f5e100831062000879576040805162461bcd60e51b815260206004820152601c60248201527f5f77697468647261774665652065786365656473206d6178696d756d00000000604482015290519081900360640190fd5b6254dd1e826001600160a01b031663945f183860006040518263ffffffff1660e01b815260040180826001600160a01b0316815260200191505060206040518083038186803b158015620008cc57600080fd5b505afa158015620008e1573d6000803e3d6000fd5b505050506040513d6020811015620008f857600080fd5b5051146200094d576040805162461bcd60e51b815260206004820152601660248201527f416c6c6f776c69737420636865636b206661696c656400000000000000000000604482015290519081900360640190fd5b878760126040516200095f9062000c4e565b60ff82166040820152606080825284519082015283518190602080830191608084019188019080838360005b83811015620009a55781810151838201526020016200098b565b50505050905090810190601f168015620009d35780820380516001836020036101000a031916815260200191505b50838103825285518152855160209182019187019080838360005b8381101562000a08578181015183820152602001620009ee565b50505050905090810190601f16801562000a365780820380516001836020036101000a031916815260200191505b5095505050505050604051809103906000f08015801562000a5b573d6000803e3d6000fd5b50600980546001600160a01b0319166001600160a01b0392909216919091179055895162000a9190600a9060208d019062000c5c565b50805162000aa790600b90602084019062000cc6565b5089516001600160401b038111801562000ac057600080fd5b5060405190808252806020026020018201604052801562000aeb578160200160208202803683370190505b50805162000b0291600c9160209091019062000cc6565b5062000b1e60648762000be960201b6200252f1790919060201c565b60025562000b3a86606462000be9602090811b6200252f17901c565b600355506000600481905560055560069390935560079190915560085560601b6001600160601b0319166080525050600f8054600160ff199091161790555062000d4a915050565b3390565b60008282111562000bde576040805162461bcd60e51b815260206004820152601e60248201527f536166654d6174683a207375627472616374696f6e206f766572666c6f770000604482015290519081900360640190fd5b508082035b92915050565b60008262000bfa5750600062000be3565b8282028284828162000c0857fe5b041462000c475760405162461bcd60e51b815260040180806020018281038252602181526020018062004fa56021913960400191505060405180910390fd5b9392505050565b611aa4806200350183390190565b82805482825590600052602060002090810192821562000cb4579160200282015b8281111562000cb457825182546001600160a01b0319166001600160a01b0390911617825560209092019160019091019062000c7d565b5062000cc292915062000d12565b5090565b82805482825590600052602060002090810192821562000d04579160200282015b8281111562000d0457825182559160200191906001019062000ce7565b5062000cc292915062000d33565b5b8082111562000cc25780546001600160a01b031916815560010162000d13565b5b8082111562000cc2576000815560010162000d34565b60805160601c61279962000d6860003980611efd52506127996000f3fe608060405234801561001057600080fd5b50600436106102415760003560e01c806384cdd9bc11610145578063c4db7fa0116100bd578063e22517f41161008c578063ef0a712f11610071578063ef0a712f146107bc578063f2fde38b146107d9578063f9273ffb146107ff57610241565b8063e22517f4146106e6578063e25aa5fa146107b457610241565b8063c4db7fa0146106a8578063c5eff3d0146106b0578063d46300fd146106b8578063da7a77be146106c057610241565b806391ceb3eb11610114578063a95b089f116100f9578063a95b089f1461062f578063ac5bf2631461065f578063c00c125c1461067c57610241565b806391ceb3eb146105da57806398899f40146105fa57610241565b806384cdd9bc146105035780638beb60b6146105795780638da5cb5b14610596578063916955861461059e57610241565b80634a1b0d57116101d857806366c0bd24116101a75780637c61e5611161018c5780637c61e5611461049357806382b86600146104bf5780638456cb59146104fb57610241565b806366c0bd241461044f578063715018a61461048b57610241565b80634a1b0d57146103ac578063593d132c146103d25780635c975abb146103f55780635fd65f0f146103fd57610241565b806331cd52b01161021457806331cd52b01461028e57806334e19907146103555780633e3a1560146103725780633f4ba83a146103a457610241565b80630419b45a146102465780630ba8195914610250578063202496831461026a57806324b8457314610286575b600080fd5b61024e610881565b005b610258610977565b60408051918252519081900360200190f35b6102726109fc565b604080519115158252519081900360200190f35b61024e610a05565b610305600480360360608110156102a457600080fd5b813591908101906040810160208201356401000000008111156102c657600080fd5b8201836020820111156102d857600080fd5b803590602001918460208302840111640100000000831117156102fa57600080fd5b919350915035610aa3565b60408051602080825283518183015283519192839290830191858101910280838360005b83811015610341578181015183820152602001610329565b505050509050019250505060405180910390f35b61024e6004803603602081101561036b57600080fd5b5035610cdf565b6102586004803603608081101561038857600080fd5b5080359060ff6020820135169060408101359060600135610de0565b61024e610fab565b610258600480360360208110156103c257600080fd5b50356001600160a01b0316611029565b61024e600480360360408110156103e857600080fd5b50803590602001356110d9565b6102726111e2565b610405611203565b604080519889526020890197909752878701959095526060870193909352608086019190915260a085015260c08401526001600160a01b031660e083015251908190036101000190f35b6104756004803603602081101561046557600080fd5b50356001600160a01b0316611227565b6040805160ff9092168252519081900360200190f35b61024e6112b2565b610305600480360360408110156104a957600080fd5b506001600160a01b038135169060200135611388565b6104df600480360360208110156104d557600080fd5b503560ff166114fc565b604080516001600160a01b039092168252519081900360200190f35b61024e611584565b6102586004803603606081101561051957600080fd5b81019060208101813564010000000081111561053457600080fd5b82018360208201111561054657600080fd5b8035906020019184602083028401116401000000008311171561056857600080fd5b919350915080359060200135611600565b61024e6004803603602081101561058f57600080fd5b50356117a0565b6104df611886565b610258600480360360a08110156105b457600080fd5b5060ff813581169160208101359091169060408101359060608101359060800135611895565b610258600480360360208110156105f057600080fd5b503560ff16611a69565b6102586004803603606081101561061057600080fd5b5080356001600160a01b0316906020810135906040013560ff16611ae8565b6102586004803603606081101561064557600080fd5b5060ff813581169160208101359091169060400135611ba5565b61024e6004803603602081101561067557600080fd5b5035611c56565b61024e6004803603604081101561069257600080fd5b506001600160a01b038135169060200135611d3c565b61024e611e1c565b6104df611efb565b610258611f1f565b610258600480360360208110156106d657600080fd5b50356001600160a01b0316611f73565b610258600480360360808110156106fc57600080fd5b81019060208101813564010000000081111561071757600080fd5b82018360208201111561072957600080fd5b8035906020019184602083028401116401000000008311171561074b57600080fd5b91939092823592602081013592919060608101906040013564010000000081111561077557600080fd5b82018360208201111561078757600080fd5b803590602001918460208302840111640100000000831117156107a957600080fd5b509092509050611ff1565b61025861221b565b610258600480360360208110156107d257600080fd5b503561226f565b61024e600480360360208110156107ef57600080fd5b50356001600160a01b03166122cb565b6102586004803603606081101561081557600080fd5b6001600160a01b03823516919081019060408101602082013564010000000081111561084057600080fd5b82018360208201111561085257600080fd5b8035906020019184602083028401116401000000008311171561087457600080fd5b91935091503515156123f7565b61088961258f565b6001600160a01b031661089a611886565b6001600160a01b0316146108f5576040805162461bcd60e51b815260206004820181905260248201527f4f776e61626c653a2063616c6c6572206973206e6f7420746865206f776e6572604482015290519081900360640190fd5b73DcD9d0456846F641F5547cA025aFe9ae560Cc61F63f4cd32036002610919611886565b6040518363ffffffff1660e01b815260040180838152602001826001600160a01b031681526020019250505060006040518083038186803b15801561095d57600080fd5b505af4158015610971573d6000803e3d6000fd5b50505050565b6000600273DcD9d0456846F641F5547cA025aFe9ae560Cc61F6347298d5b90916040518263ffffffff1660e01b81526004018082815260200191505060206040518083038186803b1580156109cb57600080fd5b505af41580156109df573d6000803e3d6000fd5b505050506040513d60208110156109f557600080fd5b5051905090565b600f5460ff1690565b610a0d61258f565b6001600160a01b0316610a1e611886565b6001600160a01b031614610a79576040805162461bcd60e51b815260206004820181905260248201527f4f776e61626c653a2063616c6c6572206973206e6f7420746865206f776e6572604482015290519081900360640190fd5b600f80547fffffffffffffffffffffffffffffffffffffffffffffffffffffffffffffff00169055565b606060026001541415610afd576040805162461bcd60e51b815260206004820152601f60248201527f5265656e7472616e637947756172643a207265656e7472616e742063616c6c00604482015290519081900360640190fd5b60026001558142811015610b58576040805162461bcd60e51b815260206004820152601060248201527f446561646c696e65206e6f74206d657400000000000000000000000000000000604482015290519081900360640190fd5b600273DcD9d0456846F641F5547cA025aFe9ae560Cc61F63e0c0221790918888886040518563ffffffff1660e01b815260040180858152602001848152602001806020018281038252848482818152602001925060200280828437600081840152601f19601f8201169050808301925050509550505050505060006040518083038186803b158015610be957600080fd5b505af4158015610bfd573d6000803e3d6000fd5b505050506040513d6000823e601f3d9081017fffffffffffffffffffffffffffffffffffffffffffffffffffffffffffffffe01682016040526020811015610c4457600080fd5b8101908080516040519392919084640100000000821115610c6457600080fd5b908301906020820185811115610c7957600080fd5b8251866020820283011164010000000082111715610c9657600080fd5b82525081516020918201928201910280838360005b83811015610cc3578181015183820152602001610cab565b5050505090500160405250505091505060018055949350505050565b610ce761258f565b6001600160a01b0316610cf8611886565b6001600160a01b031614610d53576040805162461bcd60e51b815260206004820181905260248201527f4f776e61626c653a2063616c6c6572206973206e6f7420746865206f776e6572604482015290519081900360640190fd5b604080517f7d230a4c0000000000000000000000000000000000000000000000000000000081526002600482015260248101839052905173DcD9d0456846F641F5547cA025aFe9ae560Cc61F91637d230a4c916044808301926000929190829003018186803b158015610dc557600080fd5b505af4158015610dd9573d6000803e3d6000fd5b5050505050565b600060026001541415610e3a576040805162461bcd60e51b815260206004820152601f60248201527f5265656e7472616e637947756172643a207265656e7472616e742063616c6c00604482015290519081900360640190fd5b6002600155610e476111e2565b15610e99576040805162461bcd60e51b815260206004820152601060248201527f5061757361626c653a2070617573656400000000000000000000000000000000604482015290519081900360640190fd5b8180421115610eef576040805162461bcd60e51b815260206004820152601060248201527f446561646c696e65206e6f74206d657400000000000000000000000000000000604482015290519081900360640190fd5b604080517fc232f71b000000000000000000000000000000000000000000000000000000008152600260048201526024810188905260ff8716604482015260648101869052905173DcD9d0456846F641F5547cA025aFe9ae560Cc61F9163c232f71b916084808301926020929190829003018186803b158015610f7157600080fd5b505af4158015610f85573d6000803e3d6000fd5b505050506040513d6020811015610f9b57600080fd5b5051600180559695505050505050565b610fb361258f565b6001600160a01b0316610fc4611886565b6001600160a01b03161461101f576040805162461bcd60e51b815260206004820181905260248201527f4f776e61626c653a2063616c6c6572206973206e6f7420746865206f776e6572604482015290519081900360640190fd5b611027612593565b565b604080517f7341f8c1000000000000000000000000000000000000000000000000000000008152600260048201526001600160a01b0383166024820152905160009173DcD9d0456846F641F5547cA025aFe9ae560Cc61F91637341f8c191604480820192602092909190829003018186803b1580156110a757600080fd5b505af41580156110bb573d6000803e3d6000fd5b505050506040513d60208110156110d157600080fd5b505192915050565b6110e161258f565b6001600160a01b03166110f2611886565b6001600160a01b03161461114d576040805162461bcd60e51b815260206004820181905260248201527f4f776e61626c653a2063616c6c6572206973206e6f7420746865206f776e6572604482015290519081900360640190fd5b604080517fee9dcccc000000000000000000000000000000000000000000000000000000008152600260048201526024810184905260448101839052905173DcD9d0456846F641F5547cA025aFe9ae560Cc61F9163ee9dcccc916064808301926000929190829003018186803b1580156111c657600080fd5b505af41580156111da573d6000803e3d6000fd5b505050505050565b60005474010000000000000000000000000000000000000000900460ff1690565b6002546003546004546005546006546007546008546009546001600160a01b031688565b6001600160a01b038116600081815260106020526040812054909160ff90911690611251826114fc565b6001600160a01b0316146112ac576040805162461bcd60e51b815260206004820152601460248201527f546f6b656e20646f6573206e6f74206578697374000000000000000000000000604482015290519081900360640190fd5b92915050565b6112ba61258f565b6001600160a01b03166112cb611886565b6001600160a01b031614611326576040805162461bcd60e51b815260206004820181905260248201527f4f776e61626c653a2063616c6c6572206973206e6f7420746865206f776e6572604482015290519081900360640190fd5b600080546040516001600160a01b03909116907f8be0079c531659141344cd1fd0a4f28419497f9722a3daafe3b4186f6b6457e0908390a3600080547fffffffffffffffffffffffff0000000000000000000000000000000000000000169055565b604080517fc109ee2b000000000000000000000000000000000000000000000000000000008152600260048201526001600160a01b038416602482015260448101839052905160609173DcD9d0456846F641F5547cA025aFe9ae560Cc61F9163c109ee2b91606480820192600092909190829003018186803b15801561140d57600080fd5b505af4158015611421573d6000803e3d6000fd5b505050506040513d6000823e601f3d9081017fffffffffffffffffffffffffffffffffffffffffffffffffffffffffffffffe0168201604052602081101561146857600080fd5b810190808051604051939291908464010000000082111561148857600080fd5b90830190602082018581111561149d57600080fd5b82518660208202830111640100000000821117156114ba57600080fd5b82525081516020918201928201910280838360005b838110156114e75781810151838201526020016114cf565b50505050905001604052505050905092915050565b600a5460009060ff831610611558576040805162461bcd60e51b815260206004820152600c60248201527f4f7574206f662072616e67650000000000000000000000000000000000000000604482015290519081900360640190fd5b600a805460ff841690811061156957fe5b6000918252602090912001546001600160a01b031692915050565b61158c61258f565b6001600160a01b031661159d611886565b6001600160a01b0316146115f8576040805162461bcd60e51b815260206004820181905260248201527f4f776e61626c653a2063616c6c6572206973206e6f7420746865206f776e6572604482015290519081900360640190fd5b61102761265a565b60006002600154141561165a576040805162461bcd60e51b815260206004820152601f60248201527f5265656e7472616e637947756172643a207265656e7472616e742063616c6c00604482015290519081900360640190fd5b60026001556116676111e2565b156116b9576040805162461bcd60e51b815260206004820152601060248201527f5061757361626c653a2070617573656400000000000000000000000000000000604482015290519081900360640190fd5b818042111561170f576040805162461bcd60e51b815260206004820152601060248201527f446561646c696e65206e6f74206d657400000000000000000000000000000000604482015290519081900360640190fd5b600273DcD9d0456846F641F5547cA025aFe9ae560Cc61F634f95f4c090918888886040518563ffffffff1660e01b815260040180858152602001806020018381526020018281038252858582818152602001925060200280828437600081840152601f19601f8201169050808301925050509550505050505060206040518083038186803b158015610f7157600080fd5b6117a861258f565b6001600160a01b03166117b9611886565b6001600160a01b031614611814576040805162461bcd60e51b815260206004820181905260248201527f4f776e61626c653a2063616c6c6572206973206e6f7420746865206f776e6572604482015290519081900360640190fd5b604080517fb0c619480000000000000000000000000000000000000000000000000000000081526002600482015260248101839052905173DcD9d0456846F641F5547cA025aFe9ae560Cc61F9163b0c61948916044808301926000929190829003018186803b158015610dc557600080fd5b6000546001600160a01b031690565b6000600260015414156118ef576040805162461bcd60e51b815260206004820152601f60248201527f5265656e7472616e637947756172643a207265656e7472616e742063616c6c00604482015290519081900360640190fd5b60026001556118fc6111e2565b1561194e576040805162461bcd60e51b815260206004820152601060248201527f5061757361626c653a2070617573656400000000000000000000000000000000604482015290519081900360640190fd5b81804211156119a4576040805162461bcd60e51b815260206004820152601060248201527f446561646c696e65206e6f74206d657400000000000000000000000000000000604482015290519081900360640190fd5b604080517f528055c60000000000000000000000000000000000000000000000000000000081526002600482015260ff808a166024830152881660448201526064810187905260848101869052905173DcD9d0456846F641F5547cA025aFe9ae560Cc61F9163528055c69160a4808301926020929190829003018186803b158015611a2e57600080fd5b505af4158015611a42573d6000803e3d6000fd5b505050506040513d6020811015611a5857600080fd5b505160018055979650505050505050565b600a5460009060ff831610611ac5576040805162461bcd60e51b815260206004820152601260248201527f496e646578206f7574206f662072616e67650000000000000000000000000000604482015290519081900360640190fd5b600c805460ff8416908110611ad657fe5b90600052602060002001549050919050565b604080517f6e3af578000000000000000000000000000000000000000000000000000000008152600260048201526001600160a01b03851660248201526044810184905260ff83166064820152815160009273DcD9d0456846F641F5547cA025aFe9ae560Cc61F92636e3af5789260848083019392829003018186803b158015611b7157600080fd5b505af4158015611b85573d6000803e3d6000fd5b505050506040513d6040811015611b9b57600080fd5b5051949350505050565b604080517f6f7bc8440000000000000000000000000000000000000000000000000000000081526002600482015260ff80861660248301528416604482015260648101839052905160009173DcD9d0456846F641F5547cA025aFe9ae560Cc61F91636f7bc84491608480820192602092909190829003018186803b158015611c2c57600080fd5b505af4158015611c40573d6000803e3d6000fd5b505050506040513d6020811015611b9b57600080fd5b611c5e61258f565b6001600160a01b0316611c6f611886565b6001600160a01b031614611cca576040805162461bcd60e51b815260206004820181905260248201527f4f776e61626c653a2063616c6c6572206973206e6f7420746865206f776e6572604482015290519081900360640190fd5b604080517fe378be160000000000000000000000000000000000000000000000000000000081526002600482015260248101839052905173DcD9d0456846F641F5547cA025aFe9ae560Cc61F9163e378be16916044808301926000929190829003018186803b158015610dc557600080fd5b6009546001600160a01b03163314611d9b576040805162461bcd60e51b815260206004820152601b60248201527f4f6e6c792063616c6c61626c6520627920706f6f6c20746f6b656e0000000000604482015290519081900360640190fd5b604080517f6afc5273000000000000000000000000000000000000000000000000000000008152600260048201526001600160a01b038416602482015260448101839052905173DcD9d0456846F641F5547cA025aFe9ae560Cc61F91636afc5273916064808301926000929190829003018186803b1580156111c657600080fd5b611e2461258f565b6001600160a01b0316611e35611886565b6001600160a01b031614611e90576040805162461bcd60e51b815260206004820181905260248201527f4f776e61626c653a2063616c6c6572206973206e6f7420746865206f776e6572604482015290519081900360640190fd5b604080517f50afb95700000000000000000000000000000000000000000000000000000000815260026004820152905173DcD9d0456846F641F5547cA025aFe9ae560Cc61F916350afb957916024808301926000929190829003018186803b15801561095d57600080fd5b7f000000000000000000000000000000000000000000000000000000000000000090565b6000600273DcD9d0456846F641F5547cA025aFe9ae560Cc61F6307270f1e90916040518263ffffffff1660e01b81526004018082815260200191505060206040518083038186803b1580156109cb57600080fd5b604080517fd870cc32000000000000000000000000000000000000000000000000000000008152600260048201526001600160a01b0383166024820152905160009173DcD9d0456846F641F5547cA025aFe9ae560Cc61F9163d870cc3291604480820192602092909190829003018186803b1580156110a757600080fd5b60006002600154141561204b576040805162461bcd60e51b815260206004820152601f60248201527f5265656e7472616e637947756172643a207265656e7472616e742063616c6c00604482015290519081900360640190fd5b60026001556120586111e2565b156120aa576040805162461bcd60e51b815260206004820152601060248201527f5061757361626c653a2070617573656400000000000000000000000000000000604482015290519081900360640190fd5b8380421115612100576040805162461bcd60e51b815260206004820152601060248201527f446561646c696e65206e6f74206d657400000000000000000000000000000000604482015290519081900360640190fd5b600273DcD9d0456846F641F5547cA025aFe9ae560Cc61F63565bf2fa90918a8a8a89896040518763ffffffff1660e01b81526004018087815260200180602001858152602001806020018381038352888882818152602001925060200280828437600083820152601f017fffffffffffffffffffffffffffffffffffffffffffffffffffffffffffffffe0169091018481038352858152602090810191508690860280828437600081840152601f19601f8201169050808301925050509850505050505050505060206040518083038186803b1580156121df57600080fd5b505af41580156121f3573d6000803e3d6000fd5b505050506040513d602081101561220957600080fd5b50516001805598975050505050505050565b6000600273DcD9d0456846F641F5547cA025aFe9ae560Cc61F6398fb2d6f90916040518263ffffffff1660e01b81526004018082815260200191505060206040518083038186803b1580156109cb57600080fd5b6000600273DcD9d0456846F641F5547cA025aFe9ae560Cc61F636a487f389091846040518363ffffffff1660e01b8152600401808381526020018281526020019250505060206040518083038186803b1580156110a757600080fd5b6122d361258f565b6001600160a01b03166122e4611886565b6001600160a01b03161461233f576040805162461bcd60e51b815260206004820181905260248201527f4f776e61626c653a2063616c6c6572206973206e6f7420746865206f776e6572604482015290519081900360640190fd5b6001600160a01b0381166123845760405162461bcd60e51b815260040180806020018281038252602681526020018061271d6026913960400191505060405180910390fd5b600080546040516001600160a01b03808516939216917f8be0079c531659141344cd1fd0a4f28419497f9722a3daafe3b4186f6b6457e091a3600080547fffffffffffffffffffffffff0000000000000000000000000000000000000000166001600160a01b0392909216919091179055565b6000600273DcD9d0456846F641F5547cA025aFe9ae560Cc61F63345723439091878787876040518663ffffffff1660e01b815260040180868152602001856001600160a01b031681526020018060200183151581526020018281038252858582818152602001925060200280828437600081840152601f19601f820116905080830192505050965050505050505060206040518083038186803b15801561249d57600080fd5b505af41580156124b1573d6000803e3d6000fd5b505050506040513d60208110156124c757600080fd5b505195945050505050565b600082821115612529576040805162461bcd60e51b815260206004820152601e60248201527f536166654d6174683a207375627472616374696f6e206f766572666c6f770000604482015290519081900360640190fd5b50900390565b60008261253e575060006112ac565b8282028284828161254b57fe5b04146125885760405162461bcd60e51b81526004018080602001828103825260218152602001806127436021913960400191505060405180910390fd5b9392505050565b3390565b61259b6111e2565b6125ec576040805162461bcd60e51b815260206004820152601460248201527f5061757361626c653a206e6f7420706175736564000000000000000000000000604482015290519081900360640190fd5b600080547fffffffffffffffffffffff00ffffffffffffffffffffffffffffffffffffffff1690557f5db9ee0a495bf2e6ff9c91a7834c1ba4fdd244a5e8aa4e537bd38aeae4b073aa61263d61258f565b604080516001600160a01b039092168252519081900360200190a1565b6126626111e2565b156126b4576040805162461bcd60e51b815260206004820152601060248201527f5061757361626c653a2070617573656400000000000000000000000000000000604482015290519081900360640190fd5b600080547fffffffffffffffffffffff00ffffffffffffffffffffffffffffffffffffffff16740100000000000000000000000000000000000000001790557f62e78cea01bee320cd4e420270b5ea74000d11b0c9f74754ebdbfc544b05a25861263d61258f56fe4f776e61626c653a206e6577206f776e657220697320746865207a65726f2061646472657373536166654d6174683a206d756c7469706c69636174696f6e206f766572666c6f77a26469706673582212209ff04cc98ba8df886811d74d131d59c5a8a196e14833de84f35ae9a6e13f520664736f6c634300060c003360806040523480156200001157600080fd5b5060405162001aa438038062001aa4833981810160405260608110156200003757600080fd5b81019080805160405193929190846401000000008211156200005857600080fd5b9083019060208201858111156200006e57600080fd5b82516401000000008111828201881017156200008957600080fd5b82525081516020918201929091019080838360005b83811015620000b85781810151838201526020016200009e565b50505050905090810190601f168015620000e65780820380516001836020036101000a031916815260200191505b50604052602001805160405193929190846401000000008211156200010a57600080fd5b9083019060208201858111156200012057600080fd5b82516401000000008111828201881017156200013b57600080fd5b82525081516020918201929091019080838360005b838110156200016a57818101518382015260200162000150565b50505050905090810190601f168015620001985780820380516001836020036101000a031916815260200191505b5060405260209081015185519093508592508491620001bd916003918501906200029e565b508051620001d39060049060208401906200029e565b50506005805460ff19166012179055506000620001ef62000284565b60058054610100600160a81b0319166101006001600160a01b03841690810291909117909155604051919250906000907f8be0079c531659141344cd1fd0a4f28419497f9722a3daafe3b4186f6b6457e0908290a350620002508162000288565b6200025a62000284565b600680546001600160a01b0319166001600160a01b0392909216919091179055506200033a915050565b3390565b6005805460ff191660ff92909216919091179055565b828054600181600116156101000203166002900490600052602060002090601f016020900481019282601f10620002e157805160ff191683800117855562000311565b8280016001018555821562000311579182015b8281111562000311578251825591602001919060010190620002f4565b506200031f92915062000323565b5090565b5b808211156200031f576000815560010162000324565b61175a806200034a6000396000f3fe608060405234801561001057600080fd5b50600436106101515760003560e01c806370a08231116100cd57806395d89b4111610081578063a9059cbb11610066578063a9059cbb14610431578063dd62ed3e1461045d578063f2fde38b1461048b57610151565b806395d89b41146103fd578063a457c2d71461040557610151565b806379cc6790116100b257806379cc6790146103a55780638119c065146103d15780638da5cb5b146103f557610151565b806370a0823114610377578063715018a61461039d57610151565b8063313ce5671161012457806342966c681161010957806342966c68146102ad578063641ce140146102cc5780636ef0d8551461035157610151565b8063313ce56714610263578063395093511461028157610151565b806306fdde0314610156578063095ea7b3146101d357806318160ddd1461021357806323b872dd1461022d575b600080fd5b61015e6104b1565b6040805160208082528351818301528351919283929083019185019080838360005b83811015610198578181015183820152602001610180565b50505050905090810190601f1680156101c55780820380516001836020036101000a031916815260200191505b509250505060405180910390f35b6101ff600480360360408110156101e957600080fd5b506001600160a01b038135169060200135610565565b604080519115158252519081900360200190f35b61021b610582565b60408051918252519081900360200190f35b6101ff6004803603606081101561024357600080fd5b506001600160a01b03813581169160208101359091169060400135610588565b61026b61060f565b6040805160ff9092168252519081900360200190f35b6101ff6004803603604081101561029757600080fd5b506001600160a01b038135169060200135610618565b6102ca600480360360208110156102c357600080fd5b5035610666565b005b6102ca600480360360608110156102e257600080fd5b6001600160a01b038235169160208101359181019060608101604082013564010000000081111561031257600080fd5b82018360208201111561032457600080fd5b8035906020019184602083028401116401000000008311171561034657600080fd5b50909250905061067a565b61021b6004803603602081101561036757600080fd5b50356001600160a01b0316610b92565b61021b6004803603602081101561038d57600080fd5b50356001600160a01b0316610ba4565b6102ca610bbf565b6102ca600480360360408110156103bb57600080fd5b506001600160a01b038135169060200135610c9a565b6103d9610cf4565b604080516001600160a01b039092168252519081900360200190f35b6103d9610d03565b61015e610d17565b6101ff6004803603604081101561041b57600080fd5b506001600160a01b038135169060200135610d96565b6101ff6004803603604081101561044757600080fd5b506001600160a01b038135169060200135610dfe565b61021b6004803603604081101561047357600080fd5b506001600160a01b0381358116916020013516610e12565b6102ca600480360360208110156104a157600080fd5b50356001600160a01b0316610e3d565b60038054604080516020601f60027fffffffffffffffffffffffffffffffffffffffffffffffffffffffffffffffff61010060018816150201909516949094049384018190048102820181019092528281526060939092909183018282801561055b5780601f106105305761010080835404028352916020019161055b565b820191906000526020600020905b81548152906001019060200180831161053e57829003601f168201915b5050505050905090565b6000610579610572610f74565b8484610f78565b50600192915050565b60025490565b6000610595848484611064565b610605846105a1610f74565b6106008560405180606001604052806028815260200161164a602891396001600160a01b038a166000908152600160205260408120906105df610f74565b6001600160a01b0316815260208101919091526040016000205491906111bf565b610f78565b5060019392505050565b60055460ff1690565b6000610579610625610f74565b846106008560016000610636610f74565b6001600160a01b03908116825260208083019390935260409182016000908120918c168152925290205490611256565b610677610671610f74565b826112b7565b50565b610682610f74565b6001600160a01b0316610693610d03565b6001600160a01b0316146106ee576040805162461bcd60e51b815260206004820181905260248201527f4f776e61626c653a2063616c6c6572206973206e6f7420746865206f776e6572604482015290519081900360640190fd5b82610740576040805162461bcd60e51b815260206004820152600b60248201527f616d6f756e74203d3d2030000000000000000000000000000000000000000000604482015290519081900360640190fd5b600660009054906101000a90046001600160a01b03166001600160a01b031663202496836040518163ffffffff1660e01b815260040160206040518083038186803b15801561078e57600080fd5b505afa1580156107a2573d6000803e3d6000fd5b505050506040513d60208110156107b857600080fd5b505115610b8257600654604080517fc5eff3d000000000000000000000000000000000000000000000000000000000815290516000926001600160a01b03169163c5eff3d0916004808301926020929190829003018186803b15801561081d57600080fd5b505afa158015610831573d6000803e3d6000fd5b505050506040513d602081101561084757600080fd5b5051604080517f9c8d8dea0000000000000000000000000000000000000000000000000000000081526001600160a01b03888116600483019081526024830193845260448301879052939450841692639c8d8dea928992889288929091606401846020850280828437600081840152601f19601f820116905080830192505050945050505050602060405180830381600087803b1580156108e757600080fd5b505af11580156108fb573d6000803e3d6000fd5b505050506040513d602081101561091157600080fd5b5051610964576040805162461bcd60e51b815260206004820152601460248201527f496e76616c6964206d65726b6c652070726f6f66000000000000000000000000604482015290519081900360640190fd5b6001600160a01b0385166000908152600760205260408120546109879086611256565b600654604080517feb88f73e0000000000000000000000000000000000000000000000000000000081526001600160a01b03928316600482015290519293509084169163eb88f73e91602480820192602092909190829003018186803b1580156109f057600080fd5b505afa158015610a04573d6000803e3d6000fd5b505050506040513d6020811015610a1a57600080fd5b5051811115610a70576040805162461bcd60e51b815260206004820152601560248201527f6163636f756e74206465706f736974206c696d69740000000000000000000000604482015290519081900360640190fd5b600654604080517f945f18380000000000000000000000000000000000000000000000000000000081526001600160a01b03928316600482015290519184169163945f183891602480820192602092909190829003018186803b158015610ad657600080fd5b505afa158015610aea573d6000803e3d6000fd5b505050506040513d6020811015610b0057600080fd5b5051610b1486610b0e610582565b90611256565b1115610b67576040805162461bcd60e51b815260206004820152601760248201527f706f6f6c20746f74616c20737570706c79206c696d6974000000000000000000604482015290519081900360640190fd5b6001600160a01b038616600090815260076020526040902055505b610b8c84846113b3565b50505050565b60076020526000908152604090205481565b6001600160a01b031660009081526020819052604090205490565b610bc7610f74565b6001600160a01b0316610bd8610d03565b6001600160a01b031614610c33576040805162461bcd60e51b815260206004820181905260248201527f4f776e61626c653a2063616c6c6572206973206e6f7420746865206f776e6572604482015290519081900360640190fd5b60055460405160009161010090046001600160a01b0316907f8be0079c531659141344cd1fd0a4f28419497f9722a3daafe3b4186f6b6457e0908390a3600580547fffffffffffffffffffffff0000000000000000000000000000000000000000ff169055565b6000610cd18260405180606001604052806024815260200161167260249139610cca86610cc5610f74565b610e12565b91906111bf565b9050610ce583610cdf610f74565b83610f78565b610cef83836112b7565b505050565b6006546001600160a01b031681565b60055461010090046001600160a01b031690565b60048054604080516020601f60027fffffffffffffffffffffffffffffffffffffffffffffffffffffffffffffffff61010060018816150201909516949094049384018190048102820181019092528281526060939092909183018282801561055b5780601f106105305761010080835404028352916020019161055b565b6000610579610da3610f74565b84610600856040518060600160405280602581526020016117006025913960016000610dcd610f74565b6001600160a01b03908116825260208083019390935260409182016000908120918d168152925290205491906111bf565b6000610579610e0b610f74565b8484611064565b6001600160a01b03918216600090815260016020908152604080832093909416825291909152205490565b610e45610f74565b6001600160a01b0316610e56610d03565b6001600160a01b031614610eb1576040805162461bcd60e51b815260206004820181905260248201527f4f776e61626c653a2063616c6c6572206973206e6f7420746865206f776e6572604482015290519081900360640190fd5b6001600160a01b038116610ef65760405162461bcd60e51b81526004018080602001828103825260268152602001806115dc6026913960400191505060405180910390fd5b6005546040516001600160a01b0380841692610100900416907f8be0079c531659141344cd1fd0a4f28419497f9722a3daafe3b4186f6b6457e090600090a3600580546001600160a01b03909216610100027fffffffffffffffffffffff0000000000000000000000000000000000000000ff909216919091179055565b3390565b6001600160a01b038316610fbd5760405162461bcd60e51b81526004018080602001828103825260248152602001806116dc6024913960400191505060405180910390fd5b6001600160a01b0382166110025760405162461bcd60e51b81526004018080602001828103825260228152602001806116026022913960400191505060405180910390fd5b6001600160a01b03808416600081815260016020908152604080832094871680845294825291829020859055815185815291517f8c5be1e5ebec7d5bd14f71427d1e84f3dd0314c0f7b2291e5b200ac8c7c3b9259281900390910190a3505050565b6001600160a01b0383166110a95760405162461bcd60e51b81526004018080602001828103825260258152602001806116b76025913960400191505060405180910390fd5b6001600160a01b0382166110ee5760405162461bcd60e51b81526004018080602001828103825260238152602001806115976023913960400191505060405180910390fd5b6110f98383836114a3565b61113681604051806060016040528060268152602001611624602691396001600160a01b03861660009081526020819052604090205491906111bf565b6001600160a01b0380851660009081526020819052604080822093909355908416815220546111659082611256565b6001600160a01b038084166000818152602081815260409182902094909455805185815290519193928716927fddf252ad1be2c89b69c2b068fc378daa952ba7f163c4a11628f55a4df523b3ef92918290030190a3505050565b6000818484111561124e5760405162461bcd60e51b81526004018080602001828103825283818151815260200191508051906020019080838360005b838110156112135781810151838201526020016111fb565b50505050905090810190601f1680156112405780820380516001836020036101000a031916815260200191505b509250505060405180910390fd5b505050900390565b6000828201838110156112b0576040805162461bcd60e51b815260206004820152601b60248201527f536166654d6174683a206164646974696f6e206f766572666c6f770000000000604482015290519081900360640190fd5b9392505050565b6001600160a01b0382166112fc5760405162461bcd60e51b81526004018080602001828103825260218152602001806116966021913960400191505060405180910390fd5b611308826000836114a3565b611345816040518060600160405280602281526020016115ba602291396001600160a01b03851660009081526020819052604090205491906111bf565b6001600160a01b03831660009081526020819052604090205560025461136b9082611539565b6002556040805182815290516000916001600160a01b038516917fddf252ad1be2c89b69c2b068fc378daa952ba7f163c4a11628f55a4df523b3ef9181900360200190a35050565b6001600160a01b03821661140e576040805162461bcd60e51b815260206004820152601f60248201527f45524332303a206d696e7420746f20746865207a65726f206164647265737300604482015290519081900360640190fd5b61141a600083836114a3565b6002546114279082611256565b6002556001600160a01b03821660009081526020819052604090205461144d9082611256565b6001600160a01b0383166000818152602081815260408083209490945583518581529351929391927fddf252ad1be2c89b69c2b068fc378daa952ba7f163c4a11628f55a4df523b3ef9281900390910190a35050565b6114ae838383610cef565b600654604080517fc00c125c0000000000000000000000000000000000000000000000000000000081526001600160a01b038581166004830152602482018590529151919092169163c00c125c91604480830192600092919082900301818387803b15801561151c57600080fd5b505af1158015611530573d6000803e3d6000fd5b50505050505050565b600082821115611590576040805162461bcd60e51b815260206004820152601e60248201527f536166654d6174683a207375627472616374696f6e206f766572666c6f770000604482015290519081900360640190fd5b5090039056fe45524332303a207472616e7366657220746f20746865207a65726f206164647265737345524332303a206275726e20616d6f756e7420657863656564732062616c616e63654f776e61626c653a206e6577206f776e657220697320746865207a65726f206164647265737345524332303a20617070726f766520746f20746865207a65726f206164647265737345524332303a207472616e7366657220616d6f756e7420657863656564732062616c616e636545524332303a207472616e7366657220616d6f756e74206578636565647320616c6c6f77616e636545524332303a206275726e20616d6f756e74206578636565647320616c6c6f77616e636545524332303a206275726e2066726f6d20746865207a65726f206164647265737345524332303a207472616e736665722066726f6d20746865207a65726f206164647265737345524332303a20617070726f76652066726f6d20746865207a65726f206164647265737345524332303a2064656372656173656420616c6c6f77616e63652062656c6f77207a65726fa264697066735822122072d1ea1aac384eaf750ab342789ef2152a5d75e86f08dd32ead47d3970e6729f64736f6c634300060c0033536166654d6174683a206d756c7469706c69636174696f6e206f766572666c6f77",
  "deployedBytecode": "0x608060405234801561001057600080fd5b50600436106102415760003560e01c806384cdd9bc11610145578063c4db7fa0116100bd578063e22517f41161008c578063ef0a712f11610071578063ef0a712f146107bc578063f2fde38b146107d9578063f9273ffb146107ff57610241565b8063e22517f4146106e6578063e25aa5fa146107b457610241565b8063c4db7fa0146106a8578063c5eff3d0146106b0578063d46300fd146106b8578063da7a77be146106c057610241565b806391ceb3eb11610114578063a95b089f116100f9578063a95b089f1461062f578063ac5bf2631461065f578063c00c125c1461067c57610241565b806391ceb3eb146105da57806398899f40146105fa57610241565b806384cdd9bc146105035780638beb60b6146105795780638da5cb5b14610596578063916955861461059e57610241565b80634a1b0d57116101d857806366c0bd24116101a75780637c61e5611161018c5780637c61e5611461049357806382b86600146104bf5780638456cb59146104fb57610241565b806366c0bd241461044f578063715018a61461048b57610241565b80634a1b0d57146103ac578063593d132c146103d25780635c975abb146103f55780635fd65f0f146103fd57610241565b806331cd52b01161021457806331cd52b01461028e57806334e19907146103555780633e3a1560146103725780633f4ba83a146103a457610241565b80630419b45a146102465780630ba8195914610250578063202496831461026a57806324b8457314610286575b600080fd5b61024e610881565b005b610258610977565b60408051918252519081900360200190f35b6102726109fc565b604080519115158252519081900360200190f35b61024e610a05565b610305600480360360608110156102a457600080fd5b813591908101906040810160208201356401000000008111156102c657600080fd5b8201836020820111156102d857600080fd5b803590602001918460208302840111640100000000831117156102fa57600080fd5b919350915035610aa3565b60408051602080825283518183015283519192839290830191858101910280838360005b83811015610341578181015183820152602001610329565b505050509050019250505060405180910390f35b61024e6004803603602081101561036b57600080fd5b5035610cdf565b6102586004803603608081101561038857600080fd5b5080359060ff6020820135169060408101359060600135610de0565b61024e610fab565b610258600480360360208110156103c257600080fd5b50356001600160a01b0316611029565b61024e600480360360408110156103e857600080fd5b50803590602001356110d9565b6102726111e2565b610405611203565b604080519889526020890197909752878701959095526060870193909352608086019190915260a085015260c08401526001600160a01b031660e083015251908190036101000190f35b6104756004803603602081101561046557600080fd5b50356001600160a01b0316611227565b6040805160ff9092168252519081900360200190f35b61024e6112b2565b610305600480360360408110156104a957600080fd5b506001600160a01b038135169060200135611388565b6104df600480360360208110156104d557600080fd5b503560ff166114fc565b604080516001600160a01b039092168252519081900360200190f35b61024e611584565b6102586004803603606081101561051957600080fd5b81019060208101813564010000000081111561053457600080fd5b82018360208201111561054657600080fd5b8035906020019184602083028401116401000000008311171561056857600080fd5b919350915080359060200135611600565b61024e6004803603602081101561058f57600080fd5b50356117a0565b6104df611886565b610258600480360360a08110156105b457600080fd5b5060ff813581169160208101359091169060408101359060608101359060800135611895565b610258600480360360208110156105f057600080fd5b503560ff16611a69565b6102586004803603606081101561061057600080fd5b5080356001600160a01b0316906020810135906040013560ff16611ae8565b6102586004803603606081101561064557600080fd5b5060ff813581169160208101359091169060400135611ba5565b61024e6004803603602081101561067557600080fd5b5035611c56565b61024e6004803603604081101561069257600080fd5b506001600160a01b038135169060200135611d3c565b61024e611e1c565b6104df611efb565b610258611f1f565b610258600480360360208110156106d657600080fd5b50356001600160a01b0316611f73565b610258600480360360808110156106fc57600080fd5b81019060208101813564010000000081111561071757600080fd5b82018360208201111561072957600080fd5b8035906020019184602083028401116401000000008311171561074b57600080fd5b91939092823592602081013592919060608101906040013564010000000081111561077557600080fd5b82018360208201111561078757600080fd5b803590602001918460208302840111640100000000831117156107a957600080fd5b509092509050611ff1565b61025861221b565b610258600480360360208110156107d257600080fd5b503561226f565b61024e600480360360208110156107ef57600080fd5b50356001600160a01b03166122cb565b6102586004803603606081101561081557600080fd5b6001600160a01b03823516919081019060408101602082013564010000000081111561084057600080fd5b82018360208201111561085257600080fd5b8035906020019184602083028401116401000000008311171561087457600080fd5b91935091503515156123f7565b61088961258f565b6001600160a01b031661089a611886565b6001600160a01b0316146108f5576040805162461bcd60e51b815260206004820181905260248201527f4f776e61626c653a2063616c6c6572206973206e6f7420746865206f776e6572604482015290519081900360640190fd5b73__$e009961f1a3aac2409a301292b3f637cae$__63f4cd32036002610919611886565b6040518363ffffffff1660e01b815260040180838152602001826001600160a01b031681526020019250505060006040518083038186803b15801561095d57600080fd5b505af4158015610971573d6000803e3d6000fd5b50505050565b6000600273__$e009961f1a3aac2409a301292b3f637cae$__6347298d5b90916040518263ffffffff1660e01b81526004018082815260200191505060206040518083038186803b1580156109cb57600080fd5b505af41580156109df573d6000803e3d6000fd5b505050506040513d60208110156109f557600080fd5b5051905090565b600f5460ff1690565b610a0d61258f565b6001600160a01b0316610a1e611886565b6001600160a01b031614610a79576040805162461bcd60e51b815260206004820181905260248201527f4f776e61626c653a2063616c6c6572206973206e6f7420746865206f776e6572604482015290519081900360640190fd5b600f80547fffffffffffffffffffffffffffffffffffffffffffffffffffffffffffffff00169055565b606060026001541415610afd576040805162461bcd60e51b815260206004820152601f60248201527f5265656e7472616e637947756172643a207265656e7472616e742063616c6c00604482015290519081900360640190fd5b60026001558142811015610b58576040805162461bcd60e51b815260206004820152601060248201527f446561646c696e65206e6f74206d657400000000000000000000000000000000604482015290519081900360640190fd5b600273__$e009961f1a3aac2409a301292b3f637cae$__63e0c0221790918888886040518563ffffffff1660e01b815260040180858152602001848152602001806020018281038252848482818152602001925060200280828437600081840152601f19601f8201169050808301925050509550505050505060006040518083038186803b158015610be957600080fd5b505af4158015610bfd573d6000803e3d6000fd5b505050506040513d6000823e601f3d9081017fffffffffffffffffffffffffffffffffffffffffffffffffffffffffffffffe01682016040526020811015610c4457600080fd5b8101908080516040519392919084640100000000821115610c6457600080fd5b908301906020820185811115610c7957600080fd5b8251866020820283011164010000000082111715610c9657600080fd5b82525081516020918201928201910280838360005b83811015610cc3578181015183820152602001610cab565b5050505090500160405250505091505060018055949350505050565b610ce761258f565b6001600160a01b0316610cf8611886565b6001600160a01b031614610d53576040805162461bcd60e51b815260206004820181905260248201527f4f776e61626c653a2063616c6c6572206973206e6f7420746865206f776e6572604482015290519081900360640190fd5b604080517f7d230a4c0000000000000000000000000000000000000000000000000000000081526002600482015260248101839052905173__$e009961f1a3aac2409a301292b3f637cae$__91637d230a4c916044808301926000929190829003018186803b158015610dc557600080fd5b505af4158015610dd9573d6000803e3d6000fd5b5050505050565b600060026001541415610e3a576040805162461bcd60e51b815260206004820152601f60248201527f5265656e7472616e637947756172643a207265656e7472616e742063616c6c00604482015290519081900360640190fd5b6002600155610e476111e2565b15610e99576040805162461bcd60e51b815260206004820152601060248201527f5061757361626c653a2070617573656400000000000000000000000000000000604482015290519081900360640190fd5b8180421115610eef576040805162461bcd60e51b815260206004820152601060248201527f446561646c696e65206e6f74206d657400000000000000000000000000000000604482015290519081900360640190fd5b604080517fc232f71b000000000000000000000000000000000000000000000000000000008152600260048201526024810188905260ff8716604482015260648101869052905173__$e009961f1a3aac2409a301292b3f637cae$__9163c232f71b916084808301926020929190829003018186803b158015610f7157600080fd5b505af4158015610f85573d6000803e3d6000fd5b505050506040513d6020811015610f9b57600080fd5b5051600180559695505050505050565b610fb361258f565b6001600160a01b0316610fc4611886565b6001600160a01b03161461101f576040805162461bcd60e51b815260206004820181905260248201527f4f776e61626c653a2063616c6c6572206973206e6f7420746865206f776e6572604482015290519081900360640190fd5b611027612593565b565b604080517f7341f8c1000000000000000000000000000000000000000000000000000000008152600260048201526001600160a01b0383166024820152905160009173__$e009961f1a3aac2409a301292b3f637cae$__91637341f8c191604480820192602092909190829003018186803b1580156110a757600080fd5b505af41580156110bb573d6000803e3d6000fd5b505050506040513d60208110156110d157600080fd5b505192915050565b6110e161258f565b6001600160a01b03166110f2611886565b6001600160a01b03161461114d576040805162461bcd60e51b815260206004820181905260248201527f4f776e61626c653a2063616c6c6572206973206e6f7420746865206f776e6572604482015290519081900360640190fd5b604080517fee9dcccc000000000000000000000000000000000000000000000000000000008152600260048201526024810184905260448101839052905173__$e009961f1a3aac2409a301292b3f637cae$__9163ee9dcccc916064808301926000929190829003018186803b1580156111c657600080fd5b505af41580156111da573d6000803e3d6000fd5b505050505050565b60005474010000000000000000000000000000000000000000900460ff1690565b6002546003546004546005546006546007546008546009546001600160a01b031688565b6001600160a01b038116600081815260106020526040812054909160ff90911690611251826114fc565b6001600160a01b0316146112ac576040805162461bcd60e51b815260206004820152601460248201527f546f6b656e20646f6573206e6f74206578697374000000000000000000000000604482015290519081900360640190fd5b92915050565b6112ba61258f565b6001600160a01b03166112cb611886565b6001600160a01b031614611326576040805162461bcd60e51b815260206004820181905260248201527f4f776e61626c653a2063616c6c6572206973206e6f7420746865206f776e6572604482015290519081900360640190fd5b600080546040516001600160a01b03909116907f8be0079c531659141344cd1fd0a4f28419497f9722a3daafe3b4186f6b6457e0908390a3600080547fffffffffffffffffffffffff0000000000000000000000000000000000000000169055565b604080517fc109ee2b000000000000000000000000000000000000000000000000000000008152600260048201526001600160a01b038416602482015260448101839052905160609173__$e009961f1a3aac2409a301292b3f637cae$__9163c109ee2b91606480820192600092909190829003018186803b15801561140d57600080fd5b505af4158015611421573d6000803e3d6000fd5b505050506040513d6000823e601f3d9081017fffffffffffffffffffffffffffffffffffffffffffffffffffffffffffffffe0168201604052602081101561146857600080fd5b810190808051604051939291908464010000000082111561148857600080fd5b90830190602082018581111561149d57600080fd5b82518660208202830111640100000000821117156114ba57600080fd5b82525081516020918201928201910280838360005b838110156114e75781810151838201526020016114cf565b50505050905001604052505050905092915050565b600a5460009060ff831610611558576040805162461bcd60e51b815260206004820152600c60248201527f4f7574206f662072616e67650000000000000000000000000000000000000000604482015290519081900360640190fd5b600a805460ff841690811061156957fe5b6000918252602090912001546001600160a01b031692915050565b61158c61258f565b6001600160a01b031661159d611886565b6001600160a01b0316146115f8576040805162461bcd60e51b815260206004820181905260248201527f4f776e61626c653a2063616c6c6572206973206e6f7420746865206f776e6572604482015290519081900360640190fd5b61102761265a565b60006002600154141561165a576040805162461bcd60e51b815260206004820152601f60248201527f5265656e7472616e637947756172643a207265656e7472616e742063616c6c00604482015290519081900360640190fd5b60026001556116676111e2565b156116b9576040805162461bcd60e51b815260206004820152601060248201527f5061757361626c653a2070617573656400000000000000000000000000000000604482015290519081900360640190fd5b818042111561170f576040805162461bcd60e51b815260206004820152601060248201527f446561646c696e65206e6f74206d657400000000000000000000000000000000604482015290519081900360640190fd5b600273__$e009961f1a3aac2409a301292b3f637cae$__634f95f4c090918888886040518563ffffffff1660e01b815260040180858152602001806020018381526020018281038252858582818152602001925060200280828437600081840152601f19601f8201169050808301925050509550505050505060206040518083038186803b158015610f7157600080fd5b6117a861258f565b6001600160a01b03166117b9611886565b6001600160a01b031614611814576040805162461bcd60e51b815260206004820181905260248201527f4f776e61626c653a2063616c6c6572206973206e6f7420746865206f776e6572604482015290519081900360640190fd5b604080517fb0c619480000000000000000000000000000000000000000000000000000000081526002600482015260248101839052905173__$e009961f1a3aac2409a301292b3f637cae$__9163b0c61948916044808301926000929190829003018186803b158015610dc557600080fd5b6000546001600160a01b031690565b6000600260015414156118ef576040805162461bcd60e51b815260206004820152601f60248201527f5265656e7472616e637947756172643a207265656e7472616e742063616c6c00604482015290519081900360640190fd5b60026001556118fc6111e2565b1561194e576040805162461bcd60e51b815260206004820152601060248201527f5061757361626c653a2070617573656400000000000000000000000000000000604482015290519081900360640190fd5b81804211156119a4576040805162461bcd60e51b815260206004820152601060248201527f446561646c696e65206e6f74206d657400000000000000000000000000000000604482015290519081900360640190fd5b604080517f528055c60000000000000000000000000000000000000000000000000000000081526002600482015260ff808a166024830152881660448201526064810187905260848101869052905173__$e009961f1a3aac2409a301292b3f637cae$__9163528055c69160a4808301926020929190829003018186803b158015611a2e57600080fd5b505af4158015611a42573d6000803e3d6000fd5b505050506040513d6020811015611a5857600080fd5b505160018055979650505050505050565b600a5460009060ff831610611ac5576040805162461bcd60e51b815260206004820152601260248201527f496e646578206f7574206f662072616e67650000000000000000000000000000604482015290519081900360640190fd5b600c805460ff8416908110611ad657fe5b90600052602060002001549050919050565b604080517f6e3af578000000000000000000000000000000000000000000000000000000008152600260048201526001600160a01b03851660248201526044810184905260ff83166064820152815160009273__$e009961f1a3aac2409a301292b3f637cae$__92636e3af5789260848083019392829003018186803b158015611b7157600080fd5b505af4158015611b85573d6000803e3d6000fd5b505050506040513d6040811015611b9b57600080fd5b5051949350505050565b604080517f6f7bc8440000000000000000000000000000000000000000000000000000000081526002600482015260ff80861660248301528416604482015260648101839052905160009173__$e009961f1a3aac2409a301292b3f637cae$__91636f7bc84491608480820192602092909190829003018186803b158015611c2c57600080fd5b505af4158015611c40573d6000803e3d6000fd5b505050506040513d6020811015611b9b57600080fd5b611c5e61258f565b6001600160a01b0316611c6f611886565b6001600160a01b031614611cca576040805162461bcd60e51b815260206004820181905260248201527f4f776e61626c653a2063616c6c6572206973206e6f7420746865206f776e6572604482015290519081900360640190fd5b604080517fe378be160000000000000000000000000000000000000000000000000000000081526002600482015260248101839052905173__$e009961f1a3aac2409a301292b3f637cae$__9163e378be16916044808301926000929190829003018186803b158015610dc557600080fd5b6009546001600160a01b03163314611d9b576040805162461bcd60e51b815260206004820152601b60248201527f4f6e6c792063616c6c61626c6520627920706f6f6c20746f6b656e0000000000604482015290519081900360640190fd5b604080517f6afc5273000000000000000000000000000000000000000000000000000000008152600260048201526001600160a01b038416602482015260448101839052905173__$e009961f1a3aac2409a301292b3f637cae$__91636afc5273916064808301926000929190829003018186803b1580156111c657600080fd5b611e2461258f565b6001600160a01b0316611e35611886565b6001600160a01b031614611e90576040805162461bcd60e51b815260206004820181905260248201527f4f776e61626c653a2063616c6c6572206973206e6f7420746865206f776e6572604482015290519081900360640190fd5b604080517f50afb95700000000000000000000000000000000000000000000000000000000815260026004820152905173__$e009961f1a3aac2409a301292b3f637cae$__916350afb957916024808301926000929190829003018186803b15801561095d57600080fd5b7f000000000000000000000000000000000000000000000000000000000000000090565b6000600273__$e009961f1a3aac2409a301292b3f637cae$__6307270f1e90916040518263ffffffff1660e01b81526004018082815260200191505060206040518083038186803b1580156109cb57600080fd5b604080517fd870cc32000000000000000000000000000000000000000000000000000000008152600260048201526001600160a01b0383166024820152905160009173__$e009961f1a3aac2409a301292b3f637cae$__9163d870cc3291604480820192602092909190829003018186803b1580156110a757600080fd5b60006002600154141561204b576040805162461bcd60e51b815260206004820152601f60248201527f5265656e7472616e637947756172643a207265656e7472616e742063616c6c00604482015290519081900360640190fd5b60026001556120586111e2565b156120aa576040805162461bcd60e51b815260206004820152601060248201527f5061757361626c653a2070617573656400000000000000000000000000000000604482015290519081900360640190fd5b8380421115612100576040805162461bcd60e51b815260206004820152601060248201527f446561646c696e65206e6f74206d657400000000000000000000000000000000604482015290519081900360640190fd5b600273__$e009961f1a3aac2409a301292b3f637cae$__63565bf2fa90918a8a8a89896040518763ffffffff1660e01b81526004018087815260200180602001858152602001806020018381038352888882818152602001925060200280828437600083820152601f017fffffffffffffffffffffffffffffffffffffffffffffffffffffffffffffffe0169091018481038352858152602090810191508690860280828437600081840152601f19601f8201169050808301925050509850505050505050505060206040518083038186803b1580156121df57600080fd5b505af41580156121f3573d6000803e3d6000fd5b505050506040513d602081101561220957600080fd5b50516001805598975050505050505050565b6000600273__$e009961f1a3aac2409a301292b3f637cae$__6398fb2d6f90916040518263ffffffff1660e01b81526004018082815260200191505060206040518083038186803b1580156109cb57600080fd5b6000600273__$e009961f1a3aac2409a301292b3f637cae$__636a487f389091846040518363ffffffff1660e01b8152600401808381526020018281526020019250505060206040518083038186803b1580156110a757600080fd5b6122d361258f565b6001600160a01b03166122e4611886565b6001600160a01b03161461233f576040805162461bcd60e51b815260206004820181905260248201527f4f776e61626c653a2063616c6c6572206973206e6f7420746865206f776e6572604482015290519081900360640190fd5b6001600160a01b0381166123845760405162461bcd60e51b815260040180806020018281038252602681526020018061271d6026913960400191505060405180910390fd5b600080546040516001600160a01b03808516939216917f8be0079c531659141344cd1fd0a4f28419497f9722a3daafe3b4186f6b6457e091a3600080547fffffffffffffffffffffffff0000000000000000000000000000000000000000166001600160a01b0392909216919091179055565b6000600273__$e009961f1a3aac2409a301292b3f637cae$__63345723439091878787876040518663ffffffff1660e01b815260040180868152602001856001600160a01b031681526020018060200183151581526020018281038252858582818152602001925060200280828437600081840152601f19601f820116905080830192505050965050505050505060206040518083038186803b15801561249d57600080fd5b505af41580156124b1573d6000803e3d6000fd5b505050506040513d60208110156124c757600080fd5b505195945050505050565b600082821115612529576040805162461bcd60e51b815260206004820152601e60248201527f536166654d6174683a207375627472616374696f6e206f766572666c6f770000604482015290519081900360640190fd5b50900390565b60008261253e575060006112ac565b8282028284828161254b57fe5b04146125885760405162461bcd60e51b81526004018080602001828103825260218152602001806127436021913960400191505060405180910390fd5b9392505050565b3390565b61259b6111e2565b6125ec576040805162461bcd60e51b815260206004820152601460248201527f5061757361626c653a206e6f7420706175736564000000000000000000000000604482015290519081900360640190fd5b600080547fffffffffffffffffffffff00ffffffffffffffffffffffffffffffffffffffff1690557f5db9ee0a495bf2e6ff9c91a7834c1ba4fdd244a5e8aa4e537bd38aeae4b073aa61263d61258f565b604080516001600160a01b039092168252519081900360200190a1565b6126626111e2565b156126b4576040805162461bcd60e51b815260206004820152601060248201527f5061757361626c653a2070617573656400000000000000000000000000000000604482015290519081900360640190fd5b600080547fffffffffffffffffffffff00ffffffffffffffffffffffffffffffffffffffff16740100000000000000000000000000000000000000001790557f62e78cea01bee320cd4e420270b5ea74000d11b0c9f74754ebdbfc544b05a25861263d61258f56fe4f776e61626c653a206e6577206f776e657220697320746865207a65726f2061646472657373536166654d6174683a206d756c7469706c69636174696f6e206f766572666c6f77a26469706673582212209ff04cc98ba8df886811d74d131d59c5a8a196e14833de84f35ae9a6e13f520664736f6c634300060c0033",
  "libraries": {
    "SwapUtilsGuarded": "0xDcD9d0456846F641F5547cA025aFe9ae560Cc61F"
  },
  "devdoc": {
    "details": "Most of the logic is stored as a library `SwapUtils` for the sake of reducing contract's deployment size.",
    "kind": "dev",
    "methods": {
      "addLiquidity(uint256[],uint256,uint256,bytes32[])": {
        "params": {
          "amounts": "the amounts of each token to add, in their native precision",
          "deadline": "latest timestamp to accept this transaction",
          "merkleProof": "data generated when constructing the allowlist merkle tree. Users can get this data off chain. Even if the address is in the allowlist, users must include a valid proof for this call to succeed. If the pool is no longer in the guarded release phase, this parameter is ignored.",
          "minToMint": "the minimum LP tokens adding this amount of liquidity should mint, otherwise revert. Handy for front-running mitigation"
        },
        "returns": {
          "_0": "amount of LP token user minted and received"
        }
      },
      "calculateCurrentWithdrawFee(address)": {
        "details": "returned value should be divided by FEE_DENOMINATOR to convert to correct decimals",
        "params": {
          "user": "address you want to calculate withdraw fee of"
        },
        "returns": {
          "_0": "current withdraw fee of the user"
        }
      },
      "calculateRemoveLiquidity(address,uint256)": {
        "params": {
          "account": "the address that is withdrawing tokens",
          "amount": "the amount of LP tokens that would be burned on withdrawal"
        },
        "returns": {
          "_0": "array of token balances that the user will receive"
        }
      },
      "calculateRemoveLiquidityOneToken(address,uint256,uint8)": {
        "params": {
          "account": "the address that is withdrawing tokens",
          "tokenAmount": "the amount of LP token to burn",
          "tokenIndex": "index of which token will be withdrawn"
        },
        "returns": {
          "availableTokenAmount": "calculated amount of underlying token available to withdraw"
        }
      },
      "calculateSwap(uint8,uint8,uint256)": {
        "params": {
          "dx": "the amount of tokens the user wants to sell. If the token charges a fee on transfers, use the amount that gets transferred after the fee.",
          "tokenIndexFrom": "the token the user wants to sell",
          "tokenIndexTo": "the token the user wants to buy"
        },
        "returns": {
          "_0": "amount of tokens the user will receive"
        }
      },
      "calculateTokenAmount(address,uint256[],bool)": {
        "details": "This shouldn't be used outside frontends for user estimates.",
        "params": {
          "account": "address that is depositing or withdrawing tokens",
          "amounts": "an array of token amounts to deposit or withdrawal, corresponding to pooledTokens. The amount should be in each pooled token's native precision. If a token charges a fee on transfers, use the amount that gets transferred after the fee.",
          "deposit": "whether this is a deposit or a withdrawal"
        },
        "returns": {
          "_0": "token amount the user will receive"
        }
      },
      "constructor": {
        "params": {
          "_a": "the amplification coefficient * n * (n - 1). See the StableSwap paper for details",
          "_adminFee": "default adminFee to be initialized with",
          "_allowlist": "address of allowlist contract for guarded launch",
          "_fee": "default swap fee to be initialized with",
          "_pooledTokens": "an array of ERC20s this pool will accept",
          "_withdrawFee": "default withdrawFee to be initialized with",
          "decimals": "the decimals to use for each pooled token, eg 8 for WBTC. Cannot be larger than POOL_PRECISION_DECIMALS",
          "lpTokenName": "the long-form name of the token to be deployed",
          "lpTokenSymbol": "the short symbol for the token to be deployed"
        }
      },
      "getA()": {
        "details": "See the StableSwap paper for details",
        "returns": {
          "_0": "A parameter"
        }
      },
      "getAPrecise()": {
        "details": "See the StableSwap paper for details",
        "returns": {
          "_0": "A parameter in its raw precision form"
        }
      },
      "getAdminBalance(uint256)": {
        "params": {
          "index": "Index of the pooled token"
        },
        "returns": {
          "_0": "admin's token balance in the token's precision"
        }
      },
      "getAllowlist()": {
        "returns": {
          "_0": "the address of the allowlist contract casted to the IAllowlist interface"
        }
      },
      "getDepositTimestamp(address)": {
        "returns": {
          "_0": "timestamp of the last deposit made by the given address"
        }
      },
      "getToken(uint8)": {
        "params": {
          "index": "the index of the token"
        },
        "returns": {
          "_0": "address of the token at given index"
        }
      },
      "getTokenBalance(uint8)": {
        "params": {
          "index": "the index of the token"
        },
        "returns": {
          "_0": "current balance of the pooled token at given index with token's native precision"
        }
      },
      "getTokenIndex(address)": {
        "params": {
          "tokenAddress": "address of the token"
        },
        "returns": {
          "_0": "the index of the given token address"
        }
      },
      "getVirtualPrice()": {
        "returns": {
          "_0": "the virtual price, scaled to the POOL_PRECISION_DECIMALS"
        }
      },
      "isGuarded()": {
        "returns": {
          "_0": "guarded_ boolean value indicating whether the deposits should be guarded"
        }
      },
      "owner()": {
        "details": "Returns the address of the current owner."
      },
      "paused()": {
        "details": "Returns true if the contract is paused, and false otherwise."
      },
      "rampA(uint256,uint256)": {
        "params": {
          "futureA": "the new A to ramp towards",
          "futureTime": "timestamp when the new A should be reached"
        }
      },
      "removeLiquidity(uint256,uint256[],uint256)": {
        "details": "Liquidity can always be removed, even when the pool is paused.",
        "params": {
          "amount": "the amount of LP tokens to burn",
          "deadline": "latest timestamp to accept this transaction",
          "minAmounts": "the minimum amounts of each token in the pool        acceptable for this burn. Useful as a front-running mitigation"
        },
        "returns": {
          "_0": "amounts of tokens user received"
        }
      },
      "removeLiquidityImbalance(uint256[],uint256,uint256)": {
        "params": {
          "amounts": "how much of each token to withdraw",
          "deadline": "latest timestamp to accept this transaction",
          "maxBurnAmount": "the max LP token provider is willing to pay to remove liquidity. Useful as a front-running mitigation."
        },
        "returns": {
          "_0": "amount of LP tokens burned"
        }
      },
      "removeLiquidityOneToken(uint256,uint8,uint256,uint256)": {
        "params": {
          "deadline": "latest timestamp to accept this transaction",
          "minAmount": "the minimum amount to withdraw, otherwise revert",
          "tokenAmount": "the amount of the token you want to receive",
          "tokenIndex": "the index of the token you want to receive"
        },
        "returns": {
          "_0": "amount of chosen token user received"
        }
      },
      "renounceOwnership()": {
        "details": "Leaves the contract without owner. It will not be possible to call `onlyOwner` functions anymore. Can only be called by the current owner. NOTE: Renouncing ownership will leave the contract without an owner, thereby removing any functionality that is only available to the owner."
      },
      "setAdminFee(uint256)": {
        "params": {
          "newAdminFee": "new admin fee to be applied on future transactions"
        }
      },
      "setDefaultWithdrawFee(uint256)": {
        "params": {
          "newWithdrawFee": "new withdraw fee to be applied on future deposits"
        }
      },
      "setSwapFee(uint256)": {
        "params": {
          "newSwapFee": "new swap fee to be applied on future transactions"
        }
      },
      "swap(uint8,uint8,uint256,uint256,uint256)": {
        "params": {
          "deadline": "latest timestamp to accept this transaction",
          "dx": "the amount of tokens the user wants to swap from",
          "minDy": "the min amount the user would like to receive, or revert.",
          "tokenIndexFrom": "the token the user wants to swap from",
          "tokenIndexTo": "the token the user wants to swap to"
        }
      },
      "transferOwnership(address)": {
        "details": "Transfers ownership of the contract to a new account (`newOwner`). Can only be called by the current owner."
      },
      "updateUserWithdrawFee(address,uint256)": {
        "params": {
          "recipient": "address of the recipient of pool token",
          "transferAmount": "amount of pool token to transfer"
        }
      }
    },
    "title": "Swap - A StableSwap implementation in solidity.",
    "version": 1
  },
  "userdoc": {
    "kind": "user",
    "methods": {
      "addLiquidity(uint256[],uint256,uint256,bytes32[])": {
        "notice": "Add liquidity to the pool with given amounts during guarded launch phase. Only users with valid address and proof can successfully call this function. When this function is called after the guarded release phase is over, the merkleProof is ignored."
      },
      "calculateCurrentWithdrawFee(address)": {
        "notice": "Calculate the fee that is applied when the given user withdraws. The withdraw fee decays linearly over period of 4 weeks. For example, depositing and withdrawing right away will charge you the full amount of withdraw fee. But withdrawing after 4 weeks will charge you no additional fees."
      },
      "calculateRemoveLiquidity(address,uint256)": {
        "notice": "A simple method to calculate amount of each underlying tokens that is returned upon burning given amount of LP tokens"
      },
      "calculateRemoveLiquidityOneToken(address,uint256,uint8)": {
        "notice": "Calculate the amount of underlying token available to withdraw when withdrawing via only single token"
      },
      "calculateSwap(uint8,uint8,uint256)": {
        "notice": "Calculate amount of tokens you receive on swap"
      },
      "calculateTokenAmount(address,uint256[],bool)": {
        "notice": "A simple method to calculate prices from deposits or withdrawals, excluding fees but including slippage. This is helpful as an input into the various \"min\" parameters on calls to fight front-running"
      },
      "constructor": "Deploys this Swap contract with given parameters as default values. This will also deploy a LPToken that represents users LP position. The owner of LPToken will be this contract - which means only this contract is allowed to mint new tokens.",
      "disableGuard()": {
        "notice": "Disables the guarded launch phase, removing any limits on deposit amounts and addresses"
      },
      "getA()": {
        "notice": "Return A, the amplification coefficient * n * (n - 1)"
      },
      "getAPrecise()": {
        "notice": "Return A in its raw precision form"
      },
      "getAdminBalance(uint256)": {
        "notice": "This function reads the accumulated amount of admin fees of the token with given index"
      },
      "getAllowlist()": {
        "notice": "Reads and returns the address of the allowlist that is set during deployment of this contract"
      },
      "getDepositTimestamp(address)": {
        "notice": "Return timestamp of last deposit of given address"
      },
      "getToken(uint8)": {
        "notice": "Return address of the pooled token at given index. Reverts if tokenIndex is out of range."
      },
      "getTokenBalance(uint8)": {
        "notice": "Return current balance of the pooled token at given index"
      },
      "getTokenIndex(address)": {
        "notice": "Return the index of the given token address. Reverts if no matching token is found."
      },
      "getVirtualPrice()": {
        "notice": "Get the virtual price, to help calculate profit"
      },
      "isGuarded()": {
        "notice": "Reads and returns current guarded status of the pool"
      },
      "pause()": {
        "notice": "Pause the contract. Revert if already paused."
      },
      "rampA(uint256,uint256)": {
        "notice": "Start ramping up or down A parameter towards given futureA and futureTime Checks if the change is too rapid, and commits the new A value only when it falls under the limit range."
      },
      "removeLiquidity(uint256,uint256[],uint256)": {
        "notice": "Burn LP tokens to remove liquidity from the pool. Withdraw fee that decays linearly over period of 4 weeks since last deposit will apply."
      },
      "removeLiquidityImbalance(uint256[],uint256,uint256)": {
        "notice": "Remove liquidity from the pool, weighted differently than the pool's current balances. Withdraw fee that decays linearly over period of 4 weeks since last deposit will apply."
      },
      "removeLiquidityOneToken(uint256,uint8,uint256,uint256)": {
        "notice": "Remove liquidity from the pool all in one token. Withdraw fee that decays linearly over period of 4 weeks since last deposit will apply."
      },
      "setAdminFee(uint256)": {
        "notice": "Update the admin fee. Admin fee takes portion of the swap fee."
      },
      "setDefaultWithdrawFee(uint256)": {
        "notice": "Update the withdraw fee. This fee decays linearly over 4 weeks since user's last deposit."
      },
      "setSwapFee(uint256)": {
        "notice": "Update the swap fee to be applied on swaps"
      },
      "stopRampA()": {
        "notice": "Stop ramping A immediately. Reverts if ramp A is already stopped."
      },
      "swap(uint8,uint8,uint256,uint256,uint256)": {
        "notice": "Swap two tokens using this pool"
      },
      "unpause()": {
        "notice": "Unpause the contract. Revert if already unpaused."
      },
      "updateUserWithdrawFee(address,uint256)": {
        "notice": "Updates the user withdraw fee. This function can only be called by the pool token. Should be used to update the withdraw fee on transfer of pool tokens. Transferring your pool token will reset the 4 weeks period. If the recipient is already holding some pool tokens, the withdraw fee will be discounted in respective amounts."
      },
      "withdrawAdminFees()": {
        "notice": "Withdraw all admin fees to the contract owner"
      }
    },
    "notice": "This contract is responsible for custody of closely pegged assets (eg. group of stablecoins) and automatic market making system. Users become an LP (Liquidity Provider) by depositing their tokens in desired ratios for an exchange of the pool token that represents their share of the pool. Users can burn pool tokens and withdraw their share of token(s). Each time a swap between the pooled tokens happens, a set fee incurs which effectively gets distributed to the LPs. In case of emergencies, admin can pause additional deposits, swaps, or single-asset withdraws - which stops the ratio of the tokens in the pool from changing. Users can always withdraw their tokens via multi-asset withdraws.",
    "version": 1
  },
  "storageLayout": {
    "storage": [
      {
        "astId": 1711,
        "contract": "contracts/guarded/SwapGuarded.sol:SwapGuarded",
        "label": "_owner",
        "offset": 0,
        "slot": "0",
        "type": "t_address"
      },
      {
        "astId": 5766,
        "contract": "contracts/guarded/SwapGuarded.sol:SwapGuarded",
        "label": "_paused",
        "offset": 20,
        "slot": "0",
        "type": "t_bool"
      },
      {
        "astId": 5851,
        "contract": "contracts/guarded/SwapGuarded.sol:SwapGuarded",
        "label": "_status",
        "offset": 0,
        "slot": "1",
        "type": "t_uint256"
      },
      {
        "astId": 17843,
        "contract": "contracts/guarded/SwapGuarded.sol:SwapGuarded",
        "label": "swapStorage",
        "offset": 0,
        "slot": "2",
        "type": "t_struct(Swap)18922_storage"
      },
      {
        "astId": 17848,
        "contract": "contracts/guarded/SwapGuarded.sol:SwapGuarded",
        "label": "guarded",
        "offset": 0,
        "slot": "15",
        "type": "t_bool"
      },
      {
        "astId": 17852,
        "contract": "contracts/guarded/SwapGuarded.sol:SwapGuarded",
        "label": "tokenIndexes",
        "offset": 0,
        "slot": "16",
        "type": "t_mapping(t_address,t_uint8)"
      }
    ],
    "types": {
      "t_address": {
        "encoding": "inplace",
        "label": "address",
        "numberOfBytes": "20"
      },
      "t_array(t_contract(IERC20)3028)dyn_storage": {
        "base": "t_contract(IERC20)3028",
        "encoding": "dynamic_array",
        "label": "contract IERC20[]",
        "numberOfBytes": "32"
      },
      "t_array(t_uint256)dyn_storage": {
        "base": "t_uint256",
        "encoding": "dynamic_array",
        "label": "uint256[]",
        "numberOfBytes": "32"
      },
      "t_bool": {
        "encoding": "inplace",
        "label": "bool",
        "numberOfBytes": "1"
      },
      "t_contract(IERC20)3028": {
        "encoding": "inplace",
        "label": "contract IERC20",
        "numberOfBytes": "20"
      },
      "t_contract(LPTokenGuarded)17781": {
        "encoding": "inplace",
        "label": "contract LPTokenGuarded",
        "numberOfBytes": "20"
      },
      "t_mapping(t_address,t_uint256)": {
        "encoding": "mapping",
        "key": "t_address",
        "label": "mapping(address => uint256)",
        "numberOfBytes": "32",
        "value": "t_uint256"
      },
      "t_mapping(t_address,t_uint8)": {
        "encoding": "mapping",
        "key": "t_address",
        "label": "mapping(address => uint8)",
        "numberOfBytes": "32",
        "value": "t_uint8"
      },
      "t_struct(Swap)18922_storage": {
        "encoding": "inplace",
        "label": "struct SwapUtilsGuarded.Swap",
        "members": [
          {
            "astId": 18890,
            "contract": "contracts/guarded/SwapGuarded.sol:SwapGuarded",
            "label": "initialA",
            "offset": 0,
            "slot": "0",
            "type": "t_uint256"
          },
          {
            "astId": 18892,
            "contract": "contracts/guarded/SwapGuarded.sol:SwapGuarded",
            "label": "futureA",
            "offset": 0,
            "slot": "1",
            "type": "t_uint256"
          },
          {
            "astId": 18894,
            "contract": "contracts/guarded/SwapGuarded.sol:SwapGuarded",
            "label": "initialATime",
            "offset": 0,
            "slot": "2",
            "type": "t_uint256"
          },
          {
            "astId": 18896,
            "contract": "contracts/guarded/SwapGuarded.sol:SwapGuarded",
            "label": "futureATime",
            "offset": 0,
            "slot": "3",
            "type": "t_uint256"
          },
          {
            "astId": 18898,
            "contract": "contracts/guarded/SwapGuarded.sol:SwapGuarded",
            "label": "swapFee",
            "offset": 0,
            "slot": "4",
            "type": "t_uint256"
          },
          {
            "astId": 18900,
            "contract": "contracts/guarded/SwapGuarded.sol:SwapGuarded",
            "label": "adminFee",
            "offset": 0,
            "slot": "5",
            "type": "t_uint256"
          },
          {
            "astId": 18902,
            "contract": "contracts/guarded/SwapGuarded.sol:SwapGuarded",
            "label": "defaultWithdrawFee",
            "offset": 0,
            "slot": "6",
            "type": "t_uint256"
          },
          {
            "astId": 18904,
            "contract": "contracts/guarded/SwapGuarded.sol:SwapGuarded",
            "label": "lpToken",
            "offset": 0,
            "slot": "7",
            "type": "t_contract(LPTokenGuarded)17781"
          },
          {
            "astId": 18907,
            "contract": "contracts/guarded/SwapGuarded.sol:SwapGuarded",
            "label": "pooledTokens",
            "offset": 0,
            "slot": "8",
            "type": "t_array(t_contract(IERC20)3028)dyn_storage"
          },
          {
            "astId": 18910,
            "contract": "contracts/guarded/SwapGuarded.sol:SwapGuarded",
            "label": "tokenPrecisionMultipliers",
            "offset": 0,
            "slot": "9",
            "type": "t_array(t_uint256)dyn_storage"
          },
          {
            "astId": 18913,
            "contract": "contracts/guarded/SwapGuarded.sol:SwapGuarded",
            "label": "balances",
            "offset": 0,
            "slot": "10",
            "type": "t_array(t_uint256)dyn_storage"
          },
          {
            "astId": 18917,
            "contract": "contracts/guarded/SwapGuarded.sol:SwapGuarded",
            "label": "depositTimestamp",
            "offset": 0,
            "slot": "11",
            "type": "t_mapping(t_address,t_uint256)"
          },
          {
            "astId": 18921,
            "contract": "contracts/guarded/SwapGuarded.sol:SwapGuarded",
            "label": "withdrawFeeMultiplier",
            "offset": 0,
            "slot": "12",
            "type": "t_mapping(t_address,t_uint256)"
          }
        ],
        "numberOfBytes": "416"
      },
      "t_uint256": {
        "encoding": "inplace",
        "label": "uint256",
        "numberOfBytes": "32"
      },
      "t_uint8": {
        "encoding": "inplace",
        "label": "uint8",
        "numberOfBytes": "1"
      }
    }
  }
}