{
  "address": "0xDcD9d0456846F641F5547cA025aFe9ae560Cc61F",
  "abi": [
    {
      "anonymous": false,
      "inputs": [
        {
          "indexed": true,
          "internalType": "address",
          "name": "provider",
          "type": "address"
        },
        {
          "indexed": false,
          "internalType": "uint256[]",
          "name": "tokenAmounts",
          "type": "uint256[]"
        },
        {
          "indexed": false,
          "internalType": "uint256[]",
          "name": "fees",
          "type": "uint256[]"
        },
        {
          "indexed": false,
          "internalType": "uint256",
          "name": "invariant",
          "type": "uint256"
        },
        {
          "indexed": false,
          "internalType": "uint256",
          "name": "lpTokenSupply",
          "type": "uint256"
        }
      ],
      "name": "AddLiquidity",
      "type": "event"
    },
    {
      "anonymous": false,
      "inputs": [
        {
          "indexed": false,
          "internalType": "uint256",
          "name": "newAdminFee",
          "type": "uint256"
        }
      ],
      "name": "NewAdminFee",
      "type": "event"
    },
    {
      "anonymous": false,
      "inputs": [
        {
          "indexed": false,
          "internalType": "uint256",
          "name": "newSwapFee",
          "type": "uint256"
        }
      ],
      "name": "NewSwapFee",
      "type": "event"
    },
    {
      "anonymous": false,
      "inputs": [
        {
          "indexed": false,
          "internalType": "uint256",
          "name": "newWithdrawFee",
          "type": "uint256"
        }
      ],
      "name": "NewWithdrawFee",
      "type": "event"
    },
    {
      "anonymous": false,
      "inputs": [
        {
          "indexed": false,
          "internalType": "uint256",
          "name": "oldA",
          "type": "uint256"
        },
        {
          "indexed": false,
          "internalType": "uint256",
          "name": "newA",
          "type": "uint256"
        },
        {
          "indexed": false,
          "internalType": "uint256",
          "name": "initialTime",
          "type": "uint256"
        },
        {
          "indexed": false,
          "internalType": "uint256",
          "name": "futureTime",
          "type": "uint256"
        }
      ],
      "name": "RampA",
      "type": "event"
    },
    {
      "anonymous": false,
      "inputs": [
        {
          "indexed": true,
          "internalType": "address",
          "name": "provider",
          "type": "address"
        },
        {
          "indexed": false,
          "internalType": "uint256[]",
          "name": "tokenAmounts",
          "type": "uint256[]"
        },
        {
          "indexed": false,
          "internalType": "uint256",
          "name": "lpTokenSupply",
          "type": "uint256"
        }
      ],
      "name": "RemoveLiquidity",
      "type": "event"
    },
    {
      "anonymous": false,
      "inputs": [
        {
          "indexed": true,
          "internalType": "address",
          "name": "provider",
          "type": "address"
        },
        {
          "indexed": false,
          "internalType": "uint256[]",
          "name": "tokenAmounts",
          "type": "uint256[]"
        },
        {
          "indexed": false,
          "internalType": "uint256[]",
          "name": "fees",
          "type": "uint256[]"
        },
        {
          "indexed": false,
          "internalType": "uint256",
          "name": "invariant",
          "type": "uint256"
        },
        {
          "indexed": false,
          "internalType": "uint256",
          "name": "lpTokenSupply",
          "type": "uint256"
        }
      ],
      "name": "RemoveLiquidityImbalance",
      "type": "event"
    },
    {
      "anonymous": false,
      "inputs": [
        {
          "indexed": true,
          "internalType": "address",
          "name": "provider",
          "type": "address"
        },
        {
          "indexed": false,
          "internalType": "uint256",
          "name": "lpTokenAmount",
          "type": "uint256"
        },
        {
          "indexed": false,
          "internalType": "uint256",
          "name": "lpTokenSupply",
          "type": "uint256"
        },
        {
          "indexed": false,
          "internalType": "uint256",
          "name": "boughtId",
          "type": "uint256"
        },
        {
          "indexed": false,
          "internalType": "uint256",
          "name": "tokensBought",
          "type": "uint256"
        }
      ],
      "name": "RemoveLiquidityOne",
      "type": "event"
    },
    {
      "anonymous": false,
      "inputs": [
        {
          "indexed": false,
          "internalType": "uint256",
          "name": "currentA",
          "type": "uint256"
        },
        {
          "indexed": false,
          "internalType": "uint256",
          "name": "time",
          "type": "uint256"
        }
      ],
      "name": "StopRampA",
      "type": "event"
    },
    {
      "anonymous": false,
      "inputs": [
        {
          "indexed": true,
          "internalType": "address",
          "name": "buyer",
          "type": "address"
        },
        {
          "indexed": false,
          "internalType": "uint256",
          "name": "tokensSold",
          "type": "uint256"
        },
        {
          "indexed": false,
          "internalType": "uint256",
          "name": "tokensBought",
          "type": "uint256"
        },
        {
          "indexed": false,
          "internalType": "uint128",
          "name": "soldId",
          "type": "uint128"
        },
        {
          "indexed": false,
          "internalType": "uint128",
          "name": "boughtId",
          "type": "uint128"
        }
      ],
      "name": "TokenSwap",
      "type": "event"
    },
    {
      "inputs": [],
      "name": "A_PRECISION",
      "outputs": [
        {
          "internalType": "uint256",
          "name": "",
          "type": "uint256"
        }
      ],
      "stateMutability": "view",
      "type": "function"
    },
    {
      "inputs": [],
      "name": "MAX_A",
      "outputs": [
        {
          "internalType": "uint256",
          "name": "",
          "type": "uint256"
        }
      ],
      "stateMutability": "view",
      "type": "function"
    },
    {
      "inputs": [],
      "name": "MAX_ADMIN_FEE",
      "outputs": [
        {
          "internalType": "uint256",
          "name": "",
          "type": "uint256"
        }
      ],
      "stateMutability": "view",
      "type": "function"
    },
    {
      "inputs": [],
      "name": "MAX_SWAP_FEE",
      "outputs": [
        {
          "internalType": "uint256",
          "name": "",
          "type": "uint256"
        }
      ],
      "stateMutability": "view",
      "type": "function"
    },
    {
      "inputs": [],
      "name": "MAX_WITHDRAW_FEE",
      "outputs": [
        {
          "internalType": "uint256",
          "name": "",
          "type": "uint256"
        }
      ],
      "stateMutability": "view",
      "type": "function"
    },
    {
      "inputs": [],
      "name": "POOL_PRECISION_DECIMALS",
      "outputs": [
        {
          "internalType": "uint8",
          "name": "",
          "type": "uint8"
        }
      ],
      "stateMutability": "view",
      "type": "function"
    }
  ],
  "transactionHash": "0xfdad7690bbf8f11c1d62111343213c016bf415d0f97360f46c3e77e4825a553c",
  "args": [],
  "solcInputHash": "8f41ed0bf5ed398a2f798685730bd171",
  "bytecode": "0x614941610026600b82828239805160001a60731461001957fe5b30600052607381538281f3fe73000000000000000000000000000000000000000030146080604052600436106101ce5760003560e01c80637d230a4c11610103578063d4b0de2f116100a1578063e378be161161007b578063e378be1614610825578063ee9dcccc14610855578063f3de03621461088b578063f4cd320314610893576101ce565b8063d4b0de2f1461066f578063d870cc3214610770578063e0c022171461079c576101ce565b8063b0c61948116100dd578063b0c6194814610677578063c109ee2b146106a7578063c232f71b14610729578063d011f91814610768576101ce565b80637d230a4c1461062257806398fb2d6f14610652578063ab3d85441461066f576101ce565b8063528055c6116101705780636afc52731161014a5780636afc52731461052d5780636e3af5781461056c5780636f7bc844146105c05780637341f8c1146105f6576101ce565b8063528055c6146103b1578063565bf2fa146103fa5780636a487f381461050a576101ce565b806339698415116101ac57806339698415146102a757806347298d5b146102af5780634f95f4c0146102cc57806350afb95714610385576101ce565b80630296ab50146101d357806307270f1e146101f15780633457234314610220575b600080fd5b6101db6108cc565b6040805160ff9092168252519081900360200190f35b61020e6004803603602081101561020757600080fd5b50356108d1565b60408051918252519081900360200190f35b61020e6004803603608081101561023657600080fd5b8135916001600160a01b036020820135169181019060608101604082013564010000000081111561026657600080fd5b82018360208201111561027857600080fd5b8035906020019184602083028401116401000000008311171561029a57600080fd5b91935091503515156108e4565b61020e610b96565b61020e600480360360208110156102c557600080fd5b5035610b9d565b8180156102d857600080fd5b5061020e600480360360608110156102ef57600080fd5b8135919081019060408101602082013564010000000081111561031157600080fd5b82018360208201111561032357600080fd5b8035906020019184602083028401116401000000008311171561034557600080fd5b9190808060200260200160405190810160405280939291908181526020018383602002808284376000920191909152509295505091359250610ba8915050565b81801561039157600080fd5b506103af600480360360208110156103a857600080fd5b5035611325565b005b8180156103bd57600080fd5b5061020e600480360360a08110156103d457600080fd5b5080359060ff6020820135811691604081013590911690606081013590608001356113e2565b81801561040657600080fd5b5061020e6004803603608081101561041d57600080fd5b8135919081019060408101602082013564010000000081111561043f57600080fd5b82018360208201111561045157600080fd5b8035906020019184602083028401116401000000008311171561047357600080fd5b919080806020026020016040519081016040528093929190818152602001838360200280828437600092019190915250929584359590949093506040810192506020013590506401000000008111156104cb57600080fd5b8201836020820111156104dd57600080fd5b803590602001918460208302840111640100000000831117156104ff57600080fd5b50909250905061183f565b61020e6004803603604081101561052057600080fd5b5080359060200135612287565b81801561053957600080fd5b506103af6004803603606081101561055057600080fd5b508035906001600160a01b036020820135169060400135612317565b6105a76004803603608081101561058257600080fd5b5080359060208101356001600160a01b0316906040810135906060013560ff16612327565b6040805192835260208301919091528051918290030190f35b61020e600480360360808110156105d657600080fd5b5080359060ff6020820135811691604081013590911690606001356123aa565b61020e6004803603604081101561060c57600080fd5b50803590602001356001600160a01b03166123c2565b81801561062e57600080fd5b506103af6004803603604081101561064557600080fd5b5080359060200135612469565b61020e6004803603602081101561066857600080fd5b5035612500565b61020e61263e565b81801561068357600080fd5b506103af6004803603604081101561069a57600080fd5b5080359060200135612646565b6106d9600480360360608110156106bd57600080fd5b508035906001600160a01b0360208201351690604001356126de565b60408051602080825283518183015283519192839290830191858101910280838360005b838110156107155781810151838201526020016106fd565b505050509050019250505060405180910390f35b81801561073557600080fd5b5061020e6004803603608081101561074c57600080fd5b5080359060208101359060ff60408201351690606001356126f3565b61020e612a6e565b61020e6004803603604081101561078657600080fd5b50803590602001356001600160a01b0316612a73565b8180156107a857600080fd5b506106d9600480360360608110156107bf57600080fd5b8135916020810135918101906060810160408201356401000000008111156107e657600080fd5b8201836020820111156107f857600080fd5b8035906020019184602083028401116401000000008311171561081a57600080fd5b509092509050612a92565b81801561083157600080fd5b506103af6004803603604081101561084857600080fd5b5080359060200135612e69565b81801561086157600080fd5b506103af6004803603606081101561087857600080fd5b5080359060208101359060400135612f00565b61020e613178565b81801561089f57600080fd5b506103af600480360360408110156108b657600080fd5b50803590602001356001600160a01b0316613181565b601281565b60006108dc8261324b565b90505b919050565b6008850154600090816108f688613257565b9050600061095f6109598a8b600a0180548060200260200160405190810160405280929190818152602001828054801561094f57602002820191906000526020600020905b81548152602001906001019080831161093b575b50505050506132ec565b8361334a565b9050606089600a018054806020026020016040519081016040528092919081815260200182805480156109b157602002820191906000526020600020905b81548152602001906001019080831161099d575b5050505050905060005b84811015610a91578615610a1e57610a018989838181106109d857fe5b905060200201358383815181106109eb57fe5b60200260200101516134b690919063ffffffff16565b828281518110610a0d57fe5b602002602001018181525050610a89565b610a70898983818110610a2d57fe5b905060200201356040518060600160405280602381526020016148e960239139848481518110610a5957fe5b60200260200101516135109092919063ffffffff16565b828281518110610a7c57fe5b6020026020010181815250505b6001016109bb565b506000610aa7610aa18c846132ec565b8561334a565b905060008b60070160009054906101000a90046001600160a01b03166001600160a01b03166318160ddd6040518163ffffffff1660e01b815260040160206040518083038186803b158015610afb57600080fd5b505afa158015610b0f573d6000803e3d6000fd5b505050506040513d6020811015610b2557600080fd5b505190508715610b5a57610b4d84610b4783610b4186846135a7565b90613604565b9061365d565b9650505050505050610b8d565b610b4d610b76610b6a8e8e6123c2565b6402540be400906135a7565b610b476402540be400610b4188838783838b6135a7565b95945050505050565b620f424081565b60006108dc82613257565b6008830154825160009114610c04576040805162461bcd60e51b815260206004820181905260248201527f416d6f756e74732073686f756c64206d6174636820706f6f6c20746f6b656e73604482015290519081900360640190fd5b6007840154604080517f70a0823100000000000000000000000000000000000000000000000000000000815233600482015290516001600160a01b03909216916370a0823191602480820192602092909190829003018186803b158015610c6a57600080fd5b505afa158015610c7e573d6000803e3d6000fd5b505050506040513d6020811015610c9457600080fd5b50518211801590610ca457508115155b610cf5576040805162461bcd60e51b815260206004820152600d60248201527f3e4c502e62616c616e63654f6600000000000000000000000000000000000000604482015290519081900360640190fd5b610cfd6147e6565b60405180608001604052806000815260200160008152602001600081526020016000815250905060008560070160009054906101000a90046001600160a01b03166001600160a01b03166318160ddd6040518163ffffffff1660e01b815260040160206040518083038186803b158015610d7657600080fd5b505afa158015610d8a573d6000803e3d6000fd5b505050506040513d6020811015610da057600080fd5b505190506000610daf876136c4565b9050606087600a01805480602002602001604051908101604052809291908181526020018280548015610e0157602002820191906000526020600020905b815481526020019060010190808311610ded575b50505050509050610e1188613257565b6060850152610e2c610e22896136f5565b856060015161334a565b845260005b6008890154811015610e9857610e79888281518110610e4c57fe5b60200260200101516040518060600160405280602381526020016148e960239139848481518110610a5957fe5b828281518110610e8557fe5b6020908102919091010152600101610e31565b50610ea6610e2289836132ec565b6020850152600888015460609067ffffffffffffffff81118015610ec957600080fd5b50604051908082528060200260200182016040528015610ef3578160200160208202803683370190505b50905060005b60088a015481101561104f576000610f3f8760000151610b478d600a018581548110610f2157fe5b90600052602060002001548a6020015161360490919063ffffffff16565b90506000610f69858481518110610f5257fe5b6020026020010151836137a390919063ffffffff16565b9050610f7e6402540be400610b478884613604565b848481518110610f8a57fe5b602002602001018181525050610fee610fcc6402540be400610b478f60050154888881518110610fb657fe5b602002602001015161360490919063ffffffff16565b868581518110610fd857fe5b60200260200101516135a790919063ffffffff16565b8c600a018481548110610ffd57fe5b906000526020600020018190555061102e84848151811061101a57fe5b6020026020010151868581518110610fd857fe5b85848151811061103a57fe5b60209081029190910101525050600101610ef9565b5061106761105d8a846132ec565b866060015161334a565b6040860181905285516000916110899190610b47908890610b419084906135a7565b9050806110dd576040805162461bcd60e51b815260206004820152601b60248201527f4275726e7420616d6f756e742063616e6e6f74206265207a65726f0000000000604482015290519081900360640190fd5b6111016110ed610b6a8c336123c2565b610b476402540be400610b418560016134b6565b905087811115611158576040805162461bcd60e51b815260206004820152601b60248201527f746f6b656e416d6f756e74203e206d61784275726e416d6f756e740000000000604482015290519081900360640190fd5b60078a0154604080517f79cc67900000000000000000000000000000000000000000000000000000000081523360048201526024810184905290516001600160a01b03909216916379cc67909160448082019260009290919082900301818387803b1580156111c657600080fd5b505af11580156111da573d6000803e3d6000fd5b5050505060005b60088b015481101561123857611230338b83815181106111fd57fe5b60200260200101518d600801848154811061121457fe5b6000918252602090912001546001600160a01b031691906137bb565b6001016111e1565b50602086015133907f3631c28b1f9dd213e0319fb167b554d76b6c283a41143eb400a0d1adb1af1755908b9085906112708a876135a7565b604051808060200180602001858152602001848152602001838103835287818151815260200191508051906020019060200280838360005b838110156112c05781810151838201526020016112a8565b50505050905001838103825286818151815260200191508051906020019060200280838360005b838110156112ff5781810151838201526020016112e7565b50505050905001965050505050505060405180910390a2955050505050505b9392505050565b4281600301541161137d576040805162461bcd60e51b815260206004820152601760248201527f52616d7020697320616c72656164792073746f70706564000000000000000000604482015290519081900360640190fd5b600061138882613257565b8083556001830181905542600284018190556003840181905560408051838152602081019290925280519293507f46e22fb3709ad289f62ce63d469248536dbc78d82b84a3d7e74ad606dc20193892918290030190a15050565b6000856008018560ff16815481106113f657fe5b60009182526020918290200154604080517f70a0823100000000000000000000000000000000000000000000000000000000815233600482015290516001600160a01b03909216926370a0823192602480840193829003018186803b15801561145e57600080fd5b505afa158015611472573d6000803e3d6000fd5b505050506040513d602081101561148857600080fd5b50518311156114de576040805162461bcd60e51b815260206004820152601d60248201527f43616e6e6f742073776170206d6f7265207468616e20796f75206f776e000000604482015290519081900360640190fd5b6000866008018660ff16815481106114f257fe5b60009182526020918290200154604080517f70a0823100000000000000000000000000000000000000000000000000000000815230600482015290516001600160a01b03909216926370a0823192602480840193829003018186803b15801561155a57600080fd5b505afa15801561156e573d6000803e3d6000fd5b505050506040513d602081101561158457600080fd5b50516008880180549192506115c4913391309188919060ff8c169081106115a757fe5b6000918252602090912001546001600160a01b031692919061383b565b600061167682896008018960ff16815481106115dc57fe5b60009182526020918290200154604080517f70a0823100000000000000000000000000000000000000000000000000000000815230600482015290516001600160a01b03909216926370a0823192602480840193829003018186803b15801561164457600080fd5b505afa158015611658573d6000803e3d6000fd5b505050506040513d602081101561166e57600080fd5b5051906135a7565b90506000806116878a8a8a866138c9565b91509150858210156116e0576040805162461bcd60e51b815260206004820181905260248201527f53776170206469646e277420726573756c7420696e206d696e20746f6b656e73604482015290519081900360640190fd5b60006117228b6009018a60ff16815481106116f757fe5b9060005260206000200154610b476402540be400610b478f600501548761360490919063ffffffff16565b9050611753848c600a018c60ff168154811061173a57fe5b90600052602060002001546134b690919063ffffffff16565b8b600a018b60ff168154811061176557fe5b90600052602060002001819055506117ac816117a6858e600a018d60ff168154811061178d57fe5b90600052602060002001546135a790919063ffffffff16565b906135a7565b8b600a018a60ff16815481106117be57fe5b90600052602060002001819055506117e333848d6008018c60ff168154811061121457fe5b604080518581526020810185905260ff808d16828401528b166060820152905133917fc6c1e0630dbe9130cc068028486c0d118ddcea348550819defd5cb8c257f8a38919081900360800190a250909998505050505050505050565b600885015484516000911461189b576040805162461bcd60e51b815260206004820181905260248201527f416d6f756e7473206d757374206d6174636820706f6f6c656420746f6b656e73604482015290519081900360640190fd5b600886015460609067ffffffffffffffff811180156118b957600080fd5b506040519080825280602002602001820160405280156118e3578160200160208202803683370190505b5090506118ee6147e6565b6040518060800160405280600081526020016000815260200160008152602001600081525090508760070160009054906101000a90046001600160a01b03166001600160a01b03166318160ddd6040518163ffffffff1660e01b815260040160206040518083038186803b15801561196557600080fd5b505afa158015611979573d6000803e3d6000fd5b505050506040513d602081101561198f57600080fd5b5051156119a25761199f88613a13565b81525b606088600a018054806020026020016040519081016040528092919081815260200182805480156119f257602002820191906000526020600020905b8154815260200190600101908083116119de575b5050505050905060005b60088a0154811015611c57578960070160009054906101000a90046001600160a01b03166001600160a01b03166318160ddd6040518163ffffffff1660e01b815260040160206040518083038186803b158015611a5857600080fd5b505afa158015611a6c573d6000803e3d6000fd5b505050506040513d6020811015611a8257600080fd5b5051151580611aa457506000898281518110611a9a57fe5b6020026020010151115b611af5576040805162461bcd60e51b815260206004820152601e60248201527f4d75737420737570706c7920616c6c20746f6b656e7320696e20706f6f6c0000604482015290519081900360640190fd5b888181518110611b0157fe5b6020026020010151600014611c125760008a6008018281548110611b2157fe5b60009182526020918290200154604080517f70a0823100000000000000000000000000000000000000000000000000000000815230600482015290516001600160a01b03909216926370a0823192602480840193829003018186803b158015611b8957600080fd5b505afa158015611b9d573d6000803e3d6000fd5b505050506040513d6020811015611bb357600080fd5b50518a51909150611be590339030908d9086908110611bce57fe5b60200260200101518e60080186815481106115a757fe5b611bf8818c60080184815481106115dc57fe5b8a8381518110611c0457fe5b602002602001018181525050505b611c38898281518110611c2157fe5b60200260200101518b600a01838154811061173a57fe5b828281518110611c4457fe5b60209081029190910101526001016119fc565b50611c6189613257565b6060830152611c7d611c738a836132ec565b836060015161334a565b60208301819052825110611cd8576040805162461bcd60e51b815260206004820152601160248201527f442073686f756c6420696e637265617365000000000000000000000000000000604482015290519081900360640190fd5b60208083015160408085019190915260078b015481517f18160ddd00000000000000000000000000000000000000000000000000000000815291516001600160a01b03909116926318160ddd9260048082019391829003018186803b158015611d4057600080fd5b505afa158015611d54573d6000803e3d6000fd5b505050506040513d6020811015611d6a57600080fd5b505115611ec9576000611d7c8a6136c4565b905060005b60088b0154811015611ea6576000611dc78560000151610b478e600a018581548110611da957fe5b9060005260206000200154886020015161360490919063ffffffff16565b9050611e026402540be400610b47611dfb878681518110611de457fe5b6020026020010151856137a390919063ffffffff16565b8690613604565b868381518110611e0e57fe5b602002602001018181525050611e46611e3a6402540be400610b478f600501548a8781518110610fb657fe5b858481518110610fd857fe5b8c600a018381548110611e5557fe5b9060005260206000200181905550611e86868381518110611e7257fe5b6020026020010151858481518110610fd857fe5b848381518110611e9257fe5b602090810291909101015250600101611d81565b50611ebe611eb48b846132ec565b846060015161334a565b604084015250611ee0565b8051611ede90600a8b0190602084019061480e565b505b6007890154604080517f18160ddd00000000000000000000000000000000000000000000000000000000815290516000926001600160a01b0316916318160ddd916004808301926020929190829003018186803b158015611f4057600080fd5b505afa158015611f54573d6000803e3d6000fd5b505050506040513d6020811015611f6a57600080fd5b5051611f7b57506020820151612015565b6120128360000151610b478c60070160009054906101000a90046001600160a01b03166001600160a01b03166318160ddd6040518163ffffffff1660e01b815260040160206040518083038186803b158015611fd657600080fd5b505afa158015611fea573d6000803e3d6000fd5b505050506040513d602081101561200057600080fd5b505186516040880151610b41916135a7565b90505b8781101561206a576040805162461bcd60e51b815260206004820152601b60248201527f436f756c646e2774206d696e74206d696e207265717565737465640000000000604482015290519081900360640190fd5b60078a01546040517f641ce140000000000000000000000000000000000000000000000000000000008152336004820181815260248301859052606060448401908152606484018b90526001600160a01b039094169363641ce1409386928d928d92608401846020850280828437600081840152601f19601f82011690508083019250505095505050505050600060405180830381600087803b15801561211057600080fd5b505af1158015612124573d6000803e3d6000fd5b50505050336001600160a01b03167f189c623b666b1b45b83d7178f39b8c087cb09774317ca2f53c2d3c3726f222a28a8686602001518e60070160009054906101000a90046001600160a01b03166001600160a01b03166318160ddd6040518163ffffffff1660e01b815260040160206040518083038186803b1580156121aa57600080fd5b505afa1580156121be573d6000803e3d6000fd5b505050506040513d60208110156121d457600080fd5b5051604080519081018390526060810182905260808082528551908201528451819060208281019160a0840191898101910280838360005b8381101561222457818101518382015260200161220c565b50505050905001838103825286818151815260200191508051906020019060200280838360005b8381101561226357818101518382015260200161224b565b50505050905001965050505050505060405180910390a29998505050505050505050565b600882015460009082106122e2576040805162461bcd60e51b815260206004820152601860248201527f546f6b656e20696e646578206f7574206f662072616e67650000000000000000604482015290519081900360640190fd5b61230e83600a0183815481106122f457fe5b90600052602060002001548460080184815481106115dc57fe5b90505b92915050565b612322838383613a2a565b505050565b600080600080612338888688613b99565b80925081935050506000612381836117a68b6009018960ff168154811061235b57fe5b9060005260206000200154610b47866123738f6136f5565b8c60ff1681518110610fd857fe5b905061239c6402540be400610b47611dfb610b6a8d8d6123c2565b999098509650505050505050565b60006123b8858585856138c9565b5095945050505050565b6001600160a01b0381166000908152600b8301602052604081205481906123ec906224ea006134b6565b90504281111561245f57600061240282426135a7565b90506124566402540be400610b476224ea00610b4785610b418b600c0160008c6001600160a01b03166001600160a01b03168152602001908152602001600020548c6006015461360490919063ffffffff16565b92505050612311565b5060009392505050565b6305f5e1008111156124c2576040805162461bcd60e51b815260206004820152600f60248201527f46656520697320746f6f20686967680000000000000000000000000000000000604482015290519081900360640190fd5b600482018190556040805182815290517fd88ea5155021c6f8dafa1a741e173f595cdf77ce7c17d43342131d7f06afdfe59181900360200190a15050565b60008061251d61250f846136f5565b61251885613257565b61334a565b905060008360070160009054906101000a90046001600160a01b03166001600160a01b03166318160ddd6040518163ffffffff1660e01b815260040160206040518083038186803b15801561257157600080fd5b505afa158015612585573d6000803e3d6000fd5b505050506040513d602081101561259b57600080fd5b50519050801561245f5761263581610b478660070160009054906101000a90046001600160a01b03166001600160a01b031663313ce5676040518163ffffffff1660e01b815260040160206040518083038186803b1580156125fc57600080fd5b505afa158015612610573d6000803e3d6000fd5b505050506040513d602081101561262657600080fd5b5051859060ff16600a0a613604565b925050506108df565b6305f5e10081565b6402540be4008111156126a0576040805162461bcd60e51b815260206004820152600f60248201527f46656520697320746f6f20686967680000000000000000000000000000000000604482015290519081900360640190fd5b600582018190556040805182815290517fab599d640ca80cde2b09b128a4154a8dfe608cb80f4c9399c8b954b01fd35f389181900360200190a15050565b60606126eb848484613f03565b949350505050565b6000808560070160009054906101000a90046001600160a01b03166001600160a01b03166318160ddd6040518163ffffffff1660e01b815260040160206040518083038186803b15801561274657600080fd5b505afa15801561275a573d6000803e3d6000fd5b505050506040513d602081101561277057600080fd5b505160088701546007880154604080517f70a08231000000000000000000000000000000000000000000000000000000008152336004820152905193945091926001600160a01b03909116916370a08231916024808301926020929190829003018186803b1580156127e157600080fd5b505afa1580156127f5573d6000803e3d6000fd5b505050506040513d602081101561280b57600080fd5b5051861115612861576040805162461bcd60e51b815260206004820152600d60248201527f3e4c502e62616c616e63654f6600000000000000000000000000000000000000604482015290519081900360640190fd5b808560ff16106128b8576040805162461bcd60e51b815260206004820152600f60248201527f546f6b656e206e6f7420666f756e640000000000000000000000000000000000604482015290519081900360640190fd5b6000806128c789338a8a612327565b9250905085811015612920576040805162461bcd60e51b815260206004820152600e60248201527f6479203c206d696e416d6f756e74000000000000000000000000000000000000604482015290519081900360640190fd5b61295f61294d6129466402540be400610b478d600501548761360490919063ffffffff16565b83906134b6565b8a600a018960ff168154811061178d57fe5b89600a018860ff168154811061297157fe5b600091825260208220019190915560078a0154604080517f79cc6790000000000000000000000000000000000000000000000000000000008152336004820152602481018c905290516001600160a01b03909216926379cc67909260448084019382900301818387803b1580156129e757600080fd5b505af11580156129fb573d6000803e3d6000fd5b50505050612a1633828b6008018a60ff168154811061121457fe5b604080518981526020810186905260ff89168183015260608101839052905133917f43fb02998f4e03da2e0e6fff53fdbf0c40a9f45f145dc377fc30615d7d7a8a64919081900360800190a298975050505050505050565b606481565b6001600160a01b03166000908152600b91909101602052604090205490565b6007840154604080517f70a0823100000000000000000000000000000000000000000000000000000000815233600482015290516060926001600160a01b0316916370a08231916024808301926020929190829003018186803b158015612af857600080fd5b505afa158015612b0c573d6000803e3d6000fd5b505050506040513d6020811015612b2257600080fd5b5051841115612b78576040805162461bcd60e51b815260206004820152600d60248201527f3e4c502e62616c616e63654f6600000000000000000000000000000000000000604482015290519081900360640190fd5b60088501548214612bd0576040805162461bcd60e51b815260206004820181905260248201527f6d696e416d6f756e7473206d757374206d6174636820706f6f6c546f6b656e73604482015290519081900360640190fd5b6060612bdd863387613f03565b905060005b8151811015612cd757848482818110612bf757fe5b90506020020135828281518110612c0a57fe5b60200260200101511015612c65576040805162461bcd60e51b815260206004820152601a60248201527f616d6f756e74735b695d203c206d696e416d6f756e74735b695d000000000000604482015290519081900360640190fd5b612c8b828281518110612c7457fe5b602002602001015188600a01838154811061178d57fe5b87600a018281548110612c9a57fe5b9060005260206000200181905550612ccf33838381518110612cb857fe5b602002602001015189600801848154811061121457fe5b600101612be2565b506007860154604080517f79cc67900000000000000000000000000000000000000000000000000000000081523360048201526024810188905290516001600160a01b03909216916379cc67909160448082019260009290919082900301818387803b158015612d4657600080fd5b505af1158015612d5a573d6000803e3d6000fd5b50505050336001600160a01b03167f88d38ed598fdd809c2bf01ee49cd24b7fdabf379a83d29567952b60324d58cef828860070160009054906101000a90046001600160a01b03166001600160a01b03166318160ddd6040518163ffffffff1660e01b815260040160206040518083038186803b158015612dda57600080fd5b505afa158015612dee573d6000803e3d6000fd5b505050506040513d6020811015612e0457600080fd5b50516040805160208181018490528282528451928201929092528351909182916060830191868101910280838360005b83811015612e4c578181015183820152602001612e34565b50505050905001935050505060405180910390a295945050505050565b6305f5e100811115612ec2576040805162461bcd60e51b815260206004820152600f60248201527f46656520697320746f6f20686967680000000000000000000000000000000000604482015290519081900360640190fd5b600682018190556040805182815290517fd5fe46099fa396290a7f57e36c3c3c8774e2562c18ed5d1dcc0fa75071e03f1d9181900360200190a15050565b6002830154612f1290620151806134b6565b421015612f66576040805162461bcd60e51b815260206004820152601f60248201527f57616974203120646179206265666f7265207374617274696e672072616d7000604482015290519081900360640190fd5b612f7342621275006134b6565b811015612fc7576040805162461bcd60e51b815260206004820152601660248201527f496e73756666696369656e742072616d702074696d6500000000000000000000604482015290519081900360640190fd5b600082118015612fd95750620f424082105b61302a576040805162461bcd60e51b815260206004820181905260248201527f667574757265415f206d757374206265203e203020616e64203c204d41585f41604482015290519081900360640190fd5b600061303584613257565b90506000613044846064613604565b9050818110156130b2578161305a826002613604565b10156130ad576040805162461bcd60e51b815260206004820152601560248201527f667574757265415f20697320746f6f20736d616c6c0000000000000000000000604482015290519081900360640190fd5b613111565b6130bd826002613604565b811115613111576040805162461bcd60e51b815260206004820152601560248201527f667574757265415f20697320746f6f206c617267650000000000000000000000604482015290519081900360640190fd5b8185556001850181905542600286018190556003860184905560408051848152602081018490528082019290925260608201859052517fa2b71ec6df949300b59aab36b55e189697b750119dd349fcfa8c0f779e83c2549181900360800190a15050505050565b6402540be40081565b60005b60088301548110156123225760008360080182815481106131a157fe5b6000918252602082200154600a860180546001600160a01b03909216935061322591859081106131cd57fe5b9060005260206000200154836001600160a01b03166370a08231306040518263ffffffff1660e01b815260040180826001600160a01b0316815260200191505060206040518083038186803b15801561164457600080fd5b90508015613241576132416001600160a01b03831685836137bb565b5050600101613184565b60006108dc6064610b47845b6003810154600182015460009190428211156132e35760028401548454808311156132b5576132aa6132a361328c86856135a7565b610b4761329942876135a7565b610b4188876135a7565b82906134b6565b9450505050506108df565b6132aa6132dc6132c586856135a7565b610b476132d242876135a7565b610b4186896135a7565b82906135a7565b91506108df9050565b606061230e828460090180548060200260200160405190810160405280929190818152602001828054801561334057602002820191906000526020600020905b81548152602001906001019080831161332c575b50505050506140b3565b815160009081805b8281101561338a5761338086828151811061336957fe5b6020026020010151836134b690919063ffffffff16565b9150600101613352565b508061339b57600092505050612311565b600081816133a98786613604565b905060005b610100811015613468578260005b878110156133eb576133e16133d7898d8481518110610fb657fe5b610b478488613604565b91506001016133bc565b50929350839261343f61341f61340683610b418b60016134b6565b6134196064610b4789610b418a846135a7565b906134b6565b610b4786610b41613430868d613604565b6134196064610b478b8f613604565b935061344b84866141aa565b1561345f5783975050505050505050612311565b506001016133ae565b506040805162461bcd60e51b815260206004820152601360248201527f4420646f6573206e6f7420636f6e766572676500000000000000000000000000604482015290519081900360640190fd5b60008282018381101561230e576040805162461bcd60e51b815260206004820152601b60248201527f536166654d6174683a206164646974696f6e206f766572666c6f770000000000604482015290519081900360640190fd5b6000818484111561359f5760405162461bcd60e51b81526004018080602001828103825283818151815260200191508051906020019080838360005b8381101561356457818101518382015260200161354c565b50505050905090810190601f1680156135915780820380516001836020036101000a031916815260200191505b509250505060405180910390fd5b505050900390565b6000828211156135fe576040805162461bcd60e51b815260206004820152601e60248201527f536166654d6174683a207375627472616374696f6e206f766572666c6f770000604482015290519081900360640190fd5b50900390565b60008261361357506000612311565b8282028284828161362057fe5b041461230e5760405162461bcd60e51b815260040180806020018281038252602181526020018061489e6021913960400191505060405180910390fd5b60008082116136b3576040805162461bcd60e51b815260206004820152601a60248201527f536166654d6174683a206469766973696f6e206279207a65726f000000000000604482015290519081900360640190fd5b8183816136bc57fe5b049392505050565b60088101546000906108dc906136e290600490610b419060016135a7565b60088401546004850154610b4791613604565b60606108dc82600a0180548060200260200160405190810160405280929190818152602001828054801561374857602002820191906000526020600020905b815481526020019060010190808311613734575b505050505083600901805480602002602001604051908101604052809291908181526020018280548015613340576020028201919060005260206000209081548152602001906001019080831161332c5750505050506140b3565b6000818311156137b65750808203612311565b500390565b604080516001600160a01b038416602482015260448082018490528251808303909101815260649091019091526020810180517bffffffffffffffffffffffffffffffffffffffffffffffffffffffff167fa9059cbb000000000000000000000000000000000000000000000000000000001790526123229084906141c1565b604080516001600160a01b0380861660248301528416604482015260648082018490528251808303909101815260849091019091526020810180517bffffffffffffffffffffffffffffffffffffffffffffffffffffffff167f23b872dd000000000000000000000000000000000000000000000000000000001790526138c39085906141c1565b50505050565b60008060606138d7876136f5565b905080518660ff161080156138ef575080518560ff16105b613940576040805162461bcd60e51b815260206004820152601860248201527f546f6b656e20696e646578206f7574206f662072616e67650000000000000000604482015290519081900360640190fd5b600061398b828860ff168151811061395457fe5b60200260200101516134198a6009018a60ff168154811061397157fe5b90600052602060002001548861360490919063ffffffff16565b9050600061399c8989898587614272565b90506139b660016117a683868b60ff1681518110610fd857fe5b94506139d86402540be400610b478b600401548861360490919063ffffffff16565b9350613a05896009018860ff16815481106139ef57fe5b600091825260209091200154610b4787876135a7565b945050505094509492505050565b60006108dc613a21836136f5565b61251884613257565b6001600160a01b038216613a3d57612322565b6006830154613a6d576001600160a01b0382166000908152600c8401602052604090206402540be4009055613b78565b6000613a7984846123c2565b6007850154604080517f70a082310000000000000000000000000000000000000000000000000000000081526001600160a01b038781166004830152915193945060009391909216916370a08231916024808301926020929190829003018186803b158015613ae757600080fd5b505afa158015613afb573d6000803e3d6000fd5b505050506040513d6020811015613b1157600080fd5b50516006860154909150613b5a90613b2d90610b4186856134b6565b610b476402540be400610b41613b508a600601548961360490919063ffffffff16565b6134198789613604565b6001600160a01b0385166000908152600c8701602052604090205550505b506001600160a01b03166000908152600b9190910160205260409020429055565b6008830154600090819060ff851610613bf9576040805162461bcd60e51b815260206004820152601860248201527f546f6b656e20696e646578206f7574206f662072616e67650000000000000000604482015290519081900360640190fd5b6060613c04866136f5565b9050613c0e614859565b6040518060a001604052806000815260200160008152602001600081526020016000815260200160008152509050613c4587613257565b60808201819052613c5790839061334a565b81526007870154604080517f18160ddd0000000000000000000000000000000000000000000000000000000081529051613d0292613cfa926001600160a01b03909116916318160ddd91600480820192602092909190829003018186803b158015613cc157600080fd5b505afa158015613cd5573d6000803e3d6000fd5b505050506040513d6020811015613ceb57600080fd5b50518351610b47908990613604565b8251906135a7565b60208201528151829060ff8816908110613d1857fe5b6020026020010151851115613d74576040805162461bcd60e51b815260206004820152601a60248201527f5769746864726177206578636565647320617661696c61626c65000000000000604482015290519081900360640190fd5b613d888160800151878484602001516144c9565b6040820152815160609067ffffffffffffffff81118015613da857600080fd5b50604051908082528060200260200182016040528015613dd2578160200160208202803683370190505b509050613dde886136c4565b606083015260005b6008890154811015613e95576000848281518110613e0057fe5b60200260200101519050613e756132dc6402540be400610b4787606001518d60ff168714613e4e57885160208a0151613e4991613e4291610b47908a90613604565b87906135a7565b610b41565b610b4189604001516117a68b60000151610b478d602001518b61360490919063ffffffff16565b838381518110613e8157fe5b602090810291909101015250600101613de6565b506000613ebe613eaf84608001518a8587602001516144c9565b838a60ff1681518110610fd857fe5b9050613eec896009018960ff1681548110613ed557fe5b600091825260209091200154610b478360016135a7565b604090930151929550919350505050935093915050565b606060008460070160009054906101000a90046001600160a01b03166001600160a01b03166318160ddd6040518163ffffffff1660e01b815260040160206040518083038186803b158015613f5757600080fd5b505afa158015613f6b573d6000803e3d6000fd5b505050506040513d6020811015613f8157600080fd5b5051905080831115613fda576040805162461bcd60e51b815260206004820152601a60248201527f43616e6e6f742065786365656420746f74616c20737570706c79000000000000604482015290519081900360640190fd5b6000613ffc6402540be400610b47613ff5610b6a8a8a6123c2565b8790613604565b600887015490915060609067ffffffffffffffff8111801561401d57600080fd5b50604051908082528060200260200182016040528015614047578160200160208202803683370190505b50905060005b60088801548110156140a85761408984610b47858b600a01858154811061407057fe5b906000526020600020015461360490919063ffffffff16565b82828151811061409557fe5b602090810291909101015260010161404d565b509695505050505050565b8151815160609190811461410e576040805162461bcd60e51b815260206004820152601f60248201527f42616c616e636573206d757374206d61746368206d756c7469706c6965727300604482015290519081900360640190fd5b60608167ffffffffffffffff8111801561412757600080fd5b50604051908082528060200260200182016040528015614151578160200160208202803683370190505b50905060005b828110156141a15761418285828151811061416e57fe5b6020026020010151878381518110610fb657fe5b82828151811061418e57fe5b6020908102919091010152600101614157565b50949350505050565b600060016141b884846137a3565b11159392505050565b6060614216826040518060400160405280602081526020017f5361666545524332303a206c6f772d6c6576656c2063616c6c206661696c6564815250856001600160a01b03166146369092919063ffffffff16565b8051909150156123225780806020019051602081101561423557600080fd5b50516123225760405162461bcd60e51b815260040180806020018281038252602a8152602001806148bf602a913960400191505060405180910390fd5b600885015460009060ff86811690861614156142d5576040805162461bcd60e51b815260206004820152601d60248201527f43616e277420636f6d7061726520746f6b656e20746f20697473656c66000000604482015290519081900360640190fd5b808660ff161080156142e95750808560ff16105b61433a576040805162461bcd60e51b815260206004820152601660248201527f546f6b656e73206d75737420626520696e20706f6f6c00000000000000000000604482015290519081900360640190fd5b600061434588613257565b90506000614353858361334a565b9050806000806143638686613604565b90506000805b878110156143dc578c60ff16811415614384578a91506143ae565b8b60ff1681146143a95789818151811061439a57fe5b602002602001015191506143ae565b6143d4565b6143b884836134b6565b93506143d16143c7838a613604565b610b478789613604565b94505b600101614369565b506143f96143ea8389613604565b610b476064610b41888a613604565b9350600061441661440f84610b47896064613604565b85906134b6565b9050600086815b61010081101561447b5790915081906144506144428a6117a687613419876002613604565b610b478a6134198680613604565b915061445c82846141aa565b1561447357509950610b8d98505050505050505050565b60010161441d565b506040805162461bcd60e51b815260206004820152601e60248201527f417070726f78696d6174696f6e20646964206e6f7420636f6e76657267650000604482015290519081900360640190fd5b815160009060ff85168111614525576040805162461bcd60e51b815260206004820152600f60248201527f546f6b656e206e6f7420666f756e640000000000000000000000000000000000604482015290519081900360640190fd5b826000806145338985613604565b905060005b8481101561459a578860ff1681146145925761457088828151811061455957fe5b6020026020010151846134b690919063ffffffff16565b925061458f614585868a8481518110610fb657fe5b610b47868a613604565b93505b600101614538565b506145b76145a88286613604565b610b476064610b41878b613604565b925060006145d46145cd83610b478a6064613604565b84906134b6565b9050600087815b61010081101561447b57909150819061460e6146008b6117a687613419876002613604565b610b47896134198680613604565b915061461a82846141aa565b1561462e575096506126eb95505050505050565b6001016145db565b60606126eb84846000858561464a8561477a565b61469b576040805162461bcd60e51b815260206004820152601d60248201527f416464726573733a2063616c6c20746f206e6f6e2d636f6e7472616374000000604482015290519081900360640190fd5b60006060866001600160a01b031685876040518082805190602001908083835b602083106146f857805182527fffffffffffffffffffffffffffffffffffffffffffffffffffffffffffffffe090920191602091820191016146bb565b6001836020036101000a03801982511681845116808217855250505050505090500191505060006040518083038185875af1925050503d806000811461475a576040519150601f19603f3d011682016040523d82523d6000602084013e61475f565b606091505b509150915061476f828286614780565b979650505050505050565b3b151590565b6060831561478f57508161131e565b82511561479f5782518084602001fd5b60405162461bcd60e51b815260206004820181815284516024840152845185939192839260440191908501908083836000831561356457818101518382015260200161354c565b6040518060800160405280600081526020016000815260200160008152602001600081525090565b828054828255906000526020600020908101928215614849579160200282015b8281111561484957825182559160200191906001019061482e565b50614855929150614888565b5090565b6040518060a0016040528060008152602001600081526020016000815260200160008152602001600081525090565b5b80821115614855576000815560010161488956fe536166654d6174683a206d756c7469706c69636174696f6e206f766572666c6f775361666545524332303a204552433230206f7065726174696f6e20646964206e6f74207375636365656443616e6e6f74207769746864726177206d6f7265207468616e20617661696c61626c65a264697066735822122069f8ef7807cf09db718e6b039f4cacd25a13d71b0b948fd24d9aecd2773d5ceb64736f6c634300060c0033",
  "devdoc": {
    "details": "Contracts relying on this library must initialize SwapUtils.Swap struct then use this library for SwapUtils.Swap struct. Note that this library contains both functions called by users and admins. Admin functions should be protected within contracts using this library.",
    "kind": "dev",
    "methods": {
      "addLiquidity(SwapUtilsGuarded.Swap storage,uint256[],uint256,bytes32[])": {
        "params": {
          "amounts": "the amounts of each token to add, in their native precision",
          "merkleProof": "bytes32 array that will be used to prove the existence of the caller's address in the list of allowed addresses. If the pool is not in the guarded launch phase, this parameter will be ignored.",
          "minToMint": "the minimum LP tokens adding this amount of liquidity should mint, otherwise revert. Handy for front-running mitigation",
          "self": "Swap struct to read from and write to"
        },
        "returns": {
          "_0": "amount of LP token user received"
        }
      },
      "calculateCurrentWithdrawFee(SwapUtilsGuarded.Swap storage,address)": {
        "params": {
          "user": "address you want to calculate withdraw fee of"
        },
        "returns": {
          "_0": "current withdraw fee of the user"
        }
      },
      "calculateRemoveLiquidity(SwapUtilsGuarded.Swap storage,address,uint256)": {
        "params": {
          "account": "the address that is removing liquidity. required for withdraw fee calculation",
          "amount": "the amount of LP tokens that would to be burned on withdrawal"
        },
        "returns": {
          "_0": "array of amounts of tokens user will receive"
        }
      },
      "calculateSwap(SwapUtilsGuarded.Swap storage,uint8,uint8,uint256)": {
        "params": {
          "dx": "the number of tokens to sell. If the token charges a fee on transfers, use the amount that gets transferred after the fee.",
          "self": "Swap struct to read from",
          "tokenIndexFrom": "the token to sell",
          "tokenIndexTo": "the token to buy"
        },
        "returns": {
          "dy": "the number of tokens the user will get"
        }
      },
      "calculateTokenAmount(SwapUtilsGuarded.Swap storage,address,uint256[],bool)": {
        "details": "This shouldn't be used outside frontends for user estimates.",
        "params": {
          "account": "address of the account depositing or withdrawing tokens",
          "amounts": "an array of token amounts to deposit or withdrawal, corresponding to pooledTokens. The amount should be in each pooled token's native precision. If a token charges a fee on transfers, use the amount that gets transferred after the fee.",
          "deposit": "whether this is a deposit or a withdrawal",
          "self": "Swap struct to read from"
        },
        "returns": {
          "_0": "if deposit was true, total amount of lp token that will be minted and if deposit was false, total amount of lp token that will be burned"
        }
      },
      "calculateWithdrawOneToken(SwapUtilsGuarded.Swap storage,address,uint256,uint8)": {
        "params": {
          "account": "the address that is withdrawing",
          "self": "Swap struct to read from",
          "tokenAmount": "the amount to withdraw in the pool's precision",
          "tokenIndex": "which token will be withdrawn"
        },
        "returns": {
          "_0": "the amount of token user will receive and the associated swap fee"
        }
      },
      "getA(SwapUtilsGuarded.Swap storage)": {
        "details": "See the StableSwap paper for details",
        "params": {
          "self": "Swap struct to read from"
        },
        "returns": {
          "_0": "A parameter"
        }
      },
      "getAPrecise(SwapUtilsGuarded.Swap storage)": {
        "details": "See the StableSwap paper for details",
        "params": {
          "self": "Swap struct to read from"
        },
        "returns": {
          "_0": "A parameter in its raw precision form"
        }
      },
      "getAdminBalance(SwapUtilsGuarded.Swap storage,uint256)": {
        "params": {
          "index": "Index of the pooled token",
          "self": "Swap struct to read from"
        },
        "returns": {
          "_0": "admin balance in the token's precision"
        }
      },
      "getDepositTimestamp(SwapUtilsGuarded.Swap storage,address)": {
        "params": {
          "self": "Swap struct to read from"
        },
        "returns": {
          "_0": "timestamp of last deposit"
        }
      },
      "getVirtualPrice(SwapUtilsGuarded.Swap storage)": {
        "params": {
          "self": "Swap struct to read from"
        },
        "returns": {
          "_0": "the virtual price, scaled to precision of POOL_PRECISION_DECIMALS"
        }
      },
      "rampA(SwapUtilsGuarded.Swap storage,uint256,uint256)": {
        "params": {
          "futureA_": "the new A to ramp towards",
          "futureTime_": "timestamp when the new A should be reached",
          "self": "Swap struct to update"
        }
      },
      "removeLiquidity(SwapUtilsGuarded.Swap storage,uint256,uint256[])": {
        "details": "Liquidity can always be removed, even when the pool is paused.",
        "params": {
          "amount": "the amount of LP tokens to burn",
          "minAmounts": "the minimum amounts of each token in the pool acceptable for this burn. Useful as a front-running mitigation",
          "self": "Swap struct to read from and write to"
        },
        "returns": {
          "_0": "amounts of tokens the user received"
        }
      },
      "removeLiquidityImbalance(SwapUtilsGuarded.Swap storage,uint256[],uint256)": {
        "params": {
          "amounts": "how much of each token to withdraw",
          "maxBurnAmount": "the max LP token provider is willing to pay to remove liquidity. Useful as a front-running mitigation.",
          "self": "Swap struct to read from and write to"
        },
        "returns": {
          "_0": "actual amount of LP tokens burned in the withdrawal"
        }
      },
      "removeLiquidityOneToken(SwapUtilsGuarded.Swap storage,uint256,uint8,uint256)": {
        "params": {
          "minAmount": "the minimum amount to withdraw, otherwise revert",
          "self": "Swap struct to read from and write to",
          "tokenAmount": "the amount of the lp tokens to burn",
          "tokenIndex": "the index of the token you want to receive"
        },
        "returns": {
          "_0": "amount chosen token that user received"
        }
      },
      "setAdminFee(SwapUtilsGuarded.Swap storage,uint256)": {
        "details": "adminFee cannot be higher than 100% of the swap fee",
        "params": {
          "newAdminFee": "new admin fee to be applied on future transactions",
          "self": "Swap struct to update"
        }
      },
      "setDefaultWithdrawFee(SwapUtilsGuarded.Swap storage,uint256)": {
        "params": {
          "newWithdrawFee": "new withdraw fee to be applied",
          "self": "Swap struct to update"
        }
      },
      "setSwapFee(SwapUtilsGuarded.Swap storage,uint256)": {
        "details": "fee cannot be higher than 1% of each swap",
        "params": {
          "newSwapFee": "new swap fee to be applied on future transactions",
          "self": "Swap struct to update"
        }
      },
      "stopRampA(SwapUtilsGuarded.Swap storage)": {
        "params": {
          "self": "Swap struct to update"
        }
      },
      "swap(SwapUtilsGuarded.Swap storage,uint8,uint8,uint256,uint256)": {
        "params": {
          "dx": "the amount of tokens the user wants to sell",
          "minDy": "the min amount the user would like to receive, or revert.",
          "self": "Swap struct to read from and write to",
          "tokenIndexFrom": "the token the user wants to sell",
          "tokenIndexTo": "the token the user wants to buy"
        },
        "returns": {
          "_0": "amount of token user received on swap"
        }
      },
      "updateUserWithdrawFee(SwapUtilsGuarded.Swap storage,address,uint256)": {
        "params": {
          "self": "Swap struct to read from and write to",
          "toMint": "amount of pool tokens to be minted",
          "user": "address of the user depositing tokens"
        }
      },
      "withdrawAdminFees(SwapUtilsGuarded.Swap storage,address)": {
        "params": {
          "self": "Swap struct to withdraw fees from",
          "to": "Address to send the fees to"
        }
      }
    },
    "title": "SwapUtils library",
    "version": 1
  },
  "userdoc": {
    "kind": "user",
    "methods": {
      "addLiquidity(SwapUtilsGuarded.Swap storage,uint256[],uint256,bytes32[])": {
        "notice": "Add liquidity to the pool"
      },
      "calculateCurrentWithdrawFee(SwapUtilsGuarded.Swap storage,address)": {
        "notice": "Calculate the fee that is applied when the given user withdraws. Withdraw fee decays linearly over 4 weeks."
      },
      "calculateRemoveLiquidity(SwapUtilsGuarded.Swap storage,address,uint256)": {
        "notice": "A simple method to calculate amount of each underlying tokens that is returned upon burning given amount of LP tokens"
      },
      "calculateSwap(SwapUtilsGuarded.Swap storage,uint8,uint8,uint256)": {
        "notice": "Externally calculates a swap between two tokens."
      },
      "calculateTokenAmount(SwapUtilsGuarded.Swap storage,address,uint256[],bool)": {
        "notice": "A simple method to calculate prices from deposits or withdrawals, excluding fees but including slippage. This is helpful as an input into the various \"min\" parameters on calls to fight front-running"
      },
      "calculateWithdrawOneToken(SwapUtilsGuarded.Swap storage,address,uint256,uint8)": {
        "notice": "Calculate the dy, the amount of selected token that user receives and the fee of withdrawing in one token"
      },
      "getA(SwapUtilsGuarded.Swap storage)": {
        "notice": "Return A, the amplification coefficient * n * (n - 1)"
      },
      "getAPrecise(SwapUtilsGuarded.Swap storage)": {
        "notice": "Return A in its raw precision"
      },
      "getAdminBalance(SwapUtilsGuarded.Swap storage,uint256)": {
        "notice": "return accumulated amount of admin fees of the token with given index"
      },
      "getDepositTimestamp(SwapUtilsGuarded.Swap storage,address)": {
        "notice": "Retrieves the timestamp of last deposit made by the given address"
      },
      "getVirtualPrice(SwapUtilsGuarded.Swap storage)": {
        "notice": "Get the virtual price, to help calculate profit"
      },
      "rampA(SwapUtilsGuarded.Swap storage,uint256,uint256)": {
        "notice": "Start ramping up or down A parameter towards given futureA_ and futureTime_ Checks if the change is too rapid, and commits the new A value only when it falls under the limit range."
      },
      "removeLiquidity(SwapUtilsGuarded.Swap storage,uint256,uint256[])": {
        "notice": "Burn LP tokens to remove liquidity from the pool."
      },
      "removeLiquidityImbalance(SwapUtilsGuarded.Swap storage,uint256[],uint256)": {
        "notice": "Remove liquidity from the pool, weighted differently than the pool's current balances."
      },
      "removeLiquidityOneToken(SwapUtilsGuarded.Swap storage,uint256,uint8,uint256)": {
        "notice": "Remove liquidity from the pool all in one token."
      },
      "setAdminFee(SwapUtilsGuarded.Swap storage,uint256)": {
        "notice": "Sets the admin fee"
      },
      "setDefaultWithdrawFee(SwapUtilsGuarded.Swap storage,uint256)": {
        "notice": "update the default withdraw fee. This also affects deposits made in the past as well."
      },
      "setSwapFee(SwapUtilsGuarded.Swap storage,uint256)": {
        "notice": "update the swap fee"
      },
      "stopRampA(SwapUtilsGuarded.Swap storage)": {
        "notice": "Stops ramping A immediately. Once this function is called, rampA() cannot be called for another 24 hours"
      },
      "swap(SwapUtilsGuarded.Swap storage,uint8,uint8,uint256,uint256)": {
        "notice": "swap two tokens in the pool"
      },
      "updateUserWithdrawFee(SwapUtilsGuarded.Swap storage,address,uint256)": {
        "notice": "Update the withdraw fee for `user`. If the user is currently not providing liquidity in the pool, sets to default value. If not, recalculate the starting withdraw fee based on the last deposit's time & amount relative to the new deposit."
      },
      "withdrawAdminFees(SwapUtilsGuarded.Swap storage,address)": {
        "notice": "withdraw all admin fees to a given address"
      }
    },
    "notice": "A library to be used within Swap.sol. Contains functions responsible for custody and AMM functionalities.",
    "version": 1
  },
  "storageLayout": {
    "storage": [],
    "types": null
  }
}