{
  "address": "0x30378331280d9e5cA24F7cEC14Ad917217F0F737",
  "abi": [
    {
      "anonymous": false,
      "inputs": [
        {
          "indexed": true,
          "internalType": "address",
          "name": "provider",
          "type": "address"
        },
        {
          "indexed": false,
          "internalType": "uint256[]",
          "name": "tokenAmounts",
          "type": "uint256[]"
        },
        {
          "indexed": false,
          "internalType": "uint256[]",
          "name": "fees",
          "type": "uint256[]"
        },
        {
          "indexed": false,
          "internalType": "uint256",
          "name": "invariant",
          "type": "uint256"
        },
        {
          "indexed": false,
          "internalType": "uint256",
          "name": "lpTokenSupply",
          "type": "uint256"
        }
      ],
      "name": "AddLiquidity",
      "type": "event"
    },
    {
      "anonymous": false,
      "inputs": [
        {
          "indexed": true,
          "internalType": "address",
          "name": "receiver",
          "type": "address"
        },
        {
          "indexed": false,
          "internalType": "uint8",
          "name": "tokenIndex",
          "type": "uint8"
        },
        {
          "indexed": false,
          "internalType": "uint256",
          "name": "amount",
          "type": "uint256"
        },
        {
          "indexed": false,
          "internalType": "uint256",
          "name": "amountFee",
          "type": "uint256"
        },
        {
          "indexed": false,
          "internalType": "uint256",
          "name": "protocolFee",
          "type": "uint256"
        }
      ],
      "name": "FlashLoan",
      "type": "event"
    },
    {
      "anonymous": false,
      "inputs": [
        {
          "indexed": false,
          "internalType": "uint256",
          "name": "newAdminFee",
          "type": "uint256"
        }
      ],
      "name": "NewAdminFee",
      "type": "event"
    },
    {
      "anonymous": false,
      "inputs": [
        {
          "indexed": false,
          "internalType": "uint256",
          "name": "newSwapFee",
          "type": "uint256"
        }
      ],
      "name": "NewSwapFee",
      "type": "event"
    },
    {
      "anonymous": false,
      "inputs": [
        {
          "indexed": false,
          "internalType": "uint256",
          "name": "newWithdrawFee",
          "type": "uint256"
        }
      ],
      "name": "NewWithdrawFee",
      "type": "event"
    },
    {
      "anonymous": false,
      "inputs": [
        {
          "indexed": true,
          "internalType": "address",
          "name": "previousOwner",
          "type": "address"
        },
        {
          "indexed": true,
          "internalType": "address",
          "name": "newOwner",
          "type": "address"
        }
      ],
      "name": "OwnershipTransferred",
      "type": "event"
    },
    {
      "anonymous": false,
      "inputs": [
        {
          "indexed": false,
          "internalType": "address",
          "name": "account",
          "type": "address"
        }
      ],
      "name": "Paused",
      "type": "event"
    },
    {
      "anonymous": false,
      "inputs": [
        {
          "indexed": false,
          "internalType": "uint256",
          "name": "oldA",
          "type": "uint256"
        },
        {
          "indexed": false,
          "internalType": "uint256",
          "name": "newA",
          "type": "uint256"
        },
        {
          "indexed": false,
          "internalType": "uint256",
          "name": "initialTime",
          "type": "uint256"
        },
        {
          "indexed": false,
          "internalType": "uint256",
          "name": "futureTime",
          "type": "uint256"
        }
      ],
      "name": "RampA",
      "type": "event"
    },
    {
      "anonymous": false,
      "inputs": [
        {
          "indexed": true,
          "internalType": "address",
          "name": "provider",
          "type": "address"
        },
        {
          "indexed": false,
          "internalType": "uint256[]",
          "name": "tokenAmounts",
          "type": "uint256[]"
        },
        {
          "indexed": false,
          "internalType": "uint256",
          "name": "lpTokenSupply",
          "type": "uint256"
        }
      ],
      "name": "RemoveLiquidity",
      "type": "event"
    },
    {
      "anonymous": false,
      "inputs": [
        {
          "indexed": true,
          "internalType": "address",
          "name": "provider",
          "type": "address"
        },
        {
          "indexed": false,
          "internalType": "uint256[]",
          "name": "tokenAmounts",
          "type": "uint256[]"
        },
        {
          "indexed": false,
          "internalType": "uint256[]",
          "name": "fees",
          "type": "uint256[]"
        },
        {
          "indexed": false,
          "internalType": "uint256",
          "name": "invariant",
          "type": "uint256"
        },
        {
          "indexed": false,
          "internalType": "uint256",
          "name": "lpTokenSupply",
          "type": "uint256"
        }
      ],
      "name": "RemoveLiquidityImbalance",
      "type": "event"
    },
    {
      "anonymous": false,
      "inputs": [
        {
          "indexed": true,
          "internalType": "address",
          "name": "provider",
          "type": "address"
        },
        {
          "indexed": false,
          "internalType": "uint256",
          "name": "lpTokenAmount",
          "type": "uint256"
        },
        {
          "indexed": false,
          "internalType": "uint256",
          "name": "lpTokenSupply",
          "type": "uint256"
        },
        {
          "indexed": false,
          "internalType": "uint256",
          "name": "boughtId",
          "type": "uint256"
        },
        {
          "indexed": false,
          "internalType": "uint256",
          "name": "tokensBought",
          "type": "uint256"
        }
      ],
      "name": "RemoveLiquidityOne",
      "type": "event"
    },
    {
      "anonymous": false,
      "inputs": [
        {
          "indexed": false,
          "internalType": "uint256",
          "name": "currentA",
          "type": "uint256"
        },
        {
          "indexed": false,
          "internalType": "uint256",
          "name": "time",
          "type": "uint256"
        }
      ],
      "name": "StopRampA",
      "type": "event"
    },
    {
      "anonymous": false,
      "inputs": [
        {
          "indexed": true,
          "internalType": "address",
          "name": "buyer",
          "type": "address"
        },
        {
          "indexed": false,
          "internalType": "uint256",
          "name": "tokensSold",
          "type": "uint256"
        },
        {
          "indexed": false,
          "internalType": "uint256",
          "name": "tokensBought",
          "type": "uint256"
        },
        {
          "indexed": false,
          "internalType": "uint128",
          "name": "soldId",
          "type": "uint128"
        },
        {
          "indexed": false,
          "internalType": "uint128",
          "name": "boughtId",
          "type": "uint128"
        }
      ],
      "name": "TokenSwap",
      "type": "event"
    },
    {
      "anonymous": false,
      "inputs": [
        {
          "indexed": false,
          "internalType": "address",
          "name": "account",
          "type": "address"
        }
      ],
      "name": "Unpaused",
      "type": "event"
    },
    {
      "inputs": [],
      "name": "MAX_BPS",
      "outputs": [
        {
          "internalType": "uint256",
          "name": "",
          "type": "uint256"
        }
      ],
      "stateMutability": "view",
      "type": "function"
    },
    {
      "inputs": [
        {
          "internalType": "uint256[]",
          "name": "amounts",
          "type": "uint256[]"
        },
        {
          "internalType": "uint256",
          "name": "minToMint",
          "type": "uint256"
        },
        {
          "internalType": "uint256",
          "name": "deadline",
          "type": "uint256"
        }
      ],
      "name": "addLiquidity",
      "outputs": [
        {
          "internalType": "uint256",
          "name": "",
          "type": "uint256"
        }
      ],
      "stateMutability": "nonpayable",
      "type": "function"
    },
    {
      "inputs": [
        {
          "internalType": "address",
          "name": "user",
          "type": "address"
        }
      ],
      "name": "calculateCurrentWithdrawFee",
      "outputs": [
        {
          "internalType": "uint256",
          "name": "",
          "type": "uint256"
        }
      ],
      "stateMutability": "view",
      "type": "function"
    },
    {
      "inputs": [
        {
          "internalType": "address",
          "name": "account",
          "type": "address"
        },
        {
          "internalType": "uint256",
          "name": "amount",
          "type": "uint256"
        }
      ],
      "name": "calculateRemoveLiquidity",
      "outputs": [
        {
          "internalType": "uint256[]",
          "name": "",
          "type": "uint256[]"
        }
      ],
      "stateMutability": "view",
      "type": "function"
    },
    {
      "inputs": [
        {
          "internalType": "address",
          "name": "account",
          "type": "address"
        },
        {
          "internalType": "uint256",
          "name": "tokenAmount",
          "type": "uint256"
        },
        {
          "internalType": "uint8",
          "name": "tokenIndex",
          "type": "uint8"
        }
      ],
      "name": "calculateRemoveLiquidityOneToken",
      "outputs": [
        {
          "internalType": "uint256",
          "name": "availableTokenAmount",
          "type": "uint256"
        }
      ],
      "stateMutability": "view",
      "type": "function"
    },
    {
      "inputs": [
        {
          "internalType": "uint8",
          "name": "tokenIndexFrom",
          "type": "uint8"
        },
        {
          "internalType": "uint8",
          "name": "tokenIndexTo",
          "type": "uint8"
        },
        {
          "internalType": "uint256",
          "name": "dx",
          "type": "uint256"
        }
      ],
      "name": "calculateSwap",
      "outputs": [
        {
          "internalType": "uint256",
          "name": "",
          "type": "uint256"
        }
      ],
      "stateMutability": "view",
      "type": "function"
    },
    {
      "inputs": [
        {
          "internalType": "address",
          "name": "account",
          "type": "address"
        },
        {
          "internalType": "uint256[]",
          "name": "amounts",
          "type": "uint256[]"
        },
        {
          "internalType": "bool",
          "name": "deposit",
          "type": "bool"
        }
      ],
      "name": "calculateTokenAmount",
      "outputs": [
        {
          "internalType": "uint256",
          "name": "",
          "type": "uint256"
        }
      ],
      "stateMutability": "view",
      "type": "function"
    },
    {
      "inputs": [
        {
          "internalType": "address",
          "name": "receiver",
          "type": "address"
        },
        {
          "internalType": "contract IERC20",
          "name": "token",
          "type": "address"
        },
        {
          "internalType": "uint256",
          "name": "amount",
          "type": "uint256"
        },
        {
          "internalType": "bytes",
          "name": "params",
          "type": "bytes"
        }
      ],
      "name": "flashLoan",
      "outputs": [],
      "stateMutability": "nonpayable",
      "type": "function"
    },
    {
      "inputs": [],
      "name": "flashLoanFeeBPS",
      "outputs": [
        {
          "internalType": "uint256",
          "name": "",
          "type": "uint256"
        }
      ],
      "stateMutability": "view",
      "type": "function"
    },
    {
      "inputs": [],
      "name": "getA",
      "outputs": [
        {
          "internalType": "uint256",
          "name": "",
          "type": "uint256"
        }
      ],
      "stateMutability": "view",
      "type": "function"
    },
    {
      "inputs": [],
      "name": "getAPrecise",
      "outputs": [
        {
          "internalType": "uint256",
          "name": "",
          "type": "uint256"
        }
      ],
      "stateMutability": "view",
      "type": "function"
    },
    {
      "inputs": [
        {
          "internalType": "uint256",
          "name": "index",
          "type": "uint256"
        }
      ],
      "name": "getAdminBalance",
      "outputs": [
        {
          "internalType": "uint256",
          "name": "",
          "type": "uint256"
        }
      ],
      "stateMutability": "view",
      "type": "function"
    },
    {
      "inputs": [
        {
          "internalType": "address",
          "name": "user",
          "type": "address"
        }
      ],
      "name": "getDepositTimestamp",
      "outputs": [
        {
          "internalType": "uint256",
          "name": "",
          "type": "uint256"
        }
      ],
      "stateMutability": "view",
      "type": "function"
    },
    {
      "inputs": [
        {
          "internalType": "uint8",
          "name": "index",
          "type": "uint8"
        }
      ],
      "name": "getToken",
      "outputs": [
        {
          "internalType": "contract IERC20",
          "name": "",
          "type": "address"
        }
      ],
      "stateMutability": "view",
      "type": "function"
    },
    {
      "inputs": [
        {
          "internalType": "uint8",
          "name": "index",
          "type": "uint8"
        }
      ],
      "name": "getTokenBalance",
      "outputs": [
        {
          "internalType": "uint256",
          "name": "",
          "type": "uint256"
        }
      ],
      "stateMutability": "view",
      "type": "function"
    },
    {
      "inputs": [
        {
          "internalType": "address",
          "name": "tokenAddress",
          "type": "address"
        }
      ],
      "name": "getTokenIndex",
      "outputs": [
        {
          "internalType": "uint8",
          "name": "",
          "type": "uint8"
        }
      ],
      "stateMutability": "view",
      "type": "function"
    },
    {
      "inputs": [],
      "name": "getVirtualPrice",
      "outputs": [
        {
          "internalType": "uint256",
          "name": "",
          "type": "uint256"
        }
      ],
      "stateMutability": "view",
      "type": "function"
    },
    {
      "inputs": [
        {
          "internalType": "contract IERC20[]",
          "name": "_pooledTokens",
          "type": "address[]"
        },
        {
          "internalType": "uint8[]",
          "name": "decimals",
          "type": "uint8[]"
        },
        {
          "internalType": "string",
          "name": "lpTokenName",
          "type": "string"
        },
        {
          "internalType": "string",
          "name": "lpTokenSymbol",
          "type": "string"
        },
        {
          "internalType": "uint256",
          "name": "_a",
          "type": "uint256"
        },
        {
          "internalType": "uint256",
          "name": "_fee",
          "type": "uint256"
        },
        {
          "internalType": "uint256",
          "name": "_adminFee",
          "type": "uint256"
        },
        {
          "internalType": "uint256",
          "name": "_withdrawFee",
          "type": "uint256"
        },
        {
          "internalType": "address",
          "name": "lpTokenTargetAddress",
          "type": "address"
        }
      ],
      "name": "initialize",
      "outputs": [],
      "stateMutability": "nonpayable",
      "type": "function"
    },
    {
      "inputs": [],
      "name": "owner",
      "outputs": [
        {
          "internalType": "address",
          "name": "",
          "type": "address"
        }
      ],
      "stateMutability": "view",
      "type": "function"
    },
    {
      "inputs": [],
      "name": "pause",
      "outputs": [],
      "stateMutability": "nonpayable",
      "type": "function"
    },
    {
      "inputs": [],
      "name": "paused",
      "outputs": [
        {
          "internalType": "bool",
          "name": "",
          "type": "bool"
        }
      ],
      "stateMutability": "view",
      "type": "function"
    },
    {
      "inputs": [],
      "name": "protocolFeeShareBPS",
      "outputs": [
        {
          "internalType": "uint256",
          "name": "",
          "type": "uint256"
        }
      ],
      "stateMutability": "view",
      "type": "function"
    },
    {
      "inputs": [
        {
          "internalType": "uint256",
          "name": "futureA",
          "type": "uint256"
        },
        {
          "internalType": "uint256",
          "name": "futureTime",
          "type": "uint256"
        }
      ],
      "name": "rampA",
      "outputs": [],
      "stateMutability": "nonpayable",
      "type": "function"
    },
    {
      "inputs": [
        {
          "internalType": "uint256",
          "name": "amount",
          "type": "uint256"
        },
        {
          "internalType": "uint256[]",
          "name": "minAmounts",
          "type": "uint256[]"
        },
        {
          "internalType": "uint256",
          "name": "deadline",
          "type": "uint256"
        }
      ],
      "name": "removeLiquidity",
      "outputs": [
        {
          "internalType": "uint256[]",
          "name": "",
          "type": "uint256[]"
        }
      ],
      "stateMutability": "nonpayable",
      "type": "function"
    },
    {
      "inputs": [
        {
          "internalType": "uint256[]",
          "name": "amounts",
          "type": "uint256[]"
        },
        {
          "internalType": "uint256",
          "name": "maxBurnAmount",
          "type": "uint256"
        },
        {
          "internalType": "uint256",
          "name": "deadline",
          "type": "uint256"
        }
      ],
      "name": "removeLiquidityImbalance",
      "outputs": [
        {
          "internalType": "uint256",
          "name": "",
          "type": "uint256"
        }
      ],
      "stateMutability": "nonpayable",
      "type": "function"
    },
    {
      "inputs": [
        {
          "internalType": "uint256",
          "name": "tokenAmount",
          "type": "uint256"
        },
        {
          "internalType": "uint8",
          "name": "tokenIndex",
          "type": "uint8"
        },
        {
          "internalType": "uint256",
          "name": "minAmount",
          "type": "uint256"
        },
        {
          "internalType": "uint256",
          "name": "deadline",
          "type": "uint256"
        }
      ],
      "name": "removeLiquidityOneToken",
      "outputs": [
        {
          "internalType": "uint256",
          "name": "",
          "type": "uint256"
        }
      ],
      "stateMutability": "nonpayable",
      "type": "function"
    },
    {
      "inputs": [],
      "name": "renounceOwnership",
      "outputs": [],
      "stateMutability": "nonpayable",
      "type": "function"
    },
    {
      "inputs": [
        {
          "internalType": "uint256",
          "name": "newAdminFee",
          "type": "uint256"
        }
      ],
      "name": "setAdminFee",
      "outputs": [],
      "stateMutability": "nonpayable",
      "type": "function"
    },
    {
      "inputs": [
        {
          "internalType": "uint256",
          "name": "newWithdrawFee",
          "type": "uint256"
        }
      ],
      "name": "setDefaultWithdrawFee",
      "outputs": [],
      "stateMutability": "nonpayable",
      "type": "function"
    },
    {
      "inputs": [
        {
          "internalType": "uint256",
          "name": "newFlashLoanFeeBPS",
          "type": "uint256"
        },
        {
          "internalType": "uint256",
          "name": "newProtocolFeeShareBPS",
          "type": "uint256"
        }
      ],
      "name": "setFlashLoanFees",
      "outputs": [],
      "stateMutability": "nonpayable",
      "type": "function"
    },
    {
      "inputs": [
        {
          "internalType": "uint256",
          "name": "newSwapFee",
          "type": "uint256"
        }
      ],
      "name": "setSwapFee",
      "outputs": [],
      "stateMutability": "nonpayable",
      "type": "function"
    },
    {
      "inputs": [],
      "name": "stopRampA",
      "outputs": [],
      "stateMutability": "nonpayable",
      "type": "function"
    },
    {
      "inputs": [
        {
          "internalType": "uint8",
          "name": "tokenIndexFrom",
          "type": "uint8"
        },
        {
          "internalType": "uint8",
          "name": "tokenIndexTo",
          "type": "uint8"
        },
        {
          "internalType": "uint256",
          "name": "dx",
          "type": "uint256"
        },
        {
          "internalType": "uint256",
          "name": "minDy",
          "type": "uint256"
        },
        {
          "internalType": "uint256",
          "name": "deadline",
          "type": "uint256"
        }
      ],
      "name": "swap",
      "outputs": [
        {
          "internalType": "uint256",
          "name": "",
          "type": "uint256"
        }
      ],
      "stateMutability": "nonpayable",
      "type": "function"
    },
    {
      "inputs": [],
      "name": "swapStorage",
      "outputs": [
        {
          "internalType": "uint256",
          "name": "initialA",
          "type": "uint256"
        },
        {
          "internalType": "uint256",
          "name": "futureA",
          "type": "uint256"
        },
        {
          "internalType": "uint256",
          "name": "initialATime",
          "type": "uint256"
        },
        {
          "internalType": "uint256",
          "name": "futureATime",
          "type": "uint256"
        },
        {
          "internalType": "uint256",
          "name": "swapFee",
          "type": "uint256"
        },
        {
          "internalType": "uint256",
          "name": "adminFee",
          "type": "uint256"
        },
        {
          "internalType": "uint256",
          "name": "defaultWithdrawFee",
          "type": "uint256"
        },
        {
          "internalType": "contract LPToken",
          "name": "lpToken",
          "type": "address"
        }
      ],
      "stateMutability": "view",
      "type": "function"
    },
    {
      "inputs": [
        {
          "internalType": "address",
          "name": "newOwner",
          "type": "address"
        }
      ],
      "name": "transferOwnership",
      "outputs": [],
      "stateMutability": "nonpayable",
      "type": "function"
    },
    {
      "inputs": [],
      "name": "unpause",
      "outputs": [],
      "stateMutability": "nonpayable",
      "type": "function"
    },
    {
      "inputs": [
        {
          "internalType": "address",
          "name": "recipient",
          "type": "address"
        },
        {
          "internalType": "uint256",
          "name": "transferAmount",
          "type": "uint256"
        }
      ],
      "name": "updateUserWithdrawFee",
      "outputs": [],
      "stateMutability": "nonpayable",
      "type": "function"
    },
    {
      "inputs": [],
      "name": "withdrawAdminFees",
      "outputs": [],
      "stateMutability": "nonpayable",
      "type": "function"
    }
  ],
  "transactionHash": "0x21361e024e3ddb7eca44e93726d349384eaa1237aa88880bf7a06905965ac5ff",
  "args": [],
  "solcInputHash": "8f41ed0bf5ed398a2f798685730bd171",
  "bytecode": "0x608060405234801561001057600080fd5b5061427e806100206000396000f3fe608060405234801561001057600080fd5b50600436106102925760003560e01c80638beb60b611610160578063d46300fd116100d8578063ef0a712f1161008c578063f2fde38b11610071578063f2fde38b14610b09578063f9273ffb14610b2f578063fd967f4714610bb157610292565b8063ef0a712f14610ac9578063ef81596714610ae657610292565b8063df3ed68d116100bd578063df3ed68d14610863578063e25aa5fa14610ab9578063e8cc7fb614610ac157610292565b8063d46300fd14610835578063da7a77be1461083d57610292565b806398899f401161012f578063ac5bf26311610114578063ac5bf263146107e4578063c00c125c14610801578063c4db7fa01461082d57610292565b806398899f401461077f578063a95b089f146107b457610292565b80638beb60b6146106fe5780638da5cb5b1461071b578063916955861461072357806391ceb3eb1461075f57610292565b80635c975abb1161020e5780637c61e561116101c257806382b86600116101a757806382b86600146106445780638456cb591461068057806384cdd9bc1461068857610292565b80637c61e561146106105780637f1c825a1461063c57610292565b80635fd65f0f116101f35780635fd65f0f1461057a57806366c0bd24146105cc578063715018a61461060857610292565b80635c975abb146104985780635cffe9de146104b457610292565b80633e3a1560116102655780634a1b0d571161024a5780634a1b0d57146103d95780634d49e87d146103ff578063593d132c1461047557610292565b80633e3a15601461039f5780633f4ba83a146103d157610292565b80630419b45a146102975780630ba81959146102a157806331cd52b0146102bb57806334e1990714610382575b600080fd5b61029f610bb9565b005b6102a9610caf565b60408051918252519081900360200190f35b610332600480360360608110156102d157600080fd5b813591908101906040810160208201356401000000008111156102f357600080fd5b82018360208201111561030557600080fd5b8035906020019184602083028401116401000000008311171561032757600080fd5b919350915035610d34565b60408051602080825283518183015283519192839290830191858101910280838360005b8381101561036e578181015183820152602001610356565b505050509050019250505060405180910390f35b61029f6004803603602081101561039857600080fd5b5035610f71565b6102a9600480360360808110156103b557600080fd5b5080359060ff6020820135169060408101359060600135611072565b61029f61123e565b6102a9600480360360208110156103ef57600080fd5b50356001600160a01b03166112bc565b6102a96004803603606081101561041557600080fd5b81019060208101813564010000000081111561043057600080fd5b82018360208201111561044257600080fd5b8035906020019184602083028401116401000000008311171561046457600080fd5b91935091508035906020013561136e565b61029f6004803603604081101561048b57600080fd5b508035906020013561150e565b6104a0611617565b604080519115158252519081900360200190f35b61029f600480360360808110156104ca57600080fd5b6001600160a01b0382358116926020810135909116916040820135919081019060808101606082013564010000000081111561050557600080fd5b82018360208201111561051757600080fd5b8035906020019184600183028401116401000000008311171561053957600080fd5b91908080601f016020809104026020016040519081016040528093929190818152602001838380828437600092019190915250929550611620945050505050565b610582611ab2565b604080519889526020890197909752878701959095526060870193909352608086019190915260a085015260c08401526001600160a01b031660e083015251908190036101000190f35b6105f2600480360360208110156105e257600080fd5b50356001600160a01b0316611ad6565b6040805160ff9092168252519081900360200190f35b61029f611b61565b6103326004803603604081101561062657600080fd5b506001600160a01b038135169060200135611c37565b6102a9611dab565b6106646004803603602081101561065a57600080fd5b503560ff16611db1565b604080516001600160a01b039092168252519081900360200190f35b61029f611e39565b6102a96004803603606081101561069e57600080fd5b8101906020810181356401000000008111156106b957600080fd5b8201836020820111156106cb57600080fd5b803590602001918460208302840111640100000000831117156106ed57600080fd5b919350915080359060200135611eb5565b61029f6004803603602081101561071457600080fd5b5035612055565b61066461213b565b6102a9600480360360a081101561073957600080fd5b5060ff81358116916020810135909116906040810135906060810135906080013561214a565b6102a96004803603602081101561077557600080fd5b503560ff1661231f565b6102a96004803603606081101561079557600080fd5b5080356001600160a01b0316906020810135906040013560ff1661239e565b6102a9600480360360608110156107ca57600080fd5b5060ff813581169160208101359091169060400135612462565b61029f600480360360208110156107fa57600080fd5b50356124e9565b61029f6004803603604081101561081757600080fd5b506001600160a01b0381351690602001356125cd565b61029f6126ad565b6102a961278c565b6102a96004803603602081101561085357600080fd5b50356001600160a01b03166127e0565b61029f600480360361012081101561087a57600080fd5b81019060208101813564010000000081111561089557600080fd5b8201836020820111156108a757600080fd5b803590602001918460208302840111640100000000831117156108c957600080fd5b919080806020026020016040519081016040528093929190818152602001838360200280828437600092019190915250929594936020810193503591505064010000000081111561091957600080fd5b82018360208201111561092b57600080fd5b8035906020019184602083028401116401000000008311171561094d57600080fd5b919080806020026020016040519081016040528093929190818152602001838360200280828437600092019190915250929594936020810193503591505064010000000081111561099d57600080fd5b8201836020820111156109af57600080fd5b803590602001918460018302840111640100000000831117156109d157600080fd5b91908080601f0160208091040260200160405190810160405280939291908181526020018383808284376000920191909152509295949360208101935035915050640100000000811115610a2457600080fd5b820183602082011115610a3657600080fd5b80359060200191846001830284011164010000000083111715610a5857600080fd5b91908080601f01602080910402602001604051908101604052809392919081815260200183838082843760009201919091525092955050823593505050602081013590604081013590606081013590608001356001600160a01b031661285e565b6102a9612924565b6102a9612978565b6102a960048036036020811015610adf57600080fd5b503561297e565b61029f60048036036040811015610afc57600080fd5b50803590602001356129da565b61029f60048036036020811015610b1f57600080fd5b50356001600160a01b0316612aca565b6102a960048036036060811015610b4557600080fd5b6001600160a01b038235169190810190604081016020820135640100000000811115610b7057600080fd5b820183602082011115610b8257600080fd5b80359060200191846020830284011164010000000083111715610ba457600080fd5b9193509150351515612bf7565b6102a9612cd2565b610bc1612cd8565b6001600160a01b0316610bd261213b565b6001600160a01b031614610c2d576040805162461bcd60e51b815260206004820181905260248201527f4f776e61626c653a2063616c6c6572206973206e6f7420746865206f776e6572604482015290519081900360640190fd5b7375720fAc0f99E17DCBdDa14D05CCdDE31090F04b636d42928860c9610c5161213b565b6040518363ffffffff1660e01b815260040180838152602001826001600160a01b031681526020019250505060006040518083038186803b158015610c9557600080fd5b505af4158015610ca9573d6000803e3d6000fd5b50505050565b600060c973161d3d3c5a6a8abbbe8bc404dcba19d6d97fd5b86399afe2fa90916040518263ffffffff1660e01b81526004018082815260200191505060206040518083038186803b158015610d0357600080fd5b505af4158015610d17573d6000803e3d6000fd5b505050506040513d6020811015610d2d57600080fd5b5051905090565b606060026097541415610d8e576040805162461bcd60e51b815260206004820152601f60248201527f5265656e7472616e637947756172643a207265656e7472616e742063616c6c00604482015290519081900360640190fd5b60026097558142811015610de9576040805162461bcd60e51b815260206004820152601060248201527f446561646c696e65206e6f74206d657400000000000000000000000000000000604482015290519081900360640190fd5b60c97375720fAc0f99E17DCBdDa14D05CCdDE31090F04b636b114d9b90918888886040518563ffffffff1660e01b815260040180858152602001848152602001806020018281038252848482818152602001925060200280828437600081840152601f19601f8201169050808301925050509550505050505060006040518083038186803b158015610e7a57600080fd5b505af4158015610e8e573d6000803e3d6000fd5b505050506040513d6000823e601f3d9081017fffffffffffffffffffffffffffffffffffffffffffffffffffffffffffffffe01682016040526020811015610ed557600080fd5b8101908080516040519392919084640100000000821115610ef557600080fd5b908301906020820185811115610f0a57600080fd5b8251866020820283011164010000000082111715610f2757600080fd5b82525081516020918201928201910280838360005b83811015610f54578181015183820152602001610f3c565b505050509050016040525050509150506001609755949350505050565b610f79612cd8565b6001600160a01b0316610f8a61213b565b6001600160a01b031614610fe5576040805162461bcd60e51b815260206004820181905260248201527f4f776e61626c653a2063616c6c6572206973206e6f7420746865206f776e6572604482015290519081900360640190fd5b604080517fbb8ca1ae00000000000000000000000000000000000000000000000000000000815260c960048201526024810183905290517375720fAc0f99E17DCBdDa14D05CCdDE31090F04b9163bb8ca1ae916044808301926000929190829003018186803b15801561105757600080fd5b505af415801561106b573d6000803e3d6000fd5b5050505050565b6000600260975414156110cc576040805162461bcd60e51b815260206004820152601f60248201527f5265656e7472616e637947756172643a207265656e7472616e742063616c6c00604482015290519081900360640190fd5b60026097556110d9611617565b1561112b576040805162461bcd60e51b815260206004820152601060248201527f5061757361626c653a2070617573656400000000000000000000000000000000604482015290519081900360640190fd5b8180421115611181576040805162461bcd60e51b815260206004820152601060248201527f446561646c696e65206e6f74206d657400000000000000000000000000000000604482015290519081900360640190fd5b604080517f73a0e73f00000000000000000000000000000000000000000000000000000000815260c960048201526024810188905260ff871660448201526064810186905290517375720fAc0f99E17DCBdDa14D05CCdDE31090F04b916373a0e73f916084808301926020929190829003018186803b15801561120357600080fd5b505af4158015611217573d6000803e3d6000fd5b505050506040513d602081101561122d57600080fd5b505160016097559695505050505050565b611246612cd8565b6001600160a01b031661125761213b565b6001600160a01b0316146112b2576040805162461bcd60e51b815260206004820181905260248201527f4f776e61626c653a2063616c6c6572206973206e6f7420746865206f776e6572604482015290519081900360640190fd5b6112ba612cdc565b565b604080517fbecfcccd00000000000000000000000000000000000000000000000000000000815260c960048201526001600160a01b038316602482015290516000917375720fAc0f99E17DCBdDa14D05CCdDE31090F04b9163becfcccd91604480820192602092909190829003018186803b15801561133a57600080fd5b505af415801561134e573d6000803e3d6000fd5b505050506040513d602081101561136457600080fd5b505190505b919050565b6000600260975414156113c8576040805162461bcd60e51b815260206004820152601f60248201527f5265656e7472616e637947756172643a207265656e7472616e742063616c6c00604482015290519081900360640190fd5b60026097556113d5611617565b15611427576040805162461bcd60e51b815260206004820152601060248201527f5061757361626c653a2070617573656400000000000000000000000000000000604482015290519081900360640190fd5b818042111561147d576040805162461bcd60e51b815260206004820152601060248201527f446561646c696e65206e6f74206d657400000000000000000000000000000000604482015290519081900360640190fd5b60c97375720fAc0f99E17DCBdDa14D05CCdDE31090F04b6367ecb95590918888886040518563ffffffff1660e01b815260040180858152602001806020018381526020018281038252858582818152602001925060200280828437600081840152601f19601f8201169050808301925050509550505050505060206040518083038186803b15801561120357600080fd5b611516612cd8565b6001600160a01b031661152761213b565b6001600160a01b031614611582576040805162461bcd60e51b815260206004820181905260248201527f4f776e61626c653a2063616c6c6572206973206e6f7420746865206f776e6572604482015290519081900360640190fd5b604080517f15d0d54d00000000000000000000000000000000000000000000000000000000815260c960048201526024810184905260448101839052905173161d3d3c5a6a8abbbe8bc404dcba19d6d97fd5b8916315d0d54d916064808301926000929190829003018186803b1580156115fb57600080fd5b505af415801561160f573d6000803e3d6000fd5b505050505050565b60655460ff1690565b60026097541415611678576040805162461bcd60e51b815260206004820152601f60248201527f5265656e7472616e637947756172643a207265656e7472616e742063616c6c00604482015290519081900360640190fd5b6002609755600061168884611ad6565b90506000846001600160a01b03166370a08231306040518263ffffffff1660e01b815260040180826001600160a01b0316815260200191505060206040518083038186803b1580156116d957600080fd5b505afa1580156116ed573d6000803e3d6000fd5b505050506040513d602081101561170357600080fd5b505160d3805491925060009161173b919060ff861690811061172157fe5b906000526020600020015483612d8590919063ffffffff16565b905060008511801561174d5750848210155b61179e576040805162461bcd60e51b815260206004820152600e60248201527f696e76616c696420616d6f756e74000000000000000000000000000000000000604482015290519081900360640190fd5b60006117c16127106117bb60d75489612de290919063ffffffff16565b90612e3b565b905060006117e06127106117bb60d85485612de290919063ffffffff16565b905060008211611837576040805162461bcd60e51b815260206004820152601f60248201527f616d6f756e7420697320736d616c6c20666f72206120666c6173684c6f616e00604482015290519081900360640190fd5b61184b6001600160a01b0389168a89612ea2565b886001600160a01b031663405b019d308a8a868b6040518663ffffffff1660e01b815260040180866001600160a01b03168152602001856001600160a01b0316815260200184815260200183815260200180602001828103825283818151815260200191508051906020019080838360005b838110156118d55781810151838201526020016118bd565b50505050905090810190601f1680156119025780820380516001836020036101000a031916815260200191505b509650505050505050600060405180830381600087803b15801561192557600080fd5b505af1158015611939573d6000803e3d6000fd5b505050506000886001600160a01b03166370a08231306040518263ffffffff1660e01b815260040180826001600160a01b0316815260200191505060206040518083038186803b15801561198c57600080fd5b505afa1580156119a0573d6000803e3d6000fd5b505050506040513d60208110156119b657600080fd5b505190506119c48584612f27565b811015611a18576040805162461bcd60e51b815260206004820152601860248201527f666c6173684c6f616e20666565206973206e6f74206d65740000000000000000604482015290519081900360640190fd5b611a2c82611a268387612d85565b90612d85565b60d3805460ff8916908110611a3d57fe5b600091825260209182902001919091556040805160ff891681529182018a905281810185905260608201849052516001600160a01b038c16917f7c186b2827b23e9024e7b29869cba58a97a4bac6567802a8ea6a8afa7b8c22f0919081900360800190a2505060016097555050505050505050565b60c95460ca5460cb5460cc5460cd5460ce5460cf5460d0546001600160a01b031688565b6001600160a01b038116600081815260d66020526040812054909160ff90911690611b0082611db1565b6001600160a01b031614611b5b576040805162461bcd60e51b815260206004820152601460248201527f546f6b656e20646f6573206e6f74206578697374000000000000000000000000604482015290519081900360640190fd5b92915050565b611b69612cd8565b6001600160a01b0316611b7a61213b565b6001600160a01b031614611bd5576040805162461bcd60e51b815260206004820181905260248201527f4f776e61626c653a2063616c6c6572206973206e6f7420746865206f776e6572604482015290519081900360640190fd5b6033546040516000916001600160a01b0316907f8be0079c531659141344cd1fd0a4f28419497f9722a3daafe3b4186f6b6457e0908390a3603380547fffffffffffffffffffffffff0000000000000000000000000000000000000000169055565b604080517f7d28ae9200000000000000000000000000000000000000000000000000000000815260c960048201526001600160a01b03841660248201526044810183905290516060917375720fAc0f99E17DCBdDa14D05CCdDE31090F04b91637d28ae9291606480820192600092909190829003018186803b158015611cbc57600080fd5b505af4158015611cd0573d6000803e3d6000fd5b505050506040513d6000823e601f3d9081017fffffffffffffffffffffffffffffffffffffffffffffffffffffffffffffffe01682016040526020811015611d1757600080fd5b8101908080516040519392919084640100000000821115611d3757600080fd5b908301906020820185811115611d4c57600080fd5b8251866020820283011164010000000082111715611d6957600080fd5b82525081516020918201928201910280838360005b83811015611d96578181015183820152602001611d7e565b50505050905001604052505050905092915050565b60d75481565b60d15460009060ff831610611e0d576040805162461bcd60e51b815260206004820152600c60248201527f4f7574206f662072616e67650000000000000000000000000000000000000000604482015290519081900360640190fd5b60d1805460ff8416908110611e1e57fe5b6000918252602090912001546001600160a01b031692915050565b611e41612cd8565b6001600160a01b0316611e5261213b565b6001600160a01b031614611ead576040805162461bcd60e51b815260206004820181905260248201527f4f776e61626c653a2063616c6c6572206973206e6f7420746865206f776e6572604482015290519081900360640190fd5b6112ba612f81565b600060026097541415611f0f576040805162461bcd60e51b815260206004820152601f60248201527f5265656e7472616e637947756172643a207265656e7472616e742063616c6c00604482015290519081900360640190fd5b6002609755611f1c611617565b15611f6e576040805162461bcd60e51b815260206004820152601060248201527f5061757361626c653a2070617573656400000000000000000000000000000000604482015290519081900360640190fd5b8180421115611fc4576040805162461bcd60e51b815260206004820152601060248201527f446561646c696e65206e6f74206d657400000000000000000000000000000000604482015290519081900360640190fd5b60c97375720fAc0f99E17DCBdDa14D05CCdDE31090F04b63cc09aa9a90918888886040518563ffffffff1660e01b815260040180858152602001806020018381526020018281038252858582818152602001925060200280828437600081840152601f19601f8201169050808301925050509550505050505060206040518083038186803b15801561120357600080fd5b61205d612cd8565b6001600160a01b031661206e61213b565b6001600160a01b0316146120c9576040805162461bcd60e51b815260206004820181905260248201527f4f776e61626c653a2063616c6c6572206973206e6f7420746865206f776e6572604482015290519081900360640190fd5b604080517f8e8b53b700000000000000000000000000000000000000000000000000000000815260c960048201526024810183905290517375720fAc0f99E17DCBdDa14D05CCdDE31090F04b91638e8b53b7916044808301926000929190829003018186803b15801561105757600080fd5b6033546001600160a01b031690565b6000600260975414156121a4576040805162461bcd60e51b815260206004820152601f60248201527f5265656e7472616e637947756172643a207265656e7472616e742063616c6c00604482015290519081900360640190fd5b60026097556121b1611617565b15612203576040805162461bcd60e51b815260206004820152601060248201527f5061757361626c653a2070617573656400000000000000000000000000000000604482015290519081900360640190fd5b8180421115612259576040805162461bcd60e51b815260206004820152601060248201527f446561646c696e65206e6f74206d657400000000000000000000000000000000604482015290519081900360640190fd5b604080517fde3eac3c00000000000000000000000000000000000000000000000000000000815260c9600482015260ff808a16602483015288166044820152606481018790526084810186905290517375720fAc0f99E17DCBdDa14D05CCdDE31090F04b9163de3eac3c9160a4808301926020929190829003018186803b1580156122e357600080fd5b505af41580156122f7573d6000803e3d6000fd5b505050506040513d602081101561230d57600080fd5b50516001609755979650505050505050565b60d15460009060ff83161061237b576040805162461bcd60e51b815260206004820152601260248201527f496e646578206f7574206f662072616e67650000000000000000000000000000604482015290519081900360640190fd5b60d3805460ff841690811061238c57fe5b90600052602060002001549050919050565b604080517fa190453600000000000000000000000000000000000000000000000000000000815260c960048201526001600160a01b03851660248201526044810184905260ff8316606482015290516000917375720fAc0f99E17DCBdDa14D05CCdDE31090F04b9163a190453691608480820192602092909190829003018186803b15801561242c57600080fd5b505af4158015612440573d6000803e3d6000fd5b505050506040513d602081101561245657600080fd5b505190505b9392505050565b604080517f3efb4cfd00000000000000000000000000000000000000000000000000000000815260c9600482015260ff8086166024830152841660448201526064810183905290516000917375720fAc0f99E17DCBdDa14D05CCdDE31090F04b91633efb4cfd91608480820192602092909190829003018186803b15801561242c57600080fd5b6124f1612cd8565b6001600160a01b031661250261213b565b6001600160a01b03161461255d576040805162461bcd60e51b815260206004820181905260248201527f4f776e61626c653a2063616c6c6572206973206e6f7420746865206f776e6572604482015290519081900360640190fd5b604080517ef59a9500000000000000000000000000000000000000000000000000000000815260c960048201526024810183905290517375720fAc0f99E17DCBdDa14D05CCdDE31090F04b9162f59a95916044808301926000929190829003018186803b15801561105757600080fd5b60d0546001600160a01b0316331461262c576040805162461bcd60e51b815260206004820152601b60248201527f4f6e6c792063616c6c61626c6520627920706f6f6c20746f6b656e0000000000604482015290519081900360640190fd5b604080517f2272322d00000000000000000000000000000000000000000000000000000000815260c960048201526001600160a01b03841660248201526044810183905290517375720fAc0f99E17DCBdDa14D05CCdDE31090F04b91632272322d916064808301926000929190829003018186803b1580156115fb57600080fd5b6126b5612cd8565b6001600160a01b03166126c661213b565b6001600160a01b031614612721576040805162461bcd60e51b815260206004820181905260248201527f4f776e61626c653a2063616c6c6572206973206e6f7420746865206f776e6572604482015290519081900360640190fd5b604080517fefbd633f00000000000000000000000000000000000000000000000000000000815260c96004820152905173161d3d3c5a6a8abbbe8bc404dcba19d6d97fd5b89163efbd633f916024808301926000929190829003018186803b158015610c9557600080fd5b600060c973161d3d3c5a6a8abbbe8bc404dcba19d6d97fd5b8635088c83c90916040518263ffffffff1660e01b81526004018082815260200191505060206040518083038186803b158015610d0357600080fd5b604080517f092e14e500000000000000000000000000000000000000000000000000000000815260c960048201526001600160a01b038316602482015290516000917375720fAc0f99E17DCBdDa14D05CCdDE31090F04b9163092e14e591604480820192602092909190829003018186803b15801561133a57600080fd5b600054610100900460ff16806128775750612877613011565b80612885575060005460ff16155b6128c05760405162461bcd60e51b815260040180806020018281038252602e8152602001806141d0602e913960400191505060405180910390fd5b600054610100900460ff161580156128eb576000805460ff1961ff0019909116610100171660011790555b6128fc8a8a8a8a8a8a8a8a8a613022565b600860d755600060d8558015612918576000805461ff00191690555b50505050505050505050565b600060c97375720fAc0f99E17DCBdDa14D05CCdDE31090F04b635050b04090916040518263ffffffff1660e01b81526004018082815260200191505060206040518083038186803b158015610d0357600080fd5b60d85481565b600060c97375720fAc0f99E17DCBdDa14D05CCdDE31090F04b6364f219b09091846040518363ffffffff1660e01b8152600401808381526020018281526020019250505060206040518083038186803b15801561133a57600080fd5b6129e2612cd8565b6001600160a01b03166129f361213b565b6001600160a01b031614612a4e576040805162461bcd60e51b815260206004820181905260248201527f4f776e61626c653a2063616c6c6572206973206e6f7420746865206f776e6572604482015290519081900360640190fd5b600082118015612a6057506127108211155b8015612a6e57506127108111155b612abf576040805162461bcd60e51b815260206004820152601b60248201527f6665657320617265206e6f7420696e2076616c69642072616e67650000000000604482015290519081900360640190fd5b60d79190915560d855565b612ad2612cd8565b6001600160a01b0316612ae361213b565b6001600160a01b031614612b3e576040805162461bcd60e51b815260206004820181905260248201527f4f776e61626c653a2063616c6c6572206973206e6f7420746865206f776e6572604482015290519081900360640190fd5b6001600160a01b038116612b835760405162461bcd60e51b81526004018080602001828103825260268152602001806141846026913960400191505060405180910390fd5b6033546040516001600160a01b038084169216907f8be0079c531659141344cd1fd0a4f28419497f9722a3daafe3b4186f6b6457e090600090a3603380547fffffffffffffffffffffffff0000000000000000000000000000000000000000166001600160a01b0392909216919091179055565b600060c97375720fAc0f99E17DCBdDa14D05CCdDE31090F04b6348ab1a869091878787876040518663ffffffff1660e01b815260040180868152602001856001600160a01b031681526020018060200183151581526020018281038252858582818152602001925060200280828437600081840152601f19601f820116905080830192505050965050505050505060206040518083038186803b158015612c9d57600080fd5b505af4158015612cb1573d6000803e3d6000fd5b505050506040513d6020811015612cc757600080fd5b505195945050505050565b61271081565b3390565b612ce4611617565b612d35576040805162461bcd60e51b815260206004820152601460248201527f5061757361626c653a206e6f7420706175736564000000000000000000000000604482015290519081900360640190fd5b6065805460ff191690557f5db9ee0a495bf2e6ff9c91a7834c1ba4fdd244a5e8aa4e537bd38aeae4b073aa612d68612cd8565b604080516001600160a01b039092168252519081900360200190a1565b600082821115612ddc576040805162461bcd60e51b815260206004820152601e60248201527f536166654d6174683a207375627472616374696f6e206f766572666c6f770000604482015290519081900360640190fd5b50900390565b600082612df157506000611b5b565b82820282848281612dfe57fe5b041461245b5760405162461bcd60e51b81526004018080602001828103825260218152602001806141fe6021913960400191505060405180910390fd5b6000808211612e91576040805162461bcd60e51b815260206004820152601a60248201527f536166654d6174683a206469766973696f6e206279207a65726f000000000000604482015290519081900360640190fd5b818381612e9a57fe5b049392505050565b604080516001600160a01b038416602482015260448082018490528251808303909101815260649091019091526020810180517bffffffffffffffffffffffffffffffffffffffffffffffffffffffff167fa9059cbb00000000000000000000000000000000000000000000000000000000179052612f2290849061387b565b505050565b60008282018381101561245b576040805162461bcd60e51b815260206004820152601b60248201527f536166654d6174683a206164646974696f6e206f766572666c6f770000000000604482015290519081900360640190fd5b612f89611617565b15612fdb576040805162461bcd60e51b815260206004820152601060248201527f5061757361626c653a2070617573656400000000000000000000000000000000604482015290519081900360640190fd5b6065805460ff191660011790557f62e78cea01bee320cd4e420270b5ea74000d11b0c9f74754ebdbfc544b05a258612d68612cd8565b600061301c3061392c565b15905090565b600054610100900460ff168061303b575061303b613011565b80613049575060005460ff16155b6130845760405162461bcd60e51b815260040180806020018281038252602e8152602001806141d0602e913960400191505060405180910390fd5b600054610100900460ff161580156130af576000805460ff1961ff0019909116610100171660011790555b6130b7613932565b6130bf6139ec565b60018a5111613115576040805162461bcd60e51b815260206004820152601960248201527f5f706f6f6c6564546f6b656e732e6c656e677468203c3d203100000000000000604482015290519081900360640190fd5b60208a51111561316c576040805162461bcd60e51b815260206004820152601960248201527f5f706f6f6c6564546f6b656e732e6c656e677468203e20333200000000000000604482015290519081900360640190fd5b88518a51146131c2576040805162461bcd60e51b815260206004820152601f60248201527f5f706f6f6c6564546f6b656e7320646563696d616c73206d69736d6174636800604482015290519081900360640190fd5b6060895167ffffffffffffffff811180156131dc57600080fd5b50604051908082528060200260200182016040528015613206578160200160208202803683370190505b50905060005b8b518160ff1610156134845760ff8116156132f55760d660008d8360ff168151811061323457fe5b6020908102919091018101516001600160a01b031682528101919091526040016000205460ff161580156132a457508b8160ff168151811061327257fe5b60200260200101516001600160a01b03168c60008151811061329057fe5b60200260200101516001600160a01b031614155b6132f5576040805162461bcd60e51b815260206004820152601060248201527f4475706c696361746520746f6b656e7300000000000000000000000000000000604482015290519081900360640190fd5b60006001600160a01b03168c8260ff168151811061330f57fe5b60200260200101516001600160a01b03161415613373576040805162461bcd60e51b815260206004820152601d60248201527f546865203020616464726573732069736e277420616e204552432d3230000000604482015290519081900360640190fd5b601260ff168b8260ff168151811061338757fe5b602002602001015160ff1611156133e5576040805162461bcd60e51b815260206004820152601a60248201527f546f6b656e20646563696d616c732065786365656473206d6178000000000000604482015290519081900360640190fd5b6134158b8260ff16815181106133f757fe5b602002602001015160ff16601260ff16612d8590919063ffffffff16565b600a0a828260ff168151811061342757fe5b6020026020010181815250508060d660008e8460ff168151811061344757fe5b6020908102919091018101516001600160a01b03168252810191909152604001600020805460ff191660ff9290921691909117905560010161320c565b50620f424087106134dc576040805162461bcd60e51b815260206004820152601260248201527f5f612065786365656473206d6178696d756d0000000000000000000000000000604482015290519081900360640190fd5b6305f5e1008610613534576040805162461bcd60e51b815260206004820152601460248201527f5f6665652065786365656473206d6178696d756d000000000000000000000000604482015290519081900360640190fd5b6402540be400851061358d576040805162461bcd60e51b815260206004820152601960248201527f5f61646d696e4665652065786365656473206d6178696d756d00000000000000604482015290519081900360640190fd5b6305f5e10084106135e5576040805162461bcd60e51b815260206004820152601c60248201527f5f77697468647261774665652065786365656473206d6178696d756d00000000604482015290519081900360640190fd5b60006135f084613a81565b9050806001600160a01b0316634cd88b768b8b6040518363ffffffff1660e01b8152600401808060200180602001838103835285818151815260200191508051906020019080838360005b8381101561365357818101518382015260200161363b565b50505050905090810190601f1680156136805780820380516001836020036101000a031916815260200191505b50838103825284518152845160209182019186019080838360005b838110156136b357818101518382015260200161369b565b50505050905090810190601f1680156136e05780820380516001836020036101000a031916815260200191505b50945050505050602060405180830381600087803b15801561370157600080fd5b505af1158015613715573d6000803e3d6000fd5b505050506040513d602081101561372b57600080fd5b505161377e576040805162461bcd60e51b815260206004820152601c60248201527f636f756c64206e6f7420696e6974206c70546f6b656e20636c6f6e6500000000604482015290519081900360640190fd5b60d080547fffffffffffffffffffffffff0000000000000000000000000000000000000000166001600160a01b0383161790558b516137c49060d19060208f0190614073565b5081516137d89060d29060208501906140f0565b508b5167ffffffffffffffff811180156137f157600080fd5b5060405190808252806020026020018201604052801561381b578160200160208202803683370190505b5080516138309160d3916020909101906140f0565b5061383c886064612de2565b60c95561384a886064612de2565b60ca55505060cd85905560ce84905560cf8390558015612918576000805461ff001916905550505050505050505050565b60606138d0826040518060400160405280602081526020017f5361666545524332303a206c6f772d6c6576656c2063616c6c206661696c6564815250856001600160a01b0316613b3c9092919063ffffffff16565b805190915015612f22578080602001905160208110156138ef57600080fd5b5051612f225760405162461bcd60e51b815260040180806020018281038252602a81526020018061421f602a913960400191505060405180910390fd5b3b151590565b600054610100900460ff168061394b575061394b613011565b80613959575060005460ff16155b6139945760405162461bcd60e51b815260040180806020018281038252602e8152602001806141d0602e913960400191505060405180910390fd5b600054610100900460ff161580156139bf576000805460ff1961ff0019909116610100171660011790555b6139c7613b53565b6139cf613bf3565b6139d7613d04565b80156139e9576000805461ff00191690555b50565b600054610100900460ff1680613a055750613a05613011565b80613a13575060005460ff16155b613a4e5760405162461bcd60e51b815260040180806020018281038252602e8152602001806141d0602e913960400191505060405180910390fd5b600054610100900460ff16158015613a79576000805460ff1961ff0019909116610100171660011790555b6139d7613daf565b60006040517f3d602d80600a3d3981f3363d3d373d3d3d363d7300000000000000000000000081528260601b60148201527f5af43d82803e903d91602b57fd5bf3000000000000000000000000000000000060288201526037816000f09150506001600160a01b038116611369576040805162461bcd60e51b815260206004820152601660248201527f455243313136373a20637265617465206661696c656400000000000000000000604482015290519081900360640190fd5b6060613b4b8484600085613e55565b949350505050565b600054610100900460ff1680613b6c5750613b6c613011565b80613b7a575060005460ff16155b613bb55760405162461bcd60e51b815260040180806020018281038252602e8152602001806141d0602e913960400191505060405180910390fd5b600054610100900460ff161580156139d7576000805460ff1961ff00199091166101001716600117905580156139e9576000805461ff001916905550565b600054610100900460ff1680613c0c5750613c0c613011565b80613c1a575060005460ff16155b613c555760405162461bcd60e51b815260040180806020018281038252602e8152602001806141d0602e913960400191505060405180910390fd5b600054610100900460ff16158015613c80576000805460ff1961ff0019909116610100171660011790555b6000613c8a612cd8565b603380547fffffffffffffffffffffffff0000000000000000000000000000000000000000166001600160a01b038316908117909155604051919250906000907f8be0079c531659141344cd1fd0a4f28419497f9722a3daafe3b4186f6b6457e0908290a35080156139e9576000805461ff001916905550565b600054610100900460ff1680613d1d5750613d1d613011565b80613d2b575060005460ff16155b613d665760405162461bcd60e51b815260040180806020018281038252602e8152602001806141d0602e913960400191505060405180910390fd5b600054610100900460ff16158015613d91576000805460ff1961ff0019909116610100171660011790555b6065805460ff1916905580156139e9576000805461ff001916905550565b600054610100900460ff1680613dc85750613dc8613011565b80613dd6575060005460ff16155b613e115760405162461bcd60e51b815260040180806020018281038252602e8152602001806141d0602e913960400191505060405180910390fd5b600054610100900460ff16158015613e3c576000805460ff1961ff0019909116610100171660011790555b600160975580156139e9576000805461ff001916905550565b606082471015613e965760405162461bcd60e51b81526004018080602001828103825260268152602001806141aa6026913960400191505060405180910390fd5b613e9f8561392c565b613ef0576040805162461bcd60e51b815260206004820152601d60248201527f416464726573733a2063616c6c20746f206e6f6e2d636f6e7472616374000000604482015290519081900360640190fd5b60006060866001600160a01b031685876040518082805190602001908083835b60208310613f4d57805182527fffffffffffffffffffffffffffffffffffffffffffffffffffffffffffffffe09092019160209182019101613f10565b6001836020036101000a03801982511681845116808217855250505050505090500191505060006040518083038185875af1925050503d8060008114613faf576040519150601f19603f3d011682016040523d82523d6000602084013e613fb4565b606091505b5091509150613fc4828286613fcf565b979650505050505050565b60608315613fde57508161245b565b825115613fee5782518084602001fd5b8160405162461bcd60e51b81526004018080602001828103825283818151815260200191508051906020019080838360005b83811015614038578181015183820152602001614020565b50505050905090810190601f1680156140655780820380516001836020036101000a031916815260200191505b509250505060405180910390fd5b8280548282559060005260206000209081019282156140e0579160200282015b828111156140e057825182547fffffffffffffffffffffffff0000000000000000000000000000000000000000166001600160a01b03909116178255602090920191600190910190614093565b506140ec929150614137565b5090565b82805482825590600052602060002090810192821561412b579160200282015b8281111561412b578251825591602001919060010190614110565b506140ec92915061416e565b5b808211156140ec5780547fffffffffffffffffffffffff0000000000000000000000000000000000000000168155600101614138565b5b808211156140ec576000815560010161416f56fe4f776e61626c653a206e6577206f776e657220697320746865207a65726f2061646472657373416464726573733a20696e73756666696369656e742062616c616e636520666f722063616c6c496e697469616c697a61626c653a20636f6e747261637420697320616c726561647920696e697469616c697a6564536166654d6174683a206d756c7469706c69636174696f6e206f766572666c6f775361666545524332303a204552433230206f7065726174696f6e20646964206e6f742073756363656564a264697066735822122065597236a2b85850b15e7ef02271f260745b0d8671f62e4d00b6d1f317cda54664736f6c634300060c0033",
  "deployedBytecode": "0x608060405234801561001057600080fd5b50600436106102925760003560e01c80638beb60b611610160578063d46300fd116100d8578063ef0a712f1161008c578063f2fde38b11610071578063f2fde38b14610b09578063f9273ffb14610b2f578063fd967f4714610bb157610292565b8063ef0a712f14610ac9578063ef81596714610ae657610292565b8063df3ed68d116100bd578063df3ed68d14610863578063e25aa5fa14610ab9578063e8cc7fb614610ac157610292565b8063d46300fd14610835578063da7a77be1461083d57610292565b806398899f401161012f578063ac5bf26311610114578063ac5bf263146107e4578063c00c125c14610801578063c4db7fa01461082d57610292565b806398899f401461077f578063a95b089f146107b457610292565b80638beb60b6146106fe5780638da5cb5b1461071b578063916955861461072357806391ceb3eb1461075f57610292565b80635c975abb1161020e5780637c61e561116101c257806382b86600116101a757806382b86600146106445780638456cb591461068057806384cdd9bc1461068857610292565b80637c61e561146106105780637f1c825a1461063c57610292565b80635fd65f0f116101f35780635fd65f0f1461057a57806366c0bd24146105cc578063715018a61461060857610292565b80635c975abb146104985780635cffe9de146104b457610292565b80633e3a1560116102655780634a1b0d571161024a5780634a1b0d57146103d95780634d49e87d146103ff578063593d132c1461047557610292565b80633e3a15601461039f5780633f4ba83a146103d157610292565b80630419b45a146102975780630ba81959146102a157806331cd52b0146102bb57806334e1990714610382575b600080fd5b61029f610bb9565b005b6102a9610caf565b60408051918252519081900360200190f35b610332600480360360608110156102d157600080fd5b813591908101906040810160208201356401000000008111156102f357600080fd5b82018360208201111561030557600080fd5b8035906020019184602083028401116401000000008311171561032757600080fd5b919350915035610d34565b60408051602080825283518183015283519192839290830191858101910280838360005b8381101561036e578181015183820152602001610356565b505050509050019250505060405180910390f35b61029f6004803603602081101561039857600080fd5b5035610f71565b6102a9600480360360808110156103b557600080fd5b5080359060ff6020820135169060408101359060600135611072565b61029f61123e565b6102a9600480360360208110156103ef57600080fd5b50356001600160a01b03166112bc565b6102a96004803603606081101561041557600080fd5b81019060208101813564010000000081111561043057600080fd5b82018360208201111561044257600080fd5b8035906020019184602083028401116401000000008311171561046457600080fd5b91935091508035906020013561136e565b61029f6004803603604081101561048b57600080fd5b508035906020013561150e565b6104a0611617565b604080519115158252519081900360200190f35b61029f600480360360808110156104ca57600080fd5b6001600160a01b0382358116926020810135909116916040820135919081019060808101606082013564010000000081111561050557600080fd5b82018360208201111561051757600080fd5b8035906020019184600183028401116401000000008311171561053957600080fd5b91908080601f016020809104026020016040519081016040528093929190818152602001838380828437600092019190915250929550611620945050505050565b610582611ab2565b604080519889526020890197909752878701959095526060870193909352608086019190915260a085015260c08401526001600160a01b031660e083015251908190036101000190f35b6105f2600480360360208110156105e257600080fd5b50356001600160a01b0316611ad6565b6040805160ff9092168252519081900360200190f35b61029f611b61565b6103326004803603604081101561062657600080fd5b506001600160a01b038135169060200135611c37565b6102a9611dab565b6106646004803603602081101561065a57600080fd5b503560ff16611db1565b604080516001600160a01b039092168252519081900360200190f35b61029f611e39565b6102a96004803603606081101561069e57600080fd5b8101906020810181356401000000008111156106b957600080fd5b8201836020820111156106cb57600080fd5b803590602001918460208302840111640100000000831117156106ed57600080fd5b919350915080359060200135611eb5565b61029f6004803603602081101561071457600080fd5b5035612055565b61066461213b565b6102a9600480360360a081101561073957600080fd5b5060ff81358116916020810135909116906040810135906060810135906080013561214a565b6102a96004803603602081101561077557600080fd5b503560ff1661231f565b6102a96004803603606081101561079557600080fd5b5080356001600160a01b0316906020810135906040013560ff1661239e565b6102a9600480360360608110156107ca57600080fd5b5060ff813581169160208101359091169060400135612462565b61029f600480360360208110156107fa57600080fd5b50356124e9565b61029f6004803603604081101561081757600080fd5b506001600160a01b0381351690602001356125cd565b61029f6126ad565b6102a961278c565b6102a96004803603602081101561085357600080fd5b50356001600160a01b03166127e0565b61029f600480360361012081101561087a57600080fd5b81019060208101813564010000000081111561089557600080fd5b8201836020820111156108a757600080fd5b803590602001918460208302840111640100000000831117156108c957600080fd5b919080806020026020016040519081016040528093929190818152602001838360200280828437600092019190915250929594936020810193503591505064010000000081111561091957600080fd5b82018360208201111561092b57600080fd5b8035906020019184602083028401116401000000008311171561094d57600080fd5b919080806020026020016040519081016040528093929190818152602001838360200280828437600092019190915250929594936020810193503591505064010000000081111561099d57600080fd5b8201836020820111156109af57600080fd5b803590602001918460018302840111640100000000831117156109d157600080fd5b91908080601f0160208091040260200160405190810160405280939291908181526020018383808284376000920191909152509295949360208101935035915050640100000000811115610a2457600080fd5b820183602082011115610a3657600080fd5b80359060200191846001830284011164010000000083111715610a5857600080fd5b91908080601f01602080910402602001604051908101604052809392919081815260200183838082843760009201919091525092955050823593505050602081013590604081013590606081013590608001356001600160a01b031661285e565b6102a9612924565b6102a9612978565b6102a960048036036020811015610adf57600080fd5b503561297e565b61029f60048036036040811015610afc57600080fd5b50803590602001356129da565b61029f60048036036020811015610b1f57600080fd5b50356001600160a01b0316612aca565b6102a960048036036060811015610b4557600080fd5b6001600160a01b038235169190810190604081016020820135640100000000811115610b7057600080fd5b820183602082011115610b8257600080fd5b80359060200191846020830284011164010000000083111715610ba457600080fd5b9193509150351515612bf7565b6102a9612cd2565b610bc1612cd8565b6001600160a01b0316610bd261213b565b6001600160a01b031614610c2d576040805162461bcd60e51b815260206004820181905260248201527f4f776e61626c653a2063616c6c6572206973206e6f7420746865206f776e6572604482015290519081900360640190fd5b73__$3d8943172617188eaa5b74309e84fcbdc0$__636d42928860c9610c5161213b565b6040518363ffffffff1660e01b815260040180838152602001826001600160a01b031681526020019250505060006040518083038186803b158015610c9557600080fd5b505af4158015610ca9573d6000803e3d6000fd5b50505050565b600060c973__$9bd6acf1c6fa149487beea884895d1a2f1$__6399afe2fa90916040518263ffffffff1660e01b81526004018082815260200191505060206040518083038186803b158015610d0357600080fd5b505af4158015610d17573d6000803e3d6000fd5b505050506040513d6020811015610d2d57600080fd5b5051905090565b606060026097541415610d8e576040805162461bcd60e51b815260206004820152601f60248201527f5265656e7472616e637947756172643a207265656e7472616e742063616c6c00604482015290519081900360640190fd5b60026097558142811015610de9576040805162461bcd60e51b815260206004820152601060248201527f446561646c696e65206e6f74206d657400000000000000000000000000000000604482015290519081900360640190fd5b60c973__$3d8943172617188eaa5b74309e84fcbdc0$__636b114d9b90918888886040518563ffffffff1660e01b815260040180858152602001848152602001806020018281038252848482818152602001925060200280828437600081840152601f19601f8201169050808301925050509550505050505060006040518083038186803b158015610e7a57600080fd5b505af4158015610e8e573d6000803e3d6000fd5b505050506040513d6000823e601f3d9081017fffffffffffffffffffffffffffffffffffffffffffffffffffffffffffffffe01682016040526020811015610ed557600080fd5b8101908080516040519392919084640100000000821115610ef557600080fd5b908301906020820185811115610f0a57600080fd5b8251866020820283011164010000000082111715610f2757600080fd5b82525081516020918201928201910280838360005b83811015610f54578181015183820152602001610f3c565b505050509050016040525050509150506001609755949350505050565b610f79612cd8565b6001600160a01b0316610f8a61213b565b6001600160a01b031614610fe5576040805162461bcd60e51b815260206004820181905260248201527f4f776e61626c653a2063616c6c6572206973206e6f7420746865206f776e6572604482015290519081900360640190fd5b604080517fbb8ca1ae00000000000000000000000000000000000000000000000000000000815260c9600482015260248101839052905173__$3d8943172617188eaa5b74309e84fcbdc0$__9163bb8ca1ae916044808301926000929190829003018186803b15801561105757600080fd5b505af415801561106b573d6000803e3d6000fd5b5050505050565b6000600260975414156110cc576040805162461bcd60e51b815260206004820152601f60248201527f5265656e7472616e637947756172643a207265656e7472616e742063616c6c00604482015290519081900360640190fd5b60026097556110d9611617565b1561112b576040805162461bcd60e51b815260206004820152601060248201527f5061757361626c653a2070617573656400000000000000000000000000000000604482015290519081900360640190fd5b8180421115611181576040805162461bcd60e51b815260206004820152601060248201527f446561646c696e65206e6f74206d657400000000000000000000000000000000604482015290519081900360640190fd5b604080517f73a0e73f00000000000000000000000000000000000000000000000000000000815260c960048201526024810188905260ff8716604482015260648101869052905173__$3d8943172617188eaa5b74309e84fcbdc0$__916373a0e73f916084808301926020929190829003018186803b15801561120357600080fd5b505af4158015611217573d6000803e3d6000fd5b505050506040513d602081101561122d57600080fd5b505160016097559695505050505050565b611246612cd8565b6001600160a01b031661125761213b565b6001600160a01b0316146112b2576040805162461bcd60e51b815260206004820181905260248201527f4f776e61626c653a2063616c6c6572206973206e6f7420746865206f776e6572604482015290519081900360640190fd5b6112ba612cdc565b565b604080517fbecfcccd00000000000000000000000000000000000000000000000000000000815260c960048201526001600160a01b0383166024820152905160009173__$3d8943172617188eaa5b74309e84fcbdc0$__9163becfcccd91604480820192602092909190829003018186803b15801561133a57600080fd5b505af415801561134e573d6000803e3d6000fd5b505050506040513d602081101561136457600080fd5b505190505b919050565b6000600260975414156113c8576040805162461bcd60e51b815260206004820152601f60248201527f5265656e7472616e637947756172643a207265656e7472616e742063616c6c00604482015290519081900360640190fd5b60026097556113d5611617565b15611427576040805162461bcd60e51b815260206004820152601060248201527f5061757361626c653a2070617573656400000000000000000000000000000000604482015290519081900360640190fd5b818042111561147d576040805162461bcd60e51b815260206004820152601060248201527f446561646c696e65206e6f74206d657400000000000000000000000000000000604482015290519081900360640190fd5b60c973__$3d8943172617188eaa5b74309e84fcbdc0$__6367ecb95590918888886040518563ffffffff1660e01b815260040180858152602001806020018381526020018281038252858582818152602001925060200280828437600081840152601f19601f8201169050808301925050509550505050505060206040518083038186803b15801561120357600080fd5b611516612cd8565b6001600160a01b031661152761213b565b6001600160a01b031614611582576040805162461bcd60e51b815260206004820181905260248201527f4f776e61626c653a2063616c6c6572206973206e6f7420746865206f776e6572604482015290519081900360640190fd5b604080517f15d0d54d00000000000000000000000000000000000000000000000000000000815260c960048201526024810184905260448101839052905173__$9bd6acf1c6fa149487beea884895d1a2f1$__916315d0d54d916064808301926000929190829003018186803b1580156115fb57600080fd5b505af415801561160f573d6000803e3d6000fd5b505050505050565b60655460ff1690565b60026097541415611678576040805162461bcd60e51b815260206004820152601f60248201527f5265656e7472616e637947756172643a207265656e7472616e742063616c6c00604482015290519081900360640190fd5b6002609755600061168884611ad6565b90506000846001600160a01b03166370a08231306040518263ffffffff1660e01b815260040180826001600160a01b0316815260200191505060206040518083038186803b1580156116d957600080fd5b505afa1580156116ed573d6000803e3d6000fd5b505050506040513d602081101561170357600080fd5b505160d3805491925060009161173b919060ff861690811061172157fe5b906000526020600020015483612d8590919063ffffffff16565b905060008511801561174d5750848210155b61179e576040805162461bcd60e51b815260206004820152600e60248201527f696e76616c696420616d6f756e74000000000000000000000000000000000000604482015290519081900360640190fd5b60006117c16127106117bb60d75489612de290919063ffffffff16565b90612e3b565b905060006117e06127106117bb60d85485612de290919063ffffffff16565b905060008211611837576040805162461bcd60e51b815260206004820152601f60248201527f616d6f756e7420697320736d616c6c20666f72206120666c6173684c6f616e00604482015290519081900360640190fd5b61184b6001600160a01b0389168a89612ea2565b886001600160a01b031663405b019d308a8a868b6040518663ffffffff1660e01b815260040180866001600160a01b03168152602001856001600160a01b0316815260200184815260200183815260200180602001828103825283818151815260200191508051906020019080838360005b838110156118d55781810151838201526020016118bd565b50505050905090810190601f1680156119025780820380516001836020036101000a031916815260200191505b509650505050505050600060405180830381600087803b15801561192557600080fd5b505af1158015611939573d6000803e3d6000fd5b505050506000886001600160a01b03166370a08231306040518263ffffffff1660e01b815260040180826001600160a01b0316815260200191505060206040518083038186803b15801561198c57600080fd5b505afa1580156119a0573d6000803e3d6000fd5b505050506040513d60208110156119b657600080fd5b505190506119c48584612f27565b811015611a18576040805162461bcd60e51b815260206004820152601860248201527f666c6173684c6f616e20666565206973206e6f74206d65740000000000000000604482015290519081900360640190fd5b611a2c82611a268387612d85565b90612d85565b60d3805460ff8916908110611a3d57fe5b600091825260209182902001919091556040805160ff891681529182018a905281810185905260608201849052516001600160a01b038c16917f7c186b2827b23e9024e7b29869cba58a97a4bac6567802a8ea6a8afa7b8c22f0919081900360800190a2505060016097555050505050505050565b60c95460ca5460cb5460cc5460cd5460ce5460cf5460d0546001600160a01b031688565b6001600160a01b038116600081815260d66020526040812054909160ff90911690611b0082611db1565b6001600160a01b031614611b5b576040805162461bcd60e51b815260206004820152601460248201527f546f6b656e20646f6573206e6f74206578697374000000000000000000000000604482015290519081900360640190fd5b92915050565b611b69612cd8565b6001600160a01b0316611b7a61213b565b6001600160a01b031614611bd5576040805162461bcd60e51b815260206004820181905260248201527f4f776e61626c653a2063616c6c6572206973206e6f7420746865206f776e6572604482015290519081900360640190fd5b6033546040516000916001600160a01b0316907f8be0079c531659141344cd1fd0a4f28419497f9722a3daafe3b4186f6b6457e0908390a3603380547fffffffffffffffffffffffff0000000000000000000000000000000000000000169055565b604080517f7d28ae9200000000000000000000000000000000000000000000000000000000815260c960048201526001600160a01b038416602482015260448101839052905160609173__$3d8943172617188eaa5b74309e84fcbdc0$__91637d28ae9291606480820192600092909190829003018186803b158015611cbc57600080fd5b505af4158015611cd0573d6000803e3d6000fd5b505050506040513d6000823e601f3d9081017fffffffffffffffffffffffffffffffffffffffffffffffffffffffffffffffe01682016040526020811015611d1757600080fd5b8101908080516040519392919084640100000000821115611d3757600080fd5b908301906020820185811115611d4c57600080fd5b8251866020820283011164010000000082111715611d6957600080fd5b82525081516020918201928201910280838360005b83811015611d96578181015183820152602001611d7e565b50505050905001604052505050905092915050565b60d75481565b60d15460009060ff831610611e0d576040805162461bcd60e51b815260206004820152600c60248201527f4f7574206f662072616e67650000000000000000000000000000000000000000604482015290519081900360640190fd5b60d1805460ff8416908110611e1e57fe5b6000918252602090912001546001600160a01b031692915050565b611e41612cd8565b6001600160a01b0316611e5261213b565b6001600160a01b031614611ead576040805162461bcd60e51b815260206004820181905260248201527f4f776e61626c653a2063616c6c6572206973206e6f7420746865206f776e6572604482015290519081900360640190fd5b6112ba612f81565b600060026097541415611f0f576040805162461bcd60e51b815260206004820152601f60248201527f5265656e7472616e637947756172643a207265656e7472616e742063616c6c00604482015290519081900360640190fd5b6002609755611f1c611617565b15611f6e576040805162461bcd60e51b815260206004820152601060248201527f5061757361626c653a2070617573656400000000000000000000000000000000604482015290519081900360640190fd5b8180421115611fc4576040805162461bcd60e51b815260206004820152601060248201527f446561646c696e65206e6f74206d657400000000000000000000000000000000604482015290519081900360640190fd5b60c973__$3d8943172617188eaa5b74309e84fcbdc0$__63cc09aa9a90918888886040518563ffffffff1660e01b815260040180858152602001806020018381526020018281038252858582818152602001925060200280828437600081840152601f19601f8201169050808301925050509550505050505060206040518083038186803b15801561120357600080fd5b61205d612cd8565b6001600160a01b031661206e61213b565b6001600160a01b0316146120c9576040805162461bcd60e51b815260206004820181905260248201527f4f776e61626c653a2063616c6c6572206973206e6f7420746865206f776e6572604482015290519081900360640190fd5b604080517f8e8b53b700000000000000000000000000000000000000000000000000000000815260c9600482015260248101839052905173__$3d8943172617188eaa5b74309e84fcbdc0$__91638e8b53b7916044808301926000929190829003018186803b15801561105757600080fd5b6033546001600160a01b031690565b6000600260975414156121a4576040805162461bcd60e51b815260206004820152601f60248201527f5265656e7472616e637947756172643a207265656e7472616e742063616c6c00604482015290519081900360640190fd5b60026097556121b1611617565b15612203576040805162461bcd60e51b815260206004820152601060248201527f5061757361626c653a2070617573656400000000000000000000000000000000604482015290519081900360640190fd5b8180421115612259576040805162461bcd60e51b815260206004820152601060248201527f446561646c696e65206e6f74206d657400000000000000000000000000000000604482015290519081900360640190fd5b604080517fde3eac3c00000000000000000000000000000000000000000000000000000000815260c9600482015260ff808a166024830152881660448201526064810187905260848101869052905173__$3d8943172617188eaa5b74309e84fcbdc0$__9163de3eac3c9160a4808301926020929190829003018186803b1580156122e357600080fd5b505af41580156122f7573d6000803e3d6000fd5b505050506040513d602081101561230d57600080fd5b50516001609755979650505050505050565b60d15460009060ff83161061237b576040805162461bcd60e51b815260206004820152601260248201527f496e646578206f7574206f662072616e67650000000000000000000000000000604482015290519081900360640190fd5b60d3805460ff841690811061238c57fe5b90600052602060002001549050919050565b604080517fa190453600000000000000000000000000000000000000000000000000000000815260c960048201526001600160a01b03851660248201526044810184905260ff83166064820152905160009173__$3d8943172617188eaa5b74309e84fcbdc0$__9163a190453691608480820192602092909190829003018186803b15801561242c57600080fd5b505af4158015612440573d6000803e3d6000fd5b505050506040513d602081101561245657600080fd5b505190505b9392505050565b604080517f3efb4cfd00000000000000000000000000000000000000000000000000000000815260c9600482015260ff80861660248301528416604482015260648101839052905160009173__$3d8943172617188eaa5b74309e84fcbdc0$__91633efb4cfd91608480820192602092909190829003018186803b15801561242c57600080fd5b6124f1612cd8565b6001600160a01b031661250261213b565b6001600160a01b03161461255d576040805162461bcd60e51b815260206004820181905260248201527f4f776e61626c653a2063616c6c6572206973206e6f7420746865206f776e6572604482015290519081900360640190fd5b604080517ef59a9500000000000000000000000000000000000000000000000000000000815260c9600482015260248101839052905173__$3d8943172617188eaa5b74309e84fcbdc0$__9162f59a95916044808301926000929190829003018186803b15801561105757600080fd5b60d0546001600160a01b0316331461262c576040805162461bcd60e51b815260206004820152601b60248201527f4f6e6c792063616c6c61626c6520627920706f6f6c20746f6b656e0000000000604482015290519081900360640190fd5b604080517f2272322d00000000000000000000000000000000000000000000000000000000815260c960048201526001600160a01b038416602482015260448101839052905173__$3d8943172617188eaa5b74309e84fcbdc0$__91632272322d916064808301926000929190829003018186803b1580156115fb57600080fd5b6126b5612cd8565b6001600160a01b03166126c661213b565b6001600160a01b031614612721576040805162461bcd60e51b815260206004820181905260248201527f4f776e61626c653a2063616c6c6572206973206e6f7420746865206f776e6572604482015290519081900360640190fd5b604080517fefbd633f00000000000000000000000000000000000000000000000000000000815260c96004820152905173__$9bd6acf1c6fa149487beea884895d1a2f1$__9163efbd633f916024808301926000929190829003018186803b158015610c9557600080fd5b600060c973__$9bd6acf1c6fa149487beea884895d1a2f1$__635088c83c90916040518263ffffffff1660e01b81526004018082815260200191505060206040518083038186803b158015610d0357600080fd5b604080517f092e14e500000000000000000000000000000000000000000000000000000000815260c960048201526001600160a01b0383166024820152905160009173__$3d8943172617188eaa5b74309e84fcbdc0$__9163092e14e591604480820192602092909190829003018186803b15801561133a57600080fd5b600054610100900460ff16806128775750612877613011565b80612885575060005460ff16155b6128c05760405162461bcd60e51b815260040180806020018281038252602e8152602001806141d0602e913960400191505060405180910390fd5b600054610100900460ff161580156128eb576000805460ff1961ff0019909116610100171660011790555b6128fc8a8a8a8a8a8a8a8a8a613022565b600860d755600060d8558015612918576000805461ff00191690555b50505050505050505050565b600060c973__$3d8943172617188eaa5b74309e84fcbdc0$__635050b04090916040518263ffffffff1660e01b81526004018082815260200191505060206040518083038186803b158015610d0357600080fd5b60d85481565b600060c973__$3d8943172617188eaa5b74309e84fcbdc0$__6364f219b09091846040518363ffffffff1660e01b8152600401808381526020018281526020019250505060206040518083038186803b15801561133a57600080fd5b6129e2612cd8565b6001600160a01b03166129f361213b565b6001600160a01b031614612a4e576040805162461bcd60e51b815260206004820181905260248201527f4f776e61626c653a2063616c6c6572206973206e6f7420746865206f776e6572604482015290519081900360640190fd5b600082118015612a6057506127108211155b8015612a6e57506127108111155b612abf576040805162461bcd60e51b815260206004820152601b60248201527f6665657320617265206e6f7420696e2076616c69642072616e67650000000000604482015290519081900360640190fd5b60d79190915560d855565b612ad2612cd8565b6001600160a01b0316612ae361213b565b6001600160a01b031614612b3e576040805162461bcd60e51b815260206004820181905260248201527f4f776e61626c653a2063616c6c6572206973206e6f7420746865206f776e6572604482015290519081900360640190fd5b6001600160a01b038116612b835760405162461bcd60e51b81526004018080602001828103825260268152602001806141846026913960400191505060405180910390fd5b6033546040516001600160a01b038084169216907f8be0079c531659141344cd1fd0a4f28419497f9722a3daafe3b4186f6b6457e090600090a3603380547fffffffffffffffffffffffff0000000000000000000000000000000000000000166001600160a01b0392909216919091179055565b600060c973__$3d8943172617188eaa5b74309e84fcbdc0$__6348ab1a869091878787876040518663ffffffff1660e01b815260040180868152602001856001600160a01b031681526020018060200183151581526020018281038252858582818152602001925060200280828437600081840152601f19601f820116905080830192505050965050505050505060206040518083038186803b158015612c9d57600080fd5b505af4158015612cb1573d6000803e3d6000fd5b505050506040513d6020811015612cc757600080fd5b505195945050505050565b61271081565b3390565b612ce4611617565b612d35576040805162461bcd60e51b815260206004820152601460248201527f5061757361626c653a206e6f7420706175736564000000000000000000000000604482015290519081900360640190fd5b6065805460ff191690557f5db9ee0a495bf2e6ff9c91a7834c1ba4fdd244a5e8aa4e537bd38aeae4b073aa612d68612cd8565b604080516001600160a01b039092168252519081900360200190a1565b600082821115612ddc576040805162461bcd60e51b815260206004820152601e60248201527f536166654d6174683a207375627472616374696f6e206f766572666c6f770000604482015290519081900360640190fd5b50900390565b600082612df157506000611b5b565b82820282848281612dfe57fe5b041461245b5760405162461bcd60e51b81526004018080602001828103825260218152602001806141fe6021913960400191505060405180910390fd5b6000808211612e91576040805162461bcd60e51b815260206004820152601a60248201527f536166654d6174683a206469766973696f6e206279207a65726f000000000000604482015290519081900360640190fd5b818381612e9a57fe5b049392505050565b604080516001600160a01b038416602482015260448082018490528251808303909101815260649091019091526020810180517bffffffffffffffffffffffffffffffffffffffffffffffffffffffff167fa9059cbb00000000000000000000000000000000000000000000000000000000179052612f2290849061387b565b505050565b60008282018381101561245b576040805162461bcd60e51b815260206004820152601b60248201527f536166654d6174683a206164646974696f6e206f766572666c6f770000000000604482015290519081900360640190fd5b612f89611617565b15612fdb576040805162461bcd60e51b815260206004820152601060248201527f5061757361626c653a2070617573656400000000000000000000000000000000604482015290519081900360640190fd5b6065805460ff191660011790557f62e78cea01bee320cd4e420270b5ea74000d11b0c9f74754ebdbfc544b05a258612d68612cd8565b600061301c3061392c565b15905090565b600054610100900460ff168061303b575061303b613011565b80613049575060005460ff16155b6130845760405162461bcd60e51b815260040180806020018281038252602e8152602001806141d0602e913960400191505060405180910390fd5b600054610100900460ff161580156130af576000805460ff1961ff0019909116610100171660011790555b6130b7613932565b6130bf6139ec565b60018a5111613115576040805162461bcd60e51b815260206004820152601960248201527f5f706f6f6c6564546f6b656e732e6c656e677468203c3d203100000000000000604482015290519081900360640190fd5b60208a51111561316c576040805162461bcd60e51b815260206004820152601960248201527f5f706f6f6c6564546f6b656e732e6c656e677468203e20333200000000000000604482015290519081900360640190fd5b88518a51146131c2576040805162461bcd60e51b815260206004820152601f60248201527f5f706f6f6c6564546f6b656e7320646563696d616c73206d69736d6174636800604482015290519081900360640190fd5b6060895167ffffffffffffffff811180156131dc57600080fd5b50604051908082528060200260200182016040528015613206578160200160208202803683370190505b50905060005b8b518160ff1610156134845760ff8116156132f55760d660008d8360ff168151811061323457fe5b6020908102919091018101516001600160a01b031682528101919091526040016000205460ff161580156132a457508b8160ff168151811061327257fe5b60200260200101516001600160a01b03168c60008151811061329057fe5b60200260200101516001600160a01b031614155b6132f5576040805162461bcd60e51b815260206004820152601060248201527f4475706c696361746520746f6b656e7300000000000000000000000000000000604482015290519081900360640190fd5b60006001600160a01b03168c8260ff168151811061330f57fe5b60200260200101516001600160a01b03161415613373576040805162461bcd60e51b815260206004820152601d60248201527f546865203020616464726573732069736e277420616e204552432d3230000000604482015290519081900360640190fd5b601260ff168b8260ff168151811061338757fe5b602002602001015160ff1611156133e5576040805162461bcd60e51b815260206004820152601a60248201527f546f6b656e20646563696d616c732065786365656473206d6178000000000000604482015290519081900360640190fd5b6134158b8260ff16815181106133f757fe5b602002602001015160ff16601260ff16612d8590919063ffffffff16565b600a0a828260ff168151811061342757fe5b6020026020010181815250508060d660008e8460ff168151811061344757fe5b6020908102919091018101516001600160a01b03168252810191909152604001600020805460ff191660ff9290921691909117905560010161320c565b50620f424087106134dc576040805162461bcd60e51b815260206004820152601260248201527f5f612065786365656473206d6178696d756d0000000000000000000000000000604482015290519081900360640190fd5b6305f5e1008610613534576040805162461bcd60e51b815260206004820152601460248201527f5f6665652065786365656473206d6178696d756d000000000000000000000000604482015290519081900360640190fd5b6402540be400851061358d576040805162461bcd60e51b815260206004820152601960248201527f5f61646d696e4665652065786365656473206d6178696d756d00000000000000604482015290519081900360640190fd5b6305f5e10084106135e5576040805162461bcd60e51b815260206004820152601c60248201527f5f77697468647261774665652065786365656473206d6178696d756d00000000604482015290519081900360640190fd5b60006135f084613a81565b9050806001600160a01b0316634cd88b768b8b6040518363ffffffff1660e01b8152600401808060200180602001838103835285818151815260200191508051906020019080838360005b8381101561365357818101518382015260200161363b565b50505050905090810190601f1680156136805780820380516001836020036101000a031916815260200191505b50838103825284518152845160209182019186019080838360005b838110156136b357818101518382015260200161369b565b50505050905090810190601f1680156136e05780820380516001836020036101000a031916815260200191505b50945050505050602060405180830381600087803b15801561370157600080fd5b505af1158015613715573d6000803e3d6000fd5b505050506040513d602081101561372b57600080fd5b505161377e576040805162461bcd60e51b815260206004820152601c60248201527f636f756c64206e6f7420696e6974206c70546f6b656e20636c6f6e6500000000604482015290519081900360640190fd5b60d080547fffffffffffffffffffffffff0000000000000000000000000000000000000000166001600160a01b0383161790558b516137c49060d19060208f0190614073565b5081516137d89060d29060208501906140f0565b508b5167ffffffffffffffff811180156137f157600080fd5b5060405190808252806020026020018201604052801561381b578160200160208202803683370190505b5080516138309160d3916020909101906140f0565b5061383c886064612de2565b60c95561384a886064612de2565b60ca55505060cd85905560ce84905560cf8390558015612918576000805461ff001916905550505050505050505050565b60606138d0826040518060400160405280602081526020017f5361666545524332303a206c6f772d6c6576656c2063616c6c206661696c6564815250856001600160a01b0316613b3c9092919063ffffffff16565b805190915015612f22578080602001905160208110156138ef57600080fd5b5051612f225760405162461bcd60e51b815260040180806020018281038252602a81526020018061421f602a913960400191505060405180910390fd5b3b151590565b600054610100900460ff168061394b575061394b613011565b80613959575060005460ff16155b6139945760405162461bcd60e51b815260040180806020018281038252602e8152602001806141d0602e913960400191505060405180910390fd5b600054610100900460ff161580156139bf576000805460ff1961ff0019909116610100171660011790555b6139c7613b53565b6139cf613bf3565b6139d7613d04565b80156139e9576000805461ff00191690555b50565b600054610100900460ff1680613a055750613a05613011565b80613a13575060005460ff16155b613a4e5760405162461bcd60e51b815260040180806020018281038252602e8152602001806141d0602e913960400191505060405180910390fd5b600054610100900460ff16158015613a79576000805460ff1961ff0019909116610100171660011790555b6139d7613daf565b60006040517f3d602d80600a3d3981f3363d3d373d3d3d363d7300000000000000000000000081528260601b60148201527f5af43d82803e903d91602b57fd5bf3000000000000000000000000000000000060288201526037816000f09150506001600160a01b038116611369576040805162461bcd60e51b815260206004820152601660248201527f455243313136373a20637265617465206661696c656400000000000000000000604482015290519081900360640190fd5b6060613b4b8484600085613e55565b949350505050565b600054610100900460ff1680613b6c5750613b6c613011565b80613b7a575060005460ff16155b613bb55760405162461bcd60e51b815260040180806020018281038252602e8152602001806141d0602e913960400191505060405180910390fd5b600054610100900460ff161580156139d7576000805460ff1961ff00199091166101001716600117905580156139e9576000805461ff001916905550565b600054610100900460ff1680613c0c5750613c0c613011565b80613c1a575060005460ff16155b613c555760405162461bcd60e51b815260040180806020018281038252602e8152602001806141d0602e913960400191505060405180910390fd5b600054610100900460ff16158015613c80576000805460ff1961ff0019909116610100171660011790555b6000613c8a612cd8565b603380547fffffffffffffffffffffffff0000000000000000000000000000000000000000166001600160a01b038316908117909155604051919250906000907f8be0079c531659141344cd1fd0a4f28419497f9722a3daafe3b4186f6b6457e0908290a35080156139e9576000805461ff001916905550565b600054610100900460ff1680613d1d5750613d1d613011565b80613d2b575060005460ff16155b613d665760405162461bcd60e51b815260040180806020018281038252602e8152602001806141d0602e913960400191505060405180910390fd5b600054610100900460ff16158015613d91576000805460ff1961ff0019909116610100171660011790555b6065805460ff1916905580156139e9576000805461ff001916905550565b600054610100900460ff1680613dc85750613dc8613011565b80613dd6575060005460ff16155b613e115760405162461bcd60e51b815260040180806020018281038252602e8152602001806141d0602e913960400191505060405180910390fd5b600054610100900460ff16158015613e3c576000805460ff1961ff0019909116610100171660011790555b600160975580156139e9576000805461ff001916905550565b606082471015613e965760405162461bcd60e51b81526004018080602001828103825260268152602001806141aa6026913960400191505060405180910390fd5b613e9f8561392c565b613ef0576040805162461bcd60e51b815260206004820152601d60248201527f416464726573733a2063616c6c20746f206e6f6e2d636f6e7472616374000000604482015290519081900360640190fd5b60006060866001600160a01b031685876040518082805190602001908083835b60208310613f4d57805182527fffffffffffffffffffffffffffffffffffffffffffffffffffffffffffffffe09092019160209182019101613f10565b6001836020036101000a03801982511681845116808217855250505050505090500191505060006040518083038185875af1925050503d8060008114613faf576040519150601f19603f3d011682016040523d82523d6000602084013e613fb4565b606091505b5091509150613fc4828286613fcf565b979650505050505050565b60608315613fde57508161245b565b825115613fee5782518084602001fd5b8160405162461bcd60e51b81526004018080602001828103825283818151815260200191508051906020019080838360005b83811015614038578181015183820152602001614020565b50505050905090810190601f1680156140655780820380516001836020036101000a031916815260200191505b509250505060405180910390fd5b8280548282559060005260206000209081019282156140e0579160200282015b828111156140e057825182547fffffffffffffffffffffffff0000000000000000000000000000000000000000166001600160a01b03909116178255602090920191600190910190614093565b506140ec929150614137565b5090565b82805482825590600052602060002090810192821561412b579160200282015b8281111561412b578251825591602001919060010190614110565b506140ec92915061416e565b5b808211156140ec5780547fffffffffffffffffffffffff0000000000000000000000000000000000000000168155600101614138565b5b808211156140ec576000815560010161416f56fe4f776e61626c653a206e6577206f776e657220697320746865207a65726f2061646472657373416464726573733a20696e73756666696369656e742062616c616e636520666f722063616c6c496e697469616c697a61626c653a20636f6e747261637420697320616c726561647920696e697469616c697a6564536166654d6174683a206d756c7469706c69636174696f6e206f766572666c6f775361666545524332303a204552433230206f7065726174696f6e20646964206e6f742073756363656564a264697066735822122065597236a2b85850b15e7ef02271f260745b0d8671f62e4d00b6d1f317cda54664736f6c634300060c0033",
  "libraries": {
    "SwapUtilsV1": "0x75720fAc0f99E17DCBdDa14D05CCdDE31090F04b",
    "AmplificationUtilsV1": "0x161d3d3c5a6a8abbbe8bc404dcba19d6d97fd5b8"
  },
  "devdoc": {
    "details": "Most of the logic is stored as a library `SwapUtils` for the sake of reducing contract's deployment size.",
    "kind": "dev",
    "methods": {
      "addLiquidity(uint256[],uint256,uint256)": {
        "params": {
          "amounts": "the amounts of each token to add, in their native precision",
          "deadline": "latest timestamp to accept this transaction",
          "minToMint": "the minimum LP tokens adding this amount of liquidity should mint, otherwise revert. Handy for front-running mitigation"
        },
        "returns": {
          "_0": "amount of LP token user minted and received"
        }
      },
      "calculateCurrentWithdrawFee(address)": {
        "details": "returned value should be divided by FEE_DENOMINATOR to convert to correct decimals",
        "params": {
          "user": "address you want to calculate withdraw fee of"
        },
        "returns": {
          "_0": "current withdraw fee of the user"
        }
      },
      "calculateRemoveLiquidity(address,uint256)": {
        "params": {
          "account": "the address that is withdrawing tokens",
          "amount": "the amount of LP tokens that would be burned on withdrawal"
        },
        "returns": {
          "_0": "array of token balances that the user will receive"
        }
      },
      "calculateRemoveLiquidityOneToken(address,uint256,uint8)": {
        "params": {
          "account": "the address that is withdrawing tokens",
          "tokenAmount": "the amount of LP token to burn",
          "tokenIndex": "index of which token will be withdrawn"
        },
        "returns": {
          "availableTokenAmount": "calculated amount of underlying token available to withdraw"
        }
      },
      "calculateSwap(uint8,uint8,uint256)": {
        "params": {
          "dx": "the amount of tokens the user wants to sell. If the token charges a fee on transfers, use the amount that gets transferred after the fee.",
          "tokenIndexFrom": "the token the user wants to sell",
          "tokenIndexTo": "the token the user wants to buy"
        },
        "returns": {
          "_0": "amount of tokens the user will receive"
        }
      },
      "calculateTokenAmount(address,uint256[],bool)": {
        "details": "This shouldn't be used outside frontends for user estimates.",
        "params": {
          "account": "address that is depositing or withdrawing tokens",
          "amounts": "an array of token amounts to deposit or withdrawal, corresponding to pooledTokens. The amount should be in each pooled token's native precision. If a token charges a fee on transfers, use the amount that gets transferred after the fee.",
          "deposit": "whether this is a deposit or a withdrawal"
        },
        "returns": {
          "_0": "token amount the user will receive"
        }
      },
      "flashLoan(address,address,uint256,bytes)": {
        "params": {
          "amount": "the total amount to borrow in this transaction",
          "params": "optional data to pass along to the callback function",
          "receiver": "the address of the receiver of the token. This address must implement the IFlashLoanReceiver interface and the callback function `executeOperation`.",
          "token": "the protocol fee in bps to be applied on the total flash loan fee"
        }
      },
      "getA()": {
        "details": "See the StableSwap paper for details",
        "returns": {
          "_0": "A parameter"
        }
      },
      "getAPrecise()": {
        "details": "See the StableSwap paper for details",
        "returns": {
          "_0": "A parameter in its raw precision form"
        }
      },
      "getAdminBalance(uint256)": {
        "params": {
          "index": "Index of the pooled token"
        },
        "returns": {
          "_0": "admin's token balance in the token's precision"
        }
      },
      "getDepositTimestamp(address)": {
        "returns": {
          "_0": "timestamp of the last deposit made by the given address"
        }
      },
      "getToken(uint8)": {
        "params": {
          "index": "the index of the token"
        },
        "returns": {
          "_0": "address of the token at given index"
        }
      },
      "getTokenBalance(uint8)": {
        "params": {
          "index": "the index of the token"
        },
        "returns": {
          "_0": "current balance of the pooled token at given index with token's native precision"
        }
      },
      "getTokenIndex(address)": {
        "params": {
          "tokenAddress": "address of the token"
        },
        "returns": {
          "_0": "the index of the given token address"
        }
      },
      "getVirtualPrice()": {
        "returns": {
          "_0": "the virtual price, scaled to the POOL_PRECISION_DECIMALS"
        }
      },
      "initialize(address[],uint8[],string,string,uint256,uint256,uint256,uint256,address)": {
        "params": {
          "_a": "the amplification coefficient * n * (n - 1). See the StableSwap paper for details",
          "_adminFee": "default adminFee to be initialized with",
          "_fee": "default swap fee to be initialized with",
          "_pooledTokens": "an array of ERC20s this pool will accept",
          "_withdrawFee": "default withdrawFee to be initialized with",
          "decimals": "the decimals to use for each pooled token, eg 8 for WBTC. Cannot be larger than POOL_PRECISION_DECIMALS",
          "lpTokenName": "the long-form name of the token to be deployed",
          "lpTokenSymbol": "the short symbol for the token to be deployed",
          "lpTokenTargetAddress": "the address of an existing LPToken contract to use as a target"
        }
      },
      "owner()": {
        "details": "Returns the address of the current owner."
      },
      "paused()": {
        "details": "Returns true if the contract is paused, and false otherwise."
      },
      "rampA(uint256,uint256)": {
        "params": {
          "futureA": "the new A to ramp towards",
          "futureTime": "timestamp when the new A should be reached"
        }
      },
      "removeLiquidity(uint256,uint256[],uint256)": {
        "details": "Liquidity can always be removed, even when the pool is paused.",
        "params": {
          "amount": "the amount of LP tokens to burn",
          "deadline": "latest timestamp to accept this transaction",
          "minAmounts": "the minimum amounts of each token in the pool        acceptable for this burn. Useful as a front-running mitigation"
        },
        "returns": {
          "_0": "amounts of tokens user received"
        }
      },
      "removeLiquidityImbalance(uint256[],uint256,uint256)": {
        "params": {
          "amounts": "how much of each token to withdraw",
          "deadline": "latest timestamp to accept this transaction",
          "maxBurnAmount": "the max LP token provider is willing to pay to remove liquidity. Useful as a front-running mitigation."
        },
        "returns": {
          "_0": "amount of LP tokens burned"
        }
      },
      "removeLiquidityOneToken(uint256,uint8,uint256,uint256)": {
        "params": {
          "deadline": "latest timestamp to accept this transaction",
          "minAmount": "the minimum amount to withdraw, otherwise revert",
          "tokenAmount": "the amount of the token you want to receive",
          "tokenIndex": "the index of the token you want to receive"
        },
        "returns": {
          "_0": "amount of chosen token user received"
        }
      },
      "renounceOwnership()": {
        "details": "Leaves the contract without owner. It will not be possible to call `onlyOwner` functions anymore. Can only be called by the current owner. NOTE: Renouncing ownership will leave the contract without an owner, thereby removing any functionality that is only available to the owner."
      },
      "setAdminFee(uint256)": {
        "params": {
          "newAdminFee": "new admin fee to be applied on future transactions"
        }
      },
      "setDefaultWithdrawFee(uint256)": {
        "params": {
          "newWithdrawFee": "new withdraw fee to be applied on future deposits"
        }
      },
      "setFlashLoanFees(uint256,uint256)": {
        "params": {
          "newFlashLoanFeeBPS": "the total fee in bps to be applied on future flash loans",
          "newProtocolFeeShareBPS": "the protocol fee in bps to be applied on the total flash loan fee"
        }
      },
      "setSwapFee(uint256)": {
        "params": {
          "newSwapFee": "new swap fee to be applied on future transactions"
        }
      },
      "swap(uint8,uint8,uint256,uint256,uint256)": {
        "params": {
          "deadline": "latest timestamp to accept this transaction",
          "dx": "the amount of tokens the user wants to swap from",
          "minDy": "the min amount the user would like to receive, or revert.",
          "tokenIndexFrom": "the token the user wants to swap from",
          "tokenIndexTo": "the token the user wants to swap to"
        }
      },
      "transferOwnership(address)": {
        "details": "Transfers ownership of the contract to a new account (`newOwner`). Can only be called by the current owner."
      },
      "updateUserWithdrawFee(address,uint256)": {
        "params": {
          "recipient": "address of the recipient of pool token",
          "transferAmount": "amount of pool token to transfer"
        }
      }
    },
    "title": "Swap - A StableSwap implementation in solidity.",
    "version": 1
  },
  "userdoc": {
    "kind": "user",
    "methods": {
      "addLiquidity(uint256[],uint256,uint256)": {
        "notice": "Add liquidity to the pool with the given amounts of tokens"
      },
      "calculateCurrentWithdrawFee(address)": {
        "notice": "Calculate the fee that is applied when the given user withdraws. The withdraw fee decays linearly over period of 4 weeks. For example, depositing and withdrawing right away will charge you the full amount of withdraw fee. But withdrawing after 4 weeks will charge you no additional fees."
      },
      "calculateRemoveLiquidity(address,uint256)": {
        "notice": "A simple method to calculate amount of each underlying tokens that is returned upon burning given amount of LP tokens"
      },
      "calculateRemoveLiquidityOneToken(address,uint256,uint8)": {
        "notice": "Calculate the amount of underlying token available to withdraw when withdrawing via only single token"
      },
      "calculateSwap(uint8,uint8,uint256)": {
        "notice": "Calculate amount of tokens you receive on swap"
      },
      "calculateTokenAmount(address,uint256[],bool)": {
        "notice": "A simple method to calculate prices from deposits or withdrawals, excluding fees but including slippage. This is helpful as an input into the various \"min\" parameters on calls to fight front-running"
      },
      "flashLoan(address,address,uint256,bytes)": {
        "notice": "Borrow the specified token from this pool for this transaction only. This function will call `IFlashLoanReceiver(receiver).executeOperation` and the `receiver` must return the full amount of the token and the associated fee by the end of the callback transaction. If the conditions are not met, this call is reverted."
      },
      "getA()": {
        "notice": "Return A, the amplification coefficient * n * (n - 1)"
      },
      "getAPrecise()": {
        "notice": "Return A in its raw precision form"
      },
      "getAdminBalance(uint256)": {
        "notice": "This function reads the accumulated amount of admin fees of the token with given index"
      },
      "getDepositTimestamp(address)": {
        "notice": "Return timestamp of last deposit of given address"
      },
      "getToken(uint8)": {
        "notice": "Return address of the pooled token at given index. Reverts if tokenIndex is out of range."
      },
      "getTokenBalance(uint8)": {
        "notice": "Return current balance of the pooled token at given index"
      },
      "getTokenIndex(address)": {
        "notice": "Return the index of the given token address. Reverts if no matching token is found."
      },
      "getVirtualPrice()": {
        "notice": "Get the virtual price, to help calculate profit"
      },
      "initialize(address[],uint8[],string,string,uint256,uint256,uint256,uint256,address)": {
        "notice": "Initializes this Swap contract with the given parameters. This will also clone a LPToken contract that represents users' LP positions. The owner of LPToken will be this contract - which means only this contract is allowed to mint/burn tokens."
      },
      "pause()": {
        "notice": "Pause the contract. Revert if already paused."
      },
      "rampA(uint256,uint256)": {
        "notice": "Start ramping up or down A parameter towards given futureA and futureTime Checks if the change is too rapid, and commits the new A value only when it falls under the limit range."
      },
      "removeLiquidity(uint256,uint256[],uint256)": {
        "notice": "Burn LP tokens to remove liquidity from the pool. Withdraw fee that decays linearly over period of 4 weeks since last deposit will apply."
      },
      "removeLiquidityImbalance(uint256[],uint256,uint256)": {
        "notice": "Remove liquidity from the pool, weighted differently than the pool's current balances. Withdraw fee that decays linearly over period of 4 weeks since last deposit will apply."
      },
      "removeLiquidityOneToken(uint256,uint8,uint256,uint256)": {
        "notice": "Remove liquidity from the pool all in one token. Withdraw fee that decays linearly over period of 4 weeks since last deposit will apply."
      },
      "setAdminFee(uint256)": {
        "notice": "Update the admin fee. Admin fee takes portion of the swap fee."
      },
      "setDefaultWithdrawFee(uint256)": {
        "notice": "Update the withdraw fee. This fee decays linearly over 4 weeks since user's last deposit."
      },
      "setFlashLoanFees(uint256,uint256)": {
        "notice": "Updates the flash loan fee parameters. This function can only be called by the owner."
      },
      "setSwapFee(uint256)": {
        "notice": "Update the swap fee to be applied on swaps"
      },
      "stopRampA()": {
        "notice": "Stop ramping A immediately. Reverts if ramp A is already stopped."
      },
      "swap(uint8,uint8,uint256,uint256,uint256)": {
        "notice": "Swap two tokens using this pool"
      },
      "unpause()": {
        "notice": "Unpause the contract. Revert if already unpaused."
      },
      "updateUserWithdrawFee(address,uint256)": {
        "notice": "Updates the user withdraw fee. This function can only be called by the pool token. Should be used to update the withdraw fee on transfer of pool tokens. Transferring your pool token will reset the 4 weeks period. If the recipient is already holding some pool tokens, the withdraw fee will be discounted in respective amounts."
      },
      "withdrawAdminFees()": {
        "notice": "Withdraw all admin fees to the contract owner"
      }
    },
    "notice": "This contract is responsible for custody of closely pegged assets (eg. group of stablecoins) and automatic market making system. Users become an LP (Liquidity Provider) by depositing their tokens in desired ratios for an exchange of the pool token that represents their share of the pool. Users can burn pool tokens and withdraw their share of token(s). Each time a swap between the pooled tokens happens, a set fee incurs which effectively gets distributed to the LPs. In case of emergencies, admin can pause additional deposits, swaps, or single-asset withdraws - which stops the ratio of the tokens in the pool from changing. Users can always withdraw their tokens via multi-asset withdraws.",
    "version": 1
  },
  "storageLayout": {
    "storage": [
      {
        "astId": 492,
        "contract": "contracts/SwapFlashLoanV1.sol:SwapFlashLoanV1",
        "label": "_initialized",
        "offset": 0,
        "slot": "0",
        "type": "t_bool"
      },
      {
        "astId": 495,
        "contract": "contracts/SwapFlashLoanV1.sol:SwapFlashLoanV1",
        "label": "_initializing",
        "offset": 1,
        "slot": "0",
        "type": "t_bool"
      },
      {
        "astId": 1531,
        "contract": "contracts/SwapFlashLoanV1.sol:SwapFlashLoanV1",
        "label": "__gap",
        "offset": 0,
        "slot": "1",
        "type": "t_array(t_uint256)50_storage"
      },
      {
        "astId": 10,
        "contract": "contracts/SwapFlashLoanV1.sol:SwapFlashLoanV1",
        "label": "_owner",
        "offset": 0,
        "slot": "51",
        "type": "t_address"
      },
      {
        "astId": 129,
        "contract": "contracts/SwapFlashLoanV1.sol:SwapFlashLoanV1",
        "label": "__gap",
        "offset": 0,
        "slot": "52",
        "type": "t_array(t_uint256)49_storage"
      },
      {
        "astId": 1553,
        "contract": "contracts/SwapFlashLoanV1.sol:SwapFlashLoanV1",
        "label": "_paused",
        "offset": 0,
        "slot": "101",
        "type": "t_bool"
      },
      {
        "astId": 1644,
        "contract": "contracts/SwapFlashLoanV1.sol:SwapFlashLoanV1",
        "label": "__gap",
        "offset": 0,
        "slot": "102",
        "type": "t_array(t_uint256)49_storage"
      },
      {
        "astId": 1659,
        "contract": "contracts/SwapFlashLoanV1.sol:SwapFlashLoanV1",
        "label": "_status",
        "offset": 0,
        "slot": "151",
        "type": "t_uint256"
      },
      {
        "astId": 1702,
        "contract": "contracts/SwapFlashLoanV1.sol:SwapFlashLoanV1",
        "label": "__gap",
        "offset": 0,
        "slot": "152",
        "type": "t_array(t_uint256)49_storage"
      },
      {
        "astId": 14664,
        "contract": "contracts/SwapFlashLoanV1.sol:SwapFlashLoanV1",
        "label": "swapStorage",
        "offset": 0,
        "slot": "201",
        "type": "t_struct(Swap)11573_storage"
      },
      {
        "astId": 14668,
        "contract": "contracts/SwapFlashLoanV1.sol:SwapFlashLoanV1",
        "label": "tokenIndexes",
        "offset": 0,
        "slot": "214",
        "type": "t_mapping(t_address,t_uint8)"
      },
      {
        "astId": 8313,
        "contract": "contracts/SwapFlashLoanV1.sol:SwapFlashLoanV1",
        "label": "flashLoanFeeBPS",
        "offset": 0,
        "slot": "215",
        "type": "t_uint256"
      },
      {
        "astId": 8315,
        "contract": "contracts/SwapFlashLoanV1.sol:SwapFlashLoanV1",
        "label": "protocolFeeShareBPS",
        "offset": 0,
        "slot": "216",
        "type": "t_uint256"
      }
    ],
    "types": {
      "t_address": {
        "encoding": "inplace",
        "label": "address",
        "numberOfBytes": "20"
      },
      "t_array(t_contract(IERC20)3028)dyn_storage": {
        "base": "t_contract(IERC20)3028",
        "encoding": "dynamic_array",
        "label": "contract IERC20[]",
        "numberOfBytes": "32"
      },
      "t_array(t_uint256)49_storage": {
        "base": "t_uint256",
        "encoding": "inplace",
        "label": "uint256[49]",
        "numberOfBytes": "1568"
      },
      "t_array(t_uint256)50_storage": {
        "base": "t_uint256",
        "encoding": "inplace",
        "label": "uint256[50]",
        "numberOfBytes": "1600"
      },
      "t_array(t_uint256)dyn_storage": {
        "base": "t_uint256",
        "encoding": "dynamic_array",
        "label": "uint256[]",
        "numberOfBytes": "32"
      },
      "t_bool": {
        "encoding": "inplace",
        "label": "bool",
        "numberOfBytes": "1"
      },
      "t_contract(IERC20)3028": {
        "encoding": "inplace",
        "label": "contract IERC20",
        "numberOfBytes": "20"
      },
      "t_contract(LPToken)6711": {
        "encoding": "inplace",
        "label": "contract LPToken",
        "numberOfBytes": "20"
      },
      "t_mapping(t_address,t_uint256)": {
        "encoding": "mapping",
        "key": "t_address",
        "label": "mapping(address => uint256)",
        "numberOfBytes": "32",
        "value": "t_uint256"
      },
      "t_mapping(t_address,t_uint8)": {
        "encoding": "mapping",
        "key": "t_address",
        "label": "mapping(address => uint8)",
        "numberOfBytes": "32",
        "value": "t_uint8"
      },
      "t_struct(Swap)11573_storage": {
        "encoding": "inplace",
        "label": "struct SwapUtilsV1.Swap",
        "members": [
          {
            "astId": 11541,
            "contract": "contracts/SwapFlashLoanV1.sol:SwapFlashLoanV1",
            "label": "initialA",
            "offset": 0,
            "slot": "0",
            "type": "t_uint256"
          },
          {
            "astId": 11543,
            "contract": "contracts/SwapFlashLoanV1.sol:SwapFlashLoanV1",
            "label": "futureA",
            "offset": 0,
            "slot": "1",
            "type": "t_uint256"
          },
          {
            "astId": 11545,
            "contract": "contracts/SwapFlashLoanV1.sol:SwapFlashLoanV1",
            "label": "initialATime",
            "offset": 0,
            "slot": "2",
            "type": "t_uint256"
          },
          {
            "astId": 11547,
            "contract": "contracts/SwapFlashLoanV1.sol:SwapFlashLoanV1",
            "label": "futureATime",
            "offset": 0,
            "slot": "3",
            "type": "t_uint256"
          },
          {
            "astId": 11549,
            "contract": "contracts/SwapFlashLoanV1.sol:SwapFlashLoanV1",
            "label": "swapFee",
            "offset": 0,
            "slot": "4",
            "type": "t_uint256"
          },
          {
            "astId": 11551,
            "contract": "contracts/SwapFlashLoanV1.sol:SwapFlashLoanV1",
            "label": "adminFee",
            "offset": 0,
            "slot": "5",
            "type": "t_uint256"
          },
          {
            "astId": 11553,
            "contract": "contracts/SwapFlashLoanV1.sol:SwapFlashLoanV1",
            "label": "defaultWithdrawFee",
            "offset": 0,
            "slot": "6",
            "type": "t_uint256"
          },
          {
            "astId": 11555,
            "contract": "contracts/SwapFlashLoanV1.sol:SwapFlashLoanV1",
            "label": "lpToken",
            "offset": 0,
            "slot": "7",
            "type": "t_contract(LPToken)6711"
          },
          {
            "astId": 11558,
            "contract": "contracts/SwapFlashLoanV1.sol:SwapFlashLoanV1",
            "label": "pooledTokens",
            "offset": 0,
            "slot": "8",
            "type": "t_array(t_contract(IERC20)3028)dyn_storage"
          },
          {
            "astId": 11561,
            "contract": "contracts/SwapFlashLoanV1.sol:SwapFlashLoanV1",
            "label": "tokenPrecisionMultipliers",
            "offset": 0,
            "slot": "9",
            "type": "t_array(t_uint256)dyn_storage"
          },
          {
            "astId": 11564,
            "contract": "contracts/SwapFlashLoanV1.sol:SwapFlashLoanV1",
            "label": "balances",
            "offset": 0,
            "slot": "10",
            "type": "t_array(t_uint256)dyn_storage"
          },
          {
            "astId": 11568,
            "contract": "contracts/SwapFlashLoanV1.sol:SwapFlashLoanV1",
            "label": "depositTimestamp",
            "offset": 0,
            "slot": "11",
            "type": "t_mapping(t_address,t_uint256)"
          },
          {
            "astId": 11572,
            "contract": "contracts/SwapFlashLoanV1.sol:SwapFlashLoanV1",
            "label": "withdrawFeeMultiplier",
            "offset": 0,
            "slot": "12",
            "type": "t_mapping(t_address,t_uint256)"
          }
        ],
        "numberOfBytes": "416"
      },
      "t_uint256": {
        "encoding": "inplace",
        "label": "uint256",
        "numberOfBytes": "32"
      },
      "t_uint8": {
        "encoding": "inplace",
        "label": "uint8",
        "numberOfBytes": "1"
      }
    }
  }
}