{
  "address": "0x75720fAc0f99E17DCBdDa14D05CCdDE31090F04b",
  "abi": [
    {
      "anonymous": false,
      "inputs": [
        {
          "indexed": true,
          "internalType": "address",
          "name": "provider",
          "type": "address"
        },
        {
          "indexed": false,
          "internalType": "uint256[]",
          "name": "tokenAmounts",
          "type": "uint256[]"
        },
        {
          "indexed": false,
          "internalType": "uint256[]",
          "name": "fees",
          "type": "uint256[]"
        },
        {
          "indexed": false,
          "internalType": "uint256",
          "name": "invariant",
          "type": "uint256"
        },
        {
          "indexed": false,
          "internalType": "uint256",
          "name": "lpTokenSupply",
          "type": "uint256"
        }
      ],
      "name": "AddLiquidity",
      "type": "event"
    },
    {
      "anonymous": false,
      "inputs": [
        {
          "indexed": false,
          "internalType": "uint256",
          "name": "newAdminFee",
          "type": "uint256"
        }
      ],
      "name": "NewAdminFee",
      "type": "event"
    },
    {
      "anonymous": false,
      "inputs": [
        {
          "indexed": false,
          "internalType": "uint256",
          "name": "newSwapFee",
          "type": "uint256"
        }
      ],
      "name": "NewSwapFee",
      "type": "event"
    },
    {
      "anonymous": false,
      "inputs": [
        {
          "indexed": false,
          "internalType": "uint256",
          "name": "newWithdrawFee",
          "type": "uint256"
        }
      ],
      "name": "NewWithdrawFee",
      "type": "event"
    },
    {
      "anonymous": false,
      "inputs": [
        {
          "indexed": true,
          "internalType": "address",
          "name": "provider",
          "type": "address"
        },
        {
          "indexed": false,
          "internalType": "uint256[]",
          "name": "tokenAmounts",
          "type": "uint256[]"
        },
        {
          "indexed": false,
          "internalType": "uint256",
          "name": "lpTokenSupply",
          "type": "uint256"
        }
      ],
      "name": "RemoveLiquidity",
      "type": "event"
    },
    {
      "anonymous": false,
      "inputs": [
        {
          "indexed": true,
          "internalType": "address",
          "name": "provider",
          "type": "address"
        },
        {
          "indexed": false,
          "internalType": "uint256[]",
          "name": "tokenAmounts",
          "type": "uint256[]"
        },
        {
          "indexed": false,
          "internalType": "uint256[]",
          "name": "fees",
          "type": "uint256[]"
        },
        {
          "indexed": false,
          "internalType": "uint256",
          "name": "invariant",
          "type": "uint256"
        },
        {
          "indexed": false,
          "internalType": "uint256",
          "name": "lpTokenSupply",
          "type": "uint256"
        }
      ],
      "name": "RemoveLiquidityImbalance",
      "type": "event"
    },
    {
      "anonymous": false,
      "inputs": [
        {
          "indexed": true,
          "internalType": "address",
          "name": "provider",
          "type": "address"
        },
        {
          "indexed": false,
          "internalType": "uint256",
          "name": "lpTokenAmount",
          "type": "uint256"
        },
        {
          "indexed": false,
          "internalType": "uint256",
          "name": "lpTokenSupply",
          "type": "uint256"
        },
        {
          "indexed": false,
          "internalType": "uint256",
          "name": "boughtId",
          "type": "uint256"
        },
        {
          "indexed": false,
          "internalType": "uint256",
          "name": "tokensBought",
          "type": "uint256"
        }
      ],
      "name": "RemoveLiquidityOne",
      "type": "event"
    },
    {
      "anonymous": false,
      "inputs": [
        {
          "indexed": true,
          "internalType": "address",
          "name": "buyer",
          "type": "address"
        },
        {
          "indexed": false,
          "internalType": "uint256",
          "name": "tokensSold",
          "type": "uint256"
        },
        {
          "indexed": false,
          "internalType": "uint256",
          "name": "tokensBought",
          "type": "uint256"
        },
        {
          "indexed": false,
          "internalType": "uint128",
          "name": "soldId",
          "type": "uint128"
        },
        {
          "indexed": false,
          "internalType": "uint128",
          "name": "boughtId",
          "type": "uint128"
        }
      ],
      "name": "TokenSwap",
      "type": "event"
    },
    {
      "inputs": [],
      "name": "MAX_ADMIN_FEE",
      "outputs": [
        {
          "internalType": "uint256",
          "name": "",
          "type": "uint256"
        }
      ],
      "stateMutability": "view",
      "type": "function"
    },
    {
      "inputs": [],
      "name": "MAX_SWAP_FEE",
      "outputs": [
        {
          "internalType": "uint256",
          "name": "",
          "type": "uint256"
        }
      ],
      "stateMutability": "view",
      "type": "function"
    },
    {
      "inputs": [],
      "name": "MAX_WITHDRAW_FEE",
      "outputs": [
        {
          "internalType": "uint256",
          "name": "",
          "type": "uint256"
        }
      ],
      "stateMutability": "view",
      "type": "function"
    },
    {
      "inputs": [],
      "name": "POOL_PRECISION_DECIMALS",
      "outputs": [
        {
          "internalType": "uint8",
          "name": "",
          "type": "uint8"
        }
      ],
      "stateMutability": "view",
      "type": "function"
    },
    {
      "inputs": [],
      "name": "WITHDRAW_FEE_DECAY_TIME",
      "outputs": [
        {
          "internalType": "uint256",
          "name": "",
          "type": "uint256"
        }
      ],
      "stateMutability": "view",
      "type": "function"
    }
  ],
  "transactionHash": "0xc2ef552a70ba0dc7e4566420ea546f36a316d88906f3ad097f68c97881c9e85a",
  "args": [],
  "solcInputHash": "8f41ed0bf5ed398a2f798685730bd171",
  "bytecode": "0x61459c610026600b82828239805160001a60731461001957fe5b30600052607381538281f3fe73000000000000000000000000000000000000000030146080604052600436106101965760003560e01c806371a58329116100ed578063bb8ca1ae11610096578063d4b0de2f11610070578063d4b0de2f14610614578063de3eac3c14610731578063f3de03621461077a57610196565b8063bb8ca1ae1461061c578063becfcccd1461064c578063cc09aa9a1461067857610196565b80638e8b53b7116100c75780638e8b53b7146105a9578063a1904536146105d9578063ab3d85441461061457610196565b806371a583291461053057806373a0e73f146105385780637d28ae921461057757610196565b806348ab1a861161014f57806367ecb9551161012957806367ecb955146103655780636b114d9b1461041e5780636d429288146104f757610196565b806348ab1a861461029e5780635050b0401461032557806364f219b01461034257610196565b8063092e14e511610180578063092e14e5146101eb5780632272322d146102295780633efb4cfd1461026857610196565b8062f59a951461019b5780630296ab50146101cd575b600080fd5b8180156101a757600080fd5b506101cb600480360360408110156101be57600080fd5b5080359060200135610782565b005b6101d5610819565b6040805160ff9092168252519081900360200190f35b6102176004803603604081101561020157600080fd5b50803590602001356001600160a01b031661081e565b60408051918252519081900360200190f35b81801561023557600080fd5b506101cb6004803603606081101561024c57600080fd5b508035906001600160a01b036020820135169060400135610840565b6102176004803603608081101561027e57600080fd5b5080359060ff6020820135811691604081013590911690606001356109c3565b610217600480360360808110156102b457600080fd5b8135916001600160a01b03602082013516918101906060810160408201356401000000008111156102e457600080fd5b8201836020820111156102f657600080fd5b8035906020019184602083028401116401000000008311171561031857600080fd5b9193509150351515610a2e565b6102176004803603602081101561033b57600080fd5b5035610cd4565b6102176004803603604081101561035857600080fd5b5080359060200135610dab565b81801561037157600080fd5b506102176004803603606081101561038857600080fd5b813591908101906040810160208201356401000000008111156103aa57600080fd5b8201836020820111156103bc57600080fd5b803590602001918460208302840111640100000000831117156103de57600080fd5b9190808060200260200160405190810160405280939291908181526020018383602002808284376000920191909152509295505091359250610ed3915050565b81801561042a57600080fd5b506104a76004803603606081101561044157600080fd5b81359160208101359181019060608101604082013564010000000081111561046857600080fd5b82018360208201111561047a57600080fd5b8035906020019184602083028401116401000000008311171561049c57600080fd5b50909250905061182f565b60408051602080825283518183015283519192839290830191858101910280838360005b838110156104e35781810151838201526020016104cb565b505050509050019250505060405180910390f35b81801561050357600080fd5b506101cb6004803603604081101561051a57600080fd5b50803590602001356001600160a01b0316611cbf565b610217611ddc565b81801561054457600080fd5b506102176004803603608081101561055b57600080fd5b5080359060208101359060ff6040820135169060600135611de3565b6104a76004803603606081101561058d57600080fd5b508035906001600160a01b0360208201351690604001356121ad565b8180156105b557600080fd5b506101cb600480360360408110156105cc57600080fd5b5080359060200135612289565b610217600480360360808110156105ef57600080fd5b5080359060208101356001600160a01b0316906040810135906060013560ff16612321565b6102176123b7565b81801561062857600080fd5b506101cb6004803603604081101561063f57600080fd5b50803590602001356123bf565b6102176004803603604081101561066257600080fd5b50803590602001356001600160a01b0316612456565b81801561068457600080fd5b506102176004803603606081101561069b57600080fd5b813591908101906040810160208201356401000000008111156106bd57600080fd5b8201836020820111156106cf57600080fd5b803590602001918460208302840111640100000000831117156106f157600080fd5b9190808060200260200160405190810160405280939291908181526020018383602002808284376000920191909152509295505091359250612462915050565b81801561073d57600080fd5b50610217600480360360a081101561075457600080fd5b5080359060ff602082013581169160408101359091169060608101359060800135612bcc565b610217612fb6565b6305f5e1008111156107db576040805162461bcd60e51b815260206004820152600f60248201527f46656520697320746f6f20686967680000000000000000000000000000000000604482015290519081900360640190fd5b600682018190556040805182815290517fd5fe46099fa396290a7f57e36c3c3c8774e2562c18ed5d1dcc0fa75071e03f1d9181900360200190a15050565b601281565b6001600160a01b0381166000908152600b830160205260409020545b92915050565b6001600160a01b038216610853576109be565b6006830154610883576001600160a01b0382166000908152600c8401602052604090206402540be40090556109a0565b600061088f8484612fbf565b6007850154604080517f70a082310000000000000000000000000000000000000000000000000000000081526001600160a01b038781166004830152915193945060009391909216916370a08231916024808301926020929190829003018186803b1580156108fd57600080fd5b505afa158015610911573d6000803e3d6000fd5b505050506040513d602081101561092757600080fd5b5051600686015490915061098290610949906109438685613066565b906130c0565b61097c6402540be40061094361096c8a60060154896130c090919063ffffffff16565b61097687896130c0565b90613066565b90613119565b6001600160a01b0385166000908152600c8701602052604090205550505b6001600160a01b0382166000908152600b8401602052604090204290555b505050565b6000610a248585858589600a01805480602002602001604051908101604052809291908181526020018280548015610a1a57602002820191906000526020600020905b815481526020019060010190808311610a06575b5050505050613180565b5095945050505050565b600080610a3a87613328565b9050606087600a01805480602002602001604051908101604052809291908181526020018280548015610a8c57602002820191906000526020600020905b815481526020019060010190808311610a78575b50505050509050606088600901805480602002602001604051908101604052809291908181526020018280548015610ae357602002820191906000526020600020905b815481526020019060010190808311610acf575b505050505090506000610aff610af98484613333565b8561342a565b905060005b8351811015610bdb578615610b6857610b4b898983818110610b2257fe5b90506020020135858381518110610b3557fe5b602002602001015161306690919063ffffffff16565b848281518110610b5757fe5b602002602001018181525050610bd3565b610bba898983818110610b7757fe5b9050602002013560405180606001604052806023815260200161454460239139868481518110610ba357fe5b60200260200101516135909092919063ffffffff16565b848281518110610bc657fe5b6020026020010181815250505b600101610b04565b506000610bf1610beb8585613333565b8661342a565b905060008b60070160009054906101000a90046001600160a01b03166001600160a01b03166318160ddd6040518163ffffffff1660e01b815260040160206040518083038186803b158015610c4557600080fd5b505afa158015610c59573d6000803e3d6000fd5b505050506040513d6020811015610c6f57600080fd5b505190508715610c9857610c8b8361097c836109438684613627565b9650505050505050610ccb565b610c8b610cb4610ca88e8e612fbf565b6402540be40090613627565b61097c6402540be40061094387838783838b613627565b95945050505050565b600080610cf1610ce384613684565b610cec85613328565b61342a565b905060008360070160009054906101000a90046001600160a01b031690506000816001600160a01b03166318160ddd6040518163ffffffff1660e01b815260040160206040518083038186803b158015610d4a57600080fd5b505afa158015610d5e573d6000803e3d6000fd5b505050506040513d6020811015610d7457600080fd5b505190508015610d9e57610d948161097c85670de0b6b3a76400006130c0565b9350505050610da6565b600093505050505b919050565b60088201546000908210610e06576040805162461bcd60e51b815260206004820152601860248201527f546f6b656e20696e646578206f7574206f662072616e67650000000000000000604482015290519081900360640190fd5b610ecc83600a018381548110610e1857fe5b9060005260206000200154846008018481548110610e3257fe5b60009182526020918290200154604080517f70a0823100000000000000000000000000000000000000000000000000000000815230600482015290516001600160a01b03909216926370a0823192602480840193829003018186803b158015610e9a57600080fd5b505afa158015610eae573d6000803e3d6000fd5b505050506040513d6020811015610ec457600080fd5b505190613627565b9392505050565b6000606084600801805480602002602001604051908101604052809291908181526020018280548015610f2f57602002820191906000526020600020905b81546001600160a01b03168152600190910190602001808311610f11575b505050505090508051845114610f8c576040805162461bcd60e51b815260206004820181905260248201527f416d6f756e7473206d757374206d6174636820706f6f6c656420746f6b656e73604482015290519081900360640190fd5b610f946143f5565b604051806101000160405280600081526020016000815260200160008152602001610fbe88613328565b81526020018760070160009054906101000a90046001600160a01b03166001600160a01b031681526020016000815260200187600a0180548060200260200160405190810160405280929190818152602001828054801561103e57602002820191906000526020600020905b81548152602001906001019080831161102a575b505050505081526020018760090180548060200260200160405190810160405280929190818152602001828054801561109657602002820191906000526020600020905b815481526020019060010190808311611082575b5050505050815250905080608001516001600160a01b03166318160ddd6040518163ffffffff1660e01b815260040160206040518083038186803b1580156110dd57600080fd5b505afa1580156110f1573d6000803e3d6000fd5b505050506040513d602081101561110757600080fd5b505160a08201819052156111375761113461112a8260c001518360e00151613333565b826060015161342a565b81525b6060825167ffffffffffffffff8111801561115157600080fd5b5060405190808252806020026020018201604052801561117b578160200160208202803683370190505b50905060005b83518110156113bb5760a08301511515806111af575060008782815181106111a557fe5b6020026020010151115b611200576040805162461bcd60e51b815260206004820152601e60248201527f4d75737420737570706c7920616c6c20746f6b656e7320696e20706f6f6c0000604482015290519081900360640190fd5b86818151811061120c57fe5b602002602001015160001461137557600084828151811061122957fe5b60200260200101516001600160a01b03166370a08231306040518263ffffffff1660e01b815260040180826001600160a01b0316815260200191505060206040518083038186803b15801561127d57600080fd5b505afa158015611291573d6000803e3d6000fd5b505050506040513d60208110156112a757600080fd5b505188519091506112f790339030908b90869081106112c257fe5b60200260200101518886815181106112d657fe5b60200260200101516001600160a01b0316613734909392919063ffffffff16565b61135b8186848151811061130757fe5b60200260200101516001600160a01b03166370a08231306040518263ffffffff1660e01b815260040180826001600160a01b0316815260200191505060206040518083038186803b158015610e9a57600080fd5b88838151811061136757fe5b602002602001018181525050505b61139c87828151811061138457fe5b60200260200101518460c001518381518110610b3557fe5b8282815181106113a857fe5b6020908102919091010152600101611181565b506113d76113cd828460e00151613333565b836060015161342a565b60208301819052825110611432576040805162461bcd60e51b815260206004820152601160248201527f442073686f756c6420696e637265617365000000000000000000000000000000604482015290519081900360640190fd5b60208201516040830152825160609067ffffffffffffffff8111801561145757600080fd5b50604051908082528060200260200182016040528015611481578160200160208202803683370190505b5090508260a001516000146116195760006114a1896004015486516137bc565b905060005b85518110156115f25760006114e7866000015161097c8860c0015185815181106114cc57fe5b602002602001015189602001516130c090919063ffffffff16565b90506115226402540be40061097c61151b88868151811061150457fe5b6020026020010151856137db90919063ffffffff16565b86906130c0565b84838151811061152e57fe5b6020026020010181815250506115926115706402540be40061097c8e6005015488878151811061155a57fe5b60200260200101516130c090919063ffffffff16565b86848151811061157c57fe5b602002602001015161362790919063ffffffff16565b8b600a0183815481106115a157fe5b90600052602060002001819055506115d28483815181106115be57fe5b602002602001015186848151811061157c57fe5b8583815181106115de57fe5b6020908102919091010152506001016114a6565b5061160e611604848660e00151613333565b856060015161342a565b604085015250611630565b815161162e90600a8a01906020850190614443565b505b60008360a001516000141561164a5750602083015161166c565b835160a08501516040860151611669929161097c916109439084613627565b90505b868110156116c1576040805162461bcd60e51b815260206004820152601b60248201527f436f756c646e2774206d696e74206d696e207265717565737465640000000000604482015290519081900360640190fd5b83608001516001600160a01b03166340c10f1933836040518363ffffffff1660e01b815260040180836001600160a01b0316815260200182815260200192505050600060405180830381600087803b15801561171c57600080fd5b505af1158015611730573d6000803e3d6000fd5b50505050336001600160a01b03167f189c623b666b1b45b83d7178f39b8c087cb09774317ca2f53c2d3c3726f222a28984876020015161177d868a60a0015161306690919063ffffffff16565b604051808060200180602001858152602001848152602001838103835287818151815260200191508051906020019060200280838360005b838110156117cd5781810151838201526020016117b5565b50505050905001838103825286818151815260200191508051906020019060200280838360005b8381101561180c5781810151838201526020016117f4565b50505050905001965050505050505060405180910390a298975050505050505050565b6007840154600885018054604080516020808402820181019092528281526060946001600160a01b0316938593919290919083018282801561189a57602002820191906000526020600020905b81546001600160a01b0316815260019091019060200180831161187c575b50505050509050816001600160a01b03166370a08231336040518263ffffffff1660e01b815260040180826001600160a01b0316815260200191505060206040518083038186803b1580156118ee57600080fd5b505afa158015611902573d6000803e3d6000fd5b505050506040513d602081101561191857600080fd5b505186111561196e576040805162461bcd60e51b815260206004820152600d60248201527f3e4c502e62616c616e63654f6600000000000000000000000000000000000000604482015290519081900360640190fd5b805184146119c3576040805162461bcd60e51b815260206004820181905260248201527f6d696e416d6f756e7473206d757374206d6174636820706f6f6c546f6b656e73604482015290519081900360640190fd5b606087600a01805480602002602001604051908101604052809291908181526020018280548015611a1357602002820191906000526020600020905b8154815260200190600101908083116119ff575b505050505090506000836001600160a01b03166318160ddd6040518163ffffffff1660e01b815260040160206040518083038186803b158015611a5557600080fd5b505afa158015611a69573d6000803e3d6000fd5b505050506040513d6020811015611a7f57600080fd5b505190506060611a928a84338c866137f3565b905060005b8151811015611ba657888882818110611aac57fe5b90506020020135828281518110611abf57fe5b60200260200101511015611b1a576040805162461bcd60e51b815260206004820152601a60248201527f616d6f756e74735b695d203c206d696e416d6f756e74735b695d000000000000604482015290519081900360640190fd5b611b3d828281518110611b2957fe5b602002602001015185838151811061157c57fe5b8b600a018281548110611b4c57fe5b9060005260206000200181905550611b9e33838381518110611b6a57fe5b6020026020010151878481518110611b7e57fe5b60200260200101516001600160a01b03166139009092919063ffffffff16565b600101611a97565b50604080517f79cc6790000000000000000000000000000000000000000000000000000000008152336004820152602481018b905290516001600160a01b038716916379cc679091604480830192600092919082900301818387803b158015611c0e57600080fd5b505af1158015611c22573d6000803e3d6000fd5b503392507f88d38ed598fdd809c2bf01ee49cd24b7fdabf379a83d29567952b60324d58cef9150839050611c56858d613627565b6040518080602001838152602001828103825284818151815260200191508051906020019060200280838360005b83811015611c9c578181015183820152602001611c84565b50505050905001935050505060405180910390a29450505050505b949350505050565b606082600801805480602002602001604051908101604052809291908181526020018280548015611d1957602002820191906000526020600020905b81546001600160a01b03168152600190910190602001808311611cfb575b5050505050905060005b8151811015611dd6576000828281518110611d3a57fe5b602002602001015190506000611db086600a018481548110611d5857fe5b9060005260206000200154836001600160a01b03166370a08231306040518263ffffffff1660e01b815260040180826001600160a01b0316815260200191505060206040518083038186803b158015610e9a57600080fd5b90508015611dcc57611dcc6001600160a01b0383168683613900565b5050600101611d23565b50505050565b6224ea0081565b6007840154600885018054604080516020808402820181019092528281526000946001600160a01b0316936060939192909190830182828015611e4f57602002820191906000526020600020905b81546001600160a01b03168152600190910190602001808311611e31575b50505050509050816001600160a01b03166370a08231336040518263ffffffff1660e01b815260040180826001600160a01b0316815260200191505060206040518083038186803b158015611ea357600080fd5b505afa158015611eb7573d6000803e3d6000fd5b505050506040513d6020811015611ecd57600080fd5b5051861115611f23576040805162461bcd60e51b815260206004820152600d60248201527f3e4c502e62616c616e63654f6600000000000000000000000000000000000000604482015290519081900360640190fd5b80518560ff1610611f7b576040805162461bcd60e51b815260206004820152600f60248201527f546f6b656e206e6f7420666f756e640000000000000000000000000000000000604482015290519081900360640190fd5b6000826001600160a01b03166318160ddd6040518163ffffffff1660e01b815260040160206040518083038186803b158015611fb657600080fd5b505afa158015611fca573d6000803e3d6000fd5b505050506040513d6020811015611fe057600080fd5b50519050600080611ff48a338b8b87613980565b915091508682101561204d576040805162461bcd60e51b815260206004820152600e60248201527f6479203c206d696e416d6f756e74000000000000000000000000000000000000604482015290519081900360640190fd5b6120a561207a6120736402540be40061097c8e60050154866130c090919063ffffffff16565b8490613066565b8b600a018a60ff168154811061208c57fe5b906000526020600020015461362790919063ffffffff16565b8a600a018960ff16815481106120b757fe5b6000918252602082200191909155604080517f79cc6790000000000000000000000000000000000000000000000000000000008152336004820152602481018c905290516001600160a01b038816926379cc6790926044808201939182900301818387803b15801561212857600080fd5b505af115801561213c573d6000803e3d6000fd5b505050506121543383868b60ff1681518110611b7e57fe5b604080518a81526020810185905260ff8a168183015260608101849052905133917f43fb02998f4e03da2e0e6fff53fdbf0c40a9f45f145dc377fc30615d7d7a8a64919081900360800190a25098975050505050505050565b6060611cb78485600a0180548060200260200160405190810160405280929190818152602001828054801561220157602002820191906000526020600020905b8154815260200190600101908083116121ed575b505050505085858860070160009054906101000a90046001600160a01b03166001600160a01b03166318160ddd6040518163ffffffff1660e01b815260040160206040518083038186803b15801561225857600080fd5b505afa15801561226c573d6000803e3d6000fd5b505050506040513d602081101561228257600080fd5b50516137f3565b6402540be4008111156122e3576040805162461bcd60e51b815260206004820152600f60248201527f46656520697320746f6f20686967680000000000000000000000000000000000604482015290519081900360640190fd5b600582018190556040805182815290517fab599d640ca80cde2b09b128a4154a8dfe608cb80f4c9399c8b954b01fd35f389181900360200190a15050565b6000806123ac868686868a60070160009054906101000a90046001600160a01b03166001600160a01b03166318160ddd6040518163ffffffff1660e01b815260040160206040518083038186803b15801561237b57600080fd5b505afa15801561238f573d6000803e3d6000fd5b505050506040513d60208110156123a557600080fd5b5051613980565b509695505050505050565b6305f5e10081565b6305f5e100811115612418576040805162461bcd60e51b815260206004820152600f60248201527f46656520697320746f6f20686967680000000000000000000000000000000000604482015290519081900360640190fd5b600482018190556040805182815290517fd88ea5155021c6f8dafa1a741e173f595cdf77ce7c17d43342131d7f06afdfe59181900360200190a15050565b6000610ecc8383612fbf565b600061246c6143f5565b60405180610100016040528060008152602001600081526020016000815260200161249687613328565b81526020018660070160009054906101000a90046001600160a01b03166001600160a01b031681526020016000815260200186600a0180548060200260200160405190810160405280929190818152602001828054801561251657602002820191906000526020600020905b815481526020019060010190808311612502575b505050505081526020018660090180548060200260200160405190810160405280929190818152602001828054801561256e57602002820191906000526020600020905b81548152602001906001019080831161255a575b5050505050815250905080608001516001600160a01b03166318160ddd6040518163ffffffff1660e01b815260040160206040518083038186803b1580156125b557600080fd5b505afa1580156125c9573d6000803e3d6000fd5b505050506040513d60208110156125df57600080fd5b505160a0820152600885018054604080516020838102820181019092528281526060939092909183018282801561263f57602002820191906000526020600020905b81546001600160a01b03168152600190910190602001808311612621575b50505050509050805185511461269c576040805162461bcd60e51b815260206004820181905260248201527f416d6f756e74732073686f756c64206d6174636820706f6f6c20746f6b656e73604482015290519081900360640190fd5b81608001516001600160a01b03166370a08231336040518263ffffffff1660e01b815260040180826001600160a01b0316815260200191505060206040518083038186803b1580156126ed57600080fd5b505afa158015612701573d6000803e3d6000fd5b505050506040513d602081101561271757600080fd5b5051841180159061272757508315155b612778576040805162461bcd60e51b815260206004820152600d60248201527f3e4c502e62616c616e63654f6600000000000000000000000000000000000000604482015290519081900360640190fd5b6000612789876004015483516137bc565b90506060825167ffffffffffffffff811180156127a557600080fd5b506040519080825280602002602001820160405280156127cf578160200160208202803683370190505b5090506060835167ffffffffffffffff811180156127ec57600080fd5b50604051908082528060200260200182016040528015612816578160200160208202803683370190505b50905061283861282e8660c001518760e00151613333565b866060015161342a565b855260005b84518110156128a55761288689828151811061285557fe5b6020026020010151604051806060016040528060238152602001614544602391398860c001518481518110610ba357fe5b82828151811061289257fe5b602090810291909101015260010161283d565b506128b761282e828760e00151613333565b602086015260005b84518110156129e4576000612900876000015161097c8960c0015185815181106128e557fe5b60200260200101518a602001516130c090919063ffffffff16565b9050600061292a84848151811061291357fe5b6020026020010151836137db90919063ffffffff16565b905061293f6402540be40061097c88846130c0565b85848151811061294b57fe5b6020026020010181815250506129836129776402540be40061097c8f6005015489888151811061155a57fe5b85858151811061157c57fe5b8c600a01848154811061299257fe5b90600052602060002001819055506129c38584815181106129af57fe5b602002602001015185858151811061157c57fe5b8484815181106129cf57fe5b602090810291909101015250506001016128bf565b506129f661282e828760e00151613333565b60408601819052855160a087015160009350612a1c9261097c9190610943908490613627565b905080612a70576040805162461bcd60e51b815260206004820152601b60248201527f4275726e7420616d6f756e742063616e6e6f74206265207a65726f0000000000604482015290519081900360640190fd5b612a94612a80610ca88b33612fbf565b61097c6402540be400610943856001613066565b905086811115612aeb576040805162461bcd60e51b815260206004820152601b60248201527f746f6b656e416d6f756e74203e206d61784275726e416d6f756e740000000000604482015290519081900360640190fd5b84608001516001600160a01b03166379cc679033836040518363ffffffff1660e01b815260040180836001600160a01b0316815260200182815260200192505050600060405180830381600087803b158015612b4657600080fd5b505af1158015612b5a573d6000803e3d6000fd5b5050505060005b8451811015612b8257612b7a338a8381518110611b6a57fe5b600101612b61565b50336001600160a01b03167f3631c28b1f9dd213e0319fb167b554d76b6c283a41143eb400a0d1adb1af17558984886020015161177d868b60a0015161362790919063ffffffff16565b600080866008018660ff1681548110612be157fe5b60009182526020918290200154604080517f70a0823100000000000000000000000000000000000000000000000000000000815233600482015290516001600160a01b03909216935083926370a0823192602480840193829003018186803b158015612c4c57600080fd5b505afa158015612c60573d6000803e3d6000fd5b505050506040513d6020811015612c7657600080fd5b5051841115612ccc576040805162461bcd60e51b815260206004820152601d60248201527f43616e6e6f742073776170206d6f7265207468616e20796f75206f776e000000604482015290519081900360640190fd5b6000816001600160a01b03166370a08231306040518263ffffffff1660e01b815260040180826001600160a01b0316815260200191505060206040518083038186803b158015612d1b57600080fd5b505afa158015612d2f573d6000803e3d6000fd5b505050506040513d6020811015612d4557600080fd5b50519050612d5e6001600160a01b038316333088613734565b612daf81836001600160a01b03166370a08231306040518263ffffffff1660e01b815260040180826001600160a01b0316815260200191505060206040518083038186803b158015610e9a57600080fd5b94505050600080606088600a01805480602002602001604051908101604052809291908181526020018280548015612e0657602002820191906000526020600020905b815481526020019060010190808311612df2575b50505050509050612e1a8989898985613180565b909350915084831015612e74576040805162461bcd60e51b815260206004820181905260248201527f53776170206469646e277420726573756c7420696e206d696e20746f6b656e73604482015290519081900360640190fd5b6000612eb68a6009018960ff1681548110612e8b57fe5b906000526020600020015461097c6402540be40061097c8e60050154886130c090919063ffffffff16565b9050612ecb87838b60ff1681518110610b3557fe5b8a600a018a60ff1681548110612edd57fe5b9060005260206000200181905550612f0881612f0286858c60ff168151811061157c57fe5b90613627565b8a600a018960ff1681548110612f1a57fe5b9060005260206000200181905550612f5b33858c6008018b60ff1681548110612f3f57fe5b6000918252602090912001546001600160a01b03169190613900565b604080518881526020810186905260ff808c16828401528a166060820152905133917fc6c1e0630dbe9130cc068028486c0d118ddcea348550819defd5cb8c257f8a38919081900360800190a2509198975050505050505050565b6402540be40081565b6001600160a01b0381166000908152600b830160205260408120548190612fe9906224ea00613066565b90504281111561305c576000612fff8242613627565b90506130536402540be40061097c6224ea0061097c856109438b600c0160008c6001600160a01b03166001600160a01b03168152602001908152602001600020548c600601546130c090919063ffffffff16565b9250505061083a565b5060009392505050565b600082820183811015610ecc576040805162461bcd60e51b815260206004820152601b60248201527f536166654d6174683a206164646974696f6e206f766572666c6f770000000000604482015290519081900360640190fd5b6000826130cf5750600061083a565b828202828482816130dc57fe5b0414610ecc5760405162461bcd60e51b81526004018080602001828103825260218152602001806144f96021913960400191505060405180910390fd5b600080821161316f576040805162461bcd60e51b815260206004820152601a60248201527f536166654d6174683a206469766973696f6e206279207a65726f000000000000604482015290519081900360640190fd5b81838161317857fe5b049392505050565b6000806060876009018054806020026020016040519081016040528092919081815260200182805480156131d357602002820191906000526020600020905b8154815260200190600101908083116131bf575b5050505050905060606131e68583613333565b905080518860ff161080156131fe575080518760ff16105b61324f576040805162461bcd60e51b815260206004820152601860248201527f546f6b656e20696e646578206f7574206f662072616e67650000000000000000604482015290519081900360640190fd5b6000613294828a60ff168151811061326357fe5b6020026020010151610976858c60ff168151811061327d57fe5b60200260200101518a6130c090919063ffffffff16565b905060006132ad6132a48c613328565b8b8b85876139fc565b90506132c76001612f0283868d60ff168151811061157c57fe5b95506132e96402540be40061097c8d60040154896130c090919063ffffffff16565b9450613318848a60ff16815181106132fd57fe5b602002602001015161097c878961362790919063ffffffff16565b9550505050509550959350505050565b600061083a82613c42565b8151815160609190811461338e576040805162461bcd60e51b815260206004820152601f60248201527f42616c616e636573206d757374206d61746368206d756c7469706c6965727300604482015290519081900360640190fd5b60608167ffffffffffffffff811180156133a757600080fd5b506040519080825280602002602001820160405280156133d1578160200160208202803683370190505b50905060005b82811015613421576134028582815181106133ee57fe5b602002602001015187838151811061155a57fe5b82828151811061340e57fe5b60209081029190910101526001016133d7565b50949350505050565b815160009081805b8281101561346a5761346086828151811061344957fe5b60200260200101518361306690919063ffffffff16565b9150600101613432565b508061347b5760009250505061083a565b6000818161348987866130c0565b905060005b610100811015613542578260005b878110156134cb576134c16134b7898d848151811061155a57fe5b61097c84886130c0565b915060010161349c565b5092935083926135196134f96134e6836109438b6001613066565b610976606461097c896109438a84613627565b61097c8661094361350a868d6130c0565b610976606461097c8b8f6130c0565b93506135258486613cd7565b15613539578397505050505050505061083a565b5060010161348e565b506040805162461bcd60e51b815260206004820152601360248201527f4420646f6573206e6f7420636f6e766572676500000000000000000000000000604482015290519081900360640190fd5b6000818484111561361f5760405162461bcd60e51b81526004018080602001828103825283818151815260200191508051906020019080838360005b838110156135e45781810151838201526020016135cc565b50505050905090810190601f1680156136115780820380516001836020036101000a031916815260200191505b509250505060405180910390fd5b505050900390565b60008282111561367e576040805162461bcd60e51b815260206004820152601e60248201527f536166654d6174683a207375627472616374696f6e206f766572666c6f770000604482015290519081900360640190fd5b50900390565b606061083a82600a018054806020026020016040519081016040528092919081815260200182805480156136d757602002820191906000526020600020905b8154815260200190600101908083116136c3575b50505050508360090180548060200260200160405190810160405280929190818152602001828054801561372a57602002820191906000526020600020905b815481526020019060010190808311613716575b5050505050613333565b604080516001600160a01b0380861660248301528416604482015260648082018490528251808303909101815260849091019091526020810180517bffffffffffffffffffffffffffffffffffffffffffffffffffffffff167f23b872dd00000000000000000000000000000000000000000000000000000000179052611dd6908590613cee565b6000610ecc6137d16004610943856001613627565b61097c85856130c0565b6000818311156137ee575080820361083a565b500390565b60608183111561384a576040805162461bcd60e51b815260206004820152601a60248201527f43616e6e6f742065786365656420746f74616c20737570706c79000000000000604482015290519081900360640190fd5b600061386c6402540be40061097c613865610ca88b8a612fbf565b87906130c0565b90506060865167ffffffffffffffff8111801561388857600080fd5b506040519080825280602002602001820160405280156138b2578160200160208202803683370190505b50905060005b87518110156138f4576138d58561097c858b858151811061155a57fe5b8282815181106138e157fe5b60209081029190910101526001016138b8565b50979650505050505050565b604080516001600160a01b038416602482015260448082018490528251808303909101815260649091019091526020810180517bffffffffffffffffffffffffffffffffffffffffffffffffffffffff167fa9059cbb000000000000000000000000000000000000000000000000000000001790526109be908490613cee565b60008060008060006139948a888a89613d9f565b80935081945082955050505060006139d184612f028d6009018b60ff16815481106139bb57fe5b60009182526020909120015461097c8688613627565b90506139ec6402540be40061097c613865610ca88f8f612fbf565b9b909a5098505050505050505050565b805160009060ff8681169086161415613a5c576040805162461bcd60e51b815260206004820152601d60248201527f43616e277420636f6d7061726520746f6b656e20746f20697473656c66000000604482015290519081900360640190fd5b808660ff16108015613a705750808560ff16105b613ac1576040805162461bcd60e51b815260206004820152601660248201527f546f6b656e73206d75737420626520696e20706f6f6c00000000000000000000604482015290519081900360640190fd5b6000613acd848961342a565b905080600080613add858c6130c0565b90506000805b86811015613b56578b60ff16811415613afe57899150613b28565b8a60ff168114613b2357888181518110613b1457fe5b60200260200101519150613b28565b613b4e565b613b328483613066565b9350613b4b613b4183896130c0565b61097c87896130c0565b94505b600101613ae3565b50613b73613b6483886130c0565b61097c6064610943888a6130c0565b93506000613b90613b898461097c8960646130c0565b8590613066565b9050600086815b610100811015613bf4579091508190613bca613bbc8a612f02876109768760026130c0565b61097c8a61097686806130c0565b9150613bd68284613cd7565b15613bec57509850610ccb975050505050505050565b600101613b97565b506040805162461bcd60e51b815260206004820152601e60248201527f417070726f78696d6174696f6e20646964206e6f7420636f6e76657267650000604482015290519081900360640190fd5b600381015460018201546000919042821115613cce576002840154845480831115613ca057613c95613c8e613c778685613627565b61097c613c844287613627565b6109438887613627565b8290613066565b945050505050610da6565b613c95613cc7613cb08685613627565b61097c613cbd4287613627565b6109438689613627565b8290613627565b9150610da69050565b60006001613ce584846137db565b11159392505050565b6060613d43826040518060400160405280602081526020017f5361666545524332303a206c6f772d6c6576656c2063616c6c206661696c6564815250856001600160a01b031661409a9092919063ffffffff16565b8051909150156109be57808060200190516020811015613d6257600080fd5b50516109be5760405162461bcd60e51b815260040180806020018281038252602a81526020018061451a602a913960400191505060405180910390fd5b60008060006060613daf88613684565b905080518760ff1610613e09576040805162461bcd60e51b815260206004820152601860248201527f546f6b656e20696e646578206f7574206f662072616e67650000000000000000604482015290519081900360640190fd5b613e1161448e565b6040518060a001604052806000815260200160008152602001600081526020016000815260200160008152509050613e4889613328565b60808201819052613e5a90839061342a565b808252613e7a90613e7290889061097c908b906130c0565b825190613627565b60208201528151829060ff8a16908110613e9057fe5b6020026020010151871115613eec576040805162461bcd60e51b815260206004820152601a60248201527f5769746864726177206578636565647320617661696c61626c65000000000000604482015290519081900360640190fd5b613f008160800151898484602001516140a9565b6040820152815160609067ffffffffffffffff81118015613f2057600080fd5b50604051908082528060200260200182016040528015613f4a578160200160208202803683370190505b509050613f5c8a6004015484516137bc565b606083015260005b8351811015614010576000848281518110613f7b57fe5b60200260200101519050613ff0613cc76402540be40061097c87606001518f60ff168714613fc957885160208a0151613fc491613fbd9161097c908a906130c0565b8790613627565b610943565b6109438960400151612f028b6000015161097c8d602001518b6130c090919063ffffffff16565b838381518110613ffc57fe5b602090810291909101015250600101613f64565b50600061403961402a84608001518c8587602001516140a9565b838c60ff168151811061157c57fe5b90506140678b6009018b60ff168154811061405057fe5b60009182526020909120015461097c836001613627565b9050808360400151858c60ff168151811061407e57fe5b6020026020010151965096509650505050509450945094915050565b6060611cb7848460008561420f565b815160009060ff85168111614105576040805162461bcd60e51b815260206004820152600f60248201527f546f6b656e206e6f7420666f756e640000000000000000000000000000000000604482015290519081900360640190fd5b8260008061411389856130c0565b905060005b8481101561417a578860ff1681146141725761415088828151811061413957fe5b60200260200101518461306690919063ffffffff16565b925061416f614165868a848151811061155a57fe5b61097c868a6130c0565b93505b600101614118565b5061419761418882866130c0565b61097c6064610943878b6130c0565b925060006141ad6120738361097c8a60646130c0565b9050600087815b610100811015613bf45790915081906141e76141d98b612f02876109768760026130c0565b61097c8961097686806130c0565b91506141f38284613cd7565b1561420757509650611cb795505050505050565b6001016141b4565b6060824710156142505760405162461bcd60e51b81526004018080602001828103825260268152602001806144d36026913960400191505060405180910390fd5b61425985614389565b6142aa576040805162461bcd60e51b815260206004820152601d60248201527f416464726573733a2063616c6c20746f206e6f6e2d636f6e7472616374000000604482015290519081900360640190fd5b60006060866001600160a01b031685876040518082805190602001908083835b6020831061430757805182527fffffffffffffffffffffffffffffffffffffffffffffffffffffffffffffffe090920191602091820191016142ca565b6001836020036101000a03801982511681845116808217855250505050505090500191505060006040518083038185875af1925050503d8060008114614369576040519150601f19603f3d011682016040523d82523d6000602084013e61436e565b606091505b509150915061437e82828661438f565b979650505050505050565b3b151590565b6060831561439e575081610ecc565b8251156143ae5782518084602001fd5b60405162461bcd60e51b81526020600482018181528451602484015284518593919283926044019190850190808383600083156135e45781810151838201526020016135cc565b6040518061010001604052806000815260200160008152602001600081526020016000815260200160006001600160a01b031681526020016000815260200160608152602001606081525090565b82805482825590600052602060002090810192821561447e579160200282015b8281111561447e578251825591602001919060010190614463565b5061448a9291506144bd565b5090565b6040518060a0016040528060008152602001600081526020016000815260200160008152602001600081525090565b5b8082111561448a57600081556001016144be56fe416464726573733a20696e73756666696369656e742062616c616e636520666f722063616c6c536166654d6174683a206d756c7469706c69636174696f6e206f766572666c6f775361666545524332303a204552433230206f7065726174696f6e20646964206e6f74207375636365656443616e6e6f74207769746864726177206d6f7265207468616e20617661696c61626c65a2646970667358221220d087564c678cb31313e384620f2caf79e8e75252c08bdffecfa3ac7ea85eda7a64736f6c634300060c0033",
  "devdoc": {
    "details": "Contracts relying on this library must initialize SwapUtils.Swap struct then use this library for SwapUtils.Swap struct. Note that this library contains both functions called by users and admins. Admin functions should be protected within contracts using this library.",
    "kind": "dev",
    "methods": {
      "addLiquidity(SwapUtilsV1.Swap storage,uint256[],uint256)": {
        "params": {
          "amounts": "the amounts of each token to add, in their native precision",
          "minToMint": "the minimum LP tokens adding this amount of liquidity should mint, otherwise revert. Handy for front-running mitigation allowed addresses. If the pool is not in the guarded launch phase, this parameter will be ignored.",
          "self": "Swap struct to read from and write to"
        },
        "returns": {
          "_0": "amount of LP token user received"
        }
      },
      "calculateCurrentWithdrawFee(SwapUtilsV1.Swap storage,address)": {
        "params": {
          "user": "address you want to calculate withdraw fee of"
        },
        "returns": {
          "_0": "current withdraw fee of the user"
        }
      },
      "calculateRemoveLiquidity(SwapUtilsV1.Swap storage,address,uint256)": {
        "params": {
          "account": "the address that is removing liquidity. required for withdraw fee calculation",
          "amount": "the amount of LP tokens that would to be burned on withdrawal"
        },
        "returns": {
          "_0": "array of amounts of tokens user will receive"
        }
      },
      "calculateSwap(SwapUtilsV1.Swap storage,uint8,uint8,uint256)": {
        "params": {
          "dx": "the number of tokens to sell. If the token charges a fee on transfers, use the amount that gets transferred after the fee.",
          "self": "Swap struct to read from",
          "tokenIndexFrom": "the token to sell",
          "tokenIndexTo": "the token to buy"
        },
        "returns": {
          "dy": "the number of tokens the user will get"
        }
      },
      "calculateTokenAmount(SwapUtilsV1.Swap storage,address,uint256[],bool)": {
        "details": "This shouldn't be used outside frontends for user estimates.",
        "params": {
          "account": "address of the account depositing or withdrawing tokens",
          "amounts": "an array of token amounts to deposit or withdrawal, corresponding to pooledTokens. The amount should be in each pooled token's native precision. If a token charges a fee on transfers, use the amount that gets transferred after the fee.",
          "deposit": "whether this is a deposit or a withdrawal",
          "self": "Swap struct to read from"
        },
        "returns": {
          "_0": "if deposit was true, total amount of lp token that will be minted and if deposit was false, total amount of lp token that will be burned"
        }
      },
      "calculateWithdrawOneToken(SwapUtilsV1.Swap storage,address,uint256,uint8)": {
        "params": {
          "account": "the address that is withdrawing",
          "self": "Swap struct to read from",
          "tokenAmount": "the amount to withdraw in the pool's precision",
          "tokenIndex": "which token will be withdrawn"
        },
        "returns": {
          "_0": "the amount of token user will receive"
        }
      },
      "getAdminBalance(SwapUtilsV1.Swap storage,uint256)": {
        "params": {
          "index": "Index of the pooled token",
          "self": "Swap struct to read from"
        },
        "returns": {
          "_0": "admin balance in the token's precision"
        }
      },
      "getDepositTimestamp(SwapUtilsV1.Swap storage,address)": {
        "params": {
          "self": "Swap struct to read from"
        },
        "returns": {
          "_0": "timestamp of last deposit"
        }
      },
      "getVirtualPrice(SwapUtilsV1.Swap storage)": {
        "params": {
          "self": "Swap struct to read from"
        },
        "returns": {
          "_0": "the virtual price, scaled to precision of POOL_PRECISION_DECIMALS"
        }
      },
      "removeLiquidity(SwapUtilsV1.Swap storage,uint256,uint256[])": {
        "details": "Liquidity can always be removed, even when the pool is paused.",
        "params": {
          "amount": "the amount of LP tokens to burn",
          "minAmounts": "the minimum amounts of each token in the pool acceptable for this burn. Useful as a front-running mitigation",
          "self": "Swap struct to read from and write to"
        },
        "returns": {
          "_0": "amounts of tokens the user received"
        }
      },
      "removeLiquidityImbalance(SwapUtilsV1.Swap storage,uint256[],uint256)": {
        "params": {
          "amounts": "how much of each token to withdraw",
          "maxBurnAmount": "the max LP token provider is willing to pay to remove liquidity. Useful as a front-running mitigation.",
          "self": "Swap struct to read from and write to"
        },
        "returns": {
          "_0": "actual amount of LP tokens burned in the withdrawal"
        }
      },
      "removeLiquidityOneToken(SwapUtilsV1.Swap storage,uint256,uint8,uint256)": {
        "params": {
          "minAmount": "the minimum amount to withdraw, otherwise revert",
          "self": "Swap struct to read from and write to",
          "tokenAmount": "the amount of the lp tokens to burn",
          "tokenIndex": "the index of the token you want to receive"
        },
        "returns": {
          "_0": "amount chosen token that user received"
        }
      },
      "setAdminFee(SwapUtilsV1.Swap storage,uint256)": {
        "details": "adminFee cannot be higher than 100% of the swap fee",
        "params": {
          "newAdminFee": "new admin fee to be applied on future transactions",
          "self": "Swap struct to update"
        }
      },
      "setDefaultWithdrawFee(SwapUtilsV1.Swap storage,uint256)": {
        "params": {
          "newWithdrawFee": "new withdraw fee to be applied",
          "self": "Swap struct to update"
        }
      },
      "setSwapFee(SwapUtilsV1.Swap storage,uint256)": {
        "details": "fee cannot be higher than 1% of each swap",
        "params": {
          "newSwapFee": "new swap fee to be applied on future transactions",
          "self": "Swap struct to update"
        }
      },
      "swap(SwapUtilsV1.Swap storage,uint8,uint8,uint256,uint256)": {
        "params": {
          "dx": "the amount of tokens the user wants to sell",
          "minDy": "the min amount the user would like to receive, or revert.",
          "self": "Swap struct to read from and write to",
          "tokenIndexFrom": "the token the user wants to sell",
          "tokenIndexTo": "the token the user wants to buy"
        },
        "returns": {
          "_0": "amount of token user received on swap"
        }
      },
      "updateUserWithdrawFee(SwapUtilsV1.Swap storage,address,uint256)": {
        "params": {
          "self": "Swap struct to read from and write to",
          "toMint": "amount of pool tokens to be minted",
          "user": "address of the user depositing tokens"
        }
      },
      "withdrawAdminFees(SwapUtilsV1.Swap storage,address)": {
        "params": {
          "self": "Swap struct to withdraw fees from",
          "to": "Address to send the fees to"
        }
      }
    },
    "title": "SwapUtils library",
    "version": 1
  },
  "userdoc": {
    "kind": "user",
    "methods": {
      "addLiquidity(SwapUtilsV1.Swap storage,uint256[],uint256)": {
        "notice": "Add liquidity to the pool"
      },
      "calculateCurrentWithdrawFee(SwapUtilsV1.Swap storage,address)": {
        "notice": "Calculate the fee that is applied when the given user withdraws. Withdraw fee decays linearly over WITHDRAW_FEE_DECAY_TIME."
      },
      "calculateRemoveLiquidity(SwapUtilsV1.Swap storage,address,uint256)": {
        "notice": "A simple method to calculate amount of each underlying tokens that is returned upon burning given amount of LP tokens"
      },
      "calculateSwap(SwapUtilsV1.Swap storage,uint8,uint8,uint256)": {
        "notice": "Externally calculates a swap between two tokens."
      },
      "calculateTokenAmount(SwapUtilsV1.Swap storage,address,uint256[],bool)": {
        "notice": "A simple method to calculate prices from deposits or withdrawals, excluding fees but including slippage. This is helpful as an input into the various \"min\" parameters on calls to fight front-running"
      },
      "calculateWithdrawOneToken(SwapUtilsV1.Swap storage,address,uint256,uint8)": {
        "notice": "Calculate the dy, the amount of selected token that user receives and the fee of withdrawing in one token"
      },
      "getAdminBalance(SwapUtilsV1.Swap storage,uint256)": {
        "notice": "return accumulated amount of admin fees of the token with given index"
      },
      "getDepositTimestamp(SwapUtilsV1.Swap storage,address)": {
        "notice": "Retrieves the timestamp of last deposit made by the given address"
      },
      "getVirtualPrice(SwapUtilsV1.Swap storage)": {
        "notice": "Get the virtual price, to help calculate profit"
      },
      "removeLiquidity(SwapUtilsV1.Swap storage,uint256,uint256[])": {
        "notice": "Burn LP tokens to remove liquidity from the pool."
      },
      "removeLiquidityImbalance(SwapUtilsV1.Swap storage,uint256[],uint256)": {
        "notice": "Remove liquidity from the pool, weighted differently than the pool's current balances."
      },
      "removeLiquidityOneToken(SwapUtilsV1.Swap storage,uint256,uint8,uint256)": {
        "notice": "Remove liquidity from the pool all in one token."
      },
      "setAdminFee(SwapUtilsV1.Swap storage,uint256)": {
        "notice": "Sets the admin fee"
      },
      "setDefaultWithdrawFee(SwapUtilsV1.Swap storage,uint256)": {
        "notice": "update the default withdraw fee. This also affects deposits made in the past as well."
      },
      "setSwapFee(SwapUtilsV1.Swap storage,uint256)": {
        "notice": "update the swap fee"
      },
      "swap(SwapUtilsV1.Swap storage,uint8,uint8,uint256,uint256)": {
        "notice": "swap two tokens in the pool"
      },
      "updateUserWithdrawFee(SwapUtilsV1.Swap storage,address,uint256)": {
        "notice": "Update the withdraw fee for `user`. If the user is currently not providing liquidity in the pool, sets to default value. If not, recalculate the starting withdraw fee based on the last deposit's time & amount relative to the new deposit."
      },
      "withdrawAdminFees(SwapUtilsV1.Swap storage,address)": {
        "notice": "withdraw all admin fees to a given address"
      }
    },
    "notice": "A library to be used within Swap.sol. Contains functions responsible for custody and AMM functionalities.",
    "version": 1
  },
  "storageLayout": {
    "storage": [],
    "types": null
  }
}