{
  "address": "0xd82410a4A52f90d1E3d3d58a104304c628AfE609",
  "abi": [
    {
      "anonymous": false,
      "inputs": [
        {
          "indexed": true,
          "internalType": "address",
          "name": "provider",
          "type": "address"
        },
        {
          "indexed": false,
          "internalType": "uint256[]",
          "name": "tokenAmounts",
          "type": "uint256[]"
        },
        {
          "indexed": false,
          "internalType": "uint256[]",
          "name": "fees",
          "type": "uint256[]"
        },
        {
          "indexed": false,
          "internalType": "uint256",
          "name": "invariant",
          "type": "uint256"
        },
        {
          "indexed": false,
          "internalType": "uint256",
          "name": "lpTokenSupply",
          "type": "uint256"
        }
      ],
      "name": "AddLiquidity",
      "type": "event"
    },
    {
      "anonymous": false,
      "inputs": [
        {
          "indexed": false,
          "internalType": "uint256",
          "name": "newAdminFee",
          "type": "uint256"
        }
      ],
      "name": "NewAdminFee",
      "type": "event"
    },
    {
      "anonymous": false,
      "inputs": [
        {
          "indexed": false,
          "internalType": "uint256",
          "name": "newSwapFee",
          "type": "uint256"
        }
      ],
      "name": "NewSwapFee",
      "type": "event"
    },
    {
      "anonymous": false,
      "inputs": [
        {
          "indexed": false,
          "internalType": "uint256",
          "name": "newWithdrawFee",
          "type": "uint256"
        }
      ],
      "name": "NewWithdrawFee",
      "type": "event"
    },
    {
      "anonymous": false,
      "inputs": [
        {
          "indexed": true,
          "internalType": "address",
          "name": "previousOwner",
          "type": "address"
        },
        {
          "indexed": true,
          "internalType": "address",
          "name": "newOwner",
          "type": "address"
        }
      ],
      "name": "OwnershipTransferred",
      "type": "event"
    },
    {
      "anonymous": false,
      "inputs": [
        {
          "indexed": false,
          "internalType": "address",
          "name": "account",
          "type": "address"
        }
      ],
      "name": "Paused",
      "type": "event"
    },
    {
      "anonymous": false,
      "inputs": [
        {
          "indexed": false,
          "internalType": "uint256",
          "name": "oldA",
          "type": "uint256"
        },
        {
          "indexed": false,
          "internalType": "uint256",
          "name": "newA",
          "type": "uint256"
        },
        {
          "indexed": false,
          "internalType": "uint256",
          "name": "initialTime",
          "type": "uint256"
        },
        {
          "indexed": false,
          "internalType": "uint256",
          "name": "futureTime",
          "type": "uint256"
        }
      ],
      "name": "RampA",
      "type": "event"
    },
    {
      "anonymous": false,
      "inputs": [
        {
          "indexed": true,
          "internalType": "address",
          "name": "provider",
          "type": "address"
        },
        {
          "indexed": false,
          "internalType": "uint256[]",
          "name": "tokenAmounts",
          "type": "uint256[]"
        },
        {
          "indexed": false,
          "internalType": "uint256",
          "name": "lpTokenSupply",
          "type": "uint256"
        }
      ],
      "name": "RemoveLiquidity",
      "type": "event"
    },
    {
      "anonymous": false,
      "inputs": [
        {
          "indexed": true,
          "internalType": "address",
          "name": "provider",
          "type": "address"
        },
        {
          "indexed": false,
          "internalType": "uint256[]",
          "name": "tokenAmounts",
          "type": "uint256[]"
        },
        {
          "indexed": false,
          "internalType": "uint256[]",
          "name": "fees",
          "type": "uint256[]"
        },
        {
          "indexed": false,
          "internalType": "uint256",
          "name": "invariant",
          "type": "uint256"
        },
        {
          "indexed": false,
          "internalType": "uint256",
          "name": "lpTokenSupply",
          "type": "uint256"
        }
      ],
      "name": "RemoveLiquidityImbalance",
      "type": "event"
    },
    {
      "anonymous": false,
      "inputs": [
        {
          "indexed": true,
          "internalType": "address",
          "name": "provider",
          "type": "address"
        },
        {
          "indexed": false,
          "internalType": "uint256",
          "name": "lpTokenAmount",
          "type": "uint256"
        },
        {
          "indexed": false,
          "internalType": "uint256",
          "name": "lpTokenSupply",
          "type": "uint256"
        },
        {
          "indexed": false,
          "internalType": "uint256",
          "name": "boughtId",
          "type": "uint256"
        },
        {
          "indexed": false,
          "internalType": "uint256",
          "name": "tokensBought",
          "type": "uint256"
        }
      ],
      "name": "RemoveLiquidityOne",
      "type": "event"
    },
    {
      "anonymous": false,
      "inputs": [
        {
          "indexed": false,
          "internalType": "uint256",
          "name": "currentA",
          "type": "uint256"
        },
        {
          "indexed": false,
          "internalType": "uint256",
          "name": "time",
          "type": "uint256"
        }
      ],
      "name": "StopRampA",
      "type": "event"
    },
    {
      "anonymous": false,
      "inputs": [
        {
          "indexed": true,
          "internalType": "address",
          "name": "buyer",
          "type": "address"
        },
        {
          "indexed": false,
          "internalType": "uint256",
          "name": "tokensSold",
          "type": "uint256"
        },
        {
          "indexed": false,
          "internalType": "uint256",
          "name": "tokensBought",
          "type": "uint256"
        },
        {
          "indexed": false,
          "internalType": "uint128",
          "name": "soldId",
          "type": "uint128"
        },
        {
          "indexed": false,
          "internalType": "uint128",
          "name": "boughtId",
          "type": "uint128"
        }
      ],
      "name": "TokenSwap",
      "type": "event"
    },
    {
      "anonymous": false,
      "inputs": [
        {
          "indexed": false,
          "internalType": "address",
          "name": "account",
          "type": "address"
        }
      ],
      "name": "Unpaused",
      "type": "event"
    },
    {
      "inputs": [
        {
          "internalType": "uint256[]",
          "name": "amounts",
          "type": "uint256[]"
        },
        {
          "internalType": "uint256",
          "name": "minToMint",
          "type": "uint256"
        },
        {
          "internalType": "uint256",
          "name": "deadline",
          "type": "uint256"
        }
      ],
      "name": "addLiquidity",
      "outputs": [
        {
          "internalType": "uint256",
          "name": "",
          "type": "uint256"
        }
      ],
      "stateMutability": "nonpayable",
      "type": "function"
    },
    {
      "inputs": [
        {
          "internalType": "uint256",
          "name": "amount",
          "type": "uint256"
        }
      ],
      "name": "calculateRemoveLiquidity",
      "outputs": [
        {
          "internalType": "uint256[]",
          "name": "",
          "type": "uint256[]"
        }
      ],
      "stateMutability": "view",
      "type": "function"
    },
    {
      "inputs": [
        {
          "internalType": "uint256",
          "name": "tokenAmount",
          "type": "uint256"
        },
        {
          "internalType": "uint8",
          "name": "tokenIndex",
          "type": "uint8"
        }
      ],
      "name": "calculateRemoveLiquidityOneToken",
      "outputs": [
        {
          "internalType": "uint256",
          "name": "availableTokenAmount",
          "type": "uint256"
        }
      ],
      "stateMutability": "view",
      "type": "function"
    },
    {
      "inputs": [
        {
          "internalType": "uint8",
          "name": "tokenIndexFrom",
          "type": "uint8"
        },
        {
          "internalType": "uint8",
          "name": "tokenIndexTo",
          "type": "uint8"
        },
        {
          "internalType": "uint256",
          "name": "dx",
          "type": "uint256"
        }
      ],
      "name": "calculateSwap",
      "outputs": [
        {
          "internalType": "uint256",
          "name": "",
          "type": "uint256"
        }
      ],
      "stateMutability": "view",
      "type": "function"
    },
    {
      "inputs": [
        {
          "internalType": "uint256[]",
          "name": "amounts",
          "type": "uint256[]"
        },
        {
          "internalType": "bool",
          "name": "deposit",
          "type": "bool"
        }
      ],
      "name": "calculateTokenAmount",
      "outputs": [
        {
          "internalType": "uint256",
          "name": "",
          "type": "uint256"
        }
      ],
      "stateMutability": "view",
      "type": "function"
    },
    {
      "inputs": [],
      "name": "getA",
      "outputs": [
        {
          "internalType": "uint256",
          "name": "",
          "type": "uint256"
        }
      ],
      "stateMutability": "view",
      "type": "function"
    },
    {
      "inputs": [],
      "name": "getAPrecise",
      "outputs": [
        {
          "internalType": "uint256",
          "name": "",
          "type": "uint256"
        }
      ],
      "stateMutability": "view",
      "type": "function"
    },
    {
      "inputs": [
        {
          "internalType": "uint256",
          "name": "index",
          "type": "uint256"
        }
      ],
      "name": "getAdminBalance",
      "outputs": [
        {
          "internalType": "uint256",
          "name": "",
          "type": "uint256"
        }
      ],
      "stateMutability": "view",
      "type": "function"
    },
    {
      "inputs": [
        {
          "internalType": "uint8",
          "name": "index",
          "type": "uint8"
        }
      ],
      "name": "getToken",
      "outputs": [
        {
          "internalType": "contract IERC20",
          "name": "",
          "type": "address"
        }
      ],
      "stateMutability": "view",
      "type": "function"
    },
    {
      "inputs": [
        {
          "internalType": "uint8",
          "name": "index",
          "type": "uint8"
        }
      ],
      "name": "getTokenBalance",
      "outputs": [
        {
          "internalType": "uint256",
          "name": "",
          "type": "uint256"
        }
      ],
      "stateMutability": "view",
      "type": "function"
    },
    {
      "inputs": [
        {
          "internalType": "address",
          "name": "tokenAddress",
          "type": "address"
        }
      ],
      "name": "getTokenIndex",
      "outputs": [
        {
          "internalType": "uint8",
          "name": "",
          "type": "uint8"
        }
      ],
      "stateMutability": "view",
      "type": "function"
    },
    {
      "inputs": [],
      "name": "getVirtualPrice",
      "outputs": [
        {
          "internalType": "uint256",
          "name": "",
          "type": "uint256"
        }
      ],
      "stateMutability": "view",
      "type": "function"
    },
    {
      "inputs": [
        {
          "internalType": "contract IERC20[]",
          "name": "_pooledTokens",
          "type": "address[]"
        },
        {
          "internalType": "uint8[]",
          "name": "decimals",
          "type": "uint8[]"
        },
        {
          "internalType": "string",
          "name": "lpTokenName",
          "type": "string"
        },
        {
          "internalType": "string",
          "name": "lpTokenSymbol",
          "type": "string"
        },
        {
          "internalType": "uint256",
          "name": "_a",
          "type": "uint256"
        },
        {
          "internalType": "uint256",
          "name": "_fee",
          "type": "uint256"
        },
        {
          "internalType": "uint256",
          "name": "_adminFee",
          "type": "uint256"
        },
        {
          "internalType": "address",
          "name": "lpTokenTargetAddress",
          "type": "address"
        }
      ],
      "name": "initialize",
      "outputs": [],
      "stateMutability": "nonpayable",
      "type": "function"
    },
    {
      "inputs": [],
      "name": "owner",
      "outputs": [
        {
          "internalType": "address",
          "name": "",
          "type": "address"
        }
      ],
      "stateMutability": "view",
      "type": "function"
    },
    {
      "inputs": [],
      "name": "pause",
      "outputs": [],
      "stateMutability": "nonpayable",
      "type": "function"
    },
    {
      "inputs": [],
      "name": "paused",
      "outputs": [
        {
          "internalType": "bool",
          "name": "",
          "type": "bool"
        }
      ],
      "stateMutability": "view",
      "type": "function"
    },
    {
      "inputs": [
        {
          "internalType": "uint256",
          "name": "futureA",
          "type": "uint256"
        },
        {
          "internalType": "uint256",
          "name": "futureTime",
          "type": "uint256"
        }
      ],
      "name": "rampA",
      "outputs": [],
      "stateMutability": "nonpayable",
      "type": "function"
    },
    {
      "inputs": [
        {
          "internalType": "uint256",
          "name": "amount",
          "type": "uint256"
        },
        {
          "internalType": "uint256[]",
          "name": "minAmounts",
          "type": "uint256[]"
        },
        {
          "internalType": "uint256",
          "name": "deadline",
          "type": "uint256"
        }
      ],
      "name": "removeLiquidity",
      "outputs": [
        {
          "internalType": "uint256[]",
          "name": "",
          "type": "uint256[]"
        }
      ],
      "stateMutability": "nonpayable",
      "type": "function"
    },
    {
      "inputs": [
        {
          "internalType": "uint256[]",
          "name": "amounts",
          "type": "uint256[]"
        },
        {
          "internalType": "uint256",
          "name": "maxBurnAmount",
          "type": "uint256"
        },
        {
          "internalType": "uint256",
          "name": "deadline",
          "type": "uint256"
        }
      ],
      "name": "removeLiquidityImbalance",
      "outputs": [
        {
          "internalType": "uint256",
          "name": "",
          "type": "uint256"
        }
      ],
      "stateMutability": "nonpayable",
      "type": "function"
    },
    {
      "inputs": [
        {
          "internalType": "uint256",
          "name": "tokenAmount",
          "type": "uint256"
        },
        {
          "internalType": "uint8",
          "name": "tokenIndex",
          "type": "uint8"
        },
        {
          "internalType": "uint256",
          "name": "minAmount",
          "type": "uint256"
        },
        {
          "internalType": "uint256",
          "name": "deadline",
          "type": "uint256"
        }
      ],
      "name": "removeLiquidityOneToken",
      "outputs": [
        {
          "internalType": "uint256",
          "name": "",
          "type": "uint256"
        }
      ],
      "stateMutability": "nonpayable",
      "type": "function"
    },
    {
      "inputs": [],
      "name": "renounceOwnership",
      "outputs": [],
      "stateMutability": "nonpayable",
      "type": "function"
    },
    {
      "inputs": [
        {
          "internalType": "uint256",
          "name": "newAdminFee",
          "type": "uint256"
        }
      ],
      "name": "setAdminFee",
      "outputs": [],
      "stateMutability": "nonpayable",
      "type": "function"
    },
    {
      "inputs": [
        {
          "internalType": "uint256",
          "name": "newSwapFee",
          "type": "uint256"
        }
      ],
      "name": "setSwapFee",
      "outputs": [],
      "stateMutability": "nonpayable",
      "type": "function"
    },
    {
      "inputs": [],
      "name": "stopRampA",
      "outputs": [],
      "stateMutability": "nonpayable",
      "type": "function"
    },
    {
      "inputs": [
        {
          "internalType": "uint8",
          "name": "tokenIndexFrom",
          "type": "uint8"
        },
        {
          "internalType": "uint8",
          "name": "tokenIndexTo",
          "type": "uint8"
        },
        {
          "internalType": "uint256",
          "name": "dx",
          "type": "uint256"
        },
        {
          "internalType": "uint256",
          "name": "minDy",
          "type": "uint256"
        },
        {
          "internalType": "uint256",
          "name": "deadline",
          "type": "uint256"
        }
      ],
      "name": "swap",
      "outputs": [
        {
          "internalType": "uint256",
          "name": "",
          "type": "uint256"
        }
      ],
      "stateMutability": "nonpayable",
      "type": "function"
    },
    {
      "inputs": [],
      "name": "swapStorage",
      "outputs": [
        {
          "internalType": "uint256",
          "name": "initialA",
          "type": "uint256"
        },
        {
          "internalType": "uint256",
          "name": "futureA",
          "type": "uint256"
        },
        {
          "internalType": "uint256",
          "name": "initialATime",
          "type": "uint256"
        },
        {
          "internalType": "uint256",
          "name": "futureATime",
          "type": "uint256"
        },
        {
          "internalType": "uint256",
          "name": "swapFee",
          "type": "uint256"
        },
        {
          "internalType": "uint256",
          "name": "adminFee",
          "type": "uint256"
        },
        {
          "internalType": "contract LPToken",
          "name": "lpToken",
          "type": "address"
        }
      ],
      "stateMutability": "view",
      "type": "function"
    },
    {
      "inputs": [
        {
          "internalType": "address",
          "name": "newOwner",
          "type": "address"
        }
      ],
      "name": "transferOwnership",
      "outputs": [],
      "stateMutability": "nonpayable",
      "type": "function"
    },
    {
      "inputs": [],
      "name": "unpause",
      "outputs": [],
      "stateMutability": "nonpayable",
      "type": "function"
    },
    {
      "inputs": [],
      "name": "withdrawAdminFees",
      "outputs": [],
      "stateMutability": "nonpayable",
      "type": "function"
    }
  ],
  "transactionHash": "0x6e9ebd29e7d81e4f4a3c08a509991f2bf22cb0b3574cb9f66d235090901d0557",
  "args": [],
  "solcInputHash": "8f41ed0bf5ed398a2f798685730bd171",
  "bytecode": "0x608060405234801561001057600080fd5b506133f6806100206000396000f3fe608060405234801561001057600080fd5b50600436106101cf5760003560e01c80638456cb5911610104578063b28cb6dc116100a2578063e6ab280611610071578063e6ab280614610885578063ef0a712f146108f7578063f2fad2b614610914578063f2fde38b14610931576101cf565b8063b28cb6dc14610610578063c4db7fa01461086d578063d46300fd14610875578063e25aa5fa1461087d576101cf565b80638da5cb5b116100de5780638da5cb5b1461057c578063916955861461058457806391ceb3eb146105c0578063a95b089f146105e0576101cf565b80638456cb59146104e157806384cdd9bc146104e95780638beb60b61461055f576101cf565b80634d49e87d116101715780635fd65f0f1161014b5780635fd65f0f146103f157806366c0bd2414610447578063715018a61461049057806382b8660014610498576101cf565b80634d49e87d1461033c578063593d132c146103b25780635c975abb146103d5576101cf565b8063342a87a1116101ad578063342a87a1146102bf57806334e19907146102e55780633e3a1560146103025780633f4ba83a14610334576101cf565b80630419b45a146101d45780630ba81959146101de57806331cd52b0146101f8575b600080fd5b6101dc610964565b005b6101e6610a81565b60408051918252519081900360200190f35b61026f6004803603606081101561020e57600080fd5b8135919081019060408101602082013564010000000081111561023057600080fd5b82018360208201111561024257600080fd5b8035906020019184602083028401116401000000008311171561026457600080fd5b919350915035610b06565b60408051602080825283518183015283519192839290830191858101910280838360005b838110156102ab578181015183820152602001610293565b505050509050019250505060405180910390f35b6101e6600480360360408110156102d557600080fd5b508035906020013560ff16610d43565b6101dc600480360360208110156102fb57600080fd5b5035610df7565b6101e66004803603608081101561031857600080fd5b5080359060ff6020820135169060408101359060600135610f12565b6101dc6110de565b6101e66004803603606081101561035257600080fd5b81019060208101813564010000000081111561036d57600080fd5b82018360208201111561037f57600080fd5b803590602001918460208302840111640100000000831117156103a157600080fd5b919350915080359060200135611176565b6101dc600480360360408110156103c857600080fd5b5080359060200135611316565b6103dd611439565b604080519115158252519081900360200190f35b6103f9611442565b604080519788526020880196909652868601949094526060860192909252608085015260a084015273ffffffffffffffffffffffffffffffffffffffff1660c0830152519081900360e00190f35b61047a6004803603602081101561045d57600080fd5b503573ffffffffffffffffffffffffffffffffffffffff16611470565b6040805160ff9092168252519081900360200190f35b6101dc611517565b6104b8600480360360208110156104ae57600080fd5b503560ff16611614565b6040805173ffffffffffffffffffffffffffffffffffffffff9092168252519081900360200190f35b6101dc6116a9565b6101e6600480360360608110156104ff57600080fd5b81019060208101813564010000000081111561051a57600080fd5b82018360208201111561052c57600080fd5b8035906020019184602083028401116401000000008311171561054e57600080fd5b91935091508035906020013561173f565b6101dc6004803603602081101561057557600080fd5b50356118df565b6104b86119df565b6101e6600480360360a081101561059a57600080fd5b5060ff8135811691602081013590911690604081013590606081013590608001356119fb565b6101e6600480360360208110156105d657600080fd5b503560ff16611bd0565b6101e6600480360360608110156105f657600080fd5b5060ff813581169160208101359091169060400135611c4f565b6101dc600480360361010081101561062757600080fd5b81019060208101813564010000000081111561064257600080fd5b82018360208201111561065457600080fd5b8035906020019184602083028401116401000000008311171561067657600080fd5b91908080602002602001604051908101604052809392919081815260200183836020028082843760009201919091525092959493602081019350359150506401000000008111156106c657600080fd5b8201836020820111156106d857600080fd5b803590602001918460208302840111640100000000831117156106fa57600080fd5b919080806020026020016040519081016040528093929190818152602001838360200280828437600092019190915250929594936020810193503591505064010000000081111561074a57600080fd5b82018360208201111561075c57600080fd5b8035906020019184600183028401116401000000008311171561077e57600080fd5b91908080601f01602080910402602001604051908101604052809392919081815260200183838082843760009201919091525092959493602081019350359150506401000000008111156107d157600080fd5b8201836020820111156107e357600080fd5b8035906020019184600183028401116401000000008311171561080557600080fd5b91908080601f016020809104026020016040519081016040528093929190818152602001838380828437600092019190915250929550508235935050506020810135906040810135906060013573ffffffffffffffffffffffffffffffffffffffff16611d0a565b6101dc61256e565b6101e6612667565b6101e66126bb565b6101e66004803603604081101561089b57600080fd5b8101906020810181356401000000008111156108b657600080fd5b8201836020820111156108c857600080fd5b803590602001918460208302840111640100000000831117156108ea57600080fd5b919350915035151561270f565b6101e66004803603602081101561090d57600080fd5b50356127a4565b61026f6004803603602081101561092a57600080fd5b5035612832565b6101dc6004803603602081101561094757600080fd5b503573ffffffffffffffffffffffffffffffffffffffff1661297c565b61096c612aea565b73ffffffffffffffffffffffffffffffffffffffff1661098a6119df565b73ffffffffffffffffffffffffffffffffffffffff16146109f2576040805162461bcd60e51b815260206004820181905260248201527f4f776e61626c653a2063616c6c6572206973206e6f7420746865206f776e6572604482015290519081900360640190fd5b73a7E71441E2764c4b82a81823cDB32612d05234af6324c5c75160c9610a166119df565b6040518363ffffffff1660e01b8152600401808381526020018273ffffffffffffffffffffffffffffffffffffffff1681526020019250505060006040518083038186803b158015610a6757600080fd5b505af4158015610a7b573d6000803e3d6000fd5b50505050565b600060c973475F75C050566Ad2D720Cb43f01B130459dab96B63c9b64dcb90916040518263ffffffff1660e01b81526004018082815260200191505060206040518083038186803b158015610ad557600080fd5b505af4158015610ae9573d6000803e3d6000fd5b505050506040513d6020811015610aff57600080fd5b5051905090565b606060026097541415610b60576040805162461bcd60e51b815260206004820152601f60248201527f5265656e7472616e637947756172643a207265656e7472616e742063616c6c00604482015290519081900360640190fd5b60026097558142811015610bbb576040805162461bcd60e51b815260206004820152601060248201527f446561646c696e65206e6f74206d657400000000000000000000000000000000604482015290519081900360640190fd5b60c973a7E71441E2764c4b82a81823cDB32612d05234af6373fd6b3e90918888886040518563ffffffff1660e01b815260040180858152602001848152602001806020018281038252848482818152602001925060200280828437600081840152601f19601f8201169050808301925050509550505050505060006040518083038186803b158015610c4c57600080fd5b505af4158015610c60573d6000803e3d6000fd5b505050506040513d6000823e601f3d9081017fffffffffffffffffffffffffffffffffffffffffffffffffffffffffffffffe01682016040526020811015610ca757600080fd5b8101908080516040519392919084640100000000821115610cc757600080fd5b908301906020820185811115610cdc57600080fd5b8251866020820283011164010000000082111715610cf957600080fd5b82525081516020918201928201910280838360005b83811015610d26578181015183820152602001610d0e565b505050509050016040525050509150506001609755949350505050565b604080517fe069274200000000000000000000000000000000000000000000000000000000815260c960048201526024810184905260ff83166044820152905160009173a7E71441E2764c4b82a81823cDB32612d05234af9163e069274291606480820192602092909190829003018186803b158015610dc257600080fd5b505af4158015610dd6573d6000803e3d6000fd5b505050506040513d6020811015610dec57600080fd5b505190505b92915050565b610dff612aea565b73ffffffffffffffffffffffffffffffffffffffff16610e1d6119df565b73ffffffffffffffffffffffffffffffffffffffff1614610e85576040805162461bcd60e51b815260206004820181905260248201527f4f776e61626c653a2063616c6c6572206973206e6f7420746865206f776e6572604482015290519081900360640190fd5b604080517f467e186c00000000000000000000000000000000000000000000000000000000815260c9600482015260248101839052905173a7E71441E2764c4b82a81823cDB32612d05234af9163467e186c916044808301926000929190829003018186803b158015610ef757600080fd5b505af4158015610f0b573d6000803e3d6000fd5b5050505050565b600060026097541415610f6c576040805162461bcd60e51b815260206004820152601f60248201527f5265656e7472616e637947756172643a207265656e7472616e742063616c6c00604482015290519081900360640190fd5b6002609755610f79611439565b15610fcb576040805162461bcd60e51b815260206004820152601060248201527f5061757361626c653a2070617573656400000000000000000000000000000000604482015290519081900360640190fd5b8180421115611021576040805162461bcd60e51b815260206004820152601060248201527f446561646c696e65206e6f74206d657400000000000000000000000000000000604482015290519081900360640190fd5b604080517fe7a4db8100000000000000000000000000000000000000000000000000000000815260c960048201526024810188905260ff8716604482015260648101869052905173a7E71441E2764c4b82a81823cDB32612d05234af9163e7a4db81916084808301926020929190829003018186803b1580156110a357600080fd5b505af41580156110b7573d6000803e3d6000fd5b505050506040513d60208110156110cd57600080fd5b505160016097559695505050505050565b6110e6612aea565b73ffffffffffffffffffffffffffffffffffffffff166111046119df565b73ffffffffffffffffffffffffffffffffffffffff161461116c576040805162461bcd60e51b815260206004820181905260248201527f4f776e61626c653a2063616c6c6572206973206e6f7420746865206f776e6572604482015290519081900360640190fd5b611174612aee565b565b6000600260975414156111d0576040805162461bcd60e51b815260206004820152601f60248201527f5265656e7472616e637947756172643a207265656e7472616e742063616c6c00604482015290519081900360640190fd5b60026097556111dd611439565b1561122f576040805162461bcd60e51b815260206004820152601060248201527f5061757361626c653a2070617573656400000000000000000000000000000000604482015290519081900360640190fd5b8180421115611285576040805162461bcd60e51b815260206004820152601060248201527f446561646c696e65206e6f74206d657400000000000000000000000000000000604482015290519081900360640190fd5b60c973a7E71441E2764c4b82a81823cDB32612d05234af6340370edf90918888886040518563ffffffff1660e01b815260040180858152602001806020018381526020018281038252858582818152602001925060200280828437600081840152601f19601f8201169050808301925050509550505050505060206040518083038186803b1580156110a357600080fd5b61131e612aea565b73ffffffffffffffffffffffffffffffffffffffff1661133c6119df565b73ffffffffffffffffffffffffffffffffffffffff16146113a4576040805162461bcd60e51b815260206004820181905260248201527f4f776e61626c653a2063616c6c6572206973206e6f7420746865206f776e6572604482015290519081900360640190fd5b604080517f58fdd79b00000000000000000000000000000000000000000000000000000000815260c960048201526024810184905260448101839052905173475F75C050566Ad2D720Cb43f01B130459dab96B916358fdd79b916064808301926000929190829003018186803b15801561141d57600080fd5b505af4158015611431573d6000803e3d6000fd5b505050505050565b60655460ff1690565b60c95460ca5460cb5460cc5460cd5460ce5460cf5473ffffffffffffffffffffffffffffffffffffffff1687565b73ffffffffffffffffffffffffffffffffffffffff8116600081815260d36020526040812054909160ff909116906114a782611614565b73ffffffffffffffffffffffffffffffffffffffff161461150f576040805162461bcd60e51b815260206004820152601460248201527f546f6b656e20646f6573206e6f74206578697374000000000000000000000000604482015290519081900360640190fd5b90505b919050565b61151f612aea565b73ffffffffffffffffffffffffffffffffffffffff1661153d6119df565b73ffffffffffffffffffffffffffffffffffffffff16146115a5576040805162461bcd60e51b815260206004820181905260248201527f4f776e61626c653a2063616c6c6572206973206e6f7420746865206f776e6572604482015290519081900360640190fd5b60335460405160009173ffffffffffffffffffffffffffffffffffffffff16907f8be0079c531659141344cd1fd0a4f28419497f9722a3daafe3b4186f6b6457e0908390a3603380547fffffffffffffffffffffffff0000000000000000000000000000000000000000169055565b60d05460009060ff831610611670576040805162461bcd60e51b815260206004820152600c60248201527f4f7574206f662072616e67650000000000000000000000000000000000000000604482015290519081900360640190fd5b60d0805460ff841690811061168157fe5b60009182526020909120015473ffffffffffffffffffffffffffffffffffffffff1692915050565b6116b1612aea565b73ffffffffffffffffffffffffffffffffffffffff166116cf6119df565b73ffffffffffffffffffffffffffffffffffffffff1614611737576040805162461bcd60e51b815260206004820181905260248201527f4f776e61626c653a2063616c6c6572206973206e6f7420746865206f776e6572604482015290519081900360640190fd5b611174612ba4565b600060026097541415611799576040805162461bcd60e51b815260206004820152601f60248201527f5265656e7472616e637947756172643a207265656e7472616e742063616c6c00604482015290519081900360640190fd5b60026097556117a6611439565b156117f8576040805162461bcd60e51b815260206004820152601060248201527f5061757361626c653a2070617573656400000000000000000000000000000000604482015290519081900360640190fd5b818042111561184e576040805162461bcd60e51b815260206004820152601060248201527f446561646c696e65206e6f74206d657400000000000000000000000000000000604482015290519081900360640190fd5b60c973a7E71441E2764c4b82a81823cDB32612d05234af6341b91c2690918888886040518563ffffffff1660e01b815260040180858152602001806020018381526020018281038252858582818152602001925060200280828437600081840152601f19601f8201169050808301925050509550505050505060206040518083038186803b1580156110a357600080fd5b6118e7612aea565b73ffffffffffffffffffffffffffffffffffffffff166119056119df565b73ffffffffffffffffffffffffffffffffffffffff161461196d576040805162461bcd60e51b815260206004820181905260248201527f4f776e61626c653a2063616c6c6572206973206e6f7420746865206f776e6572604482015290519081900360640190fd5b604080517f7046727600000000000000000000000000000000000000000000000000000000815260c9600482015260248101839052905173a7E71441E2764c4b82a81823cDB32612d05234af916370467276916044808301926000929190829003018186803b158015610ef757600080fd5b60335473ffffffffffffffffffffffffffffffffffffffff1690565b600060026097541415611a55576040805162461bcd60e51b815260206004820152601f60248201527f5265656e7472616e637947756172643a207265656e7472616e742063616c6c00604482015290519081900360640190fd5b6002609755611a62611439565b15611ab4576040805162461bcd60e51b815260206004820152601060248201527f5061757361626c653a2070617573656400000000000000000000000000000000604482015290519081900360640190fd5b8180421115611b0a576040805162461bcd60e51b815260206004820152601060248201527f446561646c696e65206e6f74206d657400000000000000000000000000000000604482015290519081900360640190fd5b604080517fa5397b2200000000000000000000000000000000000000000000000000000000815260c9600482015260ff808a166024830152881660448201526064810187905260848101869052905173a7E71441E2764c4b82a81823cDB32612d05234af9163a5397b229160a4808301926020929190829003018186803b158015611b9457600080fd5b505af4158015611ba8573d6000803e3d6000fd5b505050506040513d6020811015611bbe57600080fd5b50516001609755979650505050505050565b60d05460009060ff831610611c2c576040805162461bcd60e51b815260206004820152601260248201527f496e646578206f7574206f662072616e67650000000000000000000000000000604482015290519081900360640190fd5b60d2805460ff8416908110611c3d57fe5b90600052602060002001549050919050565b604080517f4b23603c00000000000000000000000000000000000000000000000000000000815260c9600482015260ff80861660248301528416604482015260648101839052905160009173a7E71441E2764c4b82a81823cDB32612d05234af91634b23603c91608480820192602092909190829003018186803b158015611cd657600080fd5b505af4158015611cea573d6000803e3d6000fd5b505050506040513d6020811015611d0057600080fd5b5051949350505050565b600054610100900460ff1680611d235750611d23612c34565b80611d31575060005460ff16155b611d6c5760405162461bcd60e51b815260040180806020018281038252602e815260200180613372602e913960400191505060405180910390fd5b600054610100900460ff16158015611d97576000805460ff1961ff0019909116610100171660011790555b611d9f612c45565b611da7612cff565b6001895111611dfd576040805162461bcd60e51b815260206004820152601960248201527f5f706f6f6c6564546f6b656e732e6c656e677468203c3d203100000000000000604482015290519081900360640190fd5b602089511115611e54576040805162461bcd60e51b815260206004820152601960248201527f5f706f6f6c6564546f6b656e732e6c656e677468203e20333200000000000000604482015290519081900360640190fd5b8751895114611eaa576040805162461bcd60e51b815260206004820152601f60248201527f5f706f6f6c6564546f6b656e7320646563696d616c73206d69736d6174636800604482015290519081900360640190fd5b6060885167ffffffffffffffff81118015611ec457600080fd5b50604051908082528060200260200182016040528015611eee578160200160208202803683370190505b50905060005b8a518160ff1610156121ba5760ff8116156120045760d360008c8360ff1681518110611f1c57fe5b60209081029190910181015173ffffffffffffffffffffffffffffffffffffffff1682528101919091526040016000205460ff16158015611fb357508a8160ff1681518110611f6757fe5b602002602001015173ffffffffffffffffffffffffffffffffffffffff168b600081518110611f9257fe5b602002602001015173ffffffffffffffffffffffffffffffffffffffff1614155b612004576040805162461bcd60e51b815260206004820152601060248201527f4475706c696361746520746f6b656e7300000000000000000000000000000000604482015290519081900360640190fd5b600073ffffffffffffffffffffffffffffffffffffffff168b8260ff168151811061202b57fe5b602002602001015173ffffffffffffffffffffffffffffffffffffffff16141561209c576040805162461bcd60e51b815260206004820152601d60248201527f546865203020616464726573732069736e277420616e204552432d3230000000604482015290519081900360640190fd5b601260ff168a8260ff16815181106120b057fe5b602002602001015160ff16111561210e576040805162461bcd60e51b815260206004820152601a60248201527f546f6b656e20646563696d616c732065786365656473206d6178000000000000604482015290519081900360640190fd5b61213e8a8260ff168151811061212057fe5b602002602001015160ff16601260ff16612d9490919063ffffffff16565b600a0a828260ff168151811061215057fe5b6020026020010181815250508060d360008d8460ff168151811061217057fe5b60209081029190910181015173ffffffffffffffffffffffffffffffffffffffff168252810191909152604001600020805460ff191660ff92909216919091179055600101611ef4565b50620f42408610612212576040805162461bcd60e51b815260206004820152601260248201527f5f612065786365656473206d6178696d756d0000000000000000000000000000604482015290519081900360640190fd5b6305f5e100851061226a576040805162461bcd60e51b815260206004820152601460248201527f5f6665652065786365656473206d6178696d756d000000000000000000000000604482015290519081900360640190fd5b6402540be40084106122c3576040805162461bcd60e51b815260206004820152601960248201527f5f61646d696e4665652065786365656473206d6178696d756d00000000000000604482015290519081900360640190fd5b60006122ce84612df1565b90508073ffffffffffffffffffffffffffffffffffffffff16634cd88b768a8a6040518363ffffffff1660e01b8152600401808060200180602001838103835285818151815260200191508051906020019080838360005b8381101561233e578181015183820152602001612326565b50505050905090810190601f16801561236b5780820380516001836020036101000a031916815260200191505b50838103825284518152845160209182019186019080838360005b8381101561239e578181015183820152602001612386565b50505050905090810190601f1680156123cb5780820380516001836020036101000a031916815260200191505b50945050505050602060405180830381600087803b1580156123ec57600080fd5b505af1158015612400573d6000803e3d6000fd5b505050506040513d602081101561241657600080fd5b5051612469576040805162461bcd60e51b815260206004820152601c60248201527f636f756c64206e6f7420696e6974206c70546f6b656e20636c6f6e6500000000604482015290519081900360640190fd5b60cf80547fffffffffffffffffffffffff00000000000000000000000000000000000000001673ffffffffffffffffffffffffffffffffffffffff83161790558a516124bc9060d09060208e019061322e565b5081516124d09060d19060208501906132b8565b508a5167ffffffffffffffff811180156124e957600080fd5b50604051908082528060200260200182016040528015612513578160200160208202803683370190505b5080516125289160d2916020909101906132b8565b50612534876064612eb9565b60c955612542876064612eb9565b60ca55505060cd84905560ce8390558015612563576000805461ff00191690555b505050505050505050565b612576612aea565b73ffffffffffffffffffffffffffffffffffffffff166125946119df565b73ffffffffffffffffffffffffffffffffffffffff16146125fc576040805162461bcd60e51b815260206004820181905260248201527f4f776e61626c653a2063616c6c6572206973206e6f7420746865206f776e6572604482015290519081900360640190fd5b604080517ff14e211e00000000000000000000000000000000000000000000000000000000815260c96004820152905173475F75C050566Ad2D720Cb43f01B130459dab96B9163f14e211e916024808301926000929190829003018186803b158015610a6757600080fd5b600060c973475F75C050566Ad2D720Cb43f01B130459dab96B63b0a14cfc90916040518263ffffffff1660e01b81526004018082815260200191505060206040518083038186803b158015610ad557600080fd5b600060c973a7E71441E2764c4b82a81823cDB32612d05234af6371906c2c90916040518263ffffffff1660e01b81526004018082815260200191505060206040518083038186803b158015610ad557600080fd5b600060c973a7E71441E2764c4b82a81823cDB32612d05234af63834b491090918686866040518563ffffffff1660e01b8152600401808581526020018060200183151581526020018281038252858582818152602001925060200280828437600081840152601f19601f8201169050808301925050509550505050505060206040518083038186803b158015611cd657600080fd5b600060c973a7E71441E2764c4b82a81823cDB32612d05234af637d0481609091846040518363ffffffff1660e01b8152600401808381526020018281526020019250505060206040518083038186803b15801561280057600080fd5b505af4158015612814573d6000803e3d6000fd5b505050506040513d602081101561282a57600080fd5b505192915050565b606060c973a7E71441E2764c4b82a81823cDB32612d05234af6370703e4a9091846040518363ffffffff1660e01b8152600401808381526020018281526020019250505060006040518083038186803b15801561288e57600080fd5b505af41580156128a2573d6000803e3d6000fd5b505050506040513d6000823e601f3d9081017fffffffffffffffffffffffffffffffffffffffffffffffffffffffffffffffe016820160405260208110156128e957600080fd5b810190808051604051939291908464010000000082111561290957600080fd5b90830190602082018581111561291e57600080fd5b825186602082028301116401000000008211171561293b57600080fd5b82525081516020918201928201910280838360005b83811015612968578181015183820152602001612950565b505050509050016040525050509050919050565b612984612aea565b73ffffffffffffffffffffffffffffffffffffffff166129a26119df565b73ffffffffffffffffffffffffffffffffffffffff1614612a0a576040805162461bcd60e51b815260206004820181905260248201527f4f776e61626c653a2063616c6c6572206973206e6f7420746865206f776e6572604482015290519081900360640190fd5b73ffffffffffffffffffffffffffffffffffffffff8116612a5c5760405162461bcd60e51b815260040180806020018281038252602681526020018061334c6026913960400191505060405180910390fd5b60335460405173ffffffffffffffffffffffffffffffffffffffff8084169216907f8be0079c531659141344cd1fd0a4f28419497f9722a3daafe3b4186f6b6457e090600090a3603380547fffffffffffffffffffffffff00000000000000000000000000000000000000001673ffffffffffffffffffffffffffffffffffffffff92909216919091179055565b3390565b612af6611439565b612b47576040805162461bcd60e51b815260206004820152601460248201527f5061757361626c653a206e6f7420706175736564000000000000000000000000604482015290519081900360640190fd5b6065805460ff191690557f5db9ee0a495bf2e6ff9c91a7834c1ba4fdd244a5e8aa4e537bd38aeae4b073aa612b7a612aea565b6040805173ffffffffffffffffffffffffffffffffffffffff9092168252519081900360200190a1565b612bac611439565b15612bfe576040805162461bcd60e51b815260206004820152601060248201527f5061757361626c653a2070617573656400000000000000000000000000000000604482015290519081900360640190fd5b6065805460ff191660011790557f62e78cea01bee320cd4e420270b5ea74000d11b0c9f74754ebdbfc544b05a258612b7a612aea565b6000612c3f30612f19565b15905090565b600054610100900460ff1680612c5e5750612c5e612c34565b80612c6c575060005460ff16155b612ca75760405162461bcd60e51b815260040180806020018281038252602e815260200180613372602e913960400191505060405180910390fd5b600054610100900460ff16158015612cd2576000805460ff1961ff0019909116610100171660011790555b612cda612f1f565b612ce2612fbf565b612cea6130dd565b8015612cfc576000805461ff00191690555b50565b600054610100900460ff1680612d185750612d18612c34565b80612d26575060005460ff16155b612d615760405162461bcd60e51b815260040180806020018281038252602e815260200180613372602e913960400191505060405180910390fd5b600054610100900460ff16158015612d8c576000805460ff1961ff0019909116610100171660011790555b612cea613188565b600082821115612deb576040805162461bcd60e51b815260206004820152601e60248201527f536166654d6174683a207375627472616374696f6e206f766572666c6f770000604482015290519081900360640190fd5b50900390565b60006040517f3d602d80600a3d3981f3363d3d373d3d3d363d7300000000000000000000000081528260601b60148201527f5af43d82803e903d91602b57fd5bf3000000000000000000000000000000000060288201526037816000f091505073ffffffffffffffffffffffffffffffffffffffff8116611512576040805162461bcd60e51b815260206004820152601660248201527f455243313136373a20637265617465206661696c656400000000000000000000604482015290519081900360640190fd5b600082612ec857506000610df1565b82820282848281612ed557fe5b0414612f125760405162461bcd60e51b81526004018080602001828103825260218152602001806133a06021913960400191505060405180910390fd5b9392505050565b3b151590565b600054610100900460ff1680612f385750612f38612c34565b80612f46575060005460ff16155b612f815760405162461bcd60e51b815260040180806020018281038252602e815260200180613372602e913960400191505060405180910390fd5b600054610100900460ff16158015612cea576000805460ff1961ff0019909116610100171660011790558015612cfc576000805461ff001916905550565b600054610100900460ff1680612fd85750612fd8612c34565b80612fe6575060005460ff16155b6130215760405162461bcd60e51b815260040180806020018281038252602e815260200180613372602e913960400191505060405180910390fd5b600054610100900460ff1615801561304c576000805460ff1961ff0019909116610100171660011790555b6000613056612aea565b603380547fffffffffffffffffffffffff00000000000000000000000000000000000000001673ffffffffffffffffffffffffffffffffffffffff8316908117909155604051919250906000907f8be0079c531659141344cd1fd0a4f28419497f9722a3daafe3b4186f6b6457e0908290a3508015612cfc576000805461ff001916905550565b600054610100900460ff16806130f657506130f6612c34565b80613104575060005460ff16155b61313f5760405162461bcd60e51b815260040180806020018281038252602e815260200180613372602e913960400191505060405180910390fd5b600054610100900460ff1615801561316a576000805460ff1961ff0019909116610100171660011790555b6065805460ff191690558015612cfc576000805461ff001916905550565b600054610100900460ff16806131a157506131a1612c34565b806131af575060005460ff16155b6131ea5760405162461bcd60e51b815260040180806020018281038252602e815260200180613372602e913960400191505060405180910390fd5b600054610100900460ff16158015613215576000805460ff1961ff0019909116610100171660011790555b60016097558015612cfc576000805461ff001916905550565b8280548282559060005260206000209081019282156132a8579160200282015b828111156132a857825182547fffffffffffffffffffffffff00000000000000000000000000000000000000001673ffffffffffffffffffffffffffffffffffffffff90911617825560209092019160019091019061324e565b506132b49291506132ff565b5090565b8280548282559060005260206000209081019282156132f3579160200282015b828111156132f35782518255916020019190600101906132d8565b506132b4929150613336565b5b808211156132b45780547fffffffffffffffffffffffff0000000000000000000000000000000000000000168155600101613300565b5b808211156132b4576000815560010161333756fe4f776e61626c653a206e6577206f776e657220697320746865207a65726f2061646472657373496e697469616c697a61626c653a20636f6e747261637420697320616c726561647920696e697469616c697a6564536166654d6174683a206d756c7469706c69636174696f6e206f766572666c6f77a2646970667358221220e946607a203ce98592319a596b070557fff4d5d5858fd334fac2d206bf66d00764736f6c634300060c0033",
  "deployedBytecode": "0x608060405234801561001057600080fd5b50600436106101cf5760003560e01c80638456cb5911610104578063b28cb6dc116100a2578063e6ab280611610071578063e6ab280614610885578063ef0a712f146108f7578063f2fad2b614610914578063f2fde38b14610931576101cf565b8063b28cb6dc14610610578063c4db7fa01461086d578063d46300fd14610875578063e25aa5fa1461087d576101cf565b80638da5cb5b116100de5780638da5cb5b1461057c578063916955861461058457806391ceb3eb146105c0578063a95b089f146105e0576101cf565b80638456cb59146104e157806384cdd9bc146104e95780638beb60b61461055f576101cf565b80634d49e87d116101715780635fd65f0f1161014b5780635fd65f0f146103f157806366c0bd2414610447578063715018a61461049057806382b8660014610498576101cf565b80634d49e87d1461033c578063593d132c146103b25780635c975abb146103d5576101cf565b8063342a87a1116101ad578063342a87a1146102bf57806334e19907146102e55780633e3a1560146103025780633f4ba83a14610334576101cf565b80630419b45a146101d45780630ba81959146101de57806331cd52b0146101f8575b600080fd5b6101dc610964565b005b6101e6610a81565b60408051918252519081900360200190f35b61026f6004803603606081101561020e57600080fd5b8135919081019060408101602082013564010000000081111561023057600080fd5b82018360208201111561024257600080fd5b8035906020019184602083028401116401000000008311171561026457600080fd5b919350915035610b06565b60408051602080825283518183015283519192839290830191858101910280838360005b838110156102ab578181015183820152602001610293565b505050509050019250505060405180910390f35b6101e6600480360360408110156102d557600080fd5b508035906020013560ff16610d43565b6101dc600480360360208110156102fb57600080fd5b5035610df7565b6101e66004803603608081101561031857600080fd5b5080359060ff6020820135169060408101359060600135610f12565b6101dc6110de565b6101e66004803603606081101561035257600080fd5b81019060208101813564010000000081111561036d57600080fd5b82018360208201111561037f57600080fd5b803590602001918460208302840111640100000000831117156103a157600080fd5b919350915080359060200135611176565b6101dc600480360360408110156103c857600080fd5b5080359060200135611316565b6103dd611439565b604080519115158252519081900360200190f35b6103f9611442565b604080519788526020880196909652868601949094526060860192909252608085015260a084015273ffffffffffffffffffffffffffffffffffffffff1660c0830152519081900360e00190f35b61047a6004803603602081101561045d57600080fd5b503573ffffffffffffffffffffffffffffffffffffffff16611470565b6040805160ff9092168252519081900360200190f35b6101dc611517565b6104b8600480360360208110156104ae57600080fd5b503560ff16611614565b6040805173ffffffffffffffffffffffffffffffffffffffff9092168252519081900360200190f35b6101dc6116a9565b6101e6600480360360608110156104ff57600080fd5b81019060208101813564010000000081111561051a57600080fd5b82018360208201111561052c57600080fd5b8035906020019184602083028401116401000000008311171561054e57600080fd5b91935091508035906020013561173f565b6101dc6004803603602081101561057557600080fd5b50356118df565b6104b86119df565b6101e6600480360360a081101561059a57600080fd5b5060ff8135811691602081013590911690604081013590606081013590608001356119fb565b6101e6600480360360208110156105d657600080fd5b503560ff16611bd0565b6101e6600480360360608110156105f657600080fd5b5060ff813581169160208101359091169060400135611c4f565b6101dc600480360361010081101561062757600080fd5b81019060208101813564010000000081111561064257600080fd5b82018360208201111561065457600080fd5b8035906020019184602083028401116401000000008311171561067657600080fd5b91908080602002602001604051908101604052809392919081815260200183836020028082843760009201919091525092959493602081019350359150506401000000008111156106c657600080fd5b8201836020820111156106d857600080fd5b803590602001918460208302840111640100000000831117156106fa57600080fd5b919080806020026020016040519081016040528093929190818152602001838360200280828437600092019190915250929594936020810193503591505064010000000081111561074a57600080fd5b82018360208201111561075c57600080fd5b8035906020019184600183028401116401000000008311171561077e57600080fd5b91908080601f01602080910402602001604051908101604052809392919081815260200183838082843760009201919091525092959493602081019350359150506401000000008111156107d157600080fd5b8201836020820111156107e357600080fd5b8035906020019184600183028401116401000000008311171561080557600080fd5b91908080601f016020809104026020016040519081016040528093929190818152602001838380828437600092019190915250929550508235935050506020810135906040810135906060013573ffffffffffffffffffffffffffffffffffffffff16611d0a565b6101dc61256e565b6101e6612667565b6101e66126bb565b6101e66004803603604081101561089b57600080fd5b8101906020810181356401000000008111156108b657600080fd5b8201836020820111156108c857600080fd5b803590602001918460208302840111640100000000831117156108ea57600080fd5b919350915035151561270f565b6101e66004803603602081101561090d57600080fd5b50356127a4565b61026f6004803603602081101561092a57600080fd5b5035612832565b6101dc6004803603602081101561094757600080fd5b503573ffffffffffffffffffffffffffffffffffffffff1661297c565b61096c612aea565b73ffffffffffffffffffffffffffffffffffffffff1661098a6119df565b73ffffffffffffffffffffffffffffffffffffffff16146109f2576040805162461bcd60e51b815260206004820181905260248201527f4f776e61626c653a2063616c6c6572206973206e6f7420746865206f776e6572604482015290519081900360640190fd5b73__$a4e4384d4f8ec13c7a898ae597a4175ef6$__6324c5c75160c9610a166119df565b6040518363ffffffff1660e01b8152600401808381526020018273ffffffffffffffffffffffffffffffffffffffff1681526020019250505060006040518083038186803b158015610a6757600080fd5b505af4158015610a7b573d6000803e3d6000fd5b50505050565b600060c973__$a50a14a4f4d416df093fe8223c9bbe01e7$__63c9b64dcb90916040518263ffffffff1660e01b81526004018082815260200191505060206040518083038186803b158015610ad557600080fd5b505af4158015610ae9573d6000803e3d6000fd5b505050506040513d6020811015610aff57600080fd5b5051905090565b606060026097541415610b60576040805162461bcd60e51b815260206004820152601f60248201527f5265656e7472616e637947756172643a207265656e7472616e742063616c6c00604482015290519081900360640190fd5b60026097558142811015610bbb576040805162461bcd60e51b815260206004820152601060248201527f446561646c696e65206e6f74206d657400000000000000000000000000000000604482015290519081900360640190fd5b60c973__$a4e4384d4f8ec13c7a898ae597a4175ef6$__6373fd6b3e90918888886040518563ffffffff1660e01b815260040180858152602001848152602001806020018281038252848482818152602001925060200280828437600081840152601f19601f8201169050808301925050509550505050505060006040518083038186803b158015610c4c57600080fd5b505af4158015610c60573d6000803e3d6000fd5b505050506040513d6000823e601f3d9081017fffffffffffffffffffffffffffffffffffffffffffffffffffffffffffffffe01682016040526020811015610ca757600080fd5b8101908080516040519392919084640100000000821115610cc757600080fd5b908301906020820185811115610cdc57600080fd5b8251866020820283011164010000000082111715610cf957600080fd5b82525081516020918201928201910280838360005b83811015610d26578181015183820152602001610d0e565b505050509050016040525050509150506001609755949350505050565b604080517fe069274200000000000000000000000000000000000000000000000000000000815260c960048201526024810184905260ff83166044820152905160009173__$a4e4384d4f8ec13c7a898ae597a4175ef6$__9163e069274291606480820192602092909190829003018186803b158015610dc257600080fd5b505af4158015610dd6573d6000803e3d6000fd5b505050506040513d6020811015610dec57600080fd5b505190505b92915050565b610dff612aea565b73ffffffffffffffffffffffffffffffffffffffff16610e1d6119df565b73ffffffffffffffffffffffffffffffffffffffff1614610e85576040805162461bcd60e51b815260206004820181905260248201527f4f776e61626c653a2063616c6c6572206973206e6f7420746865206f776e6572604482015290519081900360640190fd5b604080517f467e186c00000000000000000000000000000000000000000000000000000000815260c9600482015260248101839052905173__$a4e4384d4f8ec13c7a898ae597a4175ef6$__9163467e186c916044808301926000929190829003018186803b158015610ef757600080fd5b505af4158015610f0b573d6000803e3d6000fd5b5050505050565b600060026097541415610f6c576040805162461bcd60e51b815260206004820152601f60248201527f5265656e7472616e637947756172643a207265656e7472616e742063616c6c00604482015290519081900360640190fd5b6002609755610f79611439565b15610fcb576040805162461bcd60e51b815260206004820152601060248201527f5061757361626c653a2070617573656400000000000000000000000000000000604482015290519081900360640190fd5b8180421115611021576040805162461bcd60e51b815260206004820152601060248201527f446561646c696e65206e6f74206d657400000000000000000000000000000000604482015290519081900360640190fd5b604080517fe7a4db8100000000000000000000000000000000000000000000000000000000815260c960048201526024810188905260ff8716604482015260648101869052905173__$a4e4384d4f8ec13c7a898ae597a4175ef6$__9163e7a4db81916084808301926020929190829003018186803b1580156110a357600080fd5b505af41580156110b7573d6000803e3d6000fd5b505050506040513d60208110156110cd57600080fd5b505160016097559695505050505050565b6110e6612aea565b73ffffffffffffffffffffffffffffffffffffffff166111046119df565b73ffffffffffffffffffffffffffffffffffffffff161461116c576040805162461bcd60e51b815260206004820181905260248201527f4f776e61626c653a2063616c6c6572206973206e6f7420746865206f776e6572604482015290519081900360640190fd5b611174612aee565b565b6000600260975414156111d0576040805162461bcd60e51b815260206004820152601f60248201527f5265656e7472616e637947756172643a207265656e7472616e742063616c6c00604482015290519081900360640190fd5b60026097556111dd611439565b1561122f576040805162461bcd60e51b815260206004820152601060248201527f5061757361626c653a2070617573656400000000000000000000000000000000604482015290519081900360640190fd5b8180421115611285576040805162461bcd60e51b815260206004820152601060248201527f446561646c696e65206e6f74206d657400000000000000000000000000000000604482015290519081900360640190fd5b60c973__$a4e4384d4f8ec13c7a898ae597a4175ef6$__6340370edf90918888886040518563ffffffff1660e01b815260040180858152602001806020018381526020018281038252858582818152602001925060200280828437600081840152601f19601f8201169050808301925050509550505050505060206040518083038186803b1580156110a357600080fd5b61131e612aea565b73ffffffffffffffffffffffffffffffffffffffff1661133c6119df565b73ffffffffffffffffffffffffffffffffffffffff16146113a4576040805162461bcd60e51b815260206004820181905260248201527f4f776e61626c653a2063616c6c6572206973206e6f7420746865206f776e6572604482015290519081900360640190fd5b604080517f58fdd79b00000000000000000000000000000000000000000000000000000000815260c960048201526024810184905260448101839052905173__$a50a14a4f4d416df093fe8223c9bbe01e7$__916358fdd79b916064808301926000929190829003018186803b15801561141d57600080fd5b505af4158015611431573d6000803e3d6000fd5b505050505050565b60655460ff1690565b60c95460ca5460cb5460cc5460cd5460ce5460cf5473ffffffffffffffffffffffffffffffffffffffff1687565b73ffffffffffffffffffffffffffffffffffffffff8116600081815260d36020526040812054909160ff909116906114a782611614565b73ffffffffffffffffffffffffffffffffffffffff161461150f576040805162461bcd60e51b815260206004820152601460248201527f546f6b656e20646f6573206e6f74206578697374000000000000000000000000604482015290519081900360640190fd5b90505b919050565b61151f612aea565b73ffffffffffffffffffffffffffffffffffffffff1661153d6119df565b73ffffffffffffffffffffffffffffffffffffffff16146115a5576040805162461bcd60e51b815260206004820181905260248201527f4f776e61626c653a2063616c6c6572206973206e6f7420746865206f776e6572604482015290519081900360640190fd5b60335460405160009173ffffffffffffffffffffffffffffffffffffffff16907f8be0079c531659141344cd1fd0a4f28419497f9722a3daafe3b4186f6b6457e0908390a3603380547fffffffffffffffffffffffff0000000000000000000000000000000000000000169055565b60d05460009060ff831610611670576040805162461bcd60e51b815260206004820152600c60248201527f4f7574206f662072616e67650000000000000000000000000000000000000000604482015290519081900360640190fd5b60d0805460ff841690811061168157fe5b60009182526020909120015473ffffffffffffffffffffffffffffffffffffffff1692915050565b6116b1612aea565b73ffffffffffffffffffffffffffffffffffffffff166116cf6119df565b73ffffffffffffffffffffffffffffffffffffffff1614611737576040805162461bcd60e51b815260206004820181905260248201527f4f776e61626c653a2063616c6c6572206973206e6f7420746865206f776e6572604482015290519081900360640190fd5b611174612ba4565b600060026097541415611799576040805162461bcd60e51b815260206004820152601f60248201527f5265656e7472616e637947756172643a207265656e7472616e742063616c6c00604482015290519081900360640190fd5b60026097556117a6611439565b156117f8576040805162461bcd60e51b815260206004820152601060248201527f5061757361626c653a2070617573656400000000000000000000000000000000604482015290519081900360640190fd5b818042111561184e576040805162461bcd60e51b815260206004820152601060248201527f446561646c696e65206e6f74206d657400000000000000000000000000000000604482015290519081900360640190fd5b60c973__$a4e4384d4f8ec13c7a898ae597a4175ef6$__6341b91c2690918888886040518563ffffffff1660e01b815260040180858152602001806020018381526020018281038252858582818152602001925060200280828437600081840152601f19601f8201169050808301925050509550505050505060206040518083038186803b1580156110a357600080fd5b6118e7612aea565b73ffffffffffffffffffffffffffffffffffffffff166119056119df565b73ffffffffffffffffffffffffffffffffffffffff161461196d576040805162461bcd60e51b815260206004820181905260248201527f4f776e61626c653a2063616c6c6572206973206e6f7420746865206f776e6572604482015290519081900360640190fd5b604080517f7046727600000000000000000000000000000000000000000000000000000000815260c9600482015260248101839052905173__$a4e4384d4f8ec13c7a898ae597a4175ef6$__916370467276916044808301926000929190829003018186803b158015610ef757600080fd5b60335473ffffffffffffffffffffffffffffffffffffffff1690565b600060026097541415611a55576040805162461bcd60e51b815260206004820152601f60248201527f5265656e7472616e637947756172643a207265656e7472616e742063616c6c00604482015290519081900360640190fd5b6002609755611a62611439565b15611ab4576040805162461bcd60e51b815260206004820152601060248201527f5061757361626c653a2070617573656400000000000000000000000000000000604482015290519081900360640190fd5b8180421115611b0a576040805162461bcd60e51b815260206004820152601060248201527f446561646c696e65206e6f74206d657400000000000000000000000000000000604482015290519081900360640190fd5b604080517fa5397b2200000000000000000000000000000000000000000000000000000000815260c9600482015260ff808a166024830152881660448201526064810187905260848101869052905173__$a4e4384d4f8ec13c7a898ae597a4175ef6$__9163a5397b229160a4808301926020929190829003018186803b158015611b9457600080fd5b505af4158015611ba8573d6000803e3d6000fd5b505050506040513d6020811015611bbe57600080fd5b50516001609755979650505050505050565b60d05460009060ff831610611c2c576040805162461bcd60e51b815260206004820152601260248201527f496e646578206f7574206f662072616e67650000000000000000000000000000604482015290519081900360640190fd5b60d2805460ff8416908110611c3d57fe5b90600052602060002001549050919050565b604080517f4b23603c00000000000000000000000000000000000000000000000000000000815260c9600482015260ff80861660248301528416604482015260648101839052905160009173__$a4e4384d4f8ec13c7a898ae597a4175ef6$__91634b23603c91608480820192602092909190829003018186803b158015611cd657600080fd5b505af4158015611cea573d6000803e3d6000fd5b505050506040513d6020811015611d0057600080fd5b5051949350505050565b600054610100900460ff1680611d235750611d23612c34565b80611d31575060005460ff16155b611d6c5760405162461bcd60e51b815260040180806020018281038252602e815260200180613372602e913960400191505060405180910390fd5b600054610100900460ff16158015611d97576000805460ff1961ff0019909116610100171660011790555b611d9f612c45565b611da7612cff565b6001895111611dfd576040805162461bcd60e51b815260206004820152601960248201527f5f706f6f6c6564546f6b656e732e6c656e677468203c3d203100000000000000604482015290519081900360640190fd5b602089511115611e54576040805162461bcd60e51b815260206004820152601960248201527f5f706f6f6c6564546f6b656e732e6c656e677468203e20333200000000000000604482015290519081900360640190fd5b8751895114611eaa576040805162461bcd60e51b815260206004820152601f60248201527f5f706f6f6c6564546f6b656e7320646563696d616c73206d69736d6174636800604482015290519081900360640190fd5b6060885167ffffffffffffffff81118015611ec457600080fd5b50604051908082528060200260200182016040528015611eee578160200160208202803683370190505b50905060005b8a518160ff1610156121ba5760ff8116156120045760d360008c8360ff1681518110611f1c57fe5b60209081029190910181015173ffffffffffffffffffffffffffffffffffffffff1682528101919091526040016000205460ff16158015611fb357508a8160ff1681518110611f6757fe5b602002602001015173ffffffffffffffffffffffffffffffffffffffff168b600081518110611f9257fe5b602002602001015173ffffffffffffffffffffffffffffffffffffffff1614155b612004576040805162461bcd60e51b815260206004820152601060248201527f4475706c696361746520746f6b656e7300000000000000000000000000000000604482015290519081900360640190fd5b600073ffffffffffffffffffffffffffffffffffffffff168b8260ff168151811061202b57fe5b602002602001015173ffffffffffffffffffffffffffffffffffffffff16141561209c576040805162461bcd60e51b815260206004820152601d60248201527f546865203020616464726573732069736e277420616e204552432d3230000000604482015290519081900360640190fd5b601260ff168a8260ff16815181106120b057fe5b602002602001015160ff16111561210e576040805162461bcd60e51b815260206004820152601a60248201527f546f6b656e20646563696d616c732065786365656473206d6178000000000000604482015290519081900360640190fd5b61213e8a8260ff168151811061212057fe5b602002602001015160ff16601260ff16612d9490919063ffffffff16565b600a0a828260ff168151811061215057fe5b6020026020010181815250508060d360008d8460ff168151811061217057fe5b60209081029190910181015173ffffffffffffffffffffffffffffffffffffffff168252810191909152604001600020805460ff191660ff92909216919091179055600101611ef4565b50620f42408610612212576040805162461bcd60e51b815260206004820152601260248201527f5f612065786365656473206d6178696d756d0000000000000000000000000000604482015290519081900360640190fd5b6305f5e100851061226a576040805162461bcd60e51b815260206004820152601460248201527f5f6665652065786365656473206d6178696d756d000000000000000000000000604482015290519081900360640190fd5b6402540be40084106122c3576040805162461bcd60e51b815260206004820152601960248201527f5f61646d696e4665652065786365656473206d6178696d756d00000000000000604482015290519081900360640190fd5b60006122ce84612df1565b90508073ffffffffffffffffffffffffffffffffffffffff16634cd88b768a8a6040518363ffffffff1660e01b8152600401808060200180602001838103835285818151815260200191508051906020019080838360005b8381101561233e578181015183820152602001612326565b50505050905090810190601f16801561236b5780820380516001836020036101000a031916815260200191505b50838103825284518152845160209182019186019080838360005b8381101561239e578181015183820152602001612386565b50505050905090810190601f1680156123cb5780820380516001836020036101000a031916815260200191505b50945050505050602060405180830381600087803b1580156123ec57600080fd5b505af1158015612400573d6000803e3d6000fd5b505050506040513d602081101561241657600080fd5b5051612469576040805162461bcd60e51b815260206004820152601c60248201527f636f756c64206e6f7420696e6974206c70546f6b656e20636c6f6e6500000000604482015290519081900360640190fd5b60cf80547fffffffffffffffffffffffff00000000000000000000000000000000000000001673ffffffffffffffffffffffffffffffffffffffff83161790558a516124bc9060d09060208e019061322e565b5081516124d09060d19060208501906132b8565b508a5167ffffffffffffffff811180156124e957600080fd5b50604051908082528060200260200182016040528015612513578160200160208202803683370190505b5080516125289160d2916020909101906132b8565b50612534876064612eb9565b60c955612542876064612eb9565b60ca55505060cd84905560ce8390558015612563576000805461ff00191690555b505050505050505050565b612576612aea565b73ffffffffffffffffffffffffffffffffffffffff166125946119df565b73ffffffffffffffffffffffffffffffffffffffff16146125fc576040805162461bcd60e51b815260206004820181905260248201527f4f776e61626c653a2063616c6c6572206973206e6f7420746865206f776e6572604482015290519081900360640190fd5b604080517ff14e211e00000000000000000000000000000000000000000000000000000000815260c96004820152905173__$a50a14a4f4d416df093fe8223c9bbe01e7$__9163f14e211e916024808301926000929190829003018186803b158015610a6757600080fd5b600060c973__$a50a14a4f4d416df093fe8223c9bbe01e7$__63b0a14cfc90916040518263ffffffff1660e01b81526004018082815260200191505060206040518083038186803b158015610ad557600080fd5b600060c973__$a4e4384d4f8ec13c7a898ae597a4175ef6$__6371906c2c90916040518263ffffffff1660e01b81526004018082815260200191505060206040518083038186803b158015610ad557600080fd5b600060c973__$a4e4384d4f8ec13c7a898ae597a4175ef6$__63834b491090918686866040518563ffffffff1660e01b8152600401808581526020018060200183151581526020018281038252858582818152602001925060200280828437600081840152601f19601f8201169050808301925050509550505050505060206040518083038186803b158015611cd657600080fd5b600060c973__$a4e4384d4f8ec13c7a898ae597a4175ef6$__637d0481609091846040518363ffffffff1660e01b8152600401808381526020018281526020019250505060206040518083038186803b15801561280057600080fd5b505af4158015612814573d6000803e3d6000fd5b505050506040513d602081101561282a57600080fd5b505192915050565b606060c973__$a4e4384d4f8ec13c7a898ae597a4175ef6$__6370703e4a9091846040518363ffffffff1660e01b8152600401808381526020018281526020019250505060006040518083038186803b15801561288e57600080fd5b505af41580156128a2573d6000803e3d6000fd5b505050506040513d6000823e601f3d9081017fffffffffffffffffffffffffffffffffffffffffffffffffffffffffffffffe016820160405260208110156128e957600080fd5b810190808051604051939291908464010000000082111561290957600080fd5b90830190602082018581111561291e57600080fd5b825186602082028301116401000000008211171561293b57600080fd5b82525081516020918201928201910280838360005b83811015612968578181015183820152602001612950565b505050509050016040525050509050919050565b612984612aea565b73ffffffffffffffffffffffffffffffffffffffff166129a26119df565b73ffffffffffffffffffffffffffffffffffffffff1614612a0a576040805162461bcd60e51b815260206004820181905260248201527f4f776e61626c653a2063616c6c6572206973206e6f7420746865206f776e6572604482015290519081900360640190fd5b73ffffffffffffffffffffffffffffffffffffffff8116612a5c5760405162461bcd60e51b815260040180806020018281038252602681526020018061334c6026913960400191505060405180910390fd5b60335460405173ffffffffffffffffffffffffffffffffffffffff8084169216907f8be0079c531659141344cd1fd0a4f28419497f9722a3daafe3b4186f6b6457e090600090a3603380547fffffffffffffffffffffffff00000000000000000000000000000000000000001673ffffffffffffffffffffffffffffffffffffffff92909216919091179055565b3390565b612af6611439565b612b47576040805162461bcd60e51b815260206004820152601460248201527f5061757361626c653a206e6f7420706175736564000000000000000000000000604482015290519081900360640190fd5b6065805460ff191690557f5db9ee0a495bf2e6ff9c91a7834c1ba4fdd244a5e8aa4e537bd38aeae4b073aa612b7a612aea565b6040805173ffffffffffffffffffffffffffffffffffffffff9092168252519081900360200190a1565b612bac611439565b15612bfe576040805162461bcd60e51b815260206004820152601060248201527f5061757361626c653a2070617573656400000000000000000000000000000000604482015290519081900360640190fd5b6065805460ff191660011790557f62e78cea01bee320cd4e420270b5ea74000d11b0c9f74754ebdbfc544b05a258612b7a612aea565b6000612c3f30612f19565b15905090565b600054610100900460ff1680612c5e5750612c5e612c34565b80612c6c575060005460ff16155b612ca75760405162461bcd60e51b815260040180806020018281038252602e815260200180613372602e913960400191505060405180910390fd5b600054610100900460ff16158015612cd2576000805460ff1961ff0019909116610100171660011790555b612cda612f1f565b612ce2612fbf565b612cea6130dd565b8015612cfc576000805461ff00191690555b50565b600054610100900460ff1680612d185750612d18612c34565b80612d26575060005460ff16155b612d615760405162461bcd60e51b815260040180806020018281038252602e815260200180613372602e913960400191505060405180910390fd5b600054610100900460ff16158015612d8c576000805460ff1961ff0019909116610100171660011790555b612cea613188565b600082821115612deb576040805162461bcd60e51b815260206004820152601e60248201527f536166654d6174683a207375627472616374696f6e206f766572666c6f770000604482015290519081900360640190fd5b50900390565b60006040517f3d602d80600a3d3981f3363d3d373d3d3d363d7300000000000000000000000081528260601b60148201527f5af43d82803e903d91602b57fd5bf3000000000000000000000000000000000060288201526037816000f091505073ffffffffffffffffffffffffffffffffffffffff8116611512576040805162461bcd60e51b815260206004820152601660248201527f455243313136373a20637265617465206661696c656400000000000000000000604482015290519081900360640190fd5b600082612ec857506000610df1565b82820282848281612ed557fe5b0414612f125760405162461bcd60e51b81526004018080602001828103825260218152602001806133a06021913960400191505060405180910390fd5b9392505050565b3b151590565b600054610100900460ff1680612f385750612f38612c34565b80612f46575060005460ff16155b612f815760405162461bcd60e51b815260040180806020018281038252602e815260200180613372602e913960400191505060405180910390fd5b600054610100900460ff16158015612cea576000805460ff1961ff0019909116610100171660011790558015612cfc576000805461ff001916905550565b600054610100900460ff1680612fd85750612fd8612c34565b80612fe6575060005460ff16155b6130215760405162461bcd60e51b815260040180806020018281038252602e815260200180613372602e913960400191505060405180910390fd5b600054610100900460ff1615801561304c576000805460ff1961ff0019909116610100171660011790555b6000613056612aea565b603380547fffffffffffffffffffffffff00000000000000000000000000000000000000001673ffffffffffffffffffffffffffffffffffffffff8316908117909155604051919250906000907f8be0079c531659141344cd1fd0a4f28419497f9722a3daafe3b4186f6b6457e0908290a3508015612cfc576000805461ff001916905550565b600054610100900460ff16806130f657506130f6612c34565b80613104575060005460ff16155b61313f5760405162461bcd60e51b815260040180806020018281038252602e815260200180613372602e913960400191505060405180910390fd5b600054610100900460ff1615801561316a576000805460ff1961ff0019909116610100171660011790555b6065805460ff191690558015612cfc576000805461ff001916905550565b600054610100900460ff16806131a157506131a1612c34565b806131af575060005460ff16155b6131ea5760405162461bcd60e51b815260040180806020018281038252602e815260200180613372602e913960400191505060405180910390fd5b600054610100900460ff16158015613215576000805460ff1961ff0019909116610100171660011790555b60016097558015612cfc576000805461ff001916905550565b8280548282559060005260206000209081019282156132a8579160200282015b828111156132a857825182547fffffffffffffffffffffffff00000000000000000000000000000000000000001673ffffffffffffffffffffffffffffffffffffffff90911617825560209092019160019091019061324e565b506132b49291506132ff565b5090565b8280548282559060005260206000209081019282156132f3579160200282015b828111156132f35782518255916020019190600101906132d8565b506132b4929150613336565b5b808211156132b45780547fffffffffffffffffffffffff0000000000000000000000000000000000000000168155600101613300565b5b808211156132b4576000815560010161333756fe4f776e61626c653a206e6577206f776e657220697320746865207a65726f2061646472657373496e697469616c697a61626c653a20636f6e747261637420697320616c726561647920696e697469616c697a6564536166654d6174683a206d756c7469706c69636174696f6e206f766572666c6f77a2646970667358221220e946607a203ce98592319a596b070557fff4d5d5858fd334fac2d206bf66d00764736f6c634300060c0033",
  "libraries": {
    "SwapUtils": "0xa7E71441E2764c4b82a81823cDB32612d05234af",
    "AmplificationUtils": "0x475F75C050566Ad2D720Cb43f01B130459dab96B"
  },
  "devdoc": {
    "details": "Most of the logic is stored as a library `SwapUtils` for the sake of reducing contract's deployment size.",
    "kind": "dev",
    "methods": {
      "addLiquidity(uint256[],uint256,uint256)": {
        "params": {
          "amounts": "the amounts of each token to add, in their native precision",
          "deadline": "latest timestamp to accept this transaction",
          "minToMint": "the minimum LP tokens adding this amount of liquidity should mint, otherwise revert. Handy for front-running mitigation"
        },
        "returns": {
          "_0": "amount of LP token user minted and received"
        }
      },
      "calculateRemoveLiquidity(uint256)": {
        "params": {
          "amount": "the amount of LP tokens that would be burned on withdrawal"
        },
        "returns": {
          "_0": "array of token balances that the user will receive"
        }
      },
      "calculateRemoveLiquidityOneToken(uint256,uint8)": {
        "params": {
          "tokenAmount": "the amount of LP token to burn",
          "tokenIndex": "index of which token will be withdrawn"
        },
        "returns": {
          "availableTokenAmount": "calculated amount of underlying token available to withdraw"
        }
      },
      "calculateSwap(uint8,uint8,uint256)": {
        "params": {
          "dx": "the amount of tokens the user wants to sell. If the token charges a fee on transfers, use the amount that gets transferred after the fee.",
          "tokenIndexFrom": "the token the user wants to sell",
          "tokenIndexTo": "the token the user wants to buy"
        },
        "returns": {
          "_0": "amount of tokens the user will receive"
        }
      },
      "calculateTokenAmount(uint256[],bool)": {
        "details": "This shouldn't be used outside frontends for user estimates.",
        "params": {
          "amounts": "an array of token amounts to deposit or withdrawal, corresponding to pooledTokens. The amount should be in each pooled token's native precision. If a token charges a fee on transfers, use the amount that gets transferred after the fee.",
          "deposit": "whether this is a deposit or a withdrawal"
        },
        "returns": {
          "_0": "token amount the user will receive"
        }
      },
      "getA()": {
        "details": "See the StableSwap paper for details",
        "returns": {
          "_0": "A parameter"
        }
      },
      "getAPrecise()": {
        "details": "See the StableSwap paper for details",
        "returns": {
          "_0": "A parameter in its raw precision form"
        }
      },
      "getAdminBalance(uint256)": {
        "params": {
          "index": "Index of the pooled token"
        },
        "returns": {
          "_0": "admin's token balance in the token's precision"
        }
      },
      "getToken(uint8)": {
        "params": {
          "index": "the index of the token"
        },
        "returns": {
          "_0": "address of the token at given index"
        }
      },
      "getTokenBalance(uint8)": {
        "params": {
          "index": "the index of the token"
        },
        "returns": {
          "_0": "current balance of the pooled token at given index with token's native precision"
        }
      },
      "getTokenIndex(address)": {
        "params": {
          "tokenAddress": "address of the token"
        },
        "returns": {
          "_0": "the index of the given token address"
        }
      },
      "getVirtualPrice()": {
        "returns": {
          "_0": "the virtual price, scaled to the POOL_PRECISION_DECIMALS"
        }
      },
      "initialize(address[],uint8[],string,string,uint256,uint256,uint256,address)": {
        "params": {
          "_a": "the amplification coefficient * n * (n - 1). See the StableSwap paper for details",
          "_adminFee": "default adminFee to be initialized with",
          "_fee": "default swap fee to be initialized with",
          "_pooledTokens": "an array of ERC20s this pool will accept",
          "decimals": "the decimals to use for each pooled token, eg 8 for WBTC. Cannot be larger than POOL_PRECISION_DECIMALS",
          "lpTokenName": "the long-form name of the token to be deployed",
          "lpTokenSymbol": "the short symbol for the token to be deployed",
          "lpTokenTargetAddress": "the address of an existing LPToken contract to use as a target"
        }
      },
      "owner()": {
        "details": "Returns the address of the current owner."
      },
      "paused()": {
        "details": "Returns true if the contract is paused, and false otherwise."
      },
      "rampA(uint256,uint256)": {
        "params": {
          "futureA": "the new A to ramp towards",
          "futureTime": "timestamp when the new A should be reached"
        }
      },
      "removeLiquidity(uint256,uint256[],uint256)": {
        "details": "Liquidity can always be removed, even when the pool is paused.",
        "params": {
          "amount": "the amount of LP tokens to burn",
          "deadline": "latest timestamp to accept this transaction",
          "minAmounts": "the minimum amounts of each token in the pool        acceptable for this burn. Useful as a front-running mitigation"
        },
        "returns": {
          "_0": "amounts of tokens user received"
        }
      },
      "removeLiquidityImbalance(uint256[],uint256,uint256)": {
        "params": {
          "amounts": "how much of each token to withdraw",
          "deadline": "latest timestamp to accept this transaction",
          "maxBurnAmount": "the max LP token provider is willing to pay to remove liquidity. Useful as a front-running mitigation."
        },
        "returns": {
          "_0": "amount of LP tokens burned"
        }
      },
      "removeLiquidityOneToken(uint256,uint8,uint256,uint256)": {
        "params": {
          "deadline": "latest timestamp to accept this transaction",
          "minAmount": "the minimum amount to withdraw, otherwise revert",
          "tokenAmount": "the amount of the token you want to receive",
          "tokenIndex": "the index of the token you want to receive"
        },
        "returns": {
          "_0": "amount of chosen token user received"
        }
      },
      "renounceOwnership()": {
        "details": "Leaves the contract without owner. It will not be possible to call `onlyOwner` functions anymore. Can only be called by the current owner. NOTE: Renouncing ownership will leave the contract without an owner, thereby removing any functionality that is only available to the owner."
      },
      "setAdminFee(uint256)": {
        "params": {
          "newAdminFee": "new admin fee to be applied on future transactions"
        }
      },
      "setSwapFee(uint256)": {
        "params": {
          "newSwapFee": "new swap fee to be applied on future transactions"
        }
      },
      "swap(uint8,uint8,uint256,uint256,uint256)": {
        "params": {
          "deadline": "latest timestamp to accept this transaction",
          "dx": "the amount of tokens the user wants to swap from",
          "minDy": "the min amount the user would like to receive, or revert.",
          "tokenIndexFrom": "the token the user wants to swap from",
          "tokenIndexTo": "the token the user wants to swap to"
        }
      },
      "transferOwnership(address)": {
        "details": "Transfers ownership of the contract to a new account (`newOwner`). Can only be called by the current owner."
      }
    },
    "title": "Swap - A StableSwap implementation in solidity.",
    "version": 1
  },
  "userdoc": {
    "kind": "user",
    "methods": {
      "addLiquidity(uint256[],uint256,uint256)": {
        "notice": "Add liquidity to the pool with the given amounts of tokens"
      },
      "calculateRemoveLiquidity(uint256)": {
        "notice": "A simple method to calculate amount of each underlying tokens that is returned upon burning given amount of LP tokens"
      },
      "calculateRemoveLiquidityOneToken(uint256,uint8)": {
        "notice": "Calculate the amount of underlying token available to withdraw when withdrawing via only single token"
      },
      "calculateSwap(uint8,uint8,uint256)": {
        "notice": "Calculate amount of tokens you receive on swap"
      },
      "calculateTokenAmount(uint256[],bool)": {
        "notice": "A simple method to calculate prices from deposits or withdrawals, excluding fees but including slippage. This is helpful as an input into the various \"min\" parameters on calls to fight front-running"
      },
      "getA()": {
        "notice": "Return A, the amplification coefficient * n * (n - 1)"
      },
      "getAPrecise()": {
        "notice": "Return A in its raw precision form"
      },
      "getAdminBalance(uint256)": {
        "notice": "This function reads the accumulated amount of admin fees of the token with given index"
      },
      "getToken(uint8)": {
        "notice": "Return address of the pooled token at given index. Reverts if tokenIndex is out of range."
      },
      "getTokenBalance(uint8)": {
        "notice": "Return current balance of the pooled token at given index"
      },
      "getTokenIndex(address)": {
        "notice": "Return the index of the given token address. Reverts if no matching token is found."
      },
      "getVirtualPrice()": {
        "notice": "Get the virtual price, to help calculate profit"
      },
      "initialize(address[],uint8[],string,string,uint256,uint256,uint256,address)": {
        "notice": "Initializes this Swap contract with the given parameters. This will also clone a LPToken contract that represents users' LP positions. The owner of LPToken will be this contract - which means only this contract is allowed to mint/burn tokens."
      },
      "pause()": {
        "notice": "Pause the contract. Revert if already paused."
      },
      "rampA(uint256,uint256)": {
        "notice": "Start ramping up or down A parameter towards given futureA and futureTime Checks if the change is too rapid, and commits the new A value only when it falls under the limit range."
      },
      "removeLiquidity(uint256,uint256[],uint256)": {
        "notice": "Burn LP tokens to remove liquidity from the pool. Withdraw fee that decays linearly over period of 4 weeks since last deposit will apply."
      },
      "removeLiquidityImbalance(uint256[],uint256,uint256)": {
        "notice": "Remove liquidity from the pool, weighted differently than the pool's current balances. Withdraw fee that decays linearly over period of 4 weeks since last deposit will apply."
      },
      "removeLiquidityOneToken(uint256,uint8,uint256,uint256)": {
        "notice": "Remove liquidity from the pool all in one token. Withdraw fee that decays linearly over period of 4 weeks since last deposit will apply."
      },
      "setAdminFee(uint256)": {
        "notice": "Update the admin fee. Admin fee takes portion of the swap fee."
      },
      "setSwapFee(uint256)": {
        "notice": "Update the swap fee to be applied on swaps"
      },
      "stopRampA()": {
        "notice": "Stop ramping A immediately. Reverts if ramp A is already stopped."
      },
      "swap(uint8,uint8,uint256,uint256,uint256)": {
        "notice": "Swap two tokens using this pool"
      },
      "unpause()": {
        "notice": "Unpause the contract. Revert if already unpaused."
      },
      "withdrawAdminFees()": {
        "notice": "Withdraw all admin fees to the contract owner"
      }
    },
    "notice": "This contract is responsible for custody of closely pegged assets (eg. group of stablecoins) and automatic market making system. Users become an LP (Liquidity Provider) by depositing their tokens in desired ratios for an exchange of the pool token that represents their share of the pool. Users can burn pool tokens and withdraw their share of token(s). Each time a swap between the pooled tokens happens, a set fee incurs which effectively gets distributed to the LPs. In case of emergencies, admin can pause additional deposits, swaps, or single-asset withdraws - which stops the ratio of the tokens in the pool from changing. Users can always withdraw their tokens via multi-asset withdraws.",
    "version": 1
  },
  "storageLayout": {
    "storage": [
      {
        "astId": 492,
        "contract": "contracts/Swap.sol:Swap",
        "label": "_initialized",
        "offset": 0,
        "slot": "0",
        "type": "t_bool"
      },
      {
        "astId": 495,
        "contract": "contracts/Swap.sol:Swap",
        "label": "_initializing",
        "offset": 1,
        "slot": "0",
        "type": "t_bool"
      },
      {
        "astId": 1531,
        "contract": "contracts/Swap.sol:Swap",
        "label": "__gap",
        "offset": 0,
        "slot": "1",
        "type": "t_array(t_uint256)50_storage"
      },
      {
        "astId": 10,
        "contract": "contracts/Swap.sol:Swap",
        "label": "_owner",
        "offset": 0,
        "slot": "51",
        "type": "t_address"
      },
      {
        "astId": 129,
        "contract": "contracts/Swap.sol:Swap",
        "label": "__gap",
        "offset": 0,
        "slot": "52",
        "type": "t_array(t_uint256)49_storage"
      },
      {
        "astId": 1553,
        "contract": "contracts/Swap.sol:Swap",
        "label": "_paused",
        "offset": 0,
        "slot": "101",
        "type": "t_bool"
      },
      {
        "astId": 1644,
        "contract": "contracts/Swap.sol:Swap",
        "label": "__gap",
        "offset": 0,
        "slot": "102",
        "type": "t_array(t_uint256)49_storage"
      },
      {
        "astId": 1659,
        "contract": "contracts/Swap.sol:Swap",
        "label": "_status",
        "offset": 0,
        "slot": "151",
        "type": "t_uint256"
      },
      {
        "astId": 1702,
        "contract": "contracts/Swap.sol:Swap",
        "label": "__gap",
        "offset": 0,
        "slot": "152",
        "type": "t_array(t_uint256)49_storage"
      },
      {
        "astId": 7088,
        "contract": "contracts/Swap.sol:Swap",
        "label": "swapStorage",
        "offset": 0,
        "slot": "201",
        "type": "t_struct(Swap)8673_storage"
      },
      {
        "astId": 7092,
        "contract": "contracts/Swap.sol:Swap",
        "label": "tokenIndexes",
        "offset": 0,
        "slot": "211",
        "type": "t_mapping(t_address,t_uint8)"
      }
    ],
    "types": {
      "t_address": {
        "encoding": "inplace",
        "label": "address",
        "numberOfBytes": "20"
      },
      "t_array(t_contract(IERC20)3028)dyn_storage": {
        "base": "t_contract(IERC20)3028",
        "encoding": "dynamic_array",
        "label": "contract IERC20[]",
        "numberOfBytes": "32"
      },
      "t_array(t_uint256)49_storage": {
        "base": "t_uint256",
        "encoding": "inplace",
        "label": "uint256[49]",
        "numberOfBytes": "1568"
      },
      "t_array(t_uint256)50_storage": {
        "base": "t_uint256",
        "encoding": "inplace",
        "label": "uint256[50]",
        "numberOfBytes": "1600"
      },
      "t_array(t_uint256)dyn_storage": {
        "base": "t_uint256",
        "encoding": "dynamic_array",
        "label": "uint256[]",
        "numberOfBytes": "32"
      },
      "t_bool": {
        "encoding": "inplace",
        "label": "bool",
        "numberOfBytes": "1"
      },
      "t_contract(IERC20)3028": {
        "encoding": "inplace",
        "label": "contract IERC20",
        "numberOfBytes": "20"
      },
      "t_contract(LPToken)6711": {
        "encoding": "inplace",
        "label": "contract LPToken",
        "numberOfBytes": "20"
      },
      "t_mapping(t_address,t_uint8)": {
        "encoding": "mapping",
        "key": "t_address",
        "label": "mapping(address => uint8)",
        "numberOfBytes": "32",
        "value": "t_uint8"
      },
      "t_struct(Swap)8673_storage": {
        "encoding": "inplace",
        "label": "struct SwapUtils.Swap",
        "members": [
          {
            "astId": 8651,
            "contract": "contracts/Swap.sol:Swap",
            "label": "initialA",
            "offset": 0,
            "slot": "0",
            "type": "t_uint256"
          },
          {
            "astId": 8653,
            "contract": "contracts/Swap.sol:Swap",
            "label": "futureA",
            "offset": 0,
            "slot": "1",
            "type": "t_uint256"
          },
          {
            "astId": 8655,
            "contract": "contracts/Swap.sol:Swap",
            "label": "initialATime",
            "offset": 0,
            "slot": "2",
            "type": "t_uint256"
          },
          {
            "astId": 8657,
            "contract": "contracts/Swap.sol:Swap",
            "label": "futureATime",
            "offset": 0,
            "slot": "3",
            "type": "t_uint256"
          },
          {
            "astId": 8659,
            "contract": "contracts/Swap.sol:Swap",
            "label": "swapFee",
            "offset": 0,
            "slot": "4",
            "type": "t_uint256"
          },
          {
            "astId": 8661,
            "contract": "contracts/Swap.sol:Swap",
            "label": "adminFee",
            "offset": 0,
            "slot": "5",
            "type": "t_uint256"
          },
          {
            "astId": 8663,
            "contract": "contracts/Swap.sol:Swap",
            "label": "lpToken",
            "offset": 0,
            "slot": "6",
            "type": "t_contract(LPToken)6711"
          },
          {
            "astId": 8666,
            "contract": "contracts/Swap.sol:Swap",
            "label": "pooledTokens",
            "offset": 0,
            "slot": "7",
            "type": "t_array(t_contract(IERC20)3028)dyn_storage"
          },
          {
            "astId": 8669,
            "contract": "contracts/Swap.sol:Swap",
            "label": "tokenPrecisionMultipliers",
            "offset": 0,
            "slot": "8",
            "type": "t_array(t_uint256)dyn_storage"
          },
          {
            "astId": 8672,
            "contract": "contracts/Swap.sol:Swap",
            "label": "balances",
            "offset": 0,
            "slot": "9",
            "type": "t_array(t_uint256)dyn_storage"
          }
        ],
        "numberOfBytes": "320"
      },
      "t_uint256": {
        "encoding": "inplace",
        "label": "uint256",
        "numberOfBytes": "32"
      },
      "t_uint8": {
        "encoding": "inplace",
        "label": "uint8",
        "numberOfBytes": "1"
      }
    }
  }
}