{
  "address": "0x450441d90715c79870f48105c2ea445110E2F509",
  "abi": [
    {
      "inputs": [
        {
          "internalType": "address",
          "name": "_callProxy",
          "type": "address"
        }
      ],
      "stateMutability": "nonpayable",
      "type": "constructor"
    },
    {
      "anonymous": false,
      "inputs": [
        {
          "components": [
            {
              "internalType": "int128",
              "name": "bias",
              "type": "int128"
            },
            {
              "internalType": "int128",
              "name": "slope",
              "type": "int128"
            },
            {
              "internalType": "uint256",
              "name": "ts",
              "type": "uint256"
            }
          ],
          "indexed": false,
          "internalType": "struct ChildOracle.Point",
          "name": "userPoint",
          "type": "tuple"
        },
        {
          "components": [
            {
              "internalType": "int128",
              "name": "bias",
              "type": "int128"
            },
            {
              "internalType": "int128",
              "name": "slope",
              "type": "int128"
            },
            {
              "internalType": "uint256",
              "name": "ts",
              "type": "uint256"
            }
          ],
          "indexed": false,
          "internalType": "struct ChildOracle.Point",
          "name": "globalPoint",
          "type": "tuple"
        },
        {
          "indexed": false,
          "internalType": "address",
          "name": "user",
          "type": "address"
        }
      ],
      "name": "Receive",
      "type": "event"
    },
    {
      "anonymous": false,
      "inputs": [
        {
          "indexed": false,
          "internalType": "address",
          "name": "oldOwner",
          "type": "address"
        },
        {
          "indexed": false,
          "internalType": "address",
          "name": "newOwner",
          "type": "address"
        }
      ],
      "name": "TransferOwnership",
      "type": "event"
    },
    {
      "anonymous": false,
      "inputs": [
        {
          "indexed": false,
          "internalType": "address",
          "name": "oldCallProxy",
          "type": "address"
        },
        {
          "indexed": false,
          "internalType": "address",
          "name": "newCallProxy",
          "type": "address"
        }
      ],
      "name": "UpdateCallProxy",
      "type": "event"
    },
    {
      "inputs": [],
      "name": "acceptTransferOwnership",
      "outputs": [],
      "stateMutability": "nonpayable",
      "type": "function"
    },
    {
      "inputs": [
        {
          "internalType": "address",
          "name": "_user",
          "type": "address"
        }
      ],
      "name": "balanceOf",
      "outputs": [
        {
          "internalType": "uint256",
          "name": "",
          "type": "uint256"
        }
      ],
      "stateMutability": "view",
      "type": "function"
    },
    {
      "inputs": [],
      "name": "callProxy",
      "outputs": [
        {
          "internalType": "address",
          "name": "",
          "type": "address"
        }
      ],
      "stateMutability": "view",
      "type": "function"
    },
    {
      "inputs": [
        {
          "internalType": "address",
          "name": "_futureOwner",
          "type": "address"
        }
      ],
      "name": "commitTransferOwnership",
      "outputs": [],
      "stateMutability": "nonpayable",
      "type": "function"
    },
    {
      "inputs": [],
      "name": "futureOwner",
      "outputs": [
        {
          "internalType": "address",
          "name": "",
          "type": "address"
        }
      ],
      "stateMutability": "view",
      "type": "function"
    },
    {
      "inputs": [],
      "name": "globalPoint",
      "outputs": [
        {
          "internalType": "int128",
          "name": "bias",
          "type": "int128"
        },
        {
          "internalType": "int128",
          "name": "slope",
          "type": "int128"
        },
        {
          "internalType": "uint256",
          "name": "ts",
          "type": "uint256"
        }
      ],
      "stateMutability": "view",
      "type": "function"
    },
    {
      "inputs": [],
      "name": "owner",
      "outputs": [
        {
          "internalType": "address",
          "name": "",
          "type": "address"
        }
      ],
      "stateMutability": "view",
      "type": "function"
    },
    {
      "inputs": [
        {
          "components": [
            {
              "internalType": "int128",
              "name": "bias",
              "type": "int128"
            },
            {
              "internalType": "int128",
              "name": "slope",
              "type": "int128"
            },
            {
              "internalType": "uint256",
              "name": "ts",
              "type": "uint256"
            }
          ],
          "internalType": "struct ChildOracle.Point",
          "name": "_userPoint",
          "type": "tuple"
        },
        {
          "components": [
            {
              "internalType": "int128",
              "name": "bias",
              "type": "int128"
            },
            {
              "internalType": "int128",
              "name": "slope",
              "type": "int128"
            },
            {
              "internalType": "uint256",
              "name": "ts",
              "type": "uint256"
            }
          ],
          "internalType": "struct ChildOracle.Point",
          "name": "_globalPoint",
          "type": "tuple"
        },
        {
          "internalType": "address",
          "name": "_user",
          "type": "address"
        }
      ],
      "name": "receive",
      "outputs": [],
      "stateMutability": "nonpayable",
      "type": "function"
    },
    {
      "inputs": [
        {
          "internalType": "address",
          "name": "_newCallProxy",
          "type": "address"
        }
      ],
      "name": "setCallProxy",
      "outputs": [],
      "stateMutability": "nonpayable",
      "type": "function"
    },
    {
      "inputs": [],
      "name": "totalSupply",
      "outputs": [
        {
          "internalType": "uint256",
          "name": "",
          "type": "uint256"
        }
      ],
      "stateMutability": "view",
      "type": "function"
    },
    {
      "inputs": [
        {
          "internalType": "address",
          "name": "",
          "type": "address"
        }
      ],
      "name": "userPoints",
      "outputs": [
        {
          "internalType": "int128",
          "name": "bias",
          "type": "int128"
        },
        {
          "internalType": "int128",
          "name": "slope",
          "type": "int128"
        },
        {
          "internalType": "uint256",
          "name": "ts",
          "type": "uint256"
        }
      ],
      "stateMutability": "view",
      "type": "function"
    }
  ],
  "transactionHash": "0xeae9f00aac80466a4df3fd72fb663d5df51a78d6992bad0ab5b56590ddcfcfca",
  "args": [
    "0x31a68C551dB6BaaA0F4ee96443706C7B663bFe5d"
  ],
  "numDeployments": 1,
  "solcInputHash": "38ac894988ebf4d6035a93b121cacae1",
  "bytecode": "0x608060405234801561001057600080fd5b50604051610b6e380380610b6e83398101604081905261002f916100dc565b600080546001600160a01b0319166001600160a01b03831690811782556040805192835260208301919091527fe385116766307e81d4427b03f1ac50c300b2f6a5df7b3c67eeb7eaaab12f0805910160405180910390a1600180546001600160a01b03191633908117909155604080516000815260208101929092527f5c486528ec3e3f0ea91181cff8116f02bfa350e03b8b6f12e00765adbb5af85c910160405180910390a15061010c565b6000602082840312156100ee57600080fd5b81516001600160a01b038116811461010557600080fd5b9392505050565b610a538061011b6000396000f3fe608060405234801561001057600080fd5b50600436106100c95760003560e01c80638da5cb5b11610081578063d64692e91161005b578063d64692e9146101b1578063e1cebf0b146101ff578063f50ddbc71461021257600080fd5b80638da5cb5b1461015e578063ab9923f31461017e578063b9e9d1aa1461019157600080fd5b80632da688ac116100b25780632da688ac146100fe57806370a08231146101435780637b3711071461015657600080fd5b806318160ddd146100ce5780632b0d0a8b146100e9575b600080fd5b6100d6610256565b6040519081526020015b60405180910390f35b6100fc6100f73660046107e7565b6102ed565b005b60005461011e9073ffffffffffffffffffffffffffffffffffffffff1681565b60405173ffffffffffffffffffffffffffffffffffffffff90911681526020016100e0565b6100d66101513660046107e7565b61040e565b6100fc6104cb565b60015461011e9073ffffffffffffffffffffffffffffffffffffffff1681565b6100fc61018c3660046108aa565b61056d565b60025461011e9073ffffffffffffffffffffffffffffffffffffffff1681565b6004546005546101dc91600f81810b92700100000000000000000000000000000000909204900b9083565b60408051600f94850b81529290930b6020830152918101919091526060016100e0565b6100fc61020d3660046107e7565b610753565b6101dc6102203660046107e7565b60036020526000908152604090208054600190910154600f82810b927001000000000000000000000000000000009004900b9083565b60408051606081018252600454600f81810b8352700100000000000000000000000000000000909104900b602082015260055491810182905260009161029c904261091e565b81602001516102ab9190610937565b815182906102ba90839061095e565b600f90810b90915282516000910b121590506102d557600081525b516fffffffffffffffffffffffffffffffff16919050565b60015473ffffffffffffffffffffffffffffffffffffffff163314610373576040517f08c379a000000000000000000000000000000000000000000000000000000000815260206004820152600960248201527f6e6f74206f776e6572000000000000000000000000000000000000000000000060448201526064015b60405180910390fd5b6000546040805173ffffffffffffffffffffffffffffffffffffffff928316815291831660208301527fe385116766307e81d4427b03f1ac50c300b2f6a5df7b3c67eeb7eaaab12f0805910160405180910390a1600080547fffffffffffffffffffffffff00000000000000000000000000000000000000001673ffffffffffffffffffffffffffffffffffffffff92909216919091179055565b73ffffffffffffffffffffffffffffffffffffffff8116600090815260036020908152604080832081516060810183528154600f81810b8352700100000000000000000000000000000000909104900b9381019390935260010154908201819052610479904261091e565b81602001516104889190610937565b8151829061049790839061095e565b600f90810b90915282516000910b121590506104b257600081525b516fffffffffffffffffffffffffffffffff1692915050565b60025473ffffffffffffffffffffffffffffffffffffffff1633146104ef57600080fd5b6001546040805173ffffffffffffffffffffffffffffffffffffffff90921682523360208301527f5c486528ec3e3f0ea91181cff8116f02bfa350e03b8b6f12e00765adbb5af85c910160405180910390a1600180547fffffffffffffffffffffffff00000000000000000000000000000000000000001633179055565b60005473ffffffffffffffffffffffffffffffffffffffff1633146105ee576040517f08c379a000000000000000000000000000000000000000000000000000000000815260206004820152600e60248201527f6e6f74207472616e736c61746f72000000000000000000000000000000000000604482015260640161036a565b73ffffffffffffffffffffffffffffffffffffffff8116600090815260036020526040908190206001810154918501519091101561068f5773ffffffffffffffffffffffffffffffffffffffff82166000908152600360209081526040918290208651918701516fffffffffffffffffffffffffffffffff908116700100000000000000000000000000000000029216919091178155908501516001909101555b60408051606081018252600454600f81810b8352700100000000000000000000000000000000909104900b6020820152600554818301819052918501519091101561071157835160208501516fffffffffffffffffffffffffffffffff9081167001000000000000000000000000000000000291161760045560408401516005555b7f94bef97b32a029e56cea05bb2971e8310b2529e8db1a913efb022e826e1de6ff858585604051610744939291906109ac565b60405180910390a15050505050565b60015473ffffffffffffffffffffffffffffffffffffffff16331461077757600080fd5b600280547fffffffffffffffffffffffff00000000000000000000000000000000000000001673ffffffffffffffffffffffffffffffffffffffff92909216919091179055565b803573ffffffffffffffffffffffffffffffffffffffff811681146107e257600080fd5b919050565b6000602082840312156107f957600080fd5b610802826107be565b9392505050565b8035600f81900b81146107e257600080fd5b60006060828403121561082d57600080fd5b6040516060810181811067ffffffffffffffff82111715610877577f4e487b7100000000000000000000000000000000000000000000000000000000600052604160045260246000fd5b60405290508061088683610809565b815261089460208401610809565b6020820152604083013560408201525092915050565b600080600060e084860312156108bf57600080fd5b6108c9858561081b565b92506108d8856060860161081b565b91506108e660c085016107be565b90509250925092565b7f4e487b7100000000000000000000000000000000000000000000000000000000600052601160045260246000fd5b81810381811115610931576109316108ef565b92915050565b600082600f0b82600f0b0280600f0b9150808214610957576109576108ef565b5092915050565b600f82810b9082900b037fffffffffffffffffffffffffffffffff8000000000000000000000000000000081126f7fffffffffffffffffffffffffffffff82131715610931576109316108ef565b60e081016109d782868051600f0b82526020810151600f0b6020830152604081015160408301525050565b8351600f90810b60608401526020850151900b6080830152604084015160a083015273ffffffffffffffffffffffffffffffffffffffff831660c083015294935050505056fea2646970667358221220490dee20bd191d05c6c3d2ef4abda8fc328021043b539cce1341741a355642a664736f6c63430008110033",
  "devdoc": {
    "events": {
      "Receive((int128,int128,uint256),(int128,int128,uint256),address)": {
        "params": {
          "globalPoint": "Point data of the total supply",
          "user": "User address",
          "userPoint": "Point data of the user"
        }
      },
      "TransferOwnership(address,address)": {
        "params": {
          "newOwner": "New owner of the contract",
          "oldOwner": "Previous owner of the contract"
        }
      },
      "UpdateCallProxy(address,address)": {
        "params": {
          "newCallProxy": "New call proxy address",
          "oldCallProxy": "Previous call proxy address"
        }
      }
    },
    "kind": "dev",
    "methods": {
      "acceptTransferOwnership()": {
        "details": "Must be called by the futureOwner"
      },
      "balanceOf(address)": {
        "params": {
          "_user": "User address"
        },
        "returns": {
          "_0": "veSDL balance of the user"
        }
      },
      "commitTransferOwnership(address)": {
        "params": {
          "_futureOwner": "Address of the new owner"
        }
      },
      "constructor": {
        "details": "Sets the owner as the deployer of the contract",
        "params": {
          "_callProxy": "CallProxy contract address. This should be set to AnyCallTranslator."
        }
      },
      "receive((int128,int128,uint256),(int128,int128,uint256),address)": {
        "details": "This function can only be called by the callProxy contract. Until this data is received, the user's veSDL balance will be treated as 0.",
        "params": {
          "_globalPoint": "veSDl total supply data",
          "_user": "User address",
          "_userPoint": "veSDL balance data of the user"
        }
      },
      "setCallProxy(address)": {
        "details": "callProxy contract address should be set to AnyCallTranslator.",
        "params": {
          "_newCallProxy": "CallProxy contract address"
        }
      },
      "totalSupply()": {
        "returns": {
          "_0": "veSDL total supply"
        }
      }
    },
    "title": "Child Oracle contract",
    "version": 1
  },
  "userdoc": {
    "events": {
      "Receive((int128,int128,uint256),(int128,int128,uint256),address)": {
        "notice": "Emitted when this contract receives data from the parent chain"
      },
      "TransferOwnership(address,address)": {
        "notice": "Emitted when ownership is transferred"
      },
      "UpdateCallProxy(address,address)": {
        "notice": "Emitted when call proxy address is updated"
      }
    },
    "kind": "user",
    "methods": {
      "acceptTransferOwnership()": {
        "notice": "Accept the transfer of ownership of the contract"
      },
      "balanceOf(address)": {
        "notice": "Read the stored veSDL balance of the user"
      },
      "commitTransferOwnership(address)": {
        "notice": "Commit to transfer ownership of the contract"
      },
      "constructor": {
        "notice": "Constructor for ChildOracle contract"
      },
      "receive((int128,int128,uint256),(int128,int128,uint256),address)": {
        "notice": "Receive data from the parent chain for a user account"
      },
      "setCallProxy(address)": {
        "notice": "Set the callProxy contract address"
      },
      "totalSupply()": {
        "notice": "Read the stored veSDL total supply"
      }
    },
    "notice": "ChildOracle contract is responsible for receiving data from the parent chain",
    "version": 1
  },
  "storageLayout": {
    "storage": [
      {
        "astId": 9880,
        "contract": "contracts/xchainGauges/oracles/ChildOracle.sol:ChildOracle",
        "label": "callProxy",
        "offset": 0,
        "slot": "0",
        "type": "t_address"
      },
      {
        "astId": 9882,
        "contract": "contracts/xchainGauges/oracles/ChildOracle.sol:ChildOracle",
        "label": "owner",
        "offset": 0,
        "slot": "1",
        "type": "t_address"
      },
      {
        "astId": 9884,
        "contract": "contracts/xchainGauges/oracles/ChildOracle.sol:ChildOracle",
        "label": "futureOwner",
        "offset": 0,
        "slot": "2",
        "type": "t_address"
      },
      {
        "astId": 9889,
        "contract": "contracts/xchainGauges/oracles/ChildOracle.sol:ChildOracle",
        "label": "userPoints",
        "offset": 0,
        "slot": "3",
        "type": "t_mapping(t_address,t_struct(Point)9899_storage)"
      },
      {
        "astId": 9892,
        "contract": "contracts/xchainGauges/oracles/ChildOracle.sol:ChildOracle",
        "label": "globalPoint",
        "offset": 0,
        "slot": "4",
        "type": "t_struct(Point)9899_storage"
      }
    ],
    "types": {
      "t_address": {
        "encoding": "inplace",
        "label": "address",
        "numberOfBytes": "20"
      },
      "t_int128": {
        "encoding": "inplace",
        "label": "int128",
        "numberOfBytes": "16"
      },
      "t_mapping(t_address,t_struct(Point)9899_storage)": {
        "encoding": "mapping",
        "key": "t_address",
        "label": "mapping(address => struct ChildOracle.Point)",
        "numberOfBytes": "32",
        "value": "t_struct(Point)9899_storage"
      },
      "t_struct(Point)9899_storage": {
        "encoding": "inplace",
        "label": "struct ChildOracle.Point",
        "members": [
          {
            "astId": 9894,
            "contract": "contracts/xchainGauges/oracles/ChildOracle.sol:ChildOracle",
            "label": "bias",
            "offset": 0,
            "slot": "0",
            "type": "t_int128"
          },
          {
            "astId": 9896,
            "contract": "contracts/xchainGauges/oracles/ChildOracle.sol:ChildOracle",
            "label": "slope",
            "offset": 16,
            "slot": "0",
            "type": "t_int128"
          },
          {
            "astId": 9898,
            "contract": "contracts/xchainGauges/oracles/ChildOracle.sol:ChildOracle",
            "label": "ts",
            "offset": 0,
            "slot": "1",
            "type": "t_uint256"
          }
        ],
        "numberOfBytes": "64"
      },
      "t_uint256": {
        "encoding": "inplace",
        "label": "uint256",
        "numberOfBytes": "32"
      }
    }
  }
}