{
  "address": "0x7Da932ceA0Da8153d928247350be5d3328eD72a9",
  "abi": [
    {
      "name": "Approval",
      "inputs": [
        {
          "name": "_owner",
          "type": "address",
          "indexed": true
        },
        {
          "name": "_spender",
          "type": "address",
          "indexed": true
        },
        {
          "name": "_value",
          "type": "uint256",
          "indexed": false
        }
      ],
      "anonymous": false,
      "type": "event"
    },
    {
      "name": "Transfer",
      "inputs": [
        {
          "name": "_from",
          "type": "address",
          "indexed": true
        },
        {
          "name": "_to",
          "type": "address",
          "indexed": true
        },
        {
          "name": "_value",
          "type": "uint256",
          "indexed": false
        }
      ],
      "anonymous": false,
      "type": "event"
    },
    {
      "name": "Deposit",
      "inputs": [
        {
          "name": "_user",
          "type": "address",
          "indexed": true
        },
        {
          "name": "_value",
          "type": "uint256",
          "indexed": false
        }
      ],
      "anonymous": false,
      "type": "event"
    },
    {
      "name": "Withdraw",
      "inputs": [
        {
          "name": "_user",
          "type": "address",
          "indexed": true
        },
        {
          "name": "_value",
          "type": "uint256",
          "indexed": false
        }
      ],
      "anonymous": false,
      "type": "event"
    },
    {
      "name": "UpdateLiquidityLimit",
      "inputs": [
        {
          "name": "_user",
          "type": "address",
          "indexed": true
        },
        {
          "name": "_original_balance",
          "type": "uint256",
          "indexed": false
        },
        {
          "name": "_original_supply",
          "type": "uint256",
          "indexed": false
        },
        {
          "name": "_working_balance",
          "type": "uint256",
          "indexed": false
        },
        {
          "name": "_working_supply",
          "type": "uint256",
          "indexed": false
        }
      ],
      "anonymous": false,
      "type": "event"
    },
    {
      "stateMutability": "nonpayable",
      "type": "constructor",
      "inputs": [
        {
          "name": "_sdl_token",
          "type": "address"
        },
        {
          "name": "_factory",
          "type": "address"
        }
      ],
      "outputs": []
    },
    {
      "stateMutability": "nonpayable",
      "type": "function",
      "name": "deposit",
      "inputs": [
        {
          "name": "_value",
          "type": "uint256"
        }
      ],
      "outputs": []
    },
    {
      "stateMutability": "nonpayable",
      "type": "function",
      "name": "deposit",
      "inputs": [
        {
          "name": "_value",
          "type": "uint256"
        },
        {
          "name": "_user",
          "type": "address"
        }
      ],
      "outputs": []
    },
    {
      "stateMutability": "nonpayable",
      "type": "function",
      "name": "deposit",
      "inputs": [
        {
          "name": "_value",
          "type": "uint256"
        },
        {
          "name": "_user",
          "type": "address"
        },
        {
          "name": "_claim_rewards",
          "type": "bool"
        }
      ],
      "outputs": []
    },
    {
      "stateMutability": "nonpayable",
      "type": "function",
      "name": "withdraw",
      "inputs": [
        {
          "name": "_value",
          "type": "uint256"
        }
      ],
      "outputs": []
    },
    {
      "stateMutability": "nonpayable",
      "type": "function",
      "name": "withdraw",
      "inputs": [
        {
          "name": "_value",
          "type": "uint256"
        },
        {
          "name": "_user",
          "type": "address"
        }
      ],
      "outputs": []
    },
    {
      "stateMutability": "nonpayable",
      "type": "function",
      "name": "withdraw",
      "inputs": [
        {
          "name": "_value",
          "type": "uint256"
        },
        {
          "name": "_user",
          "type": "address"
        },
        {
          "name": "_claim_rewards",
          "type": "bool"
        }
      ],
      "outputs": []
    },
    {
      "stateMutability": "nonpayable",
      "type": "function",
      "name": "transferFrom",
      "inputs": [
        {
          "name": "_from",
          "type": "address"
        },
        {
          "name": "_to",
          "type": "address"
        },
        {
          "name": "_value",
          "type": "uint256"
        }
      ],
      "outputs": [
        {
          "name": "",
          "type": "bool"
        }
      ]
    },
    {
      "stateMutability": "nonpayable",
      "type": "function",
      "name": "approve",
      "inputs": [
        {
          "name": "_spender",
          "type": "address"
        },
        {
          "name": "_value",
          "type": "uint256"
        }
      ],
      "outputs": [
        {
          "name": "",
          "type": "bool"
        }
      ]
    },
    {
      "stateMutability": "nonpayable",
      "type": "function",
      "name": "permit",
      "inputs": [
        {
          "name": "_owner",
          "type": "address"
        },
        {
          "name": "_spender",
          "type": "address"
        },
        {
          "name": "_value",
          "type": "uint256"
        },
        {
          "name": "_deadline",
          "type": "uint256"
        },
        {
          "name": "_v",
          "type": "uint8"
        },
        {
          "name": "_r",
          "type": "bytes32"
        },
        {
          "name": "_s",
          "type": "bytes32"
        }
      ],
      "outputs": [
        {
          "name": "",
          "type": "bool"
        }
      ]
    },
    {
      "stateMutability": "nonpayable",
      "type": "function",
      "name": "transfer",
      "inputs": [
        {
          "name": "_to",
          "type": "address"
        },
        {
          "name": "_value",
          "type": "uint256"
        }
      ],
      "outputs": [
        {
          "name": "",
          "type": "bool"
        }
      ]
    },
    {
      "stateMutability": "nonpayable",
      "type": "function",
      "name": "increaseAllowance",
      "inputs": [
        {
          "name": "_spender",
          "type": "address"
        },
        {
          "name": "_added_value",
          "type": "uint256"
        }
      ],
      "outputs": [
        {
          "name": "",
          "type": "bool"
        }
      ]
    },
    {
      "stateMutability": "nonpayable",
      "type": "function",
      "name": "decreaseAllowance",
      "inputs": [
        {
          "name": "_spender",
          "type": "address"
        },
        {
          "name": "_subtracted_value",
          "type": "uint256"
        }
      ],
      "outputs": [
        {
          "name": "",
          "type": "bool"
        }
      ]
    },
    {
      "stateMutability": "nonpayable",
      "type": "function",
      "name": "user_checkpoint",
      "inputs": [
        {
          "name": "addr",
          "type": "address"
        }
      ],
      "outputs": [
        {
          "name": "",
          "type": "bool"
        }
      ]
    },
    {
      "stateMutability": "nonpayable",
      "type": "function",
      "name": "claimable_tokens",
      "inputs": [
        {
          "name": "addr",
          "type": "address"
        }
      ],
      "outputs": [
        {
          "name": "",
          "type": "uint256"
        }
      ]
    },
    {
      "stateMutability": "view",
      "type": "function",
      "name": "claimed_reward",
      "inputs": [
        {
          "name": "_addr",
          "type": "address"
        },
        {
          "name": "_token",
          "type": "address"
        }
      ],
      "outputs": [
        {
          "name": "",
          "type": "uint256"
        }
      ]
    },
    {
      "stateMutability": "view",
      "type": "function",
      "name": "claimable_reward",
      "inputs": [
        {
          "name": "_user",
          "type": "address"
        },
        {
          "name": "_reward_token",
          "type": "address"
        }
      ],
      "outputs": [
        {
          "name": "",
          "type": "uint256"
        }
      ]
    },
    {
      "stateMutability": "nonpayable",
      "type": "function",
      "name": "set_rewards_receiver",
      "inputs": [
        {
          "name": "_receiver",
          "type": "address"
        }
      ],
      "outputs": []
    },
    {
      "stateMutability": "nonpayable",
      "type": "function",
      "name": "claim_rewards",
      "inputs": [],
      "outputs": []
    },
    {
      "stateMutability": "nonpayable",
      "type": "function",
      "name": "claim_rewards",
      "inputs": [
        {
          "name": "_addr",
          "type": "address"
        }
      ],
      "outputs": []
    },
    {
      "stateMutability": "nonpayable",
      "type": "function",
      "name": "claim_rewards",
      "inputs": [
        {
          "name": "_addr",
          "type": "address"
        },
        {
          "name": "_receiver",
          "type": "address"
        }
      ],
      "outputs": []
    },
    {
      "stateMutability": "nonpayable",
      "type": "function",
      "name": "add_reward",
      "inputs": [
        {
          "name": "_reward_token",
          "type": "address"
        },
        {
          "name": "_distributor",
          "type": "address"
        }
      ],
      "outputs": []
    },
    {
      "stateMutability": "nonpayable",
      "type": "function",
      "name": "set_reward_distributor",
      "inputs": [
        {
          "name": "_reward_token",
          "type": "address"
        },
        {
          "name": "_distributor",
          "type": "address"
        }
      ],
      "outputs": []
    },
    {
      "stateMutability": "nonpayable",
      "type": "function",
      "name": "deposit_reward_token",
      "inputs": [
        {
          "name": "_reward_token",
          "type": "address"
        },
        {
          "name": "_amount",
          "type": "uint256"
        }
      ],
      "outputs": []
    },
    {
      "stateMutability": "nonpayable",
      "type": "function",
      "name": "set_manager",
      "inputs": [
        {
          "name": "_manager",
          "type": "address"
        }
      ],
      "outputs": []
    },
    {
      "stateMutability": "nonpayable",
      "type": "function",
      "name": "update_voting_escrow",
      "inputs": [],
      "outputs": []
    },
    {
      "stateMutability": "nonpayable",
      "type": "function",
      "name": "set_killed",
      "inputs": [
        {
          "name": "_is_killed",
          "type": "bool"
        }
      ],
      "outputs": []
    },
    {
      "stateMutability": "view",
      "type": "function",
      "name": "decimals",
      "inputs": [],
      "outputs": [
        {
          "name": "",
          "type": "uint256"
        }
      ]
    },
    {
      "stateMutability": "view",
      "type": "function",
      "name": "integrate_checkpoint",
      "inputs": [],
      "outputs": [
        {
          "name": "",
          "type": "uint256"
        }
      ]
    },
    {
      "stateMutability": "view",
      "type": "function",
      "name": "version",
      "inputs": [],
      "outputs": [
        {
          "name": "",
          "type": "string"
        }
      ]
    },
    {
      "stateMutability": "view",
      "type": "function",
      "name": "factory",
      "inputs": [],
      "outputs": [
        {
          "name": "",
          "type": "address"
        }
      ]
    },
    {
      "stateMutability": "nonpayable",
      "type": "function",
      "name": "initialize",
      "inputs": [
        {
          "name": "_lp_token",
          "type": "address"
        },
        {
          "name": "_manager",
          "type": "address"
        },
        {
          "name": "_name",
          "type": "string"
        }
      ],
      "outputs": []
    },
    {
      "stateMutability": "view",
      "type": "function",
      "name": "DOMAIN_SEPARATOR",
      "inputs": [],
      "outputs": [
        {
          "name": "",
          "type": "bytes32"
        }
      ]
    },
    {
      "stateMutability": "view",
      "type": "function",
      "name": "nonces",
      "inputs": [
        {
          "name": "arg0",
          "type": "address"
        }
      ],
      "outputs": [
        {
          "name": "",
          "type": "uint256"
        }
      ]
    },
    {
      "stateMutability": "view",
      "type": "function",
      "name": "name",
      "inputs": [],
      "outputs": [
        {
          "name": "",
          "type": "string"
        }
      ]
    },
    {
      "stateMutability": "view",
      "type": "function",
      "name": "symbol",
      "inputs": [],
      "outputs": [
        {
          "name": "",
          "type": "string"
        }
      ]
    },
    {
      "stateMutability": "view",
      "type": "function",
      "name": "allowance",
      "inputs": [
        {
          "name": "arg0",
          "type": "address"
        },
        {
          "name": "arg1",
          "type": "address"
        }
      ],
      "outputs": [
        {
          "name": "",
          "type": "uint256"
        }
      ]
    },
    {
      "stateMutability": "view",
      "type": "function",
      "name": "balanceOf",
      "inputs": [
        {
          "name": "arg0",
          "type": "address"
        }
      ],
      "outputs": [
        {
          "name": "",
          "type": "uint256"
        }
      ]
    },
    {
      "stateMutability": "view",
      "type": "function",
      "name": "totalSupply",
      "inputs": [],
      "outputs": [
        {
          "name": "",
          "type": "uint256"
        }
      ]
    },
    {
      "stateMutability": "view",
      "type": "function",
      "name": "lp_token",
      "inputs": [],
      "outputs": [
        {
          "name": "",
          "type": "address"
        }
      ]
    },
    {
      "stateMutability": "view",
      "type": "function",
      "name": "manager",
      "inputs": [],
      "outputs": [
        {
          "name": "",
          "type": "address"
        }
      ]
    },
    {
      "stateMutability": "view",
      "type": "function",
      "name": "voting_escrow",
      "inputs": [],
      "outputs": [
        {
          "name": "",
          "type": "address"
        }
      ]
    },
    {
      "stateMutability": "view",
      "type": "function",
      "name": "working_balances",
      "inputs": [
        {
          "name": "arg0",
          "type": "address"
        }
      ],
      "outputs": [
        {
          "name": "",
          "type": "uint256"
        }
      ]
    },
    {
      "stateMutability": "view",
      "type": "function",
      "name": "working_supply",
      "inputs": [],
      "outputs": [
        {
          "name": "",
          "type": "uint256"
        }
      ]
    },
    {
      "stateMutability": "view",
      "type": "function",
      "name": "period",
      "inputs": [],
      "outputs": [
        {
          "name": "",
          "type": "uint256"
        }
      ]
    },
    {
      "stateMutability": "view",
      "type": "function",
      "name": "period_timestamp",
      "inputs": [
        {
          "name": "arg0",
          "type": "uint256"
        }
      ],
      "outputs": [
        {
          "name": "",
          "type": "uint256"
        }
      ]
    },
    {
      "stateMutability": "view",
      "type": "function",
      "name": "integrate_checkpoint_of",
      "inputs": [
        {
          "name": "arg0",
          "type": "address"
        }
      ],
      "outputs": [
        {
          "name": "",
          "type": "uint256"
        }
      ]
    },
    {
      "stateMutability": "view",
      "type": "function",
      "name": "integrate_fraction",
      "inputs": [
        {
          "name": "arg0",
          "type": "address"
        }
      ],
      "outputs": [
        {
          "name": "",
          "type": "uint256"
        }
      ]
    },
    {
      "stateMutability": "view",
      "type": "function",
      "name": "integrate_inv_supply",
      "inputs": [
        {
          "name": "arg0",
          "type": "uint256"
        }
      ],
      "outputs": [
        {
          "name": "",
          "type": "uint256"
        }
      ]
    },
    {
      "stateMutability": "view",
      "type": "function",
      "name": "integrate_inv_supply_of",
      "inputs": [
        {
          "name": "arg0",
          "type": "address"
        }
      ],
      "outputs": [
        {
          "name": "",
          "type": "uint256"
        }
      ]
    },
    {
      "stateMutability": "view",
      "type": "function",
      "name": "reward_count",
      "inputs": [],
      "outputs": [
        {
          "name": "",
          "type": "uint256"
        }
      ]
    },
    {
      "stateMutability": "view",
      "type": "function",
      "name": "reward_tokens",
      "inputs": [
        {
          "name": "arg0",
          "type": "uint256"
        }
      ],
      "outputs": [
        {
          "name": "",
          "type": "address"
        }
      ]
    },
    {
      "stateMutability": "view",
      "type": "function",
      "name": "reward_data",
      "inputs": [
        {
          "name": "arg0",
          "type": "address"
        }
      ],
      "outputs": [
        {
          "name": "",
          "type": "tuple",
          "components": [
            {
              "name": "distributor",
              "type": "address"
            },
            {
              "name": "period_finish",
              "type": "uint256"
            },
            {
              "name": "rate",
              "type": "uint256"
            },
            {
              "name": "last_update",
              "type": "uint256"
            },
            {
              "name": "integral",
              "type": "uint256"
            }
          ]
        }
      ]
    },
    {
      "stateMutability": "view",
      "type": "function",
      "name": "rewards_receiver",
      "inputs": [
        {
          "name": "arg0",
          "type": "address"
        }
      ],
      "outputs": [
        {
          "name": "",
          "type": "address"
        }
      ]
    },
    {
      "stateMutability": "view",
      "type": "function",
      "name": "reward_integral_for",
      "inputs": [
        {
          "name": "arg0",
          "type": "address"
        },
        {
          "name": "arg1",
          "type": "address"
        }
      ],
      "outputs": [
        {
          "name": "",
          "type": "uint256"
        }
      ]
    },
    {
      "stateMutability": "view",
      "type": "function",
      "name": "is_killed",
      "inputs": [],
      "outputs": [
        {
          "name": "",
          "type": "bool"
        }
      ]
    },
    {
      "stateMutability": "view",
      "type": "function",
      "name": "inflation_rate",
      "inputs": [
        {
          "name": "arg0",
          "type": "uint256"
        }
      ],
      "outputs": [
        {
          "name": "",
          "type": "uint256"
        }
      ]
    }
  ],
  "transactionHash": "0x3426cf8b8b3c75564ad03e13f00f31eaead2a8cd5e53f3fed7faeb38443c8791",
  "args": [
    "0xae31207ac34423c41576ff59bfb4e036150f9cf7",
    "0x19a5Ec09eE74f64573ac53f48A48616CE943C047"
  ],
  "numDeployments": 1,
  "bytecode": "0x602061294d6080396080518060a01c6129485760e0526020602061294d016080396080518060a01c612948576101005261dead600b5560e05161012052610100516101405261291656600436101561000d57611d61565b60046000601c37600051346128c85763b6b55f258118610037573361040052600061042052610086565b636e553f65811861005c576024358060a01c6128c85761040052600061042052610086565b6383df67478118610218576024358060a01c6128c857610400526044358060011c6128c857610420525b6000546128c85760016000556104005160e0526100a1611d67565b6004356100ad57610211565b600a546104405260096104005160a05260805260406080205460043581818301106128c857808201905090506104605260006016541461010c576104005160e0526104405161010052610420516101205260006101405261010c612317565b610440805160043581818301106128c857808201905090508152506104605160096104005160a05260805260406080205561044051600a556104005160e05261046051610100526104405161012052610163612134565b6323b872dd61048052336104a052306104c0526004356104e0526020610480606461049c6000600b545af161019d573d600060003e3d6000fd5b601f3d11156128c85761048050610400517fe1fffcc4923d04b559f4d29a8bfc6cda04eb5b0d3c460751c2402c5c5cc9109c600435610480526020610480a26104005160007fddf252ad1be2c89b69c2b068fc378daa952ba7f163c4a11628f55a4df523b3ef600435610480526020610480a35b6000600055005b632e1a7d4d8118610233573361040052600061042052610280565b62f714ce8118610257576024358060a01c6128c85761040052600061042052610280565b62ebf5dd8118610400576024358060a01c6128c857610400526044358060011c6128c857610420525b6000546128c85760016000556104005160e05261029b611d67565b6004356102a7576103f9565b600a546104405260093360a0526080526040608020546004358082106128c8578082039050905061046052600060165414610301576104005160e05261044051610100526104205161012052600061014052610301612317565b61044080516004358082106128c857808203905090508152506104605160093360a05260805260406080205561044051600a553360e05261046051610100526104405161012052610350612134565b63a9059cbb61048052610400516104a0526004356104c0526020610480604461049c6000600b545af1610388573d600060003e3d6000fd5b601f3d11156128c85761048050610400517f884edad9ce6fa2440d8a54cc123490eb96d2768479d49ff9c7366125a9424364600435610480526020610480a26000337fddf252ad1be2c89b69c2b068fc378daa952ba7f163c4a11628f55a4df523b3ef600435610480526020610480a35b6000600055005b6323b872dd81186104e6576004358060a01c6128c857610520526024358060a01c6128c857610540526000546128c857600160005560086105205160a05260805260406080203360a052608052604060802054610560527fffffffffffffffffffffffffffffffffffffffffffffffffffffffffffffffff61056051146104b557610560516044358082106128c8578082039050905060086105205160a05260805260406080203360a0526080526040608020555b61052051610400526105405161042052604435610440526104d4612744565b60016105805260206105806000600055f35b63095ea7b3811861055e576004358060a01c6128c85760e05260243560083360a052608052604060802060e05160a05260805260406080205560e051337f8c5be1e5ebec7d5bd14f71427d1e84f3dd0314c0f7b2291e5b200ac8c7c3b925602435610100526020610100a36001610100526020610100f35b63d505accf81186108cb576004358060a01c6128c85760e0526024358060a01c6128c857610100526084358060081c6128c85761012052600060e051146128c85760643542116128c857600260e05160a0526080526040608020546101405260006002610400527f1901000000000000000000000000000000000000000000000000000000000000610420526104006002806020846106000101826020850160045afa5050805182019150506001546020826106000101526020810190507f6e71edae12b1b97f4d1f60370fef10105fa2faae0126114a169c64845d6126c96105405260e0516105605261010051610580526044356105a052610140516105c0526064356105e05260c0610520526105208051602082012090506020826106000101526020810190508061060052610600905080516020820120905061016052600060e0513b116106df5760e0516101605161018052610120516101a052604060a46101c03760206080608061018060015afa50608051186128c85761083f565b600060a4356102205260c435610240526040610200526102006040806020846102c00101826020850160045afa505080518201915050601f600160208206610260016020828401116128c8576020806102808261012060045afa5050818152905090506001806020846102c00101826020850160045afa505080518201915050806102c0526102c09050805160200180610180828460045afa905050507f1626ba7e00000000000000000000000000000000000000000000000000000000631626ba7e610200526102208060406101605182526020820191508082528083018061018080516020018083828460045afa905050508051806020830101818260206001820306601f8201039050033682375050805160200160206001820306601f820103905090509050810150505050602061020060c461021c60e0515afa61082c573d600060003e3d6000fd5b601f3d11156128c85761020051186128c8575b604435600860e05160a05260805260406080206101005160a05260805260406080205561014051600181818301106128c85780820190509050600260e05160a0526080526040608020556101005160e0517f8c5be1e5ebec7d5bd14f71427d1e84f3dd0314c0f7b2291e5b200ac8c7c3b925604435610180526020610180a36001610180526020610180f35b63a9059cbb811861091f576004358060a01c6128c857610520526000546128c8576001600055336104005261052051610420526024356104405261090d612744565b60016105405260206105406000600055f35b633950935181186109cd576004358060a01c6128c85760e05260083360a052608052604060802060e05160a05260805260406080205460243581818301106128c85780820190509050610100526101005160083360a052608052604060802060e05160a05260805260406080205560e051337f8c5be1e5ebec7d5bd14f71427d1e84f3dd0314c0f7b2291e5b200ac8c7c3b92561010051610120526020610120a36001610120526020610120f35b63a457c2d78118610a79576004358060a01c6128c85760e05260083360a052608052604060802060e05160a0526080526040608020546024358082106128c85780820390509050610100526101005160083360a052608052604060802060e05160a05260805260406080205560e051337f8c5be1e5ebec7d5bd14f71427d1e84f3dd0314c0f7b2291e5b200ac8c7c3b92561010051610120526020610120a36001610120526020610120f35b634b8200938118610b3d576004358060a01c6128c8576102405261024051610280526020602038036080396080516102a05260006102605261026060c060006002818352015b60c05160200261028001513318610ad95760018352610ae9565b8151600101808352811415610abf575b50505061026051156128c8576102405160e052610b04611d67565b6102405160e05260096102405160a05260805260406080205461010052600a5461012052610b30612134565b6001610260526020610260f35b63331345838118610bdb576004358060a01c6128c857610200526102005160e052610b66611d67565b60136102005160a052608052604060802054638b752bb061022052610200516102405230610260526020610220604461023c6020602038036080396080515afa610bb5573d600060003e3d6000fd5b601f3d11156128c857610220518082106128c85780820390509050610280526020610280f35b63e77e74378118610c47576004358060a01c6128c85760e0526024358060a01c6128c85761010052602260e05160a05260805260406080206101005160a05260805260406080205470010000000000000000000000000000000080820690509050610120526020610120f35b6333fd6f748118610e1b576004358060a01c6128c85760e0526024358060a01c6128c857610100526004601f6101005160a0526080526040608020015461012052600a546101405260006101405114610d6657426001601f6101005160a05260805260406080200154808211610cbd5781610cbf565b805b9050905061016052610160516003601f6101005160a052608052604060802001548082106128c85780820390509050610180526101208051610180516002601f6101005160a052608052604060802001548082028215828483041417156128c85790509050670de0b6b3a76400008082028215828483041417156128c85790509050610140518080156128c85782049050905081818301106128c857808201905090508152505b60216101005160a052608052604060802060e05160a05260805260406080205461016052600960e05160a05260805260406080205461012051610160518082106128c857808203905090508082028215828483041417156128c85790509050670de0b6b3a76400008082049050905061018052602260e05160a05260805260406080206101005160a05260805260406080205460801c6101805181818301106128c857808201905090506101a05260206101a0f35b63bdf981168118610e48576004358060a01c6128c85760e05260e05160203360a052608052604060802055005b63e6f1daf28118610e63573361040052600061042052610eb2565b6384e9bd7e8118610e88576004358060a01c6128c85761040052600061042052610eb2565b639faceb1b8118610eff576004358060a01c6128c857610400526024358060a01c6128c857610420525b6000546128c857600160005560006104205114610ed4573361040051186128c8575b6104005160e052600a54610100526001610120526104205161014052610ef8612317565b6000600055005b63e8de0d4d8118610ff6576004358060a01c6128c85760e0526024358060a01c6128c85761010052600c543318610f37576001610f77565b638da5cb5b610160526020610160600461017c6020602038036080396080515afa610f67573d600060003e3d6000fd5b601f3d11156128c8576101605133145b156128c8576016546101205260086101205110156128c857600061010051146128c857601f60e05160a0526080526040608020546128c85761010051601f60e05160a05260805260406080205560e05160016101205160088110156128c857026017015561012051600181818301106128c85780820190509050601655005b63058a3a2481186110c6576004358060a01c6128c85760e0526024358060a01c6128c85761010052601f60e05160a05260805260406080205461012052610120513318611044576001611094565b600c543318611054576001611094565b638da5cb5b610180526020610180600461019c6020602038036080396080515afa611084573d600060003e3d6000fd5b601f3d11156128c8576101805133145b156128c857600061012051146128c857600061010051146128c85761010051601f60e05160a052608052604060802055005b6393f7aa6781186112d5576004358060a01c6128c857610400526000546128c8576001600055601f6104005160a05260805260406080205433186128c857600060e052600a5461010052600061012052600061014052611124612317565b6323b872dd6104645260043361048452306104a4526024356104c45260600161046052610460506020610520610460516104806000610400515af161116e573d600060003e3d6000fd5b61050060203d8082116111815781611183565b805b905090508152805160200180610420828460045afa90505050600061042051146111c257610440516104205181816020036008021c90509050156128c8575b6001601f6104005160a05260805260406080200154610460526104605142101561126a5761046051428082106128c8578082039050905061048052610480516002601f6104005160a052608052604060802001548082028215828483041417156128c857905090506104a0526024356104a05181818301106128c8578082019050905062093a80808204905090506002601f6104005160a0526080526040608020015561128e565b60243562093a80808204905090506002601f6104005160a052608052604060802001555b426003601f6104005160a052608052604060802001554262093a8081818301106128c857808201905090506001601f6104005160a052608052604060802001556000600055005b639aece83e8118611339576004358060a01c6128c85760e052638da5cb5b610100526020610100600461011c6020602038036080396080515afa61131e573d600060003e3d6000fd5b601f3d11156128c8576101005133186128c85760e051600c55005b638572ca42811861138a5763dfe0503160e052602060e0600460fc6020602038036080396080515afa611371573d600060003e3d6000fd5b601f3d11156128c85760e0518060a01c6128c857600d55005b6390b2299781186113ee576004358060011c6128c85760e052638da5cb5b610100526020610100600461011c6020602038036080396080515afa6113d3573d600060003e3d6000fd5b601f3d11156128c8576101005133186128c85760e051602355005b63313ce567811861140457601260e052602060e0f35b63d31f3f6d811861142957601160105460a05260805260406080205460e052602060e0f35b6354fd4d5081186114c357610120806020808252600660e0527f76302e312e3000000000000000000000000000000000000000000000000000006101005260e0818401808280516020018083828460045afa905050508051806020830101818260206001820306601f8201039050033682375050805160200160206001820306601f82010390509050905090508101905090509050610120f35b63c45a015581186114e35760206020380360803960805160e052602060e0f35b634571e3a68118611840576004358060a01c6128c85760e0526024358060a01c6128c8576101005260443560040160208135116128c857808035602001808261012037505050600b546128c85760e051600b5561010051600c5563dfe05031610160526020610160600461017c335afa611562573d600060003e3d6000fd5b601f3d11156128c857610160518060a01c6128c857600d556395d89b416101a05260606101a060046101bc60e0515afa6115a1573d600060003e3d6000fd5b603f3d11156128c8576101a0516101a001601a8151116128c85780805160200180610160828460045afa90509050505060006007610200527f536164646c652000000000000000000000000000000000000000000000000000610220526102006007806020846102800101826020850160045afa5050805182019150506101206020806020846102800101826020850160045afa505080518201915050600c610240527f204368696c64204761756765000000000000000000000000000000000000000061026052610240600c806020846102800101826020850160045afa505080518201915050806102805261028090508051602001806101a0828460045afa905050506101a0806003602082510160c060006003818352015b8260c05160200211156116ce576116ed565b60c05160200285015160c05185015581516001018083528114156116bc575b5050505050506000610160601a806020846102400101826020850160045afa5050805182019150506006610200527f2d67617567650000000000000000000000000000000000000000000000000000610220526102006006806020846102400101826020850160045afa50508051820191505080610240526102409050806006602082510160c060006002818352015b8260c051602002111561178f576117ae565b60c05160200285015160c051850155815160010180835281141561177d575b505050505050426011600060a0526080526040608020557f8b73c3c69bb8fe3d512ecc4cf759cc79239f7b179b0ffacaa9a75d522b39400f6102e052610120805160208201209050610300527fe32e703a20098305652a91ed3370235a27f244557ddae05f8afc0fc46e3bdc8a610320524661034052306103605260a06102c0526102c0805160208201209050600155005b633644e51581186118575760015460e052602060e0f35b637ecebe00811861188c576004358060a01c6128c85760e052600260e05160a052608052604060802054610100526020610100f35b6306fdde03811861192f5760e08060208082528083018060038082602082540160c060006003818352015b8260c05160200211156118c9576118e8565b60c05185015460c05160200285015281516001018083528114156118b7575b5050505050508051806020830101818260206001820306601f8201039050033682375050805160200160206001820306601f820103905090509050810190509050905060e0f35b6395d89b4181186119d25760e08060208082528083018060068082602082540160c060006002818352015b8260c051602002111561196c5761198b565b60c05185015460c051602002850152815160010180835281141561195a575b5050505050508051806020830101818260206001820306601f8201039050033682375050805160200160206001820306601f820103905090509050810190509050905060e0f35b63dd62ed3e8118611a25576004358060a01c6128c85760e0526024358060a01c6128c85761010052600860e05160a05260805260406080206101005160a052608052604060802054610120526020610120f35b6370a082318118611a5a576004358060a01c6128c85760e052600960e05160a052608052604060802054610100526020610100f35b6318160ddd8118611a7157600a5460e052602060e0f35b6382c630668118611a8857600b5460e052602060e0f35b63481c6a758118611a9f57600c5460e052602060e0f35b63dfe050318118611ab657600d5460e052602060e0f35b6313ecb1ca8118611aeb576004358060a01c6128c85760e052600e60e05160a052608052604060802054610100526020610100f35b6317e280898118611b0257600f5460e052602060e0f35b63ef78d4fd8118611b195760105460e052602060e0f35b637598108c8118611b3e57601160043560a05260805260406080205460e052602060e0f35b639bd324f28118611b73576004358060a01c6128c85760e052601260e05160a052608052604060802054610100526020610100f35b63094007078118611ba8576004358060a01c6128c85760e052601360e05160a052608052604060802054610100526020610100f35b63fec8ee0c8118611bcd57601460043560a05260805260406080205460e052602060e0f35b63de263bfa8118611c02576004358060a01c6128c85760e052601560e05160a052608052604060802054610100526020610100f35b63963c94b98118611c195760165460e052602060e0f35b6354c49fe98118611c4057600160043560088110156128c857026017015460e052602060e0f35b6348e9c65e8118611c9b576004358060a01c6128c85760e052601f60e05160a05260805260406080208054610100526001810154610120526002810154610140526003810154610160526004810154610180525060a0610100f35b6301ddabf18118611cd0576004358060a01c6128c85760e052602060e05160a052608052604060802054610100526020610100f35b63f05cc0588118611d23576004358060a01c6128c85760e0526024358060a01c6128c85761010052602160e05160a05260805260406080206101005160a052608052604060802054610120526020610120f35b639c868ac08118611d3a5760235460e052602060e0f35b63fadd59ab8118611d5f57602460043560a05260805260406080205460e052602060e0f35b505b60006000fd5b6010546101005260116101005160a0526080526040608020546101205260146101005160a0526080526040608020546101405261012051421115611f0f57600f546101605261012051610180526101205162093a8081818301106128c8578082019050905062093a808082049050905062093a808082028215828483041417156128c8579050905042808211611dfd5781611dff565b805b905090506101a0526101c06000610100818352015b6101a051610180518082106128c857808203905090506101e05260006101605114611eb557610140805160246101805162093a808082049050905060a052608052604060802054670de0b6b3a76400008082028215828483041417156128c857905090506101e0518082028215828483041417156128c85790509050610160518080156128c85782049050905081818301106128c857808201905090508152505b426101a05118611ec457611f0c565b6101a051610180526101a05162093a8081818301106128c8578082019050905042808211611ef25781611ef4565b805b905090506101a0528151600101808352811415611e14575b50505b6370a0823161018052306101a0526020610180602461019c6020604038036080396080515afa611f44573d600060003e3d6000fd5b601f3d11156128c85761018051610160526000610160511461203c574262093a80808204905090506101805260246101805160a052608052604060802080546101605161018051600181818301106128c8578082019050905062093a808082028215828483041417156128c85790509050428082106128c857808203905090508080156128c85782049050905081818301106128c8578082019050905081555063a9059cbb6101a0526020602038036080396080516101c052610160516101e05260206101a060446101bc60006020604038036080396080515af161202e573d600060003e3d6000fd5b601f3d11156128c8576101a0505b6101008051600181818301106128c85780820190509050815250610100516010554260116101005160a0526080526040608020556101405160146101005160a052608052604060802055600e60e05160a05260805260406080205461018052601360e05160a052608052604060802080546101805161014051601560e05160a0526080526040608020548082106128c857808203905090508082028215828483041417156128c85790509050670de0b6b3a76400008082049050905081818301106128c8578082019050905081555061014051601560e05160a05260805260406080205542601260e05160a052608052604060802055565b6101005160288082028215828483041417156128c8579050905060648082049050905061014052600d54610160526000610160511461226d576318160ddd6101a05260206101a060046101bc610160515afa612195573d600060003e3d6000fd5b601f3d11156128c8576101a051610180526000610180511461226d576101408051610120516370a082316101a05260e0516101c05260206101a060246101bc610160515afa6121e9573d600060003e3d6000fd5b601f3d11156128c8576101a0518082028215828483041417156128c85790509050610180518080156128c857820490509050603c8082028215828483041417156128c8579050905060648082049050905081818301106128c8578082019050905081525061010051610140518082116122625781612264565b805b90509050610140525b600e60e05160a0526080526040608020546101805261014051600e60e05160a052608052604060802055600f546101405181818301106128c85780820190509050610180518082106128c857808203905090506101a0526101a051600f5560e0517f7ecd84343f76a23d2227290e0288da3251b045541698e575a5515af4f04197a3610100516101c052610120516101e05261014051610200526101a0516102205260806101c0a2565b6000610160526101405161018052600060e0511461238357600960e05160a0526080526040608020546101605261012051612353576000612359565b61014051155b1561238357602060e05160a05260805260406080205461018052610180516123835760e051610180525b6016546101a0526101c060006008818352015b6101a0516101c051186123a857612740565b60016101c05160088110156128c85702601701546101e0526004601f6101e05160a0526080526040608020015461020052426001601f6101e05160a052608052604060802001548082116123fc57816123fe565b805b9050905061022052610220516003601f6101e05160a052608052604060802001548082106128c8578082039050905061024052600061024051146124ed57610220516003601f6101e05160a05260805260406080200155600061010051146124ed576102008051610240516002601f6101e05160a052608052604060802001548082028215828483041417156128c85790509050670de0b6b3a76400008082028215828483041417156128c85790509050610100518080156128c85782049050905081818301106128c85780820190509050815250610200516004601f6101e05160a052608052604060802001555b600060e051146127305760216101e05160a052608052604060802060e05160a0526080526040608020546102605260006102805261020051610260511015612596576102005160216101e05160a052608052604060802060e05160a0526080526040608020556101605161020051610260518082106128c857808203905090508082028215828483041417156128c85790509050670de0b6b3a764000080820490509050610280525b602260e05160a05260805260406080206101e05160a0526080526040608020546102a0526102a05160801c6102805181818301106128c857808201905090506102c05260006102c0511115612730576102a051700100000000000000000000000000000000808206905090506102e0526101205161265a576000610280511115612730576102e0516102c05160801b81818301106128c85780820190509050602260e05160a05260805260406080206101e05160a052608052604060802055612730565b63a9059cbb61034452600461018051610364526102c05161038452604001610340526103405060206103e06103405161036060006101e0515af16126a3573d600060003e3d6000fd5b6103c060203d8082116126b657816126b8565b805b905090508152805160200180610300828460045afa90505050600061030051146126f757610320516103005181816020036008021c90509050156128c8575b6102e0516102c05181818301106128c85780820190509050602260e05160a05260805260406080206101e05160a0526080526040608020555b8151600101808352811415612396575b5050565b61044051612751576128c6565b600a54610460526000601654141561048052610400516104e05261042051610500526104c060006002818352015b60206104c051026104e001516104a0526104a05160e05261279e611d67565b6104a05160e05261046051610100526000610120526000610140526127c1612317565b815160010180835281141561277f57505060096104005160a052608052604060802054610440518082106128c857808203905090506104a0526104a05160096104005160a0526080526040608020556104005160e0526104a05161010052610460516101205261282f612134565b60096104205160a0526080526040608020546104405181818301106128c857808201905090506104a0526104a05160096104205160a0526080526040608020556104205160e0526104a05161010052610460516101205261288e612134565b61042051610400517fddf252ad1be2c89b69c2b068fc378daa952ba7f163c4a11628f55a4df523b3ef610440516104c05260206104c0a35b565b600080fd5b610049612916036100496101603961004961291603610120518161016001526101405181610180015280604001610160f35b600080fd"
}