{
  "address": "0x293deD6B7D8D37bFE1e66Aadbdec9f87FEDbd37F",
  "abi": [
    {
      "inputs": [
        {
          "internalType": "address",
          "name": "admin",
          "type": "address"
        },
        {
          "internalType": "address",
          "name": "_masterRegistry",
          "type": "address"
        },
        {
          "internalType": "address",
          "name": "_targetLPToken",
          "type": "address"
        },
        {
          "internalType": "address",
          "name": "_targetSwap",
          "type": "address"
        },
        {
          "internalType": "address",
          "name": "_targetMetaSwap",
          "type": "address"
        },
        {
          "internalType": "address",
          "name": "_targetMetaSwapDeposit",
          "type": "address"
        }
      ],
      "stateMutability": "payable",
      "type": "constructor"
    },
    {
      "anonymous": false,
      "inputs": [
        {
          "indexed": true,
          "internalType": "address",
          "name": "target",
          "type": "address"
        },
        {
          "indexed": false,
          "internalType": "address",
          "name": "cloneAddress",
          "type": "address"
        }
      ],
      "name": "NewClone",
      "type": "event"
    },
    {
      "anonymous": false,
      "inputs": [
        {
          "indexed": true,
          "internalType": "address",
          "name": "deployer",
          "type": "address"
        },
        {
          "indexed": false,
          "internalType": "address",
          "name": "swapAddress",
          "type": "address"
        },
        {
          "indexed": false,
          "internalType": "contract IERC20[]",
          "name": "pooledTokens",
          "type": "address[]"
        }
      ],
      "name": "NewSwapPool",
      "type": "event"
    },
    {
      "anonymous": false,
      "inputs": [
        {
          "indexed": true,
          "internalType": "address",
          "name": "poolRegistry",
          "type": "address"
        }
      ],
      "name": "PoolRegistryUpdated",
      "type": "event"
    },
    {
      "anonymous": false,
      "inputs": [
        {
          "indexed": true,
          "internalType": "bytes32",
          "name": "role",
          "type": "bytes32"
        },
        {
          "indexed": true,
          "internalType": "bytes32",
          "name": "previousAdminRole",
          "type": "bytes32"
        },
        {
          "indexed": true,
          "internalType": "bytes32",
          "name": "newAdminRole",
          "type": "bytes32"
        }
      ],
      "name": "RoleAdminChanged",
      "type": "event"
    },
    {
      "anonymous": false,
      "inputs": [
        {
          "indexed": true,
          "internalType": "bytes32",
          "name": "role",
          "type": "bytes32"
        },
        {
          "indexed": true,
          "internalType": "address",
          "name": "account",
          "type": "address"
        },
        {
          "indexed": true,
          "internalType": "address",
          "name": "sender",
          "type": "address"
        }
      ],
      "name": "RoleGranted",
      "type": "event"
    },
    {
      "anonymous": false,
      "inputs": [
        {
          "indexed": true,
          "internalType": "bytes32",
          "name": "role",
          "type": "bytes32"
        },
        {
          "indexed": true,
          "internalType": "address",
          "name": "account",
          "type": "address"
        },
        {
          "indexed": true,
          "internalType": "address",
          "name": "sender",
          "type": "address"
        }
      ],
      "name": "RoleRevoked",
      "type": "event"
    },
    {
      "anonymous": false,
      "inputs": [
        {
          "indexed": true,
          "internalType": "address",
          "name": "target",
          "type": "address"
        }
      ],
      "name": "TargetLPTokenUpdated",
      "type": "event"
    },
    {
      "anonymous": false,
      "inputs": [
        {
          "indexed": true,
          "internalType": "address",
          "name": "target",
          "type": "address"
        }
      ],
      "name": "TargetMetaSwapDepositUpdated",
      "type": "event"
    },
    {
      "anonymous": false,
      "inputs": [
        {
          "indexed": true,
          "internalType": "address",
          "name": "target",
          "type": "address"
        }
      ],
      "name": "TargetMetaSwapUpdated",
      "type": "event"
    },
    {
      "anonymous": false,
      "inputs": [
        {
          "indexed": true,
          "internalType": "address",
          "name": "target",
          "type": "address"
        }
      ],
      "name": "TargetSwapUpdated",
      "type": "event"
    },
    {
      "inputs": [],
      "name": "DEFAULT_ADMIN_ROLE",
      "outputs": [
        {
          "internalType": "bytes32",
          "name": "",
          "type": "bytes32"
        }
      ],
      "stateMutability": "view",
      "type": "function"
    },
    {
      "inputs": [],
      "name": "LP_TOKEN_NAME0",
      "outputs": [
        {
          "internalType": "string",
          "name": "",
          "type": "string"
        }
      ],
      "stateMutability": "view",
      "type": "function"
    },
    {
      "inputs": [],
      "name": "LP_TOKEN_NAME1",
      "outputs": [
        {
          "internalType": "string",
          "name": "",
          "type": "string"
        }
      ],
      "stateMutability": "view",
      "type": "function"
    },
    {
      "inputs": [],
      "name": "MASTER_REGISTRY",
      "outputs": [
        {
          "internalType": "contract IMasterRegistry",
          "name": "",
          "type": "address"
        }
      ],
      "stateMutability": "view",
      "type": "function"
    },
    {
      "inputs": [],
      "name": "POOL_REGISTRY_NAME",
      "outputs": [
        {
          "internalType": "bytes32",
          "name": "",
          "type": "bytes32"
        }
      ],
      "stateMutability": "view",
      "type": "function"
    },
    {
      "inputs": [],
      "name": "SADDLE_MANAGER_ROLE",
      "outputs": [
        {
          "internalType": "bytes32",
          "name": "",
          "type": "bytes32"
        }
      ],
      "stateMutability": "view",
      "type": "function"
    },
    {
      "inputs": [
        {
          "internalType": "address",
          "name": "target",
          "type": "address"
        }
      ],
      "name": "clone",
      "outputs": [
        {
          "internalType": "address",
          "name": "newClone",
          "type": "address"
        }
      ],
      "stateMutability": "payable",
      "type": "function"
    },
    {
      "inputs": [
        {
          "components": [
            {
              "internalType": "bytes32",
              "name": "poolName",
              "type": "bytes32"
            },
            {
              "internalType": "contract IERC20[]",
              "name": "tokens",
              "type": "address[]"
            },
            {
              "internalType": "uint8[]",
              "name": "decimals",
              "type": "uint8[]"
            },
            {
              "internalType": "string",
              "name": "lpTokenSymbol",
              "type": "string"
            },
            {
              "internalType": "uint256",
              "name": "a",
              "type": "uint256"
            },
            {
              "internalType": "uint256",
              "name": "fee",
              "type": "uint256"
            },
            {
              "internalType": "uint256",
              "name": "adminFee",
              "type": "uint256"
            },
            {
              "internalType": "address",
              "name": "baseSwap",
              "type": "address"
            },
            {
              "internalType": "address",
              "name": "owner",
              "type": "address"
            },
            {
              "internalType": "uint8",
              "name": "typeOfAsset",
              "type": "uint8"
            }
          ],
          "internalType": "struct PermissionlessDeployer.DeployMetaSwapInput",
          "name": "input",
          "type": "tuple"
        }
      ],
      "name": "deployMetaSwap",
      "outputs": [
        {
          "internalType": "address",
          "name": "deployedMetaSwap",
          "type": "address"
        },
        {
          "internalType": "address",
          "name": "deployedMetaSwapDeposit",
          "type": "address"
        }
      ],
      "stateMutability": "payable",
      "type": "function"
    },
    {
      "inputs": [
        {
          "components": [
            {
              "internalType": "bytes32",
              "name": "poolName",
              "type": "bytes32"
            },
            {
              "internalType": "contract IERC20[]",
              "name": "tokens",
              "type": "address[]"
            },
            {
              "internalType": "uint8[]",
              "name": "decimals",
              "type": "uint8[]"
            },
            {
              "internalType": "string",
              "name": "lpTokenSymbol",
              "type": "string"
            },
            {
              "internalType": "uint256",
              "name": "a",
              "type": "uint256"
            },
            {
              "internalType": "uint256",
              "name": "fee",
              "type": "uint256"
            },
            {
              "internalType": "uint256",
              "name": "adminFee",
              "type": "uint256"
            },
            {
              "internalType": "address",
              "name": "owner",
              "type": "address"
            },
            {
              "internalType": "uint8",
              "name": "typeOfAsset",
              "type": "uint8"
            }
          ],
          "internalType": "struct PermissionlessDeployer.DeploySwapInput",
          "name": "input",
          "type": "tuple"
        }
      ],
      "name": "deploySwap",
      "outputs": [
        {
          "internalType": "address",
          "name": "deployedSwap",
          "type": "address"
        }
      ],
      "stateMutability": "payable",
      "type": "function"
    },
    {
      "inputs": [
        {
          "internalType": "bytes32",
          "name": "role",
          "type": "bytes32"
        }
      ],
      "name": "getRoleAdmin",
      "outputs": [
        {
          "internalType": "bytes32",
          "name": "",
          "type": "bytes32"
        }
      ],
      "stateMutability": "view",
      "type": "function"
    },
    {
      "inputs": [
        {
          "internalType": "bytes32",
          "name": "role",
          "type": "bytes32"
        },
        {
          "internalType": "uint256",
          "name": "index",
          "type": "uint256"
        }
      ],
      "name": "getRoleMember",
      "outputs": [
        {
          "internalType": "address",
          "name": "",
          "type": "address"
        }
      ],
      "stateMutability": "view",
      "type": "function"
    },
    {
      "inputs": [
        {
          "internalType": "bytes32",
          "name": "role",
          "type": "bytes32"
        }
      ],
      "name": "getRoleMemberCount",
      "outputs": [
        {
          "internalType": "uint256",
          "name": "",
          "type": "uint256"
        }
      ],
      "stateMutability": "view",
      "type": "function"
    },
    {
      "inputs": [
        {
          "internalType": "bytes32",
          "name": "role",
          "type": "bytes32"
        },
        {
          "internalType": "address",
          "name": "account",
          "type": "address"
        }
      ],
      "name": "grantRole",
      "outputs": [],
      "stateMutability": "nonpayable",
      "type": "function"
    },
    {
      "inputs": [
        {
          "internalType": "bytes32",
          "name": "role",
          "type": "bytes32"
        },
        {
          "internalType": "address",
          "name": "account",
          "type": "address"
        }
      ],
      "name": "hasRole",
      "outputs": [
        {
          "internalType": "bool",
          "name": "",
          "type": "bool"
        }
      ],
      "stateMutability": "view",
      "type": "function"
    },
    {
      "inputs": [],
      "name": "poolRegistryCached",
      "outputs": [
        {
          "internalType": "contract IPoolRegistry",
          "name": "",
          "type": "address"
        }
      ],
      "stateMutability": "view",
      "type": "function"
    },
    {
      "inputs": [
        {
          "internalType": "bytes32",
          "name": "role",
          "type": "bytes32"
        },
        {
          "internalType": "address",
          "name": "account",
          "type": "address"
        }
      ],
      "name": "renounceRole",
      "outputs": [],
      "stateMutability": "nonpayable",
      "type": "function"
    },
    {
      "inputs": [
        {
          "internalType": "bytes32",
          "name": "role",
          "type": "bytes32"
        },
        {
          "internalType": "address",
          "name": "account",
          "type": "address"
        }
      ],
      "name": "revokeRole",
      "outputs": [],
      "stateMutability": "nonpayable",
      "type": "function"
    },
    {
      "inputs": [
        {
          "internalType": "address",
          "name": "_targetLPToken",
          "type": "address"
        }
      ],
      "name": "setTargetLPToken",
      "outputs": [],
      "stateMutability": "payable",
      "type": "function"
    },
    {
      "inputs": [
        {
          "internalType": "address",
          "name": "_targetMetaSwap",
          "type": "address"
        }
      ],
      "name": "setTargetMetaSwap",
      "outputs": [],
      "stateMutability": "payable",
      "type": "function"
    },
    {
      "inputs": [
        {
          "internalType": "address",
          "name": "_targetMetaSwapDeposit",
          "type": "address"
        }
      ],
      "name": "setTargetMetaSwapDeposit",
      "outputs": [],
      "stateMutability": "payable",
      "type": "function"
    },
    {
      "inputs": [
        {
          "internalType": "address",
          "name": "_targetSwap",
          "type": "address"
        }
      ],
      "name": "setTargetSwap",
      "outputs": [],
      "stateMutability": "payable",
      "type": "function"
    },
    {
      "inputs": [],
      "name": "targetLPToken",
      "outputs": [
        {
          "internalType": "address",
          "name": "",
          "type": "address"
        }
      ],
      "stateMutability": "view",
      "type": "function"
    },
    {
      "inputs": [],
      "name": "targetMetaSwap",
      "outputs": [
        {
          "internalType": "address",
          "name": "",
          "type": "address"
        }
      ],
      "stateMutability": "view",
      "type": "function"
    },
    {
      "inputs": [],
      "name": "targetMetaSwapDeposit",
      "outputs": [
        {
          "internalType": "address",
          "name": "",
          "type": "address"
        }
      ],
      "stateMutability": "view",
      "type": "function"
    },
    {
      "inputs": [],
      "name": "targetSwap",
      "outputs": [
        {
          "internalType": "address",
          "name": "",
          "type": "address"
        }
      ],
      "stateMutability": "view",
      "type": "function"
    },
    {
      "inputs": [],
      "name": "updatePoolRegistryCache",
      "outputs": [],
      "stateMutability": "nonpayable",
      "type": "function"
    }
  ],
  "transactionHash": "0xdba26cfc923e90d9e485db16ae398edf55a16a2aeb13ff9e81a7a0be4e3396b3",
  "args": [
    "0x91804c72076aDd9fAB49b2c1e1A61A7503199599",
    "0x0E510c9b20a5D136E75f7FD2a5F344BD98f9d875",
    "0x2b7A5a5923ECa5C00c6572Cf3E8e08384F563F93",
    "0x08F8611b996bf2F0FD7523B54e69BFb92Dd43a81",
    "0x5224e52878ab1C6076402E5c98F018D109131351",
    "0x88Cc4aA0dd6Cf126b00C012dDa9f6F4fd9388b17"
  ],
  "numDeployments": 1,
  "solcInputHash": "e454d9aa938f149ff8907a8a2452f369",
  "bytecode": "0x60a060405260405162002dcf38038062002dcf8339810160408190526200002691620004d9565b6001600160a01b038616620000585760405162461bcd60e51b81526004016200004f9062000686565b60405180910390fd5b6001600160a01b038516620000815760405162461bcd60e51b81526004016200004f906200059f565b6200008e6000876200010f565b620000ba7fe132a6a517694e2454dc663f0d4fa738f94e7c1bd06c8950d14f9db8832494bd336200010f565b620000c5846200011f565b620000d08362000192565b620000db8262000205565b620000e68162000278565b6001600160601b0319606086901b166080526200010385620002eb565b505050505050620006aa565b6200011b82826200039f565b5050565b6001600160a01b038116620001485760405162461bcd60e51b81526004016200004f9062000568565b600180546001600160a01b0319166001600160a01b0383169081179091556040517f336ea638298c0cea1e72c71ed04716bef23a7a6251478299d7ca4067fea0c47990600090a250565b6001600160a01b038116620001bb5760405162461bcd60e51b81526004016200004f90620005d6565b600280546001600160a01b0319166001600160a01b0383169081179091556040517f6c149d1850b03102a8ac77fc865c12f017f4fb8bf9f9af345d36b0e8b60bcc8590600090a250565b6001600160a01b0381166200022e5760405162461bcd60e51b81526004016200004f906200064f565b600380546001600160a01b0319166001600160a01b0383169081179091556040517f06fc5602fc767cbb172d176a4cd0531d747abbdd090065ebd7b63ee4d2f0b44d90600090a250565b6001600160a01b038116620002a15760405162461bcd60e51b81526004016200004f906200060d565b600480546001600160a01b0319166001600160a01b0383169081179091556040517f768ccdac0361ba56b697aa598fdd415f51a59d121b9d2b50714d3072cc4a8f1790600090a250565b604051633705f62560e01b81526001600160a01b03821690633705f6259062000328906b506f6f6c526567697374727960a01b906004016200055f565b60206040518083038186803b1580156200034157600080fd5b505afa15801562000356573d6000803e3d6000fd5b505050506040513d601f19601f820116820180604052508101906200037c9190620004bb565b600580546001600160a01b0319166001600160a01b039290921691909117905550565b600082815260208181526040909120620003c49183906200139362000418821b17901c565b156200011b57620003d462000438565b6001600160a01b0316816001600160a01b0316837f2f8788117e7eff1d82e926ec794901d17c78024a50270940304540a733656f0d60405160405180910390a45050565b60006200042f836001600160a01b0384166200043c565b90505b92915050565b3390565b60006200044a83836200048b565b620004825750815460018181018455600084815260208082209093018490558454848252828601909352604090209190915562000432565b50600062000432565b60009081526001919091016020526040902054151590565b80516001600160a01b03811681146200043257600080fd5b600060208284031215620004cd578081fd5b6200042f8383620004a3565b60008060008060008060c08789031215620004f2578182fd5b620004fe8888620004a3565b95506200050f8860208901620004a3565b9450620005208860408901620004a3565b9350620005318860608901620004a3565b9250620005428860808901620004a3565b9150620005538860a08901620004a3565b90509295509295509295565b90815260200190565b6020808252601a908201527f546172676574204c50546f6b656e2063616e6e6f742062652030000000000000604082015260600190565b60208082526013908201527f6d61737465725265676973747279203d3d203000000000000000000000000000604082015260600190565b60208082526017908201527f54617267657420537761702063616e6e6f742062652030000000000000000000604082015260600190565b60208082526022908201527f546172676574204d657461537761704465706f7369742063616e6e6f74206265604082015261020360f41b606082015260800190565b6020808252601b908201527f546172676574204d657461537761702063616e6e6f7420626520300000000000604082015260600190565b6020808252600a9082015269061646d696e203d3d20360b41b604082015260600190565b60805160601c612702620006cd60003980610d3c5280610d6452506127026000f3fe6080604052600436106101a05760003560e01c8063a132d9b5116100e1578063b636f24a1161008a578063cce061e011610064578063cce061e0146103f8578063d547741f1461040d578063df0c1cf01461042d578063e1a58c3d14610440576101a0565b8063b636f24a146103b0578063bbe7d6b7146103c5578063ca15c873146103d8576101a0565b8063ac841ed9116100bb578063ac841ed914610366578063afa9502e1461037b578063b3a316b01461038e576101a0565b8063a132d9b514610329578063a217fddf1461033c578063a50d7d8514610351576101a0565b806336568abe1161014e5780636d2f2246116101285780636d2f2246146102b45780638124b78e146102c95780639010d07c146102dc57806391d14854146102fc576101a0565b806336568abe1461026a5780633c7958401461028a5780634f8d446b1461029f576101a0565b8063248a9ca31161017f578063248a9ca3146102065780632f2ff15d1461023357806333ba0efc14610255576101a0565b8062fc2fc0146101a55780630831cbb7146101cf57806321fcbe05146101f1575b600080fd5b6101b86101b3366004611cf3565b610453565b6040516101c692919061208e565b60405180910390f35b3480156101db57600080fd5b506101e4610b2e565b6040516101c6919061207a565b3480156101fd57600080fd5b506101e4610b3d565b34801561021257600080fd5b50610226610221366004611c8b565b610b4c565b6040516101c691906121e8565b34801561023f57600080fd5b5061025361024e366004611ca3565b610b64565b005b34801561026157600080fd5b506101e4610bac565b34801561027657600080fd5b50610253610285366004611ca3565b610bbb565b34801561029657600080fd5b506101e4610bfd565b3480156102ab57600080fd5b50610226610c0c565b3480156102c057600080fd5b50610226610c30565b6101e46102d7366004611bb4565b610c54565b3480156102e857600080fd5b506101e46102f7366004611cd2565b610ca7565b34801561030857600080fd5b5061031c610317366004611ca3565b610cc8565b6040516101c691906121dd565b610253610337366004611bb4565b610ce0565b34801561034857600080fd5b50610226610d32565b34801561035d57600080fd5b50610253610d37565b34801561037257600080fd5b506101e4610d62565b6101e4610389366004611e0e565b610d86565b34801561039a57600080fd5b506103a36111d4565b6040516101c69190612214565b3480156103bc57600080fd5b506103a361120d565b6102536103d3366004611bb4565b611246565b3480156103e457600080fd5b506102266103f3366004611c8b565b611295565b34801561040457600080fd5b506101e46112ac565b34801561041957600080fd5b50610253610428366004611ca3565b6112bb565b61025361043b366004611bb4565b6112f5565b61025361044e366004611bb4565b611344565b60055481516040517f5b506a0000000000000000000000000000000000000000000000000000000000815260009283926001600160a01b0390911691635b506a00916104a1916004016121e8565b602060405180830381600087803b1580156104bb57600080fd5b505af11580156104cf573d6000803e3d6000fd5b505050506040513d601f19601f820116820180604052508101906104f39190611f05565b156105195760405162461bcd60e51b8152600401610510906122e1565b60405180910390fd5b60035461052e906001600160a01b0316610c54565b9150816001600160a01b031663118e1c77846020015185604001516040518060400160405280600781526020017f536164646c65200000000000000000000000000000000000000000000000000081525087606001516040518060400160405280600981526020017f204c5020546f6b656e00000000000000000000000000000000000000000000008152506040516020016105cc93929190612037565b60408051808303601f1901815290829052606089015160808a015160a08b015160c08c015160015460e0808f0151908b901b7fffffffff0000000000000000000000000000000000000000000000000000000016885261063c9998976001600160a01b0390921691600401612153565b600060405180830381600087803b15801561065657600080fd5b505af115801561066a573d6000803e3d6000fd5b505050506000826001600160a01b0316635fd65f0f6040518163ffffffff1660e01b815260040160e06040518083038186803b1580156106a957600080fd5b505afa1580156106bd573d6000803e3d6000fd5b505050506040513d601f19601f820116820180604052508101906106e19190611f1d565b9650505050505050826001600160a01b031663f2fde38b8561010001516040518263ffffffff1660e01b815260040161071a919061207a565b600060405180830381600087803b15801561073457600080fd5b505af1158015610748573d6000803e3d6000fd5b505060045461076292506001600160a01b03169050610c54565b60e08501516040517fc0c53b8b0000000000000000000000000000000000000000000000000000000081529193506001600160a01b0384169163c0c53b8b916107b191879086906004016121f1565b600060405180830381600087803b1580156107cb57600080fd5b505af11580156107df573d6000803e3d6000fd5b505060055460e08701516040517f450efe21000000000000000000000000000000000000000000000000000000008152606094506001600160a01b03909216925063450efe2191610833919060040161207a565b60006040518083038186803b15801561084b57600080fd5b505afa15801561085f573d6000803e3d6000fd5b505050506040513d6000823e601f3d908101601f191682016040526108879190810190611bf3565b9050606081516001876020015151030167ffffffffffffffff811180156108ad57600080fd5b506040519080825280602002602001820160405280156108d7578160200160208202803683370190505b506020870151519091507fffffffffffffffffffffffffffffffffffffffffffffffffffffffffffffffff0160005b81811015610952578760200151818151811061091e57fe5b602002602001015183828151811061093257fe5b6001600160a01b0390921660209283029190910190910152600101610906565b50805b82518110156109a057838282038151811061096c57fe5b602002602001015183828151811061098057fe5b6001600160a01b0390921660209283029190910190910152600101610955565b506109a96119e4565b5060408051610180810182526001600160a01b038089168252868116602080840191909152610120808c015160ff16848601528b51606085015260025483166080850152908b01805160a085015260c0840187905260e0808d015184169085015291891661010084015260009083018190526101408301819052610160830152519151909133917f0838512b7934222cec571cf3fde1cf3e9e864bbc431bd5d1ef4d9ed3079093d991610a5e918b91906120a8565b60405180910390a2336001600160a01b03167f0838512b7934222cec571cf3fde1cf3e9e864bbc431bd5d1ef4d9ed3079093d98785604051610aa19291906120a8565b60405180910390a26005546040517f8a754bbe0000000000000000000000000000000000000000000000000000000081526001600160a01b0390911690638a754bbe90610af2908490600401612542565b600060405180830381600087803b158015610b0c57600080fd5b505af1158015610b20573d6000803e3d6000fd5b505050505050505050915091565b6004546001600160a01b031681565b6001546001600160a01b031681565b6000818152602081905260409020600201545b919050565b600082815260208190526040902060020154610b82906103176113a8565b610b9e5760405162461bcd60e51b815260040161051090612284565b610ba882826113ac565b5050565b6005546001600160a01b031681565b610bc36113a8565b6001600160a01b0316816001600160a01b031614610bf35760405162461bcd60e51b8152600401610510906124e5565b610ba88282611415565b6003546001600160a01b031681565b7f506f6f6c5265676973747279000000000000000000000000000000000000000081565b7fe132a6a517694e2454dc663f0d4fa738f94e7c1bd06c8950d14f9db8832494bd81565b6000610c5f8261147e565b9050816001600160a01b03167f3bf919a220a0f12ddcaf77fd06ffa4b9c728617774936f0d78b452010319c82482604051610c9a919061207a565b60405180910390a2919050565b6000828152602081905260408120610cbf9083611504565b90505b92915050565b6000828152602081905260408120610cbf9083611510565b610d0a7fe132a6a517694e2454dc663f0d4fa738f94e7c1bd06c8950d14f9db8832494bd33610cc8565b610d265760405162461bcd60e51b81526004016105109061234f565b610d2f81611525565b50565b600081565b610d607f00000000000000000000000000000000000000000000000000000000000000006115ad565b565b7f000000000000000000000000000000000000000000000000000000000000000081565b60055481516040517f5b506a000000000000000000000000000000000000000000000000000000000081526000926001600160a01b031691635b506a0091610dd191906004016121e8565b602060405180830381600087803b158015610deb57600080fd5b505af1158015610dff573d6000803e3d6000fd5b505050506040513d601f19601f82011682018060405250810190610e239190611f05565b15610e405760405162461bcd60e51b8152600401610510906122e1565b600254600090610e58906001600160a01b0316610c54565b9050806001600160a01b031663b28cb6dc846020015185604001516040518060400160405280600781526020017f536164646c65200000000000000000000000000000000000000000000000000081525087606001516040518060400160405280600981526020017f204c5020546f6b656e0000000000000000000000000000000000000000000000815250604051602001610ef693929190612037565b60408051601f1981840301815290829052606089015160808a015160a08b015160c08c01516001547fffffffff0000000000000000000000000000000000000000000000000000000060e08b901b168752610f619897966001600160a01b03909116906004016120d2565b600060405180830381600087803b158015610f7b57600080fd5b505af1158015610f8f573d6000803e3d6000fd5b50505060e08401516040517ff2fde38b0000000000000000000000000000000000000000000000000000000081526001600160a01b038416925063f2fde38b91610fdb9160040161207a565b600060405180830381600087803b158015610ff557600080fd5b505af1158015611009573d6000803e3d6000fd5b505050506000816001600160a01b0316635fd65f0f6040518163ffffffff1660e01b815260040160e06040518083038186803b15801561104857600080fd5b505afa15801561105c573d6000803e3d6000fd5b505050506040513d601f19601f820116820180604052508101906110809190611f1d565b96505050505050506110906119e4565b5060408051610180810182526001600160a01b0384811682528381166020808401919091526101008881015160ff1684860152885160608501526002549092166080840152878101805160a085015284516000808252928101865260c085015260e0840182905291830181905261012083018190526101408301819052610160830152519151909133917f0838512b7934222cec571cf3fde1cf3e9e864bbc431bd5d1ef4d9ed3079093d991611148918791906120a8565b60405180910390a26005546040517f8a754bbe0000000000000000000000000000000000000000000000000000000081526001600160a01b0390911690638a754bbe90611199908490600401612542565b600060405180830381600087803b1580156111b357600080fd5b505af11580156111c7573d6000803e3d6000fd5b5094979650505050505050565b6040518060400160405280600981526020017f204c5020546f6b656e000000000000000000000000000000000000000000000081525081565b6040518060400160405280600781526020017f536164646c65200000000000000000000000000000000000000000000000000081525081565b6112707fe132a6a517694e2454dc663f0d4fa738f94e7c1bd06c8950d14f9db8832494bd33610cc8565b61128c5760405162461bcd60e51b81526004016105109061234f565b610d2f8161169d565b6000818152602081905260408120610cc290611725565b6002546001600160a01b031681565b6000828152602081905260409020600201546112d9906103176113a8565b610bf35760405162461bcd60e51b815260040161051090612386565b61131f7fe132a6a517694e2454dc663f0d4fa738f94e7c1bd06c8950d14f9db8832494bd33610cc8565b61133b5760405162461bcd60e51b81526004016105109061234f565b610d2f81611730565b61136e7fe132a6a517694e2454dc663f0d4fa738f94e7c1bd06c8950d14f9db8832494bd33610cc8565b61138a5760405162461bcd60e51b81526004016105109061234f565b610d2f816117b8565b6000610cbf836001600160a01b038416611840565b3390565b60008281526020819052604090206113c49082611393565b15610ba8576113d16113a8565b6001600160a01b0316816001600160a01b0316837f2f8788117e7eff1d82e926ec794901d17c78024a50270940304540a733656f0d60405160405180910390a45050565b600082815260208190526040902061142d908261188a565b15610ba85761143a6113a8565b6001600160a01b0316816001600160a01b0316837ff6391f5c32d9c69d2a47ea670b442974b53935d1edc7fd64eb21e047a839171b60405160405180910390a45050565b60006040517f3d602d80600a3d3981f3363d3d373d3d3d363d7300000000000000000000000081528260601b60148201527f5af43d82803e903d91602b57fd5bf3000000000000000000000000000000000060288201526037816000f09150506001600160a01b038116610b5f5760405162461bcd60e51b8152600401610510906123e3565b6000610cbf838361189f565b6000610cbf836001600160a01b0384166118e4565b6001600160a01b03811661154b5760405162461bcd60e51b815260040161051090612451565b600480547fffffffffffffffffffffffff0000000000000000000000000000000000000000166001600160a01b0383169081179091556040517f768ccdac0361ba56b697aa598fdd415f51a59d121b9d2b50714d3072cc4a8f1790600090a250565b6040517f3705f6250000000000000000000000000000000000000000000000000000000081526001600160a01b03821690633705f62590611612907f506f6f6c52656769737472790000000000000000000000000000000000000000906004016121e8565b60206040518083038186803b15801561162a57600080fd5b505afa15801561163e573d6000803e3d6000fd5b505050506040513d601f19601f820116820180604052508101906116629190611bd7565b600580547fffffffffffffffffffffffff0000000000000000000000000000000000000000166001600160a01b039290921691909117905550565b6001600160a01b0381166116c35760405162461bcd60e51b8152600401610510906124ae565b600380547fffffffffffffffffffffffff0000000000000000000000000000000000000000166001600160a01b0383169081179091556040517f06fc5602fc767cbb172d176a4cd0531d747abbdd090065ebd7b63ee4d2f0b44d90600090a250565b6000610cc2826118fc565b6001600160a01b0381166117565760405162461bcd60e51b81526004016105109061241a565b600280547fffffffffffffffffffffffff0000000000000000000000000000000000000000166001600160a01b0383169081179091556040517f6c149d1850b03102a8ac77fc865c12f017f4fb8bf9f9af345d36b0e8b60bcc8590600090a250565b6001600160a01b0381166117de5760405162461bcd60e51b815260040161051090612318565b600180547fffffffffffffffffffffffff0000000000000000000000000000000000000000166001600160a01b0383169081179091556040517f336ea638298c0cea1e72c71ed04716bef23a7a6251478299d7ca4067fea0c47990600090a250565b600061184c83836118e4565b61188257508154600181810184556000848152602080822090930184905584548482528286019093526040902091909155610cc2565b506000610cc2565b6000610cbf836001600160a01b038416611900565b815460009082106118c25760405162461bcd60e51b815260040161051090612227565b8260000182815481106118d157fe5b9060005260206000200154905092915050565b60009081526001919091016020526040902054151590565b5490565b600081815260018301602052604081205480156119da5783547fffffffffffffffffffffffffffffffffffffffffffffffffffffffffffffffff808301919081019060009087908390811061195157fe5b906000526020600020015490508087600001848154811061196e57fe5b60009182526020808320909101929092558281526001898101909252604090209084019055865487908061199e57fe5b60019003818190600052602060002001600090559055866001016000878152602001908152602001600020600090556001945050505050610cc2565b6000915050610cc2565b604080516101808101825260008082526020820181905291810182905260608082018390526080820183905260a0820181905260c082015260e0810182905261010081018290526101208101829052610140810182905261016081019190915290565b8035610cc2816126b7565b600082601f830112611a62578081fd5b8135611a75611a7082612667565b612640565b818152915060208083019084810181840286018201871015611a9657600080fd5b60005b84811015611abe578135611aac816126b7565b84529282019290820190600101611a99565b505050505092915050565b600082601f830112611ad9578081fd5b8135611ae7611a7082612667565b818152915060208083019084810181840286018201871015611b0857600080fd5b60005b84811015611abe57611b1d8883611ba3565b84529282019290820190600101611b0b565b8051610cc2816126b7565b600082601f830112611b4a578081fd5b813567ffffffffffffffff811115611b60578182fd5b611b736020601f19601f84011601612640565b9150808252836020828501011115611b8a57600080fd5b8060208401602084013760009082016020015292915050565b803560ff81168114610cc257600080fd5b600060208284031215611bc5578081fd5b8135611bd0816126b7565b9392505050565b600060208284031215611be8578081fd5b8151611bd0816126b7565b60006020808385031215611c05578182fd5b825167ffffffffffffffff811115611c1b578283fd5b8301601f81018513611c2b578283fd5b8051611c39611a7082612667565b8181528381019083850185840285018601891015611c55578687fd5b8694505b83851015611c7f57611c6b8982611b2f565b835260019490940193918501918501611c59565b50979650505050505050565b600060208284031215611c9c578081fd5b5035919050565b60008060408385031215611cb5578081fd5b823591506020830135611cc7816126b7565b809150509250929050565b60008060408385031215611ce4578182fd5b50508035926020909101359150565b600060208284031215611d04578081fd5b813567ffffffffffffffff80821115611d1b578283fd5b8184019150610140808387031215611d31578384fd5b611d3a81612640565b905082358152602083013582811115611d51578485fd5b611d5d87828601611a52565b602083015250604083013582811115611d74578485fd5b611d8087828601611ac9565b604083015250606083013582811115611d97578485fd5b611da387828601611b3a565b6060830152506080830135608082015260a083013560a082015260c083013560c0820152611dd48660e08501611a47565b60e08201526101009150611dea86838501611a47565b828201526101209150611dff86838501611ba3565b91810191909152949350505050565b600060208284031215611e1f578081fd5b813567ffffffffffffffff80821115611e36578283fd5b8184019150610120808387031215611e4c578384fd5b611e5581612640565b905082358152602083013582811115611e6c578485fd5b611e7887828601611a52565b602083015250604083013582811115611e8f578485fd5b611e9b87828601611ac9565b604083015250606083013582811115611eb2578485fd5b611ebe87828601611b3a565b6060830152506080830135608082015260a083013560a082015260c083013560c0820152611eef8660e08501611a47565b60e08201526101009150611dff86838501611ba3565b600060208284031215611f16578081fd5b5051919050565b600080600080600080600060e0888a031215611f37578283fd5b875196506020880151955060408801519450606088015193506080880151925060a0880151915060c0880151611f6c816126b7565b8091505092959891949750929550565b6001600160a01b03169052565b6000815180845260208085019450808401835b83811015611fc15781516001600160a01b031687529582019590820190600101611f9c565b509495945050505050565b6000815180845260208085019450808401835b83811015611fc157815160ff1687529582019590820190600101611fdf565b15159052565b6000815180845261201c816020860160208601612687565b601f01601f19169290920160200192915050565b60ff169052565b60008451612049818460208901612687565b84519083019061205d818360208901612687565b8451910190612070818360208801612687565b0195945050505050565b6001600160a01b0391909116815260200190565b6001600160a01b0392831681529116602082015260400190565b60006001600160a01b0384168252604060208301526120ca6040830184611f89565b949350505050565b60006101008083526120e68184018c611f89565b905082810360208401526120fa818b611fcc565b9050828103604084015261210e818a612004565b905082810360608401526121228189612004565b9150508560808301528460a08301528360c08301526001600160a01b03831660e08301529998505050505050505050565b60006101208083526121678184018d611f89565b9050828103602084015261217b818c611fcc565b9050828103604084015261218f818b612004565b905082810360608401526121a3818a612004565b6080840198909852505060a081019490945260c08401929092526001600160a01b0390811660e08401521661010090910152949350505050565b901515815260200190565b90815260200190565b6001600160a01b0393841681529183166020830152909116604082015260600190565b600060208252610cbf6020830184612004565b60208082526022908201527f456e756d657261626c655365743a20696e646578206f7574206f6620626f756e60408201527f6473000000000000000000000000000000000000000000000000000000000000606082015260800190565b6020808252602f908201527f416363657373436f6e74726f6c3a2073656e646572206d75737420626520616e60408201527f2061646d696e20746f206772616e740000000000000000000000000000000000606082015260800190565b60208082526018908201527f706f6f6c206e616d6520616c7265616479206578697374730000000000000000604082015260600190565b6020808252601a908201527f546172676574204c50546f6b656e2063616e6e6f742062652030000000000000604082015260600190565b6020808252600c908201527f6f6e6c79206d616e616765720000000000000000000000000000000000000000604082015260600190565b60208082526030908201527f416363657373436f6e74726f6c3a2073656e646572206d75737420626520616e60408201527f2061646d696e20746f207265766f6b6500000000000000000000000000000000606082015260800190565b60208082526016908201527f455243313136373a20637265617465206661696c656400000000000000000000604082015260600190565b60208082526017908201527f54617267657420537761702063616e6e6f742062652030000000000000000000604082015260600190565b60208082526022908201527f546172676574204d657461537761704465706f7369742063616e6e6f7420626560408201527f2030000000000000000000000000000000000000000000000000000000000000606082015260800190565b6020808252601b908201527f546172676574204d657461537761702063616e6e6f7420626520300000000000604082015260600190565b6020808252602f908201527f416363657373436f6e74726f6c3a2063616e206f6e6c792072656e6f756e636560408201527f20726f6c657320666f722073656c660000000000000000000000000000000000606082015260800190565b600060208252612556602083018451611f7c565b60208301516125686040840182611f7c565b50604083015161257b6060840182612030565b5060608301516080830152608083015161259860a0840182611f7c565b5060a08301516101808060c08501526125b56101a0850183611f89565b915060c0850151601f198584030160e08601526125d28382611f89565b92505060e08501516101006125e981870183611f7c565b86015190506101206125fd86820183611f7c565b860151905061014061261186820183611ffe565b860151905061016061262586820183611ffe565b860151905061263685830182611ffe565b5090949350505050565b60405181810167ffffffffffffffff8111828210171561265f57600080fd5b604052919050565b600067ffffffffffffffff82111561267d578081fd5b5060209081020190565b60005b838110156126a257818101518382015260200161268a565b838111156126b1576000848401525b50505050565b6001600160a01b0381168114610d2f57600080fdfea2646970667358221220d56422b9e463c0dcb41b8cca0dcd51818946ab0781666fb5f3badcc92cb3841564736f6c634300060c0033",
  "devdoc": {
    "events": {
      "NewSwapPool(address,address,address[])": {
        "params": {
          "deployer": "address of the deployer",
          "pooledTokens": ", array of addresses of the tokens in the pool",
          "swapAddress": "address of the deployed pool"
        }
      },
      "PoolRegistryUpdated(address)": {
        "params": {
          "poolRegistry": "address of the current Saddle Pool Registry"
        }
      }
    },
    "kind": "dev",
    "methods": {
      "clone(address)": {
        "params": {
          "target": "the address of the target pool to be cloned"
        },
        "returns": {
          "newClone": "an address of the cloned pool"
        }
      },
      "deployMetaSwap((bytes32,address[],uint8[],string,uint256,uint256,uint256,address,address,uint8))": {
        "params": {
          "input": ", a DeployMetaSwapInput struct containing the input parameters for the meta pool."
        }
      },
      "deploySwap((bytes32,address[],uint8[],string,uint256,uint256,uint256,address,uint8))": {
        "params": {
          "input": ", a struct containing the input parameters for the pool to be deployed, must include a unique pool name."
        },
        "returns": {
          "deployedSwap": "the address of the deployed pool."
        }
      },
      "getRoleAdmin(bytes32)": {
        "details": "Returns the admin role that controls `role`. See {grantRole} and {revokeRole}. To change a role's admin, use {_setRoleAdmin}."
      },
      "getRoleMember(bytes32,uint256)": {
        "details": "Returns one of the accounts that have `role`. `index` must be a value between 0 and {getRoleMemberCount}, non-inclusive. Role bearers are not sorted in any particular way, and their ordering may change at any point. WARNING: When using {getRoleMember} and {getRoleMemberCount}, make sure you perform all queries on the same block. See the following https://forum.openzeppelin.com/t/iterating-over-elements-on-enumerableset-in-openzeppelin-contracts/2296[forum post] for more information."
      },
      "getRoleMemberCount(bytes32)": {
        "details": "Returns the number of accounts that have `role`. Can be used together with {getRoleMember} to enumerate all bearers of a role."
      },
      "grantRole(bytes32,address)": {
        "details": "Grants `role` to `account`. If `account` had not been already granted `role`, emits a {RoleGranted} event. Requirements: - the caller must have ``role``'s admin role."
      },
      "hasRole(bytes32,address)": {
        "details": "Returns `true` if `account` has been granted `role`."
      },
      "renounceRole(bytes32,address)": {
        "details": "Revokes `role` from the calling account. Roles are often managed via {grantRole} and {revokeRole}: this function's purpose is to provide a mechanism for accounts to lose their privileges if they are compromised (such as when a trusted device is misplaced). If the calling account had been granted `role`, emits a {RoleRevoked} event. Requirements: - the caller must be `account`."
      },
      "revokeRole(bytes32,address)": {
        "details": "Revokes `role` from `account`. If `account` had been granted `role`, emits a {RoleRevoked} event. Requirements: - the caller must have ``role``'s admin role."
      }
    },
    "title": "PermissionlessDeployer",
    "version": 1
  },
  "userdoc": {
    "events": {
      "NewSwapPool(address,address,address[])": {
        "notice": "Emmited when a new pool is deployed"
      },
      "PoolRegistryUpdated(address)": {
        "notice": "Emmited when the pool registry cache is updated"
      }
    },
    "kind": "user",
    "methods": {
      "SADDLE_MANAGER_ROLE()": {
        "notice": "Role responsible for managing target addresses"
      },
      "clone(address)": {
        "notice": "Uses openzeppelin's clone mechanism to clone an existing a pool for cheaper deployments."
      },
      "deployMetaSwap((bytes32,address[],uint8[],string,uint256,uint256,uint256,address,address,uint8))": {
        "notice": "Deploys a new meta pool."
      },
      "deploySwap((bytes32,address[],uint8[],string,uint256,uint256,uint256,address,uint8))": {
        "notice": "Deploys a new pool, adds an entry in the Saddle Pool Registry."
      },
      "updatePoolRegistryCache()": {
        "notice": "Updates cached address of the pool registry **should be onlymanager?"
      }
    },
    "notice": "Allows for anyone to indepentantly deploy pools and meta pools of given tokens. A user will set custom parameters for the pool such as the trading/admin fees, as well as the a-parameter. Ownership of the pools are given to the deploying address. Saddle will collect 50% of the trading fees earned by the pool.",
    "version": 1
  },
  "storageLayout": {
    "storage": [
      {
        "astId": 1726,
        "contract": "contracts/permissionless/PermissionlessDeployer.sol:PermissionlessDeployer",
        "label": "_roles",
        "offset": 0,
        "slot": "0",
        "type": "t_mapping(t_bytes32,t_struct(RoleData)1722_storage)"
      },
      {
        "astId": 31861,
        "contract": "contracts/permissionless/PermissionlessDeployer.sol:PermissionlessDeployer",
        "label": "targetLPToken",
        "offset": 0,
        "slot": "1",
        "type": "t_address"
      },
      {
        "astId": 31863,
        "contract": "contracts/permissionless/PermissionlessDeployer.sol:PermissionlessDeployer",
        "label": "targetSwap",
        "offset": 0,
        "slot": "2",
        "type": "t_address"
      },
      {
        "astId": 31865,
        "contract": "contracts/permissionless/PermissionlessDeployer.sol:PermissionlessDeployer",
        "label": "targetMetaSwap",
        "offset": 0,
        "slot": "3",
        "type": "t_address"
      },
      {
        "astId": 31867,
        "contract": "contracts/permissionless/PermissionlessDeployer.sol:PermissionlessDeployer",
        "label": "targetMetaSwapDeposit",
        "offset": 0,
        "slot": "4",
        "type": "t_address"
      },
      {
        "astId": 31875,
        "contract": "contracts/permissionless/PermissionlessDeployer.sol:PermissionlessDeployer",
        "label": "poolRegistryCached",
        "offset": 0,
        "slot": "5",
        "type": "t_contract(IPoolRegistry)25070"
      }
    ],
    "types": {
      "t_address": {
        "encoding": "inplace",
        "label": "address",
        "numberOfBytes": "20"
      },
      "t_array(t_bytes32)dyn_storage": {
        "base": "t_bytes32",
        "encoding": "dynamic_array",
        "label": "bytes32[]",
        "numberOfBytes": "32"
      },
      "t_bytes32": {
        "encoding": "inplace",
        "label": "bytes32",
        "numberOfBytes": "32"
      },
      "t_contract(IPoolRegistry)25070": {
        "encoding": "inplace",
        "label": "contract IPoolRegistry",
        "numberOfBytes": "20"
      },
      "t_mapping(t_bytes32,t_struct(RoleData)1722_storage)": {
        "encoding": "mapping",
        "key": "t_bytes32",
        "label": "mapping(bytes32 => struct AccessControl.RoleData)",
        "numberOfBytes": "32",
        "value": "t_struct(RoleData)1722_storage"
      },
      "t_mapping(t_bytes32,t_uint256)": {
        "encoding": "mapping",
        "key": "t_bytes32",
        "label": "mapping(bytes32 => uint256)",
        "numberOfBytes": "32",
        "value": "t_uint256"
      },
      "t_struct(AddressSet)5815_storage": {
        "encoding": "inplace",
        "label": "struct EnumerableSet.AddressSet",
        "members": [
          {
            "astId": 5814,
            "contract": "contracts/permissionless/PermissionlessDeployer.sol:PermissionlessDeployer",
            "label": "_inner",
            "offset": 0,
            "slot": "0",
            "type": "t_struct(Set)5550_storage"
          }
        ],
        "numberOfBytes": "64"
      },
      "t_struct(RoleData)1722_storage": {
        "encoding": "inplace",
        "label": "struct AccessControl.RoleData",
        "members": [
          {
            "astId": 1719,
            "contract": "contracts/permissionless/PermissionlessDeployer.sol:PermissionlessDeployer",
            "label": "members",
            "offset": 0,
            "slot": "0",
            "type": "t_struct(AddressSet)5815_storage"
          },
          {
            "astId": 1721,
            "contract": "contracts/permissionless/PermissionlessDeployer.sol:PermissionlessDeployer",
            "label": "adminRole",
            "offset": 0,
            "slot": "2",
            "type": "t_bytes32"
          }
        ],
        "numberOfBytes": "96"
      },
      "t_struct(Set)5550_storage": {
        "encoding": "inplace",
        "label": "struct EnumerableSet.Set",
        "members": [
          {
            "astId": 5545,
            "contract": "contracts/permissionless/PermissionlessDeployer.sol:PermissionlessDeployer",
            "label": "_values",
            "offset": 0,
            "slot": "0",
            "type": "t_array(t_bytes32)dyn_storage"
          },
          {
            "astId": 5549,
            "contract": "contracts/permissionless/PermissionlessDeployer.sol:PermissionlessDeployer",
            "label": "_indexes",
            "offset": 0,
            "slot": "1",
            "type": "t_mapping(t_bytes32,t_uint256)"
          }
        ],
        "numberOfBytes": "64"
      },
      "t_uint256": {
        "encoding": "inplace",
        "label": "uint256",
        "numberOfBytes": "32"
      }
    }
  }
}