{
  "address": "0xFdA5D2ad8b6d3884AbB799DA66f57175E8706941",
  "abi": [
    {
      "anonymous": false,
      "inputs": [
        {
          "indexed": false,
          "internalType": "uint256",
          "name": "oldA",
          "type": "uint256"
        },
        {
          "indexed": false,
          "internalType": "uint256",
          "name": "newA",
          "type": "uint256"
        },
        {
          "indexed": false,
          "internalType": "uint256",
          "name": "initialTime",
          "type": "uint256"
        },
        {
          "indexed": false,
          "internalType": "uint256",
          "name": "futureTime",
          "type": "uint256"
        }
      ],
      "name": "RampA",
      "type": "event"
    },
    {
      "anonymous": false,
      "inputs": [
        {
          "indexed": false,
          "internalType": "uint256",
          "name": "currentA",
          "type": "uint256"
        },
        {
          "indexed": false,
          "internalType": "uint256",
          "name": "time",
          "type": "uint256"
        }
      ],
      "name": "StopRampA",
      "type": "event"
    },
    {
      "inputs": [],
      "name": "A_PRECISION",
      "outputs": [
        {
          "internalType": "uint256",
          "name": "",
          "type": "uint256"
        }
      ],
      "stateMutability": "view",
      "type": "function"
    },
    {
      "inputs": [],
      "name": "MAX_A",
      "outputs": [
        {
          "internalType": "uint256",
          "name": "",
          "type": "uint256"
        }
      ],
      "stateMutability": "view",
      "type": "function"
    }
  ],
  "transactionHash": "0xca92d9d68440b191795ebeef7907686a2813905cfa29893d94863ceb271d8214",
  "args": [],
  "numDeployments": 1,
  "solcInputHash": "faeaaf1f06e012c3200d7f368f424bd7",
  "bytecode": "0x6106c261003a600b82828239805160001a60731461002d57634e487b7160e01b600052600060045260246000fd5b30600052607381538281f3fe730000000000000000000000000000000000000000301460806040526004361061007c5760003560e01c8063c4a241f71161005a578063c4a241f7146100d2578063d011f918146100e5578063d3a605a5146100ed57600080fd5b80631c103df01461008157806339698415146100a6578063858490d3146100b0575b600080fd5b61009461008f3660046105a0565b61010d565b60405190815260200160405180910390f35b610094620f424081565b8180156100bc57600080fd5b506100d06100cb3660046105b9565b61012a565b005b6100946100e03660046105a0565b610410565b610094606481565b8180156100f957600080fd5b506100d06101083660046105a0565b61041b565b6000606461011a836104f2565b6101249190610614565b92915050565b600283015461013c906201518061064f565b4210156101aa576040517f08c379a000000000000000000000000000000000000000000000000000000000815260206004820152601f60248201527f57616974203120646179206265666f7265207374617274696e672072616d700060448201526064015b60405180910390fd5b6101b7621275004261064f565b811015610220576040517f08c379a000000000000000000000000000000000000000000000000000000000815260206004820152601660248201527f496e73756666696369656e742072616d702074696d650000000000000000000060448201526064016101a1565b6000821180156102325750620f424082105b610298576040517f08c379a000000000000000000000000000000000000000000000000000000000815260206004820181905260248201527f667574757265415f206d757374206265203e203020616e64203c204d41585f4160448201526064016101a1565b60006102a3846104f2565b905060006102b2606485610662565b90508181101561033557816102c8600283610662565b1015610330576040517f08c379a000000000000000000000000000000000000000000000000000000000815260206004820152601560248201527f667574757265415f20697320746f6f20736d616c6c000000000000000000000060448201526064016101a1565b6103a9565b610340600283610662565b8111156103a9576040517f08c379a000000000000000000000000000000000000000000000000000000000815260206004820152601560248201527f667574757265415f20697320746f6f206c61726765000000000000000000000060448201526064016101a1565b8185556001850181905542600286018190556003860184905560408051848152602081018490528082019290925260608201859052517fa2b71ec6df949300b59aab36b55e189697b750119dd349fcfa8c0f779e83c2549181900360800190a15050505050565b6000610124826104f2565b42816003015411610488576040517f08c379a000000000000000000000000000000000000000000000000000000000815260206004820152601760248201527f52616d7020697320616c72656164792073746f7070656400000000000000000060448201526064016101a1565b6000610493826104f2565b808355600183018190554260028401819055600384018190556040519192507f46e22fb3709ad289f62ce63d469248536dbc78d82b84a3d7e74ad606dc201938916104e691848252602082015260400190565b60405180910390a15050565b60038101546001820154600091904282111561059957600284015484548083111561055d576105218285610679565b61052b8342610679565b6105358386610679565b61053f9190610662565b6105499190610614565b610553908261064f565b9695505050505050565b6105678285610679565b6105718342610679565b61057b8584610679565b6105859190610662565b61058f9190610614565b6105539082610679565b9392505050565b6000602082840312156105b257600080fd5b5035919050565b6000806000606084860312156105ce57600080fd5b505081359360208301359350604090920135919050565b7f4e487b7100000000000000000000000000000000000000000000000000000000600052601160045260246000fd5b60008261064a577f4e487b7100000000000000000000000000000000000000000000000000000000600052601260045260246000fd5b500490565b80820180821115610124576101246105e5565b8082028115828204841417610124576101246105e5565b81810381811115610124576101246105e556fea2646970667358221220f8cf13bb67b262cdd38cab7f22643f364d1b7bfa512270e7eb6042233035baf064736f6c63430008110033",
  "devdoc": {
    "kind": "dev",
    "methods": {
      "getA(SwapUtilsV2.Swap storage)": {
        "details": "See the StableSwap paper for details",
        "params": {
          "self": "Swap struct to read from"
        },
        "returns": {
          "_0": "A parameter"
        }
      },
      "getAPrecise(SwapUtilsV2.Swap storage)": {
        "details": "See the StableSwap paper for details",
        "params": {
          "self": "Swap struct to read from"
        },
        "returns": {
          "_0": "A parameter in its raw precision form"
        }
      },
      "rampA(SwapUtilsV2.Swap storage,uint256,uint256)": {
        "params": {
          "futureA_": "the new A to ramp towards",
          "futureTime_": "timestamp when the new A should be reached",
          "self": "Swap struct to update"
        }
      },
      "stopRampA(SwapUtilsV2.Swap storage)": {
        "params": {
          "self": "Swap struct to update"
        }
      }
    },
    "title": "AmplificationUtils library",
    "version": 1
  },
  "userdoc": {
    "kind": "user",
    "methods": {
      "getA(SwapUtilsV2.Swap storage)": {
        "notice": "Return A, the amplification coefficient * n * (n - 1)"
      },
      "getAPrecise(SwapUtilsV2.Swap storage)": {
        "notice": "Return A in its raw precision"
      },
      "rampA(SwapUtilsV2.Swap storage,uint256,uint256)": {
        "notice": "Start ramping up or down A parameter towards given futureA_ and futureTime_ Checks if the change is too rapid, and commits the new A value only when it falls under the limit range."
      },
      "stopRampA(SwapUtilsV2.Swap storage)": {
        "notice": "Stops ramping A immediately. Once this function is called, rampA() cannot be called for another 24 hours"
      }
    },
    "notice": "A library to calculate and ramp the A parameter of a given `SwapUtilsV2.Swap` struct. This library assumes the struct is fully validated.",
    "version": 1
  },
  "storageLayout": {
    "storage": [],
    "types": null
  }
}