{
  "address": "0x5dD186f8809147F96D3ffC4508F3C82694E58c9c",
  "abi": [
    {
      "anonymous": false,
      "inputs": [
        {
          "indexed": false,
          "internalType": "uint8",
          "name": "version",
          "type": "uint8"
        }
      ],
      "name": "Initialized",
      "type": "event"
    },
    {
      "inputs": [
        {
          "internalType": "uint256[]",
          "name": "amounts",
          "type": "uint256[]"
        },
        {
          "internalType": "uint256",
          "name": "minToMint",
          "type": "uint256"
        },
        {
          "internalType": "uint256",
          "name": "deadline",
          "type": "uint256"
        }
      ],
      "name": "addLiquidity",
      "outputs": [
        {
          "internalType": "uint256",
          "name": "",
          "type": "uint256"
        }
      ],
      "stateMutability": "nonpayable",
      "type": "function"
    },
    {
      "inputs": [],
      "name": "baseSwap",
      "outputs": [
        {
          "internalType": "contract ISwapV2",
          "name": "",
          "type": "address"
        }
      ],
      "stateMutability": "view",
      "type": "function"
    },
    {
      "inputs": [
        {
          "internalType": "uint256",
          "name": "",
          "type": "uint256"
        }
      ],
      "name": "baseTokens",
      "outputs": [
        {
          "internalType": "contract IERC20",
          "name": "",
          "type": "address"
        }
      ],
      "stateMutability": "view",
      "type": "function"
    },
    {
      "inputs": [
        {
          "internalType": "uint256",
          "name": "amount",
          "type": "uint256"
        }
      ],
      "name": "calculateRemoveLiquidity",
      "outputs": [
        {
          "internalType": "uint256[]",
          "name": "",
          "type": "uint256[]"
        }
      ],
      "stateMutability": "view",
      "type": "function"
    },
    {
      "inputs": [
        {
          "internalType": "uint256",
          "name": "tokenAmount",
          "type": "uint256"
        },
        {
          "internalType": "uint8",
          "name": "tokenIndex",
          "type": "uint8"
        }
      ],
      "name": "calculateRemoveLiquidityOneToken",
      "outputs": [
        {
          "internalType": "uint256",
          "name": "",
          "type": "uint256"
        }
      ],
      "stateMutability": "view",
      "type": "function"
    },
    {
      "inputs": [
        {
          "internalType": "uint8",
          "name": "tokenIndexFrom",
          "type": "uint8"
        },
        {
          "internalType": "uint8",
          "name": "tokenIndexTo",
          "type": "uint8"
        },
        {
          "internalType": "uint256",
          "name": "dx",
          "type": "uint256"
        }
      ],
      "name": "calculateSwap",
      "outputs": [
        {
          "internalType": "uint256",
          "name": "",
          "type": "uint256"
        }
      ],
      "stateMutability": "view",
      "type": "function"
    },
    {
      "inputs": [
        {
          "internalType": "uint256[]",
          "name": "amounts",
          "type": "uint256[]"
        },
        {
          "internalType": "bool",
          "name": "deposit",
          "type": "bool"
        }
      ],
      "name": "calculateTokenAmount",
      "outputs": [
        {
          "internalType": "uint256",
          "name": "",
          "type": "uint256"
        }
      ],
      "stateMutability": "view",
      "type": "function"
    },
    {
      "inputs": [
        {
          "internalType": "uint8",
          "name": "index",
          "type": "uint8"
        }
      ],
      "name": "getToken",
      "outputs": [
        {
          "internalType": "contract IERC20",
          "name": "",
          "type": "address"
        }
      ],
      "stateMutability": "view",
      "type": "function"
    },
    {
      "inputs": [
        {
          "internalType": "contract ISwapV2",
          "name": "_baseSwap",
          "type": "address"
        },
        {
          "internalType": "contract IMetaSwapV1",
          "name": "_metaSwap",
          "type": "address"
        },
        {
          "internalType": "contract IERC20",
          "name": "_metaLPToken",
          "type": "address"
        }
      ],
      "name": "initialize",
      "outputs": [],
      "stateMutability": "nonpayable",
      "type": "function"
    },
    {
      "inputs": [],
      "name": "metaLPToken",
      "outputs": [
        {
          "internalType": "contract IERC20",
          "name": "",
          "type": "address"
        }
      ],
      "stateMutability": "view",
      "type": "function"
    },
    {
      "inputs": [],
      "name": "metaSwap",
      "outputs": [
        {
          "internalType": "contract IMetaSwapV1",
          "name": "",
          "type": "address"
        }
      ],
      "stateMutability": "view",
      "type": "function"
    },
    {
      "inputs": [
        {
          "internalType": "uint256",
          "name": "",
          "type": "uint256"
        }
      ],
      "name": "metaTokens",
      "outputs": [
        {
          "internalType": "contract IERC20",
          "name": "",
          "type": "address"
        }
      ],
      "stateMutability": "view",
      "type": "function"
    },
    {
      "inputs": [
        {
          "internalType": "uint256",
          "name": "amount",
          "type": "uint256"
        },
        {
          "internalType": "uint256[]",
          "name": "minAmounts",
          "type": "uint256[]"
        },
        {
          "internalType": "uint256",
          "name": "deadline",
          "type": "uint256"
        }
      ],
      "name": "removeLiquidity",
      "outputs": [
        {
          "internalType": "uint256[]",
          "name": "",
          "type": "uint256[]"
        }
      ],
      "stateMutability": "nonpayable",
      "type": "function"
    },
    {
      "inputs": [
        {
          "internalType": "uint256[]",
          "name": "amounts",
          "type": "uint256[]"
        },
        {
          "internalType": "uint256",
          "name": "maxBurnAmount",
          "type": "uint256"
        },
        {
          "internalType": "uint256",
          "name": "deadline",
          "type": "uint256"
        }
      ],
      "name": "removeLiquidityImbalance",
      "outputs": [
        {
          "internalType": "uint256",
          "name": "",
          "type": "uint256"
        }
      ],
      "stateMutability": "nonpayable",
      "type": "function"
    },
    {
      "inputs": [
        {
          "internalType": "uint256",
          "name": "tokenAmount",
          "type": "uint256"
        },
        {
          "internalType": "uint8",
          "name": "tokenIndex",
          "type": "uint8"
        },
        {
          "internalType": "uint256",
          "name": "minAmount",
          "type": "uint256"
        },
        {
          "internalType": "uint256",
          "name": "deadline",
          "type": "uint256"
        }
      ],
      "name": "removeLiquidityOneToken",
      "outputs": [
        {
          "internalType": "uint256",
          "name": "",
          "type": "uint256"
        }
      ],
      "stateMutability": "nonpayable",
      "type": "function"
    },
    {
      "inputs": [
        {
          "internalType": "uint8",
          "name": "tokenIndexFrom",
          "type": "uint8"
        },
        {
          "internalType": "uint8",
          "name": "tokenIndexTo",
          "type": "uint8"
        },
        {
          "internalType": "uint256",
          "name": "dx",
          "type": "uint256"
        },
        {
          "internalType": "uint256",
          "name": "minDy",
          "type": "uint256"
        },
        {
          "internalType": "uint256",
          "name": "deadline",
          "type": "uint256"
        }
      ],
      "name": "swap",
      "outputs": [
        {
          "internalType": "uint256",
          "name": "",
          "type": "uint256"
        }
      ],
      "stateMutability": "nonpayable",
      "type": "function"
    },
    {
      "inputs": [
        {
          "internalType": "uint256",
          "name": "",
          "type": "uint256"
        }
      ],
      "name": "tokens",
      "outputs": [
        {
          "internalType": "contract IERC20",
          "name": "",
          "type": "address"
        }
      ],
      "stateMutability": "view",
      "type": "function"
    }
  ],
  "transactionHash": "0xa1edfbfb69aee5519a1a3c892441c46f776a4e936585602bc6f0c28d5ad184c1",
  "args": [],
  "numDeployments": 1,
  "solcInputHash": "faeaaf1f06e012c3200d7f368f424bd7",
  "bytecode": "0x608060405234801561001057600080fd5b506137fe806100206000396000f3fe608060405234801561001057600080fd5b506004361061011b5760003560e01c806391695586116100b2578063cb2ef5fe11610081578063e6ab280611610066578063e6ab280614610268578063f2fad2b61461027b578063fd0bd0991461028e57600080fd5b8063cb2ef5fe14610242578063d26504721461025557600080fd5b806391695586146101f45780639750a8ee14610207578063a95b089f1461021a578063c0c53b8b1461022d57600080fd5b80634d49e87d116100ee5780634d49e87d146101a85780634f64b2be146101bb57806382b86600146101ce57806384cdd9bc146101e157600080fd5b806331cd52b014610120578063328123a214610149578063342a87a1146101745780633e3a156014610195575b600080fd5b61013361012e36600461319f565b6102a1565b604051610140919061322d565b60405180910390f35b61015c610157366004613240565b6108a6565b6040516001600160a01b039091168152602001610140565b61018761018236600461326f565b6108d0565b604051908152602001610140565b6101876101a336600461329b565b610ac5565b6101876101b63660046132d6565b610ec6565b61015c6101c9366004613240565b61146e565b61015c6101dc366004613327565b61147e565b6101876101ef3660046132d6565b611506565b610187610202366004613342565b611d91565b60335461015c906001600160a01b031681565b61018761022836600461338f565b611f15565b61024061023b3660046133e3565b611fb7565b005b60345461015c906001600160a01b031681565b60385461015c906001600160a01b031681565b61018761027636600461343c565b6126d6565b610133610289366004613240565b612988565b61015c61029c366004613240565b612bf3565b60606002600154036102fa5760405162461bcd60e51b815260206004820152601f60248201527f5265656e7472616e637947756172643a207265656e7472616e742063616c6c0060448201526064015b60405180910390fd5b600260015560358054604080516020808402820181019092528281526000939092909183018282801561035657602002820191906000526020600020905b81546001600160a01b03168152600190910190602001808311610338575b50505050509050600060368054806020026020016040519081016040528092919081815260200182805480156103b557602002820191906000526020600020905b81546001600160a01b03168152600190910190602001808311610397575b50505050509050606060006001835185516103d091906134b7565b6103da91906134ca565b905086811461042b5760405162461bcd60e51b815260206004820152600c60248201527f6f7574206f662072616e6765000000000000000000000000000000000000000060448201526064016102f1565b8067ffffffffffffffff811115610444576104446134dd565b60405190808252806020026020018201604052801561046d578160200160208202803683370190505b5060385490925061048a91506001600160a01b031633308b612c03565b6000606060006001855161049e91906134ca565b90506000855167ffffffffffffffff8111156104bc576104bc6134dd565b6040519080825280602002602001820160405280156104e5578160200160208202803683370190505b50905060005b828160ff161015610544578b8b8260ff1681811061050b5761050b61350c565b90506020020135828260ff16815181106105275761052761350c565b60209081029190910101528061053c8161353b565b9150506104eb565b506034546040517f31cd52b00000000000000000000000000000000000000000000000000000000081526001600160a01b03909116906331cd52b090610592908f9085908e9060040161355a565b6000604051808303816000875af11580156105b1573d6000803e3d6000fd5b505050506040513d6000823e601f3d908101601f191682016040526105d99190810190613583565b92505060005b818160ff16101561069057828160ff16815181106105ff576105ff61350c565b6020026020010151858260ff168151811061061c5761061c61350c565b60200260200101818152505061067e33848360ff16815181106106415761064161350c565b6020026020010151888460ff168151811061065e5761065e61350c565b60200260200101516001600160a01b0316612cb49092919063ffffffff16565b806106888161353b565b9150506105df565b508181815181106106a3576106a361350c565b602002602001015192506000865167ffffffffffffffff8111156106c9576106c96134dd565b6040519080825280602002602001820160405280156106f2578160200160208202803683370190505b50905060005b828160ff16101561075a578b8b61071260ff8416866134b7565b8181106107215761072161350c565b90506020020135828260ff168151811061073d5761073d61350c565b6020908102919091010152806107528161353b565b9150506106f8565b506033546040517f31cd52b00000000000000000000000000000000000000000000000000000000081526001600160a01b03909116906331cd52b0906107a890879085908e9060040161355a565b6000604051808303816000875af11580156107c7573d6000803e3d6000fd5b505050506040513d6000823e601f3d908101601f191682016040526107ef9190810190613583565b92505060005b86518160ff16101561089257828160ff16815181106108165761081661350c565b6020026020010151858260ff168461082e91906134b7565b8151811061083e5761083e61350c565b60200260200101818152505061088033848360ff16815181106108635761086361350c565b6020026020010151898460ff168151811061065e5761065e61350c565b8061088a8161353b565b9150506107f5565b505060018055509098975050505050505050565b603581815481106108b657600080fd5b6000918252602090912001546001600160a01b0316905081565b60365460009081906108e4906001906134ca565b90508060ff168360ff16101561098b576034546040517f342a87a10000000000000000000000000000000000000000000000000000000081526004810186905260ff851660248201526001600160a01b039091169063342a87a190604401602060405180830381865afa15801561095f573d6000803e3d6000fd5b505050506040513d601f19601f820116820180604052508101906109839190613635565b915050610abf565b6034546040517f342a87a10000000000000000000000000000000000000000000000000000000081526004810186905260ff831660248201526000916001600160a01b03169063342a87a190604401602060405180830381865afa1580156109f7573d6000803e3d6000fd5b505050506040513d601f19601f82011682018060405250810190610a1b9190613635565b6033549091506001600160a01b031663342a87a182610a3a858861364e565b6040517fffffffff0000000000000000000000000000000000000000000000000000000060e085901b168152600481019290925260ff166024820152604401602060405180830381865afa158015610a96573d6000803e3d6000fd5b505050506040513d601f19601f82011682018060405250810190610aba9190613635565b925050505b92915050565b6000600260015403610b195760405162461bcd60e51b815260206004820152601f60248201527f5265656e7472616e637947756172643a207265656e7472616e742063616c6c0060448201526064016102f1565b60026001908155603654600091610b2f916134ca565b60355460385491925090610b4e906001600160a01b031633308a612c03565b60008260ff168760ff161015610c30576034546040517f3e3a1560000000000000000000000000000000000000000000000000000000008152600481018a905260ff8916602482015260448101889052606481018790526001600160a01b0390911690633e3a1560906084016020604051808303816000875af1158015610bd9573d6000803e3d6000fd5b505050506040513d601f19601f82011682018060405250810190610bfd9190613635565b5060368760ff1681548110610c1457610c1461350c565b6000918252602090912001546001600160a01b03169050610e1c565b610c3a8284613667565b60ff168760ff161015610dd4576034546040517f3e3a1560000000000000000000000000000000000000000000000000000000008152600481018a905260ff8516602482015260006044820181905260648201889052916001600160a01b031690633e3a1560906084016020604051808303816000875af1158015610cc3573d6000803e3d6000fd5b505050506040513d601f19601f82011682018060405250810190610ce79190613635565b6033549091506001600160a01b0316633e3a156082610d06878c61364e565b6040517fffffffff0000000000000000000000000000000000000000000000000000000060e085901b168152600481019290925260ff166024820152604481018a9052606481018990526084016020604051808303816000875af1158015610d72573d6000803e3d6000fd5b505050506040513d601f19601f82011682018060405250810190610d969190613635565b506035610da3858a61364e565b60ff1681548110610db657610db661350c565b6000918252602090912001546001600160a01b03169150610e1c9050565b60405162461bcd60e51b815260206004820152600c60248201527f6f7574206f662072616e6765000000000000000000000000000000000000000060448201526064016102f1565b6040517f70a082310000000000000000000000000000000000000000000000000000000081523060048201526000906001600160a01b038316906370a0823190602401602060405180830381865afa158015610e7c573d6000803e3d6000fd5b505050506040513d601f19601f82011682018060405250810190610ea09190613635565b9050610eb66001600160a01b0383163383612cb4565b6001805598975050505050505050565b6000600260015403610f1a5760405162461bcd60e51b815260206004820152601f60248201527f5265656e7472616e637947756172643a207265656e7472616e742063616c6c0060448201526064016102f1565b6002600155603580546040805160208084028201810190925282815260009390929091830182828015610f7657602002820191906000526020600020905b81546001600160a01b03168152600190910190602001808311610f58575b5050505050905060006036805480602002602001604051908101604052809291908181526020018280548015610fd557602002820191906000526020600020905b81546001600160a01b03168152600190910190602001808311610fb7575b50505050509050600060018251610fec91906134ca565b9050808351610ffb91906134b7565b871461100657600080fd5b600080845167ffffffffffffffff811115611023576110236134dd565b60405190808252806020026020018201604052801561104c578160200160208202803683370190505b5090506000805b86518160ff161015611185576000878260ff16815181106110765761107661350c565b6020026020010151905060008d8d8460ff168961109391906134b7565b8181106110a2576110a261350c565b9050602002013590506000811115611170576110c96001600160a01b038316333084612c03565b6040517f70a082310000000000000000000000000000000000000000000000000000000081523060048201526001600160a01b038316906370a0823190602401602060405180830381865afa158015611126573d6000803e3d6000fd5b505050506040513d601f19601f8201168201806040525081019061114a9190613635565b858460ff168151811061115f5761115f61350c565b602002602001018181525050600193505b5050808061117d9061353b565b915050611053565b508015611220576033546040517f4d49e87d0000000000000000000000000000000000000000000000000000000081526001600160a01b0390911690634d49e87d906111da9085906000908d90600401613680565b6020604051808303816000875af11580156111f9573d6000803e3d6000fd5b505050506040513d601f19601f8201168201806040525081019061121d9190613635565b92505b5050603654600090819067ffffffffffffffff811115611242576112426134dd565b60405190808252806020026020018201604052801561126b578160200160208202803683370190505b50905060005b848160ff161015611393576000868260ff16815181106112935761129361350c565b6020026020010151905060008d8d8460ff168181106112b4576112b461350c565b905060200201359050600081111561137e576112db6001600160a01b038316333084612c03565b6040517f70a082310000000000000000000000000000000000000000000000000000000081523060048201526001600160a01b038316906370a0823190602401602060405180830381865afa158015611338573d6000803e3d6000fd5b505050506040513d601f19601f8201168201806040525081019061135c9190613635565b848460ff16815181106113715761137161350c565b6020026020010181815250505b5050808061138b9061353b565b915050611271565b50828185815181106113a7576113a761350c565b60209081029190910101526034546040517f4d49e87d0000000000000000000000000000000000000000000000000000000081526001600160a01b0390911690634d49e87d906113ff9084908d908d90600401613680565b6020604051808303816000875af115801561141e573d6000803e3d6000fd5b505050506040513d601f19601f820116820180604052508101906114429190613635565b60385490925061145d91506001600160a01b03163383612cb4565b600180559998505050505050505050565b603781815481106108b657600080fd5b60375460009060ff8316106114d55760405162461bcd60e51b815260206004820152601260248201527f696e646578206f7574206f662072616e6765000000000000000000000000000060448201526064016102f1565b60378260ff16815481106114eb576114eb61350c565b6000918252602090912001546001600160a01b031692915050565b600060026001540361155a5760405162461bcd60e51b815260206004820152601f60248201527f5265656e7472616e637947756172643a207265656e7472616e742063616c6c0060448201526064016102f1565b60026001556035805460408051602080840282018101909252828152600093909290918301828280156115b657602002820191906000526020600020905b81546001600160a01b03168152600190910190602001808311611598575b505050505090506000603680548060200260200160405190810160405280929190818152602001828054801561161557602002820191906000526020600020905b81546001600160a01b031681526001909101906020018083116115f7575b505050505090506000815167ffffffffffffffff811115611638576116386134dd565b604051908082528060200260200182016040528015611661578160200160208202803683370190505b5090506000835167ffffffffffffffff811115611680576116806134dd565b6040519080825280602002602001820160405280156116a9578160200160208202803683370190505b5090506001835185516116bc91906134b7565b6116c691906134ca565b88146117145760405162461bcd60e51b815260206004820152600c60248201527f6f7574206f662072616e6765000000000000000000000000000000000000000060448201526064016102f1565b6040805160c0810182526033546001600160a01b039081168252603454811660208301526038541691810191909152825160009190606082019061175a906001906134ca565b60ff1681526020016000151581526020016000815250905060005b816060015160ff168160ff1610156117d5578a8a8260ff1681811061179c5761179c61350c565b90506020020135848260ff16815181106117b8576117b861350c565b6020908102919091010152806117cd8161353b565b915050611775565b5060005b82518160ff161015611870578a8a8284606001516117f79190613667565b60ff168181106118095761180961350c565b90506020020135838260ff16815181106118255761182561350c565b6020026020010181815250506000838260ff16815181106118485761184861350c565b6020026020010151111561185e57600160808301525b806118688161353b565b9150506117d9565b508060800151156119455780516040517fe6ab2806000000000000000000000000000000000000000000000000000000008152612710916001600160a01b03169063e6ab2806906118c89086906000906004016136a5565b602060405180830381865afa1580156118e5573d6000803e3d6000fd5b505050506040513d601f19601f820116820180604052508101906119099190613635565b611915906127156136c9565b61191f91906136e0565b83826060015160ff16815181106119385761193861350c565b6020026020010181815250505b604081015161195f906001600160a01b031633308b612c03565b60208101516040517f84cdd9bc0000000000000000000000000000000000000000000000000000000081526000916001600160a01b0316906384cdd9bc906119af9087908d908d90600401613680565b6020604051808303816000875af11580156119ce573d6000803e3d6000fd5b505050506040513d601f19601f820116820180604052508101906119f29190613635565b90506119fe818a6134ca565b60a0830152608082015115611c595781600001516001600160a01b03166384cdd9bc8486856060015160ff1681518110611a3a57611a3a61350c565b60200260200101518b6040518463ffffffff1660e01b8152600401611a6193929190613680565b6020604051808303816000875af1158015611a80573d6000803e3d6000fd5b505050506040513d601f19601f82011682018060405250810190611aa49190613635565b506000845167ffffffffffffffff811115611ac157611ac16134dd565b604051908082528060200260200182016040528015611aea578160200160208202803683370190505b509050600086846060015160ff1681518110611b0857611b0861350c565b60209081029190910101516040517f70a082310000000000000000000000000000000000000000000000000000000081523060048201529091506000906001600160a01b038316906370a0823190602401602060405180830381865afa158015611b76573d6000803e3d6000fd5b505050506040513d601f19601f82011682018060405250810190611b9a9190613635565b90508015611c55578083866060015160ff1681518110611bbc57611bbc61350c565b60200260200101818152505084602001516001600160a01b0316634d49e87d8460008e6040518463ffffffff1660e01b8152600401611bfd93929190613680565b6020604051808303816000875af1158015611c1c573d6000803e3d6000fd5b505050506040513d601f19601f82011682018060405250810190611c409190613635565b8560a00151611c4f91906134b7565b60a08601525b5050505b60005b60ff81168b1115611d3e576000836060015160ff168260ff161015611c9f57868260ff1681518110611c9057611c9061350c565b60200260200101519050611cce565b87846060015183611cb0919061364e565b60ff1681518110611cc357611cc361350c565b602002602001015190505b60008d8d8460ff16818110611ce557611ce561350c565b905060200201351115611d2b57611d2b338e8e8560ff16818110611d0b57611d0b61350c565b90506020020135836001600160a01b0316612cb49092919063ffffffff16565b5080611d368161353b565b915050611c5c565b5060a082015115611d6f57611d6f338360a0015184604001516001600160a01b0316612cb49092919063ffffffff16565b60a0820151611d7e908a6134ca565b600180559b9a5050505050505050505050565b6000600260015403611de55760405162461bcd60e51b815260206004820152601f60248201527f5265656e7472616e637947756172643a207265656e7472616e742063616c6c0060448201526064016102f1565b6002600181905550611e2633308660378a60ff1681548110611e0957611e0961350c565b6000918252602090912001546001600160a01b0316929190612c03565b6034546040517f78e0fae800000000000000000000000000000000000000000000000000000000815260ff8089166004830152871660248201526044810186905260648101859052608481018490526000916001600160a01b0316906378e0fae89060a4016020604051808303816000875af1158015611eaa573d6000803e3d6000fd5b505050506040513d601f19601f82011682018060405250810190611ece9190613635565b9050611f07338260378960ff1681548110611eeb57611eeb61350c565b6000918252602090912001546001600160a01b03169190612cb4565b600180559695505050505050565b6034546040517f75d8e3e400000000000000000000000000000000000000000000000000000000815260ff808616600483015284166024820152604481018390526000916001600160a01b0316906375d8e3e490606401602060405180830381865afa158015611f89573d6000803e3d6000fd5b505050506040513d601f19601f82011682018060405250810190611fad9190613635565b90505b9392505050565b600054610100900460ff1615808015611fd75750600054600160ff909116105b80611ff15750303b158015611ff1575060005460ff166001145b6120635760405162461bcd60e51b815260206004820152602e60248201527f496e697469616c697a61626c653a20636f6e747261637420697320616c72656160448201527f647920696e697469616c697a656400000000000000000000000000000000000060648201526084016102f1565b600080547fffffffffffffffffffffffffffffffffffffffffffffffffffffffffffffff0016600117905580156120c157600080547fffffffffffffffffffffffffffffffffffffffffffffffffffffffffffff00ff166101001790555b6120c9612d02565b60005b60208160ff161015612231576040517f82b8660000000000000000000000000000000000000000000000000000000000815260ff821660048201526001600160a01b038616906382b8660090602401602060405180830381865afa925050508015612154575060408051601f3d908101601f191682019092526121519181019061371b565b60015b1561223157603580546001810182556000919091527fcfa4bec1d3298408bb5afcfcd9c430549c5b31f8aa5c5848151c0a55f473c34d0180547fffffffffffffffffffffffff0000000000000000000000000000000000000000166001600160a01b0383169081179091556121ea90877fffffffffffffffffffffffffffffffffffffffffffffffffffffffffffffffff612d89565b61221e6001600160a01b038216867fffffffffffffffffffffffffffffffffffffffffffffffffffffffffffffffff612d89565b50806122298161353b565b9150506120cc565b60018160ff16116122a95760405162461bcd60e51b8152602060048201526024808201527f6261736553776170206d7573742068617665206174206c65617374203220746f60448201527f6b656e730000000000000000000000000000000000000000000000000000000060648201526084016102f1565b506000805b60208160ff16101561241b576040517f82b8660000000000000000000000000000000000000000000000000000000000815260ff821660048201526001600160a01b038616906382b8660090602401602060405180830381865afa925050508015612336575060408051601f3d908101601f191682019092526123339181019061371b565b60015b1561241b576036805460018181019092557f4a11f94e20a93c79f6ec743a1954ec4fc2c08429ae2122118bf234b2185c81b80180546001600160a01b0384167fffffffffffffffffffffffff000000000000000000000000000000000000000091821681179092556037805493840181556000527f42a7b7dd785cd69714a189dffb3fd7d7174edc9ece837694ce50f7078f7c31ae90920180549092168117909155909250829061240890877fffffffffffffffffffffffffffffffffffffffffffffffffffffffffffffffff612d89565b50806124138161353b565b9150506122ae565b60018160ff16116124935760405162461bcd60e51b8152602060048201526024808201527f6d65746153776170206d7573742068617665206174206c65617374203220746f60448201527f6b656e730000000000000000000000000000000000000000000000000000000060648201526084016102f1565b5060356000815481106124a8576124a861350c565b600091825260209091200154603780546001600160a01b03909216916124d0906001906134ca565b815481106124e0576124e061350c565b600091825260209091200180547fffffffffffffffffffffffff0000000000000000000000000000000000000000166001600160a01b039290921691909117905560015b60355460ff821610156125ae57603760358260ff16815481106125495761254961350c565b60009182526020808320909101548354600181018555938352912090910180547fffffffffffffffffffffffff0000000000000000000000000000000000000000166001600160a01b03909216919091179055806125a68161353b565b915050612524565b506125e36001600160a01b038216867fffffffffffffffffffffffffffffffffffffffffffffffffffffffffffffffff612d89565b6126176001600160a01b038416857fffffffffffffffffffffffffffffffffffffffffffffffffffffffffffffffff612d89565b50603380546001600160a01b038087167fffffffffffffffffffffffff00000000000000000000000000000000000000009283161790925560348054868416908316179055603880549285169290911691909117905580156126d057600080547fffffffffffffffffffffffffffffffffffffffffffffffffffffffffffff00ff169055604051600181527f7f26b83ff96e1f2b6a682f133852f6798a09c465da95921460cefb38474024989060200160405180910390a15b50505050565b603654600090819067ffffffffffffffff8111156126f6576126f66134dd565b60405190808252806020026020018201604052801561271f578160200160208202803683370190505b5060355490915060009067ffffffffffffffff811115612741576127416134dd565b60405190808252806020026020018201604052801561276a578160200160208202803683370190505b50905060006001835161277d91906134ca565b905060005b818160ff1610156127db5787878260ff168181106127a2576127a261350c565b90506020020135848260ff16815181106127be576127be61350c565b6020908102919091010152806127d38161353b565b915050612782565b5060005b82518160ff1610156128425787876127fa60ff8416856134b7565b8181106128095761280961350c565b90506020020135838260ff16815181106128255761282561350c565b60209081029190910101528061283a8161353b565b9150506127df565b506033546040517fe6ab28060000000000000000000000000000000000000000000000000000000081526000916001600160a01b03169063e6ab28069061288f9086908a906004016136a5565b602060405180830381865afa1580156128ac573d6000803e3d6000fd5b505050506040513d601f19601f820116820180604052508101906128d09190613635565b9050808483815181106128e5576128e561350c565b60209081029190910101526034546040517fe6ab28060000000000000000000000000000000000000000000000000000000081526001600160a01b039091169063e6ab28069061293b9087908a906004016136a5565b602060405180830381865afa158015612958573d6000803e3d6000fd5b505050506040513d601f19601f8201168201806040525081019061297c9190613635565b98975050505050505050565b6034546040517ff2fad2b6000000000000000000000000000000000000000000000000000000008152600481018390526060916000916001600160a01b039091169063f2fad2b690602401600060405180830381865afa1580156129f0573d6000803e3d6000fd5b505050506040513d6000823e601f3d908101601f19168201604052612a189190810190613583565b9050600060018251612a2a91906134ca565b60335483519192506000916001600160a01b039091169063f2fad2b690859060ff8616908110612a5c57612a5c61350c565b60200260200101516040518263ffffffff1660e01b8152600401612a8291815260200190565b600060405180830381865afa158015612a9f573d6000803e3d6000fd5b505050506040513d6000823e601f3d908101601f19168201604052612ac79190810190613583565b9050600081518360ff16612adb91906134b7565b67ffffffffffffffff811115612af357612af36134dd565b604051908082528060200260200182016040528015612b1c578160200160208202803683370190505b50905060005b8360ff168160ff161015612b7f57848160ff1681518110612b4557612b4561350c565b6020026020010151828260ff1681518110612b6257612b6261350c565b602090810291909101015280612b778161353b565b915050612b22565b5060005b82518160ff161015612be957828160ff1681518110612ba457612ba461350c565b6020026020010151828286612bb99190613667565b60ff1681518110612bcc57612bcc61350c565b602090810291909101015280612be18161353b565b915050612b83565b5095945050505050565b603681815481106108b657600080fd5b6040516001600160a01b03808516602483015283166044820152606481018290526126d09085907f23b872dd00000000000000000000000000000000000000000000000000000000906084015b60408051601f198184030181529190526020810180517bffffffffffffffffffffffffffffffffffffffffffffffffffffffff167fffffffff0000000000000000000000000000000000000000000000000000000090931692909217909152612ed7565b6040516001600160a01b038316602482015260448101829052612cfd9084907fa9059cbb0000000000000000000000000000000000000000000000000000000090606401612c50565b505050565b600054610100900460ff16612d7f5760405162461bcd60e51b815260206004820152602b60248201527f496e697469616c697a61626c653a20636f6e7472616374206973206e6f74206960448201527f6e697469616c697a696e6700000000000000000000000000000000000000000060648201526084016102f1565b612d87612fbc565b565b801580612e1c57506040517fdd62ed3e0000000000000000000000000000000000000000000000000000000081523060048201526001600160a01b03838116602483015284169063dd62ed3e90604401602060405180830381865afa158015612df6573d6000803e3d6000fd5b505050506040513d601f19601f82011682018060405250810190612e1a9190613635565b155b612e8e5760405162461bcd60e51b815260206004820152603660248201527f5361666545524332303a20617070726f76652066726f6d206e6f6e2d7a65726f60448201527f20746f206e6f6e2d7a65726f20616c6c6f77616e63650000000000000000000060648201526084016102f1565b6040516001600160a01b038316602482015260448101829052612cfd9084907f095ea7b30000000000000000000000000000000000000000000000000000000090606401612c50565b6000612f2c826040518060400160405280602081526020017f5361666545524332303a206c6f772d6c6576656c2063616c6c206661696c6564815250856001600160a01b031661303f9092919063ffffffff16565b805190915015612cfd5780806020019051810190612f4a9190613738565b612cfd5760405162461bcd60e51b815260206004820152602a60248201527f5361666545524332303a204552433230206f7065726174696f6e20646964206e60448201527f6f7420737563636565640000000000000000000000000000000000000000000060648201526084016102f1565b600054610100900460ff166130395760405162461bcd60e51b815260206004820152602b60248201527f496e697469616c697a61626c653a20636f6e7472616374206973206e6f74206960448201527f6e697469616c697a696e6700000000000000000000000000000000000000000060648201526084016102f1565b60018055565b6060611fad8484600085856001600160a01b0385163b6130a15760405162461bcd60e51b815260206004820152601d60248201527f416464726573733a2063616c6c20746f206e6f6e2d636f6e747261637400000060448201526064016102f1565b600080866001600160a01b031685876040516130bd9190613779565b60006040518083038185875af1925050503d80600081146130fa576040519150601f19603f3d011682016040523d82523d6000602084013e6130ff565b606091505b509150915061310f82828661311a565b979650505050505050565b60608315613129575081611fb0565b8251156131395782518084602001fd5b8160405162461bcd60e51b81526004016102f19190613795565b60008083601f84011261316557600080fd5b50813567ffffffffffffffff81111561317d57600080fd5b6020830191508360208260051b850101111561319857600080fd5b9250929050565b600080600080606085870312156131b557600080fd5b84359350602085013567ffffffffffffffff8111156131d357600080fd5b6131df87828801613153565b9598909750949560400135949350505050565b600081518084526020808501945080840160005b8381101561322257815187529582019590820190600101613206565b509495945050505050565b602081526000611fb060208301846131f2565b60006020828403121561325257600080fd5b5035919050565b803560ff8116811461326a57600080fd5b919050565b6000806040838503121561328257600080fd5b8235915061329260208401613259565b90509250929050565b600080600080608085870312156132b157600080fd5b843593506132c160208601613259565b93969395505050506040820135916060013590565b600080600080606085870312156132ec57600080fd5b843567ffffffffffffffff81111561330357600080fd5b61330f87828801613153565b90989097506020870135966040013595509350505050565b60006020828403121561333957600080fd5b611fb082613259565b600080600080600060a0868803121561335a57600080fd5b61336386613259565b945061337160208701613259565b94979496505050506040830135926060810135926080909101359150565b6000806000606084860312156133a457600080fd5b6133ad84613259565b92506133bb60208501613259565b9150604084013590509250925092565b6001600160a01b03811681146133e057600080fd5b50565b6000806000606084860312156133f857600080fd5b8335613403816133cb565b92506020840135613413816133cb565b91506040840135613423816133cb565b809150509250925092565b80151581146133e057600080fd5b60008060006040848603121561345157600080fd5b833567ffffffffffffffff81111561346857600080fd5b61347486828701613153565b90945092505060208401356134238161342e565b7f4e487b7100000000000000000000000000000000000000000000000000000000600052601160045260246000fd5b80820180821115610abf57610abf613488565b81810381811115610abf57610abf613488565b7f4e487b7100000000000000000000000000000000000000000000000000000000600052604160045260246000fd5b7f4e487b7100000000000000000000000000000000000000000000000000000000600052603260045260246000fd5b600060ff821660ff810361355157613551613488565b60010192915050565b83815260606020820152600061357360608301856131f2565b9050826040830152949350505050565b6000602080838503121561359657600080fd5b825167ffffffffffffffff808211156135ae57600080fd5b818501915085601f8301126135c257600080fd5b8151818111156135d4576135d46134dd565b8060051b604051601f19603f830116810181811085821117156135f9576135f96134dd565b60405291825284820192508381018501918883111561361757600080fd5b938501935b8285101561297c5784518452938501939285019261361c565b60006020828403121561364757600080fd5b5051919050565b60ff8281168282160390811115610abf57610abf613488565b60ff8181168382160190811115610abf57610abf613488565b60608152600061369360608301866131f2565b60208301949094525060400152919050565b6040815260006136b860408301856131f2565b905082151560208301529392505050565b8082028115828204841417610abf57610abf613488565b600082613716577f4e487b7100000000000000000000000000000000000000000000000000000000600052601260045260246000fd5b500490565b60006020828403121561372d57600080fd5b8151611fb0816133cb565b60006020828403121561374a57600080fd5b8151611fb08161342e565b60005b83811015613770578181015183820152602001613758565b50506000910152565b6000825161378b818460208701613755565b9190910192915050565b60208152600082518060208401526137b4816040850160208701613755565b601f01601f1916919091016040019291505056fea2646970667358221220c3ae2178735d9262c9364d64b9eafa791c70cceff0647e8e35c0f5dbcc40adba64736f6c63430008110033",
  "devdoc": {
    "kind": "dev",
    "methods": {
      "addLiquidity(uint256[],uint256,uint256)": {
        "params": {
          "amounts": "the amounts of each token to add, in their native precision",
          "deadline": "latest timestamp to accept this transaction",
          "minToMint": "the minimum LP tokens adding this amount of liquidity should mint, otherwise revert. Handy for front-running mitigation"
        },
        "returns": {
          "_0": "amount of LP token user minted and received"
        }
      },
      "calculateRemoveLiquidity(uint256)": {
        "params": {
          "amount": "the amount of LP tokens that would be burned on withdrawal"
        },
        "returns": {
          "_0": "array of token balances that the user will receive"
        }
      },
      "calculateRemoveLiquidityOneToken(uint256,uint8)": {
        "params": {
          "tokenAmount": "the amount of LP token to burn",
          "tokenIndex": "index of which token will be withdrawn"
        },
        "returns": {
          "_0": "availableTokenAmount calculated amount of underlying token available to withdraw"
        }
      },
      "calculateSwap(uint8,uint8,uint256)": {
        "params": {
          "dx": "the amount of tokens the user wants to sell. If the token charges a fee on transfers, use the amount that gets transferred after the fee.",
          "tokenIndexFrom": "the token the user wants to sell",
          "tokenIndexTo": "the token the user wants to buy"
        },
        "returns": {
          "_0": "amount of tokens the user will receive"
        }
      },
      "calculateTokenAmount(uint256[],bool)": {
        "details": "This shouldn't be used outside frontends for user estimates.",
        "params": {
          "amounts": "an array of token amounts to deposit or withdrawal, corresponding to pooledTokens. The amount should be in each pooled token's native precision. If a token charges a fee on transfers, use the amount that gets transferred after the fee.",
          "deposit": "whether this is a deposit or a withdrawal"
        },
        "returns": {
          "_0": "token amount the user will receive"
        }
      },
      "getToken(uint8)": {
        "params": {
          "index": "the index of the token"
        },
        "returns": {
          "_0": "address of the token at given index"
        }
      },
      "initialize(address,address,address)": {
        "params": {
          "_baseSwap": "the address of the base Swap contract",
          "_metaLPToken": "the address of the MetaSwap LP token contract",
          "_metaSwap": "the address of the MetaSwap contract"
        }
      },
      "removeLiquidity(uint256,uint256[],uint256)": {
        "details": "Liquidity can always be removed, even when the pool is paused.",
        "params": {
          "amount": "the amount of LP tokens to burn",
          "deadline": "latest timestamp to accept this transaction",
          "minAmounts": "the minimum amounts of each token in the pool        acceptable for this burn. Useful as a front-running mitigation"
        },
        "returns": {
          "_0": "amounts of tokens user received"
        }
      },
      "removeLiquidityImbalance(uint256[],uint256,uint256)": {
        "params": {
          "amounts": "how much of each token to withdraw",
          "deadline": "latest timestamp to accept this transaction",
          "maxBurnAmount": "the max LP token provider is willing to pay to remove liquidity. Useful as a front-running mitigation."
        },
        "returns": {
          "_0": "amount of LP tokens burned"
        }
      },
      "removeLiquidityOneToken(uint256,uint8,uint256,uint256)": {
        "params": {
          "deadline": "latest timestamp to accept this transaction",
          "minAmount": "the minimum amount to withdraw, otherwise revert",
          "tokenAmount": "the amount of the token you want to receive",
          "tokenIndex": "the index of the token you want to receive"
        },
        "returns": {
          "_0": "amount of chosen token user received"
        }
      },
      "swap(uint8,uint8,uint256,uint256,uint256)": {
        "params": {
          "deadline": "latest timestamp to accept this transaction",
          "dx": "the amount of tokens the user wants to swap from",
          "minDy": "the min amount the user would like to receive, or revert.",
          "tokenIndexFrom": "the token the user wants to swap from",
          "tokenIndexTo": "the token the user wants to swap to"
        }
      }
    },
    "title": "MetaSwapDeposit",
    "version": 1
  },
  "userdoc": {
    "kind": "user",
    "methods": {
      "addLiquidity(uint256[],uint256,uint256)": {
        "notice": "Add liquidity to the pool with the given amounts of tokens"
      },
      "calculateRemoveLiquidity(uint256)": {
        "notice": "A simple method to calculate amount of each underlying tokens that is returned upon burning given amount of LP tokens"
      },
      "calculateRemoveLiquidityOneToken(uint256,uint8)": {
        "notice": "Calculate the amount of underlying token available to withdraw when withdrawing via only single token"
      },
      "calculateSwap(uint8,uint8,uint256)": {
        "notice": "Calculate amount of tokens you receive on swap"
      },
      "calculateTokenAmount(uint256[],bool)": {
        "notice": "A simple method to calculate prices from deposits or withdrawals, excluding fees but including slippage. This is helpful as an input into the various \"min\" parameters on calls to fight front-running. When withdrawing from the base pool in imbalanced fashion, the recommended slippage setting is 0.2% or higher."
      },
      "getToken(uint8)": {
        "notice": "Returns the address of the pooled token at given index. Reverts if tokenIndex is out of range. This is a flattened representation of the pooled tokens."
      },
      "initialize(address,address,address)": {
        "notice": "Sets the address for the base Swap contract, MetaSwap contract, and the MetaSwap LP token contract."
      },
      "removeLiquidity(uint256,uint256[],uint256)": {
        "notice": "Burn LP tokens to remove liquidity from the pool. Withdraw fee that decays linearly over period of 4 weeks since last deposit will apply."
      },
      "removeLiquidityImbalance(uint256[],uint256,uint256)": {
        "notice": "Remove liquidity from the pool, weighted differently than the pool's current balances. Withdraw fee that decays linearly over period of 4 weeks since last deposit will apply."
      },
      "removeLiquidityOneToken(uint256,uint8,uint256,uint256)": {
        "notice": "Remove liquidity from the pool all in one token. Withdraw fee that decays linearly over period of 4 weeks since last deposit will apply."
      },
      "swap(uint8,uint8,uint256,uint256,uint256)": {
        "notice": "Swap two underlying tokens using the meta pool and the base pool"
      }
    },
    "notice": "This contract flattens the LP token in a MetaSwap pool for easier user access. MetaSwap must be deployed before this contract can be initialized successfully. For example, suppose there exists a base Swap pool consisting of [DAI, USDC, USDT]. Then a MetaSwap pool can be created with [sUSD, BaseSwapLPToken] to allow trades between either the LP token or the underlying tokens and sUSD. MetaSwapDeposit flattens the LP token and remaps them to a single array, allowing users to ignore the dependency on BaseSwapLPToken. Using the above example, MetaSwapDeposit can act as a Swap containing [sUSD, DAI, USDC, USDT] tokens.",
    "version": 1
  },
  "storageLayout": {
    "storage": [
      {
        "astId": 1654,
        "contract": "contracts/meta/MetaSwapDepositV1.sol:MetaSwapDepositV1",
        "label": "_initialized",
        "offset": 0,
        "slot": "0",
        "type": "t_uint8"
      },
      {
        "astId": 1657,
        "contract": "contracts/meta/MetaSwapDepositV1.sol:MetaSwapDepositV1",
        "label": "_initializing",
        "offset": 1,
        "slot": "0",
        "type": "t_bool"
      },
      {
        "astId": 1939,
        "contract": "contracts/meta/MetaSwapDepositV1.sol:MetaSwapDepositV1",
        "label": "_status",
        "offset": 0,
        "slot": "1",
        "type": "t_uint256"
      },
      {
        "astId": 1983,
        "contract": "contracts/meta/MetaSwapDepositV1.sol:MetaSwapDepositV1",
        "label": "__gap",
        "offset": 0,
        "slot": "2",
        "type": "t_array(t_uint256)49_storage"
      },
      {
        "astId": 7988,
        "contract": "contracts/meta/MetaSwapDepositV1.sol:MetaSwapDepositV1",
        "label": "baseSwap",
        "offset": 0,
        "slot": "51",
        "type": "t_contract(ISwapV2)7968"
      },
      {
        "astId": 7991,
        "contract": "contracts/meta/MetaSwapDepositV1.sol:MetaSwapDepositV1",
        "label": "metaSwap",
        "offset": 0,
        "slot": "52",
        "type": "t_contract(IMetaSwapV1)7763"
      },
      {
        "astId": 7995,
        "contract": "contracts/meta/MetaSwapDepositV1.sol:MetaSwapDepositV1",
        "label": "baseTokens",
        "offset": 0,
        "slot": "53",
        "type": "t_array(t_contract(IERC20)856)dyn_storage"
      },
      {
        "astId": 7999,
        "contract": "contracts/meta/MetaSwapDepositV1.sol:MetaSwapDepositV1",
        "label": "metaTokens",
        "offset": 0,
        "slot": "54",
        "type": "t_array(t_contract(IERC20)856)dyn_storage"
      },
      {
        "astId": 8003,
        "contract": "contracts/meta/MetaSwapDepositV1.sol:MetaSwapDepositV1",
        "label": "tokens",
        "offset": 0,
        "slot": "55",
        "type": "t_array(t_contract(IERC20)856)dyn_storage"
      },
      {
        "astId": 8006,
        "contract": "contracts/meta/MetaSwapDepositV1.sol:MetaSwapDepositV1",
        "label": "metaLPToken",
        "offset": 0,
        "slot": "56",
        "type": "t_contract(IERC20)856"
      }
    ],
    "types": {
      "t_array(t_contract(IERC20)856)dyn_storage": {
        "base": "t_contract(IERC20)856",
        "encoding": "dynamic_array",
        "label": "contract IERC20[]",
        "numberOfBytes": "32"
      },
      "t_array(t_uint256)49_storage": {
        "base": "t_uint256",
        "encoding": "inplace",
        "label": "uint256[49]",
        "numberOfBytes": "1568"
      },
      "t_bool": {
        "encoding": "inplace",
        "label": "bool",
        "numberOfBytes": "1"
      },
      "t_contract(IERC20)856": {
        "encoding": "inplace",
        "label": "contract IERC20",
        "numberOfBytes": "20"
      },
      "t_contract(IMetaSwapV1)7763": {
        "encoding": "inplace",
        "label": "contract IMetaSwapV1",
        "numberOfBytes": "20"
      },
      "t_contract(ISwapV2)7968": {
        "encoding": "inplace",
        "label": "contract ISwapV2",
        "numberOfBytes": "20"
      },
      "t_uint256": {
        "encoding": "inplace",
        "label": "uint256",
        "numberOfBytes": "32"
      },
      "t_uint8": {
        "encoding": "inplace",
        "label": "uint8",
        "numberOfBytes": "1"
      }
    }
  }
}