{
  "address": "0xfeEa4D1BacB0519E8f952460A70719944fe56Ee0",
  "abi": [
    {
      "anonymous": false,
      "inputs": [
        {
          "indexed": true,
          "internalType": "address",
          "name": "provider",
          "type": "address"
        },
        {
          "indexed": false,
          "internalType": "uint256[]",
          "name": "tokenAmounts",
          "type": "uint256[]"
        },
        {
          "indexed": false,
          "internalType": "uint256[]",
          "name": "fees",
          "type": "uint256[]"
        },
        {
          "indexed": false,
          "internalType": "uint256",
          "name": "invariant",
          "type": "uint256"
        },
        {
          "indexed": false,
          "internalType": "uint256",
          "name": "lpTokenSupply",
          "type": "uint256"
        }
      ],
      "name": "AddLiquidity",
      "type": "event"
    },
    {
      "anonymous": false,
      "inputs": [
        {
          "indexed": false,
          "internalType": "uint256",
          "name": "newAdminFee",
          "type": "uint256"
        }
      ],
      "name": "NewAdminFee",
      "type": "event"
    },
    {
      "anonymous": false,
      "inputs": [
        {
          "indexed": false,
          "internalType": "uint256",
          "name": "newSwapFee",
          "type": "uint256"
        }
      ],
      "name": "NewSwapFee",
      "type": "event"
    },
    {
      "anonymous": false,
      "inputs": [
        {
          "indexed": false,
          "internalType": "uint256",
          "name": "newWithdrawFee",
          "type": "uint256"
        }
      ],
      "name": "NewWithdrawFee",
      "type": "event"
    },
    {
      "anonymous": false,
      "inputs": [
        {
          "indexed": true,
          "internalType": "address",
          "name": "provider",
          "type": "address"
        },
        {
          "indexed": false,
          "internalType": "uint256[]",
          "name": "tokenAmounts",
          "type": "uint256[]"
        },
        {
          "indexed": false,
          "internalType": "uint256[]",
          "name": "fees",
          "type": "uint256[]"
        },
        {
          "indexed": false,
          "internalType": "uint256",
          "name": "invariant",
          "type": "uint256"
        },
        {
          "indexed": false,
          "internalType": "uint256",
          "name": "lpTokenSupply",
          "type": "uint256"
        }
      ],
      "name": "RemoveLiquidityImbalance",
      "type": "event"
    },
    {
      "anonymous": false,
      "inputs": [
        {
          "indexed": true,
          "internalType": "address",
          "name": "provider",
          "type": "address"
        },
        {
          "indexed": false,
          "internalType": "uint256",
          "name": "lpTokenAmount",
          "type": "uint256"
        },
        {
          "indexed": false,
          "internalType": "uint256",
          "name": "lpTokenSupply",
          "type": "uint256"
        },
        {
          "indexed": false,
          "internalType": "uint256",
          "name": "boughtId",
          "type": "uint256"
        },
        {
          "indexed": false,
          "internalType": "uint256",
          "name": "tokensBought",
          "type": "uint256"
        }
      ],
      "name": "RemoveLiquidityOne",
      "type": "event"
    },
    {
      "anonymous": false,
      "inputs": [
        {
          "indexed": true,
          "internalType": "address",
          "name": "buyer",
          "type": "address"
        },
        {
          "indexed": false,
          "internalType": "uint256",
          "name": "tokensSold",
          "type": "uint256"
        },
        {
          "indexed": false,
          "internalType": "uint256",
          "name": "tokensBought",
          "type": "uint256"
        },
        {
          "indexed": false,
          "internalType": "uint128",
          "name": "soldId",
          "type": "uint128"
        },
        {
          "indexed": false,
          "internalType": "uint128",
          "name": "boughtId",
          "type": "uint128"
        }
      ],
      "name": "TokenSwap",
      "type": "event"
    },
    {
      "anonymous": false,
      "inputs": [
        {
          "indexed": true,
          "internalType": "address",
          "name": "buyer",
          "type": "address"
        },
        {
          "indexed": false,
          "internalType": "uint256",
          "name": "tokensSold",
          "type": "uint256"
        },
        {
          "indexed": false,
          "internalType": "uint256",
          "name": "tokensBought",
          "type": "uint256"
        },
        {
          "indexed": false,
          "internalType": "uint128",
          "name": "soldId",
          "type": "uint128"
        },
        {
          "indexed": false,
          "internalType": "uint128",
          "name": "boughtId",
          "type": "uint128"
        }
      ],
      "name": "TokenSwapUnderlying",
      "type": "event"
    },
    {
      "inputs": [],
      "name": "BASE_CACHE_EXPIRE_TIME",
      "outputs": [
        {
          "internalType": "uint256",
          "name": "",
          "type": "uint256"
        }
      ],
      "stateMutability": "view",
      "type": "function"
    },
    {
      "inputs": [],
      "name": "BASE_VIRTUAL_PRICE_PRECISION",
      "outputs": [
        {
          "internalType": "uint256",
          "name": "",
          "type": "uint256"
        }
      ],
      "stateMutability": "view",
      "type": "function"
    }
  ],
  "transactionHash": "0x7ceb8cb300abd693e7f7547b36f80650fa26b5f03871032389b3e465841ceb51",
  "args": [],
  "numDeployments": 1,
  "solcInputHash": "faeaaf1f06e012c3200d7f368f424bd7",
  "bytecode": "0x61508661003a600b82828239805160001a60731461002d57634e487b7160e01b600052600060045260246000fd5b30600052607381538281f3fe73000000000000000000000000000000000000000030146080604052600436106100de5760003560e01c8063698e6ff41161008b578063becf967c11610065578063becf967c146101d0578063c76e4492146101d9578063c9f0fca8146101f957600080fd5b8063698e6ff4146101815780636dca1c05146101a1578063a28c2341146101c157600080fd5b8063631f06fc116100bc578063631f06fc1461014857806368d5af9e1461015b578063694437401461016e57600080fd5b80630f6a2291146100e357806321056a00146101155780636023759814610128575b600080fd5b8180156100ef57600080fd5b506101036100fe366004614a0e565b61020c565b60405190815260200160405180910390f35b610103610123366004614a66565b610f5c565b81801561013457600080fd5b50610103610143366004614ae3565b610f7e565b610103610156366004614bda565b6118fe565b610103610169366004614bfc565b611a81565b61010361017c366004614a66565b611b1a565b81801561018d57600080fd5b5061010361019c366004614a0e565b6120e9565b8180156101ad57600080fd5b506101036101bc366004614c3b565b612579565b610103670de0b6b3a764000081565b61010361025881565b8180156101e557600080fd5b506101036101f4366004614ae3565b612908565b610103610207366004614c82565b6130e3565b6000806040518061016001604052806000815260200160008152602001600081526020018960080180548060200260200160405190810160405280929190818152602001828054801561027e57602002820191906000526020600020905b81548152602001906001019080831161026a575b50505050508152602001896009018054806020026020016040519081016040528092919081815260200182805480156102d657602002820191906000526020600020905b8154815260200190600101908083116102c2575b505050505081526020018860030180548060200260200160405190810160405280929190818152602001828054801561033857602002820191906000526020600020905b81546001600160a01b0316815260019091019060200180831161031a575b50505091835250506000602082018190526040820181905260608201819052608082015260a00161036889613417565b8152509050600060018260800151516103819190614d4f565b905060008260a00151518260ff166103999190614d62565b90508060ff168860ff161080156103b557508060ff168760ff16105b6104065760405162461bcd60e51b815260206004820152601860248201527f546f6b656e20696e646578206f7574206f662072616e6765000000000000000060448201526064015b60405180910390fd5b5087546001600160a01b031660ff808316908916101561046057896007018860ff168154811061043857610438614d75565b6000918252602090912001546001600160a01b031660c084015260ff881660e08401526104a5565b60a083015161046f838a614da4565b60ff168151811061048257610482614d75565b60209081029190910101516001600160a01b031660c084015260ff821660e08401525b8160ff168760ff1610156104f557896007018760ff16815481106104cb576104cb614d75565b6000918252602090912001546001600160a01b031661010084015260ff871661012084015261053c565b60a08301516105048389614da4565b60ff168151811061051757610517614d75565b60209081029190910101516001600160a01b031661010084015260ff82166101208401525b60c08301516040517f70a082310000000000000000000000000000000000000000000000000000000081523060048201526001600160a01b03909116906370a0823190602401602060405180830381865afa15801561059f573d6000803e3d6000fd5b505050506040513d601f19601f820116820180604052508101906105c39190614dbd565b602084015260c08301516105e2906001600160a01b03163330896134dd565b602083015160c08401516040517f70a082310000000000000000000000000000000000000000000000000000000081523060048201526001600160a01b03909116906370a0823190602401602060405180830381865afa15801561064a573d6000803e3d6000fd5b505050506040513d601f19601f8201168201806040525081019061066e9190614dbd565b6106789190614d4f565b602084015260ff808316908916108061069657508160ff168760ff16105b15610ce85760006106b5846080015185606001518661014001516135b2565b90508260ff168960ff16101561071f5783606001518960ff16815181106106de576106de614d75565b6020026020010151876106f19190614dd6565b818a60ff168151811061070657610706614d75565b60200260200101516107189190614d62565b8452610881565b60008460a001515167ffffffffffffffff81111561073f5761073f614ab4565b604051908082528060200260200182016040528015610768578160200160208202803683370190505b5060208601519091508161077c868d614da4565b60ff168151811061078f5761078f614d75565b60209081029190910101526040517f4d49e87d0000000000000000000000000000000000000000000000000000000081526001600160a01b03841690634d49e87d906107e49084906000904290600401614e28565b6020604051808303816000875af1158015610803573d6000803e3d6000fd5b505050506040513d601f19601f820116820180604052508101906108279190614dbd565b60208601528151829060ff861690811061084357610843614d75565b6020026020010151670de0b6b3a764000086610140015187602001516108699190614dd6565b6108739190614e4d565b61087d9190614d62565b8552505b6000806108a36108908e613634565b60e08801516101208901518951876136db565b90506001818488610120015160ff16815181106108c2576108c2614d75565b60200260200101516108d49190614d4f565b6108de9190614d4f565b604087015260ff808616908b161061091e57856101400151670de0b6b3a7640000876040015161090e9190614dd6565b6109189190614e4d565b60408701525b6402540be4008d6004015487604001516109389190614dd6565b6109429190614e4d565b9150856060015186610120015160ff168151811061096257610962614d75565b602002602001015182876040015161097a9190614d4f565b6109849190614e4d565b60408701525060058c01546000906402540be400906109a39084614dd6565b6109ad9190614e4d565b9050856060015186610120015160ff16815181106109cd576109cd614d75565b6020026020010151816109e09190614e4d565b9050856020015186608001518760e0015160ff1681518110610a0457610a04614d75565b6020026020010151610a169190614d62565b8d6009018760e0015160ff1681548110610a3257610a32614d75565b9060005260206000200181905550808660400151876080015188610120015160ff1681518110610a6457610a64614d75565b6020026020010151610a769190614d4f565b610a809190614d4f565b8d60090187610120015160ff1681548110610a9d57610a9d614d75565b9060005260206000200181905550508360ff168960ff1610610c8d576101008501516040517f70a082310000000000000000000000000000000000000000000000000000000081523060048201526000916001600160a01b0316906370a0823190602401602060405180830381865afa158015610b1e573d6000803e3d6000fd5b505050506040513d601f19601f82011682018060405250810190610b429190614dbd565b9050836001600160a01b0316633e3a15608760400151878d610b649190614da4565b6040517fffffffff0000000000000000000000000000000000000000000000000000000060e085901b168152600481019290925260ff166024820152600060448201524260648201526084016020604051808303816000875af1158015610bcf573d6000803e3d6000fd5b505050506040513d601f19601f82011682018060405250810190610bf39190614dbd565b506101008601516040517f70a0823100000000000000000000000000000000000000000000000000000000815230600482015282916001600160a01b0316906370a0823190602401602060405180830381865afa158015610c58573d6000803e3d6000fd5b505050506040513d601f19601f82011682018060405250810190610c7c9190614dbd565b610c869190614d4f565b6040870152505b8685604001511015610ce15760405162461bcd60e51b815260206004820181905260248201527f53776170206469646e277420726573756c7420696e206d696e20746f6b656e7360448201526064016103fd565b5050610ed2565b6101008301516040517f70a082310000000000000000000000000000000000000000000000000000000081523060048201526001600160a01b03909116906370a0823190602401602060405180830381865afa158015610d4c573d6000803e3d6000fd5b505050506040513d601f19601f82011682018060405250810190610d709190614dbd565b60408401526001600160a01b0381166391695586610d8e848b614da4565b610d98858b614da4565b60208701516040517fffffffff0000000000000000000000000000000000000000000000000000000060e086901b16815260ff938416600482015292909116602483015260448201526064810188905242608482015260a4016020604051808303816000875af1158015610e10573d6000803e3d6000fd5b505050506040513d601f19601f82011682018060405250810190610e349190614dbd565b5060408084015161010085015191517f70a0823100000000000000000000000000000000000000000000000000000000815230600482015290916001600160a01b0316906370a0823190602401602060405180830381865afa158015610e9e573d6000803e3d6000fd5b505050506040513d601f19601f82011682018060405250810190610ec29190614dbd565b610ecc9190614d4f565b60408401525b610ef93384604001518561010001516001600160a01b03166139629092919063ffffffff16565b6040838101518151888152602081019190915260ff8a81168284015289166060820152905133917f6617207207e397b41fc98016d8c9febb7223f44c355db66ad429730f2b950a60919081900360800190a2505060400151979650505050505050565b6000610f7386858585610f6e8a6139b0565b613a51565b509695505050505050565b60008085600701805480602002602001604051908101604052809291908181526020018280548015610fd957602002820191906000526020600020905b81546001600160a01b03168152600190910190602001808311610fbb575b5050505050905080518451146110315760405162461bcd60e51b815260206004820181905260248201527f416d6f756e7473206d757374206d6174636820706f6f6c656420746f6b656e7360448201526064016103fd565b6000815167ffffffffffffffff81111561104d5761104d614ab4565b604051908082528060200260200182016040528015611076578160200160208202803683370190505b50604080516101208101825260008082526020820181905291810182905260068a01546001600160a01b03166060820152608081018290529192509060a081016110bf8a613634565b81526020016110cd89613417565b81526020018960080180548060200260200160405190810160405280929190818152602001828054801561112057602002820191906000526020600020905b81548152602001906001019080831161110c575b505050505081526020018960090180548060200260200160405190810160405280929190818152602001828054801561117857602002820191906000526020600020905b815481526020019060010190808311611164575b5050505050815250905080606001516001600160a01b03166318160ddd6040518163ffffffff1660e01b8152600401602060405180830381865afa1580156111c4573d6000803e3d6000fd5b505050506040513d601f19601f820116820180604052508101906111e89190614dbd565b608082018190521561121c5761121961120f8261010001518360e001518460c001516135b2565b8260a00151613c41565b81525b60005b83518110156114f65760808201511515806112535750600087828151811061124957611249614d75565b6020026020010151115b61129f5760405162461bcd60e51b815260206004820152601e60248201527f4d75737420737570706c7920616c6c20746f6b656e7320696e20706f6f6c000060448201526064016103fd565b8681815181106112b1576112b1614d75565b602002602001015160001461147f5760008482815181106112d4576112d4614d75565b60209081029190910101516040517f70a082310000000000000000000000000000000000000000000000000000000081523060048201526001600160a01b03909116906370a0823190602401602060405180830381865afa15801561133d573d6000803e3d6000fd5b505050506040513d601f19601f820116820180604052508101906113619190614dbd565b90506113b533308a858151811061137a5761137a614d75565b602002602001015188868151811061139457611394614d75565b60200260200101516001600160a01b03166134dd909392919063ffffffff16565b808583815181106113c8576113c8614d75565b60209081029190910101516040517f70a082310000000000000000000000000000000000000000000000000000000081523060048201526001600160a01b03909116906370a0823190602401602060405180830381865afa158015611431573d6000803e3d6000fd5b505050506040513d601f19601f820116820180604052508101906114559190614dbd565b61145f9190614d4f565b88838151811061147157611471614d75565b602002602001018181525050505b86818151811061149157611491614d75565b602002602001015182610100015182815181106114b0576114b0614d75565b60200260200101516114c29190614d62565b82610100015182815181106114d9576114d9614d75565b6020908102919091010152806114ee81614e88565b91505061121f565b5061151261120f8261010001518360e001518460c001516135b2565b602082018190528151106115685760405162461bcd60e51b815260206004820152601160248201527f442073686f756c6420696e63726561736500000000000000000000000000000060448201526064016103fd565b602081015160408201526080810151600090156117a35760006115908a600401548651613e16565b905060005b855181101561174657600084600001518c60090183815481106115ba576115ba614d75565b906000526020600020015486602001516115d49190614dd6565b6115de9190614e4d565b90506402540be400611617866101000151848151811061160057611600614d75565b602002602001015183613e4290919063ffffffff16565b6116219085614dd6565b61162b9190614e4d565b86838151811061163d5761163d614d75565b6020026020010181815250506402540be4008c6005015487848151811061166657611666614d75565b60200260200101516116789190614dd6565b6116829190614e4d565b856101000151838151811061169957611699614d75565b60200260200101516116ab9190614d4f565b8c60090183815481106116c0576116c0614d75565b90600052602060002001819055508582815181106116e0576116e0614d75565b602002602001015185610100015183815181106116ff576116ff614d75565b60200260200101516117119190614d4f565b856101000151838151811061172857611728614d75565b6020908102919091010152508061173e81614e88565b915050611595565b5061176c6117628461010001518560e001518660c001516135b2565b8460a00151613c41565b60408401819052835160808501519091611787908390614d4f565b6117919190614dd6565b61179b9190614e4d565b9150506117c7565b61010082015180516117bf9160098c019160209091019061499d565b505060208101515b858110156118175760405162461bcd60e51b815260206004820152601b60248201527f436f756c646e2774206d696e74206d696e20726571756573746564000000000060448201526064016103fd565b60068901546040517f40c10f19000000000000000000000000000000000000000000000000000000008152336004820152602481018390526001600160a01b03909116906340c10f1990604401600060405180830381600087803b15801561187e57600080fd5b505af1158015611892573d6000803e3d6000fd5b50505050336001600160a01b03167f189c623b666b1b45b83d7178f39b8c087cb09774317ca2f53c2d3c3726f222a2888585602001518587608001516118d89190614d62565b6040516118e89493929190614ec0565b60405180910390a293505050505b949350505050565b6000806119c96119bb8560090180548060200260200160405190810160405280929190818152602001828054801561195557602002820191906000526020600020905b815481526020019060010190808311611941575b5050505050866008018054806020026020016040519081016040528092919081815260200182805480156119a857602002820191906000526020600020905b815481526020019060010190808311611994575b50505050506119b6876139b0565b6135b2565b6119c486613634565b613c41565b905060008460060160009054906101000a90046001600160a01b03166001600160a01b03166318160ddd6040518163ffffffff1660e01b8152600401602060405180830381865afa158015611a22573d6000803e3d6000fd5b505050506040513d601f19601f82011682018060405250810190611a469190614dbd565b90508015611a745780611a61670de0b6b3a764000084614dd6565b611a6b9190614e4d565b92505050611a7b565b6000925050505b92915050565b6000611b10858484611a92886139b0565b8960060160009054906101000a90046001600160a01b03166001600160a01b03166318160ddd6040518163ffffffff1660e01b8152600401602060405180830381865afa158015611ae7573d6000803e3d6000fd5b505050506040513d601f19601f82011682018060405250810190611b0b9190614dbd565b613e67565b5095945050505050565b6000806040518060e00160405280611b31886139b0565b815287546001600160a01b03166020820152600060408201819052600389015460ff1660608301526080820181905260a0820181905260c0909101819052815191925090611b80908990613ede565b905060018151611b909190614d4f565b60ff16604083018190526060830151600091611bac9190614ef9565b90508060ff168760ff16108015611bc857508060ff168660ff16105b611c145760405162461bcd60e51b815260206004820152601860248201527f546f6b656e20696e646578206f7574206f662072616e6765000000000000000060448201526064016103fd565b50816040015160ff168660ff161015611c8657876008018660ff1681548110611c3f57611c3f614d75565b906000526020600020015484611c559190614dd6565b818760ff1681518110611c6a57611c6a614d75565b6020026020010151611c7c9190614d62565b60a0830152611ef7565b6040820151611c959087614da4565b9550816040015160ff168560ff161015611e3a576000826060015160ff1667ffffffffffffffff811115611ccb57611ccb614ab4565b604051908082528060200260200182016040528015611cf4578160200160208202803683370190505b50905084818860ff1681518110611d0d57611d0d614d75565b602002602001018181525050670de0b6b3a7640000836000015184602001516001600160a01b031663e6ab28068460016040518363ffffffff1660e01b8152600401611d5a929190614f12565b602060405180830381865afa158015611d77573d6000803e3d6000fd5b505050506040513d601f19601f82011682018060405250810190611d9b9190614dbd565b611da59190614dd6565b611daf9190614e4d565b60a084015260408301518251839160ff16908110611dcf57611dcf614d75565b60200260200101516402540be4006002611de99190614dd6565b8954611dfd906001600160a01b0316613f8f565b8560a00151611e0c9190614dd6565b611e169190614e4d565b8460a00151611e259190614d4f565b611e2f9190614d62565b60a084015250611eef565b81602001516001600160a01b031663a95b089f87846040015188611e5e9190614da4565b6040517fffffffff0000000000000000000000000000000000000000000000000000000060e085901b16815260ff92831660048201529116602482015260448101879052606401602060405180830381865afa158015611ec2573d6000803e3d6000fd5b505050506040513d601f19601f82011682018060405250810190611ee69190614dbd565b925050506120e0565b816040015195505b604082015160ff908116608084018190529086161015611f1b5760ff851660808301525b6000611f3a611f298a613634565b8885608001518660a00151866136db565b905060018183856080015160ff1681518110611f5857611f58614d75565b6020026020010151611f6a9190614d4f565b611f749190614d4f565b60c0840181905260048a01546000916402540be40091611f9391614dd6565b611f9d9190614e4d565b9050808460c00151611faf9190614d4f565b60c08501525050604082015160ff90811690861610156120095787600801826080015160ff1681548110611fe557611fe5614d75565b90600052602060002001548260c00151611fff9190614e4d565b60c08301526120d8565b81602001516001600160a01b031663342a87a18360000151670de0b6b3a76400008560c001516120399190614dd6565b6120439190614e4d565b60408501516120529089614da4565b6040517fffffffff0000000000000000000000000000000000000000000000000000000060e085901b168152600481019290925260ff166024820152604401602060405180830381865afa1580156120ae573d6000803e3d6000fd5b505050506040513d601f19601f820116820180604052508101906120d29190614dbd565b60c08301525b5060c0015190505b95945050505050565b600786015460009060ff8616811180156121055750808560ff16105b6121515760405162461bcd60e51b815260206004820152601b60248201527f546f6b656e20696e646578206973206f7574206f662072616e6765000000000060448201526064016103fd565b50600080886007018760ff168154811061216d5761216d614d75565b6000918252602090912001546040517f70a082310000000000000000000000000000000000000000000000000000000081523360048201526001600160a01b03909116915081906370a0823190602401602060405180830381865afa1580156121da573d6000803e3d6000fd5b505050506040513d601f19601f820116820180604052508101906121fe9190614dbd565b85111561224d5760405162461bcd60e51b815260206004820152601d60248201527f43616e6e6f742073776170206d6f7265207468616e20796f75206f776e00000060448201526064016103fd565b6040517f70a082310000000000000000000000000000000000000000000000000000000081523060048201526000906001600160a01b038316906370a0823190602401602060405180830381865afa1580156122ad573d6000803e3d6000fd5b505050506040513d601f19601f820116820180604052508101906122d19190614dbd565b90506122e86001600160a01b0383163330896134dd565b6040517f70a0823100000000000000000000000000000000000000000000000000000000815230600482015281906001600160a01b038416906370a0823190602401602060405180830381865afa158015612347573d6000803e3d6000fd5b505050506040513d601f19601f8201168201806040525081019061236b9190614dbd565b6123759190614d4f565b9250505060008061238c8a898986610f6e8e613417565b91509150848210156123e05760405162461bcd60e51b815260206004820181905260248201527f53776170206469646e277420726573756c7420696e206d696e20746f6b656e7360448201526064016103fd565b60008a6008018860ff16815481106123fa576123fa614d75565b90600052602060002001546402540be4008c600501548461241b9190614dd6565b6124259190614e4d565b61242f9190614e4d565b9050838b6009018a60ff168154811061244a5761244a614d75565b906000526020600020015461245f9190614d62565b8b6009018a60ff168154811061247757612477614d75565b906000526020600020018190555080838c6009018a60ff168154811061249f5761249f614d75565b90600052602060002001546124b49190614d4f565b6124be9190614d4f565b8b6009018960ff16815481106124d6576124d6614d75565b906000526020600020018190555061251d33848d6007018b60ff168154811061250157612501614d75565b6000918252602090912001546001600160a01b03169190613962565b604080518581526020810185905260ff8b8116828401528a166060820152905133917fc6c1e0630dbe9130cc068028486c0d118ddcea348550819defd5cb8c257f8a38919081900360800190a250909998505050505050505050565b6006850154604080517f18160ddd00000000000000000000000000000000000000000000000000000000815290516000926001600160a01b031691839183916318160ddd9160048083019260209291908290030181865afa1580156125e2573d6000803e3d6000fd5b505050506040513d601f19601f820116820180604052508101906126069190614dbd565b60078901546040517f70a08231000000000000000000000000000000000000000000000000000000008152336004820152919250906001600160a01b038416906370a0823190602401602060405180830381865afa15801561266c573d6000803e3d6000fd5b505050506040513d601f19601f820116820180604052508101906126909190614dbd565b8711156126df5760405162461bcd60e51b815260206004820152600d60248201527f3e4c502e62616c616e63654f660000000000000000000000000000000000000060448201526064016103fd565b808660ff16106127315760405162461bcd60e51b815260206004820152600f60248201527f546f6b656e206e6f7420666f756e64000000000000000000000000000000000060448201526064016103fd565b6000806127498b8a8a6127438e613417565b88613e67565b925090508681101561279d5760405162461bcd60e51b815260206004820152600e60248201527f6479203c206d696e416d6f756e7400000000000000000000000000000000000060448201526064016103fd565b6402540be4008b60050154836127b39190614dd6565b6127bd9190614e4d565b6127c79082614d62565b8b6009018960ff16815481106127df576127df614d75565b90600052602060002001546127f49190614d4f565b8b6009018960ff168154811061280c5761280c614d75565b6000918252602090912001556040517f79cc6790000000000000000000000000000000000000000000000000000000008152336004820152602481018a90526001600160a01b038616906379cc679090604401600060405180830381600087803b15801561287957600080fd5b505af115801561288d573d6000803e3d6000fd5b505050506128ae33828d6007018b60ff168154811061250157612501614d75565b604080518a81526020810186905260ff8a168183015260608101839052905133917f43fb02998f4e03da2e0e6fff53fdbf0c40a9f45f145dc377fc30615d7d7a8a64919081900360800190a29a9950505050505050505050565b604080516101208101825260008082526020820181905291810182905260068601546001600160a01b0316606082015260808101829052819060a0810161294e88613634565b815260200161295c87613417565b8152602001876008018054806020026020016040519081016040528092919081815260200182805480156129af57602002820191906000526020600020905b81548152602001906001019080831161299b575b5050505050815260200187600901805480602002602001604051908101604052809291908181526020018280548015612a0757602002820191906000526020600020905b8154815260200190600101908083116129f3575b5050505050815250905080606001516001600160a01b03166318160ddd6040518163ffffffff1660e01b8152600401602060405180830381865afa158015612a53573d6000803e3d6000fd5b505050506040513d601f19601f82011682018060405250810190612a779190614dbd565b608082015261010081015151845114612ad25760405162461bcd60e51b815260206004820181905260248201527f416d6f756e74732073686f756c64206d6174636820706f6f6c20746f6b656e7360448201526064016103fd565b82600003612b225760405162461bcd60e51b815260206004820152601560248201527f4d757374206275726e206d6f7265207468616e2030000000000000000000000060448201526064016103fd565b6000612b38876004015483610100015151613e16565b905060008261010001515167ffffffffffffffff811115612b5b57612b5b614ab4565b604051908082528060200260200182016040528015612b84578160200160208202803683370190505b50905060008361010001515167ffffffffffffffff811115612ba857612ba8614ab4565b604051908082528060200260200182016040528015612bd1578160200160208202803683370190505b509050612bf9612bef8561010001518660e001518760c001516135b2565b8560a00151613c41565b845260005b84610100015151811015612d23578461010001518181518110612c2357612c23614d75565b6020026020010151888281518110612c3d57612c3d614d75565b60200260200101511115612cb95760405162461bcd60e51b815260206004820152602360248201527f43616e6e6f74207769746864726177206d6f7265207468616e20617661696c6160448201527f626c65000000000000000000000000000000000000000000000000000000000060648201526084016103fd565b878181518110612ccb57612ccb614d75565b60200260200101518561010001518281518110612cea57612cea614d75565b602002602001015103828281518110612d0557612d05614d75565b60200260200101818152505080612d1b81614e88565b915050612bfe565b50612d3a612bef828660e001518760c001516135b2565b602085015260005b84610100015151811015612ed357600085600001518661010001518381518110612d6e57612d6e614d75565b60200260200101518760200151612d859190614dd6565b612d8f9190614e4d565b90506000612da884848151811061160057611600614d75565b90506402540be400612dba8288614dd6565b612dc49190614e4d565b858481518110612dd657612dd6614d75565b6020026020010181815250506402540be4008c60050154868581518110612dff57612dff614d75565b6020026020010151612e119190614dd6565b612e1b9190614e4d565b848481518110612e2d57612e2d614d75565b6020026020010151612e3f9190614d4f565b8c6009018481548110612e5457612e54614d75565b9060005260206000200181905550848381518110612e7457612e74614d75565b6020026020010151848481518110612e8e57612e8e614d75565b6020026020010151612ea09190614d4f565b848481518110612eb257612eb2614d75565b60200260200101818152505050508080612ecb90614e88565b915050612d42565b50612eea612bef828660e001518760c001516135b2565b6040850181905284516080860151600093509091612f089083614d4f565b612f129190614dd6565b612f1c9190614e4d565b905080600003612f6e5760405162461bcd60e51b815260206004820152601b60248201527f4275726e7420616d6f756e742063616e6e6f74206265207a65726f000000000060448201526064016103fd565b612f79816001614d62565b905085811115612fcb5760405162461bcd60e51b815260206004820152601b60248201527f746f6b656e416d6f756e74203e206d61784275726e416d6f756e74000000000060448201526064016103fd565b60608401516040517f79cc6790000000000000000000000000000000000000000000000000000000008152336004820152602481018390526001600160a01b03909116906379cc679090604401600060405180830381600087803b15801561303257600080fd5b505af1158015613046573d6000803e3d6000fd5b5050505060005b846101000151518110156130a05761308e3389838151811061307157613071614d75565b60200260200101518c600701848154811061250157612501614d75565b8061309881614e88565b91505061304d565b50336001600160a01b03167f3631c28b1f9dd213e0319fb167b554d76b6c283a41143eb400a0d1adb1af1755888487602001518589608001516118d89190614d4f565b6000806130ef87613634565b905060008060006130ff896139b0565b905060008a60090180548060200260200160405190810160405280929190818152602001828054801561315157602002820191906000526020600020905b81548152602001906001019080831161313d575b5050505050905060008b6008018054806020026020016040519081016040528092919081815260200182805480156131a857602002820191906000526020600020905b815481526020019060010190808311613194575b505050505090506000825190506131c96131c38484876135b2565b88613c41565b955060005b8181101561334857891561323c578b8b828181106131ee576131ee614d75565b9050602002013584828151811061320757613207614d75565b60200260200101516132199190614d62565b84828151811061322b5761322b614d75565b602002602001018181525050613336565b83818151811061324e5761324e614d75565b60200260200101518c8c8381811061326857613268614d75565b9050602002013511156132e35760405162461bcd60e51b815260206004820152602360248201527f43616e6e6f74207769746864726177206d6f7265207468616e20617661696c6160448201527f626c65000000000000000000000000000000000000000000000000000000000060648201526084016103fd565b8b8b828181106132f5576132f5614d75565b9050602002013584828151811061330e5761330e614d75565b60200260200101510384828151811061332957613329614d75565b6020026020010181815250505b8061334081614e88565b9150506131ce565b506133576131c38484876135b2565b94505050505060008960060160009054906101000a90046001600160a01b03166001600160a01b03166318160ddd6040518163ffffffff1660e01b8152600401602060405180830381865afa1580156133b4573d6000803e3d6000fd5b505050506040513d601f19601f820116820180604052508101906133d89190614dbd565b9050851561340b5782816133ec8285614d4f565b6133f69190614dd6565b6134009190614e4d565b9450505050506120e0565b82816133ec8483614d4f565b6000610258826002015461342b9190614d62565b4211156134d0578154604080517fe25aa5fa00000000000000000000000000000000000000000000000000000000815290516000926001600160a01b03169163e25aa5fa9160048083019260209291908290030181865afa158015613494573d6000803e3d6000fd5b505050506040513d601f19601f820116820180604052508101906134b89190614dbd565b60018401819055426002909401939093555090919050565b506001015490565b919050565b6040516001600160a01b03808516602483015283166044820152606481018290526135ac9085907f23b872dd00000000000000000000000000000000000000000000000000000000906084015b604080517fffffffffffffffffffffffffffffffffffffffffffffffffffffffffffffffe08184030181529190526020810180517bffffffffffffffffffffffffffffffffffffffffffffffffffffffff167fffffffff0000000000000000000000000000000000000000000000000000000090931692909217909152614000565b50505050565b606060006135c085856140e5565b90506000600186516135d29190614d4f565b9050670de0b6b3a7640000848383815181106135f0576135f0614d75565b60200260200101516136029190614dd6565b61360c9190614e4d565b82828151811061361e5761361e614d75565b60209081029190910101525090505b9392505050565b60038101546001820154600091904282111561362d57600284015484548083111561369f576136638285614d4f565b61366d8342614d4f565b6136778386614d4f565b6136819190614dd6565b61368b9190614e4d565b6136959082614d62565b9695505050505050565b6136a98285614d4f565b6136b38342614d4f565b6136bd8584614d4f565b6136c79190614dd6565b6136d19190614e4d565b6136959082614d4f565b805160009060ff808616908716036137355760405162461bcd60e51b815260206004820152601d60248201527f43616e277420636f6d7061726520746f6b656e20746f20697473656c6600000060448201526064016103fd565b808660ff161080156137495750808560ff16105b6137955760405162461bcd60e51b815260206004820152601660248201527f546f6b656e73206d75737420626520696e20706f6f6c0000000000000000000060448201526064016103fd565b60006137a18489613c41565b9050806000806137b18b86614dd6565b90506000805b86811015613840578b60ff1681036137d157899150613801565b8a60ff1681146137fc578881815181106137ed576137ed614d75565b60200260200101519150613801565b61382e565b61380b8285614d62565b93506138178783614dd6565b6138218787614dd6565b61382b9190614e4d565b94505b8061383881614e88565b9150506137b7565b5061384b8683614dd6565b60646138578787614dd6565b6138619190614dd6565b61386b9190614e4d565b935060008261387b606488614dd6565b6138859190614e4d565b61388f9085614d62565b9050600086815b6101008110156139195781925088848360026138b29190614dd6565b6138bc9190614d62565b6138c69190614d4f565b886138d18480614dd6565b6138db9190614d62565b6138e59190614e4d565b91506138f18284614203565b15613907575098506120e0975050505050505050565b8061391181614e88565b915050613896565b5060405162461bcd60e51b815260206004820152601e60248201527f417070726f78696d6174696f6e20646964206e6f7420636f6e7665726765000060448201526064016103fd565b6040516001600160a01b0383166024820152604481018290526139ab9084907fa9059cbb000000000000000000000000000000000000000000000000000000009060640161352a565b505050565b600061025882600201546139c49190614d62565b4211156134d0578154604080517fe25aa5fa00000000000000000000000000000000000000000000000000000000815290516001600160a01b039092169163e25aa5fa916004808201926020929091908290030181865afa158015613a2d573d6000803e3d6000fd5b505050506040513d601f19601f82011682018060405250810190611a7b9190614dbd565b6000806000613a608885613ede565b905080518760ff16108015613a78575080518660ff16105b613ac45760405162461bcd60e51b815260206004820152601860248201527f546f6b656e20696e646578206f7574206f662072616e6765000000000000000060448201526064016103fd565b600060018251613ad49190614d4f565b90506000896008018960ff1681548110613af057613af0614d75565b906000526020600020015487613b069190614dd6565b9050818960ff1603613b3257670de0b6b3a7640000613b258783614dd6565b613b2f9190614e4d565b90505b828960ff1681518110613b4757613b47614d75565b602002602001015181613b5a9190614d62565b90506000613b73613b6a8c613634565b8b8b85886136db565b9050600181858b60ff1681518110613b8d57613b8d614d75565b6020026020010151613b9f9190614d4f565b613ba99190614d4f565b9550828960ff1603613bd55786613bc8670de0b6b3a764000088614dd6565b613bd29190614e4d565b95505b6402540be4008b6004015487613beb9190614dd6565b613bf59190614e4d565b9450613c018587614d4f565b95508a6008018960ff1681548110613c1b57613c1b614d75565b906000526020600020015486613c319190614e4d565b9550505050509550959350505050565b815160009081805b82811015613c8a57858181518110613c6357613c63614d75565b602002602001015182613c769190614d62565b915080613c8281614e88565b915050613c49565b5080600003613c9e57600092505050611a7b565b60008181613cac8588614dd6565b905060005b610100811015613dcd578260005b87811015613d1457878b8281518110613cda57613cda614d75565b6020026020010151613cec9190614dd6565b613cf68684614dd6565b613d009190614e4d565b915080613d0c81614e88565b915050613cbf565b5083945080876001613d269190614d62565b613d309190614dd6565b606485613d3d8287614d4f565b613d479190614dd6565b613d519190614e4d565b613d5b9190614d62565b84613d668984614dd6565b6064613d728a88614dd6565b613d7c9190614e4d565b613d869190614d62565b613d909190614dd6565b613d9a9190614e4d565b9350613da68486614203565b15613dba5783975050505050505050611a7b565b5080613dc581614e88565b915050613cb1565b5060405162461bcd60e51b815260206004820152601360248201527f4420646f6573206e6f7420636f6e76657267650000000000000000000000000060448201526064016103fd565b6000613e23600183614d4f565b613e2e906004614dd6565b613e388385614dd6565b61362d9190614e4d565b600081831115613e5d57613e568284614d4f565b9050611a7b565b61362d8383614d4f565b600080600080600080613e7d8b8a8c8b8b61421a565b60088e018054939750909450909250859160ff8c16908110613ea157613ea1614d75565b90600052602060002001548284613eb89190614d4f565b613ec29190614e4d565b613ecc9190614d4f565b939b939a509298505050505050505050565b606061362d83600901805480602002602001604051908101604052809291908181526020018280548015613f3157602002820191906000526020600020905b815481526020019060010190808311613f1d575b505050505084600801805480602002602001604051908101604052809291908181526020018280548015613f8457602002820191906000526020600020905b815481526020019060010190808311613f70575b5050505050846135b2565b6000816001600160a01b0316635fd65f0f6040518163ffffffff1660e01b815260040160e060405180830381865afa158015613fcf573d6000803e3d6000fd5b505050506040513d601f19601f82011682018060405250810190613ff39190614f36565b5090979650505050505050565b6000614055826040518060400160405280602081526020017f5361666545524332303a206c6f772d6c6576656c2063616c6c206661696c6564815250856001600160a01b03166146459092919063ffffffff16565b8051909150156139ab57808060200190518101906140739190614fa2565b6139ab5760405162461bcd60e51b815260206004820152602a60248201527f5361666545524332303a204552433230206f7065726174696f6e20646964206e60448201527f6f7420737563636565640000000000000000000000000000000000000000000060648201526084016103fd565b8151815160609190811461413b5760405162461bcd60e51b815260206004820152601f60248201527f42616c616e636573206d757374206d61746368206d756c7469706c696572730060448201526064016103fd565b60008167ffffffffffffffff81111561415657614156614ab4565b60405190808252806020026020018201604052801561417f578160200160208202803683370190505b50905060005b828110156141fa5784818151811061419f5761419f614d75565b60200260200101518682815181106141b9576141b9614d75565b60200260200101516141cb9190614dd6565b8282815181106141dd576141dd614d75565b6020908102919091010152806141f281614e88565b915050614185565b50949350505050565b600060016142118484613e42565b11159392505050565b60008060008061422a8987613ede565b905080518860ff161061427f5760405162461bcd60e51b815260206004820152601860248201527f546f6b656e20696e646578206f7574206f662072616e6765000000000000000060448201526064016103fd565b60006040518060c00160405280600081526020016000815260200160008152602001600081526020016142b18c613634565b8152602001600081525090506142cb828260800151613c41565b80825286906142da908a614dd6565b6142e49190614e4d565b81516142f09190614d4f565b60208201528151829060ff8b1690811061430c5761430c614d75565b60200260200101518811156143635760405162461bcd60e51b815260206004820152601a60248201527f5769746864726177206578636565647320617661696c61626c6500000000000060448201526064016103fd565b61437781608001518a848460200151614654565b6040820152815160009067ffffffffffffffff81111561439957614399614ab4565b6040519080825280602002602001820160405280156143c2578160200160208202803683370190505b5090506143d48b600401548451613e16565b606083015260005b83518110156144d2578381815181106143f7576143f7614d75565b60200260200101518360a00181815250506402540be40083606001518c60ff168314614451578451602086015160a08701516144339190614dd6565b61443d9190614e4d565b8560a0015161444c9190614d4f565b614480565b60408501518551602087015160a088015161446c9190614dd6565b6144769190614e4d565b6144809190614d4f565b61448a9190614dd6565b6144949190614e4d565b8360a001516144a39190614d4f565b8282815181106144b5576144b5614d75565b6020908102919091010152806144ca81614e88565b9150506143dc565b5060006144e983608001518c848660200151614654565b828c60ff16815181106144fe576144fe614d75565b60200260200101516145109190614d4f565b9050600184516145209190614d4f565b8b60ff16036145d1578861453c670de0b6b3a764000083614dd6565b6145469190614e4d565b905088670de0b6b3a764000084604001516145619190614dd6565b61456b9190614e4d565b83604001818152505088670de0b6b3a7640000858d60ff168151811061459357614593614d75565b60200260200101516145a59190614dd6565b6145af9190614e4d565b848c60ff16815181106145c4576145c4614d75565b6020026020010181815250505b8b6008018b60ff16815481106145e9576145e9614d75565b90600052602060002001546001826146019190614d4f565b61460b9190614e4d565b9050808360400151858d60ff168151811061462857614628614d75565b602002602001015196509650965050505050955095509592505050565b60606118f6848460008561481c565b815160009060ff851681116146ab5760405162461bcd60e51b815260206004820152600f60248201527f546f6b656e206e6f7420666f756e64000000000000000000000000000000000060448201526064016103fd565b826000806146b9848a614dd6565b905060005b84811015614745578860ff168114614733578781815181106146e2576146e2614d75565b6020026020010151836146f59190614d62565b92508488828151811061470a5761470a614d75565b602002602001015161471c9190614dd6565b6147268886614dd6565b6147309190614e4d565b93505b8061473d81614e88565b9150506146be565b506147508482614dd6565b606461475c8886614dd6565b6147669190614dd6565b6147709190614e4d565b9250600081614780606489614dd6565b61478a9190614e4d565b6147949084614d62565b9050600087815b6101008110156139195781925089848360026147b79190614dd6565b6147c19190614d62565b6147cb9190614d4f565b876147d68480614dd6565b6147e09190614d62565b6147ea9190614e4d565b91506147f68284614203565b1561480a575096506118f695505050505050565b8061481481614e88565b91505061479b565b6060824710156148945760405162461bcd60e51b815260206004820152602660248201527f416464726573733a20696e73756666696369656e742062616c616e636520666f60448201527f722063616c6c000000000000000000000000000000000000000000000000000060648201526084016103fd565b6001600160a01b0385163b6148eb5760405162461bcd60e51b815260206004820152601d60248201527f416464726573733a2063616c6c20746f206e6f6e2d636f6e747261637400000060448201526064016103fd565b600080866001600160a01b031685876040516149079190614fe3565b60006040518083038185875af1925050503d8060008114614944576040519150601f19603f3d011682016040523d82523d6000602084013e614949565b606091505b5091509150614959828286614964565b979650505050505050565b6060831561497357508161362d565b8251156149835782518084602001fd5b8160405162461bcd60e51b81526004016103fd9190614fff565b8280548282559060005260206000209081019282156149d8579160200282015b828111156149d85782518255916020019190600101906149bd565b506149e49291506149e8565b5090565b5b808211156149e457600081556001016149e9565b803560ff811681146134d857600080fd5b60008060008060008060c08789031215614a2757600080fd5b8635955060208701359450614a3e604088016149fd565b9350614a4c606088016149fd565b92506080870135915060a087013590509295509295509295565b600080600080600060a08688031215614a7e57600080fd5b8535945060208601359350614a95604087016149fd565b9250614aa3606087016149fd565b949793965091946080013592915050565b7f4e487b7100000000000000000000000000000000000000000000000000000000600052604160045260246000fd5b60008060008060808587031215614af957600080fd5b843593506020808601359350604086013567ffffffffffffffff80821115614b2057600080fd5b818801915088601f830112614b3457600080fd5b813581811115614b4657614b46614ab4565b8060051b6040517fffffffffffffffffffffffffffffffffffffffffffffffffffffffffffffffe0603f83011681018181108582111715614b8957614b89614ab4565b60405291825284820192508381018501918b831115614ba757600080fd5b938501935b82851015614bc557843584529385019392850192614bac565b989b979a509798606001359750505050505050565b60008060408385031215614bed57600080fd5b50508035926020909101359150565b60008060008060808587031215614c1257600080fd5b843593506020850135925060408501359150614c30606086016149fd565b905092959194509250565b600080600080600060a08688031215614c5357600080fd5b853594506020860135935060408601359250614aa3606087016149fd565b8015158114614c7f57600080fd5b50565b600080600080600060808688031215614c9a57600080fd5b8535945060208601359350604086013567ffffffffffffffff80821115614cc057600080fd5b818801915088601f830112614cd457600080fd5b813581811115614ce357600080fd5b8960208260051b8501011115614cf857600080fd5b6020830195508094505050506060860135614d1281614c71565b809150509295509295909350565b7f4e487b7100000000000000000000000000000000000000000000000000000000600052601160045260246000fd5b81810381811115611a7b57611a7b614d20565b80820180821115611a7b57611a7b614d20565b7f4e487b7100000000000000000000000000000000000000000000000000000000600052603260045260246000fd5b60ff8281168282160390811115611a7b57611a7b614d20565b600060208284031215614dcf57600080fd5b5051919050565b8082028115828204841417611a7b57611a7b614d20565b600081518084526020808501945080840160005b83811015614e1d57815187529582019590820190600101614e01565b509495945050505050565b606081526000614e3b6060830186614ded565b60208301949094525060400152919050565b600082614e83577f4e487b7100000000000000000000000000000000000000000000000000000000600052601260045260246000fd5b500490565b60007fffffffffffffffffffffffffffffffffffffffffffffffffffffffffffffffff8203614eb957614eb9614d20565b5060010190565b608081526000614ed36080830187614ded565b8281036020840152614ee58187614ded565b604084019590955250506060015292915050565b60ff8181168382160190811115611a7b57611a7b614d20565b604081526000614f256040830185614ded565b905082151560208301529392505050565b600080600080600080600060e0888a031215614f5157600080fd5b875196506020880151955060408801519450606088015193506080880151925060a0880151915060c08801516001600160a01b0381168114614f9257600080fd5b8091505092959891949750929550565b600060208284031215614fb457600080fd5b815161362d81614c71565b60005b83811015614fda578181015183820152602001614fc2565b50506000910152565b60008251614ff5818460208701614fbf565b9190910192915050565b602081526000825180602084015261501e816040850160208701614fbf565b601f017fffffffffffffffffffffffffffffffffffffffffffffffffffffffffffffffe016919091016040019291505056fea26469706673582212209bc4c95d126ff94844fe591d872d4eed1e12df4f9a361a24eb726740e13d22b364736f6c63430008110033",
  "devdoc": {
    "details": "Contracts relying on this library must initialize SwapUtils.Swap struct then use this library for SwapUtils.Swap struct. Note that this library contains both functions called by users and admins. Admin functions should be protected within contracts using this library.",
    "kind": "dev",
    "methods": {
      "addLiquidity(SwapUtilsV2.Swap storage,MetaSwapUtilsV1.MetaSwap storage,uint256[],uint256)": {
        "params": {
          "amounts": "the amounts of each token to add, in their native precision",
          "metaSwapStorage": "MetaSwap struct to read from and write to",
          "minToMint": "the minimum LP tokens adding this amount of liquidity should mint, otherwise revert. Handy for front-running mitigation allowed addresses. If the pool is not in the guarded launch phase, this parameter will be ignored.",
          "self": "Swap struct to read from and write to"
        },
        "returns": {
          "_0": "amount of LP token user received"
        }
      },
      "calculateSwap(SwapUtilsV2.Swap storage,MetaSwapUtilsV1.MetaSwap storage,uint8,uint8,uint256)": {
        "params": {
          "dx": "the number of tokens to sell. If the token charges a fee on transfers, use the amount that gets transferred after the fee.",
          "metaSwapStorage": "MetaSwap struct from the same contract",
          "self": "Swap struct to read from",
          "tokenIndexFrom": "the token to sell",
          "tokenIndexTo": "the token to buy"
        },
        "returns": {
          "dy": "the number of tokens the user will get"
        }
      },
      "calculateSwapUnderlying(SwapUtilsV2.Swap storage,MetaSwapUtilsV1.MetaSwap storage,uint8,uint8,uint256)": {
        "params": {
          "dx": "the number of tokens to sell. If the token charges a fee on transfers, use the amount that gets transferred after the fee.",
          "metaSwapStorage": "MetaSwap struct from the same contract",
          "self": "Swap struct to read from",
          "tokenIndexFrom": "the token to sell",
          "tokenIndexTo": "the token to buy"
        },
        "returns": {
          "_0": "dy the number of tokens the user will get"
        }
      },
      "calculateTokenAmount(SwapUtilsV2.Swap storage,MetaSwapUtilsV1.MetaSwap storage,uint256[],bool)": {
        "details": "This shouldn't be used outside frontends for user estimates.",
        "params": {
          "amounts": "an array of token amounts to deposit or withdrawal, corresponding to pooledTokens. The amount should be in each pooled token's native precision. If a token charges a fee on transfers, use the amount that gets transferred after the fee.",
          "deposit": "whether this is a deposit or a withdrawal",
          "metaSwapStorage": "MetaSwap struct to read from",
          "self": "Swap struct to read from"
        },
        "returns": {
          "_0": "if deposit was true, total amount of lp token that will be minted and if deposit was false, total amount of lp token that will be burned"
        }
      },
      "calculateWithdrawOneToken(SwapUtilsV2.Swap storage,MetaSwapUtilsV1.MetaSwap storage,uint256,uint8)": {
        "params": {
          "metaSwapStorage": "MetaSwap struct to read from",
          "self": "Swap struct to read from",
          "tokenAmount": "the amount to withdraw in the pool's precision",
          "tokenIndex": "which token will be withdrawn"
        },
        "returns": {
          "dy": "the amount of token user will receive"
        }
      },
      "getVirtualPrice(SwapUtilsV2.Swap storage,MetaSwapUtilsV1.MetaSwap storage)": {
        "params": {
          "metaSwapStorage": "MetaSwap struct to read from",
          "self": "Swap struct to read from"
        },
        "returns": {
          "_0": "the virtual price, scaled to precision of BASE_VIRTUAL_PRICE_PRECISION"
        }
      },
      "removeLiquidityImbalance(SwapUtilsV2.Swap storage,MetaSwapUtilsV1.MetaSwap storage,uint256[],uint256)": {
        "params": {
          "amounts": "how much of each token to withdraw",
          "maxBurnAmount": "the max LP token provider is willing to pay to remove liquidity. Useful as a front-running mitigation.",
          "metaSwapStorage": "MetaSwap struct to read from and write to",
          "self": "Swap struct to read from and write to"
        },
        "returns": {
          "_0": "actual amount of LP tokens burned in the withdrawal"
        }
      },
      "removeLiquidityOneToken(SwapUtilsV2.Swap storage,MetaSwapUtilsV1.MetaSwap storage,uint256,uint8,uint256)": {
        "params": {
          "metaSwapStorage": "MetaSwap struct to read from and write to",
          "minAmount": "the minimum amount to withdraw, otherwise revert",
          "self": "Swap struct to read from and write to",
          "tokenAmount": "the amount of the lp tokens to burn",
          "tokenIndex": "the index of the token you want to receive"
        },
        "returns": {
          "_0": "amount chosen token that user received"
        }
      },
      "swap(SwapUtilsV2.Swap storage,MetaSwapUtilsV1.MetaSwap storage,uint8,uint8,uint256,uint256)": {
        "params": {
          "dx": "the amount of tokens the user wants to sell",
          "metaSwapStorage": "MetaSwap struct to read from and write to",
          "minDy": "the min amount the user would like to receive, or revert.",
          "self": "Swap struct to read from and write to",
          "tokenIndexFrom": "the token the user wants to sell",
          "tokenIndexTo": "the token the user wants to buy"
        },
        "returns": {
          "_0": "amount of token user received on swap"
        }
      },
      "swapUnderlying(SwapUtilsV2.Swap storage,MetaSwapUtilsV1.MetaSwap storage,uint8,uint8,uint256,uint256)": {
        "details": "Since this calls multiple external functions during the execution, it is recommended to protect any function that depends on this with reentrancy guards.",
        "params": {
          "dx": "the amount of tokens the user wants to sell",
          "metaSwapStorage": "MetaSwap struct to read from and write to",
          "minDy": "the min amount the user would like to receive, or revert.",
          "self": "Swap struct to read from and write to",
          "tokenIndexFrom": "the token the user wants to sell",
          "tokenIndexTo": "the token the user wants to buy"
        },
        "returns": {
          "_0": "amount of token user received on swap"
        }
      }
    },
    "title": "MetaSwapUtils library",
    "version": 1
  },
  "userdoc": {
    "kind": "user",
    "methods": {
      "addLiquidity(SwapUtilsV2.Swap storage,MetaSwapUtilsV1.MetaSwap storage,uint256[],uint256)": {
        "notice": "Add liquidity to the pool"
      },
      "calculateSwap(SwapUtilsV2.Swap storage,MetaSwapUtilsV1.MetaSwap storage,uint8,uint8,uint256)": {
        "notice": "Externally calculates a swap between two tokens. The SwapUtils.Swap storage and MetaSwap storage should be from the same MetaSwap contract."
      },
      "calculateSwapUnderlying(SwapUtilsV2.Swap storage,MetaSwapUtilsV1.MetaSwap storage,uint8,uint8,uint256)": {
        "notice": "Calculates the expected return amount from swapping between the pooled tokens and the underlying tokens of the base Swap pool."
      },
      "calculateTokenAmount(SwapUtilsV2.Swap storage,MetaSwapUtilsV1.MetaSwap storage,uint256[],bool)": {
        "notice": "A simple method to calculate prices from deposits or withdrawals, excluding fees but including slippage. This is helpful as an input into the various \"min\" parameters on calls to fight front-running"
      },
      "calculateWithdrawOneToken(SwapUtilsV2.Swap storage,MetaSwapUtilsV1.MetaSwap storage,uint256,uint8)": {
        "notice": "Calculate how much the user would receive when withdrawing via single token"
      },
      "getVirtualPrice(SwapUtilsV2.Swap storage,MetaSwapUtilsV1.MetaSwap storage)": {
        "notice": "Get the virtual price, to help calculate profit"
      },
      "removeLiquidityImbalance(SwapUtilsV2.Swap storage,MetaSwapUtilsV1.MetaSwap storage,uint256[],uint256)": {
        "notice": "Remove liquidity from the pool, weighted differently than the pool's current balances."
      },
      "removeLiquidityOneToken(SwapUtilsV2.Swap storage,MetaSwapUtilsV1.MetaSwap storage,uint256,uint8,uint256)": {
        "notice": "Remove liquidity from the pool all in one token."
      },
      "swap(SwapUtilsV2.Swap storage,MetaSwapUtilsV1.MetaSwap storage,uint8,uint8,uint256,uint256)": {
        "notice": "swap two tokens in the pool"
      },
      "swapUnderlying(SwapUtilsV2.Swap storage,MetaSwapUtilsV1.MetaSwap storage,uint8,uint8,uint256,uint256)": {
        "notice": "Swaps with the underlying tokens of the base Swap pool. For this function, the token indices are flattened out so that underlying tokens are represented in the indices."
      }
    },
    "notice": "A library to be used within MetaSwap.sol. Contains functions responsible for custody and AMM functionalities. MetaSwap is a modified version of Swap that allows Swap's LP token to be utilized in pooling with other tokens. As an example, if there is a Swap pool consisting of [DAI, USDC, USDT]. Then a MetaSwap pool can be created with [sUSD, BaseSwapLPToken] to allow trades between either the LP token or the underlying tokens and sUSD.",
    "version": 1
  },
  "storageLayout": {
    "storage": [],
    "types": null
  }
}