{
  "address": "0x47a303F4278AE7F970624C980A036868c5267AAa",
  "abi": [
    {
      "anonymous": false,
      "inputs": [
        {
          "indexed": true,
          "internalType": "address",
          "name": "provider",
          "type": "address"
        },
        {
          "indexed": false,
          "internalType": "uint256[]",
          "name": "tokenAmounts",
          "type": "uint256[]"
        },
        {
          "indexed": false,
          "internalType": "uint256[]",
          "name": "fees",
          "type": "uint256[]"
        },
        {
          "indexed": false,
          "internalType": "uint256",
          "name": "invariant",
          "type": "uint256"
        },
        {
          "indexed": false,
          "internalType": "uint256",
          "name": "lpTokenSupply",
          "type": "uint256"
        }
      ],
      "name": "AddLiquidity",
      "type": "event"
    },
    {
      "anonymous": false,
      "inputs": [
        {
          "indexed": false,
          "internalType": "uint8",
          "name": "version",
          "type": "uint8"
        }
      ],
      "name": "Initialized",
      "type": "event"
    },
    {
      "anonymous": false,
      "inputs": [
        {
          "indexed": false,
          "internalType": "uint256",
          "name": "newAdminFee",
          "type": "uint256"
        }
      ],
      "name": "NewAdminFee",
      "type": "event"
    },
    {
      "anonymous": false,
      "inputs": [
        {
          "indexed": false,
          "internalType": "uint256",
          "name": "newSwapFee",
          "type": "uint256"
        }
      ],
      "name": "NewSwapFee",
      "type": "event"
    },
    {
      "anonymous": false,
      "inputs": [
        {
          "indexed": false,
          "internalType": "uint256",
          "name": "newWithdrawFee",
          "type": "uint256"
        }
      ],
      "name": "NewWithdrawFee",
      "type": "event"
    },
    {
      "anonymous": false,
      "inputs": [
        {
          "indexed": true,
          "internalType": "address",
          "name": "previousOwner",
          "type": "address"
        },
        {
          "indexed": true,
          "internalType": "address",
          "name": "newOwner",
          "type": "address"
        }
      ],
      "name": "OwnershipTransferred",
      "type": "event"
    },
    {
      "anonymous": false,
      "inputs": [
        {
          "indexed": false,
          "internalType": "address",
          "name": "account",
          "type": "address"
        }
      ],
      "name": "Paused",
      "type": "event"
    },
    {
      "anonymous": false,
      "inputs": [
        {
          "indexed": false,
          "internalType": "uint256",
          "name": "oldA",
          "type": "uint256"
        },
        {
          "indexed": false,
          "internalType": "uint256",
          "name": "newA",
          "type": "uint256"
        },
        {
          "indexed": false,
          "internalType": "uint256",
          "name": "initialTime",
          "type": "uint256"
        },
        {
          "indexed": false,
          "internalType": "uint256",
          "name": "futureTime",
          "type": "uint256"
        }
      ],
      "name": "RampA",
      "type": "event"
    },
    {
      "anonymous": false,
      "inputs": [
        {
          "indexed": true,
          "internalType": "address",
          "name": "provider",
          "type": "address"
        },
        {
          "indexed": false,
          "internalType": "uint256[]",
          "name": "tokenAmounts",
          "type": "uint256[]"
        },
        {
          "indexed": false,
          "internalType": "uint256",
          "name": "lpTokenSupply",
          "type": "uint256"
        }
      ],
      "name": "RemoveLiquidity",
      "type": "event"
    },
    {
      "anonymous": false,
      "inputs": [
        {
          "indexed": true,
          "internalType": "address",
          "name": "provider",
          "type": "address"
        },
        {
          "indexed": false,
          "internalType": "uint256[]",
          "name": "tokenAmounts",
          "type": "uint256[]"
        },
        {
          "indexed": false,
          "internalType": "uint256[]",
          "name": "fees",
          "type": "uint256[]"
        },
        {
          "indexed": false,
          "internalType": "uint256",
          "name": "invariant",
          "type": "uint256"
        },
        {
          "indexed": false,
          "internalType": "uint256",
          "name": "lpTokenSupply",
          "type": "uint256"
        }
      ],
      "name": "RemoveLiquidityImbalance",
      "type": "event"
    },
    {
      "anonymous": false,
      "inputs": [
        {
          "indexed": true,
          "internalType": "address",
          "name": "provider",
          "type": "address"
        },
        {
          "indexed": false,
          "internalType": "uint256",
          "name": "lpTokenAmount",
          "type": "uint256"
        },
        {
          "indexed": false,
          "internalType": "uint256",
          "name": "lpTokenSupply",
          "type": "uint256"
        },
        {
          "indexed": false,
          "internalType": "uint256",
          "name": "boughtId",
          "type": "uint256"
        },
        {
          "indexed": false,
          "internalType": "uint256",
          "name": "tokensBought",
          "type": "uint256"
        }
      ],
      "name": "RemoveLiquidityOne",
      "type": "event"
    },
    {
      "anonymous": false,
      "inputs": [
        {
          "indexed": false,
          "internalType": "uint256",
          "name": "currentA",
          "type": "uint256"
        },
        {
          "indexed": false,
          "internalType": "uint256",
          "name": "time",
          "type": "uint256"
        }
      ],
      "name": "StopRampA",
      "type": "event"
    },
    {
      "anonymous": false,
      "inputs": [
        {
          "indexed": true,
          "internalType": "address",
          "name": "buyer",
          "type": "address"
        },
        {
          "indexed": false,
          "internalType": "uint256",
          "name": "tokensSold",
          "type": "uint256"
        },
        {
          "indexed": false,
          "internalType": "uint256",
          "name": "tokensBought",
          "type": "uint256"
        },
        {
          "indexed": false,
          "internalType": "uint128",
          "name": "soldId",
          "type": "uint128"
        },
        {
          "indexed": false,
          "internalType": "uint128",
          "name": "boughtId",
          "type": "uint128"
        }
      ],
      "name": "TokenSwap",
      "type": "event"
    },
    {
      "anonymous": false,
      "inputs": [
        {
          "indexed": false,
          "internalType": "address",
          "name": "account",
          "type": "address"
        }
      ],
      "name": "Unpaused",
      "type": "event"
    },
    {
      "inputs": [
        {
          "internalType": "uint256[]",
          "name": "amounts",
          "type": "uint256[]"
        },
        {
          "internalType": "uint256",
          "name": "minToMint",
          "type": "uint256"
        },
        {
          "internalType": "uint256",
          "name": "deadline",
          "type": "uint256"
        }
      ],
      "name": "addLiquidity",
      "outputs": [
        {
          "internalType": "uint256",
          "name": "",
          "type": "uint256"
        }
      ],
      "stateMutability": "payable",
      "type": "function"
    },
    {
      "inputs": [
        {
          "internalType": "uint256",
          "name": "amount",
          "type": "uint256"
        }
      ],
      "name": "calculateRemoveLiquidity",
      "outputs": [
        {
          "internalType": "uint256[]",
          "name": "",
          "type": "uint256[]"
        }
      ],
      "stateMutability": "view",
      "type": "function"
    },
    {
      "inputs": [
        {
          "internalType": "uint256",
          "name": "tokenAmount",
          "type": "uint256"
        },
        {
          "internalType": "uint8",
          "name": "tokenIndex",
          "type": "uint8"
        }
      ],
      "name": "calculateRemoveLiquidityOneToken",
      "outputs": [
        {
          "internalType": "uint256",
          "name": "availableTokenAmount",
          "type": "uint256"
        }
      ],
      "stateMutability": "view",
      "type": "function"
    },
    {
      "inputs": [
        {
          "internalType": "uint8",
          "name": "tokenIndexFrom",
          "type": "uint8"
        },
        {
          "internalType": "uint8",
          "name": "tokenIndexTo",
          "type": "uint8"
        },
        {
          "internalType": "uint256",
          "name": "dx",
          "type": "uint256"
        }
      ],
      "name": "calculateSwap",
      "outputs": [
        {
          "internalType": "uint256",
          "name": "",
          "type": "uint256"
        }
      ],
      "stateMutability": "view",
      "type": "function"
    },
    {
      "inputs": [
        {
          "internalType": "uint256[]",
          "name": "amounts",
          "type": "uint256[]"
        },
        {
          "internalType": "bool",
          "name": "deposit",
          "type": "bool"
        }
      ],
      "name": "calculateTokenAmount",
      "outputs": [
        {
          "internalType": "uint256",
          "name": "",
          "type": "uint256"
        }
      ],
      "stateMutability": "view",
      "type": "function"
    },
    {
      "inputs": [],
      "name": "getA",
      "outputs": [
        {
          "internalType": "uint256",
          "name": "",
          "type": "uint256"
        }
      ],
      "stateMutability": "view",
      "type": "function"
    },
    {
      "inputs": [],
      "name": "getAPrecise",
      "outputs": [
        {
          "internalType": "uint256",
          "name": "",
          "type": "uint256"
        }
      ],
      "stateMutability": "view",
      "type": "function"
    },
    {
      "inputs": [
        {
          "internalType": "uint256",
          "name": "index",
          "type": "uint256"
        }
      ],
      "name": "getAdminBalance",
      "outputs": [
        {
          "internalType": "uint256",
          "name": "",
          "type": "uint256"
        }
      ],
      "stateMutability": "view",
      "type": "function"
    },
    {
      "inputs": [
        {
          "internalType": "uint8",
          "name": "index",
          "type": "uint8"
        }
      ],
      "name": "getToken",
      "outputs": [
        {
          "internalType": "contract IERC20",
          "name": "",
          "type": "address"
        }
      ],
      "stateMutability": "view",
      "type": "function"
    },
    {
      "inputs": [
        {
          "internalType": "uint8",
          "name": "index",
          "type": "uint8"
        }
      ],
      "name": "getTokenBalance",
      "outputs": [
        {
          "internalType": "uint256",
          "name": "",
          "type": "uint256"
        }
      ],
      "stateMutability": "view",
      "type": "function"
    },
    {
      "inputs": [
        {
          "internalType": "address",
          "name": "tokenAddress",
          "type": "address"
        }
      ],
      "name": "getTokenIndex",
      "outputs": [
        {
          "internalType": "uint8",
          "name": "",
          "type": "uint8"
        }
      ],
      "stateMutability": "view",
      "type": "function"
    },
    {
      "inputs": [],
      "name": "getVirtualPrice",
      "outputs": [
        {
          "internalType": "uint256",
          "name": "",
          "type": "uint256"
        }
      ],
      "stateMutability": "view",
      "type": "function"
    },
    {
      "inputs": [
        {
          "internalType": "contract IERC20[]",
          "name": "_pooledTokens",
          "type": "address[]"
        },
        {
          "internalType": "uint8[]",
          "name": "decimals",
          "type": "uint8[]"
        },
        {
          "internalType": "string",
          "name": "lpTokenName",
          "type": "string"
        },
        {
          "internalType": "string",
          "name": "lpTokenSymbol",
          "type": "string"
        },
        {
          "internalType": "uint256",
          "name": "_a",
          "type": "uint256"
        },
        {
          "internalType": "uint256",
          "name": "_fee",
          "type": "uint256"
        },
        {
          "internalType": "uint256",
          "name": "_adminFee",
          "type": "uint256"
        },
        {
          "internalType": "address",
          "name": "lpTokenTargetAddress",
          "type": "address"
        }
      ],
      "name": "initialize",
      "outputs": [],
      "stateMutability": "payable",
      "type": "function"
    },
    {
      "inputs": [],
      "name": "owner",
      "outputs": [
        {
          "internalType": "address",
          "name": "",
          "type": "address"
        }
      ],
      "stateMutability": "view",
      "type": "function"
    },
    {
      "inputs": [],
      "name": "pause",
      "outputs": [],
      "stateMutability": "nonpayable",
      "type": "function"
    },
    {
      "inputs": [],
      "name": "paused",
      "outputs": [
        {
          "internalType": "bool",
          "name": "",
          "type": "bool"
        }
      ],
      "stateMutability": "view",
      "type": "function"
    },
    {
      "inputs": [
        {
          "internalType": "uint256",
          "name": "futureA",
          "type": "uint256"
        },
        {
          "internalType": "uint256",
          "name": "futureTime",
          "type": "uint256"
        }
      ],
      "name": "rampA",
      "outputs": [],
      "stateMutability": "payable",
      "type": "function"
    },
    {
      "inputs": [
        {
          "internalType": "uint256",
          "name": "amount",
          "type": "uint256"
        },
        {
          "internalType": "uint256[]",
          "name": "minAmounts",
          "type": "uint256[]"
        },
        {
          "internalType": "uint256",
          "name": "deadline",
          "type": "uint256"
        }
      ],
      "name": "removeLiquidity",
      "outputs": [
        {
          "internalType": "uint256[]",
          "name": "",
          "type": "uint256[]"
        }
      ],
      "stateMutability": "payable",
      "type": "function"
    },
    {
      "inputs": [
        {
          "internalType": "uint256[]",
          "name": "amounts",
          "type": "uint256[]"
        },
        {
          "internalType": "uint256",
          "name": "maxBurnAmount",
          "type": "uint256"
        },
        {
          "internalType": "uint256",
          "name": "deadline",
          "type": "uint256"
        }
      ],
      "name": "removeLiquidityImbalance",
      "outputs": [
        {
          "internalType": "uint256",
          "name": "",
          "type": "uint256"
        }
      ],
      "stateMutability": "payable",
      "type": "function"
    },
    {
      "inputs": [
        {
          "internalType": "uint256",
          "name": "tokenAmount",
          "type": "uint256"
        },
        {
          "internalType": "uint8",
          "name": "tokenIndex",
          "type": "uint8"
        },
        {
          "internalType": "uint256",
          "name": "minAmount",
          "type": "uint256"
        },
        {
          "internalType": "uint256",
          "name": "deadline",
          "type": "uint256"
        }
      ],
      "name": "removeLiquidityOneToken",
      "outputs": [
        {
          "internalType": "uint256",
          "name": "",
          "type": "uint256"
        }
      ],
      "stateMutability": "payable",
      "type": "function"
    },
    {
      "inputs": [],
      "name": "renounceOwnership",
      "outputs": [],
      "stateMutability": "nonpayable",
      "type": "function"
    },
    {
      "inputs": [
        {
          "internalType": "uint256",
          "name": "newAdminFee",
          "type": "uint256"
        }
      ],
      "name": "setAdminFee",
      "outputs": [],
      "stateMutability": "payable",
      "type": "function"
    },
    {
      "inputs": [
        {
          "internalType": "uint256",
          "name": "newSwapFee",
          "type": "uint256"
        }
      ],
      "name": "setSwapFee",
      "outputs": [],
      "stateMutability": "payable",
      "type": "function"
    },
    {
      "inputs": [],
      "name": "stopRampA",
      "outputs": [],
      "stateMutability": "payable",
      "type": "function"
    },
    {
      "inputs": [
        {
          "internalType": "uint8",
          "name": "tokenIndexFrom",
          "type": "uint8"
        },
        {
          "internalType": "uint8",
          "name": "tokenIndexTo",
          "type": "uint8"
        },
        {
          "internalType": "uint256",
          "name": "dx",
          "type": "uint256"
        },
        {
          "internalType": "uint256",
          "name": "minDy",
          "type": "uint256"
        },
        {
          "internalType": "uint256",
          "name": "deadline",
          "type": "uint256"
        }
      ],
      "name": "swap",
      "outputs": [
        {
          "internalType": "uint256",
          "name": "",
          "type": "uint256"
        }
      ],
      "stateMutability": "payable",
      "type": "function"
    },
    {
      "inputs": [],
      "name": "swapStorage",
      "outputs": [
        {
          "internalType": "uint256",
          "name": "initialA",
          "type": "uint256"
        },
        {
          "internalType": "uint256",
          "name": "futureA",
          "type": "uint256"
        },
        {
          "internalType": "uint256",
          "name": "initialATime",
          "type": "uint256"
        },
        {
          "internalType": "uint256",
          "name": "futureATime",
          "type": "uint256"
        },
        {
          "internalType": "uint256",
          "name": "swapFee",
          "type": "uint256"
        },
        {
          "internalType": "uint256",
          "name": "adminFee",
          "type": "uint256"
        },
        {
          "internalType": "contract LPTokenV2",
          "name": "lpToken",
          "type": "address"
        }
      ],
      "stateMutability": "view",
      "type": "function"
    },
    {
      "inputs": [
        {
          "internalType": "address",
          "name": "newOwner",
          "type": "address"
        }
      ],
      "name": "transferOwnership",
      "outputs": [],
      "stateMutability": "nonpayable",
      "type": "function"
    },
    {
      "inputs": [],
      "name": "unpause",
      "outputs": [],
      "stateMutability": "nonpayable",
      "type": "function"
    },
    {
      "inputs": [],
      "name": "withdrawAdminFees",
      "outputs": [],
      "stateMutability": "payable",
      "type": "function"
    }
  ],
  "transactionHash": "0x984bd8596e1b45b2e0d36f46596bcd532ea287e94dd637beb786c7479818ce8f",
  "args": [],
  "numDeployments": 1,
  "solcInputHash": "faeaaf1f06e012c3200d7f368f424bd7",
  "bytecode": "0x608060405234801561001057600080fd5b50612fde806100206000396000f3fe6080604052600436106101c25760003560e01c80638456cb59116100f7578063b28cb6dc11610095578063e6ab280611610064578063e6ab2806146104d7578063ef0a712f146104f7578063f2fad2b614610517578063f2fde38b1461053757600080fd5b8063b28cb6dc14610492578063c4db7fa0146104a5578063d46300fd146104ad578063e25aa5fa146104c257600080fd5b80638da5cb5b116100d15780638da5cb5b14610414578063916955861461043f57806391ceb3eb14610452578063a95b089f1461047257600080fd5b80638456cb59146103d957806384cdd9bc146103ee5780638beb60b61461040157600080fd5b80634d49e87d116101645780635fd65f0f1161013e5780635fd65f0f146102bd57806366c0bd241461034d578063715018a61461037f57806382b866001461039457600080fd5b80634d49e87d14610274578063593d132c146102875780635c975abb1461029a57600080fd5b8063342a87a1116101a0578063342a87a11461021957806334e19907146102395780633e3a15601461024c5780633f4ba83a1461025f57600080fd5b80630419b45a146101c75780630ba81959146101d157806331cd52b0146101f9575b600080fd5b6101cf610557565b005b3480156101dd57600080fd5b506101e661061f565b6040519081526020015b60405180910390f35b61020c6102073660046125d9565b6106b5565b6040516101f0919061262c565b34801561022557600080fd5b506101e6610234366004612681565b61082d565b6101cf6102473660046126ad565b6108d6565b6101e661025a3660046126c6565b610965565b34801561026b57600080fd5b506101cf610abc565b6101e6610282366004612701565b610ace565b6101cf610295366004612752565b610bd7565b3480156102a657600080fd5b5060655460ff1660405190151581526020016101f0565b3480156102c957600080fd5b5060c95460ca5460cb5460cc5460cd5460ce5460cf546103029695949392919073ffffffffffffffffffffffffffffffffffffffff1687565b604080519788526020880196909652948601939093526060850191909152608084015260a083015273ffffffffffffffffffffffffffffffffffffffff1660c082015260e0016101f0565b34801561035957600080fd5b5061036d6103683660046127a1565b610c6d565b60405160ff90911681526020016101f0565b34801561038b57600080fd5b506101cf610d07565b3480156103a057600080fd5b506103b46103af3660046127c5565b610d19565b60405173ffffffffffffffffffffffffffffffffffffffff90911681526020016101f0565b3480156103e557600080fd5b506101cf610daf565b6101e66103fc366004612701565b610dbf565b6101cf61040f3660046126ad565b610ec8565b34801561042057600080fd5b5060335473ffffffffffffffffffffffffffffffffffffffff166103b4565b6101e661044d3660046127e0565b610f28565b34801561045e57600080fd5b506101e661046d3660046127c5565b611096565b34801561047e57600080fd5b506101e661048d36600461282d565b611116565b6101cf6104a0366004612a6f565b6111c7565b6101cf61134f565b3480156104b957600080fd5b506101e66113a8565b3480156104ce57600080fd5b506101e66113fc565b3480156104e357600080fd5b506101e66104f2366004612b58565b611450565b34801561050357600080fd5b506101e66105123660046126ad565b6114aa565b34801561052357600080fd5b5061020c6105323660046126ad565b611541565b34801561054357600080fd5b506101cf6105523660046127a1565b6115fa565b61055f611697565b734a5208f83a17e030a18830521e4064e80728c4fc63fe7cb1c060c961059a60335473ffffffffffffffffffffffffffffffffffffffff1690565b6040517fffffffff0000000000000000000000000000000000000000000000000000000060e085901b168152600481019290925273ffffffffffffffffffffffffffffffffffffffff1660248201526044015b60006040518083038186803b15801561060557600080fd5b505af4158015610619573d6000803e3d6000fd5b50505050565b6040517fc4a241f700000000000000000000000000000000000000000000000000000000815260c9600482015260009073FdA5D2ad8b6d3884AbB799DA66f57175E87069419063c4a241f7906024015b602060405180830381865af415801561068c573d6000803e3d6000fd5b505050506040513d601f19601f820116820180604052508101906106b09190612baf565b905090565b606060026097540361070e5760405162461bcd60e51b815260206004820152601f60248201527f5265656e7472616e637947756172643a207265656e7472616e742063616c6c0060448201526064015b60405180910390fd5b600260975581428110156107645760405162461bcd60e51b815260206004820152601060248201527f446561646c696e65206e6f74206d6574000000000000000000000000000000006044820152606401610705565b6040517ffa76ee2a000000000000000000000000000000000000000000000000000000008152734a5208f83a17e030a18830521e4064e80728c4fc9063fa76ee2a906107bb9060c9908a908a908a90600401612c13565b600060405180830381865af41580156107d8573d6000803e3d6000fd5b505050506040513d6000823e601f3d9081017fffffffffffffffffffffffffffffffffffffffffffffffffffffffffffffffe016820160405261081e9190810190612c3d565b60016097559695505050505050565b6040517f1a535da500000000000000000000000000000000000000000000000000000000815260c960048201526024810183905260ff82166044820152600090734a5208f83a17e030a18830521e4064e80728c4fc90631a535da590606401602060405180830381865af41580156108a9573d6000803e3d6000fd5b505050506040513d601f19601f820116820180604052508101906108cd9190612baf565b90505b92915050565b6108de611697565b6040517f05f7ec2100000000000000000000000000000000000000000000000000000000815260c9600482015260248101829052734a5208f83a17e030a18830521e4064e80728c4fc906305f7ec21906044015b60006040518083038186803b15801561094a57600080fd5b505af415801561095e573d6000803e3d6000fd5b5050505050565b60006002609754036109b95760405162461bcd60e51b815260206004820152601f60248201527f5265656e7472616e637947756172643a207265656e7472616e742063616c6c006044820152606401610705565b60026097556109c66116fe565b8180421115610a175760405162461bcd60e51b815260206004820152601060248201527f446561646c696e65206e6f74206d6574000000000000000000000000000000006044820152606401610705565b6040517f711cd33000000000000000000000000000000000000000000000000000000000815260c960048201526024810187905260ff8616604482015260648101859052734a5208f83a17e030a18830521e4064e80728c4fc9063711cd330906084015b602060405180830381865af4158015610a98573d6000803e3d6000fd5b505050506040513d601f19601f8201168201806040525081019061081e9190612baf565b610ac4611697565b610acc611751565b565b6000600260975403610b225760405162461bcd60e51b815260206004820152601f60248201527f5265656e7472616e637947756172643a207265656e7472616e742063616c6c006044820152606401610705565b6002609755610b2f6116fe565b8180421115610b805760405162461bcd60e51b815260206004820152601060248201527f446561646c696e65206e6f74206d6574000000000000000000000000000000006044820152606401610705565b6040517f041894b0000000000000000000000000000000000000000000000000000000008152734a5208f83a17e030a18830521e4064e80728c4fc9063041894b090610a7b9060c9908a908a908a90600401612cce565b610bdf611697565b6040517f858490d300000000000000000000000000000000000000000000000000000000815260c96004820152602481018390526044810182905273FdA5D2ad8b6d3884AbB799DA66f57175E87069419063858490d39060640160006040518083038186803b158015610c5157600080fd5b505af4158015610c65573d6000803e3d6000fd5b505050505050565b73ffffffffffffffffffffffffffffffffffffffff8116600081815260d36020526040812054909160ff90911690610ca482610d19565b73ffffffffffffffffffffffffffffffffffffffff16146108d05760405162461bcd60e51b815260206004820152601460248201527f546f6b656e20646f6573206e6f742065786973740000000000000000000000006044820152606401610705565b610d0f611697565b610acc60006117ce565b60d05460009060ff831610610d705760405162461bcd60e51b815260206004820152600c60248201527f4f7574206f662072616e676500000000000000000000000000000000000000006044820152606401610705565b60d0805460ff8416908110610d8757610d87612cf9565b60009182526020909120015473ffffffffffffffffffffffffffffffffffffffff1692915050565b610db7611697565b610acc611845565b6000600260975403610e135760405162461bcd60e51b815260206004820152601f60248201527f5265656e7472616e637947756172643a207265656e7472616e742063616c6c006044820152606401610705565b6002609755610e206116fe565b8180421115610e715760405162461bcd60e51b815260206004820152601060248201527f446561646c696e65206e6f74206d6574000000000000000000000000000000006044820152606401610705565b6040517f4540fb7f000000000000000000000000000000000000000000000000000000008152734a5208f83a17e030a18830521e4064e80728c4fc90634540fb7f90610a7b9060c9908a908a908a90600401612cce565b610ed0611697565b6040517fa125d92400000000000000000000000000000000000000000000000000000000815260c9600482015260248101829052734a5208f83a17e030a18830521e4064e80728c4fc9063a125d92490604401610932565b6000600260975403610f7c5760405162461bcd60e51b815260206004820152601f60248201527f5265656e7472616e637947756172643a207265656e7472616e742063616c6c006044820152606401610705565b6002609755610f896116fe565b8180421115610fda5760405162461bcd60e51b815260206004820152601060248201527f446561646c696e65206e6f74206d6574000000000000000000000000000000006044820152606401610705565b6040517facf9147800000000000000000000000000000000000000000000000000000000815260c9600482015260ff8089166024830152871660448201526064810186905260848101859052734a5208f83a17e030a18830521e4064e80728c4fc9063acf914789060a401602060405180830381865af4158015611062573d6000803e3d6000fd5b505050506040513d601f19601f820116820180604052508101906110869190612baf565b6001609755979650505050505050565b60d05460009060ff8316106110ed5760405162461bcd60e51b815260206004820152601260248201527f496e646578206f7574206f662072616e676500000000000000000000000000006044820152606401610705565b60d2805460ff841690811061110457611104612cf9565b90600052602060002001549050919050565b6040517f39e43af200000000000000000000000000000000000000000000000000000000815260c9600482015260ff80851660248301528316604482015260648101829052600090734a5208f83a17e030a18830521e4064e80728c4fc906339e43af2906084015b602060405180830381865af415801561119b573d6000803e3d6000fd5b505050506040513d601f19601f820116820180604052508101906111bf9190612baf565b949350505050565b600054610100900460ff16158080156111e75750600054600160ff909116105b806112015750303b158015611201575060005460ff166001145b6112735760405162461bcd60e51b815260206004820152602e60248201527f496e697469616c697a61626c653a20636f6e747261637420697320616c72656160448201527f647920696e697469616c697a65640000000000000000000000000000000000006064820152608401610705565b600080547fffffffffffffffffffffffffffffffffffffffffffffffffffffffffffffff0016600117905580156112d157600080547fffffffffffffffffffffffffffffffffffffffffffffffffffffffffffff00ff166101001790555b6112e189898989898989896118a0565b801561134457600080547fffffffffffffffffffffffffffffffffffffffffffffffffffffffffffff00ff169055604051600181527f7f26b83ff96e1f2b6a682f133852f6798a09c465da95921460cefb38474024989060200160405180910390a15b505050505050505050565b611357611697565b6040517fd3a605a500000000000000000000000000000000000000000000000000000000815260c9600482015273FdA5D2ad8b6d3884AbB799DA66f57175E87069419063d3a605a5906024016105ed565b6040517f1c103df000000000000000000000000000000000000000000000000000000000815260c9600482015260009073FdA5D2ad8b6d3884AbB799DA66f57175E870694190631c103df09060240161066f565b6040517f98a20a3e00000000000000000000000000000000000000000000000000000000815260c96004820152600090734a5208f83a17e030a18830521e4064e80728c4fc906398a20a3e9060240161066f565b6040517f6972fae8000000000000000000000000000000000000000000000000000000008152600090734a5208f83a17e030a18830521e4064e80728c4fc90636972fae89061117e9060c990889088908890600401612d28565b6040517fcbc7f8dd00000000000000000000000000000000000000000000000000000000815260c9600482015260248101829052600090734a5208f83a17e030a18830521e4064e80728c4fc9063cbc7f8dd90604401602060405180830381865af415801561151d573d6000803e3d6000fd5b505050506040513d601f19601f820116820180604052508101906108d09190612baf565b6040517f8424905f00000000000000000000000000000000000000000000000000000000815260c9600482015260248101829052606090734a5208f83a17e030a18830521e4064e80728c4fc90638424905f90604401600060405180830381865af41580156115b4573d6000803e3d6000fd5b505050506040513d6000823e601f3d9081017fffffffffffffffffffffffffffffffffffffffffffffffffffffffffffffffe01682016040526108d09190810190612c3d565b611602611697565b73ffffffffffffffffffffffffffffffffffffffff811661168b5760405162461bcd60e51b815260206004820152602660248201527f4f776e61626c653a206e6577206f776e657220697320746865207a65726f206160448201527f64647265737300000000000000000000000000000000000000000000000000006064820152608401610705565b611694816117ce565b50565b60335473ffffffffffffffffffffffffffffffffffffffff163314610acc5760405162461bcd60e51b815260206004820181905260248201527f4f776e61626c653a2063616c6c6572206973206e6f7420746865206f776e65726044820152606401610705565b60655460ff1615610acc5760405162461bcd60e51b815260206004820152601060248201527f5061757361626c653a20706175736564000000000000000000000000000000006044820152606401610705565b611759612051565b606580547fffffffffffffffffffffffffffffffffffffffffffffffffffffffffffffff001690557f5db9ee0a495bf2e6ff9c91a7834c1ba4fdd244a5e8aa4e537bd38aeae4b073aa335b60405173ffffffffffffffffffffffffffffffffffffffff909116815260200160405180910390a1565b6033805473ffffffffffffffffffffffffffffffffffffffff8381167fffffffffffffffffffffffff0000000000000000000000000000000000000000831681179093556040519116919082907f8be0079c531659141344cd1fd0a4f28419497f9722a3daafe3b4186f6b6457e090600090a35050565b61184d6116fe565b606580547fffffffffffffffffffffffffffffffffffffffffffffffffffffffffffffff001660011790557f62e78cea01bee320cd4e420270b5ea74000d11b0c9f74754ebdbfc544b05a2586117a43390565b600054610100900460ff1661191d5760405162461bcd60e51b815260206004820152602b60248201527f496e697469616c697a61626c653a20636f6e7472616374206973206e6f74206960448201527f6e697469616c697a696e670000000000000000000000000000000000000000006064820152608401610705565b6119256120a3565b61192d612138565b600188511161197e5760405162461bcd60e51b815260206004820152601960248201527f5f706f6f6c6564546f6b656e732e6c656e677468203c3d2031000000000000006044820152606401610705565b6020885111156119d05760405162461bcd60e51b815260206004820152601960248201527f5f706f6f6c6564546f6b656e732e6c656e677468203e203332000000000000006044820152606401610705565b8651885114611a215760405162461bcd60e51b815260206004820152601f60248201527f5f706f6f6c6564546f6b656e7320646563696d616c73206d69736d61746368006044820152606401610705565b6000875167ffffffffffffffff811115611a3d57611a3d612869565b604051908082528060200260200182016040528015611a66578160200160208202803683370190505b50905060005b89518160ff161015611d765760ff811615611b895760d360008b8360ff1681518110611a9a57611a9a612cf9565b60209081029190910181015173ffffffffffffffffffffffffffffffffffffffff1682528101919091526040016000205460ff16158015611b3d5750898160ff1681518110611aeb57611aeb612cf9565b602002602001015173ffffffffffffffffffffffffffffffffffffffff168a600081518110611b1c57611b1c612cf9565b602002602001015173ffffffffffffffffffffffffffffffffffffffff1614155b611b895760405162461bcd60e51b815260206004820152601060248201527f4475706c696361746520746f6b656e73000000000000000000000000000000006044820152606401610705565b600073ffffffffffffffffffffffffffffffffffffffff168a8260ff1681518110611bb657611bb6612cf9565b602002602001015173ffffffffffffffffffffffffffffffffffffffff1603611c215760405162461bcd60e51b815260206004820152601d60248201527f546865203020616464726573732069736e277420616e204552432d32300000006044820152606401610705565b601260ff16898260ff1681518110611c3b57611c3b612cf9565b602002602001015160ff161115611c945760405162461bcd60e51b815260206004820152601a60248201527f546f6b656e20646563696d616c732065786365656473206d61780000000000006044820152606401610705565b888160ff1681518110611ca957611ca9612cf9565b602002602001015160ff16601260ff16611cc39190612d84565b611cce90600a612eb7565b828260ff1681518110611ce357611ce3612cf9565b6020026020010181815250508060d360008c8460ff1681518110611d0957611d09612cf9565b602002602001015173ffffffffffffffffffffffffffffffffffffffff1673ffffffffffffffffffffffffffffffffffffffff16815260200190815260200160002060006101000a81548160ff021916908360ff1602179055508080611d6e90612ec3565b915050611a6c565b50620f42408510611dc95760405162461bcd60e51b815260206004820152601260248201527f5f612065786365656473206d6178696d756d00000000000000000000000000006044820152606401610705565b6305f5e1008410611e1c5760405162461bcd60e51b815260206004820152601460248201527f5f6665652065786365656473206d6178696d756d0000000000000000000000006044820152606401610705565b6402540be4008310611e705760405162461bcd60e51b815260206004820152601960248201527f5f61646d696e4665652065786365656473206d6178696d756d000000000000006044820152606401610705565b6000611e7b836121bd565b6040517f4cd88b7600000000000000000000000000000000000000000000000000000000815290915073ffffffffffffffffffffffffffffffffffffffff821690634cd88b7690611ed2908b908b90600401612f46565b6020604051808303816000875af1158015611ef1573d6000803e3d6000fd5b505050506040513d601f19601f82011682018060405250810190611f159190612f74565b611f615760405162461bcd60e51b815260206004820152601c60248201527f636f756c64206e6f7420696e6974206c70546f6b656e20636c6f6e65000000006044820152606401610705565b60cf80547fffffffffffffffffffffffff00000000000000000000000000000000000000001673ffffffffffffffffffffffffffffffffffffffff83161790558951611fb49060d09060208d01906124b3565b508151611fc89060d190602085019061253d565b50895167ffffffffffffffff811115611fe357611fe3612869565b60405190808252806020026020018201604052801561200c578160200160208202803683370190505b5080516120219160d29160209091019061253d565b5061202d606487612f91565b60c95561203b606487612f91565b60ca5550505060cd9190915560ce555050505050565b60655460ff16610acc5760405162461bcd60e51b815260206004820152601460248201527f5061757361626c653a206e6f74207061757365640000000000000000000000006044820152606401610705565b600054610100900460ff166121205760405162461bcd60e51b815260206004820152602b60248201527f496e697469616c697a61626c653a20636f6e7472616374206973206e6f74206960448201527f6e697469616c697a696e670000000000000000000000000000000000000000006064820152608401610705565b612128612285565b612130612302565b610acc612388565b600054610100900460ff166121b55760405162461bcd60e51b815260206004820152602b60248201527f496e697469616c697a61626c653a20636f6e7472616374206973206e6f74206960448201527f6e697469616c697a696e670000000000000000000000000000000000000000006064820152608401610705565b610acc61242f565b60006040517f3d602d80600a3d3981f3363d3d373d3d3d363d7300000000000000000000000081528260601b60148201527f5af43d82803e903d91602b57fd5bf3000000000000000000000000000000000060288201526037816000f091505073ffffffffffffffffffffffffffffffffffffffff81166122805760405162461bcd60e51b815260206004820152601660248201527f455243313136373a20637265617465206661696c6564000000000000000000006044820152606401610705565b919050565b600054610100900460ff16610acc5760405162461bcd60e51b815260206004820152602b60248201527f496e697469616c697a61626c653a20636f6e7472616374206973206e6f74206960448201527f6e697469616c697a696e670000000000000000000000000000000000000000006064820152608401610705565b600054610100900460ff1661237f5760405162461bcd60e51b815260206004820152602b60248201527f496e697469616c697a61626c653a20636f6e7472616374206973206e6f74206960448201527f6e697469616c697a696e670000000000000000000000000000000000000000006064820152608401610705565b610acc336117ce565b600054610100900460ff166124055760405162461bcd60e51b815260206004820152602b60248201527f496e697469616c697a61626c653a20636f6e7472616374206973206e6f74206960448201527f6e697469616c697a696e670000000000000000000000000000000000000000006064820152608401610705565b606580547fffffffffffffffffffffffffffffffffffffffffffffffffffffffffffffff00169055565b600054610100900460ff166124ac5760405162461bcd60e51b815260206004820152602b60248201527f496e697469616c697a61626c653a20636f6e7472616374206973206e6f74206960448201527f6e697469616c697a696e670000000000000000000000000000000000000000006064820152608401610705565b6001609755565b82805482825590600052602060002090810192821561252d579160200282015b8281111561252d57825182547fffffffffffffffffffffffff00000000000000000000000000000000000000001673ffffffffffffffffffffffffffffffffffffffff9091161782556020909201916001909101906124d3565b50612539929150612578565b5090565b82805482825590600052602060002090810192821561252d579160200282015b8281111561252d57825182559160200191906001019061255d565b5b808211156125395760008155600101612579565b60008083601f84011261259f57600080fd5b50813567ffffffffffffffff8111156125b757600080fd5b6020830191508360208260051b85010111156125d257600080fd5b9250929050565b600080600080606085870312156125ef57600080fd5b84359350602085013567ffffffffffffffff81111561260d57600080fd5b6126198782880161258d565b9598909750949560400135949350505050565b6020808252825182820181905260009190848201906040850190845b8181101561266457835183529284019291840191600101612648565b50909695505050505050565b803560ff8116811461228057600080fd5b6000806040838503121561269457600080fd5b823591506126a460208401612670565b90509250929050565b6000602082840312156126bf57600080fd5b5035919050565b600080600080608085870312156126dc57600080fd5b843593506126ec60208601612670565b93969395505050506040820135916060013590565b6000806000806060858703121561271757600080fd5b843567ffffffffffffffff81111561272e57600080fd5b61273a8782880161258d565b90989097506020870135966040013595509350505050565b6000806040838503121561276557600080fd5b50508035926020909101359150565b73ffffffffffffffffffffffffffffffffffffffff8116811461169457600080fd5b803561228081612774565b6000602082840312156127b357600080fd5b81356127be81612774565b9392505050565b6000602082840312156127d757600080fd5b6108cd82612670565b600080600080600060a086880312156127f857600080fd5b61280186612670565b945061280f60208701612670565b94979496505050506040830135926060810135926080909101359150565b60008060006060848603121561284257600080fd5b61284b84612670565b925061285960208501612670565b9150604084013590509250925092565b7f4e487b7100000000000000000000000000000000000000000000000000000000600052604160045260246000fd5b604051601f82017fffffffffffffffffffffffffffffffffffffffffffffffffffffffffffffffe016810167ffffffffffffffff811182821017156128df576128df612869565b604052919050565b600067ffffffffffffffff82111561290157612901612869565b5060051b60200190565b600082601f83011261291c57600080fd5b8135602061293161292c836128e7565b612898565b82815260059290921b8401810191818101908684111561295057600080fd5b8286015b8481101561297457803561296781612774565b8352918301918301612954565b509695505050505050565b600082601f83011261299057600080fd5b813560206129a061292c836128e7565b82815260059290921b840181019181810190868411156129bf57600080fd5b8286015b84811015612974576129d481612670565b83529183019183016129c3565b600082601f8301126129f257600080fd5b813567ffffffffffffffff811115612a0c57612a0c612869565b612a3d60207fffffffffffffffffffffffffffffffffffffffffffffffffffffffffffffffe0601f84011601612898565b818152846020838601011115612a5257600080fd5b816020850160208301376000918101602001919091529392505050565b600080600080600080600080610100898b031215612a8c57600080fd5b883567ffffffffffffffff80821115612aa457600080fd5b612ab08c838d0161290b565b995060208b0135915080821115612ac657600080fd5b612ad28c838d0161297f565b985060408b0135915080821115612ae857600080fd5b612af48c838d016129e1565b975060608b0135915080821115612b0a57600080fd5b50612b178b828c016129e1565b9550506080890135935060a0890135925060c08901359150612b3b60e08a01612796565b90509295985092959890939650565b801515811461169457600080fd5b600080600060408486031215612b6d57600080fd5b833567ffffffffffffffff811115612b8457600080fd5b612b908682870161258d565b9094509250506020840135612ba481612b4a565b809150509250925092565b600060208284031215612bc157600080fd5b5051919050565b81835260007f07ffffffffffffffffffffffffffffffffffffffffffffffffffffffffffffff831115612bfa57600080fd5b8260051b80836020870137939093016020019392505050565b848152836020820152606060408201526000612c33606083018486612bc8565b9695505050505050565b60006020808385031215612c5057600080fd5b825167ffffffffffffffff811115612c6757600080fd5b8301601f81018513612c7857600080fd5b8051612c8661292c826128e7565b81815260059190911b82018301908381019087831115612ca557600080fd5b928401925b82841015612cc357835182529284019290840190612caa565b979650505050505050565b848152606060208201526000612ce8606083018587612bc8565b905082604083015295945050505050565b7f4e487b7100000000000000000000000000000000000000000000000000000000600052603260045260246000fd5b848152606060208201526000612d42606083018587612bc8565b9050821515604083015295945050505050565b7f4e487b7100000000000000000000000000000000000000000000000000000000600052601160045260246000fd5b818103818111156108d0576108d0612d55565b600181815b80851115612df057817fffffffffffffffffffffffffffffffffffffffffffffffffffffffffffffffff04821115612dd657612dd6612d55565b80851615612de357918102915b93841c9390800290612d9c565b509250929050565b600082612e07575060016108d0565b81612e14575060006108d0565b8160018114612e2a5760028114612e3457612e50565b60019150506108d0565b60ff841115612e4557612e45612d55565b50506001821b6108d0565b5060208310610133831016604e8410600b8410161715612e73575081810a6108d0565b612e7d8383612d97565b807fffffffffffffffffffffffffffffffffffffffffffffffffffffffffffffffff04821115612eaf57612eaf612d55565b029392505050565b60006108cd8383612df8565b600060ff821660ff8103612ed957612ed9612d55565b60010192915050565b6000815180845260005b81811015612f0857602081850181015186830182015201612eec565b5060006020828601015260207fffffffffffffffffffffffffffffffffffffffffffffffffffffffffffffffe0601f83011685010191505092915050565b604081526000612f596040830185612ee2565b8281036020840152612f6b8185612ee2565b95945050505050565b600060208284031215612f8657600080fd5b81516127be81612b4a565b80820281158282048414176108d0576108d0612d5556fea2646970667358221220d17bf4b8931a533607e3294e3a4971a80ffd5363c9d61e6a188595e8c121ffa364736f6c63430008110033",
  "deployedBytecode": "0x6080604052600436106101c25760003560e01c80638456cb59116100f7578063b28cb6dc11610095578063e6ab280611610064578063e6ab2806146104d7578063ef0a712f146104f7578063f2fad2b614610517578063f2fde38b1461053757600080fd5b8063b28cb6dc14610492578063c4db7fa0146104a5578063d46300fd146104ad578063e25aa5fa146104c257600080fd5b80638da5cb5b116100d15780638da5cb5b14610414578063916955861461043f57806391ceb3eb14610452578063a95b089f1461047257600080fd5b80638456cb59146103d957806384cdd9bc146103ee5780638beb60b61461040157600080fd5b80634d49e87d116101645780635fd65f0f1161013e5780635fd65f0f146102bd57806366c0bd241461034d578063715018a61461037f57806382b866001461039457600080fd5b80634d49e87d14610274578063593d132c146102875780635c975abb1461029a57600080fd5b8063342a87a1116101a0578063342a87a11461021957806334e19907146102395780633e3a15601461024c5780633f4ba83a1461025f57600080fd5b80630419b45a146101c75780630ba81959146101d157806331cd52b0146101f9575b600080fd5b6101cf610557565b005b3480156101dd57600080fd5b506101e661061f565b6040519081526020015b60405180910390f35b61020c6102073660046125d9565b6106b5565b6040516101f0919061262c565b34801561022557600080fd5b506101e6610234366004612681565b61082d565b6101cf6102473660046126ad565b6108d6565b6101e661025a3660046126c6565b610965565b34801561026b57600080fd5b506101cf610abc565b6101e6610282366004612701565b610ace565b6101cf610295366004612752565b610bd7565b3480156102a657600080fd5b5060655460ff1660405190151581526020016101f0565b3480156102c957600080fd5b5060c95460ca5460cb5460cc5460cd5460ce5460cf546103029695949392919073ffffffffffffffffffffffffffffffffffffffff1687565b604080519788526020880196909652948601939093526060850191909152608084015260a083015273ffffffffffffffffffffffffffffffffffffffff1660c082015260e0016101f0565b34801561035957600080fd5b5061036d6103683660046127a1565b610c6d565b60405160ff90911681526020016101f0565b34801561038b57600080fd5b506101cf610d07565b3480156103a057600080fd5b506103b46103af3660046127c5565b610d19565b60405173ffffffffffffffffffffffffffffffffffffffff90911681526020016101f0565b3480156103e557600080fd5b506101cf610daf565b6101e66103fc366004612701565b610dbf565b6101cf61040f3660046126ad565b610ec8565b34801561042057600080fd5b5060335473ffffffffffffffffffffffffffffffffffffffff166103b4565b6101e661044d3660046127e0565b610f28565b34801561045e57600080fd5b506101e661046d3660046127c5565b611096565b34801561047e57600080fd5b506101e661048d36600461282d565b611116565b6101cf6104a0366004612a6f565b6111c7565b6101cf61134f565b3480156104b957600080fd5b506101e66113a8565b3480156104ce57600080fd5b506101e66113fc565b3480156104e357600080fd5b506101e66104f2366004612b58565b611450565b34801561050357600080fd5b506101e66105123660046126ad565b6114aa565b34801561052357600080fd5b5061020c6105323660046126ad565b611541565b34801561054357600080fd5b506101cf6105523660046127a1565b6115fa565b61055f611697565b73__$62e764fb90da77cece56b4de77dad8e9ad$__63fe7cb1c060c961059a60335473ffffffffffffffffffffffffffffffffffffffff1690565b6040517fffffffff0000000000000000000000000000000000000000000000000000000060e085901b168152600481019290925273ffffffffffffffffffffffffffffffffffffffff1660248201526044015b60006040518083038186803b15801561060557600080fd5b505af4158015610619573d6000803e3d6000fd5b50505050565b6040517fc4a241f700000000000000000000000000000000000000000000000000000000815260c9600482015260009073__$ae7faf633ebe56adae0bfb03bb6572d07a$__9063c4a241f7906024015b602060405180830381865af415801561068c573d6000803e3d6000fd5b505050506040513d601f19601f820116820180604052508101906106b09190612baf565b905090565b606060026097540361070e5760405162461bcd60e51b815260206004820152601f60248201527f5265656e7472616e637947756172643a207265656e7472616e742063616c6c0060448201526064015b60405180910390fd5b600260975581428110156107645760405162461bcd60e51b815260206004820152601060248201527f446561646c696e65206e6f74206d6574000000000000000000000000000000006044820152606401610705565b6040517ffa76ee2a00000000000000000000000000000000000000000000000000000000815273__$62e764fb90da77cece56b4de77dad8e9ad$__9063fa76ee2a906107bb9060c9908a908a908a90600401612c13565b600060405180830381865af41580156107d8573d6000803e3d6000fd5b505050506040513d6000823e601f3d9081017fffffffffffffffffffffffffffffffffffffffffffffffffffffffffffffffe016820160405261081e9190810190612c3d565b60016097559695505050505050565b6040517f1a535da500000000000000000000000000000000000000000000000000000000815260c960048201526024810183905260ff8216604482015260009073__$62e764fb90da77cece56b4de77dad8e9ad$__90631a535da590606401602060405180830381865af41580156108a9573d6000803e3d6000fd5b505050506040513d601f19601f820116820180604052508101906108cd9190612baf565b90505b92915050565b6108de611697565b6040517f05f7ec2100000000000000000000000000000000000000000000000000000000815260c960048201526024810182905273__$62e764fb90da77cece56b4de77dad8e9ad$__906305f7ec21906044015b60006040518083038186803b15801561094a57600080fd5b505af415801561095e573d6000803e3d6000fd5b5050505050565b60006002609754036109b95760405162461bcd60e51b815260206004820152601f60248201527f5265656e7472616e637947756172643a207265656e7472616e742063616c6c006044820152606401610705565b60026097556109c66116fe565b8180421115610a175760405162461bcd60e51b815260206004820152601060248201527f446561646c696e65206e6f74206d6574000000000000000000000000000000006044820152606401610705565b6040517f711cd33000000000000000000000000000000000000000000000000000000000815260c960048201526024810187905260ff861660448201526064810185905273__$62e764fb90da77cece56b4de77dad8e9ad$__9063711cd330906084015b602060405180830381865af4158015610a98573d6000803e3d6000fd5b505050506040513d601f19601f8201168201806040525081019061081e9190612baf565b610ac4611697565b610acc611751565b565b6000600260975403610b225760405162461bcd60e51b815260206004820152601f60248201527f5265656e7472616e637947756172643a207265656e7472616e742063616c6c006044820152606401610705565b6002609755610b2f6116fe565b8180421115610b805760405162461bcd60e51b815260206004820152601060248201527f446561646c696e65206e6f74206d6574000000000000000000000000000000006044820152606401610705565b6040517f041894b000000000000000000000000000000000000000000000000000000000815273__$62e764fb90da77cece56b4de77dad8e9ad$__9063041894b090610a7b9060c9908a908a908a90600401612cce565b610bdf611697565b6040517f858490d300000000000000000000000000000000000000000000000000000000815260c96004820152602481018390526044810182905273__$ae7faf633ebe56adae0bfb03bb6572d07a$__9063858490d39060640160006040518083038186803b158015610c5157600080fd5b505af4158015610c65573d6000803e3d6000fd5b505050505050565b73ffffffffffffffffffffffffffffffffffffffff8116600081815260d36020526040812054909160ff90911690610ca482610d19565b73ffffffffffffffffffffffffffffffffffffffff16146108d05760405162461bcd60e51b815260206004820152601460248201527f546f6b656e20646f6573206e6f742065786973740000000000000000000000006044820152606401610705565b610d0f611697565b610acc60006117ce565b60d05460009060ff831610610d705760405162461bcd60e51b815260206004820152600c60248201527f4f7574206f662072616e676500000000000000000000000000000000000000006044820152606401610705565b60d0805460ff8416908110610d8757610d87612cf9565b60009182526020909120015473ffffffffffffffffffffffffffffffffffffffff1692915050565b610db7611697565b610acc611845565b6000600260975403610e135760405162461bcd60e51b815260206004820152601f60248201527f5265656e7472616e637947756172643a207265656e7472616e742063616c6c006044820152606401610705565b6002609755610e206116fe565b8180421115610e715760405162461bcd60e51b815260206004820152601060248201527f446561646c696e65206e6f74206d6574000000000000000000000000000000006044820152606401610705565b6040517f4540fb7f00000000000000000000000000000000000000000000000000000000815273__$62e764fb90da77cece56b4de77dad8e9ad$__90634540fb7f90610a7b9060c9908a908a908a90600401612cce565b610ed0611697565b6040517fa125d92400000000000000000000000000000000000000000000000000000000815260c960048201526024810182905273__$62e764fb90da77cece56b4de77dad8e9ad$__9063a125d92490604401610932565b6000600260975403610f7c5760405162461bcd60e51b815260206004820152601f60248201527f5265656e7472616e637947756172643a207265656e7472616e742063616c6c006044820152606401610705565b6002609755610f896116fe565b8180421115610fda5760405162461bcd60e51b815260206004820152601060248201527f446561646c696e65206e6f74206d6574000000000000000000000000000000006044820152606401610705565b6040517facf9147800000000000000000000000000000000000000000000000000000000815260c9600482015260ff808916602483015287166044820152606481018690526084810185905273__$62e764fb90da77cece56b4de77dad8e9ad$__9063acf914789060a401602060405180830381865af4158015611062573d6000803e3d6000fd5b505050506040513d601f19601f820116820180604052508101906110869190612baf565b6001609755979650505050505050565b60d05460009060ff8316106110ed5760405162461bcd60e51b815260206004820152601260248201527f496e646578206f7574206f662072616e676500000000000000000000000000006044820152606401610705565b60d2805460ff841690811061110457611104612cf9565b90600052602060002001549050919050565b6040517f39e43af200000000000000000000000000000000000000000000000000000000815260c9600482015260ff8085166024830152831660448201526064810182905260009073__$62e764fb90da77cece56b4de77dad8e9ad$__906339e43af2906084015b602060405180830381865af415801561119b573d6000803e3d6000fd5b505050506040513d601f19601f820116820180604052508101906111bf9190612baf565b949350505050565b600054610100900460ff16158080156111e75750600054600160ff909116105b806112015750303b158015611201575060005460ff166001145b6112735760405162461bcd60e51b815260206004820152602e60248201527f496e697469616c697a61626c653a20636f6e747261637420697320616c72656160448201527f647920696e697469616c697a65640000000000000000000000000000000000006064820152608401610705565b600080547fffffffffffffffffffffffffffffffffffffffffffffffffffffffffffffff0016600117905580156112d157600080547fffffffffffffffffffffffffffffffffffffffffffffffffffffffffffff00ff166101001790555b6112e189898989898989896118a0565b801561134457600080547fffffffffffffffffffffffffffffffffffffffffffffffffffffffffffff00ff169055604051600181527f7f26b83ff96e1f2b6a682f133852f6798a09c465da95921460cefb38474024989060200160405180910390a15b505050505050505050565b611357611697565b6040517fd3a605a500000000000000000000000000000000000000000000000000000000815260c9600482015273__$ae7faf633ebe56adae0bfb03bb6572d07a$__9063d3a605a5906024016105ed565b6040517f1c103df000000000000000000000000000000000000000000000000000000000815260c9600482015260009073__$ae7faf633ebe56adae0bfb03bb6572d07a$__90631c103df09060240161066f565b6040517f98a20a3e00000000000000000000000000000000000000000000000000000000815260c9600482015260009073__$62e764fb90da77cece56b4de77dad8e9ad$__906398a20a3e9060240161066f565b6040517f6972fae800000000000000000000000000000000000000000000000000000000815260009073__$62e764fb90da77cece56b4de77dad8e9ad$__90636972fae89061117e9060c990889088908890600401612d28565b6040517fcbc7f8dd00000000000000000000000000000000000000000000000000000000815260c960048201526024810182905260009073__$62e764fb90da77cece56b4de77dad8e9ad$__9063cbc7f8dd90604401602060405180830381865af415801561151d573d6000803e3d6000fd5b505050506040513d601f19601f820116820180604052508101906108d09190612baf565b6040517f8424905f00000000000000000000000000000000000000000000000000000000815260c960048201526024810182905260609073__$62e764fb90da77cece56b4de77dad8e9ad$__90638424905f90604401600060405180830381865af41580156115b4573d6000803e3d6000fd5b505050506040513d6000823e601f3d9081017fffffffffffffffffffffffffffffffffffffffffffffffffffffffffffffffe01682016040526108d09190810190612c3d565b611602611697565b73ffffffffffffffffffffffffffffffffffffffff811661168b5760405162461bcd60e51b815260206004820152602660248201527f4f776e61626c653a206e6577206f776e657220697320746865207a65726f206160448201527f64647265737300000000000000000000000000000000000000000000000000006064820152608401610705565b611694816117ce565b50565b60335473ffffffffffffffffffffffffffffffffffffffff163314610acc5760405162461bcd60e51b815260206004820181905260248201527f4f776e61626c653a2063616c6c6572206973206e6f7420746865206f776e65726044820152606401610705565b60655460ff1615610acc5760405162461bcd60e51b815260206004820152601060248201527f5061757361626c653a20706175736564000000000000000000000000000000006044820152606401610705565b611759612051565b606580547fffffffffffffffffffffffffffffffffffffffffffffffffffffffffffffff001690557f5db9ee0a495bf2e6ff9c91a7834c1ba4fdd244a5e8aa4e537bd38aeae4b073aa335b60405173ffffffffffffffffffffffffffffffffffffffff909116815260200160405180910390a1565b6033805473ffffffffffffffffffffffffffffffffffffffff8381167fffffffffffffffffffffffff0000000000000000000000000000000000000000831681179093556040519116919082907f8be0079c531659141344cd1fd0a4f28419497f9722a3daafe3b4186f6b6457e090600090a35050565b61184d6116fe565b606580547fffffffffffffffffffffffffffffffffffffffffffffffffffffffffffffff001660011790557f62e78cea01bee320cd4e420270b5ea74000d11b0c9f74754ebdbfc544b05a2586117a43390565b600054610100900460ff1661191d5760405162461bcd60e51b815260206004820152602b60248201527f496e697469616c697a61626c653a20636f6e7472616374206973206e6f74206960448201527f6e697469616c697a696e670000000000000000000000000000000000000000006064820152608401610705565b6119256120a3565b61192d612138565b600188511161197e5760405162461bcd60e51b815260206004820152601960248201527f5f706f6f6c6564546f6b656e732e6c656e677468203c3d2031000000000000006044820152606401610705565b6020885111156119d05760405162461bcd60e51b815260206004820152601960248201527f5f706f6f6c6564546f6b656e732e6c656e677468203e203332000000000000006044820152606401610705565b8651885114611a215760405162461bcd60e51b815260206004820152601f60248201527f5f706f6f6c6564546f6b656e7320646563696d616c73206d69736d61746368006044820152606401610705565b6000875167ffffffffffffffff811115611a3d57611a3d612869565b604051908082528060200260200182016040528015611a66578160200160208202803683370190505b50905060005b89518160ff161015611d765760ff811615611b895760d360008b8360ff1681518110611a9a57611a9a612cf9565b60209081029190910181015173ffffffffffffffffffffffffffffffffffffffff1682528101919091526040016000205460ff16158015611b3d5750898160ff1681518110611aeb57611aeb612cf9565b602002602001015173ffffffffffffffffffffffffffffffffffffffff168a600081518110611b1c57611b1c612cf9565b602002602001015173ffffffffffffffffffffffffffffffffffffffff1614155b611b895760405162461bcd60e51b815260206004820152601060248201527f4475706c696361746520746f6b656e73000000000000000000000000000000006044820152606401610705565b600073ffffffffffffffffffffffffffffffffffffffff168a8260ff1681518110611bb657611bb6612cf9565b602002602001015173ffffffffffffffffffffffffffffffffffffffff1603611c215760405162461bcd60e51b815260206004820152601d60248201527f546865203020616464726573732069736e277420616e204552432d32300000006044820152606401610705565b601260ff16898260ff1681518110611c3b57611c3b612cf9565b602002602001015160ff161115611c945760405162461bcd60e51b815260206004820152601a60248201527f546f6b656e20646563696d616c732065786365656473206d61780000000000006044820152606401610705565b888160ff1681518110611ca957611ca9612cf9565b602002602001015160ff16601260ff16611cc39190612d84565b611cce90600a612eb7565b828260ff1681518110611ce357611ce3612cf9565b6020026020010181815250508060d360008c8460ff1681518110611d0957611d09612cf9565b602002602001015173ffffffffffffffffffffffffffffffffffffffff1673ffffffffffffffffffffffffffffffffffffffff16815260200190815260200160002060006101000a81548160ff021916908360ff1602179055508080611d6e90612ec3565b915050611a6c565b50620f42408510611dc95760405162461bcd60e51b815260206004820152601260248201527f5f612065786365656473206d6178696d756d00000000000000000000000000006044820152606401610705565b6305f5e1008410611e1c5760405162461bcd60e51b815260206004820152601460248201527f5f6665652065786365656473206d6178696d756d0000000000000000000000006044820152606401610705565b6402540be4008310611e705760405162461bcd60e51b815260206004820152601960248201527f5f61646d696e4665652065786365656473206d6178696d756d000000000000006044820152606401610705565b6000611e7b836121bd565b6040517f4cd88b7600000000000000000000000000000000000000000000000000000000815290915073ffffffffffffffffffffffffffffffffffffffff821690634cd88b7690611ed2908b908b90600401612f46565b6020604051808303816000875af1158015611ef1573d6000803e3d6000fd5b505050506040513d601f19601f82011682018060405250810190611f159190612f74565b611f615760405162461bcd60e51b815260206004820152601c60248201527f636f756c64206e6f7420696e6974206c70546f6b656e20636c6f6e65000000006044820152606401610705565b60cf80547fffffffffffffffffffffffff00000000000000000000000000000000000000001673ffffffffffffffffffffffffffffffffffffffff83161790558951611fb49060d09060208d01906124b3565b508151611fc89060d190602085019061253d565b50895167ffffffffffffffff811115611fe357611fe3612869565b60405190808252806020026020018201604052801561200c578160200160208202803683370190505b5080516120219160d29160209091019061253d565b5061202d606487612f91565b60c95561203b606487612f91565b60ca5550505060cd9190915560ce555050505050565b60655460ff16610acc5760405162461bcd60e51b815260206004820152601460248201527f5061757361626c653a206e6f74207061757365640000000000000000000000006044820152606401610705565b600054610100900460ff166121205760405162461bcd60e51b815260206004820152602b60248201527f496e697469616c697a61626c653a20636f6e7472616374206973206e6f74206960448201527f6e697469616c697a696e670000000000000000000000000000000000000000006064820152608401610705565b612128612285565b612130612302565b610acc612388565b600054610100900460ff166121b55760405162461bcd60e51b815260206004820152602b60248201527f496e697469616c697a61626c653a20636f6e7472616374206973206e6f74206960448201527f6e697469616c697a696e670000000000000000000000000000000000000000006064820152608401610705565b610acc61242f565b60006040517f3d602d80600a3d3981f3363d3d373d3d3d363d7300000000000000000000000081528260601b60148201527f5af43d82803e903d91602b57fd5bf3000000000000000000000000000000000060288201526037816000f091505073ffffffffffffffffffffffffffffffffffffffff81166122805760405162461bcd60e51b815260206004820152601660248201527f455243313136373a20637265617465206661696c6564000000000000000000006044820152606401610705565b919050565b600054610100900460ff16610acc5760405162461bcd60e51b815260206004820152602b60248201527f496e697469616c697a61626c653a20636f6e7472616374206973206e6f74206960448201527f6e697469616c697a696e670000000000000000000000000000000000000000006064820152608401610705565b600054610100900460ff1661237f5760405162461bcd60e51b815260206004820152602b60248201527f496e697469616c697a61626c653a20636f6e7472616374206973206e6f74206960448201527f6e697469616c697a696e670000000000000000000000000000000000000000006064820152608401610705565b610acc336117ce565b600054610100900460ff166124055760405162461bcd60e51b815260206004820152602b60248201527f496e697469616c697a61626c653a20636f6e7472616374206973206e6f74206960448201527f6e697469616c697a696e670000000000000000000000000000000000000000006064820152608401610705565b606580547fffffffffffffffffffffffffffffffffffffffffffffffffffffffffffffff00169055565b600054610100900460ff166124ac5760405162461bcd60e51b815260206004820152602b60248201527f496e697469616c697a61626c653a20636f6e7472616374206973206e6f74206960448201527f6e697469616c697a696e670000000000000000000000000000000000000000006064820152608401610705565b6001609755565b82805482825590600052602060002090810192821561252d579160200282015b8281111561252d57825182547fffffffffffffffffffffffff00000000000000000000000000000000000000001673ffffffffffffffffffffffffffffffffffffffff9091161782556020909201916001909101906124d3565b50612539929150612578565b5090565b82805482825590600052602060002090810192821561252d579160200282015b8281111561252d57825182559160200191906001019061255d565b5b808211156125395760008155600101612579565b60008083601f84011261259f57600080fd5b50813567ffffffffffffffff8111156125b757600080fd5b6020830191508360208260051b85010111156125d257600080fd5b9250929050565b600080600080606085870312156125ef57600080fd5b84359350602085013567ffffffffffffffff81111561260d57600080fd5b6126198782880161258d565b9598909750949560400135949350505050565b6020808252825182820181905260009190848201906040850190845b8181101561266457835183529284019291840191600101612648565b50909695505050505050565b803560ff8116811461228057600080fd5b6000806040838503121561269457600080fd5b823591506126a460208401612670565b90509250929050565b6000602082840312156126bf57600080fd5b5035919050565b600080600080608085870312156126dc57600080fd5b843593506126ec60208601612670565b93969395505050506040820135916060013590565b6000806000806060858703121561271757600080fd5b843567ffffffffffffffff81111561272e57600080fd5b61273a8782880161258d565b90989097506020870135966040013595509350505050565b6000806040838503121561276557600080fd5b50508035926020909101359150565b73ffffffffffffffffffffffffffffffffffffffff8116811461169457600080fd5b803561228081612774565b6000602082840312156127b357600080fd5b81356127be81612774565b9392505050565b6000602082840312156127d757600080fd5b6108cd82612670565b600080600080600060a086880312156127f857600080fd5b61280186612670565b945061280f60208701612670565b94979496505050506040830135926060810135926080909101359150565b60008060006060848603121561284257600080fd5b61284b84612670565b925061285960208501612670565b9150604084013590509250925092565b7f4e487b7100000000000000000000000000000000000000000000000000000000600052604160045260246000fd5b604051601f82017fffffffffffffffffffffffffffffffffffffffffffffffffffffffffffffffe016810167ffffffffffffffff811182821017156128df576128df612869565b604052919050565b600067ffffffffffffffff82111561290157612901612869565b5060051b60200190565b600082601f83011261291c57600080fd5b8135602061293161292c836128e7565b612898565b82815260059290921b8401810191818101908684111561295057600080fd5b8286015b8481101561297457803561296781612774565b8352918301918301612954565b509695505050505050565b600082601f83011261299057600080fd5b813560206129a061292c836128e7565b82815260059290921b840181019181810190868411156129bf57600080fd5b8286015b84811015612974576129d481612670565b83529183019183016129c3565b600082601f8301126129f257600080fd5b813567ffffffffffffffff811115612a0c57612a0c612869565b612a3d60207fffffffffffffffffffffffffffffffffffffffffffffffffffffffffffffffe0601f84011601612898565b818152846020838601011115612a5257600080fd5b816020850160208301376000918101602001919091529392505050565b600080600080600080600080610100898b031215612a8c57600080fd5b883567ffffffffffffffff80821115612aa457600080fd5b612ab08c838d0161290b565b995060208b0135915080821115612ac657600080fd5b612ad28c838d0161297f565b985060408b0135915080821115612ae857600080fd5b612af48c838d016129e1565b975060608b0135915080821115612b0a57600080fd5b50612b178b828c016129e1565b9550506080890135935060a0890135925060c08901359150612b3b60e08a01612796565b90509295985092959890939650565b801515811461169457600080fd5b600080600060408486031215612b6d57600080fd5b833567ffffffffffffffff811115612b8457600080fd5b612b908682870161258d565b9094509250506020840135612ba481612b4a565b809150509250925092565b600060208284031215612bc157600080fd5b5051919050565b81835260007f07ffffffffffffffffffffffffffffffffffffffffffffffffffffffffffffff831115612bfa57600080fd5b8260051b80836020870137939093016020019392505050565b848152836020820152606060408201526000612c33606083018486612bc8565b9695505050505050565b60006020808385031215612c5057600080fd5b825167ffffffffffffffff811115612c6757600080fd5b8301601f81018513612c7857600080fd5b8051612c8661292c826128e7565b81815260059190911b82018301908381019087831115612ca557600080fd5b928401925b82841015612cc357835182529284019290840190612caa565b979650505050505050565b848152606060208201526000612ce8606083018587612bc8565b905082604083015295945050505050565b7f4e487b7100000000000000000000000000000000000000000000000000000000600052603260045260246000fd5b848152606060208201526000612d42606083018587612bc8565b9050821515604083015295945050505050565b7f4e487b7100000000000000000000000000000000000000000000000000000000600052601160045260246000fd5b818103818111156108d0576108d0612d55565b600181815b80851115612df057817fffffffffffffffffffffffffffffffffffffffffffffffffffffffffffffffff04821115612dd657612dd6612d55565b80851615612de357918102915b93841c9390800290612d9c565b509250929050565b600082612e07575060016108d0565b81612e14575060006108d0565b8160018114612e2a5760028114612e3457612e50565b60019150506108d0565b60ff841115612e4557612e45612d55565b50506001821b6108d0565b5060208310610133831016604e8410600b8410161715612e73575081810a6108d0565b612e7d8383612d97565b807fffffffffffffffffffffffffffffffffffffffffffffffffffffffffffffffff04821115612eaf57612eaf612d55565b029392505050565b60006108cd8383612df8565b600060ff821660ff8103612ed957612ed9612d55565b60010192915050565b6000815180845260005b81811015612f0857602081850181015186830182015201612eec565b5060006020828601015260207fffffffffffffffffffffffffffffffffffffffffffffffffffffffffffffffe0601f83011685010191505092915050565b604081526000612f596040830185612ee2565b8281036020840152612f6b8185612ee2565b95945050505050565b600060208284031215612f8657600080fd5b81516127be81612b4a565b80820281158282048414176108d0576108d0612d5556fea2646970667358221220d17bf4b8931a533607e3294e3a4971a80ffd5363c9d61e6a188595e8c121ffa364736f6c63430008110033",
  "libraries": {
    "SwapUtilsV2": "0x4a5208f83a17e030a18830521e4064e80728c4fc",
    "AmplificationUtilsV2": "0xFdA5D2ad8b6d3884AbB799DA66f57175E8706941"
  },
  "devdoc": {
    "details": "Most of the logic is stored as a library `SwapUtils` for the sake of reducing contract's deployment size.",
    "kind": "dev",
    "methods": {
      "addLiquidity(uint256[],uint256,uint256)": {
        "params": {
          "amounts": "the amounts of each token to add, in their native precision",
          "deadline": "latest timestamp to accept this transaction",
          "minToMint": "the minimum LP tokens adding this amount of liquidity should mint, otherwise revert. Handy for front-running mitigation"
        },
        "returns": {
          "_0": "amount of LP token user minted and received"
        }
      },
      "calculateRemoveLiquidity(uint256)": {
        "params": {
          "amount": "the amount of LP tokens that would be burned on withdrawal"
        },
        "returns": {
          "_0": "array of token balances that the user will receive"
        }
      },
      "calculateRemoveLiquidityOneToken(uint256,uint8)": {
        "params": {
          "tokenAmount": "the amount of LP token to burn",
          "tokenIndex": "index of which token will be withdrawn"
        },
        "returns": {
          "availableTokenAmount": "calculated amount of underlying token available to withdraw"
        }
      },
      "calculateSwap(uint8,uint8,uint256)": {
        "params": {
          "dx": "the amount of tokens the user wants to sell. If the token charges a fee on transfers, use the amount that gets transferred after the fee.",
          "tokenIndexFrom": "the token the user wants to sell",
          "tokenIndexTo": "the token the user wants to buy"
        },
        "returns": {
          "_0": "amount of tokens the user will receive"
        }
      },
      "calculateTokenAmount(uint256[],bool)": {
        "details": "This shouldn't be used outside frontends for user estimates.",
        "params": {
          "amounts": "an array of token amounts to deposit or withdrawal, corresponding to pooledTokens. The amount should be in each pooled token's native precision. If a token charges a fee on transfers, use the amount that gets transferred after the fee.",
          "deposit": "whether this is a deposit or a withdrawal"
        },
        "returns": {
          "_0": "token amount the user will receive"
        }
      },
      "getA()": {
        "details": "See the StableSwap paper for details",
        "returns": {
          "_0": "A parameter"
        }
      },
      "getAPrecise()": {
        "details": "See the StableSwap paper for details",
        "returns": {
          "_0": "A parameter in its raw precision form"
        }
      },
      "getAdminBalance(uint256)": {
        "params": {
          "index": "Index of the pooled token"
        },
        "returns": {
          "_0": "admin's token balance in the token's precision"
        }
      },
      "getToken(uint8)": {
        "params": {
          "index": "the index of the token"
        },
        "returns": {
          "_0": "address of the token at given index"
        }
      },
      "getTokenBalance(uint8)": {
        "params": {
          "index": "the index of the token"
        },
        "returns": {
          "_0": "current balance of the pooled token at given index with token's native precision"
        }
      },
      "getTokenIndex(address)": {
        "params": {
          "tokenAddress": "address of the token"
        },
        "returns": {
          "_0": "the index of the given token address"
        }
      },
      "getVirtualPrice()": {
        "returns": {
          "_0": "the virtual price, scaled to the POOL_PRECISION_DECIMALS"
        }
      },
      "initialize(address[],uint8[],string,string,uint256,uint256,uint256,address)": {
        "params": {
          "_a": "the amplification coefficient * n * (n - 1). See the StableSwap paper for details",
          "_adminFee": "default adminFee to be initialized with",
          "_fee": "default swap fee to be initialized with",
          "_pooledTokens": "an array of ERC20s this pool will accept",
          "decimals": "the decimals to use for each pooled token, eg 8 for WBTC. Cannot be larger than POOL_PRECISION_DECIMALS",
          "lpTokenName": "the long-form name of the token to be deployed",
          "lpTokenSymbol": "the short symbol for the token to be deployed",
          "lpTokenTargetAddress": "the address of an existing LPToken contract to use as a target"
        }
      },
      "owner()": {
        "details": "Returns the address of the current owner."
      },
      "paused()": {
        "details": "Returns true if the contract is paused, and false otherwise."
      },
      "rampA(uint256,uint256)": {
        "params": {
          "futureA": "the new A to ramp towards",
          "futureTime": "timestamp when the new A should be reached"
        }
      },
      "removeLiquidity(uint256,uint256[],uint256)": {
        "details": "Liquidity can always be removed, even when the pool is paused.",
        "params": {
          "amount": "the amount of LP tokens to burn",
          "deadline": "latest timestamp to accept this transaction",
          "minAmounts": "the minimum amounts of each token in the pool        acceptable for this burn. Useful as a front-running mitigation"
        },
        "returns": {
          "_0": "amounts of tokens user received"
        }
      },
      "removeLiquidityImbalance(uint256[],uint256,uint256)": {
        "params": {
          "amounts": "how much of each token to withdraw",
          "deadline": "latest timestamp to accept this transaction",
          "maxBurnAmount": "the max LP token provider is willing to pay to remove liquidity. Useful as a front-running mitigation."
        },
        "returns": {
          "_0": "amount of LP tokens burned"
        }
      },
      "removeLiquidityOneToken(uint256,uint8,uint256,uint256)": {
        "params": {
          "deadline": "latest timestamp to accept this transaction",
          "minAmount": "the minimum amount to withdraw, otherwise revert",
          "tokenAmount": "the amount of the token you want to receive",
          "tokenIndex": "the index of the token you want to receive"
        },
        "returns": {
          "_0": "amount of chosen token user received"
        }
      },
      "renounceOwnership()": {
        "details": "Leaves the contract without owner. It will not be possible to call `onlyOwner` functions anymore. Can only be called by the current owner. NOTE: Renouncing ownership will leave the contract without an owner, thereby removing any functionality that is only available to the owner."
      },
      "setAdminFee(uint256)": {
        "params": {
          "newAdminFee": "new admin fee to be applied on future transactions"
        }
      },
      "setSwapFee(uint256)": {
        "params": {
          "newSwapFee": "new swap fee to be applied on future transactions"
        }
      },
      "swap(uint8,uint8,uint256,uint256,uint256)": {
        "params": {
          "deadline": "latest timestamp to accept this transaction",
          "dx": "the amount of tokens the user wants to swap from",
          "minDy": "the min amount the user would like to receive, or revert.",
          "tokenIndexFrom": "the token the user wants to swap from",
          "tokenIndexTo": "the token the user wants to swap to"
        }
      },
      "transferOwnership(address)": {
        "details": "Transfers ownership of the contract to a new account (`newOwner`). Can only be called by the current owner."
      }
    },
    "title": "Swap - A StableSwap implementation in solidity.",
    "version": 1
  },
  "userdoc": {
    "kind": "user",
    "methods": {
      "addLiquidity(uint256[],uint256,uint256)": {
        "notice": "Add liquidity to the pool with the given amounts of tokens"
      },
      "calculateRemoveLiquidity(uint256)": {
        "notice": "A simple method to calculate amount of each underlying tokens that is returned upon burning given amount of LP tokens"
      },
      "calculateRemoveLiquidityOneToken(uint256,uint8)": {
        "notice": "Calculate the amount of underlying token available to withdraw when withdrawing via only single token"
      },
      "calculateSwap(uint8,uint8,uint256)": {
        "notice": "Calculate amount of tokens you receive on swap"
      },
      "calculateTokenAmount(uint256[],bool)": {
        "notice": "A simple method to calculate prices from deposits or withdrawals, excluding fees but including slippage. This is helpful as an input into the various \"min\" parameters on calls to fight front-running"
      },
      "getA()": {
        "notice": "Return A, the amplification coefficient * n * (n - 1)"
      },
      "getAPrecise()": {
        "notice": "Return A in its raw precision form"
      },
      "getAdminBalance(uint256)": {
        "notice": "This function reads the accumulated amount of admin fees of the token with given index"
      },
      "getToken(uint8)": {
        "notice": "Return address of the pooled token at given index. Reverts if tokenIndex is out of range."
      },
      "getTokenBalance(uint8)": {
        "notice": "Return current balance of the pooled token at given index"
      },
      "getTokenIndex(address)": {
        "notice": "Return the index of the given token address. Reverts if no matching token is found."
      },
      "getVirtualPrice()": {
        "notice": "Get the virtual price, to help calculate profit"
      },
      "initialize(address[],uint8[],string,string,uint256,uint256,uint256,address)": {
        "notice": "Initializes this Swap contract with the given parameters. This will also clone a LPToken contract that represents users' LP positions. The owner of LPToken will be this contract - which means only this contract is allowed to mint/burn tokens."
      },
      "pause()": {
        "notice": "Pause the contract. Revert if already paused."
      },
      "rampA(uint256,uint256)": {
        "notice": "Start ramping up or down A parameter towards given futureA and futureTime Checks if the change is too rapid, and commits the new A value only when it falls under the limit range."
      },
      "removeLiquidity(uint256,uint256[],uint256)": {
        "notice": "Burn LP tokens to remove liquidity from the pool. Withdraw fee that decays linearly over period of 4 weeks since last deposit will apply."
      },
      "removeLiquidityImbalance(uint256[],uint256,uint256)": {
        "notice": "Remove liquidity from the pool, weighted differently than the pool's current balances. Withdraw fee that decays linearly over period of 4 weeks since last deposit will apply."
      },
      "removeLiquidityOneToken(uint256,uint8,uint256,uint256)": {
        "notice": "Remove liquidity from the pool all in one token. Withdraw fee that decays linearly over period of 4 weeks since last deposit will apply."
      },
      "setAdminFee(uint256)": {
        "notice": "Update the admin fee. Admin fee takes portion of the swap fee."
      },
      "setSwapFee(uint256)": {
        "notice": "Update the swap fee to be applied on swaps"
      },
      "stopRampA()": {
        "notice": "Stop ramping A immediately. Reverts if ramp A is already stopped."
      },
      "swap(uint8,uint8,uint256,uint256,uint256)": {
        "notice": "Swap two tokens using this pool"
      },
      "unpause()": {
        "notice": "Unpause the contract. Revert if already unpaused."
      },
      "withdrawAdminFees()": {
        "notice": "Withdraw all admin fees to the contract owner"
      }
    },
    "notice": "This contract is responsible for custody of closely pegged assets (eg. group of stablecoins) and automatic market making system. Users become an LP (Liquidity Provider) by depositing their tokens in desired ratios for an exchange of the pool token that represents their share of the pool. Users can burn pool tokens and withdraw their share of token(s). Each time a swap between the pooled tokens happens, a set fee incurs which effectively gets distributed to the LPs. In case of emergencies, admin can pause additional deposits, swaps, or single-asset withdraws - which stops the ratio of the tokens in the pool from changing. Users can always withdraw their tokens via multi-asset withdraws.",
    "version": 1
  },
  "storageLayout": {
    "storage": [
      {
        "astId": 1654,
        "contract": "contracts/SwapV2.sol:SwapV2",
        "label": "_initialized",
        "offset": 0,
        "slot": "0",
        "type": "t_uint8"
      },
      {
        "astId": 1657,
        "contract": "contracts/SwapV2.sol:SwapV2",
        "label": "_initializing",
        "offset": 1,
        "slot": "0",
        "type": "t_bool"
      },
      {
        "astId": 3046,
        "contract": "contracts/SwapV2.sol:SwapV2",
        "label": "__gap",
        "offset": 0,
        "slot": "1",
        "type": "t_array(t_uint256)50_storage"
      },
      {
        "astId": 1526,
        "contract": "contracts/SwapV2.sol:SwapV2",
        "label": "_owner",
        "offset": 0,
        "slot": "51",
        "type": "t_address"
      },
      {
        "astId": 1646,
        "contract": "contracts/SwapV2.sol:SwapV2",
        "label": "__gap",
        "offset": 0,
        "slot": "52",
        "type": "t_array(t_uint256)49_storage"
      },
      {
        "astId": 1819,
        "contract": "contracts/SwapV2.sol:SwapV2",
        "label": "_paused",
        "offset": 0,
        "slot": "101",
        "type": "t_bool"
      },
      {
        "astId": 1924,
        "contract": "contracts/SwapV2.sol:SwapV2",
        "label": "__gap",
        "offset": 0,
        "slot": "102",
        "type": "t_array(t_uint256)49_storage"
      },
      {
        "astId": 1939,
        "contract": "contracts/SwapV2.sol:SwapV2",
        "label": "_status",
        "offset": 0,
        "slot": "151",
        "type": "t_uint256"
      },
      {
        "astId": 1983,
        "contract": "contracts/SwapV2.sol:SwapV2",
        "label": "__gap",
        "offset": 0,
        "slot": "152",
        "type": "t_array(t_uint256)49_storage"
      },
      {
        "astId": 6670,
        "contract": "contracts/SwapV2.sol:SwapV2",
        "label": "swapStorage",
        "offset": 0,
        "slot": "201",
        "type": "t_struct(Swap)3865_storage"
      },
      {
        "astId": 6674,
        "contract": "contracts/SwapV2.sol:SwapV2",
        "label": "tokenIndexes",
        "offset": 0,
        "slot": "211",
        "type": "t_mapping(t_address,t_uint8)"
      }
    ],
    "types": {
      "t_address": {
        "encoding": "inplace",
        "label": "address",
        "numberOfBytes": "20"
      },
      "t_array(t_contract(IERC20)856)dyn_storage": {
        "base": "t_contract(IERC20)856",
        "encoding": "dynamic_array",
        "label": "contract IERC20[]",
        "numberOfBytes": "32"
      },
      "t_array(t_uint256)49_storage": {
        "base": "t_uint256",
        "encoding": "inplace",
        "label": "uint256[49]",
        "numberOfBytes": "1568"
      },
      "t_array(t_uint256)50_storage": {
        "base": "t_uint256",
        "encoding": "inplace",
        "label": "uint256[50]",
        "numberOfBytes": "1600"
      },
      "t_array(t_uint256)dyn_storage": {
        "base": "t_uint256",
        "encoding": "dynamic_array",
        "label": "uint256[]",
        "numberOfBytes": "32"
      },
      "t_bool": {
        "encoding": "inplace",
        "label": "bool",
        "numberOfBytes": "1"
      },
      "t_contract(IERC20)856": {
        "encoding": "inplace",
        "label": "contract IERC20",
        "numberOfBytes": "20"
      },
      "t_contract(LPTokenV2)3463": {
        "encoding": "inplace",
        "label": "contract LPTokenV2",
        "numberOfBytes": "20"
      },
      "t_mapping(t_address,t_uint8)": {
        "encoding": "mapping",
        "key": "t_address",
        "label": "mapping(address => uint8)",
        "numberOfBytes": "32",
        "value": "t_uint8"
      },
      "t_struct(Swap)3865_storage": {
        "encoding": "inplace",
        "label": "struct SwapUtilsV2.Swap",
        "members": [
          {
            "astId": 3841,
            "contract": "contracts/SwapV2.sol:SwapV2",
            "label": "initialA",
            "offset": 0,
            "slot": "0",
            "type": "t_uint256"
          },
          {
            "astId": 3843,
            "contract": "contracts/SwapV2.sol:SwapV2",
            "label": "futureA",
            "offset": 0,
            "slot": "1",
            "type": "t_uint256"
          },
          {
            "astId": 3845,
            "contract": "contracts/SwapV2.sol:SwapV2",
            "label": "initialATime",
            "offset": 0,
            "slot": "2",
            "type": "t_uint256"
          },
          {
            "astId": 3847,
            "contract": "contracts/SwapV2.sol:SwapV2",
            "label": "futureATime",
            "offset": 0,
            "slot": "3",
            "type": "t_uint256"
          },
          {
            "astId": 3849,
            "contract": "contracts/SwapV2.sol:SwapV2",
            "label": "swapFee",
            "offset": 0,
            "slot": "4",
            "type": "t_uint256"
          },
          {
            "astId": 3851,
            "contract": "contracts/SwapV2.sol:SwapV2",
            "label": "adminFee",
            "offset": 0,
            "slot": "5",
            "type": "t_uint256"
          },
          {
            "astId": 3854,
            "contract": "contracts/SwapV2.sol:SwapV2",
            "label": "lpToken",
            "offset": 0,
            "slot": "6",
            "type": "t_contract(LPTokenV2)3463"
          },
          {
            "astId": 3858,
            "contract": "contracts/SwapV2.sol:SwapV2",
            "label": "pooledTokens",
            "offset": 0,
            "slot": "7",
            "type": "t_array(t_contract(IERC20)856)dyn_storage"
          },
          {
            "astId": 3861,
            "contract": "contracts/SwapV2.sol:SwapV2",
            "label": "tokenPrecisionMultipliers",
            "offset": 0,
            "slot": "8",
            "type": "t_array(t_uint256)dyn_storage"
          },
          {
            "astId": 3864,
            "contract": "contracts/SwapV2.sol:SwapV2",
            "label": "balances",
            "offset": 0,
            "slot": "9",
            "type": "t_array(t_uint256)dyn_storage"
          }
        ],
        "numberOfBytes": "320"
      },
      "t_uint256": {
        "encoding": "inplace",
        "label": "uint256",
        "numberOfBytes": "32"
      },
      "t_uint8": {
        "encoding": "inplace",
        "label": "uint8",
        "numberOfBytes": "1"
      }
    }
  }
}