{
  "address": "0x9e13e7Ca658e235fEeca17Dc174c33F604CFb206",
  "abi": [
    {
      "inputs": [
        {
          "components": [
            {
              "internalType": "address",
              "name": "target",
              "type": "address"
            },
            {
              "internalType": "bytes",
              "name": "callData",
              "type": "bytes"
            }
          ],
          "internalType": "struct MulticallOVM.Call[]",
          "name": "calls",
          "type": "tuple[]"
        }
      ],
      "name": "aggregate",
      "outputs": [
        {
          "internalType": "uint256",
          "name": "blockNumber",
          "type": "uint256"
        },
        {
          "internalType": "bytes[]",
          "name": "returnData",
          "type": "bytes[]"
        }
      ],
      "stateMutability": "nonpayable",
      "type": "function"
    },
    {
      "inputs": [],
      "name": "getCurrentBlockGasLimit",
      "outputs": [
        {
          "internalType": "uint256",
          "name": "gaslimit",
          "type": "uint256"
        }
      ],
      "stateMutability": "view",
      "type": "function"
    },
    {
      "inputs": [],
      "name": "getCurrentBlockTimestamp",
      "outputs": [
        {
          "internalType": "uint256",
          "name": "timestamp",
          "type": "uint256"
        }
      ],
      "stateMutability": "view",
      "type": "function"
    }
  ],
  "transactionHash": "0xc0babd3f8989959422b35b10cbdf3ad6197fbf7f70ab7255b9f9f5cb1dfee96e",
  "args": [],
  "solcInputHash": "63d3c2f5d48eddb3c75248bb7ad9d426",
  "bytecode": "0x60806040523480156100195760008061001661001f565b50505b5061008a565b632a2a7adb598160e01b8152600481016020815285602082015260005b8681101561005757808601518282016040015260200161003c565b506020828760640184336000905af158600e01573d6000803e3d6000fd5b3d6001141558600a015760016000f35b505050565b610705806100996000396000f3fe608060405234801561001957600080610016610202565b50505b506004361061004a5760003560e01c80630f28c97d14610058578063252dba421461007657806386d516e814610097575b600080610055610202565b50505b61006061009f565b60405161006d9190610619565b60405180910390f35b6100896100843660046104e8565b6100af565b60405161006d929190610622565b6100606101f7565b60005a6100aa61026d565b905090565b600060605a6100bc6102c7565b915082516001600160401b03811180156100de576000806100db610202565b50505b5060405190808252806020026020018201604052801561011257816020015b60608152602001906001900390816100fd5790505b50905060005b83518110156101f1576000606085838151811061013157fe5b6020026020010151516001600160a01b031686848151811061014f57fe5b60200260200101516020015160405161016891906105fd565b6000604051808303816000865a61017d61030d565b5050505050509150503d80600081146101b2576040513d603f01601f191681016040523d815291503d6000602084013e6101b7565b606091505b5091509150816101cf576000806101cc610202565b50505b808484815181106101dc57fe5b60209081029190910101525050600101610118565b50915091565b60005a6100aa6103fa565b632a2a7adb598160e01b8152600481016020815285602082015260005b8681101561023a57808601518282016040015260200161021f565b506020828760640184336000905af158600e01573d6000803e3d6000fd5b3d6001141558600a015760016000f35b505050565b63bdbf8c36598160e01b8152602081600483336000905af158600e01573d6000803e3d6000fd5b3d6001141558600a015760016000f35b8051935060005b60408110156102c2576000828201526020016102ab565b505050565b635a98c361598160e01b8152602081600483336000905af158600e01573d6000803e3d6000fd5b3d6001141558600a015760016000f35b805160008252935060206102ab565b6385979f76598160e01b8152610340565b808083111561032a5750815b92915050565b808083101561032a575090919050565b836004820152846024820152606060448201528760648201526084810160005b89811015610378578089015182820152602001610360565b506060828a60a40184336000905af158600e01573d6000803e3d6000fd5b3d6001141558600a015760016000f35b815160408301513d6000853e8c8c82606087013350600060045af150596103cd8e3d610330565b8d016103d9818761031e565b5b828110156103ee57600081526020016103da565b50929d50505050505050565b6320160f3a598160e01b8152602081600483336000905af158600e01573d6000803e3d6000fd5b3d6001141558600a015760016000f35b805160008252935060206102ab565b80356001600160a01b038116811461032a5760008061045d610202565b505092915050565b600082601f83011261047e57808161047b610202565b50505b81356001600160401b0381111561049c578182610499610202565b50505b6104af601f8201601f19166020016106a2565b91508082528360208285010111156104cf576000806104cc610202565b50505b8060208401602084013760009082016020015292915050565b60006020808385031215610503578182610500610202565b50505b82356001600160401b038082111561052257838461051f610202565b50505b818501915085601f83011261053e57838461053b610202565b50505b813581811115610555578485610552610202565b50505b61056284858302016106a2565b81815284810190848601875b848110156105ee5781358701604080601f19838f03011215610597578a8b610594610202565b50505b6105a0816106a2565b6105ac8e8c8501610440565b81529082013590888211156105c8578b8c6105c5610202565b50505b6105d68e8c84860101610465565b818c015286525050928701929087019060010161056e565b50909998505050505050505050565b6000825161060f8184602087016106d5565b9190910192915050565b90815260200190565b600060408201848352602060408185015281855180845260608601915060608382028701019350828701855b8281101561069457878603605f190184528151805180885261067581888a018985016106d5565b601f01601f19169690960185019550928401929084019060010161064e565b509398975050505050505050565b600060405190508181016001600160401b03811182821017156106cd576000806106ca610202565b50505b604052919050565b60005b838110156106f05780820151838201526020016106d8565b838111156106ff576000848401525b5050505056",
  "deployedBytecode": "0x608060405234801561001957600080610016610202565b50505b506004361061004a5760003560e01c80630f28c97d14610058578063252dba421461007657806386d516e814610097575b600080610055610202565b50505b61006061009f565b60405161006d9190610619565b60405180910390f35b6100896100843660046104e8565b6100af565b60405161006d929190610622565b6100606101f7565b60005a6100aa61026d565b905090565b600060605a6100bc6102c7565b915082516001600160401b03811180156100de576000806100db610202565b50505b5060405190808252806020026020018201604052801561011257816020015b60608152602001906001900390816100fd5790505b50905060005b83518110156101f1576000606085838151811061013157fe5b6020026020010151516001600160a01b031686848151811061014f57fe5b60200260200101516020015160405161016891906105fd565b6000604051808303816000865a61017d61030d565b5050505050509150503d80600081146101b2576040513d603f01601f191681016040523d815291503d6000602084013e6101b7565b606091505b5091509150816101cf576000806101cc610202565b50505b808484815181106101dc57fe5b60209081029190910101525050600101610118565b50915091565b60005a6100aa6103fa565b632a2a7adb598160e01b8152600481016020815285602082015260005b8681101561023a57808601518282016040015260200161021f565b506020828760640184336000905af158601d01573d60011458600c01573d6000803e3d621234565260ea61109c52505050565b63bdbf8c36598160e01b8152602081600483336000905af158601d01573d60011458600c01573d6000803e3d621234565260ea61109c528051935060005b60408110156102c2576000828201526020016102ab565b505050565b635a98c361598160e01b8152602081600483336000905af158601d01573d60011458600c01573d6000803e3d621234565260ea61109c52805160008252935060206102ab565b6385979f76598160e01b8152610340565b808083111561032a5750815b92915050565b808083101561032a575090919050565b836004820152846024820152606060448201528760648201526084810160005b89811015610378578089015182820152602001610360565b506060828a60a40184336000905af158601d01573d60011458600c01573d6000803e3d621234565260ea61109c52815160408301513d6000853e8c8c82606087013350600060045af150596103cd8e3d610330565b8d016103d9818761031e565b5b828110156103ee57600081526020016103da565b50929d50505050505050565b6320160f3a598160e01b8152602081600483336000905af158601d01573d60011458600c01573d6000803e3d621234565260ea61109c52805160008252935060206102ab565b80356001600160a01b038116811461032a5760008061045d610202565b505092915050565b600082601f83011261047e57808161047b610202565b50505b81356001600160401b0381111561049c578182610499610202565b50505b6104af601f8201601f19166020016106a2565b91508082528360208285010111156104cf576000806104cc610202565b50505b8060208401602084013760009082016020015292915050565b60006020808385031215610503578182610500610202565b50505b82356001600160401b038082111561052257838461051f610202565b50505b818501915085601f83011261053e57838461053b610202565b50505b813581811115610555578485610552610202565b50505b61056284858302016106a2565b81815284810190848601875b848110156105ee5781358701604080601f19838f03011215610597578a8b610594610202565b50505b6105a0816106a2565b6105ac8e8c8501610440565b81529082013590888211156105c8578b8c6105c5610202565b50505b6105d68e8c84860101610465565b818c015286525050928701929087019060010161056e565b50909998505050505050505050565b6000825161060f8184602087016106d5565b9190910192915050565b90815260200190565b600060408201848352602060408185015281855180845260608601915060608382028701019350828701855b8281101561069457878603605f190184528151805180885261067581888a018985016106d5565b601f01601f19169690960185019550928401929084019060010161064e565b509398975050505050505050565b600060405190508181016001600160401b03811182821017156106cd576000806106ca610202565b50505b604052919050565b60005b838110156106f05780820151838201526020016106d8565b838111156106ff576000848401525b5050505056",
  "devdoc": {
    "author": "Michael Elliot <mike@makerdao.com>Joshua Levine <joshua@makerdao.com>Nick Johnson <arachnid@notdot.net>",
    "kind": "dev",
    "methods": {},
    "title": "Multicall - Aggregate results from multiple read-only function calls",
    "version": 1
  },
  "userdoc": {
    "kind": "user",
    "methods": {},
    "version": 1
  },
  "storageLayout": {
    "storage": [],
    "types": null
  }
}