{
  "address": "0xF4cd157e54c7B658d7A4995d84372C3dc79D1755",
  "abi": [
    {
      "anonymous": false,
      "inputs": [
        {
          "indexed": true,
          "internalType": "address",
          "name": "provider",
          "type": "address"
        },
        {
          "indexed": false,
          "internalType": "uint256[]",
          "name": "tokenAmounts",
          "type": "uint256[]"
        },
        {
          "indexed": false,
          "internalType": "uint256[]",
          "name": "fees",
          "type": "uint256[]"
        },
        {
          "indexed": false,
          "internalType": "uint256",
          "name": "invariant",
          "type": "uint256"
        },
        {
          "indexed": false,
          "internalType": "uint256",
          "name": "lpTokenSupply",
          "type": "uint256"
        }
      ],
      "name": "AddLiquidity",
      "type": "event"
    },
    {
      "anonymous": false,
      "inputs": [
        {
          "indexed": false,
          "internalType": "uint256",
          "name": "newAdminFee",
          "type": "uint256"
        }
      ],
      "name": "NewAdminFee",
      "type": "event"
    },
    {
      "anonymous": false,
      "inputs": [
        {
          "indexed": false,
          "internalType": "uint256",
          "name": "newSwapFee",
          "type": "uint256"
        }
      ],
      "name": "NewSwapFee",
      "type": "event"
    },
    {
      "anonymous": false,
      "inputs": [
        {
          "indexed": false,
          "internalType": "uint256",
          "name": "newWithdrawFee",
          "type": "uint256"
        }
      ],
      "name": "NewWithdrawFee",
      "type": "event"
    },
    {
      "anonymous": false,
      "inputs": [
        {
          "indexed": true,
          "internalType": "address",
          "name": "previousOwner",
          "type": "address"
        },
        {
          "indexed": true,
          "internalType": "address",
          "name": "newOwner",
          "type": "address"
        }
      ],
      "name": "OwnershipTransferred",
      "type": "event"
    },
    {
      "anonymous": false,
      "inputs": [
        {
          "indexed": false,
          "internalType": "address",
          "name": "account",
          "type": "address"
        }
      ],
      "name": "Paused",
      "type": "event"
    },
    {
      "anonymous": false,
      "inputs": [
        {
          "indexed": false,
          "internalType": "uint256",
          "name": "oldA",
          "type": "uint256"
        },
        {
          "indexed": false,
          "internalType": "uint256",
          "name": "newA",
          "type": "uint256"
        },
        {
          "indexed": false,
          "internalType": "uint256",
          "name": "initialTime",
          "type": "uint256"
        },
        {
          "indexed": false,
          "internalType": "uint256",
          "name": "futureTime",
          "type": "uint256"
        }
      ],
      "name": "RampA",
      "type": "event"
    },
    {
      "anonymous": false,
      "inputs": [
        {
          "indexed": true,
          "internalType": "address",
          "name": "provider",
          "type": "address"
        },
        {
          "indexed": false,
          "internalType": "uint256[]",
          "name": "tokenAmounts",
          "type": "uint256[]"
        },
        {
          "indexed": false,
          "internalType": "uint256",
          "name": "lpTokenSupply",
          "type": "uint256"
        }
      ],
      "name": "RemoveLiquidity",
      "type": "event"
    },
    {
      "anonymous": false,
      "inputs": [
        {
          "indexed": true,
          "internalType": "address",
          "name": "provider",
          "type": "address"
        },
        {
          "indexed": false,
          "internalType": "uint256[]",
          "name": "tokenAmounts",
          "type": "uint256[]"
        },
        {
          "indexed": false,
          "internalType": "uint256[]",
          "name": "fees",
          "type": "uint256[]"
        },
        {
          "indexed": false,
          "internalType": "uint256",
          "name": "invariant",
          "type": "uint256"
        },
        {
          "indexed": false,
          "internalType": "uint256",
          "name": "lpTokenSupply",
          "type": "uint256"
        }
      ],
      "name": "RemoveLiquidityImbalance",
      "type": "event"
    },
    {
      "anonymous": false,
      "inputs": [
        {
          "indexed": true,
          "internalType": "address",
          "name": "provider",
          "type": "address"
        },
        {
          "indexed": false,
          "internalType": "uint256",
          "name": "lpTokenAmount",
          "type": "uint256"
        },
        {
          "indexed": false,
          "internalType": "uint256",
          "name": "lpTokenSupply",
          "type": "uint256"
        },
        {
          "indexed": false,
          "internalType": "uint256",
          "name": "boughtId",
          "type": "uint256"
        },
        {
          "indexed": false,
          "internalType": "uint256",
          "name": "tokensBought",
          "type": "uint256"
        }
      ],
      "name": "RemoveLiquidityOne",
      "type": "event"
    },
    {
      "anonymous": false,
      "inputs": [
        {
          "indexed": false,
          "internalType": "uint256",
          "name": "currentA",
          "type": "uint256"
        },
        {
          "indexed": false,
          "internalType": "uint256",
          "name": "time",
          "type": "uint256"
        }
      ],
      "name": "StopRampA",
      "type": "event"
    },
    {
      "anonymous": false,
      "inputs": [
        {
          "indexed": true,
          "internalType": "address",
          "name": "buyer",
          "type": "address"
        },
        {
          "indexed": false,
          "internalType": "uint256",
          "name": "tokensSold",
          "type": "uint256"
        },
        {
          "indexed": false,
          "internalType": "uint256",
          "name": "tokensBought",
          "type": "uint256"
        },
        {
          "indexed": false,
          "internalType": "uint128",
          "name": "soldId",
          "type": "uint128"
        },
        {
          "indexed": false,
          "internalType": "uint128",
          "name": "boughtId",
          "type": "uint128"
        }
      ],
      "name": "TokenSwap",
      "type": "event"
    },
    {
      "anonymous": false,
      "inputs": [
        {
          "indexed": false,
          "internalType": "address",
          "name": "account",
          "type": "address"
        }
      ],
      "name": "Unpaused",
      "type": "event"
    },
    {
      "inputs": [
        {
          "internalType": "uint256[]",
          "name": "amounts",
          "type": "uint256[]"
        },
        {
          "internalType": "uint256",
          "name": "minToMint",
          "type": "uint256"
        },
        {
          "internalType": "uint256",
          "name": "deadline",
          "type": "uint256"
        }
      ],
      "name": "addLiquidity",
      "outputs": [
        {
          "internalType": "uint256",
          "name": "",
          "type": "uint256"
        }
      ],
      "stateMutability": "nonpayable",
      "type": "function"
    },
    {
      "inputs": [
        {
          "internalType": "address",
          "name": "user",
          "type": "address"
        }
      ],
      "name": "calculateCurrentWithdrawFee",
      "outputs": [
        {
          "internalType": "uint256",
          "name": "",
          "type": "uint256"
        }
      ],
      "stateMutability": "view",
      "type": "function"
    },
    {
      "inputs": [
        {
          "internalType": "address",
          "name": "account",
          "type": "address"
        },
        {
          "internalType": "uint256",
          "name": "amount",
          "type": "uint256"
        }
      ],
      "name": "calculateRemoveLiquidity",
      "outputs": [
        {
          "internalType": "uint256[]",
          "name": "",
          "type": "uint256[]"
        }
      ],
      "stateMutability": "view",
      "type": "function"
    },
    {
      "inputs": [
        {
          "internalType": "address",
          "name": "account",
          "type": "address"
        },
        {
          "internalType": "uint256",
          "name": "tokenAmount",
          "type": "uint256"
        },
        {
          "internalType": "uint8",
          "name": "tokenIndex",
          "type": "uint8"
        }
      ],
      "name": "calculateRemoveLiquidityOneToken",
      "outputs": [
        {
          "internalType": "uint256",
          "name": "availableTokenAmount",
          "type": "uint256"
        }
      ],
      "stateMutability": "view",
      "type": "function"
    },
    {
      "inputs": [
        {
          "internalType": "uint8",
          "name": "tokenIndexFrom",
          "type": "uint8"
        },
        {
          "internalType": "uint8",
          "name": "tokenIndexTo",
          "type": "uint8"
        },
        {
          "internalType": "uint256",
          "name": "dx",
          "type": "uint256"
        }
      ],
      "name": "calculateSwap",
      "outputs": [
        {
          "internalType": "uint256",
          "name": "",
          "type": "uint256"
        }
      ],
      "stateMutability": "view",
      "type": "function"
    },
    {
      "inputs": [
        {
          "internalType": "address",
          "name": "account",
          "type": "address"
        },
        {
          "internalType": "uint256[]",
          "name": "amounts",
          "type": "uint256[]"
        },
        {
          "internalType": "bool",
          "name": "deposit",
          "type": "bool"
        }
      ],
      "name": "calculateTokenAmount",
      "outputs": [
        {
          "internalType": "uint256",
          "name": "",
          "type": "uint256"
        }
      ],
      "stateMutability": "view",
      "type": "function"
    },
    {
      "inputs": [],
      "name": "getA",
      "outputs": [
        {
          "internalType": "uint256",
          "name": "",
          "type": "uint256"
        }
      ],
      "stateMutability": "view",
      "type": "function"
    },
    {
      "inputs": [],
      "name": "getAPrecise",
      "outputs": [
        {
          "internalType": "uint256",
          "name": "",
          "type": "uint256"
        }
      ],
      "stateMutability": "view",
      "type": "function"
    },
    {
      "inputs": [
        {
          "internalType": "uint256",
          "name": "index",
          "type": "uint256"
        }
      ],
      "name": "getAdminBalance",
      "outputs": [
        {
          "internalType": "uint256",
          "name": "",
          "type": "uint256"
        }
      ],
      "stateMutability": "view",
      "type": "function"
    },
    {
      "inputs": [
        {
          "internalType": "address",
          "name": "user",
          "type": "address"
        }
      ],
      "name": "getDepositTimestamp",
      "outputs": [
        {
          "internalType": "uint256",
          "name": "",
          "type": "uint256"
        }
      ],
      "stateMutability": "view",
      "type": "function"
    },
    {
      "inputs": [
        {
          "internalType": "uint8",
          "name": "index",
          "type": "uint8"
        }
      ],
      "name": "getToken",
      "outputs": [
        {
          "internalType": "contract IERC20",
          "name": "",
          "type": "address"
        }
      ],
      "stateMutability": "view",
      "type": "function"
    },
    {
      "inputs": [
        {
          "internalType": "uint8",
          "name": "index",
          "type": "uint8"
        }
      ],
      "name": "getTokenBalance",
      "outputs": [
        {
          "internalType": "uint256",
          "name": "",
          "type": "uint256"
        }
      ],
      "stateMutability": "view",
      "type": "function"
    },
    {
      "inputs": [
        {
          "internalType": "address",
          "name": "tokenAddress",
          "type": "address"
        }
      ],
      "name": "getTokenIndex",
      "outputs": [
        {
          "internalType": "uint8",
          "name": "",
          "type": "uint8"
        }
      ],
      "stateMutability": "view",
      "type": "function"
    },
    {
      "inputs": [],
      "name": "getVirtualPrice",
      "outputs": [
        {
          "internalType": "uint256",
          "name": "",
          "type": "uint256"
        }
      ],
      "stateMutability": "view",
      "type": "function"
    },
    {
      "inputs": [
        {
          "internalType": "contract IERC20[]",
          "name": "_pooledTokens",
          "type": "address[]"
        },
        {
          "internalType": "uint8[]",
          "name": "decimals",
          "type": "uint8[]"
        },
        {
          "internalType": "string",
          "name": "lpTokenName",
          "type": "string"
        },
        {
          "internalType": "string",
          "name": "lpTokenSymbol",
          "type": "string"
        },
        {
          "internalType": "uint256",
          "name": "_a",
          "type": "uint256"
        },
        {
          "internalType": "uint256",
          "name": "_fee",
          "type": "uint256"
        },
        {
          "internalType": "uint256",
          "name": "_adminFee",
          "type": "uint256"
        },
        {
          "internalType": "uint256",
          "name": "_withdrawFee",
          "type": "uint256"
        },
        {
          "internalType": "address",
          "name": "lpTokenTargetAddress",
          "type": "address"
        }
      ],
      "name": "initialize",
      "outputs": [],
      "stateMutability": "nonpayable",
      "type": "function"
    },
    {
      "inputs": [],
      "name": "owner",
      "outputs": [
        {
          "internalType": "address",
          "name": "",
          "type": "address"
        }
      ],
      "stateMutability": "view",
      "type": "function"
    },
    {
      "inputs": [],
      "name": "pause",
      "outputs": [],
      "stateMutability": "nonpayable",
      "type": "function"
    },
    {
      "inputs": [],
      "name": "paused",
      "outputs": [
        {
          "internalType": "bool",
          "name": "",
          "type": "bool"
        }
      ],
      "stateMutability": "view",
      "type": "function"
    },
    {
      "inputs": [
        {
          "internalType": "uint256",
          "name": "futureA",
          "type": "uint256"
        },
        {
          "internalType": "uint256",
          "name": "futureTime",
          "type": "uint256"
        }
      ],
      "name": "rampA",
      "outputs": [],
      "stateMutability": "nonpayable",
      "type": "function"
    },
    {
      "inputs": [
        {
          "internalType": "uint256",
          "name": "amount",
          "type": "uint256"
        },
        {
          "internalType": "uint256[]",
          "name": "minAmounts",
          "type": "uint256[]"
        },
        {
          "internalType": "uint256",
          "name": "deadline",
          "type": "uint256"
        }
      ],
      "name": "removeLiquidity",
      "outputs": [
        {
          "internalType": "uint256[]",
          "name": "",
          "type": "uint256[]"
        }
      ],
      "stateMutability": "nonpayable",
      "type": "function"
    },
    {
      "inputs": [
        {
          "internalType": "uint256[]",
          "name": "amounts",
          "type": "uint256[]"
        },
        {
          "internalType": "uint256",
          "name": "maxBurnAmount",
          "type": "uint256"
        },
        {
          "internalType": "uint256",
          "name": "deadline",
          "type": "uint256"
        }
      ],
      "name": "removeLiquidityImbalance",
      "outputs": [
        {
          "internalType": "uint256",
          "name": "",
          "type": "uint256"
        }
      ],
      "stateMutability": "nonpayable",
      "type": "function"
    },
    {
      "inputs": [
        {
          "internalType": "uint256",
          "name": "tokenAmount",
          "type": "uint256"
        },
        {
          "internalType": "uint8",
          "name": "tokenIndex",
          "type": "uint8"
        },
        {
          "internalType": "uint256",
          "name": "minAmount",
          "type": "uint256"
        },
        {
          "internalType": "uint256",
          "name": "deadline",
          "type": "uint256"
        }
      ],
      "name": "removeLiquidityOneToken",
      "outputs": [
        {
          "internalType": "uint256",
          "name": "",
          "type": "uint256"
        }
      ],
      "stateMutability": "nonpayable",
      "type": "function"
    },
    {
      "inputs": [],
      "name": "renounceOwnership",
      "outputs": [],
      "stateMutability": "nonpayable",
      "type": "function"
    },
    {
      "inputs": [
        {
          "internalType": "uint256",
          "name": "newAdminFee",
          "type": "uint256"
        }
      ],
      "name": "setAdminFee",
      "outputs": [],
      "stateMutability": "nonpayable",
      "type": "function"
    },
    {
      "inputs": [
        {
          "internalType": "uint256",
          "name": "newWithdrawFee",
          "type": "uint256"
        }
      ],
      "name": "setDefaultWithdrawFee",
      "outputs": [],
      "stateMutability": "nonpayable",
      "type": "function"
    },
    {
      "inputs": [
        {
          "internalType": "uint256",
          "name": "newSwapFee",
          "type": "uint256"
        }
      ],
      "name": "setSwapFee",
      "outputs": [],
      "stateMutability": "nonpayable",
      "type": "function"
    },
    {
      "inputs": [],
      "name": "stopRampA",
      "outputs": [],
      "stateMutability": "nonpayable",
      "type": "function"
    },
    {
      "inputs": [
        {
          "internalType": "uint8",
          "name": "tokenIndexFrom",
          "type": "uint8"
        },
        {
          "internalType": "uint8",
          "name": "tokenIndexTo",
          "type": "uint8"
        },
        {
          "internalType": "uint256",
          "name": "dx",
          "type": "uint256"
        },
        {
          "internalType": "uint256",
          "name": "minDy",
          "type": "uint256"
        },
        {
          "internalType": "uint256",
          "name": "deadline",
          "type": "uint256"
        }
      ],
      "name": "swap",
      "outputs": [
        {
          "internalType": "uint256",
          "name": "",
          "type": "uint256"
        }
      ],
      "stateMutability": "nonpayable",
      "type": "function"
    },
    {
      "inputs": [],
      "name": "swapStorage",
      "outputs": [
        {
          "internalType": "uint256",
          "name": "initialA",
          "type": "uint256"
        },
        {
          "internalType": "uint256",
          "name": "futureA",
          "type": "uint256"
        },
        {
          "internalType": "uint256",
          "name": "initialATime",
          "type": "uint256"
        },
        {
          "internalType": "uint256",
          "name": "futureATime",
          "type": "uint256"
        },
        {
          "internalType": "uint256",
          "name": "swapFee",
          "type": "uint256"
        },
        {
          "internalType": "uint256",
          "name": "adminFee",
          "type": "uint256"
        },
        {
          "internalType": "uint256",
          "name": "defaultWithdrawFee",
          "type": "uint256"
        },
        {
          "internalType": "contract LPToken",
          "name": "lpToken",
          "type": "address"
        }
      ],
      "stateMutability": "view",
      "type": "function"
    },
    {
      "inputs": [
        {
          "internalType": "address",
          "name": "newOwner",
          "type": "address"
        }
      ],
      "name": "transferOwnership",
      "outputs": [],
      "stateMutability": "nonpayable",
      "type": "function"
    },
    {
      "inputs": [],
      "name": "unpause",
      "outputs": [],
      "stateMutability": "nonpayable",
      "type": "function"
    },
    {
      "inputs": [
        {
          "internalType": "address",
          "name": "recipient",
          "type": "address"
        },
        {
          "internalType": "uint256",
          "name": "transferAmount",
          "type": "uint256"
        }
      ],
      "name": "updateUserWithdrawFee",
      "outputs": [],
      "stateMutability": "nonpayable",
      "type": "function"
    },
    {
      "inputs": [],
      "name": "withdrawAdminFees",
      "outputs": [],
      "stateMutability": "nonpayable",
      "type": "function"
    }
  ],
  "transactionHash": "0x263bf82c65311785846f381cd8db7545c05df28f7f22c2f7a18d8d8ca2c1a4d7",
  "args": [],
  "solcInputHash": "cc820e9a9cfa52a5cb6ae8910db7a259",
  "bytecode": "0x6080604052600060d6600181620000156200004e565b8160ff021916908315150217906200002c620000b0565b505050348015620000475760008062000044620000ff565b50505b506200016c565b6303daa959598160e01b8152836004820152602081602483336000905af158600e01573d6000803e3d6000fd5b3d6001141558600a015760016000f35b8051935060005b6040811015620000ab5760008282015260200162000092565b505050565b6322bd64c0598160e01b8152836004820152846024820152600081604483336000905af158600e01573d6000803e3d6000fd5b3d6001141558600a015760016000f35b60008152602062000092565b632a2a7adb598160e01b8152600481016020815285602082015260005b86811015620001395780860151828201604001526020016200011c565b506020828760640184336000905af158600e01573d6000803e3d6000fd5b3d6001141558600a015760016000f35b505050565b614a62806200017c6000396000f3fe60806040523480156200001c576000806200001962004028565b50505b5060043610620001b95760003560e01c80630419b45a14620001c95780630ba8195914620001d557806331cd52b014620001f157806334e1990714620002ed5780633e3a156014620003185780633f4ba83a14620003585780634a1b0d5714620003625780634d49e87d1462000396578063593d132c146200043c5780635c975abb146200046d5780635fd65f0f146200048b57806366c0bd2414620004e4578063715018a6146200052e5780637c61e561146200053857806382b8660014620005725780638456cb5914620005bc57806384cdd9bc14620005c65780638beb60b6146200066c5780638da5cb5b14620006975780639169558614620006a157806391ceb3eb14620006eb57806398899f401462000719578063a95b089f146200075c578063ac5bf263146200079a578063c00c125c14620007c5578063c4db7fa014620007ff578063d46300fd1462000809578063da7a77be1462000813578063df3ed68d1462000847578063e25aa5fa1462000b31578063ef0a712f1462000b3b578063f2fde38b1462000b66578063f9273ffb1462000b9a575b600080620001c662004028565b50505b620001d362000c4c565b005b620001df62000d72565b60405190815260200160405180910390f35b620002986004803603606081101562000214576000806200021162004028565b50505b81359190810190604081016020820135600160201b81111562000241576000806200023e62004028565b50505b8201836020820111156200025f576000806200025c62004028565b50505b803590602001918460208302840111600160201b831117156200028c576000806200028962004028565b50505b91935091503562000e3a565b60405160208082528190810183818151815260200191508051906020019060200280838360005b83811015620002d9578082015183820152602001620002bf565b505050509050019250505060405180910390f35b620001d36004803603602081101562000310576000806200030d62004028565b50505b5035620010dc565b620001df600480360360808110156200033b576000806200033862004028565b50505b5080359060ff6020820135169060408101359060600135620011f1565b620001d362001403565b620001df6004803603602081101562000385576000806200038262004028565b50505b50356001600160a01b031662001481565b620001df60048036036060811015620003b957600080620003b662004028565b50505b810190602081018135600160201b811115620003df57600080620003dc62004028565b50505b820183602082011115620003fd57600080620003fa62004028565b50505b803590602001918460208302840111600160201b831117156200042a576000806200042762004028565b50505b91935091508035906020013562001559565b620001d3600480360360408110156200045f576000806200045c62004028565b50505b508035906020013562001708565b62000477620018ee565b604051901515815260200160405180910390f35b620004956200190c565b60405197885260208801969096526040808801959095526060870193909352608086019190915260a085015260c08401526001600160a01b0390911660e0830152610100909101905180910390f35b620005186004803603602081101562000507576000806200050462004028565b50505b50356001600160a01b031662001999565b60405160ff909116815260200160405180910390f35b620001d362001a43565b62000298600480360360408110156200055b576000806200055862004028565b50505b506001600160a01b03813516906020013562001b32565b620005a06004803603602081101562000595576000806200059262004028565b50505b503560ff1662001cd0565b6040516001600160a01b03909116815260200160405180910390f35b620001d362001d79565b620001df60048036036060811015620005e957600080620005e662004028565b50505b810190602081018135600160201b8111156200060f576000806200060c62004028565b50505b8201836020820111156200062d576000806200062a62004028565b50505b803590602001918460208302840111600160201b831117156200065a576000806200065762004028565b50505b91935091508035906020013562001df5565b620001d3600480360360208110156200068f576000806200068c62004028565b50505b503562001fa4565b620005a06200206c565b620001df600480360360a0811015620006c457600080620006c162004028565b50505b5060ff81358116916020810135909116906040810135906060810135906080013562002090565b620001df600480360360208110156200070e576000806200070b62004028565b50505b503560ff16620022ba565b620001df600480360360608110156200073c576000806200073962004028565b50505b5080356001600160a01b0316906020810135906040013560ff166200234f565b620001df600480360360608110156200077f576000806200077c62004028565b50505b5060ff8135811691602081013590911690604001356200243a565b620001d360048036036020811015620007bd57600080620007ba62004028565b50505b5035620024a5565b620001d360048036036040811015620007e857600080620007e562004028565b50505b506001600160a01b0381351690602001356200256d565b620001d36200266a565b620001df620027f3565b620001df6004803603602081101562000836576000806200083362004028565b50505b50356001600160a01b031662002845565b620001d360048036036101208110156200086b576000806200086862004028565b50505b810190602081018135600160201b81111562000891576000806200088e62004028565b50505b820183602082011115620008af57600080620008ac62004028565b50505b803590602001918460208302840111600160201b83111715620008dc57600080620008d962004028565b50505b9190808060200260200160405190810160405280939291908181526020018383602002808284376000920191909152509295949360208101935035915050600160201b81111562000937576000806200093462004028565b50505b82018360208201111562000955576000806200095262004028565b50505b803590602001918460208302840111600160201b8311171562000982576000806200097f62004028565b50505b9190808060200260200160405190810160405280939291908181526020018383602002808284376000920191909152509295949360208101935035915050600160201b811115620009dd57600080620009da62004028565b50505b820183602082011115620009fb57600080620009f862004028565b50505b803590602001918460018302840111600160201b8311171562000a285760008062000a2562004028565b50505b91908080601f01602080910402602001604051908101604052818152929190602084018383808284376000920191909152509295949360208101935035915050600160201b81111562000a855760008062000a8262004028565b50505b82018360208201111562000aa35760008062000aa062004028565b50505b803590602001918460018302840111600160201b8311171562000ad05760008062000acd62004028565b50505b91908080601f016020809104026020016040519081016040528181529291906020840183838082843760009201919091525092955050823593505050602081013590604081013590606081013590608001356001600160a01b0316620028a6565b620001df620032c6565b620001df6004803603602081101562000b5e5760008062000b5b62004028565b50505b503562003318565b620001d36004803603602081101562000b895760008062000b8662004028565b50505b50356001600160a01b031662003370565b620001df6004803603606081101562000bbd5760008062000bba62004028565b50505b6001600160a01b038235169190810190604081016020820135600160201b81111562000bf35760008062000bf062004028565b50505b82018360208201111562000c115760008062000c0e62004028565b50505b803590602001918460208302840111600160201b8311171562000c3e5760008062000c3b62004028565b50505b9193509150351515620034b4565b62000c56620035cb565b6001600160a01b031662000c696200206c565b6001600160a01b03161462000cbe5760405162461bcd60e51b8152602060048201819052602482015260008051602062004a2283398151915260448201526064016040518091039062000cbb62004028565b50505b73Df1a401d704fD9Ad4B16F756621A02B718C193326324c5c75160c962000ce46200206c565b6040516001600160e01b031960e085901b16815260048101929092526001600160a01b03166024820152604401600060405180830381868062000d2662004095565b15801562000d3e5760008062000d3b62004028565b50505b505a62000d4a620040f2565b505050505015801562000d6c573d6000803e3d600062000d6962004028565b50505b50505050565b600073Df1a401d704fD9Ad4B16F756621A02B718C1933263c9b64dcb60c96040516001600160e01b031960e084901b1681526004810191909152602401602060405180830381868062000dc462004095565b15801562000ddc5760008062000dd962004028565b50505b505a62000de8620040f2565b505050505015801562000e0a573d6000803e3d600062000e0762004028565b50505b505050506040513d602081101562000e2c5760008062000e2962004028565b50505b810190808051935050505090565b60606002609762000e4a620041e8565b141562000e975760405162461bcd60e51b815260206004820152601f60248201526000805160206200498d83398151915260448201526064016040518091039062000e9462004028565b50505b600280609762000ea662004235565b50505081805a62000eb662004284565b111562000f075760405162461bcd60e51b815260206004820152601060248201526f111958591b1a5b99481b9bdd081b595d60821b60448201526064016040518091039062000f0462004028565b50505b73Df1a401d704fD9Ad4B16F756621A02B718C193326373fd6b3e60c98888886040518563ffffffff1660e01b8152600401808581526020018481526020018060200182810382528484828181526020019250602002808284376000838201819052601f909101601f1916909201975090955060409450505050505180830381868062000f9262004095565b15801562000faa5760008062000fa762004028565b50505b505a62000fb6620040f2565b505050505015801562000fd8573d6000803e3d600062000fd562004028565b50505b505050506040513d6000823e601f3d908101601f1916820160405260208110156200100d576000806200100a62004028565b50505b8101908080516040519392919084600160201b82111562001038576000806200103562004028565b50505b90830190602082018581111562001059576000806200105662004028565b50505b82518660208202830111600160201b8211171562001081576000806200107e62004028565b50505b825250602001908051906020019060200280838360005b83811015620010b257808201518382015260200162001098565b505050509050016040525050509150506001806097620010d162004235565b505050949350505050565b620010e6620035cb565b6001600160a01b0316620010f96200206c565b6001600160a01b0316146200114e5760405162461bcd60e51b8152602060048201819052602482015260008051602062004a228339815191526044820152606401604051809103906200114b62004028565b50505b73Df1a401d704fD9Ad4B16F756621A02B718C1933263467e186c60c9836040516001600160e01b031960e085901b168152600481019290925260248201526044016000604051808303818680620011a462004095565b158015620011bc57600080620011b962004028565b50505b505a620011c8620040f2565b5050505050158015620011ea573d6000803e3d6000620011e762004028565b50505b5050505050565b60006002609762001201620041e8565b14156200124e5760405162461bcd60e51b815260206004820152601f60248201526000805160206200498d8339815191526044820152606401604051809103906200124b62004028565b50505b60028060976200125d62004235565b5050506200126a620018ee565b15620012ba5760405162461bcd60e51b815260206004820152601060248201526f14185d5cd8589b194e881c185d5cd95960821b604482015260640160405180910390620012b762004028565b50505b81805a620012c762004284565b1115620013185760405162461bcd60e51b815260206004820152601060248201526f111958591b1a5b99481b9bdd081b595d60821b6044820152606401604051809103906200131562004028565b50505b73Df1a401d704fD9Ad4B16F756621A02B718C1933263e7a4db8160c98888886040516001600160e01b031960e087901b1681526004810194909452602484019290925260ff166044830152606482015260840160206040518083038186806200138062004095565b15801562001398576000806200139562004028565b50505b505a620013a4620040f2565b5050505050158015620013c6573d6000803e3d6000620013c362004028565b50505b505050506040513d6020811015620013e857600080620013e562004028565b50505b8101908080519450505050506001806097620010d162004235565b6200140d620035cb565b6001600160a01b0316620014206200206c565b6001600160a01b031614620014755760405162461bcd60e51b8152602060048201819052602482015260008051602062004a228339815191526044820152606401604051809103906200147262004028565b50505b6200147f620035dd565b565b600073Df1a401d704fD9Ad4B16F756621A02B718C1933263968e559460c9846040516001600160e01b031960e085901b16815260048101929092526001600160a01b031660248201526044016020604051808303818680620014e262004095565b158015620014fa57600080620014f762004028565b50505b505a62001506620040f2565b505050505015801562001528573d6000803e3d60006200152562004028565b50505b505050506040513d60208110156200154a576000806200154762004028565b50505b81019080805195945050505050565b60006002609762001569620041e8565b1415620015b65760405162461bcd60e51b815260206004820152601f60248201526000805160206200498d833981519152604482015260640160405180910390620015b362004028565b50505b6002806097620015c562004235565b505050620015d2620018ee565b15620016225760405162461bcd60e51b815260206004820152601060248201526f14185d5cd8589b194e881c185d5cd95960821b6044820152606401604051809103906200161f62004028565b50505b81805a6200162f62004284565b1115620016805760405162461bcd60e51b815260206004820152601060248201526f111958591b1a5b99481b9bdd081b595d60821b6044820152606401604051809103906200167d62004028565b50505b73Df1a401d704fD9Ad4B16F756621A02B718C193326340370edf60c98888886040518563ffffffff1660e01b815260040180858152602001806020018381526020018281038252858582818152602001925060200280828437600083820152601f01601f19169091019650602095506040945050505050518083038186806200138062004095565b62001712620035cb565b6001600160a01b0316620017256200206c565b6001600160a01b0316146200177a5760405162461bcd60e51b8152602060048201819052602482015260008051602062004a228339815191526044820152606401604051809103906200177762004028565b50505b73a74Fc685B1987f751877098d704609ed4b9FC8986378f201d860c973Df1a401d704fD9Ad4B16F756621A02B718C1933263c9b64dcb826040516001600160e01b031960e084901b16815260048101919091526024016020604051808303818680620017e562004095565b158015620017fd57600080620017fa62004028565b50505b505a62001809620040f2565b50505050501580156200182b573d6000803e3d60006200182862004028565b50505b505050506040513d60208110156200184d576000806200184a62004028565b50505b81019080805192508791508690506040516001600160e01b031960e087901b16815260048101949094526024840192909252604483015260648201526084016000604051808303818680620018a162004095565b158015620018b957600080620018b662004028565b50505b505a620018c5620040f2565b505050505015801562000d69573d6000803e3d6000620018e462004028565b5050505050505050565b6000806065620018fd620041e8565b906101000a900460ff16905090565b60c98062001919620041e8565b908060010162001928620041e8565b908060020162001937620041e8565b908060030162001946620041e8565b908060040162001955620041e8565b908060050162001964620041e8565b908060060162001973620041e8565b9060006007820162001984620041e8565b906101000a90046001600160a01b0316905088565b6001600160a01b038116600090815260d76020528060408120600090620019bf620041e8565b906101000a900460ff169050826001600160a01b0316620019e08262001cd0565b6001600160a01b03161462001a3d5760405162461bcd60e51b8152602060048201526014602482015273151bdad95b88191bd95cc81b9bdd08195e1a5cdd60621b60448201526064016040518091039062001a3a62004028565b50505b92915050565b62001a4d620035cb565b6001600160a01b031662001a606200206c565b6001600160a01b03161462001ab55760405162461bcd60e51b8152602060048201819052602482015260008051602062004a2283398151915260448201526064016040518091039062001ab262004028565b50505b600080603362001ac4620041e8565b906101000a90046001600160a01b03166001600160a01b031660008051602062004a4283398151915260405160405180910390a36000603360018162001b09620041e8565b816001600160a01b0302191690836001600160a01b031602179062001b2d62004235565b505050565b606073Df1a401d704fD9Ad4B16F756621A02B718C1933263f967a81f60c985856040516001600160e01b031960e086901b16815260048101939093526001600160a01b0390911660248301526044820152606401600060405180830381868062001b9b62004095565b15801562001bb35760008062001bb062004028565b50505b505a62001bbf620040f2565b505050505015801562001be1573d6000803e3d600062001bde62004028565b50505b505050506040513d6000823e601f3d908101601f19168201604052602081101562001c165760008062001c1362004028565b50505b8101908080516040519392919084600160201b82111562001c415760008062001c3e62004028565b50505b90830190602082018581111562001c625760008062001c5f62004028565b50505b82518660208202830111600160201b8211171562001c8a5760008062001c8762004028565b50505b825250602001908051906020019060200280838360005b8381101562001cbb57808201518382015260200162001ca1565b50505050905001604052505050905092915050565b600060d18062001cdf620041e8565b90508260ff161062001d315760405162461bcd60e51b815260206004820152600c60248201526b4f7574206f662072616e676560a01b60448201526064016040518091039062001d2e62004028565b50505b60d160ff83168162001d42620041e8565b811062001d4b57fe5b9060005260206000200160009062001d62620041e8565b906101000a90046001600160a01b03169050919050565b62001d83620035cb565b6001600160a01b031662001d966200206c565b6001600160a01b03161462001deb5760405162461bcd60e51b8152602060048201819052602482015260008051602062004a2283398151915260448201526064016040518091039062001de862004028565b50505b6200147f620036ad565b60006002609762001e05620041e8565b141562001e525760405162461bcd60e51b815260206004820152601f60248201526000805160206200498d83398151915260448201526064016040518091039062001e4f62004028565b50505b600280609762001e6162004235565b50505062001e6e620018ee565b1562001ebe5760405162461bcd60e51b815260206004820152601060248201526f14185d5cd8589b194e881c185d5cd95960821b60448201526064016040518091039062001ebb62004028565b50505b81805a62001ecb62004284565b111562001f1c5760405162461bcd60e51b815260206004820152601060248201526f111958591b1a5b99481b9bdd081b595d60821b60448201526064016040518091039062001f1962004028565b50505b73Df1a401d704fD9Ad4B16F756621A02B718C193326341b91c2660c98888886040518563ffffffff1660e01b815260040180858152602001806020018381526020018281038252858582818152602001925060200280828437600083820152601f01601f19169091019650602095506040945050505050518083038186806200138062004095565b62001fae620035cb565b6001600160a01b031662001fc16200206c565b6001600160a01b031614620020165760405162461bcd60e51b8152602060048201819052602482015260008051602062004a228339815191526044820152606401604051809103906200201362004028565b50505b73Df1a401d704fD9Ad4B16F756621A02B718C19332637046727660c9836040516001600160e01b031960e085901b168152600481019290925260248201526044016000604051808303818680620011a462004095565b60008060336200207b620041e8565b906101000a90046001600160a01b0316905090565b600060026097620020a0620041e8565b1415620020ed5760405162461bcd60e51b815260206004820152601f60248201526000805160206200498d833981519152604482015260640160405180910390620020ea62004028565b50505b6002806097620020fc62004235565b50505062002109620018ee565b15620021595760405162461bcd60e51b815260206004820152601060248201526f14185d5cd8589b194e881c185d5cd95960821b6044820152606401604051809103906200215662004028565b50505b81805a6200216662004284565b1115620021b75760405162461bcd60e51b815260206004820152601060248201526f111958591b1a5b99481b9bdd081b595d60821b604482015260640160405180910390620021b462004028565b50505b73Df1a401d704fD9Ad4B16F756621A02B718C1933263a5397b2260c9898989896040516001600160e01b031960e088901b168152600481019590955260ff93841660248601529190921660448401526064830191909152608482015260a40160206040518083038186806200222b62004095565b15801562002243576000806200224062004028565b50505b505a6200224f620040f2565b505050505015801562002271573d6000803e3d60006200226e62004028565b50505b505050506040513d602081101562002293576000806200229062004028565b50505b8101908080519450505050506001806097620022ae62004235565b50505095945050505050565b600060d180620022c9620041e8565b90508260ff1610620023215760405162461bcd60e51b8152602060048201526012602482015271496e646578206f7574206f662072616e676560701b6044820152606401604051809103906200231e62004028565b50505b60d360ff83168162002332620041e8565b81106200233b57fe5b9060005260206000200162001a3d620041e8565b600073Df1a401d704fD9Ad4B16F756621A02B718C1933263e4a9a0da60c98686866040516001600160e01b031960e087901b16815260048101949094526001600160a01b039092166024840152604483015260ff1660648201526084016020604051808303818680620023c162004095565b158015620023d957600080620023d662004028565b50505b505a620023e5620040f2565b505050505015801562002407573d6000803e3d60006200240462004028565b50505b505050506040513d602081101562002429576000806200242662004028565b50505b810190808051979650505050505050565b600073Df1a401d704fD9Ad4B16F756621A02B718C19332634b23603c60c98686866040516001600160e01b031960e087901b168152600481019490945260ff92831660248501529116604483015260648201526084016020604051808303818680620023c162004095565b620024af620035cb565b6001600160a01b0316620024c26200206c565b6001600160a01b031614620025175760405162461bcd60e51b8152602060048201819052602482015260008051602062004a228339815191526044820152606401604051809103906200251462004028565b50505b73Df1a401d704fD9Ad4B16F756621A02B718C19332638ab7697e60c9836040516001600160e01b031960e085901b168152600481019290925260248201526044016000604051808303818680620011a462004095565b600060d06200257b620041e8565b906101000a90046001600160a01b03166001600160a01b03165a6200259f620042cb565b6001600160a01b031614620026035760405162461bcd60e51b815260206004820152601b60248201527a27b7363c9031b0b63630b1363290313c903837b7b6103a37b5b2b760291b6044820152606401604051809103906200260062004028565b50505b73Df1a401d704fD9Ad4B16F756621A02B718C1933263e9252d4660c984846040516001600160e01b031960e086901b16815260048101939093526001600160a01b03909116602483015260448201526064016000604051808303818680620018a162004095565b62002674620035cb565b6001600160a01b0316620026876200206c565b6001600160a01b031614620026dc5760405162461bcd60e51b8152602060048201819052602482015260008051602062004a22833981519152604482015260640160405180910390620026d962004028565b50505b73a74Fc685B1987f751877098d704609ed4b9FC898639d6b262460c973Df1a401d704fD9Ad4B16F756621A02B718C1933263c9b64dcb826040516001600160e01b031960e084901b168152600481019190915260240160206040518083038186806200274762004095565b1580156200275f576000806200275c62004028565b50505b505a6200276b620040f2565b50505050501580156200278d573d6000803e3d60006200278a62004028565b50505b505050506040513d6020811015620027af57600080620027ac62004028565b50505b81019080805192506040915050516001600160e01b031960e085901b16815260048101929092526024820152604401600060405180830381868062000d2662004095565b600073Df1a401d704fD9Ad4B16F756621A02B718C1933263b0a14cfc60c96040516001600160e01b031960e084901b1681526004810191909152602401602060405180830381868062000dc462004095565b600073Df1a401d704fD9Ad4B16F756621A02B718C1933263e8c47a5460c9846040516001600160e01b031960e085901b16815260048101929092526001600160a01b031660248201526044016020604051808303818680620014e262004095565b60016000620028b4620041e8565b906101000a900460ff1680620028cf5750620028cf6200375c565b80620028ef5750600080620028e3620041e8565b906101000a900460ff16155b620029375760405162461bcd60e51b815260040180806020018281038252602e815260200180620049d3602e9139604001915050604051809103906200293462004028565b50505b600060018162002946620041e8565b906101000a900460ff161590508015620029b55760016000610100816200296c620041e8565b8160ff021916908315150217906200298362004235565b50505060016000806101000a816200299a620041e8565b8160ff02191690831515021790620029b162004235565b5050505b620029bf620037c9565b620029c962003928565b60018a511162002a265760405162461bcd60e51b81526020600482015260196024820152785f706f6f6c6564546f6b656e732e6c656e677468203c3d203160381b60448201526064016040518091039062002a2362004028565b50505b60208a51111562002a845760405162461bcd60e51b81526020600482015260196024820152782fb837b7b632b22a37b5b2b739973632b733ba34101f10199960391b60448201526064016040518091039062002a8162004028565b50505b88518a511462002ae55760405162461bcd60e51b815260206004820152601f60248201527f5f706f6f6c6564546f6b656e7320646563696d616c73206d69736d617463680060448201526064016040518091039062002ae262004028565b50505b606089516001600160401b038111801562002b0a5760008062002b0762004028565b50505b5060405190808252806020026020018201604052801562002b35578160200160208202803683370190505b50905060005b8b518160ff16101562002df05760ff81161562002c425760d760008d8360ff168151811062002b6657fe5b60200260200101516001600160a01b03166001600160a01b0316815260200190815260200160002060009062002b9b620041e8565b60ff6101009290920a90041615801562002bf357508b8160ff168151811062002bc057fe5b60200260200101516001600160a01b03168c60008151811062002bdf57fe5b60200260200101516001600160a01b031614155b62002c425760405162461bcd60e51b815260206004820152601060248201526f4475706c696361746520746f6b656e7360801b60448201526064016040518091039062002c3f62004028565b50505b60008c60ff83168151811062002c5457fe5b60200260200101516001600160a01b0316141562002cc35760405162461bcd60e51b815260206004820152601d60248201527f546865203020616464726573732069736e277420616e204552432d323000000060448201526064016040518091039062002cc062004028565b50505b60128b60ff83168151811062002cd557fe5b602002602001015160ff16111562002d3b5760405162461bcd60e51b815260206004820152601a6024820152790a8ded6cadc40c8cac6d2dac2d8e640caf0c6cacac8e640dac2f60331b60448201526064016040518091039062002d3862004028565b50505b62002d638b8260ff168151811062002d4f57fe5b602002602001015160129060ff1662003a41565b600a0a828260ff168151811062002d7657fe5b6020026020010181815250508060d760008e8460ff168151811062002d9757fe5b60200260200101516001600160a01b03166001600160a01b0316815260200190815260200160002060018162002dcc620041e8565b8160ff021916908360ff1602179062002de462004235565b50505060010162002b3b565b50620f4240871062002e485760405162461bcd60e51b81526020600482015260126024820152715f612065786365656473206d6178696d756d60701b60448201526064016040518091039062002e4562004028565b50505b6305f5e100861062002ea25760405162461bcd60e51b81526020600482015260146024820152735f6665652065786365656473206d6178696d756d60601b60448201526064016040518091039062002e9f62004028565b50505b6402540be400851062002f025760405162461bcd60e51b81526020600482015260196024820152785f61646d696e4665652065786365656473206d6178696d756d60381b60448201526064016040518091039062002eff62004028565b50505b6305f5e100841062002f645760405162461bcd60e51b815260206004820152601c60248201527b5f77697468647261774665652065786365656473206d6178696d756d60201b60448201526064016040518091039062002f6162004028565b50505b60008360405162002f759062004312565b6001600160a01b03909116815260200160405180910390600062002f9862004320565b50508015801562002fb8573d6000803e3d600062002fb562004028565b50505b509050806001600160a01b0316634cd88b768b8b6040518363ffffffff1660e01b8152600401808060200180602001838103835285818151815260200191508051906020019080838360005b838110156200301e57808201518382015260200162003004565b50505050905090810190601f1680156200304c5780820380516001836020036101000a031916815260200191505b50838103825284818151815260200191508051906020019080838360005b83811015620030845780820151838201526020016200306a565b50505050905090810190601f168015620030b25780820380516001836020036101000a031916815260200191505b5094505050505060006040518083038160008780620030d062004095565b158015620030e857600080620030e562004028565b50505b505a620030f4620043a5565b50505050505015801562003117573d6000803e3d60006200311462004028565b50505b5083925060d0915060019050816200312e620041e8565b816001600160a01b0302191690836001600160a01b03160217906200315262004235565b5060d191508d905080516200316c92916020019062004473565b5060d2828051620031829291602001906200450a565b508b516001600160401b0381118015620031a657600080620031a362004028565b50505b50604051908082528060200260200182016040528015620031d1578160200160208202803683370190505b5060d3908051620031e79291602001906200450a565b50620031f588606462003aa9565b8060c96200320262004235565b50620032149150899050606462003aa9565b8060ca6200322162004235565b506000915081905060cb6200323562004235565b506000915081905060cc6200324962004235565b5088915081905060cd6200325c62004235565b5087915081905060ce6200326f62004235565b5086915081905060cf6200328262004235565b50505050508015620032ba57600080610100816200329f620041e8565b8160ff02191690831515021790620032b662004235565b5050505b50505050505050505050565b600073Df1a401d704fD9Ad4B16F756621A02B718C193326371906c2c60c96040516001600160e01b031960e084901b1681526004810191909152602401602060405180830381868062000dc462004095565b600073Df1a401d704fD9Ad4B16F756621A02B718C19332637d04816060c9846040516001600160e01b031960e085901b168152600481019290925260248201526044016020604051808303818680620014e262004095565b6200337a620035cb565b6001600160a01b03166200338d6200206c565b6001600160a01b031614620033e25760405162461bcd60e51b8152602060048201819052602482015260008051602062004a22833981519152604482015260640160405180910390620033df62004028565b50505b6001600160a01b038116620034345760405162461bcd60e51b8152600401808060200182810382526026815260200180620049ad60269139604001915050604051809103906200343162004028565b50505b6001600160a01b038116600060336200344c620041e8565b906101000a90046001600160a01b03166001600160a01b031660008051602062004a4283398151915260405160405180910390a380603360018162003490620041e8565b816001600160a01b0302191690836001600160a01b031602179062000d6c62004235565b600073Df1a401d704fD9Ad4B16F756621A02B718C19332635e58579c60c9878787876040518663ffffffff1660e01b815260040180868152602001856001600160a01b031681526020018060200183151581526020018281038252858582818152602001925060200280828437600083820152601f01601f1916909101975060209650604095505050505050518083038186806200355162004095565b15801562003569576000806200356662004028565b50505b505a62003575620040f2565b505050505015801562003597573d6000803e3d60006200359462004028565b50505b505050506040513d6020811015620035b957600080620035b662004028565b50505b81019080805198975050505050505050565b60005a620035d8620042cb565b905090565b620035e7620018ee565b6200363a5760405162461bcd60e51b815260206004820152601460248201527314185d5cd8589b194e881b9bdd081c185d5cd95960621b6044820152606401604051809103906200363762004028565b50505b600060656001816200364b620041e8565b8160ff021916908315150217906200366262004235565b5050507f5db9ee0a495bf2e6ff9c91a7834c1ba4fdd244a5e8aa4e537bd38aeae4b073aa62003690620035cb565b6040516001600160a01b03909116815260200160405180910390a1565b620036b7620018ee565b15620037075760405162461bcd60e51b815260206004820152601060248201526f14185d5cd8589b194e881c185d5cd95960821b6044820152606401604051809103906200370462004028565b50505b60016065818162003717620041e8565b8160ff021916908315150217906200372e62004235565b5050507f62e78cea01bee320cd4e420270b5ea74000d11b0c9f74754ebdbfc544b05a25862003690620035cb565b6000620037c35a63996d79a5598160e01b8152602081600483336000905af158600e01573d6000803e3d6000fd5b3d6001141558600a015760016000f35b8051925060005b6040811015620037ba57600082820152602001620037a1565b50505062003b19565b15905090565b60016000620037d7620041e8565b906101000a900460ff1680620037f25750620037f26200375c565b8062003812575060008062003806620041e8565b906101000a900460ff16155b6200385a5760405162461bcd60e51b815260040180806020018281038252602e815260200180620049d3602e9139604001915050604051809103906200385762004028565b50505b600060018162003869620041e8565b906101000a900460ff161590508015620038d85760016000610100816200388f620041e8565b8160ff02191690831515021790620038a662004235565b50505060016000806101000a81620038bd620041e8565b8160ff02191690831515021790620038d462004235565b5050505b620038e262003b30565b620038ec62003c56565b620038f662003dea565b80156200392557600080610100816200390e620041e8565b8160ff0219169083151502179062000d6c62004235565b50565b6001600062003936620041e8565b906101000a900460ff1680620039515750620039516200375c565b8062003971575060008062003965620041e8565b906101000a900460ff16155b620039b95760405162461bcd60e51b815260040180806020018281038252602e815260200180620049d3602e913960400191505060405180910390620039b662004028565b50505b6000600181620039c8620041e8565b906101000a900460ff16159050801562003a37576001600061010081620039ee620041e8565b8160ff0219169083151502179062003a0562004235565b50505060016000806101000a8162003a1c620041e8565b8160ff0219169083151502179062003a3362004235565b5050505b620038f662003f0a565b60008282111562003aa35760405162461bcd60e51b815260206004820152601e60248201527f536166654d6174683a207375627472616374696f6e206f766572666c6f77000060448201526064016040518091039062003aa062004028565b50505b50900390565b60008262003aba5750600062001a3d565b8282028284828162003ac857fe5b041462003b125760405162461bcd60e51b815260040180806020018281038252602181526020018062004a01602191396040019150506040518091039062003b0f62004028565b50505b9392505050565b6000808262003b2762004095565b15159392505050565b6001600062003b3e620041e8565b906101000a900460ff168062003b59575062003b596200375c565b8062003b79575060008062003b6d620041e8565b906101000a900460ff16155b62003bc15760405162461bcd60e51b815260040180806020018281038252602e815260200180620049d3602e91396040019150506040518091039062003bbe62004028565b50505b600060018162003bd0620041e8565b906101000a900460ff161590508015620038f657600160006101008162003bf6620041e8565b8160ff0219169083151502179062003c0d62004235565b50505060016000806101000a8162003c24620041e8565b8160ff0219169083151502179062003c3b62004235565b50505080156200392557600080610100816200390e620041e8565b6001600062003c64620041e8565b906101000a900460ff168062003c7f575062003c7f6200375c565b8062003c9f575060008062003c93620041e8565b906101000a900460ff16155b62003ce75760405162461bcd60e51b815260040180806020018281038252602e815260200180620049d3602e91396040019150506040518091039062003ce462004028565b50505b600060018162003cf6620041e8565b906101000a900460ff16159050801562003d6557600160006101008162003d1c620041e8565b8160ff0219169083151502179062003d3362004235565b50505060016000806101000a8162003d4a620041e8565b8160ff0219169083151502179062003d6162004235565b5050505b600062003d71620035cb565b905080603360018162003d83620041e8565b816001600160a01b0302191690836001600160a01b031602179062003da762004235565b5050506001600160a01b038116600060008051602062004a4283398151915260405160405180910390a35080156200392557600080610100816200390e620041e8565b6001600062003df8620041e8565b906101000a900460ff168062003e13575062003e136200375c565b8062003e33575060008062003e27620041e8565b906101000a900460ff16155b62003e7b5760405162461bcd60e51b815260040180806020018281038252602e815260200180620049d3602e91396040019150506040518091039062003e7862004028565b50505b600060018162003e8a620041e8565b906101000a900460ff16159050801562003ef957600160006101008162003eb0620041e8565b8160ff0219169083151502179062003ec762004235565b50505060016000806101000a8162003ede620041e8565b8160ff0219169083151502179062003ef562004235565b5050505b6000606560018162003c24620041e8565b6001600062003f18620041e8565b906101000a900460ff168062003f33575062003f336200375c565b8062003f53575060008062003f47620041e8565b906101000a900460ff16155b62003f9b5760405162461bcd60e51b815260040180806020018281038252602e815260200180620049d3602e91396040019150506040518091039062003f9862004028565b50505b600060018162003faa620041e8565b906101000a900460ff1615905080156200401957600160006101008162003fd0620041e8565b8160ff0219169083151502179062003fe762004235565b50505060016000806101000a8162003ffe620041e8565b8160ff021916908315150217906200401562004235565b5050505b600180609762003c3b62004235565b632a2a7adb598160e01b8152600481016020815285602082015260005b868110156200406257808601518282016040015260200162004045565b506020828760640184336000905af158600e01573d6000803e3d6000fd5b3d6001141558600a015760016000f35b505050565b638435035b598160e01b8152836004820152602081602483336000905af158600e01573d6000803e3d6000fd5b3d6001141558600a015760016000f35b8051935060005b604081101562001b2d57600082820152602001620040d9565b63ffe73914598160e01b815262004126565b808083111562001a3d575090919050565b808083101562001a3d575090919050565b836004820152846024820152606060448201528660648201526084810160005b888110156200416057808801518282015260200162004146565b506060828960a40184336000905af158600e01573d6000803e3d6000fd5b3d6001141558600a015760016000f35b815160408301513d6000853e8b8b82606087013350600060045af15059620041b78d3d62004115565b8c01620041c5818762004104565b5b82811015620041dc5760008152602001620041c6565b50929c50505050505050565b6303daa959598160e01b8152836004820152602081602483336000905af158600e01573d6000803e3d6000fd5b3d6001141558600a015760016000f35b80516000825293506020620040d9565b6322bd64c0598160e01b8152836004820152846024820152600081604483336000905af158600e01573d6000803e3d6000fd5b3d6001141558600a015760016000f35b600081526020620040d9565b63bdbf8c36598160e01b8152602081600483336000905af158600e01573d6000803e3d6000fd5b3d6001141558600a015760016000f35b80516000825293506020620040d9565b6373509064598160e01b8152602081600483336000905af158600e01573d6000803e3d6000fd5b3d6001141558600a015760016000f35b80516000825293506020620040d9565b6103b880620045d583390190565b6314aa2ff7598160e01b8152600481016020815286602082015260005b878110156200435a5780870151828201604001526020016200433d565b506020828860640184336000905af158600e01573d6000803e3d6000fd5b3d6001141558600a015760016000f35b8151965059825b81811015620011ea57600081526020016200438f565b6385979f76598160e01b8152836004820152846024820152606060448201528760648201526084810160005b89811015620043eb578089015182820152602001620043d1565b506060828a60a40184336000905af158600e01573d6000803e3d6000fd5b3d6001141558600a015760016000f35b815160408301513d6000853e8c8c82606087013350600060045af15059620044428e3d62004115565b8d0162004450818762004104565b5b8281101562004467576000815260200162004451565b50929d50505050505050565b82806200447f620041e8565b82826200448b62004235565b5050906000526020600020908101928215620044f8579160200282015b82811115620044f857825182600181620044c1620041e8565b816001600160a01b0302191690836001600160a01b0316021790620044e562004235565b50505091602001919060010190620044a8565b506200450692915062004575565b5090565b828062004516620041e8565b82826200452262004235565b505090600052602060002090810192821562004567579160200282015b8281111562004567578251826200455562004235565b5050916020019190600101906200453f565b5062004506929150620045b1565b8082111562004506576000816001816200458e620041e8565b906001600160a01b0302191690620045a562004235565b50505060010162004575565b80821115620045065760008082620045c862004235565b505050600101620045b156fe60806040523480156100195760008061001661008a565b50505b506040516103b83803806103b8833981810160405260208110156100455760008061004261008a565b50505b81019080805192507f360894a13ba1a3210667c828492db98dca3e2076cc3735a920a3ca505d382bbc91506100779050565b81816100816100f5565b50505050610157565b632a2a7adb598160e01b8152600481016020815285602082015260005b868110156100c25780860151828201604001526020016100a7565b506020828760640184336000905af158600e01573d6000803e3d6000fd5b3d6001141558600a015760016000f35b505050565b6322bd64c0598160e01b8152836004820152846024820152600081604483336000905af158600e01573d6000803e3d6000fd5b3d6001141558600a015760016000f35b60005b60408110156101525760008282015260200161013b565b505050565b610252806101666000396000f3fe60806040523661001357610011610017565b005b6100115b61001f61002f565b61002f61002a610031565b610061565b565b60007f360894a13ba1a3210667c828492db98dca3e2076cc3735a920a3ca505d382bbc61005c61009f565b905090565b3660008037600080366000845a6100766100fa565b50505050503d6000803e80801561008c573d6000f35b3d60006100976101e7565b50505b505050565b6303daa959598160e01b8152836004820152602081602483336000905af158600e01573d6000803e3d6000fd5b3d6001141558600a015760016000f35b8051935060005b604081101561009a576000828201526020016100e3565b63ffe73914598160e01b815261012d565b80808311156101175750815b92915050565b8080831015610117575090919050565b836004820152846024820152606060448201528660648201526084810160005b8881101561016557808801518282015260200161014d565b506060828960a40184336000905af158600e01573d6000803e3d6000fd5b3d6001141558600a015760016000f35b815160408301513d6000853e8b8b82606087013350600060045af150596101ba8d3d61011d565b8c016101c6818761010b565b5b828110156101db57600081526020016101c7565b50929c50505050505050565b632a2a7adb598160e01b8152600481016020815285602082015260005b8681101561021f578086015182820160400152602001610204565b506020828760640184336000905af158600e01573d6000803e3d6000fd5b3d6001141558600a015760016000f35b505050565265656e7472616e637947756172643a207265656e7472616e742063616c6c004f776e61626c653a206e6577206f776e657220697320746865207a65726f2061646472657373496e697469616c697a61626c653a20636f6e747261637420697320616c726561647920696e697469616c697a6564536166654d6174683a206d756c7469706c69636174696f6e206f766572666c6f774f776e61626c653a2063616c6c6572206973206e6f7420746865206f776e65728be0079c531659141344cd1fd0a4f28419497f9722a3daafe3b4186f6b6457e0",
  "deployedBytecode": "0x60806040523480156200001c576000806200001962004028565b50505b5060043610620001b95760003560e01c80630419b45a14620001c95780630ba8195914620001d557806331cd52b014620001f157806334e1990714620002ed5780633e3a156014620003185780633f4ba83a14620003585780634a1b0d5714620003625780634d49e87d1462000396578063593d132c146200043c5780635c975abb146200046d5780635fd65f0f146200048b57806366c0bd2414620004e4578063715018a6146200052e5780637c61e561146200053857806382b8660014620005725780638456cb5914620005bc57806384cdd9bc14620005c65780638beb60b6146200066c5780638da5cb5b14620006975780639169558614620006a157806391ceb3eb14620006eb57806398899f401462000719578063a95b089f146200075c578063ac5bf263146200079a578063c00c125c14620007c5578063c4db7fa014620007ff578063d46300fd1462000809578063da7a77be1462000813578063df3ed68d1462000847578063e25aa5fa1462000b31578063ef0a712f1462000b3b578063f2fde38b1462000b66578063f9273ffb1462000b9a575b600080620001c662004028565b50505b620001d362000c4c565b005b620001df62000d72565b60405190815260200160405180910390f35b620002986004803603606081101562000214576000806200021162004028565b50505b81359190810190604081016020820135600160201b81111562000241576000806200023e62004028565b50505b8201836020820111156200025f576000806200025c62004028565b50505b803590602001918460208302840111600160201b831117156200028c576000806200028962004028565b50505b91935091503562000e3a565b60405160208082528190810183818151815260200191508051906020019060200280838360005b83811015620002d9578082015183820152602001620002bf565b505050509050019250505060405180910390f35b620001d36004803603602081101562000310576000806200030d62004028565b50505b5035620010dc565b620001df600480360360808110156200033b576000806200033862004028565b50505b5080359060ff6020820135169060408101359060600135620011f1565b620001d362001403565b620001df6004803603602081101562000385576000806200038262004028565b50505b50356001600160a01b031662001481565b620001df60048036036060811015620003b957600080620003b662004028565b50505b810190602081018135600160201b811115620003df57600080620003dc62004028565b50505b820183602082011115620003fd57600080620003fa62004028565b50505b803590602001918460208302840111600160201b831117156200042a576000806200042762004028565b50505b91935091508035906020013562001559565b620001d3600480360360408110156200045f576000806200045c62004028565b50505b508035906020013562001708565b62000477620018ee565b604051901515815260200160405180910390f35b620004956200190c565b60405197885260208801969096526040808801959095526060870193909352608086019190915260a085015260c08401526001600160a01b0390911660e0830152610100909101905180910390f35b620005186004803603602081101562000507576000806200050462004028565b50505b50356001600160a01b031662001999565b60405160ff909116815260200160405180910390f35b620001d362001a43565b62000298600480360360408110156200055b576000806200055862004028565b50505b506001600160a01b03813516906020013562001b32565b620005a06004803603602081101562000595576000806200059262004028565b50505b503560ff1662001cd0565b6040516001600160a01b03909116815260200160405180910390f35b620001d362001d79565b620001df60048036036060811015620005e957600080620005e662004028565b50505b810190602081018135600160201b8111156200060f576000806200060c62004028565b50505b8201836020820111156200062d576000806200062a62004028565b50505b803590602001918460208302840111600160201b831117156200065a576000806200065762004028565b50505b91935091508035906020013562001df5565b620001d3600480360360208110156200068f576000806200068c62004028565b50505b503562001fa4565b620005a06200206c565b620001df600480360360a0811015620006c457600080620006c162004028565b50505b5060ff81358116916020810135909116906040810135906060810135906080013562002090565b620001df600480360360208110156200070e576000806200070b62004028565b50505b503560ff16620022ba565b620001df600480360360608110156200073c576000806200073962004028565b50505b5080356001600160a01b0316906020810135906040013560ff166200234f565b620001df600480360360608110156200077f576000806200077c62004028565b50505b5060ff8135811691602081013590911690604001356200243a565b620001d360048036036020811015620007bd57600080620007ba62004028565b50505b5035620024a5565b620001d360048036036040811015620007e857600080620007e562004028565b50505b506001600160a01b0381351690602001356200256d565b620001d36200266a565b620001df620027f3565b620001df6004803603602081101562000836576000806200083362004028565b50505b50356001600160a01b031662002845565b620001d360048036036101208110156200086b576000806200086862004028565b50505b810190602081018135600160201b81111562000891576000806200088e62004028565b50505b820183602082011115620008af57600080620008ac62004028565b50505b803590602001918460208302840111600160201b83111715620008dc57600080620008d962004028565b50505b9190808060200260200160405190810160405280939291908181526020018383602002808284376000920191909152509295949360208101935035915050600160201b81111562000937576000806200093462004028565b50505b82018360208201111562000955576000806200095262004028565b50505b803590602001918460208302840111600160201b8311171562000982576000806200097f62004028565b50505b9190808060200260200160405190810160405280939291908181526020018383602002808284376000920191909152509295949360208101935035915050600160201b811115620009dd57600080620009da62004028565b50505b820183602082011115620009fb57600080620009f862004028565b50505b803590602001918460018302840111600160201b8311171562000a285760008062000a2562004028565b50505b91908080601f01602080910402602001604051908101604052818152929190602084018383808284376000920191909152509295949360208101935035915050600160201b81111562000a855760008062000a8262004028565b50505b82018360208201111562000aa35760008062000aa062004028565b50505b803590602001918460018302840111600160201b8311171562000ad05760008062000acd62004028565b50505b91908080601f016020809104026020016040519081016040528181529291906020840183838082843760009201919091525092955050823593505050602081013590604081013590606081013590608001356001600160a01b0316620028a6565b620001df620032c6565b620001df6004803603602081101562000b5e5760008062000b5b62004028565b50505b503562003318565b620001d36004803603602081101562000b895760008062000b8662004028565b50505b50356001600160a01b031662003370565b620001df6004803603606081101562000bbd5760008062000bba62004028565b50505b6001600160a01b038235169190810190604081016020820135600160201b81111562000bf35760008062000bf062004028565b50505b82018360208201111562000c115760008062000c0e62004028565b50505b803590602001918460208302840111600160201b8311171562000c3e5760008062000c3b62004028565b50505b9193509150351515620034b4565b62000c56620035cb565b6001600160a01b031662000c696200206c565b6001600160a01b03161462000cbe5760405162461bcd60e51b8152602060048201819052602482015260008051602062004a2283398151915260448201526064016040518091039062000cbb62004028565b50505b73__$a4e4384d4f8ec13c7a898ae597a4175ef6$__6324c5c75160c962000ce46200206c565b6040516001600160e01b031960e085901b16815260048101929092526001600160a01b03166024820152604401600060405180830381868062000d2662004095565b15801562000d3e5760008062000d3b62004028565b50505b505a62000d4a620040f2565b505050505015801562000d6c573d6000803e3d600062000d6962004028565b50505b50505050565b600073__$a4e4384d4f8ec13c7a898ae597a4175ef6$__63c9b64dcb60c96040516001600160e01b031960e084901b1681526004810191909152602401602060405180830381868062000dc462004095565b15801562000ddc5760008062000dd962004028565b50505b505a62000de8620040f2565b505050505015801562000e0a573d6000803e3d600062000e0762004028565b50505b505050506040513d602081101562000e2c5760008062000e2962004028565b50505b810190808051935050505090565b60606002609762000e4a620041e8565b141562000e975760405162461bcd60e51b815260206004820152601f60248201526000805160206200498d83398151915260448201526064016040518091039062000e9462004028565b50505b600280609762000ea662004235565b50505081805a62000eb662004284565b111562000f075760405162461bcd60e51b815260206004820152601060248201526f111958591b1a5b99481b9bdd081b595d60821b60448201526064016040518091039062000f0462004028565b50505b73__$a4e4384d4f8ec13c7a898ae597a4175ef6$__6373fd6b3e60c98888886040518563ffffffff1660e01b8152600401808581526020018481526020018060200182810382528484828181526020019250602002808284376000838201819052601f909101601f1916909201975090955060409450505050505180830381868062000f9262004095565b15801562000faa5760008062000fa762004028565b50505b505a62000fb6620040f2565b505050505015801562000fd8573d6000803e3d600062000fd562004028565b50505b505050506040513d6000823e601f3d908101601f1916820160405260208110156200100d576000806200100a62004028565b50505b8101908080516040519392919084600160201b82111562001038576000806200103562004028565b50505b90830190602082018581111562001059576000806200105662004028565b50505b82518660208202830111600160201b8211171562001081576000806200107e62004028565b50505b825250602001908051906020019060200280838360005b83811015620010b257808201518382015260200162001098565b505050509050016040525050509150506001806097620010d162004235565b505050949350505050565b620010e6620035cb565b6001600160a01b0316620010f96200206c565b6001600160a01b0316146200114e5760405162461bcd60e51b8152602060048201819052602482015260008051602062004a228339815191526044820152606401604051809103906200114b62004028565b50505b73__$a4e4384d4f8ec13c7a898ae597a4175ef6$__63467e186c60c9836040516001600160e01b031960e085901b168152600481019290925260248201526044016000604051808303818680620011a462004095565b158015620011bc57600080620011b962004028565b50505b505a620011c8620040f2565b5050505050158015620011ea573d6000803e3d6000620011e762004028565b50505b5050505050565b60006002609762001201620041e8565b14156200124e5760405162461bcd60e51b815260206004820152601f60248201526000805160206200498d8339815191526044820152606401604051809103906200124b62004028565b50505b60028060976200125d62004235565b5050506200126a620018ee565b15620012ba5760405162461bcd60e51b815260206004820152601060248201526f14185d5cd8589b194e881c185d5cd95960821b604482015260640160405180910390620012b762004028565b50505b81805a620012c762004284565b1115620013185760405162461bcd60e51b815260206004820152601060248201526f111958591b1a5b99481b9bdd081b595d60821b6044820152606401604051809103906200131562004028565b50505b73__$a4e4384d4f8ec13c7a898ae597a4175ef6$__63e7a4db8160c98888886040516001600160e01b031960e087901b1681526004810194909452602484019290925260ff166044830152606482015260840160206040518083038186806200138062004095565b15801562001398576000806200139562004028565b50505b505a620013a4620040f2565b5050505050158015620013c6573d6000803e3d6000620013c362004028565b50505b505050506040513d6020811015620013e857600080620013e562004028565b50505b8101908080519450505050506001806097620010d162004235565b6200140d620035cb565b6001600160a01b0316620014206200206c565b6001600160a01b031614620014755760405162461bcd60e51b8152602060048201819052602482015260008051602062004a228339815191526044820152606401604051809103906200147262004028565b50505b6200147f620035dd565b565b600073__$a4e4384d4f8ec13c7a898ae597a4175ef6$__63968e559460c9846040516001600160e01b031960e085901b16815260048101929092526001600160a01b031660248201526044016020604051808303818680620014e262004095565b158015620014fa57600080620014f762004028565b50505b505a62001506620040f2565b505050505015801562001528573d6000803e3d60006200152562004028565b50505b505050506040513d60208110156200154a576000806200154762004028565b50505b81019080805195945050505050565b60006002609762001569620041e8565b1415620015b65760405162461bcd60e51b815260206004820152601f60248201526000805160206200498d833981519152604482015260640160405180910390620015b362004028565b50505b6002806097620015c562004235565b505050620015d2620018ee565b15620016225760405162461bcd60e51b815260206004820152601060248201526f14185d5cd8589b194e881c185d5cd95960821b6044820152606401604051809103906200161f62004028565b50505b81805a6200162f62004284565b1115620016805760405162461bcd60e51b815260206004820152601060248201526f111958591b1a5b99481b9bdd081b595d60821b6044820152606401604051809103906200167d62004028565b50505b73__$a4e4384d4f8ec13c7a898ae597a4175ef6$__6340370edf60c98888886040518563ffffffff1660e01b815260040180858152602001806020018381526020018281038252858582818152602001925060200280828437600083820152601f01601f19169091019650602095506040945050505050518083038186806200138062004095565b62001712620035cb565b6001600160a01b0316620017256200206c565b6001600160a01b0316146200177a5760405162461bcd60e51b8152602060048201819052602482015260008051602062004a228339815191526044820152606401604051809103906200177762004028565b50505b73__$a50a14a4f4d416df093fe8223c9bbe01e7$__6378f201d860c973__$a4e4384d4f8ec13c7a898ae597a4175ef6$__63c9b64dcb826040516001600160e01b031960e084901b16815260048101919091526024016020604051808303818680620017e562004095565b158015620017fd57600080620017fa62004028565b50505b505a62001809620040f2565b50505050501580156200182b573d6000803e3d60006200182862004028565b50505b505050506040513d60208110156200184d576000806200184a62004028565b50505b81019080805192508791508690506040516001600160e01b031960e087901b16815260048101949094526024840192909252604483015260648201526084016000604051808303818680620018a162004095565b158015620018b957600080620018b662004028565b50505b505a620018c5620040f2565b505050505015801562000d69573d6000803e3d6000620018e462004028565b5050505050505050565b6000806065620018fd620041e8565b906101000a900460ff16905090565b60c98062001919620041e8565b908060010162001928620041e8565b908060020162001937620041e8565b908060030162001946620041e8565b908060040162001955620041e8565b908060050162001964620041e8565b908060060162001973620041e8565b9060006007820162001984620041e8565b906101000a90046001600160a01b0316905088565b6001600160a01b038116600090815260d76020528060408120600090620019bf620041e8565b906101000a900460ff169050826001600160a01b0316620019e08262001cd0565b6001600160a01b03161462001a3d5760405162461bcd60e51b8152602060048201526014602482015273151bdad95b88191bd95cc81b9bdd08195e1a5cdd60621b60448201526064016040518091039062001a3a62004028565b50505b92915050565b62001a4d620035cb565b6001600160a01b031662001a606200206c565b6001600160a01b03161462001ab55760405162461bcd60e51b8152602060048201819052602482015260008051602062004a2283398151915260448201526064016040518091039062001ab262004028565b50505b600080603362001ac4620041e8565b906101000a90046001600160a01b03166001600160a01b031660008051602062004a4283398151915260405160405180910390a36000603360018162001b09620041e8565b816001600160a01b0302191690836001600160a01b031602179062001b2d62004235565b505050565b606073__$a4e4384d4f8ec13c7a898ae597a4175ef6$__63f967a81f60c985856040516001600160e01b031960e086901b16815260048101939093526001600160a01b0390911660248301526044820152606401600060405180830381868062001b9b62004095565b15801562001bb35760008062001bb062004028565b50505b505a62001bbf620040f2565b505050505015801562001be1573d6000803e3d600062001bde62004028565b50505b505050506040513d6000823e601f3d908101601f19168201604052602081101562001c165760008062001c1362004028565b50505b8101908080516040519392919084600160201b82111562001c415760008062001c3e62004028565b50505b90830190602082018581111562001c625760008062001c5f62004028565b50505b82518660208202830111600160201b8211171562001c8a5760008062001c8762004028565b50505b825250602001908051906020019060200280838360005b8381101562001cbb57808201518382015260200162001ca1565b50505050905001604052505050905092915050565b600060d18062001cdf620041e8565b90508260ff161062001d315760405162461bcd60e51b815260206004820152600c60248201526b4f7574206f662072616e676560a01b60448201526064016040518091039062001d2e62004028565b50505b60d160ff83168162001d42620041e8565b811062001d4b57fe5b9060005260206000200160009062001d62620041e8565b906101000a90046001600160a01b03169050919050565b62001d83620035cb565b6001600160a01b031662001d966200206c565b6001600160a01b03161462001deb5760405162461bcd60e51b8152602060048201819052602482015260008051602062004a2283398151915260448201526064016040518091039062001de862004028565b50505b6200147f620036ad565b60006002609762001e05620041e8565b141562001e525760405162461bcd60e51b815260206004820152601f60248201526000805160206200498d83398151915260448201526064016040518091039062001e4f62004028565b50505b600280609762001e6162004235565b50505062001e6e620018ee565b1562001ebe5760405162461bcd60e51b815260206004820152601060248201526f14185d5cd8589b194e881c185d5cd95960821b60448201526064016040518091039062001ebb62004028565b50505b81805a62001ecb62004284565b111562001f1c5760405162461bcd60e51b815260206004820152601060248201526f111958591b1a5b99481b9bdd081b595d60821b60448201526064016040518091039062001f1962004028565b50505b73__$a4e4384d4f8ec13c7a898ae597a4175ef6$__6341b91c2660c98888886040518563ffffffff1660e01b815260040180858152602001806020018381526020018281038252858582818152602001925060200280828437600083820152601f01601f19169091019650602095506040945050505050518083038186806200138062004095565b62001fae620035cb565b6001600160a01b031662001fc16200206c565b6001600160a01b031614620020165760405162461bcd60e51b8152602060048201819052602482015260008051602062004a228339815191526044820152606401604051809103906200201362004028565b50505b73__$a4e4384d4f8ec13c7a898ae597a4175ef6$__637046727660c9836040516001600160e01b031960e085901b168152600481019290925260248201526044016000604051808303818680620011a462004095565b60008060336200207b620041e8565b906101000a90046001600160a01b0316905090565b600060026097620020a0620041e8565b1415620020ed5760405162461bcd60e51b815260206004820152601f60248201526000805160206200498d833981519152604482015260640160405180910390620020ea62004028565b50505b6002806097620020fc62004235565b50505062002109620018ee565b15620021595760405162461bcd60e51b815260206004820152601060248201526f14185d5cd8589b194e881c185d5cd95960821b6044820152606401604051809103906200215662004028565b50505b81805a6200216662004284565b1115620021b75760405162461bcd60e51b815260206004820152601060248201526f111958591b1a5b99481b9bdd081b595d60821b604482015260640160405180910390620021b462004028565b50505b73__$a4e4384d4f8ec13c7a898ae597a4175ef6$__63a5397b2260c9898989896040516001600160e01b031960e088901b168152600481019590955260ff93841660248601529190921660448401526064830191909152608482015260a40160206040518083038186806200222b62004095565b15801562002243576000806200224062004028565b50505b505a6200224f620040f2565b505050505015801562002271573d6000803e3d60006200226e62004028565b50505b505050506040513d602081101562002293576000806200229062004028565b50505b8101908080519450505050506001806097620022ae62004235565b50505095945050505050565b600060d180620022c9620041e8565b90508260ff1610620023215760405162461bcd60e51b8152602060048201526012602482015271496e646578206f7574206f662072616e676560701b6044820152606401604051809103906200231e62004028565b50505b60d360ff83168162002332620041e8565b81106200233b57fe5b9060005260206000200162001a3d620041e8565b600073__$a4e4384d4f8ec13c7a898ae597a4175ef6$__63e4a9a0da60c98686866040516001600160e01b031960e087901b16815260048101949094526001600160a01b039092166024840152604483015260ff1660648201526084016020604051808303818680620023c162004095565b158015620023d957600080620023d662004028565b50505b505a620023e5620040f2565b505050505015801562002407573d6000803e3d60006200240462004028565b50505b505050506040513d602081101562002429576000806200242662004028565b50505b810190808051979650505050505050565b600073__$a4e4384d4f8ec13c7a898ae597a4175ef6$__634b23603c60c98686866040516001600160e01b031960e087901b168152600481019490945260ff92831660248501529116604483015260648201526084016020604051808303818680620023c162004095565b620024af620035cb565b6001600160a01b0316620024c26200206c565b6001600160a01b031614620025175760405162461bcd60e51b8152602060048201819052602482015260008051602062004a228339815191526044820152606401604051809103906200251462004028565b50505b73__$a4e4384d4f8ec13c7a898ae597a4175ef6$__638ab7697e60c9836040516001600160e01b031960e085901b168152600481019290925260248201526044016000604051808303818680620011a462004095565b600060d06200257b620041e8565b906101000a90046001600160a01b03166001600160a01b03165a6200259f620042cb565b6001600160a01b031614620026035760405162461bcd60e51b815260206004820152601b60248201527a27b7363c9031b0b63630b1363290313c903837b7b6103a37b5b2b760291b6044820152606401604051809103906200260062004028565b50505b73__$a4e4384d4f8ec13c7a898ae597a4175ef6$__63e9252d4660c984846040516001600160e01b031960e086901b16815260048101939093526001600160a01b03909116602483015260448201526064016000604051808303818680620018a162004095565b62002674620035cb565b6001600160a01b0316620026876200206c565b6001600160a01b031614620026dc5760405162461bcd60e51b8152602060048201819052602482015260008051602062004a22833981519152604482015260640160405180910390620026d962004028565b50505b73__$a50a14a4f4d416df093fe8223c9bbe01e7$__639d6b262460c973__$a4e4384d4f8ec13c7a898ae597a4175ef6$__63c9b64dcb826040516001600160e01b031960e084901b168152600481019190915260240160206040518083038186806200274762004095565b1580156200275f576000806200275c62004028565b50505b505a6200276b620040f2565b50505050501580156200278d573d6000803e3d60006200278a62004028565b50505b505050506040513d6020811015620027af57600080620027ac62004028565b50505b81019080805192506040915050516001600160e01b031960e085901b16815260048101929092526024820152604401600060405180830381868062000d2662004095565b600073__$a4e4384d4f8ec13c7a898ae597a4175ef6$__63b0a14cfc60c96040516001600160e01b031960e084901b1681526004810191909152602401602060405180830381868062000dc462004095565b600073__$a4e4384d4f8ec13c7a898ae597a4175ef6$__63e8c47a5460c9846040516001600160e01b031960e085901b16815260048101929092526001600160a01b031660248201526044016020604051808303818680620014e262004095565b60016000620028b4620041e8565b906101000a900460ff1680620028cf5750620028cf6200375c565b80620028ef5750600080620028e3620041e8565b906101000a900460ff16155b620029375760405162461bcd60e51b815260040180806020018281038252602e815260200180620049d3602e9139604001915050604051809103906200293462004028565b50505b600060018162002946620041e8565b906101000a900460ff161590508015620029b55760016000610100816200296c620041e8565b8160ff021916908315150217906200298362004235565b50505060016000806101000a816200299a620041e8565b8160ff02191690831515021790620029b162004235565b5050505b620029bf620037c9565b620029c962003928565b60018a511162002a265760405162461bcd60e51b81526020600482015260196024820152785f706f6f6c6564546f6b656e732e6c656e677468203c3d203160381b60448201526064016040518091039062002a2362004028565b50505b60208a51111562002a845760405162461bcd60e51b81526020600482015260196024820152782fb837b7b632b22a37b5b2b739973632b733ba34101f10199960391b60448201526064016040518091039062002a8162004028565b50505b88518a511462002ae55760405162461bcd60e51b815260206004820152601f60248201527f5f706f6f6c6564546f6b656e7320646563696d616c73206d69736d617463680060448201526064016040518091039062002ae262004028565b50505b606089516001600160401b038111801562002b0a5760008062002b0762004028565b50505b5060405190808252806020026020018201604052801562002b35578160200160208202803683370190505b50905060005b8b518160ff16101562002df05760ff81161562002c425760d760008d8360ff168151811062002b6657fe5b60200260200101516001600160a01b03166001600160a01b0316815260200190815260200160002060009062002b9b620041e8565b60ff6101009290920a90041615801562002bf357508b8160ff168151811062002bc057fe5b60200260200101516001600160a01b03168c60008151811062002bdf57fe5b60200260200101516001600160a01b031614155b62002c425760405162461bcd60e51b815260206004820152601060248201526f4475706c696361746520746f6b656e7360801b60448201526064016040518091039062002c3f62004028565b50505b60008c60ff83168151811062002c5457fe5b60200260200101516001600160a01b0316141562002cc35760405162461bcd60e51b815260206004820152601d60248201527f546865203020616464726573732069736e277420616e204552432d323000000060448201526064016040518091039062002cc062004028565b50505b60128b60ff83168151811062002cd557fe5b602002602001015160ff16111562002d3b5760405162461bcd60e51b815260206004820152601a6024820152790a8ded6cadc40c8cac6d2dac2d8e640caf0c6cacac8e640dac2f60331b60448201526064016040518091039062002d3862004028565b50505b62002d638b8260ff168151811062002d4f57fe5b602002602001015160129060ff1662003a41565b600a0a828260ff168151811062002d7657fe5b6020026020010181815250508060d760008e8460ff168151811062002d9757fe5b60200260200101516001600160a01b03166001600160a01b0316815260200190815260200160002060018162002dcc620041e8565b8160ff021916908360ff1602179062002de462004235565b50505060010162002b3b565b50620f4240871062002e485760405162461bcd60e51b81526020600482015260126024820152715f612065786365656473206d6178696d756d60701b60448201526064016040518091039062002e4562004028565b50505b6305f5e100861062002ea25760405162461bcd60e51b81526020600482015260146024820152735f6665652065786365656473206d6178696d756d60601b60448201526064016040518091039062002e9f62004028565b50505b6402540be400851062002f025760405162461bcd60e51b81526020600482015260196024820152785f61646d696e4665652065786365656473206d6178696d756d60381b60448201526064016040518091039062002eff62004028565b50505b6305f5e100841062002f645760405162461bcd60e51b815260206004820152601c60248201527b5f77697468647261774665652065786365656473206d6178696d756d60201b60448201526064016040518091039062002f6162004028565b50505b60008360405162002f759062004312565b6001600160a01b03909116815260200160405180910390600062002f9862004320565b50508015801562002fb8573d6000803e3d600062002fb562004028565b50505b509050806001600160a01b0316634cd88b768b8b6040518363ffffffff1660e01b8152600401808060200180602001838103835285818151815260200191508051906020019080838360005b838110156200301e57808201518382015260200162003004565b50505050905090810190601f1680156200304c5780820380516001836020036101000a031916815260200191505b50838103825284818151815260200191508051906020019080838360005b83811015620030845780820151838201526020016200306a565b50505050905090810190601f168015620030b25780820380516001836020036101000a031916815260200191505b5094505050505060006040518083038160008780620030d062004095565b158015620030e857600080620030e562004028565b50505b505a620030f4620043a5565b50505050505015801562003117573d6000803e3d60006200311462004028565b50505b5083925060d0915060019050816200312e620041e8565b816001600160a01b0302191690836001600160a01b03160217906200315262004235565b5060d191508d905080516200316c92916020019062004473565b5060d2828051620031829291602001906200450a565b508b516001600160401b0381118015620031a657600080620031a362004028565b50505b50604051908082528060200260200182016040528015620031d1578160200160208202803683370190505b5060d3908051620031e79291602001906200450a565b50620031f588606462003aa9565b8060c96200320262004235565b50620032149150899050606462003aa9565b8060ca6200322162004235565b506000915081905060cb6200323562004235565b506000915081905060cc6200324962004235565b5088915081905060cd6200325c62004235565b5087915081905060ce6200326f62004235565b5086915081905060cf6200328262004235565b50505050508015620032ba57600080610100816200329f620041e8565b8160ff02191690831515021790620032b662004235565b5050505b50505050505050505050565b600073__$a4e4384d4f8ec13c7a898ae597a4175ef6$__6371906c2c60c96040516001600160e01b031960e084901b1681526004810191909152602401602060405180830381868062000dc462004095565b600073__$a4e4384d4f8ec13c7a898ae597a4175ef6$__637d04816060c9846040516001600160e01b031960e085901b168152600481019290925260248201526044016020604051808303818680620014e262004095565b6200337a620035cb565b6001600160a01b03166200338d6200206c565b6001600160a01b031614620033e25760405162461bcd60e51b8152602060048201819052602482015260008051602062004a22833981519152604482015260640160405180910390620033df62004028565b50505b6001600160a01b038116620034345760405162461bcd60e51b8152600401808060200182810382526026815260200180620049ad60269139604001915050604051809103906200343162004028565b50505b6001600160a01b038116600060336200344c620041e8565b906101000a90046001600160a01b03166001600160a01b031660008051602062004a4283398151915260405160405180910390a380603360018162003490620041e8565b816001600160a01b0302191690836001600160a01b031602179062000d6c62004235565b600073__$a4e4384d4f8ec13c7a898ae597a4175ef6$__635e58579c60c9878787876040518663ffffffff1660e01b815260040180868152602001856001600160a01b031681526020018060200183151581526020018281038252858582818152602001925060200280828437600083820152601f01601f1916909101975060209650604095505050505050518083038186806200355162004095565b15801562003569576000806200356662004028565b50505b505a62003575620040f2565b505050505015801562003597573d6000803e3d60006200359462004028565b50505b505050506040513d6020811015620035b957600080620035b662004028565b50505b81019080805198975050505050505050565b60005a620035d8620042cb565b905090565b620035e7620018ee565b6200363a5760405162461bcd60e51b815260206004820152601460248201527314185d5cd8589b194e881b9bdd081c185d5cd95960621b6044820152606401604051809103906200363762004028565b50505b600060656001816200364b620041e8565b8160ff021916908315150217906200366262004235565b5050507f5db9ee0a495bf2e6ff9c91a7834c1ba4fdd244a5e8aa4e537bd38aeae4b073aa62003690620035cb565b6040516001600160a01b03909116815260200160405180910390a1565b620036b7620018ee565b15620037075760405162461bcd60e51b815260206004820152601060248201526f14185d5cd8589b194e881c185d5cd95960821b6044820152606401604051809103906200370462004028565b50505b60016065818162003717620041e8565b8160ff021916908315150217906200372e62004235565b5050507f62e78cea01bee320cd4e420270b5ea74000d11b0c9f74754ebdbfc544b05a25862003690620035cb565b6000620037c35a63996d79a5598160e01b8152602081600483336000905af158601d01573d60011458600c01573d6000803e3d621234565260ea61109c528051925060005b6040811015620037ba57600082820152602001620037a1565b50505062003b19565b15905090565b60016000620037d7620041e8565b906101000a900460ff1680620037f25750620037f26200375c565b8062003812575060008062003806620041e8565b906101000a900460ff16155b6200385a5760405162461bcd60e51b815260040180806020018281038252602e815260200180620049d3602e9139604001915050604051809103906200385762004028565b50505b600060018162003869620041e8565b906101000a900460ff161590508015620038d85760016000610100816200388f620041e8565b8160ff02191690831515021790620038a662004235565b50505060016000806101000a81620038bd620041e8565b8160ff02191690831515021790620038d462004235565b5050505b620038e262003b30565b620038ec62003c56565b620038f662003dea565b80156200392557600080610100816200390e620041e8565b8160ff0219169083151502179062000d6c62004235565b50565b6001600062003936620041e8565b906101000a900460ff1680620039515750620039516200375c565b8062003971575060008062003965620041e8565b906101000a900460ff16155b620039b95760405162461bcd60e51b815260040180806020018281038252602e815260200180620049d3602e913960400191505060405180910390620039b662004028565b50505b6000600181620039c8620041e8565b906101000a900460ff16159050801562003a37576001600061010081620039ee620041e8565b8160ff0219169083151502179062003a0562004235565b50505060016000806101000a8162003a1c620041e8565b8160ff0219169083151502179062003a3362004235565b5050505b620038f662003f0a565b60008282111562003aa35760405162461bcd60e51b815260206004820152601e60248201527f536166654d6174683a207375627472616374696f6e206f766572666c6f77000060448201526064016040518091039062003aa062004028565b50505b50900390565b60008262003aba5750600062001a3d565b8282028284828162003ac857fe5b041462003b125760405162461bcd60e51b815260040180806020018281038252602181526020018062004a01602191396040019150506040518091039062003b0f62004028565b50505b9392505050565b6000808262003b2762004095565b15159392505050565b6001600062003b3e620041e8565b906101000a900460ff168062003b59575062003b596200375c565b8062003b79575060008062003b6d620041e8565b906101000a900460ff16155b62003bc15760405162461bcd60e51b815260040180806020018281038252602e815260200180620049d3602e91396040019150506040518091039062003bbe62004028565b50505b600060018162003bd0620041e8565b906101000a900460ff161590508015620038f657600160006101008162003bf6620041e8565b8160ff0219169083151502179062003c0d62004235565b50505060016000806101000a8162003c24620041e8565b8160ff0219169083151502179062003c3b62004235565b50505080156200392557600080610100816200390e620041e8565b6001600062003c64620041e8565b906101000a900460ff168062003c7f575062003c7f6200375c565b8062003c9f575060008062003c93620041e8565b906101000a900460ff16155b62003ce75760405162461bcd60e51b815260040180806020018281038252602e815260200180620049d3602e91396040019150506040518091039062003ce462004028565b50505b600060018162003cf6620041e8565b906101000a900460ff16159050801562003d6557600160006101008162003d1c620041e8565b8160ff0219169083151502179062003d3362004235565b50505060016000806101000a8162003d4a620041e8565b8160ff0219169083151502179062003d6162004235565b5050505b600062003d71620035cb565b905080603360018162003d83620041e8565b816001600160a01b0302191690836001600160a01b031602179062003da762004235565b5050506001600160a01b038116600060008051602062004a4283398151915260405160405180910390a35080156200392557600080610100816200390e620041e8565b6001600062003df8620041e8565b906101000a900460ff168062003e13575062003e136200375c565b8062003e33575060008062003e27620041e8565b906101000a900460ff16155b62003e7b5760405162461bcd60e51b815260040180806020018281038252602e815260200180620049d3602e91396040019150506040518091039062003e7862004028565b50505b600060018162003e8a620041e8565b906101000a900460ff16159050801562003ef957600160006101008162003eb0620041e8565b8160ff0219169083151502179062003ec762004235565b50505060016000806101000a8162003ede620041e8565b8160ff0219169083151502179062003ef562004235565b5050505b6000606560018162003c24620041e8565b6001600062003f18620041e8565b906101000a900460ff168062003f33575062003f336200375c565b8062003f53575060008062003f47620041e8565b906101000a900460ff16155b62003f9b5760405162461bcd60e51b815260040180806020018281038252602e815260200180620049d3602e91396040019150506040518091039062003f9862004028565b50505b600060018162003faa620041e8565b906101000a900460ff1615905080156200401957600160006101008162003fd0620041e8565b8160ff0219169083151502179062003fe762004235565b50505060016000806101000a8162003ffe620041e8565b8160ff021916908315150217906200401562004235565b5050505b600180609762003c3b62004235565b632a2a7adb598160e01b8152600481016020815285602082015260005b868110156200406257808601518282016040015260200162004045565b506020828760640184336000905af158601d01573d60011458600c01573d6000803e3d621234565260ea61109c52505050565b638435035b598160e01b8152836004820152602081602483336000905af158601d01573d60011458600c01573d6000803e3d621234565260ea61109c528051935060005b604081101562001b2d57600082820152602001620040d9565b63ffe73914598160e01b815262004126565b808083111562001a3d575090919050565b808083101562001a3d575090919050565b836004820152846024820152606060448201528660648201526084810160005b888110156200416057808801518282015260200162004146565b506060828960a40184336000905af158601d01573d60011458600c01573d6000803e3d621234565260ea61109c52815160408301513d6000853e8b8b82606087013350600060045af15059620041b78d3d62004115565b8c01620041c5818762004104565b5b82811015620041dc5760008152602001620041c6565b50929c50505050505050565b6303daa959598160e01b8152836004820152602081602483336000905af158601d01573d60011458600c01573d6000803e3d621234565260ea61109c5280516000825293506020620040d9565b6322bd64c0598160e01b8152836004820152846024820152600081604483336000905af158601d01573d60011458600c01573d6000803e3d621234565260ea61109c52600081526020620040d9565b63bdbf8c36598160e01b8152602081600483336000905af158601d01573d60011458600c01573d6000803e3d621234565260ea61109c5280516000825293506020620040d9565b6373509064598160e01b8152602081600483336000905af158601d01573d60011458600c01573d6000803e3d621234565260ea61109c5280516000825293506020620040d9565b6103b880620045d583390190565b6314aa2ff7598160e01b8152600481016020815286602082015260005b878110156200435a5780870151828201604001526020016200433d565b506020828860640184336000905af158601d01573d60011458600c01573d6000803e3d621234565260ea61109c528151965059825b81811015620011ea57600081526020016200438f565b6385979f76598160e01b8152836004820152846024820152606060448201528760648201526084810160005b89811015620043eb578089015182820152602001620043d1565b506060828a60a40184336000905af158601d01573d60011458600c01573d6000803e3d621234565260ea61109c52815160408301513d6000853e8c8c82606087013350600060045af15059620044428e3d62004115565b8d0162004450818762004104565b5b8281101562004467576000815260200162004451565b50929d50505050505050565b82806200447f620041e8565b82826200448b62004235565b5050906000526020600020908101928215620044f8579160200282015b82811115620044f857825182600181620044c1620041e8565b816001600160a01b0302191690836001600160a01b0316021790620044e562004235565b50505091602001919060010190620044a8565b506200450692915062004575565b5090565b828062004516620041e8565b82826200452262004235565b505090600052602060002090810192821562004567579160200282015b8281111562004567578251826200455562004235565b5050916020019190600101906200453f565b5062004506929150620045b1565b8082111562004506576000816001816200458e620041e8565b906001600160a01b0302191690620045a562004235565b50505060010162004575565b80821115620045065760008082620045c862004235565b505050600101620045b156fe60806040523480156100195760008061001661008a565b50505b506040516103b83803806103b8833981810160405260208110156100455760008061004261008a565b50505b81019080805192507f360894a13ba1a3210667c828492db98dca3e2076cc3735a920a3ca505d382bbc91506100779050565b81816100816100f5565b50505050610157565b632a2a7adb598160e01b8152600481016020815285602082015260005b868110156100c25780860151828201604001526020016100a7565b506020828760640184336000905af158601d01573d60011458600c01573d6000803e3d621234565260ea61109c52505050565b6322bd64c0598160e01b8152836004820152846024820152600081604483336000905af158601d01573d60011458600c01573d6000803e3d621234565260ea61109c5260005b60408110156101525760008282015260200161013b565b505050565b610252806101666000396000f3fe60806040523661001357610011610017565b005b6100115b61001f61002f565b61002f61002a610031565b610061565b565b60007f360894a13ba1a3210667c828492db98dca3e2076cc3735a920a3ca505d382bbc61005c61009f565b905090565b3660008037600080366000845a6100766100fa565b50505050503d6000803e80801561008c573d6000f35b3d60006100976101e7565b50505b505050565b6303daa959598160e01b8152836004820152602081602483336000905af158601d01573d60011458600c01573d6000803e3d621234565260ea61109c528051935060005b604081101561009a576000828201526020016100e3565b63ffe73914598160e01b815261012d565b80808311156101175750815b92915050565b8080831015610117575090919050565b836004820152846024820152606060448201528660648201526084810160005b8881101561016557808801518282015260200161014d565b506060828960a40184336000905af158601d01573d60011458600c01573d6000803e3d621234565260ea61109c52815160408301513d6000853e8b8b82606087013350600060045af150596101ba8d3d61011d565b8c016101c6818761010b565b5b828110156101db57600081526020016101c7565b50929c50505050505050565b632a2a7adb598160e01b8152600481016020815285602082015260005b8681101561021f578086015182820160400152602001610204565b506020828760640184336000905af158601d01573d60011458600c01573d6000803e3d621234565260ea61109c52505050565265656e7472616e637947756172643a207265656e7472616e742063616c6c004f776e61626c653a206e6577206f776e657220697320746865207a65726f2061646472657373496e697469616c697a61626c653a20636f6e747261637420697320616c726561647920696e697469616c697a6564536166654d6174683a206d756c7469706c69636174696f6e206f766572666c6f774f776e61626c653a2063616c6c6572206973206e6f7420746865206f776e65728be0079c531659141344cd1fd0a4f28419497f9722a3daafe3b4186f6b6457e0",
  "libraries": {
    "AmplificationUtils": "0xa74Fc685B1987f751877098d704609ed4b9FC898",
    "SwapUtils": "0xDf1a401d704fD9Ad4B16F756621A02B718C19332"
  },
  "devdoc": {
    "details": "Most of the logic is stored as a library `SwapUtils` for the sake of reducing contract's deployment size.",
    "kind": "dev",
    "methods": {
      "addLiquidity(uint256[],uint256,uint256)": {
        "params": {
          "amounts": "the amounts of each token to add, in their native precision",
          "deadline": "latest timestamp to accept this transaction",
          "minToMint": "the minimum LP tokens adding this amount of liquidity should mint, otherwise revert. Handy for front-running mitigation"
        },
        "returns": {
          "_0": "amount of LP token user minted and received"
        }
      },
      "calculateCurrentWithdrawFee(address)": {
        "details": "returned value should be divided by FEE_DENOMINATOR to convert to correct decimals",
        "params": {
          "user": "address you want to calculate withdraw fee of"
        },
        "returns": {
          "_0": "current withdraw fee of the user"
        }
      },
      "calculateRemoveLiquidity(address,uint256)": {
        "params": {
          "account": "the address that is withdrawing tokens",
          "amount": "the amount of LP tokens that would be burned on withdrawal"
        },
        "returns": {
          "_0": "array of token balances that the user will receive"
        }
      },
      "calculateRemoveLiquidityOneToken(address,uint256,uint8)": {
        "params": {
          "account": "the address that is withdrawing tokens",
          "tokenAmount": "the amount of LP token to burn",
          "tokenIndex": "index of which token will be withdrawn"
        },
        "returns": {
          "availableTokenAmount": "calculated amount of underlying token available to withdraw"
        }
      },
      "calculateSwap(uint8,uint8,uint256)": {
        "params": {
          "dx": "the amount of tokens the user wants to sell. If the token charges a fee on transfers, use the amount that gets transferred after the fee.",
          "tokenIndexFrom": "the token the user wants to sell",
          "tokenIndexTo": "the token the user wants to buy"
        },
        "returns": {
          "_0": "amount of tokens the user will receive"
        }
      },
      "calculateTokenAmount(address,uint256[],bool)": {
        "details": "This shouldn't be used outside frontends for user estimates.",
        "params": {
          "account": "address that is depositing or withdrawing tokens",
          "amounts": "an array of token amounts to deposit or withdrawal, corresponding to pooledTokens. The amount should be in each pooled token's native precision. If a token charges a fee on transfers, use the amount that gets transferred after the fee.",
          "deposit": "whether this is a deposit or a withdrawal"
        },
        "returns": {
          "_0": "token amount the user will receive"
        }
      },
      "getA()": {
        "details": "See the StableSwap paper for details",
        "returns": {
          "_0": "A parameter"
        }
      },
      "getAPrecise()": {
        "details": "See the StableSwap paper for details",
        "returns": {
          "_0": "A parameter in its raw precision form"
        }
      },
      "getAdminBalance(uint256)": {
        "params": {
          "index": "Index of the pooled token"
        },
        "returns": {
          "_0": "admin's token balance in the token's precision"
        }
      },
      "getDepositTimestamp(address)": {
        "returns": {
          "_0": "timestamp of the last deposit made by the given address"
        }
      },
      "getToken(uint8)": {
        "params": {
          "index": "the index of the token"
        },
        "returns": {
          "_0": "address of the token at given index"
        }
      },
      "getTokenBalance(uint8)": {
        "params": {
          "index": "the index of the token"
        },
        "returns": {
          "_0": "current balance of the pooled token at given index with token's native precision"
        }
      },
      "getTokenIndex(address)": {
        "params": {
          "tokenAddress": "address of the token"
        },
        "returns": {
          "_0": "the index of the given token address"
        }
      },
      "getVirtualPrice()": {
        "returns": {
          "_0": "the virtual price, scaled to the POOL_PRECISION_DECIMALS"
        }
      },
      "initialize(address[],uint8[],string,string,uint256,uint256,uint256,uint256,address)": {
        "params": {
          "_a": "the amplification coefficient * n * (n - 1). See the StableSwap paper for details",
          "_adminFee": "default adminFee to be initialized with",
          "_fee": "default swap fee to be initialized with",
          "_pooledTokens": "an array of ERC20s this pool will accept",
          "_withdrawFee": "default withdrawFee to be initialized with",
          "decimals": "the decimals to use for each pooled token, eg 8 for WBTC. Cannot be larger than POOL_PRECISION_DECIMALS",
          "lpTokenName": "the long-form name of the token to be deployed",
          "lpTokenSymbol": "the short symbol for the token to be deployed",
          "lpTokenTargetAddress": "the address of an existing LPToken contract to use as a target"
        }
      },
      "owner()": {
        "details": "Returns the address of the current owner."
      },
      "paused()": {
        "details": "Returns true if the contract is paused, and false otherwise."
      },
      "rampA(uint256,uint256)": {
        "params": {
          "futureA": "the new A to ramp towards",
          "futureTime": "timestamp when the new A should be reached"
        }
      },
      "removeLiquidity(uint256,uint256[],uint256)": {
        "details": "Liquidity can always be removed, even when the pool is paused.",
        "params": {
          "amount": "the amount of LP tokens to burn",
          "deadline": "latest timestamp to accept this transaction",
          "minAmounts": "the minimum amounts of each token in the pool        acceptable for this burn. Useful as a front-running mitigation"
        },
        "returns": {
          "_0": "amounts of tokens user received"
        }
      },
      "removeLiquidityImbalance(uint256[],uint256,uint256)": {
        "params": {
          "amounts": "how much of each token to withdraw",
          "deadline": "latest timestamp to accept this transaction",
          "maxBurnAmount": "the max LP token provider is willing to pay to remove liquidity. Useful as a front-running mitigation."
        },
        "returns": {
          "_0": "amount of LP tokens burned"
        }
      },
      "removeLiquidityOneToken(uint256,uint8,uint256,uint256)": {
        "params": {
          "deadline": "latest timestamp to accept this transaction",
          "minAmount": "the minimum amount to withdraw, otherwise revert",
          "tokenAmount": "the amount of the token you want to receive",
          "tokenIndex": "the index of the token you want to receive"
        },
        "returns": {
          "_0": "amount of chosen token user received"
        }
      },
      "renounceOwnership()": {
        "details": "Leaves the contract without owner. It will not be possible to call `onlyOwner` functions anymore. Can only be called by the current owner. NOTE: Renouncing ownership will leave the contract without an owner, thereby removing any functionality that is only available to the owner."
      },
      "setAdminFee(uint256)": {
        "params": {
          "newAdminFee": "new admin fee to be applied on future transactions"
        }
      },
      "setDefaultWithdrawFee(uint256)": {
        "params": {
          "newWithdrawFee": "new withdraw fee to be applied on future deposits"
        }
      },
      "setSwapFee(uint256)": {
        "params": {
          "newSwapFee": "new swap fee to be applied on future transactions"
        }
      },
      "swap(uint8,uint8,uint256,uint256,uint256)": {
        "params": {
          "deadline": "latest timestamp to accept this transaction",
          "dx": "the amount of tokens the user wants to swap from",
          "minDy": "the min amount the user would like to receive, or revert.",
          "tokenIndexFrom": "the token the user wants to swap from",
          "tokenIndexTo": "the token the user wants to swap to"
        }
      },
      "transferOwnership(address)": {
        "details": "Transfers ownership of the contract to a new account (`newOwner`). Can only be called by the current owner."
      },
      "updateUserWithdrawFee(address,uint256)": {
        "params": {
          "recipient": "address of the recipient of pool token",
          "transferAmount": "amount of pool token to transfer"
        }
      }
    },
    "title": "Swap - A StableSwap implementation in solidity.",
    "version": 1
  },
  "userdoc": {
    "kind": "user",
    "methods": {
      "addLiquidity(uint256[],uint256,uint256)": {
        "notice": "Add liquidity to the pool with the given amounts of tokens"
      },
      "calculateCurrentWithdrawFee(address)": {
        "notice": "Calculate the fee that is applied when the given user withdraws. The withdraw fee decays linearly over period of 4 weeks. For example, depositing and withdrawing right away will charge you the full amount of withdraw fee. But withdrawing after 4 weeks will charge you no additional fees."
      },
      "calculateRemoveLiquidity(address,uint256)": {
        "notice": "A simple method to calculate amount of each underlying tokens that is returned upon burning given amount of LP tokens"
      },
      "calculateRemoveLiquidityOneToken(address,uint256,uint8)": {
        "notice": "Calculate the amount of underlying token available to withdraw when withdrawing via only single token"
      },
      "calculateSwap(uint8,uint8,uint256)": {
        "notice": "Calculate amount of tokens you receive on swap"
      },
      "calculateTokenAmount(address,uint256[],bool)": {
        "notice": "A simple method to calculate prices from deposits or withdrawals, excluding fees but including slippage. This is helpful as an input into the various \"min\" parameters on calls to fight front-running"
      },
      "getA()": {
        "notice": "Return A, the amplification coefficient * n * (n - 1)"
      },
      "getAPrecise()": {
        "notice": "Return A in its raw precision form"
      },
      "getAdminBalance(uint256)": {
        "notice": "This function reads the accumulated amount of admin fees of the token with given index"
      },
      "getDepositTimestamp(address)": {
        "notice": "Return timestamp of last deposit of given address"
      },
      "getToken(uint8)": {
        "notice": "Return address of the pooled token at given index. Reverts if tokenIndex is out of range."
      },
      "getTokenBalance(uint8)": {
        "notice": "Return current balance of the pooled token at given index"
      },
      "getTokenIndex(address)": {
        "notice": "Return the index of the given token address. Reverts if no matching token is found."
      },
      "getVirtualPrice()": {
        "notice": "Get the virtual price, to help calculate profit"
      },
      "initialize(address[],uint8[],string,string,uint256,uint256,uint256,uint256,address)": {
        "notice": "Initializes this Swap contract with the given parameters. This will also clone a LPToken contract that represents users' LP positions. The owner of LPToken will be this contract - which means only this contract is allowed to mint/burn tokens."
      },
      "pause()": {
        "notice": "Pause the contract. Revert if already paused."
      },
      "rampA(uint256,uint256)": {
        "notice": "Start ramping up or down A parameter towards given futureA and futureTime Checks if the change is too rapid, and commits the new A value only when it falls under the limit range."
      },
      "removeLiquidity(uint256,uint256[],uint256)": {
        "notice": "Burn LP tokens to remove liquidity from the pool. Withdraw fee that decays linearly over period of 4 weeks since last deposit will apply."
      },
      "removeLiquidityImbalance(uint256[],uint256,uint256)": {
        "notice": "Remove liquidity from the pool, weighted differently than the pool's current balances. Withdraw fee that decays linearly over period of 4 weeks since last deposit will apply."
      },
      "removeLiquidityOneToken(uint256,uint8,uint256,uint256)": {
        "notice": "Remove liquidity from the pool all in one token. Withdraw fee that decays linearly over period of 4 weeks since last deposit will apply."
      },
      "setAdminFee(uint256)": {
        "notice": "Update the admin fee. Admin fee takes portion of the swap fee."
      },
      "setDefaultWithdrawFee(uint256)": {
        "notice": "Update the withdraw fee. This fee decays linearly over 4 weeks since user's last deposit."
      },
      "setSwapFee(uint256)": {
        "notice": "Update the swap fee to be applied on swaps"
      },
      "stopRampA()": {
        "notice": "Stop ramping A immediately. Reverts if ramp A is already stopped."
      },
      "swap(uint8,uint8,uint256,uint256,uint256)": {
        "notice": "Swap two tokens using this pool"
      },
      "unpause()": {
        "notice": "Unpause the contract. Revert if already unpaused."
      },
      "updateUserWithdrawFee(address,uint256)": {
        "notice": "Updates the user withdraw fee. This function can only be called by the pool token. Should be used to update the withdraw fee on transfer of pool tokens. Transferring your pool token will reset the 4 weeks period. If the recipient is already holding some pool tokens, the withdraw fee will be discounted in respective amounts."
      },
      "withdrawAdminFees()": {
        "notice": "Withdraw all admin fees to the contract owner"
      }
    },
    "notice": "This contract is responsible for custody of closely pegged assets (eg. group of stablecoins) and automatic market making system. Users become an LP (Liquidity Provider) by depositing their tokens in desired ratios for an exchange of the pool token that represents their share of the pool. Users can burn pool tokens and withdraw their share of token(s). Each time a swap between the pooled tokens happens, a set fee incurs which effectively gets distributed to the LPs. In case of emergencies, admin can pause additional deposits, swaps, or single-asset withdraws - which stops the ratio of the tokens in the pool from changing. Users can always withdraw their tokens via multi-asset withdraws.",
    "version": 1
  },
  "storageLayout": {
    "storage": [
      {
        "astId": 492,
        "contract": "contracts/Swap.sol:Swap",
        "label": "_initialized",
        "offset": 0,
        "slot": "0",
        "type": "t_bool"
      },
      {
        "astId": 495,
        "contract": "contracts/Swap.sol:Swap",
        "label": "_initializing",
        "offset": 1,
        "slot": "0",
        "type": "t_bool"
      },
      {
        "astId": 1531,
        "contract": "contracts/Swap.sol:Swap",
        "label": "__gap",
        "offset": 0,
        "slot": "1",
        "type": "t_array(t_uint256)50_storage"
      },
      {
        "astId": 10,
        "contract": "contracts/Swap.sol:Swap",
        "label": "_owner",
        "offset": 0,
        "slot": "51",
        "type": "t_address"
      },
      {
        "astId": 129,
        "contract": "contracts/Swap.sol:Swap",
        "label": "__gap",
        "offset": 0,
        "slot": "52",
        "type": "t_array(t_uint256)49_storage"
      },
      {
        "astId": 1553,
        "contract": "contracts/Swap.sol:Swap",
        "label": "_paused",
        "offset": 0,
        "slot": "101",
        "type": "t_bool"
      },
      {
        "astId": 1644,
        "contract": "contracts/Swap.sol:Swap",
        "label": "__gap",
        "offset": 0,
        "slot": "102",
        "type": "t_array(t_uint256)49_storage"
      },
      {
        "astId": 1659,
        "contract": "contracts/Swap.sol:Swap",
        "label": "_status",
        "offset": 0,
        "slot": "151",
        "type": "t_uint256"
      },
      {
        "astId": 1702,
        "contract": "contracts/Swap.sol:Swap",
        "label": "__gap",
        "offset": 0,
        "slot": "152",
        "type": "t_array(t_uint256)49_storage"
      },
      {
        "astId": 6800,
        "contract": "contracts/Swap.sol:Swap",
        "label": "swapStorage",
        "offset": 0,
        "slot": "201",
        "type": "t_struct(Swap)8173_storage"
      },
      {
        "astId": 6803,
        "contract": "contracts/Swap.sol:Swap",
        "label": "initialized",
        "offset": 0,
        "slot": "214",
        "type": "t_bool"
      },
      {
        "astId": 6807,
        "contract": "contracts/Swap.sol:Swap",
        "label": "tokenIndexes",
        "offset": 0,
        "slot": "215",
        "type": "t_mapping(t_address,t_uint8)"
      }
    ],
    "types": {
      "t_address": {
        "encoding": "inplace",
        "label": "address",
        "numberOfBytes": "20"
      },
      "t_array(t_contract(IERC20)3228)dyn_storage": {
        "base": "t_contract(IERC20)3228",
        "encoding": "dynamic_array",
        "label": "contract IERC20[]",
        "numberOfBytes": "32"
      },
      "t_array(t_uint256)49_storage": {
        "base": "t_uint256",
        "encoding": "inplace",
        "label": "uint256[49]",
        "numberOfBytes": "1568"
      },
      "t_array(t_uint256)50_storage": {
        "base": "t_uint256",
        "encoding": "inplace",
        "label": "uint256[50]",
        "numberOfBytes": "1600"
      },
      "t_array(t_uint256)dyn_storage": {
        "base": "t_uint256",
        "encoding": "dynamic_array",
        "label": "uint256[]",
        "numberOfBytes": "32"
      },
      "t_bool": {
        "encoding": "inplace",
        "label": "bool",
        "numberOfBytes": "1"
      },
      "t_contract(IERC20)3228": {
        "encoding": "inplace",
        "label": "contract IERC20",
        "numberOfBytes": "20"
      },
      "t_contract(LPToken)6524": {
        "encoding": "inplace",
        "label": "contract LPToken",
        "numberOfBytes": "20"
      },
      "t_mapping(t_address,t_uint256)": {
        "encoding": "mapping",
        "key": "t_address",
        "label": "mapping(address => uint256)",
        "numberOfBytes": "32",
        "value": "t_uint256"
      },
      "t_mapping(t_address,t_uint8)": {
        "encoding": "mapping",
        "key": "t_address",
        "label": "mapping(address => uint8)",
        "numberOfBytes": "32",
        "value": "t_uint8"
      },
      "t_struct(Swap)8173_storage": {
        "encoding": "inplace",
        "label": "struct SwapUtils.Swap",
        "members": [
          {
            "astId": 8141,
            "contract": "contracts/Swap.sol:Swap",
            "label": "initialA",
            "offset": 0,
            "slot": "0",
            "type": "t_uint256"
          },
          {
            "astId": 8143,
            "contract": "contracts/Swap.sol:Swap",
            "label": "futureA",
            "offset": 0,
            "slot": "1",
            "type": "t_uint256"
          },
          {
            "astId": 8145,
            "contract": "contracts/Swap.sol:Swap",
            "label": "initialATime",
            "offset": 0,
            "slot": "2",
            "type": "t_uint256"
          },
          {
            "astId": 8147,
            "contract": "contracts/Swap.sol:Swap",
            "label": "futureATime",
            "offset": 0,
            "slot": "3",
            "type": "t_uint256"
          },
          {
            "astId": 8149,
            "contract": "contracts/Swap.sol:Swap",
            "label": "swapFee",
            "offset": 0,
            "slot": "4",
            "type": "t_uint256"
          },
          {
            "astId": 8151,
            "contract": "contracts/Swap.sol:Swap",
            "label": "adminFee",
            "offset": 0,
            "slot": "5",
            "type": "t_uint256"
          },
          {
            "astId": 8153,
            "contract": "contracts/Swap.sol:Swap",
            "label": "defaultWithdrawFee",
            "offset": 0,
            "slot": "6",
            "type": "t_uint256"
          },
          {
            "astId": 8155,
            "contract": "contracts/Swap.sol:Swap",
            "label": "lpToken",
            "offset": 0,
            "slot": "7",
            "type": "t_contract(LPToken)6524"
          },
          {
            "astId": 8158,
            "contract": "contracts/Swap.sol:Swap",
            "label": "pooledTokens",
            "offset": 0,
            "slot": "8",
            "type": "t_array(t_contract(IERC20)3228)dyn_storage"
          },
          {
            "astId": 8161,
            "contract": "contracts/Swap.sol:Swap",
            "label": "tokenPrecisionMultipliers",
            "offset": 0,
            "slot": "9",
            "type": "t_array(t_uint256)dyn_storage"
          },
          {
            "astId": 8164,
            "contract": "contracts/Swap.sol:Swap",
            "label": "balances",
            "offset": 0,
            "slot": "10",
            "type": "t_array(t_uint256)dyn_storage"
          },
          {
            "astId": 8168,
            "contract": "contracts/Swap.sol:Swap",
            "label": "depositTimestamp",
            "offset": 0,
            "slot": "11",
            "type": "t_mapping(t_address,t_uint256)"
          },
          {
            "astId": 8172,
            "contract": "contracts/Swap.sol:Swap",
            "label": "withdrawFeeMultiplier",
            "offset": 0,
            "slot": "12",
            "type": "t_mapping(t_address,t_uint256)"
          }
        ],
        "numberOfBytes": "416"
      },
      "t_uint256": {
        "encoding": "inplace",
        "label": "uint256",
        "numberOfBytes": "32"
      },
      "t_uint8": {
        "encoding": "inplace",
        "label": "uint8",
        "numberOfBytes": "1"
      }
    }
  }
}