{
  "address": "0xDf1a401d704fD9Ad4B16F756621A02B718C19332",
  "abi": [
    {
      "anonymous": false,
      "inputs": [
        {
          "indexed": true,
          "internalType": "address",
          "name": "provider",
          "type": "address"
        },
        {
          "indexed": false,
          "internalType": "uint256[]",
          "name": "tokenAmounts",
          "type": "uint256[]"
        },
        {
          "indexed": false,
          "internalType": "uint256[]",
          "name": "fees",
          "type": "uint256[]"
        },
        {
          "indexed": false,
          "internalType": "uint256",
          "name": "invariant",
          "type": "uint256"
        },
        {
          "indexed": false,
          "internalType": "uint256",
          "name": "lpTokenSupply",
          "type": "uint256"
        }
      ],
      "name": "AddLiquidity",
      "type": "event"
    },
    {
      "anonymous": false,
      "inputs": [
        {
          "indexed": false,
          "internalType": "uint256",
          "name": "newAdminFee",
          "type": "uint256"
        }
      ],
      "name": "NewAdminFee",
      "type": "event"
    },
    {
      "anonymous": false,
      "inputs": [
        {
          "indexed": false,
          "internalType": "uint256",
          "name": "newSwapFee",
          "type": "uint256"
        }
      ],
      "name": "NewSwapFee",
      "type": "event"
    },
    {
      "anonymous": false,
      "inputs": [
        {
          "indexed": false,
          "internalType": "uint256",
          "name": "newWithdrawFee",
          "type": "uint256"
        }
      ],
      "name": "NewWithdrawFee",
      "type": "event"
    },
    {
      "anonymous": false,
      "inputs": [
        {
          "indexed": true,
          "internalType": "address",
          "name": "provider",
          "type": "address"
        },
        {
          "indexed": false,
          "internalType": "uint256[]",
          "name": "tokenAmounts",
          "type": "uint256[]"
        },
        {
          "indexed": false,
          "internalType": "uint256",
          "name": "lpTokenSupply",
          "type": "uint256"
        }
      ],
      "name": "RemoveLiquidity",
      "type": "event"
    },
    {
      "anonymous": false,
      "inputs": [
        {
          "indexed": true,
          "internalType": "address",
          "name": "provider",
          "type": "address"
        },
        {
          "indexed": false,
          "internalType": "uint256[]",
          "name": "tokenAmounts",
          "type": "uint256[]"
        },
        {
          "indexed": false,
          "internalType": "uint256[]",
          "name": "fees",
          "type": "uint256[]"
        },
        {
          "indexed": false,
          "internalType": "uint256",
          "name": "invariant",
          "type": "uint256"
        },
        {
          "indexed": false,
          "internalType": "uint256",
          "name": "lpTokenSupply",
          "type": "uint256"
        }
      ],
      "name": "RemoveLiquidityImbalance",
      "type": "event"
    },
    {
      "anonymous": false,
      "inputs": [
        {
          "indexed": true,
          "internalType": "address",
          "name": "provider",
          "type": "address"
        },
        {
          "indexed": false,
          "internalType": "uint256",
          "name": "lpTokenAmount",
          "type": "uint256"
        },
        {
          "indexed": false,
          "internalType": "uint256",
          "name": "lpTokenSupply",
          "type": "uint256"
        },
        {
          "indexed": false,
          "internalType": "uint256",
          "name": "boughtId",
          "type": "uint256"
        },
        {
          "indexed": false,
          "internalType": "uint256",
          "name": "tokensBought",
          "type": "uint256"
        }
      ],
      "name": "RemoveLiquidityOne",
      "type": "event"
    },
    {
      "anonymous": false,
      "inputs": [
        {
          "indexed": true,
          "internalType": "address",
          "name": "buyer",
          "type": "address"
        },
        {
          "indexed": false,
          "internalType": "uint256",
          "name": "tokensSold",
          "type": "uint256"
        },
        {
          "indexed": false,
          "internalType": "uint256",
          "name": "tokensBought",
          "type": "uint256"
        },
        {
          "indexed": false,
          "internalType": "uint128",
          "name": "soldId",
          "type": "uint128"
        },
        {
          "indexed": false,
          "internalType": "uint128",
          "name": "boughtId",
          "type": "uint128"
        }
      ],
      "name": "TokenSwap",
      "type": "event"
    },
    {
      "inputs": [],
      "name": "A_PRECISION",
      "outputs": [
        {
          "internalType": "uint256",
          "name": "",
          "type": "uint256"
        }
      ],
      "stateMutability": "view",
      "type": "function"
    },
    {
      "inputs": [],
      "name": "MAX_ADMIN_FEE",
      "outputs": [
        {
          "internalType": "uint256",
          "name": "",
          "type": "uint256"
        }
      ],
      "stateMutability": "view",
      "type": "function"
    },
    {
      "inputs": [],
      "name": "MAX_SWAP_FEE",
      "outputs": [
        {
          "internalType": "uint256",
          "name": "",
          "type": "uint256"
        }
      ],
      "stateMutability": "view",
      "type": "function"
    },
    {
      "inputs": [],
      "name": "MAX_WITHDRAW_FEE",
      "outputs": [
        {
          "internalType": "uint256",
          "name": "",
          "type": "uint256"
        }
      ],
      "stateMutability": "view",
      "type": "function"
    },
    {
      "inputs": [],
      "name": "POOL_PRECISION_DECIMALS",
      "outputs": [
        {
          "internalType": "uint8",
          "name": "",
          "type": "uint8"
        }
      ],
      "stateMutability": "view",
      "type": "function"
    }
  ],
  "transactionHash": "0x9549753e6b8d596eed51323352339c4afc9db3ab52c835e8f1f069d93fc6972b",
  "args": [],
  "solcInputHash": "cc820e9a9cfa52a5cb6ae8910db7a259",
  "bytecode": "0x61552d62000082600b82828239805160001a6073146200001b57fe5b5a63996d79a5598160e01b8152602081600483336000905af158600e01573d6000803e3d6000fd5b3d6001141558600a015760016000f35b8051925060005b604081101562000073576000828201526020016200005a565b505050600052607381538281f3fe7300000000000000000000000000000000000000005a63996d79a5598160e01b8152602081600483336000905af158600e01573d6000803e3d6000fd5b3d6001141558600a015760016000f35b8051925060005b604081101561006a57600082820152602001610053565b505050146080604052600436106101955760003560e01c80630296ab50146101a357806324c5c751146101c157806340370edf1461020e57806341b91c2614610304578063467e186c146103e85780634b23603c1461042a5780635e58579c14610469578063704672761461051257806371906c2c1461055457806373fd6b3e1461057a5780637d048160146106815780638ab7697e146106ad578063968e5594146106ef578063a5397b2214610724578063ab3d85441461077f578063b0a14cfc14610787578063c9b64dcb146107ad578063d011f918146107d3578063d4b0de2f1461077f578063e4a9a0da146107db578063e7a4db811461081f578063e8c47a5414610870578063e9252d46146108a5578063f3de0362146108f6578063f967a81f146108fe575b6000806101a0614fe1565b50505b6101ab610939565b60405160ff909116815260200160405180910390f35b8180156101d6576000806101d3614fe1565b50505b5061020c600480360360408110156101f6576000806101f3614fe1565b50505b50803590602001356001600160a01b031661093e565b005b81801561022357600080610220614fe1565b50505b506102f26004803603606081101561024357600080610240614fe1565b50505b81359190810190604081016020820135600160201b81111561026d5760008061026a614fe1565b50505b82018360208201111561028857600080610285614fe1565b50505b803590602001918460208302840111600160201b831117156102b2576000806102af614fe1565b50505b9190808060200260200160405190810160405280939291908181526020018383602002808284376000920191909152509295505091359250610b51915050565b60405190815260200160405180910390f35b81801561031957600080610316614fe1565b50505b506102f26004803603606081101561033957600080610336614fe1565b50505b81359190810190604081016020820135600160201b81111561036357600080610360614fe1565b50505b82018360208201111561037e5760008061037b614fe1565b50505b803590602001918460208302840111600160201b831117156103a8576000806103a5614fe1565b50505b9190808060200260200160405190810160405280939291908181526020018383602002808284376000920191909152509295505091359250611682915050565b8180156103fd576000806103fa614fe1565b50505b5061020c6004803603604081101561041d5760008061041a614fe1565b50505b5080359060200135611f60565b6102f26004803603608081101561044957600080610446614fe1565b50505b5080359060ff602082013581169160408101359091169060600135611ffb565b6102f26004803603608081101561048857600080610485614fe1565b50505b8135916001600160a01b0360208201351691810190606081016040820135600160201b8111156104c0576000806104bd614fe1565b50505b8201836020820111156104db576000806104d8614fe1565b50505b803590602001918460208302840111600160201b8311171561050557600080610502614fe1565b50505b919350915035151561207a565b81801561052757600080610524614fe1565b50505b5061020c6004803603604081101561054757600080610544614fe1565b50505b5080359060200135612349565b6102f26004803603602081101561057357600080610570614fe1565b50505b50356123e5565b81801561058f5760008061058c614fe1565b50505b5061062e600480360360608110156105af576000806105ac614fe1565b50505b813591602081013591810190606081016040820135600160201b8111156105de576000806105db614fe1565b50505b8201836020820111156105f9576000806105f6614fe1565b50505b803590602001918460208302840111600160201b8311171561062357600080610620614fe1565b50505b5090925090506124f8565b60405160208082528190810183818151815260200191508051906020019060200280838360005b8381101561066d578082015183820152602001610655565b505050509050019250505060405180910390f35b6102f2600480360360408110156106a05760008061069d614fe1565b50505b5080359060200135612a69565b8180156106c2576000806106bf614fe1565b50505b5061020c600480360360408110156106e2576000806106df614fe1565b50505b5080359060200135612b87565b6102f26004803603604081101561070e5760008061070b614fe1565b50505b50803590602001356001600160a01b0316612c22565b81801561073957600080610736614fe1565b50505b506102f2600480360360a081101561075957600080610756614fe1565b50505b5080359060ff602082013581169160408101359091169060608101359060800135612ce0565b6102f26132a2565b6102f2600480360360208110156107a6576000806107a3614fe1565b50505b50356132aa565b6102f2600480360360208110156107cc576000806107c9614fe1565b50505b50356132b6565b6102f2613382565b6102f2600480360360808110156107fa576000806107f7614fe1565b50505b5080359060208101356001600160a01b0316906040810135906060013560ff16613387565b81801561083457600080610831614fe1565b50505b506102f26004803603608081101561085457600080610851614fe1565b50505b5080359060208101359060ff6040820135169060600135613459565b6102f26004803603604081101561088f5760008061088c614fe1565b50505b50803590602001356001600160a01b031661390e565b8180156108ba576000806108b7614fe1565b50505b5061020c600480360360608110156108da576000806108d7614fe1565b50505b508035906001600160a01b036020820135169060400135613930565b6102f2613b0e565b61062e6004803603606081101561091d5760008061091a614fe1565b50505b508035906001600160a01b036020820135169060400135613b17565b601281565b6060826008018061094d61504c565b80602002602001604051908101604052818152919060208301828061097061504c565b80156109bd57602002820191906000526020600020905b60008261099261504c565b906101000a90046001600160a01b03166001600160a01b031681526020019060010190808311610987575b5050505050905060005b8151811015610b4b5760008282815181106109de57fe5b602002602001015190506000610b2586600a0184816109fb61504c565b8110610a0357fe5b90600052602060002001610a1561504c565b836001600160a01b03166370a082315a63996d79a5598160e01b8152602081600483336000905af158600e01573d6000803e3d6000fd5b3d6001141558600a015760016000f35b8051925060005b6040811015610a7a57600082820152602001610a63565b5050506040516001600160e01b031960e084901b1681526001600160a01b0390911660048201526024016020604051808303818680610ab76150a7565b158015610acc57600080610ac9614fe1565b50505b505a610ad66150f3565b5050505050158015610af5573d6000803e3d6000610af2614fe1565b50505b505050506040513d6020811015610b1457600080610b11614fe1565b50505b81019080805193925050613c459050565b90508015610b4157610b416001600160a01b0383168683613caa565b50506001016109c7565b50505050565b600060608460080180610b6261504c565b806020026020016040519081016040528181529190602083018280610b8561504c565b8015610bd257602002820191906000526020600020905b600082610ba761504c565b906101000a90046001600160a01b03166001600160a01b031681526020019060010190808311610b9c575b505050505090508051845114610c375760405162461bcd60e51b815260206004820181905260248201527f416d6f756e7473206d757374206d6174636820706f6f6c656420746f6b656e73604482015260640160405180910390610c34614fe1565b50505b610c3f6151de565b604051806101000160405280600081526020016000815260200160008152602001610c69886132b6565b8152602001600060078901610c7c61504c565b906101000a90046001600160a01b03166001600160a01b031681526020016000815260200187600a0180610cae61504c565b806020026020016040519081016040528181529190602083018280610cd161504c565b8015610d0357602002820191906000526020600020905b81610cf161504c565b81526020019060010190808311610ce8575b505050505081526020018760090180610d1a61504c565b806020026020016040519081016040528181529190602083018280610d3d61504c565b8015610d6f57602002820191906000526020600020905b81610d5d61504c565b81526020019060010190808311610d54575b5050505050815250905080608001516001600160a01b03166318160ddd6040518163ffffffff1660e01b81526004016020604051808303818680610db16150a7565b158015610dc657600080610dc3614fe1565b50505b505a610dd06150f3565b5050505050158015610def573d6000803e3d6000610dec614fe1565b50505b505050506040513d6020811015610e0e57600080610e0b614fe1565b50505b81019080805160a08501908152925050505115610e4757610e44610e3a8260c001518360e00151613d06565b8260600151613e0f565b81525b606082516001600160401b0381118015610e6957600080610e66614fe1565b50505b50604051908082528060200260200182016040528015610e93578160200160208202803683370190505b50905060005b83518110156111d2578260a00151151580610ec757506000878281518110610ebd57fe5b6020026020010151115b610f205760405162461bcd60e51b815260206004820152601e60248201527f4d75737420737570706c7920616c6c20746f6b656e7320696e20706f6f6c0000604482015260640160405180910390610f1d614fe1565b50505b868181518110610f2c57fe5b60200260200101511561117e576000848281518110610f4757fe5b60200260200101516001600160a01b03166370a082315a63996d79a5598160e01b8152602081600483336000905af158600e01573d6000803e3d6000fd5b3d6001141558600a015760016000f35b8051925060005b6040811015610fb357600082820152602001610f9c565b5050506040516001600160e01b031960e084901b1681526001600160a01b0390911660048201526024016020604051808303818680610ff06150a7565b15801561100557600080611002614fe1565b50505b505a61100f6150f3565b505050505015801561102e573d6000803e3d600061102b614fe1565b50505b505050506040513d602081101561104d5760008061104a614fe1565b50505b81019080805193506110f7925050505a61106561522c565b5a63996d79a5598160e01b8152602081600483336000905af158600e01573d6000803e3d6000fd5b3d6001141558600a015760016000f35b8051925060005b60408110156110bb576000828201526020016110a4565b5050508a85815181106110ca57fe5b60200260200101518886815181106110de57fe5b60200260200101516001600160a01b0316929190613f78565b6111648186848151811061110757fe5b60200260200101516001600160a01b03166370a082315a63996d79a5598160e01b8152602081600483336000905af158600e01573d6000803e3d6000fd5b3d6001141558600a015760016000f35b80516000825292506020610a63565b88838151811061117057fe5b602002602001018181525050505b6111b387828151811061118d57fe5b60200260200101518460c0015183815181106111a557fe5b602002602001015190613fe1565b8282815181106111bf57fe5b6020908102919091010152600101610e99565b506111ee6111e4828460e00151613d06565b8360600151613e0f565b602083015281518260200151116112485760405162461bcd60e51b8152602060048201526011602482015270442073686f756c6420696e63726561736560781b604482015260640160405180910390611245614fe1565b50505b81602001516040830152606083516001600160401b038111801561127457600080611271614fe1565b50505b5060405190808252806020026020018201604052801561129e578160200160208202803683370190505b5090508260a00151156114355760006112c3896004016112bc61504c565b8651614047565b905060005b855181101561140e57600061130486516112fe8860c0015185815181106112eb57fe5b6020026020010151896020015190614062565b906140c1565b90506113376402540be4006112fe61133088868151811061132157fe5b6020026020010151859061412d565b8690614062565b84838151811061134357fe5b60200260200101818152505061139e6113846402540be4006112fe8e60050161136a61504c565b88878151811061137657fe5b602002602001015190614062565b86848151811061139057fe5b602002602001015190613c45565b8b600a0183816113ac61504c565b81106113b457fe5b9060005260206000200181906113c8615272565b5050506113ee8483815181106113da57fe5b602002602001015186848151811061139057fe5b8583815181106113fa57fe5b6020908102919091010152506001016112c8565b5061142a611420848660e00151613d06565b8560600151613e0f565b60408501525061144c565b600a880182805161144a9291602001906152c0565b505b60008360a001516114635783602001519050611489565b61148684516112fe8660a001516114808851896040015190613c45565b90614062565b90505b868110156114e45760405162461bcd60e51b815260206004820152601b60248201527a10dbdd5b191b89dd081b5a5b9d081b5a5b881c995c5d595cdd1959602a1b6044820152606401604051809103906114e1614fe1565b50505b83608001516001600160a01b03166340c10f195a61150061522c565b836040516001600160e01b031960e085901b1681526001600160a01b0390921660048301526024820152604401600060405180830381600087806115426150a7565b15801561155757600080611554614fe1565b50505b505a611561615324565b505050505050158015611581573d6000803e3d600061157e614fe1565b50505b505050505a61158e61522c565b6001600160a01b03167f189c623b666b1b45b83d7178f39b8c087cb09774317ca2f53c2d3c3726f222a2898487602001516115ce868a60a0015190613fe1565b604051808060200180602001858152602001848152602001838103835287818151815260200191508051906020019060200280838360005b8381101561161e578082015183820152602001611606565b50505050905001838103825286818151815260200191508051906020019060200280838360005b8381101561165d578082015183820152602001611645565b50505050905001965050505050505060405180910390a29450505050505b9392505050565b600061168c6151de565b6040518061010001604052806000815260200160008152602001600081526020016116b6876132b6565b81526020016000600788016116c961504c565b906101000a90046001600160a01b03166001600160a01b031681526020016000815260200186600a01806116fb61504c565b80602002602001604051908101604052818152919060208301828061171e61504c565b801561175057602002820191906000526020600020905b8161173e61504c565b81526020019060010190808311611735575b50505050508152602001866009018061176761504c565b80602002602001604051908101604052818152919060208301828061178a61504c565b80156117bc57602002820191906000526020600020905b816117aa61504c565b815260200190600101908083116117a1575b5050505050815250905080608001516001600160a01b03166318160ddd6040518163ffffffff1660e01b815260040160206040518083038186806117fe6150a7565b15801561181357600080611810614fe1565b50505b505a61181d6150f3565b505050505015801561183c573d6000803e3d6000611839614fe1565b50505b505050506040513d602081101561185b57600080611858614fe1565b50505b81019080805160a0850152506060915050600886018061187961504c565b80602002602001604051908101604052818152919060208301828061189c61504c565b80156118e957602002820191906000526020600020905b6000826118be61504c565b906101000a90046001600160a01b03166001600160a01b0316815260200190600101908083116118b3575b50505050509050805185511461194e5760405162461bcd60e51b815260206004820181905260248201527f416d6f756e74732073686f756c64206d6174636820706f6f6c20746f6b656e7360448201526064016040518091039061194b614fe1565b50505b81608001516001600160a01b03166370a082315a61196a61522c565b6040516001600160e01b031960e084901b1681526001600160a01b03909116600482015260240160206040518083038186806119a46150a7565b1580156119b9576000806119b6614fe1565b50505b505a6119c36150f3565b50505050501580156119e2573d6000803e3d60006119df614fe1565b50505b505050506040513d6020811015611a01576000806119fe614fe1565b50505b8101908080518711801593509150611a1a905057508315155b611a635760405162461bcd60e51b815260206004820152600d60248201526c1f2628173130b630b731b2a7b360991b604482015260640160405180910390611a60614fe1565b50505b6000611a7b87600401611a7461504c565b8351614047565b9050606082516001600160401b0381118015611a9f57600080611a9c614fe1565b50505b50604051908082528060200260200182016040528015611ac9578160200160208202803683370190505b509050606083516001600160401b0381118015611aee57600080611aeb614fe1565b50505b50604051908082528060200260200182016040528015611b18578160200160208202803683370190505b509050611b3a611b308660c001518760e00151613d06565b8660600151613e0f565b855260005b8451811015611bb457611b95898281518110611b5757fe5b602002602001015160405160608101604052602380825261550a60208301398860c001518481518110611b8657fe5b60200260200101519190614145565b828281518110611ba157fe5b6020908102919091010152600101611b3f565b50611bc6611b30828760e00151613d06565b602086015260005b8451811015611cf7576000611c0487516112fe8960c001518581518110611bf157fe5b60200260200101518a6020015190614062565b90506000611c26848481518110611c1757fe5b6020026020010151839061412d565b9050611c3b6402540be4006112fe8884614062565b858481518110611c4757fe5b602002602001018181525050611c86611c7a6402540be4006112fe8f600501611c6e61504c565b89888151811061137657fe5b85858151811061139057fe5b8c600a018481611c9461504c565b8110611c9c57fe5b906000526020600020018190611cb0615272565b505050611cd6858481518110611cc257fe5b602002602001015185858151811061139057fe5b848481518110611ce257fe5b60209081029190910101525050600101611bce565b50611d09611b30828760e00151613d06565b6040860152506000611d2e85516112fe8760a0015161148089604001518a5190613c45565b905080611d885760405162461bcd60e51b815260206004820152601b60248201527a4275726e7420616d6f756e742063616e6e6f74206265207a65726f60281b604482015260640160405180910390611d85614fe1565b50505b611dc0611dac611da08b5a611d9b61522c565b612c22565b6402540be40090613c45565b6112fe6402540be400611480856001613fe1565b905086811115611e1d5760405162461bcd60e51b815260206004820152601b60248201527a1d1bdad95b905b5bdd5b9d080f881b585e109d5c9b905b5bdd5b9d602a1b604482015260640160405180910390611e1a614fe1565b50505b84608001516001600160a01b03166379cc67905a611e3961522c565b836040516001600160e01b031960e085901b1681526001600160a01b039092166004830152602482015260440160006040518083038160008780611e7b6150a7565b158015611e9057600080611e8d614fe1565b50505b505a611e9a615324565b505050505050158015611eba573d6000803e3d6000611eb7614fe1565b50505b5050505060005b8451811015611f1657611f0e5a611ed661522c565b8a8381518110611ee257fe5b6020026020010151878481518110611ef657fe5b60200260200101516001600160a01b03169190613caa565b600101611ec1565b505a611f2061522c565b6001600160a01b03167f3631c28b1f9dd213e0319fb167b554d76b6c283a41143eb400a0d1adb1af1755898488602001516115ce868b60a0015190613c45565b6305f5e100811115611fb35760405162461bcd60e51b815260206004820152600f60248201526e08ccaca40d2e640e8dede40d0d2ced608b1b604482015260640160405180910390611fb0614fe1565b50505b808060048401611fc1615272565b5050507fd88ea5155021c6f8dafa1a741e173f595cdf77ce7c17d43342131d7f06afdfe58160405190815260200160405180910390a15050565b60006120708585858589600a018061201161504c565b80602002602001604051908101604052818152919060208301828061203461504c565b801561206657602002820191906000526020600020905b8161205461504c565b8152602001906001019080831161204b575b50505050506141e4565b5095945050505050565b600080612086876132b6565b9050606087600a018061209761504c565b8060200260200160405190810160405281815291906020830182806120ba61504c565b80156120ec57602002820191906000526020600020905b816120da61504c565b815260200190600101908083116120d1575b505050505090506060886009018061210261504c565b80602002602001604051908101604052818152919060208301828061212561504c565b801561215757602002820191906000526020600020905b8161214561504c565b8152602001906001019080831161213c575b50505050509050600061217361216d8484613d06565b85613e0f565b905060005b83518110156122205786156121c6576121a989898381811061219657fe5b905060200201358583815181106111a557fe5b8482815181106121b557fe5b602002602001018181525050612218565b6121ff8989838181106121d557fe5b9050602002013560405160608101604052602380825261550a6020830139868481518110611b8657fe5b84828151811061220b57fe5b6020026020010181815250505b600101612178565b5060006122366122308585613d06565b86613e0f565b905060008060078d0161224761504c565b906101000a90046001600160a01b03166001600160a01b03166318160ddd6040518163ffffffff1660e01b8152600401602060405180830381868061228a6150a7565b15801561229f5760008061229c614fe1565b50505b505a6122a96150f3565b50505050501580156122c8573d6000803e3d60006122c5614fe1565b50505b505050506040513d60208110156122e7576000806122e4614fe1565b50505b8101908080519350508915915061231990505761230c836112fe836114808684613c45565b9650505050505050612340565b61230c612329611da08e8e612c22565b6112fe6402540be40061148087838783838b613c45565b95945050505050565b6402540be40081111561239d5760405162461bcd60e51b815260206004820152600f60248201526e08ccaca40d2e640e8dede40d0d2ced608b1b60448201526064016040518091039061239a614fe1565b50505b8080600584016123ab615272565b5050507fab599d640ca80cde2b09b128a4154a8dfe608cb80f4c9399c8b954b01fd35f388160405190815260200160405180910390a15050565b6000806124026123f48461437d565b6123fd856132b6565b613e0f565b90506000806007850161241361504c565b906101000a90046001600160a01b031690506000816001600160a01b03166318160ddd6040518163ffffffff1660e01b8152600401602060405180830381868061245b6150a7565b1580156124705760008061246d614fe1565b50505b505a61247a6150f3565b5050505050158015612499573d6000803e3d6000612496614fe1565b50505b505050506040513d60208110156124b8576000806124b5614fe1565b50505b810190808051935050821591506124eb9050576124e1816112fe85670de0b6b3a7640000614062565b93505050506124f3565b600093505050505b919050565b60606000806007870161250961504c565b906101000a90046001600160a01b031690506060866008018061252a61504c565b80602002602001604051908101604052818152919060208301828061254d61504c565b801561259a57602002820191906000526020600020905b60008261256f61504c565b906101000a90046001600160a01b03166001600160a01b031681526020019060010190808311612564575b50505050509050816001600160a01b03166370a082315a6125b961522c565b6040516001600160e01b031960e084901b1681526001600160a01b03909116600482015260240160206040518083038186806125f36150a7565b15801561260857600080612605614fe1565b50505b505a6126126150f3565b5050505050158015612631573d6000803e3d600061262e614fe1565b50505b505050506040513d60208110156126505760008061264d614fe1565b50505b81019080805189111592506126a79150505760405162461bcd60e51b815260206004820152600d60248201526c1f2628173130b630b731b2a7b360991b6044820152606401604051809103906126a4614fe1565b50505b805184146127045760405162461bcd60e51b815260206004820181905260248201527f6d696e416d6f756e7473206d757374206d6174636820706f6f6c546f6b656e73604482015260640160405180910390612701614fe1565b50505b606087600a018061271361504c565b80602002602001604051908101604052818152919060208301828061273661504c565b801561276857602002820191906000526020600020905b8161275661504c565b8152602001906001019080831161274d575b505050505090506000836001600160a01b03166318160ddd6040518163ffffffff1660e01b815260040160206040518083038186806127a56150a7565b1580156127ba576000806127b7614fe1565b50505b505a6127c46150f3565b50505050501580156127e3573d6000803e3d60006127e0614fe1565b50505b505050506040513d6020811015612802576000806127ff614fe1565b50505b81019080805193506060925061282791508b9050845a61282061522c565b8c86614455565b905060005b81518110156129245788888281811061284157fe5b9050602002013582828151811061285457fe5b602002602001015110156128b45760405162461bcd60e51b815260206004820152601a602482015279616d6f756e74735b695d203c206d696e416d6f756e74735b695d60301b6044820152606401604051809103906128b1614fe1565b50505b6128d78282815181106128c357fe5b602002602001015185838151811061139057fe5b8b600a0182816128e561504c565b81106128ed57fe5b906000526020600020018190612901615272565b50505061291c5a61291061522c565b838381518110611ee257fe5b60010161282c565b50846001600160a01b03166379cc67905a61293d61522c565b8b6040516001600160e01b031960e085901b1681526001600160a01b03909216600483015260248201526044016000604051808303816000878061297f6150a7565b15801561299457600080612991614fe1565b50505b505a61299e615324565b5050505050501580156129be573d6000803e3d60006129bb614fe1565b50505b505050505a6129cb61522c565b6001600160a01b03167f88d38ed598fdd809c2bf01ee49cd24b7fdabf379a83d29567952b60324d58cef82612a00858d613c45565b6040518080602001838152602001828103825284818151815260200191508051906020019060200280838360005b83811015612a46578082015183820152602001612a2e565b50505050905001935050505060405180910390a29450505050505b949350505050565b60008260080180612a7861504c565b90508210612ac35760405162461bcd60e51b815260206004820152601860248201526000805160206154c0833981519152604482015260640160405180910390612ac0614fe1565b50505b612b7e83600a018381612ad461504c565b8110612adc57fe5b90600052602060002001612aee61504c565b846008018481612afc61504c565b8110612b0457fe5b90600052602060002001600090612b1961504c565b906101000a90046001600160a01b03166001600160a01b03166370a082315a63996d79a5598160e01b8152602081600483336000905af158600e01573d6000803e3d6000fd5b3d6001141558600a015760016000f35b80516000825292506020610a63565b90505b92915050565b6305f5e100811115612bda5760405162461bcd60e51b815260206004820152600f60248201526e08ccaca40d2e640e8dede40d0d2ced608b1b604482015260640160405180910390612bd7614fe1565b50505b808060068401612be8615272565b5050507fd5fe46099fa396290a7f57e36c3c3c8774e2562c18ed5d1dcc0fa75071e03f1d8160405190815260200160405180910390a15050565b6001600160a01b0381166000908152600b830160205280612c526224ea0060408320612c4c61504c565b90613fe1565b90505a612c5d6153ea565b811115612cd6576000612c795a612c726153ea565b8390613c45565b9050612ccd6402540be4006112fe6224ea006112fe856114808b600c0160008c6001600160a01b03166001600160a01b03168152602001908152602001600020612cc161504c565b8c60060161148061504c565b92505050612b81565b5060009392505050565b600080866008018660ff1681612cf461504c565b8110612cfc57fe5b90600052602060002001600090612d1161504c565b906101000a90046001600160a01b03169050806001600160a01b03166370a082315a612d3b61522c565b6040516001600160e01b031960e084901b1681526001600160a01b0390911660048201526024016020604051808303818680612d756150a7565b158015612d8a57600080612d87614fe1565b50505b505a612d946150f3565b5050505050158015612db3573d6000803e3d6000612db0614fe1565b50505b505050506040513d6020811015612dd257600080612dcf614fe1565b50505b8101908080518711159250612e399150505760405162461bcd60e51b815260206004820152601d60248201527f43616e6e6f742073776170206d6f7265207468616e20796f75206f776e000000604482015260640160405180910390612e36614fe1565b50505b6000816001600160a01b03166370a082315a63996d79a5598160e01b8152602081600483336000905af158600e01573d6000803e3d6000fd5b3d6001141558600a015760016000f35b8051925060005b6040811015612ea057600082820152602001612e89565b5050506040516001600160e01b031960e084901b1681526001600160a01b0390911660048201526024016020604051808303818680612edd6150a7565b158015612ef257600080612eef614fe1565b50505b505a612efc6150f3565b5050505050158015612f1b573d6000803e3d6000612f18614fe1565b50505b505050506040513d6020811015612f3a57600080612f37614fe1565b50505b8101908080519350612fbd925050505a612f5261522c565b5a63996d79a5598160e01b8152602081600483336000905af158600e01573d6000803e3d6000fd5b3d6001141558600a015760016000f35b8051925060005b6040811015612fa857600082820152602001612f91565b5050506001600160a01b038516919088613f78565b61301781836001600160a01b03166370a082315a63996d79a5598160e01b8152602081600483336000905af158600e01573d6000803e3d6000fd5b3d6001141558600a015760016000f35b80516000825292506020610a63565b94505050600080606088600a018061302d61504c565b80602002602001604051908101604052818152919060208301828061305061504c565b801561308257602002820191906000526020600020905b8161307061504c565b81526020019060010190808311613067575b5050505050905061309689898989856141e4565b9093509150848310156130f85760405162461bcd60e51b815260206004820181905260248201527f53776170206469646e277420726573756c7420696e206d696e20746f6b656e736044820152606401604051809103906130f5614fe1565b50505b60006131478a6009018960ff168161310e61504c565b811061311657fe5b9060005260206000200161312861504c565b6112fe6402540be4006112fe8e60050161314061504c565b8890614062565b905061315c87838b60ff16815181106111a557fe5b8a600a018a60ff168161316d61504c565b811061317557fe5b906000526020600020018190613189615272565b5050506131a9816131a386858c60ff168151811061139057fe5b90613c45565b8a600a018960ff16816131ba61504c565b81106131c257fe5b9060005260206000200181906131d6615272565b50505061322d5a6131e561522c565b858c6008018b60ff16816131f761504c565b81106131ff57fe5b9060005260206000200160009061321461504c565b6001600160a01b036101009290920a9004169190613caa565b5a61323661522c565b6001600160a01b03167fc6c1e0630dbe9130cc068028486c0d118ddcea348550819defd5cb8c257f8a3888868c8c604051808581526020018481526020018360ff1681526020018260ff16815260200194505050505060405180910390a2509198975050505050505050565b6305f5e10081565b6000612b8160646112fe845b600080826003016132c561504c565b90506000836001016132d561504c565b9050815a6132e16153ea565b1015613379576000846002016132f561504c565b905060008561330261504c565b9050808311156133485761333d61333661331c8685613c45565b6112fe61332c865a6131a36153ea565b6114808887613c45565b8290613fe1565b9450505050506124f3565b61333d6133726133588685613c45565b6112fe613368865a6131a36153ea565b6114808689613c45565b8290613c45565b91506124f39050565b606481565b60008061344e86868686856007850161339e61504c565b906101000a90046001600160a01b03166001600160a01b03166318160ddd6040518163ffffffff1660e01b815260040160206040518083038186806133e16150a7565b1580156133f6576000806133f3614fe1565b50505b505a6134006150f3565b505050505015801561341f573d6000803e3d600061341c614fe1565b50505b505050506040513d602081101561343e5760008061343b614fe1565b50505b810190808051925061456f915050565b509695505050505050565b600080806007870161346961504c565b906101000a90046001600160a01b031690506060866008018061348a61504c565b8060200260200160405190810160405281815291906020830182806134ad61504c565b80156134fa57602002820191906000526020600020905b6000826134cf61504c565b906101000a90046001600160a01b03166001600160a01b0316815260200190600101908083116134c4575b50505050509050816001600160a01b03166370a082315a61351961522c565b6040516001600160e01b031960e084901b1681526001600160a01b03909116600482015260240160206040518083038186806135536150a7565b15801561356857600080613565614fe1565b50505b505a6135726150f3565b5050505050158015613591573d6000803e3d600061358e614fe1565b50505b505050506040513d60208110156135b0576000806135ad614fe1565b50505b81019080805189111592506136079150505760405162461bcd60e51b815260206004820152600d60248201526c1f2628173130b630b731b2a7b360991b604482015260640160405180910390613604614fe1565b50505b80518560ff16106136595760405162461bcd60e51b815260206004820152600f60248201526e151bdad95b881b9bdd08199bdd5b99608a1b604482015260640160405180910390613656614fe1565b50505b6000826001600160a01b03166318160ddd6040518163ffffffff1660e01b8152600401602060405180830381868061368f6150a7565b1580156136a4576000806136a1614fe1565b50505b505a6136ae6150f3565b50505050501580156136cd573d6000803e3d60006136ca614fe1565b50505b505050506040513d60208110156136ec576000806136e9614fe1565b50505b81019080805193506000925082915061371290508a5a61370a61522c565b8b8b8761456f565b91509150868210156137645760405162461bcd60e51b815260206004820152600e60248201526d191e480f081b5a5b905b5bdd5b9d60921b604482015260640160405180910390613761614fe1565b50505b6137b46137896137826402540be4006112fe8e60050161133061504c565b8490613fe1565b8b600a018a60ff168161379a61504c565b81106137a257fe5b906000526020600020016131a361504c565b8a600a018960ff16816137c561504c565b81106137cd57fe5b9060005260206000200181906137e1615272565b505050846001600160a01b03166379cc67905a6137fc61522c565b8b6040516001600160e01b031960e085901b1681526001600160a01b03909216600483015260248201526044016000604051808303816000878061383e6150a7565b15801561385357600080613850614fe1565b50505b505a61385d615324565b50505050505015801561387d573d6000803e3d600061387a614fe1565b50505b5050505061389d5a61388d61522c565b83868b60ff1681518110611ef657fe5b5a6138a661522c565b6001600160a01b03167f43fb02998f4e03da2e0e6fff53fdbf0c40a9f45f145dc377fc30615d7d7a8a648a858b86604051808581526020018481526020018360ff16815260200182815260200194505050505060405180910390a25098975050505050505050565b6001600160a01b0381166000908152600b830160205260408120612b7e61504c565b6001600160a01b03821661394357613b09565b8260060161394f61504c565b613986576001600160a01b0382166000908152600c84016020526402540be4009060409020819061397e615272565b505050613ad8565b60006139928484612c22565b9050600080600786016139a361504c565b906101000a90046001600160a01b03166001600160a01b03166370a08231856040516001600160e01b031960e084901b1681526001600160a01b03909116600482015260240160206040518083038186806139fc6150a7565b158015613a1157600080613a0e614fe1565b50505b505a613a1b6150f3565b5050505050158015613a3a573d6000803e3d6000613a37614fe1565b50505b505050506040513d6020811015613a5957600080613a56614fe1565b50505b8101908080519350613aae9250613a8291505060068701613a7861504c565b6114808685613fe1565b6112fe6402540be400611480613aa48a600601613a9d61504c565b8990614062565b612c4c8789614062565b6001600160a01b0385166000908152600c8701602052604090208190613ad2615272565b50505050505b5a613ae16153ea565b6001600160a01b0383166000908152600b8501602052604090208190613b05615272565b5050505b505050565b6402540be40081565b6060612a618485600a0180613b2a61504c565b806020026020016040519081016040528181529190602083018280613b4d61504c565b8015613b7f57602002820191906000526020600020905b81613b6d61504c565b81526020019060010190808311613b64575b5050505050858588600701600090613b9561504c565b906101000a90046001600160a01b03166001600160a01b03166318160ddd6040518163ffffffff1660e01b81526004016020604051808303818680613bd86150a7565b158015613bed57600080613bea614fe1565b50505b505a613bf76150f3565b5050505050158015613c16573d6000803e3d6000613c13614fe1565b50505b505050506040513d6020811015613c3557600080613c32614fe1565b50505b8101908080519250614455915050565b600082821115613ca45760405162461bcd60e51b815260206004820152601e60248201527f536166654d6174683a207375627472616374696f6e206f766572666c6f770000604482015260640160405180910390613ca1614fe1565b50505b50900390565b613b098363a9059cbb60e01b84846040516001600160a01b0390921660248301526044820152606401604051602081830303815290604052906001600160e01b0319166020820180516001600160e01b031690911790526145f3565b606060008351905082518114613d6b5760405162461bcd60e51b815260206004820152601f60248201527f42616c616e636573206d757374206d61746368206d756c7469706c6965727300604482015260640160405180910390613d68614fe1565b50505b6060816001600160401b0381118015613d8c57600080613d89614fe1565b50505b50604051908082528060200260200182016040528015613db6578160200160208202803683370190505b50905060005b82811015613e0657613de7858281518110613dd357fe5b602002602001015187838151811061137657fe5b828281518110613df357fe5b6020908102919091010152600101613dbc565b50949350505050565b600080835190506000805b82811015613e4a57613e40868281518110613e3157fe5b60200260200101518390613fe1565b9150600101613e1a565b5080613e5b57600092505050612b81565b60008181613e698786614062565b905060005b610100811015613f22578260005b87811015613eab57613ea1613e97898d848151811061137657fe5b6112fe8488614062565b9150600101613e7c565b509293508392613ef9613ed9613ec6836114808b6001613fe1565b612c4c60646112fe896114808a84613c45565b6112fe86611480613eea868d614062565b612c4c60646112fe8b8f614062565b9350613f0584866146ba565b15613f195783975050505050505050612b81565b50600101613e6e565b5060405162461bcd60e51b81526020600482015260136024820152724420646f6573206e6f7420636f6e766572676560681b604482015260640160405180910390613f6b614fe1565b5050505050505092915050565b610b4b846323b872dd60e01b8585856040516001600160a01b0393841660248201529190921660448201526064810191909152608401604051602081830303815290604052906001600160e01b0319166020820180516001600160e01b031690911790526145f3565b600082820183811015612b7e5760405162461bcd60e51b815260206004820152601b60248201527a536166654d6174683a206164646974696f6e206f766572666c6f7760281b60448201526064016040518091039061403e614fe1565b50509392505050565b6000612b7e61405c6004611480856001613c45565b6112fe85855b60008261407157506000612b81565b8282028284828161407e57fe5b0414612b7e5760405162461bcd60e51b815260040180806020018281038252602181526020018061547f602191396040019150506040518091039061403e614fe1565b600080821161411c5760405162461bcd60e51b815260206004820152601a602482015279536166654d6174683a206469766973696f6e206279207a65726f60301b604482015260640160405180910390614119614fe1565b50505b81838161412557fe5b049392505050565b6000818311156141405750808203612b81565b500390565b60008184841115613ca15760405162461bcd60e51b81526004018080602001828103825283818151815260200191508051906020019080838360005b83811015614199578082015183820152602001614181565b50505050905090810190601f1680156141c65780820380516001836020036101000a031916815260200191505b5092505050604051809103906141da614fe1565b5050505050900390565b600080606087600901806141f661504c565b80602002602001604051908101604052818152919060208301828061421961504c565b801561424b57602002820191906000526020600020905b8161423961504c565b81526020019060010190808311614230575b50505050509050606061425e8583613d06565b905080518860ff16108015614276575080518760ff16105b6142bd5760405162461bcd60e51b815260206004820152601860248201526000805160206154c08339815191526044820152606401604051809103906142ba614fe1565b50505b60006142fa828a60ff16815181106142d157fe5b6020026020010151612c4c858c60ff16815181106142eb57fe5b60200260200101518a90614062565b9050600061431361430a8c6132b6565b8b8b85876146d1565b905061432d60016131a383868d60ff168151811061139057fe5b95506143476402540be4006112fe8d600401613a9d61504c565b945061436d848a60ff168151811061435b57fe5b60200260200101516112fe8888613c45565b9550505050509550959350505050565b6060612b8182600a018061438f61504c565b8060200260200160405190810160405281815291906020830182806143b261504c565b80156143e457602002820191906000526020600020905b816143d261504c565b815260200190600101908083116143c9575b505050505083600901806143f661504c565b80602002602001604051908101604052818152919060208301828061441961504c565b801561444b57602002820191906000526020600020905b8161443961504c565b81526020019060010190808311614430575b5050505050613d06565b6060818311156144b15760405162461bcd60e51b815260206004820152601a60248201527943616e6e6f742065786365656420746f74616c20737570706c7960301b6044820152606401604051809103906144ae614fe1565b50505b60006144d36402540be4006112fe6144cc611da08b8a612c22565b8790614062565b9050606086516001600160401b03811180156144f7576000806144f4614fe1565b50505b50604051908082528060200260200182016040528015614521578160200160208202803683370190505b50905060005b875181101561456357614544856112fe858b858151811061137657fe5b82828151811061455057fe5b6020908102919091010152600101614527565b50979650505050505050565b60008060008060006145838a888a89614929565b9194509250905060006145c8846131a360098e0160ff8c16816145a461504c565b81106145ac57fe5b906000526020600020016145be61504c565b6112fe8688613c45565b90506145e36402540be4006112fe6144cc611da08f8f612c22565b9b909a5098505050505050505050565b606061463e826040516040808201905260208082527f5361666545524332303a206c6f772d6c6576656c2063616c6c206661696c6564908201526001600160a01b0386169190614c28565b9050600081511115613b0957602081018151602081101561466757600080614664614fe1565b50505b8101908080519250613b099150505760405162461bcd60e51b815260040180806020018281038252602a8152602001806154e0602a9139604001915050604051809103906146b3614fe1565b5050505050565b600060016146c8848461412d565b11159392505050565b600080825190508460ff168660ff16141561473b5760405162461bcd60e51b815260206004820152601d60248201527f43616e277420636f6d7061726520746f6b656e20746f20697473656c66000000604482015260640160405180910390614738614fe1565b50505b808660ff1610801561474f5750808560ff16105b6147a15760405162461bcd60e51b8152602060048201526016602482015275151bdad95b9cc81b5d5cdd081899481a5b881c1bdbdb60521b60448201526064016040518091039061479e614fe1565b50505b60006147ad8489613e0f565b9050806000806147bd858c614062565b90506000805b86811015614836578b60ff168114156147de57899150614808565b8a60ff168114614803578881815181106147f457fe5b60200260200101519150614808565b61482e565b6148128483613fe1565b935061482b6148218389614062565b6112fe8789614062565b94505b6001016147c3565b506148536148448388614062565b6112fe6064611480888a614062565b93506000614870614869846112fe896064614062565b8590613fe1565b9050600086815b6101008110156148d45790915081906148aa61489c8a6131a387612c4c876002614062565b6112fe8a612c4c8680614062565b91506148b682846146ba565b156148cc57509850612340975050505050505050565b600101614877565b5060405162461bcd60e51b815260206004820152601e60248201526000805160206154a0833981519152604482015260640160405180910390614915614fe1565b505050505050505050505095945050505050565b600080600060606149398861437d565b905080518760ff16106149895760405162461bcd60e51b815260206004820152601860248201526000805160206154c0833981519152604482015260640160405180910390614986614fe1565b50505b614991615430565b6040518060a0016040528060008152602001600081526020016000815260200160008152602001600081525090506149c8896132b6565b608082019081526149db90839051613e0f565b81526149f86149f0876112fe84518b90614062565b825190613c45565b60208201528160ff891681518110614a0c57fe5b6020026020010151871115614a6d5760405162461bcd60e51b815260206004820152601a6024820152795769746864726177206578636565647320617661696c61626c6560301b604482015260640160405180910390614a6a614fe1565b50505b614a81816080015189848460200151614c37565b6040820152606082516001600160401b0381118015614aa857600080614aa5614fe1565b50505b50604051908082528060200260200182016040528015614ad2578160200160208202803683370190505b509050614aeb8a600401614ae461504c565b8451614047565b606083015260005b8351811015614b91576000848281518110614b0a57fe5b60200260200101519050614b716133726402540be4006112fe87606001518f60ff168714614b5557614b50614b498a516112fe8c602001518a90614062565b8790613c45565b611480565b61148089604001516131a38b516112fe8d602001518b90614062565b838381518110614b7d57fe5b602090810291909101015250600101614af3565b506000614bba614bab84608001518c858760200151614c37565b838c60ff168151811061139057fe5b9050614bf58b6009018b60ff1681614bd061504c565b8110614bd857fe5b90600052602060002001614bea61504c565b6112fe836001613c45565b9050808360400151858c60ff1681518110614c0c57fe5b6020026020010151965096509650505050509450945094915050565b6060612a618484600085614de3565b60008083519050808560ff1610614c8f5760405162461bcd60e51b815260206004820152600f60248201526e151bdad95b881b9bdd08199bdd5b99608a1b604482015260640160405180910390614c8c614fe1565b50505b82600080614c9d8985614062565b905060005b84811015614cfc578860ff168114614cf457614cd2888281518110614cc357fe5b60200260200101518490613fe1565b9250614cf1614ce7868a848151811061137657fe5b6112fe868a614062565b93505b600101614ca2565b50614d19614d0a8286614062565b6112fe6064611480878b614062565b92506000614d2f613782836112fe8a6064614062565b9050600087815b610100811015614d91579091508190614d69614d5b8b6131a387612c4c876002614062565b6112fe89612c4c8680614062565b9150614d7582846146ba565b15614d8957509650612a6195505050505050565b600101614d36565b5060405162461bcd60e51b815260206004820152601e60248201526000805160206154a0833981519152604482015260640160405180910390614dd2614fe1565b505050505050505050949350505050565b6060614dee85614f15565b614e475760405162461bcd60e51b815260206004820152601d60248201527f416464726573733a2063616c6c20746f206e6f6e2d636f6e7472616374000000604482015260640160405180910390614e44614fe1565b50505b60006060866001600160a01b031685876040518082805190602001908083835b60208310614e865780518252601f199092019160209182019101614e67565b6001836020036101000a03801982511681845116808217855250505050505090500191505060006040518083038185875a614ebf615324565b505050505050925050503d8060008114614ef5576040513d603f01601f191681016040523d815291503d6000602084013e614efa565b606091505b5091509150614f0a828286614f2a565b979650505050505050565b60008082614f216150a7565b15159392505050565b60608315614f3957508161167b565b600083511115614f5a5782518084602001614f52614fe1565b50505061167b565b8160405162461bcd60e51b81526004018080602001828103825283818151815260200191508051906020019080838360005b83811015614fa4578082015183820152602001614f8c565b50505050905090810190601f168015614fd15780820380516001836020036101000a031916815260200191505b50925050506040518091039061403e5b632a2a7adb598160e01b8152600481016020815285602082015260005b86811015615019578086015182820160400152602001614ffe565b506020828760640184336000905af158600e01573d6000803e3d6000fd5b3d6001141558600a015760016000f35b505050565b6303daa959598160e01b8152836004820152602081602483336000905af158600e01573d6000803e3d6000fd5b3d6001141558600a015760016000f35b8051935060005b6040811015613b0957600082820152602001615090565b638435035b598160e01b8152836004820152602081602483336000905af158600e01573d6000803e3d6000fd5b3d6001141558600a015760016000f35b80516000825293506020615090565b638540661f598160e01b8152615124565b8080831115612b81575090919050565b8080831015612b81575090919050565b836004820152846024820152606060448201528660648201526084810160005b8881101561515c578088015182820152602001615144565b506060828960a40184336000905af158600e01573d6000803e3d6000fd5b3d6001141558600a015760016000f35b815160408301513d6000853e8b8b82606087013350600060045af150596151b18d3d615114565b8c016151bd8187615104565b5b828110156151d257600081526020016151be565b50929c50505050505050565b6040518061010001604052806000815260200160008152602001600081526020016000815260200160006001600160a01b031681526020016000815260200160608152602001606081525090565b6373509064598160e01b8152602081600483336000905af158600e01573d6000803e3d6000fd5b3d6001141558600a015760016000f35b80516000825293506020615090565b6322bd64c0598160e01b8152836004820152846024820152600081604483336000905af158600e01573d6000803e3d6000fd5b3d6001141558600a015760016000f35b600081526020615090565b82806152ca61504c565b82826152d4615272565b5050906000526020600020908101928215615314579160200282015b8281111561531457825182615303615272565b5050916020019190600101906152f0565b5061532092915061545f565b5090565b6385979f76598160e01b8152836004820152846024820152606060448201528760648201526084810160005b89811015615368578089015182820152602001615350565b506060828a60a40184336000905af158600e01573d6000803e3d6000fd5b3d6001141558600a015760016000f35b815160408301513d6000853e8c8c82606087013350600060045af150596153bd8e3d615114565b8d016153c98187615104565b5b828110156153de57600081526020016153ca565b50929d50505050505050565b63bdbf8c36598160e01b8152602081600483336000905af158600e01573d6000803e3d6000fd5b3d6001141558600a015760016000f35b80516000825293506020615090565b6040518060a0016040528060008152602001600081526020016000815260200160008152602001600081525090565b808211156153205760008082615473615272565b50505060010161545f56fe536166654d6174683a206d756c7469706c69636174696f6e206f766572666c6f77417070726f78696d6174696f6e20646964206e6f7420636f6e76657267650000546f6b656e20696e646578206f7574206f662072616e676500000000000000005361666545524332303a204552433230206f7065726174696f6e20646964206e6f74207375636365656443616e6e6f74207769746864726177206d6f7265207468616e20617661696c61626c65",
  "deployedBytecode": "0x7300000000000000000000000000000000000000005a63996d79a5598160e01b8152602081600483336000905af158601d01573d60011458600c01573d6000803e3d621234565260ea61109c528051925060005b604081101561006a57600082820152602001610053565b505050146080604052600436106101955760003560e01c80630296ab50146101a357806324c5c751146101c157806340370edf1461020e57806341b91c2614610304578063467e186c146103e85780634b23603c1461042a5780635e58579c14610469578063704672761461051257806371906c2c1461055457806373fd6b3e1461057a5780637d048160146106815780638ab7697e146106ad578063968e5594146106ef578063a5397b2214610724578063ab3d85441461077f578063b0a14cfc14610787578063c9b64dcb146107ad578063d011f918146107d3578063d4b0de2f1461077f578063e4a9a0da146107db578063e7a4db811461081f578063e8c47a5414610870578063e9252d46146108a5578063f3de0362146108f6578063f967a81f146108fe575b6000806101a0614fe1565b50505b6101ab610939565b60405160ff909116815260200160405180910390f35b8180156101d6576000806101d3614fe1565b50505b5061020c600480360360408110156101f6576000806101f3614fe1565b50505b50803590602001356001600160a01b031661093e565b005b81801561022357600080610220614fe1565b50505b506102f26004803603606081101561024357600080610240614fe1565b50505b81359190810190604081016020820135600160201b81111561026d5760008061026a614fe1565b50505b82018360208201111561028857600080610285614fe1565b50505b803590602001918460208302840111600160201b831117156102b2576000806102af614fe1565b50505b9190808060200260200160405190810160405280939291908181526020018383602002808284376000920191909152509295505091359250610b51915050565b60405190815260200160405180910390f35b81801561031957600080610316614fe1565b50505b506102f26004803603606081101561033957600080610336614fe1565b50505b81359190810190604081016020820135600160201b81111561036357600080610360614fe1565b50505b82018360208201111561037e5760008061037b614fe1565b50505b803590602001918460208302840111600160201b831117156103a8576000806103a5614fe1565b50505b9190808060200260200160405190810160405280939291908181526020018383602002808284376000920191909152509295505091359250611682915050565b8180156103fd576000806103fa614fe1565b50505b5061020c6004803603604081101561041d5760008061041a614fe1565b50505b5080359060200135611f60565b6102f26004803603608081101561044957600080610446614fe1565b50505b5080359060ff602082013581169160408101359091169060600135611ffb565b6102f26004803603608081101561048857600080610485614fe1565b50505b8135916001600160a01b0360208201351691810190606081016040820135600160201b8111156104c0576000806104bd614fe1565b50505b8201836020820111156104db576000806104d8614fe1565b50505b803590602001918460208302840111600160201b8311171561050557600080610502614fe1565b50505b919350915035151561207a565b81801561052757600080610524614fe1565b50505b5061020c6004803603604081101561054757600080610544614fe1565b50505b5080359060200135612349565b6102f26004803603602081101561057357600080610570614fe1565b50505b50356123e5565b81801561058f5760008061058c614fe1565b50505b5061062e600480360360608110156105af576000806105ac614fe1565b50505b813591602081013591810190606081016040820135600160201b8111156105de576000806105db614fe1565b50505b8201836020820111156105f9576000806105f6614fe1565b50505b803590602001918460208302840111600160201b8311171561062357600080610620614fe1565b50505b5090925090506124f8565b60405160208082528190810183818151815260200191508051906020019060200280838360005b8381101561066d578082015183820152602001610655565b505050509050019250505060405180910390f35b6102f2600480360360408110156106a05760008061069d614fe1565b50505b5080359060200135612a69565b8180156106c2576000806106bf614fe1565b50505b5061020c600480360360408110156106e2576000806106df614fe1565b50505b5080359060200135612b87565b6102f26004803603604081101561070e5760008061070b614fe1565b50505b50803590602001356001600160a01b0316612c22565b81801561073957600080610736614fe1565b50505b506102f2600480360360a081101561075957600080610756614fe1565b50505b5080359060ff602082013581169160408101359091169060608101359060800135612ce0565b6102f26132a2565b6102f2600480360360208110156107a6576000806107a3614fe1565b50505b50356132aa565b6102f2600480360360208110156107cc576000806107c9614fe1565b50505b50356132b6565b6102f2613382565b6102f2600480360360808110156107fa576000806107f7614fe1565b50505b5080359060208101356001600160a01b0316906040810135906060013560ff16613387565b81801561083457600080610831614fe1565b50505b506102f26004803603608081101561085457600080610851614fe1565b50505b5080359060208101359060ff6040820135169060600135613459565b6102f26004803603604081101561088f5760008061088c614fe1565b50505b50803590602001356001600160a01b031661390e565b8180156108ba576000806108b7614fe1565b50505b5061020c600480360360608110156108da576000806108d7614fe1565b50505b508035906001600160a01b036020820135169060400135613930565b6102f2613b0e565b61062e6004803603606081101561091d5760008061091a614fe1565b50505b508035906001600160a01b036020820135169060400135613b17565b601281565b6060826008018061094d61504c565b80602002602001604051908101604052818152919060208301828061097061504c565b80156109bd57602002820191906000526020600020905b60008261099261504c565b906101000a90046001600160a01b03166001600160a01b031681526020019060010190808311610987575b5050505050905060005b8151811015610b4b5760008282815181106109de57fe5b602002602001015190506000610b2586600a0184816109fb61504c565b8110610a0357fe5b90600052602060002001610a1561504c565b836001600160a01b03166370a082315a63996d79a5598160e01b8152602081600483336000905af158601d01573d60011458600c01573d6000803e3d621234565260ea61109c528051925060005b6040811015610a7a57600082820152602001610a63565b5050506040516001600160e01b031960e084901b1681526001600160a01b0390911660048201526024016020604051808303818680610ab76150a7565b158015610acc57600080610ac9614fe1565b50505b505a610ad66150f3565b5050505050158015610af5573d6000803e3d6000610af2614fe1565b50505b505050506040513d6020811015610b1457600080610b11614fe1565b50505b81019080805193925050613c459050565b90508015610b4157610b416001600160a01b0383168683613caa565b50506001016109c7565b50505050565b600060608460080180610b6261504c565b806020026020016040519081016040528181529190602083018280610b8561504c565b8015610bd257602002820191906000526020600020905b600082610ba761504c565b906101000a90046001600160a01b03166001600160a01b031681526020019060010190808311610b9c575b505050505090508051845114610c375760405162461bcd60e51b815260206004820181905260248201527f416d6f756e7473206d757374206d6174636820706f6f6c656420746f6b656e73604482015260640160405180910390610c34614fe1565b50505b610c3f6151de565b604051806101000160405280600081526020016000815260200160008152602001610c69886132b6565b8152602001600060078901610c7c61504c565b906101000a90046001600160a01b03166001600160a01b031681526020016000815260200187600a0180610cae61504c565b806020026020016040519081016040528181529190602083018280610cd161504c565b8015610d0357602002820191906000526020600020905b81610cf161504c565b81526020019060010190808311610ce8575b505050505081526020018760090180610d1a61504c565b806020026020016040519081016040528181529190602083018280610d3d61504c565b8015610d6f57602002820191906000526020600020905b81610d5d61504c565b81526020019060010190808311610d54575b5050505050815250905080608001516001600160a01b03166318160ddd6040518163ffffffff1660e01b81526004016020604051808303818680610db16150a7565b158015610dc657600080610dc3614fe1565b50505b505a610dd06150f3565b5050505050158015610def573d6000803e3d6000610dec614fe1565b50505b505050506040513d6020811015610e0e57600080610e0b614fe1565b50505b81019080805160a08501908152925050505115610e4757610e44610e3a8260c001518360e00151613d06565b8260600151613e0f565b81525b606082516001600160401b0381118015610e6957600080610e66614fe1565b50505b50604051908082528060200260200182016040528015610e93578160200160208202803683370190505b50905060005b83518110156111d2578260a00151151580610ec757506000878281518110610ebd57fe5b6020026020010151115b610f205760405162461bcd60e51b815260206004820152601e60248201527f4d75737420737570706c7920616c6c20746f6b656e7320696e20706f6f6c0000604482015260640160405180910390610f1d614fe1565b50505b868181518110610f2c57fe5b60200260200101511561117e576000848281518110610f4757fe5b60200260200101516001600160a01b03166370a082315a63996d79a5598160e01b8152602081600483336000905af158601d01573d60011458600c01573d6000803e3d621234565260ea61109c528051925060005b6040811015610fb357600082820152602001610f9c565b5050506040516001600160e01b031960e084901b1681526001600160a01b0390911660048201526024016020604051808303818680610ff06150a7565b15801561100557600080611002614fe1565b50505b505a61100f6150f3565b505050505015801561102e573d6000803e3d600061102b614fe1565b50505b505050506040513d602081101561104d5760008061104a614fe1565b50505b81019080805193506110f7925050505a61106561522c565b5a63996d79a5598160e01b8152602081600483336000905af158601d01573d60011458600c01573d6000803e3d621234565260ea61109c528051925060005b60408110156110bb576000828201526020016110a4565b5050508a85815181106110ca57fe5b60200260200101518886815181106110de57fe5b60200260200101516001600160a01b0316929190613f78565b6111648186848151811061110757fe5b60200260200101516001600160a01b03166370a082315a63996d79a5598160e01b8152602081600483336000905af158601d01573d60011458600c01573d6000803e3d621234565260ea61109c5280516000825292506020610a63565b88838151811061117057fe5b602002602001018181525050505b6111b387828151811061118d57fe5b60200260200101518460c0015183815181106111a557fe5b602002602001015190613fe1565b8282815181106111bf57fe5b6020908102919091010152600101610e99565b506111ee6111e4828460e00151613d06565b8360600151613e0f565b602083015281518260200151116112485760405162461bcd60e51b8152602060048201526011602482015270442073686f756c6420696e63726561736560781b604482015260640160405180910390611245614fe1565b50505b81602001516040830152606083516001600160401b038111801561127457600080611271614fe1565b50505b5060405190808252806020026020018201604052801561129e578160200160208202803683370190505b5090508260a00151156114355760006112c3896004016112bc61504c565b8651614047565b905060005b855181101561140e57600061130486516112fe8860c0015185815181106112eb57fe5b6020026020010151896020015190614062565b906140c1565b90506113376402540be4006112fe61133088868151811061132157fe5b6020026020010151859061412d565b8690614062565b84838151811061134357fe5b60200260200101818152505061139e6113846402540be4006112fe8e60050161136a61504c565b88878151811061137657fe5b602002602001015190614062565b86848151811061139057fe5b602002602001015190613c45565b8b600a0183816113ac61504c565b81106113b457fe5b9060005260206000200181906113c8615272565b5050506113ee8483815181106113da57fe5b602002602001015186848151811061139057fe5b8583815181106113fa57fe5b6020908102919091010152506001016112c8565b5061142a611420848660e00151613d06565b8560600151613e0f565b60408501525061144c565b600a880182805161144a9291602001906152c0565b505b60008360a001516114635783602001519050611489565b61148684516112fe8660a001516114808851896040015190613c45565b90614062565b90505b868110156114e45760405162461bcd60e51b815260206004820152601b60248201527a10dbdd5b191b89dd081b5a5b9d081b5a5b881c995c5d595cdd1959602a1b6044820152606401604051809103906114e1614fe1565b50505b83608001516001600160a01b03166340c10f195a61150061522c565b836040516001600160e01b031960e085901b1681526001600160a01b0390921660048301526024820152604401600060405180830381600087806115426150a7565b15801561155757600080611554614fe1565b50505b505a611561615324565b505050505050158015611581573d6000803e3d600061157e614fe1565b50505b505050505a61158e61522c565b6001600160a01b03167f189c623b666b1b45b83d7178f39b8c087cb09774317ca2f53c2d3c3726f222a2898487602001516115ce868a60a0015190613fe1565b604051808060200180602001858152602001848152602001838103835287818151815260200191508051906020019060200280838360005b8381101561161e578082015183820152602001611606565b50505050905001838103825286818151815260200191508051906020019060200280838360005b8381101561165d578082015183820152602001611645565b50505050905001965050505050505060405180910390a29450505050505b9392505050565b600061168c6151de565b6040518061010001604052806000815260200160008152602001600081526020016116b6876132b6565b81526020016000600788016116c961504c565b906101000a90046001600160a01b03166001600160a01b031681526020016000815260200186600a01806116fb61504c565b80602002602001604051908101604052818152919060208301828061171e61504c565b801561175057602002820191906000526020600020905b8161173e61504c565b81526020019060010190808311611735575b50505050508152602001866009018061176761504c565b80602002602001604051908101604052818152919060208301828061178a61504c565b80156117bc57602002820191906000526020600020905b816117aa61504c565b815260200190600101908083116117a1575b5050505050815250905080608001516001600160a01b03166318160ddd6040518163ffffffff1660e01b815260040160206040518083038186806117fe6150a7565b15801561181357600080611810614fe1565b50505b505a61181d6150f3565b505050505015801561183c573d6000803e3d6000611839614fe1565b50505b505050506040513d602081101561185b57600080611858614fe1565b50505b81019080805160a0850152506060915050600886018061187961504c565b80602002602001604051908101604052818152919060208301828061189c61504c565b80156118e957602002820191906000526020600020905b6000826118be61504c565b906101000a90046001600160a01b03166001600160a01b0316815260200190600101908083116118b3575b50505050509050805185511461194e5760405162461bcd60e51b815260206004820181905260248201527f416d6f756e74732073686f756c64206d6174636820706f6f6c20746f6b656e7360448201526064016040518091039061194b614fe1565b50505b81608001516001600160a01b03166370a082315a61196a61522c565b6040516001600160e01b031960e084901b1681526001600160a01b03909116600482015260240160206040518083038186806119a46150a7565b1580156119b9576000806119b6614fe1565b50505b505a6119c36150f3565b50505050501580156119e2573d6000803e3d60006119df614fe1565b50505b505050506040513d6020811015611a01576000806119fe614fe1565b50505b8101908080518711801593509150611a1a905057508315155b611a635760405162461bcd60e51b815260206004820152600d60248201526c1f2628173130b630b731b2a7b360991b604482015260640160405180910390611a60614fe1565b50505b6000611a7b87600401611a7461504c565b8351614047565b9050606082516001600160401b0381118015611a9f57600080611a9c614fe1565b50505b50604051908082528060200260200182016040528015611ac9578160200160208202803683370190505b509050606083516001600160401b0381118015611aee57600080611aeb614fe1565b50505b50604051908082528060200260200182016040528015611b18578160200160208202803683370190505b509050611b3a611b308660c001518760e00151613d06565b8660600151613e0f565b855260005b8451811015611bb457611b95898281518110611b5757fe5b602002602001015160405160608101604052602380825261550a60208301398860c001518481518110611b8657fe5b60200260200101519190614145565b828281518110611ba157fe5b6020908102919091010152600101611b3f565b50611bc6611b30828760e00151613d06565b602086015260005b8451811015611cf7576000611c0487516112fe8960c001518581518110611bf157fe5b60200260200101518a6020015190614062565b90506000611c26848481518110611c1757fe5b6020026020010151839061412d565b9050611c3b6402540be4006112fe8884614062565b858481518110611c4757fe5b602002602001018181525050611c86611c7a6402540be4006112fe8f600501611c6e61504c565b89888151811061137657fe5b85858151811061139057fe5b8c600a018481611c9461504c565b8110611c9c57fe5b906000526020600020018190611cb0615272565b505050611cd6858481518110611cc257fe5b602002602001015185858151811061139057fe5b848481518110611ce257fe5b60209081029190910101525050600101611bce565b50611d09611b30828760e00151613d06565b6040860152506000611d2e85516112fe8760a0015161148089604001518a5190613c45565b905080611d885760405162461bcd60e51b815260206004820152601b60248201527a4275726e7420616d6f756e742063616e6e6f74206265207a65726f60281b604482015260640160405180910390611d85614fe1565b50505b611dc0611dac611da08b5a611d9b61522c565b612c22565b6402540be40090613c45565b6112fe6402540be400611480856001613fe1565b905086811115611e1d5760405162461bcd60e51b815260206004820152601b60248201527a1d1bdad95b905b5bdd5b9d080f881b585e109d5c9b905b5bdd5b9d602a1b604482015260640160405180910390611e1a614fe1565b50505b84608001516001600160a01b03166379cc67905a611e3961522c565b836040516001600160e01b031960e085901b1681526001600160a01b039092166004830152602482015260440160006040518083038160008780611e7b6150a7565b158015611e9057600080611e8d614fe1565b50505b505a611e9a615324565b505050505050158015611eba573d6000803e3d6000611eb7614fe1565b50505b5050505060005b8451811015611f1657611f0e5a611ed661522c565b8a8381518110611ee257fe5b6020026020010151878481518110611ef657fe5b60200260200101516001600160a01b03169190613caa565b600101611ec1565b505a611f2061522c565b6001600160a01b03167f3631c28b1f9dd213e0319fb167b554d76b6c283a41143eb400a0d1adb1af1755898488602001516115ce868b60a0015190613c45565b6305f5e100811115611fb35760405162461bcd60e51b815260206004820152600f60248201526e08ccaca40d2e640e8dede40d0d2ced608b1b604482015260640160405180910390611fb0614fe1565b50505b808060048401611fc1615272565b5050507fd88ea5155021c6f8dafa1a741e173f595cdf77ce7c17d43342131d7f06afdfe58160405190815260200160405180910390a15050565b60006120708585858589600a018061201161504c565b80602002602001604051908101604052818152919060208301828061203461504c565b801561206657602002820191906000526020600020905b8161205461504c565b8152602001906001019080831161204b575b50505050506141e4565b5095945050505050565b600080612086876132b6565b9050606087600a018061209761504c565b8060200260200160405190810160405281815291906020830182806120ba61504c565b80156120ec57602002820191906000526020600020905b816120da61504c565b815260200190600101908083116120d1575b505050505090506060886009018061210261504c565b80602002602001604051908101604052818152919060208301828061212561504c565b801561215757602002820191906000526020600020905b8161214561504c565b8152602001906001019080831161213c575b50505050509050600061217361216d8484613d06565b85613e0f565b905060005b83518110156122205786156121c6576121a989898381811061219657fe5b905060200201358583815181106111a557fe5b8482815181106121b557fe5b602002602001018181525050612218565b6121ff8989838181106121d557fe5b9050602002013560405160608101604052602380825261550a6020830139868481518110611b8657fe5b84828151811061220b57fe5b6020026020010181815250505b600101612178565b5060006122366122308585613d06565b86613e0f565b905060008060078d0161224761504c565b906101000a90046001600160a01b03166001600160a01b03166318160ddd6040518163ffffffff1660e01b8152600401602060405180830381868061228a6150a7565b15801561229f5760008061229c614fe1565b50505b505a6122a96150f3565b50505050501580156122c8573d6000803e3d60006122c5614fe1565b50505b505050506040513d60208110156122e7576000806122e4614fe1565b50505b8101908080519350508915915061231990505761230c836112fe836114808684613c45565b9650505050505050612340565b61230c612329611da08e8e612c22565b6112fe6402540be40061148087838783838b613c45565b95945050505050565b6402540be40081111561239d5760405162461bcd60e51b815260206004820152600f60248201526e08ccaca40d2e640e8dede40d0d2ced608b1b60448201526064016040518091039061239a614fe1565b50505b8080600584016123ab615272565b5050507fab599d640ca80cde2b09b128a4154a8dfe608cb80f4c9399c8b954b01fd35f388160405190815260200160405180910390a15050565b6000806124026123f48461437d565b6123fd856132b6565b613e0f565b90506000806007850161241361504c565b906101000a90046001600160a01b031690506000816001600160a01b03166318160ddd6040518163ffffffff1660e01b8152600401602060405180830381868061245b6150a7565b1580156124705760008061246d614fe1565b50505b505a61247a6150f3565b5050505050158015612499573d6000803e3d6000612496614fe1565b50505b505050506040513d60208110156124b8576000806124b5614fe1565b50505b810190808051935050821591506124eb9050576124e1816112fe85670de0b6b3a7640000614062565b93505050506124f3565b600093505050505b919050565b60606000806007870161250961504c565b906101000a90046001600160a01b031690506060866008018061252a61504c565b80602002602001604051908101604052818152919060208301828061254d61504c565b801561259a57602002820191906000526020600020905b60008261256f61504c565b906101000a90046001600160a01b03166001600160a01b031681526020019060010190808311612564575b50505050509050816001600160a01b03166370a082315a6125b961522c565b6040516001600160e01b031960e084901b1681526001600160a01b03909116600482015260240160206040518083038186806125f36150a7565b15801561260857600080612605614fe1565b50505b505a6126126150f3565b5050505050158015612631573d6000803e3d600061262e614fe1565b50505b505050506040513d60208110156126505760008061264d614fe1565b50505b81019080805189111592506126a79150505760405162461bcd60e51b815260206004820152600d60248201526c1f2628173130b630b731b2a7b360991b6044820152606401604051809103906126a4614fe1565b50505b805184146127045760405162461bcd60e51b815260206004820181905260248201527f6d696e416d6f756e7473206d757374206d6174636820706f6f6c546f6b656e73604482015260640160405180910390612701614fe1565b50505b606087600a018061271361504c565b80602002602001604051908101604052818152919060208301828061273661504c565b801561276857602002820191906000526020600020905b8161275661504c565b8152602001906001019080831161274d575b505050505090506000836001600160a01b03166318160ddd6040518163ffffffff1660e01b815260040160206040518083038186806127a56150a7565b1580156127ba576000806127b7614fe1565b50505b505a6127c46150f3565b50505050501580156127e3573d6000803e3d60006127e0614fe1565b50505b505050506040513d6020811015612802576000806127ff614fe1565b50505b81019080805193506060925061282791508b9050845a61282061522c565b8c86614455565b905060005b81518110156129245788888281811061284157fe5b9050602002013582828151811061285457fe5b602002602001015110156128b45760405162461bcd60e51b815260206004820152601a602482015279616d6f756e74735b695d203c206d696e416d6f756e74735b695d60301b6044820152606401604051809103906128b1614fe1565b50505b6128d78282815181106128c357fe5b602002602001015185838151811061139057fe5b8b600a0182816128e561504c565b81106128ed57fe5b906000526020600020018190612901615272565b50505061291c5a61291061522c565b838381518110611ee257fe5b60010161282c565b50846001600160a01b03166379cc67905a61293d61522c565b8b6040516001600160e01b031960e085901b1681526001600160a01b03909216600483015260248201526044016000604051808303816000878061297f6150a7565b15801561299457600080612991614fe1565b50505b505a61299e615324565b5050505050501580156129be573d6000803e3d60006129bb614fe1565b50505b505050505a6129cb61522c565b6001600160a01b03167f88d38ed598fdd809c2bf01ee49cd24b7fdabf379a83d29567952b60324d58cef82612a00858d613c45565b6040518080602001838152602001828103825284818151815260200191508051906020019060200280838360005b83811015612a46578082015183820152602001612a2e565b50505050905001935050505060405180910390a29450505050505b949350505050565b60008260080180612a7861504c565b90508210612ac35760405162461bcd60e51b815260206004820152601860248201526000805160206154c0833981519152604482015260640160405180910390612ac0614fe1565b50505b612b7e83600a018381612ad461504c565b8110612adc57fe5b90600052602060002001612aee61504c565b846008018481612afc61504c565b8110612b0457fe5b90600052602060002001600090612b1961504c565b906101000a90046001600160a01b03166001600160a01b03166370a082315a63996d79a5598160e01b8152602081600483336000905af158601d01573d60011458600c01573d6000803e3d621234565260ea61109c5280516000825292506020610a63565b90505b92915050565b6305f5e100811115612bda5760405162461bcd60e51b815260206004820152600f60248201526e08ccaca40d2e640e8dede40d0d2ced608b1b604482015260640160405180910390612bd7614fe1565b50505b808060068401612be8615272565b5050507fd5fe46099fa396290a7f57e36c3c3c8774e2562c18ed5d1dcc0fa75071e03f1d8160405190815260200160405180910390a15050565b6001600160a01b0381166000908152600b830160205280612c526224ea0060408320612c4c61504c565b90613fe1565b90505a612c5d6153ea565b811115612cd6576000612c795a612c726153ea565b8390613c45565b9050612ccd6402540be4006112fe6224ea006112fe856114808b600c0160008c6001600160a01b03166001600160a01b03168152602001908152602001600020612cc161504c565b8c60060161148061504c565b92505050612b81565b5060009392505050565b600080866008018660ff1681612cf461504c565b8110612cfc57fe5b90600052602060002001600090612d1161504c565b906101000a90046001600160a01b03169050806001600160a01b03166370a082315a612d3b61522c565b6040516001600160e01b031960e084901b1681526001600160a01b0390911660048201526024016020604051808303818680612d756150a7565b158015612d8a57600080612d87614fe1565b50505b505a612d946150f3565b5050505050158015612db3573d6000803e3d6000612db0614fe1565b50505b505050506040513d6020811015612dd257600080612dcf614fe1565b50505b8101908080518711159250612e399150505760405162461bcd60e51b815260206004820152601d60248201527f43616e6e6f742073776170206d6f7265207468616e20796f75206f776e000000604482015260640160405180910390612e36614fe1565b50505b6000816001600160a01b03166370a082315a63996d79a5598160e01b8152602081600483336000905af158601d01573d60011458600c01573d6000803e3d621234565260ea61109c528051925060005b6040811015612ea057600082820152602001612e89565b5050506040516001600160e01b031960e084901b1681526001600160a01b0390911660048201526024016020604051808303818680612edd6150a7565b158015612ef257600080612eef614fe1565b50505b505a612efc6150f3565b5050505050158015612f1b573d6000803e3d6000612f18614fe1565b50505b505050506040513d6020811015612f3a57600080612f37614fe1565b50505b8101908080519350612fbd925050505a612f5261522c565b5a63996d79a5598160e01b8152602081600483336000905af158601d01573d60011458600c01573d6000803e3d621234565260ea61109c528051925060005b6040811015612fa857600082820152602001612f91565b5050506001600160a01b038516919088613f78565b61301781836001600160a01b03166370a082315a63996d79a5598160e01b8152602081600483336000905af158601d01573d60011458600c01573d6000803e3d621234565260ea61109c5280516000825292506020610a63565b94505050600080606088600a018061302d61504c565b80602002602001604051908101604052818152919060208301828061305061504c565b801561308257602002820191906000526020600020905b8161307061504c565b81526020019060010190808311613067575b5050505050905061309689898989856141e4565b9093509150848310156130f85760405162461bcd60e51b815260206004820181905260248201527f53776170206469646e277420726573756c7420696e206d696e20746f6b656e736044820152606401604051809103906130f5614fe1565b50505b60006131478a6009018960ff168161310e61504c565b811061311657fe5b9060005260206000200161312861504c565b6112fe6402540be4006112fe8e60050161314061504c565b8890614062565b905061315c87838b60ff16815181106111a557fe5b8a600a018a60ff168161316d61504c565b811061317557fe5b906000526020600020018190613189615272565b5050506131a9816131a386858c60ff168151811061139057fe5b90613c45565b8a600a018960ff16816131ba61504c565b81106131c257fe5b9060005260206000200181906131d6615272565b50505061322d5a6131e561522c565b858c6008018b60ff16816131f761504c565b81106131ff57fe5b9060005260206000200160009061321461504c565b6001600160a01b036101009290920a9004169190613caa565b5a61323661522c565b6001600160a01b03167fc6c1e0630dbe9130cc068028486c0d118ddcea348550819defd5cb8c257f8a3888868c8c604051808581526020018481526020018360ff1681526020018260ff16815260200194505050505060405180910390a2509198975050505050505050565b6305f5e10081565b6000612b8160646112fe845b600080826003016132c561504c565b90506000836001016132d561504c565b9050815a6132e16153ea565b1015613379576000846002016132f561504c565b905060008561330261504c565b9050808311156133485761333d61333661331c8685613c45565b6112fe61332c865a6131a36153ea565b6114808887613c45565b8290613fe1565b9450505050506124f3565b61333d6133726133588685613c45565b6112fe613368865a6131a36153ea565b6114808689613c45565b8290613c45565b91506124f39050565b606481565b60008061344e86868686856007850161339e61504c565b906101000a90046001600160a01b03166001600160a01b03166318160ddd6040518163ffffffff1660e01b815260040160206040518083038186806133e16150a7565b1580156133f6576000806133f3614fe1565b50505b505a6134006150f3565b505050505015801561341f573d6000803e3d600061341c614fe1565b50505b505050506040513d602081101561343e5760008061343b614fe1565b50505b810190808051925061456f915050565b509695505050505050565b600080806007870161346961504c565b906101000a90046001600160a01b031690506060866008018061348a61504c565b8060200260200160405190810160405281815291906020830182806134ad61504c565b80156134fa57602002820191906000526020600020905b6000826134cf61504c565b906101000a90046001600160a01b03166001600160a01b0316815260200190600101908083116134c4575b50505050509050816001600160a01b03166370a082315a61351961522c565b6040516001600160e01b031960e084901b1681526001600160a01b03909116600482015260240160206040518083038186806135536150a7565b15801561356857600080613565614fe1565b50505b505a6135726150f3565b5050505050158015613591573d6000803e3d600061358e614fe1565b50505b505050506040513d60208110156135b0576000806135ad614fe1565b50505b81019080805189111592506136079150505760405162461bcd60e51b815260206004820152600d60248201526c1f2628173130b630b731b2a7b360991b604482015260640160405180910390613604614fe1565b50505b80518560ff16106136595760405162461bcd60e51b815260206004820152600f60248201526e151bdad95b881b9bdd08199bdd5b99608a1b604482015260640160405180910390613656614fe1565b50505b6000826001600160a01b03166318160ddd6040518163ffffffff1660e01b8152600401602060405180830381868061368f6150a7565b1580156136a4576000806136a1614fe1565b50505b505a6136ae6150f3565b50505050501580156136cd573d6000803e3d60006136ca614fe1565b50505b505050506040513d60208110156136ec576000806136e9614fe1565b50505b81019080805193506000925082915061371290508a5a61370a61522c565b8b8b8761456f565b91509150868210156137645760405162461bcd60e51b815260206004820152600e60248201526d191e480f081b5a5b905b5bdd5b9d60921b604482015260640160405180910390613761614fe1565b50505b6137b46137896137826402540be4006112fe8e60050161133061504c565b8490613fe1565b8b600a018a60ff168161379a61504c565b81106137a257fe5b906000526020600020016131a361504c565b8a600a018960ff16816137c561504c565b81106137cd57fe5b9060005260206000200181906137e1615272565b505050846001600160a01b03166379cc67905a6137fc61522c565b8b6040516001600160e01b031960e085901b1681526001600160a01b03909216600483015260248201526044016000604051808303816000878061383e6150a7565b15801561385357600080613850614fe1565b50505b505a61385d615324565b50505050505015801561387d573d6000803e3d600061387a614fe1565b50505b5050505061389d5a61388d61522c565b83868b60ff1681518110611ef657fe5b5a6138a661522c565b6001600160a01b03167f43fb02998f4e03da2e0e6fff53fdbf0c40a9f45f145dc377fc30615d7d7a8a648a858b86604051808581526020018481526020018360ff16815260200182815260200194505050505060405180910390a25098975050505050505050565b6001600160a01b0381166000908152600b830160205260408120612b7e61504c565b6001600160a01b03821661394357613b09565b8260060161394f61504c565b613986576001600160a01b0382166000908152600c84016020526402540be4009060409020819061397e615272565b505050613ad8565b60006139928484612c22565b9050600080600786016139a361504c565b906101000a90046001600160a01b03166001600160a01b03166370a08231856040516001600160e01b031960e084901b1681526001600160a01b03909116600482015260240160206040518083038186806139fc6150a7565b158015613a1157600080613a0e614fe1565b50505b505a613a1b6150f3565b5050505050158015613a3a573d6000803e3d6000613a37614fe1565b50505b505050506040513d6020811015613a5957600080613a56614fe1565b50505b8101908080519350613aae9250613a8291505060068701613a7861504c565b6114808685613fe1565b6112fe6402540be400611480613aa48a600601613a9d61504c565b8990614062565b612c4c8789614062565b6001600160a01b0385166000908152600c8701602052604090208190613ad2615272565b50505050505b5a613ae16153ea565b6001600160a01b0383166000908152600b8501602052604090208190613b05615272565b5050505b505050565b6402540be40081565b6060612a618485600a0180613b2a61504c565b806020026020016040519081016040528181529190602083018280613b4d61504c565b8015613b7f57602002820191906000526020600020905b81613b6d61504c565b81526020019060010190808311613b64575b5050505050858588600701600090613b9561504c565b906101000a90046001600160a01b03166001600160a01b03166318160ddd6040518163ffffffff1660e01b81526004016020604051808303818680613bd86150a7565b158015613bed57600080613bea614fe1565b50505b505a613bf76150f3565b5050505050158015613c16573d6000803e3d6000613c13614fe1565b50505b505050506040513d6020811015613c3557600080613c32614fe1565b50505b8101908080519250614455915050565b600082821115613ca45760405162461bcd60e51b815260206004820152601e60248201527f536166654d6174683a207375627472616374696f6e206f766572666c6f770000604482015260640160405180910390613ca1614fe1565b50505b50900390565b613b098363a9059cbb60e01b84846040516001600160a01b0390921660248301526044820152606401604051602081830303815290604052906001600160e01b0319166020820180516001600160e01b031690911790526145f3565b606060008351905082518114613d6b5760405162461bcd60e51b815260206004820152601f60248201527f42616c616e636573206d757374206d61746368206d756c7469706c6965727300604482015260640160405180910390613d68614fe1565b50505b6060816001600160401b0381118015613d8c57600080613d89614fe1565b50505b50604051908082528060200260200182016040528015613db6578160200160208202803683370190505b50905060005b82811015613e0657613de7858281518110613dd357fe5b602002602001015187838151811061137657fe5b828281518110613df357fe5b6020908102919091010152600101613dbc565b50949350505050565b600080835190506000805b82811015613e4a57613e40868281518110613e3157fe5b60200260200101518390613fe1565b9150600101613e1a565b5080613e5b57600092505050612b81565b60008181613e698786614062565b905060005b610100811015613f22578260005b87811015613eab57613ea1613e97898d848151811061137657fe5b6112fe8488614062565b9150600101613e7c565b509293508392613ef9613ed9613ec6836114808b6001613fe1565b612c4c60646112fe896114808a84613c45565b6112fe86611480613eea868d614062565b612c4c60646112fe8b8f614062565b9350613f0584866146ba565b15613f195783975050505050505050612b81565b50600101613e6e565b5060405162461bcd60e51b81526020600482015260136024820152724420646f6573206e6f7420636f6e766572676560681b604482015260640160405180910390613f6b614fe1565b5050505050505092915050565b610b4b846323b872dd60e01b8585856040516001600160a01b0393841660248201529190921660448201526064810191909152608401604051602081830303815290604052906001600160e01b0319166020820180516001600160e01b031690911790526145f3565b600082820183811015612b7e5760405162461bcd60e51b815260206004820152601b60248201527a536166654d6174683a206164646974696f6e206f766572666c6f7760281b60448201526064016040518091039061403e614fe1565b50509392505050565b6000612b7e61405c6004611480856001613c45565b6112fe85855b60008261407157506000612b81565b8282028284828161407e57fe5b0414612b7e5760405162461bcd60e51b815260040180806020018281038252602181526020018061547f602191396040019150506040518091039061403e614fe1565b600080821161411c5760405162461bcd60e51b815260206004820152601a602482015279536166654d6174683a206469766973696f6e206279207a65726f60301b604482015260640160405180910390614119614fe1565b50505b81838161412557fe5b049392505050565b6000818311156141405750808203612b81565b500390565b60008184841115613ca15760405162461bcd60e51b81526004018080602001828103825283818151815260200191508051906020019080838360005b83811015614199578082015183820152602001614181565b50505050905090810190601f1680156141c65780820380516001836020036101000a031916815260200191505b5092505050604051809103906141da614fe1565b5050505050900390565b600080606087600901806141f661504c565b80602002602001604051908101604052818152919060208301828061421961504c565b801561424b57602002820191906000526020600020905b8161423961504c565b81526020019060010190808311614230575b50505050509050606061425e8583613d06565b905080518860ff16108015614276575080518760ff16105b6142bd5760405162461bcd60e51b815260206004820152601860248201526000805160206154c08339815191526044820152606401604051809103906142ba614fe1565b50505b60006142fa828a60ff16815181106142d157fe5b6020026020010151612c4c858c60ff16815181106142eb57fe5b60200260200101518a90614062565b9050600061431361430a8c6132b6565b8b8b85876146d1565b905061432d60016131a383868d60ff168151811061139057fe5b95506143476402540be4006112fe8d600401613a9d61504c565b945061436d848a60ff168151811061435b57fe5b60200260200101516112fe8888613c45565b9550505050509550959350505050565b6060612b8182600a018061438f61504c565b8060200260200160405190810160405281815291906020830182806143b261504c565b80156143e457602002820191906000526020600020905b816143d261504c565b815260200190600101908083116143c9575b505050505083600901806143f661504c565b80602002602001604051908101604052818152919060208301828061441961504c565b801561444b57602002820191906000526020600020905b8161443961504c565b81526020019060010190808311614430575b5050505050613d06565b6060818311156144b15760405162461bcd60e51b815260206004820152601a60248201527943616e6e6f742065786365656420746f74616c20737570706c7960301b6044820152606401604051809103906144ae614fe1565b50505b60006144d36402540be4006112fe6144cc611da08b8a612c22565b8790614062565b9050606086516001600160401b03811180156144f7576000806144f4614fe1565b50505b50604051908082528060200260200182016040528015614521578160200160208202803683370190505b50905060005b875181101561456357614544856112fe858b858151811061137657fe5b82828151811061455057fe5b6020908102919091010152600101614527565b50979650505050505050565b60008060008060006145838a888a89614929565b9194509250905060006145c8846131a360098e0160ff8c16816145a461504c565b81106145ac57fe5b906000526020600020016145be61504c565b6112fe8688613c45565b90506145e36402540be4006112fe6144cc611da08f8f612c22565b9b909a5098505050505050505050565b606061463e826040516040808201905260208082527f5361666545524332303a206c6f772d6c6576656c2063616c6c206661696c6564908201526001600160a01b0386169190614c28565b9050600081511115613b0957602081018151602081101561466757600080614664614fe1565b50505b8101908080519250613b099150505760405162461bcd60e51b815260040180806020018281038252602a8152602001806154e0602a9139604001915050604051809103906146b3614fe1565b5050505050565b600060016146c8848461412d565b11159392505050565b600080825190508460ff168660ff16141561473b5760405162461bcd60e51b815260206004820152601d60248201527f43616e277420636f6d7061726520746f6b656e20746f20697473656c66000000604482015260640160405180910390614738614fe1565b50505b808660ff1610801561474f5750808560ff16105b6147a15760405162461bcd60e51b8152602060048201526016602482015275151bdad95b9cc81b5d5cdd081899481a5b881c1bdbdb60521b60448201526064016040518091039061479e614fe1565b50505b60006147ad8489613e0f565b9050806000806147bd858c614062565b90506000805b86811015614836578b60ff168114156147de57899150614808565b8a60ff168114614803578881815181106147f457fe5b60200260200101519150614808565b61482e565b6148128483613fe1565b935061482b6148218389614062565b6112fe8789614062565b94505b6001016147c3565b506148536148448388614062565b6112fe6064611480888a614062565b93506000614870614869846112fe896064614062565b8590613fe1565b9050600086815b6101008110156148d45790915081906148aa61489c8a6131a387612c4c876002614062565b6112fe8a612c4c8680614062565b91506148b682846146ba565b156148cc57509850612340975050505050505050565b600101614877565b5060405162461bcd60e51b815260206004820152601e60248201526000805160206154a0833981519152604482015260640160405180910390614915614fe1565b505050505050505050505095945050505050565b600080600060606149398861437d565b905080518760ff16106149895760405162461bcd60e51b815260206004820152601860248201526000805160206154c0833981519152604482015260640160405180910390614986614fe1565b50505b614991615430565b6040518060a0016040528060008152602001600081526020016000815260200160008152602001600081525090506149c8896132b6565b608082019081526149db90839051613e0f565b81526149f86149f0876112fe84518b90614062565b825190613c45565b60208201528160ff891681518110614a0c57fe5b6020026020010151871115614a6d5760405162461bcd60e51b815260206004820152601a6024820152795769746864726177206578636565647320617661696c61626c6560301b604482015260640160405180910390614a6a614fe1565b50505b614a81816080015189848460200151614c37565b6040820152606082516001600160401b0381118015614aa857600080614aa5614fe1565b50505b50604051908082528060200260200182016040528015614ad2578160200160208202803683370190505b509050614aeb8a600401614ae461504c565b8451614047565b606083015260005b8351811015614b91576000848281518110614b0a57fe5b60200260200101519050614b716133726402540be4006112fe87606001518f60ff168714614b5557614b50614b498a516112fe8c602001518a90614062565b8790613c45565b611480565b61148089604001516131a38b516112fe8d602001518b90614062565b838381518110614b7d57fe5b602090810291909101015250600101614af3565b506000614bba614bab84608001518c858760200151614c37565b838c60ff168151811061139057fe5b9050614bf58b6009018b60ff1681614bd061504c565b8110614bd857fe5b90600052602060002001614bea61504c565b6112fe836001613c45565b9050808360400151858c60ff1681518110614c0c57fe5b6020026020010151965096509650505050509450945094915050565b6060612a618484600085614de3565b60008083519050808560ff1610614c8f5760405162461bcd60e51b815260206004820152600f60248201526e151bdad95b881b9bdd08199bdd5b99608a1b604482015260640160405180910390614c8c614fe1565b50505b82600080614c9d8985614062565b905060005b84811015614cfc578860ff168114614cf457614cd2888281518110614cc357fe5b60200260200101518490613fe1565b9250614cf1614ce7868a848151811061137657fe5b6112fe868a614062565b93505b600101614ca2565b50614d19614d0a8286614062565b6112fe6064611480878b614062565b92506000614d2f613782836112fe8a6064614062565b9050600087815b610100811015614d91579091508190614d69614d5b8b6131a387612c4c876002614062565b6112fe89612c4c8680614062565b9150614d7582846146ba565b15614d8957509650612a6195505050505050565b600101614d36565b5060405162461bcd60e51b815260206004820152601e60248201526000805160206154a0833981519152604482015260640160405180910390614dd2614fe1565b505050505050505050949350505050565b6060614dee85614f15565b614e475760405162461bcd60e51b815260206004820152601d60248201527f416464726573733a2063616c6c20746f206e6f6e2d636f6e7472616374000000604482015260640160405180910390614e44614fe1565b50505b60006060866001600160a01b031685876040518082805190602001908083835b60208310614e865780518252601f199092019160209182019101614e67565b6001836020036101000a03801982511681845116808217855250505050505090500191505060006040518083038185875a614ebf615324565b505050505050925050503d8060008114614ef5576040513d603f01601f191681016040523d815291503d6000602084013e614efa565b606091505b5091509150614f0a828286614f2a565b979650505050505050565b60008082614f216150a7565b15159392505050565b60608315614f3957508161167b565b600083511115614f5a5782518084602001614f52614fe1565b50505061167b565b8160405162461bcd60e51b81526004018080602001828103825283818151815260200191508051906020019080838360005b83811015614fa4578082015183820152602001614f8c565b50505050905090810190601f168015614fd15780820380516001836020036101000a031916815260200191505b50925050506040518091039061403e5b632a2a7adb598160e01b8152600481016020815285602082015260005b86811015615019578086015182820160400152602001614ffe565b506020828760640184336000905af158601d01573d60011458600c01573d6000803e3d621234565260ea61109c52505050565b6303daa959598160e01b8152836004820152602081602483336000905af158601d01573d60011458600c01573d6000803e3d621234565260ea61109c528051935060005b6040811015613b0957600082820152602001615090565b638435035b598160e01b8152836004820152602081602483336000905af158601d01573d60011458600c01573d6000803e3d621234565260ea61109c5280516000825293506020615090565b638540661f598160e01b8152615124565b8080831115612b81575090919050565b8080831015612b81575090919050565b836004820152846024820152606060448201528660648201526084810160005b8881101561515c578088015182820152602001615144565b506060828960a40184336000905af158601d01573d60011458600c01573d6000803e3d621234565260ea61109c52815160408301513d6000853e8b8b82606087013350600060045af150596151b18d3d615114565b8c016151bd8187615104565b5b828110156151d257600081526020016151be565b50929c50505050505050565b6040518061010001604052806000815260200160008152602001600081526020016000815260200160006001600160a01b031681526020016000815260200160608152602001606081525090565b6373509064598160e01b8152602081600483336000905af158601d01573d60011458600c01573d6000803e3d621234565260ea61109c5280516000825293506020615090565b6322bd64c0598160e01b8152836004820152846024820152600081604483336000905af158601d01573d60011458600c01573d6000803e3d621234565260ea61109c52600081526020615090565b82806152ca61504c565b82826152d4615272565b5050906000526020600020908101928215615314579160200282015b8281111561531457825182615303615272565b5050916020019190600101906152f0565b5061532092915061545f565b5090565b6385979f76598160e01b8152836004820152846024820152606060448201528760648201526084810160005b89811015615368578089015182820152602001615350565b506060828a60a40184336000905af158601d01573d60011458600c01573d6000803e3d621234565260ea61109c52815160408301513d6000853e8c8c82606087013350600060045af150596153bd8e3d615114565b8d016153c98187615104565b5b828110156153de57600081526020016153ca565b50929d50505050505050565b63bdbf8c36598160e01b8152602081600483336000905af158601d01573d60011458600c01573d6000803e3d621234565260ea61109c5280516000825293506020615090565b6040518060a0016040528060008152602001600081526020016000815260200160008152602001600081525090565b808211156153205760008082615473615272565b50505060010161545f56fe536166654d6174683a206d756c7469706c69636174696f6e206f766572666c6f77417070726f78696d6174696f6e20646964206e6f7420636f6e76657267650000546f6b656e20696e646578206f7574206f662072616e676500000000000000005361666545524332303a204552433230206f7065726174696f6e20646964206e6f74207375636365656443616e6e6f74207769746864726177206d6f7265207468616e20617661696c61626c65",
  "devdoc": {
    "details": "Contracts relying on this library must initialize SwapUtils.Swap struct then use this library for SwapUtils.Swap struct. Note that this library contains both functions called by users and admins. Admin functions should be protected within contracts using this library.",
    "kind": "dev",
    "methods": {
      "addLiquidity(SwapUtils.Swap storage,uint256[],uint256)": {
        "params": {
          "amounts": "the amounts of each token to add, in their native precision",
          "minToMint": "the minimum LP tokens adding this amount of liquidity should mint, otherwise revert. Handy for front-running mitigation allowed addresses. If the pool is not in the guarded launch phase, this parameter will be ignored.",
          "self": "Swap struct to read from and write to"
        },
        "returns": {
          "_0": "amount of LP token user received"
        }
      },
      "calculateCurrentWithdrawFee(SwapUtils.Swap storage,address)": {
        "params": {
          "user": "address you want to calculate withdraw fee of"
        },
        "returns": {
          "_0": "current withdraw fee of the user"
        }
      },
      "calculateRemoveLiquidity(SwapUtils.Swap storage,address,uint256)": {
        "params": {
          "account": "the address that is removing liquidity. required for withdraw fee calculation",
          "amount": "the amount of LP tokens that would to be burned on withdrawal"
        },
        "returns": {
          "_0": "array of amounts of tokens user will receive"
        }
      },
      "calculateSwap(SwapUtils.Swap storage,uint8,uint8,uint256)": {
        "params": {
          "dx": "the number of tokens to sell. If the token charges a fee on transfers, use the amount that gets transferred after the fee.",
          "self": "Swap struct to read from",
          "tokenIndexFrom": "the token to sell",
          "tokenIndexTo": "the token to buy"
        },
        "returns": {
          "dy": "the number of tokens the user will get"
        }
      },
      "calculateTokenAmount(SwapUtils.Swap storage,address,uint256[],bool)": {
        "details": "This shouldn't be used outside frontends for user estimates.",
        "params": {
          "account": "address of the account depositing or withdrawing tokens",
          "amounts": "an array of token amounts to deposit or withdrawal, corresponding to pooledTokens. The amount should be in each pooled token's native precision. If a token charges a fee on transfers, use the amount that gets transferred after the fee.",
          "deposit": "whether this is a deposit or a withdrawal",
          "self": "Swap struct to read from"
        },
        "returns": {
          "_0": "if deposit was true, total amount of lp token that will be minted and if deposit was false, total amount of lp token that will be burned"
        }
      },
      "calculateWithdrawOneToken(SwapUtils.Swap storage,address,uint256,uint8)": {
        "params": {
          "account": "the address that is withdrawing",
          "self": "Swap struct to read from",
          "tokenAmount": "the amount to withdraw in the pool's precision",
          "tokenIndex": "which token will be withdrawn"
        },
        "returns": {
          "_0": "the amount of token user will receive"
        }
      },
      "getA(SwapUtils.Swap storage)": {
        "details": "See the StableSwap paper for details",
        "params": {
          "self": "Swap struct to read from"
        },
        "returns": {
          "_0": "A parameter"
        }
      },
      "getAPrecise(SwapUtils.Swap storage)": {
        "details": "See the StableSwap paper for details",
        "params": {
          "self": "Swap struct to read from"
        },
        "returns": {
          "_0": "A parameter in its raw precision form"
        }
      },
      "getAdminBalance(SwapUtils.Swap storage,uint256)": {
        "params": {
          "index": "Index of the pooled token",
          "self": "Swap struct to read from"
        },
        "returns": {
          "_0": "admin balance in the token's precision"
        }
      },
      "getDepositTimestamp(SwapUtils.Swap storage,address)": {
        "params": {
          "self": "Swap struct to read from"
        },
        "returns": {
          "_0": "timestamp of last deposit"
        }
      },
      "getVirtualPrice(SwapUtils.Swap storage)": {
        "params": {
          "self": "Swap struct to read from"
        },
        "returns": {
          "_0": "the virtual price, scaled to precision of POOL_PRECISION_DECIMALS"
        }
      },
      "removeLiquidity(SwapUtils.Swap storage,uint256,uint256[])": {
        "details": "Liquidity can always be removed, even when the pool is paused.",
        "params": {
          "amount": "the amount of LP tokens to burn",
          "minAmounts": "the minimum amounts of each token in the pool acceptable for this burn. Useful as a front-running mitigation",
          "self": "Swap struct to read from and write to"
        },
        "returns": {
          "_0": "amounts of tokens the user received"
        }
      },
      "removeLiquidityImbalance(SwapUtils.Swap storage,uint256[],uint256)": {
        "params": {
          "amounts": "how much of each token to withdraw",
          "maxBurnAmount": "the max LP token provider is willing to pay to remove liquidity. Useful as a front-running mitigation.",
          "self": "Swap struct to read from and write to"
        },
        "returns": {
          "_0": "actual amount of LP tokens burned in the withdrawal"
        }
      },
      "removeLiquidityOneToken(SwapUtils.Swap storage,uint256,uint8,uint256)": {
        "params": {
          "minAmount": "the minimum amount to withdraw, otherwise revert",
          "self": "Swap struct to read from and write to",
          "tokenAmount": "the amount of the lp tokens to burn",
          "tokenIndex": "the index of the token you want to receive"
        },
        "returns": {
          "_0": "amount chosen token that user received"
        }
      },
      "setAdminFee(SwapUtils.Swap storage,uint256)": {
        "details": "adminFee cannot be higher than 100% of the swap fee",
        "params": {
          "newAdminFee": "new admin fee to be applied on future transactions",
          "self": "Swap struct to update"
        }
      },
      "setDefaultWithdrawFee(SwapUtils.Swap storage,uint256)": {
        "params": {
          "newWithdrawFee": "new withdraw fee to be applied",
          "self": "Swap struct to update"
        }
      },
      "setSwapFee(SwapUtils.Swap storage,uint256)": {
        "details": "fee cannot be higher than 1% of each swap",
        "params": {
          "newSwapFee": "new swap fee to be applied on future transactions",
          "self": "Swap struct to update"
        }
      },
      "swap(SwapUtils.Swap storage,uint8,uint8,uint256,uint256)": {
        "params": {
          "dx": "the amount of tokens the user wants to sell",
          "minDy": "the min amount the user would like to receive, or revert.",
          "self": "Swap struct to read from and write to",
          "tokenIndexFrom": "the token the user wants to sell",
          "tokenIndexTo": "the token the user wants to buy"
        },
        "returns": {
          "_0": "amount of token user received on swap"
        }
      },
      "updateUserWithdrawFee(SwapUtils.Swap storage,address,uint256)": {
        "params": {
          "self": "Swap struct to read from and write to",
          "toMint": "amount of pool tokens to be minted",
          "user": "address of the user depositing tokens"
        }
      },
      "withdrawAdminFees(SwapUtils.Swap storage,address)": {
        "params": {
          "self": "Swap struct to withdraw fees from",
          "to": "Address to send the fees to"
        }
      }
    },
    "title": "SwapUtils library",
    "version": 1
  },
  "userdoc": {
    "kind": "user",
    "methods": {
      "addLiquidity(SwapUtils.Swap storage,uint256[],uint256)": {
        "notice": "Add liquidity to the pool"
      },
      "calculateCurrentWithdrawFee(SwapUtils.Swap storage,address)": {
        "notice": "Calculate the fee that is applied when the given user withdraws. Withdraw fee decays linearly over 4 weeks."
      },
      "calculateRemoveLiquidity(SwapUtils.Swap storage,address,uint256)": {
        "notice": "A simple method to calculate amount of each underlying tokens that is returned upon burning given amount of LP tokens"
      },
      "calculateSwap(SwapUtils.Swap storage,uint8,uint8,uint256)": {
        "notice": "Externally calculates a swap between two tokens."
      },
      "calculateTokenAmount(SwapUtils.Swap storage,address,uint256[],bool)": {
        "notice": "A simple method to calculate prices from deposits or withdrawals, excluding fees but including slippage. This is helpful as an input into the various \"min\" parameters on calls to fight front-running"
      },
      "calculateWithdrawOneToken(SwapUtils.Swap storage,address,uint256,uint8)": {
        "notice": "Calculate the dy, the amount of selected token that user receives and the fee of withdrawing in one token"
      },
      "getA(SwapUtils.Swap storage)": {
        "notice": "Return A, the amplification coefficient * n * (n - 1)"
      },
      "getAPrecise(SwapUtils.Swap storage)": {
        "notice": "Return A in its raw precision"
      },
      "getAdminBalance(SwapUtils.Swap storage,uint256)": {
        "notice": "return accumulated amount of admin fees of the token with given index"
      },
      "getDepositTimestamp(SwapUtils.Swap storage,address)": {
        "notice": "Retrieves the timestamp of last deposit made by the given address"
      },
      "getVirtualPrice(SwapUtils.Swap storage)": {
        "notice": "Get the virtual price, to help calculate profit"
      },
      "removeLiquidity(SwapUtils.Swap storage,uint256,uint256[])": {
        "notice": "Burn LP tokens to remove liquidity from the pool."
      },
      "removeLiquidityImbalance(SwapUtils.Swap storage,uint256[],uint256)": {
        "notice": "Remove liquidity from the pool, weighted differently than the pool's current balances."
      },
      "removeLiquidityOneToken(SwapUtils.Swap storage,uint256,uint8,uint256)": {
        "notice": "Remove liquidity from the pool all in one token."
      },
      "setAdminFee(SwapUtils.Swap storage,uint256)": {
        "notice": "Sets the admin fee"
      },
      "setDefaultWithdrawFee(SwapUtils.Swap storage,uint256)": {
        "notice": "update the default withdraw fee. This also affects deposits made in the past as well."
      },
      "setSwapFee(SwapUtils.Swap storage,uint256)": {
        "notice": "update the swap fee"
      },
      "swap(SwapUtils.Swap storage,uint8,uint8,uint256,uint256)": {
        "notice": "swap two tokens in the pool"
      },
      "updateUserWithdrawFee(SwapUtils.Swap storage,address,uint256)": {
        "notice": "Update the withdraw fee for `user`. If the user is currently not providing liquidity in the pool, sets to default value. If not, recalculate the starting withdraw fee based on the last deposit's time & amount relative to the new deposit."
      },
      "withdrawAdminFees(SwapUtils.Swap storage,address)": {
        "notice": "withdraw all admin fees to a given address"
      }
    },
    "notice": "A library to be used within Swap.sol. Contains functions responsible for custody and AMM functionalities.",
    "version": 1
  },
  "storageLayout": {
    "storage": [],
    "types": null
  }
}