{
  "address": "0xA500b0e1360462eF777804BCAe6CE2BfB524dD2e",
  "abi": [
    {
      "anonymous": false,
      "inputs": [
        {
          "indexed": true,
          "internalType": "address",
          "name": "provider",
          "type": "address"
        },
        {
          "indexed": false,
          "internalType": "uint256[]",
          "name": "tokenAmounts",
          "type": "uint256[]"
        },
        {
          "indexed": false,
          "internalType": "uint256[]",
          "name": "fees",
          "type": "uint256[]"
        },
        {
          "indexed": false,
          "internalType": "uint256",
          "name": "invariant",
          "type": "uint256"
        },
        {
          "indexed": false,
          "internalType": "uint256",
          "name": "lpTokenSupply",
          "type": "uint256"
        }
      ],
      "name": "AddLiquidity",
      "type": "event"
    },
    {
      "anonymous": false,
      "inputs": [
        {
          "indexed": false,
          "internalType": "uint256",
          "name": "newAdminFee",
          "type": "uint256"
        }
      ],
      "name": "NewAdminFee",
      "type": "event"
    },
    {
      "anonymous": false,
      "inputs": [
        {
          "indexed": false,
          "internalType": "uint256",
          "name": "newSwapFee",
          "type": "uint256"
        }
      ],
      "name": "NewSwapFee",
      "type": "event"
    },
    {
      "anonymous": false,
      "inputs": [
        {
          "indexed": false,
          "internalType": "uint256",
          "name": "newWithdrawFee",
          "type": "uint256"
        }
      ],
      "name": "NewWithdrawFee",
      "type": "event"
    },
    {
      "anonymous": false,
      "inputs": [
        {
          "indexed": true,
          "internalType": "address",
          "name": "provider",
          "type": "address"
        },
        {
          "indexed": false,
          "internalType": "uint256[]",
          "name": "tokenAmounts",
          "type": "uint256[]"
        },
        {
          "indexed": false,
          "internalType": "uint256[]",
          "name": "fees",
          "type": "uint256[]"
        },
        {
          "indexed": false,
          "internalType": "uint256",
          "name": "invariant",
          "type": "uint256"
        },
        {
          "indexed": false,
          "internalType": "uint256",
          "name": "lpTokenSupply",
          "type": "uint256"
        }
      ],
      "name": "RemoveLiquidityImbalance",
      "type": "event"
    },
    {
      "anonymous": false,
      "inputs": [
        {
          "indexed": true,
          "internalType": "address",
          "name": "provider",
          "type": "address"
        },
        {
          "indexed": false,
          "internalType": "uint256",
          "name": "lpTokenAmount",
          "type": "uint256"
        },
        {
          "indexed": false,
          "internalType": "uint256",
          "name": "lpTokenSupply",
          "type": "uint256"
        },
        {
          "indexed": false,
          "internalType": "uint256",
          "name": "boughtId",
          "type": "uint256"
        },
        {
          "indexed": false,
          "internalType": "uint256",
          "name": "tokensBought",
          "type": "uint256"
        }
      ],
      "name": "RemoveLiquidityOne",
      "type": "event"
    },
    {
      "anonymous": false,
      "inputs": [
        {
          "indexed": true,
          "internalType": "address",
          "name": "buyer",
          "type": "address"
        },
        {
          "indexed": false,
          "internalType": "uint256",
          "name": "tokensSold",
          "type": "uint256"
        },
        {
          "indexed": false,
          "internalType": "uint256",
          "name": "tokensBought",
          "type": "uint256"
        },
        {
          "indexed": false,
          "internalType": "uint128",
          "name": "soldId",
          "type": "uint128"
        },
        {
          "indexed": false,
          "internalType": "uint128",
          "name": "boughtId",
          "type": "uint128"
        }
      ],
      "name": "TokenSwap",
      "type": "event"
    },
    {
      "anonymous": false,
      "inputs": [
        {
          "indexed": true,
          "internalType": "address",
          "name": "buyer",
          "type": "address"
        },
        {
          "indexed": false,
          "internalType": "uint256",
          "name": "tokensSold",
          "type": "uint256"
        },
        {
          "indexed": false,
          "internalType": "uint256",
          "name": "tokensBought",
          "type": "uint256"
        },
        {
          "indexed": false,
          "internalType": "uint128",
          "name": "soldId",
          "type": "uint128"
        },
        {
          "indexed": false,
          "internalType": "uint128",
          "name": "boughtId",
          "type": "uint128"
        }
      ],
      "name": "TokenSwapUnderlying",
      "type": "event"
    },
    {
      "inputs": [],
      "name": "BASE_CACHE_EXPIRE_TIME",
      "outputs": [
        {
          "internalType": "uint256",
          "name": "",
          "type": "uint256"
        }
      ],
      "stateMutability": "view",
      "type": "function"
    },
    {
      "inputs": [],
      "name": "BASE_VIRTUAL_PRICE_PRECISION",
      "outputs": [
        {
          "internalType": "uint256",
          "name": "",
          "type": "uint256"
        }
      ],
      "stateMutability": "view",
      "type": "function"
    }
  ],
  "transactionHash": "0x2b45d415c833a983378c9457bb9a9014eca7716775b045612aedd8c646462da2",
  "args": [],
  "numDeployments": 1,
  "solcInputHash": "bc3a64a5cffb1e8de0dbf9fb306e4f9f",
  "bytecode": "0x614b42610026600b82828239805160001a60731461001957fe5b30600052607381538281f3fe73000000000000000000000000000000000000000030146080604052600436106100dd5760003560e01c8063becf967c1161008b578063d45757ba11610065578063d45757ba1461041d578063e9d4d07714610459578063f6ada8c21461047c576100dd565b8063becf967c14610312578063c1a662731461031a578063d1ab4b4a1461035f576100dd565b80637e971656116100bc5780637e971656146101fd57806398414eed146102bb578063a28c23411461030a576100dd565b806280247a146100e25780635afb90ff1461014357806378b0bcbe1461017f575b600080fd5b8180156100ee57600080fd5b50610131600480360360c081101561010557600080fd5b5080359060208101359060ff604082013581169160608101359091169060808101359060a001356104ae565b60408051918252519081900360200190f35b610131600480360360a081101561015957600080fd5b5080359060208101359060ff604082013581169160608101359091169060800135611162565b6101316004803603608081101561019557600080fd5b8135916020810135918101906060810160408201356401000000008111156101bc57600080fd5b8201836020820111156101ce57600080fd5b803590602001918460208302840111640100000000831117156101f057600080fd5b9193509150351515611184565b81801561020957600080fd5b506101316004803603608081101561022057600080fd5b81359160208101359181019060608101604082013564010000000081111561024757600080fd5b82018360208201111561025957600080fd5b8035906020019184602083028401116401000000008311171561027b57600080fd5b9190808060200260200160405190810160405280939291908181526020018383602002808284376000920191909152509295505091359250611408915050565b8180156102c757600080fd5b50610131600480360360c08110156102de57600080fd5b5080359060208101359060ff604082013581169160608101359091169060808101359060a00135611b9d565b610131611fb7565b610131611fc3565b81801561032657600080fd5b50610131600480360360a081101561033d57600080fd5b5080359060208101359060408101359060ff6060820135169060800135611fc9565b81801561036b57600080fd5b506101316004803603608081101561038257600080fd5b8135916020810135918101906060810160408201356401000000008111156103a957600080fd5b8201836020820111156103bb57600080fd5b803590602001918460208302840111640100000000831117156103dd57600080fd5b9190808060200260200160405190810160405280939291908181526020018383602002808284376000920191909152509295505091359250612355915050565b610131600480360360a081101561043357600080fd5b5080359060208101359060ff604082013581169160608101359091169060800135612bb6565b6101316004803603604081101561046f57600080fd5b5080359060200135613139565b6101316004803603608081101561049257600080fd5b508035906020810135906040810135906060013560ff166132b8565b60006104b86148df565b6040518061016001604052806000815260200160008152602001600081526020018960080180548060200260200160405190810160405280929190818152602001828054801561052757602002820191906000526020600020905b815481526020019060010190808311610513575b505050505081526020018960090180548060200260200160405190810160405280929190818152602001828054801561057f57602002820191906000526020600020905b81548152602001906001019080831161056b575b50505050508152602001886003018054806020026020016040519081016040528092919081815260200182805480156105e157602002820191906000526020600020905b81546001600160a01b031681526001909101906020018083116105c3575b50505091835250506000602082018190526040820181905260608201819052608082015260a00161061189613354565b905260808101515190915060009061062a906001613411565b905060008260a00151518260ff160190508060ff168860ff1610801561065557508060ff168760ff16105b6106a6576040805162461bcd60e51b815260206004820152601860248201527f546f6b656e20696e646578206f7574206f662072616e67650000000000000000604482015290519081900360640190fd5b5087546001600160a01b031660ff80831690891610156106fa57896007018860ff16815481106106d257fe5b6000918252602090912001546001600160a01b031660c084015260ff881660e0840152610732565b8260a0015182890360ff168151811061070f57fe5b60209081029190910101516001600160a01b031660c084015260ff821660e08401525b8160ff168760ff16101561077c57896007018760ff168154811061075257fe5b6000918252602090912001546001600160a01b031661010084015260ff87166101208401526107b6565b8260a0015182880360ff168151811061079157fe5b60209081029190910101516001600160a01b031661010084015260ff82166101208401525b8260c001516001600160a01b03166370a08231306040518263ffffffff1660e01b815260040180826001600160a01b0316815260200191505060206040518083038186803b15801561080757600080fd5b505afa15801561081b573d6000803e3d6000fd5b505050506040513d602081101561083157600080fd5b5051602084015260c0830151610852906001600160a01b031633308961346e565b6108dd83602001518460c001516001600160a01b03166370a08231306040518263ffffffff1660e01b815260040180826001600160a01b0316815260200191505060206040518083038186803b1580156108ab57600080fd5b505afa1580156108bf573d6000803e3d6000fd5b505050506040513d60208110156108d557600080fd5b505190613411565b602084015260ff80831690891610806108fb57508160ff168760ff16105b15610f2b57606061091a846080015185606001518661014001516134fc565b90508260ff168960ff1610156109865761097f61095a85606001518b60ff168151811061094357fe5b60200260200101518961356290919063ffffffff16565b828b60ff168151811061096957fe5b60200260200101516135bb90919063ffffffff16565b8452610b0e565b60608460a001515167ffffffffffffffff811180156109a457600080fd5b506040519080825280602002602001820160405280156109ce578160200160208202803683370190505b509050846020015181858c0360ff16815181106109e757fe5b602002602001018181525050826001600160a01b0316634d49e87d826000426040518463ffffffff1660e01b81526004018080602001848152602001838152602001828103825285818151815260200191508051906020019060200280838360005b83811015610a61578181015183820152602001610a49565b50505050905001945050505050602060405180830381600087803b158015610a8857600080fd5b505af1158015610a9c573d6000803e3d6000fd5b505050506040513d6020811015610ab257600080fd5b505160208601528151610b0a90839060ff8716908110610ace57fe5b6020026020010151610b04670de0b6b3a7640000610afe8961014001518a6020015161356290919063ffffffff16565b90613615565b906135bb565b8552505b600080610b30610b1d8e61367c565b60e0880151610120890151895187613711565b9050610b6b6001610b6583868a610120015160ff1681518110610b4f57fe5b602002602001015161341190919063ffffffff16565b90613411565b604087015260ff808616908b1610610bab57610ba5866101400151610afe670de0b6b3a7640000896040015161356290919063ffffffff16565b60408701525b610bcf6402540be400610afe8f60040154896040015161356290919063ffffffff16565b9150610c0b866060015187610120015160ff1681518110610bec57fe5b6020026020010151610afe84896040015161341190919063ffffffff16565b60408701525060058c0154600090610c2f906402540be40090610afe908590613562565b9050610c63866060015187610120015160ff1681518110610c4c57fe5b60200260200101518261361590919063ffffffff16565b9050610c84866020015187608001518860e0015160ff168151811061096957fe5b8d6009018760e0015160ff1681548110610c9a57fe5b9060005260206000200181905550610ccc81610b65886040015189608001518a610120015160ff1681518110610b4f57fe5b8d60090187610120015160ff1681548110610ce357fe5b9060005260206000200181905550508360ff168960ff1610610ecb5760008561010001516001600160a01b03166370a08231306040518263ffffffff1660e01b815260040180826001600160a01b0316815260200191505060206040518083038186803b158015610d5357600080fd5b505afa158015610d67573d6000803e3d6000fd5b505050506040513d6020811015610d7d57600080fd5b505160408088015181517f3e3a1560000000000000000000000000000000000000000000000000000000008152600481019190915260ff888e0316602482015260006044820181905242606483015291519293506001600160a01b03871692633e3a156092608480840193602093929083900390910190829087803b158015610e0557600080fd5b505af1158015610e19573d6000803e3d6000fd5b505050506040513d6020811015610e2f57600080fd5b5050610100860151604080517f70a08231000000000000000000000000000000000000000000000000000000008152306004820152905183926001600160a01b0316916370a08231916024808301926020929190829003018186803b158015610e9757600080fd5b505afa158015610eab573d6000803e3d6000fd5b505050506040513d6020811015610ec157600080fd5b5051036040870152505b8685604001511015610f24576040805162461bcd60e51b815260206004820181905260248201527f53776170206469646e277420726573756c7420696e206d696e20746f6b656e73604482015290519081900360640190fd5b50506110d8565b8261010001516001600160a01b03166370a08231306040518263ffffffff1660e01b815260040180826001600160a01b0316815260200191505060206040518083038186803b158015610f7d57600080fd5b505afa158015610f91573d6000803e3d6000fd5b505050506040513d6020811015610fa757600080fd5b505160408085019190915260208481015182517f9169558600000000000000000000000000000000000000000000000000000000815260ff868d0381166004830152868c0316602482015260448101919091526064810188905242608482015291516001600160a01b0384169263916955869260a48083019391928290030181600087803b15801561103857600080fd5b505af115801561104c573d6000803e3d6000fd5b505050506040513d602081101561106257600080fd5b505060408084015161010085015182517f70a0823100000000000000000000000000000000000000000000000000000000815230600482015292516110d2936001600160a01b03909216916370a08231916024808301926020929190829003018186803b1580156108ab57600080fd5b60408401525b6110ff3384604001518561010001516001600160a01b03166139579092919063ffffffff16565b6040808401518151888152602081019190915260ff808b168284015289166060820152905133917f6617207207e397b41fc98016d8c9febb7223f44c355db66ad429730f2b950a60919081900360800190a2505060400151979650505050505050565b6000611179868585856111748a6139dc565b613a7e565b509695505050505050565b6000806111908761367c565b905060008060006111a0896139dc565b905060608a6009018054806020026020016040519081016040528092919081815260200182805480156111f257602002820191906000526020600020905b8154815260200190600101908083116111de575b5050505050905060608b60080180548060200260200160405190810160405280929190818152602001828054801561124957602002820191906000526020600020905b815481526020019060010190808311611235575b5050505050905060008251905061126a6112648484876134fc565b88613c4e565b955060005b8181101561132f5789156112bc5761129f8c8c8381811061128c57fe5b9050602002013585838151811061096957fe5b8482815181106112ab57fe5b602002602001018181525050611327565b61130e8c8c838181106112cb57fe5b90506020020135604051806060016040528060238152602001614aea602391398684815181106112f757fe5b6020026020010151613db49092919063ffffffff16565b84828151811061131a57fe5b6020026020010181815250505b60010161126f565b5061133e6112648484876134fc565b94505050505060008960060160009054906101000a90046001600160a01b03166001600160a01b03166318160ddd6040518163ffffffff1660e01b815260040160206040518083038186803b15801561139657600080fd5b505afa1580156113aa573d6000803e3d6000fd5b505050506040513d60208110156113c057600080fd5b5051905085156113ed576113e283610afe836113dc8684613411565b90613562565b9450505050506113ff565b6113e283610afe836113dc8387613411565b95945050505050565b6000611412614951565b604080516101208101825260008082526020820181905291810182905260068801546001600160a01b03166060820152608081019190915260a081016114578861367c565b815260200161146587613354565b8152602001876008018054806020026020016040519081016040528092919081815260200182805480156114b857602002820191906000526020600020905b8154815260200190600101908083116114a4575b505050505081526020018760090180548060200260200160405190810160405280929190818152602001828054801561151057602002820191906000526020600020905b8154815260200190600101908083116114fc575b5050505050815250905080606001516001600160a01b03166318160ddd6040518163ffffffff1660e01b815260040160206040518083038186803b15801561155757600080fd5b505afa15801561156b573d6000803e3d6000fd5b505050506040513d602081101561158157600080fd5b50516080820152610100810151518451146115e3576040805162461bcd60e51b815260206004820181905260248201527f416d6f756e74732073686f756c64206d6174636820706f6f6c20746f6b656e73604482015290519081900360640190fd5b82611635576040805162461bcd60e51b815260206004820152601560248201527f4d757374206275726e206d6f7265207468616e20300000000000000000000000604482015290519081900360640190fd5b600061164b876004015483610100015151613e4b565b905060608261010001515167ffffffffffffffff8111801561166c57600080fd5b50604051908082528060200260200182016040528015611696578160200160208202803683370190505b50905060608361010001515167ffffffffffffffff811180156116b857600080fd5b506040519080825280602002602001820160405280156116e2578160200160208202803683370190505b50905061170a6117008561010001518660e001518760c001516134fc565b8560a00151613c4e565b845260005b8461010001515181101561177d5761175e88828151811061172c57fe5b6020026020010151604051806060016040528060238152602001614aea6023913987610100015184815181106112f757fe5b82828151811061176a57fe5b602090810291909101015260010161170f565b50611794611700828660e001518760c001516134fc565b602085015260005b846101000151518110156118dd5760006117e38660000151610afe88610100015185815181106117c857fe5b6020026020010151896020015161356290919063ffffffff16565b9050600061180d8484815181106117f657fe5b602002602001015183613e6a90919063ffffffff16565b90506118226402540be400610afe8884613562565b85848151811061182e57fe5b60200260200101818152505061187c6118706402540be400610afe8f6005015489888151811061185a57fe5b602002602001015161356290919063ffffffff16565b858581518110610b4f57fe5b8c600901848154811061188b57fe5b90600052602060002001819055506118bc8584815181106118a857fe5b6020026020010151858581518110610b4f57fe5b8484815181106118c857fe5b6020908102919091010152505060010161179c565b506118f4611700828660e001518760c001516134fc565b60408501819052845160808601516000935061191a92610afe91906113dc908490613411565b90508061196e576040805162461bcd60e51b815260206004820152601b60248201527f4275726e7420616d6f756e742063616e6e6f74206265207a65726f0000000000604482015290519081900360640190fd5b6119798160016135bb565b9050858111156119d0576040805162461bcd60e51b815260206004820152601b60248201527f746f6b656e416d6f756e74203e206d61784275726e416d6f756e740000000000604482015290519081900360640190fd5b83606001516001600160a01b03166379cc679033836040518363ffffffff1660e01b815260040180836001600160a01b0316815260200182815260200192505050600060405180830381600087803b158015611a2b57600080fd5b505af1158015611a3f573d6000803e3d6000fd5b5050505060005b84610100015151811015611a9f57611a9733898381518110611a6457fe5b60200260200101518c6007018481548110611a7b57fe5b6000918252602090912001546001600160a01b03169190613957565b600101611a46565b50336001600160a01b03167f3631c28b1f9dd213e0319fb167b554d76b6c283a41143eb400a0d1adb1af175588848760200151611ae9868a6080015161341190919063ffffffff16565b604051808060200180602001858152602001848152602001838103835287818151815260200191508051906020019060200280838360005b83811015611b39578181015183820152602001611b21565b50505050905001838103825286818151815260200191508051906020019060200280838360005b83811015611b78578181015183820152602001611b60565b50505050905001965050505050505060405180910390a293505050505b949350505050565b600786015460009060ff861681118015611bb95750808560ff16105b611c0a576040805162461bcd60e51b815260206004820152601b60248201527f546f6b656e20696e646578206973206f7574206f662072616e67650000000000604482015290519081900360640190fd5b50600080886007018760ff1681548110611c2057fe5b60009182526020918290200154604080517f70a0823100000000000000000000000000000000000000000000000000000000815233600482015290516001600160a01b03909216935083926370a0823192602480840193829003018186803b158015611c8b57600080fd5b505afa158015611c9f573d6000803e3d6000fd5b505050506040513d6020811015611cb557600080fd5b5051851115611d0b576040805162461bcd60e51b815260206004820152601d60248201527f43616e6e6f742073776170206d6f7265207468616e20796f75206f776e000000604482015290519081900360640190fd5b6000816001600160a01b03166370a08231306040518263ffffffff1660e01b815260040180826001600160a01b0316815260200191505060206040518083038186803b158015611d5a57600080fd5b505afa158015611d6e573d6000803e3d6000fd5b505050506040513d6020811015611d8457600080fd5b50519050611d9d6001600160a01b03831633308961346e565b611dee81836001600160a01b03166370a08231306040518263ffffffff1660e01b815260040180826001600160a01b0316815260200191505060206040518083038186803b1580156108ab57600080fd5b92505050600080611e058a8989866111748e613354565b9150915084821015611e5e576040805162461bcd60e51b815260206004820181905260248201527f53776170206469646e277420726573756c7420696e206d696e20746f6b656e73604482015290519081900360640190fd5b6000611ea08b6008018960ff1681548110611e7557fe5b9060005260206000200154610afe6402540be400610afe8f600501548761356290919063ffffffff16565b9050611ed1848c6009018b60ff1681548110611eb857fe5b90600052602060002001546135bb90919063ffffffff16565b8b6009018a60ff1681548110611ee357fe5b9060005260206000200181905550611f2481610b65858e6009018c60ff1681548110611f0b57fe5b906000526020600020015461341190919063ffffffff16565b8b6009018960ff1681548110611f3657fe5b9060005260206000200181905550611f5b33848d6007018b60ff1681548110611a7b57fe5b604080518581526020810185905260ff808c16828401528a166060820152905133917fc6c1e0630dbe9130cc068028486c0d118ddcea348550819defd5cb8c257f8a38919081900360800190a250909998505050505050505050565b670de0b6b3a764000081565b61025881565b6006850154604080517f18160ddd00000000000000000000000000000000000000000000000000000000815290516000926001600160a01b031691839183916318160ddd916004808301926020929190829003018186803b15801561202d57600080fd5b505afa158015612041573d6000803e3d6000fd5b505050506040513d602081101561205757600080fd5b50516007890154604080517f70a08231000000000000000000000000000000000000000000000000000000008152336004820152905192935090916001600160a01b038516916370a08231916024808301926020929190829003018186803b1580156120c257600080fd5b505afa1580156120d6573d6000803e3d6000fd5b505050506040513d60208110156120ec57600080fd5b5051871115612142576040805162461bcd60e51b815260206004820152600d60248201527f3e4c502e62616c616e63654f6600000000000000000000000000000000000000604482015290519081900360640190fd5b808660ff1610612199576040805162461bcd60e51b815260206004820152600f60248201527f546f6b656e206e6f7420666f756e640000000000000000000000000000000000604482015290519081900360640190fd5b6000806121b18b8a8a6121ab8e613354565b88613e82565b925090508681101561220a576040805162461bcd60e51b815260206004820152600e60248201527f6479203c206d696e416d6f756e74000000000000000000000000000000000000604482015290519081900360640190fd5b6122496122376122306402540be400610afe8f600501548761356290919063ffffffff16565b83906135bb565b8c6009018a60ff1681548110611f0b57fe5b8b6009018960ff168154811061225b57fe5b6000918252602082200191909155604080517f79cc6790000000000000000000000000000000000000000000000000000000008152336004820152602481018c905290516001600160a01b038816926379cc6790926044808201939182900301818387803b1580156122cc57600080fd5b505af11580156122e0573d6000803e3d6000fd5b505050506122fb33828d6007018b60ff1681548110611a7b57fe5b604080518a81526020810186905260ff8a168183015260608101839052905133917f43fb02998f4e03da2e0e6fff53fdbf0c40a9f45f145dc377fc30615d7d7a8a64919081900360800190a29a9950505050505050505050565b60006060856007018054806020026020016040519081016040528092919081815260200182805480156123b157602002820191906000526020600020905b81546001600160a01b03168152600190910190602001808311612393575b50505050509050805184511461240e576040805162461bcd60e51b815260206004820181905260248201527f416d6f756e7473206d757374206d6174636820706f6f6c656420746f6b656e73604482015290519081900360640190fd5b6060815167ffffffffffffffff8111801561242857600080fd5b50604051908082528060200260200182016040528015612452578160200160208202803683370190505b50905061245d614951565b604080516101208101825260008082526020820181905291810182905260068a01546001600160a01b03166060820152608081019190915260a081016124a28a61367c565b81526020016124b089613354565b81526020018960080180548060200260200160405190810160405280929190818152602001828054801561250357602002820191906000526020600020905b8154815260200190600101908083116124ef575b505050505081526020018960090180548060200260200160405190810160405280929190818152602001828054801561255b57602002820191906000526020600020905b815481526020019060010190808311612547575b5050505050815250905080606001516001600160a01b03166318160ddd6040518163ffffffff1660e01b815260040160206040518083038186803b1580156125a257600080fd5b505afa1580156125b6573d6000803e3d6000fd5b505050506040513d60208110156125cc57600080fd5b50516080820181905215612602576125ff6125f58261010001518360e001518460c001516134fc565b8260a00151613c4e565b81525b60005b83518110156128455760808201511515806126335750600087828151811061262957fe5b6020026020010151115b612684576040805162461bcd60e51b815260206004820152601e60248201527f4d75737420737570706c7920616c6c20746f6b656e7320696e20706f6f6c0000604482015290519081900360640190fd5b86818151811061269057fe5b60200260200101516000146127f95760008482815181106126ad57fe5b60200260200101516001600160a01b03166370a08231306040518263ffffffff1660e01b815260040180826001600160a01b0316815260200191505060206040518083038186803b15801561270157600080fd5b505afa158015612715573d6000803e3d6000fd5b505050506040513d602081101561272b57600080fd5b5051885190915061277b90339030908b908690811061274657fe5b602002602001015188868151811061275a57fe5b60200260200101516001600160a01b031661346e909392919063ffffffff16565b6127df8186848151811061278b57fe5b60200260200101516001600160a01b03166370a08231306040518263ffffffff1660e01b815260040180826001600160a01b0316815260200191505060206040518083038186803b1580156108ab57600080fd5b8883815181106127eb57fe5b602002602001018181525050505b61282187828151811061280857fe5b6020026020010151836101000151838151811061096957fe5b826101000151828151811061283257fe5b6020908102919091010152600101612605565b506128616125f58261010001518360e001518460c001516134fc565b602082018190528151106128bc576040805162461bcd60e51b815260206004820152601160248201527f442073686f756c6420696e637265617365000000000000000000000000000000604482015290519081900360640190fd5b60208101516040820152608081015160009015612a6e5760006128e48a600401548651613e4b565b905060005b8551811015612a1f57600061292c8560000151610afe8e600901858154811061290e57fe5b9060005260206000200154886020015161356290919063ffffffff16565b905061296c6402540be400610afe612965886101000151868151811061294e57fe5b602002602001015185613e6a90919063ffffffff16565b8690613562565b86838151811061297857fe5b6020026020010181815250506129b56129a46402540be400610afe8f600501548a878151811061185a57fe5b8661010001518481518110610b4f57fe5b8c60090183815481106129c457fe5b90600052602060002001819055506129fa8683815181106129e157fe5b60200260200101518661010001518481518110610b4f57fe5b8561010001518381518110612a0b57fe5b6020908102919091010152506001016128e9565b50612a45612a3b8461010001518560e001518660c001516134fc565b8460a00151613c4e565b6040840181905283516080850151612a6692610afe91906113dc9084613411565b915050612a92565b6101008201518051612a8a9160098c01916020909101906149a6565b505060208101515b85811015612ae7576040805162461bcd60e51b815260206004820152601b60248201527f436f756c646e2774206d696e74206d696e207265717565737465640000000000604482015290519081900360640190fd5b6006890154604080517f40c10f190000000000000000000000000000000000000000000000000000000081523360048201526024810184905290516001600160a01b03909216916340c10f199160448082019260009290919082900301818387803b158015612b5557600080fd5b505af1158015612b69573d6000803e3d6000fd5b50505050336001600160a01b03167f189c623b666b1b45b83d7178f39b8c087cb09774317ca2f53c2d3c3726f222a288858560200151611ae98688608001516135bb90919063ffffffff16565b6000612bc06149f1565b6040518060e00160405280612bd4886139dc565b815287546001600160a01b03166020820152600060408201819052600389015460ff166060808401919091526080830182905260a0830182905260c090920152815191925090612c25908990613ee5565b8051909150612c35906001613411565b60ff9081166040840181905260608401510190818116908816108015612c6057508060ff168660ff16105b612cb1576040805162461bcd60e51b815260206004820152601860248201527f546f6b656e20696e646578206f7574206f662072616e67650000000000000000604482015290519081900360640190fd5b50816040015160ff168660ff161015612d0f57612d05612cf6896008018860ff1681548110612cdc57fe5b90600052602060002001548661356290919063ffffffff16565b828860ff168151811061096957fe5b60a0830152612f88565b6040820151958690039560ff9081169086161015612ee6576060826060015160ff1667ffffffffffffffff81118015612d4757600080fd5b50604051908082528060200260200182016040528015612d71578160200160208202803683370190505b50905084818860ff1681518110612d8457fe5b602002602001018181525050612e67670de0b6b3a7640000610afe856000015186602001516001600160a01b031663e6ab28068660016040518363ffffffff1660e01b815260040180806020018315158152602001828103825284818151815260200191508051906020019060200280838360005b83811015612e11578181015183820152602001612df9565b50505050905001935050505060206040518083038186803b158015612e3557600080fd5b505afa158015612e49573d6000803e3d6000fd5b505050506040513d6020811015612e5f57600080fd5b505190613562565b8360a0018181525050612edb82846040015160ff1681518110612e8657fe5b6020026020010151610b04612ed0612ead60026402540be40061356290919063ffffffff16565b8c54610afe90612ec5906001600160a01b0316613f96565b60a08a015190613562565b60a087015190613411565b60a084015250612f80565b81602001516001600160a01b031663a95b089f8784604001518803876040518463ffffffff1660e01b8152600401808460ff1681526020018360ff168152602001828152602001935050505060206040518083038186803b158015612f4a57600080fd5b505afa158015612f5e573d6000803e3d6000fd5b505050506040513d6020811015612f7457600080fd5b505192506113ff915050565b816040015195505b604082015160ff908116608084018190529086161015612fac5760ff851660808301525b6000612fcb612fba8a61367c565b8885608001518660a0015186613711565b9050612fe96001610b658385876080015160ff1681518110610b4f57fe5b60c0840181905260048a015460009161300c916402540be40091610afe91613562565b60c085015190915061301e9082613411565b60c08501525050604082015160ff90811690861610156130795761306f88600801836080015160ff168154811061305157fe5b90600052602060002001548360c0015161361590919063ffffffff16565b60c083015261312a565b81602001516001600160a01b031663342a87a16130b38460000151610afe670de0b6b3a76400008760c0015161356290919063ffffffff16565b846040015188036040518363ffffffff1660e01b8152600401808381526020018260ff1681526020019250505060206040518083038186803b1580156130f857600080fd5b505afa15801561310c573d6000803e3d6000fd5b505050506040513d602081101561312257600080fd5b505160c08301525b5060c001519695505050505050565b6000806132046131f68560090180548060200260200160405190810160405280929190818152602001828054801561319057602002820191906000526020600020905b81548152602001906001019080831161317c575b5050505050866008018054806020026020016040519081016040528092919081815260200182805480156131e357602002820191906000526020600020905b8154815260200190600101908083116131cf575b50505050506131f1876139dc565b6134fc565b6131ff8661367c565b613c4e565b905060008460060160009054906101000a90046001600160a01b03166001600160a01b03166318160ddd6040518163ffffffff1660e01b815260040160206040518083038186803b15801561325857600080fd5b505afa15801561326c573d6000803e3d6000fd5b505050506040513d602081101561328257600080fd5b5051905080156132ab576132a281610afe84670de0b6b3a7640000613562565b925050506132b2565b6000925050505b92915050565b600061334a8584846132c9886139dc565b8960060160009054906101000a90046001600160a01b03166001600160a01b03166318160ddd6040518163ffffffff1660e01b815260040160206040518083038186803b15801561331957600080fd5b505afa15801561332d573d6000803e3d6000fd5b505050506040513d602081101561334357600080fd5b5051613e82565b5095945050505050565b6000610258826002015401421115613405578154604080517fe25aa5fa00000000000000000000000000000000000000000000000000000000815290516000926001600160a01b03169163e25aa5fa916004808301926020929190829003018186803b1580156133c357600080fd5b505afa1580156133d7573d6000803e3d6000fd5b505050506040513d60208110156133ed57600080fd5b505160018401819055426002850155915061340c9050565b5060018101545b919050565b600082821115613468576040805162461bcd60e51b815260206004820152601e60248201527f536166654d6174683a207375627472616374696f6e206f766572666c6f770000604482015290519081900360640190fd5b50900390565b604080516001600160a01b0380861660248301528416604482015260648082018490528251808303909101815260849091019091526020810180517bffffffffffffffffffffffffffffffffffffffffffffffffffffffff167f23b872dd000000000000000000000000000000000000000000000000000000001790526134f6908590614006565b50505050565b60608061350985856140b7565b905060006135226001875161341190919063ffffffff16565b9050613540670de0b6b3a7640000610afe8685858151811061185a57fe5b82828151811061354c57fe5b60209081029190910101525090505b9392505050565b600082613571575060006132b2565b8282028284828161357e57fe5b041461355b5760405162461bcd60e51b8152600401808060200182810382526021815260200180614a9f6021913960400191505060405180910390fd5b60008282018381101561355b576040805162461bcd60e51b815260206004820152601b60248201527f536166654d6174683a206164646974696f6e206f766572666c6f770000000000604482015290519081900360640190fd5b600080821161366b576040805162461bcd60e51b815260206004820152601a60248201527f536166654d6174683a206469766973696f6e206279207a65726f000000000000604482015290519081900360640190fd5b81838161367457fe5b049392505050565b6003810154600182015460009190428211156137085760028401548454808311156136da576136cf6136c86136b18685613411565b610afe6136be4287613411565b6113dc8887613411565b82906135bb565b94505050505061340c565b6136cf6137016136ea8685613411565b610afe6136f74287613411565b6113dc8689613411565b8290613411565b915061340c9050565b805160009060ff8681169086161415613771576040805162461bcd60e51b815260206004820152601d60248201527f43616e277420636f6d7061726520746f6b656e20746f20697473656c66000000604482015290519081900360640190fd5b808660ff161080156137855750808560ff16105b6137d6576040805162461bcd60e51b815260206004820152601660248201527f546f6b656e73206d75737420626520696e20706f6f6c00000000000000000000604482015290519081900360640190fd5b60006137e28489613c4e565b9050806000806137f2858c613562565b90506000805b8681101561386b578b60ff168114156138135789915061383d565b8a60ff1681146138385788818151811061382957fe5b6020026020010151915061383d565b613863565b61384784836135bb565b93506138606138568389613562565b610afe8789613562565b94505b6001016137f8565b506138886138798388613562565b610afe60646113dc888a613562565b935060006138a561389e84610afe896064613562565b85906135bb565b9050600086815b6101008110156139095790915081906138df6138d18a610b6587610b04876002613562565b610afe8a610b048680613562565b91506138eb82846141ae565b15613901575098506113ff975050505050505050565b6001016138ac565b506040805162461bcd60e51b815260206004820152601e60248201527f417070726f78696d6174696f6e20646964206e6f7420636f6e76657267650000604482015290519081900360640190fd5b604080516001600160a01b038416602482015260448082018490528251808303909101815260649091019091526020810180517bffffffffffffffffffffffffffffffffffffffffffffffffffffffff167fa9059cbb000000000000000000000000000000000000000000000000000000001790526139d7908490614006565b505050565b6000610258826002015401421115613405578154604080517fe25aa5fa00000000000000000000000000000000000000000000000000000000815290516001600160a01b039092169163e25aa5fa91600480820192602092909190829003018186803b158015613a4b57600080fd5b505afa158015613a5f573d6000803e3d6000fd5b505050506040513d6020811015613a7557600080fd5b5051905061340c565b6000806060613a8d8885613ee5565b905080518760ff16108015613aa5575080518660ff16105b613af6576040805162461bcd60e51b815260206004820152601860248201527f546f6b656e20696e646578206f7574206f662072616e67650000000000000000604482015290519081900360640190fd5b8051600090613b06906001613411565b90506000613b398a6008018a60ff1681548110613b1f57fe5b90600052602060002001548861356290919063ffffffff16565b9050818960ff161415613b5f57613b5c670de0b6b3a7640000610afe8389613562565b90505b613b88838a60ff1681518110613b7157fe5b6020026020010151826135bb90919063ffffffff16565b90506000613ba1613b988c61367c565b8b8b8588613711565b9050613bbb6001610b6583878d60ff1681518110610b4f57fe5b9550828960ff161415613be157613bde87610afe88670de0b6b3a7640000613562565b95505b613c016402540be400610afe8d600401548961356290919063ffffffff16565b9450613c0d8686613411565b9550613c3e8b6008018a60ff1681548110613c2457fe5b90600052602060002001548761361590919063ffffffff16565b9550505050509550959350505050565b815160009081805b82811015613c8e57613c84868281518110613c6d57fe5b6020026020010151836135bb90919063ffffffff16565b9150600101613c56565b5080613c9f576000925050506132b2565b60008181613cad8786613562565b905060005b610100811015613d66578260005b87811015613cef57613ce5613cdb898d848151811061185a57fe5b610afe8488613562565b9150600101613cc0565b509293508392613d3d613d1d613d0a836113dc8b60016135bb565b610b046064610afe896113dc8a84613411565b610afe866113dc613d2e868d613562565b610b046064610afe8b8f613562565b9350613d4984866141ae565b15613d5d57839750505050505050506132b2565b50600101613cb2565b506040805162461bcd60e51b815260206004820152601360248201527f4420646f6573206e6f7420636f6e766572676500000000000000000000000000604482015290519081900360640190fd5b60008184841115613e435760405162461bcd60e51b81526004018080602001828103825283818151815260200191508051906020019080838360005b83811015613e08578181015183820152602001613df0565b50505050905090810190601f168015613e355780820380516001836020036101000a031916815260200191505b509250505060405180910390fd5b505050900390565b600061355b613e6060046113dc856001613411565b610afe8585613562565b600081831115613e7d57508082036132b2565b500390565b600080600080600080613e988b8a8c8b8b6141c5565b809450819350829650505050613ed384610b658d6008018c60ff1681548110613ebd57fe5b600091825260209091200154610afe8686613411565b939b939a509298505050505050505050565b606061355b83600901805480602002602001604051908101604052809291908181526020018280548015613f3857602002820191906000526020600020905b815481526020019060010190808311613f24575b505050505084600801805480602002602001604051908101604052809291908181526020018280548015613f8b57602002820191906000526020600020905b815481526020019060010190808311613f77575b5050505050846134fc565b6000816001600160a01b0316635fd65f0f6040518163ffffffff1660e01b815260040160e06040518083038186803b158015613fd157600080fd5b505afa158015613fe5573d6000803e3d6000fd5b505050506040513d60e0811015613ffb57600080fd5b506080015192915050565b606061405b826040518060400160405280602081526020017f5361666545524332303a206c6f772d6c6576656c2063616c6c206661696c6564815250856001600160a01b031661457d9092919063ffffffff16565b8051909150156139d75780806020019051602081101561407a57600080fd5b50516139d75760405162461bcd60e51b815260040180806020018281038252602a815260200180614ac0602a913960400191505060405180910390fd5b81518151606091908114614112576040805162461bcd60e51b815260206004820152601f60248201527f42616c616e636573206d757374206d61746368206d756c7469706c6965727300604482015290519081900360640190fd5b60608167ffffffffffffffff8111801561412b57600080fd5b50604051908082528060200260200182016040528015614155578160200160208202803683370190505b50905060005b828110156141a55761418685828151811061417257fe5b602002602001015187838151811061185a57fe5b82828151811061419257fe5b602090810291909101015260010161415b565b50949350505050565b600060016141bc8484613e6a565b11159392505050565b600080600060606141d68987613ee5565b905080518860ff1610614230576040805162461bcd60e51b815260206004820152601860248201527f546f6b656e20696e646578206f7574206f662072616e67650000000000000000604482015290519081900360640190fd5b614238614a2d565b6040518060c00160405280600081526020016000815260200160008152602001600081526020016142688c61367c565b815260200160008152509050614282828260800151613c4e565b8082526142a29061429a908890610afe908c90613562565b825190613411565b60208201528151829060ff8b169081106142b857fe5b6020026020010151881115614314576040805162461bcd60e51b815260206004820152601a60248201527f5769746864726177206578636565647320617661696c61626c65000000000000604482015290519081900360640190fd5b61432881608001518a84846020015161458c565b6040820152815160609067ffffffffffffffff8111801561434857600080fd5b50604051908082528060200260200182016040528015614372578160200160208202803683370190505b5090506143848b600401548451613e4b565b606083015260005b835181101561445b578381815181106143a157fe5b60200260200101518360a001818152505061443c6144316402540be400610afe86606001518f60ff168614614406576144016143f68960000151610afe8b602001518c60a0015161356290919063ffffffff16565b60a08a015190613411565b6113dc565b6113dc8860400151610b658a60000151610afe8c602001518d60a0015161356290919063ffffffff16565b60a085015190613411565b82828151811061444857fe5b602090810291909101015260010161438c565b50600061448461447584608001518d85876020015161458c565b838d60ff1681518110610b4f57fe5b8451909150614494906001613411565b8b60ff16141561451d576144b489610afe83670de0b6b3a7640000613562565b90506144d989610afe670de0b6b3a7640000866040015161356290919063ffffffff16565b83604001818152505061450189610afe670de0b6b3a7640000878f60ff168151811061185a57fe5b848c60ff168151811061451057fe5b6020026020010181815250505b6145498c6008018c60ff168154811061453257fe5b600091825260209091200154610afe836001613411565b9050808360400151858d60ff168151811061456057fe5b602002602001015196509650965050505050955095509592505050565b6060611b9584846000856146f9565b815160009060ff851681116145e8576040805162461bcd60e51b815260206004820152600f60248201527f546f6b656e206e6f7420666f756e640000000000000000000000000000000000604482015290519081900360640190fd5b826000806145f68985613562565b905060005b8481101561465d578860ff1681146146555761463388828151811061461c57fe5b6020026020010151846135bb90919063ffffffff16565b9250614652614648868a848151811061185a57fe5b610afe868a613562565b93505b6001016145fb565b5061467a61466b8286613562565b610afe60646113dc878b613562565b9250600061469761469083610afe8a6064613562565b84906135bb565b9050600087815b6101008110156139095790915081906146d16146c38b610b6587610b04876002613562565b610afe89610b048680613562565b91506146dd82846141ae565b156146f157509650611b9595505050505050565b60010161469e565b60608247101561473a5760405162461bcd60e51b8152600401808060200182810382526026815260200180614a796026913960400191505060405180910390fd5b61474385614873565b614794576040805162461bcd60e51b815260206004820152601d60248201527f416464726573733a2063616c6c20746f206e6f6e2d636f6e7472616374000000604482015290519081900360640190fd5b60006060866001600160a01b031685876040518082805190602001908083835b602083106147f157805182527fffffffffffffffffffffffffffffffffffffffffffffffffffffffffffffffe090920191602091820191016147b4565b6001836020036101000a03801982511681845116808217855250505050505090500191505060006040518083038185875af1925050503d8060008114614853576040519150601f19603f3d011682016040523d82523d6000602084013e614858565b606091505b5091509150614868828286614879565b979650505050505050565b3b151590565b6060831561488857508161355b565b8251156148985782518084602001fd5b60405162461bcd60e51b8152602060048201818152845160248401528451859391928392604401919085019080838360008315613e08578181015183820152602001613df0565b60405180610160016040528060008152602001600081526020016000815260200160608152602001606081526020016060815260200160006001600160a01b03168152602001600060ff16815260200160006001600160a01b03168152602001600060ff168152602001600081525090565b60405180610120016040528060008152602001600081526020016000815260200160006001600160a01b0316815260200160008152602001600081526020016000815260200160608152602001606081525090565b8280548282559060005260206000209081019282156149e1579160200282015b828111156149e15782518255916020019190600101906149c6565b506149ed929150614a63565b5090565b6040805160e081018252600080825260208201819052918101829052606081018290526080810182905260a0810182905260c081019190915290565b6040518060c001604052806000815260200160008152602001600081526020016000815260200160008152602001600081525090565b5b808211156149ed5760008155600101614a6456fe416464726573733a20696e73756666696369656e742062616c616e636520666f722063616c6c536166654d6174683a206d756c7469706c69636174696f6e206f766572666c6f775361666545524332303a204552433230206f7065726174696f6e20646964206e6f74207375636365656443616e6e6f74207769746864726177206d6f7265207468616e20617661696c61626c65a2646970667358221220c6c59fced5b50e03eabbcaebe09d0fe28b2eb40b64bc1ffeb9eede3ce635c94764736f6c634300060c0033",
  "devdoc": {
    "details": "Contracts relying on this library must initialize SwapUtils.Swap struct then use this library for SwapUtils.Swap struct. Note that this library contains both functions called by users and admins. Admin functions should be protected within contracts using this library.",
    "kind": "dev",
    "methods": {
      "addLiquidity(SwapUtils.Swap storage,MetaSwapUtils.MetaSwap storage,uint256[],uint256)": {
        "params": {
          "amounts": "the amounts of each token to add, in their native precision",
          "metaSwapStorage": "MetaSwap struct to read from and write to",
          "minToMint": "the minimum LP tokens adding this amount of liquidity should mint, otherwise revert. Handy for front-running mitigation allowed addresses. If the pool is not in the guarded launch phase, this parameter will be ignored.",
          "self": "Swap struct to read from and write to"
        },
        "returns": {
          "_0": "amount of LP token user received"
        }
      },
      "calculateSwap(SwapUtils.Swap storage,MetaSwapUtils.MetaSwap storage,uint8,uint8,uint256)": {
        "params": {
          "dx": "the number of tokens to sell. If the token charges a fee on transfers, use the amount that gets transferred after the fee.",
          "metaSwapStorage": "MetaSwap struct from the same contract",
          "self": "Swap struct to read from",
          "tokenIndexFrom": "the token to sell",
          "tokenIndexTo": "the token to buy"
        },
        "returns": {
          "dy": "the number of tokens the user will get"
        }
      },
      "calculateSwapUnderlying(SwapUtils.Swap storage,MetaSwapUtils.MetaSwap storage,uint8,uint8,uint256)": {
        "params": {
          "dx": "the number of tokens to sell. If the token charges a fee on transfers, use the amount that gets transferred after the fee.",
          "metaSwapStorage": "MetaSwap struct from the same contract",
          "self": "Swap struct to read from",
          "tokenIndexFrom": "the token to sell",
          "tokenIndexTo": "the token to buy"
        },
        "returns": {
          "_0": "dy the number of tokens the user will get"
        }
      },
      "calculateTokenAmount(SwapUtils.Swap storage,MetaSwapUtils.MetaSwap storage,uint256[],bool)": {
        "details": "This shouldn't be used outside frontends for user estimates.",
        "params": {
          "amounts": "an array of token amounts to deposit or withdrawal, corresponding to pooledTokens. The amount should be in each pooled token's native precision. If a token charges a fee on transfers, use the amount that gets transferred after the fee.",
          "deposit": "whether this is a deposit or a withdrawal",
          "metaSwapStorage": "MetaSwap struct to read from",
          "self": "Swap struct to read from"
        },
        "returns": {
          "_0": "if deposit was true, total amount of lp token that will be minted and if deposit was false, total amount of lp token that will be burned"
        }
      },
      "calculateWithdrawOneToken(SwapUtils.Swap storage,MetaSwapUtils.MetaSwap storage,uint256,uint8)": {
        "params": {
          "metaSwapStorage": "MetaSwap struct to read from",
          "self": "Swap struct to read from",
          "tokenAmount": "the amount to withdraw in the pool's precision",
          "tokenIndex": "which token will be withdrawn"
        },
        "returns": {
          "dy": "the amount of token user will receive"
        }
      },
      "getVirtualPrice(SwapUtils.Swap storage,MetaSwapUtils.MetaSwap storage)": {
        "params": {
          "metaSwapStorage": "MetaSwap struct to read from",
          "self": "Swap struct to read from"
        },
        "returns": {
          "_0": "the virtual price, scaled to precision of BASE_VIRTUAL_PRICE_PRECISION"
        }
      },
      "removeLiquidityImbalance(SwapUtils.Swap storage,MetaSwapUtils.MetaSwap storage,uint256[],uint256)": {
        "params": {
          "amounts": "how much of each token to withdraw",
          "maxBurnAmount": "the max LP token provider is willing to pay to remove liquidity. Useful as a front-running mitigation.",
          "metaSwapStorage": "MetaSwap struct to read from and write to",
          "self": "Swap struct to read from and write to"
        },
        "returns": {
          "_0": "actual amount of LP tokens burned in the withdrawal"
        }
      },
      "removeLiquidityOneToken(SwapUtils.Swap storage,MetaSwapUtils.MetaSwap storage,uint256,uint8,uint256)": {
        "params": {
          "metaSwapStorage": "MetaSwap struct to read from and write to",
          "minAmount": "the minimum amount to withdraw, otherwise revert",
          "self": "Swap struct to read from and write to",
          "tokenAmount": "the amount of the lp tokens to burn",
          "tokenIndex": "the index of the token you want to receive"
        },
        "returns": {
          "_0": "amount chosen token that user received"
        }
      },
      "swap(SwapUtils.Swap storage,MetaSwapUtils.MetaSwap storage,uint8,uint8,uint256,uint256)": {
        "params": {
          "dx": "the amount of tokens the user wants to sell",
          "metaSwapStorage": "MetaSwap struct to read from and write to",
          "minDy": "the min amount the user would like to receive, or revert.",
          "self": "Swap struct to read from and write to",
          "tokenIndexFrom": "the token the user wants to sell",
          "tokenIndexTo": "the token the user wants to buy"
        },
        "returns": {
          "_0": "amount of token user received on swap"
        }
      },
      "swapUnderlying(SwapUtils.Swap storage,MetaSwapUtils.MetaSwap storage,uint8,uint8,uint256,uint256)": {
        "details": "Since this calls multiple external functions during the execution, it is recommended to protect any function that depends on this with reentrancy guards.",
        "params": {
          "dx": "the amount of tokens the user wants to sell",
          "metaSwapStorage": "MetaSwap struct to read from and write to",
          "minDy": "the min amount the user would like to receive, or revert.",
          "self": "Swap struct to read from and write to",
          "tokenIndexFrom": "the token the user wants to sell",
          "tokenIndexTo": "the token the user wants to buy"
        },
        "returns": {
          "_0": "amount of token user received on swap"
        }
      }
    },
    "title": "MetaSwapUtils library",
    "version": 1
  },
  "userdoc": {
    "kind": "user",
    "methods": {
      "addLiquidity(SwapUtils.Swap storage,MetaSwapUtils.MetaSwap storage,uint256[],uint256)": {
        "notice": "Add liquidity to the pool"
      },
      "calculateSwap(SwapUtils.Swap storage,MetaSwapUtils.MetaSwap storage,uint8,uint8,uint256)": {
        "notice": "Externally calculates a swap between two tokens. The SwapUtils.Swap storage and MetaSwap storage should be from the same MetaSwap contract."
      },
      "calculateSwapUnderlying(SwapUtils.Swap storage,MetaSwapUtils.MetaSwap storage,uint8,uint8,uint256)": {
        "notice": "Calculates the expected return amount from swapping between the pooled tokens and the underlying tokens of the base Swap pool."
      },
      "calculateTokenAmount(SwapUtils.Swap storage,MetaSwapUtils.MetaSwap storage,uint256[],bool)": {
        "notice": "A simple method to calculate prices from deposits or withdrawals, excluding fees but including slippage. This is helpful as an input into the various \"min\" parameters on calls to fight front-running"
      },
      "calculateWithdrawOneToken(SwapUtils.Swap storage,MetaSwapUtils.MetaSwap storage,uint256,uint8)": {
        "notice": "Calculate how much the user would receive when withdrawing via single token"
      },
      "getVirtualPrice(SwapUtils.Swap storage,MetaSwapUtils.MetaSwap storage)": {
        "notice": "Get the virtual price, to help calculate profit"
      },
      "removeLiquidityImbalance(SwapUtils.Swap storage,MetaSwapUtils.MetaSwap storage,uint256[],uint256)": {
        "notice": "Remove liquidity from the pool, weighted differently than the pool's current balances."
      },
      "removeLiquidityOneToken(SwapUtils.Swap storage,MetaSwapUtils.MetaSwap storage,uint256,uint8,uint256)": {
        "notice": "Remove liquidity from the pool all in one token."
      },
      "swap(SwapUtils.Swap storage,MetaSwapUtils.MetaSwap storage,uint8,uint8,uint256,uint256)": {
        "notice": "swap two tokens in the pool"
      },
      "swapUnderlying(SwapUtils.Swap storage,MetaSwapUtils.MetaSwap storage,uint8,uint8,uint256,uint256)": {
        "notice": "Swaps with the underlying tokens of the base Swap pool. For this function, the token indices are flattened out so that underlying tokens are represented in the indices."
      }
    },
    "notice": "A library to be used within MetaSwap.sol. Contains functions responsible for custody and AMM functionalities. MetaSwap is a modified version of Swap that allows Swap's LP token to be utilized in pooling with other tokens. As an example, if there is a Swap pool consisting of [DAI, USDC, USDT]. Then a MetaSwap pool can be created with [sUSD, BaseSwapLPToken] to allow trades between either the LP token or the underlying tokens and sUSD.",
    "version": 1
  },
  "storageLayout": {
    "storage": [],
    "types": null
  }
}