{
  "address": "0xc55E8C79e5A6c3216D4023769559D06fa9A7732e",
  "abi": [
    {
      "inputs": [
        {
          "components": [
            {
              "internalType": "address",
              "name": "target",
              "type": "address"
            },
            {
              "internalType": "bytes",
              "name": "callData",
              "type": "bytes"
            }
          ],
          "internalType": "struct Multicall2.Call[]",
          "name": "calls",
          "type": "tuple[]"
        }
      ],
      "name": "aggregate",
      "outputs": [
        {
          "internalType": "uint256",
          "name": "blockNumber",
          "type": "uint256"
        },
        {
          "internalType": "bytes[]",
          "name": "returnData",
          "type": "bytes[]"
        }
      ],
      "stateMutability": "nonpayable",
      "type": "function"
    },
    {
      "inputs": [
        {
          "components": [
            {
              "internalType": "address",
              "name": "target",
              "type": "address"
            },
            {
              "internalType": "bytes",
              "name": "callData",
              "type": "bytes"
            }
          ],
          "internalType": "struct Multicall2.Call[]",
          "name": "calls",
          "type": "tuple[]"
        }
      ],
      "name": "blockAndAggregate",
      "outputs": [
        {
          "internalType": "uint256",
          "name": "blockNumber",
          "type": "uint256"
        },
        {
          "internalType": "bytes32",
          "name": "blockHash",
          "type": "bytes32"
        },
        {
          "components": [
            {
              "internalType": "bool",
              "name": "success",
              "type": "bool"
            },
            {
              "internalType": "bytes",
              "name": "returnData",
              "type": "bytes"
            }
          ],
          "internalType": "struct Multicall2.Result[]",
          "name": "returnData",
          "type": "tuple[]"
        }
      ],
      "stateMutability": "nonpayable",
      "type": "function"
    },
    {
      "inputs": [
        {
          "internalType": "uint256",
          "name": "blockNumber",
          "type": "uint256"
        }
      ],
      "name": "getBlockHash",
      "outputs": [
        {
          "internalType": "bytes32",
          "name": "blockHash",
          "type": "bytes32"
        }
      ],
      "stateMutability": "view",
      "type": "function"
    },
    {
      "inputs": [],
      "name": "getBlockNumber",
      "outputs": [
        {
          "internalType": "uint256",
          "name": "blockNumber",
          "type": "uint256"
        }
      ],
      "stateMutability": "view",
      "type": "function"
    },
    {
      "inputs": [],
      "name": "getCurrentBlockCoinbase",
      "outputs": [
        {
          "internalType": "address",
          "name": "coinbase",
          "type": "address"
        }
      ],
      "stateMutability": "view",
      "type": "function"
    },
    {
      "inputs": [],
      "name": "getCurrentBlockDifficulty",
      "outputs": [
        {
          "internalType": "uint256",
          "name": "difficulty",
          "type": "uint256"
        }
      ],
      "stateMutability": "view",
      "type": "function"
    },
    {
      "inputs": [],
      "name": "getCurrentBlockGasLimit",
      "outputs": [
        {
          "internalType": "uint256",
          "name": "gaslimit",
          "type": "uint256"
        }
      ],
      "stateMutability": "view",
      "type": "function"
    },
    {
      "inputs": [],
      "name": "getCurrentBlockTimestamp",
      "outputs": [
        {
          "internalType": "uint256",
          "name": "timestamp",
          "type": "uint256"
        }
      ],
      "stateMutability": "view",
      "type": "function"
    },
    {
      "inputs": [
        {
          "internalType": "address",
          "name": "addr",
          "type": "address"
        }
      ],
      "name": "getEthBalance",
      "outputs": [
        {
          "internalType": "uint256",
          "name": "balance",
          "type": "uint256"
        }
      ],
      "stateMutability": "view",
      "type": "function"
    },
    {
      "inputs": [],
      "name": "getLastBlockHash",
      "outputs": [
        {
          "internalType": "bytes32",
          "name": "blockHash",
          "type": "bytes32"
        }
      ],
      "stateMutability": "view",
      "type": "function"
    },
    {
      "inputs": [
        {
          "internalType": "bool",
          "name": "requireSuccess",
          "type": "bool"
        },
        {
          "components": [
            {
              "internalType": "address",
              "name": "target",
              "type": "address"
            },
            {
              "internalType": "bytes",
              "name": "callData",
              "type": "bytes"
            }
          ],
          "internalType": "struct Multicall2.Call[]",
          "name": "calls",
          "type": "tuple[]"
        }
      ],
      "name": "tryAggregate",
      "outputs": [
        {
          "components": [
            {
              "internalType": "bool",
              "name": "success",
              "type": "bool"
            },
            {
              "internalType": "bytes",
              "name": "returnData",
              "type": "bytes"
            }
          ],
          "internalType": "struct Multicall2.Result[]",
          "name": "returnData",
          "type": "tuple[]"
        }
      ],
      "stateMutability": "nonpayable",
      "type": "function"
    },
    {
      "inputs": [
        {
          "internalType": "bool",
          "name": "requireSuccess",
          "type": "bool"
        },
        {
          "components": [
            {
              "internalType": "address",
              "name": "target",
              "type": "address"
            },
            {
              "internalType": "bytes",
              "name": "callData",
              "type": "bytes"
            }
          ],
          "internalType": "struct Multicall2.Call[]",
          "name": "calls",
          "type": "tuple[]"
        }
      ],
      "name": "tryBlockAndAggregate",
      "outputs": [
        {
          "internalType": "uint256",
          "name": "blockNumber",
          "type": "uint256"
        },
        {
          "internalType": "bytes32",
          "name": "blockHash",
          "type": "bytes32"
        },
        {
          "components": [
            {
              "internalType": "bool",
              "name": "success",
              "type": "bool"
            },
            {
              "internalType": "bytes",
              "name": "returnData",
              "type": "bytes"
            }
          ],
          "internalType": "struct Multicall2.Result[]",
          "name": "returnData",
          "type": "tuple[]"
        }
      ],
      "stateMutability": "nonpayable",
      "type": "function"
    }
  ],
  "transactionHash": "0x7bd4e43314a4dd7d06d7c7edc3d33a1b81ede6808d4efdb7871385b4df30fc09",
  "args": [],
  "numDeployments": 1,
  "solcInputHash": "60117b97a211aa66114b1af26693e462",
  "bytecode": "0x608060405234801561001057600080fd5b50610b4a806100206000396000f3fe608060405234801561001057600080fd5b50600436106100d45760003560e01c806372425d9d11610081578063bce38bd71161005b578063bce38bd714610181578063c3077fa9146101a1578063ee82ac5e146101b457600080fd5b806372425d9d1461016757806386d516e81461016d578063a8b0574e1461017357600080fd5b8063399542e9116100b2578063399542e91461011757806342cbb15c146101395780634d2301cc1461013f57600080fd5b80630f28c97d146100d9578063252dba42146100ee57806327e86d6e1461010f575b600080fd5b425b6040519081526020015b60405180910390f35b6101016100fc3660046107e3565b6101c6565b6040516100e592919061088e565b6100db610375565b61012a610125366004610916565b610388565b6040516100e5939291906109d3565b436100db565b6100db61014d3660046109fb565b73ffffffffffffffffffffffffffffffffffffffff163190565b446100db565b456100db565b6040514181526020016100e5565b61019461018f366004610916565b6103a0565b6040516100e59190610a1d565b61012a6101af3660046107e3565b61059d565b6100db6101c2366004610a30565b4090565b8051439060609067ffffffffffffffff8111156101e5576101e56105ba565b60405190808252806020026020018201604052801561021857816020015b60608152602001906001900390816102035790505b50905060005b835181101561036f5760008085838151811061023c5761023c610a49565b60200260200101516000015173ffffffffffffffffffffffffffffffffffffffff1686848151811061027057610270610a49565b6020026020010151602001516040516102899190610a78565b6000604051808303816000865af19150503d80600081146102c6576040519150601f19603f3d011682016040523d82523d6000602084013e6102cb565b606091505b50915091508161033c576040517f08c379a000000000000000000000000000000000000000000000000000000000815260206004820181905260248201527f4d756c746963616c6c206167677265676174653a2063616c6c206661696c656460448201526064015b60405180910390fd5b8084848151811061034f5761034f610a49565b60200260200101819052505050808061036790610ac3565b91505061021e565b50915091565b6000610382600143610afb565b40905090565b438040606061039785856103a0565b90509250925092565b6060815167ffffffffffffffff8111156103bc576103bc6105ba565b60405190808252806020026020018201604052801561040257816020015b6040805180820190915260008152606060208201528152602001906001900390816103da5790505b50905060005b82518110156105965760008084838151811061042657610426610a49565b60200260200101516000015173ffffffffffffffffffffffffffffffffffffffff1685848151811061045a5761045a610a49565b6020026020010151602001516040516104739190610a78565b6000604051808303816000865af19150503d80600081146104b0576040519150601f19603f3d011682016040523d82523d6000602084013e6104b5565b606091505b5091509150851561054d578161054d576040517f08c379a000000000000000000000000000000000000000000000000000000000815260206004820152602160248201527f4d756c746963616c6c32206167677265676174653a2063616c6c206661696c6560448201527f64000000000000000000000000000000000000000000000000000000000000006064820152608401610333565b604051806040016040528083151581526020018281525084848151811061057657610576610a49565b60200260200101819052505050808061058e90610ac3565b915050610408565b5092915050565b60008060606105ad600185610388565b9196909550909350915050565b7f4e487b7100000000000000000000000000000000000000000000000000000000600052604160045260246000fd5b6040805190810167ffffffffffffffff8111828210171561060c5761060c6105ba565b60405290565b604051601f82017fffffffffffffffffffffffffffffffffffffffffffffffffffffffffffffffe016810167ffffffffffffffff81118282101715610659576106596105ba565b604052919050565b803573ffffffffffffffffffffffffffffffffffffffff8116811461068557600080fd5b919050565b6000601f838184011261069c57600080fd5b8235602067ffffffffffffffff808311156106b9576106b96105ba565b8260051b6106c8838201610612565b93845286810183019383810190898611156106e257600080fd5b84890192505b858310156107d6578235848111156107005760008081fd5b890160407fffffffffffffffffffffffffffffffffffffffffffffffffffffffffffffffe0828d0381018213156107375760008081fd5b61073f6105e9565b61074a898501610661565b8152828401358881111561075e5760008081fd5b8085019450508d603f8501126107745760008081fd5b8884013588811115610788576107886105ba565b6107978a848e84011601610612565b92508083528e848287010111156107ae5760008081fd5b808486018b85013760009083018a0152808901919091528452505091840191908401906106e8565b9998505050505050505050565b6000602082840312156107f557600080fd5b813567ffffffffffffffff81111561080c57600080fd5b6108188482850161068a565b949350505050565b60005b8381101561083b578181015183820152602001610823565b50506000910152565b6000815180845261085c816020860160208601610820565b601f017fffffffffffffffffffffffffffffffffffffffffffffffffffffffffffffffe0169290920160200192915050565b600060408201848352602060408185015281855180845260608601915060608160051b870101935082870160005b82811015610908577fffffffffffffffffffffffffffffffffffffffffffffffffffffffffffffffa08887030184526108f6868351610844565b955092840192908401906001016108bc565b509398975050505050505050565b6000806040838503121561092957600080fd5b8235801515811461093957600080fd5b9150602083013567ffffffffffffffff81111561095557600080fd5b6109618582860161068a565b9150509250929050565b6000815180845260208085019450848260051b860182860160005b858110156109c6578383038952815180511515845285015160408685018190526109b281860183610844565b9a87019a9450505090840190600101610986565b5090979650505050505050565b8381528260208201526060604082015260006109f2606083018461096b565b95945050505050565b600060208284031215610a0d57600080fd5b610a1682610661565b9392505050565b602081526000610a16602083018461096b565b600060208284031215610a4257600080fd5b5035919050565b7f4e487b7100000000000000000000000000000000000000000000000000000000600052603260045260246000fd5b60008251610a8a818460208701610820565b9190910192915050565b7f4e487b7100000000000000000000000000000000000000000000000000000000600052601160045260246000fd5b60007fffffffffffffffffffffffffffffffffffffffffffffffffffffffffffffffff8203610af457610af4610a94565b5060010190565b81810381811115610b0e57610b0e610a94565b9291505056fea2646970667358221220fc92e228689b5c5f0c09658dea65cc41aea78665ef68a50f1908f4e8236d065464736f6c63430008110033",
  "devdoc": {
    "author": "Michael Elliot <mike@makerdao.com>Joshua Levine <joshua@makerdao.com>Nick Johnson <arachnid@notdot.net>",
    "kind": "dev",
    "methods": {},
    "title": "Multicall2 - Aggregate results from multiple read-only function calls",
    "version": 1
  },
  "userdoc": {
    "kind": "user",
    "methods": {},
    "version": 1
  },
  "storageLayout": {
    "storage": [],
    "types": null
  }
}