{
  "address": "0x149bBb210051851016F57a2824C0444f642833a6",
  "abi": [
    {
      "inputs": [
        {
          "internalType": "address",
          "name": "admin",
          "type": "address"
        },
        {
          "internalType": "address",
          "name": "poolOwner",
          "type": "address"
        }
      ],
      "stateMutability": "payable",
      "type": "constructor"
    },
    {
      "anonymous": false,
      "inputs": [
        {
          "indexed": true,
          "internalType": "address",
          "name": "poolAddress",
          "type": "address"
        },
        {
          "indexed": false,
          "internalType": "uint256",
          "name": "index",
          "type": "uint256"
        },
        {
          "components": [
            {
              "internalType": "address",
              "name": "poolAddress",
              "type": "address"
            },
            {
              "internalType": "address",
              "name": "lpToken",
              "type": "address"
            },
            {
              "internalType": "uint8",
              "name": "typeOfAsset",
              "type": "uint8"
            },
            {
              "internalType": "bytes32",
              "name": "poolName",
              "type": "bytes32"
            },
            {
              "internalType": "address",
              "name": "targetAddress",
              "type": "address"
            },
            {
              "internalType": "contract IERC20[]",
              "name": "tokens",
              "type": "address[]"
            },
            {
              "internalType": "contract IERC20[]",
              "name": "underlyingTokens",
              "type": "address[]"
            },
            {
              "internalType": "address",
              "name": "basePoolAddress",
              "type": "address"
            },
            {
              "internalType": "address",
              "name": "metaSwapDepositAddress",
              "type": "address"
            },
            {
              "internalType": "bool",
              "name": "isSaddleApproved",
              "type": "bool"
            },
            {
              "internalType": "bool",
              "name": "isRemoved",
              "type": "bool"
            },
            {
              "internalType": "bool",
              "name": "isGuarded",
              "type": "bool"
            }
          ],
          "indexed": false,
          "internalType": "struct IPoolRegistry.PoolData",
          "name": "poolData",
          "type": "tuple"
        }
      ],
      "name": "AddCommunityPool",
      "type": "event"
    },
    {
      "anonymous": false,
      "inputs": [
        {
          "indexed": true,
          "internalType": "address",
          "name": "poolAddress",
          "type": "address"
        },
        {
          "indexed": false,
          "internalType": "uint256",
          "name": "index",
          "type": "uint256"
        },
        {
          "components": [
            {
              "internalType": "address",
              "name": "poolAddress",
              "type": "address"
            },
            {
              "internalType": "address",
              "name": "lpToken",
              "type": "address"
            },
            {
              "internalType": "uint8",
              "name": "typeOfAsset",
              "type": "uint8"
            },
            {
              "internalType": "bytes32",
              "name": "poolName",
              "type": "bytes32"
            },
            {
              "internalType": "address",
              "name": "targetAddress",
              "type": "address"
            },
            {
              "internalType": "contract IERC20[]",
              "name": "tokens",
              "type": "address[]"
            },
            {
              "internalType": "contract IERC20[]",
              "name": "underlyingTokens",
              "type": "address[]"
            },
            {
              "internalType": "address",
              "name": "basePoolAddress",
              "type": "address"
            },
            {
              "internalType": "address",
              "name": "metaSwapDepositAddress",
              "type": "address"
            },
            {
              "internalType": "bool",
              "name": "isSaddleApproved",
              "type": "bool"
            },
            {
              "internalType": "bool",
              "name": "isRemoved",
              "type": "bool"
            },
            {
              "internalType": "bool",
              "name": "isGuarded",
              "type": "bool"
            }
          ],
          "indexed": false,
          "internalType": "struct IPoolRegistry.PoolData",
          "name": "poolData",
          "type": "tuple"
        }
      ],
      "name": "AddPool",
      "type": "event"
    },
    {
      "anonymous": false,
      "inputs": [
        {
          "indexed": true,
          "internalType": "address",
          "name": "poolAddress",
          "type": "address"
        },
        {
          "indexed": false,
          "internalType": "uint256",
          "name": "index",
          "type": "uint256"
        }
      ],
      "name": "RemovePool",
      "type": "event"
    },
    {
      "anonymous": false,
      "inputs": [
        {
          "indexed": true,
          "internalType": "bytes32",
          "name": "role",
          "type": "bytes32"
        },
        {
          "indexed": true,
          "internalType": "bytes32",
          "name": "previousAdminRole",
          "type": "bytes32"
        },
        {
          "indexed": true,
          "internalType": "bytes32",
          "name": "newAdminRole",
          "type": "bytes32"
        }
      ],
      "name": "RoleAdminChanged",
      "type": "event"
    },
    {
      "anonymous": false,
      "inputs": [
        {
          "indexed": true,
          "internalType": "bytes32",
          "name": "role",
          "type": "bytes32"
        },
        {
          "indexed": true,
          "internalType": "address",
          "name": "account",
          "type": "address"
        },
        {
          "indexed": true,
          "internalType": "address",
          "name": "sender",
          "type": "address"
        }
      ],
      "name": "RoleGranted",
      "type": "event"
    },
    {
      "anonymous": false,
      "inputs": [
        {
          "indexed": true,
          "internalType": "bytes32",
          "name": "role",
          "type": "bytes32"
        },
        {
          "indexed": true,
          "internalType": "address",
          "name": "account",
          "type": "address"
        },
        {
          "indexed": true,
          "internalType": "address",
          "name": "sender",
          "type": "address"
        }
      ],
      "name": "RoleRevoked",
      "type": "event"
    },
    {
      "anonymous": false,
      "inputs": [
        {
          "indexed": true,
          "internalType": "address",
          "name": "poolAddress",
          "type": "address"
        },
        {
          "indexed": false,
          "internalType": "uint256",
          "name": "index",
          "type": "uint256"
        },
        {
          "components": [
            {
              "internalType": "address",
              "name": "poolAddress",
              "type": "address"
            },
            {
              "internalType": "address",
              "name": "lpToken",
              "type": "address"
            },
            {
              "internalType": "uint8",
              "name": "typeOfAsset",
              "type": "uint8"
            },
            {
              "internalType": "bytes32",
              "name": "poolName",
              "type": "bytes32"
            },
            {
              "internalType": "address",
              "name": "targetAddress",
              "type": "address"
            },
            {
              "internalType": "contract IERC20[]",
              "name": "tokens",
              "type": "address[]"
            },
            {
              "internalType": "contract IERC20[]",
              "name": "underlyingTokens",
              "type": "address[]"
            },
            {
              "internalType": "address",
              "name": "basePoolAddress",
              "type": "address"
            },
            {
              "internalType": "address",
              "name": "metaSwapDepositAddress",
              "type": "address"
            },
            {
              "internalType": "bool",
              "name": "isSaddleApproved",
              "type": "bool"
            },
            {
              "internalType": "bool",
              "name": "isRemoved",
              "type": "bool"
            },
            {
              "internalType": "bool",
              "name": "isGuarded",
              "type": "bool"
            }
          ],
          "indexed": false,
          "internalType": "struct IPoolRegistry.PoolData",
          "name": "poolData",
          "type": "tuple"
        }
      ],
      "name": "UpdatePool",
      "type": "event"
    },
    {
      "inputs": [],
      "name": "COMMUNITY_MANAGER_ROLE",
      "outputs": [
        {
          "internalType": "bytes32",
          "name": "",
          "type": "bytes32"
        }
      ],
      "stateMutability": "view",
      "type": "function"
    },
    {
      "inputs": [],
      "name": "DEFAULT_ADMIN_ROLE",
      "outputs": [
        {
          "internalType": "bytes32",
          "name": "",
          "type": "bytes32"
        }
      ],
      "stateMutability": "view",
      "type": "function"
    },
    {
      "inputs": [],
      "name": "SADDLE_APPROVED_POOL_OWNER_ROLE",
      "outputs": [
        {
          "internalType": "bytes32",
          "name": "",
          "type": "bytes32"
        }
      ],
      "stateMutability": "view",
      "type": "function"
    },
    {
      "inputs": [],
      "name": "SADDLE_MANAGER_ROLE",
      "outputs": [
        {
          "internalType": "bytes32",
          "name": "",
          "type": "bytes32"
        }
      ],
      "stateMutability": "view",
      "type": "function"
    },
    {
      "inputs": [
        {
          "components": [
            {
              "internalType": "address",
              "name": "poolAddress",
              "type": "address"
            },
            {
              "internalType": "address",
              "name": "lpToken",
              "type": "address"
            },
            {
              "internalType": "uint8",
              "name": "typeOfAsset",
              "type": "uint8"
            },
            {
              "internalType": "bytes32",
              "name": "poolName",
              "type": "bytes32"
            },
            {
              "internalType": "address",
              "name": "targetAddress",
              "type": "address"
            },
            {
              "internalType": "contract IERC20[]",
              "name": "tokens",
              "type": "address[]"
            },
            {
              "internalType": "contract IERC20[]",
              "name": "underlyingTokens",
              "type": "address[]"
            },
            {
              "internalType": "address",
              "name": "basePoolAddress",
              "type": "address"
            },
            {
              "internalType": "address",
              "name": "metaSwapDepositAddress",
              "type": "address"
            },
            {
              "internalType": "bool",
              "name": "isSaddleApproved",
              "type": "bool"
            },
            {
              "internalType": "bool",
              "name": "isRemoved",
              "type": "bool"
            },
            {
              "internalType": "bool",
              "name": "isGuarded",
              "type": "bool"
            }
          ],
          "internalType": "struct IPoolRegistry.PoolData",
          "name": "data",
          "type": "tuple"
        }
      ],
      "name": "addCommunityPool",
      "outputs": [],
      "stateMutability": "payable",
      "type": "function"
    },
    {
      "inputs": [
        {
          "components": [
            {
              "internalType": "address",
              "name": "poolAddress",
              "type": "address"
            },
            {
              "internalType": "uint8",
              "name": "typeOfAsset",
              "type": "uint8"
            },
            {
              "internalType": "bytes32",
              "name": "poolName",
              "type": "bytes32"
            },
            {
              "internalType": "address",
              "name": "targetAddress",
              "type": "address"
            },
            {
              "internalType": "address",
              "name": "metaSwapDepositAddress",
              "type": "address"
            },
            {
              "internalType": "bool",
              "name": "isSaddleApproved",
              "type": "bool"
            },
            {
              "internalType": "bool",
              "name": "isRemoved",
              "type": "bool"
            },
            {
              "internalType": "bool",
              "name": "isGuarded",
              "type": "bool"
            }
          ],
          "internalType": "struct IPoolRegistry.PoolInputData",
          "name": "inputData",
          "type": "tuple"
        }
      ],
      "name": "addPool",
      "outputs": [],
      "stateMutability": "payable",
      "type": "function"
    },
    {
      "inputs": [
        {
          "internalType": "address",
          "name": "poolAddress",
          "type": "address"
        }
      ],
      "name": "approvePool",
      "outputs": [],
      "stateMutability": "payable",
      "type": "function"
    },
    {
      "inputs": [
        {
          "internalType": "bytes[]",
          "name": "calls",
          "type": "bytes[]"
        },
        {
          "internalType": "bool",
          "name": "revertOnFail",
          "type": "bool"
        }
      ],
      "name": "batch",
      "outputs": [],
      "stateMutability": "payable",
      "type": "function"
    },
    {
      "inputs": [
        {
          "internalType": "address",
          "name": "poolAddress",
          "type": "address"
        }
      ],
      "name": "getA",
      "outputs": [
        {
          "internalType": "uint256",
          "name": "",
          "type": "uint256"
        }
      ],
      "stateMutability": "view",
      "type": "function"
    },
    {
      "inputs": [
        {
          "internalType": "address",
          "name": "from",
          "type": "address"
        },
        {
          "internalType": "address",
          "name": "to",
          "type": "address"
        }
      ],
      "name": "getEligiblePools",
      "outputs": [
        {
          "internalType": "address[]",
          "name": "eligiblePools",
          "type": "address[]"
        }
      ],
      "stateMutability": "view",
      "type": "function"
    },
    {
      "inputs": [
        {
          "internalType": "address",
          "name": "poolAddress",
          "type": "address"
        }
      ],
      "name": "getPaused",
      "outputs": [
        {
          "internalType": "bool",
          "name": "",
          "type": "bool"
        }
      ],
      "stateMutability": "view",
      "type": "function"
    },
    {
      "inputs": [
        {
          "internalType": "address",
          "name": "poolAddress",
          "type": "address"
        }
      ],
      "name": "getPoolData",
      "outputs": [
        {
          "components": [
            {
              "internalType": "address",
              "name": "poolAddress",
              "type": "address"
            },
            {
              "internalType": "address",
              "name": "lpToken",
              "type": "address"
            },
            {
              "internalType": "uint8",
              "name": "typeOfAsset",
              "type": "uint8"
            },
            {
              "internalType": "bytes32",
              "name": "poolName",
              "type": "bytes32"
            },
            {
              "internalType": "address",
              "name": "targetAddress",
              "type": "address"
            },
            {
              "internalType": "contract IERC20[]",
              "name": "tokens",
              "type": "address[]"
            },
            {
              "internalType": "contract IERC20[]",
              "name": "underlyingTokens",
              "type": "address[]"
            },
            {
              "internalType": "address",
              "name": "basePoolAddress",
              "type": "address"
            },
            {
              "internalType": "address",
              "name": "metaSwapDepositAddress",
              "type": "address"
            },
            {
              "internalType": "bool",
              "name": "isSaddleApproved",
              "type": "bool"
            },
            {
              "internalType": "bool",
              "name": "isRemoved",
              "type": "bool"
            },
            {
              "internalType": "bool",
              "name": "isGuarded",
              "type": "bool"
            }
          ],
          "internalType": "struct IPoolRegistry.PoolData",
          "name": "",
          "type": "tuple"
        }
      ],
      "stateMutability": "view",
      "type": "function"
    },
    {
      "inputs": [
        {
          "internalType": "uint256",
          "name": "index",
          "type": "uint256"
        }
      ],
      "name": "getPoolDataAtIndex",
      "outputs": [
        {
          "components": [
            {
              "internalType": "address",
              "name": "poolAddress",
              "type": "address"
            },
            {
              "internalType": "address",
              "name": "lpToken",
              "type": "address"
            },
            {
              "internalType": "uint8",
              "name": "typeOfAsset",
              "type": "uint8"
            },
            {
              "internalType": "bytes32",
              "name": "poolName",
              "type": "bytes32"
            },
            {
              "internalType": "address",
              "name": "targetAddress",
              "type": "address"
            },
            {
              "internalType": "contract IERC20[]",
              "name": "tokens",
              "type": "address[]"
            },
            {
              "internalType": "contract IERC20[]",
              "name": "underlyingTokens",
              "type": "address[]"
            },
            {
              "internalType": "address",
              "name": "basePoolAddress",
              "type": "address"
            },
            {
              "internalType": "address",
              "name": "metaSwapDepositAddress",
              "type": "address"
            },
            {
              "internalType": "bool",
              "name": "isSaddleApproved",
              "type": "bool"
            },
            {
              "internalType": "bool",
              "name": "isRemoved",
              "type": "bool"
            },
            {
              "internalType": "bool",
              "name": "isGuarded",
              "type": "bool"
            }
          ],
          "internalType": "struct IPoolRegistry.PoolData",
          "name": "",
          "type": "tuple"
        }
      ],
      "stateMutability": "view",
      "type": "function"
    },
    {
      "inputs": [
        {
          "internalType": "bytes32",
          "name": "poolName",
          "type": "bytes32"
        }
      ],
      "name": "getPoolDataByName",
      "outputs": [
        {
          "components": [
            {
              "internalType": "address",
              "name": "poolAddress",
              "type": "address"
            },
            {
              "internalType": "address",
              "name": "lpToken",
              "type": "address"
            },
            {
              "internalType": "uint8",
              "name": "typeOfAsset",
              "type": "uint8"
            },
            {
              "internalType": "bytes32",
              "name": "poolName",
              "type": "bytes32"
            },
            {
              "internalType": "address",
              "name": "targetAddress",
              "type": "address"
            },
            {
              "internalType": "contract IERC20[]",
              "name": "tokens",
              "type": "address[]"
            },
            {
              "internalType": "contract IERC20[]",
              "name": "underlyingTokens",
              "type": "address[]"
            },
            {
              "internalType": "address",
              "name": "basePoolAddress",
              "type": "address"
            },
            {
              "internalType": "address",
              "name": "metaSwapDepositAddress",
              "type": "address"
            },
            {
              "internalType": "bool",
              "name": "isSaddleApproved",
              "type": "bool"
            },
            {
              "internalType": "bool",
              "name": "isRemoved",
              "type": "bool"
            },
            {
              "internalType": "bool",
              "name": "isGuarded",
              "type": "bool"
            }
          ],
          "internalType": "struct IPoolRegistry.PoolData",
          "name": "",
          "type": "tuple"
        }
      ],
      "stateMutability": "view",
      "type": "function"
    },
    {
      "inputs": [],
      "name": "getPoolsLength",
      "outputs": [
        {
          "internalType": "uint256",
          "name": "",
          "type": "uint256"
        }
      ],
      "stateMutability": "view",
      "type": "function"
    },
    {
      "inputs": [
        {
          "internalType": "bytes32",
          "name": "role",
          "type": "bytes32"
        }
      ],
      "name": "getRoleAdmin",
      "outputs": [
        {
          "internalType": "bytes32",
          "name": "",
          "type": "bytes32"
        }
      ],
      "stateMutability": "view",
      "type": "function"
    },
    {
      "inputs": [
        {
          "internalType": "bytes32",
          "name": "role",
          "type": "bytes32"
        },
        {
          "internalType": "uint256",
          "name": "index",
          "type": "uint256"
        }
      ],
      "name": "getRoleMember",
      "outputs": [
        {
          "internalType": "address",
          "name": "",
          "type": "address"
        }
      ],
      "stateMutability": "view",
      "type": "function"
    },
    {
      "inputs": [
        {
          "internalType": "bytes32",
          "name": "role",
          "type": "bytes32"
        }
      ],
      "name": "getRoleMemberCount",
      "outputs": [
        {
          "internalType": "uint256",
          "name": "",
          "type": "uint256"
        }
      ],
      "stateMutability": "view",
      "type": "function"
    },
    {
      "inputs": [
        {
          "internalType": "address",
          "name": "poolAddress",
          "type": "address"
        }
      ],
      "name": "getSwapStorage",
      "outputs": [
        {
          "components": [
            {
              "internalType": "uint256",
              "name": "initialA",
              "type": "uint256"
            },
            {
              "internalType": "uint256",
              "name": "futureA",
              "type": "uint256"
            },
            {
              "internalType": "uint256",
              "name": "initialATime",
              "type": "uint256"
            },
            {
              "internalType": "uint256",
              "name": "futureATime",
              "type": "uint256"
            },
            {
              "internalType": "uint256",
              "name": "swapFee",
              "type": "uint256"
            },
            {
              "internalType": "uint256",
              "name": "adminFee",
              "type": "uint256"
            },
            {
              "internalType": "address",
              "name": "lpToken",
              "type": "address"
            }
          ],
          "internalType": "struct IPoolRegistry.SwapStorageData",
          "name": "swapStorageData",
          "type": "tuple"
        }
      ],
      "stateMutability": "view",
      "type": "function"
    },
    {
      "inputs": [
        {
          "internalType": "address",
          "name": "poolAddress",
          "type": "address"
        }
      ],
      "name": "getTokenBalances",
      "outputs": [
        {
          "internalType": "uint256[]",
          "name": "balances",
          "type": "uint256[]"
        }
      ],
      "stateMutability": "view",
      "type": "function"
    },
    {
      "inputs": [
        {
          "internalType": "address",
          "name": "poolAddress",
          "type": "address"
        }
      ],
      "name": "getTokens",
      "outputs": [
        {
          "internalType": "contract IERC20[]",
          "name": "tokens",
          "type": "address[]"
        }
      ],
      "stateMutability": "view",
      "type": "function"
    },
    {
      "inputs": [
        {
          "internalType": "address",
          "name": "poolAddress",
          "type": "address"
        }
      ],
      "name": "getUnderlyingTokenBalances",
      "outputs": [
        {
          "internalType": "uint256[]",
          "name": "balances",
          "type": "uint256[]"
        }
      ],
      "stateMutability": "view",
      "type": "function"
    },
    {
      "inputs": [
        {
          "internalType": "address",
          "name": "poolAddress",
          "type": "address"
        }
      ],
      "name": "getUnderlyingTokens",
      "outputs": [
        {
          "internalType": "contract IERC20[]",
          "name": "underlyingTokens",
          "type": "address[]"
        }
      ],
      "stateMutability": "view",
      "type": "function"
    },
    {
      "inputs": [
        {
          "internalType": "address",
          "name": "poolAddress",
          "type": "address"
        }
      ],
      "name": "getVirtualPrice",
      "outputs": [
        {
          "internalType": "uint256",
          "name": "",
          "type": "uint256"
        }
      ],
      "stateMutability": "view",
      "type": "function"
    },
    {
      "inputs": [
        {
          "internalType": "bytes32",
          "name": "role",
          "type": "bytes32"
        },
        {
          "internalType": "address",
          "name": "account",
          "type": "address"
        }
      ],
      "name": "grantRole",
      "outputs": [],
      "stateMutability": "nonpayable",
      "type": "function"
    },
    {
      "inputs": [
        {
          "internalType": "bytes32",
          "name": "role",
          "type": "bytes32"
        },
        {
          "internalType": "address",
          "name": "account",
          "type": "address"
        }
      ],
      "name": "hasRole",
      "outputs": [
        {
          "internalType": "bool",
          "name": "",
          "type": "bool"
        }
      ],
      "stateMutability": "view",
      "type": "function"
    },
    {
      "inputs": [
        {
          "internalType": "bytes32",
          "name": "",
          "type": "bytes32"
        }
      ],
      "name": "poolsIndexOfNamePlusOne",
      "outputs": [
        {
          "internalType": "uint256",
          "name": "",
          "type": "uint256"
        }
      ],
      "stateMutability": "view",
      "type": "function"
    },
    {
      "inputs": [
        {
          "internalType": "address",
          "name": "",
          "type": "address"
        }
      ],
      "name": "poolsIndexOfPlusOne",
      "outputs": [
        {
          "internalType": "uint256",
          "name": "",
          "type": "uint256"
        }
      ],
      "stateMutability": "view",
      "type": "function"
    },
    {
      "inputs": [
        {
          "internalType": "address",
          "name": "poolAddress",
          "type": "address"
        }
      ],
      "name": "removePool",
      "outputs": [],
      "stateMutability": "payable",
      "type": "function"
    },
    {
      "inputs": [
        {
          "internalType": "bytes32",
          "name": "role",
          "type": "bytes32"
        },
        {
          "internalType": "address",
          "name": "account",
          "type": "address"
        }
      ],
      "name": "renounceRole",
      "outputs": [],
      "stateMutability": "nonpayable",
      "type": "function"
    },
    {
      "inputs": [
        {
          "internalType": "bytes32",
          "name": "role",
          "type": "bytes32"
        },
        {
          "internalType": "address",
          "name": "account",
          "type": "address"
        }
      ],
      "name": "revokeRole",
      "outputs": [],
      "stateMutability": "nonpayable",
      "type": "function"
    },
    {
      "inputs": [
        {
          "components": [
            {
              "internalType": "address",
              "name": "poolAddress",
              "type": "address"
            },
            {
              "internalType": "address",
              "name": "lpToken",
              "type": "address"
            },
            {
              "internalType": "uint8",
              "name": "typeOfAsset",
              "type": "uint8"
            },
            {
              "internalType": "bytes32",
              "name": "poolName",
              "type": "bytes32"
            },
            {
              "internalType": "address",
              "name": "targetAddress",
              "type": "address"
            },
            {
              "internalType": "contract IERC20[]",
              "name": "tokens",
              "type": "address[]"
            },
            {
              "internalType": "contract IERC20[]",
              "name": "underlyingTokens",
              "type": "address[]"
            },
            {
              "internalType": "address",
              "name": "basePoolAddress",
              "type": "address"
            },
            {
              "internalType": "address",
              "name": "metaSwapDepositAddress",
              "type": "address"
            },
            {
              "internalType": "bool",
              "name": "isSaddleApproved",
              "type": "bool"
            },
            {
              "internalType": "bool",
              "name": "isRemoved",
              "type": "bool"
            },
            {
              "internalType": "bool",
              "name": "isGuarded",
              "type": "bool"
            }
          ],
          "internalType": "struct IPoolRegistry.PoolData",
          "name": "poolData",
          "type": "tuple"
        }
      ],
      "name": "updatePool",
      "outputs": [],
      "stateMutability": "payable",
      "type": "function"
    }
  ],
  "transactionHash": "0x74542586796e12aab43ec6bcc152cdf7d72ff4a27b3835026b6d9f6462fa9bc1",
  "args": [
    "0x5BDb37d0Ddea3A90F233c7B7F6b9394B6b2eef34",
    "0x4e76a78Fd1Fb0811a0A9092275A32c04e346d000"
  ],
  "numDeployments": 1,
  "solcInputHash": "bc3a64a5cffb1e8de0dbf9fb306e4f9f",
  "bytecode": "0x608060405260405162004657380380620046578339810160408190526200002691620001dd565b600180556001600160a01b0382166200005c5760405162461bcd60e51b815260040162000053906200021b565b60405180910390fd5b62000069600083620000c9565b620000957fe132a6a517694e2454dc663f0d4fa738f94e7c1bd06c8950d14f9db8832494bd33620000c9565b620000c17f3a8f22a562b0a1c1adc8307ab58a0c1a080aee6a8195ccea22d34ff640461c2682620000c9565b505062000258565b620000d58282620000d9565b5050565b600082815260208181526040909120620000fe91839062002baf62000152821b17901c565b15620000d5576200010e62000172565b6001600160a01b0316816001600160a01b0316837f2f8788117e7eff1d82e926ec794901d17c78024a50270940304540a733656f0d60405160405180910390a45050565b600062000169836001600160a01b03841662000176565b90505b92915050565b3390565b6000620001848383620001c5565b620001bc575081546001818101845560008481526020808220909301849055845484825282860190935260409020919091556200016c565b5060006200016c565b60009081526001919091016020526040902054151590565b60008060408385031215620001f0578182fd5b8251620001fd816200023f565b602084015190925062000210816200023f565b809150509250929050565b6020808252600a9082015269061646d696e203d3d20360b41b604082015260600190565b6001600160a01b03811681146200025557600080fd5b50565b6143ef80620002686000396000f3fe6080604052600436106101e35760003560e01c8063764f3aa811610102578063b55d990411610095578063d2423b5111610064578063d2423b5114610570578063d547741f14610583578063e7dc263b146105a3578063f1be0eba146105b6576101e3565b8063b55d9904146104ee578063c5730e2d1461050e578063ca15c8731461053b578063ce883cdb1461055b576101e3565b8063a217fddf116100d1578063a217fddf14610484578063a7666d4b14610499578063afd5beed146104b9578063b26a5102146104ce576101e3565b8063764f3aa8146103f75780638a754bbe146104175780639010d07c1461042a57806391d1485414610457576101e3565b80633b7d09461161017a5780635b506a00116101495780635b506a001461038d578063656dc2e4146103ad578063676bca21146103cd5780636d2f2246146103e2576101e3565b80633b7d09461461031a578063424c265b1461032d578063450efe21146103405780634ed33ace1461036d576101e3565b8063248a9ca3116101b6578063248a9ca3146102805780632e23cc80146102ad5780632f2ff15d146102da57806336568abe146102fa576101e3565b8063017f2093146101e857806306b6e7771461021e57806313d21cdf146102335780631ed668db14610253575b600080fd5b3480156101f457600080fd5b506102086102033660046134fe565b6105d6565b60405161021591906140ee565b60405180910390f35b61023161022c366004613605565b6107ea565b005b34801561023f57600080fd5b5061020861024e3660046133f2565b610af1565b34801561025f57600080fd5b5061027361026e3660046133f2565b610b5c565b6040516102159190614101565b34801561028c57600080fd5b506102a061029b3660046134fe565b610c08565b6040516102159190613b2f565b3480156102b957600080fd5b506102cd6102c83660046133f2565b610c1d565b6040516102159190613aec565b3480156102e657600080fd5b506102316102f5366004613516565b610fc2565b34801561030657600080fd5b50610231610315366004613516565b61100a565b6102316103283660046133f2565b61104c565b61023161033b3660046133f2565b61113e565b34801561034c57600080fd5b5061036061035b3660046133f2565b611364565b6040516102159190613ad9565b34801561037957600080fd5b506102a06103883660046133f2565b61143c565b34801561039957600080fd5b506102a06103a83660046134fe565b6114e4565b3480156103b957600080fd5b506103606103c83660046133f2565b6114f6565b3480156103d957600080fd5b506102a06115cc565b3480156103ee57600080fd5b506102a06115f0565b34801561040357600080fd5b506102cd6104123660046133f2565b611614565b610231610425366004613605565b611657565b34801561043657600080fd5b5061044a61044536600461353a565b611bc7565b6040516102159190613a78565b34801561046357600080fd5b50610477610472366004613516565b611be8565b6040516102159190613b24565b34801561049057600080fd5b506102a0611c00565b3480156104a557600080fd5b506102086104b43660046134fe565b611c05565b3480156104c557600080fd5b506102a0611e00565b3480156104da57600080fd5b506102a06104e93660046133f2565b611e24565b3480156104fa57600080fd5b506104776105093660046133f2565b611e36565b34801561051a57600080fd5b5061052e61052936600461342a565b611ede565b6040516102159190613a8c565b34801561054757600080fd5b506102a06105563660046134fe565b611f9d565b34801561056757600080fd5b506102a0611fb4565b61023161057e366004613462565b611fba565b34801561058f57600080fd5b5061023161059e366004613516565b61207d565b6102316105b1366004613751565b6120b7565b3480156105c257600080fd5b506102a06105d13660046133f2565b612b3f565b6105de6131e5565b600082815260036020526040902054806106135760405162461bcd60e51b815260040161060a9061405a565b60405180910390fd5b6004600182038154811061062357fe5b60009182526020918290206040805161018081018252600890930290910180546001600160a01b03908116845260018201548082168587015260ff7401000000000000000000000000000000000000000090910416848401526002820154606085015260038201541660808401526004810180548351818702810187019094528084529394919360a0860193928301828280156106e957602002820191906000526020600020905b81546001600160a01b031681526001909101906020018083116106cb575b505050505081526020016005820180548060200260200160405190810160405280929190818152602001828054801561074b57602002820191906000526020600020905b81546001600160a01b0316815260019091019060200180831161072d575b505050918352505060068201546001600160a01b039081166020830152600790920154918216604082015260ff74010000000000000000000000000000000000000000830481161515606083015275010000000000000000000000000000000000000000008304811615156080830152760100000000000000000000000000000000000000000000909204909116151560a0909101529150505b919050565b6108147fe132a6a517694e2454dc663f0d4fa738f94e7c1bd06c8950d14f9db8832494bd33611be8565b6108305760405162461bcd60e51b815260040161060a90613ce8565b80516001600160a01b0316600090815260026020526040902054806108675760405162461bcd60e51b815260040161060a9061405a565b600181039050816004828154811061087b57fe5b6000918252602091829020835160089092020180546001600160a01b039283167fffffffffffffffffffffffff000000000000000000000000000000000000000091821617825584840151600183018054604088015160ff1674010000000000000000000000000000000000000000027fffffffffffffffffffffff00ffffffffffffffffffffffffffffffffffffffff93871691851691909117929092169190911790556060850151600283015560808501516003830180549190941691161790915560a08301518051919261095a92600485019290910190613248565b5060c08201518051610976916005840191602090910190613248565b5060e08201516006820180546001600160a01b039283167fffffffffffffffffffffffff00000000000000000000000000000000000000009182161790915561010084015160079093018054610120860151610140870151610160909701511515760100000000000000000000000000000000000000000000027fffffffffffffffffff00ffffffffffffffffffffffffffffffffffffffffffff9715157501000000000000000000000000000000000000000000027fffffffffffffffffffff00ffffffffffffffffffffffffffffffffffffffffff92151574010000000000000000000000000000000000000000027fffffffffffffffffffffff00ffffffffffffffffffffffffffffffffffffffff988816949096169390931796909616939093179290921691909117939093169190911790915582516040519116907f21292cd2979873e2f844b8d081ebe90c5d4095362e2814ea54332ec7b6fd432e90610ae59084908690614158565b60405180910390a25050565b610af96131e5565b6001600160a01b0382166000908152600260205260409020548290610b305760405162461bcd60e51b815260040161060a90613fb5565b6001600160a01b0383166000908152600260205260409020546004805490916000190190811061062357fe5b610b646132c5565b6001600160a01b0382166000908152600260205260409020548290610b9b5760405162461bcd60e51b815260040161060a90613fb5565b6001600160a01b03831660009081526002602052604090205460048054909160001901908110610bc757fe5b906000526020600020906008020160070160169054906101000a900460ff16610bf857610bf383612bc4565b610c01565b610c0183612c6b565b9392505050565b60009081526020819052604090206002015490565b6001600160a01b0381166000908152600260205260409020546060908290610c575760405162461bcd60e51b815260040161060a90613fb5565b6001600160a01b03831660009081526002602052604081205460048054600019909201929183908110610c8657fe5b60009182526020909120600660089092020101546001600160a01b031690506060610cb082612d14565b9050600060048481548110610cc157fe5b6000918252602082206005600890920201015483516040517f91ceb3eb000000000000000000000000000000000000000000000000000000008152919350830391906001600160a01b038a16906391ceb3eb90610d229085906004016142bc565b60206040518083038186803b158015610d3a57600080fd5b505afa158015610d4e573d6000803e3d6000fd5b505050506040513d601f19601f82011682018060405250810190610d7291906137fa565b905060006004600160026000896001600160a01b03166001600160a01b03168152602001908152602001600020540381548110610dab57fe5b600091825260209182902060016008909202010154604080517f18160ddd00000000000000000000000000000000000000000000000000000000815290516001600160a01b03909216926318160ddd92600480840193829003018186803b158015610e1557600080fd5b505afa158015610e29573d6000803e3d6000fd5b505050506040513d601f19601f82011682018060405250810190610e4d91906137fa565b90508367ffffffffffffffff81118015610e6657600080fd5b50604051908082528060200260200182016040528015610e90578160200160208202803683370190505b50985060005b838160ff161015610f58576040517f91ceb3eb0000000000000000000000000000000000000000000000000000000081526001600160a01b038c16906391ceb3eb90610ee69084906004016142bc565b60206040518083038186803b158015610efe57600080fd5b505afa158015610f12573d6000803e3d6000fd5b505050506040513d601f19601f82011682018060405250810190610f3691906137fa565b8a8260ff1681518110610f4557fe5b6020908102919091010152600101610e96565b50825b84811015610fb457610f9582610f8f858988860381518110610f7957fe5b6020026020010151612e6990919063ffffffff16565b90612ea3565b8a8281518110610fa157fe5b6020908102919091010152600101610f5b565b505050505050505050919050565b600082815260208190526040902060020154610fe090610472612ed5565b610ffc5760405162461bcd60e51b815260040161060a90613be6565b6110068282612ed9565b5050565b611012612ed5565b6001600160a01b0316816001600160a01b0316146110425760405162461bcd60e51b815260040161060a90614091565b6110068282612f42565b6110767fe132a6a517694e2454dc663f0d4fa738f94e7c1bd06c8950d14f9db8832494bd33611be8565b6110925760405162461bcd60e51b815260040161060a90613ce8565b6001600160a01b038116600090815260026020526040902054806110c85760405162461bcd60e51b815260040161060a9061405a565b6001810390506001600482815481106110dd57fe5b906000526020600020906008020160070160156101000a81548160ff021916908315150217905550816001600160a01b03167ff53dcf4cb920d5a07b1ae3e0756c787bb675805c0176515e9cc6a33226f068b282604051610ae59190613b2f565b6111687fe132a6a517694e2454dc663f0d4fa738f94e7c1bd06c8950d14f9db8832494bd33611be8565b6111845760405162461bcd60e51b815260040161060a90613ce8565b6001600160a01b038116600090815260026020526040902054806111ba5760405162461bcd60e51b815260040161060a9061405a565b6000600482815481106111c957fe5b6000918252602090912060089091020180549091506001600160a01b038481169116146112085760405162461bcd60e51b815260040161060a90613cb1565b6007810180547fffffffffffffffffffffff00ffffffffffffffffffffffffffffffffffffffff1674010000000000000000000000000000000000000000179055604080517f8da5cb5b0000000000000000000000000000000000000000000000000000000081529051611300917f3a8f22a562b0a1c1adc8307ab58a0c1a080aee6a8195ccea22d34ff640461c26916001600160a01b03871691638da5cb5b916004808301926020929190829003018186803b1580156112c857600080fd5b505afa1580156112dc573d6000803e3d6000fd5b505050506040513d601f19601f82011682018060405250810190610472919061340e565b61131c5760405162461bcd60e51b815260040161060a90613c43565b826001600160a01b03167f21292cd2979873e2f844b8d081ebe90c5d4095362e2814ea54332ec7b6fd432e8383604051611357929190614179565b60405180910390a2505050565b6001600160a01b038116600090815260026020526040902054606090829061139e5760405162461bcd60e51b815260040161060a90613fb5565b6001600160a01b038316600090815260026020526040902054600480549091600019019081106113ca57fe5b906000526020600020906008020160040180548060200260200160405190810160405280929190818152602001828054801561142f57602002820191906000526020600020905b81546001600160a01b03168152600190910190602001808311611411575b5050505050915050919050565b6001600160a01b03811660009081526002602052604081205482906114735760405162461bcd60e51b815260040161060a90613fb5565b826001600160a01b031663d46300fd6040518163ffffffff1660e01b815260040160206040518083038186803b1580156114ac57600080fd5b505afa1580156114c0573d6000803e3d6000fd5b505050506040513d601f19601f82011682018060405250810190610c0191906137fa565b60036020526000908152604090205481565b6001600160a01b03811660009081526002602052604090205460609082906115305760405162461bcd60e51b815260040161060a90613fb5565b6001600160a01b0383166000908152600260205260409020546004805490916000190190811061155c57fe5b906000526020600020906008020160050180548060200260200160405190810160405280929190818152602001828054801561142f576020028201919060005260206000209081546001600160a01b03168152600190910190602001808311611411575050505050915050919050565b7fa9eb1bd0b8bd5d75005d4e3c25736746c884daef9ecff243b81b4cc73cfb7f9e81565b7fe132a6a517694e2454dc663f0d4fa738f94e7c1bd06c8950d14f9db8832494bd81565b6001600160a01b038116600090815260026020526040902054606090829061164e5760405162461bcd60e51b815260040161060a90613fb5565b610c0183612d14565b6116817fa9eb1bd0b8bd5d75005d4e3c25736746c884daef9ecff243b81b4cc73cfb7f9e33611be8565b61169d5760405162461bcd60e51b815260040161060a90613e45565b60005b8160a00151518160ff16101561176f5760005b8160ff168160ff16101561176657600560008460a001518360ff16815181106116d857fe5b60200260200101518560a001518560ff16815181106116f357fe5b6020908102919091018101516001600160a01b0392188216835282810193909352604090910160009081208651815460018181018455928452949092209093018054919092167fffffffffffffffffffffffff0000000000000000000000000000000000000000909116179055016116b3565b506001016116a0565b506101008101516001600160a01b0316156118775760005b8160c00151518160ff1610156118755760a0820151516117a8906002612fab565b8160ff16111561186d5760005b60018360a00151510381101561186b57600560008460c0015183815181106117d957fe5b60200260200101518560c001518560ff16815181106117f457fe5b6020908102919091018101516001600160a01b039218821683528281019390935260409091016000908120610100870151815460018181018455928452949092209093018054919092167fffffffffffffffffffffffff0000000000000000000000000000000000000000909116179055016117b5565b505b600101611787565b505b6004805460018101825560009190915281517f8a35acfbc15ff81a39ae7d344fd709f28e8600b4aa8c65c6b64bfe7fe36bd19b600890920291820180547fffffffffffffffffffffffff00000000000000000000000000000000000000009081166001600160a01b039384161782556020808601517f8a35acfbc15ff81a39ae7d344fd709f28e8600b4aa8c65c6b64bfe7fe36bd19c860180546040890151908516928716929092177fffffffffffffffffffffff00ffffffffffffffffffffffffffffffffffffffff167401000000000000000000000000000000000000000060ff9093169290920291909117905560608601517f8a35acfbc15ff81a39ae7d344fd709f28e8600b4aa8c65c6b64bfe7fe36bd19d86015560808601517f8a35acfbc15ff81a39ae7d344fd709f28e8600b4aa8c65c6b64bfe7fe36bd19e86018054909316941693909317905560a08401518051859492936119fe937f8a35acfbc15ff81a39ae7d344fd709f28e8600b4aa8c65c6b64bfe7fe36bd19f01920190613248565b5060c08201518051611a1a916005840191602090910190613248565b5060e08201516006820180546001600160a01b039283167fffffffffffffffffffffffff00000000000000000000000000000000000000009182161790915561010084015160079093018054610120860151610140870151610160909701511515760100000000000000000000000000000000000000000000027fffffffffffffffffff00ffffffffffffffffffffffffffffffffffffffffffff9715157501000000000000000000000000000000000000000000027fffffffffffffffffffff00ffffffffffffffffffffffffffffffffffffffffff92151574010000000000000000000000000000000000000000027fffffffffffffffffffffff00ffffffffffffffffffffffffffffffffffffffff988816949096169390931796909616939093179290921691909117939093169190911790915560045482518216600090815260026020908152604080832084905560608601518352600390915290819020829055835190519216917f662dd796ff757466e483389dd24bcbb94cb0591dfd6b1972962f5a147b69333191611bbc9160001991909101908590614158565b60405180910390a250565b6000828152602081905260408120611bdf9083612fd3565b90505b92915050565b6000828152602081905260408120611bdf9083612fdf565b600081565b611c0d6131e5565b6004548210611c2e5760405162461bcd60e51b815260040161060a90613ed9565b60048281548110611c3b57fe5b60009182526020918290206040805161018081018252600890930290910180546001600160a01b03908116845260018201548082168587015260ff7401000000000000000000000000000000000000000090910416848401526002820154606085015260038201541660808401526004810180548351818702810187019094528084529394919360a086019392830182828015611d0157602002820191906000526020600020905b81546001600160a01b03168152600190910190602001808311611ce3575b5050505050815260200160058201805480602002602001604051908101604052809291908181526020018280548015611d6357602002820191906000526020600020905b81546001600160a01b03168152600190910190602001808311611d45575b505050918352505060068201546001600160a01b039081166020830152600790920154918216604082015260ff74010000000000000000000000000000000000000000830481161515606083015275010000000000000000000000000000000000000000008304811615156080830152760100000000000000000000000000000000000000000000909204909116151560a0909101529050919050565b7f3a8f22a562b0a1c1adc8307ab58a0c1a080aee6a8195ccea22d34ff640461c2681565b60026020526000908152604090205481565b6001600160a01b0381166000908152600260205260408120548290611e6d5760405162461bcd60e51b815260040161060a90613fb5565b826001600160a01b0316635c975abb6040518163ffffffff1660e01b815260040160206040518083038186803b158015611ea657600080fd5b505afa158015611eba573d6000803e3d6000fd5b505050506040513d601f19601f82011682018060405250810190610c0191906134e2565b60606001600160a01b03831615801590611f0a5750816001600160a01b0316836001600160a01b031614155b611f265760405162461bcd60e51b815260040161060a90613de8565b6001600160a01b038383181660009081526005602090815260409182902080548351818402810184019094528084529091830182828015611f9057602002820191906000526020600020905b81546001600160a01b03168152600190910190602001808311611f72575b5050505050905092915050565b6000818152602081905260408120611be290612ff4565b60045490565b60005b82811015612077576000606030868685818110611fd657fe5b9050602002810190611fe891906142ca565b604051611ff6929190613a68565b600060405180830381855af49150503d8060008114612031576040519150601f19603f3d011682016040523d82523d6000602084013e612036565b606091505b5091509150811580156120465750835b1561206d5761205481612fff565b60405162461bcd60e51b815260040161060a9190613b38565b5050600101611fbd565b50505050565b60008281526020819052604090206002015461209b90610472612ed5565b6110425760405162461bcd60e51b815260040161060a90613d8b565b600260015414156120da5760405162461bcd60e51b815260040161060a90614023565b60026001556121097fe132a6a517694e2454dc663f0d4fa738f94e7c1bd06c8950d14f9db8832494bd33611be8565b6121255760405162461bcd60e51b815260040161060a90613e45565b80516001600160a01b031661214c5760405162461bcd60e51b815260040161060a90613f10565b80516001600160a01b0316600090815260026020526040902054156121835760405162461bcd60e51b815260040161060a90613fec565b6040805160088082526101208201909252606091602082016101008036833750506040805160088082526101208201909252929350606092915060208201610100803683370190505090506121d66131e5565b60405180610180016040528085600001516001600160a01b0316815260200160006001600160a01b03168152602001856020015160ff1681526020018560400151815260200185606001516001600160a01b0316815260200184815260200183815260200160006001600160a01b0316815260200185608001516001600160a01b031681526020018560a00151151581526020018560c00151151581526020018560e00151151581525090508360e0015161229f57835161229690612bc4565b60c001516122af565b83516122aa90612c6b565b60c001515b6001600160a01b0316602082015260005b60088160ff16101561249a5784516040517f82b866000000000000000000000000000000000000000000000000000000000081526001600160a01b03909116906382b86600906123149084906004016142bc565b60206040518083038186803b15801561232c57600080fd5b505afa92505050801561237a575060408051601f3d9081017fffffffffffffffffffffffffffffffffffffffffffffffffffffffffffffffe01682019092526123779181019061340e565b60015b61238c5780600803845103845261249a565b6001600160a01b0381166123b25760405162461bcd60e51b815260040161060a90613f7e565b80858360ff16815181106123c257fe5b60200260200101906001600160a01b031690816001600160a01b03168152505060005b8260ff168160ff1610156124905760056000878360ff168151811061240657fe5b6020026020010151888660ff168151811061241d57fe5b6020908102919091018101516001600160a01b0392188216835282810193909352604090910160009081208a51815460018181018455928452949092209093018054919092167fffffffffffffffffffffffff0000000000000000000000000000000000000000909116179055016123e5565b50506001016122c0565b5060808401516001600160a01b0316156127e05783608001516001600160a01b0316639750a8ee6040518163ffffffff1660e01b815260040160206040518083038186803b1580156124eb57600080fd5b505afa1580156124ff573d6000803e3d6000fd5b505050506040513d601f19601f82011682018060405250810190612523919061340e565b6001600160a01b031660e0820181905260009081526002602052604090205461255e5760405162461bcd60e51b815260040161060a90613c7a565b60005b60088160ff1610156127315784608001516001600160a01b03166382b86600826040518263ffffffff1660e01b815260040161259d91906142bc565b60206040518083038186803b1580156125b557600080fd5b505afa925050508015612603575060408051601f3d9081017fffffffffffffffffffffffffffffffffffffffffffffffffffffffffffffffe01682019092526126009181019061340e565b60015b61261557806008038351038352612731565b6001600160a01b03811661263b5760405162461bcd60e51b815260040161060a90613f7e565b80848360ff168151811061264b57fe5b6001600160a01b03909216602092830291909101909101528451612670906002612fab565b8260ff1611156127285760005b6001865103811015612726576005600086838151811061269957fe5b6020026020010151878660ff16815181106126b057fe5b6020908102919091018101516001600160a01b03921882168352828101939093526040909101600090812060808b0151815460018181018455928452949092209093018054919092167fffffffffffffffffffffffff00000000000000000000000000000000000000009091161790550161267d565b505b50600101612561565b5083600001516001600160a01b031684608001516001600160a01b031663cb2ef5fe6040518163ffffffff1660e01b815260040160206040518083038186803b15801561277d57600080fd5b505afa158015612791573d6000803e3d6000fd5b505050506040513d601f19601f820116820180604052508101906127b5919061340e565b6001600160a01b0316146127db5760405162461bcd60e51b815260040161060a90613f47565b6127e8565b600882510382525b6004805460018101825560009190915281517f8a35acfbc15ff81a39ae7d344fd709f28e8600b4aa8c65c6b64bfe7fe36bd19b600890920291820180547fffffffffffffffffffffffff00000000000000000000000000000000000000009081166001600160a01b039384161782556020808601517f8a35acfbc15ff81a39ae7d344fd709f28e8600b4aa8c65c6b64bfe7fe36bd19c860180546040890151908516928716929092177fffffffffffffffffffffff00ffffffffffffffffffffffffffffffffffffffff167401000000000000000000000000000000000000000060ff9093169290920291909117905560608601517f8a35acfbc15ff81a39ae7d344fd709f28e8600b4aa8c65c6b64bfe7fe36bd19d86015560808601517f8a35acfbc15ff81a39ae7d344fd709f28e8600b4aa8c65c6b64bfe7fe36bd19e86018054909316941693909317905560a084015180518594929361296f937f8a35acfbc15ff81a39ae7d344fd709f28e8600b4aa8c65c6b64bfe7fe36bd19f01920190613248565b5060c0820151805161298b916005840191602090910190613248565b5060e08201516006820180546001600160a01b039283167fffffffffffffffffffffffff00000000000000000000000000000000000000009182161790915561010084015160079093018054610120860151610140870151610160909701511515760100000000000000000000000000000000000000000000027fffffffffffffffffff00ffffffffffffffffffffffffffffffffffffffffffff9715157501000000000000000000000000000000000000000000027fffffffffffffffffffff00ffffffffffffffffffffffffffffffffffffffffff92151574010000000000000000000000000000000000000000027fffffffffffffffffffffff00ffffffffffffffffffffffffffffffffffffffff988816949096169390931796909616939093179290921691909117939093169190911790915560045482518216600090815260026020908152604080832084905560608601518352600390915290819020829055865190519216917f15ec4115f45227a2f5b970962fd2294c7be9ba12b0652daae49ff679c02a1e0291612b2d9160001991909101908590614158565b60405180910390a25050600180555050565b6001600160a01b0381166000908152600260205260408120548290612b765760405162461bcd60e51b815260040161060a90613fb5565b826001600160a01b031663e25aa5fa6040518163ffffffff1660e01b815260040160206040518083038186803b1580156114ac57600080fd5b6000611bdf836001600160a01b03841661305f565b612bcc6132c5565b816001600160a01b0316635fd65f0f6040518163ffffffff1660e01b815260040160e06040518083038186803b158015612c0557600080fd5b505afa158015612c19573d6000803e3d6000fd5b505050506040513d601f19601f82011682018060405250810190612c3d9190613812565b6001600160a01b031660c088015260a087015260808601526060850152604084015260208301528152919050565b612c736132c5565b816001600160a01b0316635fd65f0f6040518163ffffffff1660e01b81526004016101006040518083038186803b158015612cad57600080fd5b505afa158015612cc1573d6000803e3d6000fd5b505050506040513d601f19601f82011682018060405250810190612ce59190613871565b6001600160a01b031660c08901525060a087015260808601526060850152604084015260208301528152919050565b6001600160a01b038116600090815260026020526040812054600480546060939260001901908110612d4257fe5b90600052602060002090600802016004018054905090508067ffffffffffffffff81118015612d7057600080fd5b50604051908082528060200260200182016040528015612d9a578160200160208202803683370190505b50915060005b818160ff161015612e62576040517f91ceb3eb0000000000000000000000000000000000000000000000000000000081526001600160a01b038516906391ceb3eb90612df09084906004016142bc565b60206040518083038186803b158015612e0857600080fd5b505afa158015612e1c573d6000803e3d6000fd5b505050506040513d601f19601f82011682018060405250810190612e4091906137fa565b838260ff1681518110612e4f57fe5b6020908102919091010152600101612da0565b5050919050565b600082612e7857506000611be2565b82820282848281612e8557fe5b0414611bdf5760405162461bcd60e51b815260040161060a90613e7c565b6000808211612ec45760405162461bcd60e51b815260040161060a90613d54565b818381612ecd57fe5b049392505050565b3390565b6000828152602081905260409020612ef19082612baf565b1561100657612efe612ed5565b6001600160a01b0316816001600160a01b0316837f2f8788117e7eff1d82e926ec794901d17c78024a50270940304540a733656f0d60405160405180910390a45050565b6000828152602081905260409020612f5a90826130a9565b1561100657612f67612ed5565b6001600160a01b0316816001600160a01b0316837ff6391f5c32d9c69d2a47ea670b442974b53935d1edc7fd64eb21e047a839171b60405160405180910390a45050565b600082821115612fcd5760405162461bcd60e51b815260040161060a90613d1d565b50900390565b6000611bdf83836130be565b6000611bdf836001600160a01b038416613103565b6000611be28261311b565b6060604482511015613045575060408051808201909152601d81527f5472616e73616374696f6e2072657665727465642073696c656e746c7900000060208201526107e5565b60048201915081806020019051810190611be2919061355b565b600061306b8383613103565b6130a157508154600181810184556000848152602080822090930184905584548482528286019093526040902091909155611be2565b506000611be2565b6000611bdf836001600160a01b03841661311f565b815460009082106130e15760405162461bcd60e51b815260040161060a90613b89565b8260000182815481106130f057fe5b9060005260206000200154905092915050565b60009081526001919091016020526040902054151590565b5490565b600081815260018301602052604081205480156131db578354600019808301919081019060009087908390811061315257fe5b906000526020600020015490508087600001848154811061316f57fe5b60009182526020808320909101929092558281526001898101909252604090209084019055865487908061319f57fe5b60019003818190600052602060002001600090559055866001016000878152602001908152602001600020600090556001945050505050611be2565b6000915050611be2565b604080516101808101825260008082526020820181905291810182905260608082018390526080820183905260a0820181905260c082015260e0810182905261010081018290526101208101829052610140810182905261016081019190915290565b8280548282559060005260206000209081019282156132b5579160200282015b828111156132b557825182547fffffffffffffffffffffffff0000000000000000000000000000000000000000166001600160a01b03909116178255602090920191600190910190613268565b506132c192915061330b565b5090565b6040518060e0016040528060008152602001600081526020016000815260200160008152602001600081526020016000815260200160006001600160a01b031681525090565b5b808211156132c15780547fffffffffffffffffffffffff000000000000000000000000000000000000000016815560010161330c565b8035611be281614393565b600082601f83011261335d578081fd5b813567ffffffffffffffff811115613373578182fd5b6020808202613383828201614334565b8381529350818401858301828701840188101561339f57600080fd5b600092505b848310156133cb5780356133b781614393565b8252600192909201919083019083016133a4565b505050505092915050565b8035611be2816143ab565b803560ff81168114611be257600080fd5b600060208284031215613403578081fd5b8135611bdf81614393565b60006020828403121561341f578081fd5b8151611bdf81614393565b6000806040838503121561343c578081fd5b823561344781614393565b9150602083013561345781614393565b809150509250929050565b600080600060408486031215613476578081fd5b833567ffffffffffffffff8082111561348d578283fd5b818601915086601f8301126134a0578283fd5b8135818111156134ae578384fd5b87602080830285010111156134c1578384fd5b602092830195509350508401356134d7816143ab565b809150509250925092565b6000602082840312156134f3578081fd5b8151611bdf816143ab565b60006020828403121561350f578081fd5b5035919050565b60008060408385031215613528578182fd5b82359150602083013561345781614393565b6000806040838503121561354c578182fd5b50508035926020909101359150565b60006020828403121561356c578081fd5b815167ffffffffffffffff80821115613583578283fd5b818401915084601f830112613596578283fd5b8151818111156135a4578384fd5b6135d560207fffffffffffffffffffffffffffffffffffffffffffffffffffffffffffffffe0601f84011601614334565b91508082528560208285010111156135eb578384fd5b6135fc816020840160208601614367565b50949350505050565b600060208284031215613616578081fd5b813567ffffffffffffffff8082111561362d578283fd5b8184019150610180808387031215613643578384fd5b61364c81614334565b90506136588684613342565b81526136678660208501613342565b602082015261367986604085016133e1565b6040820152606083013560608201526136958660808501613342565b608082015260a0830135828111156136ab578485fd5b6136b78782860161334d565b60a08301525060c0830135828111156136ce578485fd5b6136da8782860161334d565b60c0830152506136ed8660e08501613342565b60e0820152610100915061370386838501613342565b828201526101209150613718868385016133d6565b82820152610140915061372d868385016133d6565b828201526101609150613742868385016133d6565b91810191909152949350505050565b6000610100808385031215613764578182fd5b61376d81614334565b9050823561377a81614393565b815261378984602085016133e1565b60208201526040830135604082015260608301356137a681614393565b60608201526137b88460808501613342565b60808201526137ca8460a085016133d6565b60a08201526137dc8460c085016133d6565b60c08201526137ee8460e085016133d6565b60e08201529392505050565b60006020828403121561380b578081fd5b5051919050565b600080600080600080600060e0888a03121561382c578485fd5b875196506020880151955060408801519450606088015193506080880151925060a0880151915060c088015161386181614393565b8091505092959891949750929550565b600080600080600080600080610100898b03121561388d578182fd5b885197506020890151965060408901519550606089015194506080890151935060a0890151925060c0890151915060e08901516138c981614393565b809150509295985092959890939650565b6001600160a01b03169052565b6000815180845260208085019450808401835b8381101561391f5781516001600160a01b0316875295820195908201906001016138fa565b509495945050505050565b6000815480845260208085019450838352808320835b8381101561391f5781546001600160a01b031687529582019560019182019101613940565b15159052565b600061018061397b8484516138da565b602083015161398d60208601826138da565b5060408301516139a06040860182613a61565b506060830151606085015260808301516139bd60808601826138da565b5060a08301518160a08601526139d5828601826138e7565b91505060c083015184820360c08601526139ef82826138e7565b91505060e0830151613a0460e08601826138da565b5061010080840151613a18828701826138da565b505061012080840151613a2d82870182613965565b505061014080840151613a4282870182613965565b505061016080840151613a5782870182613965565b5090949350505050565b60ff169052565b6000828483379101908152919050565b6001600160a01b0391909116815260200190565b6020808252825182820181905260009190848201906040850190845b81811015613acd5783516001600160a01b031683529284019291840191600101613aa8565b50909695505050505050565b600060208252611bdf60208301846138e7565b6020808252825182820181905260009190848201906040850190845b81811015613acd57835183529284019291840191600101613b08565b901515815260200190565b90815260200190565b6000602082528251806020840152613b57816040850160208701614367565b601f017fffffffffffffffffffffffffffffffffffffffffffffffffffffffffffffffe0169190910160400192915050565b60208082526022908201527f456e756d657261626c655365743a20696e646578206f7574206f6620626f756e60408201527f6473000000000000000000000000000000000000000000000000000000000000606082015260800190565b6020808252602f908201527f416363657373436f6e74726f6c3a2073656e646572206d75737420626520616e60408201527f2061646d696e20746f206772616e740000000000000000000000000000000000606082015260800190565b6020808252601b908201527f506f6f6c206973206e6f74206f776e656420627920736164646c650000000000604082015260600190565b60208082526017908201527f50523a206261736520706f6f6c206e6f7420666f756e64000000000000000000604082015260600190565b60208082526018908201527f50523a20706f6f6c41646472657373206d69736d617463680000000000000000604082015260600190565b6020808252818101527f50523a2043616c6c6572206973206e6f7420736164646c65206d616e61676572604082015260600190565b6020808252601e908201527f536166654d6174683a207375627472616374696f6e206f766572666c6f770000604082015260600190565b6020808252601a908201527f536166654d6174683a206469766973696f6e206279207a65726f000000000000604082015260600190565b60208082526030908201527f416363657373436f6e74726f6c3a2073656e646572206d75737420626520616e60408201527f2061646d696e20746f207265766f6b6500000000000000000000000000000000606082015260800190565b6020808252602a908201527f50523a2066726f6d20616e6420746f2063616e6e6f7420626520746865207a6560408201527f726f206164647265737300000000000000000000000000000000000000000000606082015260800190565b6020808252601f908201527f50523a204f6e6c79206d616e61676572732063616e2061646420706f6f6c7300604082015260600190565b60208082526021908201527f536166654d6174683a206d756c7469706c69636174696f6e206f766572666c6f60408201527f7700000000000000000000000000000000000000000000000000000000000000606082015260800190565b60208082526017908201527f50523a20496e646578206f7574206f6620626f756e6473000000000000000000604082015260600190565b60208082526014908201527f50523a20706f6f6c416464726573732069732030000000000000000000000000604082015260600190565b6020808252601d908201527f50523a206d657461537761702061646472657373206d69736d61746368000000604082015260600190565b6020808252600e908201527f50523a20746f6b656e2069732030000000000000000000000000000000000000604082015260600190565b6020808252601a908201527f50523a204e6f206d61746368696e6720706f6f6c20666f756e64000000000000604082015260600190565b60208082526019908201527f50523a20506f6f6c20697320616c726561647920616464656400000000000000604082015260600190565b6020808252601f908201527f5265656e7472616e637947756172643a207265656e7472616e742063616c6c00604082015260600190565b60208082526012908201527f50523a20506f6f6c206e6f7420666f756e640000000000000000000000000000604082015260600190565b6020808252602f908201527f416363657373436f6e74726f6c3a2063616e206f6e6c792072656e6f756e636560408201527f20726f6c657320666f722073656c660000000000000000000000000000000000606082015260800190565b600060208252611bdf602083018461396b565b600060e082019050825182526020830151602083015260408301516040830152606083015160608301526080830151608083015260a083015160a08301526001600160a01b0360c08401511660c083015292915050565b600083825260406020830152614171604083018461396b565b949350505050565b60008382526040602083015261419b60408301614196855461435b565b6138da565b60018301546001600160a01b036141b7606085018284166138da565b6141ca6080850160ff8460a01c16613a61565b600285015460a08501526141e1600386015461435b565b91506141f060c08501836138da565b61018091508160e085015261420c6101c085016004870161392a565b7fffffffffffffffffffffffffffffffffffffffffffffffffffffffffffffffc085820301610100860152614244816005880161392a565b9050614253600687015461435b565b6142616101208701826138da565b50600786015461427761014087018483166138da565b61428b610160870160ff8360a01c16613965565b61429d84870160ff8360a81c16613965565b6142b16101a0870160ff8360b01c16613965565b509695505050505050565b60ff91909116815260200190565b60008083357fffffffffffffffffffffffffffffffffffffffffffffffffffffffffffffffe18436030181126142fe578283fd5b83018035915067ffffffffffffffff821115614318578283fd5b60200191503681900382131561432d57600080fd5b9250929050565b60405181810167ffffffffffffffff8111828210171561435357600080fd5b604052919050565b6001600160a01b031690565b60005b8381101561438257818101518382015260200161436a565b838111156120775750506000910152565b6001600160a01b03811681146143a857600080fd5b50565b80151581146143a857600080fdfea2646970667358221220a266f2059da4f79d97801839fac0cb1e0da563f8e29fe4821993975c7bd4773e64736f6c634300060c0033",
  "devdoc": {
    "events": {
      "AddCommunityPool(address,uint256,(address,address,uint8,bytes32,address,address[],address[],address,address,bool,bool,bool))": {
        "params": {
          "index": "index of the added pool in the pools list",
          "poolAddress": "address of the added pool",
          "poolData": "added pool data"
        }
      },
      "AddPool(address,uint256,(address,address,uint8,bytes32,address,address[],address[],address,address,bool,bool,bool))": {
        "params": {
          "index": "index of the added pool in the pools list",
          "poolAddress": "address of the added pool",
          "poolData": "added pool data"
        }
      },
      "RemovePool(address,uint256)": {
        "params": {
          "index": "index of the removed pool in the pools list",
          "poolAddress": "address of the removed pool"
        }
      },
      "UpdatePool(address,uint256,(address,address,uint8,bytes32,address,address[],address[],address,address,bool,bool,bool))": {
        "params": {
          "index": "index of the updated pool in the pools list",
          "poolAddress": "address of the updated pool",
          "poolData": "updated pool data"
        }
      }
    },
    "kind": "dev",
    "methods": {
      "addCommunityPool((address,address,uint8,bytes32,address,address[],address[],address,address,bool,bool,bool))": {
        "details": "Before adding a meta pool, the user must first add the underlying base pool. Only Swap and MetaSwap contracts need to be added.",
        "params": {
          "data": "PoolInputData struct for the new pool"
        }
      },
      "addPool((address,uint8,bytes32,address,address,bool,bool,bool))": {
        "details": "Before adding a meta pool, the user must first add the underlying base pool. Only Swap and MetaSwap contracts need to be added.",
        "params": {
          "inputData": "PoolInputData struct for the new pool"
        }
      },
      "approvePool(address)": {
        "details": "since array entries are difficult to remove, we modify the entry to mark it as a Saddle owned pool.",
        "params": {
          "poolAddress": "address of the community pool"
        }
      },
      "batch(bytes[],bool)": {
        "params": {
          "calls": "An array of inputs for each call.",
          "revertOnFail": "If True then reverts after a failed call and stops doing further calls."
        }
      },
      "constructor": {
        "details": "caller of this function will be set as the owner on deployment",
        "params": {
          "admin": "address who should have the DEFAULT_ADMIN_ROLE"
        }
      },
      "getA(address)": {
        "params": {
          "poolAddress": "address of the pool to read"
        }
      },
      "getEligiblePools(address,address)": {
        "params": {
          "from": "address of the token to swap from",
          "to": "address of the token to swap to"
        },
        "returns": {
          "eligiblePools": "array of pool addresses that can swap between from and to"
        }
      },
      "getPaused(address)": {
        "params": {
          "poolAddress": "address of the pool to read"
        }
      },
      "getPoolData(address)": {
        "params": {
          "poolAddress": "address of the pool to read"
        }
      },
      "getPoolDataAtIndex(uint256)": {
        "params": {
          "index": "index of the pool to read"
        }
      },
      "getPoolDataByName(bytes32)": {
        "params": {
          "poolName": "name of the pool to read"
        }
      },
      "getRoleAdmin(bytes32)": {
        "details": "Returns the admin role that controls `role`. See {grantRole} and {revokeRole}. To change a role's admin, use {_setRoleAdmin}."
      },
      "getRoleMember(bytes32,uint256)": {
        "details": "Returns one of the accounts that have `role`. `index` must be a value between 0 and {getRoleMemberCount}, non-inclusive. Role bearers are not sorted in any particular way, and their ordering may change at any point. WARNING: When using {getRoleMember} and {getRoleMemberCount}, make sure you perform all queries on the same block. See the following https://forum.openzeppelin.com/t/iterating-over-elements-on-enumerableset-in-openzeppelin-contracts/2296[forum post] for more information."
      },
      "getRoleMemberCount(bytes32)": {
        "details": "Returns the number of accounts that have `role`. Can be used together with {getRoleMember} to enumerate all bearers of a role."
      },
      "getSwapStorage(address)": {
        "params": {
          "poolAddress": "address of the pool to read"
        }
      },
      "getTokenBalances(address)": {
        "params": {
          "poolAddress": "address of the pool to look up the token balances for"
        },
        "returns": {
          "balances": "array of token balances"
        }
      },
      "getTokens(address)": {
        "params": {
          "poolAddress": "address of the pool to read"
        }
      },
      "getUnderlyingTokenBalances(address)": {
        "params": {
          "poolAddress": "address of the pool to look up the token balances for"
        },
        "returns": {
          "balances": "array of token balances"
        }
      },
      "getUnderlyingTokens(address)": {
        "params": {
          "poolAddress": "address of the pool to read"
        }
      },
      "getVirtualPrice(address)": {
        "params": {
          "poolAddress": "address of the pool to read"
        }
      },
      "grantRole(bytes32,address)": {
        "details": "Grants `role` to `account`. If `account` had not been already granted `role`, emits a {RoleGranted} event. Requirements: - the caller must have ``role``'s admin role."
      },
      "hasRole(bytes32,address)": {
        "details": "Returns `true` if `account` has been granted `role`."
      },
      "removePool(address)": {
        "details": "Since arrays are not easily reducable, the entry will be marked as removed.",
        "params": {
          "poolAddress": "address of the pool to remove"
        }
      },
      "renounceRole(bytes32,address)": {
        "details": "Revokes `role` from the calling account. Roles are often managed via {grantRole} and {revokeRole}: this function's purpose is to provide a mechanism for accounts to lose their privileges if they are compromised (such as when a trusted device is misplaced). If the calling account had been granted `role`, emits a {RoleRevoked} event. Requirements: - the caller must be `account`."
      },
      "revokeRole(bytes32,address)": {
        "details": "Revokes `role` from `account`. If `account` had been granted `role`, emits a {RoleRevoked} event. Requirements: - the caller must have ``role``'s admin role."
      },
      "updatePool((address,address,uint8,bytes32,address,address[],address[],address,address,bool,bool,bool))": {
        "params": {
          "poolData": "new PoolData struct to store"
        }
      }
    },
    "stateVariables": {
      "poolsIndexOfNamePlusOne": {
        "params": {
          "poolName": "pool name in bytes32 format to look for"
        }
      },
      "poolsIndexOfPlusOne": {
        "params": {
          "poolAddress": "address to look for"
        }
      }
    },
    "title": "PoolRegistry",
    "version": 1
  },
  "userdoc": {
    "events": {
      "AddCommunityPool(address,uint256,(address,address,uint8,bytes32,address,address[],address[],address,address,bool,bool,bool))": {
        "notice": "Add a new registry entry to the master list."
      },
      "AddPool(address,uint256,(address,address,uint8,bytes32,address,address[],address[],address,address,bool,bool,bool))": {
        "notice": "Add a new registry entry to the master list."
      },
      "RemovePool(address,uint256)": {
        "notice": "Add a new registry entry to the master list."
      },
      "UpdatePool(address,uint256,(address,address,uint8,bytes32,address,address[],address[],address,address,bool,bool,bool))": {
        "notice": "Add a new registry entry to the master list."
      }
    },
    "kind": "user",
    "methods": {
      "COMMUNITY_MANAGER_ROLE()": {
        "notice": "Role responsible for managing community pools"
      },
      "SADDLE_APPROVED_POOL_OWNER_ROLE()": {
        "notice": "Role that represents approved owners of pools. owner of each pool must have this role if the pool is to be approved."
      },
      "SADDLE_MANAGER_ROLE()": {
        "notice": "Role responsible for managing pools."
      },
      "addCommunityPool((address,address,uint8,bytes32,address,address[],address[],address,address,bool,bool,bool))": {
        "notice": "Add a new pool to the registry"
      },
      "addPool((address,uint8,bytes32,address,address,bool,bool,bool))": {
        "notice": "Add a new pool to the registry"
      },
      "approvePool(address)": {
        "notice": "Approve community deployed pools to be upgraded as Saddle owned"
      },
      "batch(bytes[],bool)": {
        "notice": "Allows batched call to self (this contract)."
      },
      "constructor": "Deploy this contract and set appropriate roles",
      "getA(address)": {
        "notice": "Returns A of the given pool address"
      },
      "getEligiblePools(address,address)": {
        "notice": "Returns an array of pool addresses that can swap between from and to"
      },
      "getPaused(address)": {
        "notice": "Returns the paused status of the given pool address"
      },
      "getPoolData(address)": {
        "notice": "Returns PoolData for given pool address"
      },
      "getPoolDataAtIndex(uint256)": {
        "notice": "Returns PoolData at given index"
      },
      "getPoolDataByName(bytes32)": {
        "notice": "Returns PoolData with given name"
      },
      "getPoolsLength()": {
        "notice": "Returns number of entries in the registry. Includes removed pools in the list as well."
      },
      "getSwapStorage(address)": {
        "notice": "Returns the SwapStorage struct of the given pool address"
      },
      "getTokenBalances(address)": {
        "notice": "Returns an array of balances of the tokens"
      },
      "getTokens(address)": {
        "notice": "Returns the tokens of the given pool address"
      },
      "getUnderlyingTokenBalances(address)": {
        "notice": "Returns an array of balances of the tokens"
      },
      "getUnderlyingTokens(address)": {
        "notice": "Returns the underlying tokens of the given pool address. Base pools will return an empty array."
      },
      "getVirtualPrice(address)": {
        "notice": "Returns virtual price of the given pool address"
      },
      "poolsIndexOfNamePlusOne(bytes32)": {
        "notice": "Returns the index + 1 of the pool name in the registry"
      },
      "poolsIndexOfPlusOne(address)": {
        "notice": "Returns the index + 1 of the pool address in the registry"
      },
      "removePool(address)": {
        "notice": "Remove pool from the registry"
      },
      "updatePool((address,address,uint8,bytes32,address,address[],address[],address,address,bool,bool,bool))": {
        "notice": "Overwrite existing entry with new PoolData"
      }
    },
    "notice": "This contract holds list of pools deployed.",
    "version": 1
  },
  "storageLayout": {
    "storage": [
      {
        "astId": 1726,
        "contract": "contracts/registries/PoolRegistry.sol:PoolRegistry",
        "label": "_roles",
        "offset": 0,
        "slot": "0",
        "type": "t_mapping(t_bytes32,t_struct(RoleData)1722_storage)"
      },
      {
        "astId": 6134,
        "contract": "contracts/registries/PoolRegistry.sol:PoolRegistry",
        "label": "_status",
        "offset": 0,
        "slot": "1",
        "type": "t_uint256"
      },
      {
        "astId": 33760,
        "contract": "contracts/registries/PoolRegistry.sol:PoolRegistry",
        "label": "poolsIndexOfPlusOne",
        "offset": 0,
        "slot": "2",
        "type": "t_mapping(t_address,t_uint256)"
      },
      {
        "astId": 33766,
        "contract": "contracts/registries/PoolRegistry.sol:PoolRegistry",
        "label": "poolsIndexOfNamePlusOne",
        "offset": 0,
        "slot": "3",
        "type": "t_mapping(t_bytes32,t_uint256)"
      },
      {
        "astId": 33769,
        "contract": "contracts/registries/PoolRegistry.sol:PoolRegistry",
        "label": "pools",
        "offset": 0,
        "slot": "4",
        "type": "t_array(t_struct(PoolData)24899_storage)dyn_storage"
      },
      {
        "astId": 33774,
        "contract": "contracts/registries/PoolRegistry.sol:PoolRegistry",
        "label": "eligiblePairsMap",
        "offset": 0,
        "slot": "5",
        "type": "t_mapping(t_uint256,t_array(t_address)dyn_storage)"
      }
    ],
    "types": {
      "t_address": {
        "encoding": "inplace",
        "label": "address",
        "numberOfBytes": "20"
      },
      "t_array(t_address)dyn_storage": {
        "base": "t_address",
        "encoding": "dynamic_array",
        "label": "address[]",
        "numberOfBytes": "32"
      },
      "t_array(t_bytes32)dyn_storage": {
        "base": "t_bytes32",
        "encoding": "dynamic_array",
        "label": "bytes32[]",
        "numberOfBytes": "32"
      },
      "t_array(t_contract(IERC20)3311)dyn_storage": {
        "base": "t_contract(IERC20)3311",
        "encoding": "dynamic_array",
        "label": "contract IERC20[]",
        "numberOfBytes": "32"
      },
      "t_array(t_struct(PoolData)24899_storage)dyn_storage": {
        "base": "t_struct(PoolData)24899_storage",
        "encoding": "dynamic_array",
        "label": "struct IPoolRegistry.PoolData[]",
        "numberOfBytes": "32"
      },
      "t_bool": {
        "encoding": "inplace",
        "label": "bool",
        "numberOfBytes": "1"
      },
      "t_bytes32": {
        "encoding": "inplace",
        "label": "bytes32",
        "numberOfBytes": "32"
      },
      "t_contract(IERC20)3311": {
        "encoding": "inplace",
        "label": "contract IERC20",
        "numberOfBytes": "20"
      },
      "t_mapping(t_address,t_uint256)": {
        "encoding": "mapping",
        "key": "t_address",
        "label": "mapping(address => uint256)",
        "numberOfBytes": "32",
        "value": "t_uint256"
      },
      "t_mapping(t_bytes32,t_struct(RoleData)1722_storage)": {
        "encoding": "mapping",
        "key": "t_bytes32",
        "label": "mapping(bytes32 => struct AccessControl.RoleData)",
        "numberOfBytes": "32",
        "value": "t_struct(RoleData)1722_storage"
      },
      "t_mapping(t_bytes32,t_uint256)": {
        "encoding": "mapping",
        "key": "t_bytes32",
        "label": "mapping(bytes32 => uint256)",
        "numberOfBytes": "32",
        "value": "t_uint256"
      },
      "t_mapping(t_uint256,t_array(t_address)dyn_storage)": {
        "encoding": "mapping",
        "key": "t_uint256",
        "label": "mapping(uint256 => address[])",
        "numberOfBytes": "32",
        "value": "t_array(t_address)dyn_storage"
      },
      "t_struct(AddressSet)5815_storage": {
        "encoding": "inplace",
        "label": "struct EnumerableSet.AddressSet",
        "members": [
          {
            "astId": 5814,
            "contract": "contracts/registries/PoolRegistry.sol:PoolRegistry",
            "label": "_inner",
            "offset": 0,
            "slot": "0",
            "type": "t_struct(Set)5550_storage"
          }
        ],
        "numberOfBytes": "64"
      },
      "t_struct(PoolData)24899_storage": {
        "encoding": "inplace",
        "label": "struct IPoolRegistry.PoolData",
        "members": [
          {
            "astId": 24874,
            "contract": "contracts/registries/PoolRegistry.sol:PoolRegistry",
            "label": "poolAddress",
            "offset": 0,
            "slot": "0",
            "type": "t_address"
          },
          {
            "astId": 24876,
            "contract": "contracts/registries/PoolRegistry.sol:PoolRegistry",
            "label": "lpToken",
            "offset": 0,
            "slot": "1",
            "type": "t_address"
          },
          {
            "astId": 24878,
            "contract": "contracts/registries/PoolRegistry.sol:PoolRegistry",
            "label": "typeOfAsset",
            "offset": 20,
            "slot": "1",
            "type": "t_uint8"
          },
          {
            "astId": 24880,
            "contract": "contracts/registries/PoolRegistry.sol:PoolRegistry",
            "label": "poolName",
            "offset": 0,
            "slot": "2",
            "type": "t_bytes32"
          },
          {
            "astId": 24882,
            "contract": "contracts/registries/PoolRegistry.sol:PoolRegistry",
            "label": "targetAddress",
            "offset": 0,
            "slot": "3",
            "type": "t_address"
          },
          {
            "astId": 24885,
            "contract": "contracts/registries/PoolRegistry.sol:PoolRegistry",
            "label": "tokens",
            "offset": 0,
            "slot": "4",
            "type": "t_array(t_contract(IERC20)3311)dyn_storage"
          },
          {
            "astId": 24888,
            "contract": "contracts/registries/PoolRegistry.sol:PoolRegistry",
            "label": "underlyingTokens",
            "offset": 0,
            "slot": "5",
            "type": "t_array(t_contract(IERC20)3311)dyn_storage"
          },
          {
            "astId": 24890,
            "contract": "contracts/registries/PoolRegistry.sol:PoolRegistry",
            "label": "basePoolAddress",
            "offset": 0,
            "slot": "6",
            "type": "t_address"
          },
          {
            "astId": 24892,
            "contract": "contracts/registries/PoolRegistry.sol:PoolRegistry",
            "label": "metaSwapDepositAddress",
            "offset": 0,
            "slot": "7",
            "type": "t_address"
          },
          {
            "astId": 24894,
            "contract": "contracts/registries/PoolRegistry.sol:PoolRegistry",
            "label": "isSaddleApproved",
            "offset": 20,
            "slot": "7",
            "type": "t_bool"
          },
          {
            "astId": 24896,
            "contract": "contracts/registries/PoolRegistry.sol:PoolRegistry",
            "label": "isRemoved",
            "offset": 21,
            "slot": "7",
            "type": "t_bool"
          },
          {
            "astId": 24898,
            "contract": "contracts/registries/PoolRegistry.sol:PoolRegistry",
            "label": "isGuarded",
            "offset": 22,
            "slot": "7",
            "type": "t_bool"
          }
        ],
        "numberOfBytes": "256"
      },
      "t_struct(RoleData)1722_storage": {
        "encoding": "inplace",
        "label": "struct AccessControl.RoleData",
        "members": [
          {
            "astId": 1719,
            "contract": "contracts/registries/PoolRegistry.sol:PoolRegistry",
            "label": "members",
            "offset": 0,
            "slot": "0",
            "type": "t_struct(AddressSet)5815_storage"
          },
          {
            "astId": 1721,
            "contract": "contracts/registries/PoolRegistry.sol:PoolRegistry",
            "label": "adminRole",
            "offset": 0,
            "slot": "2",
            "type": "t_bytes32"
          }
        ],
        "numberOfBytes": "96"
      },
      "t_struct(Set)5550_storage": {
        "encoding": "inplace",
        "label": "struct EnumerableSet.Set",
        "members": [
          {
            "astId": 5545,
            "contract": "contracts/registries/PoolRegistry.sol:PoolRegistry",
            "label": "_values",
            "offset": 0,
            "slot": "0",
            "type": "t_array(t_bytes32)dyn_storage"
          },
          {
            "astId": 5549,
            "contract": "contracts/registries/PoolRegistry.sol:PoolRegistry",
            "label": "_indexes",
            "offset": 0,
            "slot": "1",
            "type": "t_mapping(t_bytes32,t_uint256)"
          }
        ],
        "numberOfBytes": "64"
      },
      "t_uint256": {
        "encoding": "inplace",
        "label": "uint256",
        "numberOfBytes": "32"
      },
      "t_uint8": {
        "encoding": "inplace",
        "label": "uint8",
        "numberOfBytes": "1"
      }
    }
  }
}