{
  "address": "0x9DC37020f261758871104f9D8b87e575Ee45Bc5a",
  "abi": [
    {
      "anonymous": false,
      "inputs": [
        {
          "indexed": true,
          "internalType": "address",
          "name": "provider",
          "type": "address"
        },
        {
          "indexed": false,
          "internalType": "uint256[]",
          "name": "tokenAmounts",
          "type": "uint256[]"
        },
        {
          "indexed": false,
          "internalType": "uint256[]",
          "name": "fees",
          "type": "uint256[]"
        },
        {
          "indexed": false,
          "internalType": "uint256",
          "name": "invariant",
          "type": "uint256"
        },
        {
          "indexed": false,
          "internalType": "uint256",
          "name": "lpTokenSupply",
          "type": "uint256"
        }
      ],
      "name": "AddLiquidity",
      "type": "event"
    },
    {
      "anonymous": false,
      "inputs": [
        {
          "indexed": true,
          "internalType": "address",
          "name": "receiver",
          "type": "address"
        },
        {
          "indexed": false,
          "internalType": "uint8",
          "name": "tokenIndex",
          "type": "uint8"
        },
        {
          "indexed": false,
          "internalType": "uint256",
          "name": "amount",
          "type": "uint256"
        },
        {
          "indexed": false,
          "internalType": "uint256",
          "name": "amountFee",
          "type": "uint256"
        },
        {
          "indexed": false,
          "internalType": "uint256",
          "name": "protocolFee",
          "type": "uint256"
        }
      ],
      "name": "FlashLoan",
      "type": "event"
    },
    {
      "anonymous": false,
      "inputs": [
        {
          "indexed": false,
          "internalType": "uint256",
          "name": "newAdminFee",
          "type": "uint256"
        }
      ],
      "name": "NewAdminFee",
      "type": "event"
    },
    {
      "anonymous": false,
      "inputs": [
        {
          "indexed": false,
          "internalType": "uint256",
          "name": "newSwapFee",
          "type": "uint256"
        }
      ],
      "name": "NewSwapFee",
      "type": "event"
    },
    {
      "anonymous": false,
      "inputs": [
        {
          "indexed": false,
          "internalType": "uint256",
          "name": "newWithdrawFee",
          "type": "uint256"
        }
      ],
      "name": "NewWithdrawFee",
      "type": "event"
    },
    {
      "anonymous": false,
      "inputs": [
        {
          "indexed": true,
          "internalType": "address",
          "name": "previousOwner",
          "type": "address"
        },
        {
          "indexed": true,
          "internalType": "address",
          "name": "newOwner",
          "type": "address"
        }
      ],
      "name": "OwnershipTransferred",
      "type": "event"
    },
    {
      "anonymous": false,
      "inputs": [
        {
          "indexed": false,
          "internalType": "address",
          "name": "account",
          "type": "address"
        }
      ],
      "name": "Paused",
      "type": "event"
    },
    {
      "anonymous": false,
      "inputs": [
        {
          "indexed": false,
          "internalType": "uint256",
          "name": "oldA",
          "type": "uint256"
        },
        {
          "indexed": false,
          "internalType": "uint256",
          "name": "newA",
          "type": "uint256"
        },
        {
          "indexed": false,
          "internalType": "uint256",
          "name": "initialTime",
          "type": "uint256"
        },
        {
          "indexed": false,
          "internalType": "uint256",
          "name": "futureTime",
          "type": "uint256"
        }
      ],
      "name": "RampA",
      "type": "event"
    },
    {
      "anonymous": false,
      "inputs": [
        {
          "indexed": true,
          "internalType": "address",
          "name": "provider",
          "type": "address"
        },
        {
          "indexed": false,
          "internalType": "uint256[]",
          "name": "tokenAmounts",
          "type": "uint256[]"
        },
        {
          "indexed": false,
          "internalType": "uint256",
          "name": "lpTokenSupply",
          "type": "uint256"
        }
      ],
      "name": "RemoveLiquidity",
      "type": "event"
    },
    {
      "anonymous": false,
      "inputs": [
        {
          "indexed": true,
          "internalType": "address",
          "name": "provider",
          "type": "address"
        },
        {
          "indexed": false,
          "internalType": "uint256[]",
          "name": "tokenAmounts",
          "type": "uint256[]"
        },
        {
          "indexed": false,
          "internalType": "uint256[]",
          "name": "fees",
          "type": "uint256[]"
        },
        {
          "indexed": false,
          "internalType": "uint256",
          "name": "invariant",
          "type": "uint256"
        },
        {
          "indexed": false,
          "internalType": "uint256",
          "name": "lpTokenSupply",
          "type": "uint256"
        }
      ],
      "name": "RemoveLiquidityImbalance",
      "type": "event"
    },
    {
      "anonymous": false,
      "inputs": [
        {
          "indexed": true,
          "internalType": "address",
          "name": "provider",
          "type": "address"
        },
        {
          "indexed": false,
          "internalType": "uint256",
          "name": "lpTokenAmount",
          "type": "uint256"
        },
        {
          "indexed": false,
          "internalType": "uint256",
          "name": "lpTokenSupply",
          "type": "uint256"
        },
        {
          "indexed": false,
          "internalType": "uint256",
          "name": "boughtId",
          "type": "uint256"
        },
        {
          "indexed": false,
          "internalType": "uint256",
          "name": "tokensBought",
          "type": "uint256"
        }
      ],
      "name": "RemoveLiquidityOne",
      "type": "event"
    },
    {
      "anonymous": false,
      "inputs": [
        {
          "indexed": false,
          "internalType": "uint256",
          "name": "currentA",
          "type": "uint256"
        },
        {
          "indexed": false,
          "internalType": "uint256",
          "name": "time",
          "type": "uint256"
        }
      ],
      "name": "StopRampA",
      "type": "event"
    },
    {
      "anonymous": false,
      "inputs": [
        {
          "indexed": true,
          "internalType": "address",
          "name": "buyer",
          "type": "address"
        },
        {
          "indexed": false,
          "internalType": "uint256",
          "name": "tokensSold",
          "type": "uint256"
        },
        {
          "indexed": false,
          "internalType": "uint256",
          "name": "tokensBought",
          "type": "uint256"
        },
        {
          "indexed": false,
          "internalType": "uint128",
          "name": "soldId",
          "type": "uint128"
        },
        {
          "indexed": false,
          "internalType": "uint128",
          "name": "boughtId",
          "type": "uint128"
        }
      ],
      "name": "TokenSwap",
      "type": "event"
    },
    {
      "anonymous": false,
      "inputs": [
        {
          "indexed": false,
          "internalType": "address",
          "name": "account",
          "type": "address"
        }
      ],
      "name": "Unpaused",
      "type": "event"
    },
    {
      "inputs": [],
      "name": "MAX_BPS",
      "outputs": [
        {
          "internalType": "uint256",
          "name": "",
          "type": "uint256"
        }
      ],
      "stateMutability": "view",
      "type": "function"
    },
    {
      "inputs": [
        {
          "internalType": "uint256[]",
          "name": "amounts",
          "type": "uint256[]"
        },
        {
          "internalType": "uint256",
          "name": "minToMint",
          "type": "uint256"
        },
        {
          "internalType": "uint256",
          "name": "deadline",
          "type": "uint256"
        }
      ],
      "name": "addLiquidity",
      "outputs": [
        {
          "internalType": "uint256",
          "name": "",
          "type": "uint256"
        }
      ],
      "stateMutability": "payable",
      "type": "function"
    },
    {
      "inputs": [
        {
          "internalType": "uint256",
          "name": "amount",
          "type": "uint256"
        }
      ],
      "name": "calculateRemoveLiquidity",
      "outputs": [
        {
          "internalType": "uint256[]",
          "name": "",
          "type": "uint256[]"
        }
      ],
      "stateMutability": "view",
      "type": "function"
    },
    {
      "inputs": [
        {
          "internalType": "uint256",
          "name": "tokenAmount",
          "type": "uint256"
        },
        {
          "internalType": "uint8",
          "name": "tokenIndex",
          "type": "uint8"
        }
      ],
      "name": "calculateRemoveLiquidityOneToken",
      "outputs": [
        {
          "internalType": "uint256",
          "name": "availableTokenAmount",
          "type": "uint256"
        }
      ],
      "stateMutability": "view",
      "type": "function"
    },
    {
      "inputs": [
        {
          "internalType": "uint8",
          "name": "tokenIndexFrom",
          "type": "uint8"
        },
        {
          "internalType": "uint8",
          "name": "tokenIndexTo",
          "type": "uint8"
        },
        {
          "internalType": "uint256",
          "name": "dx",
          "type": "uint256"
        }
      ],
      "name": "calculateSwap",
      "outputs": [
        {
          "internalType": "uint256",
          "name": "",
          "type": "uint256"
        }
      ],
      "stateMutability": "view",
      "type": "function"
    },
    {
      "inputs": [
        {
          "internalType": "uint256[]",
          "name": "amounts",
          "type": "uint256[]"
        },
        {
          "internalType": "bool",
          "name": "deposit",
          "type": "bool"
        }
      ],
      "name": "calculateTokenAmount",
      "outputs": [
        {
          "internalType": "uint256",
          "name": "",
          "type": "uint256"
        }
      ],
      "stateMutability": "view",
      "type": "function"
    },
    {
      "inputs": [
        {
          "internalType": "address",
          "name": "receiver",
          "type": "address"
        },
        {
          "internalType": "contract IERC20",
          "name": "token",
          "type": "address"
        },
        {
          "internalType": "uint256",
          "name": "amount",
          "type": "uint256"
        },
        {
          "internalType": "bytes",
          "name": "params",
          "type": "bytes"
        }
      ],
      "name": "flashLoan",
      "outputs": [],
      "stateMutability": "payable",
      "type": "function"
    },
    {
      "inputs": [],
      "name": "flashLoanFeeBPS",
      "outputs": [
        {
          "internalType": "uint256",
          "name": "",
          "type": "uint256"
        }
      ],
      "stateMutability": "view",
      "type": "function"
    },
    {
      "inputs": [],
      "name": "getA",
      "outputs": [
        {
          "internalType": "uint256",
          "name": "",
          "type": "uint256"
        }
      ],
      "stateMutability": "view",
      "type": "function"
    },
    {
      "inputs": [],
      "name": "getAPrecise",
      "outputs": [
        {
          "internalType": "uint256",
          "name": "",
          "type": "uint256"
        }
      ],
      "stateMutability": "view",
      "type": "function"
    },
    {
      "inputs": [
        {
          "internalType": "uint256",
          "name": "index",
          "type": "uint256"
        }
      ],
      "name": "getAdminBalance",
      "outputs": [
        {
          "internalType": "uint256",
          "name": "",
          "type": "uint256"
        }
      ],
      "stateMutability": "view",
      "type": "function"
    },
    {
      "inputs": [
        {
          "internalType": "uint8",
          "name": "index",
          "type": "uint8"
        }
      ],
      "name": "getToken",
      "outputs": [
        {
          "internalType": "contract IERC20",
          "name": "",
          "type": "address"
        }
      ],
      "stateMutability": "view",
      "type": "function"
    },
    {
      "inputs": [
        {
          "internalType": "uint8",
          "name": "index",
          "type": "uint8"
        }
      ],
      "name": "getTokenBalance",
      "outputs": [
        {
          "internalType": "uint256",
          "name": "",
          "type": "uint256"
        }
      ],
      "stateMutability": "view",
      "type": "function"
    },
    {
      "inputs": [
        {
          "internalType": "address",
          "name": "tokenAddress",
          "type": "address"
        }
      ],
      "name": "getTokenIndex",
      "outputs": [
        {
          "internalType": "uint8",
          "name": "",
          "type": "uint8"
        }
      ],
      "stateMutability": "view",
      "type": "function"
    },
    {
      "inputs": [],
      "name": "getVirtualPrice",
      "outputs": [
        {
          "internalType": "uint256",
          "name": "",
          "type": "uint256"
        }
      ],
      "stateMutability": "view",
      "type": "function"
    },
    {
      "inputs": [
        {
          "internalType": "contract IERC20[]",
          "name": "_pooledTokens",
          "type": "address[]"
        },
        {
          "internalType": "uint8[]",
          "name": "decimals",
          "type": "uint8[]"
        },
        {
          "internalType": "string",
          "name": "lpTokenName",
          "type": "string"
        },
        {
          "internalType": "string",
          "name": "lpTokenSymbol",
          "type": "string"
        },
        {
          "internalType": "uint256",
          "name": "_a",
          "type": "uint256"
        },
        {
          "internalType": "uint256",
          "name": "_fee",
          "type": "uint256"
        },
        {
          "internalType": "uint256",
          "name": "_adminFee",
          "type": "uint256"
        },
        {
          "internalType": "address",
          "name": "lpTokenTargetAddress",
          "type": "address"
        }
      ],
      "name": "initialize",
      "outputs": [],
      "stateMutability": "payable",
      "type": "function"
    },
    {
      "inputs": [],
      "name": "owner",
      "outputs": [
        {
          "internalType": "address",
          "name": "",
          "type": "address"
        }
      ],
      "stateMutability": "view",
      "type": "function"
    },
    {
      "inputs": [],
      "name": "pause",
      "outputs": [],
      "stateMutability": "nonpayable",
      "type": "function"
    },
    {
      "inputs": [],
      "name": "paused",
      "outputs": [
        {
          "internalType": "bool",
          "name": "",
          "type": "bool"
        }
      ],
      "stateMutability": "view",
      "type": "function"
    },
    {
      "inputs": [],
      "name": "protocolFeeShareBPS",
      "outputs": [
        {
          "internalType": "uint256",
          "name": "",
          "type": "uint256"
        }
      ],
      "stateMutability": "view",
      "type": "function"
    },
    {
      "inputs": [
        {
          "internalType": "uint256",
          "name": "futureA",
          "type": "uint256"
        },
        {
          "internalType": "uint256",
          "name": "futureTime",
          "type": "uint256"
        }
      ],
      "name": "rampA",
      "outputs": [],
      "stateMutability": "payable",
      "type": "function"
    },
    {
      "inputs": [
        {
          "internalType": "uint256",
          "name": "amount",
          "type": "uint256"
        },
        {
          "internalType": "uint256[]",
          "name": "minAmounts",
          "type": "uint256[]"
        },
        {
          "internalType": "uint256",
          "name": "deadline",
          "type": "uint256"
        }
      ],
      "name": "removeLiquidity",
      "outputs": [
        {
          "internalType": "uint256[]",
          "name": "",
          "type": "uint256[]"
        }
      ],
      "stateMutability": "payable",
      "type": "function"
    },
    {
      "inputs": [
        {
          "internalType": "uint256[]",
          "name": "amounts",
          "type": "uint256[]"
        },
        {
          "internalType": "uint256",
          "name": "maxBurnAmount",
          "type": "uint256"
        },
        {
          "internalType": "uint256",
          "name": "deadline",
          "type": "uint256"
        }
      ],
      "name": "removeLiquidityImbalance",
      "outputs": [
        {
          "internalType": "uint256",
          "name": "",
          "type": "uint256"
        }
      ],
      "stateMutability": "payable",
      "type": "function"
    },
    {
      "inputs": [
        {
          "internalType": "uint256",
          "name": "tokenAmount",
          "type": "uint256"
        },
        {
          "internalType": "uint8",
          "name": "tokenIndex",
          "type": "uint8"
        },
        {
          "internalType": "uint256",
          "name": "minAmount",
          "type": "uint256"
        },
        {
          "internalType": "uint256",
          "name": "deadline",
          "type": "uint256"
        }
      ],
      "name": "removeLiquidityOneToken",
      "outputs": [
        {
          "internalType": "uint256",
          "name": "",
          "type": "uint256"
        }
      ],
      "stateMutability": "payable",
      "type": "function"
    },
    {
      "inputs": [],
      "name": "renounceOwnership",
      "outputs": [],
      "stateMutability": "nonpayable",
      "type": "function"
    },
    {
      "inputs": [
        {
          "internalType": "uint256",
          "name": "newAdminFee",
          "type": "uint256"
        }
      ],
      "name": "setAdminFee",
      "outputs": [],
      "stateMutability": "payable",
      "type": "function"
    },
    {
      "inputs": [
        {
          "internalType": "uint256",
          "name": "newFlashLoanFeeBPS",
          "type": "uint256"
        },
        {
          "internalType": "uint256",
          "name": "newProtocolFeeShareBPS",
          "type": "uint256"
        }
      ],
      "name": "setFlashLoanFees",
      "outputs": [],
      "stateMutability": "payable",
      "type": "function"
    },
    {
      "inputs": [
        {
          "internalType": "uint256",
          "name": "newSwapFee",
          "type": "uint256"
        }
      ],
      "name": "setSwapFee",
      "outputs": [],
      "stateMutability": "payable",
      "type": "function"
    },
    {
      "inputs": [],
      "name": "stopRampA",
      "outputs": [],
      "stateMutability": "payable",
      "type": "function"
    },
    {
      "inputs": [
        {
          "internalType": "uint8",
          "name": "tokenIndexFrom",
          "type": "uint8"
        },
        {
          "internalType": "uint8",
          "name": "tokenIndexTo",
          "type": "uint8"
        },
        {
          "internalType": "uint256",
          "name": "dx",
          "type": "uint256"
        },
        {
          "internalType": "uint256",
          "name": "minDy",
          "type": "uint256"
        },
        {
          "internalType": "uint256",
          "name": "deadline",
          "type": "uint256"
        }
      ],
      "name": "swap",
      "outputs": [
        {
          "internalType": "uint256",
          "name": "",
          "type": "uint256"
        }
      ],
      "stateMutability": "payable",
      "type": "function"
    },
    {
      "inputs": [],
      "name": "swapStorage",
      "outputs": [
        {
          "internalType": "uint256",
          "name": "initialA",
          "type": "uint256"
        },
        {
          "internalType": "uint256",
          "name": "futureA",
          "type": "uint256"
        },
        {
          "internalType": "uint256",
          "name": "initialATime",
          "type": "uint256"
        },
        {
          "internalType": "uint256",
          "name": "futureATime",
          "type": "uint256"
        },
        {
          "internalType": "uint256",
          "name": "swapFee",
          "type": "uint256"
        },
        {
          "internalType": "uint256",
          "name": "adminFee",
          "type": "uint256"
        },
        {
          "internalType": "contract LPToken",
          "name": "lpToken",
          "type": "address"
        }
      ],
      "stateMutability": "view",
      "type": "function"
    },
    {
      "inputs": [
        {
          "internalType": "address",
          "name": "newOwner",
          "type": "address"
        }
      ],
      "name": "transferOwnership",
      "outputs": [],
      "stateMutability": "nonpayable",
      "type": "function"
    },
    {
      "inputs": [],
      "name": "unpause",
      "outputs": [],
      "stateMutability": "nonpayable",
      "type": "function"
    },
    {
      "inputs": [],
      "name": "withdrawAdminFees",
      "outputs": [],
      "stateMutability": "payable",
      "type": "function"
    }
  ],
  "transactionHash": "0x852ad647fed4cb4e8cc8eea078fee03b213c0c4e834529cbda0ec3acaa874185",
  "args": [],
  "numDeployments": 1,
  "solcInputHash": "bc3a64a5cffb1e8de0dbf9fb306e4f9f",
  "bytecode": "0x608060405234801561001057600080fd5b50613ed7806100206000396000f3fe6080604052600436106102195760003560e01c806384cdd9bc1161011d578063d46300fd116100b0578063ef0a712f1161007f578063f2fad2b611610064578063f2fad2b614610b0d578063f2fde38b14610b37578063fd967f4714610b6a57610219565b8063ef0a712f14610ac0578063ef81596714610aea57610219565b8063d46300fd14610a02578063e25aa5fa14610a17578063e6ab280614610a2c578063e8cc7fb614610aab57610219565b806391ceb3eb116100ec57806391ceb3eb14610740578063a95b089f1461076d578063b28cb6dc146107aa578063c4db7fa0146109fa57610219565b806384cdd9bc1461065c5780638beb60b6146106d25780638da5cb5b146106ef578063916955861461070457610219565b8063593d132c116101b057806366c0bd241161017f5780637f1c825a116101645780637f1c825a146105e957806382b86600146105fe5780638456cb591461064757610219565b806366c0bd241461058b578063715018a6146105d457610219565b8063593d132c146104235780635c975abb146104465780635cffe9de1461046f5780635fd65f0f1461053557610219565b806334e19907116101ec57806334e19907146103495780633e3a1560146103665780633f4ba83a146103985780634d49e87d146103ad57610219565b80630419b45a1461021e5780630ba819591461022857806331cd52b01461024f578063342a87a114610316575b600080fd5b610226610b7f565b005b34801561023457600080fd5b5061023d610c75565b60408051918252519081900360200190f35b6102c66004803603606081101561026557600080fd5b8135919081019060408101602082013564010000000081111561028757600080fd5b82018360208201111561029957600080fd5b803590602001918460208302840111640100000000831117156102bb57600080fd5b919350915035610cfa565b60408051602080825283518183015283519192839290830191858101910280838360005b838110156103025781810151838201526020016102ea565b505050509050019250505060405180910390f35b34801561032257600080fd5b5061023d6004803603604081101561033957600080fd5b508035906020013560ff16610f37565b6102266004803603602081101561035f57600080fd5b5035610feb565b61023d6004803603608081101561037c57600080fd5b5080359060ff60208201351690604081013590606001356110ec565b3480156103a457600080fd5b506102266112b8565b61023d600480360360608110156103c357600080fd5b8101906020810181356401000000008111156103de57600080fd5b8201836020820111156103f057600080fd5b8035906020019184602083028401116401000000008311171561041257600080fd5b919350915080359060200135611336565b6102266004803603604081101561043957600080fd5b50803590602001356114d6565b34801561045257600080fd5b5061045b6115df565b604080519115158252519081900360200190f35b6102266004803603608081101561048557600080fd5b6001600160a01b038235811692602081013590911691604082013591908101906080810160608201356401000000008111156104c057600080fd5b8201836020820111156104d257600080fd5b803590602001918460018302840111640100000000831117156104f457600080fd5b91908080601f0160208091040260200160405190810160405280939291908181526020018383808284376000920191909152509295506115e8945050505050565b34801561054157600080fd5b5061054a611a7a565b604080519788526020880196909652868601949094526060860192909252608085015260a08401526001600160a01b031660c0830152519081900360e00190f35b34801561059757600080fd5b506105be600480360360208110156105ae57600080fd5b50356001600160a01b0316611a9b565b6040805160ff9092168252519081900360200190f35b3480156105e057600080fd5b50610226611b28565b3480156105f557600080fd5b5061023d611bfe565b34801561060a57600080fd5b5061062b6004803603602081101561062157600080fd5b503560ff16611c04565b604080516001600160a01b039092168252519081900360200190f35b34801561065357600080fd5b50610226611c8c565b61023d6004803603606081101561067257600080fd5b81019060208101813564010000000081111561068d57600080fd5b82018360208201111561069f57600080fd5b803590602001918460208302840111640100000000831117156106c157600080fd5b919350915080359060200135611d08565b610226600480360360208110156106e857600080fd5b5035611ea8565b3480156106fb57600080fd5b5061062b611f8e565b61023d600480360360a081101561071a57600080fd5b5060ff813581169160208101359091169060408101359060608101359060800135611f9d565b34801561074c57600080fd5b5061023d6004803603602081101561076357600080fd5b503560ff16612172565b34801561077957600080fd5b5061023d6004803603606081101561079057600080fd5b5060ff8135811691602081013590911690604001356121f1565b61022660048036036101008110156107c157600080fd5b8101906020810181356401000000008111156107dc57600080fd5b8201836020820111156107ee57600080fd5b8035906020019184602083028401116401000000008311171561081057600080fd5b919080806020026020016040519081016040528093929190818152602001838360200280828437600092019190915250929594936020810193503591505064010000000081111561086057600080fd5b82018360208201111561087257600080fd5b8035906020019184602083028401116401000000008311171561089457600080fd5b91908080602002602001604051908101604052809392919081815260200183836020028082843760009201919091525092959493602081019350359150506401000000008111156108e457600080fd5b8201836020820111156108f657600080fd5b8035906020019184600183028401116401000000008311171561091857600080fd5b91908080601f016020809104026020016040519081016040528093929190818152602001838380828437600092019190915250929594936020810193503591505064010000000081111561096b57600080fd5b82018360208201111561097d57600080fd5b8035906020019184600183028401116401000000008311171561099f57600080fd5b91908080601f01602080910402602001604051908101604052809392919081815260200183838082843760009201919091525092955050823593505050602081013590604081013590606001356001600160a01b03166122ae565b610226612372565b348015610a0e57600080fd5b5061023d612451565b348015610a2357600080fd5b5061023d6124a5565b348015610a3857600080fd5b5061023d60048036036040811015610a4f57600080fd5b810190602081018135640100000000811115610a6a57600080fd5b820183602082011115610a7c57600080fd5b80359060200191846020830284011164010000000083111715610a9e57600080fd5b91935091503515156124f9565b348015610ab757600080fd5b5061023d61258e565b348015610acc57600080fd5b5061023d60048036036020811015610ae357600080fd5b5035612594565b61022660048036036040811015610b0057600080fd5b5080359060200135612622565b348015610b1957600080fd5b506102c660048036036020811015610b3057600080fd5b5035612712565b348015610b4357600080fd5b5061022660048036036020811015610b5a57600080fd5b50356001600160a01b031661285c565b348015610b7657600080fd5b5061023d612989565b610b8761298f565b6001600160a01b0316610b98611f8e565b6001600160a01b031614610bf3576040805162461bcd60e51b815260206004820181905260248201527f4f776e61626c653a2063616c6c6572206973206e6f7420746865206f776e6572604482015290519081900360640190fd5b73Bea9F78090bDB9e662d8CB301A00ad09A5b756e96324c5c75160c9610c17611f8e565b6040518363ffffffff1660e01b815260040180838152602001826001600160a01b031681526020019250505060006040518083038186803b158015610c5b57600080fd5b505af4158015610c6f573d6000803e3d6000fd5b50505050565b600060c973cF70E2F3567ba396F3dd04822F78Ecd70Ba4689463c9b64dcb90916040518263ffffffff1660e01b81526004018082815260200191505060206040518083038186803b158015610cc957600080fd5b505af4158015610cdd573d6000803e3d6000fd5b505050506040513d6020811015610cf357600080fd5b5051905090565b606060026097541415610d54576040805162461bcd60e51b815260206004820152601f60248201527f5265656e7472616e637947756172643a207265656e7472616e742063616c6c00604482015290519081900360640190fd5b60026097558142811015610daf576040805162461bcd60e51b815260206004820152601060248201527f446561646c696e65206e6f74206d657400000000000000000000000000000000604482015290519081900360640190fd5b60c973Bea9F78090bDB9e662d8CB301A00ad09A5b756e96373fd6b3e90918888886040518563ffffffff1660e01b815260040180858152602001848152602001806020018281038252848482818152602001925060200280828437600081840152601f19601f8201169050808301925050509550505050505060006040518083038186803b158015610e4057600080fd5b505af4158015610e54573d6000803e3d6000fd5b505050506040513d6000823e601f3d9081017fffffffffffffffffffffffffffffffffffffffffffffffffffffffffffffffe01682016040526020811015610e9b57600080fd5b8101908080516040519392919084640100000000821115610ebb57600080fd5b908301906020820185811115610ed057600080fd5b8251866020820283011164010000000082111715610eed57600080fd5b82525081516020918201928201910280838360005b83811015610f1a578181015183820152602001610f02565b505050509050016040525050509150506001609755949350505050565b604080517fe069274200000000000000000000000000000000000000000000000000000000815260c960048201526024810184905260ff83166044820152905160009173Bea9F78090bDB9e662d8CB301A00ad09A5b756e99163e069274291606480820192602092909190829003018186803b158015610fb657600080fd5b505af4158015610fca573d6000803e3d6000fd5b505050506040513d6020811015610fe057600080fd5b505190505b92915050565b610ff361298f565b6001600160a01b0316611004611f8e565b6001600160a01b03161461105f576040805162461bcd60e51b815260206004820181905260248201527f4f776e61626c653a2063616c6c6572206973206e6f7420746865206f776e6572604482015290519081900360640190fd5b604080517f467e186c00000000000000000000000000000000000000000000000000000000815260c9600482015260248101839052905173Bea9F78090bDB9e662d8CB301A00ad09A5b756e99163467e186c916044808301926000929190829003018186803b1580156110d157600080fd5b505af41580156110e5573d6000803e3d6000fd5b5050505050565b600060026097541415611146576040805162461bcd60e51b815260206004820152601f60248201527f5265656e7472616e637947756172643a207265656e7472616e742063616c6c00604482015290519081900360640190fd5b60026097556111536115df565b156111a5576040805162461bcd60e51b815260206004820152601060248201527f5061757361626c653a2070617573656400000000000000000000000000000000604482015290519081900360640190fd5b81804211156111fb576040805162461bcd60e51b815260206004820152601060248201527f446561646c696e65206e6f74206d657400000000000000000000000000000000604482015290519081900360640190fd5b604080517fe7a4db8100000000000000000000000000000000000000000000000000000000815260c960048201526024810188905260ff8716604482015260648101869052905173Bea9F78090bDB9e662d8CB301A00ad09A5b756e99163e7a4db81916084808301926020929190829003018186803b15801561127d57600080fd5b505af4158015611291573d6000803e3d6000fd5b505050506040513d60208110156112a757600080fd5b505160016097559695505050505050565b6112c061298f565b6001600160a01b03166112d1611f8e565b6001600160a01b03161461132c576040805162461bcd60e51b815260206004820181905260248201527f4f776e61626c653a2063616c6c6572206973206e6f7420746865206f776e6572604482015290519081900360640190fd5b611334612993565b565b600060026097541415611390576040805162461bcd60e51b815260206004820152601f60248201527f5265656e7472616e637947756172643a207265656e7472616e742063616c6c00604482015290519081900360640190fd5b600260975561139d6115df565b156113ef576040805162461bcd60e51b815260206004820152601060248201527f5061757361626c653a2070617573656400000000000000000000000000000000604482015290519081900360640190fd5b8180421115611445576040805162461bcd60e51b815260206004820152601060248201527f446561646c696e65206e6f74206d657400000000000000000000000000000000604482015290519081900360640190fd5b60c973Bea9F78090bDB9e662d8CB301A00ad09A5b756e96340370edf90918888886040518563ffffffff1660e01b815260040180858152602001806020018381526020018281038252858582818152602001925060200280828437600081840152601f19601f8201169050808301925050509550505050505060206040518083038186803b15801561127d57600080fd5b6114de61298f565b6001600160a01b03166114ef611f8e565b6001600160a01b03161461154a576040805162461bcd60e51b815260206004820181905260248201527f4f776e61626c653a2063616c6c6572206973206e6f7420746865206f776e6572604482015290519081900360640190fd5b604080517f58fdd79b00000000000000000000000000000000000000000000000000000000815260c960048201526024810184905260448101839052905173cF70E2F3567ba396F3dd04822F78Ecd70Ba46894916358fdd79b916064808301926000929190829003018186803b1580156115c357600080fd5b505af41580156115d7573d6000803e3d6000fd5b505050505050565b60655460ff1690565b60026097541415611640576040805162461bcd60e51b815260206004820152601f60248201527f5265656e7472616e637947756172643a207265656e7472616e742063616c6c00604482015290519081900360640190fd5b6002609755600061165084611a9b565b90506000846001600160a01b03166370a08231306040518263ffffffff1660e01b815260040180826001600160a01b0316815260200191505060206040518083038186803b1580156116a157600080fd5b505afa1580156116b5573d6000803e3d6000fd5b505050506040513d60208110156116cb57600080fd5b505160d28054919250600091611703919060ff86169081106116e957fe5b906000526020600020015483612a3c90919063ffffffff16565b90506000851180156117155750848210155b611766576040805162461bcd60e51b815260206004820152600e60248201527f696e76616c696420616d6f756e74000000000000000000000000000000000000604482015290519081900360640190fd5b600061178961271061178360d45489612a9990919063ffffffff16565b90612af2565b905060006117a861271061178360d55485612a9990919063ffffffff16565b9050600082116117ff576040805162461bcd60e51b815260206004820152601f60248201527f616d6f756e7420697320736d616c6c20666f72206120666c6173684c6f616e00604482015290519081900360640190fd5b6118136001600160a01b0389168a89612b59565b886001600160a01b031663405b019d308a8a868b6040518663ffffffff1660e01b815260040180866001600160a01b03168152602001856001600160a01b0316815260200184815260200183815260200180602001828103825283818151815260200191508051906020019080838360005b8381101561189d578181015183820152602001611885565b50505050905090810190601f1680156118ca5780820380516001836020036101000a031916815260200191505b509650505050505050600060405180830381600087803b1580156118ed57600080fd5b505af1158015611901573d6000803e3d6000fd5b505050506000886001600160a01b03166370a08231306040518263ffffffff1660e01b815260040180826001600160a01b0316815260200191505060206040518083038186803b15801561195457600080fd5b505afa158015611968573d6000803e3d6000fd5b505050506040513d602081101561197e57600080fd5b5051905061198c8584612bde565b8110156119e0576040805162461bcd60e51b815260206004820152601860248201527f666c6173684c6f616e20666565206973206e6f74206d65740000000000000000604482015290519081900360640190fd5b6119f4826119ee8387612a3c565b90612a3c565b60d2805460ff8916908110611a0557fe5b600091825260209182902001919091556040805160ff891681529182018a905281810185905260608201849052516001600160a01b038c16917f7c186b2827b23e9024e7b29869cba58a97a4bac6567802a8ea6a8afa7b8c22f0919081900360800190a2505060016097555050505050505050565b60c95460ca5460cb5460cc5460cd5460ce5460cf546001600160a01b031687565b6001600160a01b038116600081815260d36020526040812054909160ff90911690611ac582611c04565b6001600160a01b031614611b20576040805162461bcd60e51b815260206004820152601460248201527f546f6b656e20646f6573206e6f74206578697374000000000000000000000000604482015290519081900360640190fd5b90505b919050565b611b3061298f565b6001600160a01b0316611b41611f8e565b6001600160a01b031614611b9c576040805162461bcd60e51b815260206004820181905260248201527f4f776e61626c653a2063616c6c6572206973206e6f7420746865206f776e6572604482015290519081900360640190fd5b6033546040516000916001600160a01b0316907f8be0079c531659141344cd1fd0a4f28419497f9722a3daafe3b4186f6b6457e0908390a3603380547fffffffffffffffffffffffff0000000000000000000000000000000000000000169055565b60d45481565b60d05460009060ff831610611c60576040805162461bcd60e51b815260206004820152600c60248201527f4f7574206f662072616e67650000000000000000000000000000000000000000604482015290519081900360640190fd5b60d0805460ff8416908110611c7157fe5b6000918252602090912001546001600160a01b031692915050565b611c9461298f565b6001600160a01b0316611ca5611f8e565b6001600160a01b031614611d00576040805162461bcd60e51b815260206004820181905260248201527f4f776e61626c653a2063616c6c6572206973206e6f7420746865206f776e6572604482015290519081900360640190fd5b611334612c38565b600060026097541415611d62576040805162461bcd60e51b815260206004820152601f60248201527f5265656e7472616e637947756172643a207265656e7472616e742063616c6c00604482015290519081900360640190fd5b6002609755611d6f6115df565b15611dc1576040805162461bcd60e51b815260206004820152601060248201527f5061757361626c653a2070617573656400000000000000000000000000000000604482015290519081900360640190fd5b8180421115611e17576040805162461bcd60e51b815260206004820152601060248201527f446561646c696e65206e6f74206d657400000000000000000000000000000000604482015290519081900360640190fd5b60c973Bea9F78090bDB9e662d8CB301A00ad09A5b756e96341b91c2690918888886040518563ffffffff1660e01b815260040180858152602001806020018381526020018281038252858582818152602001925060200280828437600081840152601f19601f8201169050808301925050509550505050505060206040518083038186803b15801561127d57600080fd5b611eb061298f565b6001600160a01b0316611ec1611f8e565b6001600160a01b031614611f1c576040805162461bcd60e51b815260206004820181905260248201527f4f776e61626c653a2063616c6c6572206973206e6f7420746865206f776e6572604482015290519081900360640190fd5b604080517f7046727600000000000000000000000000000000000000000000000000000000815260c9600482015260248101839052905173Bea9F78090bDB9e662d8CB301A00ad09A5b756e9916370467276916044808301926000929190829003018186803b1580156110d157600080fd5b6033546001600160a01b031690565b600060026097541415611ff7576040805162461bcd60e51b815260206004820152601f60248201527f5265656e7472616e637947756172643a207265656e7472616e742063616c6c00604482015290519081900360640190fd5b60026097556120046115df565b15612056576040805162461bcd60e51b815260206004820152601060248201527f5061757361626c653a2070617573656400000000000000000000000000000000604482015290519081900360640190fd5b81804211156120ac576040805162461bcd60e51b815260206004820152601060248201527f446561646c696e65206e6f74206d657400000000000000000000000000000000604482015290519081900360640190fd5b604080517fa5397b2200000000000000000000000000000000000000000000000000000000815260c9600482015260ff808a166024830152881660448201526064810187905260848101869052905173Bea9F78090bDB9e662d8CB301A00ad09A5b756e99163a5397b229160a4808301926020929190829003018186803b15801561213657600080fd5b505af415801561214a573d6000803e3d6000fd5b505050506040513d602081101561216057600080fd5b50516001609755979650505050505050565b60d05460009060ff8316106121ce576040805162461bcd60e51b815260206004820152601260248201527f496e646578206f7574206f662072616e67650000000000000000000000000000604482015290519081900360640190fd5b60d2805460ff84169081106121df57fe5b90600052602060002001549050919050565b604080517f4b23603c00000000000000000000000000000000000000000000000000000000815260c9600482015260ff80861660248301528416604482015260648101839052905160009173Bea9F78090bDB9e662d8CB301A00ad09A5b756e991634b23603c91608480820192602092909190829003018186803b15801561227857600080fd5b505af415801561228c573d6000803e3d6000fd5b505050506040513d60208110156122a257600080fd5b505190505b9392505050565b600054610100900460ff16806122c757506122c7612cc8565b806122d5575060005460ff16155b6123105760405162461bcd60e51b815260040180806020018281038252602e815260200180613e29602e913960400191505060405180910390fd5b600054610100900460ff1615801561233b576000805460ff1961ff0019909116610100171660011790555b61234b8989898989898989612cd9565b600860d455600060d5558015612367576000805461ff00191690555b505050505050505050565b61237a61298f565b6001600160a01b031661238b611f8e565b6001600160a01b0316146123e6576040805162461bcd60e51b815260206004820181905260248201527f4f776e61626c653a2063616c6c6572206973206e6f7420746865206f776e6572604482015290519081900360640190fd5b604080517ff14e211e00000000000000000000000000000000000000000000000000000000815260c96004820152905173cF70E2F3567ba396F3dd04822F78Ecd70Ba468949163f14e211e916024808301926000929190829003018186803b158015610c5b57600080fd5b600060c973cF70E2F3567ba396F3dd04822F78Ecd70Ba4689463b0a14cfc90916040518263ffffffff1660e01b81526004018082815260200191505060206040518083038186803b158015610cc957600080fd5b600060c973Bea9F78090bDB9e662d8CB301A00ad09A5b756e96371906c2c90916040518263ffffffff1660e01b81526004018082815260200191505060206040518083038186803b158015610cc957600080fd5b600060c973Bea9F78090bDB9e662d8CB301A00ad09A5b756e963834b491090918686866040518563ffffffff1660e01b8152600401808581526020018060200183151581526020018281038252858582818152602001925060200280828437600081840152601f19601f8201169050808301925050509550505050505060206040518083038186803b15801561227857600080fd5b60d55481565b600060c973Bea9F78090bDB9e662d8CB301A00ad09A5b756e9637d0481609091846040518363ffffffff1660e01b8152600401808381526020018281526020019250505060206040518083038186803b1580156125f057600080fd5b505af4158015612604573d6000803e3d6000fd5b505050506040513d602081101561261a57600080fd5b505192915050565b61262a61298f565b6001600160a01b031661263b611f8e565b6001600160a01b031614612696576040805162461bcd60e51b815260206004820181905260248201527f4f776e61626c653a2063616c6c6572206973206e6f7420746865206f776e6572604482015290519081900360640190fd5b6000821180156126a857506127108211155b80156126b657506127108111155b612707576040805162461bcd60e51b815260206004820152601b60248201527f6665657320617265206e6f7420696e2076616c69642072616e67650000000000604482015290519081900360640190fd5b60d49190915560d555565b606060c973Bea9F78090bDB9e662d8CB301A00ad09A5b756e96370703e4a9091846040518363ffffffff1660e01b8152600401808381526020018281526020019250505060006040518083038186803b15801561276e57600080fd5b505af4158015612782573d6000803e3d6000fd5b505050506040513d6000823e601f3d9081017fffffffffffffffffffffffffffffffffffffffffffffffffffffffffffffffe016820160405260208110156127c957600080fd5b81019080805160405193929190846401000000008211156127e957600080fd5b9083019060208201858111156127fe57600080fd5b825186602082028301116401000000008211171561281b57600080fd5b82525081516020918201928201910280838360005b83811015612848578181015183820152602001612830565b505050509050016040525050509050919050565b61286461298f565b6001600160a01b0316612875611f8e565b6001600160a01b0316146128d0576040805162461bcd60e51b815260206004820181905260248201527f4f776e61626c653a2063616c6c6572206973206e6f7420746865206f776e6572604482015290519081900360640190fd5b6001600160a01b0381166129155760405162461bcd60e51b8152600401808060200182810382526026815260200180613ddd6026913960400191505060405180910390fd5b6033546040516001600160a01b038084169216907f8be0079c531659141344cd1fd0a4f28419497f9722a3daafe3b4186f6b6457e090600090a3603380547fffffffffffffffffffffffff0000000000000000000000000000000000000000166001600160a01b0392909216919091179055565b61271081565b3390565b61299b6115df565b6129ec576040805162461bcd60e51b815260206004820152601460248201527f5061757361626c653a206e6f7420706175736564000000000000000000000000604482015290519081900360640190fd5b6065805460ff191690557f5db9ee0a495bf2e6ff9c91a7834c1ba4fdd244a5e8aa4e537bd38aeae4b073aa612a1f61298f565b604080516001600160a01b039092168252519081900360200190a1565b600082821115612a93576040805162461bcd60e51b815260206004820152601e60248201527f536166654d6174683a207375627472616374696f6e206f766572666c6f770000604482015290519081900360640190fd5b50900390565b600082612aa857506000610fe5565b82820282848281612ab557fe5b04146122a75760405162461bcd60e51b8152600401808060200182810382526021815260200180613e576021913960400191505060405180910390fd5b6000808211612b48576040805162461bcd60e51b815260206004820152601a60248201527f536166654d6174683a206469766973696f6e206279207a65726f000000000000604482015290519081900360640190fd5b818381612b5157fe5b049392505050565b604080516001600160a01b038416602482015260448082018490528251808303909101815260649091019091526020810180517bffffffffffffffffffffffffffffffffffffffffffffffffffffffff167fa9059cbb00000000000000000000000000000000000000000000000000000000179052612bd99084906134d4565b505050565b6000828201838110156122a7576040805162461bcd60e51b815260206004820152601b60248201527f536166654d6174683a206164646974696f6e206f766572666c6f770000000000604482015290519081900360640190fd5b612c406115df565b15612c92576040805162461bcd60e51b815260206004820152601060248201527f5061757361626c653a2070617573656400000000000000000000000000000000604482015290519081900360640190fd5b6065805460ff191660011790557f62e78cea01bee320cd4e420270b5ea74000d11b0c9f74754ebdbfc544b05a258612a1f61298f565b6000612cd330613585565b15905090565b600054610100900460ff1680612cf25750612cf2612cc8565b80612d00575060005460ff16155b612d3b5760405162461bcd60e51b815260040180806020018281038252602e815260200180613e29602e913960400191505060405180910390fd5b600054610100900460ff16158015612d66576000805460ff1961ff0019909116610100171660011790555b612d6e61358b565b612d76613645565b6001895111612dcc576040805162461bcd60e51b815260206004820152601960248201527f5f706f6f6c6564546f6b656e732e6c656e677468203c3d203100000000000000604482015290519081900360640190fd5b602089511115612e23576040805162461bcd60e51b815260206004820152601960248201527f5f706f6f6c6564546f6b656e732e6c656e677468203e20333200000000000000604482015290519081900360640190fd5b8751895114612e79576040805162461bcd60e51b815260206004820152601f60248201527f5f706f6f6c6564546f6b656e7320646563696d616c73206d69736d6174636800604482015290519081900360640190fd5b6060885167ffffffffffffffff81118015612e9357600080fd5b50604051908082528060200260200182016040528015612ebd578160200160208202803683370190505b50905060005b8a518160ff16101561313b5760ff811615612fac5760d360008c8360ff1681518110612eeb57fe5b6020908102919091018101516001600160a01b031682528101919091526040016000205460ff16158015612f5b57508a8160ff1681518110612f2957fe5b60200260200101516001600160a01b03168b600081518110612f4757fe5b60200260200101516001600160a01b031614155b612fac576040805162461bcd60e51b815260206004820152601060248201527f4475706c696361746520746f6b656e7300000000000000000000000000000000604482015290519081900360640190fd5b60006001600160a01b03168b8260ff1681518110612fc657fe5b60200260200101516001600160a01b0316141561302a576040805162461bcd60e51b815260206004820152601d60248201527f546865203020616464726573732069736e277420616e204552432d3230000000604482015290519081900360640190fd5b601260ff168a8260ff168151811061303e57fe5b602002602001015160ff16111561309c576040805162461bcd60e51b815260206004820152601a60248201527f546f6b656e20646563696d616c732065786365656473206d6178000000000000604482015290519081900360640190fd5b6130cc8a8260ff16815181106130ae57fe5b602002602001015160ff16601260ff16612a3c90919063ffffffff16565b600a0a828260ff16815181106130de57fe5b6020026020010181815250508060d360008d8460ff16815181106130fe57fe5b6020908102919091018101516001600160a01b03168252810191909152604001600020805460ff191660ff92909216919091179055600101612ec3565b50620f42408610613193576040805162461bcd60e51b815260206004820152601260248201527f5f612065786365656473206d6178696d756d0000000000000000000000000000604482015290519081900360640190fd5b6305f5e10085106131eb576040805162461bcd60e51b815260206004820152601460248201527f5f6665652065786365656473206d6178696d756d000000000000000000000000604482015290519081900360640190fd5b6402540be4008410613244576040805162461bcd60e51b815260206004820152601960248201527f5f61646d696e4665652065786365656473206d6178696d756d00000000000000604482015290519081900360640190fd5b600061324f846136da565b9050806001600160a01b0316634cd88b768a8a6040518363ffffffff1660e01b8152600401808060200180602001838103835285818151815260200191508051906020019080838360005b838110156132b257818101518382015260200161329a565b50505050905090810190601f1680156132df5780820380516001836020036101000a031916815260200191505b50838103825284518152845160209182019186019080838360005b838110156133125781810151838201526020016132fa565b50505050905090810190601f16801561333f5780820380516001836020036101000a031916815260200191505b50945050505050602060405180830381600087803b15801561336057600080fd5b505af1158015613374573d6000803e3d6000fd5b505050506040513d602081101561338a57600080fd5b50516133dd576040805162461bcd60e51b815260206004820152601c60248201527f636f756c64206e6f7420696e6974206c70546f6b656e20636c6f6e6500000000604482015290519081900360640190fd5b60cf80547fffffffffffffffffffffffff0000000000000000000000000000000000000000166001600160a01b0383161790558a516134239060d09060208e0190613ccc565b5081516134379060d1906020850190613d49565b508a5167ffffffffffffffff8111801561345057600080fd5b5060405190808252806020026020018201604052801561347a578160200160208202803683370190505b50805161348f9160d291602090910190613d49565b5061349b876064612a99565b60c9556134a9876064612a99565b60ca55505060cd84905560ce8390558015612367576000805461ff0019169055505050505050505050565b6060613529826040518060400160405280602081526020017f5361666545524332303a206c6f772d6c6576656c2063616c6c206661696c6564815250856001600160a01b03166137959092919063ffffffff16565b805190915015612bd95780806020019051602081101561354857600080fd5b5051612bd95760405162461bcd60e51b815260040180806020018281038252602a815260200180613e78602a913960400191505060405180910390fd5b3b151590565b600054610100900460ff16806135a457506135a4612cc8565b806135b2575060005460ff16155b6135ed5760405162461bcd60e51b815260040180806020018281038252602e815260200180613e29602e913960400191505060405180910390fd5b600054610100900460ff16158015613618576000805460ff1961ff0019909116610100171660011790555b6136206137ac565b61362861384c565b61363061395d565b8015613642576000805461ff00191690555b50565b600054610100900460ff168061365e575061365e612cc8565b8061366c575060005460ff16155b6136a75760405162461bcd60e51b815260040180806020018281038252602e815260200180613e29602e913960400191505060405180910390fd5b600054610100900460ff161580156136d2576000805460ff1961ff0019909116610100171660011790555b613630613a08565b60006040517f3d602d80600a3d3981f3363d3d373d3d3d363d7300000000000000000000000081528260601b60148201527f5af43d82803e903d91602b57fd5bf3000000000000000000000000000000000060288201526037816000f09150506001600160a01b038116611b23576040805162461bcd60e51b815260206004820152601660248201527f455243313136373a20637265617465206661696c656400000000000000000000604482015290519081900360640190fd5b60606137a48484600085613aae565b949350505050565b600054610100900460ff16806137c557506137c5612cc8565b806137d3575060005460ff16155b61380e5760405162461bcd60e51b815260040180806020018281038252602e815260200180613e29602e913960400191505060405180910390fd5b600054610100900460ff16158015613630576000805460ff1961ff0019909116610100171660011790558015613642576000805461ff001916905550565b600054610100900460ff16806138655750613865612cc8565b80613873575060005460ff16155b6138ae5760405162461bcd60e51b815260040180806020018281038252602e815260200180613e29602e913960400191505060405180910390fd5b600054610100900460ff161580156138d9576000805460ff1961ff0019909116610100171660011790555b60006138e361298f565b603380547fffffffffffffffffffffffff0000000000000000000000000000000000000000166001600160a01b038316908117909155604051919250906000907f8be0079c531659141344cd1fd0a4f28419497f9722a3daafe3b4186f6b6457e0908290a3508015613642576000805461ff001916905550565b600054610100900460ff16806139765750613976612cc8565b80613984575060005460ff16155b6139bf5760405162461bcd60e51b815260040180806020018281038252602e815260200180613e29602e913960400191505060405180910390fd5b600054610100900460ff161580156139ea576000805460ff1961ff0019909116610100171660011790555b6065805460ff191690558015613642576000805461ff001916905550565b600054610100900460ff1680613a215750613a21612cc8565b80613a2f575060005460ff16155b613a6a5760405162461bcd60e51b815260040180806020018281038252602e815260200180613e29602e913960400191505060405180910390fd5b600054610100900460ff16158015613a95576000805460ff1961ff0019909116610100171660011790555b60016097558015613642576000805461ff001916905550565b606082471015613aef5760405162461bcd60e51b8152600401808060200182810382526026815260200180613e036026913960400191505060405180910390fd5b613af885613585565b613b49576040805162461bcd60e51b815260206004820152601d60248201527f416464726573733a2063616c6c20746f206e6f6e2d636f6e7472616374000000604482015290519081900360640190fd5b60006060866001600160a01b031685876040518082805190602001908083835b60208310613ba657805182527fffffffffffffffffffffffffffffffffffffffffffffffffffffffffffffffe09092019160209182019101613b69565b6001836020036101000a03801982511681845116808217855250505050505090500191505060006040518083038185875af1925050503d8060008114613c08576040519150601f19603f3d011682016040523d82523d6000602084013e613c0d565b606091505b5091509150613c1d828286613c28565b979650505050505050565b60608315613c375750816122a7565b825115613c475782518084602001fd5b8160405162461bcd60e51b81526004018080602001828103825283818151815260200191508051906020019080838360005b83811015613c91578181015183820152602001613c79565b50505050905090810190601f168015613cbe5780820380516001836020036101000a031916815260200191505b509250505060405180910390fd5b828054828255906000526020600020908101928215613d39579160200282015b82811115613d3957825182547fffffffffffffffffffffffff0000000000000000000000000000000000000000166001600160a01b03909116178255602090920191600190910190613cec565b50613d45929150613d90565b5090565b828054828255906000526020600020908101928215613d84579160200282015b82811115613d84578251825591602001919060010190613d69565b50613d45929150613dc7565b5b80821115613d455780547fffffffffffffffffffffffff0000000000000000000000000000000000000000168155600101613d91565b5b80821115613d455760008155600101613dc856fe4f776e61626c653a206e6577206f776e657220697320746865207a65726f2061646472657373416464726573733a20696e73756666696369656e742062616c616e636520666f722063616c6c496e697469616c697a61626c653a20636f6e747261637420697320616c726561647920696e697469616c697a6564536166654d6174683a206d756c7469706c69636174696f6e206f766572666c6f775361666545524332303a204552433230206f7065726174696f6e20646964206e6f742073756363656564a264697066735822122071d3ef409a548f4e3fb8b3d3c39cb405bd76fc599246e347f0060834d99a916d64736f6c634300060c0033",
  "deployedBytecode": "0x6080604052600436106102195760003560e01c806384cdd9bc1161011d578063d46300fd116100b0578063ef0a712f1161007f578063f2fad2b611610064578063f2fad2b614610b0d578063f2fde38b14610b37578063fd967f4714610b6a57610219565b8063ef0a712f14610ac0578063ef81596714610aea57610219565b8063d46300fd14610a02578063e25aa5fa14610a17578063e6ab280614610a2c578063e8cc7fb614610aab57610219565b806391ceb3eb116100ec57806391ceb3eb14610740578063a95b089f1461076d578063b28cb6dc146107aa578063c4db7fa0146109fa57610219565b806384cdd9bc1461065c5780638beb60b6146106d25780638da5cb5b146106ef578063916955861461070457610219565b8063593d132c116101b057806366c0bd241161017f5780637f1c825a116101645780637f1c825a146105e957806382b86600146105fe5780638456cb591461064757610219565b806366c0bd241461058b578063715018a6146105d457610219565b8063593d132c146104235780635c975abb146104465780635cffe9de1461046f5780635fd65f0f1461053557610219565b806334e19907116101ec57806334e19907146103495780633e3a1560146103665780633f4ba83a146103985780634d49e87d146103ad57610219565b80630419b45a1461021e5780630ba819591461022857806331cd52b01461024f578063342a87a114610316575b600080fd5b610226610b7f565b005b34801561023457600080fd5b5061023d610c75565b60408051918252519081900360200190f35b6102c66004803603606081101561026557600080fd5b8135919081019060408101602082013564010000000081111561028757600080fd5b82018360208201111561029957600080fd5b803590602001918460208302840111640100000000831117156102bb57600080fd5b919350915035610cfa565b60408051602080825283518183015283519192839290830191858101910280838360005b838110156103025781810151838201526020016102ea565b505050509050019250505060405180910390f35b34801561032257600080fd5b5061023d6004803603604081101561033957600080fd5b508035906020013560ff16610f37565b6102266004803603602081101561035f57600080fd5b5035610feb565b61023d6004803603608081101561037c57600080fd5b5080359060ff60208201351690604081013590606001356110ec565b3480156103a457600080fd5b506102266112b8565b61023d600480360360608110156103c357600080fd5b8101906020810181356401000000008111156103de57600080fd5b8201836020820111156103f057600080fd5b8035906020019184602083028401116401000000008311171561041257600080fd5b919350915080359060200135611336565b6102266004803603604081101561043957600080fd5b50803590602001356114d6565b34801561045257600080fd5b5061045b6115df565b604080519115158252519081900360200190f35b6102266004803603608081101561048557600080fd5b6001600160a01b038235811692602081013590911691604082013591908101906080810160608201356401000000008111156104c057600080fd5b8201836020820111156104d257600080fd5b803590602001918460018302840111640100000000831117156104f457600080fd5b91908080601f0160208091040260200160405190810160405280939291908181526020018383808284376000920191909152509295506115e8945050505050565b34801561054157600080fd5b5061054a611a7a565b604080519788526020880196909652868601949094526060860192909252608085015260a08401526001600160a01b031660c0830152519081900360e00190f35b34801561059757600080fd5b506105be600480360360208110156105ae57600080fd5b50356001600160a01b0316611a9b565b6040805160ff9092168252519081900360200190f35b3480156105e057600080fd5b50610226611b28565b3480156105f557600080fd5b5061023d611bfe565b34801561060a57600080fd5b5061062b6004803603602081101561062157600080fd5b503560ff16611c04565b604080516001600160a01b039092168252519081900360200190f35b34801561065357600080fd5b50610226611c8c565b61023d6004803603606081101561067257600080fd5b81019060208101813564010000000081111561068d57600080fd5b82018360208201111561069f57600080fd5b803590602001918460208302840111640100000000831117156106c157600080fd5b919350915080359060200135611d08565b610226600480360360208110156106e857600080fd5b5035611ea8565b3480156106fb57600080fd5b5061062b611f8e565b61023d600480360360a081101561071a57600080fd5b5060ff813581169160208101359091169060408101359060608101359060800135611f9d565b34801561074c57600080fd5b5061023d6004803603602081101561076357600080fd5b503560ff16612172565b34801561077957600080fd5b5061023d6004803603606081101561079057600080fd5b5060ff8135811691602081013590911690604001356121f1565b61022660048036036101008110156107c157600080fd5b8101906020810181356401000000008111156107dc57600080fd5b8201836020820111156107ee57600080fd5b8035906020019184602083028401116401000000008311171561081057600080fd5b919080806020026020016040519081016040528093929190818152602001838360200280828437600092019190915250929594936020810193503591505064010000000081111561086057600080fd5b82018360208201111561087257600080fd5b8035906020019184602083028401116401000000008311171561089457600080fd5b91908080602002602001604051908101604052809392919081815260200183836020028082843760009201919091525092959493602081019350359150506401000000008111156108e457600080fd5b8201836020820111156108f657600080fd5b8035906020019184600183028401116401000000008311171561091857600080fd5b91908080601f016020809104026020016040519081016040528093929190818152602001838380828437600092019190915250929594936020810193503591505064010000000081111561096b57600080fd5b82018360208201111561097d57600080fd5b8035906020019184600183028401116401000000008311171561099f57600080fd5b91908080601f01602080910402602001604051908101604052809392919081815260200183838082843760009201919091525092955050823593505050602081013590604081013590606001356001600160a01b03166122ae565b610226612372565b348015610a0e57600080fd5b5061023d612451565b348015610a2357600080fd5b5061023d6124a5565b348015610a3857600080fd5b5061023d60048036036040811015610a4f57600080fd5b810190602081018135640100000000811115610a6a57600080fd5b820183602082011115610a7c57600080fd5b80359060200191846020830284011164010000000083111715610a9e57600080fd5b91935091503515156124f9565b348015610ab757600080fd5b5061023d61258e565b348015610acc57600080fd5b5061023d60048036036020811015610ae357600080fd5b5035612594565b61022660048036036040811015610b0057600080fd5b5080359060200135612622565b348015610b1957600080fd5b506102c660048036036020811015610b3057600080fd5b5035612712565b348015610b4357600080fd5b5061022660048036036020811015610b5a57600080fd5b50356001600160a01b031661285c565b348015610b7657600080fd5b5061023d612989565b610b8761298f565b6001600160a01b0316610b98611f8e565b6001600160a01b031614610bf3576040805162461bcd60e51b815260206004820181905260248201527f4f776e61626c653a2063616c6c6572206973206e6f7420746865206f776e6572604482015290519081900360640190fd5b73__$a4e4384d4f8ec13c7a898ae597a4175ef6$__6324c5c75160c9610c17611f8e565b6040518363ffffffff1660e01b815260040180838152602001826001600160a01b031681526020019250505060006040518083038186803b158015610c5b57600080fd5b505af4158015610c6f573d6000803e3d6000fd5b50505050565b600060c973__$a50a14a4f4d416df093fe8223c9bbe01e7$__63c9b64dcb90916040518263ffffffff1660e01b81526004018082815260200191505060206040518083038186803b158015610cc957600080fd5b505af4158015610cdd573d6000803e3d6000fd5b505050506040513d6020811015610cf357600080fd5b5051905090565b606060026097541415610d54576040805162461bcd60e51b815260206004820152601f60248201527f5265656e7472616e637947756172643a207265656e7472616e742063616c6c00604482015290519081900360640190fd5b60026097558142811015610daf576040805162461bcd60e51b815260206004820152601060248201527f446561646c696e65206e6f74206d657400000000000000000000000000000000604482015290519081900360640190fd5b60c973__$a4e4384d4f8ec13c7a898ae597a4175ef6$__6373fd6b3e90918888886040518563ffffffff1660e01b815260040180858152602001848152602001806020018281038252848482818152602001925060200280828437600081840152601f19601f8201169050808301925050509550505050505060006040518083038186803b158015610e4057600080fd5b505af4158015610e54573d6000803e3d6000fd5b505050506040513d6000823e601f3d9081017fffffffffffffffffffffffffffffffffffffffffffffffffffffffffffffffe01682016040526020811015610e9b57600080fd5b8101908080516040519392919084640100000000821115610ebb57600080fd5b908301906020820185811115610ed057600080fd5b8251866020820283011164010000000082111715610eed57600080fd5b82525081516020918201928201910280838360005b83811015610f1a578181015183820152602001610f02565b505050509050016040525050509150506001609755949350505050565b604080517fe069274200000000000000000000000000000000000000000000000000000000815260c960048201526024810184905260ff83166044820152905160009173__$a4e4384d4f8ec13c7a898ae597a4175ef6$__9163e069274291606480820192602092909190829003018186803b158015610fb657600080fd5b505af4158015610fca573d6000803e3d6000fd5b505050506040513d6020811015610fe057600080fd5b505190505b92915050565b610ff361298f565b6001600160a01b0316611004611f8e565b6001600160a01b03161461105f576040805162461bcd60e51b815260206004820181905260248201527f4f776e61626c653a2063616c6c6572206973206e6f7420746865206f776e6572604482015290519081900360640190fd5b604080517f467e186c00000000000000000000000000000000000000000000000000000000815260c9600482015260248101839052905173__$a4e4384d4f8ec13c7a898ae597a4175ef6$__9163467e186c916044808301926000929190829003018186803b1580156110d157600080fd5b505af41580156110e5573d6000803e3d6000fd5b5050505050565b600060026097541415611146576040805162461bcd60e51b815260206004820152601f60248201527f5265656e7472616e637947756172643a207265656e7472616e742063616c6c00604482015290519081900360640190fd5b60026097556111536115df565b156111a5576040805162461bcd60e51b815260206004820152601060248201527f5061757361626c653a2070617573656400000000000000000000000000000000604482015290519081900360640190fd5b81804211156111fb576040805162461bcd60e51b815260206004820152601060248201527f446561646c696e65206e6f74206d657400000000000000000000000000000000604482015290519081900360640190fd5b604080517fe7a4db8100000000000000000000000000000000000000000000000000000000815260c960048201526024810188905260ff8716604482015260648101869052905173__$a4e4384d4f8ec13c7a898ae597a4175ef6$__9163e7a4db81916084808301926020929190829003018186803b15801561127d57600080fd5b505af4158015611291573d6000803e3d6000fd5b505050506040513d60208110156112a757600080fd5b505160016097559695505050505050565b6112c061298f565b6001600160a01b03166112d1611f8e565b6001600160a01b03161461132c576040805162461bcd60e51b815260206004820181905260248201527f4f776e61626c653a2063616c6c6572206973206e6f7420746865206f776e6572604482015290519081900360640190fd5b611334612993565b565b600060026097541415611390576040805162461bcd60e51b815260206004820152601f60248201527f5265656e7472616e637947756172643a207265656e7472616e742063616c6c00604482015290519081900360640190fd5b600260975561139d6115df565b156113ef576040805162461bcd60e51b815260206004820152601060248201527f5061757361626c653a2070617573656400000000000000000000000000000000604482015290519081900360640190fd5b8180421115611445576040805162461bcd60e51b815260206004820152601060248201527f446561646c696e65206e6f74206d657400000000000000000000000000000000604482015290519081900360640190fd5b60c973__$a4e4384d4f8ec13c7a898ae597a4175ef6$__6340370edf90918888886040518563ffffffff1660e01b815260040180858152602001806020018381526020018281038252858582818152602001925060200280828437600081840152601f19601f8201169050808301925050509550505050505060206040518083038186803b15801561127d57600080fd5b6114de61298f565b6001600160a01b03166114ef611f8e565b6001600160a01b03161461154a576040805162461bcd60e51b815260206004820181905260248201527f4f776e61626c653a2063616c6c6572206973206e6f7420746865206f776e6572604482015290519081900360640190fd5b604080517f58fdd79b00000000000000000000000000000000000000000000000000000000815260c960048201526024810184905260448101839052905173__$a50a14a4f4d416df093fe8223c9bbe01e7$__916358fdd79b916064808301926000929190829003018186803b1580156115c357600080fd5b505af41580156115d7573d6000803e3d6000fd5b505050505050565b60655460ff1690565b60026097541415611640576040805162461bcd60e51b815260206004820152601f60248201527f5265656e7472616e637947756172643a207265656e7472616e742063616c6c00604482015290519081900360640190fd5b6002609755600061165084611a9b565b90506000846001600160a01b03166370a08231306040518263ffffffff1660e01b815260040180826001600160a01b0316815260200191505060206040518083038186803b1580156116a157600080fd5b505afa1580156116b5573d6000803e3d6000fd5b505050506040513d60208110156116cb57600080fd5b505160d28054919250600091611703919060ff86169081106116e957fe5b906000526020600020015483612a3c90919063ffffffff16565b90506000851180156117155750848210155b611766576040805162461bcd60e51b815260206004820152600e60248201527f696e76616c696420616d6f756e74000000000000000000000000000000000000604482015290519081900360640190fd5b600061178961271061178360d45489612a9990919063ffffffff16565b90612af2565b905060006117a861271061178360d55485612a9990919063ffffffff16565b9050600082116117ff576040805162461bcd60e51b815260206004820152601f60248201527f616d6f756e7420697320736d616c6c20666f72206120666c6173684c6f616e00604482015290519081900360640190fd5b6118136001600160a01b0389168a89612b59565b886001600160a01b031663405b019d308a8a868b6040518663ffffffff1660e01b815260040180866001600160a01b03168152602001856001600160a01b0316815260200184815260200183815260200180602001828103825283818151815260200191508051906020019080838360005b8381101561189d578181015183820152602001611885565b50505050905090810190601f1680156118ca5780820380516001836020036101000a031916815260200191505b509650505050505050600060405180830381600087803b1580156118ed57600080fd5b505af1158015611901573d6000803e3d6000fd5b505050506000886001600160a01b03166370a08231306040518263ffffffff1660e01b815260040180826001600160a01b0316815260200191505060206040518083038186803b15801561195457600080fd5b505afa158015611968573d6000803e3d6000fd5b505050506040513d602081101561197e57600080fd5b5051905061198c8584612bde565b8110156119e0576040805162461bcd60e51b815260206004820152601860248201527f666c6173684c6f616e20666565206973206e6f74206d65740000000000000000604482015290519081900360640190fd5b6119f4826119ee8387612a3c565b90612a3c565b60d2805460ff8916908110611a0557fe5b600091825260209182902001919091556040805160ff891681529182018a905281810185905260608201849052516001600160a01b038c16917f7c186b2827b23e9024e7b29869cba58a97a4bac6567802a8ea6a8afa7b8c22f0919081900360800190a2505060016097555050505050505050565b60c95460ca5460cb5460cc5460cd5460ce5460cf546001600160a01b031687565b6001600160a01b038116600081815260d36020526040812054909160ff90911690611ac582611c04565b6001600160a01b031614611b20576040805162461bcd60e51b815260206004820152601460248201527f546f6b656e20646f6573206e6f74206578697374000000000000000000000000604482015290519081900360640190fd5b90505b919050565b611b3061298f565b6001600160a01b0316611b41611f8e565b6001600160a01b031614611b9c576040805162461bcd60e51b815260206004820181905260248201527f4f776e61626c653a2063616c6c6572206973206e6f7420746865206f776e6572604482015290519081900360640190fd5b6033546040516000916001600160a01b0316907f8be0079c531659141344cd1fd0a4f28419497f9722a3daafe3b4186f6b6457e0908390a3603380547fffffffffffffffffffffffff0000000000000000000000000000000000000000169055565b60d45481565b60d05460009060ff831610611c60576040805162461bcd60e51b815260206004820152600c60248201527f4f7574206f662072616e67650000000000000000000000000000000000000000604482015290519081900360640190fd5b60d0805460ff8416908110611c7157fe5b6000918252602090912001546001600160a01b031692915050565b611c9461298f565b6001600160a01b0316611ca5611f8e565b6001600160a01b031614611d00576040805162461bcd60e51b815260206004820181905260248201527f4f776e61626c653a2063616c6c6572206973206e6f7420746865206f776e6572604482015290519081900360640190fd5b611334612c38565b600060026097541415611d62576040805162461bcd60e51b815260206004820152601f60248201527f5265656e7472616e637947756172643a207265656e7472616e742063616c6c00604482015290519081900360640190fd5b6002609755611d6f6115df565b15611dc1576040805162461bcd60e51b815260206004820152601060248201527f5061757361626c653a2070617573656400000000000000000000000000000000604482015290519081900360640190fd5b8180421115611e17576040805162461bcd60e51b815260206004820152601060248201527f446561646c696e65206e6f74206d657400000000000000000000000000000000604482015290519081900360640190fd5b60c973__$a4e4384d4f8ec13c7a898ae597a4175ef6$__6341b91c2690918888886040518563ffffffff1660e01b815260040180858152602001806020018381526020018281038252858582818152602001925060200280828437600081840152601f19601f8201169050808301925050509550505050505060206040518083038186803b15801561127d57600080fd5b611eb061298f565b6001600160a01b0316611ec1611f8e565b6001600160a01b031614611f1c576040805162461bcd60e51b815260206004820181905260248201527f4f776e61626c653a2063616c6c6572206973206e6f7420746865206f776e6572604482015290519081900360640190fd5b604080517f7046727600000000000000000000000000000000000000000000000000000000815260c9600482015260248101839052905173__$a4e4384d4f8ec13c7a898ae597a4175ef6$__916370467276916044808301926000929190829003018186803b1580156110d157600080fd5b6033546001600160a01b031690565b600060026097541415611ff7576040805162461bcd60e51b815260206004820152601f60248201527f5265656e7472616e637947756172643a207265656e7472616e742063616c6c00604482015290519081900360640190fd5b60026097556120046115df565b15612056576040805162461bcd60e51b815260206004820152601060248201527f5061757361626c653a2070617573656400000000000000000000000000000000604482015290519081900360640190fd5b81804211156120ac576040805162461bcd60e51b815260206004820152601060248201527f446561646c696e65206e6f74206d657400000000000000000000000000000000604482015290519081900360640190fd5b604080517fa5397b2200000000000000000000000000000000000000000000000000000000815260c9600482015260ff808a166024830152881660448201526064810187905260848101869052905173__$a4e4384d4f8ec13c7a898ae597a4175ef6$__9163a5397b229160a4808301926020929190829003018186803b15801561213657600080fd5b505af415801561214a573d6000803e3d6000fd5b505050506040513d602081101561216057600080fd5b50516001609755979650505050505050565b60d05460009060ff8316106121ce576040805162461bcd60e51b815260206004820152601260248201527f496e646578206f7574206f662072616e67650000000000000000000000000000604482015290519081900360640190fd5b60d2805460ff84169081106121df57fe5b90600052602060002001549050919050565b604080517f4b23603c00000000000000000000000000000000000000000000000000000000815260c9600482015260ff80861660248301528416604482015260648101839052905160009173__$a4e4384d4f8ec13c7a898ae597a4175ef6$__91634b23603c91608480820192602092909190829003018186803b15801561227857600080fd5b505af415801561228c573d6000803e3d6000fd5b505050506040513d60208110156122a257600080fd5b505190505b9392505050565b600054610100900460ff16806122c757506122c7612cc8565b806122d5575060005460ff16155b6123105760405162461bcd60e51b815260040180806020018281038252602e815260200180613e29602e913960400191505060405180910390fd5b600054610100900460ff1615801561233b576000805460ff1961ff0019909116610100171660011790555b61234b8989898989898989612cd9565b600860d455600060d5558015612367576000805461ff00191690555b505050505050505050565b61237a61298f565b6001600160a01b031661238b611f8e565b6001600160a01b0316146123e6576040805162461bcd60e51b815260206004820181905260248201527f4f776e61626c653a2063616c6c6572206973206e6f7420746865206f776e6572604482015290519081900360640190fd5b604080517ff14e211e00000000000000000000000000000000000000000000000000000000815260c96004820152905173__$a50a14a4f4d416df093fe8223c9bbe01e7$__9163f14e211e916024808301926000929190829003018186803b158015610c5b57600080fd5b600060c973__$a50a14a4f4d416df093fe8223c9bbe01e7$__63b0a14cfc90916040518263ffffffff1660e01b81526004018082815260200191505060206040518083038186803b158015610cc957600080fd5b600060c973__$a4e4384d4f8ec13c7a898ae597a4175ef6$__6371906c2c90916040518263ffffffff1660e01b81526004018082815260200191505060206040518083038186803b158015610cc957600080fd5b600060c973__$a4e4384d4f8ec13c7a898ae597a4175ef6$__63834b491090918686866040518563ffffffff1660e01b8152600401808581526020018060200183151581526020018281038252858582818152602001925060200280828437600081840152601f19601f8201169050808301925050509550505050505060206040518083038186803b15801561227857600080fd5b60d55481565b600060c973__$a4e4384d4f8ec13c7a898ae597a4175ef6$__637d0481609091846040518363ffffffff1660e01b8152600401808381526020018281526020019250505060206040518083038186803b1580156125f057600080fd5b505af4158015612604573d6000803e3d6000fd5b505050506040513d602081101561261a57600080fd5b505192915050565b61262a61298f565b6001600160a01b031661263b611f8e565b6001600160a01b031614612696576040805162461bcd60e51b815260206004820181905260248201527f4f776e61626c653a2063616c6c6572206973206e6f7420746865206f776e6572604482015290519081900360640190fd5b6000821180156126a857506127108211155b80156126b657506127108111155b612707576040805162461bcd60e51b815260206004820152601b60248201527f6665657320617265206e6f7420696e2076616c69642072616e67650000000000604482015290519081900360640190fd5b60d49190915560d555565b606060c973__$a4e4384d4f8ec13c7a898ae597a4175ef6$__6370703e4a9091846040518363ffffffff1660e01b8152600401808381526020018281526020019250505060006040518083038186803b15801561276e57600080fd5b505af4158015612782573d6000803e3d6000fd5b505050506040513d6000823e601f3d9081017fffffffffffffffffffffffffffffffffffffffffffffffffffffffffffffffe016820160405260208110156127c957600080fd5b81019080805160405193929190846401000000008211156127e957600080fd5b9083019060208201858111156127fe57600080fd5b825186602082028301116401000000008211171561281b57600080fd5b82525081516020918201928201910280838360005b83811015612848578181015183820152602001612830565b505050509050016040525050509050919050565b61286461298f565b6001600160a01b0316612875611f8e565b6001600160a01b0316146128d0576040805162461bcd60e51b815260206004820181905260248201527f4f776e61626c653a2063616c6c6572206973206e6f7420746865206f776e6572604482015290519081900360640190fd5b6001600160a01b0381166129155760405162461bcd60e51b8152600401808060200182810382526026815260200180613ddd6026913960400191505060405180910390fd5b6033546040516001600160a01b038084169216907f8be0079c531659141344cd1fd0a4f28419497f9722a3daafe3b4186f6b6457e090600090a3603380547fffffffffffffffffffffffff0000000000000000000000000000000000000000166001600160a01b0392909216919091179055565b61271081565b3390565b61299b6115df565b6129ec576040805162461bcd60e51b815260206004820152601460248201527f5061757361626c653a206e6f7420706175736564000000000000000000000000604482015290519081900360640190fd5b6065805460ff191690557f5db9ee0a495bf2e6ff9c91a7834c1ba4fdd244a5e8aa4e537bd38aeae4b073aa612a1f61298f565b604080516001600160a01b039092168252519081900360200190a1565b600082821115612a93576040805162461bcd60e51b815260206004820152601e60248201527f536166654d6174683a207375627472616374696f6e206f766572666c6f770000604482015290519081900360640190fd5b50900390565b600082612aa857506000610fe5565b82820282848281612ab557fe5b04146122a75760405162461bcd60e51b8152600401808060200182810382526021815260200180613e576021913960400191505060405180910390fd5b6000808211612b48576040805162461bcd60e51b815260206004820152601a60248201527f536166654d6174683a206469766973696f6e206279207a65726f000000000000604482015290519081900360640190fd5b818381612b5157fe5b049392505050565b604080516001600160a01b038416602482015260448082018490528251808303909101815260649091019091526020810180517bffffffffffffffffffffffffffffffffffffffffffffffffffffffff167fa9059cbb00000000000000000000000000000000000000000000000000000000179052612bd99084906134d4565b505050565b6000828201838110156122a7576040805162461bcd60e51b815260206004820152601b60248201527f536166654d6174683a206164646974696f6e206f766572666c6f770000000000604482015290519081900360640190fd5b612c406115df565b15612c92576040805162461bcd60e51b815260206004820152601060248201527f5061757361626c653a2070617573656400000000000000000000000000000000604482015290519081900360640190fd5b6065805460ff191660011790557f62e78cea01bee320cd4e420270b5ea74000d11b0c9f74754ebdbfc544b05a258612a1f61298f565b6000612cd330613585565b15905090565b600054610100900460ff1680612cf25750612cf2612cc8565b80612d00575060005460ff16155b612d3b5760405162461bcd60e51b815260040180806020018281038252602e815260200180613e29602e913960400191505060405180910390fd5b600054610100900460ff16158015612d66576000805460ff1961ff0019909116610100171660011790555b612d6e61358b565b612d76613645565b6001895111612dcc576040805162461bcd60e51b815260206004820152601960248201527f5f706f6f6c6564546f6b656e732e6c656e677468203c3d203100000000000000604482015290519081900360640190fd5b602089511115612e23576040805162461bcd60e51b815260206004820152601960248201527f5f706f6f6c6564546f6b656e732e6c656e677468203e20333200000000000000604482015290519081900360640190fd5b8751895114612e79576040805162461bcd60e51b815260206004820152601f60248201527f5f706f6f6c6564546f6b656e7320646563696d616c73206d69736d6174636800604482015290519081900360640190fd5b6060885167ffffffffffffffff81118015612e9357600080fd5b50604051908082528060200260200182016040528015612ebd578160200160208202803683370190505b50905060005b8a518160ff16101561313b5760ff811615612fac5760d360008c8360ff1681518110612eeb57fe5b6020908102919091018101516001600160a01b031682528101919091526040016000205460ff16158015612f5b57508a8160ff1681518110612f2957fe5b60200260200101516001600160a01b03168b600081518110612f4757fe5b60200260200101516001600160a01b031614155b612fac576040805162461bcd60e51b815260206004820152601060248201527f4475706c696361746520746f6b656e7300000000000000000000000000000000604482015290519081900360640190fd5b60006001600160a01b03168b8260ff1681518110612fc657fe5b60200260200101516001600160a01b0316141561302a576040805162461bcd60e51b815260206004820152601d60248201527f546865203020616464726573732069736e277420616e204552432d3230000000604482015290519081900360640190fd5b601260ff168a8260ff168151811061303e57fe5b602002602001015160ff16111561309c576040805162461bcd60e51b815260206004820152601a60248201527f546f6b656e20646563696d616c732065786365656473206d6178000000000000604482015290519081900360640190fd5b6130cc8a8260ff16815181106130ae57fe5b602002602001015160ff16601260ff16612a3c90919063ffffffff16565b600a0a828260ff16815181106130de57fe5b6020026020010181815250508060d360008d8460ff16815181106130fe57fe5b6020908102919091018101516001600160a01b03168252810191909152604001600020805460ff191660ff92909216919091179055600101612ec3565b50620f42408610613193576040805162461bcd60e51b815260206004820152601260248201527f5f612065786365656473206d6178696d756d0000000000000000000000000000604482015290519081900360640190fd5b6305f5e10085106131eb576040805162461bcd60e51b815260206004820152601460248201527f5f6665652065786365656473206d6178696d756d000000000000000000000000604482015290519081900360640190fd5b6402540be4008410613244576040805162461bcd60e51b815260206004820152601960248201527f5f61646d696e4665652065786365656473206d6178696d756d00000000000000604482015290519081900360640190fd5b600061324f846136da565b9050806001600160a01b0316634cd88b768a8a6040518363ffffffff1660e01b8152600401808060200180602001838103835285818151815260200191508051906020019080838360005b838110156132b257818101518382015260200161329a565b50505050905090810190601f1680156132df5780820380516001836020036101000a031916815260200191505b50838103825284518152845160209182019186019080838360005b838110156133125781810151838201526020016132fa565b50505050905090810190601f16801561333f5780820380516001836020036101000a031916815260200191505b50945050505050602060405180830381600087803b15801561336057600080fd5b505af1158015613374573d6000803e3d6000fd5b505050506040513d602081101561338a57600080fd5b50516133dd576040805162461bcd60e51b815260206004820152601c60248201527f636f756c64206e6f7420696e6974206c70546f6b656e20636c6f6e6500000000604482015290519081900360640190fd5b60cf80547fffffffffffffffffffffffff0000000000000000000000000000000000000000166001600160a01b0383161790558a516134239060d09060208e0190613ccc565b5081516134379060d1906020850190613d49565b508a5167ffffffffffffffff8111801561345057600080fd5b5060405190808252806020026020018201604052801561347a578160200160208202803683370190505b50805161348f9160d291602090910190613d49565b5061349b876064612a99565b60c9556134a9876064612a99565b60ca55505060cd84905560ce8390558015612367576000805461ff0019169055505050505050505050565b6060613529826040518060400160405280602081526020017f5361666545524332303a206c6f772d6c6576656c2063616c6c206661696c6564815250856001600160a01b03166137959092919063ffffffff16565b805190915015612bd95780806020019051602081101561354857600080fd5b5051612bd95760405162461bcd60e51b815260040180806020018281038252602a815260200180613e78602a913960400191505060405180910390fd5b3b151590565b600054610100900460ff16806135a457506135a4612cc8565b806135b2575060005460ff16155b6135ed5760405162461bcd60e51b815260040180806020018281038252602e815260200180613e29602e913960400191505060405180910390fd5b600054610100900460ff16158015613618576000805460ff1961ff0019909116610100171660011790555b6136206137ac565b61362861384c565b61363061395d565b8015613642576000805461ff00191690555b50565b600054610100900460ff168061365e575061365e612cc8565b8061366c575060005460ff16155b6136a75760405162461bcd60e51b815260040180806020018281038252602e815260200180613e29602e913960400191505060405180910390fd5b600054610100900460ff161580156136d2576000805460ff1961ff0019909116610100171660011790555b613630613a08565b60006040517f3d602d80600a3d3981f3363d3d373d3d3d363d7300000000000000000000000081528260601b60148201527f5af43d82803e903d91602b57fd5bf3000000000000000000000000000000000060288201526037816000f09150506001600160a01b038116611b23576040805162461bcd60e51b815260206004820152601660248201527f455243313136373a20637265617465206661696c656400000000000000000000604482015290519081900360640190fd5b60606137a48484600085613aae565b949350505050565b600054610100900460ff16806137c557506137c5612cc8565b806137d3575060005460ff16155b61380e5760405162461bcd60e51b815260040180806020018281038252602e815260200180613e29602e913960400191505060405180910390fd5b600054610100900460ff16158015613630576000805460ff1961ff0019909116610100171660011790558015613642576000805461ff001916905550565b600054610100900460ff16806138655750613865612cc8565b80613873575060005460ff16155b6138ae5760405162461bcd60e51b815260040180806020018281038252602e815260200180613e29602e913960400191505060405180910390fd5b600054610100900460ff161580156138d9576000805460ff1961ff0019909116610100171660011790555b60006138e361298f565b603380547fffffffffffffffffffffffff0000000000000000000000000000000000000000166001600160a01b038316908117909155604051919250906000907f8be0079c531659141344cd1fd0a4f28419497f9722a3daafe3b4186f6b6457e0908290a3508015613642576000805461ff001916905550565b600054610100900460ff16806139765750613976612cc8565b80613984575060005460ff16155b6139bf5760405162461bcd60e51b815260040180806020018281038252602e815260200180613e29602e913960400191505060405180910390fd5b600054610100900460ff161580156139ea576000805460ff1961ff0019909116610100171660011790555b6065805460ff191690558015613642576000805461ff001916905550565b600054610100900460ff1680613a215750613a21612cc8565b80613a2f575060005460ff16155b613a6a5760405162461bcd60e51b815260040180806020018281038252602e815260200180613e29602e913960400191505060405180910390fd5b600054610100900460ff16158015613a95576000805460ff1961ff0019909116610100171660011790555b60016097558015613642576000805461ff001916905550565b606082471015613aef5760405162461bcd60e51b8152600401808060200182810382526026815260200180613e036026913960400191505060405180910390fd5b613af885613585565b613b49576040805162461bcd60e51b815260206004820152601d60248201527f416464726573733a2063616c6c20746f206e6f6e2d636f6e7472616374000000604482015290519081900360640190fd5b60006060866001600160a01b031685876040518082805190602001908083835b60208310613ba657805182527fffffffffffffffffffffffffffffffffffffffffffffffffffffffffffffffe09092019160209182019101613b69565b6001836020036101000a03801982511681845116808217855250505050505090500191505060006040518083038185875af1925050503d8060008114613c08576040519150601f19603f3d011682016040523d82523d6000602084013e613c0d565b606091505b5091509150613c1d828286613c28565b979650505050505050565b60608315613c375750816122a7565b825115613c475782518084602001fd5b8160405162461bcd60e51b81526004018080602001828103825283818151815260200191508051906020019080838360005b83811015613c91578181015183820152602001613c79565b50505050905090810190601f168015613cbe5780820380516001836020036101000a031916815260200191505b509250505060405180910390fd5b828054828255906000526020600020908101928215613d39579160200282015b82811115613d3957825182547fffffffffffffffffffffffff0000000000000000000000000000000000000000166001600160a01b03909116178255602090920191600190910190613cec565b50613d45929150613d90565b5090565b828054828255906000526020600020908101928215613d84579160200282015b82811115613d84578251825591602001919060010190613d69565b50613d45929150613dc7565b5b80821115613d455780547fffffffffffffffffffffffff0000000000000000000000000000000000000000168155600101613d91565b5b80821115613d455760008155600101613dc856fe4f776e61626c653a206e6577206f776e657220697320746865207a65726f2061646472657373416464726573733a20696e73756666696369656e742062616c616e636520666f722063616c6c496e697469616c697a61626c653a20636f6e747261637420697320616c726561647920696e697469616c697a6564536166654d6174683a206d756c7469706c69636174696f6e206f766572666c6f775361666545524332303a204552433230206f7065726174696f6e20646964206e6f742073756363656564a264697066735822122071d3ef409a548f4e3fb8b3d3c39cb405bd76fc599246e347f0060834d99a916d64736f6c634300060c0033",
  "libraries": {
    "SwapUtils": "0xBea9F78090bDB9e662d8CB301A00ad09A5b756e9",
    "AmplificationUtils": "0xcF70E2F3567ba396F3dd04822F78Ecd70Ba46894"
  },
  "devdoc": {
    "details": "Most of the logic is stored as a library `SwapUtils` for the sake of reducing contract's deployment size.",
    "kind": "dev",
    "methods": {
      "addLiquidity(uint256[],uint256,uint256)": {
        "params": {
          "amounts": "the amounts of each token to add, in their native precision",
          "deadline": "latest timestamp to accept this transaction",
          "minToMint": "the minimum LP tokens adding this amount of liquidity should mint, otherwise revert. Handy for front-running mitigation"
        },
        "returns": {
          "_0": "amount of LP token user minted and received"
        }
      },
      "calculateRemoveLiquidity(uint256)": {
        "params": {
          "amount": "the amount of LP tokens that would be burned on withdrawal"
        },
        "returns": {
          "_0": "array of token balances that the user will receive"
        }
      },
      "calculateRemoveLiquidityOneToken(uint256,uint8)": {
        "params": {
          "tokenAmount": "the amount of LP token to burn",
          "tokenIndex": "index of which token will be withdrawn"
        },
        "returns": {
          "availableTokenAmount": "calculated amount of underlying token available to withdraw"
        }
      },
      "calculateSwap(uint8,uint8,uint256)": {
        "params": {
          "dx": "the amount of tokens the user wants to sell. If the token charges a fee on transfers, use the amount that gets transferred after the fee.",
          "tokenIndexFrom": "the token the user wants to sell",
          "tokenIndexTo": "the token the user wants to buy"
        },
        "returns": {
          "_0": "amount of tokens the user will receive"
        }
      },
      "calculateTokenAmount(uint256[],bool)": {
        "details": "This shouldn't be used outside frontends for user estimates.",
        "params": {
          "amounts": "an array of token amounts to deposit or withdrawal, corresponding to pooledTokens. The amount should be in each pooled token's native precision. If a token charges a fee on transfers, use the amount that gets transferred after the fee.",
          "deposit": "whether this is a deposit or a withdrawal"
        },
        "returns": {
          "_0": "token amount the user will receive"
        }
      },
      "flashLoan(address,address,uint256,bytes)": {
        "params": {
          "amount": "the total amount to borrow in this transaction",
          "params": "optional data to pass along to the callback function",
          "receiver": "the address of the receiver of the token. This address must implement the IFlashLoanReceiver interface and the callback function `executeOperation`.",
          "token": "the protocol fee in bps to be applied on the total flash loan fee"
        }
      },
      "getA()": {
        "details": "See the StableSwap paper for details",
        "returns": {
          "_0": "A parameter"
        }
      },
      "getAPrecise()": {
        "details": "See the StableSwap paper for details",
        "returns": {
          "_0": "A parameter in its raw precision form"
        }
      },
      "getAdminBalance(uint256)": {
        "params": {
          "index": "Index of the pooled token"
        },
        "returns": {
          "_0": "admin's token balance in the token's precision"
        }
      },
      "getToken(uint8)": {
        "params": {
          "index": "the index of the token"
        },
        "returns": {
          "_0": "address of the token at given index"
        }
      },
      "getTokenBalance(uint8)": {
        "params": {
          "index": "the index of the token"
        },
        "returns": {
          "_0": "current balance of the pooled token at given index with token's native precision"
        }
      },
      "getTokenIndex(address)": {
        "params": {
          "tokenAddress": "address of the token"
        },
        "returns": {
          "_0": "the index of the given token address"
        }
      },
      "getVirtualPrice()": {
        "returns": {
          "_0": "the virtual price, scaled to the POOL_PRECISION_DECIMALS"
        }
      },
      "initialize(address[],uint8[],string,string,uint256,uint256,uint256,address)": {
        "params": {
          "_a": "the amplification coefficient * n * (n - 1). See the StableSwap paper for details",
          "_adminFee": "default adminFee to be initialized with",
          "_fee": "default swap fee to be initialized with",
          "_pooledTokens": "an array of ERC20s this pool will accept",
          "decimals": "the decimals to use for each pooled token, eg 8 for WBTC. Cannot be larger than POOL_PRECISION_DECIMALS",
          "lpTokenName": "the long-form name of the token to be deployed",
          "lpTokenSymbol": "the short symbol for the token to be deployed",
          "lpTokenTargetAddress": "the address of an existing LPToken contract to use as a target"
        }
      },
      "owner()": {
        "details": "Returns the address of the current owner."
      },
      "paused()": {
        "details": "Returns true if the contract is paused, and false otherwise."
      },
      "rampA(uint256,uint256)": {
        "params": {
          "futureA": "the new A to ramp towards",
          "futureTime": "timestamp when the new A should be reached"
        }
      },
      "removeLiquidity(uint256,uint256[],uint256)": {
        "details": "Liquidity can always be removed, even when the pool is paused.",
        "params": {
          "amount": "the amount of LP tokens to burn",
          "deadline": "latest timestamp to accept this transaction",
          "minAmounts": "the minimum amounts of each token in the pool        acceptable for this burn. Useful as a front-running mitigation"
        },
        "returns": {
          "_0": "amounts of tokens user received"
        }
      },
      "removeLiquidityImbalance(uint256[],uint256,uint256)": {
        "params": {
          "amounts": "how much of each token to withdraw",
          "deadline": "latest timestamp to accept this transaction",
          "maxBurnAmount": "the max LP token provider is willing to pay to remove liquidity. Useful as a front-running mitigation."
        },
        "returns": {
          "_0": "amount of LP tokens burned"
        }
      },
      "removeLiquidityOneToken(uint256,uint8,uint256,uint256)": {
        "params": {
          "deadline": "latest timestamp to accept this transaction",
          "minAmount": "the minimum amount to withdraw, otherwise revert",
          "tokenAmount": "the amount of the token you want to receive",
          "tokenIndex": "the index of the token you want to receive"
        },
        "returns": {
          "_0": "amount of chosen token user received"
        }
      },
      "renounceOwnership()": {
        "details": "Leaves the contract without owner. It will not be possible to call `onlyOwner` functions anymore. Can only be called by the current owner. NOTE: Renouncing ownership will leave the contract without an owner, thereby removing any functionality that is only available to the owner."
      },
      "setAdminFee(uint256)": {
        "params": {
          "newAdminFee": "new admin fee to be applied on future transactions"
        }
      },
      "setFlashLoanFees(uint256,uint256)": {
        "params": {
          "newFlashLoanFeeBPS": "the total fee in bps to be applied on future flash loans",
          "newProtocolFeeShareBPS": "the protocol fee in bps to be applied on the total flash loan fee"
        }
      },
      "setSwapFee(uint256)": {
        "params": {
          "newSwapFee": "new swap fee to be applied on future transactions"
        }
      },
      "swap(uint8,uint8,uint256,uint256,uint256)": {
        "params": {
          "deadline": "latest timestamp to accept this transaction",
          "dx": "the amount of tokens the user wants to swap from",
          "minDy": "the min amount the user would like to receive, or revert.",
          "tokenIndexFrom": "the token the user wants to swap from",
          "tokenIndexTo": "the token the user wants to swap to"
        }
      },
      "transferOwnership(address)": {
        "details": "Transfers ownership of the contract to a new account (`newOwner`). Can only be called by the current owner."
      }
    },
    "title": "Swap - A StableSwap implementation in solidity.",
    "version": 1
  },
  "userdoc": {
    "kind": "user",
    "methods": {
      "addLiquidity(uint256[],uint256,uint256)": {
        "notice": "Add liquidity to the pool with the given amounts of tokens"
      },
      "calculateRemoveLiquidity(uint256)": {
        "notice": "A simple method to calculate amount of each underlying tokens that is returned upon burning given amount of LP tokens"
      },
      "calculateRemoveLiquidityOneToken(uint256,uint8)": {
        "notice": "Calculate the amount of underlying token available to withdraw when withdrawing via only single token"
      },
      "calculateSwap(uint8,uint8,uint256)": {
        "notice": "Calculate amount of tokens you receive on swap"
      },
      "calculateTokenAmount(uint256[],bool)": {
        "notice": "A simple method to calculate prices from deposits or withdrawals, excluding fees but including slippage. This is helpful as an input into the various \"min\" parameters on calls to fight front-running"
      },
      "flashLoan(address,address,uint256,bytes)": {
        "notice": "Borrow the specified token from this pool for this transaction only. This function will call `IFlashLoanReceiver(receiver).executeOperation` and the `receiver` must return the full amount of the token and the associated fee by the end of the callback transaction. If the conditions are not met, this call is reverted."
      },
      "getA()": {
        "notice": "Return A, the amplification coefficient * n * (n - 1)"
      },
      "getAPrecise()": {
        "notice": "Return A in its raw precision form"
      },
      "getAdminBalance(uint256)": {
        "notice": "This function reads the accumulated amount of admin fees of the token with given index"
      },
      "getToken(uint8)": {
        "notice": "Return address of the pooled token at given index. Reverts if tokenIndex is out of range."
      },
      "getTokenBalance(uint8)": {
        "notice": "Return current balance of the pooled token at given index"
      },
      "getTokenIndex(address)": {
        "notice": "Return the index of the given token address. Reverts if no matching token is found."
      },
      "getVirtualPrice()": {
        "notice": "Get the virtual price, to help calculate profit"
      },
      "initialize(address[],uint8[],string,string,uint256,uint256,uint256,address)": {
        "notice": "Initializes this Swap contract with the given parameters. This will also clone a LPToken contract that represents users' LP positions. The owner of LPToken will be this contract - which means only this contract is allowed to mint/burn tokens."
      },
      "pause()": {
        "notice": "Pause the contract. Revert if already paused."
      },
      "rampA(uint256,uint256)": {
        "notice": "Start ramping up or down A parameter towards given futureA and futureTime Checks if the change is too rapid, and commits the new A value only when it falls under the limit range."
      },
      "removeLiquidity(uint256,uint256[],uint256)": {
        "notice": "Burn LP tokens to remove liquidity from the pool. Withdraw fee that decays linearly over period of 4 weeks since last deposit will apply."
      },
      "removeLiquidityImbalance(uint256[],uint256,uint256)": {
        "notice": "Remove liquidity from the pool, weighted differently than the pool's current balances. Withdraw fee that decays linearly over period of 4 weeks since last deposit will apply."
      },
      "removeLiquidityOneToken(uint256,uint8,uint256,uint256)": {
        "notice": "Remove liquidity from the pool all in one token. Withdraw fee that decays linearly over period of 4 weeks since last deposit will apply."
      },
      "setAdminFee(uint256)": {
        "notice": "Update the admin fee. Admin fee takes portion of the swap fee."
      },
      "setFlashLoanFees(uint256,uint256)": {
        "notice": "Updates the flash loan fee parameters. This function can only be called by the owner."
      },
      "setSwapFee(uint256)": {
        "notice": "Update the swap fee to be applied on swaps"
      },
      "stopRampA()": {
        "notice": "Stop ramping A immediately. Reverts if ramp A is already stopped."
      },
      "swap(uint8,uint8,uint256,uint256,uint256)": {
        "notice": "Swap two tokens using this pool"
      },
      "unpause()": {
        "notice": "Unpause the contract. Revert if already unpaused."
      },
      "withdrawAdminFees()": {
        "notice": "Withdraw all admin fees to the contract owner"
      }
    },
    "notice": "This contract is responsible for custody of closely pegged assets (eg. group of stablecoins) and automatic market making system. Users become an LP (Liquidity Provider) by depositing their tokens in desired ratios for an exchange of the pool token that represents their share of the pool. Users can burn pool tokens and withdraw their share of token(s). Each time a swap between the pooled tokens happens, a set fee incurs which effectively gets distributed to the LPs. In case of emergencies, admin can pause additional deposits, swaps, or single-asset withdraws - which stops the ratio of the tokens in the pool from changing. Users can always withdraw their tokens via multi-asset withdraws.",
    "version": 1
  },
  "storageLayout": {
    "storage": [
      {
        "astId": 492,
        "contract": "contracts/SwapFlashLoan.sol:SwapFlashLoan",
        "label": "_initialized",
        "offset": 0,
        "slot": "0",
        "type": "t_bool"
      },
      {
        "astId": 495,
        "contract": "contracts/SwapFlashLoan.sol:SwapFlashLoan",
        "label": "_initializing",
        "offset": 1,
        "slot": "0",
        "type": "t_bool"
      },
      {
        "astId": 1531,
        "contract": "contracts/SwapFlashLoan.sol:SwapFlashLoan",
        "label": "__gap",
        "offset": 0,
        "slot": "1",
        "type": "t_array(t_uint256)50_storage"
      },
      {
        "astId": 10,
        "contract": "contracts/SwapFlashLoan.sol:SwapFlashLoan",
        "label": "_owner",
        "offset": 0,
        "slot": "51",
        "type": "t_address"
      },
      {
        "astId": 129,
        "contract": "contracts/SwapFlashLoan.sol:SwapFlashLoan",
        "label": "__gap",
        "offset": 0,
        "slot": "52",
        "type": "t_array(t_uint256)49_storage"
      },
      {
        "astId": 1553,
        "contract": "contracts/SwapFlashLoan.sol:SwapFlashLoan",
        "label": "_paused",
        "offset": 0,
        "slot": "101",
        "type": "t_bool"
      },
      {
        "astId": 1644,
        "contract": "contracts/SwapFlashLoan.sol:SwapFlashLoan",
        "label": "__gap",
        "offset": 0,
        "slot": "102",
        "type": "t_array(t_uint256)49_storage"
      },
      {
        "astId": 1659,
        "contract": "contracts/SwapFlashLoan.sol:SwapFlashLoan",
        "label": "_status",
        "offset": 0,
        "slot": "151",
        "type": "t_uint256"
      },
      {
        "astId": 1702,
        "contract": "contracts/SwapFlashLoan.sol:SwapFlashLoan",
        "label": "__gap",
        "offset": 0,
        "slot": "152",
        "type": "t_array(t_uint256)49_storage"
      },
      {
        "astId": 7779,
        "contract": "contracts/SwapFlashLoan.sol:SwapFlashLoan",
        "label": "swapStorage",
        "offset": 0,
        "slot": "201",
        "type": "t_struct(Swap)9655_storage"
      },
      {
        "astId": 7783,
        "contract": "contracts/SwapFlashLoan.sol:SwapFlashLoan",
        "label": "tokenIndexes",
        "offset": 0,
        "slot": "211",
        "type": "t_mapping(t_address,t_uint8)"
      },
      {
        "astId": 8854,
        "contract": "contracts/SwapFlashLoan.sol:SwapFlashLoan",
        "label": "flashLoanFeeBPS",
        "offset": 0,
        "slot": "212",
        "type": "t_uint256"
      },
      {
        "astId": 8856,
        "contract": "contracts/SwapFlashLoan.sol:SwapFlashLoan",
        "label": "protocolFeeShareBPS",
        "offset": 0,
        "slot": "213",
        "type": "t_uint256"
      }
    ],
    "types": {
      "t_address": {
        "encoding": "inplace",
        "label": "address",
        "numberOfBytes": "20"
      },
      "t_array(t_contract(IERC20)3311)dyn_storage": {
        "base": "t_contract(IERC20)3311",
        "encoding": "dynamic_array",
        "label": "contract IERC20[]",
        "numberOfBytes": "32"
      },
      "t_array(t_uint256)49_storage": {
        "base": "t_uint256",
        "encoding": "inplace",
        "label": "uint256[49]",
        "numberOfBytes": "1568"
      },
      "t_array(t_uint256)50_storage": {
        "base": "t_uint256",
        "encoding": "inplace",
        "label": "uint256[50]",
        "numberOfBytes": "1600"
      },
      "t_array(t_uint256)dyn_storage": {
        "base": "t_uint256",
        "encoding": "dynamic_array",
        "label": "uint256[]",
        "numberOfBytes": "32"
      },
      "t_bool": {
        "encoding": "inplace",
        "label": "bool",
        "numberOfBytes": "1"
      },
      "t_contract(IERC20)3311": {
        "encoding": "inplace",
        "label": "contract IERC20",
        "numberOfBytes": "20"
      },
      "t_contract(LPToken)7402": {
        "encoding": "inplace",
        "label": "contract LPToken",
        "numberOfBytes": "20"
      },
      "t_mapping(t_address,t_uint8)": {
        "encoding": "mapping",
        "key": "t_address",
        "label": "mapping(address => uint8)",
        "numberOfBytes": "32",
        "value": "t_uint8"
      },
      "t_struct(Swap)9655_storage": {
        "encoding": "inplace",
        "label": "struct SwapUtils.Swap",
        "members": [
          {
            "astId": 9633,
            "contract": "contracts/SwapFlashLoan.sol:SwapFlashLoan",
            "label": "initialA",
            "offset": 0,
            "slot": "0",
            "type": "t_uint256"
          },
          {
            "astId": 9635,
            "contract": "contracts/SwapFlashLoan.sol:SwapFlashLoan",
            "label": "futureA",
            "offset": 0,
            "slot": "1",
            "type": "t_uint256"
          },
          {
            "astId": 9637,
            "contract": "contracts/SwapFlashLoan.sol:SwapFlashLoan",
            "label": "initialATime",
            "offset": 0,
            "slot": "2",
            "type": "t_uint256"
          },
          {
            "astId": 9639,
            "contract": "contracts/SwapFlashLoan.sol:SwapFlashLoan",
            "label": "futureATime",
            "offset": 0,
            "slot": "3",
            "type": "t_uint256"
          },
          {
            "astId": 9641,
            "contract": "contracts/SwapFlashLoan.sol:SwapFlashLoan",
            "label": "swapFee",
            "offset": 0,
            "slot": "4",
            "type": "t_uint256"
          },
          {
            "astId": 9643,
            "contract": "contracts/SwapFlashLoan.sol:SwapFlashLoan",
            "label": "adminFee",
            "offset": 0,
            "slot": "5",
            "type": "t_uint256"
          },
          {
            "astId": 9645,
            "contract": "contracts/SwapFlashLoan.sol:SwapFlashLoan",
            "label": "lpToken",
            "offset": 0,
            "slot": "6",
            "type": "t_contract(LPToken)7402"
          },
          {
            "astId": 9648,
            "contract": "contracts/SwapFlashLoan.sol:SwapFlashLoan",
            "label": "pooledTokens",
            "offset": 0,
            "slot": "7",
            "type": "t_array(t_contract(IERC20)3311)dyn_storage"
          },
          {
            "astId": 9651,
            "contract": "contracts/SwapFlashLoan.sol:SwapFlashLoan",
            "label": "tokenPrecisionMultipliers",
            "offset": 0,
            "slot": "8",
            "type": "t_array(t_uint256)dyn_storage"
          },
          {
            "astId": 9654,
            "contract": "contracts/SwapFlashLoan.sol:SwapFlashLoan",
            "label": "balances",
            "offset": 0,
            "slot": "9",
            "type": "t_array(t_uint256)dyn_storage"
          }
        ],
        "numberOfBytes": "320"
      },
      "t_uint256": {
        "encoding": "inplace",
        "label": "uint256",
        "numberOfBytes": "32"
      },
      "t_uint8": {
        "encoding": "inplace",
        "label": "uint8",
        "numberOfBytes": "1"
      }
    }
  }
}