{
  "address": "0x19cA42B5e67DFd742C38eCe8Afc00F0D3e7D7485",
  "abi": [
    {
      "anonymous": false,
      "inputs": [
        {
          "indexed": true,
          "internalType": "address",
          "name": "provider",
          "type": "address"
        },
        {
          "indexed": false,
          "internalType": "uint256[]",
          "name": "tokenAmounts",
          "type": "uint256[]"
        },
        {
          "indexed": false,
          "internalType": "uint256[]",
          "name": "fees",
          "type": "uint256[]"
        },
        {
          "indexed": false,
          "internalType": "uint256",
          "name": "invariant",
          "type": "uint256"
        },
        {
          "indexed": false,
          "internalType": "uint256",
          "name": "lpTokenSupply",
          "type": "uint256"
        }
      ],
      "name": "AddLiquidity",
      "type": "event"
    },
    {
      "anonymous": false,
      "inputs": [
        {
          "indexed": true,
          "internalType": "address",
          "name": "receiver",
          "type": "address"
        },
        {
          "indexed": false,
          "internalType": "uint8",
          "name": "tokenIndex",
          "type": "uint8"
        },
        {
          "indexed": false,
          "internalType": "uint256",
          "name": "amount",
          "type": "uint256"
        },
        {
          "indexed": false,
          "internalType": "uint256",
          "name": "amountFee",
          "type": "uint256"
        },
        {
          "indexed": false,
          "internalType": "uint256",
          "name": "protocolFee",
          "type": "uint256"
        }
      ],
      "name": "FlashLoan",
      "type": "event"
    },
    {
      "anonymous": false,
      "inputs": [
        {
          "indexed": false,
          "internalType": "uint256",
          "name": "newAdminFee",
          "type": "uint256"
        }
      ],
      "name": "NewAdminFee",
      "type": "event"
    },
    {
      "anonymous": false,
      "inputs": [
        {
          "indexed": false,
          "internalType": "uint256",
          "name": "newSwapFee",
          "type": "uint256"
        }
      ],
      "name": "NewSwapFee",
      "type": "event"
    },
    {
      "anonymous": false,
      "inputs": [
        {
          "indexed": false,
          "internalType": "uint256",
          "name": "newWithdrawFee",
          "type": "uint256"
        }
      ],
      "name": "NewWithdrawFee",
      "type": "event"
    },
    {
      "anonymous": false,
      "inputs": [
        {
          "indexed": true,
          "internalType": "address",
          "name": "previousOwner",
          "type": "address"
        },
        {
          "indexed": true,
          "internalType": "address",
          "name": "newOwner",
          "type": "address"
        }
      ],
      "name": "OwnershipTransferred",
      "type": "event"
    },
    {
      "anonymous": false,
      "inputs": [
        {
          "indexed": false,
          "internalType": "address",
          "name": "account",
          "type": "address"
        }
      ],
      "name": "Paused",
      "type": "event"
    },
    {
      "anonymous": false,
      "inputs": [
        {
          "indexed": false,
          "internalType": "uint256",
          "name": "oldA",
          "type": "uint256"
        },
        {
          "indexed": false,
          "internalType": "uint256",
          "name": "newA",
          "type": "uint256"
        },
        {
          "indexed": false,
          "internalType": "uint256",
          "name": "initialTime",
          "type": "uint256"
        },
        {
          "indexed": false,
          "internalType": "uint256",
          "name": "futureTime",
          "type": "uint256"
        }
      ],
      "name": "RampA",
      "type": "event"
    },
    {
      "anonymous": false,
      "inputs": [
        {
          "indexed": true,
          "internalType": "address",
          "name": "provider",
          "type": "address"
        },
        {
          "indexed": false,
          "internalType": "uint256[]",
          "name": "tokenAmounts",
          "type": "uint256[]"
        },
        {
          "indexed": false,
          "internalType": "uint256",
          "name": "lpTokenSupply",
          "type": "uint256"
        }
      ],
      "name": "RemoveLiquidity",
      "type": "event"
    },
    {
      "anonymous": false,
      "inputs": [
        {
          "indexed": true,
          "internalType": "address",
          "name": "provider",
          "type": "address"
        },
        {
          "indexed": false,
          "internalType": "uint256[]",
          "name": "tokenAmounts",
          "type": "uint256[]"
        },
        {
          "indexed": false,
          "internalType": "uint256[]",
          "name": "fees",
          "type": "uint256[]"
        },
        {
          "indexed": false,
          "internalType": "uint256",
          "name": "invariant",
          "type": "uint256"
        },
        {
          "indexed": false,
          "internalType": "uint256",
          "name": "lpTokenSupply",
          "type": "uint256"
        }
      ],
      "name": "RemoveLiquidityImbalance",
      "type": "event"
    },
    {
      "anonymous": false,
      "inputs": [
        {
          "indexed": true,
          "internalType": "address",
          "name": "provider",
          "type": "address"
        },
        {
          "indexed": false,
          "internalType": "uint256",
          "name": "lpTokenAmount",
          "type": "uint256"
        },
        {
          "indexed": false,
          "internalType": "uint256",
          "name": "lpTokenSupply",
          "type": "uint256"
        },
        {
          "indexed": false,
          "internalType": "uint256",
          "name": "boughtId",
          "type": "uint256"
        },
        {
          "indexed": false,
          "internalType": "uint256",
          "name": "tokensBought",
          "type": "uint256"
        }
      ],
      "name": "RemoveLiquidityOne",
      "type": "event"
    },
    {
      "anonymous": false,
      "inputs": [
        {
          "indexed": false,
          "internalType": "uint256",
          "name": "currentA",
          "type": "uint256"
        },
        {
          "indexed": false,
          "internalType": "uint256",
          "name": "time",
          "type": "uint256"
        }
      ],
      "name": "StopRampA",
      "type": "event"
    },
    {
      "anonymous": false,
      "inputs": [
        {
          "indexed": true,
          "internalType": "address",
          "name": "buyer",
          "type": "address"
        },
        {
          "indexed": false,
          "internalType": "uint256",
          "name": "tokensSold",
          "type": "uint256"
        },
        {
          "indexed": false,
          "internalType": "uint256",
          "name": "tokensBought",
          "type": "uint256"
        },
        {
          "indexed": false,
          "internalType": "uint128",
          "name": "soldId",
          "type": "uint128"
        },
        {
          "indexed": false,
          "internalType": "uint128",
          "name": "boughtId",
          "type": "uint128"
        }
      ],
      "name": "TokenSwap",
      "type": "event"
    },
    {
      "anonymous": false,
      "inputs": [
        {
          "indexed": false,
          "internalType": "address",
          "name": "account",
          "type": "address"
        }
      ],
      "name": "Unpaused",
      "type": "event"
    },
    {
      "inputs": [],
      "name": "MAX_BPS",
      "outputs": [
        {
          "internalType": "uint256",
          "name": "",
          "type": "uint256"
        }
      ],
      "stateMutability": "view",
      "type": "function"
    },
    {
      "inputs": [
        {
          "internalType": "uint256[]",
          "name": "amounts",
          "type": "uint256[]"
        },
        {
          "internalType": "uint256",
          "name": "minToMint",
          "type": "uint256"
        },
        {
          "internalType": "uint256",
          "name": "deadline",
          "type": "uint256"
        }
      ],
      "name": "addLiquidity",
      "outputs": [
        {
          "internalType": "uint256",
          "name": "",
          "type": "uint256"
        }
      ],
      "stateMutability": "nonpayable",
      "type": "function"
    },
    {
      "inputs": [
        {
          "internalType": "uint256",
          "name": "amount",
          "type": "uint256"
        }
      ],
      "name": "calculateRemoveLiquidity",
      "outputs": [
        {
          "internalType": "uint256[]",
          "name": "",
          "type": "uint256[]"
        }
      ],
      "stateMutability": "view",
      "type": "function"
    },
    {
      "inputs": [
        {
          "internalType": "uint256",
          "name": "tokenAmount",
          "type": "uint256"
        },
        {
          "internalType": "uint8",
          "name": "tokenIndex",
          "type": "uint8"
        }
      ],
      "name": "calculateRemoveLiquidityOneToken",
      "outputs": [
        {
          "internalType": "uint256",
          "name": "availableTokenAmount",
          "type": "uint256"
        }
      ],
      "stateMutability": "view",
      "type": "function"
    },
    {
      "inputs": [
        {
          "internalType": "uint8",
          "name": "tokenIndexFrom",
          "type": "uint8"
        },
        {
          "internalType": "uint8",
          "name": "tokenIndexTo",
          "type": "uint8"
        },
        {
          "internalType": "uint256",
          "name": "dx",
          "type": "uint256"
        }
      ],
      "name": "calculateSwap",
      "outputs": [
        {
          "internalType": "uint256",
          "name": "",
          "type": "uint256"
        }
      ],
      "stateMutability": "view",
      "type": "function"
    },
    {
      "inputs": [
        {
          "internalType": "uint256[]",
          "name": "amounts",
          "type": "uint256[]"
        },
        {
          "internalType": "bool",
          "name": "deposit",
          "type": "bool"
        }
      ],
      "name": "calculateTokenAmount",
      "outputs": [
        {
          "internalType": "uint256",
          "name": "",
          "type": "uint256"
        }
      ],
      "stateMutability": "view",
      "type": "function"
    },
    {
      "inputs": [
        {
          "internalType": "address",
          "name": "receiver",
          "type": "address"
        },
        {
          "internalType": "contract IERC20",
          "name": "token",
          "type": "address"
        },
        {
          "internalType": "uint256",
          "name": "amount",
          "type": "uint256"
        },
        {
          "internalType": "bytes",
          "name": "params",
          "type": "bytes"
        }
      ],
      "name": "flashLoan",
      "outputs": [],
      "stateMutability": "nonpayable",
      "type": "function"
    },
    {
      "inputs": [],
      "name": "flashLoanFeeBPS",
      "outputs": [
        {
          "internalType": "uint256",
          "name": "",
          "type": "uint256"
        }
      ],
      "stateMutability": "view",
      "type": "function"
    },
    {
      "inputs": [],
      "name": "getA",
      "outputs": [
        {
          "internalType": "uint256",
          "name": "",
          "type": "uint256"
        }
      ],
      "stateMutability": "view",
      "type": "function"
    },
    {
      "inputs": [],
      "name": "getAPrecise",
      "outputs": [
        {
          "internalType": "uint256",
          "name": "",
          "type": "uint256"
        }
      ],
      "stateMutability": "view",
      "type": "function"
    },
    {
      "inputs": [
        {
          "internalType": "uint256",
          "name": "index",
          "type": "uint256"
        }
      ],
      "name": "getAdminBalance",
      "outputs": [
        {
          "internalType": "uint256",
          "name": "",
          "type": "uint256"
        }
      ],
      "stateMutability": "view",
      "type": "function"
    },
    {
      "inputs": [
        {
          "internalType": "uint8",
          "name": "index",
          "type": "uint8"
        }
      ],
      "name": "getToken",
      "outputs": [
        {
          "internalType": "contract IERC20",
          "name": "",
          "type": "address"
        }
      ],
      "stateMutability": "view",
      "type": "function"
    },
    {
      "inputs": [
        {
          "internalType": "uint8",
          "name": "index",
          "type": "uint8"
        }
      ],
      "name": "getTokenBalance",
      "outputs": [
        {
          "internalType": "uint256",
          "name": "",
          "type": "uint256"
        }
      ],
      "stateMutability": "view",
      "type": "function"
    },
    {
      "inputs": [
        {
          "internalType": "address",
          "name": "tokenAddress",
          "type": "address"
        }
      ],
      "name": "getTokenIndex",
      "outputs": [
        {
          "internalType": "uint8",
          "name": "",
          "type": "uint8"
        }
      ],
      "stateMutability": "view",
      "type": "function"
    },
    {
      "inputs": [],
      "name": "getVirtualPrice",
      "outputs": [
        {
          "internalType": "uint256",
          "name": "",
          "type": "uint256"
        }
      ],
      "stateMutability": "view",
      "type": "function"
    },
    {
      "inputs": [
        {
          "internalType": "contract IERC20[]",
          "name": "_pooledTokens",
          "type": "address[]"
        },
        {
          "internalType": "uint8[]",
          "name": "decimals",
          "type": "uint8[]"
        },
        {
          "internalType": "string",
          "name": "lpTokenName",
          "type": "string"
        },
        {
          "internalType": "string",
          "name": "lpTokenSymbol",
          "type": "string"
        },
        {
          "internalType": "uint256",
          "name": "_a",
          "type": "uint256"
        },
        {
          "internalType": "uint256",
          "name": "_fee",
          "type": "uint256"
        },
        {
          "internalType": "uint256",
          "name": "_adminFee",
          "type": "uint256"
        },
        {
          "internalType": "address",
          "name": "lpTokenTargetAddress",
          "type": "address"
        }
      ],
      "name": "initialize",
      "outputs": [],
      "stateMutability": "nonpayable",
      "type": "function"
    },
    {
      "inputs": [],
      "name": "owner",
      "outputs": [
        {
          "internalType": "address",
          "name": "",
          "type": "address"
        }
      ],
      "stateMutability": "view",
      "type": "function"
    },
    {
      "inputs": [],
      "name": "pause",
      "outputs": [],
      "stateMutability": "nonpayable",
      "type": "function"
    },
    {
      "inputs": [],
      "name": "paused",
      "outputs": [
        {
          "internalType": "bool",
          "name": "",
          "type": "bool"
        }
      ],
      "stateMutability": "view",
      "type": "function"
    },
    {
      "inputs": [],
      "name": "protocolFeeShareBPS",
      "outputs": [
        {
          "internalType": "uint256",
          "name": "",
          "type": "uint256"
        }
      ],
      "stateMutability": "view",
      "type": "function"
    },
    {
      "inputs": [
        {
          "internalType": "uint256",
          "name": "futureA",
          "type": "uint256"
        },
        {
          "internalType": "uint256",
          "name": "futureTime",
          "type": "uint256"
        }
      ],
      "name": "rampA",
      "outputs": [],
      "stateMutability": "nonpayable",
      "type": "function"
    },
    {
      "inputs": [
        {
          "internalType": "uint256",
          "name": "amount",
          "type": "uint256"
        },
        {
          "internalType": "uint256[]",
          "name": "minAmounts",
          "type": "uint256[]"
        },
        {
          "internalType": "uint256",
          "name": "deadline",
          "type": "uint256"
        }
      ],
      "name": "removeLiquidity",
      "outputs": [
        {
          "internalType": "uint256[]",
          "name": "",
          "type": "uint256[]"
        }
      ],
      "stateMutability": "nonpayable",
      "type": "function"
    },
    {
      "inputs": [
        {
          "internalType": "uint256[]",
          "name": "amounts",
          "type": "uint256[]"
        },
        {
          "internalType": "uint256",
          "name": "maxBurnAmount",
          "type": "uint256"
        },
        {
          "internalType": "uint256",
          "name": "deadline",
          "type": "uint256"
        }
      ],
      "name": "removeLiquidityImbalance",
      "outputs": [
        {
          "internalType": "uint256",
          "name": "",
          "type": "uint256"
        }
      ],
      "stateMutability": "nonpayable",
      "type": "function"
    },
    {
      "inputs": [
        {
          "internalType": "uint256",
          "name": "tokenAmount",
          "type": "uint256"
        },
        {
          "internalType": "uint8",
          "name": "tokenIndex",
          "type": "uint8"
        },
        {
          "internalType": "uint256",
          "name": "minAmount",
          "type": "uint256"
        },
        {
          "internalType": "uint256",
          "name": "deadline",
          "type": "uint256"
        }
      ],
      "name": "removeLiquidityOneToken",
      "outputs": [
        {
          "internalType": "uint256",
          "name": "",
          "type": "uint256"
        }
      ],
      "stateMutability": "nonpayable",
      "type": "function"
    },
    {
      "inputs": [],
      "name": "renounceOwnership",
      "outputs": [],
      "stateMutability": "nonpayable",
      "type": "function"
    },
    {
      "inputs": [
        {
          "internalType": "uint256",
          "name": "newAdminFee",
          "type": "uint256"
        }
      ],
      "name": "setAdminFee",
      "outputs": [],
      "stateMutability": "nonpayable",
      "type": "function"
    },
    {
      "inputs": [
        {
          "internalType": "uint256",
          "name": "newFlashLoanFeeBPS",
          "type": "uint256"
        },
        {
          "internalType": "uint256",
          "name": "newProtocolFeeShareBPS",
          "type": "uint256"
        }
      ],
      "name": "setFlashLoanFees",
      "outputs": [],
      "stateMutability": "nonpayable",
      "type": "function"
    },
    {
      "inputs": [
        {
          "internalType": "uint256",
          "name": "newSwapFee",
          "type": "uint256"
        }
      ],
      "name": "setSwapFee",
      "outputs": [],
      "stateMutability": "nonpayable",
      "type": "function"
    },
    {
      "inputs": [],
      "name": "stopRampA",
      "outputs": [],
      "stateMutability": "nonpayable",
      "type": "function"
    },
    {
      "inputs": [
        {
          "internalType": "uint8",
          "name": "tokenIndexFrom",
          "type": "uint8"
        },
        {
          "internalType": "uint8",
          "name": "tokenIndexTo",
          "type": "uint8"
        },
        {
          "internalType": "uint256",
          "name": "dx",
          "type": "uint256"
        },
        {
          "internalType": "uint256",
          "name": "minDy",
          "type": "uint256"
        },
        {
          "internalType": "uint256",
          "name": "deadline",
          "type": "uint256"
        }
      ],
      "name": "swap",
      "outputs": [
        {
          "internalType": "uint256",
          "name": "",
          "type": "uint256"
        }
      ],
      "stateMutability": "nonpayable",
      "type": "function"
    },
    {
      "inputs": [],
      "name": "swapStorage",
      "outputs": [
        {
          "internalType": "uint256",
          "name": "initialA",
          "type": "uint256"
        },
        {
          "internalType": "uint256",
          "name": "futureA",
          "type": "uint256"
        },
        {
          "internalType": "uint256",
          "name": "initialATime",
          "type": "uint256"
        },
        {
          "internalType": "uint256",
          "name": "futureATime",
          "type": "uint256"
        },
        {
          "internalType": "uint256",
          "name": "swapFee",
          "type": "uint256"
        },
        {
          "internalType": "uint256",
          "name": "adminFee",
          "type": "uint256"
        },
        {
          "internalType": "contract LPToken",
          "name": "lpToken",
          "type": "address"
        }
      ],
      "stateMutability": "view",
      "type": "function"
    },
    {
      "inputs": [
        {
          "internalType": "address",
          "name": "newOwner",
          "type": "address"
        }
      ],
      "name": "transferOwnership",
      "outputs": [],
      "stateMutability": "nonpayable",
      "type": "function"
    },
    {
      "inputs": [],
      "name": "unpause",
      "outputs": [],
      "stateMutability": "nonpayable",
      "type": "function"
    },
    {
      "inputs": [],
      "name": "withdrawAdminFees",
      "outputs": [],
      "stateMutability": "nonpayable",
      "type": "function"
    }
  ],
  "transactionHash": "0x724e10747d82e5b8df2ce400a5001aadcdd57a633d08f1276e459e5c03bba213",
  "args": [],
  "solcInputHash": "5700086fe9ecd846ff56da9e2d80d02b",
  "bytecode": "0x60806040523480156200001c576000806200001962000023565b50505b5062000090565b632a2a7adb598160e01b8152600481016020815285602082015260005b868110156200005d57808601518282016040015260200162000040565b506020828760640184336000905af158600e01573d6000803e3d6000fd5b3d6001141558600a015760016000f35b505050565b6158ce80620000a06000396000f3fe60806040523480156200001c576000806200001962004e0e565b50505b5060043610620002675760003560e01c806384cdd9bc1162000152578063d46300fd11620000da578063ef0a712f11620000a4578063f2fad2b61162000086578063f2fad2b61462000cdd578063f2fde38b1462000d08578063fd967f471462000d3c5762000267565b8063ef0a712f1462000c81578063ef8159671462000cac5762000267565b8063d46300fd1462000bbf578063e25aa5fa1462000bc9578063e6ab28061462000bd3578063e8cc7fb61462000c775762000267565b806391ceb3eb116200011c57806391ceb3eb146200085d578063a95b089f146200088b578063b28cb6dc14620008c9578063c4db7fa01462000bb55762000267565b806384cdd9bc14620007365780638beb60b614620007de5780638da5cb5b14620008095780639169558614620008135762000267565b8063593d132c11620001f457806366c0bd2411620001be5780637f1c825a11620001a05780637f1c825a14620006d857806382b8660014620006e25780638456cb59146200072c5762000267565b806366c0bd241462000684578063715018a614620006ce5762000267565b8063593d132c14620004ee5780635c975abb146200051f5780635cffe9de146200053d5780635fd65f0f14620006345762000267565b806334e19907116200023657806334e1990714620003d15780633e3a156014620003fc5780633f4ba83a146200043c5780634d49e87d14620004465762000267565b80630419b45a14620002775780630ba81959146200028357806331cd52b0146200029f578063342a87a1146200039d575b6000806200027462004e0e565b50505b6200028162000d46565b005b6200028d62000e95565b60405190815260200160405180910390f35b6200034860048036036060811015620002c257600080620002bf62004e0e565b50505b81359190810190604081016020820135640100000000811115620002f057600080620002ed62004e0e565b50505b8201836020820111156200030e576000806200030b62004e0e565b50505b803590602001918460208302840111640100000000831117156200033c576000806200033962004e0e565b50505b91935091503562000f75565b60405160208082528190810183818151815260200191508051906020019060200280838360005b83811015620003895780820151838201526020016200036f565b505050509050019250505060405180910390f35b6200028d60048036036040811015620003c057600080620003bd62004e0e565b50505b508035906020013560ff1662001237565b6200028160048036036020811015620003f457600080620003f162004e0e565b50505b50356200132d565b6200028d600480360360808110156200041f576000806200041c62004e0e565b50505b5080359060ff60208201351690604081013590606001356200146b565b62000281620016c0565b6200028d6004803603606081101562000469576000806200046662004e0e565b50505b81019060208101813564010000000081111562000490576000806200048d62004e0e565b50505b820183602082011115620004ae57600080620004ab62004e0e565b50505b80359060200191846020830284011164010000000083111715620004dc57600080620004d962004e0e565b50505b9193509150803590602001356200174f565b620002816004803603604081101562000511576000806200050e62004e0e565b50505b508035906020013562001929565b6200052962001a70565b604051901515815260200160405180910390f35b620002816004803603608081101562000560576000806200055d62004e0e565b50505b6001600160a01b03823581169260208101359091169160408201359190810190608081016060820135640100000000811115620005a757600080620005a462004e0e565b50505b820183602082011115620005c557600080620005c262004e0e565b50505b80359060200191846001830284011164010000000083111715620005f357600080620005f062004e0e565b50505b91908080601f016020809104026020016040519081016040528181529291906020840183838082843760009201919091525092955062001a8e945050505050565b6200063e6200219c565b60405196875260208701959095526040808701949094526060860192909252608085015260a08401526001600160a01b0390911660c083015260e0909101905180910390f35b620006b860048036036020811015620006a757600080620006a462004e0e565b50505b50356001600160a01b03166200221a565b60405160ff909116815260200160405180910390f35b62000281620022cc565b6200028d620023dd565b620007106004803603602081101562000705576000806200070262004e0e565b50505b503560ff16620023ec565b6040516001600160a01b03909116815260200160405180910390f35b62000281620024a6565b6200028d6004803603606081101562000759576000806200075662004e0e565b50505b81019060208101813564010000000081111562000780576000806200077d62004e0e565b50505b8201836020820111156200079e576000806200079b62004e0e565b50505b80359060200191846020830284011164010000000083111715620007cc57600080620007c962004e0e565b50505b91935091508035906020013562002533565b62000281600480360360208110156200080157600080620007fe62004e0e565b50505b50356200270d565b62000710620027fe565b6200028d600480360360a081101562000836576000806200083362004e0e565b50505b5060ff81358116916020810135909116906040810135906060810135906080013562002822565b6200028d6004803603602081101562000880576000806200087d62004e0e565b50505b503560ff1662002a8f565b6200028d60048036036060811015620008ae57600080620008ab62004e0e565b50505b5060ff81358116916020810135909116906040013562002b2f565b620002816004803603610100811015620008ed57600080620008ea62004e0e565b50505b81019060208101813564010000000081111562000914576000806200091162004e0e565b50505b82018360208201111562000932576000806200092f62004e0e565b50505b8035906020019184602083028401116401000000008311171562000960576000806200095d62004e0e565b50505b9190808060200260200160405190810160405280939291908181526020018383602002808284376000920191909152509295949360208101935035915050640100000000811115620009bc57600080620009b962004e0e565b50505b820183602082011115620009da57600080620009d762004e0e565b50505b8035906020019184602083028401116401000000008311171562000a085760008062000a0562004e0e565b50505b919080806020026020016040519081016040528093929190818152602001838360200280828437600092019190915250929594936020810193503591505064010000000081111562000a645760008062000a6162004e0e565b50505b82018360208201111562000a825760008062000a7f62004e0e565b50505b8035906020019184600183028401116401000000008311171562000ab05760008062000aad62004e0e565b50505b91908080601f0160208091040260200160405190810160405281815292919060208401838380828437600092019190915250929594936020810193503591505064010000000081111562000b0e5760008062000b0b62004e0e565b50505b82018360208201111562000b2c5760008062000b2962004e0e565b50505b8035906020019184600183028401116401000000008311171562000b5a5760008062000b5762004e0e565b50505b91908080601f016020809104026020016040519081016040528181529291906020840183838082843760009201919091525092955050823593505050602081013590604081013590606001356001600160a01b031662002c2d565b6200028162002db1565b6200028d62002e9c565b6200028d62002f06565b6200028d6004803603604081101562000bf65760008062000bf362004e0e565b50505b81019060208101813564010000000081111562000c1d5760008062000c1a62004e0e565b50505b82018360208201111562000c3b5760008062000c3862004e0e565b50505b8035906020019184602083028401116401000000008311171562000c695760008062000c6662004e0e565b50505b919350915035151562002f70565b6200028d62002ffc565b6200028d6004803603602081101562000ca45760008062000ca162004e0e565b50505b503562003008565b620002816004803603604081101562000ccf5760008062000ccc62004e0e565b50505b5080359060200135620030ef565b620003486004803603602081101562000d005760008062000cfd62004e0e565b50505b503562003210565b620002816004803603602081101562000d2b5760008062000d2862004e0e565b50505b50356001600160a01b0316620033b6565b6200028d6200351c565b62000d5062003522565b6001600160a01b031662000d63620027fe565b6001600160a01b03161462000dc95760405162461bcd60e51b815260206004820181905260248201527f4f776e61626c653a2063616c6c6572206973206e6f7420746865206f776e657260448201526064016040518091039062000dc662004e0e565b50505b73D702C8648E0658aa3269502B5F6D79cbf47E30Ff6324c5c75160c962000def620027fe565b6040517fffffffff0000000000000000000000000000000000000000000000000000000060e085901b16815260048101929092526001600160a01b03166024820152604401600060405180830381868062000e4962004e7b565b15801562000e615760008062000e5e62004e0e565b50505b505a62000e6d62004ed8565b505050505015801562000e8f573d6000803e3d600062000e8c62004e0e565b50505b50505050565b600073A92A89cC989CC1c3A61417bb5AA769d512Cf4D6263c9b64dcb60c96040517fffffffff0000000000000000000000000000000000000000000000000000000060e084901b1681526004810191909152602401602060405180830381868062000eff62004e7b565b15801562000f175760008062000f1462004e0e565b50505b505a62000f2362004ed8565b505050505015801562000f45573d6000803e3d600062000f4262004e0e565b50505b505050506040513d602081101562000f675760008062000f6462004e0e565b50505b810190808051935050505090565b60606002609762000f8562004fce565b141562000fe35760405162461bcd60e51b815260206004820152601f60248201527f5265656e7472616e637947756172643a207265656e7472616e742063616c6c0060448201526064016040518091039062000fe062004e0e565b50505b600280609762000ff26200501b565b50505081805a620010026200506a565b1115620010605760405162461bcd60e51b815260206004820152601060248201527f446561646c696e65206e6f74206d6574000000000000000000000000000000006044820152606401604051809103906200105d62004e0e565b50505b73D702C8648E0658aa3269502B5F6D79cbf47E30Ff6373fd6b3e60c98888886040518563ffffffff1660e01b8152600401808581526020018481526020018060200182810382528484828181526020019250602002808284376000838201819052601f909101601f19169092019750909550604094505050505051808303818680620010eb62004e7b565b15801562001103576000806200110062004e0e565b50505b505a6200110f62004ed8565b505050505015801562001131573d6000803e3d60006200112e62004e0e565b50505b505050506040513d6000823e601f3d908101601f19168201604052602081101562001166576000806200116362004e0e565b50505b810190808051604051939291908464010000000082111562001192576000806200118f62004e0e565b50505b908301906020820185811115620011b357600080620011b062004e0e565b50505b8251866020820283011164010000000082111715620011dc57600080620011d962004e0e565b50505b825250602001908051906020019060200280838360005b838110156200120d578082015183820152602001620011f3565b5050505090500160405250505091505060018060976200122c6200501b565b505050949350505050565b600073D702C8648E0658aa3269502B5F6D79cbf47E30Ff63e069274260c985856040517fffffffff0000000000000000000000000000000000000000000000000000000060e086901b1681526004810193909352602483019190915260ff1660448201526064016020604051808303818680620012b362004e7b565b158015620012cb57600080620012c862004e0e565b50505b505a620012d762004ed8565b5050505050158015620012f9573d6000803e3d6000620012f662004e0e565b50505b505050506040513d60208110156200131b576000806200131862004e0e565b50505b81019080805193505050505b92915050565b6200133762003522565b6001600160a01b03166200134a620027fe565b6001600160a01b031614620013b05760405162461bcd60e51b815260206004820181905260248201527f4f776e61626c653a2063616c6c6572206973206e6f7420746865206f776e6572604482015260640160405180910390620013ad62004e0e565b50505b73D702C8648E0658aa3269502B5F6D79cbf47E30Ff63467e186c60c9836040517fffffffff0000000000000000000000000000000000000000000000000000000060e085901b1681526004810192909252602482015260440160006040518083038186806200141e62004e7b565b15801562001436576000806200143362004e0e565b50505b505a6200144262004ed8565b505050505015801562001464573d6000803e3d60006200146162004e0e565b50505b5050505050565b6000600260976200147b62004fce565b1415620014d95760405162461bcd60e51b815260206004820152601f60248201527f5265656e7472616e637947756172643a207265656e7472616e742063616c6c00604482015260640160405180910390620014d662004e0e565b50505b6002806097620014e86200501b565b505050620014f562001a70565b15620015525760405162461bcd60e51b815260206004820152601060248201527f5061757361626c653a20706175736564000000000000000000000000000000006044820152606401604051809103906200154f62004e0e565b50505b81805a6200155f6200506a565b1115620015bd5760405162461bcd60e51b815260206004820152601060248201527f446561646c696e65206e6f74206d657400000000000000000000000000000000604482015260640160405180910390620015ba62004e0e565b50505b73D702C8648E0658aa3269502B5F6D79cbf47E30Ff63e7a4db8160c98888886040517fffffffff0000000000000000000000000000000000000000000000000000000060e087901b1681526004810194909452602484019290925260ff166044830152606482015260840160206040518083038186806200163d62004e7b565b15801562001655576000806200165262004e0e565b50505b505a6200166162004ed8565b505050505015801562001683573d6000803e3d60006200168062004e0e565b50505b505050506040513d6020811015620016a557600080620016a262004e0e565b50505b81019080805194505050505060018060976200122c6200501b565b620016ca62003522565b6001600160a01b0316620016dd620027fe565b6001600160a01b031614620017435760405162461bcd60e51b815260206004820181905260248201527f4f776e61626c653a2063616c6c6572206973206e6f7420746865206f776e65726044820152606401604051809103906200174062004e0e565b50505b6200174d62003534565b565b6000600260976200175f62004fce565b1415620017bd5760405162461bcd60e51b815260206004820152601f60248201527f5265656e7472616e637947756172643a207265656e7472616e742063616c6c00604482015260640160405180910390620017ba62004e0e565b50505b6002806097620017cc6200501b565b505050620017d962001a70565b15620018365760405162461bcd60e51b815260206004820152601060248201527f5061757361626c653a20706175736564000000000000000000000000000000006044820152606401604051809103906200183362004e0e565b50505b81805a620018436200506a565b1115620018a15760405162461bcd60e51b815260206004820152601060248201527f446561646c696e65206e6f74206d6574000000000000000000000000000000006044820152606401604051809103906200189e62004e0e565b50505b73D702C8648E0658aa3269502B5F6D79cbf47E30Ff6340370edf60c98888886040518563ffffffff1660e01b815260040180858152602001806020018381526020018281038252858582818152602001925060200280828437600083820152601f01601f19169091019650602095506040945050505050518083038186806200163d62004e7b565b6200193362003522565b6001600160a01b031662001946620027fe565b6001600160a01b031614620019ac5760405162461bcd60e51b815260206004820181905260248201527f4f776e61626c653a2063616c6c6572206973206e6f7420746865206f776e6572604482015260640160405180910390620019a962004e0e565b50505b73A92A89cC989CC1c3A61417bb5AA769d512Cf4D626358fdd79b60c984846040517fffffffff0000000000000000000000000000000000000000000000000000000060e086901b168152600481019390935260248301919091526044820152606401600060405180830381868062001a2362004e7b565b15801562001a3b5760008062001a3862004e0e565b50505b505a62001a4762004ed8565b505050505015801562000e8c573d6000803e3d600062001a6662004e0e565b5050505050505050565b600080606562001a7f62004fce565b906101000a900460ff16905090565b6002609762001a9c62004fce565b141562001afa5760405162461bcd60e51b815260206004820152601f60248201527f5265656e7472616e637947756172643a207265656e7472616e742063616c6c0060448201526064016040518091039062001af762004e0e565b50505b600280609762001b096200501b565b505050600062001b19846200221a565b90506000846001600160a01b03166370a082315a63996d79a5598160e01b8152602081600483336000905af158600e01573d6000803e3d6000fd5b3d6001141558600a015760016000f35b8051925060005b604081101562001b845760008282015260200162001b6b565b5050506040517fffffffff0000000000000000000000000000000000000000000000000000000060e084901b1681526001600160a01b039091166004820152602401602060405180830381868062001bdb62004e7b565b15801562001bf35760008062001bf062004e0e565b50505b505a62001bff620050b1565b505050505015801562001c21573d6000803e3d600062001c1e62004e0e565b50505b505050506040513d602081101562001c435760008062001c4062004e0e565b50505b81019080805193506000925062001c8d915060d2905060ff85168162001c6862004fce565b811062001c7157fe5b9060005260206000200162001c8562004fce565b83906200360d565b905060008511801562001ca05750848210155b62001cfc5760405162461bcd60e51b815260206004820152600e60248201527f696e76616c696420616d6f756e7400000000000000000000000000000000000060448201526064016040518091039062001cf962004e0e565b50505b600062001d2461271062001d1d60d462001d1562004fce565b899062003675565b90620036e4565b9050600062001d4761271062001d1d60d562001d3f62004fce565b859062003675565b90506000821162001da95760405162461bcd60e51b815260206004820152601f60248201527f616d6f756e7420697320736d616c6c20666f72206120666c6173684c6f616e0060448201526064016040518091039062001da662004e0e565b50505b62001dbf6001600160a01b0389168a8962003757565b886001600160a01b031663405b019d5a63996d79a5598160e01b8152602081600483336000905af158600e01573d6000803e3d6000fd5b3d6001141558600a015760016000f35b8051925060005b604081101562001e265760008282015260200162001e0d565b5050508a8a868b6040518663ffffffff1660e01b815260040180866001600160a01b03168152602001856001600160a01b0316815260200184815260200183815260200180602001828103825283818151815260200191508051906020019080838360005b8381101562001ea557808201518382015260200162001e8b565b50505050905090810190601f16801562001ed35780820380516001836020036101000a031916815260200191505b5096505050505050506000604051808303816000878062001ef362004e7b565b15801562001f0b5760008062001f0862004e0e565b50505b505a62001f17620050c3565b50505050505015801562001f3a573d6000803e3d600062001f3762004e0e565b50505b505050506000886001600160a01b03166370a082315a63996d79a5598160e01b8152602081600483336000905af158600e01573d6000803e3d6000fd5b3d6001141558600a015760016000f35b8051925060005b604081101562001fa75760008282015260200162001f8e565b5050506040517fffffffff0000000000000000000000000000000000000000000000000000000060e084901b1681526001600160a01b039091166004820152602401602060405180830381868062001ffe62004e7b565b15801562002016576000806200201362004e0e565b50505b505a62002022620050b1565b505050505015801562002044573d6000803e3d60006200204162004e0e565b50505b505050506040513d602081101562002066576000806200206362004e0e565b50505b8101908080519350620020809250879150859050620037f8565b811015620020df5760405162461bcd60e51b815260206004820152601860248201527f666c6173684c6f616e20666565206973206e6f74206d65740000000000000000604482015260640160405180910390620020dc62004e0e565b50505b620020f782620020f083876200360d565b906200360d565b60d260ff8816816200210862004fce565b81106200211157fe5b906000526020600020018190620021276200501b565b505050896001600160a01b03167f7c186b2827b23e9024e7b29869cba58a97a4bac6567802a8ea6a8afa7b8c22f0878a8686604051808560ff16815260200184815260200183815260200182815260200194505050505060405180910390a2505050505050600160978190620014616200501b565b60c980620021a962004fce565b9080600101620021b862004fce565b9080600201620021c762004fce565b9080600301620021d662004fce565b9080600401620021e562004fce565b9080600501620021f462004fce565b906000600682016200220562004fce565b906101000a90046001600160a01b0316905087565b6001600160a01b038116600090815260d360205280604081206000906200224062004fce565b906101000a900460ff169050826001600160a01b03166200226182620023ec565b6001600160a01b031614620013275760405162461bcd60e51b815260206004820152601460248201527f546f6b656e20646f6573206e6f74206578697374000000000000000000000000604482015260640160405180910390620022c462004e0e565b505092915050565b620022d662003522565b6001600160a01b0316620022e9620027fe565b6001600160a01b0316146200234f5760405162461bcd60e51b815260206004820181905260248201527f4f776e61626c653a2063616c6c6572206973206e6f7420746865206f776e65726044820152606401604051809103906200234c62004e0e565b50505b60008060336200235e62004fce565b906101000a90046001600160a01b03166001600160a01b03167f8be0079c531659141344cd1fd0a4f28419497f9722a3daafe3b4186f6b6457e060405160405180910390a360006033600181620023b462004fce565b816001600160a01b0302191690836001600160a01b0316021790620023d86200501b565b505050565b60d4620023e962004fce565b81565b600060d080620023fb62004fce565b90508260ff16106200245e5760405162461bcd60e51b815260206004820152600c60248201527f4f7574206f662072616e676500000000000000000000000000000000000000006044820152606401604051809103906200245b62004e0e565b50505b60d060ff8316816200246f62004fce565b81106200247857fe5b906000526020600020016000906200248f62004fce565b906101000a90046001600160a01b03169050919050565b620024b062003522565b6001600160a01b0316620024c3620027fe565b6001600160a01b031614620025295760405162461bcd60e51b815260206004820181905260248201527f4f776e61626c653a2063616c6c6572206973206e6f7420746865206f776e65726044820152606401604051809103906200252662004e0e565b50505b6200174d6200385a565b6000600260976200254362004fce565b1415620025a15760405162461bcd60e51b815260206004820152601f60248201527f5265656e7472616e637947756172643a207265656e7472616e742063616c6c006044820152606401604051809103906200259e62004e0e565b50505b6002806097620025b06200501b565b505050620025bd62001a70565b156200261a5760405162461bcd60e51b815260206004820152601060248201527f5061757361626c653a20706175736564000000000000000000000000000000006044820152606401604051809103906200261762004e0e565b50505b81805a620026276200506a565b1115620026855760405162461bcd60e51b815260206004820152601060248201527f446561646c696e65206e6f74206d6574000000000000000000000000000000006044820152606401604051809103906200268262004e0e565b50505b73D702C8648E0658aa3269502B5F6D79cbf47E30Ff6341b91c2660c98888886040518563ffffffff1660e01b815260040180858152602001806020018381526020018281038252858582818152602001925060200280828437600083820152601f01601f19169091019650602095506040945050505050518083038186806200163d62004e7b565b6200271762003522565b6001600160a01b03166200272a620027fe565b6001600160a01b031614620027905760405162461bcd60e51b815260206004820181905260248201527f4f776e61626c653a2063616c6c6572206973206e6f7420746865206f776e65726044820152606401604051809103906200278d62004e0e565b50505b73D702C8648E0658aa3269502B5F6D79cbf47E30Ff637046727660c9836040517fffffffff0000000000000000000000000000000000000000000000000000000060e085901b1681526004810192909252602482015260440160006040518083038186806200141e62004e7b565b60008060336200280d62004fce565b906101000a90046001600160a01b0316905090565b6000600260976200283262004fce565b1415620028905760405162461bcd60e51b815260206004820152601f60248201527f5265656e7472616e637947756172643a207265656e7472616e742063616c6c006044820152606401604051809103906200288d62004e0e565b50505b60028060976200289f6200501b565b505050620028ac62001a70565b15620029095760405162461bcd60e51b815260206004820152601060248201527f5061757361626c653a20706175736564000000000000000000000000000000006044820152606401604051809103906200290662004e0e565b50505b81805a620029166200506a565b1115620029745760405162461bcd60e51b815260206004820152601060248201527f446561646c696e65206e6f74206d6574000000000000000000000000000000006044820152606401604051809103906200297162004e0e565b50505b73D702C8648E0658aa3269502B5F6D79cbf47E30Ff63a5397b2260c9898989896040517fffffffff0000000000000000000000000000000000000000000000000000000060e088901b168152600481019590955260ff93841660248601529190921660448401526064830191909152608482015260a401602060405180830381868062002a0062004e7b565b15801562002a185760008062002a1562004e0e565b50505b505a62002a2462004ed8565b505050505015801562002a46573d6000803e3d600062002a4362004e0e565b50505b505050506040513d602081101562002a685760008062002a6562004e0e565b50505b810190808051945050505050600180609762002a836200501b565b50505095945050505050565b600060d08062002a9e62004fce565b90508260ff161062002b015760405162461bcd60e51b815260206004820152601260248201527f496e646578206f7574206f662072616e6765000000000000000000000000000060448201526064016040518091039062002afe62004e0e565b50505b60d260ff83168162002b1262004fce565b811062002b1b57fe5b906000526020600020016200132762004fce565b600073D702C8648E0658aa3269502B5F6D79cbf47E30Ff634b23603c60c98686866040517fffffffff0000000000000000000000000000000000000000000000000000000060e087901b168152600481019490945260ff9283166024850152911660448301526064820152608401602060405180830381868062002bb262004e7b565b15801562002bca5760008062002bc762004e0e565b50505b505a62002bd662004ed8565b505050505015801562002bf8573d6000803e3d600062002bf562004e0e565b50505b505050506040513d602081101562002c1a5760008062002c1762004e0e565b50505b81019080805193505050505b9392505050565b6001600062002c3b62004fce565b906101000a900460ff168062002c56575062002c5662003916565b8062002c76575060008062002c6a62004fce565b906101000a900460ff16155b62002cbe5760405162461bcd60e51b815260040180806020018281038252602e81526020018062005855602e91396040019150506040518091039062002cbb62004e0e565b50505b600060018162002ccd62004fce565b906101000a900460ff16159050801562002d3c57600160006101008162002cf362004fce565b8160ff0219169083151502179062002d0a6200501b565b50505060016000806101000a8162002d2162004fce565b8160ff0219169083151502179062002d386200501b565b5050505b62002d4e898989898989898962003983565b60088060d462002d5d6200501b565b505050600060d5819062002d706200501b565b505050801562002da6576000806101008162002d8b62004fce565b8160ff0219169083151502179062002da26200501b565b5050505b505050505050505050565b62002dbb62003522565b6001600160a01b031662002dce620027fe565b6001600160a01b03161462002e345760405162461bcd60e51b815260206004820181905260248201527f4f776e61626c653a2063616c6c6572206973206e6f7420746865206f776e657260448201526064016040518091039062002e3162004e0e565b50505b73A92A89cC989CC1c3A61417bb5AA769d512Cf4D6263f14e211e60c96040517fffffffff0000000000000000000000000000000000000000000000000000000060e084901b1681526004810191909152602401600060405180830381868062000e4962004e7b565b600073A92A89cC989CC1c3A61417bb5AA769d512Cf4D6263b0a14cfc60c96040517fffffffff0000000000000000000000000000000000000000000000000000000060e084901b1681526004810191909152602401602060405180830381868062000eff62004e7b565b600073D702C8648E0658aa3269502B5F6D79cbf47E30Ff6371906c2c60c96040517fffffffff0000000000000000000000000000000000000000000000000000000060e084901b1681526004810191909152602401602060405180830381868062000eff62004e7b565b600073D702C8648E0658aa3269502B5F6D79cbf47E30Ff63834b491060c98686866040518563ffffffff1660e01b8152600401808581526020018060200183151581526020018281038252858582818152602001925060200280828437600083820152601f01601f191690910196506020955060409450505050505180830381868062002bb262004e7b565b60d5620023e962004fce565b600073D702C8648E0658aa3269502B5F6D79cbf47E30Ff637d04816060c9846040517fffffffff0000000000000000000000000000000000000000000000000000000060e085901b1681526004810192909252602482015260440160206040518083038186806200307862004e7b565b15801562003090576000806200308d62004e0e565b50505b505a6200309c62004ed8565b5050505050158015620030be573d6000803e3d6000620030bb62004e0e565b50505b505050506040513d6020811015620030e057600080620030dd62004e0e565b50505b81019080805195945050505050565b620030f962003522565b6001600160a01b03166200310c620027fe565b6001600160a01b031614620031725760405162461bcd60e51b815260206004820181905260248201527f4f776e61626c653a2063616c6c6572206973206e6f7420746865206f776e65726044820152606401604051809103906200316f62004e0e565b50505b6000821180156200318557506127108211155b80156200319457506127108111155b620031f05760405162461bcd60e51b815260206004820152601b60248201527f6665657320617265206e6f7420696e2076616c69642072616e67650000000000604482015260640160405180910390620031ed62004e0e565b50505b818060d4620031fe6200501b565b5050508060d58190620014646200501b565b606073D702C8648E0658aa3269502B5F6D79cbf47E30Ff6370703e4a60c9846040517fffffffff0000000000000000000000000000000000000000000000000000000060e085901b1681526004810192909252602482015260440160006040518083038186806200328062004e7b565b15801562003298576000806200329562004e0e565b50505b505a620032a462004ed8565b5050505050158015620032c6573d6000803e3d6000620032c362004e0e565b50505b505050506040513d6000823e601f3d908101601f191682016040526020811015620032fb57600080620032f862004e0e565b50505b810190808051604051939291908464010000000082111562003327576000806200332462004e0e565b50505b90830190602082018581111562003348576000806200334562004e0e565b50505b825186602082028301116401000000008211171562003371576000806200336e62004e0e565b50505b825250602001908051906020019060200280838360005b83811015620033a257808201518382015260200162003388565b505050509050016040525050509050919050565b620033c062003522565b6001600160a01b0316620033d3620027fe565b6001600160a01b031614620034395760405162461bcd60e51b815260206004820181905260248201527f4f776e61626c653a2063616c6c6572206973206e6f7420746865206f776e65726044820152606401604051809103906200343662004e0e565b50505b6001600160a01b0381166200348b5760405162461bcd60e51b81526004018080602001828103825260268152602001806200582f60269139604001915050604051809103906200348862004e0e565b50505b6001600160a01b03811660006033620034a362004fce565b906101000a90046001600160a01b03166001600160a01b03167f8be0079c531659141344cd1fd0a4f28419497f9722a3daafe3b4186f6b6457e060405160405180910390a3806033600181620034f862004fce565b816001600160a01b0302191690836001600160a01b031602179062000e8f6200501b565b61271081565b60005a6200352f62005191565b905090565b6200353e62001a70565b6200359a5760405162461bcd60e51b815260206004820152601460248201527f5061757361626c653a206e6f74207061757365640000000000000000000000006044820152606401604051809103906200359762004e0e565b50505b60006065600181620035ab62004fce565b8160ff02191690831515021790620035c26200501b565b5050507f5db9ee0a495bf2e6ff9c91a7834c1ba4fdd244a5e8aa4e537bd38aeae4b073aa620035f062003522565b6040516001600160a01b03909116815260200160405180910390a1565b6000828211156200366f5760405162461bcd60e51b815260206004820152601e60248201527f536166654d6174683a207375627472616374696f6e206f766572666c6f7700006044820152606401604051809103906200366c62004e0e565b50505b50900390565b600082620036865750600062001327565b828202828482816200369457fe5b041462002c265760405162461bcd60e51b8152600401808060200182810382526021815260200180620058836021913960400191505060405180910390620036db62004e0e565b50509392505050565b6000808211620037455760405162461bcd60e51b815260206004820152601a60248201527f536166654d6174683a206469766973696f6e206279207a65726f0000000000006044820152606401604051809103906200374262004e0e565b50505b8183816200374f57fe5b049392505050565b620023d8837fa9059cbb0000000000000000000000000000000000000000000000000000000084846040516001600160a01b0390921660248301526044820152606401604051602081830303815290604052907bffffffffffffffffffffffffffffffffffffffffffffffffffffffff19166020820180517bffffffffffffffffffffffffffffffffffffffffffffffffffffffff16909117905262004393565b60008282018381101562002c265760405162461bcd60e51b815260206004820152601b60248201527f536166654d6174683a206164646974696f6e206f766572666c6f770000000000604482015260640160405180910390620036db62004e0e565b6200386462001a70565b15620038c15760405162461bcd60e51b815260206004820152601060248201527f5061757361626c653a2070617573656400000000000000000000000000000000604482015260640160405180910390620038be62004e0e565b50505b600160658181620038d162004fce565b8160ff02191690831515021790620038e86200501b565b5050507f62e78cea01bee320cd4e420270b5ea74000d11b0c9f74754ebdbfc544b05a258620035f062003522565b60006200397d5a63996d79a5598160e01b8152602081600483336000905af158600e01573d6000803e3d6000fd5b3d6001141558600a015760016000f35b8051925060005b604081101562003974576000828201526020016200395b565b5050506200445d565b15905090565b600160006200399162004fce565b906101000a900460ff1680620039ac5750620039ac62003916565b80620039cc5750600080620039c062004fce565b906101000a900460ff16155b62003a145760405162461bcd60e51b815260040180806020018281038252602e81526020018062005855602e91396040019150506040518091039062003a1162004e0e565b50505b600060018162003a2362004fce565b906101000a900460ff16159050801562003a9257600160006101008162003a4962004fce565b8160ff0219169083151502179062003a606200501b565b50505060016000806101000a8162003a7762004fce565b8160ff0219169083151502179062003a8e6200501b565b5050505b62003a9c62004474565b62003aa6620045d3565b600189511162003b075760405162461bcd60e51b815260206004820152601960248201527f5f706f6f6c6564546f6b656e732e6c656e677468203c3d20310000000000000060448201526064016040518091039062003b0462004e0e565b50505b60208951111562003b695760405162461bcd60e51b815260206004820152601960248201527f5f706f6f6c6564546f6b656e732e6c656e677468203e2033320000000000000060448201526064016040518091039062003b6662004e0e565b50505b875189511462003bca5760405162461bcd60e51b815260206004820152601f60248201527f5f706f6f6c6564546f6b656e7320646563696d616c73206d69736d617463680060448201526064016040518091039062003bc762004e0e565b50505b6060885167ffffffffffffffff8111801562003bf05760008062003bed62004e0e565b50505b5060405190808252806020026020018201604052801562003c1b578160200160208202803683370190505b50905060005b8a518160ff16101562003ee65760ff81161562003d355760d360008c8360ff168151811062003c4c57fe5b60200260200101516001600160a01b03166001600160a01b0316815260200190815260200160002060009062003c8162004fce565b60ff6101009290920a90041615801562003cd957508a8160ff168151811062003ca657fe5b60200260200101516001600160a01b03168b60008151811062003cc557fe5b60200260200101516001600160a01b031614155b62003d355760405162461bcd60e51b815260206004820152601060248201527f4475706c696361746520746f6b656e730000000000000000000000000000000060448201526064016040518091039062003d3262004e0e565b50505b60008b60ff83168151811062003d4757fe5b60200260200101516001600160a01b0316141562003db65760405162461bcd60e51b815260206004820152601d60248201527f546865203020616464726573732069736e277420616e204552432d323000000060448201526064016040518091039062003db362004e0e565b50505b60128a60ff83168151811062003dc857fe5b602002602001015160ff16111562003e315760405162461bcd60e51b815260206004820152601a60248201527f546f6b656e20646563696d616c732065786365656473206d617800000000000060448201526064016040518091039062003e2e62004e0e565b50505b62003e598a8260ff168151811062003e4557fe5b602002602001015160129060ff166200360d565b600a0a828260ff168151811062003e6c57fe5b6020026020010181815250508060d360008d8460ff168151811062003e8d57fe5b60200260200101516001600160a01b03166001600160a01b0316815260200190815260200160002060018162003ec262004fce565b8160ff021916908360ff1602179062003eda6200501b565b50505060010162003c21565b50620f4240861062003f495760405162461bcd60e51b815260206004820152601260248201527f5f612065786365656473206d6178696d756d000000000000000000000000000060448201526064016040518091039062003f4662004e0e565b50505b6305f5e100851062003fac5760405162461bcd60e51b815260206004820152601460248201527f5f6665652065786365656473206d6178696d756d00000000000000000000000060448201526064016040518091039062003fa962004e0e565b50505b6402540be4008410620040105760405162461bcd60e51b815260206004820152601960248201527f5f61646d696e4665652065786365656473206d6178696d756d000000000000006044820152606401604051809103906200400d62004e0e565b50505b6000836040516200402190620051d8565b6001600160a01b03909116815260200160405180910390600062004044620051e6565b50508015801562004064573d6000803e3d60006200406162004e0e565b50505b509050806001600160a01b0316634cd88b768a8a6040518363ffffffff1660e01b8152600401808060200180602001838103835285818151815260200191508051906020019080838360005b83811015620040ca578082015183820152602001620040b0565b50505050905090810190601f168015620040f85780820380516001836020036101000a031916815260200191505b50838103825284818151815260200191508051906020019080838360005b838110156200413057808201518382015260200162004116565b50505050905090810190601f1680156200415e5780820380516001836020036101000a031916815260200191505b50945050505050602060405180830381600087806200417c62004e7b565b15801562004194576000806200419162004e0e565b50505b505a620041a0620050c3565b505050505050158015620041c3573d6000803e3d6000620041c062004e0e565b50505b505050506040513d6020811015620041e557600080620041e262004e0e565b50505b81019080805192506200424c9150505760405162461bcd60e51b815260206004820152601c60248201527f636f756c64206e6f7420696e6974206c70546f6b656e20636c6f6e65000000006044820152606401604051809103906200424962004e0e565b50505b8060cf6001816200425c62004fce565b816001600160a01b0302191690836001600160a01b0316021790620042806200501b565b5060d091508c905080516200429a9291602001906200526b565b5060d1828051620042b092916020019062005302565b508a5167ffffffffffffffff81118015620042d557600080620042d262004e0e565b50505b5060405190808252806020026020018201604052801562004300578160200160208202803683370190505b5060d29080516200431692916020019062005302565b506200432487606462003675565b8060c9620043316200501b565b50620043439150889050606462003675565b8060ca620043506200501b565b5087915081905060cd620043636200501b565b5086915081905060ce620043766200501b565b5050505050801562002da6576000806101008162002d8b62004fce565b6060620043e0826040516040808201905260208082527f5361666545524332303a206c6f772d6c6576656c2063616c6c206661696c6564908201526001600160a01b0386169190620046ec565b9050600081511115620023d85760208101815160208110156200440d576000806200440a62004e0e565b50505b8101908080519250620023d89150505760405162461bcd60e51b815260040180806020018281038252602a815260200180620058a4602a9139604001915050604051809103906200146462004e0e565b600080826200446b62004e7b565b15159392505050565b600160006200448262004fce565b906101000a900460ff16806200449d57506200449d62003916565b80620044bd5750600080620044b162004fce565b906101000a900460ff16155b620045055760405162461bcd60e51b815260040180806020018281038252602e81526020018062005855602e9139604001915050604051809103906200450262004e0e565b50505b60006001816200451462004fce565b906101000a900460ff161590508015620045835760016000610100816200453a62004fce565b8160ff02191690831515021790620045516200501b565b50505060016000806101000a816200456862004fce565b8160ff021916908315150217906200457f6200501b565b5050505b6200458d62004705565b620045976200482b565b620045a1620049d0565b8015620045d05760008061010081620045b962004fce565b8160ff0219169083151502179062000e8f6200501b565b50565b60016000620045e162004fce565b906101000a900460ff1680620045fc5750620045fc62003916565b806200461c57506000806200461062004fce565b906101000a900460ff16155b620046645760405162461bcd60e51b815260040180806020018281038252602e81526020018062005855602e9139604001915050604051809103906200466162004e0e565b50505b60006001816200467362004fce565b906101000a900460ff161590508015620046e25760016000610100816200469962004fce565b8160ff02191690831515021790620046b06200501b565b50505060016000806101000a81620046c762004fce565b8160ff02191690831515021790620046de6200501b565b5050505b620045a162004af0565b6060620046fd848460008562004c0e565b949350505050565b600160006200471362004fce565b906101000a900460ff16806200472e57506200472e62003916565b806200474e57506000806200474262004fce565b906101000a900460ff16155b620047965760405162461bcd60e51b815260040180806020018281038252602e81526020018062005855602e9139604001915050604051809103906200479362004e0e565b50505b6000600181620047a562004fce565b906101000a900460ff161590508015620045a1576001600061010081620047cb62004fce565b8160ff02191690831515021790620047e26200501b565b50505060016000806101000a81620047f962004fce565b8160ff02191690831515021790620048106200501b565b5050508015620045d05760008061010081620045b962004fce565b600160006200483962004fce565b906101000a900460ff16806200485457506200485462003916565b806200487457506000806200486862004fce565b906101000a900460ff16155b620048bc5760405162461bcd60e51b815260040180806020018281038252602e81526020018062005855602e913960400191505060405180910390620048b962004e0e565b50505b6000600181620048cb62004fce565b906101000a900460ff1615905080156200493a576001600061010081620048f162004fce565b8160ff02191690831515021790620049086200501b565b50505060016000806101000a816200491f62004fce565b8160ff02191690831515021790620049366200501b565b5050505b60006200494662003522565b90508060336001816200495862004fce565b816001600160a01b0302191690836001600160a01b03160217906200497c6200501b565b5050506001600160a01b03811660007f8be0079c531659141344cd1fd0a4f28419497f9722a3daafe3b4186f6b6457e060405160405180910390a3508015620045d05760008061010081620045b962004fce565b60016000620049de62004fce565b906101000a900460ff1680620049f95750620049f962003916565b8062004a19575060008062004a0d62004fce565b906101000a900460ff16155b62004a615760405162461bcd60e51b815260040180806020018281038252602e81526020018062005855602e91396040019150506040518091039062004a5e62004e0e565b50505b600060018162004a7062004fce565b906101000a900460ff16159050801562004adf57600160006101008162004a9662004fce565b8160ff0219169083151502179062004aad6200501b565b50505060016000806101000a8162004ac462004fce565b8160ff0219169083151502179062004adb6200501b565b5050505b60006065600181620047f962004fce565b6001600062004afe62004fce565b906101000a900460ff168062004b19575062004b1962003916565b8062004b39575060008062004b2d62004fce565b906101000a900460ff16155b62004b815760405162461bcd60e51b815260040180806020018281038252602e81526020018062005855602e91396040019150506040518091039062004b7e62004e0e565b50505b600060018162004b9062004fce565b906101000a900460ff16159050801562004bff57600160006101008162004bb662004fce565b8160ff0219169083151502179062004bcd6200501b565b50505060016000806101000a8162004be462004fce565b8160ff0219169083151502179062004bfb6200501b565b5050505b6001806097620048106200501b565b606062004c1b856200445d565b62004c775760405162461bcd60e51b815260206004820152601d60248201527f416464726573733a2063616c6c20746f206e6f6e2d636f6e747261637400000060448201526064016040518091039062004c7462004e0e565b50505b60006060866001600160a01b031685876040518082805190602001908083835b6020831062004cb85780518252601f19909201916020918201910162004c97565b6001836020036101000a03801982511681845116808217855250505050505090500191505060006040518083038185875a62004cf3620050c3565b505050505050925050503d806000811462004d2b576040513d603f01601f191681016040523d815291503d6000602084013e62004d30565b606091505b509150915062004d4282828662004d4d565b979650505050505050565b6060831562004d5e57508162002c26565b60008351111562004d83578251808460200162004d7a62004e0e565b50505062002c26565b8160405162461bcd60e51b81526004018080602001828103825283818151815260200191508051906020019080838360005b8381101562004dcf57808201518382015260200162004db5565b50505050905090810190601f16801562004dfd5780820380516001836020036101000a031916815260200191505b509250505060405180910390620036db5b632a2a7adb598160e01b8152600481016020815285602082015260005b8681101562004e4857808601518282016040015260200162004e2b565b506020828760640184336000905af158600e01573d6000803e3d6000fd5b3d6001141558600a015760016000f35b505050565b638435035b598160e01b8152836004820152602081602483336000905af158600e01573d6000803e3d6000fd5b3d6001141558600a015760016000f35b8051935060005b6040811015620023d85760008282015260200162004ebf565b63ffe73914598160e01b815262004f0c565b808083111562001327575090919050565b808083101562001327575090919050565b836004820152846024820152606060448201528660648201526084810160005b8881101562004f4657808801518282015260200162004f2c565b506060828960a40184336000905af158600e01573d6000803e3d6000fd5b3d6001141558600a015760016000f35b815160408301513d6000853e8b8b82606087013350600060045af1505962004f9d8d3d62004efb565b8c0162004fab818762004eea565b5b8281101562004fc2576000815260200162004fac565b50929c50505050505050565b6303daa959598160e01b8152836004820152602081602483336000905af158600e01573d6000803e3d6000fd5b3d6001141558600a015760016000f35b8051600082529350602062004ebf565b6322bd64c0598160e01b8152836004820152846024820152600081604483336000905af158600e01573d6000803e3d6000fd5b3d6001141558600a015760016000f35b60008152602062004ebf565b63bdbf8c36598160e01b8152602081600483336000905af158600e01573d6000803e3d6000fd5b3d6001141558600a015760016000f35b8051600082529350602062004ebf565b638540661f598160e01b815262004f0c565b6385979f76598160e01b8152836004820152846024820152606060448201528760648201526084810160005b8981101562005109578089015182820152602001620050ef565b506060828a60a40184336000905af158600e01573d6000803e3d6000fd5b3d6001141558600a015760016000f35b815160408301513d6000853e8c8c82606087013350600060045af15059620051608e3d62004efb565b8d016200516e818762004eea565b5b828110156200518557600081526020016200516f565b50929d50505050505050565b6373509064598160e01b8152602081600483336000905af158600e01573d6000803e3d6000fd5b3d6001141558600a015760016000f35b8051600082529350602062004ebf565b61046280620053cd83390190565b6314aa2ff7598160e01b8152600481016020815286602082015260005b878110156200522057808701518282016040015260200162005203565b506020828860640184336000905af158600e01573d6000803e3d6000fd5b3d6001141558600a015760016000f35b8151965059825b8181101562001464576000815260200162005255565b82806200527762004fce565b8282620052836200501b565b5050906000526020600020908101928215620052f0579160200282015b82811115620052f057825182600181620052b962004fce565b816001600160a01b0302191690836001600160a01b0316021790620052dd6200501b565b50505091602001919060010190620052a0565b50620052fe9291506200536d565b5090565b82806200530e62004fce565b82826200531a6200501b565b50509060005260206000209081019282156200535f579160200282015b828111156200535f578251826200534d6200501b565b50509160200191906001019062005337565b50620052fe929150620053a9565b80821115620052fe576000816001816200538662004fce565b906001600160a01b03021916906200539d6200501b565b5050506001016200536d565b80821115620052fe5760008082620053c06200501b565b505050600101620053a956fe60806040523480156100195760008061001661008a565b50505b50604051610462380380610462833981810160405260208110156100455760008061004261008a565b50505b81019080805192508291506000905060018161005f6100f5565b816001600160a01b0302191690836001600160a01b0316021790610081610155565b505050506101a3565b632a2a7adb598160e01b8152600481016020815285602082015260005b868110156100c25780860151828201604001526020016100a7565b506020828760640184336000905af158600e01573d6000803e3d6000fd5b3d6001141558600a015760016000f35b505050565b6303daa959598160e01b8152836004820152602081602483336000905af158600e01573d6000803e3d6000fd5b3d6001141558600a015760016000f35b8051935060005b604081101561015057600082820152602001610139565b505050565b6322bd64c0598160e01b8152836004820152846024820152600081604483336000905af158600e01573d6000803e3d6000fd5b3d6001141558600a015760016000f35b600081526020610139565b6102b0806101b26000396000f3fe60806040526004361061001e5760003560e01c80635c60da1b14610086575b6000808061002a6100f8565b906101000a900473ffffffffffffffffffffffffffffffffffffffff1690503660008037600080366000845a61005e610158565b50505050503d6000803e808015610074573d6000f35b3d600061007f610245565b5050505050005b34801561009b57600080610098610245565b50505b506100a46100cd565b60405173ffffffffffffffffffffffffffffffffffffffff909116815260200160405180910390f35b6000806100d86100f8565b906101000a900473ffffffffffffffffffffffffffffffffffffffff1681565b6303daa959598160e01b8152836004820152602081602483336000905af158600e01573d6000803e3d6000fd5b3d6001141558600a015760016000f35b8051935060005b60408110156101535760008282015260200161013c565b505050565b63ffe73914598160e01b815261018b565b80808311156101755750815b92915050565b8080831015610175575090919050565b836004820152846024820152606060448201528660648201526084810160005b888110156101c35780880151828201526020016101ab565b506060828960a40184336000905af158600e01573d6000803e3d6000fd5b3d6001141558600a015760016000f35b815160408301513d6000853e8b8b82606087013350600060045af150596102188d3d61017b565b8c016102248187610169565b5b828110156102395760008152602001610225565b50929c50505050505050565b632a2a7adb598160e01b8152600481016020815285602082015260005b8681101561027d578086015182820160400152602001610262565b506020828760640184336000905af158600e01573d6000803e3d6000fd5b3d6001141558600a015760016000f35b505050564f776e61626c653a206e6577206f776e657220697320746865207a65726f2061646472657373496e697469616c697a61626c653a20636f6e747261637420697320616c726561647920696e697469616c697a6564536166654d6174683a206d756c7469706c69636174696f6e206f766572666c6f775361666545524332303a204552433230206f7065726174696f6e20646964206e6f742073756363656564",
  "deployedBytecode": "0x60806040523480156200001c576000806200001962004e0e565b50505b5060043610620002675760003560e01c806384cdd9bc1162000152578063d46300fd11620000da578063ef0a712f11620000a4578063f2fad2b61162000086578063f2fad2b61462000cdd578063f2fde38b1462000d08578063fd967f471462000d3c5762000267565b8063ef0a712f1462000c81578063ef8159671462000cac5762000267565b8063d46300fd1462000bbf578063e25aa5fa1462000bc9578063e6ab28061462000bd3578063e8cc7fb61462000c775762000267565b806391ceb3eb116200011c57806391ceb3eb146200085d578063a95b089f146200088b578063b28cb6dc14620008c9578063c4db7fa01462000bb55762000267565b806384cdd9bc14620007365780638beb60b614620007de5780638da5cb5b14620008095780639169558614620008135762000267565b8063593d132c11620001f457806366c0bd2411620001be5780637f1c825a11620001a05780637f1c825a14620006d857806382b8660014620006e25780638456cb59146200072c5762000267565b806366c0bd241462000684578063715018a614620006ce5762000267565b8063593d132c14620004ee5780635c975abb146200051f5780635cffe9de146200053d5780635fd65f0f14620006345762000267565b806334e19907116200023657806334e1990714620003d15780633e3a156014620003fc5780633f4ba83a146200043c5780634d49e87d14620004465762000267565b80630419b45a14620002775780630ba81959146200028357806331cd52b0146200029f578063342a87a1146200039d575b6000806200027462004e0e565b50505b6200028162000d46565b005b6200028d62000e95565b60405190815260200160405180910390f35b6200034860048036036060811015620002c257600080620002bf62004e0e565b50505b81359190810190604081016020820135640100000000811115620002f057600080620002ed62004e0e565b50505b8201836020820111156200030e576000806200030b62004e0e565b50505b803590602001918460208302840111640100000000831117156200033c576000806200033962004e0e565b50505b91935091503562000f75565b60405160208082528190810183818151815260200191508051906020019060200280838360005b83811015620003895780820151838201526020016200036f565b505050509050019250505060405180910390f35b6200028d60048036036040811015620003c057600080620003bd62004e0e565b50505b508035906020013560ff1662001237565b6200028160048036036020811015620003f457600080620003f162004e0e565b50505b50356200132d565b6200028d600480360360808110156200041f576000806200041c62004e0e565b50505b5080359060ff60208201351690604081013590606001356200146b565b62000281620016c0565b6200028d6004803603606081101562000469576000806200046662004e0e565b50505b81019060208101813564010000000081111562000490576000806200048d62004e0e565b50505b820183602082011115620004ae57600080620004ab62004e0e565b50505b80359060200191846020830284011164010000000083111715620004dc57600080620004d962004e0e565b50505b9193509150803590602001356200174f565b620002816004803603604081101562000511576000806200050e62004e0e565b50505b508035906020013562001929565b6200052962001a70565b604051901515815260200160405180910390f35b620002816004803603608081101562000560576000806200055d62004e0e565b50505b6001600160a01b03823581169260208101359091169160408201359190810190608081016060820135640100000000811115620005a757600080620005a462004e0e565b50505b820183602082011115620005c557600080620005c262004e0e565b50505b80359060200191846001830284011164010000000083111715620005f357600080620005f062004e0e565b50505b91908080601f016020809104026020016040519081016040528181529291906020840183838082843760009201919091525092955062001a8e945050505050565b6200063e6200219c565b60405196875260208701959095526040808701949094526060860192909252608085015260a08401526001600160a01b0390911660c083015260e0909101905180910390f35b620006b860048036036020811015620006a757600080620006a462004e0e565b50505b50356001600160a01b03166200221a565b60405160ff909116815260200160405180910390f35b62000281620022cc565b6200028d620023dd565b620007106004803603602081101562000705576000806200070262004e0e565b50505b503560ff16620023ec565b6040516001600160a01b03909116815260200160405180910390f35b62000281620024a6565b6200028d6004803603606081101562000759576000806200075662004e0e565b50505b81019060208101813564010000000081111562000780576000806200077d62004e0e565b50505b8201836020820111156200079e576000806200079b62004e0e565b50505b80359060200191846020830284011164010000000083111715620007cc57600080620007c962004e0e565b50505b91935091508035906020013562002533565b62000281600480360360208110156200080157600080620007fe62004e0e565b50505b50356200270d565b62000710620027fe565b6200028d600480360360a081101562000836576000806200083362004e0e565b50505b5060ff81358116916020810135909116906040810135906060810135906080013562002822565b6200028d6004803603602081101562000880576000806200087d62004e0e565b50505b503560ff1662002a8f565b6200028d60048036036060811015620008ae57600080620008ab62004e0e565b50505b5060ff81358116916020810135909116906040013562002b2f565b620002816004803603610100811015620008ed57600080620008ea62004e0e565b50505b81019060208101813564010000000081111562000914576000806200091162004e0e565b50505b82018360208201111562000932576000806200092f62004e0e565b50505b8035906020019184602083028401116401000000008311171562000960576000806200095d62004e0e565b50505b9190808060200260200160405190810160405280939291908181526020018383602002808284376000920191909152509295949360208101935035915050640100000000811115620009bc57600080620009b962004e0e565b50505b820183602082011115620009da57600080620009d762004e0e565b50505b8035906020019184602083028401116401000000008311171562000a085760008062000a0562004e0e565b50505b919080806020026020016040519081016040528093929190818152602001838360200280828437600092019190915250929594936020810193503591505064010000000081111562000a645760008062000a6162004e0e565b50505b82018360208201111562000a825760008062000a7f62004e0e565b50505b8035906020019184600183028401116401000000008311171562000ab05760008062000aad62004e0e565b50505b91908080601f0160208091040260200160405190810160405281815292919060208401838380828437600092019190915250929594936020810193503591505064010000000081111562000b0e5760008062000b0b62004e0e565b50505b82018360208201111562000b2c5760008062000b2962004e0e565b50505b8035906020019184600183028401116401000000008311171562000b5a5760008062000b5762004e0e565b50505b91908080601f016020809104026020016040519081016040528181529291906020840183838082843760009201919091525092955050823593505050602081013590604081013590606001356001600160a01b031662002c2d565b6200028162002db1565b6200028d62002e9c565b6200028d62002f06565b6200028d6004803603604081101562000bf65760008062000bf362004e0e565b50505b81019060208101813564010000000081111562000c1d5760008062000c1a62004e0e565b50505b82018360208201111562000c3b5760008062000c3862004e0e565b50505b8035906020019184602083028401116401000000008311171562000c695760008062000c6662004e0e565b50505b919350915035151562002f70565b6200028d62002ffc565b6200028d6004803603602081101562000ca45760008062000ca162004e0e565b50505b503562003008565b620002816004803603604081101562000ccf5760008062000ccc62004e0e565b50505b5080359060200135620030ef565b620003486004803603602081101562000d005760008062000cfd62004e0e565b50505b503562003210565b620002816004803603602081101562000d2b5760008062000d2862004e0e565b50505b50356001600160a01b0316620033b6565b6200028d6200351c565b62000d5062003522565b6001600160a01b031662000d63620027fe565b6001600160a01b03161462000dc95760405162461bcd60e51b815260206004820181905260248201527f4f776e61626c653a2063616c6c6572206973206e6f7420746865206f776e657260448201526064016040518091039062000dc662004e0e565b50505b73__$a4e4384d4f8ec13c7a898ae597a4175ef6$__6324c5c75160c962000def620027fe565b6040517fffffffff0000000000000000000000000000000000000000000000000000000060e085901b16815260048101929092526001600160a01b03166024820152604401600060405180830381868062000e4962004e7b565b15801562000e615760008062000e5e62004e0e565b50505b505a62000e6d62004ed8565b505050505015801562000e8f573d6000803e3d600062000e8c62004e0e565b50505b50505050565b600073__$a50a14a4f4d416df093fe8223c9bbe01e7$__63c9b64dcb60c96040517fffffffff0000000000000000000000000000000000000000000000000000000060e084901b1681526004810191909152602401602060405180830381868062000eff62004e7b565b15801562000f175760008062000f1462004e0e565b50505b505a62000f2362004ed8565b505050505015801562000f45573d6000803e3d600062000f4262004e0e565b50505b505050506040513d602081101562000f675760008062000f6462004e0e565b50505b810190808051935050505090565b60606002609762000f8562004fce565b141562000fe35760405162461bcd60e51b815260206004820152601f60248201527f5265656e7472616e637947756172643a207265656e7472616e742063616c6c0060448201526064016040518091039062000fe062004e0e565b50505b600280609762000ff26200501b565b50505081805a620010026200506a565b1115620010605760405162461bcd60e51b815260206004820152601060248201527f446561646c696e65206e6f74206d6574000000000000000000000000000000006044820152606401604051809103906200105d62004e0e565b50505b73__$a4e4384d4f8ec13c7a898ae597a4175ef6$__6373fd6b3e60c98888886040518563ffffffff1660e01b8152600401808581526020018481526020018060200182810382528484828181526020019250602002808284376000838201819052601f909101601f19169092019750909550604094505050505051808303818680620010eb62004e7b565b15801562001103576000806200110062004e0e565b50505b505a6200110f62004ed8565b505050505015801562001131573d6000803e3d60006200112e62004e0e565b50505b505050506040513d6000823e601f3d908101601f19168201604052602081101562001166576000806200116362004e0e565b50505b810190808051604051939291908464010000000082111562001192576000806200118f62004e0e565b50505b908301906020820185811115620011b357600080620011b062004e0e565b50505b8251866020820283011164010000000082111715620011dc57600080620011d962004e0e565b50505b825250602001908051906020019060200280838360005b838110156200120d578082015183820152602001620011f3565b5050505090500160405250505091505060018060976200122c6200501b565b505050949350505050565b600073__$a4e4384d4f8ec13c7a898ae597a4175ef6$__63e069274260c985856040517fffffffff0000000000000000000000000000000000000000000000000000000060e086901b1681526004810193909352602483019190915260ff1660448201526064016020604051808303818680620012b362004e7b565b158015620012cb57600080620012c862004e0e565b50505b505a620012d762004ed8565b5050505050158015620012f9573d6000803e3d6000620012f662004e0e565b50505b505050506040513d60208110156200131b576000806200131862004e0e565b50505b81019080805193505050505b92915050565b6200133762003522565b6001600160a01b03166200134a620027fe565b6001600160a01b031614620013b05760405162461bcd60e51b815260206004820181905260248201527f4f776e61626c653a2063616c6c6572206973206e6f7420746865206f776e6572604482015260640160405180910390620013ad62004e0e565b50505b73__$a4e4384d4f8ec13c7a898ae597a4175ef6$__63467e186c60c9836040517fffffffff0000000000000000000000000000000000000000000000000000000060e085901b1681526004810192909252602482015260440160006040518083038186806200141e62004e7b565b15801562001436576000806200143362004e0e565b50505b505a6200144262004ed8565b505050505015801562001464573d6000803e3d60006200146162004e0e565b50505b5050505050565b6000600260976200147b62004fce565b1415620014d95760405162461bcd60e51b815260206004820152601f60248201527f5265656e7472616e637947756172643a207265656e7472616e742063616c6c00604482015260640160405180910390620014d662004e0e565b50505b6002806097620014e86200501b565b505050620014f562001a70565b15620015525760405162461bcd60e51b815260206004820152601060248201527f5061757361626c653a20706175736564000000000000000000000000000000006044820152606401604051809103906200154f62004e0e565b50505b81805a6200155f6200506a565b1115620015bd5760405162461bcd60e51b815260206004820152601060248201527f446561646c696e65206e6f74206d657400000000000000000000000000000000604482015260640160405180910390620015ba62004e0e565b50505b73__$a4e4384d4f8ec13c7a898ae597a4175ef6$__63e7a4db8160c98888886040517fffffffff0000000000000000000000000000000000000000000000000000000060e087901b1681526004810194909452602484019290925260ff166044830152606482015260840160206040518083038186806200163d62004e7b565b15801562001655576000806200165262004e0e565b50505b505a6200166162004ed8565b505050505015801562001683573d6000803e3d60006200168062004e0e565b50505b505050506040513d6020811015620016a557600080620016a262004e0e565b50505b81019080805194505050505060018060976200122c6200501b565b620016ca62003522565b6001600160a01b0316620016dd620027fe565b6001600160a01b031614620017435760405162461bcd60e51b815260206004820181905260248201527f4f776e61626c653a2063616c6c6572206973206e6f7420746865206f776e65726044820152606401604051809103906200174062004e0e565b50505b6200174d62003534565b565b6000600260976200175f62004fce565b1415620017bd5760405162461bcd60e51b815260206004820152601f60248201527f5265656e7472616e637947756172643a207265656e7472616e742063616c6c00604482015260640160405180910390620017ba62004e0e565b50505b6002806097620017cc6200501b565b505050620017d962001a70565b15620018365760405162461bcd60e51b815260206004820152601060248201527f5061757361626c653a20706175736564000000000000000000000000000000006044820152606401604051809103906200183362004e0e565b50505b81805a620018436200506a565b1115620018a15760405162461bcd60e51b815260206004820152601060248201527f446561646c696e65206e6f74206d6574000000000000000000000000000000006044820152606401604051809103906200189e62004e0e565b50505b73__$a4e4384d4f8ec13c7a898ae597a4175ef6$__6340370edf60c98888886040518563ffffffff1660e01b815260040180858152602001806020018381526020018281038252858582818152602001925060200280828437600083820152601f01601f19169091019650602095506040945050505050518083038186806200163d62004e7b565b6200193362003522565b6001600160a01b031662001946620027fe565b6001600160a01b031614620019ac5760405162461bcd60e51b815260206004820181905260248201527f4f776e61626c653a2063616c6c6572206973206e6f7420746865206f776e6572604482015260640160405180910390620019a962004e0e565b50505b73__$a50a14a4f4d416df093fe8223c9bbe01e7$__6358fdd79b60c984846040517fffffffff0000000000000000000000000000000000000000000000000000000060e086901b168152600481019390935260248301919091526044820152606401600060405180830381868062001a2362004e7b565b15801562001a3b5760008062001a3862004e0e565b50505b505a62001a4762004ed8565b505050505015801562000e8c573d6000803e3d600062001a6662004e0e565b5050505050505050565b600080606562001a7f62004fce565b906101000a900460ff16905090565b6002609762001a9c62004fce565b141562001afa5760405162461bcd60e51b815260206004820152601f60248201527f5265656e7472616e637947756172643a207265656e7472616e742063616c6c0060448201526064016040518091039062001af762004e0e565b50505b600280609762001b096200501b565b505050600062001b19846200221a565b90506000846001600160a01b03166370a082315a63996d79a5598160e01b8152602081600483336000905af158601d01573d60011458600c01573d6000803e3d621234565260ea61109c528051925060005b604081101562001b845760008282015260200162001b6b565b5050506040517fffffffff0000000000000000000000000000000000000000000000000000000060e084901b1681526001600160a01b039091166004820152602401602060405180830381868062001bdb62004e7b565b15801562001bf35760008062001bf062004e0e565b50505b505a62001bff620050b1565b505050505015801562001c21573d6000803e3d600062001c1e62004e0e565b50505b505050506040513d602081101562001c435760008062001c4062004e0e565b50505b81019080805193506000925062001c8d915060d2905060ff85168162001c6862004fce565b811062001c7157fe5b9060005260206000200162001c8562004fce565b83906200360d565b905060008511801562001ca05750848210155b62001cfc5760405162461bcd60e51b815260206004820152600e60248201527f696e76616c696420616d6f756e7400000000000000000000000000000000000060448201526064016040518091039062001cf962004e0e565b50505b600062001d2461271062001d1d60d462001d1562004fce565b899062003675565b90620036e4565b9050600062001d4761271062001d1d60d562001d3f62004fce565b859062003675565b90506000821162001da95760405162461bcd60e51b815260206004820152601f60248201527f616d6f756e7420697320736d616c6c20666f72206120666c6173684c6f616e0060448201526064016040518091039062001da662004e0e565b50505b62001dbf6001600160a01b0389168a8962003757565b886001600160a01b031663405b019d5a63996d79a5598160e01b8152602081600483336000905af158601d01573d60011458600c01573d6000803e3d621234565260ea61109c528051925060005b604081101562001e265760008282015260200162001e0d565b5050508a8a868b6040518663ffffffff1660e01b815260040180866001600160a01b03168152602001856001600160a01b0316815260200184815260200183815260200180602001828103825283818151815260200191508051906020019080838360005b8381101562001ea557808201518382015260200162001e8b565b50505050905090810190601f16801562001ed35780820380516001836020036101000a031916815260200191505b5096505050505050506000604051808303816000878062001ef362004e7b565b15801562001f0b5760008062001f0862004e0e565b50505b505a62001f17620050c3565b50505050505015801562001f3a573d6000803e3d600062001f3762004e0e565b50505b505050506000886001600160a01b03166370a082315a63996d79a5598160e01b8152602081600483336000905af158601d01573d60011458600c01573d6000803e3d621234565260ea61109c528051925060005b604081101562001fa75760008282015260200162001f8e565b5050506040517fffffffff0000000000000000000000000000000000000000000000000000000060e084901b1681526001600160a01b039091166004820152602401602060405180830381868062001ffe62004e7b565b15801562002016576000806200201362004e0e565b50505b505a62002022620050b1565b505050505015801562002044573d6000803e3d60006200204162004e0e565b50505b505050506040513d602081101562002066576000806200206362004e0e565b50505b8101908080519350620020809250879150859050620037f8565b811015620020df5760405162461bcd60e51b815260206004820152601860248201527f666c6173684c6f616e20666565206973206e6f74206d65740000000000000000604482015260640160405180910390620020dc62004e0e565b50505b620020f782620020f083876200360d565b906200360d565b60d260ff8816816200210862004fce565b81106200211157fe5b906000526020600020018190620021276200501b565b505050896001600160a01b03167f7c186b2827b23e9024e7b29869cba58a97a4bac6567802a8ea6a8afa7b8c22f0878a8686604051808560ff16815260200184815260200183815260200182815260200194505050505060405180910390a2505050505050600160978190620014616200501b565b60c980620021a962004fce565b9080600101620021b862004fce565b9080600201620021c762004fce565b9080600301620021d662004fce565b9080600401620021e562004fce565b9080600501620021f462004fce565b906000600682016200220562004fce565b906101000a90046001600160a01b0316905087565b6001600160a01b038116600090815260d360205280604081206000906200224062004fce565b906101000a900460ff169050826001600160a01b03166200226182620023ec565b6001600160a01b031614620013275760405162461bcd60e51b815260206004820152601460248201527f546f6b656e20646f6573206e6f74206578697374000000000000000000000000604482015260640160405180910390620022c462004e0e565b505092915050565b620022d662003522565b6001600160a01b0316620022e9620027fe565b6001600160a01b0316146200234f5760405162461bcd60e51b815260206004820181905260248201527f4f776e61626c653a2063616c6c6572206973206e6f7420746865206f776e65726044820152606401604051809103906200234c62004e0e565b50505b60008060336200235e62004fce565b906101000a90046001600160a01b03166001600160a01b03167f8be0079c531659141344cd1fd0a4f28419497f9722a3daafe3b4186f6b6457e060405160405180910390a360006033600181620023b462004fce565b816001600160a01b0302191690836001600160a01b0316021790620023d86200501b565b505050565b60d4620023e962004fce565b81565b600060d080620023fb62004fce565b90508260ff16106200245e5760405162461bcd60e51b815260206004820152600c60248201527f4f7574206f662072616e676500000000000000000000000000000000000000006044820152606401604051809103906200245b62004e0e565b50505b60d060ff8316816200246f62004fce565b81106200247857fe5b906000526020600020016000906200248f62004fce565b906101000a90046001600160a01b03169050919050565b620024b062003522565b6001600160a01b0316620024c3620027fe565b6001600160a01b031614620025295760405162461bcd60e51b815260206004820181905260248201527f4f776e61626c653a2063616c6c6572206973206e6f7420746865206f776e65726044820152606401604051809103906200252662004e0e565b50505b6200174d6200385a565b6000600260976200254362004fce565b1415620025a15760405162461bcd60e51b815260206004820152601f60248201527f5265656e7472616e637947756172643a207265656e7472616e742063616c6c006044820152606401604051809103906200259e62004e0e565b50505b6002806097620025b06200501b565b505050620025bd62001a70565b156200261a5760405162461bcd60e51b815260206004820152601060248201527f5061757361626c653a20706175736564000000000000000000000000000000006044820152606401604051809103906200261762004e0e565b50505b81805a620026276200506a565b1115620026855760405162461bcd60e51b815260206004820152601060248201527f446561646c696e65206e6f74206d6574000000000000000000000000000000006044820152606401604051809103906200268262004e0e565b50505b73__$a4e4384d4f8ec13c7a898ae597a4175ef6$__6341b91c2660c98888886040518563ffffffff1660e01b815260040180858152602001806020018381526020018281038252858582818152602001925060200280828437600083820152601f01601f19169091019650602095506040945050505050518083038186806200163d62004e7b565b6200271762003522565b6001600160a01b03166200272a620027fe565b6001600160a01b031614620027905760405162461bcd60e51b815260206004820181905260248201527f4f776e61626c653a2063616c6c6572206973206e6f7420746865206f776e65726044820152606401604051809103906200278d62004e0e565b50505b73__$a4e4384d4f8ec13c7a898ae597a4175ef6$__637046727660c9836040517fffffffff0000000000000000000000000000000000000000000000000000000060e085901b1681526004810192909252602482015260440160006040518083038186806200141e62004e7b565b60008060336200280d62004fce565b906101000a90046001600160a01b0316905090565b6000600260976200283262004fce565b1415620028905760405162461bcd60e51b815260206004820152601f60248201527f5265656e7472616e637947756172643a207265656e7472616e742063616c6c006044820152606401604051809103906200288d62004e0e565b50505b60028060976200289f6200501b565b505050620028ac62001a70565b15620029095760405162461bcd60e51b815260206004820152601060248201527f5061757361626c653a20706175736564000000000000000000000000000000006044820152606401604051809103906200290662004e0e565b50505b81805a620029166200506a565b1115620029745760405162461bcd60e51b815260206004820152601060248201527f446561646c696e65206e6f74206d6574000000000000000000000000000000006044820152606401604051809103906200297162004e0e565b50505b73__$a4e4384d4f8ec13c7a898ae597a4175ef6$__63a5397b2260c9898989896040517fffffffff0000000000000000000000000000000000000000000000000000000060e088901b168152600481019590955260ff93841660248601529190921660448401526064830191909152608482015260a401602060405180830381868062002a0062004e7b565b15801562002a185760008062002a1562004e0e565b50505b505a62002a2462004ed8565b505050505015801562002a46573d6000803e3d600062002a4362004e0e565b50505b505050506040513d602081101562002a685760008062002a6562004e0e565b50505b810190808051945050505050600180609762002a836200501b565b50505095945050505050565b600060d08062002a9e62004fce565b90508260ff161062002b015760405162461bcd60e51b815260206004820152601260248201527f496e646578206f7574206f662072616e6765000000000000000000000000000060448201526064016040518091039062002afe62004e0e565b50505b60d260ff83168162002b1262004fce565b811062002b1b57fe5b906000526020600020016200132762004fce565b600073__$a4e4384d4f8ec13c7a898ae597a4175ef6$__634b23603c60c98686866040517fffffffff0000000000000000000000000000000000000000000000000000000060e087901b168152600481019490945260ff9283166024850152911660448301526064820152608401602060405180830381868062002bb262004e7b565b15801562002bca5760008062002bc762004e0e565b50505b505a62002bd662004ed8565b505050505015801562002bf8573d6000803e3d600062002bf562004e0e565b50505b505050506040513d602081101562002c1a5760008062002c1762004e0e565b50505b81019080805193505050505b9392505050565b6001600062002c3b62004fce565b906101000a900460ff168062002c56575062002c5662003916565b8062002c76575060008062002c6a62004fce565b906101000a900460ff16155b62002cbe5760405162461bcd60e51b815260040180806020018281038252602e81526020018062005855602e91396040019150506040518091039062002cbb62004e0e565b50505b600060018162002ccd62004fce565b906101000a900460ff16159050801562002d3c57600160006101008162002cf362004fce565b8160ff0219169083151502179062002d0a6200501b565b50505060016000806101000a8162002d2162004fce565b8160ff0219169083151502179062002d386200501b565b5050505b62002d4e898989898989898962003983565b60088060d462002d5d6200501b565b505050600060d5819062002d706200501b565b505050801562002da6576000806101008162002d8b62004fce565b8160ff0219169083151502179062002da26200501b565b5050505b505050505050505050565b62002dbb62003522565b6001600160a01b031662002dce620027fe565b6001600160a01b03161462002e345760405162461bcd60e51b815260206004820181905260248201527f4f776e61626c653a2063616c6c6572206973206e6f7420746865206f776e657260448201526064016040518091039062002e3162004e0e565b50505b73__$a50a14a4f4d416df093fe8223c9bbe01e7$__63f14e211e60c96040517fffffffff0000000000000000000000000000000000000000000000000000000060e084901b1681526004810191909152602401600060405180830381868062000e4962004e7b565b600073__$a50a14a4f4d416df093fe8223c9bbe01e7$__63b0a14cfc60c96040517fffffffff0000000000000000000000000000000000000000000000000000000060e084901b1681526004810191909152602401602060405180830381868062000eff62004e7b565b600073__$a4e4384d4f8ec13c7a898ae597a4175ef6$__6371906c2c60c96040517fffffffff0000000000000000000000000000000000000000000000000000000060e084901b1681526004810191909152602401602060405180830381868062000eff62004e7b565b600073__$a4e4384d4f8ec13c7a898ae597a4175ef6$__63834b491060c98686866040518563ffffffff1660e01b8152600401808581526020018060200183151581526020018281038252858582818152602001925060200280828437600083820152601f01601f191690910196506020955060409450505050505180830381868062002bb262004e7b565b60d5620023e962004fce565b600073__$a4e4384d4f8ec13c7a898ae597a4175ef6$__637d04816060c9846040517fffffffff0000000000000000000000000000000000000000000000000000000060e085901b1681526004810192909252602482015260440160206040518083038186806200307862004e7b565b15801562003090576000806200308d62004e0e565b50505b505a6200309c62004ed8565b5050505050158015620030be573d6000803e3d6000620030bb62004e0e565b50505b505050506040513d6020811015620030e057600080620030dd62004e0e565b50505b81019080805195945050505050565b620030f962003522565b6001600160a01b03166200310c620027fe565b6001600160a01b031614620031725760405162461bcd60e51b815260206004820181905260248201527f4f776e61626c653a2063616c6c6572206973206e6f7420746865206f776e65726044820152606401604051809103906200316f62004e0e565b50505b6000821180156200318557506127108211155b80156200319457506127108111155b620031f05760405162461bcd60e51b815260206004820152601b60248201527f6665657320617265206e6f7420696e2076616c69642072616e67650000000000604482015260640160405180910390620031ed62004e0e565b50505b818060d4620031fe6200501b565b5050508060d58190620014646200501b565b606073__$a4e4384d4f8ec13c7a898ae597a4175ef6$__6370703e4a60c9846040517fffffffff0000000000000000000000000000000000000000000000000000000060e085901b1681526004810192909252602482015260440160006040518083038186806200328062004e7b565b15801562003298576000806200329562004e0e565b50505b505a620032a462004ed8565b5050505050158015620032c6573d6000803e3d6000620032c362004e0e565b50505b505050506040513d6000823e601f3d908101601f191682016040526020811015620032fb57600080620032f862004e0e565b50505b810190808051604051939291908464010000000082111562003327576000806200332462004e0e565b50505b90830190602082018581111562003348576000806200334562004e0e565b50505b825186602082028301116401000000008211171562003371576000806200336e62004e0e565b50505b825250602001908051906020019060200280838360005b83811015620033a257808201518382015260200162003388565b505050509050016040525050509050919050565b620033c062003522565b6001600160a01b0316620033d3620027fe565b6001600160a01b031614620034395760405162461bcd60e51b815260206004820181905260248201527f4f776e61626c653a2063616c6c6572206973206e6f7420746865206f776e65726044820152606401604051809103906200343662004e0e565b50505b6001600160a01b0381166200348b5760405162461bcd60e51b81526004018080602001828103825260268152602001806200582f60269139604001915050604051809103906200348862004e0e565b50505b6001600160a01b03811660006033620034a362004fce565b906101000a90046001600160a01b03166001600160a01b03167f8be0079c531659141344cd1fd0a4f28419497f9722a3daafe3b4186f6b6457e060405160405180910390a3806033600181620034f862004fce565b816001600160a01b0302191690836001600160a01b031602179062000e8f6200501b565b61271081565b60005a6200352f62005191565b905090565b6200353e62001a70565b6200359a5760405162461bcd60e51b815260206004820152601460248201527f5061757361626c653a206e6f74207061757365640000000000000000000000006044820152606401604051809103906200359762004e0e565b50505b60006065600181620035ab62004fce565b8160ff02191690831515021790620035c26200501b565b5050507f5db9ee0a495bf2e6ff9c91a7834c1ba4fdd244a5e8aa4e537bd38aeae4b073aa620035f062003522565b6040516001600160a01b03909116815260200160405180910390a1565b6000828211156200366f5760405162461bcd60e51b815260206004820152601e60248201527f536166654d6174683a207375627472616374696f6e206f766572666c6f7700006044820152606401604051809103906200366c62004e0e565b50505b50900390565b600082620036865750600062001327565b828202828482816200369457fe5b041462002c265760405162461bcd60e51b8152600401808060200182810382526021815260200180620058836021913960400191505060405180910390620036db62004e0e565b50509392505050565b6000808211620037455760405162461bcd60e51b815260206004820152601a60248201527f536166654d6174683a206469766973696f6e206279207a65726f0000000000006044820152606401604051809103906200374262004e0e565b50505b8183816200374f57fe5b049392505050565b620023d8837fa9059cbb0000000000000000000000000000000000000000000000000000000084846040516001600160a01b0390921660248301526044820152606401604051602081830303815290604052907bffffffffffffffffffffffffffffffffffffffffffffffffffffffff19166020820180517bffffffffffffffffffffffffffffffffffffffffffffffffffffffff16909117905262004393565b60008282018381101562002c265760405162461bcd60e51b815260206004820152601b60248201527f536166654d6174683a206164646974696f6e206f766572666c6f770000000000604482015260640160405180910390620036db62004e0e565b6200386462001a70565b15620038c15760405162461bcd60e51b815260206004820152601060248201527f5061757361626c653a2070617573656400000000000000000000000000000000604482015260640160405180910390620038be62004e0e565b50505b600160658181620038d162004fce565b8160ff02191690831515021790620038e86200501b565b5050507f62e78cea01bee320cd4e420270b5ea74000d11b0c9f74754ebdbfc544b05a258620035f062003522565b60006200397d5a63996d79a5598160e01b8152602081600483336000905af158601d01573d60011458600c01573d6000803e3d621234565260ea61109c528051925060005b604081101562003974576000828201526020016200395b565b5050506200445d565b15905090565b600160006200399162004fce565b906101000a900460ff1680620039ac5750620039ac62003916565b80620039cc5750600080620039c062004fce565b906101000a900460ff16155b62003a145760405162461bcd60e51b815260040180806020018281038252602e81526020018062005855602e91396040019150506040518091039062003a1162004e0e565b50505b600060018162003a2362004fce565b906101000a900460ff16159050801562003a9257600160006101008162003a4962004fce565b8160ff0219169083151502179062003a606200501b565b50505060016000806101000a8162003a7762004fce565b8160ff0219169083151502179062003a8e6200501b565b5050505b62003a9c62004474565b62003aa6620045d3565b600189511162003b075760405162461bcd60e51b815260206004820152601960248201527f5f706f6f6c6564546f6b656e732e6c656e677468203c3d20310000000000000060448201526064016040518091039062003b0462004e0e565b50505b60208951111562003b695760405162461bcd60e51b815260206004820152601960248201527f5f706f6f6c6564546f6b656e732e6c656e677468203e2033320000000000000060448201526064016040518091039062003b6662004e0e565b50505b875189511462003bca5760405162461bcd60e51b815260206004820152601f60248201527f5f706f6f6c6564546f6b656e7320646563696d616c73206d69736d617463680060448201526064016040518091039062003bc762004e0e565b50505b6060885167ffffffffffffffff8111801562003bf05760008062003bed62004e0e565b50505b5060405190808252806020026020018201604052801562003c1b578160200160208202803683370190505b50905060005b8a518160ff16101562003ee65760ff81161562003d355760d360008c8360ff168151811062003c4c57fe5b60200260200101516001600160a01b03166001600160a01b0316815260200190815260200160002060009062003c8162004fce565b60ff6101009290920a90041615801562003cd957508a8160ff168151811062003ca657fe5b60200260200101516001600160a01b03168b60008151811062003cc557fe5b60200260200101516001600160a01b031614155b62003d355760405162461bcd60e51b815260206004820152601060248201527f4475706c696361746520746f6b656e730000000000000000000000000000000060448201526064016040518091039062003d3262004e0e565b50505b60008b60ff83168151811062003d4757fe5b60200260200101516001600160a01b0316141562003db65760405162461bcd60e51b815260206004820152601d60248201527f546865203020616464726573732069736e277420616e204552432d323000000060448201526064016040518091039062003db362004e0e565b50505b60128a60ff83168151811062003dc857fe5b602002602001015160ff16111562003e315760405162461bcd60e51b815260206004820152601a60248201527f546f6b656e20646563696d616c732065786365656473206d617800000000000060448201526064016040518091039062003e2e62004e0e565b50505b62003e598a8260ff168151811062003e4557fe5b602002602001015160129060ff166200360d565b600a0a828260ff168151811062003e6c57fe5b6020026020010181815250508060d360008d8460ff168151811062003e8d57fe5b60200260200101516001600160a01b03166001600160a01b0316815260200190815260200160002060018162003ec262004fce565b8160ff021916908360ff1602179062003eda6200501b565b50505060010162003c21565b50620f4240861062003f495760405162461bcd60e51b815260206004820152601260248201527f5f612065786365656473206d6178696d756d000000000000000000000000000060448201526064016040518091039062003f4662004e0e565b50505b6305f5e100851062003fac5760405162461bcd60e51b815260206004820152601460248201527f5f6665652065786365656473206d6178696d756d00000000000000000000000060448201526064016040518091039062003fa962004e0e565b50505b6402540be4008410620040105760405162461bcd60e51b815260206004820152601960248201527f5f61646d696e4665652065786365656473206d6178696d756d000000000000006044820152606401604051809103906200400d62004e0e565b50505b6000836040516200402190620051d8565b6001600160a01b03909116815260200160405180910390600062004044620051e6565b50508015801562004064573d6000803e3d60006200406162004e0e565b50505b509050806001600160a01b0316634cd88b768a8a6040518363ffffffff1660e01b8152600401808060200180602001838103835285818151815260200191508051906020019080838360005b83811015620040ca578082015183820152602001620040b0565b50505050905090810190601f168015620040f85780820380516001836020036101000a031916815260200191505b50838103825284818151815260200191508051906020019080838360005b838110156200413057808201518382015260200162004116565b50505050905090810190601f1680156200415e5780820380516001836020036101000a031916815260200191505b50945050505050602060405180830381600087806200417c62004e7b565b15801562004194576000806200419162004e0e565b50505b505a620041a0620050c3565b505050505050158015620041c3573d6000803e3d6000620041c062004e0e565b50505b505050506040513d6020811015620041e557600080620041e262004e0e565b50505b81019080805192506200424c9150505760405162461bcd60e51b815260206004820152601c60248201527f636f756c64206e6f7420696e6974206c70546f6b656e20636c6f6e65000000006044820152606401604051809103906200424962004e0e565b50505b8060cf6001816200425c62004fce565b816001600160a01b0302191690836001600160a01b0316021790620042806200501b565b5060d091508c905080516200429a9291602001906200526b565b5060d1828051620042b092916020019062005302565b508a5167ffffffffffffffff81118015620042d557600080620042d262004e0e565b50505b5060405190808252806020026020018201604052801562004300578160200160208202803683370190505b5060d29080516200431692916020019062005302565b506200432487606462003675565b8060c9620043316200501b565b50620043439150889050606462003675565b8060ca620043506200501b565b5087915081905060cd620043636200501b565b5086915081905060ce620043766200501b565b5050505050801562002da6576000806101008162002d8b62004fce565b6060620043e0826040516040808201905260208082527f5361666545524332303a206c6f772d6c6576656c2063616c6c206661696c6564908201526001600160a01b0386169190620046ec565b9050600081511115620023d85760208101815160208110156200440d576000806200440a62004e0e565b50505b8101908080519250620023d89150505760405162461bcd60e51b815260040180806020018281038252602a815260200180620058a4602a9139604001915050604051809103906200146462004e0e565b600080826200446b62004e7b565b15159392505050565b600160006200448262004fce565b906101000a900460ff16806200449d57506200449d62003916565b80620044bd5750600080620044b162004fce565b906101000a900460ff16155b620045055760405162461bcd60e51b815260040180806020018281038252602e81526020018062005855602e9139604001915050604051809103906200450262004e0e565b50505b60006001816200451462004fce565b906101000a900460ff161590508015620045835760016000610100816200453a62004fce565b8160ff02191690831515021790620045516200501b565b50505060016000806101000a816200456862004fce565b8160ff021916908315150217906200457f6200501b565b5050505b6200458d62004705565b620045976200482b565b620045a1620049d0565b8015620045d05760008061010081620045b962004fce565b8160ff0219169083151502179062000e8f6200501b565b50565b60016000620045e162004fce565b906101000a900460ff1680620045fc5750620045fc62003916565b806200461c57506000806200461062004fce565b906101000a900460ff16155b620046645760405162461bcd60e51b815260040180806020018281038252602e81526020018062005855602e9139604001915050604051809103906200466162004e0e565b50505b60006001816200467362004fce565b906101000a900460ff161590508015620046e25760016000610100816200469962004fce565b8160ff02191690831515021790620046b06200501b565b50505060016000806101000a81620046c762004fce565b8160ff02191690831515021790620046de6200501b565b5050505b620045a162004af0565b6060620046fd848460008562004c0e565b949350505050565b600160006200471362004fce565b906101000a900460ff16806200472e57506200472e62003916565b806200474e57506000806200474262004fce565b906101000a900460ff16155b620047965760405162461bcd60e51b815260040180806020018281038252602e81526020018062005855602e9139604001915050604051809103906200479362004e0e565b50505b6000600181620047a562004fce565b906101000a900460ff161590508015620045a1576001600061010081620047cb62004fce565b8160ff02191690831515021790620047e26200501b565b50505060016000806101000a81620047f962004fce565b8160ff02191690831515021790620048106200501b565b5050508015620045d05760008061010081620045b962004fce565b600160006200483962004fce565b906101000a900460ff16806200485457506200485462003916565b806200487457506000806200486862004fce565b906101000a900460ff16155b620048bc5760405162461bcd60e51b815260040180806020018281038252602e81526020018062005855602e913960400191505060405180910390620048b962004e0e565b50505b6000600181620048cb62004fce565b906101000a900460ff1615905080156200493a576001600061010081620048f162004fce565b8160ff02191690831515021790620049086200501b565b50505060016000806101000a816200491f62004fce565b8160ff02191690831515021790620049366200501b565b5050505b60006200494662003522565b90508060336001816200495862004fce565b816001600160a01b0302191690836001600160a01b03160217906200497c6200501b565b5050506001600160a01b03811660007f8be0079c531659141344cd1fd0a4f28419497f9722a3daafe3b4186f6b6457e060405160405180910390a3508015620045d05760008061010081620045b962004fce565b60016000620049de62004fce565b906101000a900460ff1680620049f95750620049f962003916565b8062004a19575060008062004a0d62004fce565b906101000a900460ff16155b62004a615760405162461bcd60e51b815260040180806020018281038252602e81526020018062005855602e91396040019150506040518091039062004a5e62004e0e565b50505b600060018162004a7062004fce565b906101000a900460ff16159050801562004adf57600160006101008162004a9662004fce565b8160ff0219169083151502179062004aad6200501b565b50505060016000806101000a8162004ac462004fce565b8160ff0219169083151502179062004adb6200501b565b5050505b60006065600181620047f962004fce565b6001600062004afe62004fce565b906101000a900460ff168062004b19575062004b1962003916565b8062004b39575060008062004b2d62004fce565b906101000a900460ff16155b62004b815760405162461bcd60e51b815260040180806020018281038252602e81526020018062005855602e91396040019150506040518091039062004b7e62004e0e565b50505b600060018162004b9062004fce565b906101000a900460ff16159050801562004bff57600160006101008162004bb662004fce565b8160ff0219169083151502179062004bcd6200501b565b50505060016000806101000a8162004be462004fce565b8160ff0219169083151502179062004bfb6200501b565b5050505b6001806097620048106200501b565b606062004c1b856200445d565b62004c775760405162461bcd60e51b815260206004820152601d60248201527f416464726573733a2063616c6c20746f206e6f6e2d636f6e747261637400000060448201526064016040518091039062004c7462004e0e565b50505b60006060866001600160a01b031685876040518082805190602001908083835b6020831062004cb85780518252601f19909201916020918201910162004c97565b6001836020036101000a03801982511681845116808217855250505050505090500191505060006040518083038185875a62004cf3620050c3565b505050505050925050503d806000811462004d2b576040513d603f01601f191681016040523d815291503d6000602084013e62004d30565b606091505b509150915062004d4282828662004d4d565b979650505050505050565b6060831562004d5e57508162002c26565b60008351111562004d83578251808460200162004d7a62004e0e565b50505062002c26565b8160405162461bcd60e51b81526004018080602001828103825283818151815260200191508051906020019080838360005b8381101562004dcf57808201518382015260200162004db5565b50505050905090810190601f16801562004dfd5780820380516001836020036101000a031916815260200191505b509250505060405180910390620036db5b632a2a7adb598160e01b8152600481016020815285602082015260005b8681101562004e4857808601518282016040015260200162004e2b565b506020828760640184336000905af158601d01573d60011458600c01573d6000803e3d621234565260ea61109c52505050565b638435035b598160e01b8152836004820152602081602483336000905af158601d01573d60011458600c01573d6000803e3d621234565260ea61109c528051935060005b6040811015620023d85760008282015260200162004ebf565b63ffe73914598160e01b815262004f0c565b808083111562001327575090919050565b808083101562001327575090919050565b836004820152846024820152606060448201528660648201526084810160005b8881101562004f4657808801518282015260200162004f2c565b506060828960a40184336000905af158601d01573d60011458600c01573d6000803e3d621234565260ea61109c52815160408301513d6000853e8b8b82606087013350600060045af1505962004f9d8d3d62004efb565b8c0162004fab818762004eea565b5b8281101562004fc2576000815260200162004fac565b50929c50505050505050565b6303daa959598160e01b8152836004820152602081602483336000905af158601d01573d60011458600c01573d6000803e3d621234565260ea61109c528051600082529350602062004ebf565b6322bd64c0598160e01b8152836004820152846024820152600081604483336000905af158601d01573d60011458600c01573d6000803e3d621234565260ea61109c5260008152602062004ebf565b63bdbf8c36598160e01b8152602081600483336000905af158601d01573d60011458600c01573d6000803e3d621234565260ea61109c528051600082529350602062004ebf565b638540661f598160e01b815262004f0c565b6385979f76598160e01b8152836004820152846024820152606060448201528760648201526084810160005b8981101562005109578089015182820152602001620050ef565b506060828a60a40184336000905af158601d01573d60011458600c01573d6000803e3d621234565260ea61109c52815160408301513d6000853e8c8c82606087013350600060045af15059620051608e3d62004efb565b8d016200516e818762004eea565b5b828110156200518557600081526020016200516f565b50929d50505050505050565b6373509064598160e01b8152602081600483336000905af158601d01573d60011458600c01573d6000803e3d621234565260ea61109c528051600082529350602062004ebf565b61046280620053cd83390190565b6314aa2ff7598160e01b8152600481016020815286602082015260005b878110156200522057808701518282016040015260200162005203565b506020828860640184336000905af158601d01573d60011458600c01573d6000803e3d621234565260ea61109c528151965059825b8181101562001464576000815260200162005255565b82806200527762004fce565b8282620052836200501b565b5050906000526020600020908101928215620052f0579160200282015b82811115620052f057825182600181620052b962004fce565b816001600160a01b0302191690836001600160a01b0316021790620052dd6200501b565b50505091602001919060010190620052a0565b50620052fe9291506200536d565b5090565b82806200530e62004fce565b82826200531a6200501b565b50509060005260206000209081019282156200535f579160200282015b828111156200535f578251826200534d6200501b565b50509160200191906001019062005337565b50620052fe929150620053a9565b80821115620052fe576000816001816200538662004fce565b906001600160a01b03021916906200539d6200501b565b5050506001016200536d565b80821115620052fe5760008082620053c06200501b565b505050600101620053a956fe60806040523480156100195760008061001661008a565b50505b50604051610462380380610462833981810160405260208110156100455760008061004261008a565b50505b81019080805192508291506000905060018161005f6100f5565b816001600160a01b0302191690836001600160a01b0316021790610081610155565b505050506101a3565b632a2a7adb598160e01b8152600481016020815285602082015260005b868110156100c25780860151828201604001526020016100a7565b506020828760640184336000905af158601d01573d60011458600c01573d6000803e3d621234565260ea61109c52505050565b6303daa959598160e01b8152836004820152602081602483336000905af158601d01573d60011458600c01573d6000803e3d621234565260ea61109c528051935060005b604081101561015057600082820152602001610139565b505050565b6322bd64c0598160e01b8152836004820152846024820152600081604483336000905af158601d01573d60011458600c01573d6000803e3d621234565260ea61109c52600081526020610139565b6102b0806101b26000396000f3fe60806040526004361061001e5760003560e01c80635c60da1b14610086575b6000808061002a6100f8565b906101000a900473ffffffffffffffffffffffffffffffffffffffff1690503660008037600080366000845a61005e610158565b50505050503d6000803e808015610074573d6000f35b3d600061007f610245565b5050505050005b34801561009b57600080610098610245565b50505b506100a46100cd565b60405173ffffffffffffffffffffffffffffffffffffffff909116815260200160405180910390f35b6000806100d86100f8565b906101000a900473ffffffffffffffffffffffffffffffffffffffff1681565b6303daa959598160e01b8152836004820152602081602483336000905af158601d01573d60011458600c01573d6000803e3d621234565260ea61109c528051935060005b60408110156101535760008282015260200161013c565b505050565b63ffe73914598160e01b815261018b565b80808311156101755750815b92915050565b8080831015610175575090919050565b836004820152846024820152606060448201528660648201526084810160005b888110156101c35780880151828201526020016101ab565b506060828960a40184336000905af158601d01573d60011458600c01573d6000803e3d621234565260ea61109c52815160408301513d6000853e8b8b82606087013350600060045af150596102188d3d61017b565b8c016102248187610169565b5b828110156102395760008152602001610225565b50929c50505050505050565b632a2a7adb598160e01b8152600481016020815285602082015260005b8681101561027d578086015182820160400152602001610262565b506020828760640184336000905af158601d01573d60011458600c01573d6000803e3d621234565260ea61109c52505050564f776e61626c653a206e6577206f776e657220697320746865207a65726f2061646472657373496e697469616c697a61626c653a20636f6e747261637420697320616c726561647920696e697469616c697a6564536166654d6174683a206d756c7469706c69636174696f6e206f766572666c6f775361666545524332303a204552433230206f7065726174696f6e20646964206e6f742073756363656564",
  "libraries": {
    "SwapUtils": "0xD702C8648E0658aa3269502B5F6D79cbf47E30Ff",
    "AmplificationUtils": "0xA92A89cC989CC1c3A61417bb5AA769d512Cf4D62"
  },
  "devdoc": {
    "details": "Most of the logic is stored as a library `SwapUtils` for the sake of reducing contract's deployment size.",
    "kind": "dev",
    "methods": {
      "addLiquidity(uint256[],uint256,uint256)": {
        "params": {
          "amounts": "the amounts of each token to add, in their native precision",
          "deadline": "latest timestamp to accept this transaction",
          "minToMint": "the minimum LP tokens adding this amount of liquidity should mint, otherwise revert. Handy for front-running mitigation"
        },
        "returns": {
          "_0": "amount of LP token user minted and received"
        }
      },
      "calculateRemoveLiquidity(uint256)": {
        "params": {
          "amount": "the amount of LP tokens that would be burned on withdrawal"
        },
        "returns": {
          "_0": "array of token balances that the user will receive"
        }
      },
      "calculateRemoveLiquidityOneToken(uint256,uint8)": {
        "params": {
          "tokenAmount": "the amount of LP token to burn",
          "tokenIndex": "index of which token will be withdrawn"
        },
        "returns": {
          "availableTokenAmount": "calculated amount of underlying token available to withdraw"
        }
      },
      "calculateSwap(uint8,uint8,uint256)": {
        "params": {
          "dx": "the amount of tokens the user wants to sell. If the token charges a fee on transfers, use the amount that gets transferred after the fee.",
          "tokenIndexFrom": "the token the user wants to sell",
          "tokenIndexTo": "the token the user wants to buy"
        },
        "returns": {
          "_0": "amount of tokens the user will receive"
        }
      },
      "calculateTokenAmount(uint256[],bool)": {
        "details": "This shouldn't be used outside frontends for user estimates.",
        "params": {
          "amounts": "an array of token amounts to deposit or withdrawal, corresponding to pooledTokens. The amount should be in each pooled token's native precision. If a token charges a fee on transfers, use the amount that gets transferred after the fee.",
          "deposit": "whether this is a deposit or a withdrawal"
        },
        "returns": {
          "_0": "token amount the user will receive"
        }
      },
      "flashLoan(address,address,uint256,bytes)": {
        "params": {
          "amount": "the total amount to borrow in this transaction",
          "params": "optional data to pass along to the callback function",
          "receiver": "the address of the receiver of the token. This address must implement the IFlashLoanReceiver interface and the callback function `executeOperation`.",
          "token": "the protocol fee in bps to be applied on the total flash loan fee"
        }
      },
      "getA()": {
        "details": "See the StableSwap paper for details",
        "returns": {
          "_0": "A parameter"
        }
      },
      "getAPrecise()": {
        "details": "See the StableSwap paper for details",
        "returns": {
          "_0": "A parameter in its raw precision form"
        }
      },
      "getAdminBalance(uint256)": {
        "params": {
          "index": "Index of the pooled token"
        },
        "returns": {
          "_0": "admin's token balance in the token's precision"
        }
      },
      "getToken(uint8)": {
        "params": {
          "index": "the index of the token"
        },
        "returns": {
          "_0": "address of the token at given index"
        }
      },
      "getTokenBalance(uint8)": {
        "params": {
          "index": "the index of the token"
        },
        "returns": {
          "_0": "current balance of the pooled token at given index with token's native precision"
        }
      },
      "getTokenIndex(address)": {
        "params": {
          "tokenAddress": "address of the token"
        },
        "returns": {
          "_0": "the index of the given token address"
        }
      },
      "getVirtualPrice()": {
        "returns": {
          "_0": "the virtual price, scaled to the POOL_PRECISION_DECIMALS"
        }
      },
      "initialize(address[],uint8[],string,string,uint256,uint256,uint256,address)": {
        "params": {
          "_a": "the amplification coefficient * n * (n - 1). See the StableSwap paper for details",
          "_adminFee": "default adminFee to be initialized with",
          "_fee": "default swap fee to be initialized with",
          "_pooledTokens": "an array of ERC20s this pool will accept",
          "decimals": "the decimals to use for each pooled token, eg 8 for WBTC. Cannot be larger than POOL_PRECISION_DECIMALS",
          "lpTokenName": "the long-form name of the token to be deployed",
          "lpTokenSymbol": "the short symbol for the token to be deployed",
          "lpTokenTargetAddress": "the address of an existing LPToken contract to use as a target"
        }
      },
      "owner()": {
        "details": "Returns the address of the current owner."
      },
      "paused()": {
        "details": "Returns true if the contract is paused, and false otherwise."
      },
      "rampA(uint256,uint256)": {
        "params": {
          "futureA": "the new A to ramp towards",
          "futureTime": "timestamp when the new A should be reached"
        }
      },
      "removeLiquidity(uint256,uint256[],uint256)": {
        "details": "Liquidity can always be removed, even when the pool is paused.",
        "params": {
          "amount": "the amount of LP tokens to burn",
          "deadline": "latest timestamp to accept this transaction",
          "minAmounts": "the minimum amounts of each token in the pool        acceptable for this burn. Useful as a front-running mitigation"
        },
        "returns": {
          "_0": "amounts of tokens user received"
        }
      },
      "removeLiquidityImbalance(uint256[],uint256,uint256)": {
        "params": {
          "amounts": "how much of each token to withdraw",
          "deadline": "latest timestamp to accept this transaction",
          "maxBurnAmount": "the max LP token provider is willing to pay to remove liquidity. Useful as a front-running mitigation."
        },
        "returns": {
          "_0": "amount of LP tokens burned"
        }
      },
      "removeLiquidityOneToken(uint256,uint8,uint256,uint256)": {
        "params": {
          "deadline": "latest timestamp to accept this transaction",
          "minAmount": "the minimum amount to withdraw, otherwise revert",
          "tokenAmount": "the amount of the token you want to receive",
          "tokenIndex": "the index of the token you want to receive"
        },
        "returns": {
          "_0": "amount of chosen token user received"
        }
      },
      "renounceOwnership()": {
        "details": "Leaves the contract without owner. It will not be possible to call `onlyOwner` functions anymore. Can only be called by the current owner. NOTE: Renouncing ownership will leave the contract without an owner, thereby removing any functionality that is only available to the owner."
      },
      "setAdminFee(uint256)": {
        "params": {
          "newAdminFee": "new admin fee to be applied on future transactions"
        }
      },
      "setFlashLoanFees(uint256,uint256)": {
        "params": {
          "newFlashLoanFeeBPS": "the total fee in bps to be applied on future flash loans",
          "newProtocolFeeShareBPS": "the protocol fee in bps to be applied on the total flash loan fee"
        }
      },
      "setSwapFee(uint256)": {
        "params": {
          "newSwapFee": "new swap fee to be applied on future transactions"
        }
      },
      "swap(uint8,uint8,uint256,uint256,uint256)": {
        "params": {
          "deadline": "latest timestamp to accept this transaction",
          "dx": "the amount of tokens the user wants to swap from",
          "minDy": "the min amount the user would like to receive, or revert.",
          "tokenIndexFrom": "the token the user wants to swap from",
          "tokenIndexTo": "the token the user wants to swap to"
        }
      },
      "transferOwnership(address)": {
        "details": "Transfers ownership of the contract to a new account (`newOwner`). Can only be called by the current owner."
      }
    },
    "title": "Swap - A StableSwap implementation in solidity.",
    "version": 1
  },
  "userdoc": {
    "kind": "user",
    "methods": {
      "addLiquidity(uint256[],uint256,uint256)": {
        "notice": "Add liquidity to the pool with the given amounts of tokens"
      },
      "calculateRemoveLiquidity(uint256)": {
        "notice": "A simple method to calculate amount of each underlying tokens that is returned upon burning given amount of LP tokens"
      },
      "calculateRemoveLiquidityOneToken(uint256,uint8)": {
        "notice": "Calculate the amount of underlying token available to withdraw when withdrawing via only single token"
      },
      "calculateSwap(uint8,uint8,uint256)": {
        "notice": "Calculate amount of tokens you receive on swap"
      },
      "calculateTokenAmount(uint256[],bool)": {
        "notice": "A simple method to calculate prices from deposits or withdrawals, excluding fees but including slippage. This is helpful as an input into the various \"min\" parameters on calls to fight front-running"
      },
      "flashLoan(address,address,uint256,bytes)": {
        "notice": "Borrow the specified token from this pool for this transaction only. This function will call `IFlashLoanReceiver(receiver).executeOperation` and the `receiver` must return the full amount of the token and the associated fee by the end of the callback transaction. If the conditions are not met, this call is reverted."
      },
      "getA()": {
        "notice": "Return A, the amplification coefficient * n * (n - 1)"
      },
      "getAPrecise()": {
        "notice": "Return A in its raw precision form"
      },
      "getAdminBalance(uint256)": {
        "notice": "This function reads the accumulated amount of admin fees of the token with given index"
      },
      "getToken(uint8)": {
        "notice": "Return address of the pooled token at given index. Reverts if tokenIndex is out of range."
      },
      "getTokenBalance(uint8)": {
        "notice": "Return current balance of the pooled token at given index"
      },
      "getTokenIndex(address)": {
        "notice": "Return the index of the given token address. Reverts if no matching token is found."
      },
      "getVirtualPrice()": {
        "notice": "Get the virtual price, to help calculate profit"
      },
      "initialize(address[],uint8[],string,string,uint256,uint256,uint256,address)": {
        "notice": "Initializes this Swap contract with the given parameters. This will also clone a LPToken contract that represents users' LP positions. The owner of LPToken will be this contract - which means only this contract is allowed to mint/burn tokens."
      },
      "pause()": {
        "notice": "Pause the contract. Revert if already paused."
      },
      "rampA(uint256,uint256)": {
        "notice": "Start ramping up or down A parameter towards given futureA and futureTime Checks if the change is too rapid, and commits the new A value only when it falls under the limit range."
      },
      "removeLiquidity(uint256,uint256[],uint256)": {
        "notice": "Burn LP tokens to remove liquidity from the pool. Withdraw fee that decays linearly over period of 4 weeks since last deposit will apply."
      },
      "removeLiquidityImbalance(uint256[],uint256,uint256)": {
        "notice": "Remove liquidity from the pool, weighted differently than the pool's current balances. Withdraw fee that decays linearly over period of 4 weeks since last deposit will apply."
      },
      "removeLiquidityOneToken(uint256,uint8,uint256,uint256)": {
        "notice": "Remove liquidity from the pool all in one token. Withdraw fee that decays linearly over period of 4 weeks since last deposit will apply."
      },
      "setAdminFee(uint256)": {
        "notice": "Update the admin fee. Admin fee takes portion of the swap fee."
      },
      "setFlashLoanFees(uint256,uint256)": {
        "notice": "Updates the flash loan fee parameters. This function can only be called by the owner."
      },
      "setSwapFee(uint256)": {
        "notice": "Update the swap fee to be applied on swaps"
      },
      "stopRampA()": {
        "notice": "Stop ramping A immediately. Reverts if ramp A is already stopped."
      },
      "swap(uint8,uint8,uint256,uint256,uint256)": {
        "notice": "Swap two tokens using this pool"
      },
      "unpause()": {
        "notice": "Unpause the contract. Revert if already unpaused."
      },
      "withdrawAdminFees()": {
        "notice": "Withdraw all admin fees to the contract owner"
      }
    },
    "notice": "This contract is responsible for custody of closely pegged assets (eg. group of stablecoins) and automatic market making system. Users become an LP (Liquidity Provider) by depositing their tokens in desired ratios for an exchange of the pool token that represents their share of the pool. Users can burn pool tokens and withdraw their share of token(s). Each time a swap between the pooled tokens happens, a set fee incurs which effectively gets distributed to the LPs. In case of emergencies, admin can pause additional deposits, swaps, or single-asset withdraws - which stops the ratio of the tokens in the pool from changing. Users can always withdraw their tokens via multi-asset withdraws.",
    "version": 1
  },
  "storageLayout": {
    "storage": [
      {
        "astId": 492,
        "contract": "contracts/SwapFlashLoan.sol:SwapFlashLoan",
        "label": "_initialized",
        "offset": 0,
        "slot": "0",
        "type": "t_bool"
      },
      {
        "astId": 495,
        "contract": "contracts/SwapFlashLoan.sol:SwapFlashLoan",
        "label": "_initializing",
        "offset": 1,
        "slot": "0",
        "type": "t_bool"
      },
      {
        "astId": 1531,
        "contract": "contracts/SwapFlashLoan.sol:SwapFlashLoan",
        "label": "__gap",
        "offset": 0,
        "slot": "1",
        "type": "t_array(t_uint256)50_storage"
      },
      {
        "astId": 10,
        "contract": "contracts/SwapFlashLoan.sol:SwapFlashLoan",
        "label": "_owner",
        "offset": 0,
        "slot": "51",
        "type": "t_address"
      },
      {
        "astId": 129,
        "contract": "contracts/SwapFlashLoan.sol:SwapFlashLoan",
        "label": "__gap",
        "offset": 0,
        "slot": "52",
        "type": "t_array(t_uint256)49_storage"
      },
      {
        "astId": 1553,
        "contract": "contracts/SwapFlashLoan.sol:SwapFlashLoan",
        "label": "_paused",
        "offset": 0,
        "slot": "101",
        "type": "t_bool"
      },
      {
        "astId": 1644,
        "contract": "contracts/SwapFlashLoan.sol:SwapFlashLoan",
        "label": "__gap",
        "offset": 0,
        "slot": "102",
        "type": "t_array(t_uint256)49_storage"
      },
      {
        "astId": 1659,
        "contract": "contracts/SwapFlashLoan.sol:SwapFlashLoan",
        "label": "_status",
        "offset": 0,
        "slot": "151",
        "type": "t_uint256"
      },
      {
        "astId": 1702,
        "contract": "contracts/SwapFlashLoan.sol:SwapFlashLoan",
        "label": "__gap",
        "offset": 0,
        "slot": "152",
        "type": "t_array(t_uint256)49_storage"
      },
      {
        "astId": 4723,
        "contract": "contracts/SwapFlashLoan.sol:SwapFlashLoan",
        "label": "swapStorage",
        "offset": 0,
        "slot": "201",
        "type": "t_struct(Swap)6496_storage"
      },
      {
        "astId": 4727,
        "contract": "contracts/SwapFlashLoan.sol:SwapFlashLoan",
        "label": "tokenIndexes",
        "offset": 0,
        "slot": "211",
        "type": "t_mapping(t_address,t_uint8)"
      },
      {
        "astId": 5695,
        "contract": "contracts/SwapFlashLoan.sol:SwapFlashLoan",
        "label": "flashLoanFeeBPS",
        "offset": 0,
        "slot": "212",
        "type": "t_uint256"
      },
      {
        "astId": 5697,
        "contract": "contracts/SwapFlashLoan.sol:SwapFlashLoan",
        "label": "protocolFeeShareBPS",
        "offset": 0,
        "slot": "213",
        "type": "t_uint256"
      }
    ],
    "types": {
      "t_address": {
        "encoding": "inplace",
        "label": "address",
        "numberOfBytes": "20"
      },
      "t_array(t_contract(IERC20)2959)dyn_storage": {
        "base": "t_contract(IERC20)2959",
        "encoding": "dynamic_array",
        "label": "contract IERC20[]",
        "numberOfBytes": "32"
      },
      "t_array(t_uint256)49_storage": {
        "base": "t_uint256",
        "encoding": "inplace",
        "label": "uint256[49]",
        "numberOfBytes": "1568"
      },
      "t_array(t_uint256)50_storage": {
        "base": "t_uint256",
        "encoding": "inplace",
        "label": "uint256[50]",
        "numberOfBytes": "1600"
      },
      "t_array(t_uint256)dyn_storage": {
        "base": "t_uint256",
        "encoding": "dynamic_array",
        "label": "uint256[]",
        "numberOfBytes": "32"
      },
      "t_bool": {
        "encoding": "inplace",
        "label": "bool",
        "numberOfBytes": "1"
      },
      "t_contract(IERC20)2959": {
        "encoding": "inplace",
        "label": "contract IERC20",
        "numberOfBytes": "20"
      },
      "t_contract(LPToken)4345": {
        "encoding": "inplace",
        "label": "contract LPToken",
        "numberOfBytes": "20"
      },
      "t_mapping(t_address,t_uint8)": {
        "encoding": "mapping",
        "key": "t_address",
        "label": "mapping(address => uint8)",
        "numberOfBytes": "32",
        "value": "t_uint8"
      },
      "t_struct(Swap)6496_storage": {
        "encoding": "inplace",
        "label": "struct SwapUtils.Swap",
        "members": [
          {
            "astId": 6474,
            "contract": "contracts/SwapFlashLoan.sol:SwapFlashLoan",
            "label": "initialA",
            "offset": 0,
            "slot": "0",
            "type": "t_uint256"
          },
          {
            "astId": 6476,
            "contract": "contracts/SwapFlashLoan.sol:SwapFlashLoan",
            "label": "futureA",
            "offset": 0,
            "slot": "1",
            "type": "t_uint256"
          },
          {
            "astId": 6478,
            "contract": "contracts/SwapFlashLoan.sol:SwapFlashLoan",
            "label": "initialATime",
            "offset": 0,
            "slot": "2",
            "type": "t_uint256"
          },
          {
            "astId": 6480,
            "contract": "contracts/SwapFlashLoan.sol:SwapFlashLoan",
            "label": "futureATime",
            "offset": 0,
            "slot": "3",
            "type": "t_uint256"
          },
          {
            "astId": 6482,
            "contract": "contracts/SwapFlashLoan.sol:SwapFlashLoan",
            "label": "swapFee",
            "offset": 0,
            "slot": "4",
            "type": "t_uint256"
          },
          {
            "astId": 6484,
            "contract": "contracts/SwapFlashLoan.sol:SwapFlashLoan",
            "label": "adminFee",
            "offset": 0,
            "slot": "5",
            "type": "t_uint256"
          },
          {
            "astId": 6486,
            "contract": "contracts/SwapFlashLoan.sol:SwapFlashLoan",
            "label": "lpToken",
            "offset": 0,
            "slot": "6",
            "type": "t_contract(LPToken)4345"
          },
          {
            "astId": 6489,
            "contract": "contracts/SwapFlashLoan.sol:SwapFlashLoan",
            "label": "pooledTokens",
            "offset": 0,
            "slot": "7",
            "type": "t_array(t_contract(IERC20)2959)dyn_storage"
          },
          {
            "astId": 6492,
            "contract": "contracts/SwapFlashLoan.sol:SwapFlashLoan",
            "label": "tokenPrecisionMultipliers",
            "offset": 0,
            "slot": "8",
            "type": "t_array(t_uint256)dyn_storage"
          },
          {
            "astId": 6495,
            "contract": "contracts/SwapFlashLoan.sol:SwapFlashLoan",
            "label": "balances",
            "offset": 0,
            "slot": "9",
            "type": "t_array(t_uint256)dyn_storage"
          }
        ],
        "numberOfBytes": "320"
      },
      "t_uint256": {
        "encoding": "inplace",
        "label": "uint256",
        "numberOfBytes": "32"
      },
      "t_uint8": {
        "encoding": "inplace",
        "label": "uint8",
        "numberOfBytes": "1"
      }
    }
  }
}