{
  "address": "0xD702C8648E0658aa3269502B5F6D79cbf47E30Ff",
  "abi": [
    {
      "anonymous": false,
      "inputs": [
        {
          "indexed": true,
          "internalType": "address",
          "name": "provider",
          "type": "address"
        },
        {
          "indexed": false,
          "internalType": "uint256[]",
          "name": "tokenAmounts",
          "type": "uint256[]"
        },
        {
          "indexed": false,
          "internalType": "uint256[]",
          "name": "fees",
          "type": "uint256[]"
        },
        {
          "indexed": false,
          "internalType": "uint256",
          "name": "invariant",
          "type": "uint256"
        },
        {
          "indexed": false,
          "internalType": "uint256",
          "name": "lpTokenSupply",
          "type": "uint256"
        }
      ],
      "name": "AddLiquidity",
      "type": "event"
    },
    {
      "anonymous": false,
      "inputs": [
        {
          "indexed": false,
          "internalType": "uint256",
          "name": "newAdminFee",
          "type": "uint256"
        }
      ],
      "name": "NewAdminFee",
      "type": "event"
    },
    {
      "anonymous": false,
      "inputs": [
        {
          "indexed": false,
          "internalType": "uint256",
          "name": "newSwapFee",
          "type": "uint256"
        }
      ],
      "name": "NewSwapFee",
      "type": "event"
    },
    {
      "anonymous": false,
      "inputs": [
        {
          "indexed": true,
          "internalType": "address",
          "name": "provider",
          "type": "address"
        },
        {
          "indexed": false,
          "internalType": "uint256[]",
          "name": "tokenAmounts",
          "type": "uint256[]"
        },
        {
          "indexed": false,
          "internalType": "uint256",
          "name": "lpTokenSupply",
          "type": "uint256"
        }
      ],
      "name": "RemoveLiquidity",
      "type": "event"
    },
    {
      "anonymous": false,
      "inputs": [
        {
          "indexed": true,
          "internalType": "address",
          "name": "provider",
          "type": "address"
        },
        {
          "indexed": false,
          "internalType": "uint256[]",
          "name": "tokenAmounts",
          "type": "uint256[]"
        },
        {
          "indexed": false,
          "internalType": "uint256[]",
          "name": "fees",
          "type": "uint256[]"
        },
        {
          "indexed": false,
          "internalType": "uint256",
          "name": "invariant",
          "type": "uint256"
        },
        {
          "indexed": false,
          "internalType": "uint256",
          "name": "lpTokenSupply",
          "type": "uint256"
        }
      ],
      "name": "RemoveLiquidityImbalance",
      "type": "event"
    },
    {
      "anonymous": false,
      "inputs": [
        {
          "indexed": true,
          "internalType": "address",
          "name": "provider",
          "type": "address"
        },
        {
          "indexed": false,
          "internalType": "uint256",
          "name": "lpTokenAmount",
          "type": "uint256"
        },
        {
          "indexed": false,
          "internalType": "uint256",
          "name": "lpTokenSupply",
          "type": "uint256"
        },
        {
          "indexed": false,
          "internalType": "uint256",
          "name": "boughtId",
          "type": "uint256"
        },
        {
          "indexed": false,
          "internalType": "uint256",
          "name": "tokensBought",
          "type": "uint256"
        }
      ],
      "name": "RemoveLiquidityOne",
      "type": "event"
    },
    {
      "anonymous": false,
      "inputs": [
        {
          "indexed": true,
          "internalType": "address",
          "name": "buyer",
          "type": "address"
        },
        {
          "indexed": false,
          "internalType": "uint256",
          "name": "tokensSold",
          "type": "uint256"
        },
        {
          "indexed": false,
          "internalType": "uint256",
          "name": "tokensBought",
          "type": "uint256"
        },
        {
          "indexed": false,
          "internalType": "uint128",
          "name": "soldId",
          "type": "uint128"
        },
        {
          "indexed": false,
          "internalType": "uint128",
          "name": "boughtId",
          "type": "uint128"
        }
      ],
      "name": "TokenSwap",
      "type": "event"
    },
    {
      "inputs": [],
      "name": "MAX_ADMIN_FEE",
      "outputs": [
        {
          "internalType": "uint256",
          "name": "",
          "type": "uint256"
        }
      ],
      "stateMutability": "view",
      "type": "function"
    },
    {
      "inputs": [],
      "name": "MAX_SWAP_FEE",
      "outputs": [
        {
          "internalType": "uint256",
          "name": "",
          "type": "uint256"
        }
      ],
      "stateMutability": "view",
      "type": "function"
    },
    {
      "inputs": [],
      "name": "POOL_PRECISION_DECIMALS",
      "outputs": [
        {
          "internalType": "uint8",
          "name": "",
          "type": "uint8"
        }
      ],
      "stateMutability": "view",
      "type": "function"
    }
  ],
  "transactionHash": "0x7e1fcc0cdfa30e894247a2c7ea7412f91d4caf6d77a15e6e5b9884d136ebd483",
  "args": [],
  "solcInputHash": "5700086fe9ecd846ff56da9e2d80d02b",
  "bytecode": "0x61523262000082600b82828239805160001a6073146200001b57fe5b5a63996d79a5598160e01b8152602081600483336000905af158600e01573d6000803e3d6000fd5b3d6001141558600a015760016000f35b8051925060005b604081101562000073576000828201526020016200005a565b505050600052607381538281f3fe7300000000000000000000000000000000000000005a63996d79a5598160e01b8152602081600483336000905af158600e01573d6000803e3d6000fd5b3d6001141558600a015760016000f35b8051925060005b604081101561006a57600082820152602001610053565b5050501460806040526004361061017d5760003560e01c806371906c2c11610114578063a5397b22116100e3578063e0692742116100c8578063e06927421461071e578063e7a4db8114610753578063f3de0362146107a45761017d565b8063a5397b22146106bb578063ab3d8544146107165761017d565b806371906c2c1461051657806373fd6b3e1461053c5780637d048160146105f2578063834b49101461061e5761017d565b8063467e186c11610150578063467e186c146103d45780634b23603c14610416578063704672761461045557806370703e4a146104975761017d565b80630296ab501461018b57806324c5c751146101a957806340370edf146101f657806341b91c26146102ee575b600080610188614d26565b50505b6101936107ac565b60405160ff909116815260200160405180910390f35b8180156101be576000806101bb614d26565b50505b506101f4600480360360408110156101de576000806101db614d26565b50505b50803590602001356001600160a01b03166107b1565b005b81801561020b57600080610208614d26565b50505b506102dc6004803603606081101561022b57600080610228614d26565b50505b8135919081019060408101602082013564010000000081111561025657600080610253614d26565b50505b8201836020820111156102715760008061026e614d26565b50505b8035906020019184602083028401116401000000008311171561029c57600080610299614d26565b50505b91908080602002602001604051908101604052809392919081815260200183836020028082843760009201919091525092955050913592506109dc915050565b60405190815260200160405180910390f35b81801561030357600080610300614d26565b50505b506102dc6004803603606081101561032357600080610320614d26565b50505b8135919081019060408101602082013564010000000081111561034e5760008061034b614d26565b50505b82018360208201111561036957600080610366614d26565b50505b8035906020019184602083028401116401000000008311171561039457600080610391614d26565b50505b919080806020026020016040519081016040528093929190818152602001838360200280828437600092019190915250929550509135925061154d915050565b8180156103e9576000806103e6614d26565b50505b506101f46004803603604081101561040957600080610406614d26565b50505b5080359060200135611e44565b6102dc6004803603608081101561043557600080610432614d26565b50505b5080359060ff602082013581169160408101359091169060600135611eed565b81801561046a57600080610467614d26565b50505b506101f46004803603604081101561048a57600080610487614d26565b50505b5080359060200135611f6c565b6104c3600480360360408110156104b6576000806104b3614d26565b50505b5080359060200135612016565b60405160208082528190810183818151815260200191508051906020019060200280838360005b838110156105025780820151838201526020016104ea565b505050509050019250505060405180910390f35b6102dc6004803603602081101561053557600080610532614d26565b50505b503561214b565b8180156105515760008061054e614d26565b50505b506104c3600480360360608110156105715760008061056e614d26565b50505b8135916020810135918101906060810160408201356401000000008111156105a15760008061059e614d26565b50505b8201836020820111156105bc576000806105b9614d26565b50505b803590602001918460208302840111640100000000831117156105e7576000806105e4614d26565b50505b50909250905061225e565b6102dc600480360360408110156106115760008061060e614d26565b50505b5080359060200135612808565b6102dc6004803603606081101561063d5760008061063a614d26565b50505b8135919081019060408101602082013564010000000081111561066857600080610665614d26565b50505b82018360208201111561068357600080610680614d26565b50505b803590602001918460208302840111640100000000831117156106ae576000806106ab614d26565b50505b919350915035151561292f565b8180156106d0576000806106cd614d26565b50505b506102dc600480360360a08110156106f0576000806106ed614d26565b50505b5080359060ff602082013581169160408101359091169060608101359060800135612be0565b6102dc6131d4565b6102dc6004803603606081101561073d5760008061073a614d26565b50505b508035906020810135906040013560ff166131dc565b81801561076857600080610765614d26565b50505b506102dc6004803603608081101561078857600080610785614d26565b50505b5080359060208101359060ff60408201351690606001356132a2565b6102dc6137ab565b601281565b606082600701806107c0614d91565b8060200260200160405190810160405281815291906020830182806107e3614d91565b801561083057602002820191906000526020600020905b600082610805614d91565b906101000a90046001600160a01b03166001600160a01b0316815260200190600101908083116107fa575b5050505050905060005b81518110156109d657600082828151811061085157fe5b6020026020010151905060006109b086600901848161086e614d91565b811061087657fe5b90600052602060002001610888614d91565b836001600160a01b03166370a082315a63996d79a5598160e01b8152602081600483336000905af158600e01573d6000803e3d6000fd5b3d6001141558600a015760016000f35b8051925060005b60408110156108ed576000828201526020016108d6565b5050506040517fffffffff0000000000000000000000000000000000000000000000000000000060e084901b1681526001600160a01b0390911660048201526024016020604051808303818680610942614dec565b15801561095757600080610954614d26565b50505b505a610961614e38565b5050505050158015610980573d6000803e3d600061097d614d26565b50505b505050506040513d602081101561099f5760008061099c614d26565b50505b810190808051939250506137b49050565b905080156109cc576109cc6001600160a01b0383168683613819565b505060010161083a565b50505050565b6000606084600701806109ed614d91565b806020026020016040519081016040528181529190602083018280610a10614d91565b8015610a5d57602002820191906000526020600020905b600082610a32614d91565b906101000a90046001600160a01b03166001600160a01b031681526020019060010190808311610a27575b505050505090508051845114610ac25760405162461bcd60e51b815260206004820181905260248201527f416d6f756e7473206d757374206d6174636820706f6f6c656420746f6b656e73604482015260640160405180910390610abf614d26565b50505b610aca614f23565b604051806101000160405280600081526020016000815260200160008152602001610af4886138bd565b8152602001600060068901610b07614d91565b906101000a90046001600160a01b03166001600160a01b03168152602001600081526020018760090180610b39614d91565b806020026020016040519081016040528181529190602083018280610b5c614d91565b8015610b8e57602002820191906000526020600020905b81610b7c614d91565b81526020019060010190808311610b73575b505050505081526020018760080180610ba5614d91565b806020026020016040519081016040528181529190602083018280610bc8614d91565b8015610bfa57602002820191906000526020600020905b81610be8614d91565b81526020019060010190808311610bdf575b5050505050815250905080608001516001600160a01b03166318160ddd6040518163ffffffff1660e01b81526004016020604051808303818680610c3c614dec565b158015610c5157600080610c4e614d26565b50505b505a610c5b614e38565b5050505050158015610c7a573d6000803e3d6000610c77614d26565b50505b505050506040513d6020811015610c9957600080610c96614d26565b50505b81019080805160a08501908152925050505115610cd257610ccf610cc58260c001518360e001516138c8565b82606001516139d2565b81525b6060825167ffffffffffffffff81118015610cf557600080610cf2614d26565b50505b50604051908082528060200260200182016040528015610d1f578160200160208202803683370190505b50905060005b8351811015611076578260a00151151580610d5357506000878281518110610d4957fe5b6020026020010151115b610dac5760405162461bcd60e51b815260206004820152601e60248201527f4d75737420737570706c7920616c6c20746f6b656e7320696e20706f6f6c0000604482015260640160405180910390610da9614d26565b50505b868181518110610db857fe5b602002602001015115611022576000848281518110610dd357fe5b60200260200101516001600160a01b03166370a082315a63996d79a5598160e01b8152602081600483336000905af158600e01573d6000803e3d6000fd5b3d6001141558600a015760016000f35b8051925060005b6040811015610e3f57600082820152602001610e28565b5050506040517fffffffff0000000000000000000000000000000000000000000000000000000060e084901b1681526001600160a01b0390911660048201526024016020604051808303818680610e94614dec565b158015610ea957600080610ea6614d26565b50505b505a610eb3614e38565b5050505050158015610ed2573d6000803e3d6000610ecf614d26565b50505b505050506040513d6020811015610ef157600080610eee614d26565b50505b8101908080519350610f9b925050505a610f09614f71565b5a63996d79a5598160e01b8152602081600483336000905af158600e01573d6000803e3d6000fd5b3d6001141558600a015760016000f35b8051925060005b6040811015610f5f57600082820152602001610f48565b5050508a8581518110610f6e57fe5b6020026020010151888681518110610f8257fe5b60200260200101516001600160a01b0316929190613b4b565b61100881868481518110610fab57fe5b60200260200101516001600160a01b03166370a082315a63996d79a5598160e01b8152602081600483336000905af158600e01573d6000803e3d6000fd5b3d6001141558600a015760016000f35b805160008252925060206108d6565b88838151811061101457fe5b602002602001018181525050505b61105787828151811061103157fe5b60200260200101518460c00151838151811061104957fe5b602002602001015190613bf7565b82828151811061106357fe5b6020908102919091010152600101610d25565b50611092611088828460e001516138c8565b83606001516139d2565b602083015281518260200151116110f85760405162461bcd60e51b815260206004820152601160248201527f442073686f756c6420696e6372656173650000000000000000000000000000006044820152606401604051809103906110f5614d26565b50505b816020015160408301526060835167ffffffffffffffff8111801561112557600080611122614d26565b50505b5060405190808252806020026020018201604052801561114f578160200160208202803683370190505b5090508260a00151156112e65760006111748960040161116d614d91565b8651613c5f565b905060005b85518110156112bf5760006111b586516111af8860c00151858151811061119c57fe5b6020026020010151896020015190613c7a565b90613cd9565b90506111e86402540be4006111af6111e18886815181106111d257fe5b60200260200101518590613d48565b8690613c7a565b8483815181106111f457fe5b60200260200101818152505061124f6112356402540be4006111af8e60050161121b614d91565b88878151811061122757fe5b602002602001015190613c7a565b86848151811061124157fe5b6020026020010151906137b4565b8b600901838161125d614d91565b811061126557fe5b906000526020600020018190611279614fb7565b50505061129f84838151811061128b57fe5b602002602001015186848151811061124157fe5b8583815181106112ab57fe5b602090810291909101015250600101611179565b506112db6112d1848660e001516138c8565b85606001516139d2565b6040850152506112fd565b600988018280516112fb929160200190615005565b505b60008360a00151611314578360200151905061133a565b61133784516111af8660a0015161133188518960400151906137b4565b90613c7a565b90505b868110156113975760405162461bcd60e51b815260206004820152601b60248201527f436f756c646e2774206d696e74206d696e207265717565737465640000000000604482015260640160405180910390611394614d26565b50505b83608001516001600160a01b03166340c10f195a6113b3614f71565b836040517fffffffff0000000000000000000000000000000000000000000000000000000060e085901b1681526001600160a01b03909216600483015260248201526044016000604051808303816000878061140d614dec565b1580156114225760008061141f614d26565b50505b505a61142c615069565b50505050505015801561144c573d6000803e3d6000611449614d26565b50505b505050505a611459614f71565b6001600160a01b03167f189c623b666b1b45b83d7178f39b8c087cb09774317ca2f53c2d3c3726f222a289848760200151611499868a60a0015190613bf7565b604051808060200180602001858152602001848152602001838103835287818151815260200191508051906020019060200280838360005b838110156114e95780820151838201526020016114d1565b50505050905001838103825286818151815260200191508051906020019060200280838360005b83811015611528578082015183820152602001611510565b50505050905001965050505050505060405180910390a29450505050505b9392505050565b6000611557614f23565b604051806101000160405280600081526020016000815260200160008152602001611581876138bd565b8152602001600060068801611594614d91565b906101000a90046001600160a01b03166001600160a01b031681526020016000815260200186600901806115c6614d91565b8060200260200160405190810160405281815291906020830182806115e9614d91565b801561161b57602002820191906000526020600020905b81611609614d91565b81526020019060010190808311611600575b505050505081526020018660080180611632614d91565b806020026020016040519081016040528181529190602083018280611655614d91565b801561168757602002820191906000526020600020905b81611675614d91565b8152602001906001019080831161166c575b5050505050815250905080608001516001600160a01b03166318160ddd6040518163ffffffff1660e01b815260040160206040518083038186806116c9614dec565b1580156116de576000806116db614d26565b50505b505a6116e8614e38565b5050505050158015611707573d6000803e3d6000611704614d26565b50505b505050506040513d602081101561172657600080611723614d26565b50505b81019080805160a08501525060609150506007860180611744614d91565b806020026020016040519081016040528181529190602083018280611767614d91565b80156117b457602002820191906000526020600020905b600082611789614d91565b906101000a90046001600160a01b03166001600160a01b03168152602001906001019080831161177e575b5050505050905080518551146118195760405162461bcd60e51b815260206004820181905260248201527f416d6f756e74732073686f756c64206d6174636820706f6f6c20746f6b656e73604482015260640160405180910390611816614d26565b50505b81608001516001600160a01b03166370a082315a611835614f71565b6040517fffffffff0000000000000000000000000000000000000000000000000000000060e084901b1681526001600160a01b0390911660048201526024016020604051808303818680611887614dec565b15801561189c57600080611899614d26565b50505b505a6118a6614e38565b50505050501580156118c5573d6000803e3d60006118c2614d26565b50505b505050506040513d60208110156118e4576000806118e1614d26565b50505b81019080805187118015935091506118fd905057508315155b6119565760405162461bcd60e51b815260206004820152600d60248201527f3e4c502e62616c616e63654f6600000000000000000000000000000000000000604482015260640160405180910390611953614d26565b50505b600061196e87600401611967614d91565b8351613c5f565b90506060825167ffffffffffffffff8111801561199357600080611990614d26565b50505b506040519080825280602002602001820160405280156119bd578160200160208202803683370190505b5090506060835167ffffffffffffffff811180156119e3576000806119e0614d26565b50505b50604051908082528060200260200182016040528015611a0d578160200160208202803683370190505b509050611a2f611a258660c001518760e001516138c8565b86606001516139d2565b855260005b8451811015611aa957611a8a898281518110611a4c57fe5b602002602001015160405160608101604052602380825261520f60208301398860c001518481518110611a7b57fe5b60200260200101519190613d60565b828281518110611a9657fe5b6020908102919091010152600101611a34565b50611abb611a25828760e001516138c8565b602086015260005b8451811015611bec576000611af987516111af8960c001518581518110611ae657fe5b60200260200101518a6020015190613c7a565b90506000611b1b848481518110611b0c57fe5b60200260200101518390613d48565b9050611b306402540be4006111af8884613c7a565b858481518110611b3c57fe5b602002602001018181525050611b7b611b6f6402540be4006111af8f600501611b63614d91565b89888151811061122757fe5b85858151811061124157fe5b8c6009018481611b89614d91565b8110611b9157fe5b906000526020600020018190611ba5614fb7565b505050611bcb858481518110611bb757fe5b602002602001015185858151811061124157fe5b848481518110611bd757fe5b60209081029190910101525050600101611ac3565b50611bfe611a25828760e001516138c8565b6040860152506000611c2385516111af8760a0015161133189604001518a51906137b4565b905080611c7f5760405162461bcd60e51b815260206004820152601b60248201527f4275726e7420616d6f756e742063616e6e6f74206265207a65726f0000000000604482015260640160405180910390611c7c614d26565b50505b611c8a816001613bf7565b905086811115611ce95760405162461bcd60e51b815260206004820152601b60248201527f746f6b656e416d6f756e74203e206d61784275726e416d6f756e740000000000604482015260640160405180910390611ce6614d26565b50505b84608001516001600160a01b03166379cc67905a611d05614f71565b836040517fffffffff0000000000000000000000000000000000000000000000000000000060e085901b1681526001600160a01b039092166004830152602482015260440160006040518083038160008780611d5f614dec565b158015611d7457600080611d71614d26565b50505b505a611d7e615069565b505050505050158015611d9e573d6000803e3d6000611d9b614d26565b50505b5050505060005b8451811015611dfa57611df25a611dba614f71565b8a8381518110611dc657fe5b6020026020010151878481518110611dda57fe5b60200260200101516001600160a01b03169190613819565b600101611da5565b505a611e04614f71565b6001600160a01b03167f3631c28b1f9dd213e0319fb167b554d76b6c283a41143eb400a0d1adb1af175589848860200151611499868b60a00151906137b4565b6305f5e100811115611ea55760405162461bcd60e51b815260206004820152600f60248201527f46656520697320746f6f20686967680000000000000000000000000000000000604482015260640160405180910390611ea2614d26565b50505b808060048401611eb3614fb7565b5050507fd88ea5155021c6f8dafa1a741e173f595cdf77ce7c17d43342131d7f06afdfe58160405190815260200160405180910390a15050565b6000611f62858585858960090180611f03614d91565b806020026020016040519081016040528181529190602083018280611f26614d91565b8015611f5857602002820191906000526020600020905b81611f46614d91565b81526020019060010190808311611f3d575b5050505050613dff565b5095945050505050565b6402540be400811115611fce5760405162461bcd60e51b815260206004820152600f60248201527f46656520697320746f6f20686967680000000000000000000000000000000000604482015260640160405180910390611fcb614d26565b50505b808060058401611fdc614fb7565b5050507fab599d640ca80cde2b09b128a4154a8dfe608cb80f4c9399c8b954b01fd35f388160405190815260200160405180910390a15050565b60606121428360090180612028614d91565b80602002602001604051908101604052818152919060208301828061204b614d91565b801561207d57602002820191906000526020600020905b8161206b614d91565b81526020019060010190808311612062575b50505050508385600601600090612092614d91565b906101000a90046001600160a01b03166001600160a01b03166318160ddd6040518163ffffffff1660e01b815260040160206040518083038186806120d5614dec565b1580156120ea576000806120e7614d26565b50505b505a6120f4614e38565b5050505050158015612113573d6000803e3d6000612110614d26565b50505b505050506040513d60208110156121325760008061212f614d26565b50505b8101908080519250613fb1915050565b90505b92915050565b60008061216861215a8461409f565b612163856138bd565b6139d2565b905060008060068501612179614d91565b906101000a90046001600160a01b031690506000816001600160a01b03166318160ddd6040518163ffffffff1660e01b815260040160206040518083038186806121c1614dec565b1580156121d6576000806121d3614d26565b50505b505a6121e0614e38565b50505050501580156121ff573d6000803e3d60006121fc614d26565b50505b505050506040513d602081101561221e5760008061221b614d26565b50505b81019080805193505082159150612251905057612247816111af85670de0b6b3a7640000613c7a565b9350505050612259565b600093505050505b919050565b60606000806006870161226f614d91565b906101000a90046001600160a01b0316905060608660070180612290614d91565b8060200260200160405190810160405281815291906020830182806122b3614d91565b801561230057602002820191906000526020600020905b6000826122d5614d91565b906101000a90046001600160a01b03166001600160a01b0316815260200190600101908083116122ca575b50505050509050816001600160a01b03166370a082315a61231f614f71565b6040517fffffffff0000000000000000000000000000000000000000000000000000000060e084901b1681526001600160a01b0390911660048201526024016020604051808303818680612371614dec565b15801561238657600080612383614d26565b50505b505a612390614e38565b50505050501580156123af573d6000803e3d60006123ac614d26565b50505b505050506040513d60208110156123ce576000806123cb614d26565b50505b81019080805189111592506124359150505760405162461bcd60e51b815260206004820152600d60248201527f3e4c502e62616c616e63654f6600000000000000000000000000000000000000604482015260640160405180910390612432614d26565b50505b805184146124925760405162461bcd60e51b815260206004820181905260248201527f6d696e416d6f756e7473206d757374206d6174636820706f6f6c546f6b656e7360448201526064016040518091039061248f614d26565b50505b606087600901806124a1614d91565b8060200260200160405190810160405281815291906020830182806124c4614d91565b80156124f657602002820191906000526020600020905b816124e4614d91565b815260200190600101908083116124db575b505050505090506000836001600160a01b03166318160ddd6040518163ffffffff1660e01b81526004016020604051808303818680612533614dec565b15801561254857600080612545614d26565b50505b505a612552614e38565b5050505050158015612571573d6000803e3d600061256e614d26565b50505b505050506040513d60208110156125905760008061258d614d26565b50505b8101908080519350606092506125ab91508490508a84613fb1565b905060005b81518110156126ab578888828181106125c557fe5b905060200201358282815181106125d857fe5b6020026020010151101561263b5760405162461bcd60e51b815260206004820152601a60248201527f616d6f756e74735b695d203c206d696e416d6f756e74735b695d000000000000604482015260640160405180910390612638614d26565b50505b61265e82828151811061264a57fe5b602002602001015185838151811061124157fe5b8b600901828161266c614d91565b811061267457fe5b906000526020600020018190612688614fb7565b5050506126a35a612697614f71565b838381518110611dc657fe5b6001016125b0565b50846001600160a01b03166379cc67905a6126c4614f71565b8b6040517fffffffff0000000000000000000000000000000000000000000000000000000060e085901b1681526001600160a01b03909216600483015260248201526044016000604051808303816000878061271e614dec565b15801561273357600080612730614d26565b50505b505a61273d615069565b50505050505015801561275d573d6000803e3d600061275a614d26565b50505b505050505a61276a614f71565b6001600160a01b03167f88d38ed598fdd809c2bf01ee49cd24b7fdabf379a83d29567952b60324d58cef8261279f858d6137b4565b6040518080602001838152602001828103825284818151815260200191508051906020019060200280838360005b838110156127e55780820151838201526020016127cd565b50505050905001935050505060405180910390a29450505050505b949350505050565b60008260070180612817614d91565b905082106128745760405162461bcd60e51b815260206004820152601860248201527f546f6b656e20696e646578206f7574206f662072616e67650000000000000000604482015260640160405180910390612871614d26565b50505b612142836009018381612885614d91565b811061288d57fe5b9060005260206000200161289f614d91565b8460070184816128ad614d91565b81106128b557fe5b906000526020600020016000906128ca614d91565b906101000a90046001600160a01b03166001600160a01b03166370a082315a63996d79a5598160e01b8152602081600483336000905af158600e01573d6000803e3d6000fd5b3d6001141558600a015760016000f35b805160008252925060206108d6565b60008061293b866138bd565b90506060866009018061294c614d91565b80602002602001604051908101604052818152919060208301828061296f614d91565b80156129a157602002820191906000526020600020905b8161298f614d91565b81526020019060010190808311612986575b50505050509050606087600801806129b7614d91565b8060200260200160405190810160405281815291906020830182806129da614d91565b8015612a0c57602002820191906000526020600020905b816129fa614d91565b815260200190600101908083116129f1575b505050505090506000612a28612a2284846138c8565b856139d2565b905060005b8351811015612ad5578615612a7b57612a5e898983818110612a4b57fe5b9050602002013585838151811061104957fe5b848281518110612a6a57fe5b602002602001018181525050612acd565b612ab4898983818110612a8a57fe5b9050602002013560405160608101604052602380825261520f6020830139868481518110611a7b57fe5b848281518110612ac057fe5b6020026020010181815250505b600101612a2d565b506000612aeb612ae585856138c8565b866139d2565b905060008060068c01612afc614d91565b906101000a90046001600160a01b03166001600160a01b03166318160ddd6040518163ffffffff1660e01b81526004016020604051808303818680612b3f614dec565b158015612b5457600080612b51614d26565b50505b505a612b5e614e38565b5050505050158015612b7d573d6000803e3d6000612b7a614d26565b50505b505050506040513d6020811015612b9c57600080612b99614d26565b50505b81019080805193505089159150612bce905057612bc1836111af8361133186846137b4565b9650505050505050612800565b612bc1836111af8361133183876137b4565b600080866007018660ff1681612bf4614d91565b8110612bfc57fe5b90600052602060002001600090612c11614d91565b906101000a90046001600160a01b03169050806001600160a01b03166370a082315a612c3b614f71565b6040517fffffffff0000000000000000000000000000000000000000000000000000000060e084901b1681526001600160a01b0390911660048201526024016020604051808303818680612c8d614dec565b158015612ca257600080612c9f614d26565b50505b505a612cac614e38565b5050505050158015612ccb573d6000803e3d6000612cc8614d26565b50505b505050506040513d6020811015612cea57600080612ce7614d26565b50505b8101908080518711159250612d519150505760405162461bcd60e51b815260206004820152601d60248201527f43616e6e6f742073776170206d6f7265207468616e20796f75206f776e000000604482015260640160405180910390612d4e614d26565b50505b6000816001600160a01b03166370a082315a63996d79a5598160e01b8152602081600483336000905af158600e01573d6000803e3d6000fd5b3d6001141558600a015760016000f35b8051925060005b6040811015612db857600082820152602001612da1565b5050506040517fffffffff0000000000000000000000000000000000000000000000000000000060e084901b1681526001600160a01b0390911660048201526024016020604051808303818680612e0d614dec565b158015612e2257600080612e1f614d26565b50505b505a612e2c614e38565b5050505050158015612e4b573d6000803e3d6000612e48614d26565b50505b505050506040513d6020811015612e6a57600080612e67614d26565b50505b8101908080519350612eed925050505a612e82614f71565b5a63996d79a5598160e01b8152602081600483336000905af158600e01573d6000803e3d6000fd5b3d6001141558600a015760016000f35b8051925060005b6040811015612ed857600082820152602001612ec1565b5050506001600160a01b038516919088613b4b565b612f4781836001600160a01b03166370a082315a63996d79a5598160e01b8152602081600483336000905af158600e01573d6000803e3d6000fd5b3d6001141558600a015760016000f35b805160008252925060206108d6565b9450505060008060608860090180612f5d614d91565b806020026020016040519081016040528181529190602083018280612f80614d91565b8015612fb257602002820191906000526020600020905b81612fa0614d91565b81526020019060010190808311612f97575b50505050509050612fc68989898985613dff565b9093509150848310156130285760405162461bcd60e51b815260206004820181905260248201527f53776170206469646e277420726573756c7420696e206d696e20746f6b656e73604482015260640160405180910390613025614d26565b50505b60006130778a6008018960ff168161303e614d91565b811061304657fe5b90600052602060002001613058614d91565b6111af6402540be4006111af8e600501613070614d91565b8890613c7a565b905061308c87838b60ff168151811061104957fe5b8a6009018a60ff168161309d614d91565b81106130a557fe5b9060005260206000200181906130b9614fb7565b5050506130d9816130d386858c60ff168151811061124157fe5b906137b4565b8a6009018960ff16816130ea614d91565b81106130f257fe5b906000526020600020018190613106614fb7565b50505061315d5a613115614f71565b858c6007018b60ff1681613127614d91565b811061312f57fe5b90600052602060002001600090613144614d91565b6001600160a01b036101009290920a9004169190613819565b5a613166614f71565b6001600160a01b03167fc6c1e0630dbe9130cc068028486c0d118ddcea348550819defd5cb8c257f8a3888868c8c604051808581526020018481526020018360ff1681526020018260ff16815260200194505050505060405180910390a25091925050505b95945050505050565b6305f5e10081565b600080611f6285858584600684016131f2614d91565b906101000a90046001600160a01b03166001600160a01b03166318160ddd6040518163ffffffff1660e01b81526004016020604051808303818680613235614dec565b15801561324a57600080613247614d26565b50505b505a613254614e38565b5050505050158015613273573d6000803e3d6000613270614d26565b50505b505050506040513d60208110156132925760008061328f614d26565b50505b8101908080519250614177915050565b60008080600687016132b2614d91565b906101000a90046001600160a01b03169050606086600701806132d3614d91565b8060200260200160405190810160405281815291906020830182806132f6614d91565b801561334357602002820191906000526020600020905b600082613318614d91565b906101000a90046001600160a01b03166001600160a01b03168152602001906001019080831161330d575b50505050509050816001600160a01b03166370a082315a613362614f71565b6040517fffffffff0000000000000000000000000000000000000000000000000000000060e084901b1681526001600160a01b03909116600482015260240160206040518083038186806133b4614dec565b1580156133c9576000806133c6614d26565b50505b505a6133d3614e38565b50505050501580156133f2573d6000803e3d60006133ef614d26565b50505b505050506040513d60208110156134115760008061340e614d26565b50505b81019080805189111592506134789150505760405162461bcd60e51b815260206004820152600d60248201527f3e4c502e62616c616e63654f6600000000000000000000000000000000000000604482015260640160405180910390613475614d26565b50505b80518560ff16106134d85760405162461bcd60e51b815260206004820152600f60248201527f546f6b656e206e6f7420666f756e6400000000000000000000000000000000006044820152606401604051809103906134d5614d26565b50505b6000826001600160a01b03166318160ddd6040518163ffffffff1660e01b8152600401602060405180830381868061350e614dec565b15801561352357600080613520614d26565b50505b505a61352d614e38565b505050505015801561354c573d6000803e3d6000613549614d26565b50505b505050506040513d602081101561356b57600080613568614d26565b50505b81019080805193506000925082915061358890508a8a8a86614177565b91509150868210156135e95760405162461bcd60e51b815260206004820152600e60248201527f6479203c206d696e416d6f756e740000000000000000000000000000000000006044820152606401604051809103906135e6614d26565b50505b61363961360e6136076402540be4006111af8e6005016111e1614d91565b8490613bf7565b8b6009018a60ff168161361f614d91565b811061362757fe5b906000526020600020016130d3614d91565b8a6009018960ff168161364a614d91565b811061365257fe5b906000526020600020018190613666614fb7565b505050846001600160a01b03166379cc67905a613681614f71565b8b6040517fffffffff0000000000000000000000000000000000000000000000000000000060e085901b1681526001600160a01b0390921660048301526024820152604401600060405180830381600087806136db614dec565b1580156136f0576000806136ed614d26565b50505b505a6136fa615069565b50505050505015801561371a573d6000803e3d6000613717614d26565b50505b5050505061373a5a61372a614f71565b83868b60ff1681518110611dda57fe5b5a613743614f71565b6001600160a01b03167f43fb02998f4e03da2e0e6fff53fdbf0c40a9f45f145dc377fc30615d7d7a8a648a858b86604051808581526020018481526020018360ff16815260200182815260200194505050505060405180910390a25098975050505050505050565b6402540be40081565b6000828211156138135760405162461bcd60e51b815260206004820152601e60248201527f536166654d6174683a207375627472616374696f6e206f766572666c6f770000604482015260640160405180910390613810614d26565b50505b50900390565b6138b8837fa9059cbb0000000000000000000000000000000000000000000000000000000084846040516001600160a01b0390921660248301526044820152606401604051602081830303815290604052907bffffffffffffffffffffffffffffffffffffffffffffffffffffffff19166020820180517bffffffffffffffffffffffffffffffffffffffffffffffffffffffff1690911790526141e1565b505050565b6000612145826142a8565b60606000835190508251811461392d5760405162461bcd60e51b815260206004820152601f60248201527f42616c616e636573206d757374206d61746368206d756c7469706c696572730060448201526064016040518091039061392a614d26565b50505b60608167ffffffffffffffff8111801561394f5760008061394c614d26565b50505b50604051908082528060200260200182016040528015613979578160200160208202803683370190505b50905060005b828110156139c9576139aa85828151811061399657fe5b602002602001015187838151811061122757fe5b8282815181106139b657fe5b602090810291909101015260010161397f565b50949350505050565b600080835190506000805b82811015613a0d57613a038682815181106139f457fe5b60200260200101518390613bf7565b91506001016139dd565b5080613a1e57600092505050612145565b60008181613a2c8786613c7a565b905060005b610100811015613aeb578260005b87811015613a6e57613a64613a5a898d848151811061122757fe5b6111af8488613c7a565b9150600101613a3f565b509293508392613ac2613aa2613a89836113318b6001613bf7565b613a9c60646111af896113318a846137b4565b90613bf7565b6111af86611331613ab3868d613c7a565b613a9c60646111af8b8f613c7a565b9350613ace8486614374565b15613ae25783975050505050505050612145565b50600101613a31565b5060405162461bcd60e51b815260206004820152601360248201527f4420646f6573206e6f7420636f6e766572676500000000000000000000000000604482015260640160405180910390613b3e614d26565b5050505050505092915050565b6109d6847f23b872dd000000000000000000000000000000000000000000000000000000008585856040516001600160a01b0393841660248201529190921660448201526064810191909152608401604051602081830303815290604052907bffffffffffffffffffffffffffffffffffffffffffffffffffffffff19166020820180517bffffffffffffffffffffffffffffffffffffffffffffffffffffffff1690911790526141e1565b6000828201838110156121425760405162461bcd60e51b815260206004820152601b60248201527f536166654d6174683a206164646974696f6e206f766572666c6f770000000000604482015260640160405180910390613c56614d26565b50509392505050565b6000612142613c7460046113318560016137b4565b6111af85855b600082613c8957506000612145565b82820282848281613c9657fe5b04146121425760405162461bcd60e51b81526004018080602001828103825260218152602001806151c46021913960400191505060405180910390613c56614d26565b6000808211613d375760405162461bcd60e51b815260206004820152601a60248201527f536166654d6174683a206469766973696f6e206279207a65726f000000000000604482015260640160405180910390613d34614d26565b50505b818381613d4057fe5b049392505050565b600081831115613d5b5750808203612145565b500390565b600081848411156138105760405162461bcd60e51b81526004018080602001828103825283818151815260200191508051906020019080838360005b83811015613db4578082015183820152602001613d9c565b50505050905090810190601f168015613de15780820380516001836020036101000a031916815260200191505b509250505060405180910390613df5614d26565b5050505050900390565b60008060608760080180613e11614d91565b806020026020016040519081016040528181529190602083018280613e34614d91565b8015613e6657602002820191906000526020600020905b81613e54614d91565b81526020019060010190808311613e4b575b505050505090506060613e7985836138c8565b905080518860ff16108015613e91575080518760ff16105b613eea5760405162461bcd60e51b815260206004820152601860248201527f546f6b656e20696e646578206f7574206f662072616e67650000000000000000604482015260640160405180910390613ee7614d26565b50505b6000613f27828a60ff1681518110613efe57fe5b6020026020010151613a9c858c60ff1681518110613f1857fe5b60200260200101518a90613c7a565b90506000613f40613f378c6138bd565b8b8b858761438b565b9050613f5a60016130d383868d60ff168151811061124157fe5b9550613f7b6402540be4006111af8d600401613f74614d91565b8990613c7a565b9450613fa1848a60ff1681518110613f8f57fe5b60200260200101516111af88886137b4565b9550505050509550959350505050565b6060818311156140105760405162461bcd60e51b815260206004820152601a60248201527f43616e6e6f742065786365656420746f74616c20737570706c7900000000000060448201526064016040518091039061400d614d26565b50505b6060845167ffffffffffffffff8111801561403357600080614030614d26565b50505b5060405190808252806020026020018201604052801561405d578160200160208202803683370190505b50905060005b85518110156139c957614080846111af8789858151811061122757fe5b82828151811061408c57fe5b6020908102919091010152600101614063565b606061214582600901806140b1614d91565b8060200260200160405190810160405281815291906020830182806140d4614d91565b801561410657602002820191906000526020600020905b816140f4614d91565b815260200190600101908083116140eb575b50505050508360080180614118614d91565b80602002602001604051908101604052818152919060208301828061413b614d91565b801561416d57602002820191906000526020600020905b8161415b614d91565b81526020019060010190808311614152575b50505050506138c8565b600080600080600061418b89888a896145fc565b9194509250905060006141d0846130d360088d0160ff8c16816141ac614d91565b81106141b457fe5b906000526020600020016141c6614d91565b6111af86886137b4565b939a93995092975050505050505050565b606061422c826040516040808201905260208082527f5361666545524332303a206c6f772d6c6576656c2063616c6c206661696c6564908201526001600160a01b0386169190614911565b90506000815111156138b857602081018151602081101561425557600080614252614d26565b50505b81019080805192506138b89150505760405162461bcd60e51b815260040180806020018281038252602a8152602001806151e5602a9139604001915050604051809103906142a1614d26565b5050505050565b600080826003016142b7614d91565b90506000836001016142c7614d91565b9050815a6142d361512f565b101561436b576000846002016142e7614d91565b90506000856142f4614d91565b90508083111561433a5761432f61432861430e86856137b4565b6111af61431e865a6130d361512f565b61133188876137b4565b8290613bf7565b945050505050612259565b61432f61436461434a86856137b4565b6111af61435a865a6130d361512f565b61133186896137b4565b82906137b4565b91506122599050565b600060016143828484613d48565b11159392505050565b600080825190508460ff168660ff1614156143f55760405162461bcd60e51b815260206004820152601d60248201527f43616e277420636f6d7061726520746f6b656e20746f20697473656c660000006044820152606401604051809103906143f2614d26565b50505b808660ff161080156144095750808560ff16105b6144625760405162461bcd60e51b815260206004820152601660248201527f546f6b656e73206d75737420626520696e20706f6f6c0000000000000000000060448201526064016040518091039061445f614d26565b50505b600061446e84896139d2565b90508060008061447e858c613c7a565b90506000805b868110156144f7578b60ff1681141561449f578991506144c9565b8a60ff1681146144c4578881815181106144b557fe5b602002602001015191506144c9565b6144ef565b6144d38483613bf7565b93506144ec6144e28389613c7a565b6111af8789613c7a565b94505b600101614484565b506145146145058388613c7a565b6111af6064611331888a613c7a565b9350600061453161452a846111af896064613c7a565b8590613bf7565b9050600086815b61010081101561459557909150819061456b61455d8a6130d387613a9c876002613c7a565b6111af8a613a9c8680613c7a565b91506145778284614374565b1561458d575098506131cb975050505050505050565b600101614538565b5060405162461bcd60e51b815260206004820152601e60248201527f417070726f78696d6174696f6e20646964206e6f7420636f6e766572676500006044820152606401604051809103906145e8614d26565b505050505050505050505095945050505050565b6000806000606061460c8861409f565b905080518760ff161061466e5760405162461bcd60e51b815260206004820152601860248201527f546f6b656e20696e646578206f7574206f662072616e6765000000000000000060448201526064016040518091039061466b614d26565b50505b614676615175565b6040518060a0016040528060008152602001600081526020016000815260200160008152602001600081525090506146ad896138bd565b608082019081526146c0908390516139d2565b81526146dd6146d5876111af84518b90613c7a565b8251906137b4565b60208201528160ff8916815181106146f157fe5b60200260200101518711156147555760405162461bcd60e51b815260206004820152601a60248201527f5769746864726177206578636565647320617661696c61626c65000000000000604482015260640160405180910390614752614d26565b50505b614769816080015189848460200151614920565b60408201526060825167ffffffffffffffff811180156147915760008061478e614d26565b50505b506040519080825280602002602001820160405280156147bb578160200160208202803683370190505b5090506147d48a6004016147cd614d91565b8451613c5f565b606083015260005b835181101561487a5760008482815181106147f357fe5b6020026020010151905061485a6143646402540be4006111af87606001518f60ff16871461483e576148396148328a516111af8c602001518a90613c7a565b87906137b4565b611331565b61133189604001516130d38b516111af8d602001518b90613c7a565b83838151811061486657fe5b6020908102919091010152506001016147dc565b5060006148a361489484608001518c858760200151614920565b838c60ff168151811061124157fe5b90506148de8b6008018b60ff16816148b9614d91565b81106148c157fe5b906000526020600020016148d3614d91565b6111af8360016137b4565b9050808360400151858c60ff16815181106148f557fe5b6020026020010151965096509650505050509450945094915050565b60606128008484600085614aec565b60008083519050808560ff16106149865760405162461bcd60e51b815260206004820152600f60248201527f546f6b656e206e6f7420666f756e640000000000000000000000000000000000604482015260640160405180910390614983614d26565b50505b826000806149948985613c7a565b905060005b848110156149f3578860ff1681146149eb576149c98882815181106149ba57fe5b60200260200101518490613bf7565b92506149e86149de868a848151811061122757fe5b6111af868a613c7a565b93505b600101614999565b50614a10614a018286613c7a565b6111af6064611331878b613c7a565b92506000614a26613607836111af8a6064613c7a565b9050600087815b610100811015614a88579091508190614a60614a528b6130d387613a9c876002613c7a565b6111af89613a9c8680613c7a565b9150614a6c8284614374565b15614a805750965061280095505050505050565b600101614a2d565b5060405162461bcd60e51b815260206004820152601e60248201527f417070726f78696d6174696f6e20646964206e6f7420636f6e76657267650000604482015260640160405180910390614adb614d26565b505050505050505050949350505050565b6060614af785614c5a565b614b505760405162461bcd60e51b815260206004820152601d60248201527f416464726573733a2063616c6c20746f206e6f6e2d636f6e7472616374000000604482015260640160405180910390614b4d614d26565b50505b60006060866001600160a01b031685876040518082805190602001908083835b60208310614bad57805182527fffffffffffffffffffffffffffffffffffffffffffffffffffffffffffffffe09092019160209182019101614b70565b6001836020036101000a03801982511681845116808217855250505050505090500191505060006040518083038185875a614be6615069565b505050505050925050503d8060008114614c3a576040513d603f017fffffffffffffffffffffffffffffffffffffffffffffffffffffffffffffffe01681016040523d815291503d6000602084013e614c3f565b606091505b5091509150614c4f828286614c6f565b979650505050505050565b60008082614c66614dec565b15159392505050565b60608315614c7e575081611546565b600083511115614c9f5782518084602001614c97614d26565b505050611546565b8160405162461bcd60e51b81526004018080602001828103825283818151815260200191508051906020019080838360005b83811015614ce9578082015183820152602001614cd1565b50505050905090810190601f168015614d165780820380516001836020036101000a031916815260200191505b509250505060405180910390613c565b632a2a7adb598160e01b8152600481016020815285602082015260005b86811015614d5e578086015182820160400152602001614d43565b506020828760640184336000905af158600e01573d6000803e3d6000fd5b3d6001141558600a015760016000f35b505050565b6303daa959598160e01b8152836004820152602081602483336000905af158600e01573d6000803e3d6000fd5b3d6001141558600a015760016000f35b8051935060005b60408110156138b857600082820152602001614dd5565b638435035b598160e01b8152836004820152602081602483336000905af158600e01573d6000803e3d6000fd5b3d6001141558600a015760016000f35b80516000825293506020614dd5565b638540661f598160e01b8152614e69565b8080831115612145575090919050565b8080831015612145575090919050565b836004820152846024820152606060448201528660648201526084810160005b88811015614ea1578088015182820152602001614e89565b506060828960a40184336000905af158600e01573d6000803e3d6000fd5b3d6001141558600a015760016000f35b815160408301513d6000853e8b8b82606087013350600060045af15059614ef68d3d614e59565b8c01614f028187614e49565b5b82811015614f175760008152602001614f03565b50929c50505050505050565b6040518061010001604052806000815260200160008152602001600081526020016000815260200160006001600160a01b031681526020016000815260200160608152602001606081525090565b6373509064598160e01b8152602081600483336000905af158600e01573d6000803e3d6000fd5b3d6001141558600a015760016000f35b80516000825293506020614dd5565b6322bd64c0598160e01b8152836004820152846024820152600081604483336000905af158600e01573d6000803e3d6000fd5b3d6001141558600a015760016000f35b600081526020614dd5565b828061500f614d91565b8282615019614fb7565b5050906000526020600020908101928215615059579160200282015b8281111561505957825182615048614fb7565b505091602001919060010190615035565b506150659291506151a4565b5090565b6385979f76598160e01b8152836004820152846024820152606060448201528760648201526084810160005b898110156150ad578089015182820152602001615095565b506060828a60a40184336000905af158600e01573d6000803e3d6000fd5b3d6001141558600a015760016000f35b815160408301513d6000853e8c8c82606087013350600060045af150596151028e3d614e59565b8d0161510e8187614e49565b5b82811015615123576000815260200161510f565b50929d50505050505050565b63bdbf8c36598160e01b8152602081600483336000905af158600e01573d6000803e3d6000fd5b3d6001141558600a015760016000f35b80516000825293506020614dd5565b6040518060a0016040528060008152602001600081526020016000815260200160008152602001600081525090565b8082111561506557600080826151b8614fb7565b5050506001016151a456fe536166654d6174683a206d756c7469706c69636174696f6e206f766572666c6f775361666545524332303a204552433230206f7065726174696f6e20646964206e6f74207375636365656443616e6e6f74207769746864726177206d6f7265207468616e20617661696c61626c65",
  "deployedBytecode": "0x7300000000000000000000000000000000000000005a63996d79a5598160e01b8152602081600483336000905af158601d01573d60011458600c01573d6000803e3d621234565260ea61109c528051925060005b604081101561006a57600082820152602001610053565b5050501460806040526004361061017d5760003560e01c806371906c2c11610114578063a5397b22116100e3578063e0692742116100c8578063e06927421461071e578063e7a4db8114610753578063f3de0362146107a45761017d565b8063a5397b22146106bb578063ab3d8544146107165761017d565b806371906c2c1461051657806373fd6b3e1461053c5780637d048160146105f2578063834b49101461061e5761017d565b8063467e186c11610150578063467e186c146103d45780634b23603c14610416578063704672761461045557806370703e4a146104975761017d565b80630296ab501461018b57806324c5c751146101a957806340370edf146101f657806341b91c26146102ee575b600080610188614d26565b50505b6101936107ac565b60405160ff909116815260200160405180910390f35b8180156101be576000806101bb614d26565b50505b506101f4600480360360408110156101de576000806101db614d26565b50505b50803590602001356001600160a01b03166107b1565b005b81801561020b57600080610208614d26565b50505b506102dc6004803603606081101561022b57600080610228614d26565b50505b8135919081019060408101602082013564010000000081111561025657600080610253614d26565b50505b8201836020820111156102715760008061026e614d26565b50505b8035906020019184602083028401116401000000008311171561029c57600080610299614d26565b50505b91908080602002602001604051908101604052809392919081815260200183836020028082843760009201919091525092955050913592506109dc915050565b60405190815260200160405180910390f35b81801561030357600080610300614d26565b50505b506102dc6004803603606081101561032357600080610320614d26565b50505b8135919081019060408101602082013564010000000081111561034e5760008061034b614d26565b50505b82018360208201111561036957600080610366614d26565b50505b8035906020019184602083028401116401000000008311171561039457600080610391614d26565b50505b919080806020026020016040519081016040528093929190818152602001838360200280828437600092019190915250929550509135925061154d915050565b8180156103e9576000806103e6614d26565b50505b506101f46004803603604081101561040957600080610406614d26565b50505b5080359060200135611e44565b6102dc6004803603608081101561043557600080610432614d26565b50505b5080359060ff602082013581169160408101359091169060600135611eed565b81801561046a57600080610467614d26565b50505b506101f46004803603604081101561048a57600080610487614d26565b50505b5080359060200135611f6c565b6104c3600480360360408110156104b6576000806104b3614d26565b50505b5080359060200135612016565b60405160208082528190810183818151815260200191508051906020019060200280838360005b838110156105025780820151838201526020016104ea565b505050509050019250505060405180910390f35b6102dc6004803603602081101561053557600080610532614d26565b50505b503561214b565b8180156105515760008061054e614d26565b50505b506104c3600480360360608110156105715760008061056e614d26565b50505b8135916020810135918101906060810160408201356401000000008111156105a15760008061059e614d26565b50505b8201836020820111156105bc576000806105b9614d26565b50505b803590602001918460208302840111640100000000831117156105e7576000806105e4614d26565b50505b50909250905061225e565b6102dc600480360360408110156106115760008061060e614d26565b50505b5080359060200135612808565b6102dc6004803603606081101561063d5760008061063a614d26565b50505b8135919081019060408101602082013564010000000081111561066857600080610665614d26565b50505b82018360208201111561068357600080610680614d26565b50505b803590602001918460208302840111640100000000831117156106ae576000806106ab614d26565b50505b919350915035151561292f565b8180156106d0576000806106cd614d26565b50505b506102dc600480360360a08110156106f0576000806106ed614d26565b50505b5080359060ff602082013581169160408101359091169060608101359060800135612be0565b6102dc6131d4565b6102dc6004803603606081101561073d5760008061073a614d26565b50505b508035906020810135906040013560ff166131dc565b81801561076857600080610765614d26565b50505b506102dc6004803603608081101561078857600080610785614d26565b50505b5080359060208101359060ff60408201351690606001356132a2565b6102dc6137ab565b601281565b606082600701806107c0614d91565b8060200260200160405190810160405281815291906020830182806107e3614d91565b801561083057602002820191906000526020600020905b600082610805614d91565b906101000a90046001600160a01b03166001600160a01b0316815260200190600101908083116107fa575b5050505050905060005b81518110156109d657600082828151811061085157fe5b6020026020010151905060006109b086600901848161086e614d91565b811061087657fe5b90600052602060002001610888614d91565b836001600160a01b03166370a082315a63996d79a5598160e01b8152602081600483336000905af158601d01573d60011458600c01573d6000803e3d621234565260ea61109c528051925060005b60408110156108ed576000828201526020016108d6565b5050506040517fffffffff0000000000000000000000000000000000000000000000000000000060e084901b1681526001600160a01b0390911660048201526024016020604051808303818680610942614dec565b15801561095757600080610954614d26565b50505b505a610961614e38565b5050505050158015610980573d6000803e3d600061097d614d26565b50505b505050506040513d602081101561099f5760008061099c614d26565b50505b810190808051939250506137b49050565b905080156109cc576109cc6001600160a01b0383168683613819565b505060010161083a565b50505050565b6000606084600701806109ed614d91565b806020026020016040519081016040528181529190602083018280610a10614d91565b8015610a5d57602002820191906000526020600020905b600082610a32614d91565b906101000a90046001600160a01b03166001600160a01b031681526020019060010190808311610a27575b505050505090508051845114610ac25760405162461bcd60e51b815260206004820181905260248201527f416d6f756e7473206d757374206d6174636820706f6f6c656420746f6b656e73604482015260640160405180910390610abf614d26565b50505b610aca614f23565b604051806101000160405280600081526020016000815260200160008152602001610af4886138bd565b8152602001600060068901610b07614d91565b906101000a90046001600160a01b03166001600160a01b03168152602001600081526020018760090180610b39614d91565b806020026020016040519081016040528181529190602083018280610b5c614d91565b8015610b8e57602002820191906000526020600020905b81610b7c614d91565b81526020019060010190808311610b73575b505050505081526020018760080180610ba5614d91565b806020026020016040519081016040528181529190602083018280610bc8614d91565b8015610bfa57602002820191906000526020600020905b81610be8614d91565b81526020019060010190808311610bdf575b5050505050815250905080608001516001600160a01b03166318160ddd6040518163ffffffff1660e01b81526004016020604051808303818680610c3c614dec565b158015610c5157600080610c4e614d26565b50505b505a610c5b614e38565b5050505050158015610c7a573d6000803e3d6000610c77614d26565b50505b505050506040513d6020811015610c9957600080610c96614d26565b50505b81019080805160a08501908152925050505115610cd257610ccf610cc58260c001518360e001516138c8565b82606001516139d2565b81525b6060825167ffffffffffffffff81118015610cf557600080610cf2614d26565b50505b50604051908082528060200260200182016040528015610d1f578160200160208202803683370190505b50905060005b8351811015611076578260a00151151580610d5357506000878281518110610d4957fe5b6020026020010151115b610dac5760405162461bcd60e51b815260206004820152601e60248201527f4d75737420737570706c7920616c6c20746f6b656e7320696e20706f6f6c0000604482015260640160405180910390610da9614d26565b50505b868181518110610db857fe5b602002602001015115611022576000848281518110610dd357fe5b60200260200101516001600160a01b03166370a082315a63996d79a5598160e01b8152602081600483336000905af158601d01573d60011458600c01573d6000803e3d621234565260ea61109c528051925060005b6040811015610e3f57600082820152602001610e28565b5050506040517fffffffff0000000000000000000000000000000000000000000000000000000060e084901b1681526001600160a01b0390911660048201526024016020604051808303818680610e94614dec565b158015610ea957600080610ea6614d26565b50505b505a610eb3614e38565b5050505050158015610ed2573d6000803e3d6000610ecf614d26565b50505b505050506040513d6020811015610ef157600080610eee614d26565b50505b8101908080519350610f9b925050505a610f09614f71565b5a63996d79a5598160e01b8152602081600483336000905af158601d01573d60011458600c01573d6000803e3d621234565260ea61109c528051925060005b6040811015610f5f57600082820152602001610f48565b5050508a8581518110610f6e57fe5b6020026020010151888681518110610f8257fe5b60200260200101516001600160a01b0316929190613b4b565b61100881868481518110610fab57fe5b60200260200101516001600160a01b03166370a082315a63996d79a5598160e01b8152602081600483336000905af158601d01573d60011458600c01573d6000803e3d621234565260ea61109c52805160008252925060206108d6565b88838151811061101457fe5b602002602001018181525050505b61105787828151811061103157fe5b60200260200101518460c00151838151811061104957fe5b602002602001015190613bf7565b82828151811061106357fe5b6020908102919091010152600101610d25565b50611092611088828460e001516138c8565b83606001516139d2565b602083015281518260200151116110f85760405162461bcd60e51b815260206004820152601160248201527f442073686f756c6420696e6372656173650000000000000000000000000000006044820152606401604051809103906110f5614d26565b50505b816020015160408301526060835167ffffffffffffffff8111801561112557600080611122614d26565b50505b5060405190808252806020026020018201604052801561114f578160200160208202803683370190505b5090508260a00151156112e65760006111748960040161116d614d91565b8651613c5f565b905060005b85518110156112bf5760006111b586516111af8860c00151858151811061119c57fe5b6020026020010151896020015190613c7a565b90613cd9565b90506111e86402540be4006111af6111e18886815181106111d257fe5b60200260200101518590613d48565b8690613c7a565b8483815181106111f457fe5b60200260200101818152505061124f6112356402540be4006111af8e60050161121b614d91565b88878151811061122757fe5b602002602001015190613c7a565b86848151811061124157fe5b6020026020010151906137b4565b8b600901838161125d614d91565b811061126557fe5b906000526020600020018190611279614fb7565b50505061129f84838151811061128b57fe5b602002602001015186848151811061124157fe5b8583815181106112ab57fe5b602090810291909101015250600101611179565b506112db6112d1848660e001516138c8565b85606001516139d2565b6040850152506112fd565b600988018280516112fb929160200190615005565b505b60008360a00151611314578360200151905061133a565b61133784516111af8660a0015161133188518960400151906137b4565b90613c7a565b90505b868110156113975760405162461bcd60e51b815260206004820152601b60248201527f436f756c646e2774206d696e74206d696e207265717565737465640000000000604482015260640160405180910390611394614d26565b50505b83608001516001600160a01b03166340c10f195a6113b3614f71565b836040517fffffffff0000000000000000000000000000000000000000000000000000000060e085901b1681526001600160a01b03909216600483015260248201526044016000604051808303816000878061140d614dec565b1580156114225760008061141f614d26565b50505b505a61142c615069565b50505050505015801561144c573d6000803e3d6000611449614d26565b50505b505050505a611459614f71565b6001600160a01b03167f189c623b666b1b45b83d7178f39b8c087cb09774317ca2f53c2d3c3726f222a289848760200151611499868a60a0015190613bf7565b604051808060200180602001858152602001848152602001838103835287818151815260200191508051906020019060200280838360005b838110156114e95780820151838201526020016114d1565b50505050905001838103825286818151815260200191508051906020019060200280838360005b83811015611528578082015183820152602001611510565b50505050905001965050505050505060405180910390a29450505050505b9392505050565b6000611557614f23565b604051806101000160405280600081526020016000815260200160008152602001611581876138bd565b8152602001600060068801611594614d91565b906101000a90046001600160a01b03166001600160a01b031681526020016000815260200186600901806115c6614d91565b8060200260200160405190810160405281815291906020830182806115e9614d91565b801561161b57602002820191906000526020600020905b81611609614d91565b81526020019060010190808311611600575b505050505081526020018660080180611632614d91565b806020026020016040519081016040528181529190602083018280611655614d91565b801561168757602002820191906000526020600020905b81611675614d91565b8152602001906001019080831161166c575b5050505050815250905080608001516001600160a01b03166318160ddd6040518163ffffffff1660e01b815260040160206040518083038186806116c9614dec565b1580156116de576000806116db614d26565b50505b505a6116e8614e38565b5050505050158015611707573d6000803e3d6000611704614d26565b50505b505050506040513d602081101561172657600080611723614d26565b50505b81019080805160a08501525060609150506007860180611744614d91565b806020026020016040519081016040528181529190602083018280611767614d91565b80156117b457602002820191906000526020600020905b600082611789614d91565b906101000a90046001600160a01b03166001600160a01b03168152602001906001019080831161177e575b5050505050905080518551146118195760405162461bcd60e51b815260206004820181905260248201527f416d6f756e74732073686f756c64206d6174636820706f6f6c20746f6b656e73604482015260640160405180910390611816614d26565b50505b81608001516001600160a01b03166370a082315a611835614f71565b6040517fffffffff0000000000000000000000000000000000000000000000000000000060e084901b1681526001600160a01b0390911660048201526024016020604051808303818680611887614dec565b15801561189c57600080611899614d26565b50505b505a6118a6614e38565b50505050501580156118c5573d6000803e3d60006118c2614d26565b50505b505050506040513d60208110156118e4576000806118e1614d26565b50505b81019080805187118015935091506118fd905057508315155b6119565760405162461bcd60e51b815260206004820152600d60248201527f3e4c502e62616c616e63654f6600000000000000000000000000000000000000604482015260640160405180910390611953614d26565b50505b600061196e87600401611967614d91565b8351613c5f565b90506060825167ffffffffffffffff8111801561199357600080611990614d26565b50505b506040519080825280602002602001820160405280156119bd578160200160208202803683370190505b5090506060835167ffffffffffffffff811180156119e3576000806119e0614d26565b50505b50604051908082528060200260200182016040528015611a0d578160200160208202803683370190505b509050611a2f611a258660c001518760e001516138c8565b86606001516139d2565b855260005b8451811015611aa957611a8a898281518110611a4c57fe5b602002602001015160405160608101604052602380825261520f60208301398860c001518481518110611a7b57fe5b60200260200101519190613d60565b828281518110611a9657fe5b6020908102919091010152600101611a34565b50611abb611a25828760e001516138c8565b602086015260005b8451811015611bec576000611af987516111af8960c001518581518110611ae657fe5b60200260200101518a6020015190613c7a565b90506000611b1b848481518110611b0c57fe5b60200260200101518390613d48565b9050611b306402540be4006111af8884613c7a565b858481518110611b3c57fe5b602002602001018181525050611b7b611b6f6402540be4006111af8f600501611b63614d91565b89888151811061122757fe5b85858151811061124157fe5b8c6009018481611b89614d91565b8110611b9157fe5b906000526020600020018190611ba5614fb7565b505050611bcb858481518110611bb757fe5b602002602001015185858151811061124157fe5b848481518110611bd757fe5b60209081029190910101525050600101611ac3565b50611bfe611a25828760e001516138c8565b6040860152506000611c2385516111af8760a0015161133189604001518a51906137b4565b905080611c7f5760405162461bcd60e51b815260206004820152601b60248201527f4275726e7420616d6f756e742063616e6e6f74206265207a65726f0000000000604482015260640160405180910390611c7c614d26565b50505b611c8a816001613bf7565b905086811115611ce95760405162461bcd60e51b815260206004820152601b60248201527f746f6b656e416d6f756e74203e206d61784275726e416d6f756e740000000000604482015260640160405180910390611ce6614d26565b50505b84608001516001600160a01b03166379cc67905a611d05614f71565b836040517fffffffff0000000000000000000000000000000000000000000000000000000060e085901b1681526001600160a01b039092166004830152602482015260440160006040518083038160008780611d5f614dec565b158015611d7457600080611d71614d26565b50505b505a611d7e615069565b505050505050158015611d9e573d6000803e3d6000611d9b614d26565b50505b5050505060005b8451811015611dfa57611df25a611dba614f71565b8a8381518110611dc657fe5b6020026020010151878481518110611dda57fe5b60200260200101516001600160a01b03169190613819565b600101611da5565b505a611e04614f71565b6001600160a01b03167f3631c28b1f9dd213e0319fb167b554d76b6c283a41143eb400a0d1adb1af175589848860200151611499868b60a00151906137b4565b6305f5e100811115611ea55760405162461bcd60e51b815260206004820152600f60248201527f46656520697320746f6f20686967680000000000000000000000000000000000604482015260640160405180910390611ea2614d26565b50505b808060048401611eb3614fb7565b5050507fd88ea5155021c6f8dafa1a741e173f595cdf77ce7c17d43342131d7f06afdfe58160405190815260200160405180910390a15050565b6000611f62858585858960090180611f03614d91565b806020026020016040519081016040528181529190602083018280611f26614d91565b8015611f5857602002820191906000526020600020905b81611f46614d91565b81526020019060010190808311611f3d575b5050505050613dff565b5095945050505050565b6402540be400811115611fce5760405162461bcd60e51b815260206004820152600f60248201527f46656520697320746f6f20686967680000000000000000000000000000000000604482015260640160405180910390611fcb614d26565b50505b808060058401611fdc614fb7565b5050507fab599d640ca80cde2b09b128a4154a8dfe608cb80f4c9399c8b954b01fd35f388160405190815260200160405180910390a15050565b60606121428360090180612028614d91565b80602002602001604051908101604052818152919060208301828061204b614d91565b801561207d57602002820191906000526020600020905b8161206b614d91565b81526020019060010190808311612062575b50505050508385600601600090612092614d91565b906101000a90046001600160a01b03166001600160a01b03166318160ddd6040518163ffffffff1660e01b815260040160206040518083038186806120d5614dec565b1580156120ea576000806120e7614d26565b50505b505a6120f4614e38565b5050505050158015612113573d6000803e3d6000612110614d26565b50505b505050506040513d60208110156121325760008061212f614d26565b50505b8101908080519250613fb1915050565b90505b92915050565b60008061216861215a8461409f565b612163856138bd565b6139d2565b905060008060068501612179614d91565b906101000a90046001600160a01b031690506000816001600160a01b03166318160ddd6040518163ffffffff1660e01b815260040160206040518083038186806121c1614dec565b1580156121d6576000806121d3614d26565b50505b505a6121e0614e38565b50505050501580156121ff573d6000803e3d60006121fc614d26565b50505b505050506040513d602081101561221e5760008061221b614d26565b50505b81019080805193505082159150612251905057612247816111af85670de0b6b3a7640000613c7a565b9350505050612259565b600093505050505b919050565b60606000806006870161226f614d91565b906101000a90046001600160a01b0316905060608660070180612290614d91565b8060200260200160405190810160405281815291906020830182806122b3614d91565b801561230057602002820191906000526020600020905b6000826122d5614d91565b906101000a90046001600160a01b03166001600160a01b0316815260200190600101908083116122ca575b50505050509050816001600160a01b03166370a082315a61231f614f71565b6040517fffffffff0000000000000000000000000000000000000000000000000000000060e084901b1681526001600160a01b0390911660048201526024016020604051808303818680612371614dec565b15801561238657600080612383614d26565b50505b505a612390614e38565b50505050501580156123af573d6000803e3d60006123ac614d26565b50505b505050506040513d60208110156123ce576000806123cb614d26565b50505b81019080805189111592506124359150505760405162461bcd60e51b815260206004820152600d60248201527f3e4c502e62616c616e63654f6600000000000000000000000000000000000000604482015260640160405180910390612432614d26565b50505b805184146124925760405162461bcd60e51b815260206004820181905260248201527f6d696e416d6f756e7473206d757374206d6174636820706f6f6c546f6b656e7360448201526064016040518091039061248f614d26565b50505b606087600901806124a1614d91565b8060200260200160405190810160405281815291906020830182806124c4614d91565b80156124f657602002820191906000526020600020905b816124e4614d91565b815260200190600101908083116124db575b505050505090506000836001600160a01b03166318160ddd6040518163ffffffff1660e01b81526004016020604051808303818680612533614dec565b15801561254857600080612545614d26565b50505b505a612552614e38565b5050505050158015612571573d6000803e3d600061256e614d26565b50505b505050506040513d60208110156125905760008061258d614d26565b50505b8101908080519350606092506125ab91508490508a84613fb1565b905060005b81518110156126ab578888828181106125c557fe5b905060200201358282815181106125d857fe5b6020026020010151101561263b5760405162461bcd60e51b815260206004820152601a60248201527f616d6f756e74735b695d203c206d696e416d6f756e74735b695d000000000000604482015260640160405180910390612638614d26565b50505b61265e82828151811061264a57fe5b602002602001015185838151811061124157fe5b8b600901828161266c614d91565b811061267457fe5b906000526020600020018190612688614fb7565b5050506126a35a612697614f71565b838381518110611dc657fe5b6001016125b0565b50846001600160a01b03166379cc67905a6126c4614f71565b8b6040517fffffffff0000000000000000000000000000000000000000000000000000000060e085901b1681526001600160a01b03909216600483015260248201526044016000604051808303816000878061271e614dec565b15801561273357600080612730614d26565b50505b505a61273d615069565b50505050505015801561275d573d6000803e3d600061275a614d26565b50505b505050505a61276a614f71565b6001600160a01b03167f88d38ed598fdd809c2bf01ee49cd24b7fdabf379a83d29567952b60324d58cef8261279f858d6137b4565b6040518080602001838152602001828103825284818151815260200191508051906020019060200280838360005b838110156127e55780820151838201526020016127cd565b50505050905001935050505060405180910390a29450505050505b949350505050565b60008260070180612817614d91565b905082106128745760405162461bcd60e51b815260206004820152601860248201527f546f6b656e20696e646578206f7574206f662072616e67650000000000000000604482015260640160405180910390612871614d26565b50505b612142836009018381612885614d91565b811061288d57fe5b9060005260206000200161289f614d91565b8460070184816128ad614d91565b81106128b557fe5b906000526020600020016000906128ca614d91565b906101000a90046001600160a01b03166001600160a01b03166370a082315a63996d79a5598160e01b8152602081600483336000905af158601d01573d60011458600c01573d6000803e3d621234565260ea61109c52805160008252925060206108d6565b60008061293b866138bd565b90506060866009018061294c614d91565b80602002602001604051908101604052818152919060208301828061296f614d91565b80156129a157602002820191906000526020600020905b8161298f614d91565b81526020019060010190808311612986575b50505050509050606087600801806129b7614d91565b8060200260200160405190810160405281815291906020830182806129da614d91565b8015612a0c57602002820191906000526020600020905b816129fa614d91565b815260200190600101908083116129f1575b505050505090506000612a28612a2284846138c8565b856139d2565b905060005b8351811015612ad5578615612a7b57612a5e898983818110612a4b57fe5b9050602002013585838151811061104957fe5b848281518110612a6a57fe5b602002602001018181525050612acd565b612ab4898983818110612a8a57fe5b9050602002013560405160608101604052602380825261520f6020830139868481518110611a7b57fe5b848281518110612ac057fe5b6020026020010181815250505b600101612a2d565b506000612aeb612ae585856138c8565b866139d2565b905060008060068c01612afc614d91565b906101000a90046001600160a01b03166001600160a01b03166318160ddd6040518163ffffffff1660e01b81526004016020604051808303818680612b3f614dec565b158015612b5457600080612b51614d26565b50505b505a612b5e614e38565b5050505050158015612b7d573d6000803e3d6000612b7a614d26565b50505b505050506040513d6020811015612b9c57600080612b99614d26565b50505b81019080805193505089159150612bce905057612bc1836111af8361133186846137b4565b9650505050505050612800565b612bc1836111af8361133183876137b4565b600080866007018660ff1681612bf4614d91565b8110612bfc57fe5b90600052602060002001600090612c11614d91565b906101000a90046001600160a01b03169050806001600160a01b03166370a082315a612c3b614f71565b6040517fffffffff0000000000000000000000000000000000000000000000000000000060e084901b1681526001600160a01b0390911660048201526024016020604051808303818680612c8d614dec565b158015612ca257600080612c9f614d26565b50505b505a612cac614e38565b5050505050158015612ccb573d6000803e3d6000612cc8614d26565b50505b505050506040513d6020811015612cea57600080612ce7614d26565b50505b8101908080518711159250612d519150505760405162461bcd60e51b815260206004820152601d60248201527f43616e6e6f742073776170206d6f7265207468616e20796f75206f776e000000604482015260640160405180910390612d4e614d26565b50505b6000816001600160a01b03166370a082315a63996d79a5598160e01b8152602081600483336000905af158601d01573d60011458600c01573d6000803e3d621234565260ea61109c528051925060005b6040811015612db857600082820152602001612da1565b5050506040517fffffffff0000000000000000000000000000000000000000000000000000000060e084901b1681526001600160a01b0390911660048201526024016020604051808303818680612e0d614dec565b158015612e2257600080612e1f614d26565b50505b505a612e2c614e38565b5050505050158015612e4b573d6000803e3d6000612e48614d26565b50505b505050506040513d6020811015612e6a57600080612e67614d26565b50505b8101908080519350612eed925050505a612e82614f71565b5a63996d79a5598160e01b8152602081600483336000905af158601d01573d60011458600c01573d6000803e3d621234565260ea61109c528051925060005b6040811015612ed857600082820152602001612ec1565b5050506001600160a01b038516919088613b4b565b612f4781836001600160a01b03166370a082315a63996d79a5598160e01b8152602081600483336000905af158601d01573d60011458600c01573d6000803e3d621234565260ea61109c52805160008252925060206108d6565b9450505060008060608860090180612f5d614d91565b806020026020016040519081016040528181529190602083018280612f80614d91565b8015612fb257602002820191906000526020600020905b81612fa0614d91565b81526020019060010190808311612f97575b50505050509050612fc68989898985613dff565b9093509150848310156130285760405162461bcd60e51b815260206004820181905260248201527f53776170206469646e277420726573756c7420696e206d696e20746f6b656e73604482015260640160405180910390613025614d26565b50505b60006130778a6008018960ff168161303e614d91565b811061304657fe5b90600052602060002001613058614d91565b6111af6402540be4006111af8e600501613070614d91565b8890613c7a565b905061308c87838b60ff168151811061104957fe5b8a6009018a60ff168161309d614d91565b81106130a557fe5b9060005260206000200181906130b9614fb7565b5050506130d9816130d386858c60ff168151811061124157fe5b906137b4565b8a6009018960ff16816130ea614d91565b81106130f257fe5b906000526020600020018190613106614fb7565b50505061315d5a613115614f71565b858c6007018b60ff1681613127614d91565b811061312f57fe5b90600052602060002001600090613144614d91565b6001600160a01b036101009290920a9004169190613819565b5a613166614f71565b6001600160a01b03167fc6c1e0630dbe9130cc068028486c0d118ddcea348550819defd5cb8c257f8a3888868c8c604051808581526020018481526020018360ff1681526020018260ff16815260200194505050505060405180910390a25091925050505b95945050505050565b6305f5e10081565b600080611f6285858584600684016131f2614d91565b906101000a90046001600160a01b03166001600160a01b03166318160ddd6040518163ffffffff1660e01b81526004016020604051808303818680613235614dec565b15801561324a57600080613247614d26565b50505b505a613254614e38565b5050505050158015613273573d6000803e3d6000613270614d26565b50505b505050506040513d60208110156132925760008061328f614d26565b50505b8101908080519250614177915050565b60008080600687016132b2614d91565b906101000a90046001600160a01b03169050606086600701806132d3614d91565b8060200260200160405190810160405281815291906020830182806132f6614d91565b801561334357602002820191906000526020600020905b600082613318614d91565b906101000a90046001600160a01b03166001600160a01b03168152602001906001019080831161330d575b50505050509050816001600160a01b03166370a082315a613362614f71565b6040517fffffffff0000000000000000000000000000000000000000000000000000000060e084901b1681526001600160a01b03909116600482015260240160206040518083038186806133b4614dec565b1580156133c9576000806133c6614d26565b50505b505a6133d3614e38565b50505050501580156133f2573d6000803e3d60006133ef614d26565b50505b505050506040513d60208110156134115760008061340e614d26565b50505b81019080805189111592506134789150505760405162461bcd60e51b815260206004820152600d60248201527f3e4c502e62616c616e63654f6600000000000000000000000000000000000000604482015260640160405180910390613475614d26565b50505b80518560ff16106134d85760405162461bcd60e51b815260206004820152600f60248201527f546f6b656e206e6f7420666f756e6400000000000000000000000000000000006044820152606401604051809103906134d5614d26565b50505b6000826001600160a01b03166318160ddd6040518163ffffffff1660e01b8152600401602060405180830381868061350e614dec565b15801561352357600080613520614d26565b50505b505a61352d614e38565b505050505015801561354c573d6000803e3d6000613549614d26565b50505b505050506040513d602081101561356b57600080613568614d26565b50505b81019080805193506000925082915061358890508a8a8a86614177565b91509150868210156135e95760405162461bcd60e51b815260206004820152600e60248201527f6479203c206d696e416d6f756e740000000000000000000000000000000000006044820152606401604051809103906135e6614d26565b50505b61363961360e6136076402540be4006111af8e6005016111e1614d91565b8490613bf7565b8b6009018a60ff168161361f614d91565b811061362757fe5b906000526020600020016130d3614d91565b8a6009018960ff168161364a614d91565b811061365257fe5b906000526020600020018190613666614fb7565b505050846001600160a01b03166379cc67905a613681614f71565b8b6040517fffffffff0000000000000000000000000000000000000000000000000000000060e085901b1681526001600160a01b0390921660048301526024820152604401600060405180830381600087806136db614dec565b1580156136f0576000806136ed614d26565b50505b505a6136fa615069565b50505050505015801561371a573d6000803e3d6000613717614d26565b50505b5050505061373a5a61372a614f71565b83868b60ff1681518110611dda57fe5b5a613743614f71565b6001600160a01b03167f43fb02998f4e03da2e0e6fff53fdbf0c40a9f45f145dc377fc30615d7d7a8a648a858b86604051808581526020018481526020018360ff16815260200182815260200194505050505060405180910390a25098975050505050505050565b6402540be40081565b6000828211156138135760405162461bcd60e51b815260206004820152601e60248201527f536166654d6174683a207375627472616374696f6e206f766572666c6f770000604482015260640160405180910390613810614d26565b50505b50900390565b6138b8837fa9059cbb0000000000000000000000000000000000000000000000000000000084846040516001600160a01b0390921660248301526044820152606401604051602081830303815290604052907bffffffffffffffffffffffffffffffffffffffffffffffffffffffff19166020820180517bffffffffffffffffffffffffffffffffffffffffffffffffffffffff1690911790526141e1565b505050565b6000612145826142a8565b60606000835190508251811461392d5760405162461bcd60e51b815260206004820152601f60248201527f42616c616e636573206d757374206d61746368206d756c7469706c696572730060448201526064016040518091039061392a614d26565b50505b60608167ffffffffffffffff8111801561394f5760008061394c614d26565b50505b50604051908082528060200260200182016040528015613979578160200160208202803683370190505b50905060005b828110156139c9576139aa85828151811061399657fe5b602002602001015187838151811061122757fe5b8282815181106139b657fe5b602090810291909101015260010161397f565b50949350505050565b600080835190506000805b82811015613a0d57613a038682815181106139f457fe5b60200260200101518390613bf7565b91506001016139dd565b5080613a1e57600092505050612145565b60008181613a2c8786613c7a565b905060005b610100811015613aeb578260005b87811015613a6e57613a64613a5a898d848151811061122757fe5b6111af8488613c7a565b9150600101613a3f565b509293508392613ac2613aa2613a89836113318b6001613bf7565b613a9c60646111af896113318a846137b4565b90613bf7565b6111af86611331613ab3868d613c7a565b613a9c60646111af8b8f613c7a565b9350613ace8486614374565b15613ae25783975050505050505050612145565b50600101613a31565b5060405162461bcd60e51b815260206004820152601360248201527f4420646f6573206e6f7420636f6e766572676500000000000000000000000000604482015260640160405180910390613b3e614d26565b5050505050505092915050565b6109d6847f23b872dd000000000000000000000000000000000000000000000000000000008585856040516001600160a01b0393841660248201529190921660448201526064810191909152608401604051602081830303815290604052907bffffffffffffffffffffffffffffffffffffffffffffffffffffffff19166020820180517bffffffffffffffffffffffffffffffffffffffffffffffffffffffff1690911790526141e1565b6000828201838110156121425760405162461bcd60e51b815260206004820152601b60248201527f536166654d6174683a206164646974696f6e206f766572666c6f770000000000604482015260640160405180910390613c56614d26565b50509392505050565b6000612142613c7460046113318560016137b4565b6111af85855b600082613c8957506000612145565b82820282848281613c9657fe5b04146121425760405162461bcd60e51b81526004018080602001828103825260218152602001806151c46021913960400191505060405180910390613c56614d26565b6000808211613d375760405162461bcd60e51b815260206004820152601a60248201527f536166654d6174683a206469766973696f6e206279207a65726f000000000000604482015260640160405180910390613d34614d26565b50505b818381613d4057fe5b049392505050565b600081831115613d5b5750808203612145565b500390565b600081848411156138105760405162461bcd60e51b81526004018080602001828103825283818151815260200191508051906020019080838360005b83811015613db4578082015183820152602001613d9c565b50505050905090810190601f168015613de15780820380516001836020036101000a031916815260200191505b509250505060405180910390613df5614d26565b5050505050900390565b60008060608760080180613e11614d91565b806020026020016040519081016040528181529190602083018280613e34614d91565b8015613e6657602002820191906000526020600020905b81613e54614d91565b81526020019060010190808311613e4b575b505050505090506060613e7985836138c8565b905080518860ff16108015613e91575080518760ff16105b613eea5760405162461bcd60e51b815260206004820152601860248201527f546f6b656e20696e646578206f7574206f662072616e67650000000000000000604482015260640160405180910390613ee7614d26565b50505b6000613f27828a60ff1681518110613efe57fe5b6020026020010151613a9c858c60ff1681518110613f1857fe5b60200260200101518a90613c7a565b90506000613f40613f378c6138bd565b8b8b858761438b565b9050613f5a60016130d383868d60ff168151811061124157fe5b9550613f7b6402540be4006111af8d600401613f74614d91565b8990613c7a565b9450613fa1848a60ff1681518110613f8f57fe5b60200260200101516111af88886137b4565b9550505050509550959350505050565b6060818311156140105760405162461bcd60e51b815260206004820152601a60248201527f43616e6e6f742065786365656420746f74616c20737570706c7900000000000060448201526064016040518091039061400d614d26565b50505b6060845167ffffffffffffffff8111801561403357600080614030614d26565b50505b5060405190808252806020026020018201604052801561405d578160200160208202803683370190505b50905060005b85518110156139c957614080846111af8789858151811061122757fe5b82828151811061408c57fe5b6020908102919091010152600101614063565b606061214582600901806140b1614d91565b8060200260200160405190810160405281815291906020830182806140d4614d91565b801561410657602002820191906000526020600020905b816140f4614d91565b815260200190600101908083116140eb575b50505050508360080180614118614d91565b80602002602001604051908101604052818152919060208301828061413b614d91565b801561416d57602002820191906000526020600020905b8161415b614d91565b81526020019060010190808311614152575b50505050506138c8565b600080600080600061418b89888a896145fc565b9194509250905060006141d0846130d360088d0160ff8c16816141ac614d91565b81106141b457fe5b906000526020600020016141c6614d91565b6111af86886137b4565b939a93995092975050505050505050565b606061422c826040516040808201905260208082527f5361666545524332303a206c6f772d6c6576656c2063616c6c206661696c6564908201526001600160a01b0386169190614911565b90506000815111156138b857602081018151602081101561425557600080614252614d26565b50505b81019080805192506138b89150505760405162461bcd60e51b815260040180806020018281038252602a8152602001806151e5602a9139604001915050604051809103906142a1614d26565b5050505050565b600080826003016142b7614d91565b90506000836001016142c7614d91565b9050815a6142d361512f565b101561436b576000846002016142e7614d91565b90506000856142f4614d91565b90508083111561433a5761432f61432861430e86856137b4565b6111af61431e865a6130d361512f565b61133188876137b4565b8290613bf7565b945050505050612259565b61432f61436461434a86856137b4565b6111af61435a865a6130d361512f565b61133186896137b4565b82906137b4565b91506122599050565b600060016143828484613d48565b11159392505050565b600080825190508460ff168660ff1614156143f55760405162461bcd60e51b815260206004820152601d60248201527f43616e277420636f6d7061726520746f6b656e20746f20697473656c660000006044820152606401604051809103906143f2614d26565b50505b808660ff161080156144095750808560ff16105b6144625760405162461bcd60e51b815260206004820152601660248201527f546f6b656e73206d75737420626520696e20706f6f6c0000000000000000000060448201526064016040518091039061445f614d26565b50505b600061446e84896139d2565b90508060008061447e858c613c7a565b90506000805b868110156144f7578b60ff1681141561449f578991506144c9565b8a60ff1681146144c4578881815181106144b557fe5b602002602001015191506144c9565b6144ef565b6144d38483613bf7565b93506144ec6144e28389613c7a565b6111af8789613c7a565b94505b600101614484565b506145146145058388613c7a565b6111af6064611331888a613c7a565b9350600061453161452a846111af896064613c7a565b8590613bf7565b9050600086815b61010081101561459557909150819061456b61455d8a6130d387613a9c876002613c7a565b6111af8a613a9c8680613c7a565b91506145778284614374565b1561458d575098506131cb975050505050505050565b600101614538565b5060405162461bcd60e51b815260206004820152601e60248201527f417070726f78696d6174696f6e20646964206e6f7420636f6e766572676500006044820152606401604051809103906145e8614d26565b505050505050505050505095945050505050565b6000806000606061460c8861409f565b905080518760ff161061466e5760405162461bcd60e51b815260206004820152601860248201527f546f6b656e20696e646578206f7574206f662072616e6765000000000000000060448201526064016040518091039061466b614d26565b50505b614676615175565b6040518060a0016040528060008152602001600081526020016000815260200160008152602001600081525090506146ad896138bd565b608082019081526146c0908390516139d2565b81526146dd6146d5876111af84518b90613c7a565b8251906137b4565b60208201528160ff8916815181106146f157fe5b60200260200101518711156147555760405162461bcd60e51b815260206004820152601a60248201527f5769746864726177206578636565647320617661696c61626c65000000000000604482015260640160405180910390614752614d26565b50505b614769816080015189848460200151614920565b60408201526060825167ffffffffffffffff811180156147915760008061478e614d26565b50505b506040519080825280602002602001820160405280156147bb578160200160208202803683370190505b5090506147d48a6004016147cd614d91565b8451613c5f565b606083015260005b835181101561487a5760008482815181106147f357fe5b6020026020010151905061485a6143646402540be4006111af87606001518f60ff16871461483e576148396148328a516111af8c602001518a90613c7a565b87906137b4565b611331565b61133189604001516130d38b516111af8d602001518b90613c7a565b83838151811061486657fe5b6020908102919091010152506001016147dc565b5060006148a361489484608001518c858760200151614920565b838c60ff168151811061124157fe5b90506148de8b6008018b60ff16816148b9614d91565b81106148c157fe5b906000526020600020016148d3614d91565b6111af8360016137b4565b9050808360400151858c60ff16815181106148f557fe5b6020026020010151965096509650505050509450945094915050565b60606128008484600085614aec565b60008083519050808560ff16106149865760405162461bcd60e51b815260206004820152600f60248201527f546f6b656e206e6f7420666f756e640000000000000000000000000000000000604482015260640160405180910390614983614d26565b50505b826000806149948985613c7a565b905060005b848110156149f3578860ff1681146149eb576149c98882815181106149ba57fe5b60200260200101518490613bf7565b92506149e86149de868a848151811061122757fe5b6111af868a613c7a565b93505b600101614999565b50614a10614a018286613c7a565b6111af6064611331878b613c7a565b92506000614a26613607836111af8a6064613c7a565b9050600087815b610100811015614a88579091508190614a60614a528b6130d387613a9c876002613c7a565b6111af89613a9c8680613c7a565b9150614a6c8284614374565b15614a805750965061280095505050505050565b600101614a2d565b5060405162461bcd60e51b815260206004820152601e60248201527f417070726f78696d6174696f6e20646964206e6f7420636f6e76657267650000604482015260640160405180910390614adb614d26565b505050505050505050949350505050565b6060614af785614c5a565b614b505760405162461bcd60e51b815260206004820152601d60248201527f416464726573733a2063616c6c20746f206e6f6e2d636f6e7472616374000000604482015260640160405180910390614b4d614d26565b50505b60006060866001600160a01b031685876040518082805190602001908083835b60208310614bad57805182527fffffffffffffffffffffffffffffffffffffffffffffffffffffffffffffffe09092019160209182019101614b70565b6001836020036101000a03801982511681845116808217855250505050505090500191505060006040518083038185875a614be6615069565b505050505050925050503d8060008114614c3a576040513d603f017fffffffffffffffffffffffffffffffffffffffffffffffffffffffffffffffe01681016040523d815291503d6000602084013e614c3f565b606091505b5091509150614c4f828286614c6f565b979650505050505050565b60008082614c66614dec565b15159392505050565b60608315614c7e575081611546565b600083511115614c9f5782518084602001614c97614d26565b505050611546565b8160405162461bcd60e51b81526004018080602001828103825283818151815260200191508051906020019080838360005b83811015614ce9578082015183820152602001614cd1565b50505050905090810190601f168015614d165780820380516001836020036101000a031916815260200191505b509250505060405180910390613c565b632a2a7adb598160e01b8152600481016020815285602082015260005b86811015614d5e578086015182820160400152602001614d43565b506020828760640184336000905af158601d01573d60011458600c01573d6000803e3d621234565260ea61109c52505050565b6303daa959598160e01b8152836004820152602081602483336000905af158601d01573d60011458600c01573d6000803e3d621234565260ea61109c528051935060005b60408110156138b857600082820152602001614dd5565b638435035b598160e01b8152836004820152602081602483336000905af158601d01573d60011458600c01573d6000803e3d621234565260ea61109c5280516000825293506020614dd5565b638540661f598160e01b8152614e69565b8080831115612145575090919050565b8080831015612145575090919050565b836004820152846024820152606060448201528660648201526084810160005b88811015614ea1578088015182820152602001614e89565b506060828960a40184336000905af158601d01573d60011458600c01573d6000803e3d621234565260ea61109c52815160408301513d6000853e8b8b82606087013350600060045af15059614ef68d3d614e59565b8c01614f028187614e49565b5b82811015614f175760008152602001614f03565b50929c50505050505050565b6040518061010001604052806000815260200160008152602001600081526020016000815260200160006001600160a01b031681526020016000815260200160608152602001606081525090565b6373509064598160e01b8152602081600483336000905af158601d01573d60011458600c01573d6000803e3d621234565260ea61109c5280516000825293506020614dd5565b6322bd64c0598160e01b8152836004820152846024820152600081604483336000905af158601d01573d60011458600c01573d6000803e3d621234565260ea61109c52600081526020614dd5565b828061500f614d91565b8282615019614fb7565b5050906000526020600020908101928215615059579160200282015b8281111561505957825182615048614fb7565b505091602001919060010190615035565b506150659291506151a4565b5090565b6385979f76598160e01b8152836004820152846024820152606060448201528760648201526084810160005b898110156150ad578089015182820152602001615095565b506060828a60a40184336000905af158601d01573d60011458600c01573d6000803e3d621234565260ea61109c52815160408301513d6000853e8c8c82606087013350600060045af150596151028e3d614e59565b8d0161510e8187614e49565b5b82811015615123576000815260200161510f565b50929d50505050505050565b63bdbf8c36598160e01b8152602081600483336000905af158601d01573d60011458600c01573d6000803e3d621234565260ea61109c5280516000825293506020614dd5565b6040518060a0016040528060008152602001600081526020016000815260200160008152602001600081525090565b8082111561506557600080826151b8614fb7565b5050506001016151a456fe536166654d6174683a206d756c7469706c69636174696f6e206f766572666c6f775361666545524332303a204552433230206f7065726174696f6e20646964206e6f74207375636365656443616e6e6f74207769746864726177206d6f7265207468616e20617661696c61626c65",
  "devdoc": {
    "details": "Contracts relying on this library must initialize SwapUtils.Swap struct then use this library for SwapUtils.Swap struct. Note that this library contains both functions called by users and admins. Admin functions should be protected within contracts using this library.",
    "kind": "dev",
    "methods": {
      "addLiquidity(SwapUtils.Swap storage,uint256[],uint256)": {
        "params": {
          "amounts": "the amounts of each token to add, in their native precision",
          "minToMint": "the minimum LP tokens adding this amount of liquidity should mint, otherwise revert. Handy for front-running mitigation allowed addresses. If the pool is not in the guarded launch phase, this parameter will be ignored.",
          "self": "Swap struct to read from and write to"
        },
        "returns": {
          "_0": "amount of LP token user received"
        }
      },
      "calculateRemoveLiquidity(SwapUtils.Swap storage,uint256)": {
        "params": {
          "amount": "the amount of LP tokens that would to be burned on withdrawal"
        },
        "returns": {
          "_0": "array of amounts of tokens user will receive"
        }
      },
      "calculateSwap(SwapUtils.Swap storage,uint8,uint8,uint256)": {
        "params": {
          "dx": "the number of tokens to sell. If the token charges a fee on transfers, use the amount that gets transferred after the fee.",
          "self": "Swap struct to read from",
          "tokenIndexFrom": "the token to sell",
          "tokenIndexTo": "the token to buy"
        },
        "returns": {
          "dy": "the number of tokens the user will get"
        }
      },
      "calculateTokenAmount(SwapUtils.Swap storage,uint256[],bool)": {
        "details": "This shouldn't be used outside frontends for user estimates.",
        "params": {
          "amounts": "an array of token amounts to deposit or withdrawal, corresponding to pooledTokens. The amount should be in each pooled token's native precision. If a token charges a fee on transfers, use the amount that gets transferred after the fee.",
          "deposit": "whether this is a deposit or a withdrawal",
          "self": "Swap struct to read from"
        },
        "returns": {
          "_0": "if deposit was true, total amount of lp token that will be minted and if deposit was false, total amount of lp token that will be burned"
        }
      },
      "calculateWithdrawOneToken(SwapUtils.Swap storage,uint256,uint8)": {
        "params": {
          "self": "Swap struct to read from",
          "tokenAmount": "the amount to withdraw in the pool's precision",
          "tokenIndex": "which token will be withdrawn"
        },
        "returns": {
          "_0": "the amount of token user will receive"
        }
      },
      "getAdminBalance(SwapUtils.Swap storage,uint256)": {
        "params": {
          "index": "Index of the pooled token",
          "self": "Swap struct to read from"
        },
        "returns": {
          "_0": "admin balance in the token's precision"
        }
      },
      "getVirtualPrice(SwapUtils.Swap storage)": {
        "params": {
          "self": "Swap struct to read from"
        },
        "returns": {
          "_0": "the virtual price, scaled to precision of POOL_PRECISION_DECIMALS"
        }
      },
      "removeLiquidity(SwapUtils.Swap storage,uint256,uint256[])": {
        "details": "Liquidity can always be removed, even when the pool is paused.",
        "params": {
          "amount": "the amount of LP tokens to burn",
          "minAmounts": "the minimum amounts of each token in the pool acceptable for this burn. Useful as a front-running mitigation",
          "self": "Swap struct to read from and write to"
        },
        "returns": {
          "_0": "amounts of tokens the user received"
        }
      },
      "removeLiquidityImbalance(SwapUtils.Swap storage,uint256[],uint256)": {
        "params": {
          "amounts": "how much of each token to withdraw",
          "maxBurnAmount": "the max LP token provider is willing to pay to remove liquidity. Useful as a front-running mitigation.",
          "self": "Swap struct to read from and write to"
        },
        "returns": {
          "_0": "actual amount of LP tokens burned in the withdrawal"
        }
      },
      "removeLiquidityOneToken(SwapUtils.Swap storage,uint256,uint8,uint256)": {
        "params": {
          "minAmount": "the minimum amount to withdraw, otherwise revert",
          "self": "Swap struct to read from and write to",
          "tokenAmount": "the amount of the lp tokens to burn",
          "tokenIndex": "the index of the token you want to receive"
        },
        "returns": {
          "_0": "amount chosen token that user received"
        }
      },
      "setAdminFee(SwapUtils.Swap storage,uint256)": {
        "details": "adminFee cannot be higher than 100% of the swap fee",
        "params": {
          "newAdminFee": "new admin fee to be applied on future transactions",
          "self": "Swap struct to update"
        }
      },
      "setSwapFee(SwapUtils.Swap storage,uint256)": {
        "details": "fee cannot be higher than 1% of each swap",
        "params": {
          "newSwapFee": "new swap fee to be applied on future transactions",
          "self": "Swap struct to update"
        }
      },
      "swap(SwapUtils.Swap storage,uint8,uint8,uint256,uint256)": {
        "params": {
          "dx": "the amount of tokens the user wants to sell",
          "minDy": "the min amount the user would like to receive, or revert.",
          "self": "Swap struct to read from and write to",
          "tokenIndexFrom": "the token the user wants to sell",
          "tokenIndexTo": "the token the user wants to buy"
        },
        "returns": {
          "_0": "amount of token user received on swap"
        }
      },
      "withdrawAdminFees(SwapUtils.Swap storage,address)": {
        "params": {
          "self": "Swap struct to withdraw fees from",
          "to": "Address to send the fees to"
        }
      }
    },
    "title": "SwapUtils library",
    "version": 1
  },
  "userdoc": {
    "kind": "user",
    "methods": {
      "addLiquidity(SwapUtils.Swap storage,uint256[],uint256)": {
        "notice": "Add liquidity to the pool"
      },
      "calculateRemoveLiquidity(SwapUtils.Swap storage,uint256)": {
        "notice": "A simple method to calculate amount of each underlying tokens that is returned upon burning given amount of LP tokens"
      },
      "calculateSwap(SwapUtils.Swap storage,uint8,uint8,uint256)": {
        "notice": "Externally calculates a swap between two tokens."
      },
      "calculateTokenAmount(SwapUtils.Swap storage,uint256[],bool)": {
        "notice": "A simple method to calculate prices from deposits or withdrawals, excluding fees but including slippage. This is helpful as an input into the various \"min\" parameters on calls to fight front-running"
      },
      "calculateWithdrawOneToken(SwapUtils.Swap storage,uint256,uint8)": {
        "notice": "Calculate the dy, the amount of selected token that user receives and the fee of withdrawing in one token"
      },
      "getAdminBalance(SwapUtils.Swap storage,uint256)": {
        "notice": "return accumulated amount of admin fees of the token with given index"
      },
      "getVirtualPrice(SwapUtils.Swap storage)": {
        "notice": "Get the virtual price, to help calculate profit"
      },
      "removeLiquidity(SwapUtils.Swap storage,uint256,uint256[])": {
        "notice": "Burn LP tokens to remove liquidity from the pool."
      },
      "removeLiquidityImbalance(SwapUtils.Swap storage,uint256[],uint256)": {
        "notice": "Remove liquidity from the pool, weighted differently than the pool's current balances."
      },
      "removeLiquidityOneToken(SwapUtils.Swap storage,uint256,uint8,uint256)": {
        "notice": "Remove liquidity from the pool all in one token."
      },
      "setAdminFee(SwapUtils.Swap storage,uint256)": {
        "notice": "Sets the admin fee"
      },
      "setSwapFee(SwapUtils.Swap storage,uint256)": {
        "notice": "update the swap fee"
      },
      "swap(SwapUtils.Swap storage,uint8,uint8,uint256,uint256)": {
        "notice": "swap two tokens in the pool"
      },
      "withdrawAdminFees(SwapUtils.Swap storage,address)": {
        "notice": "withdraw all admin fees to a given address"
      }
    },
    "notice": "A library to be used within Swap.sol. Contains functions responsible for custody and AMM functionalities.",
    "version": 1
  },
  "storageLayout": {
    "storage": [],
    "types": null
  }
}