{
  "address": "0x4f12aA8397302d55cb29286B4a6C6aFdb541B147",
  "abi": [
    {
      "inputs": [],
      "stateMutability": "nonpayable",
      "type": "constructor"
    },
    {
      "anonymous": false,
      "inputs": [
        {
          "indexed": false,
          "internalType": "uint8",
          "name": "version",
          "type": "uint8"
        }
      ],
      "name": "Initialized",
      "type": "event"
    },
    {
      "anonymous": false,
      "inputs": [
        {
          "indexed": true,
          "internalType": "address",
          "name": "previousOwner",
          "type": "address"
        },
        {
          "indexed": true,
          "internalType": "address",
          "name": "newOwner",
          "type": "address"
        }
      ],
      "name": "OwnershipTransferred",
      "type": "event"
    },
    {
      "inputs": [
        {
          "internalType": "address[]",
          "name": "_callers",
          "type": "address[]"
        }
      ],
      "name": "addKnownCallers",
      "outputs": [],
      "stateMutability": "nonpayable",
      "type": "function"
    },
    {
      "inputs": [
        {
          "internalType": "address",
          "name": "_to",
          "type": "address"
        },
        {
          "internalType": "bytes",
          "name": "_data",
          "type": "bytes"
        },
        {
          "internalType": "address",
          "name": "_fallback",
          "type": "address"
        },
        {
          "internalType": "uint256",
          "name": "_toChainId",
          "type": "uint256"
        },
        {
          "internalType": "uint256",
          "name": "_flags",
          "type": "uint256"
        }
      ],
      "name": "anyCall",
      "outputs": [],
      "stateMutability": "payable",
      "type": "function"
    },
    {
      "inputs": [],
      "name": "anyCallContract",
      "outputs": [
        {
          "internalType": "address",
          "name": "",
          "type": "address"
        }
      ],
      "stateMutability": "view",
      "type": "function"
    },
    {
      "inputs": [],
      "name": "anyCallExecutor",
      "outputs": [
        {
          "internalType": "address",
          "name": "",
          "type": "address"
        }
      ],
      "stateMutability": "view",
      "type": "function"
    },
    {
      "inputs": [
        {
          "internalType": "bytes",
          "name": "toAndData",
          "type": "bytes"
        }
      ],
      "name": "anyExecute",
      "outputs": [
        {
          "internalType": "bool",
          "name": "",
          "type": "bool"
        },
        {
          "internalType": "bytes",
          "name": "",
          "type": "bytes"
        }
      ],
      "stateMutability": "nonpayable",
      "type": "function"
    },
    {
      "inputs": [
        {
          "internalType": "address",
          "name": "_owner",
          "type": "address"
        },
        {
          "internalType": "address",
          "name": "_anyCallContract",
          "type": "address"
        }
      ],
      "name": "initialize",
      "outputs": [],
      "stateMutability": "nonpayable",
      "type": "function"
    },
    {
      "inputs": [
        {
          "internalType": "address",
          "name": "",
          "type": "address"
        }
      ],
      "name": "isKnownCaller",
      "outputs": [
        {
          "internalType": "bool",
          "name": "",
          "type": "bool"
        }
      ],
      "stateMutability": "view",
      "type": "function"
    },
    {
      "inputs": [],
      "name": "owner",
      "outputs": [
        {
          "internalType": "address",
          "name": "",
          "type": "address"
        }
      ],
      "stateMutability": "view",
      "type": "function"
    },
    {
      "inputs": [
        {
          "internalType": "address[]",
          "name": "_callers",
          "type": "address[]"
        }
      ],
      "name": "removeKnownCallers",
      "outputs": [],
      "stateMutability": "nonpayable",
      "type": "function"
    },
    {
      "inputs": [],
      "name": "renounceOwnership",
      "outputs": [],
      "stateMutability": "nonpayable",
      "type": "function"
    },
    {
      "inputs": [
        {
          "internalType": "contract IERC20",
          "name": "token",
          "type": "address"
        },
        {
          "internalType": "address",
          "name": "to",
          "type": "address"
        },
        {
          "internalType": "uint256",
          "name": "balance",
          "type": "uint256"
        }
      ],
      "name": "rescue",
      "outputs": [],
      "stateMutability": "nonpayable",
      "type": "function"
    },
    {
      "inputs": [
        {
          "internalType": "address",
          "name": "_anyCallContract",
          "type": "address"
        }
      ],
      "name": "setAnyCall",
      "outputs": [],
      "stateMutability": "nonpayable",
      "type": "function"
    },
    {
      "inputs": [
        {
          "internalType": "address",
          "name": "newOwner",
          "type": "address"
        }
      ],
      "name": "transferOwnership",
      "outputs": [],
      "stateMutability": "nonpayable",
      "type": "function"
    },
    {
      "inputs": [
        {
          "internalType": "uint256",
          "name": "_amount",
          "type": "uint256"
        }
      ],
      "name": "withdraw",
      "outputs": [],
      "stateMutability": "nonpayable",
      "type": "function"
    },
    {
      "stateMutability": "payable",
      "type": "receive"
    }
  ],
  "transactionHash": "0x673b6754a3ab2eed9432c87701980654ff732340e6cbb6303657c12f038b8dd8",
  "args": [],
  "numDeployments": 1,
  "solcInputHash": "38ac894988ebf4d6035a93b121cacae1",
  "bytecode": "0x60806040523480156200001157600080fd5b50600054610100900460ff1615808015620000335750600054600160ff909116105b8062000063575062000050306200013d60201b62000eb61760201c565b15801562000063575060005460ff166001145b620000cb5760405162461bcd60e51b815260206004820152602e60248201527f496e697469616c697a61626c653a20636f6e747261637420697320616c72656160448201526d191e481a5b9a5d1a585b1a5e995960921b606482015260840160405180910390fd5b6000805460ff191660011790558015620000ef576000805461ff0019166101001790555b801562000136576000805461ff0019169055604051600181527f7f26b83ff96e1f2b6a682f133852f6798a09c465da95921460cefb38474024989060200160405180910390a15b506200014c565b6001600160a01b03163b151590565b611910806200015c6000396000f3fe6080604052600436106100e15760003560e01c806356cb2a6f1161007f5780639abaf479116100595780639abaf47914610293578063bd45c4e7146102c1578063c309b838146102d4578063f2fde38b146102f457600080fd5b806356cb2a6f14610213578063715018a6146102535780638da5cb5b1461026857600080fd5b80632ed43159116100bb5780632ed431591461014f578063377cd0a91461016f5780633c160562146101c6578063485cc955146101f357600080fd5b806310638c71146100ed57806320ff430b1461010f5780632e1a7d4d1461012f57600080fd5b366100e857005b600080fd5b3480156100f957600080fd5b5061010d61010836600461131b565b610314565b005b34801561011b57600080fd5b5061010d61012a366004611338565b61041f565b34801561013b57600080fd5b5061010d61014a366004611379565b61068c565b34801561015b57600080fd5b5061010d61016a366004611392565b610714565b34801561017b57600080fd5b5060655461019c9073ffffffffffffffffffffffffffffffffffffffff1681565b60405173ffffffffffffffffffffffffffffffffffffffff90911681526020015b60405180910390f35b3480156101d257600080fd5b5060665461019c9073ffffffffffffffffffffffffffffffffffffffff1681565b3480156101ff57600080fd5b5061010d61020e366004611407565b6107b9565b34801561021f57600080fd5b5061024361022e36600461131b565b60676020526000908152604090205460ff1681565b60405190151581526020016101bd565b34801561025f57600080fd5b5061010d610a33565b34801561027457600080fd5b5060335473ffffffffffffffffffffffffffffffffffffffff1661019c565b34801561029f57600080fd5b506102b36102ae366004611482565b610a47565b6040516101bd929190611532565b61010d6102cf36600461154d565b610c6e565b3480156102e057600080fd5b5061010d6102ef366004611392565b610d74565b34801561030057600080fd5b5061010d61030f36600461131b565b610e19565b61031c610ed2565b606580547fffffffffffffffffffffffff00000000000000000000000000000000000000001673ffffffffffffffffffffffffffffffffffffffff8316908117909155604080517fc34c08e5000000000000000000000000000000000000000000000000000000008152905163c34c08e5916004808201926020929091908290030181865afa1580156103b3573d6000803e3d6000fd5b505050506040513d601f19601f820116820180604052508101906103d791906115c7565b606680547fffffffffffffffffffffffff00000000000000000000000000000000000000001673ffffffffffffffffffffffffffffffffffffffff9290921691909117905550565b610427610ed2565b73ffffffffffffffffffffffffffffffffffffffff831661056857478115610458576104538183610f39565b61045a565b805b9150600082116104b15760405162461bcd60e51b815260206004820152601460248201527f747279696e6720746f2073656e6420302045544800000000000000000000000060448201526064015b60405180910390fd5b60008373ffffffffffffffffffffffffffffffffffffffff168360405160006040518083038185875af1925050503d806000811461050b576040519150601f19603f3d011682016040523d82523d6000602084013e610510565b606091505b50509050806105615760405162461bcd60e51b815260206004820152601360248201527f455448207472616e73666572206661696c65640000000000000000000000000060448201526064016104a8565b5050505050565b6040517f70a0823100000000000000000000000000000000000000000000000000000000815230600482015260009073ffffffffffffffffffffffffffffffffffffffff8516906370a0823190602401602060405180830381865afa1580156105d5573d6000803e3d6000fd5b505050506040513d601f19601f820116820180604052508101906105f991906115e4565b905081156106105761060b8183610f39565b610612565b805b9150600082116106645760405162461bcd60e51b815260206004820152601860248201527f747279696e6720746f2073656e6420302062616c616e6365000000000000000060448201526064016104a8565b61068573ffffffffffffffffffffffffffffffffffffffff85168484610f51565b505b505050565b610694610ed2565b6065546040517f2e1a7d4d0000000000000000000000000000000000000000000000000000000081526004810183905273ffffffffffffffffffffffffffffffffffffffff90911690632e1a7d4d90602401600060405180830381600087803b15801561070057600080fd5b505af1158015610561573d6000803e3d6000fd5b61071c610ed2565b60005b818110156106875760016067600085858581811061073f5761073f6115fd565b9050602002016020810190610754919061131b565b73ffffffffffffffffffffffffffffffffffffffff168152602081019190915260400160002080547fffffffffffffffffffffffffffffffffffffffffffffffffffffffffffffff0016911515919091179055806107b18161162c565b91505061071f565b600054610100900460ff16158080156107d95750600054600160ff909116105b806107f35750303b1580156107f3575060005460ff166001145b6108655760405162461bcd60e51b815260206004820152602e60248201527f496e697469616c697a61626c653a20636f6e747261637420697320616c72656160448201527f647920696e697469616c697a656400000000000000000000000000000000000060648201526084016104a8565b600080547fffffffffffffffffffffffffffffffffffffffffffffffffffffffffffffff0016600117905580156108c357600080547fffffffffffffffffffffffffffffffffffffffffffffffffffffffffffff00ff166101001790555b6108cc83610fde565b606580547fffffffffffffffffffffffff00000000000000000000000000000000000000001673ffffffffffffffffffffffffffffffffffffffff8416908117909155604080517fc34c08e5000000000000000000000000000000000000000000000000000000008152905163c34c08e5916004808201926020929091908290030181865afa158015610963573d6000803e3d6000fd5b505050506040513d601f19601f8201168201806040525081019061098791906115c7565b606680547fffffffffffffffffffffffff00000000000000000000000000000000000000001673ffffffffffffffffffffffffffffffffffffffff92909216919091179055801561068757600080547fffffffffffffffffffffffffffffffffffffffffffffffffffffffffffff00ff169055604051600181527f7f26b83ff96e1f2b6a682f133852f6798a09c465da95921460cefb38474024989060200160405180910390a1505050565b610a3b610ed2565b610a456000610fde565b565b60665460009060609073ffffffffffffffffffffffffffffffffffffffff163314610ab45760405162461bcd60e51b815260206004820152601e60248201527f43616c6c6572206973206e6f7420616e7943616c6c206578656375746f72000060448201526064016104a8565b60003373ffffffffffffffffffffffffffffffffffffffff1663d0496d6a6040518163ffffffff1660e01b8152600401606060405180830381865afa158015610b01573d6000803e3d6000fd5b505050506040513d601f19601f82011682018060405250810190610b25919061168b565b509091505073ffffffffffffffffffffffffffffffffffffffff81163014610b8f5760405162461bcd60e51b815260206004820152600d60248201527f57726f6e6720636f6e746578740000000000000000000000000000000000000060448201526064016104a8565b600080610b9e868801886116f1565b915091506000808373ffffffffffffffffffffffffffffffffffffffff1683604051610bca91906117d3565b6000604051808303816000865af19150503d8060008114610c07576040519150601f19603f3d011682016040523d82523d6000602084013e610c0c565b606091505b509150915081610c5e5760405162461bcd60e51b815260206004820152601260248201527f5461726765742063616c6c206661696c6564000000000000000000000000000060448201526064016104a8565b90955093505050505b9250929050565b3360009081526067602052604090205460ff16610ccd5760405162461bcd60e51b815260206004820152600e60248201527f556e6b6e6f776e2063616c6c657200000000000000000000000000000000000060448201526064016104a8565b60655460405173ffffffffffffffffffffffffffffffffffffffff9091169063bd45c4e79034903090610d08908b908b908b906020016117ef565b6040516020818303038152906040528787876040518763ffffffff1660e01b8152600401610d3a959493929190611859565b6000604051808303818588803b158015610d5357600080fd5b505af1158015610d67573d6000803e3d6000fd5b5050505050505050505050565b610d7c610ed2565b60005b8181101561068757600060676000858585818110610d9f57610d9f6115fd565b9050602002016020810190610db4919061131b565b73ffffffffffffffffffffffffffffffffffffffff168152602081019190915260400160002080547fffffffffffffffffffffffffffffffffffffffffffffffffffffffffffffff001691151591909117905580610e118161162c565b915050610d7f565b610e21610ed2565b73ffffffffffffffffffffffffffffffffffffffff8116610eaa5760405162461bcd60e51b815260206004820152602660248201527f4f776e61626c653a206e6577206f776e657220697320746865207a65726f206160448201527f646472657373000000000000000000000000000000000000000000000000000060648201526084016104a8565b610eb381610fde565b50565b73ffffffffffffffffffffffffffffffffffffffff163b151590565b60335473ffffffffffffffffffffffffffffffffffffffff163314610a455760405162461bcd60e51b815260206004820181905260248201527f4f776e61626c653a2063616c6c6572206973206e6f7420746865206f776e657260448201526064016104a8565b6000818310610f485781610f4a565b825b9392505050565b6040805173ffffffffffffffffffffffffffffffffffffffff8416602482015260448082018490528251808303909101815260649091019091526020810180517bffffffffffffffffffffffffffffffffffffffffffffffffffffffff167fa9059cbb00000000000000000000000000000000000000000000000000000000179052610687908490611055565b6033805473ffffffffffffffffffffffffffffffffffffffff8381167fffffffffffffffffffffffff0000000000000000000000000000000000000000831681179093556040519116919082907f8be0079c531659141344cd1fd0a4f28419497f9722a3daafe3b4186f6b6457e090600090a35050565b60006110b7826040518060400160405280602081526020017f5361666545524332303a206c6f772d6c6576656c2063616c6c206661696c65648152508573ffffffffffffffffffffffffffffffffffffffff166111479092919063ffffffff16565b80519091501561068757808060200190518101906110d591906118a5565b6106875760405162461bcd60e51b815260206004820152602a60248201527f5361666545524332303a204552433230206f7065726174696f6e20646964206e60448201527f6f7420737563636565640000000000000000000000000000000000000000000060648201526084016104a8565b6060611156848460008561115e565b949350505050565b6060824710156111d65760405162461bcd60e51b815260206004820152602660248201527f416464726573733a20696e73756666696369656e742062616c616e636520666f60448201527f722063616c6c000000000000000000000000000000000000000000000000000060648201526084016104a8565b73ffffffffffffffffffffffffffffffffffffffff85163b61123a5760405162461bcd60e51b815260206004820152601d60248201527f416464726573733a2063616c6c20746f206e6f6e2d636f6e747261637400000060448201526064016104a8565b6000808673ffffffffffffffffffffffffffffffffffffffff16858760405161126391906117d3565b60006040518083038185875af1925050503d80600081146112a0576040519150601f19603f3d011682016040523d82523d6000602084013e6112a5565b606091505b50915091506112b58282866112c0565b979650505050505050565b606083156112cf575081610f4a565b8251156112df5782518084602001fd5b8160405162461bcd60e51b81526004016104a891906118c7565b73ffffffffffffffffffffffffffffffffffffffff81168114610eb357600080fd5b60006020828403121561132d57600080fd5b8135610f4a816112f9565b60008060006060848603121561134d57600080fd5b8335611358816112f9565b92506020840135611368816112f9565b929592945050506040919091013590565b60006020828403121561138b57600080fd5b5035919050565b600080602083850312156113a557600080fd5b823567ffffffffffffffff808211156113bd57600080fd5b818501915085601f8301126113d157600080fd5b8135818111156113e057600080fd5b8660208260051b85010111156113f557600080fd5b60209290920196919550909350505050565b6000806040838503121561141a57600080fd5b8235611425816112f9565b91506020830135611435816112f9565b809150509250929050565b60008083601f84011261145257600080fd5b50813567ffffffffffffffff81111561146a57600080fd5b602083019150836020828501011115610c6757600080fd5b6000806020838503121561149557600080fd5b823567ffffffffffffffff8111156114ac57600080fd5b6114b885828601611440565b90969095509350505050565b60005b838110156114df5781810151838201526020016114c7565b50506000910152565b600081518084526115008160208601602086016114c4565b601f017fffffffffffffffffffffffffffffffffffffffffffffffffffffffffffffffe0169290920160200192915050565b821515815260406020820152600061115660408301846114e8565b60008060008060008060a0878903121561156657600080fd5b8635611571816112f9565b9550602087013567ffffffffffffffff81111561158d57600080fd5b61159989828a01611440565b90965094505060408701356115ad816112f9565b959894975092956060810135946080909101359350915050565b6000602082840312156115d957600080fd5b8151610f4a816112f9565b6000602082840312156115f657600080fd5b5051919050565b7f4e487b7100000000000000000000000000000000000000000000000000000000600052603260045260246000fd5b60007fffffffffffffffffffffffffffffffffffffffffffffffffffffffffffffffff8203611684577f4e487b7100000000000000000000000000000000000000000000000000000000600052601160045260246000fd5b5060010190565b6000806000606084860312156116a057600080fd5b83516116ab816112f9565b602085015160409095015190969495509392505050565b7f4e487b7100000000000000000000000000000000000000000000000000000000600052604160045260246000fd5b6000806040838503121561170457600080fd5b823561170f816112f9565b9150602083013567ffffffffffffffff8082111561172c57600080fd5b818501915085601f83011261174057600080fd5b813581811115611752576117526116c2565b604051601f82017fffffffffffffffffffffffffffffffffffffffffffffffffffffffffffffffe0908116603f01168101908382118183101715611798576117986116c2565b816040528281528860208487010111156117b157600080fd5b8260208601602083013760006020848301015280955050505050509250929050565b600082516117e58184602087016114c4565b9190910192915050565b73ffffffffffffffffffffffffffffffffffffffff8416815260406020820152816040820152818360608301376000818301606090810191909152601f9092017fffffffffffffffffffffffffffffffffffffffffffffffffffffffffffffffe016010192915050565b600073ffffffffffffffffffffffffffffffffffffffff808816835260a0602084015261188960a08401886114e8565b9516604083015250606081019290925260809091015292915050565b6000602082840312156118b757600080fd5b81518015158114610f4a57600080fd5b602081526000610f4a60208301846114e856fea2646970667358221220b9d0ac057814806ee262fcfdcb94c2405ac0510632057a8f1f22f2a70628801264736f6c63430008110033",
  "devdoc": {
    "kind": "dev",
    "methods": {
      "addKnownCallers(address[])": {
        "details": "Only callable by owner",
        "params": {
          "_callers": "array of addresses that should be added to known callers"
        }
      },
      "anyCall(address,bytes,address,uint256,uint256)": {
        "details": "Only callable by known callers. Fee flags should be set to 2 in most if not all use cases involing this contract.",
        "params": {
          "_data": "calldata with function signature to use",
          "_fallback": "address of the fallback contract to use if the call fails",
          "_flags": "flags for determining on which network should caller pay the fee (0 = desitnation chain, 2 = origin chain)",
          "_to": "address to call",
          "_toChainId": "chainId to send the call to"
        }
      },
      "anyExecute(bytes)": {
        "details": "Only callable anyCallExecutor, the executor contract of anyCallV6",
        "params": {
          "toAndData": "abi encoded target address and function calldata to execute"
        },
        "returns": {
          "_0": "boolean indicating success of the call",
          "_1": "bytes any data returned from the call"
        }
      },
      "constructor": {
        "details": "Doesn't do anything except to set isInitialized = true via initializer"
      },
      "initialize(address,address)": {
        "details": "This needs to be called on proxies of this contract",
        "params": {
          "_anyCallContract": "address of the anyCallV6 contract",
          "_owner": "address that will be the owner of this contract"
        }
      },
      "owner()": {
        "details": "Returns the address of the current owner."
      },
      "removeKnownCallers(address[])": {
        "details": "Only callable by owner"
      },
      "renounceOwnership()": {
        "details": "Leaves the contract without owner. It will not be possible to call `onlyOwner` functions anymore. Can only be called by the current owner. NOTE: Renouncing ownership will leave the contract without an owner, thereby removing any functionality that is only available to the owner."
      },
      "rescue(address,address,uint256)": {
        "details": "Only callable by owner",
        "params": {
          "balance": "amount of tokens to rescue",
          "to": "address to send the tokens to",
          "token": "address of the ERC20 token to rescue. Use zero address for ETH"
        }
      },
      "setAnyCall(address)": {
        "details": "Only callable by owner",
        "params": {
          "_anyCallContract": "address of the AnyCallV6 contract"
        }
      },
      "transferOwnership(address)": {
        "details": "Transfers ownership of the contract to a new account (`newOwner`). Can only be called by the current owner."
      },
      "withdraw(uint256)": {
        "details": "Only callable by owner",
        "params": {
          "_amount": "amount of ETH to withdraw"
        }
      }
    },
    "title": "AnyCallTranslator also know as the AnyCallProxy",
    "version": 1
  },
  "userdoc": {
    "kind": "user",
    "methods": {
      "addKnownCallers(address[])": {
        "notice": "Adds addresses to known caller array"
      },
      "anyCall(address,bytes,address,uint256,uint256)": {
        "notice": "Send a cross chain call via anyCallV6"
      },
      "anyExecute(bytes)": {
        "notice": "Receive a cross chain call via anyCallV6 and execute a call on this network"
      },
      "constructor": {
        "notice": "AnyCallTranslator constructor"
      },
      "initialize(address,address)": {
        "notice": "Initialize the AnyCallTranslator contract for proxies"
      },
      "removeKnownCallers(address[])": {
        "notice": "Removes addresses from known caller array"
      },
      "rescue(address,address,uint256)": {
        "notice": "Rescue any ERC20 tokens that are stuck in this contract"
      },
      "setAnyCall(address)": {
        "notice": "Set the AnyCall contract address"
      },
      "withdraw(uint256)": {
        "notice": "withdraw any ETH that was sent to AnyCall contract"
      }
    },
    "notice": "AnyCallTranslator is responsible for translating messages for AnyCallV6",
    "version": 1
  },
  "storageLayout": {
    "storage": [
      {
        "astId": 6411,
        "contract": "contracts/xchainGauges/AnyCallTranslator.sol:AnyCallTranslator",
        "label": "_initialized",
        "offset": 0,
        "slot": "0",
        "type": "t_uint8"
      },
      {
        "astId": 6414,
        "contract": "contracts/xchainGauges/AnyCallTranslator.sol:AnyCallTranslator",
        "label": "_initializing",
        "offset": 1,
        "slot": "0",
        "type": "t_bool"
      },
      {
        "astId": 6839,
        "contract": "contracts/xchainGauges/AnyCallTranslator.sol:AnyCallTranslator",
        "label": "__gap",
        "offset": 0,
        "slot": "1",
        "type": "t_array(t_uint256)50_storage"
      },
      {
        "astId": 6283,
        "contract": "contracts/xchainGauges/AnyCallTranslator.sol:AnyCallTranslator",
        "label": "_owner",
        "offset": 0,
        "slot": "51",
        "type": "t_address"
      },
      {
        "astId": 6403,
        "contract": "contracts/xchainGauges/AnyCallTranslator.sol:AnyCallTranslator",
        "label": "__gap",
        "offset": 0,
        "slot": "52",
        "type": "t_array(t_uint256)49_storage"
      },
      {
        "astId": 8292,
        "contract": "contracts/xchainGauges/AnyCallTranslator.sol:AnyCallTranslator",
        "label": "anyCallContract",
        "offset": 0,
        "slot": "101",
        "type": "t_address"
      },
      {
        "astId": 8294,
        "contract": "contracts/xchainGauges/AnyCallTranslator.sol:AnyCallTranslator",
        "label": "anyCallExecutor",
        "offset": 0,
        "slot": "102",
        "type": "t_address"
      },
      {
        "astId": 8298,
        "contract": "contracts/xchainGauges/AnyCallTranslator.sol:AnyCallTranslator",
        "label": "isKnownCaller",
        "offset": 0,
        "slot": "103",
        "type": "t_mapping(t_address,t_bool)"
      }
    ],
    "types": {
      "t_address": {
        "encoding": "inplace",
        "label": "address",
        "numberOfBytes": "20"
      },
      "t_array(t_uint256)49_storage": {
        "base": "t_uint256",
        "encoding": "inplace",
        "label": "uint256[49]",
        "numberOfBytes": "1568"
      },
      "t_array(t_uint256)50_storage": {
        "base": "t_uint256",
        "encoding": "inplace",
        "label": "uint256[50]",
        "numberOfBytes": "1600"
      },
      "t_bool": {
        "encoding": "inplace",
        "label": "bool",
        "numberOfBytes": "1"
      },
      "t_mapping(t_address,t_bool)": {
        "encoding": "mapping",
        "key": "t_address",
        "label": "mapping(address => bool)",
        "numberOfBytes": "32",
        "value": "t_bool"
      },
      "t_uint256": {
        "encoding": "inplace",
        "label": "uint256",
        "numberOfBytes": "32"
      },
      "t_uint8": {
        "encoding": "inplace",
        "label": "uint8",
        "numberOfBytes": "1"
      }
    }
  }
}