{
  "address": "0x19a5Ec09eE74f64573ac53f48A48616CE943C047",
  "abi": [
    {
      "name": "DeployedGauge",
      "inputs": [
        {
          "name": "_implementation",
          "type": "address",
          "indexed": true
        },
        {
          "name": "_lp_token",
          "type": "address",
          "indexed": true
        },
        {
          "name": "_deployer",
          "type": "address",
          "indexed": true
        },
        {
          "name": "_salt",
          "type": "bytes32",
          "indexed": false
        },
        {
          "name": "_gauge",
          "type": "address",
          "indexed": false
        },
        {
          "name": "_name",
          "type": "string",
          "indexed": false
        }
      ],
      "anonymous": false,
      "type": "event"
    },
    {
      "name": "Minted",
      "inputs": [
        {
          "name": "_user",
          "type": "address",
          "indexed": true
        },
        {
          "name": "_gauge",
          "type": "address",
          "indexed": true
        },
        {
          "name": "_new_total",
          "type": "uint256",
          "indexed": false
        }
      ],
      "anonymous": false,
      "type": "event"
    },
    {
      "name": "UpdateImplementation",
      "inputs": [
        {
          "name": "_old_implementation",
          "type": "address",
          "indexed": false
        },
        {
          "name": "_new_implementation",
          "type": "address",
          "indexed": false
        }
      ],
      "anonymous": false,
      "type": "event"
    },
    {
      "name": "UpdateVotingEscrow",
      "inputs": [
        {
          "name": "_old_voting_escrow",
          "type": "address",
          "indexed": false
        },
        {
          "name": "_new_voting_escrow",
          "type": "address",
          "indexed": false
        }
      ],
      "anonymous": false,
      "type": "event"
    },
    {
      "name": "UpdateCallProxy",
      "inputs": [
        {
          "name": "_old_call_proxy",
          "type": "address",
          "indexed": false
        },
        {
          "name": "_new_call_proxy",
          "type": "address",
          "indexed": false
        }
      ],
      "anonymous": false,
      "type": "event"
    },
    {
      "name": "UpdateMirrored",
      "inputs": [
        {
          "name": "_gauge",
          "type": "address",
          "indexed": true
        },
        {
          "name": "_mirrored",
          "type": "bool",
          "indexed": false
        }
      ],
      "anonymous": false,
      "type": "event"
    },
    {
      "name": "TransferOwnership",
      "inputs": [
        {
          "name": "_old_owner",
          "type": "address",
          "indexed": false
        },
        {
          "name": "_new_owner",
          "type": "address",
          "indexed": false
        }
      ],
      "anonymous": false,
      "type": "event"
    },
    {
      "stateMutability": "nonpayable",
      "type": "constructor",
      "inputs": [
        {
          "name": "_call_proxy",
          "type": "address"
        },
        {
          "name": "_sdl",
          "type": "address"
        },
        {
          "name": "_owner",
          "type": "address"
        }
      ],
      "outputs": []
    },
    {
      "stateMutability": "nonpayable",
      "type": "function",
      "name": "mint",
      "inputs": [
        {
          "name": "_gauge",
          "type": "address"
        }
      ],
      "outputs": []
    },
    {
      "stateMutability": "nonpayable",
      "type": "function",
      "name": "mint_many",
      "inputs": [
        {
          "name": "_gauges",
          "type": "address[32]"
        }
      ],
      "outputs": []
    },
    {
      "stateMutability": "nonpayable",
      "type": "function",
      "name": "deploy_gauge",
      "inputs": [
        {
          "name": "_lp_token",
          "type": "address"
        },
        {
          "name": "_salt",
          "type": "bytes32"
        },
        {
          "name": "_name",
          "type": "string"
        }
      ],
      "outputs": [
        {
          "name": "",
          "type": "address"
        }
      ]
    },
    {
      "stateMutability": "nonpayable",
      "type": "function",
      "name": "deploy_gauge",
      "inputs": [
        {
          "name": "_lp_token",
          "type": "address"
        },
        {
          "name": "_salt",
          "type": "bytes32"
        },
        {
          "name": "_name",
          "type": "string"
        },
        {
          "name": "_manager",
          "type": "address"
        }
      ],
      "outputs": [
        {
          "name": "",
          "type": "address"
        }
      ]
    },
    {
      "stateMutability": "nonpayable",
      "type": "function",
      "name": "set_voting_escrow",
      "inputs": [
        {
          "name": "_voting_escrow",
          "type": "address"
        }
      ],
      "outputs": []
    },
    {
      "stateMutability": "nonpayable",
      "type": "function",
      "name": "set_implementation",
      "inputs": [
        {
          "name": "_implementation",
          "type": "address"
        }
      ],
      "outputs": []
    },
    {
      "stateMutability": "nonpayable",
      "type": "function",
      "name": "set_mirrored",
      "inputs": [
        {
          "name": "_gauge",
          "type": "address"
        },
        {
          "name": "_mirrored",
          "type": "bool"
        }
      ],
      "outputs": []
    },
    {
      "stateMutability": "nonpayable",
      "type": "function",
      "name": "set_call_proxy",
      "inputs": [
        {
          "name": "_new_call_proxy",
          "type": "address"
        }
      ],
      "outputs": []
    },
    {
      "stateMutability": "nonpayable",
      "type": "function",
      "name": "commit_transfer_ownership",
      "inputs": [
        {
          "name": "_future_owner",
          "type": "address"
        }
      ],
      "outputs": []
    },
    {
      "stateMutability": "nonpayable",
      "type": "function",
      "name": "accept_transfer_ownership",
      "inputs": [],
      "outputs": []
    },
    {
      "stateMutability": "view",
      "type": "function",
      "name": "is_valid_gauge",
      "inputs": [
        {
          "name": "_gauge",
          "type": "address"
        }
      ],
      "outputs": [
        {
          "name": "",
          "type": "bool"
        }
      ]
    },
    {
      "stateMutability": "view",
      "type": "function",
      "name": "is_mirrored",
      "inputs": [
        {
          "name": "_gauge",
          "type": "address"
        }
      ],
      "outputs": [
        {
          "name": "",
          "type": "bool"
        }
      ]
    },
    {
      "stateMutability": "view",
      "type": "function",
      "name": "last_request",
      "inputs": [
        {
          "name": "_gauge",
          "type": "address"
        }
      ],
      "outputs": [
        {
          "name": "",
          "type": "uint256"
        }
      ]
    },
    {
      "stateMutability": "view",
      "type": "function",
      "name": "get_implementation",
      "inputs": [],
      "outputs": [
        {
          "name": "",
          "type": "address"
        }
      ]
    },
    {
      "stateMutability": "view",
      "type": "function",
      "name": "voting_escrow",
      "inputs": [],
      "outputs": [
        {
          "name": "",
          "type": "address"
        }
      ]
    },
    {
      "stateMutability": "view",
      "type": "function",
      "name": "owner",
      "inputs": [],
      "outputs": [
        {
          "name": "",
          "type": "address"
        }
      ]
    },
    {
      "stateMutability": "view",
      "type": "function",
      "name": "future_owner",
      "inputs": [],
      "outputs": [
        {
          "name": "",
          "type": "address"
        }
      ]
    },
    {
      "stateMutability": "view",
      "type": "function",
      "name": "call_proxy",
      "inputs": [],
      "outputs": [
        {
          "name": "",
          "type": "address"
        }
      ]
    },
    {
      "stateMutability": "view",
      "type": "function",
      "name": "gauge_data",
      "inputs": [
        {
          "name": "arg0",
          "type": "address"
        }
      ],
      "outputs": [
        {
          "name": "",
          "type": "uint256"
        }
      ]
    },
    {
      "stateMutability": "view",
      "type": "function",
      "name": "minted",
      "inputs": [
        {
          "name": "arg0",
          "type": "address"
        },
        {
          "name": "arg1",
          "type": "address"
        }
      ],
      "outputs": [
        {
          "name": "",
          "type": "uint256"
        }
      ]
    },
    {
      "stateMutability": "view",
      "type": "function",
      "name": "get_gauge_from_lp_token",
      "inputs": [
        {
          "name": "arg0",
          "type": "address"
        }
      ],
      "outputs": [
        {
          "name": "",
          "type": "address"
        }
      ]
    },
    {
      "stateMutability": "view",
      "type": "function",
      "name": "get_gauge_count",
      "inputs": [],
      "outputs": [
        {
          "name": "",
          "type": "uint256"
        }
      ]
    },
    {
      "stateMutability": "view",
      "type": "function",
      "name": "get_gauge",
      "inputs": [
        {
          "name": "arg0",
          "type": "uint256"
        }
      ],
      "outputs": [
        {
          "name": "",
          "type": "address"
        }
      ]
    }
  ],
  "transactionHash": "0x8fa1f432a1ce303761834c11c2483ff1ecbbc2c9496a8d882d31738ae38eea0d",
  "args": [
    "0x0000000000000000000000000000000000000000",
    "0x75c9bc761d88f70156daf83aa010e84680baf131",
    "0x5BDb37d0Ddea3A90F233c7B7F6b9394B6b2eef34"
  ],
  "numDeployments": 1,
  "bytecode": "0x6020610ff26080396080518060a01c610fed5760e05260206020610ff2016080396080518060a01c610fed576101005260206040610ff2016080396080518060a01c610fed5761012052610100516101405260e0516005557fe385116766307e81d4427b03f1ac50c300b2f6a5df7b3c67eeb7eaaab12f080560006101605260e051610180526040610160a1610120516003557f5c486528ec3e3f0ea91181cff8116f02bfa350e03b8b6f12e00765adbb5af85c60006101605261012051610180526040610160a1610fc556600436101561000d57610bd2565b60046000601c3760005134610ef457636a627842811861005d576004358060a01c610ef4576102c052600054610ef45760016000556102c05160e0523361010052610056610bd8565b6000600055005b6355ec670881186102cf576004358060a01c610ef4576102c0526024358060a01c610ef4576102e0526044358060a01c610ef457610300526064358060a01c610ef457610320526084358060a01c610ef4576103405260a4358060a01c610ef4576103605260c4358060a01c610ef4576103805260e4358060a01c610ef4576103a052610104358060a01c610ef4576103c052610124358060a01c610ef4576103e052610144358060a01c610ef45761040052610164358060a01c610ef45761042052610184358060a01c610ef457610440526101a4358060a01c610ef457610460526101c4358060a01c610ef457610480526101e4358060a01c610ef4576104a052610204358060a01c610ef4576104c052610224358060a01c610ef4576104e052610244358060a01c610ef45761050052610264358060a01c610ef45761052052610284358060a01c610ef457610540526102a4358060a01c610ef457610560526102c4358060a01c610ef457610580526102e4358060a01c610ef4576105a052610304358060a01c610ef4576105c052610324358060a01c610ef4576105e052610344358060a01c610ef45761060052610364358060a01c610ef45761062052610384358060a01c610ef457610640526103a4358060a01c610ef457610660526103c4358060a01c610ef457610680526103e4358060a01c610ef4576106a052600054610ef45760016000556106c060006020818352015b6102c06106c0516020811015610ef4576020020151610292575b6102c06106c0516020811015610ef457602002015160e05233610100526102b7610bd8565b81516001018083528114156102785750506000600055005b6386fa910681186102e45733610140526102ff565b634f1604708118610736576064358060a01c610ef457610140525b6004358060a01c610ef45760e0526044356004016020813511610ef4578080356020018082610100375050506000600860e05160a0526080526040608020541461034d576003543318610ef4575b600161016052600154610180527f602d3d8160093d39f3363d3d373d3d3d363d73000000000000000000000000006102c0526101805160601b6102d3527f5af43d82803e903d91602b57fd5bf300000000000000000000000000000000006102e752466102605233610280526024356102a05260606102405261024080516020820120905060366102c06000f56101a052600554331861056d57610160805160028181830110610ef457808201905090508152506101a0517f54b0a41dd85251df77437effbf9fbdca133bd234e7771816495877177288092c60016101c05260206101c0a263bd45c4e76102a0526102c08060a03082526020820191508082526372a733fc6101c45260046101e480606046825260208201915060243582526020820191508082528083018061010080516020018083828460045afa905050508051806020830101818260206001820306601f8201039050033682375050805160200160206001820306601f8201039050905090508101905090509050016101c0526101c0818401808280516020018083828460045afa905050508051806020830101818260206001820306601f8201039050033682375050805160200160206001820306601f8201039050905090509050810190506020820191506000825260208201915060018252602082019150600082525050506005543b15610ef457600060006101846102bc60006005545af161056d573d600060003e3d6000fd5b6101605160066101a05160a0526080526040608020556009546101c0526101a05160016101c0516f7fffffffffffffffffffffffffffffff811015610ef45702600a01556101c05160018181830110610ef457808201905090506009556101a051600860e05160a052608052604060802055634571e3a66101e05261020080606060e05182526020820191506101405182526020820191508082528083018061010080516020018083828460045afa905050508051806020830101818260206001820306601f8201039050033682375050805160200160206001820306601f8201039050905090508101505050506101a0513b15610ef4576000600060a46101fc60006101a0515af1610685573d600060003e3d6000fd5b3360e051610180517fc8034948ac3f522fadff1a71b390948ea6d5c2014b42d370fb260f66fdca20806101e080606060243582526020820191506101a05182526020820191508082528083018061010080516020018083828460045afa905050508051806020830101818260206001820306601f8201039050033682375050805160200160206001820306601f82010390509050905081019050905090506101e0a46101a0516101e05260206101e0f35b6323fc5a478118610795576004358060a01c610ef45760e0526003543318610ef4577fa1b167642dcf1fee2fbf716c48c7c3f2326e4f26020cb042cd6405dfa72f4fd26002546101005260e051610120526040610100a160e051600255005b634cd69da081186107f4576004358060a01c610ef45760e0526003543318610ef4577fcdfeee65e4d0a88d6e47c5d034c34b03d52f1e6ffc56906257fc93d993ca04c46001546101005260e051610120526040610100a160e051600155005b634b29cac881186108d2576004358060a01c610ef45760e0526024358060011c610ef45761010052600660e05160a0526080526040608020546101205260006101205114610ef4576003543318610ef4576101205160021c60021b60018181830110610ef4578082019050905061012052610100511561088957610120805160028181830110610ef457808201905090508152505b61012051600660e05160a05260805260406080205560e0517f54b0a41dd85251df77437effbf9fbdca133bd234e7771816495877177288092c61010051610140526020610140a2005b635ecb9e148118610931576004358060a01c610ef45760e0526003543318610ef4577fe385116766307e81d4427b03f1ac50c300b2f6a5df7b3c67eeb7eaaab12f08056005546101005260e051610120526040610100a160e051600555005b636b441a40811861095b576004358060a01c610ef45760e0526003543318610ef45760e051600455005b63e5ea47b881186109a6576004543318610ef4577f5c486528ec3e3f0ea91181cff8116f02bfa350e03b8b6f12e00765adbb5af85c60035460e0523361010052604060e0a133600355005b634b92037981186109df576004358060a01c610ef45760e0526000600660e05160a0526080526040608020541415610100526020610100f35b638a42bd828118610a1b576004358060a01c610ef45760e05260006002600660e05160a052608052604060802054161415610100526020610100f35b6351bd4db58118610a53576004358060a01c610ef45760e052600660e05160a05260805260406080205460021c610100526020610100f35b63c781c6688118610a6a5760015460e052602060e0f35b63dfe050318118610a815760025460e052602060e0f35b638da5cb5b8118610a985760035460e052602060e0f35b631ec0cdc18118610aaf5760045460e052602060e0f35b63f81c6c3e8118610ac65760055460e052602060e0f35b63f0ce32f88118610afb576004358060a01c610ef45760e052600660e05160a052608052604060802054610100526020610100f35b638b752bb08118610b4e576004358060a01c610ef45760e0526024358060a01c610ef45761010052600760e05160a05260805260406080206101005160a052608052604060802054610120526020610120f35b635d95c65e8118610b83576004358060a01c610ef45760e052600860e05160a052608052604060802054610100526020610100f35b63f111569c8118610b9a5760095460e052602060e0f35b63285218488118610bd05760016004356f7fffffffffffffffffffffffffffffff811015610ef45702600a015460e052602060e0f35b505b60006000fd5b600660e05160a0526080526040608020546101205260006101205114610ef4576000600261012051161415610c0e576000610c2f565b4262093a80808204905090506101205160021c62093a808082049050905014155b15610d2e5763bd45c4e76101a0526101c08060a03082526020820191508082526311bfb95661014452600460e0516101645260200161014052610140818401808280516020018083828460045afa905050508051806020830101818260206001820306601f8201039050033682375050805160200160206001820306601f8201039050905090509050810190506020820191506000825260208201915060018252602082019150600082525050506005543b15610ef457600060006101046101bc60006005545af1610d06573d600060003e3d6000fd5b4260021b60038181830110610ef45780820190509050600660e05160a0526080526040608020555b634b8200936101405261010051610160526020610140602461015c600060e0515af1610d5f573d600060003e3d6000fd5b601f3d1115610ef4576101405115610ef45763094007076101605261010051610180526020610160602461017c60e0515afa610da0573d600060003e3d6000fd5b601f3d1115610ef45761016051610140526101405160076101005160a052608052604060802060e05160a052608052604060802054808210610ef457808203905090506101605260006101605114610ef25763a9059cbb6101c4526004610100516101e45261016051610204526040016101c0526101c05060206102606101c0516101e060006020602038036080396080515af1610e43573d600060003e3d6000fd5b61024060203d808211610e565781610e58565b805b905090508152805160200180610180828460045afa9050505060006101805114610e97576101a0516101805181816020036008021c9050905015610ef4575b6101405160076101005160a052608052604060802060e05160a05260805260406080205560e051610100517f9d228d69b5fdb8d273a2336f8fb8612d039631024ea9bf09c424a9503aa078f0610140516101c05260206101c0a35b565b600080fd5b6100cc610fc5036100cc610160396100cc610fc5036101405181610160015280602001610160f35b600080fd"
}