{
  "address": "0xF428D446670D901Ad6893fe2dbc77d42fCd20Cb2",
  "abi": [
    {
      "inputs": [
        {
          "internalType": "address",
          "name": "_gauge",
          "type": "address"
        }
      ],
      "stateMutability": "nonpayable",
      "type": "constructor"
    },
    {
      "inputs": [
        {
          "internalType": "address",
          "name": "_rewardToken",
          "type": "address"
        }
      ],
      "name": "allow",
      "outputs": [],
      "stateMutability": "nonpayable",
      "type": "function"
    },
    {
      "inputs": [
        {
          "internalType": "address",
          "name": "_rewardToken",
          "type": "address"
        }
      ],
      "name": "depositRewardToken",
      "outputs": [],
      "stateMutability": "nonpayable",
      "type": "function"
    },
    {
      "inputs": [],
      "name": "gauge",
      "outputs": [
        {
          "internalType": "address",
          "name": "",
          "type": "address"
        }
      ],
      "stateMutability": "view",
      "type": "function"
    }
  ],
  "transactionHash": "0x4127a348541866ed1f00a7c14b4e79a87469f45e995638604113ea2387717163",
  "args": [
    "0xC7ec37B1E3be755e06a729e11a76ff4259768F12"
  ],
  "numDeployments": 1,
  "solcInputHash": "60117b97a211aa66114b1af26693e462",
  "bytecode": "0x60a060405234801561001057600080fd5b5060405161094638038061094683398101604081905261002f91610040565b6001600160a01b0316608052610070565b60006020828403121561005257600080fd5b81516001600160a01b038116811461006957600080fd5b9392505050565b6080516108a861009e60003960008181605d0152818160fb01528181610215015261025701526108a86000f3fe608060405234801561001057600080fd5b50600436106100415760003560e01c806365e7752714610046578063a6f19c841461005b578063ff9913e8146100a5575b600080fd5b610059610054366004610770565b6100b8565b005b7f000000000000000000000000000000000000000000000000000000000000000060405173ffffffffffffffffffffffffffffffffffffffff909116815260200160405180910390f35b6100596100b3366004610770565b6101f9565b6040517f70a0823100000000000000000000000000000000000000000000000000000000815230600482015273ffffffffffffffffffffffffffffffffffffffff7f00000000000000000000000000000000000000000000000000000000000000008116916393f7aa67918491908216906370a0823190602401602060405180830381865afa15801561014f573d6000803e3d6000fd5b505050506040513d601f19601f8201168201806040525081019061017391906107a6565b6040517fffffffff0000000000000000000000000000000000000000000000000000000060e085901b16815273ffffffffffffffffffffffffffffffffffffffff90921660048301526024820152604401600060405180830381600087803b1580156101de57600080fd5b505af11580156101f2573d6000803e3d6000fd5b5050505050565b61023b73ffffffffffffffffffffffffffffffffffffffff82167f0000000000000000000000000000000000000000000000000000000000000000600061029f565b61029c73ffffffffffffffffffffffffffffffffffffffff82167f00000000000000000000000000000000000000000000000000000000000000007fffffffffffffffffffffffffffffffffffffffffffffffffffffffffffffffff61029f565b50565b80158061033f57506040517fdd62ed3e00000000000000000000000000000000000000000000000000000000815230600482015273ffffffffffffffffffffffffffffffffffffffff838116602483015284169063dd62ed3e90604401602060405180830381865afa158015610319573d6000803e3d6000fd5b505050506040513d601f19601f8201168201806040525081019061033d91906107a6565b155b6103d0576040517f08c379a000000000000000000000000000000000000000000000000000000000815260206004820152603660248201527f5361666545524332303a20617070726f76652066726f6d206e6f6e2d7a65726f60448201527f20746f206e6f6e2d7a65726f20616c6c6f77616e63650000000000000000000060648201526084015b60405180910390fd5b6040805173ffffffffffffffffffffffffffffffffffffffff8416602482015260448082018490528251808303909101815260649091019091526020810180517bffffffffffffffffffffffffffffffffffffffffffffffffffffffff167f095ea7b30000000000000000000000000000000000000000000000000000000017905261045d908490610462565b505050565b60006104c4826040518060400160405280602081526020017f5361666545524332303a206c6f772d6c6576656c2063616c6c206661696c65648152508573ffffffffffffffffffffffffffffffffffffffff1661056e9092919063ffffffff16565b80519091501561045d57808060200190518101906104e291906107bf565b61045d576040517f08c379a000000000000000000000000000000000000000000000000000000000815260206004820152602a60248201527f5361666545524332303a204552433230206f7065726174696f6e20646964206e60448201527f6f7420737563636565640000000000000000000000000000000000000000000060648201526084016103c7565b606061057d8484600085610587565b90505b9392505050565b606082471015610619576040517f08c379a000000000000000000000000000000000000000000000000000000000815260206004820152602660248201527f416464726573733a20696e73756666696369656e742062616c616e636520666f60448201527f722063616c6c000000000000000000000000000000000000000000000000000060648201526084016103c7565b73ffffffffffffffffffffffffffffffffffffffff85163b610697576040517f08c379a000000000000000000000000000000000000000000000000000000000815260206004820152601d60248201527f416464726573733a2063616c6c20746f206e6f6e2d636f6e747261637400000060448201526064016103c7565b6000808673ffffffffffffffffffffffffffffffffffffffff1685876040516106c09190610805565b60006040518083038185875af1925050503d80600081146106fd576040519150601f19603f3d011682016040523d82523d6000602084013e610702565b606091505b509150915061071282828661071d565b979650505050505050565b6060831561072c575081610580565b82511561073c5782518084602001fd5b816040517f08c379a00000000000000000000000000000000000000000000000000000000081526004016103c79190610821565b60006020828403121561078257600080fd5b813573ffffffffffffffffffffffffffffffffffffffff8116811461058057600080fd5b6000602082840312156107b857600080fd5b5051919050565b6000602082840312156107d157600080fd5b8151801515811461058057600080fd5b60005b838110156107fc5781810151838201526020016107e4565b50506000910152565b600082516108178184602087016107e1565b9190910192915050565b60208152600082518060208401526108408160408501602087016107e1565b601f017fffffffffffffffffffffffffffffffffffffffffffffffffffffffffffffffe016919091016040019291505056fea2646970667358221220fcf9ba15358d9aaa5decf941920333afaa1ef5f3b7af726b7c688bd45b96d40464736f6c63430008110033",
  "devdoc": {
    "kind": "dev",
    "methods": {
      "allow(address)": {
        "details": "This must be called before `depositRewardToken` can be called successfully",
        "params": {
          "_rewardToken": "address of the reward token to deposit"
        }
      },
      "constructor": {
        "params": {
          "_gauge": "address of the associated gauge"
        }
      },
      "depositRewardToken(address)": {
        "details": "Upon calling this function, the reward token will be transferred from this contract to the gauge.",
        "params": {
          "_rewardToken": "address of the reward token to deposit"
        }
      },
      "gauge()": {
        "returns": {
          "_0": "gauge address"
        }
      }
    },
    "title": "RewardForwarder contract for gauges",
    "version": 1
  },
  "userdoc": {
    "kind": "user",
    "methods": {
      "allow(address)": {
        "notice": "Allow the gauge to use the reward token in this contract"
      },
      "constructor": {
        "notice": "RewardForwarder constructor. Sets the gauge address."
      },
      "depositRewardToken(address)": {
        "notice": "Deposit the reward token in this contract to the gauge"
      },
      "gauge()": {
        "notice": "Read the associated gauge address"
      }
    },
    "notice": "RewardForwarder is responsible for forwarding rewards to gauges in permissionlessly manner",
    "version": 1
  },
  "storageLayout": {
    "storage": [],
    "types": null
  }
}