{
  "address": "0x3440D335171232062e32AdeB2a4dAAC21cC6f8C2",
  "abi": [
    {
      "inputs": [
        {
          "internalType": "address",
          "name": "_rewardForwader",
          "type": "address"
        },
        {
          "internalType": "address",
          "name": "_rewardToken",
          "type": "address"
        }
      ],
      "stateMutability": "nonpayable",
      "type": "constructor"
    },
    {
      "anonymous": false,
      "inputs": [
        {
          "indexed": true,
          "internalType": "address",
          "name": "previousOwner",
          "type": "address"
        },
        {
          "indexed": true,
          "internalType": "address",
          "name": "newOwner",
          "type": "address"
        }
      ],
      "name": "OwnershipTransferred",
      "type": "event"
    },
    {
      "anonymous": false,
      "inputs": [
        {
          "indexed": false,
          "internalType": "address",
          "name": "rewardToken",
          "type": "address"
        },
        {
          "indexed": false,
          "internalType": "uint256",
          "name": "amountPerWeek",
          "type": "uint256"
        },
        {
          "indexed": false,
          "internalType": "uint256",
          "name": "numOfWeeks",
          "type": "uint256"
        }
      ],
      "name": "RewardScheduled",
      "type": "event"
    },
    {
      "inputs": [],
      "name": "amountPerWeek",
      "outputs": [
        {
          "internalType": "uint256",
          "name": "",
          "type": "uint256"
        }
      ],
      "stateMutability": "view",
      "type": "function"
    },
    {
      "inputs": [],
      "name": "cancelReward",
      "outputs": [],
      "stateMutability": "nonpayable",
      "type": "function"
    },
    {
      "inputs": [],
      "name": "lastTimestamp",
      "outputs": [
        {
          "internalType": "uint256",
          "name": "",
          "type": "uint256"
        }
      ],
      "stateMutability": "view",
      "type": "function"
    },
    {
      "inputs": [],
      "name": "numOfWeeksLeft",
      "outputs": [
        {
          "internalType": "uint256",
          "name": "",
          "type": "uint256"
        }
      ],
      "stateMutability": "view",
      "type": "function"
    },
    {
      "inputs": [],
      "name": "owner",
      "outputs": [
        {
          "internalType": "address",
          "name": "",
          "type": "address"
        }
      ],
      "stateMutability": "view",
      "type": "function"
    },
    {
      "inputs": [],
      "name": "renounceOwnership",
      "outputs": [],
      "stateMutability": "nonpayable",
      "type": "function"
    },
    {
      "inputs": [],
      "name": "rewardForwarder",
      "outputs": [
        {
          "internalType": "address",
          "name": "",
          "type": "address"
        }
      ],
      "stateMutability": "view",
      "type": "function"
    },
    {
      "inputs": [],
      "name": "rewardToken",
      "outputs": [
        {
          "internalType": "address",
          "name": "",
          "type": "address"
        }
      ],
      "stateMutability": "view",
      "type": "function"
    },
    {
      "inputs": [
        {
          "internalType": "uint256",
          "name": "_amount",
          "type": "uint256"
        },
        {
          "internalType": "uint256",
          "name": "numberOfWeeks",
          "type": "uint256"
        },
        {
          "internalType": "bool",
          "name": "shouldTriggerDeposit",
          "type": "bool"
        }
      ],
      "name": "scheduleReward",
      "outputs": [],
      "stateMutability": "nonpayable",
      "type": "function"
    },
    {
      "inputs": [
        {
          "internalType": "address",
          "name": "newOwner",
          "type": "address"
        }
      ],
      "name": "transferOwnership",
      "outputs": [],
      "stateMutability": "nonpayable",
      "type": "function"
    },
    {
      "inputs": [
        {
          "internalType": "bool",
          "name": "shouldTriggerDeposit",
          "type": "bool"
        }
      ],
      "name": "transferReward",
      "outputs": [],
      "stateMutability": "nonpayable",
      "type": "function"
    }
  ],
  "transactionHash": "0x226bf841b1d853c20faa0724bec7e93864a854844e005b47f354d70af9d50bd7",
  "args": [
    "0xF428D446670D901Ad6893fe2dbc77d42fCd20Cb2",
    "0x4CFA50B7Ce747e2D61724fcAc57f24B748FF2b2A"
  ],
  "numDeployments": 1,
  "solcInputHash": "adf1324b96c7ce843eb7823dff13f4b5",
  "bytecode": "0x60c060405234801561001057600080fd5b506040516200115e3803806200115e83398101604081905261003191610172565b61003a33610106565b600180556001600160a01b0382166100995760405162461bcd60e51b815260206004820152601d60248201527f5265776172645363686564756c65723a207a65726f206164647265737300000060448201526064015b60405180910390fd5b6001600160a01b0381166100ef5760405162461bcd60e51b815260206004820152601d60248201527f5265776172645363686564756c65723a207a65726f20616464726573730000006044820152606401610090565b6001600160a01b039182166080521660a0526101a5565b600080546001600160a01b038381166001600160a01b0319831681178455604051919092169283917f8be0079c531659141344cd1fd0a4f28419497f9722a3daafe3b4186f6b6457e09190a35050565b80516001600160a01b038116811461016d57600080fd5b919050565b6000806040838503121561018557600080fd5b61018e83610156565b915061019c60208401610156565b90509250929050565b60805160a051610f69620001f5600039600081816101b20152818161033e0152818161048b015281816108ca0152610b2301526000818161016f015281816108ed0152610b4b0152610f696000f3fe608060405234801561001057600080fd5b50600436106100c95760003560e01c8063715018a611610081578063ce72d8a71161005b578063ce72d8a714610191578063f2fde38b1461019a578063f7c618c1146101ad57600080fd5b8063715018a6146101235780638da5cb5b1461012b578063a98e929c1461016a57600080fd5b806319d8ac61116100b257806319d8ac61146100eb578063429a0481146101075780634e1bfe2a1461011057600080fd5b8063142ff844146100ce5780631594282f146100e3575b600080fd5b6100e16100dc366004610d65565b6101d4565b005b6100e16103ea565b6100f460025481565b6040519081526020015b60405180910390f35b6100f460045481565b6100e161011e366004610d9e565b61053e565b6100e16105a5565b60005473ffffffffffffffffffffffffffffffffffffffff165b60405173ffffffffffffffffffffffffffffffffffffffff90911681526020016100fe565b6101457f000000000000000000000000000000000000000000000000000000000000000081565b6100f460035481565b6100e16101a8366004610dbb565b6105b9565b6101457f000000000000000000000000000000000000000000000000000000000000000081565b6101dc610656565b6002600154036102335760405162461bcd60e51b815260206004820152601f60248201527f5265656e7472616e637947756172643a207265656e7472616e742063616c6c0060448201526064015b60405180910390fd5b6002600155600354156102ae5760405162461bcd60e51b815260206004820152602960248201527f5265776172645363686564756c65723a2072657761726420616c72656164792060448201527f7363686564756c65640000000000000000000000000000000000000000000000606482015260840161022a565b60006102ba8385610df1565b9050600081116103325760405162461bcd60e51b815260206004820152602160248201527f5265776172645363686564756c65723a20616d6f756e7420746f6f20736d616c60448201527f6c00000000000000000000000000000000000000000000000000000000000000606482015260840161022a565b600383905560048190557f000000000000000000000000000000000000000000000000000000000000000061037f73ffffffffffffffffffffffffffffffffffffffff82163330886106bd565b6040805173ffffffffffffffffffffffffffffffffffffffff83168152602081018490529081018590527f60b979c35e42a821b0b2a0c01848dfba15a7ba16bf06506e7d96012ad697d26f9060600160405180910390a16103df8361079f565b505060018055505050565b6103f2610656565b6002600154036104445760405162461bcd60e51b815260206004820152601f60248201527f5265656e7472616e637947756172643a207265656e7472616e742063616c6c00604482015260640161022a565b60026001819055600060038190556004818155918190556040517f70a0823100000000000000000000000000000000000000000000000000000000815230928101929092527f00000000000000000000000000000000000000000000000000000000000000009173ffffffffffffffffffffffffffffffffffffffff8316906370a0823190602401602060405180830381865afa1580156104e9573d6000803e3d6000fd5b505050506040513d601f19601f8201168201806040525081019061050d9190610e2c565b905080156105365761053673ffffffffffffffffffffffffffffffffffffffff83163383610924565b505060018055565b6002600154036105905760405162461bcd60e51b815260206004820152601f60248201527f5265656e7472616e637947756172643a207265656e7472616e742063616c6c00604482015260640161022a565b600260015561059e8161079f565b5060018055565b6105ad610656565b6105b7600061097f565b565b6105c1610656565b73ffffffffffffffffffffffffffffffffffffffff811661064a5760405162461bcd60e51b815260206004820152602660248201527f4f776e61626c653a206e6577206f776e657220697320746865207a65726f206160448201527f6464726573730000000000000000000000000000000000000000000000000000606482015260840161022a565b6106538161097f565b50565b60005473ffffffffffffffffffffffffffffffffffffffff1633146105b75760405162461bcd60e51b815260206004820181905260248201527f4f776e61626c653a2063616c6c6572206973206e6f7420746865206f776e6572604482015260640161022a565b60405173ffffffffffffffffffffffffffffffffffffffff808516602483015283166044820152606481018290526107999085907f23b872dd00000000000000000000000000000000000000000000000000000000906084015b604080517fffffffffffffffffffffffffffffffffffffffffffffffffffffffffffffffe08184030181529190526020810180517bffffffffffffffffffffffffffffffffffffffffffffffffffffffff167fffffffff00000000000000000000000000000000000000000000000000000000909316929092179091526109f4565b50505050565b600354806108145760405162461bcd60e51b8152602060048201526024808201527f5265776172645363686564756c65723a206e6f2072657761726420736368656460448201527f756c656400000000000000000000000000000000000000000000000000000000606482015260840161022a565b62093a80600254426108269190610e45565b101561089a5760405162461bcd60e51b815260206004820152602b60248201527f5265776172645363686564756c65723a206e6f7420656e6f7567682074696d6560448201527f2068617320706173736564000000000000000000000000000000000000000000606482015260840161022a565b6108a5600182610e45565b600355426002556004546109129073ffffffffffffffffffffffffffffffffffffffff7f000000000000000000000000000000000000000000000000000000000000000016907f000000000000000000000000000000000000000000000000000000000000000090610924565b811561092057610920610ae6565b5050565b60405173ffffffffffffffffffffffffffffffffffffffff831660248201526044810182905261097a9084907fa9059cbb0000000000000000000000000000000000000000000000000000000090606401610717565b505050565b6000805473ffffffffffffffffffffffffffffffffffffffff8381167fffffffffffffffffffffffff0000000000000000000000000000000000000000831681178455604051919092169283917f8be0079c531659141344cd1fd0a4f28419497f9722a3daafe3b4186f6b6457e09190a35050565b6000610a56826040518060400160405280602081526020017f5361666545524332303a206c6f772d6c6576656c2063616c6c206661696c65648152508573ffffffffffffffffffffffffffffffffffffffff16610ba39092919063ffffffff16565b80519091501561097a5780806020019051810190610a749190610e85565b61097a5760405162461bcd60e51b815260206004820152602a60248201527f5361666545524332303a204552433230206f7065726174696f6e20646964206e60448201527f6f74207375636365656400000000000000000000000000000000000000000000606482015260840161022a565b6040517f65e7752700000000000000000000000000000000000000000000000000000000815273ffffffffffffffffffffffffffffffffffffffff7f0000000000000000000000000000000000000000000000000000000000000000811660048301527f000000000000000000000000000000000000000000000000000000000000000016906365e7752790602401600060405180830381600087803b158015610b8f57600080fd5b505af1158015610799573d6000803e3d6000fd5b6060610bb28484600085610bbc565b90505b9392505050565b606082471015610c345760405162461bcd60e51b815260206004820152602660248201527f416464726573733a20696e73756666696369656e742062616c616e636520666f60448201527f722063616c6c0000000000000000000000000000000000000000000000000000606482015260840161022a565b73ffffffffffffffffffffffffffffffffffffffff85163b610c985760405162461bcd60e51b815260206004820152601d60248201527f416464726573733a2063616c6c20746f206e6f6e2d636f6e7472616374000000604482015260640161022a565b6000808673ffffffffffffffffffffffffffffffffffffffff168587604051610cc19190610ec6565b60006040518083038185875af1925050503d8060008114610cfe576040519150601f19603f3d011682016040523d82523d6000602084013e610d03565b606091505b5091509150610d13828286610d1e565b979650505050505050565b60608315610d2d575081610bb5565b825115610d3d5782518084602001fd5b8160405162461bcd60e51b815260040161022a9190610ee2565b801515811461065357600080fd5b600080600060608486031215610d7a57600080fd5b83359250602084013591506040840135610d9381610d57565b809150509250925092565b600060208284031215610db057600080fd5b8135610bb581610d57565b600060208284031215610dcd57600080fd5b813573ffffffffffffffffffffffffffffffffffffffff81168114610bb557600080fd5b600082610e27577f4e487b7100000000000000000000000000000000000000000000000000000000600052601260045260246000fd5b500490565b600060208284031215610e3e57600080fd5b5051919050565b81810381811115610e7f577f4e487b7100000000000000000000000000000000000000000000000000000000600052601160045260246000fd5b92915050565b600060208284031215610e9757600080fd5b8151610bb581610d57565b60005b83811015610ebd578181015183820152602001610ea5565b50506000910152565b60008251610ed8818460208701610ea2565b9190910192915050565b6020815260008251806020840152610f01816040850160208701610ea2565b601f017fffffffffffffffffffffffffffffffffffffffffffffffffffffffffffffffe016919091016040019291505056fea26469706673582212202cf1e29f7c1070b960a050f441c2e1b382f6ec32cfdd0e94f86ddc80485cf66164736f6c63430008110033",
  "devdoc": {
    "events": {
      "RewardScheduled(address,uint256,uint256)": {
        "params": {
          "amountPerWeek": "amount of reward tokens to be distributed per week",
          "numOfWeeks": "number of weeks the reward is scheduled for",
          "rewardToken": "address of the reward token"
        }
      }
    },
    "kind": "dev",
    "methods": {
      "cancelReward()": {
        "details": "This function can only be called by the ownerThis function will transfer the remaining reward tokens back to the owner"
      },
      "constructor": {
        "params": {
          "_rewardForwader": "address of the reward forwarder contract"
        }
      },
      "owner()": {
        "details": "Returns the address of the current owner."
      },
      "renounceOwnership()": {
        "details": "Leaves the contract without owner. It will not be possible to call `onlyOwner` functions anymore. Can only be called by the current owner. NOTE: Renouncing ownership will leave the contract without an owner, thereby removing any functionality that is only available to the owner."
      },
      "scheduleReward(uint256,uint256,bool)": {
        "details": "This function will transfer the reward tokens from the caller to this contractThis function can only be called by the owner",
        "params": {
          "_amount": "amount of reward tokens to schedule",
          "numberOfWeeks": "number of weeks to schedule the reward for",
          "shouldTriggerDeposit": "whether to trigger the depositRewardToken function on the reward forwarder"
        }
      },
      "transferOwnership(address)": {
        "details": "Transfers ownership of the contract to a new account (`newOwner`). Can only be called by the current owner."
      },
      "transferReward(bool)": {
        "details": "This function can be called by anyone",
        "params": {
          "shouldTriggerDeposit": "whether to trigger the depositRewardToken function on the reward forwarder If set to true, rewards will start immediately. If set to false, rewards will start whenever depositRewardToken is called on the reward forwarder"
        }
      }
    },
    "version": 1
  },
  "userdoc": {
    "events": {
      "RewardScheduled(address,uint256,uint256)": {
        "notice": "Emitted when a reward is scheduled"
      }
    },
    "kind": "user",
    "methods": {
      "cancelReward()": {
        "notice": "Cancel any scheduled reward"
      },
      "constructor": {
        "notice": "RewardScheduler constructor"
      },
      "scheduleReward(uint256,uint256,bool)": {
        "notice": "Schedule a reward for N weeks"
      },
      "transferReward(bool)": {
        "notice": "Transfer the reward to the reward forwarder. Reward must be scheduled first or this function will revert. Can only be called weekly."
      }
    },
    "version": 1
  },
  "storageLayout": {
    "storage": [
      {
        "astId": 7,
        "contract": "contracts/rewards/RewardScheduler.sol:RewardScheduler",
        "label": "_owner",
        "offset": 0,
        "slot": "0",
        "type": "t_address"
      },
      {
        "astId": 123,
        "contract": "contracts/rewards/RewardScheduler.sol:RewardScheduler",
        "label": "_status",
        "offset": 0,
        "slot": "1",
        "type": "t_uint256"
      },
      {
        "astId": 881,
        "contract": "contracts/rewards/RewardScheduler.sol:RewardScheduler",
        "label": "lastTimestamp",
        "offset": 0,
        "slot": "2",
        "type": "t_uint256"
      },
      {
        "astId": 883,
        "contract": "contracts/rewards/RewardScheduler.sol:RewardScheduler",
        "label": "numOfWeeksLeft",
        "offset": 0,
        "slot": "3",
        "type": "t_uint256"
      },
      {
        "astId": 885,
        "contract": "contracts/rewards/RewardScheduler.sol:RewardScheduler",
        "label": "amountPerWeek",
        "offset": 0,
        "slot": "4",
        "type": "t_uint256"
      }
    ],
    "types": {
      "t_address": {
        "encoding": "inplace",
        "label": "address",
        "numberOfBytes": "20"
      },
      "t_uint256": {
        "encoding": "inplace",
        "label": "uint256",
        "numberOfBytes": "32"
      }
    }
  }
}