{
  "address": "0x2b7A5a5923ECa5C00c6572Cf3E8e08384F563F93",
  "abi": [
    {
      "anonymous": false,
      "inputs": [
        {
          "indexed": false,
          "internalType": "uint256",
          "name": "oldA",
          "type": "uint256"
        },
        {
          "indexed": false,
          "internalType": "uint256",
          "name": "newA",
          "type": "uint256"
        },
        {
          "indexed": false,
          "internalType": "uint256",
          "name": "initialTime",
          "type": "uint256"
        },
        {
          "indexed": false,
          "internalType": "uint256",
          "name": "futureTime",
          "type": "uint256"
        }
      ],
      "name": "RampA",
      "type": "event"
    },
    {
      "anonymous": false,
      "inputs": [
        {
          "indexed": false,
          "internalType": "uint256",
          "name": "currentA",
          "type": "uint256"
        },
        {
          "indexed": false,
          "internalType": "uint256",
          "name": "time",
          "type": "uint256"
        }
      ],
      "name": "StopRampA",
      "type": "event"
    },
    {
      "inputs": [],
      "name": "A_PRECISION",
      "outputs": [
        {
          "internalType": "uint256",
          "name": "",
          "type": "uint256"
        }
      ],
      "stateMutability": "view",
      "type": "function"
    },
    {
      "inputs": [],
      "name": "MAX_A",
      "outputs": [
        {
          "internalType": "uint256",
          "name": "",
          "type": "uint256"
        }
      ],
      "stateMutability": "view",
      "type": "function"
    }
  ],
  "transactionHash": "0xab3a97615100b953b581049261bbd1dd8ac339b72c9d2d632a8c1ee333619c82",
  "args": [],
  "numDeployments": 1,
  "solcInputHash": "c686040896eb8f6aa5a808e88bc41205",
  "bytecode": "0x61081f610026600b82828239805160001a60731461001957fe5b30600052607381538281f3fe730000000000000000000000000000000000000000301460806040526004361061007c5760003560e01c8063c9b64dcb1161005a578063c9b64dcb146100f0578063d011f9181461010d578063f14e211e146101155761007c565b8063396984151461008157806358fdd79b1461009b578063b0a14cfc146100d3575b600080fd5b61008961013f565b60408051918252519081900360200190f35b8180156100a757600080fd5b506100d1600480360360608110156100be57600080fd5b5080359060208101359060400135610146565b005b610089600480360360208110156100e957600080fd5b5035610440565b6100896004803603602081101561010657600080fd5b503561045e565b610089610469565b81801561012157600080fd5b506100d16004803603602081101561013857600080fd5b503561046e565b620f424081565b60028301546101589062015180610545565b4210156101c657604080517f08c379a000000000000000000000000000000000000000000000000000000000815260206004820152601f60248201527f57616974203120646179206265666f7265207374617274696e672072616d7000604482015290519081900360640190fd5b6101d34262127500610545565b81101561024157604080517f08c379a000000000000000000000000000000000000000000000000000000000815260206004820152601660248201527f496e73756666696369656e742072616d702074696d6500000000000000000000604482015290519081900360640190fd5b6000821180156102535750620f424082105b6102be57604080517f08c379a000000000000000000000000000000000000000000000000000000000815260206004820181905260248201527f667574757265415f206d757374206265203e203020616e64203c204d41585f41604482015290519081900360640190fd5b60006102c9846105c2565b905060006102d884606461065d565b90508181101561036057816102ee82600261065d565b101561035b57604080517f08c379a000000000000000000000000000000000000000000000000000000000815260206004820152601560248201527f667574757265415f20697320746f6f20736d616c6c0000000000000000000000604482015290519081900360640190fd5b6103d9565b61036b82600261065d565b8111156103d957604080517f08c379a000000000000000000000000000000000000000000000000000000000815260206004820152601560248201527f667574757265415f20697320746f6f206c617267650000000000000000000000604482015290519081900360640190fd5b8185556001850181905542600286018190556003860184905560408051848152602081018490528082019290925260608201859052517fa2b71ec6df949300b59aab36b55e189697b750119dd349fcfa8c0f779e83c2549181900360800190a15050505050565b60006104566064610450846105c2565b906106d0565b90505b919050565b6000610456826105c2565b606481565b428160030154116104e057604080517f08c379a000000000000000000000000000000000000000000000000000000000815260206004820152601760248201527f52616d7020697320616c72656164792073746f70706564000000000000000000604482015290519081900360640190fd5b60006104eb826105c2565b8083556001830181905542600284018190556003840181905560408051838152602081019290925280519293507f46e22fb3709ad289f62ce63d469248536dbc78d82b84a3d7e74ad606dc20193892918290030190a15050565b6000828201838110156105b957604080517f08c379a000000000000000000000000000000000000000000000000000000000815260206004820152601b60248201527f536166654d6174683a206164646974696f6e206f766572666c6f770000000000604482015290519081900360640190fd5b90505b92915050565b6003810154600182015460009190428211156106545760028401548454808311156106265761061b6106146105f78685610751565b6104506106044287610751565b61060e8887610751565b9061065d565b8290610545565b945050505050610459565b61061b61064d6106368685610751565b6104506106434287610751565b61060e8689610751565b8290610751565b91506104599050565b60008261066c575060006105bc565b8282028284828161067957fe5b04146105b9576040517f08c379a00000000000000000000000000000000000000000000000000000000081526004018080602001828103825260218152602001806107c96021913960400191505060405180910390fd5b600080821161074057604080517f08c379a000000000000000000000000000000000000000000000000000000000815260206004820152601a60248201527f536166654d6174683a206469766973696f6e206279207a65726f000000000000604482015290519081900360640190fd5b81838161074957fe5b049392505050565b6000828211156107c257604080517f08c379a000000000000000000000000000000000000000000000000000000000815260206004820152601e60248201527f536166654d6174683a207375627472616374696f6e206f766572666c6f770000604482015290519081900360640190fd5b5090039056fe536166654d6174683a206d756c7469706c69636174696f6e206f766572666c6f77a2646970667358221220eb1ede455c0b627bf295b6492706ad8b05a3a569eaa61b45dec6989f6a88ddc364736f6c634300060c0033",
  "devdoc": {
    "kind": "dev",
    "methods": {
      "getA(SwapUtils.Swap storage)": {
        "details": "See the StableSwap paper for details",
        "params": {
          "self": "Swap struct to read from"
        },
        "returns": {
          "_0": "A parameter"
        }
      },
      "getAPrecise(SwapUtils.Swap storage)": {
        "details": "See the StableSwap paper for details",
        "params": {
          "self": "Swap struct to read from"
        },
        "returns": {
          "_0": "A parameter in its raw precision form"
        }
      },
      "rampA(SwapUtils.Swap storage,uint256,uint256)": {
        "params": {
          "futureA_": "the new A to ramp towards",
          "futureTime_": "timestamp when the new A should be reached",
          "self": "Swap struct to update"
        }
      },
      "stopRampA(SwapUtils.Swap storage)": {
        "params": {
          "self": "Swap struct to update"
        }
      }
    },
    "title": "AmplificationUtils library",
    "version": 1
  },
  "userdoc": {
    "kind": "user",
    "methods": {
      "getA(SwapUtils.Swap storage)": {
        "notice": "Return A, the amplification coefficient * n * (n - 1)"
      },
      "getAPrecise(SwapUtils.Swap storage)": {
        "notice": "Return A in its raw precision"
      },
      "rampA(SwapUtils.Swap storage,uint256,uint256)": {
        "notice": "Start ramping up or down A parameter towards given futureA_ and futureTime_ Checks if the change is too rapid, and commits the new A value only when it falls under the limit range."
      },
      "stopRampA(SwapUtils.Swap storage)": {
        "notice": "Stops ramping A immediately. Once this function is called, rampA() cannot be called for another 24 hours"
      }
    },
    "notice": "A library to calculate and ramp the A parameter of a given `SwapUtils.Swap` struct. This library assumes the struct is fully validated.",
    "version": 1
  },
  "storageLayout": {
    "storage": [],
    "types": null
  }
}