{
  "address": "0x3A0c2A793a8DB779e0293699D0Ce77c77617FE0f",
  "abi": [
    {
      "inputs": [
        {
          "internalType": "address",
          "name": "admin",
          "type": "address"
        }
      ],
      "stateMutability": "nonpayable",
      "type": "constructor"
    },
    {
      "anonymous": false,
      "inputs": [
        {
          "indexed": true,
          "internalType": "bytes32",
          "name": "name",
          "type": "bytes32"
        },
        {
          "indexed": false,
          "internalType": "address",
          "name": "registryAddress",
          "type": "address"
        },
        {
          "indexed": false,
          "internalType": "uint256",
          "name": "version",
          "type": "uint256"
        }
      ],
      "name": "AddRegistry",
      "type": "event"
    },
    {
      "anonymous": false,
      "inputs": [
        {
          "indexed": true,
          "internalType": "bytes32",
          "name": "role",
          "type": "bytes32"
        },
        {
          "indexed": true,
          "internalType": "bytes32",
          "name": "previousAdminRole",
          "type": "bytes32"
        },
        {
          "indexed": true,
          "internalType": "bytes32",
          "name": "newAdminRole",
          "type": "bytes32"
        }
      ],
      "name": "RoleAdminChanged",
      "type": "event"
    },
    {
      "anonymous": false,
      "inputs": [
        {
          "indexed": true,
          "internalType": "bytes32",
          "name": "role",
          "type": "bytes32"
        },
        {
          "indexed": true,
          "internalType": "address",
          "name": "account",
          "type": "address"
        },
        {
          "indexed": true,
          "internalType": "address",
          "name": "sender",
          "type": "address"
        }
      ],
      "name": "RoleGranted",
      "type": "event"
    },
    {
      "anonymous": false,
      "inputs": [
        {
          "indexed": true,
          "internalType": "bytes32",
          "name": "role",
          "type": "bytes32"
        },
        {
          "indexed": true,
          "internalType": "address",
          "name": "account",
          "type": "address"
        },
        {
          "indexed": true,
          "internalType": "address",
          "name": "sender",
          "type": "address"
        }
      ],
      "name": "RoleRevoked",
      "type": "event"
    },
    {
      "inputs": [],
      "name": "DEFAULT_ADMIN_ROLE",
      "outputs": [
        {
          "internalType": "bytes32",
          "name": "",
          "type": "bytes32"
        }
      ],
      "stateMutability": "view",
      "type": "function"
    },
    {
      "inputs": [],
      "name": "SADDLE_MANAGER_ROLE",
      "outputs": [
        {
          "internalType": "bytes32",
          "name": "",
          "type": "bytes32"
        }
      ],
      "stateMutability": "view",
      "type": "function"
    },
    {
      "inputs": [
        {
          "internalType": "bytes32",
          "name": "registryName",
          "type": "bytes32"
        },
        {
          "internalType": "address",
          "name": "registryAddress",
          "type": "address"
        }
      ],
      "name": "addRegistry",
      "outputs": [],
      "stateMutability": "payable",
      "type": "function"
    },
    {
      "inputs": [
        {
          "internalType": "bytes[]",
          "name": "calls",
          "type": "bytes[]"
        },
        {
          "internalType": "bool",
          "name": "revertOnFail",
          "type": "bool"
        }
      ],
      "name": "batch",
      "outputs": [],
      "stateMutability": "payable",
      "type": "function"
    },
    {
      "inputs": [
        {
          "internalType": "bytes32",
          "name": "role",
          "type": "bytes32"
        }
      ],
      "name": "getRoleAdmin",
      "outputs": [
        {
          "internalType": "bytes32",
          "name": "",
          "type": "bytes32"
        }
      ],
      "stateMutability": "view",
      "type": "function"
    },
    {
      "inputs": [
        {
          "internalType": "bytes32",
          "name": "role",
          "type": "bytes32"
        },
        {
          "internalType": "uint256",
          "name": "index",
          "type": "uint256"
        }
      ],
      "name": "getRoleMember",
      "outputs": [
        {
          "internalType": "address",
          "name": "",
          "type": "address"
        }
      ],
      "stateMutability": "view",
      "type": "function"
    },
    {
      "inputs": [
        {
          "internalType": "bytes32",
          "name": "role",
          "type": "bytes32"
        }
      ],
      "name": "getRoleMemberCount",
      "outputs": [
        {
          "internalType": "uint256",
          "name": "",
          "type": "uint256"
        }
      ],
      "stateMutability": "view",
      "type": "function"
    },
    {
      "inputs": [
        {
          "internalType": "bytes32",
          "name": "role",
          "type": "bytes32"
        },
        {
          "internalType": "address",
          "name": "account",
          "type": "address"
        }
      ],
      "name": "grantRole",
      "outputs": [],
      "stateMutability": "nonpayable",
      "type": "function"
    },
    {
      "inputs": [
        {
          "internalType": "bytes32",
          "name": "role",
          "type": "bytes32"
        },
        {
          "internalType": "address",
          "name": "account",
          "type": "address"
        }
      ],
      "name": "hasRole",
      "outputs": [
        {
          "internalType": "bool",
          "name": "",
          "type": "bool"
        }
      ],
      "stateMutability": "view",
      "type": "function"
    },
    {
      "inputs": [
        {
          "internalType": "bytes32",
          "name": "role",
          "type": "bytes32"
        },
        {
          "internalType": "address",
          "name": "account",
          "type": "address"
        }
      ],
      "name": "renounceRole",
      "outputs": [],
      "stateMutability": "nonpayable",
      "type": "function"
    },
    {
      "inputs": [
        {
          "internalType": "address",
          "name": "registryAddress",
          "type": "address"
        }
      ],
      "name": "resolveAddressToRegistryData",
      "outputs": [
        {
          "internalType": "bytes32",
          "name": "name",
          "type": "bytes32"
        },
        {
          "internalType": "uint256",
          "name": "version",
          "type": "uint256"
        },
        {
          "internalType": "bool",
          "name": "isLatest",
          "type": "bool"
        }
      ],
      "stateMutability": "view",
      "type": "function"
    },
    {
      "inputs": [
        {
          "internalType": "bytes32",
          "name": "name",
          "type": "bytes32"
        },
        {
          "internalType": "uint256",
          "name": "version",
          "type": "uint256"
        }
      ],
      "name": "resolveNameAndVersionToAddress",
      "outputs": [
        {
          "internalType": "address",
          "name": "",
          "type": "address"
        }
      ],
      "stateMutability": "view",
      "type": "function"
    },
    {
      "inputs": [
        {
          "internalType": "bytes32",
          "name": "name",
          "type": "bytes32"
        }
      ],
      "name": "resolveNameToAllAddresses",
      "outputs": [
        {
          "internalType": "address[]",
          "name": "",
          "type": "address[]"
        }
      ],
      "stateMutability": "view",
      "type": "function"
    },
    {
      "inputs": [
        {
          "internalType": "bytes32",
          "name": "name",
          "type": "bytes32"
        }
      ],
      "name": "resolveNameToLatestAddress",
      "outputs": [
        {
          "internalType": "address",
          "name": "",
          "type": "address"
        }
      ],
      "stateMutability": "view",
      "type": "function"
    },
    {
      "inputs": [
        {
          "internalType": "bytes32",
          "name": "role",
          "type": "bytes32"
        },
        {
          "internalType": "address",
          "name": "account",
          "type": "address"
        }
      ],
      "name": "revokeRole",
      "outputs": [],
      "stateMutability": "nonpayable",
      "type": "function"
    }
  ],
  "transactionHash": "0x5e388d2c3d6e657ed04efb441a1a499d5a90b8f504d1d9908d16ca4f4aa66033",
  "args": [
    "0x5BDb37d0Ddea3A90F233c7B7F6b9394B6b2eef34"
  ],
  "numDeployments": 1,
  "solcInputHash": "c686040896eb8f6aa5a808e88bc41205",
  "bytecode": "0x60806040523480156200001157600080fd5b506040516200155138038062001551833981016040819052620000349162000188565b6200004160008262000074565b6200006d7fe132a6a517694e2454dc663f0d4fa738f94e7c1bd06c8950d14f9db8832494bd3362000074565b50620001b8565b62000080828262000084565b5050565b600082815260208181526040909120620000a9918390620008ba620000fd821b17901c565b156200008057620000b96200011d565b6001600160a01b0316816001600160a01b0316837f2f8788117e7eff1d82e926ec794901d17c78024a50270940304540a733656f0d60405160405180910390a45050565b600062000114836001600160a01b03841662000121565b90505b92915050565b3390565b60006200012f838362000170565b620001675750815460018181018455600084815260208082209093018490558454848252828601909352604090209190915562000117565b50600062000117565b60009081526001919091016020526040902054151590565b6000602082840312156200019a578081fd5b81516001600160a01b0381168114620001b1578182fd5b9392505050565b61138980620001c86000396000f3fe6080604052600436106100e85760003560e01c806391d148541161008a578063ca15c87311610059578063ca15c87314610285578063d2423b51146102a5578063d547741f146102b8578063f67ff842146102d8576100e8565b806391d14854146101f4578063a0fc52a314610221578063a217fddf14610241578063a67d236b14610256576100e8565b806336568abe116100c657806336568abe146101725780633705f625146101925780636d2f2246146101bf5780639010d07c146101d4576100e8565b806303aa6d38146100ed578063248a9ca3146101235780632f2ff15d14610150575b600080fd5b3480156100f957600080fd5b5061010d610108366004610d06565b6102eb565b60405161011a9190610e96565b60405180910390f35b34801561012f57600080fd5b5061014361013e366004610d06565b610390565b60405161011a9190610efb565b34801561015c57600080fd5b5061017061016b366004610d1e565b6103a5565b005b34801561017e57600080fd5b5061017061018d366004610d1e565b6103ed565b34801561019e57600080fd5b506101b26101ad366004610d06565b610449565b60405161011a9190610e4f565b3480156101cb57600080fd5b506101436104af565b3480156101e057600080fd5b506101b26101ef366004610d65565b6104d3565b34801561020057600080fd5b5061021461020f366004610d1e565b6104f4565b60405161011a9190610ef0565b34801561022d57600080fd5b506101b261023c366004610d65565b61050c565b34801561024d57600080fd5b50610143610546565b34801561026257600080fd5b50610276610271366004610c47565b61054b565b60405161011a93929190610f04565b34801561029157600080fd5b506101436102a0366004610d06565b610603565b6101706102b3366004610c82565b61061a565b3480156102c457600080fd5b506101706102d3366004610d1e565b6106dd565b6101706102e6366004610d1e565b610717565b60008181526001602052604090208054606091906103245760405162461bcd60e51b815260040161031b90611197565b60405180910390fd5b80546040805160208084028201810190925282815291839183018282801561038257602002820191906000526020600020905b815473ffffffffffffffffffffffffffffffffffffffff168152600190910190602001808311610357575b50505050509150505b919050565b60009081526020819052604090206002015490565b6000828152602081905260409020600201546103c39061020f6108dc565b6103df5760405162461bcd60e51b815260040161031b90610fca565b6103e982826108e0565b5050565b6103f56108dc565b73ffffffffffffffffffffffffffffffffffffffff168173ffffffffffffffffffffffffffffffffffffffff161461043f5760405162461bcd60e51b815260040161031b90611260565b6103e98282610963565b60008181526001602052604081208054806104765760405162461bcd60e51b815260040161031b90611197565b81600182038154811061048557fe5b60009182526020909120015473ffffffffffffffffffffffffffffffffffffffff16949350505050565b7fe132a6a517694e2454dc663f0d4fa738f94e7c1bd06c8950d14f9db8832494bd81565b60008281526020819052604081206104eb90836109e6565b90505b92915050565b60008281526020819052604081206104eb90836109f2565b60008281526001602052604081208054831061053a5760405162461bcd60e51b815260040161031b906111ce565b80838154811061048557fe5b600081565b6000806000610558610c30565b5073ffffffffffffffffffffffffffffffffffffffff841660009081526002602090815260409182902082518084019093528054808452600190910154918301919091526105b85760405162461bcd60e51b815260040161031b90611129565b8051602080830151600083815260019092526040909120549195509350806105f25760405162461bcd60e51b815260040161031b9061122b565b600181038414925050509193909250565b60008181526020819052604081206104ee90610a14565b60005b828110156106d757600060603086868581811061063657fe5b905060200281019061064891906112bd565b604051610656929190610e3f565b600060405180830381855af49150503d8060008114610691576040519150601f19603f3d011682016040523d82523d6000602084013e610696565b606091505b5091509150811580156106a65750835b156106cd576106b481610a1f565b60405162461bcd60e51b815260040161031b9190610f1c565b505060010161061d565b50505050565b6000828152602081905260409020600201546106fb9061020f6108dc565b61043f5760405162461bcd60e51b815260040161031b906110cc565b6107417fe132a6a517694e2454dc663f0d4fa738f94e7c1bd06c8950d14f9db8832494bd336104f4565b61075d5760405162461bcd60e51b815260040161031b90611027565b8161077a5760405162461bcd60e51b815260040161031b90611095565b73ffffffffffffffffffffffffffffffffffffffff81166107ad5760405162461bcd60e51b815260040161031b90611160565b600082815260016020818152604080842080549384018155808552828520840180547fffffffffffffffffffffffff00000000000000000000000000000000000000001673ffffffffffffffffffffffffffffffffffffffff88169081179091558552600290925290922054156108365760405162461bcd60e51b815260040161031b9061105e565b604080518082018252858152602080820184815273ffffffffffffffffffffffffffffffffffffffff8716600090815260029092529083902091518255516001909101555184907fb548fd55460ebbfd131d635d9804c0edf1598b692d074d441d89205f5f2f1f53906108ac9086908590610e70565b60405180910390a250505050565b60006104eb8373ffffffffffffffffffffffffffffffffffffffff8416610a7f565b3390565b60008281526020819052604090206108f890826108ba565b156103e9576109056108dc565b73ffffffffffffffffffffffffffffffffffffffff168173ffffffffffffffffffffffffffffffffffffffff16837f2f8788117e7eff1d82e926ec794901d17c78024a50270940304540a733656f0d60405160405180910390a45050565b600082815260208190526040902061097b9082610ac9565b156103e9576109886108dc565b73ffffffffffffffffffffffffffffffffffffffff168173ffffffffffffffffffffffffffffffffffffffff16837ff6391f5c32d9c69d2a47ea670b442974b53935d1edc7fd64eb21e047a839171b60405160405180910390a45050565b60006104eb8383610aeb565b60006104eb8373ffffffffffffffffffffffffffffffffffffffff8416610b30565b60006104ee82610b48565b6060604482511015610a65575060408051808201909152601d81527f5472616e73616374696f6e2072657665727465642073696c656e746c79000000602082015261038b565b600482019150818060200190518101906104ee9190610d86565b6000610a8b8383610b30565b610ac1575081546001818101845560008481526020808220909301849055845484825282860190935260409020919091556104ee565b5060006104ee565b60006104eb8373ffffffffffffffffffffffffffffffffffffffff8416610b4c565b81546000908210610b0e5760405162461bcd60e51b815260040161031b90610f6d565b826000018281548110610b1d57fe5b9060005260206000200154905092915050565b60009081526001919091016020526040902054151590565b5490565b60008181526001830160205260408120548015610c265783547fffffffffffffffffffffffffffffffffffffffffffffffffffffffffffffffff8083019190810190600090879083908110610b9d57fe5b9060005260206000200154905080876000018481548110610bba57fe5b600091825260208083209091019290925582815260018981019092526040902090840190558654879080610bea57fe5b600190038181906000526020600020016000905590558660010160008781526020019081526020016000206000905560019450505050506104ee565b60009150506104ee565b604080518082019091526000808252602082015290565b600060208284031215610c58578081fd5b813573ffffffffffffffffffffffffffffffffffffffff81168114610c7b578182fd5b9392505050565b600080600060408486031215610c96578182fd5b833567ffffffffffffffff80821115610cad578384fd5b818601915086601f830112610cc0578384fd5b813581811115610cce578485fd5b8760208083028501011115610ce1578485fd5b602092830195509350508401358015158114610cfb578182fd5b809150509250925092565b600060208284031215610d17578081fd5b5035919050565b60008060408385031215610d30578182fd5b82359150602083013573ffffffffffffffffffffffffffffffffffffffff81168114610d5a578182fd5b809150509250929050565b60008060408385031215610d77578182fd5b50508035926020909101359150565b600060208284031215610d97578081fd5b815167ffffffffffffffff80821115610dae578283fd5b818401915084601f830112610dc1578283fd5b815181811115610dcf578384fd5b60405160207fffffffffffffffffffffffffffffffffffffffffffffffffffffffffffffffe0601f8401168201018181108482111715610e0d578586fd5b604052818152838201602001871015610e24578485fd5b610e35826020830160208701611327565b9695505050505050565b6000828483379101908152919050565b73ffffffffffffffffffffffffffffffffffffffff91909116815260200190565b73ffffffffffffffffffffffffffffffffffffffff929092168252602082015260400190565b6020808252825182820181905260009190848201906040850190845b81811015610ee457835173ffffffffffffffffffffffffffffffffffffffff1683529284019291840191600101610eb2565b50909695505050505050565b901515815260200190565b90815260200190565b92835260208301919091521515604082015260600190565b6000602082528251806020840152610f3b816040850160208701611327565b601f017fffffffffffffffffffffffffffffffffffffffffffffffffffffffffffffffe0169190910160400192915050565b60208082526022908201527f456e756d657261626c655365743a20696e646578206f7574206f6620626f756e60408201527f6473000000000000000000000000000000000000000000000000000000000000606082015260800190565b6020808252602f908201527f416363657373436f6e74726f6c3a2073656e646572206d75737420626520616e60408201527f2061646d696e20746f206772616e740000000000000000000000000000000000606082015260800190565b6020808252601d908201527f4d523a206d73672e73656e646572206973206e6f7420616c6c6f776564000000604082015260600190565b6020808252601e908201527f4d523a206475706c696361746520726567697374727920616464726573730000604082015260600190565b60208082526018908201527f4d523a206e616d652063616e6e6f7420626520656d7074790000000000000000604082015260600190565b60208082526030908201527f416363657373436f6e74726f6c3a2073656e646572206d75737420626520616e60408201527f2061646d696e20746f207265766f6b6500000000000000000000000000000000606082015260800190565b6020808252601e908201527f4d523a206e6f206d6174636820666f756e6420666f7220616464726573730000604082015260600190565b6020808252601b908201527f4d523a20616464726573732063616e6e6f7420626520656d7074790000000000604082015260600190565b6020808252601b908201527f4d523a206e6f206d6174636820666f756e6420666f72206e616d650000000000604082015260600190565b60208082526027908201527f4d523a206e6f206d6174636820666f756e6420666f72206e616d6520616e642060408201527f76657273696f6e00000000000000000000000000000000000000000000000000606082015260800190565b6020808252818101527f4d523a206e6f2076657273696f6e20666f756e6420666f722061646472657373604082015260600190565b6020808252602f908201527f416363657373436f6e74726f6c3a2063616e206f6e6c792072656e6f756e636560408201527f20726f6c657320666f722073656c660000000000000000000000000000000000606082015260800190565b60008083357fffffffffffffffffffffffffffffffffffffffffffffffffffffffffffffffe18436030181126112f1578283fd5b83018035915067ffffffffffffffff82111561130b578283fd5b60200191503681900382131561132057600080fd5b9250929050565b60005b8381101561134257818101518382015260200161132a565b838111156106d7575050600091015256fea26469706673582212202ea1ec19e00634076dc03e1d613a37a25a0f738d09e74ce53da6efa5619ed50e64736f6c634300060c0033",
  "devdoc": {
    "events": {
      "AddRegistry(bytes32,address,uint256)": {
        "params": {
          "name": "address of the added pool",
          "registryAddress": "address of the registry",
          "version": "version of the registry"
        }
      }
    },
    "kind": "dev",
    "methods": {
      "addRegistry(bytes32,address)": {
        "params": {
          "registryAddress": "address of the new registry",
          "registryName": "name for the registry"
        }
      },
      "batch(bytes[],bool)": {
        "params": {
          "calls": "An array of inputs for each call.",
          "revertOnFail": "If True then reverts after a failed call and stops doing further calls."
        }
      },
      "getRoleAdmin(bytes32)": {
        "details": "Returns the admin role that controls `role`. See {grantRole} and {revokeRole}. To change a role's admin, use {_setRoleAdmin}."
      },
      "getRoleMember(bytes32,uint256)": {
        "details": "Returns one of the accounts that have `role`. `index` must be a value between 0 and {getRoleMemberCount}, non-inclusive. Role bearers are not sorted in any particular way, and their ordering may change at any point. WARNING: When using {getRoleMember} and {getRoleMemberCount}, make sure you perform all queries on the same block. See the following https://forum.openzeppelin.com/t/iterating-over-elements-on-enumerableset-in-openzeppelin-contracts/2296[forum post] for more information."
      },
      "getRoleMemberCount(bytes32)": {
        "details": "Returns the number of accounts that have `role`. Can be used together with {getRoleMember} to enumerate all bearers of a role."
      },
      "grantRole(bytes32,address)": {
        "details": "Grants `role` to `account`. If `account` had not been already granted `role`, emits a {RoleGranted} event. Requirements: - the caller must have ``role``'s admin role."
      },
      "hasRole(bytes32,address)": {
        "details": "Returns `true` if `account` has been granted `role`."
      },
      "renounceRole(bytes32,address)": {
        "details": "Revokes `role` from the calling account. Roles are often managed via {grantRole} and {revokeRole}: this function's purpose is to provide a mechanism for accounts to lose their privileges if they are compromised (such as when a trusted device is misplaced). If the calling account had been granted `role`, emits a {RoleRevoked} event. Requirements: - the caller must be `account`."
      },
      "resolveAddressToRegistryData(address)": {
        "params": {
          "registryAddress": "address of a registry you want to resolve"
        },
        "returns": {
          "isLatest": "boolean flag of whether the given address is the latest version of the given registries with matching name",
          "name": "name of the resolved registry",
          "version": "version of the resolved registry"
        }
      },
      "resolveNameAndVersionToAddress(bytes32,uint256)": {
        "params": {
          "name": "address of the registry you want to resolve to",
          "version": "version of the registry you want to resolve to"
        }
      },
      "resolveNameToAllAddresses(bytes32)": {
        "params": {
          "name": "name for the registry"
        },
        "returns": {
          "_0": "address address of the latest registry with the matching name"
        }
      },
      "resolveNameToLatestAddress(bytes32)": {
        "params": {
          "name": "name for the registry"
        },
        "returns": {
          "_0": "address address of the latest registry with the matching name"
        }
      },
      "revokeRole(bytes32,address)": {
        "details": "Revokes `role` from `account`. If `account` had been granted `role`, emits a {RoleRevoked} event. Requirements: - the caller must have ``role``'s admin role."
      }
    },
    "title": "MasterRegistry",
    "version": 1
  },
  "userdoc": {
    "events": {
      "AddRegistry(bytes32,address,uint256)": {
        "notice": "Add a new registry entry to the master list."
      }
    },
    "kind": "user",
    "methods": {
      "SADDLE_MANAGER_ROLE()": {
        "notice": "Role responsible for adding registries."
      },
      "addRegistry(bytes32,address)": {
        "notice": "Add a new registry entry to the master list."
      },
      "batch(bytes[],bool)": {
        "notice": "Allows batched call to self (this contract)."
      },
      "resolveAddressToRegistryData(address)": {
        "notice": "Resolves an address to registry entry data."
      },
      "resolveNameAndVersionToAddress(bytes32,uint256)": {
        "notice": "Resolves a name and version to an address. Reverts if there is no registry with given name and version."
      },
      "resolveNameToAllAddresses(bytes32)": {
        "notice": "Resolves a name to an array of all addresses. Reverts if no match is found."
      },
      "resolveNameToLatestAddress(bytes32)": {
        "notice": "Resolves a name to the latest registry address. Reverts if no match is found."
      }
    },
    "notice": "This contract holds list of other registries or contracts and its historical versions.",
    "version": 1
  },
  "storageLayout": {
    "storage": [
      {
        "astId": 1726,
        "contract": "contracts/registries/MasterRegistry.sol:MasterRegistry",
        "label": "_roles",
        "offset": 0,
        "slot": "0",
        "type": "t_mapping(t_bytes32,t_struct(RoleData)1722_storage)"
      },
      {
        "astId": 33439,
        "contract": "contracts/registries/MasterRegistry.sol:MasterRegistry",
        "label": "registryMap",
        "offset": 0,
        "slot": "1",
        "type": "t_mapping(t_bytes32,t_array(t_address)dyn_storage)"
      },
      {
        "astId": 33443,
        "contract": "contracts/registries/MasterRegistry.sol:MasterRegistry",
        "label": "reverseRegistry",
        "offset": 0,
        "slot": "2",
        "type": "t_mapping(t_address,t_struct(ReverseRegistryData)24565_storage)"
      }
    ],
    "types": {
      "t_address": {
        "encoding": "inplace",
        "label": "address",
        "numberOfBytes": "20"
      },
      "t_array(t_address)dyn_storage": {
        "base": "t_address",
        "encoding": "dynamic_array",
        "label": "address[]",
        "numberOfBytes": "32"
      },
      "t_array(t_bytes32)dyn_storage": {
        "base": "t_bytes32",
        "encoding": "dynamic_array",
        "label": "bytes32[]",
        "numberOfBytes": "32"
      },
      "t_bytes32": {
        "encoding": "inplace",
        "label": "bytes32",
        "numberOfBytes": "32"
      },
      "t_mapping(t_address,t_struct(ReverseRegistryData)24565_storage)": {
        "encoding": "mapping",
        "key": "t_address",
        "label": "mapping(address => struct IMasterRegistry.ReverseRegistryData)",
        "numberOfBytes": "32",
        "value": "t_struct(ReverseRegistryData)24565_storage"
      },
      "t_mapping(t_bytes32,t_array(t_address)dyn_storage)": {
        "encoding": "mapping",
        "key": "t_bytes32",
        "label": "mapping(bytes32 => address[])",
        "numberOfBytes": "32",
        "value": "t_array(t_address)dyn_storage"
      },
      "t_mapping(t_bytes32,t_struct(RoleData)1722_storage)": {
        "encoding": "mapping",
        "key": "t_bytes32",
        "label": "mapping(bytes32 => struct AccessControl.RoleData)",
        "numberOfBytes": "32",
        "value": "t_struct(RoleData)1722_storage"
      },
      "t_mapping(t_bytes32,t_uint256)": {
        "encoding": "mapping",
        "key": "t_bytes32",
        "label": "mapping(bytes32 => uint256)",
        "numberOfBytes": "32",
        "value": "t_uint256"
      },
      "t_struct(AddressSet)5815_storage": {
        "encoding": "inplace",
        "label": "struct EnumerableSet.AddressSet",
        "members": [
          {
            "astId": 5814,
            "contract": "contracts/registries/MasterRegistry.sol:MasterRegistry",
            "label": "_inner",
            "offset": 0,
            "slot": "0",
            "type": "t_struct(Set)5550_storage"
          }
        ],
        "numberOfBytes": "64"
      },
      "t_struct(ReverseRegistryData)24565_storage": {
        "encoding": "inplace",
        "label": "struct IMasterRegistry.ReverseRegistryData",
        "members": [
          {
            "astId": 24562,
            "contract": "contracts/registries/MasterRegistry.sol:MasterRegistry",
            "label": "name",
            "offset": 0,
            "slot": "0",
            "type": "t_bytes32"
          },
          {
            "astId": 24564,
            "contract": "contracts/registries/MasterRegistry.sol:MasterRegistry",
            "label": "version",
            "offset": 0,
            "slot": "1",
            "type": "t_uint256"
          }
        ],
        "numberOfBytes": "64"
      },
      "t_struct(RoleData)1722_storage": {
        "encoding": "inplace",
        "label": "struct AccessControl.RoleData",
        "members": [
          {
            "astId": 1719,
            "contract": "contracts/registries/MasterRegistry.sol:MasterRegistry",
            "label": "members",
            "offset": 0,
            "slot": "0",
            "type": "t_struct(AddressSet)5815_storage"
          },
          {
            "astId": 1721,
            "contract": "contracts/registries/MasterRegistry.sol:MasterRegistry",
            "label": "adminRole",
            "offset": 0,
            "slot": "2",
            "type": "t_bytes32"
          }
        ],
        "numberOfBytes": "96"
      },
      "t_struct(Set)5550_storage": {
        "encoding": "inplace",
        "label": "struct EnumerableSet.Set",
        "members": [
          {
            "astId": 5545,
            "contract": "contracts/registries/MasterRegistry.sol:MasterRegistry",
            "label": "_values",
            "offset": 0,
            "slot": "0",
            "type": "t_array(t_bytes32)dyn_storage"
          },
          {
            "astId": 5549,
            "contract": "contracts/registries/MasterRegistry.sol:MasterRegistry",
            "label": "_indexes",
            "offset": 0,
            "slot": "1",
            "type": "t_mapping(t_bytes32,t_uint256)"
          }
        ],
        "numberOfBytes": "64"
      },
      "t_uint256": {
        "encoding": "inplace",
        "label": "uint256",
        "numberOfBytes": "32"
      }
    }
  }
}