{
  "address": "0x149bBb210051851016F57a2824C0444f642833a6",
  "abi": [
    {
      "inputs": [
        {
          "components": [
            {
              "internalType": "address",
              "name": "target",
              "type": "address"
            },
            {
              "internalType": "bytes",
              "name": "callData",
              "type": "bytes"
            }
          ],
          "internalType": "struct Multicall.Call[]",
          "name": "calls",
          "type": "tuple[]"
        }
      ],
      "name": "aggregate",
      "outputs": [
        {
          "internalType": "uint256",
          "name": "blockNumber",
          "type": "uint256"
        },
        {
          "internalType": "bytes[]",
          "name": "returnData",
          "type": "bytes[]"
        }
      ],
      "stateMutability": "nonpayable",
      "type": "function"
    },
    {
      "inputs": [
        {
          "internalType": "uint256",
          "name": "blockNumber",
          "type": "uint256"
        }
      ],
      "name": "getBlockHash",
      "outputs": [
        {
          "internalType": "bytes32",
          "name": "blockHash",
          "type": "bytes32"
        }
      ],
      "stateMutability": "view",
      "type": "function"
    },
    {
      "inputs": [],
      "name": "getCurrentBlockCoinbase",
      "outputs": [
        {
          "internalType": "address",
          "name": "coinbase",
          "type": "address"
        }
      ],
      "stateMutability": "view",
      "type": "function"
    },
    {
      "inputs": [],
      "name": "getCurrentBlockDifficulty",
      "outputs": [
        {
          "internalType": "uint256",
          "name": "difficulty",
          "type": "uint256"
        }
      ],
      "stateMutability": "view",
      "type": "function"
    },
    {
      "inputs": [],
      "name": "getCurrentBlockGasLimit",
      "outputs": [
        {
          "internalType": "uint256",
          "name": "gaslimit",
          "type": "uint256"
        }
      ],
      "stateMutability": "view",
      "type": "function"
    },
    {
      "inputs": [],
      "name": "getCurrentBlockTimestamp",
      "outputs": [
        {
          "internalType": "uint256",
          "name": "timestamp",
          "type": "uint256"
        }
      ],
      "stateMutability": "view",
      "type": "function"
    },
    {
      "inputs": [
        {
          "internalType": "address",
          "name": "addr",
          "type": "address"
        }
      ],
      "name": "getEthBalance",
      "outputs": [
        {
          "internalType": "uint256",
          "name": "balance",
          "type": "uint256"
        }
      ],
      "stateMutability": "view",
      "type": "function"
    },
    {
      "inputs": [],
      "name": "getLastBlockHash",
      "outputs": [
        {
          "internalType": "bytes32",
          "name": "blockHash",
          "type": "bytes32"
        }
      ],
      "stateMutability": "view",
      "type": "function"
    }
  ],
  "transactionHash": "0xa57eb9f1e923ef2fc379af042be34d3c1a8755987999b24b192449914cbc580f",
  "args": [],
  "numDeployments": 1,
  "solcInputHash": "41e89eef051c3bcddd279462e34b0cf4",
  "bytecode": "0x608060405234801561001057600080fd5b506106f6806100206000396000f3fe608060405234801561001057600080fd5b50600436106100885760003560e01c806372425d9d1161005b57806372425d9d146100f357806386d516e8146100f9578063a8b0574e146100ff578063ee82ac5e1461010d57600080fd5b80630f28c97d1461008d578063252dba42146100a257806327e86d6e146100c35780634d2301cc146100cb575b600080fd5b425b6040519081526020015b60405180910390f35b6100b56100b03660046102ca565b61011f565b60405161009992919061047d565b61008f61026c565b61008f6100d93660046102a8565b73ffffffffffffffffffffffffffffffffffffffff163190565b4461008f565b4561008f565b604051418152602001610099565b61008f61011b366004610448565b4090565b8051439060609067ffffffffffffffff81111561013e5761013e610691565b60405190808252806020026020018201604052801561017157816020015b606081526020019060019003908161015c5790505b50905060005b83518110156102665760008085838151811061019557610195610662565b60200260200101516000015173ffffffffffffffffffffffffffffffffffffffff168684815181106101c9576101c9610662565b6020026020010151602001516040516101e29190610461565b6000604051808303816000865af19150503d806000811461021f576040519150601f19603f3d011682016040523d82523d6000602084013e610224565b606091505b50915091508161023357600080fd5b8084848151811061024657610246610662565b60200260200101819052505050808061025e906105fa565b915050610177565b50915091565b60006102796001436105b3565b40905090565b803573ffffffffffffffffffffffffffffffffffffffff811681146102a357600080fd5b919050565b6000602082840312156102ba57600080fd5b6102c38261027f565b9392505050565b600060208083850312156102dd57600080fd5b823567ffffffffffffffff808211156102f557600080fd5b818501915085601f83011261030957600080fd5b81358181111561031b5761031b610691565b8060051b61032a858201610564565b8281528581019085870183870188018b101561034557600080fd5b600093505b8484101561043a5780358681111561036157600080fd5b87017fffffffffffffffffffffffffffffffffffffffffffffffffffffffffffffffe06040828e038201121561039657600080fd5b61039e61053b565b6103a98b840161027f565b81526040830135898111156103bd57600080fd5b8084019350508d603f8401126103d257600080fd5b8a830135898111156103e6576103e6610691565b6103f68c84601f84011601610564565b92508083528e604082860101111561040d57600080fd5b80604085018d85013760009083018c0152808b01919091528452506001939093019291870191870161034a565b509998505050505050505050565b60006020828403121561045a57600080fd5b5035919050565b600082516104738184602087016105ca565b9190910192915050565b600060408201848352602060408185015281855180845260608601915060608160051b870101935082870160005b8281101561052d577fffffffffffffffffffffffffffffffffffffffffffffffffffffffffffffffa0888703018452815180518088526104f081888a018985016105ca565b601f017fffffffffffffffffffffffffffffffffffffffffffffffffffffffffffffffe016969096018501955092840192908401906001016104ab565b509398975050505050505050565b6040805190810167ffffffffffffffff8111828210171561055e5761055e610691565b60405290565b604051601f82017fffffffffffffffffffffffffffffffffffffffffffffffffffffffffffffffe016810167ffffffffffffffff811182821017156105ab576105ab610691565b604052919050565b6000828210156105c5576105c5610633565b500390565b60005b838110156105e55781810151838201526020016105cd565b838111156105f4576000848401525b50505050565b60007fffffffffffffffffffffffffffffffffffffffffffffffffffffffffffffffff82141561062c5761062c610633565b5060010190565b7f4e487b7100000000000000000000000000000000000000000000000000000000600052601160045260246000fd5b7f4e487b7100000000000000000000000000000000000000000000000000000000600052603260045260246000fd5b7f4e487b7100000000000000000000000000000000000000000000000000000000600052604160045260246000fdfea2646970667358221220e6365d1ad216dbef5d25d48548f007489eb9ce54398778f12f128538b35c285e64736f6c63430008060033",
  "devdoc": {
    "author": "Michael Elliot <mike@makerdao.com>Joshua Levine <joshua@makerdao.com>Nick Johnson <arachnid@notdot.net>",
    "kind": "dev",
    "methods": {},
    "title": "Multicall - Aggregate results from multiple read-only function calls",
    "version": 1
  },
  "userdoc": {
    "kind": "user",
    "methods": {},
    "version": 1
  },
  "storageLayout": {
    "storage": [],
    "types": null
  }
}