{
  "address": "0xDAc9E1cFF00B879C9C03Ffb44021a2DEb84F300D",
  "abi": [
    {
      "inputs": [
        {
          "internalType": "contract IMasterRegistry",
          "name": "_masterRegistry",
          "type": "address"
        }
      ],
      "stateMutability": "nonpayable",
      "type": "constructor"
    },
    {
      "anonymous": false,
      "inputs": [
        {
          "indexed": true,
          "internalType": "address",
          "name": "provider",
          "type": "address"
        },
        {
          "indexed": false,
          "internalType": "uint256[]",
          "name": "tokenAmounts",
          "type": "uint256[]"
        },
        {
          "indexed": false,
          "internalType": "uint256[]",
          "name": "fees",
          "type": "uint256[]"
        },
        {
          "indexed": false,
          "internalType": "uint256",
          "name": "invariant",
          "type": "uint256"
        },
        {
          "indexed": false,
          "internalType": "uint256",
          "name": "lpTokenSupply",
          "type": "uint256"
        }
      ],
      "name": "AddLiquidity",
      "type": "event"
    },
    {
      "anonymous": false,
      "inputs": [
        {
          "indexed": false,
          "internalType": "uint256",
          "name": "newAdminFee",
          "type": "uint256"
        }
      ],
      "name": "NewAdminFee",
      "type": "event"
    },
    {
      "anonymous": false,
      "inputs": [
        {
          "indexed": false,
          "internalType": "uint256",
          "name": "newSwapFee",
          "type": "uint256"
        }
      ],
      "name": "NewSwapFee",
      "type": "event"
    },
    {
      "anonymous": false,
      "inputs": [
        {
          "indexed": false,
          "internalType": "uint256",
          "name": "newWithdrawFee",
          "type": "uint256"
        }
      ],
      "name": "NewWithdrawFee",
      "type": "event"
    },
    {
      "anonymous": false,
      "inputs": [
        {
          "indexed": true,
          "internalType": "address",
          "name": "previousOwner",
          "type": "address"
        },
        {
          "indexed": true,
          "internalType": "address",
          "name": "newOwner",
          "type": "address"
        }
      ],
      "name": "OwnershipTransferred",
      "type": "event"
    },
    {
      "anonymous": false,
      "inputs": [
        {
          "indexed": false,
          "internalType": "address",
          "name": "account",
          "type": "address"
        }
      ],
      "name": "Paused",
      "type": "event"
    },
    {
      "anonymous": false,
      "inputs": [
        {
          "indexed": false,
          "internalType": "uint256",
          "name": "oldA",
          "type": "uint256"
        },
        {
          "indexed": false,
          "internalType": "uint256",
          "name": "newA",
          "type": "uint256"
        },
        {
          "indexed": false,
          "internalType": "uint256",
          "name": "initialTime",
          "type": "uint256"
        },
        {
          "indexed": false,
          "internalType": "uint256",
          "name": "futureTime",
          "type": "uint256"
        }
      ],
      "name": "RampA",
      "type": "event"
    },
    {
      "anonymous": false,
      "inputs": [
        {
          "indexed": true,
          "internalType": "address",
          "name": "provider",
          "type": "address"
        },
        {
          "indexed": false,
          "internalType": "uint256[]",
          "name": "tokenAmounts",
          "type": "uint256[]"
        },
        {
          "indexed": false,
          "internalType": "uint256",
          "name": "lpTokenSupply",
          "type": "uint256"
        }
      ],
      "name": "RemoveLiquidity",
      "type": "event"
    },
    {
      "anonymous": false,
      "inputs": [
        {
          "indexed": true,
          "internalType": "address",
          "name": "provider",
          "type": "address"
        },
        {
          "indexed": false,
          "internalType": "uint256[]",
          "name": "tokenAmounts",
          "type": "uint256[]"
        },
        {
          "indexed": false,
          "internalType": "uint256[]",
          "name": "fees",
          "type": "uint256[]"
        },
        {
          "indexed": false,
          "internalType": "uint256",
          "name": "invariant",
          "type": "uint256"
        },
        {
          "indexed": false,
          "internalType": "uint256",
          "name": "lpTokenSupply",
          "type": "uint256"
        }
      ],
      "name": "RemoveLiquidityImbalance",
      "type": "event"
    },
    {
      "anonymous": false,
      "inputs": [
        {
          "indexed": true,
          "internalType": "address",
          "name": "provider",
          "type": "address"
        },
        {
          "indexed": false,
          "internalType": "uint256",
          "name": "lpTokenAmount",
          "type": "uint256"
        },
        {
          "indexed": false,
          "internalType": "uint256",
          "name": "lpTokenSupply",
          "type": "uint256"
        },
        {
          "indexed": false,
          "internalType": "uint256",
          "name": "boughtId",
          "type": "uint256"
        },
        {
          "indexed": false,
          "internalType": "uint256",
          "name": "tokensBought",
          "type": "uint256"
        }
      ],
      "name": "RemoveLiquidityOne",
      "type": "event"
    },
    {
      "anonymous": false,
      "inputs": [
        {
          "indexed": false,
          "internalType": "uint256",
          "name": "currentA",
          "type": "uint256"
        },
        {
          "indexed": false,
          "internalType": "uint256",
          "name": "time",
          "type": "uint256"
        }
      ],
      "name": "StopRampA",
      "type": "event"
    },
    {
      "anonymous": false,
      "inputs": [
        {
          "indexed": true,
          "internalType": "address",
          "name": "buyer",
          "type": "address"
        },
        {
          "indexed": false,
          "internalType": "uint256",
          "name": "tokensSold",
          "type": "uint256"
        },
        {
          "indexed": false,
          "internalType": "uint256",
          "name": "tokensBought",
          "type": "uint256"
        },
        {
          "indexed": false,
          "internalType": "uint128",
          "name": "soldId",
          "type": "uint128"
        },
        {
          "indexed": false,
          "internalType": "uint128",
          "name": "boughtId",
          "type": "uint128"
        }
      ],
      "name": "TokenSwap",
      "type": "event"
    },
    {
      "anonymous": false,
      "inputs": [
        {
          "indexed": false,
          "internalType": "address",
          "name": "account",
          "type": "address"
        }
      ],
      "name": "Unpaused",
      "type": "event"
    },
    {
      "inputs": [],
      "name": "FEE_COLLECTOR_NAME",
      "outputs": [
        {
          "internalType": "bytes32",
          "name": "",
          "type": "bytes32"
        }
      ],
      "stateMutability": "view",
      "type": "function"
    },
    {
      "inputs": [],
      "name": "MASTER_REGISTRY",
      "outputs": [
        {
          "internalType": "contract IMasterRegistry",
          "name": "",
          "type": "address"
        }
      ],
      "stateMutability": "view",
      "type": "function"
    },
    {
      "inputs": [
        {
          "internalType": "uint256[]",
          "name": "amounts",
          "type": "uint256[]"
        },
        {
          "internalType": "uint256",
          "name": "minToMint",
          "type": "uint256"
        },
        {
          "internalType": "uint256",
          "name": "deadline",
          "type": "uint256"
        }
      ],
      "name": "addLiquidity",
      "outputs": [
        {
          "internalType": "uint256",
          "name": "",
          "type": "uint256"
        }
      ],
      "stateMutability": "payable",
      "type": "function"
    },
    {
      "inputs": [
        {
          "internalType": "uint256",
          "name": "amount",
          "type": "uint256"
        }
      ],
      "name": "calculateRemoveLiquidity",
      "outputs": [
        {
          "internalType": "uint256[]",
          "name": "",
          "type": "uint256[]"
        }
      ],
      "stateMutability": "view",
      "type": "function"
    },
    {
      "inputs": [
        {
          "internalType": "uint256",
          "name": "tokenAmount",
          "type": "uint256"
        },
        {
          "internalType": "uint8",
          "name": "tokenIndex",
          "type": "uint8"
        }
      ],
      "name": "calculateRemoveLiquidityOneToken",
      "outputs": [
        {
          "internalType": "uint256",
          "name": "availableTokenAmount",
          "type": "uint256"
        }
      ],
      "stateMutability": "view",
      "type": "function"
    },
    {
      "inputs": [
        {
          "internalType": "uint8",
          "name": "tokenIndexFrom",
          "type": "uint8"
        },
        {
          "internalType": "uint8",
          "name": "tokenIndexTo",
          "type": "uint8"
        },
        {
          "internalType": "uint256",
          "name": "dx",
          "type": "uint256"
        }
      ],
      "name": "calculateSwap",
      "outputs": [
        {
          "internalType": "uint256",
          "name": "",
          "type": "uint256"
        }
      ],
      "stateMutability": "view",
      "type": "function"
    },
    {
      "inputs": [
        {
          "internalType": "uint256[]",
          "name": "amounts",
          "type": "uint256[]"
        },
        {
          "internalType": "bool",
          "name": "deposit",
          "type": "bool"
        }
      ],
      "name": "calculateTokenAmount",
      "outputs": [
        {
          "internalType": "uint256",
          "name": "",
          "type": "uint256"
        }
      ],
      "stateMutability": "view",
      "type": "function"
    },
    {
      "inputs": [],
      "name": "feeCollector",
      "outputs": [
        {
          "internalType": "address",
          "name": "",
          "type": "address"
        }
      ],
      "stateMutability": "view",
      "type": "function"
    },
    {
      "inputs": [],
      "name": "getA",
      "outputs": [
        {
          "internalType": "uint256",
          "name": "",
          "type": "uint256"
        }
      ],
      "stateMutability": "view",
      "type": "function"
    },
    {
      "inputs": [],
      "name": "getAPrecise",
      "outputs": [
        {
          "internalType": "uint256",
          "name": "",
          "type": "uint256"
        }
      ],
      "stateMutability": "view",
      "type": "function"
    },
    {
      "inputs": [
        {
          "internalType": "uint256",
          "name": "index",
          "type": "uint256"
        }
      ],
      "name": "getAdminBalance",
      "outputs": [
        {
          "internalType": "uint256",
          "name": "",
          "type": "uint256"
        }
      ],
      "stateMutability": "view",
      "type": "function"
    },
    {
      "inputs": [
        {
          "internalType": "uint8",
          "name": "index",
          "type": "uint8"
        }
      ],
      "name": "getToken",
      "outputs": [
        {
          "internalType": "contract IERC20",
          "name": "",
          "type": "address"
        }
      ],
      "stateMutability": "view",
      "type": "function"
    },
    {
      "inputs": [
        {
          "internalType": "uint8",
          "name": "index",
          "type": "uint8"
        }
      ],
      "name": "getTokenBalance",
      "outputs": [
        {
          "internalType": "uint256",
          "name": "",
          "type": "uint256"
        }
      ],
      "stateMutability": "view",
      "type": "function"
    },
    {
      "inputs": [
        {
          "internalType": "address",
          "name": "tokenAddress",
          "type": "address"
        }
      ],
      "name": "getTokenIndex",
      "outputs": [
        {
          "internalType": "uint8",
          "name": "",
          "type": "uint8"
        }
      ],
      "stateMutability": "view",
      "type": "function"
    },
    {
      "inputs": [],
      "name": "getVirtualPrice",
      "outputs": [
        {
          "internalType": "uint256",
          "name": "",
          "type": "uint256"
        }
      ],
      "stateMutability": "view",
      "type": "function"
    },
    {
      "inputs": [
        {
          "internalType": "contract IERC20[]",
          "name": "_pooledTokens",
          "type": "address[]"
        },
        {
          "internalType": "uint8[]",
          "name": "decimals",
          "type": "uint8[]"
        },
        {
          "internalType": "string",
          "name": "lpTokenName",
          "type": "string"
        },
        {
          "internalType": "string",
          "name": "lpTokenSymbol",
          "type": "string"
        },
        {
          "internalType": "uint256",
          "name": "_a",
          "type": "uint256"
        },
        {
          "internalType": "uint256",
          "name": "_fee",
          "type": "uint256"
        },
        {
          "internalType": "uint256",
          "name": "_adminFee",
          "type": "uint256"
        },
        {
          "internalType": "address",
          "name": "lpTokenTargetAddress",
          "type": "address"
        }
      ],
      "name": "initialize",
      "outputs": [],
      "stateMutability": "payable",
      "type": "function"
    },
    {
      "inputs": [],
      "name": "owner",
      "outputs": [
        {
          "internalType": "address",
          "name": "",
          "type": "address"
        }
      ],
      "stateMutability": "view",
      "type": "function"
    },
    {
      "inputs": [],
      "name": "pause",
      "outputs": [],
      "stateMutability": "nonpayable",
      "type": "function"
    },
    {
      "inputs": [],
      "name": "paused",
      "outputs": [
        {
          "internalType": "bool",
          "name": "",
          "type": "bool"
        }
      ],
      "stateMutability": "view",
      "type": "function"
    },
    {
      "inputs": [
        {
          "internalType": "uint256",
          "name": "futureA",
          "type": "uint256"
        },
        {
          "internalType": "uint256",
          "name": "futureTime",
          "type": "uint256"
        }
      ],
      "name": "rampA",
      "outputs": [],
      "stateMutability": "payable",
      "type": "function"
    },
    {
      "inputs": [
        {
          "internalType": "uint256",
          "name": "amount",
          "type": "uint256"
        },
        {
          "internalType": "uint256[]",
          "name": "minAmounts",
          "type": "uint256[]"
        },
        {
          "internalType": "uint256",
          "name": "deadline",
          "type": "uint256"
        }
      ],
      "name": "removeLiquidity",
      "outputs": [
        {
          "internalType": "uint256[]",
          "name": "",
          "type": "uint256[]"
        }
      ],
      "stateMutability": "payable",
      "type": "function"
    },
    {
      "inputs": [
        {
          "internalType": "uint256[]",
          "name": "amounts",
          "type": "uint256[]"
        },
        {
          "internalType": "uint256",
          "name": "maxBurnAmount",
          "type": "uint256"
        },
        {
          "internalType": "uint256",
          "name": "deadline",
          "type": "uint256"
        }
      ],
      "name": "removeLiquidityImbalance",
      "outputs": [
        {
          "internalType": "uint256",
          "name": "",
          "type": "uint256"
        }
      ],
      "stateMutability": "payable",
      "type": "function"
    },
    {
      "inputs": [
        {
          "internalType": "uint256",
          "name": "tokenAmount",
          "type": "uint256"
        },
        {
          "internalType": "uint8",
          "name": "tokenIndex",
          "type": "uint8"
        },
        {
          "internalType": "uint256",
          "name": "minAmount",
          "type": "uint256"
        },
        {
          "internalType": "uint256",
          "name": "deadline",
          "type": "uint256"
        }
      ],
      "name": "removeLiquidityOneToken",
      "outputs": [
        {
          "internalType": "uint256",
          "name": "",
          "type": "uint256"
        }
      ],
      "stateMutability": "payable",
      "type": "function"
    },
    {
      "inputs": [],
      "name": "renounceOwnership",
      "outputs": [],
      "stateMutability": "nonpayable",
      "type": "function"
    },
    {
      "inputs": [
        {
          "internalType": "uint256",
          "name": "newAdminFee",
          "type": "uint256"
        }
      ],
      "name": "setAdminFee",
      "outputs": [],
      "stateMutability": "payable",
      "type": "function"
    },
    {
      "inputs": [
        {
          "internalType": "uint256",
          "name": "newSwapFee",
          "type": "uint256"
        }
      ],
      "name": "setSwapFee",
      "outputs": [],
      "stateMutability": "payable",
      "type": "function"
    },
    {
      "inputs": [],
      "name": "stopRampA",
      "outputs": [],
      "stateMutability": "payable",
      "type": "function"
    },
    {
      "inputs": [
        {
          "internalType": "uint8",
          "name": "tokenIndexFrom",
          "type": "uint8"
        },
        {
          "internalType": "uint8",
          "name": "tokenIndexTo",
          "type": "uint8"
        },
        {
          "internalType": "uint256",
          "name": "dx",
          "type": "uint256"
        },
        {
          "internalType": "uint256",
          "name": "minDy",
          "type": "uint256"
        },
        {
          "internalType": "uint256",
          "name": "deadline",
          "type": "uint256"
        }
      ],
      "name": "swap",
      "outputs": [
        {
          "internalType": "uint256",
          "name": "",
          "type": "uint256"
        }
      ],
      "stateMutability": "payable",
      "type": "function"
    },
    {
      "inputs": [],
      "name": "swapStorage",
      "outputs": [
        {
          "internalType": "uint256",
          "name": "initialA",
          "type": "uint256"
        },
        {
          "internalType": "uint256",
          "name": "futureA",
          "type": "uint256"
        },
        {
          "internalType": "uint256",
          "name": "initialATime",
          "type": "uint256"
        },
        {
          "internalType": "uint256",
          "name": "futureATime",
          "type": "uint256"
        },
        {
          "internalType": "uint256",
          "name": "swapFee",
          "type": "uint256"
        },
        {
          "internalType": "uint256",
          "name": "adminFee",
          "type": "uint256"
        },
        {
          "internalType": "contract LPToken",
          "name": "lpToken",
          "type": "address"
        }
      ],
      "stateMutability": "view",
      "type": "function"
    },
    {
      "inputs": [
        {
          "internalType": "address",
          "name": "newOwner",
          "type": "address"
        }
      ],
      "name": "transferOwnership",
      "outputs": [],
      "stateMutability": "nonpayable",
      "type": "function"
    },
    {
      "inputs": [],
      "name": "unpause",
      "outputs": [],
      "stateMutability": "nonpayable",
      "type": "function"
    },
    {
      "inputs": [],
      "name": "updateFeeCollectorCache",
      "outputs": [],
      "stateMutability": "payable",
      "type": "function"
    },
    {
      "inputs": [],
      "name": "withdrawAdminFees",
      "outputs": [],
      "stateMutability": "payable",
      "type": "function"
    }
  ],
  "transactionHash": "0x72c64d3f469118e7de0bb218cb79169c60ce37d5d2baf1c14d65fcacd37eb6fe",
  "args": [
    "0x3A0c2A793a8DB779e0293699D0Ce77c77617FE0f"
  ],
  "numDeployments": 1,
  "solcInputHash": "e454d9aa938f149ff8907a8a2452f369",
  "bytecode": "0x60a06040523480156200001157600080fd5b5060405162003c0c38038062003c0c833981810160405260208110156200003757600080fd5b50516001600160601b0319606082901b166080528062000057816200005f565b505062000167565b6000816001600160a01b0316633705f6256b2332b2a1b7b63632b1ba37b960a11b60001b6040518263ffffffff1660e01b81526004018082815260200191505060206040518083038186803b158015620000b857600080fd5b505afa158015620000cd573d6000803e3d6000fd5b505050506040513d6020811015620000e457600080fd5b505190506001600160a01b03811662000144576040805162461bcd60e51b815260206004820152601d60248201527f46656520636f6c6c6563746f722063616e6e6f7420626520656d707479000000604482015290519081900360640190fd5b60d480546001600160a01b0319166001600160a01b039290921691909117905550565b60805160601c613a7d6200018f60003980610baf5280611d135280611dd75250613a7d6000f3fe6080604052600436106101fe5760003560e01c806384cdd9bc1161011d578063b28cb6dc116100b0578063e25aa5fa1161007f578063ef0a712f11610064578063ef0a712f146109fc578063f2fad2b614610a26578063f2fde38b14610a50576101fe565b8063e25aa5fa14610968578063e6ab28061461097d576101fe565b8063b28cb6dc146106e6578063c415b95c14610936578063c4db7fa01461094b578063d46300fd14610953576101fe565b806391ceb3eb116100ec57806391ceb3eb14610652578063a43443901461067f578063a95b089f14610694578063ac841ed9146106d1576101fe565b806384cdd9bc1461056e5780638beb60b6146105e45780638da5cb5b146106015780639169558614610616576101fe565b80634d49e87d1161019557806366c0bd241161016457806366c0bd24146104b2578063715018a6146104fb57806382b86600146105105780638456cb5914610559576101fe565b80634d49e87d1461039a578063593d132c146104105780635c975abb146104335780635fd65f0f1461045c576101fe565b8063342a87a1116101d1578063342a87a11461030357806334e19907146103365780633e3a1560146103535780633f4ba83a14610385576101fe565b80630419b45a146102035780630ba819591461020d5780632472374d1461023457806331cd52b01461023c575b600080fd5b61020b610a83565b005b34801561021957600080fd5b50610222610b25565b60408051918252519081900360200190f35b61020b610baa565b6102b36004803603606081101561025257600080fd5b8135919081019060408101602082013564010000000081111561027457600080fd5b82018360208201111561028657600080fd5b803590602001918460208302840111640100000000831117156102a857600080fd5b919350915035610bd3565b60408051602080825283518183015283519192839290830191858101910280838360005b838110156102ef5781810151838201526020016102d7565b505050509050019250505060405180910390f35b34801561030f57600080fd5b506102226004803603604081101561032657600080fd5b508035906020013560ff16610e10565b61020b6004803603602081101561034c57600080fd5b5035610ec4565b6102226004803603608081101561036957600080fd5b5080359060ff6020820135169060408101359060600135610fc5565b34801561039157600080fd5b5061020b611191565b610222600480360360608110156103b057600080fd5b8101906020810181356401000000008111156103cb57600080fd5b8201836020820111156103dd57600080fd5b803590602001918460208302840111640100000000831117156103ff57600080fd5b91935091508035906020013561120d565b61020b6004803603604081101561042657600080fd5b50803590602001356113ad565b34801561043f57600080fd5b506104486114b6565b604080519115158252519081900360200190f35b34801561046857600080fd5b506104716114bf565b604080519788526020880196909652868601949094526060860192909252608085015260a08401526001600160a01b031660c0830152519081900360e00190f35b3480156104be57600080fd5b506104e5600480360360208110156104d557600080fd5b50356001600160a01b03166114e0565b6040805160ff9092168252519081900360200190f35b34801561050757600080fd5b5061020b61156d565b34801561051c57600080fd5b5061053d6004803603602081101561053357600080fd5b503560ff16611643565b604080516001600160a01b039092168252519081900360200190f35b34801561056557600080fd5b5061020b6116cb565b6102226004803603606081101561058457600080fd5b81019060208101813564010000000081111561059f57600080fd5b8201836020820111156105b157600080fd5b803590602001918460208302840111640100000000831117156105d357600080fd5b919350915080359060200135611747565b61020b600480360360208110156105fa57600080fd5b50356118e7565b34801561060d57600080fd5b5061053d6119cd565b610222600480360360a081101561062c57600080fd5b5060ff8135811691602081013590911690604081013590606081013590608001356119dc565b34801561065e57600080fd5b506102226004803603602081101561067557600080fd5b503560ff16611bb1565b34801561068b57600080fd5b50610222611c30565b3480156106a057600080fd5b50610222600480360360608110156106b757600080fd5b5060ff813581169160208101359091169060400135611c54565b3480156106dd57600080fd5b5061053d611d11565b61020b60048036036101008110156106fd57600080fd5b81019060208101813564010000000081111561071857600080fd5b82018360208201111561072a57600080fd5b8035906020019184602083028401116401000000008311171561074c57600080fd5b919080806020026020016040519081016040528093929190818152602001838360200280828437600092019190915250929594936020810193503591505064010000000081111561079c57600080fd5b8201836020820111156107ae57600080fd5b803590602001918460208302840111640100000000831117156107d057600080fd5b919080806020026020016040519081016040528093929190818152602001838360200280828437600092019190915250929594936020810193503591505064010000000081111561082057600080fd5b82018360208201111561083257600080fd5b8035906020019184600183028401116401000000008311171561085457600080fd5b91908080601f01602080910402602001604051908101604052809392919081815260200183838082843760009201919091525092959493602081019350359150506401000000008111156108a757600080fd5b8201836020820111156108b957600080fd5b803590602001918460018302840111640100000000831117156108db57600080fd5b91908080601f01602080910402602001604051908101604052809392919081815260200183838082843760009201919091525092955050823593505050602081013590604081013590606001356001600160a01b0316611d35565b34801561094257600080fd5b5061053d611e18565b61020b611e27565b34801561095f57600080fd5b50610222611f20565b34801561097457600080fd5b50610222611f74565b34801561098957600080fd5b50610222600480360360408110156109a057600080fd5b8101906020810181356401000000008111156109bb57600080fd5b8201836020820111156109cd57600080fd5b803590602001918460208302840111640100000000831117156109ef57600080fd5b9193509150351515611fc8565b348015610a0857600080fd5b5061022260048036036020811015610a1f57600080fd5b503561205d565b348015610a3257600080fd5b506102b360048036036020811015610a4957600080fd5b50356120eb565b348015610a5c57600080fd5b5061020b60048036036020811015610a7357600080fd5b50356001600160a01b0316612235565b610a8b6119cd565b6001600160a01b0316336001600160a01b03161480610ab4575060d4546001600160a01b031633145b610b05576040805162461bcd60e51b815260206004820152601860248201527f43616c6c6572206973206e6f7420617574686f72697a65640000000000000000604482015290519081900360640190fd5b610b2360c9610b126119cd565b60d4546001600160a01b0316612362565b565b600060c9732b7A5a5923ECa5C00c6572Cf3E8e08384F563F9363c9b64dcb90916040518263ffffffff1660e01b81526004018082815260200191505060206040518083038186803b158015610b7957600080fd5b505af4158015610b8d573d6000803e3d6000fd5b505050506040513d6020811015610ba357600080fd5b5051905090565b610b237f00000000000000000000000000000000000000000000000000000000000000006124c9565b606060026097541415610c2d576040805162461bcd60e51b815260206004820152601f60248201527f5265656e7472616e637947756172643a207265656e7472616e742063616c6c00604482015290519081900360640190fd5b60026097558142811015610c88576040805162461bcd60e51b815260206004820152601060248201527f446561646c696e65206e6f74206d657400000000000000000000000000000000604482015290519081900360640190fd5b60c9734f6A43Ad7cba042606dECaCA730d4CE0A57ac62e6373fd6b3e90918888886040518563ffffffff1660e01b815260040180858152602001848152602001806020018281038252848482818152602001925060200280828437600081840152601f19601f8201169050808301925050509550505050505060006040518083038186803b158015610d1957600080fd5b505af4158015610d2d573d6000803e3d6000fd5b505050506040513d6000823e601f3d9081017fffffffffffffffffffffffffffffffffffffffffffffffffffffffffffffffe01682016040526020811015610d7457600080fd5b8101908080516040519392919084640100000000821115610d9457600080fd5b908301906020820185811115610da957600080fd5b8251866020820283011164010000000082111715610dc657600080fd5b82525081516020918201928201910280838360005b83811015610df3578181015183820152602001610ddb565b505050509050016040525050509150506001609755949350505050565b604080517fe069274200000000000000000000000000000000000000000000000000000000815260c960048201526024810184905260ff831660448201529051600091734f6A43Ad7cba042606dECaCA730d4CE0A57ac62e9163e069274291606480820192602092909190829003018186803b158015610e8f57600080fd5b505af4158015610ea3573d6000803e3d6000fd5b505050506040513d6020811015610eb957600080fd5b505190505b92915050565b610ecc6125f6565b6001600160a01b0316610edd6119cd565b6001600160a01b031614610f38576040805162461bcd60e51b815260206004820181905260248201527f4f776e61626c653a2063616c6c6572206973206e6f7420746865206f776e6572604482015290519081900360640190fd5b604080517f467e186c00000000000000000000000000000000000000000000000000000000815260c96004820152602481018390529051734f6A43Ad7cba042606dECaCA730d4CE0A57ac62e9163467e186c916044808301926000929190829003018186803b158015610faa57600080fd5b505af4158015610fbe573d6000803e3d6000fd5b5050505050565b60006002609754141561101f576040805162461bcd60e51b815260206004820152601f60248201527f5265656e7472616e637947756172643a207265656e7472616e742063616c6c00604482015290519081900360640190fd5b600260975561102c6114b6565b1561107e576040805162461bcd60e51b815260206004820152601060248201527f5061757361626c653a2070617573656400000000000000000000000000000000604482015290519081900360640190fd5b81804211156110d4576040805162461bcd60e51b815260206004820152601060248201527f446561646c696e65206e6f74206d657400000000000000000000000000000000604482015290519081900360640190fd5b604080517fe7a4db8100000000000000000000000000000000000000000000000000000000815260c960048201526024810188905260ff87166044820152606481018690529051734f6A43Ad7cba042606dECaCA730d4CE0A57ac62e9163e7a4db81916084808301926020929190829003018186803b15801561115657600080fd5b505af415801561116a573d6000803e3d6000fd5b505050506040513d602081101561118057600080fd5b505160016097559695505050505050565b6111996125f6565b6001600160a01b03166111aa6119cd565b6001600160a01b031614611205576040805162461bcd60e51b815260206004820181905260248201527f4f776e61626c653a2063616c6c6572206973206e6f7420746865206f776e6572604482015290519081900360640190fd5b610b236125fa565b600060026097541415611267576040805162461bcd60e51b815260206004820152601f60248201527f5265656e7472616e637947756172643a207265656e7472616e742063616c6c00604482015290519081900360640190fd5b60026097556112746114b6565b156112c6576040805162461bcd60e51b815260206004820152601060248201527f5061757361626c653a2070617573656400000000000000000000000000000000604482015290519081900360640190fd5b818042111561131c576040805162461bcd60e51b815260206004820152601060248201527f446561646c696e65206e6f74206d657400000000000000000000000000000000604482015290519081900360640190fd5b60c9734f6A43Ad7cba042606dECaCA730d4CE0A57ac62e6340370edf90918888886040518563ffffffff1660e01b815260040180858152602001806020018381526020018281038252858582818152602001925060200280828437600081840152601f19601f8201169050808301925050509550505050505060206040518083038186803b15801561115657600080fd5b6113b56125f6565b6001600160a01b03166113c66119cd565b6001600160a01b031614611421576040805162461bcd60e51b815260206004820181905260248201527f4f776e61626c653a2063616c6c6572206973206e6f7420746865206f776e6572604482015290519081900360640190fd5b604080517f58fdd79b00000000000000000000000000000000000000000000000000000000815260c9600482015260248101849052604481018390529051732b7A5a5923ECa5C00c6572Cf3E8e08384F563F93916358fdd79b916064808301926000929190829003018186803b15801561149a57600080fd5b505af41580156114ae573d6000803e3d6000fd5b505050505050565b60655460ff1690565b60c95460ca5460cb5460cc5460cd5460ce5460cf546001600160a01b031687565b6001600160a01b038116600081815260d36020526040812054909160ff9091169061150a82611643565b6001600160a01b031614611565576040805162461bcd60e51b815260206004820152601460248201527f546f6b656e20646f6573206e6f74206578697374000000000000000000000000604482015290519081900360640190fd5b90505b919050565b6115756125f6565b6001600160a01b03166115866119cd565b6001600160a01b0316146115e1576040805162461bcd60e51b815260206004820181905260248201527f4f776e61626c653a2063616c6c6572206973206e6f7420746865206f776e6572604482015290519081900360640190fd5b6033546040516000916001600160a01b0316907f8be0079c531659141344cd1fd0a4f28419497f9722a3daafe3b4186f6b6457e0908390a3603380547fffffffffffffffffffffffff0000000000000000000000000000000000000000169055565b60d05460009060ff83161061169f576040805162461bcd60e51b815260206004820152600c60248201527f4f7574206f662072616e67650000000000000000000000000000000000000000604482015290519081900360640190fd5b60d0805460ff84169081106116b057fe5b6000918252602090912001546001600160a01b031692915050565b6116d36125f6565b6001600160a01b03166116e46119cd565b6001600160a01b03161461173f576040805162461bcd60e51b815260206004820181905260248201527f4f776e61626c653a2063616c6c6572206973206e6f7420746865206f776e6572604482015290519081900360640190fd5b610b236126a3565b6000600260975414156117a1576040805162461bcd60e51b815260206004820152601f60248201527f5265656e7472616e637947756172643a207265656e7472616e742063616c6c00604482015290519081900360640190fd5b60026097556117ae6114b6565b15611800576040805162461bcd60e51b815260206004820152601060248201527f5061757361626c653a2070617573656400000000000000000000000000000000604482015290519081900360640190fd5b8180421115611856576040805162461bcd60e51b815260206004820152601060248201527f446561646c696e65206e6f74206d657400000000000000000000000000000000604482015290519081900360640190fd5b60c9734f6A43Ad7cba042606dECaCA730d4CE0A57ac62e6341b91c2690918888886040518563ffffffff1660e01b815260040180858152602001806020018381526020018281038252858582818152602001925060200280828437600081840152601f19601f8201169050808301925050509550505050505060206040518083038186803b15801561115657600080fd5b6118ef6125f6565b6001600160a01b03166119006119cd565b6001600160a01b03161461195b576040805162461bcd60e51b815260206004820181905260248201527f4f776e61626c653a2063616c6c6572206973206e6f7420746865206f776e6572604482015290519081900360640190fd5b604080517f7046727600000000000000000000000000000000000000000000000000000000815260c96004820152602481018390529051734f6A43Ad7cba042606dECaCA730d4CE0A57ac62e916370467276916044808301926000929190829003018186803b158015610faa57600080fd5b6033546001600160a01b031690565b600060026097541415611a36576040805162461bcd60e51b815260206004820152601f60248201527f5265656e7472616e637947756172643a207265656e7472616e742063616c6c00604482015290519081900360640190fd5b6002609755611a436114b6565b15611a95576040805162461bcd60e51b815260206004820152601060248201527f5061757361626c653a2070617573656400000000000000000000000000000000604482015290519081900360640190fd5b8180421115611aeb576040805162461bcd60e51b815260206004820152601060248201527f446561646c696e65206e6f74206d657400000000000000000000000000000000604482015290519081900360640190fd5b604080517fa5397b2200000000000000000000000000000000000000000000000000000000815260c9600482015260ff808a1660248301528816604482015260648101879052608481018690529051734f6A43Ad7cba042606dECaCA730d4CE0A57ac62e9163a5397b229160a4808301926020929190829003018186803b158015611b7557600080fd5b505af4158015611b89573d6000803e3d6000fd5b505050506040513d6020811015611b9f57600080fd5b50516001609755979650505050505050565b60d05460009060ff831610611c0d576040805162461bcd60e51b815260206004820152601260248201527f496e646578206f7574206f662072616e67650000000000000000000000000000604482015290519081900360640190fd5b60d2805460ff8416908110611c1e57fe5b90600052602060002001549050919050565b7f466565436f6c6c6563746f72000000000000000000000000000000000000000081565b604080517f4b23603c00000000000000000000000000000000000000000000000000000000815260c9600482015260ff808616602483015284166044820152606481018390529051600091734f6A43Ad7cba042606dECaCA730d4CE0A57ac62e91634b23603c91608480820192602092909190829003018186803b158015611cdb57600080fd5b505af4158015611cef573d6000803e3d6000fd5b505050506040513d6020811015611d0557600080fd5b505190505b9392505050565b7f000000000000000000000000000000000000000000000000000000000000000081565b600054610100900460ff1680611d4e5750611d4e612733565b80611d5c575060005460ff16155b611d975760405162461bcd60e51b815260040180806020018281038252602e8152602001806139cf602e913960400191505060405180910390fd5b600054610100900460ff16158015611dc2576000805460ff1961ff0019909116610100171660011790555b611dd28989898989898989612744565b611dfb7f00000000000000000000000000000000000000000000000000000000000000006124c9565b8015611e0d576000805461ff00191690555b505050505050505050565b60d4546001600160a01b031681565b611e2f6125f6565b6001600160a01b0316611e406119cd565b6001600160a01b031614611e9b576040805162461bcd60e51b815260206004820181905260248201527f4f776e61626c653a2063616c6c6572206973206e6f7420746865206f776e6572604482015290519081900360640190fd5b604080517ff14e211e00000000000000000000000000000000000000000000000000000000815260c960048201529051732b7A5a5923ECa5C00c6572Cf3E8e08384F563F939163f14e211e916024808301926000929190829003018186803b158015611f0657600080fd5b505af4158015611f1a573d6000803e3d6000fd5b50505050565b600060c9732b7A5a5923ECa5C00c6572Cf3E8e08384F563F9363b0a14cfc90916040518263ffffffff1660e01b81526004018082815260200191505060206040518083038186803b158015610b7957600080fd5b600060c9734f6A43Ad7cba042606dECaCA730d4CE0A57ac62e6371906c2c90916040518263ffffffff1660e01b81526004018082815260200191505060206040518083038186803b158015610b7957600080fd5b600060c9734f6A43Ad7cba042606dECaCA730d4CE0A57ac62e63834b491090918686866040518563ffffffff1660e01b8152600401808581526020018060200183151581526020018281038252858582818152602001925060200280828437600081840152601f19601f8201169050808301925050509550505050505060206040518083038186803b158015611cdb57600080fd5b600060c9734f6A43Ad7cba042606dECaCA730d4CE0A57ac62e637d0481609091846040518363ffffffff1660e01b8152600401808381526020018281526020019250505060206040518083038186803b1580156120b957600080fd5b505af41580156120cd573d6000803e3d6000fd5b505050506040513d60208110156120e357600080fd5b505192915050565b606060c9734f6A43Ad7cba042606dECaCA730d4CE0A57ac62e6370703e4a9091846040518363ffffffff1660e01b8152600401808381526020018281526020019250505060006040518083038186803b15801561214757600080fd5b505af415801561215b573d6000803e3d6000fd5b505050506040513d6000823e601f3d9081017fffffffffffffffffffffffffffffffffffffffffffffffffffffffffffffffe016820160405260208110156121a257600080fd5b81019080805160405193929190846401000000008211156121c257600080fd5b9083019060208201858111156121d757600080fd5b82518660208202830111640100000000821117156121f457600080fd5b82525081516020918201928201910280838360005b83811015612221578181015183820152602001612209565b505050509050016040525050509050919050565b61223d6125f6565b6001600160a01b031661224e6119cd565b6001600160a01b0316146122a9576040805162461bcd60e51b815260206004820181905260248201527f4f776e61626c653a2063616c6c6572206973206e6f7420746865206f776e6572604482015290519081900360640190fd5b6001600160a01b0381166122ee5760405162461bcd60e51b81526004018080602001828103825260268152602001806139836026913960400191505060405180910390fd5b6033546040516001600160a01b038084169216907f8be0079c531659141344cd1fd0a4f28419497f9722a3daafe3b4186f6b6457e090600090a3603380547fffffffffffffffffffffffff0000000000000000000000000000000000000000166001600160a01b0392909216919091179055565b6060836007018054806020026020016040519081016040528092919081815260200182805480156123bc57602002820191906000526020600020905b81546001600160a01b0316815260019091019060200180831161239e575b5050505050905060005b8151811015610fbe5760008282815181106123dd57fe5b60200260200101519050600060026124878860090185815481106123fd57fe5b9060005260206000200154846001600160a01b03166370a08231306040518263ffffffff1660e01b815260040180826001600160a01b0316815260200191505060206040518083038186803b15801561245557600080fd5b505afa158015612469573d6000803e3d6000fd5b505050506040513d602081101561247f57600080fd5b505190612f3f565b8161248e57fe5b04905080156124bf576124ab6001600160a01b0383168783612f9c565b6124bf6001600160a01b0383168683612f9c565b50506001016123c6565b6000816001600160a01b0316633705f6257f466565436f6c6c6563746f72000000000000000000000000000000000000000060001b6040518263ffffffff1660e01b81526004018082815260200191505060206040518083038186803b15801561253257600080fd5b505afa158015612546573d6000803e3d6000fd5b505050506040513d602081101561255c57600080fd5b505190506001600160a01b0381166125bb576040805162461bcd60e51b815260206004820152601d60248201527f46656520636f6c6c6563746f722063616e6e6f7420626520656d707479000000604482015290519081900360640190fd5b60d480547fffffffffffffffffffffffff0000000000000000000000000000000000000000166001600160a01b039290921691909117905550565b3390565b6126026114b6565b612653576040805162461bcd60e51b815260206004820152601460248201527f5061757361626c653a206e6f7420706175736564000000000000000000000000604482015290519081900360640190fd5b6065805460ff191690557f5db9ee0a495bf2e6ff9c91a7834c1ba4fdd244a5e8aa4e537bd38aeae4b073aa6126866125f6565b604080516001600160a01b039092168252519081900360200190a1565b6126ab6114b6565b156126fd576040805162461bcd60e51b815260206004820152601060248201527f5061757361626c653a2070617573656400000000000000000000000000000000604482015290519081900360640190fd5b6065805460ff191660011790557f62e78cea01bee320cd4e420270b5ea74000d11b0c9f74754ebdbfc544b05a2586126866125f6565b600061273e30613021565b15905090565b600054610100900460ff168061275d575061275d612733565b8061276b575060005460ff16155b6127a65760405162461bcd60e51b815260040180806020018281038252602e8152602001806139cf602e913960400191505060405180910390fd5b600054610100900460ff161580156127d1576000805460ff1961ff0019909116610100171660011790555b6127d9613027565b6127e16130e1565b6001895111612837576040805162461bcd60e51b815260206004820152601960248201527f5f706f6f6c6564546f6b656e732e6c656e677468203c3d203100000000000000604482015290519081900360640190fd5b60208951111561288e576040805162461bcd60e51b815260206004820152601960248201527f5f706f6f6c6564546f6b656e732e6c656e677468203e20333200000000000000604482015290519081900360640190fd5b87518951146128e4576040805162461bcd60e51b815260206004820152601f60248201527f5f706f6f6c6564546f6b656e7320646563696d616c73206d69736d6174636800604482015290519081900360640190fd5b6060885167ffffffffffffffff811180156128fe57600080fd5b50604051908082528060200260200182016040528015612928578160200160208202803683370190505b50905060005b8a518160ff161015612ba65760ff811615612a175760d360008c8360ff168151811061295657fe5b6020908102919091018101516001600160a01b031682528101919091526040016000205460ff161580156129c657508a8160ff168151811061299457fe5b60200260200101516001600160a01b03168b6000815181106129b257fe5b60200260200101516001600160a01b031614155b612a17576040805162461bcd60e51b815260206004820152601060248201527f4475706c696361746520746f6b656e7300000000000000000000000000000000604482015290519081900360640190fd5b60006001600160a01b03168b8260ff1681518110612a3157fe5b60200260200101516001600160a01b03161415612a95576040805162461bcd60e51b815260206004820152601d60248201527f546865203020616464726573732069736e277420616e204552432d3230000000604482015290519081900360640190fd5b601260ff168a8260ff1681518110612aa957fe5b602002602001015160ff161115612b07576040805162461bcd60e51b815260206004820152601a60248201527f546f6b656e20646563696d616c732065786365656473206d6178000000000000604482015290519081900360640190fd5b612b378a8260ff1681518110612b1957fe5b602002602001015160ff16601260ff16612f3f90919063ffffffff16565b600a0a828260ff1681518110612b4957fe5b6020026020010181815250508060d360008d8460ff1681518110612b6957fe5b6020908102919091018101516001600160a01b03168252810191909152604001600020805460ff191660ff9290921691909117905560010161292e565b50620f42408610612bfe576040805162461bcd60e51b815260206004820152601260248201527f5f612065786365656473206d6178696d756d0000000000000000000000000000604482015290519081900360640190fd5b6305f5e1008510612c56576040805162461bcd60e51b815260206004820152601460248201527f5f6665652065786365656473206d6178696d756d000000000000000000000000604482015290519081900360640190fd5b6402540be4008410612caf576040805162461bcd60e51b815260206004820152601960248201527f5f61646d696e4665652065786365656473206d6178696d756d00000000000000604482015290519081900360640190fd5b6000612cba84613176565b9050806001600160a01b0316634cd88b768a8a6040518363ffffffff1660e01b8152600401808060200180602001838103835285818151815260200191508051906020019080838360005b83811015612d1d578181015183820152602001612d05565b50505050905090810190601f168015612d4a5780820380516001836020036101000a031916815260200191505b50838103825284518152845160209182019186019080838360005b83811015612d7d578181015183820152602001612d65565b50505050905090810190601f168015612daa5780820380516001836020036101000a031916815260200191505b50945050505050602060405180830381600087803b158015612dcb57600080fd5b505af1158015612ddf573d6000803e3d6000fd5b505050506040513d6020811015612df557600080fd5b5051612e48576040805162461bcd60e51b815260206004820152601c60248201527f636f756c64206e6f7420696e6974206c70546f6b656e20636c6f6e6500000000604482015290519081900360640190fd5b60cf80547fffffffffffffffffffffffff0000000000000000000000000000000000000000166001600160a01b0383161790558a51612e8e9060d09060208e0190613872565b508151612ea29060d19060208501906138ef565b508a5167ffffffffffffffff81118015612ebb57600080fd5b50604051908082528060200260200182016040528015612ee5578160200160208202803683370190505b508051612efa9160d2916020909101906138ef565b50612f06876064613231565b60c955612f14876064613231565b60ca55505060cd84905560ce8390558015611e0d576000805461ff0019169055505050505050505050565b600082821115612f96576040805162461bcd60e51b815260206004820152601e60248201527f536166654d6174683a207375627472616374696f6e206f766572666c6f770000604482015290519081900360640190fd5b50900390565b604080516001600160a01b038416602482015260448082018490528251808303909101815260649091019091526020810180517bffffffffffffffffffffffffffffffffffffffffffffffffffffffff167fa9059cbb0000000000000000000000000000000000000000000000000000000017905261301c90849061328a565b505050565b3b151590565b600054610100900460ff16806130405750613040612733565b8061304e575060005460ff16155b6130895760405162461bcd60e51b815260040180806020018281038252602e8152602001806139cf602e913960400191505060405180910390fd5b600054610100900460ff161580156130b4576000805460ff1961ff0019909116610100171660011790555b6130bc61333b565b6130c46133db565b6130cc6134ec565b80156130de576000805461ff00191690555b50565b600054610100900460ff16806130fa57506130fa612733565b80613108575060005460ff16155b6131435760405162461bcd60e51b815260040180806020018281038252602e8152602001806139cf602e913960400191505060405180910390fd5b600054610100900460ff1615801561316e576000805460ff1961ff0019909116610100171660011790555b6130cc613597565b60006040517f3d602d80600a3d3981f3363d3d373d3d3d363d7300000000000000000000000081528260601b60148201527f5af43d82803e903d91602b57fd5bf3000000000000000000000000000000000060288201526037816000f09150506001600160a01b038116611568576040805162461bcd60e51b815260206004820152601660248201527f455243313136373a20637265617465206661696c656400000000000000000000604482015290519081900360640190fd5b60008261324057506000610ebe565b8282028284828161324d57fe5b0414611d0a5760405162461bcd60e51b81526004018080602001828103825260218152602001806139fd6021913960400191505060405180910390fd5b60606132df826040518060400160405280602081526020017f5361666545524332303a206c6f772d6c6576656c2063616c6c206661696c6564815250856001600160a01b031661363d9092919063ffffffff16565b80519091501561301c578080602001905160208110156132fe57600080fd5b505161301c5760405162461bcd60e51b815260040180806020018281038252602a815260200180613a1e602a913960400191505060405180910390fd5b600054610100900460ff16806133545750613354612733565b80613362575060005460ff16155b61339d5760405162461bcd60e51b815260040180806020018281038252602e8152602001806139cf602e913960400191505060405180910390fd5b600054610100900460ff161580156130cc576000805460ff1961ff00199091166101001716600117905580156130de576000805461ff001916905550565b600054610100900460ff16806133f457506133f4612733565b80613402575060005460ff16155b61343d5760405162461bcd60e51b815260040180806020018281038252602e8152602001806139cf602e913960400191505060405180910390fd5b600054610100900460ff16158015613468576000805460ff1961ff0019909116610100171660011790555b60006134726125f6565b603380547fffffffffffffffffffffffff0000000000000000000000000000000000000000166001600160a01b038316908117909155604051919250906000907f8be0079c531659141344cd1fd0a4f28419497f9722a3daafe3b4186f6b6457e0908290a35080156130de576000805461ff001916905550565b600054610100900460ff16806135055750613505612733565b80613513575060005460ff16155b61354e5760405162461bcd60e51b815260040180806020018281038252602e8152602001806139cf602e913960400191505060405180910390fd5b600054610100900460ff16158015613579576000805460ff1961ff0019909116610100171660011790555b6065805460ff1916905580156130de576000805461ff001916905550565b600054610100900460ff16806135b057506135b0612733565b806135be575060005460ff16155b6135f95760405162461bcd60e51b815260040180806020018281038252602e8152602001806139cf602e913960400191505060405180910390fd5b600054610100900460ff16158015613624576000805460ff1961ff0019909116610100171660011790555b600160975580156130de576000805461ff001916905550565b606061364c8484600085613654565b949350505050565b6060824710156136955760405162461bcd60e51b81526004018080602001828103825260268152602001806139a96026913960400191505060405180910390fd5b61369e85613021565b6136ef576040805162461bcd60e51b815260206004820152601d60248201527f416464726573733a2063616c6c20746f206e6f6e2d636f6e7472616374000000604482015290519081900360640190fd5b60006060866001600160a01b031685876040518082805190602001908083835b6020831061374c57805182527fffffffffffffffffffffffffffffffffffffffffffffffffffffffffffffffe0909201916020918201910161370f565b6001836020036101000a03801982511681845116808217855250505050505090500191505060006040518083038185875af1925050503d80600081146137ae576040519150601f19603f3d011682016040523d82523d6000602084013e6137b3565b606091505b50915091506137c38282866137ce565b979650505050505050565b606083156137dd575081611d0a565b8251156137ed5782518084602001fd5b8160405162461bcd60e51b81526004018080602001828103825283818151815260200191508051906020019080838360005b8381101561383757818101518382015260200161381f565b50505050905090810190601f1680156138645780820380516001836020036101000a031916815260200191505b509250505060405180910390fd5b8280548282559060005260206000209081019282156138df579160200282015b828111156138df57825182547fffffffffffffffffffffffff0000000000000000000000000000000000000000166001600160a01b03909116178255602090920191600190910190613892565b506138eb929150613936565b5090565b82805482825590600052602060002090810192821561392a579160200282015b8281111561392a57825182559160200191906001019061390f565b506138eb92915061396d565b5b808211156138eb5780547fffffffffffffffffffffffff0000000000000000000000000000000000000000168155600101613937565b5b808211156138eb576000815560010161396e56fe4f776e61626c653a206e6577206f776e657220697320746865207a65726f2061646472657373416464726573733a20696e73756666696369656e742062616c616e636520666f722063616c6c496e697469616c697a61626c653a20636f6e747261637420697320616c726561647920696e697469616c697a6564536166654d6174683a206d756c7469706c69636174696f6e206f766572666c6f775361666545524332303a204552433230206f7065726174696f6e20646964206e6f742073756363656564a26469706673582212206765335d9020510e073158c490531fc068b88a389f5a3a37b595685397d6ec3664736f6c634300060c0033",
  "deployedBytecode": "0x6080604052600436106101fe5760003560e01c806384cdd9bc1161011d578063b28cb6dc116100b0578063e25aa5fa1161007f578063ef0a712f11610064578063ef0a712f146109fc578063f2fad2b614610a26578063f2fde38b14610a50576101fe565b8063e25aa5fa14610968578063e6ab28061461097d576101fe565b8063b28cb6dc146106e6578063c415b95c14610936578063c4db7fa01461094b578063d46300fd14610953576101fe565b806391ceb3eb116100ec57806391ceb3eb14610652578063a43443901461067f578063a95b089f14610694578063ac841ed9146106d1576101fe565b806384cdd9bc1461056e5780638beb60b6146105e45780638da5cb5b146106015780639169558614610616576101fe565b80634d49e87d1161019557806366c0bd241161016457806366c0bd24146104b2578063715018a6146104fb57806382b86600146105105780638456cb5914610559576101fe565b80634d49e87d1461039a578063593d132c146104105780635c975abb146104335780635fd65f0f1461045c576101fe565b8063342a87a1116101d1578063342a87a11461030357806334e19907146103365780633e3a1560146103535780633f4ba83a14610385576101fe565b80630419b45a146102035780630ba819591461020d5780632472374d1461023457806331cd52b01461023c575b600080fd5b61020b610a83565b005b34801561021957600080fd5b50610222610b25565b60408051918252519081900360200190f35b61020b610baa565b6102b36004803603606081101561025257600080fd5b8135919081019060408101602082013564010000000081111561027457600080fd5b82018360208201111561028657600080fd5b803590602001918460208302840111640100000000831117156102a857600080fd5b919350915035610bd3565b60408051602080825283518183015283519192839290830191858101910280838360005b838110156102ef5781810151838201526020016102d7565b505050509050019250505060405180910390f35b34801561030f57600080fd5b506102226004803603604081101561032657600080fd5b508035906020013560ff16610e10565b61020b6004803603602081101561034c57600080fd5b5035610ec4565b6102226004803603608081101561036957600080fd5b5080359060ff6020820135169060408101359060600135610fc5565b34801561039157600080fd5b5061020b611191565b610222600480360360608110156103b057600080fd5b8101906020810181356401000000008111156103cb57600080fd5b8201836020820111156103dd57600080fd5b803590602001918460208302840111640100000000831117156103ff57600080fd5b91935091508035906020013561120d565b61020b6004803603604081101561042657600080fd5b50803590602001356113ad565b34801561043f57600080fd5b506104486114b6565b604080519115158252519081900360200190f35b34801561046857600080fd5b506104716114bf565b604080519788526020880196909652868601949094526060860192909252608085015260a08401526001600160a01b031660c0830152519081900360e00190f35b3480156104be57600080fd5b506104e5600480360360208110156104d557600080fd5b50356001600160a01b03166114e0565b6040805160ff9092168252519081900360200190f35b34801561050757600080fd5b5061020b61156d565b34801561051c57600080fd5b5061053d6004803603602081101561053357600080fd5b503560ff16611643565b604080516001600160a01b039092168252519081900360200190f35b34801561056557600080fd5b5061020b6116cb565b6102226004803603606081101561058457600080fd5b81019060208101813564010000000081111561059f57600080fd5b8201836020820111156105b157600080fd5b803590602001918460208302840111640100000000831117156105d357600080fd5b919350915080359060200135611747565b61020b600480360360208110156105fa57600080fd5b50356118e7565b34801561060d57600080fd5b5061053d6119cd565b610222600480360360a081101561062c57600080fd5b5060ff8135811691602081013590911690604081013590606081013590608001356119dc565b34801561065e57600080fd5b506102226004803603602081101561067557600080fd5b503560ff16611bb1565b34801561068b57600080fd5b50610222611c30565b3480156106a057600080fd5b50610222600480360360608110156106b757600080fd5b5060ff813581169160208101359091169060400135611c54565b3480156106dd57600080fd5b5061053d611d11565b61020b60048036036101008110156106fd57600080fd5b81019060208101813564010000000081111561071857600080fd5b82018360208201111561072a57600080fd5b8035906020019184602083028401116401000000008311171561074c57600080fd5b919080806020026020016040519081016040528093929190818152602001838360200280828437600092019190915250929594936020810193503591505064010000000081111561079c57600080fd5b8201836020820111156107ae57600080fd5b803590602001918460208302840111640100000000831117156107d057600080fd5b919080806020026020016040519081016040528093929190818152602001838360200280828437600092019190915250929594936020810193503591505064010000000081111561082057600080fd5b82018360208201111561083257600080fd5b8035906020019184600183028401116401000000008311171561085457600080fd5b91908080601f01602080910402602001604051908101604052809392919081815260200183838082843760009201919091525092959493602081019350359150506401000000008111156108a757600080fd5b8201836020820111156108b957600080fd5b803590602001918460018302840111640100000000831117156108db57600080fd5b91908080601f01602080910402602001604051908101604052809392919081815260200183838082843760009201919091525092955050823593505050602081013590604081013590606001356001600160a01b0316611d35565b34801561094257600080fd5b5061053d611e18565b61020b611e27565b34801561095f57600080fd5b50610222611f20565b34801561097457600080fd5b50610222611f74565b34801561098957600080fd5b50610222600480360360408110156109a057600080fd5b8101906020810181356401000000008111156109bb57600080fd5b8201836020820111156109cd57600080fd5b803590602001918460208302840111640100000000831117156109ef57600080fd5b9193509150351515611fc8565b348015610a0857600080fd5b5061022260048036036020811015610a1f57600080fd5b503561205d565b348015610a3257600080fd5b506102b360048036036020811015610a4957600080fd5b50356120eb565b348015610a5c57600080fd5b5061020b60048036036020811015610a7357600080fd5b50356001600160a01b0316612235565b610a8b6119cd565b6001600160a01b0316336001600160a01b03161480610ab4575060d4546001600160a01b031633145b610b05576040805162461bcd60e51b815260206004820152601860248201527f43616c6c6572206973206e6f7420617574686f72697a65640000000000000000604482015290519081900360640190fd5b610b2360c9610b126119cd565b60d4546001600160a01b0316612362565b565b600060c973__$a50a14a4f4d416df093fe8223c9bbe01e7$__63c9b64dcb90916040518263ffffffff1660e01b81526004018082815260200191505060206040518083038186803b158015610b7957600080fd5b505af4158015610b8d573d6000803e3d6000fd5b505050506040513d6020811015610ba357600080fd5b5051905090565b610b237f00000000000000000000000000000000000000000000000000000000000000006124c9565b606060026097541415610c2d576040805162461bcd60e51b815260206004820152601f60248201527f5265656e7472616e637947756172643a207265656e7472616e742063616c6c00604482015290519081900360640190fd5b60026097558142811015610c88576040805162461bcd60e51b815260206004820152601060248201527f446561646c696e65206e6f74206d657400000000000000000000000000000000604482015290519081900360640190fd5b60c973__$a4e4384d4f8ec13c7a898ae597a4175ef6$__6373fd6b3e90918888886040518563ffffffff1660e01b815260040180858152602001848152602001806020018281038252848482818152602001925060200280828437600081840152601f19601f8201169050808301925050509550505050505060006040518083038186803b158015610d1957600080fd5b505af4158015610d2d573d6000803e3d6000fd5b505050506040513d6000823e601f3d9081017fffffffffffffffffffffffffffffffffffffffffffffffffffffffffffffffe01682016040526020811015610d7457600080fd5b8101908080516040519392919084640100000000821115610d9457600080fd5b908301906020820185811115610da957600080fd5b8251866020820283011164010000000082111715610dc657600080fd5b82525081516020918201928201910280838360005b83811015610df3578181015183820152602001610ddb565b505050509050016040525050509150506001609755949350505050565b604080517fe069274200000000000000000000000000000000000000000000000000000000815260c960048201526024810184905260ff83166044820152905160009173__$a4e4384d4f8ec13c7a898ae597a4175ef6$__9163e069274291606480820192602092909190829003018186803b158015610e8f57600080fd5b505af4158015610ea3573d6000803e3d6000fd5b505050506040513d6020811015610eb957600080fd5b505190505b92915050565b610ecc6125f6565b6001600160a01b0316610edd6119cd565b6001600160a01b031614610f38576040805162461bcd60e51b815260206004820181905260248201527f4f776e61626c653a2063616c6c6572206973206e6f7420746865206f776e6572604482015290519081900360640190fd5b604080517f467e186c00000000000000000000000000000000000000000000000000000000815260c9600482015260248101839052905173__$a4e4384d4f8ec13c7a898ae597a4175ef6$__9163467e186c916044808301926000929190829003018186803b158015610faa57600080fd5b505af4158015610fbe573d6000803e3d6000fd5b5050505050565b60006002609754141561101f576040805162461bcd60e51b815260206004820152601f60248201527f5265656e7472616e637947756172643a207265656e7472616e742063616c6c00604482015290519081900360640190fd5b600260975561102c6114b6565b1561107e576040805162461bcd60e51b815260206004820152601060248201527f5061757361626c653a2070617573656400000000000000000000000000000000604482015290519081900360640190fd5b81804211156110d4576040805162461bcd60e51b815260206004820152601060248201527f446561646c696e65206e6f74206d657400000000000000000000000000000000604482015290519081900360640190fd5b604080517fe7a4db8100000000000000000000000000000000000000000000000000000000815260c960048201526024810188905260ff8716604482015260648101869052905173__$a4e4384d4f8ec13c7a898ae597a4175ef6$__9163e7a4db81916084808301926020929190829003018186803b15801561115657600080fd5b505af415801561116a573d6000803e3d6000fd5b505050506040513d602081101561118057600080fd5b505160016097559695505050505050565b6111996125f6565b6001600160a01b03166111aa6119cd565b6001600160a01b031614611205576040805162461bcd60e51b815260206004820181905260248201527f4f776e61626c653a2063616c6c6572206973206e6f7420746865206f776e6572604482015290519081900360640190fd5b610b236125fa565b600060026097541415611267576040805162461bcd60e51b815260206004820152601f60248201527f5265656e7472616e637947756172643a207265656e7472616e742063616c6c00604482015290519081900360640190fd5b60026097556112746114b6565b156112c6576040805162461bcd60e51b815260206004820152601060248201527f5061757361626c653a2070617573656400000000000000000000000000000000604482015290519081900360640190fd5b818042111561131c576040805162461bcd60e51b815260206004820152601060248201527f446561646c696e65206e6f74206d657400000000000000000000000000000000604482015290519081900360640190fd5b60c973__$a4e4384d4f8ec13c7a898ae597a4175ef6$__6340370edf90918888886040518563ffffffff1660e01b815260040180858152602001806020018381526020018281038252858582818152602001925060200280828437600081840152601f19601f8201169050808301925050509550505050505060206040518083038186803b15801561115657600080fd5b6113b56125f6565b6001600160a01b03166113c66119cd565b6001600160a01b031614611421576040805162461bcd60e51b815260206004820181905260248201527f4f776e61626c653a2063616c6c6572206973206e6f7420746865206f776e6572604482015290519081900360640190fd5b604080517f58fdd79b00000000000000000000000000000000000000000000000000000000815260c960048201526024810184905260448101839052905173__$a50a14a4f4d416df093fe8223c9bbe01e7$__916358fdd79b916064808301926000929190829003018186803b15801561149a57600080fd5b505af41580156114ae573d6000803e3d6000fd5b505050505050565b60655460ff1690565b60c95460ca5460cb5460cc5460cd5460ce5460cf546001600160a01b031687565b6001600160a01b038116600081815260d36020526040812054909160ff9091169061150a82611643565b6001600160a01b031614611565576040805162461bcd60e51b815260206004820152601460248201527f546f6b656e20646f6573206e6f74206578697374000000000000000000000000604482015290519081900360640190fd5b90505b919050565b6115756125f6565b6001600160a01b03166115866119cd565b6001600160a01b0316146115e1576040805162461bcd60e51b815260206004820181905260248201527f4f776e61626c653a2063616c6c6572206973206e6f7420746865206f776e6572604482015290519081900360640190fd5b6033546040516000916001600160a01b0316907f8be0079c531659141344cd1fd0a4f28419497f9722a3daafe3b4186f6b6457e0908390a3603380547fffffffffffffffffffffffff0000000000000000000000000000000000000000169055565b60d05460009060ff83161061169f576040805162461bcd60e51b815260206004820152600c60248201527f4f7574206f662072616e67650000000000000000000000000000000000000000604482015290519081900360640190fd5b60d0805460ff84169081106116b057fe5b6000918252602090912001546001600160a01b031692915050565b6116d36125f6565b6001600160a01b03166116e46119cd565b6001600160a01b03161461173f576040805162461bcd60e51b815260206004820181905260248201527f4f776e61626c653a2063616c6c6572206973206e6f7420746865206f776e6572604482015290519081900360640190fd5b610b236126a3565b6000600260975414156117a1576040805162461bcd60e51b815260206004820152601f60248201527f5265656e7472616e637947756172643a207265656e7472616e742063616c6c00604482015290519081900360640190fd5b60026097556117ae6114b6565b15611800576040805162461bcd60e51b815260206004820152601060248201527f5061757361626c653a2070617573656400000000000000000000000000000000604482015290519081900360640190fd5b8180421115611856576040805162461bcd60e51b815260206004820152601060248201527f446561646c696e65206e6f74206d657400000000000000000000000000000000604482015290519081900360640190fd5b60c973__$a4e4384d4f8ec13c7a898ae597a4175ef6$__6341b91c2690918888886040518563ffffffff1660e01b815260040180858152602001806020018381526020018281038252858582818152602001925060200280828437600081840152601f19601f8201169050808301925050509550505050505060206040518083038186803b15801561115657600080fd5b6118ef6125f6565b6001600160a01b03166119006119cd565b6001600160a01b03161461195b576040805162461bcd60e51b815260206004820181905260248201527f4f776e61626c653a2063616c6c6572206973206e6f7420746865206f776e6572604482015290519081900360640190fd5b604080517f7046727600000000000000000000000000000000000000000000000000000000815260c9600482015260248101839052905173__$a4e4384d4f8ec13c7a898ae597a4175ef6$__916370467276916044808301926000929190829003018186803b158015610faa57600080fd5b6033546001600160a01b031690565b600060026097541415611a36576040805162461bcd60e51b815260206004820152601f60248201527f5265656e7472616e637947756172643a207265656e7472616e742063616c6c00604482015290519081900360640190fd5b6002609755611a436114b6565b15611a95576040805162461bcd60e51b815260206004820152601060248201527f5061757361626c653a2070617573656400000000000000000000000000000000604482015290519081900360640190fd5b8180421115611aeb576040805162461bcd60e51b815260206004820152601060248201527f446561646c696e65206e6f74206d657400000000000000000000000000000000604482015290519081900360640190fd5b604080517fa5397b2200000000000000000000000000000000000000000000000000000000815260c9600482015260ff808a166024830152881660448201526064810187905260848101869052905173__$a4e4384d4f8ec13c7a898ae597a4175ef6$__9163a5397b229160a4808301926020929190829003018186803b158015611b7557600080fd5b505af4158015611b89573d6000803e3d6000fd5b505050506040513d6020811015611b9f57600080fd5b50516001609755979650505050505050565b60d05460009060ff831610611c0d576040805162461bcd60e51b815260206004820152601260248201527f496e646578206f7574206f662072616e67650000000000000000000000000000604482015290519081900360640190fd5b60d2805460ff8416908110611c1e57fe5b90600052602060002001549050919050565b7f466565436f6c6c6563746f72000000000000000000000000000000000000000081565b604080517f4b23603c00000000000000000000000000000000000000000000000000000000815260c9600482015260ff80861660248301528416604482015260648101839052905160009173__$a4e4384d4f8ec13c7a898ae597a4175ef6$__91634b23603c91608480820192602092909190829003018186803b158015611cdb57600080fd5b505af4158015611cef573d6000803e3d6000fd5b505050506040513d6020811015611d0557600080fd5b505190505b9392505050565b7f000000000000000000000000000000000000000000000000000000000000000081565b600054610100900460ff1680611d4e5750611d4e612733565b80611d5c575060005460ff16155b611d975760405162461bcd60e51b815260040180806020018281038252602e8152602001806139cf602e913960400191505060405180910390fd5b600054610100900460ff16158015611dc2576000805460ff1961ff0019909116610100171660011790555b611dd28989898989898989612744565b611dfb7f00000000000000000000000000000000000000000000000000000000000000006124c9565b8015611e0d576000805461ff00191690555b505050505050505050565b60d4546001600160a01b031681565b611e2f6125f6565b6001600160a01b0316611e406119cd565b6001600160a01b031614611e9b576040805162461bcd60e51b815260206004820181905260248201527f4f776e61626c653a2063616c6c6572206973206e6f7420746865206f776e6572604482015290519081900360640190fd5b604080517ff14e211e00000000000000000000000000000000000000000000000000000000815260c96004820152905173__$a50a14a4f4d416df093fe8223c9bbe01e7$__9163f14e211e916024808301926000929190829003018186803b158015611f0657600080fd5b505af4158015611f1a573d6000803e3d6000fd5b50505050565b600060c973__$a50a14a4f4d416df093fe8223c9bbe01e7$__63b0a14cfc90916040518263ffffffff1660e01b81526004018082815260200191505060206040518083038186803b158015610b7957600080fd5b600060c973__$a4e4384d4f8ec13c7a898ae597a4175ef6$__6371906c2c90916040518263ffffffff1660e01b81526004018082815260200191505060206040518083038186803b158015610b7957600080fd5b600060c973__$a4e4384d4f8ec13c7a898ae597a4175ef6$__63834b491090918686866040518563ffffffff1660e01b8152600401808581526020018060200183151581526020018281038252858582818152602001925060200280828437600081840152601f19601f8201169050808301925050509550505050505060206040518083038186803b158015611cdb57600080fd5b600060c973__$a4e4384d4f8ec13c7a898ae597a4175ef6$__637d0481609091846040518363ffffffff1660e01b8152600401808381526020018281526020019250505060206040518083038186803b1580156120b957600080fd5b505af41580156120cd573d6000803e3d6000fd5b505050506040513d60208110156120e357600080fd5b505192915050565b606060c973__$a4e4384d4f8ec13c7a898ae597a4175ef6$__6370703e4a9091846040518363ffffffff1660e01b8152600401808381526020018281526020019250505060006040518083038186803b15801561214757600080fd5b505af415801561215b573d6000803e3d6000fd5b505050506040513d6000823e601f3d9081017fffffffffffffffffffffffffffffffffffffffffffffffffffffffffffffffe016820160405260208110156121a257600080fd5b81019080805160405193929190846401000000008211156121c257600080fd5b9083019060208201858111156121d757600080fd5b82518660208202830111640100000000821117156121f457600080fd5b82525081516020918201928201910280838360005b83811015612221578181015183820152602001612209565b505050509050016040525050509050919050565b61223d6125f6565b6001600160a01b031661224e6119cd565b6001600160a01b0316146122a9576040805162461bcd60e51b815260206004820181905260248201527f4f776e61626c653a2063616c6c6572206973206e6f7420746865206f776e6572604482015290519081900360640190fd5b6001600160a01b0381166122ee5760405162461bcd60e51b81526004018080602001828103825260268152602001806139836026913960400191505060405180910390fd5b6033546040516001600160a01b038084169216907f8be0079c531659141344cd1fd0a4f28419497f9722a3daafe3b4186f6b6457e090600090a3603380547fffffffffffffffffffffffff0000000000000000000000000000000000000000166001600160a01b0392909216919091179055565b6060836007018054806020026020016040519081016040528092919081815260200182805480156123bc57602002820191906000526020600020905b81546001600160a01b0316815260019091019060200180831161239e575b5050505050905060005b8151811015610fbe5760008282815181106123dd57fe5b60200260200101519050600060026124878860090185815481106123fd57fe5b9060005260206000200154846001600160a01b03166370a08231306040518263ffffffff1660e01b815260040180826001600160a01b0316815260200191505060206040518083038186803b15801561245557600080fd5b505afa158015612469573d6000803e3d6000fd5b505050506040513d602081101561247f57600080fd5b505190612f3f565b8161248e57fe5b04905080156124bf576124ab6001600160a01b0383168783612f9c565b6124bf6001600160a01b0383168683612f9c565b50506001016123c6565b6000816001600160a01b0316633705f6257f466565436f6c6c6563746f72000000000000000000000000000000000000000060001b6040518263ffffffff1660e01b81526004018082815260200191505060206040518083038186803b15801561253257600080fd5b505afa158015612546573d6000803e3d6000fd5b505050506040513d602081101561255c57600080fd5b505190506001600160a01b0381166125bb576040805162461bcd60e51b815260206004820152601d60248201527f46656520636f6c6c6563746f722063616e6e6f7420626520656d707479000000604482015290519081900360640190fd5b60d480547fffffffffffffffffffffffff0000000000000000000000000000000000000000166001600160a01b039290921691909117905550565b3390565b6126026114b6565b612653576040805162461bcd60e51b815260206004820152601460248201527f5061757361626c653a206e6f7420706175736564000000000000000000000000604482015290519081900360640190fd5b6065805460ff191690557f5db9ee0a495bf2e6ff9c91a7834c1ba4fdd244a5e8aa4e537bd38aeae4b073aa6126866125f6565b604080516001600160a01b039092168252519081900360200190a1565b6126ab6114b6565b156126fd576040805162461bcd60e51b815260206004820152601060248201527f5061757361626c653a2070617573656400000000000000000000000000000000604482015290519081900360640190fd5b6065805460ff191660011790557f62e78cea01bee320cd4e420270b5ea74000d11b0c9f74754ebdbfc544b05a2586126866125f6565b600061273e30613021565b15905090565b600054610100900460ff168061275d575061275d612733565b8061276b575060005460ff16155b6127a65760405162461bcd60e51b815260040180806020018281038252602e8152602001806139cf602e913960400191505060405180910390fd5b600054610100900460ff161580156127d1576000805460ff1961ff0019909116610100171660011790555b6127d9613027565b6127e16130e1565b6001895111612837576040805162461bcd60e51b815260206004820152601960248201527f5f706f6f6c6564546f6b656e732e6c656e677468203c3d203100000000000000604482015290519081900360640190fd5b60208951111561288e576040805162461bcd60e51b815260206004820152601960248201527f5f706f6f6c6564546f6b656e732e6c656e677468203e20333200000000000000604482015290519081900360640190fd5b87518951146128e4576040805162461bcd60e51b815260206004820152601f60248201527f5f706f6f6c6564546f6b656e7320646563696d616c73206d69736d6174636800604482015290519081900360640190fd5b6060885167ffffffffffffffff811180156128fe57600080fd5b50604051908082528060200260200182016040528015612928578160200160208202803683370190505b50905060005b8a518160ff161015612ba65760ff811615612a175760d360008c8360ff168151811061295657fe5b6020908102919091018101516001600160a01b031682528101919091526040016000205460ff161580156129c657508a8160ff168151811061299457fe5b60200260200101516001600160a01b03168b6000815181106129b257fe5b60200260200101516001600160a01b031614155b612a17576040805162461bcd60e51b815260206004820152601060248201527f4475706c696361746520746f6b656e7300000000000000000000000000000000604482015290519081900360640190fd5b60006001600160a01b03168b8260ff1681518110612a3157fe5b60200260200101516001600160a01b03161415612a95576040805162461bcd60e51b815260206004820152601d60248201527f546865203020616464726573732069736e277420616e204552432d3230000000604482015290519081900360640190fd5b601260ff168a8260ff1681518110612aa957fe5b602002602001015160ff161115612b07576040805162461bcd60e51b815260206004820152601a60248201527f546f6b656e20646563696d616c732065786365656473206d6178000000000000604482015290519081900360640190fd5b612b378a8260ff1681518110612b1957fe5b602002602001015160ff16601260ff16612f3f90919063ffffffff16565b600a0a828260ff1681518110612b4957fe5b6020026020010181815250508060d360008d8460ff1681518110612b6957fe5b6020908102919091018101516001600160a01b03168252810191909152604001600020805460ff191660ff9290921691909117905560010161292e565b50620f42408610612bfe576040805162461bcd60e51b815260206004820152601260248201527f5f612065786365656473206d6178696d756d0000000000000000000000000000604482015290519081900360640190fd5b6305f5e1008510612c56576040805162461bcd60e51b815260206004820152601460248201527f5f6665652065786365656473206d6178696d756d000000000000000000000000604482015290519081900360640190fd5b6402540be4008410612caf576040805162461bcd60e51b815260206004820152601960248201527f5f61646d696e4665652065786365656473206d6178696d756d00000000000000604482015290519081900360640190fd5b6000612cba84613176565b9050806001600160a01b0316634cd88b768a8a6040518363ffffffff1660e01b8152600401808060200180602001838103835285818151815260200191508051906020019080838360005b83811015612d1d578181015183820152602001612d05565b50505050905090810190601f168015612d4a5780820380516001836020036101000a031916815260200191505b50838103825284518152845160209182019186019080838360005b83811015612d7d578181015183820152602001612d65565b50505050905090810190601f168015612daa5780820380516001836020036101000a031916815260200191505b50945050505050602060405180830381600087803b158015612dcb57600080fd5b505af1158015612ddf573d6000803e3d6000fd5b505050506040513d6020811015612df557600080fd5b5051612e48576040805162461bcd60e51b815260206004820152601c60248201527f636f756c64206e6f7420696e6974206c70546f6b656e20636c6f6e6500000000604482015290519081900360640190fd5b60cf80547fffffffffffffffffffffffff0000000000000000000000000000000000000000166001600160a01b0383161790558a51612e8e9060d09060208e0190613872565b508151612ea29060d19060208501906138ef565b508a5167ffffffffffffffff81118015612ebb57600080fd5b50604051908082528060200260200182016040528015612ee5578160200160208202803683370190505b508051612efa9160d2916020909101906138ef565b50612f06876064613231565b60c955612f14876064613231565b60ca55505060cd84905560ce8390558015611e0d576000805461ff0019169055505050505050505050565b600082821115612f96576040805162461bcd60e51b815260206004820152601e60248201527f536166654d6174683a207375627472616374696f6e206f766572666c6f770000604482015290519081900360640190fd5b50900390565b604080516001600160a01b038416602482015260448082018490528251808303909101815260649091019091526020810180517bffffffffffffffffffffffffffffffffffffffffffffffffffffffff167fa9059cbb0000000000000000000000000000000000000000000000000000000017905261301c90849061328a565b505050565b3b151590565b600054610100900460ff16806130405750613040612733565b8061304e575060005460ff16155b6130895760405162461bcd60e51b815260040180806020018281038252602e8152602001806139cf602e913960400191505060405180910390fd5b600054610100900460ff161580156130b4576000805460ff1961ff0019909116610100171660011790555b6130bc61333b565b6130c46133db565b6130cc6134ec565b80156130de576000805461ff00191690555b50565b600054610100900460ff16806130fa57506130fa612733565b80613108575060005460ff16155b6131435760405162461bcd60e51b815260040180806020018281038252602e8152602001806139cf602e913960400191505060405180910390fd5b600054610100900460ff1615801561316e576000805460ff1961ff0019909116610100171660011790555b6130cc613597565b60006040517f3d602d80600a3d3981f3363d3d373d3d3d363d7300000000000000000000000081528260601b60148201527f5af43d82803e903d91602b57fd5bf3000000000000000000000000000000000060288201526037816000f09150506001600160a01b038116611568576040805162461bcd60e51b815260206004820152601660248201527f455243313136373a20637265617465206661696c656400000000000000000000604482015290519081900360640190fd5b60008261324057506000610ebe565b8282028284828161324d57fe5b0414611d0a5760405162461bcd60e51b81526004018080602001828103825260218152602001806139fd6021913960400191505060405180910390fd5b60606132df826040518060400160405280602081526020017f5361666545524332303a206c6f772d6c6576656c2063616c6c206661696c6564815250856001600160a01b031661363d9092919063ffffffff16565b80519091501561301c578080602001905160208110156132fe57600080fd5b505161301c5760405162461bcd60e51b815260040180806020018281038252602a815260200180613a1e602a913960400191505060405180910390fd5b600054610100900460ff16806133545750613354612733565b80613362575060005460ff16155b61339d5760405162461bcd60e51b815260040180806020018281038252602e8152602001806139cf602e913960400191505060405180910390fd5b600054610100900460ff161580156130cc576000805460ff1961ff00199091166101001716600117905580156130de576000805461ff001916905550565b600054610100900460ff16806133f457506133f4612733565b80613402575060005460ff16155b61343d5760405162461bcd60e51b815260040180806020018281038252602e8152602001806139cf602e913960400191505060405180910390fd5b600054610100900460ff16158015613468576000805460ff1961ff0019909116610100171660011790555b60006134726125f6565b603380547fffffffffffffffffffffffff0000000000000000000000000000000000000000166001600160a01b038316908117909155604051919250906000907f8be0079c531659141344cd1fd0a4f28419497f9722a3daafe3b4186f6b6457e0908290a35080156130de576000805461ff001916905550565b600054610100900460ff16806135055750613505612733565b80613513575060005460ff16155b61354e5760405162461bcd60e51b815260040180806020018281038252602e8152602001806139cf602e913960400191505060405180910390fd5b600054610100900460ff16158015613579576000805460ff1961ff0019909116610100171660011790555b6065805460ff1916905580156130de576000805461ff001916905550565b600054610100900460ff16806135b057506135b0612733565b806135be575060005460ff16155b6135f95760405162461bcd60e51b815260040180806020018281038252602e8152602001806139cf602e913960400191505060405180910390fd5b600054610100900460ff16158015613624576000805460ff1961ff0019909116610100171660011790555b600160975580156130de576000805461ff001916905550565b606061364c8484600085613654565b949350505050565b6060824710156136955760405162461bcd60e51b81526004018080602001828103825260268152602001806139a96026913960400191505060405180910390fd5b61369e85613021565b6136ef576040805162461bcd60e51b815260206004820152601d60248201527f416464726573733a2063616c6c20746f206e6f6e2d636f6e7472616374000000604482015290519081900360640190fd5b60006060866001600160a01b031685876040518082805190602001908083835b6020831061374c57805182527fffffffffffffffffffffffffffffffffffffffffffffffffffffffffffffffe0909201916020918201910161370f565b6001836020036101000a03801982511681845116808217855250505050505090500191505060006040518083038185875af1925050503d80600081146137ae576040519150601f19603f3d011682016040523d82523d6000602084013e6137b3565b606091505b50915091506137c38282866137ce565b979650505050505050565b606083156137dd575081611d0a565b8251156137ed5782518084602001fd5b8160405162461bcd60e51b81526004018080602001828103825283818151815260200191508051906020019080838360005b8381101561383757818101518382015260200161381f565b50505050905090810190601f1680156138645780820380516001836020036101000a031916815260200191505b509250505060405180910390fd5b8280548282559060005260206000209081019282156138df579160200282015b828111156138df57825182547fffffffffffffffffffffffff0000000000000000000000000000000000000000166001600160a01b03909116178255602090920191600190910190613892565b506138eb929150613936565b5090565b82805482825590600052602060002090810192821561392a579160200282015b8281111561392a57825182559160200191906001019061390f565b506138eb92915061396d565b5b808211156138eb5780547fffffffffffffffffffffffff0000000000000000000000000000000000000000168155600101613937565b5b808211156138eb576000815560010161396e56fe4f776e61626c653a206e6577206f776e657220697320746865207a65726f2061646472657373416464726573733a20696e73756666696369656e742062616c616e636520666f722063616c6c496e697469616c697a61626c653a20636f6e747261637420697320616c726561647920696e697469616c697a6564536166654d6174683a206d756c7469706c69636174696f6e206f766572666c6f775361666545524332303a204552433230206f7065726174696f6e20646964206e6f742073756363656564a26469706673582212206765335d9020510e073158c490531fc068b88a389f5a3a37b595685397d6ec3664736f6c634300060c0033",
  "libraries": {
    "SwapUtils": "0x4f6A43Ad7cba042606dECaCA730d4CE0A57ac62e",
    "AmplificationUtils": "0x2b7A5a5923ECa5C00c6572Cf3E8e08384F563F93"
  },
  "devdoc": {
    "details": "Most of the logic is stored as a library `PermissionlessSwapUtils` for the sake of reducing contract's deployment size.",
    "kind": "dev",
    "methods": {
      "addLiquidity(uint256[],uint256,uint256)": {
        "params": {
          "amounts": "the amounts of each token to add, in their native precision",
          "deadline": "latest timestamp to accept this transaction",
          "minToMint": "the minimum LP tokens adding this amount of liquidity should mint, otherwise revert. Handy for front-running mitigation"
        },
        "returns": {
          "_0": "amount of LP token user minted and received"
        }
      },
      "calculateRemoveLiquidity(uint256)": {
        "params": {
          "amount": "the amount of LP tokens that would be burned on withdrawal"
        },
        "returns": {
          "_0": "array of token balances that the user will receive"
        }
      },
      "calculateRemoveLiquidityOneToken(uint256,uint8)": {
        "params": {
          "tokenAmount": "the amount of LP token to burn",
          "tokenIndex": "index of which token will be withdrawn"
        },
        "returns": {
          "availableTokenAmount": "calculated amount of underlying token available to withdraw"
        }
      },
      "calculateSwap(uint8,uint8,uint256)": {
        "params": {
          "dx": "the amount of tokens the user wants to sell. If the token charges a fee on transfers, use the amount that gets transferred after the fee.",
          "tokenIndexFrom": "the token the user wants to sell",
          "tokenIndexTo": "the token the user wants to buy"
        },
        "returns": {
          "_0": "amount of tokens the user will receive"
        }
      },
      "calculateTokenAmount(uint256[],bool)": {
        "details": "This shouldn't be used outside frontends for user estimates.",
        "params": {
          "amounts": "an array of token amounts to deposit or withdrawal, corresponding to pooledTokens. The amount should be in each pooled token's native precision. If a token charges a fee on transfers, use the amount that gets transferred after the fee.",
          "deposit": "whether this is a deposit or a withdrawal"
        },
        "returns": {
          "_0": "token amount the user will receive"
        }
      },
      "constructor": {
        "params": {
          "_masterRegistry": "address of the MasterRegistry contract"
        }
      },
      "getA()": {
        "details": "See the StableSwap paper for details",
        "returns": {
          "_0": "A parameter"
        }
      },
      "getAPrecise()": {
        "details": "See the StableSwap paper for details",
        "returns": {
          "_0": "A parameter in its raw precision form"
        }
      },
      "getAdminBalance(uint256)": {
        "params": {
          "index": "Index of the pooled token"
        },
        "returns": {
          "_0": "admin's token balance in the token's precision"
        }
      },
      "getToken(uint8)": {
        "params": {
          "index": "the index of the token"
        },
        "returns": {
          "_0": "address of the token at given index"
        }
      },
      "getTokenBalance(uint8)": {
        "params": {
          "index": "the index of the token"
        },
        "returns": {
          "_0": "current balance of the pooled token at given index with token's native precision"
        }
      },
      "getTokenIndex(address)": {
        "params": {
          "tokenAddress": "address of the token"
        },
        "returns": {
          "_0": "the index of the given token address"
        }
      },
      "getVirtualPrice()": {
        "returns": {
          "_0": "the virtual price, scaled to the POOL_PRECISION_DECIMALS"
        }
      },
      "owner()": {
        "details": "Returns the address of the current owner."
      },
      "paused()": {
        "details": "Returns true if the contract is paused, and false otherwise."
      },
      "rampA(uint256,uint256)": {
        "params": {
          "futureA": "the new A to ramp towards",
          "futureTime": "timestamp when the new A should be reached"
        }
      },
      "removeLiquidity(uint256,uint256[],uint256)": {
        "details": "Liquidity can always be removed, even when the pool is paused.",
        "params": {
          "amount": "the amount of LP tokens to burn",
          "deadline": "latest timestamp to accept this transaction",
          "minAmounts": "the minimum amounts of each token in the pool        acceptable for this burn. Useful as a front-running mitigation"
        },
        "returns": {
          "_0": "amounts of tokens user received"
        }
      },
      "removeLiquidityImbalance(uint256[],uint256,uint256)": {
        "params": {
          "amounts": "how much of each token to withdraw",
          "deadline": "latest timestamp to accept this transaction",
          "maxBurnAmount": "the max LP token provider is willing to pay to remove liquidity. Useful as a front-running mitigation."
        },
        "returns": {
          "_0": "amount of LP tokens burned"
        }
      },
      "removeLiquidityOneToken(uint256,uint8,uint256,uint256)": {
        "params": {
          "deadline": "latest timestamp to accept this transaction",
          "minAmount": "the minimum amount to withdraw, otherwise revert",
          "tokenAmount": "the amount of the token you want to receive",
          "tokenIndex": "the index of the token you want to receive"
        },
        "returns": {
          "_0": "amount of chosen token user received"
        }
      },
      "renounceOwnership()": {
        "details": "Leaves the contract without owner. It will not be possible to call `onlyOwner` functions anymore. Can only be called by the current owner. NOTE: Renouncing ownership will leave the contract without an owner, thereby removing any functionality that is only available to the owner."
      },
      "setAdminFee(uint256)": {
        "params": {
          "newAdminFee": "new admin fee to be applied on future transactions"
        }
      },
      "setSwapFee(uint256)": {
        "params": {
          "newSwapFee": "new swap fee to be applied on future transactions"
        }
      },
      "swap(uint8,uint8,uint256,uint256,uint256)": {
        "params": {
          "deadline": "latest timestamp to accept this transaction",
          "dx": "the amount of tokens the user wants to swap from",
          "minDy": "the min amount the user would like to receive, or revert.",
          "tokenIndexFrom": "the token the user wants to swap from",
          "tokenIndexTo": "the token the user wants to swap to"
        }
      },
      "transferOwnership(address)": {
        "details": "Transfers ownership of the contract to a new account (`newOwner`). Can only be called by the current owner."
      }
    },
    "title": "Swap - A StableSwap implementation in solidity.",
    "version": 1
  },
  "userdoc": {
    "kind": "user",
    "methods": {
      "addLiquidity(uint256[],uint256,uint256)": {
        "notice": "Add liquidity to the pool with the given amounts of tokens"
      },
      "calculateRemoveLiquidity(uint256)": {
        "notice": "A simple method to calculate amount of each underlying tokens that is returned upon burning given amount of LP tokens"
      },
      "calculateRemoveLiquidityOneToken(uint256,uint8)": {
        "notice": "Calculate the amount of underlying token available to withdraw when withdrawing via only single token"
      },
      "calculateSwap(uint8,uint8,uint256)": {
        "notice": "Calculate amount of tokens you receive on swap"
      },
      "calculateTokenAmount(uint256[],bool)": {
        "notice": "A simple method to calculate prices from deposits or withdrawals, excluding fees but including slippage. This is helpful as an input into the various \"min\" parameters on calls to fight front-running"
      },
      "constructor": "Constructor for the PermissionlessSwap contract.",
      "getA()": {
        "notice": "Return A, the amplification coefficient * n * (n - 1)"
      },
      "getAPrecise()": {
        "notice": "Return A in its raw precision form"
      },
      "getAdminBalance(uint256)": {
        "notice": "This function reads the accumulated amount of admin fees of the token with given index"
      },
      "getToken(uint8)": {
        "notice": "Return address of the pooled token at given index. Reverts if tokenIndex is out of range."
      },
      "getTokenBalance(uint8)": {
        "notice": "Return current balance of the pooled token at given index"
      },
      "getTokenIndex(address)": {
        "notice": "Return the index of the given token address. Reverts if no matching token is found."
      },
      "getVirtualPrice()": {
        "notice": "Get the virtual price, to help calculate profit"
      },
      "initialize(address[],uint8[],string,string,uint256,uint256,uint256,address)": {
        "notice": "Updates cached address of the fee collector"
      },
      "pause()": {
        "notice": "Pause the contract. Revert if already paused."
      },
      "rampA(uint256,uint256)": {
        "notice": "Start ramping up or down A parameter towards given futureA and futureTime Checks if the change is too rapid, and commits the new A value only when it falls under the limit range."
      },
      "removeLiquidity(uint256,uint256[],uint256)": {
        "notice": "Burn LP tokens to remove liquidity from the pool. Withdraw fee that decays linearly over period of 4 weeks since last deposit will apply."
      },
      "removeLiquidityImbalance(uint256[],uint256,uint256)": {
        "notice": "Remove liquidity from the pool, weighted differently than the pool's current balances. Withdraw fee that decays linearly over period of 4 weeks since last deposit will apply."
      },
      "removeLiquidityOneToken(uint256,uint8,uint256,uint256)": {
        "notice": "Remove liquidity from the pool all in one token. Withdraw fee that decays linearly over period of 4 weeks since last deposit will apply."
      },
      "setAdminFee(uint256)": {
        "notice": "Update the admin fee. Admin fee takes portion of the swap fee."
      },
      "setSwapFee(uint256)": {
        "notice": "Update the swap fee to be applied on swaps"
      },
      "stopRampA()": {
        "notice": "Stop ramping A immediately. Reverts if ramp A is already stopped."
      },
      "swap(uint8,uint8,uint256,uint256,uint256)": {
        "notice": "Swap two tokens using this pool"
      },
      "unpause()": {
        "notice": "Unpause the contract. Revert if already unpaused."
      },
      "updateFeeCollectorCache()": {
        "notice": "Updates cached address of the fee collector"
      },
      "withdrawAdminFees()": {
        "notice": "Withdraw all admin fees to the contract owner and the fee collector."
      }
    },
    "notice": "This contract is responsible for custody of closely pegged assets (eg. group of stablecoins) and automatic market making system. Users become an LP (Liquidity Provider) by depositing their tokens in desired ratios for an exchange of the pool token that represents their share of the pool. Users can burn pool tokens and withdraw their share of token(s). Each time a swap between the pooled tokens happens, a set fee incurs which effectively gets distributed to the LPs. Part of this fee is given to the creator of the pool as an Admin fee, the amount of which is set when the pool is created. Saddle will collect to 50% of these Admin fees. In case of emergencies, admin can pause additional deposits, swaps, or single-asset withdraws - which stops the ratio of the tokens in the pool from changing. Users can always withdraw their tokens via multi-asset withdraws.",
    "version": 1
  },
  "storageLayout": {
    "storage": [
      {
        "astId": 492,
        "contract": "contracts/permissionless/PermissionlessSwap.sol:PermissionlessSwap",
        "label": "_initialized",
        "offset": 0,
        "slot": "0",
        "type": "t_bool"
      },
      {
        "astId": 495,
        "contract": "contracts/permissionless/PermissionlessSwap.sol:PermissionlessSwap",
        "label": "_initializing",
        "offset": 1,
        "slot": "0",
        "type": "t_bool"
      },
      {
        "astId": 1531,
        "contract": "contracts/permissionless/PermissionlessSwap.sol:PermissionlessSwap",
        "label": "__gap",
        "offset": 0,
        "slot": "1",
        "type": "t_array(t_uint256)50_storage"
      },
      {
        "astId": 10,
        "contract": "contracts/permissionless/PermissionlessSwap.sol:PermissionlessSwap",
        "label": "_owner",
        "offset": 0,
        "slot": "51",
        "type": "t_address"
      },
      {
        "astId": 129,
        "contract": "contracts/permissionless/PermissionlessSwap.sol:PermissionlessSwap",
        "label": "__gap",
        "offset": 0,
        "slot": "52",
        "type": "t_array(t_uint256)49_storage"
      },
      {
        "astId": 1553,
        "contract": "contracts/permissionless/PermissionlessSwap.sol:PermissionlessSwap",
        "label": "_paused",
        "offset": 0,
        "slot": "101",
        "type": "t_bool"
      },
      {
        "astId": 1644,
        "contract": "contracts/permissionless/PermissionlessSwap.sol:PermissionlessSwap",
        "label": "__gap",
        "offset": 0,
        "slot": "102",
        "type": "t_array(t_uint256)49_storage"
      },
      {
        "astId": 1659,
        "contract": "contracts/permissionless/PermissionlessSwap.sol:PermissionlessSwap",
        "label": "_status",
        "offset": 0,
        "slot": "151",
        "type": "t_uint256"
      },
      {
        "astId": 1702,
        "contract": "contracts/permissionless/PermissionlessSwap.sol:PermissionlessSwap",
        "label": "__gap",
        "offset": 0,
        "slot": "152",
        "type": "t_array(t_uint256)49_storage"
      },
      {
        "astId": 7779,
        "contract": "contracts/permissionless/PermissionlessSwap.sol:PermissionlessSwap",
        "label": "swapStorage",
        "offset": 0,
        "slot": "201",
        "type": "t_struct(Swap)9655_storage"
      },
      {
        "astId": 7783,
        "contract": "contracts/permissionless/PermissionlessSwap.sol:PermissionlessSwap",
        "label": "tokenIndexes",
        "offset": 0,
        "slot": "211",
        "type": "t_mapping(t_address,t_uint8)"
      },
      {
        "astId": 33360,
        "contract": "contracts/permissionless/PermissionlessSwap.sol:PermissionlessSwap",
        "label": "feeCollector",
        "offset": 0,
        "slot": "212",
        "type": "t_address"
      }
    ],
    "types": {
      "t_address": {
        "encoding": "inplace",
        "label": "address",
        "numberOfBytes": "20"
      },
      "t_array(t_contract(IERC20)3311)dyn_storage": {
        "base": "t_contract(IERC20)3311",
        "encoding": "dynamic_array",
        "label": "contract IERC20[]",
        "numberOfBytes": "32"
      },
      "t_array(t_uint256)49_storage": {
        "base": "t_uint256",
        "encoding": "inplace",
        "label": "uint256[49]",
        "numberOfBytes": "1568"
      },
      "t_array(t_uint256)50_storage": {
        "base": "t_uint256",
        "encoding": "inplace",
        "label": "uint256[50]",
        "numberOfBytes": "1600"
      },
      "t_array(t_uint256)dyn_storage": {
        "base": "t_uint256",
        "encoding": "dynamic_array",
        "label": "uint256[]",
        "numberOfBytes": "32"
      },
      "t_bool": {
        "encoding": "inplace",
        "label": "bool",
        "numberOfBytes": "1"
      },
      "t_contract(IERC20)3311": {
        "encoding": "inplace",
        "label": "contract IERC20",
        "numberOfBytes": "20"
      },
      "t_contract(LPToken)7402": {
        "encoding": "inplace",
        "label": "contract LPToken",
        "numberOfBytes": "20"
      },
      "t_mapping(t_address,t_uint8)": {
        "encoding": "mapping",
        "key": "t_address",
        "label": "mapping(address => uint8)",
        "numberOfBytes": "32",
        "value": "t_uint8"
      },
      "t_struct(Swap)9655_storage": {
        "encoding": "inplace",
        "label": "struct SwapUtils.Swap",
        "members": [
          {
            "astId": 9633,
            "contract": "contracts/permissionless/PermissionlessSwap.sol:PermissionlessSwap",
            "label": "initialA",
            "offset": 0,
            "slot": "0",
            "type": "t_uint256"
          },
          {
            "astId": 9635,
            "contract": "contracts/permissionless/PermissionlessSwap.sol:PermissionlessSwap",
            "label": "futureA",
            "offset": 0,
            "slot": "1",
            "type": "t_uint256"
          },
          {
            "astId": 9637,
            "contract": "contracts/permissionless/PermissionlessSwap.sol:PermissionlessSwap",
            "label": "initialATime",
            "offset": 0,
            "slot": "2",
            "type": "t_uint256"
          },
          {
            "astId": 9639,
            "contract": "contracts/permissionless/PermissionlessSwap.sol:PermissionlessSwap",
            "label": "futureATime",
            "offset": 0,
            "slot": "3",
            "type": "t_uint256"
          },
          {
            "astId": 9641,
            "contract": "contracts/permissionless/PermissionlessSwap.sol:PermissionlessSwap",
            "label": "swapFee",
            "offset": 0,
            "slot": "4",
            "type": "t_uint256"
          },
          {
            "astId": 9643,
            "contract": "contracts/permissionless/PermissionlessSwap.sol:PermissionlessSwap",
            "label": "adminFee",
            "offset": 0,
            "slot": "5",
            "type": "t_uint256"
          },
          {
            "astId": 9645,
            "contract": "contracts/permissionless/PermissionlessSwap.sol:PermissionlessSwap",
            "label": "lpToken",
            "offset": 0,
            "slot": "6",
            "type": "t_contract(LPToken)7402"
          },
          {
            "astId": 9648,
            "contract": "contracts/permissionless/PermissionlessSwap.sol:PermissionlessSwap",
            "label": "pooledTokens",
            "offset": 0,
            "slot": "7",
            "type": "t_array(t_contract(IERC20)3311)dyn_storage"
          },
          {
            "astId": 9651,
            "contract": "contracts/permissionless/PermissionlessSwap.sol:PermissionlessSwap",
            "label": "tokenPrecisionMultipliers",
            "offset": 0,
            "slot": "8",
            "type": "t_array(t_uint256)dyn_storage"
          },
          {
            "astId": 9654,
            "contract": "contracts/permissionless/PermissionlessSwap.sol:PermissionlessSwap",
            "label": "balances",
            "offset": 0,
            "slot": "9",
            "type": "t_array(t_uint256)dyn_storage"
          }
        ],
        "numberOfBytes": "320"
      },
      "t_uint256": {
        "encoding": "inplace",
        "label": "uint256",
        "numberOfBytes": "32"
      },
      "t_uint8": {
        "encoding": "inplace",
        "label": "uint8",
        "numberOfBytes": "1"
      }
    }
  }
}