{
  "address": "0x4f6A43Ad7cba042606dECaCA730d4CE0A57ac62e",
  "abi": [
    {
      "anonymous": false,
      "inputs": [
        {
          "indexed": true,
          "internalType": "address",
          "name": "provider",
          "type": "address"
        },
        {
          "indexed": false,
          "internalType": "uint256[]",
          "name": "tokenAmounts",
          "type": "uint256[]"
        },
        {
          "indexed": false,
          "internalType": "uint256[]",
          "name": "fees",
          "type": "uint256[]"
        },
        {
          "indexed": false,
          "internalType": "uint256",
          "name": "invariant",
          "type": "uint256"
        },
        {
          "indexed": false,
          "internalType": "uint256",
          "name": "lpTokenSupply",
          "type": "uint256"
        }
      ],
      "name": "AddLiquidity",
      "type": "event"
    },
    {
      "anonymous": false,
      "inputs": [
        {
          "indexed": false,
          "internalType": "uint256",
          "name": "newAdminFee",
          "type": "uint256"
        }
      ],
      "name": "NewAdminFee",
      "type": "event"
    },
    {
      "anonymous": false,
      "inputs": [
        {
          "indexed": false,
          "internalType": "uint256",
          "name": "newSwapFee",
          "type": "uint256"
        }
      ],
      "name": "NewSwapFee",
      "type": "event"
    },
    {
      "anonymous": false,
      "inputs": [
        {
          "indexed": true,
          "internalType": "address",
          "name": "provider",
          "type": "address"
        },
        {
          "indexed": false,
          "internalType": "uint256[]",
          "name": "tokenAmounts",
          "type": "uint256[]"
        },
        {
          "indexed": false,
          "internalType": "uint256",
          "name": "lpTokenSupply",
          "type": "uint256"
        }
      ],
      "name": "RemoveLiquidity",
      "type": "event"
    },
    {
      "anonymous": false,
      "inputs": [
        {
          "indexed": true,
          "internalType": "address",
          "name": "provider",
          "type": "address"
        },
        {
          "indexed": false,
          "internalType": "uint256[]",
          "name": "tokenAmounts",
          "type": "uint256[]"
        },
        {
          "indexed": false,
          "internalType": "uint256[]",
          "name": "fees",
          "type": "uint256[]"
        },
        {
          "indexed": false,
          "internalType": "uint256",
          "name": "invariant",
          "type": "uint256"
        },
        {
          "indexed": false,
          "internalType": "uint256",
          "name": "lpTokenSupply",
          "type": "uint256"
        }
      ],
      "name": "RemoveLiquidityImbalance",
      "type": "event"
    },
    {
      "anonymous": false,
      "inputs": [
        {
          "indexed": true,
          "internalType": "address",
          "name": "provider",
          "type": "address"
        },
        {
          "indexed": false,
          "internalType": "uint256",
          "name": "lpTokenAmount",
          "type": "uint256"
        },
        {
          "indexed": false,
          "internalType": "uint256",
          "name": "lpTokenSupply",
          "type": "uint256"
        },
        {
          "indexed": false,
          "internalType": "uint256",
          "name": "boughtId",
          "type": "uint256"
        },
        {
          "indexed": false,
          "internalType": "uint256",
          "name": "tokensBought",
          "type": "uint256"
        }
      ],
      "name": "RemoveLiquidityOne",
      "type": "event"
    },
    {
      "anonymous": false,
      "inputs": [
        {
          "indexed": true,
          "internalType": "address",
          "name": "buyer",
          "type": "address"
        },
        {
          "indexed": false,
          "internalType": "uint256",
          "name": "tokensSold",
          "type": "uint256"
        },
        {
          "indexed": false,
          "internalType": "uint256",
          "name": "tokensBought",
          "type": "uint256"
        },
        {
          "indexed": false,
          "internalType": "uint128",
          "name": "soldId",
          "type": "uint128"
        },
        {
          "indexed": false,
          "internalType": "uint128",
          "name": "boughtId",
          "type": "uint128"
        }
      ],
      "name": "TokenSwap",
      "type": "event"
    },
    {
      "inputs": [],
      "name": "MAX_ADMIN_FEE",
      "outputs": [
        {
          "internalType": "uint256",
          "name": "",
          "type": "uint256"
        }
      ],
      "stateMutability": "view",
      "type": "function"
    },
    {
      "inputs": [],
      "name": "MAX_SWAP_FEE",
      "outputs": [
        {
          "internalType": "uint256",
          "name": "",
          "type": "uint256"
        }
      ],
      "stateMutability": "view",
      "type": "function"
    },
    {
      "inputs": [],
      "name": "POOL_PRECISION_DECIMALS",
      "outputs": [
        {
          "internalType": "uint8",
          "name": "",
          "type": "uint8"
        }
      ],
      "stateMutability": "view",
      "type": "function"
    }
  ],
  "transactionHash": "0xb495481f61e095ccd68eb5956742cde077cb70c1600f9750cead8a7d9594dae6",
  "args": [],
  "numDeployments": 1,
  "solcInputHash": "c686040896eb8f6aa5a808e88bc41205",
  "bytecode": "0x6140b5610026600b82828239805160001a60731461001957fe5b30600052607381538281f3fe73000000000000000000000000000000000000000030146080604052600436106101255760003560e01c806371906c2c116100bc578063a5397b221161008b578063e069274211610070578063e0692742146105a3578063e7a4db81146105cf578063f3de03621461060e57610125565b8063a5397b2214610552578063ab3d85441461059b57610125565b806371906c2c1461041057806373fd6b3e1461042d5780637d048160146104b6578063834b4910146104d957610125565b8063467e186c116100f8578063467e186c146103075780634b23603c14610337578063704672761461036d57806370703e4a1461039d57610125565b80630296ab501461012a57806324c5c7511461014857806340370edf1461018357806341b91c261461024e575b600080fd5b610132610616565b6040805160ff9092168252519081900360200190f35b81801561015457600080fd5b506101816004803603604081101561016b57600080fd5b50803590602001356001600160a01b031661061b565b005b81801561018f57600080fd5b5061023c600480360360608110156101a657600080fd5b813591908101906040810160208201356401000000008111156101c857600080fd5b8201836020820111156101da57600080fd5b803590602001918460208302840111640100000000831117156101fc57600080fd5b919080806020026020016040519081016040528093929190818152602001838360200280828437600092019190915250929550509135925061076a915050565b60408051918252519081900360200190f35b81801561025a57600080fd5b5061023c6004803603606081101561027157600080fd5b8135919081019060408101602082013564010000000081111561029357600080fd5b8201836020820111156102a557600080fd5b803590602001918460208302840111640100000000831117156102c757600080fd5b91908080602002602001604051908101604052809392919081815260200183836020028082843760009201919091525092955050913592506110ea915050565b81801561031357600080fd5b506101816004803603604081101561032a57600080fd5b5080359060200135611886565b61023c6004803603608081101561034d57600080fd5b5080359060ff60208201358116916040810135909116906060013561191d565b81801561037957600080fd5b506101816004803603604081101561039057600080fd5b5080359060200135611988565b6103c0600480360360408110156103b357600080fd5b5080359060200135611a20565b60408051602080825283518183015283519192839290830191858101910280838360005b838110156103fc5781810151838201526020016103e4565b505050509050019250505060405180910390f35b61023c6004803603602081101561042657600080fd5b5035611b03565b81801561043957600080fd5b506103c06004803603606081101561045057600080fd5b81359160208101359181019060608101604082013564010000000081111561047757600080fd5b82018360208201111561048957600080fd5b803590602001918460208302840111640100000000831117156104ab57600080fd5b509092509050611bda565b61023c600480360360408110156104cc57600080fd5b5080359060200135612034565b61023c600480360360608110156104ef57600080fd5b8135919081019060408101602082013564010000000081111561051157600080fd5b82018360208201111561052357600080fd5b8035906020019184602083028401116401000000008311171561054557600080fd5b9193509150351515612123565b81801561055e57600080fd5b5061023c600480360360a081101561057557600080fd5b5080359060ff602082013581169160408101359091169060608101359060800135612372565b61023c61275e565b61023c600480360360608110156105b957600080fd5b508035906020810135906040013560ff16612766565b8180156105db57600080fd5b5061023c600480360360808110156105f257600080fd5b5080359060208101359060ff60408201351690606001356127f0565b61023c612bb9565b601281565b60608260070180548060200260200160405190810160405280929190818152602001828054801561067557602002820191906000526020600020905b81546001600160a01b03168152600190910190602001808311610657575b5050505050905060005b815181101561076457600082828151811061069657fe5b60200260200101519050600061073e8660090184815481106106b457fe5b9060005260206000200154836001600160a01b03166370a08231306040518263ffffffff1660e01b815260040180826001600160a01b0316815260200191505060206040518083038186803b15801561070c57600080fd5b505afa158015610720573d6000803e3d6000fd5b505050506040513d602081101561073657600080fd5b505190612bc2565b9050801561075a5761075a6001600160a01b0383168683612c1f565b505060010161067f565b50505050565b60006060846007018054806020026020016040519081016040528092919081815260200182805480156107c657602002820191906000526020600020905b81546001600160a01b031681526001909101906020018083116107a8575b505050505090508051845114610823576040805162461bcd60e51b815260206004820181905260248201527f416d6f756e7473206d757374206d6174636820706f6f6c656420746f6b656e73604482015290519081900360640190fd5b61082b613f0e565b60405180610100016040528060008152602001600081526020016000815260200161085588612ca4565b81526020018760060160009054906101000a90046001600160a01b03166001600160a01b0316815260200160008152602001876009018054806020026020016040519081016040528092919081815260200182805480156108d557602002820191906000526020600020905b8154815260200190600101908083116108c1575b505050505081526020018760080180548060200260200160405190810160405280929190818152602001828054801561092d57602002820191906000526020600020905b815481526020019060010190808311610919575b5050505050815250905080608001516001600160a01b03166318160ddd6040518163ffffffff1660e01b815260040160206040518083038186803b15801561097457600080fd5b505afa158015610988573d6000803e3d6000fd5b505050506040513d602081101561099e57600080fd5b505160a08201819052156109ce576109cb6109c18260c001518360e00151612caf565b8260600151612da6565b81525b6060825167ffffffffffffffff811180156109e857600080fd5b50604051908082528060200260200182016040528015610a12578160200160208202803683370190505b50905060005b8351811015610c685760a0830151151580610a4657506000878281518110610a3c57fe5b6020026020010151115b610a97576040805162461bcd60e51b815260206004820152601e60248201527f4d75737420737570706c7920616c6c20746f6b656e7320696e20706f6f6c0000604482015290519081900360640190fd5b868181518110610aa357fe5b6020026020010151600014610c0c576000848281518110610ac057fe5b60200260200101516001600160a01b03166370a08231306040518263ffffffff1660e01b815260040180826001600160a01b0316815260200191505060206040518083038186803b158015610b1457600080fd5b505afa158015610b28573d6000803e3d6000fd5b505050506040513d6020811015610b3e57600080fd5b50518851909150610b8e90339030908b9086908110610b5957fe5b6020026020010151888681518110610b6d57fe5b60200260200101516001600160a01b0316612f12909392919063ffffffff16565b610bf281868481518110610b9e57fe5b60200260200101516001600160a01b03166370a08231306040518263ffffffff1660e01b815260040180826001600160a01b0316815260200191505060206040518083038186803b15801561070c57600080fd5b888381518110610bfe57fe5b602002602001018181525050505b610c49878281518110610c1b57fe5b60200260200101518460c001518381518110610c3357fe5b6020026020010151612f9a90919063ffffffff16565b828281518110610c5557fe5b6020908102919091010152600101610a18565b50610c84610c7a828460e00151612caf565b8360600151612da6565b60208301819052825110610cdf576040805162461bcd60e51b815260206004820152601160248201527f442073686f756c6420696e637265617365000000000000000000000000000000604482015290519081900360640190fd5b60208201516040830152825160609067ffffffffffffffff81118015610d0457600080fd5b50604051908082528060200260200182016040528015610d2e578160200160208202803683370190505b5090508260a00151600014610ecc576000610d4e89600401548651612ff4565b905060005b8551811015610ea5576000610d9a8660000151610d948860c001518581518110610d7957fe5b6020026020010151896020015161300f90919063ffffffff16565b90613068565b9050610dd56402540be400610d94610dce888681518110610db757fe5b6020026020010151856130cf90919063ffffffff16565b869061300f565b848381518110610de157fe5b602002602001018181525050610e45610e236402540be400610d948e60050154888781518110610e0d57fe5b602002602001015161300f90919063ffffffff16565b868481518110610e2f57fe5b6020026020010151612bc290919063ffffffff16565b8b6009018381548110610e5457fe5b9060005260206000200181905550610e85848381518110610e7157fe5b6020026020010151868481518110610e2f57fe5b858381518110610e9157fe5b602090810291909101015250600101610d53565b50610ec1610eb7848660e00151612caf565b8560600151612da6565b604085015250610ee3565b8151610ee19060098a01906020850190613f5c565b505b60008360a0015160001415610efd57506020830151610f25565b835160a08501516040860151610f229291610d9491610f1c9084612bc2565b9061300f565b90505b86811015610f7a576040805162461bcd60e51b815260206004820152601b60248201527f436f756c646e2774206d696e74206d696e207265717565737465640000000000604482015290519081900360640190fd5b83608001516001600160a01b03166340c10f1933836040518363ffffffff1660e01b815260040180836001600160a01b0316815260200182815260200192505050600060405180830381600087803b158015610fd557600080fd5b505af1158015610fe9573d6000803e3d6000fd5b50505050336001600160a01b03167f189c623b666b1b45b83d7178f39b8c087cb09774317ca2f53c2d3c3726f222a289848760200151611036868a60a00151612f9a90919063ffffffff16565b604051808060200180602001858152602001848152602001838103835287818151815260200191508051906020019060200280838360005b8381101561108657818101518382015260200161106e565b50505050905001838103825286818151815260200191508051906020019060200280838360005b838110156110c55781810151838201526020016110ad565b50505050905001965050505050505060405180910390a29450505050505b9392505050565b60006110f4613f0e565b60405180610100016040528060008152602001600081526020016000815260200161111e87612ca4565b81526020018660060160009054906101000a90046001600160a01b03166001600160a01b03168152602001600081526020018660090180548060200260200160405190810160405280929190818152602001828054801561119e57602002820191906000526020600020905b81548152602001906001019080831161118a575b50505050508152602001866008018054806020026020016040519081016040528092919081815260200182805480156111f657602002820191906000526020600020905b8154815260200190600101908083116111e2575b5050505050815250905080608001516001600160a01b03166318160ddd6040518163ffffffff1660e01b815260040160206040518083038186803b15801561123d57600080fd5b505afa158015611251573d6000803e3d6000fd5b505050506040513d602081101561126757600080fd5b505160a082015260078501805460408051602083810282018101909252828152606093909290918301828280156112c757602002820191906000526020600020905b81546001600160a01b031681526001909101906020018083116112a9575b505050505090508051855114611324576040805162461bcd60e51b815260206004820181905260248201527f416d6f756e74732073686f756c64206d6174636820706f6f6c20746f6b656e73604482015290519081900360640190fd5b81608001516001600160a01b03166370a08231336040518263ffffffff1660e01b815260040180826001600160a01b0316815260200191505060206040518083038186803b15801561137557600080fd5b505afa158015611389573d6000803e3d6000fd5b505050506040513d602081101561139f57600080fd5b505184118015906113af57508315155b611400576040805162461bcd60e51b815260206004820152600d60248201527f3e4c502e62616c616e63654f6600000000000000000000000000000000000000604482015290519081900360640190fd5b600061141187600401548351612ff4565b90506060825167ffffffffffffffff8111801561142d57600080fd5b50604051908082528060200260200182016040528015611457578160200160208202803683370190505b5090506060835167ffffffffffffffff8111801561147457600080fd5b5060405190808252806020026020018201604052801561149e578160200160208202803683370190505b5090506114c06114b68660c001518760e00151612caf565b8660600151612da6565b855260005b8451811015611544576115258982815181106114dd57fe5b602002602001015160405180606001604052806023815260200161405d602391398860c00151848151811061150e57fe5b60200260200101516130e79092919063ffffffff16565b82828151811061153157fe5b60209081029190910101526001016114c5565b506115566114b6828760e00151612caf565b602086015260005b845181101561168357600061159f8760000151610d948960c00151858151811061158457fe5b60200260200101518a6020015161300f90919063ffffffff16565b905060006115c98484815181106115b257fe5b6020026020010151836130cf90919063ffffffff16565b90506115de6402540be400610d94888461300f565b8584815181106115ea57fe5b6020026020010181815250506116226116166402540be400610d948f60050154898881518110610e0d57fe5b858581518110610e2f57fe5b8c600901848154811061163157fe5b906000526020600020018190555061166285848151811061164e57fe5b6020026020010151858581518110610e2f57fe5b84848151811061166e57fe5b6020908102919091010152505060010161155e565b506116956114b6828760e00151612caf565b60408601819052855160a0870151600093506116bb92610d949190610f1c908490612bc2565b90508061170f576040805162461bcd60e51b815260206004820152601b60248201527f4275726e7420616d6f756e742063616e6e6f74206265207a65726f0000000000604482015290519081900360640190fd5b61171a816001612f9a565b905086811115611771576040805162461bcd60e51b815260206004820152601b60248201527f746f6b656e416d6f756e74203e206d61784275726e416d6f756e740000000000604482015290519081900360640190fd5b84608001516001600160a01b03166379cc679033836040518363ffffffff1660e01b815260040180836001600160a01b0316815260200182815260200192505050600060405180830381600087803b1580156117cc57600080fd5b505af11580156117e0573d6000803e3d6000fd5b5050505060005b845181101561183c57611834338a838151811061180057fe5b602002602001015187848151811061181457fe5b60200260200101516001600160a01b0316612c1f9092919063ffffffff16565b6001016117e7565b50336001600160a01b03167f3631c28b1f9dd213e0319fb167b554d76b6c283a41143eb400a0d1adb1af175589848860200151611036868b60a00151612bc290919063ffffffff16565b6305f5e1008111156118df576040805162461bcd60e51b815260206004820152600f60248201527f46656520697320746f6f20686967680000000000000000000000000000000000604482015290519081900360640190fd5b600482018190556040805182815290517fd88ea5155021c6f8dafa1a741e173f595cdf77ce7c17d43342131d7f06afdfe59181900360200190a15050565b600061197e858585858960090180548060200260200160405190810160405280929190818152602001828054801561197457602002820191906000526020600020905b815481526020019060010190808311611960575b505050505061317e565b5095945050505050565b6402540be4008111156119e2576040805162461bcd60e51b815260206004820152600f60248201527f46656520697320746f6f20686967680000000000000000000000000000000000604482015290519081900360640190fd5b600582018190556040805182815290517fab599d640ca80cde2b09b128a4154a8dfe608cb80f4c9399c8b954b01fd35f389181900360200190a15050565b6060611afa83600901805480602002602001604051908101604052809291908181526020018280548015611a7357602002820191906000526020600020905b815481526020019060010190808311611a5f575b5050505050838560060160009054906101000a90046001600160a01b03166001600160a01b03166318160ddd6040518163ffffffff1660e01b815260040160206040518083038186803b158015611ac957600080fd5b505afa158015611add573d6000803e3d6000fd5b505050506040513d6020811015611af357600080fd5b5051613326565b90505b92915050565b600080611b20611b1284613403565b611b1b85612ca4565b612da6565b905060008360060160009054906101000a90046001600160a01b031690506000816001600160a01b03166318160ddd6040518163ffffffff1660e01b815260040160206040518083038186803b158015611b7957600080fd5b505afa158015611b8d573d6000803e3d6000fd5b505050506040513d6020811015611ba357600080fd5b505190508015611bcd57611bc381610d9485670de0b6b3a764000061300f565b9350505050611bd5565b600093505050505b919050565b6006840154600785018054604080516020808402820181019092528281526060946001600160a01b03169385939192909190830182828015611c4557602002820191906000526020600020905b81546001600160a01b03168152600190910190602001808311611c27575b50505050509050816001600160a01b03166370a08231336040518263ffffffff1660e01b815260040180826001600160a01b0316815260200191505060206040518083038186803b158015611c9957600080fd5b505afa158015611cad573d6000803e3d6000fd5b505050506040513d6020811015611cc357600080fd5b5051861115611d19576040805162461bcd60e51b815260206004820152600d60248201527f3e4c502e62616c616e63654f6600000000000000000000000000000000000000604482015290519081900360640190fd5b80518414611d6e576040805162461bcd60e51b815260206004820181905260248201527f6d696e416d6f756e7473206d757374206d6174636820706f6f6c546f6b656e73604482015290519081900360640190fd5b606087600901805480602002602001604051908101604052809291908181526020018280548015611dbe57602002820191906000526020600020905b815481526020019060010190808311611daa575b505050505090506000836001600160a01b03166318160ddd6040518163ffffffff1660e01b815260040160206040518083038186803b158015611e0057600080fd5b505afa158015611e14573d6000803e3d6000fd5b505050506040513d6020811015611e2a57600080fd5b505190506060611e3b838a84613326565b905060005b8151811015611f1b57888882818110611e5557fe5b90506020020135828281518110611e6857fe5b60200260200101511015611ec3576040805162461bcd60e51b815260206004820152601a60248201527f616d6f756e74735b695d203c206d696e416d6f756e74735b695d000000000000604482015290519081900360640190fd5b611ee6828281518110611ed257fe5b6020026020010151858381518110610e2f57fe5b8b6009018281548110611ef557fe5b9060005260206000200181905550611f133383838151811061180057fe5b600101611e40565b50604080517f79cc6790000000000000000000000000000000000000000000000000000000008152336004820152602481018b905290516001600160a01b038716916379cc679091604480830192600092919082900301818387803b158015611f8357600080fd5b505af1158015611f97573d6000803e3d6000fd5b503392507f88d38ed598fdd809c2bf01ee49cd24b7fdabf379a83d29567952b60324d58cef9150839050611fcb858d612bc2565b6040518080602001838152602001828103825284818151815260200191508051906020019060200280838360005b83811015612011578181015183820152602001611ff9565b50505050905001935050505060405180910390a29450505050505b949350505050565b6007820154600090821061208f576040805162461bcd60e51b815260206004820152601860248201527f546f6b656e20696e646578206f7574206f662072616e67650000000000000000604482015290519081900360640190fd5b611afa8360090183815481106120a157fe5b90600052602060002001548460070184815481106120bb57fe5b60009182526020918290200154604080517f70a0823100000000000000000000000000000000000000000000000000000000815230600482015290516001600160a01b03909216926370a0823192602480840193829003018186803b15801561070c57600080fd5b60008061212f86612ca4565b905060608660090180548060200260200160405190810160405280929190818152602001828054801561218157602002820191906000526020600020905b81548152602001906001019080831161216d575b505050505090506060876008018054806020026020016040519081016040528092919081815260200182805480156121d857602002820191906000526020600020905b8154815260200190600101908083116121c4575b5050505050905060006121f46121ee8484612caf565b85612da6565b905060005b83518110156122a35786156122475761222a89898381811061221757fe5b90506020020135858381518110610c3357fe5b84828151811061223657fe5b60200260200101818152505061229b565b61228289898381811061225657fe5b9050602002013560405180606001604052806023815260200161405d6023913986848151811061150e57fe5b84828151811061228e57fe5b6020026020010181815250505b6001016121f9565b5060006122b96122b38585612caf565b86612da6565b905060008a60060160009054906101000a90046001600160a01b03166001600160a01b03166318160ddd6040518163ffffffff1660e01b815260040160206040518083038186803b15801561230d57600080fd5b505afa158015612321573d6000803e3d6000fd5b505050506040513d602081101561233757600080fd5b5051905087156123605761235383610d9483610f1c8684612bc2565b965050505050505061202c565b61235383610d9483610f1c8387612bc2565b600080866007018660ff168154811061238757fe5b60009182526020918290200154604080517f70a0823100000000000000000000000000000000000000000000000000000000815233600482015290516001600160a01b03909216935083926370a0823192602480840193829003018186803b1580156123f257600080fd5b505afa158015612406573d6000803e3d6000fd5b505050506040513d602081101561241c57600080fd5b5051841115612472576040805162461bcd60e51b815260206004820152601d60248201527f43616e6e6f742073776170206d6f7265207468616e20796f75206f776e000000604482015290519081900360640190fd5b6000816001600160a01b03166370a08231306040518263ffffffff1660e01b815260040180826001600160a01b0316815260200191505060206040518083038186803b1580156124c157600080fd5b505afa1580156124d5573d6000803e3d6000fd5b505050506040513d60208110156124eb57600080fd5b505190506125046001600160a01b038316333088612f12565b61255581836001600160a01b03166370a08231306040518263ffffffff1660e01b815260040180826001600160a01b0316815260200191505060206040518083038186803b15801561070c57600080fd5b945050506000806060886009018054806020026020016040519081016040528092919081815260200182805480156125ac57602002820191906000526020600020905b815481526020019060010190808311612598575b505050505090506125c0898989898561317e565b90935091508483101561261a576040805162461bcd60e51b815260206004820181905260248201527f53776170206469646e277420726573756c7420696e206d696e20746f6b656e73604482015290519081900360640190fd5b600061265c8a6008018960ff168154811061263157fe5b9060005260206000200154610d946402540be400610d948e600501548861300f90919063ffffffff16565b905061267187838b60ff1681518110610c3357fe5b8a6009018a60ff168154811061268357fe5b90600052602060002001819055506126ae816126a886858c60ff1681518110610e2f57fe5b90612bc2565b8a6009018960ff16815481106126c057fe5b906000526020600020018190555061270133858c6007018b60ff16815481106126e557fe5b6000918252602090912001546001600160a01b03169190612c1f565b604080518881526020810186905260ff808c16828401528a166060820152905133917fc6c1e0630dbe9130cc068028486c0d118ddcea348550819defd5cb8c257f8a38919081900360800190a25091925050505b95945050505050565b6305f5e10081565b60008061197e8585858860060160009054906101000a90046001600160a01b03166001600160a01b03166318160ddd6040518163ffffffff1660e01b815260040160206040518083038186803b1580156127bf57600080fd5b505afa1580156127d3573d6000803e3d6000fd5b505050506040513d60208110156127e957600080fd5b50516134b3565b6006840154600785018054604080516020808402820181019092528281526000946001600160a01b031693606093919290919083018282801561285c57602002820191906000526020600020905b81546001600160a01b0316815260019091019060200180831161283e575b50505050509050816001600160a01b03166370a08231336040518263ffffffff1660e01b815260040180826001600160a01b0316815260200191505060206040518083038186803b1580156128b057600080fd5b505afa1580156128c4573d6000803e3d6000fd5b505050506040513d60208110156128da57600080fd5b5051861115612930576040805162461bcd60e51b815260206004820152600d60248201527f3e4c502e62616c616e63654f6600000000000000000000000000000000000000604482015290519081900360640190fd5b80518560ff1610612988576040805162461bcd60e51b815260206004820152600f60248201527f546f6b656e206e6f7420666f756e640000000000000000000000000000000000604482015290519081900360640190fd5b6000826001600160a01b03166318160ddd6040518163ffffffff1660e01b815260040160206040518083038186803b1580156129c357600080fd5b505afa1580156129d7573d6000803e3d6000fd5b505050506040513d60208110156129ed57600080fd5b50519050600080612a008a8a8a866134b3565b9150915086821015612a59576040805162461bcd60e51b815260206004820152600e60248201527f6479203c206d696e416d6f756e74000000000000000000000000000000000000604482015290519081900360640190fd5b612ab1612a86612a7f6402540be400610d948e600501548661300f90919063ffffffff16565b8490612f9a565b8b6009018a60ff1681548110612a9857fe5b9060005260206000200154612bc290919063ffffffff16565b8a6009018960ff1681548110612ac357fe5b6000918252602082200191909155604080517f79cc6790000000000000000000000000000000000000000000000000000000008152336004820152602481018c905290516001600160a01b038816926379cc6790926044808201939182900301818387803b158015612b3457600080fd5b505af1158015612b48573d6000803e3d6000fd5b50505050612b603383868b60ff168151811061181457fe5b604080518a81526020810185905260ff8a168183015260608101849052905133917f43fb02998f4e03da2e0e6fff53fdbf0c40a9f45f145dc377fc30615d7d7a8a64919081900360800190a25098975050505050505050565b6402540be40081565b600082821115612c19576040805162461bcd60e51b815260206004820152601e60248201527f536166654d6174683a207375627472616374696f6e206f766572666c6f770000604482015290519081900360640190fd5b50900390565b604080516001600160a01b038416602482015260448082018490528251808303909101815260649091019091526020810180517bffffffffffffffffffffffffffffffffffffffffffffffffffffffff167fa9059cbb00000000000000000000000000000000000000000000000000000000179052612c9f908490613515565b505050565b6000611afd826135c6565b81518151606091908114612d0a576040805162461bcd60e51b815260206004820152601f60248201527f42616c616e636573206d757374206d61746368206d756c7469706c6965727300604482015290519081900360640190fd5b60608167ffffffffffffffff81118015612d2357600080fd5b50604051908082528060200260200182016040528015612d4d578160200160208202803683370190505b50905060005b82811015612d9d57612d7e858281518110612d6a57fe5b6020026020010151878381518110610e0d57fe5b828281518110612d8a57fe5b6020908102919091010152600101612d53565b50949350505050565b815160009081805b82811015612de657612ddc868281518110612dc557fe5b602002602001015183612f9a90919063ffffffff16565b9150600101612dae565b5080612df757600092505050611afd565b60008181612e05878661300f565b905060005b610100811015612ec4578260005b87811015612e4757612e3d612e33898d8481518110610e0d57fe5b610d94848861300f565b9150600101612e18565b509293508392612e9b612e7b612e6283610f1c8b6001612f9a565b612e756064610d9489610f1c8a84612bc2565b90612f9a565b610d9486610f1c612e8c868d61300f565b612e756064610d948b8f61300f565b9350612ea7848661365b565b15612ebb5783975050505050505050611afd565b50600101612e0a565b506040805162461bcd60e51b815260206004820152601360248201527f4420646f6573206e6f7420636f6e766572676500000000000000000000000000604482015290519081900360640190fd5b604080516001600160a01b0380861660248301528416604482015260648082018490528251808303909101815260849091019091526020810180517bffffffffffffffffffffffffffffffffffffffffffffffffffffffff167f23b872dd00000000000000000000000000000000000000000000000000000000179052610764908590613515565b600082820183811015611afa576040805162461bcd60e51b815260206004820152601b60248201527f536166654d6174683a206164646974696f6e206f766572666c6f770000000000604482015290519081900360640190fd5b6000611afa6130096004610f1c856001612bc2565b610d9485855b60008261301e57506000611afd565b8282028284828161302b57fe5b0414611afa5760405162461bcd60e51b81526004018080602001828103825260218152602001806140126021913960400191505060405180910390fd5b60008082116130be576040805162461bcd60e51b815260206004820152601a60248201527f536166654d6174683a206469766973696f6e206279207a65726f000000000000604482015290519081900360640190fd5b8183816130c757fe5b049392505050565b6000818311156130e25750808203611afd565b500390565b600081848411156131765760405162461bcd60e51b81526004018080602001828103825283818151815260200191508051906020019080838360005b8381101561313b578181015183820152602001613123565b50505050905090810190601f1680156131685780820380516001836020036101000a031916815260200191505b509250505060405180910390fd5b505050900390565b6000806060876008018054806020026020016040519081016040528092919081815260200182805480156131d157602002820191906000526020600020905b8154815260200190600101908083116131bd575b5050505050905060606131e48583612caf565b905080518860ff161080156131fc575080518760ff16105b61324d576040805162461bcd60e51b815260206004820152601860248201527f546f6b656e20696e646578206f7574206f662072616e67650000000000000000604482015290519081900360640190fd5b6000613292828a60ff168151811061326157fe5b6020026020010151612e75858c60ff168151811061327b57fe5b60200260200101518a61300f90919063ffffffff16565b905060006132ab6132a28c612ca4565b8b8b8587613672565b90506132c560016126a883868d60ff1681518110610e2f57fe5b95506132e76402540be400610d948d600401548961300f90919063ffffffff16565b9450613316848a60ff16815181106132fb57fe5b6020026020010151610d948789612bc290919063ffffffff16565b9550505050509550959350505050565b60608183111561337d576040805162461bcd60e51b815260206004820152601a60248201527f43616e6e6f742065786365656420746f74616c20737570706c79000000000000604482015290519081900360640190fd5b6060845167ffffffffffffffff8111801561339757600080fd5b506040519080825280602002602001820160405280156133c1578160200160208202803683370190505b50905060005b8551811015612d9d576133e484610d9487898581518110610e0d57fe5b8282815181106133f057fe5b60209081029190910101526001016133c7565b6060611afd8260090180548060200260200160405190810160405280929190818152602001828054801561345657602002820191906000526020600020905b815481526020019060010190808311613442575b5050505050836008018054806020026020016040519081016040528092919081815260200182805480156134a957602002820191906000526020600020905b815481526020019060010190808311613495575b5050505050612caf565b60008060008060006134c789888a896138b8565b8093508194508295505050506000613504846126a88c6008018b60ff16815481106134ee57fe5b600091825260209091200154610d948688612bc2565b939a93995092975050505050505050565b606061356a826040518060400160405280602081526020017f5361666545524332303a206c6f772d6c6576656c2063616c6c206661696c6564815250856001600160a01b0316613bb39092919063ffffffff16565b805190915015612c9f5780806020019051602081101561358957600080fd5b5051612c9f5760405162461bcd60e51b815260040180806020018281038252602a815260200180614033602a913960400191505060405180910390fd5b600381015460018201546000919042821115613652576002840154845480831115613624576136196136126135fb8685612bc2565b610d946136084287612bc2565b610f1c8887612bc2565b8290612f9a565b945050505050611bd5565b61361961364b6136348685612bc2565b610d946136414287612bc2565b610f1c8689612bc2565b8290612bc2565b9150611bd59050565b6000600161366984846130cf565b11159392505050565b805160009060ff86811690861614156136d2576040805162461bcd60e51b815260206004820152601d60248201527f43616e277420636f6d7061726520746f6b656e20746f20697473656c66000000604482015290519081900360640190fd5b808660ff161080156136e65750808560ff16105b613737576040805162461bcd60e51b815260206004820152601660248201527f546f6b656e73206d75737420626520696e20706f6f6c00000000000000000000604482015290519081900360640190fd5b60006137438489612da6565b905080600080613753858c61300f565b90506000805b868110156137cc578b60ff168114156137745789915061379e565b8a60ff1681146137995788818151811061378a57fe5b6020026020010151915061379e565b6137c4565b6137a88483612f9a565b93506137c16137b7838961300f565b610d94878961300f565b94505b600101613759565b506137e96137da838861300f565b610d946064610f1c888a61300f565b935060006138066137ff84610d9489606461300f565b8590612f9a565b9050600086815b61010081101561386a5790915081906138406138328a6126a887612e7587600261300f565b610d948a612e75868061300f565b915061384c828461365b565b1561386257509850612755975050505050505050565b60010161380d565b506040805162461bcd60e51b815260206004820152601e60248201527f417070726f78696d6174696f6e20646964206e6f7420636f6e76657267650000604482015290519081900360640190fd5b600080600060606138c888613403565b905080518760ff1610613922576040805162461bcd60e51b815260206004820152601860248201527f546f6b656e20696e646578206f7574206f662072616e67650000000000000000604482015290519081900360640190fd5b61392a613fa7565b6040518060a00160405280600081526020016000815260200160008152602001600081526020016000815250905061396189612ca4565b60808201819052613973908390612da6565b8082526139939061398b908890610d94908b9061300f565b825190612bc2565b60208201528151829060ff8a169081106139a957fe5b6020026020010151871115613a05576040805162461bcd60e51b815260206004820152601a60248201527f5769746864726177206578636565647320617661696c61626c65000000000000604482015290519081900360640190fd5b613a19816080015189848460200151613bc2565b6040820152815160609067ffffffffffffffff81118015613a3957600080fd5b50604051908082528060200260200182016040528015613a63578160200160208202803683370190505b509050613a758a600401548451612ff4565b606083015260005b8351811015613b29576000848281518110613a9457fe5b60200260200101519050613b0961364b6402540be400610d9487606001518f60ff168714613ae257885160208a0151613add91613ad691610d94908a9061300f565b8790612bc2565b610f1c565b610f1c89604001516126a88b60000151610d948d602001518b61300f90919063ffffffff16565b838381518110613b1557fe5b602090810291909101015250600101613a7d565b506000613b52613b4384608001518c858760200151613bc2565b838c60ff1681518110610e2f57fe5b9050613b808b6008018b60ff1681548110613b6957fe5b600091825260209091200154610d94836001612bc2565b9050808360400151858c60ff1681518110613b9757fe5b6020026020010151965096509650505050509450945094915050565b606061202c8484600085613d28565b815160009060ff85168111613c1e576040805162461bcd60e51b815260206004820152600f60248201527f546f6b656e206e6f7420666f756e640000000000000000000000000000000000604482015290519081900360640190fd5b82600080613c2c898561300f565b905060005b84811015613c93578860ff168114613c8b57613c69888281518110613c5257fe5b602002602001015184612f9a90919063ffffffff16565b9250613c88613c7e868a8481518110610e0d57fe5b610d94868a61300f565b93505b600101613c31565b50613cb0613ca1828661300f565b610d946064610f1c878b61300f565b92506000613cc6612a7f83610d948a606461300f565b9050600087815b61010081101561386a579091508190613d00613cf28b6126a887612e7587600261300f565b610d9489612e75868061300f565b9150613d0c828461365b565b15613d205750965061202c95505050505050565b600101613ccd565b606082471015613d695760405162461bcd60e51b8152600401808060200182810382526026815260200180613fec6026913960400191505060405180910390fd5b613d7285613ea2565b613dc3576040805162461bcd60e51b815260206004820152601d60248201527f416464726573733a2063616c6c20746f206e6f6e2d636f6e7472616374000000604482015290519081900360640190fd5b60006060866001600160a01b031685876040518082805190602001908083835b60208310613e2057805182527fffffffffffffffffffffffffffffffffffffffffffffffffffffffffffffffe09092019160209182019101613de3565b6001836020036101000a03801982511681845116808217855250505050505090500191505060006040518083038185875af1925050503d8060008114613e82576040519150601f19603f3d011682016040523d82523d6000602084013e613e87565b606091505b5091509150613e97828286613ea8565b979650505050505050565b3b151590565b60608315613eb75750816110e3565b825115613ec75782518084602001fd5b60405162461bcd60e51b815260206004820181815284516024840152845185939192839260440191908501908083836000831561313b578181015183820152602001613123565b6040518061010001604052806000815260200160008152602001600081526020016000815260200160006001600160a01b031681526020016000815260200160608152602001606081525090565b828054828255906000526020600020908101928215613f97579160200282015b82811115613f97578251825591602001919060010190613f7c565b50613fa3929150613fd6565b5090565b6040518060a0016040528060008152602001600081526020016000815260200160008152602001600081525090565b5b80821115613fa35760008155600101613fd756fe416464726573733a20696e73756666696369656e742062616c616e636520666f722063616c6c536166654d6174683a206d756c7469706c69636174696f6e206f766572666c6f775361666545524332303a204552433230206f7065726174696f6e20646964206e6f74207375636365656443616e6e6f74207769746864726177206d6f7265207468616e20617661696c61626c65a264697066735822122097e61af9f8f88701649b769d0ff187eef1c0529970264cd6a011583b3b92f04464736f6c634300060c0033",
  "devdoc": {
    "details": "Contracts relying on this library must initialize SwapUtils.Swap struct then use this library for SwapUtils.Swap struct. Note that this library contains both functions called by users and admins. Admin functions should be protected within contracts using this library.",
    "kind": "dev",
    "methods": {
      "addLiquidity(SwapUtils.Swap storage,uint256[],uint256)": {
        "params": {
          "amounts": "the amounts of each token to add, in their native precision",
          "minToMint": "the minimum LP tokens adding this amount of liquidity should mint, otherwise revert. Handy for front-running mitigation allowed addresses. If the pool is not in the guarded launch phase, this parameter will be ignored.",
          "self": "Swap struct to read from and write to"
        },
        "returns": {
          "_0": "amount of LP token user received"
        }
      },
      "calculateRemoveLiquidity(SwapUtils.Swap storage,uint256)": {
        "params": {
          "amount": "the amount of LP tokens that would to be burned on withdrawal"
        },
        "returns": {
          "_0": "array of amounts of tokens user will receive"
        }
      },
      "calculateSwap(SwapUtils.Swap storage,uint8,uint8,uint256)": {
        "params": {
          "dx": "the number of tokens to sell. If the token charges a fee on transfers, use the amount that gets transferred after the fee.",
          "self": "Swap struct to read from",
          "tokenIndexFrom": "the token to sell",
          "tokenIndexTo": "the token to buy"
        },
        "returns": {
          "dy": "the number of tokens the user will get"
        }
      },
      "calculateTokenAmount(SwapUtils.Swap storage,uint256[],bool)": {
        "details": "This shouldn't be used outside frontends for user estimates.",
        "params": {
          "amounts": "an array of token amounts to deposit or withdrawal, corresponding to pooledTokens. The amount should be in each pooled token's native precision. If a token charges a fee on transfers, use the amount that gets transferred after the fee.",
          "deposit": "whether this is a deposit or a withdrawal",
          "self": "Swap struct to read from"
        },
        "returns": {
          "_0": "if deposit was true, total amount of lp token that will be minted and if deposit was false, total amount of lp token that will be burned"
        }
      },
      "calculateWithdrawOneToken(SwapUtils.Swap storage,uint256,uint8)": {
        "params": {
          "self": "Swap struct to read from",
          "tokenAmount": "the amount to withdraw in the pool's precision",
          "tokenIndex": "which token will be withdrawn"
        },
        "returns": {
          "_0": "the amount of token user will receive"
        }
      },
      "getAdminBalance(SwapUtils.Swap storage,uint256)": {
        "params": {
          "index": "Index of the pooled token",
          "self": "Swap struct to read from"
        },
        "returns": {
          "_0": "admin balance in the token's precision"
        }
      },
      "getVirtualPrice(SwapUtils.Swap storage)": {
        "params": {
          "self": "Swap struct to read from"
        },
        "returns": {
          "_0": "the virtual price, scaled to precision of POOL_PRECISION_DECIMALS"
        }
      },
      "removeLiquidity(SwapUtils.Swap storage,uint256,uint256[])": {
        "details": "Liquidity can always be removed, even when the pool is paused.",
        "params": {
          "amount": "the amount of LP tokens to burn",
          "minAmounts": "the minimum amounts of each token in the pool acceptable for this burn. Useful as a front-running mitigation",
          "self": "Swap struct to read from and write to"
        },
        "returns": {
          "_0": "amounts of tokens the user received"
        }
      },
      "removeLiquidityImbalance(SwapUtils.Swap storage,uint256[],uint256)": {
        "params": {
          "amounts": "how much of each token to withdraw",
          "maxBurnAmount": "the max LP token provider is willing to pay to remove liquidity. Useful as a front-running mitigation.",
          "self": "Swap struct to read from and write to"
        },
        "returns": {
          "_0": "actual amount of LP tokens burned in the withdrawal"
        }
      },
      "removeLiquidityOneToken(SwapUtils.Swap storage,uint256,uint8,uint256)": {
        "params": {
          "minAmount": "the minimum amount to withdraw, otherwise revert",
          "self": "Swap struct to read from and write to",
          "tokenAmount": "the amount of the lp tokens to burn",
          "tokenIndex": "the index of the token you want to receive"
        },
        "returns": {
          "_0": "amount chosen token that user received"
        }
      },
      "setAdminFee(SwapUtils.Swap storage,uint256)": {
        "details": "adminFee cannot be higher than 100% of the swap fee",
        "params": {
          "newAdminFee": "new admin fee to be applied on future transactions",
          "self": "Swap struct to update"
        }
      },
      "setSwapFee(SwapUtils.Swap storage,uint256)": {
        "details": "fee cannot be higher than 1% of each swap",
        "params": {
          "newSwapFee": "new swap fee to be applied on future transactions",
          "self": "Swap struct to update"
        }
      },
      "swap(SwapUtils.Swap storage,uint8,uint8,uint256,uint256)": {
        "params": {
          "dx": "the amount of tokens the user wants to sell",
          "minDy": "the min amount the user would like to receive, or revert.",
          "self": "Swap struct to read from and write to",
          "tokenIndexFrom": "the token the user wants to sell",
          "tokenIndexTo": "the token the user wants to buy"
        },
        "returns": {
          "_0": "amount of token user received on swap"
        }
      },
      "withdrawAdminFees(SwapUtils.Swap storage,address)": {
        "params": {
          "self": "Swap struct to withdraw fees from",
          "to": "Address to send the fees to"
        }
      }
    },
    "title": "SwapUtils library",
    "version": 1
  },
  "userdoc": {
    "kind": "user",
    "methods": {
      "addLiquidity(SwapUtils.Swap storage,uint256[],uint256)": {
        "notice": "Add liquidity to the pool"
      },
      "calculateRemoveLiquidity(SwapUtils.Swap storage,uint256)": {
        "notice": "A simple method to calculate amount of each underlying tokens that is returned upon burning given amount of LP tokens"
      },
      "calculateSwap(SwapUtils.Swap storage,uint8,uint8,uint256)": {
        "notice": "Externally calculates a swap between two tokens."
      },
      "calculateTokenAmount(SwapUtils.Swap storage,uint256[],bool)": {
        "notice": "A simple method to calculate prices from deposits or withdrawals, excluding fees but including slippage. This is helpful as an input into the various \"min\" parameters on calls to fight front-running"
      },
      "calculateWithdrawOneToken(SwapUtils.Swap storage,uint256,uint8)": {
        "notice": "Calculate the dy, the amount of selected token that user receives and the fee of withdrawing in one token"
      },
      "getAdminBalance(SwapUtils.Swap storage,uint256)": {
        "notice": "return accumulated amount of admin fees of the token with given index"
      },
      "getVirtualPrice(SwapUtils.Swap storage)": {
        "notice": "Get the virtual price, to help calculate profit"
      },
      "removeLiquidity(SwapUtils.Swap storage,uint256,uint256[])": {
        "notice": "Burn LP tokens to remove liquidity from the pool."
      },
      "removeLiquidityImbalance(SwapUtils.Swap storage,uint256[],uint256)": {
        "notice": "Remove liquidity from the pool, weighted differently than the pool's current balances."
      },
      "removeLiquidityOneToken(SwapUtils.Swap storage,uint256,uint8,uint256)": {
        "notice": "Remove liquidity from the pool all in one token."
      },
      "setAdminFee(SwapUtils.Swap storage,uint256)": {
        "notice": "Sets the admin fee"
      },
      "setSwapFee(SwapUtils.Swap storage,uint256)": {
        "notice": "update the swap fee"
      },
      "swap(SwapUtils.Swap storage,uint8,uint8,uint256,uint256)": {
        "notice": "swap two tokens in the pool"
      },
      "withdrawAdminFees(SwapUtils.Swap storage,address)": {
        "notice": "withdraw all admin fees to a given address"
      }
    },
    "notice": "A library to be used within Swap.sol. Contains functions responsible for custody and AMM functionalities.",
    "version": 1
  },
  "storageLayout": {
    "storage": [],
    "types": null
  }
}