{
  "address": "0xC1F426d2b5151B139c0895b08c2310F7c804f1aD",
  "abi": [
    {
      "inputs": [
        {
          "internalType": "uint256",
          "name": "_gasLimit",
          "type": "uint256"
        },
        {
          "internalType": "uint256",
          "name": "_gasPrice",
          "type": "uint256"
        },
        {
          "internalType": "address",
          "name": "_SDL",
          "type": "address"
        }
      ],
      "stateMutability": "nonpayable",
      "type": "constructor"
    },
    {
      "anonymous": false,
      "inputs": [
        {
          "indexed": true,
          "internalType": "address",
          "name": "previousOwner",
          "type": "address"
        },
        {
          "indexed": true,
          "internalType": "address",
          "name": "newOwner",
          "type": "address"
        }
      ],
      "name": "OwnershipTransferred",
      "type": "event"
    },
    {
      "anonymous": false,
      "inputs": [
        {
          "indexed": false,
          "internalType": "address",
          "name": "account",
          "type": "address"
        }
      ],
      "name": "Paused",
      "type": "event"
    },
    {
      "anonymous": false,
      "inputs": [
        {
          "indexed": false,
          "internalType": "address",
          "name": "account",
          "type": "address"
        }
      ],
      "name": "Unpaused",
      "type": "event"
    },
    {
      "anonymous": false,
      "inputs": [
        {
          "indexed": false,
          "internalType": "uint256[2]",
          "name": "oldSubmissionData",
          "type": "uint256[2]"
        },
        {
          "indexed": false,
          "internalType": "uint256[2]",
          "name": "newSubmissionData",
          "type": "uint256[2]"
        }
      ],
      "name": "UpdateSubmissionData",
      "type": "event"
    },
    {
      "inputs": [
        {
          "internalType": "address",
          "name": "",
          "type": "address"
        }
      ],
      "name": "approved",
      "outputs": [
        {
          "internalType": "bool",
          "name": "",
          "type": "bool"
        }
      ],
      "stateMutability": "view",
      "type": "function"
    },
    {
      "inputs": [
        {
          "internalType": "address",
          "name": "_token",
          "type": "address"
        },
        {
          "internalType": "address",
          "name": "_to",
          "type": "address"
        },
        {
          "internalType": "uint256",
          "name": "_amount",
          "type": "uint256"
        }
      ],
      "name": "bridge",
      "outputs": [],
      "stateMutability": "payable",
      "type": "function"
    },
    {
      "inputs": [
        {
          "internalType": "address",
          "name": "",
          "type": "address"
        }
      ],
      "name": "check",
      "outputs": [
        {
          "internalType": "bool",
          "name": "",
          "type": "bool"
        }
      ],
      "stateMutability": "pure",
      "type": "function"
    },
    {
      "inputs": [],
      "name": "cost",
      "outputs": [
        {
          "internalType": "uint256",
          "name": "",
          "type": "uint256"
        }
      ],
      "stateMutability": "view",
      "type": "function"
    },
    {
      "inputs": [
        {
          "internalType": "uint256",
          "name": "basefee",
          "type": "uint256"
        }
      ],
      "name": "cost",
      "outputs": [
        {
          "internalType": "uint256",
          "name": "",
          "type": "uint256"
        }
      ],
      "stateMutability": "view",
      "type": "function"
    },
    {
      "inputs": [],
      "name": "gasLimit",
      "outputs": [
        {
          "internalType": "uint256",
          "name": "",
          "type": "uint256"
        }
      ],
      "stateMutability": "view",
      "type": "function"
    },
    {
      "inputs": [],
      "name": "gasPrice",
      "outputs": [
        {
          "internalType": "uint256",
          "name": "",
          "type": "uint256"
        }
      ],
      "stateMutability": "view",
      "type": "function"
    },
    {
      "inputs": [],
      "name": "owner",
      "outputs": [
        {
          "internalType": "address",
          "name": "",
          "type": "address"
        }
      ],
      "stateMutability": "view",
      "type": "function"
    },
    {
      "inputs": [],
      "name": "pause",
      "outputs": [],
      "stateMutability": "nonpayable",
      "type": "function"
    },
    {
      "inputs": [],
      "name": "paused",
      "outputs": [
        {
          "internalType": "bool",
          "name": "",
          "type": "bool"
        }
      ],
      "stateMutability": "view",
      "type": "function"
    },
    {
      "inputs": [],
      "name": "renounceOwnership",
      "outputs": [],
      "stateMutability": "nonpayable",
      "type": "function"
    },
    {
      "inputs": [
        {
          "internalType": "uint256",
          "name": "_gasLimit",
          "type": "uint256"
        },
        {
          "internalType": "uint256",
          "name": "_gasPrice",
          "type": "uint256"
        }
      ],
      "name": "setSubmissionData",
      "outputs": [],
      "stateMutability": "nonpayable",
      "type": "function"
    },
    {
      "inputs": [
        {
          "internalType": "address",
          "name": "newOwner",
          "type": "address"
        }
      ],
      "name": "transferOwnership",
      "outputs": [],
      "stateMutability": "nonpayable",
      "type": "function"
    },
    {
      "inputs": [],
      "name": "unpause",
      "outputs": [],
      "stateMutability": "nonpayable",
      "type": "function"
    },
    {
      "stateMutability": "payable",
      "type": "receive"
    }
  ],
  "transactionHash": "0x2dd0445213482c2294e99d6d0b4b357bad2833c47c1cc4413083782b6d62f90b",
  "args": [
    1000000,
    990000000,
    "0xf1Dc500FdE233A4055e25e5BbF516372BC4F6871"
  ],
  "numDeployments": 1,
  "solcInputHash": "38ac894988ebf4d6035a93b121cacae1",
  "bytecode": "0x60a06040523480156200001157600080fd5b5060405162001d7a38038062001d7a83398101604081905262000034916200056e565b6200003f3362000158565b6000805460ff60a01b191690556001600160a01b0381166080526001600160801b03831080156200007657506001600160801b0382105b6200008057600080fd5b6200009082608085901b620005b6565b60015560408051808201825260008082526020808301919091528251808401845286815290810185905291517f08304c417384e677bfe0075c0373b3004aec0f73a9f7cd734d5065fe679f31cb92620000ea929162000609565b60405180910390a16200012d73a3a7b6f88361f48403514059f1f16c8e78d60eec600019836001600160a01b0316620001a860201b62000b0f179092919060201c565b6001600160a01b03166000908152600260205260409020805460ff1916600117905550620006df9050565b600080546001600160a01b038381166001600160a01b0319831681178455604051919092169283917f8be0079c531659141344cd1fd0a4f28419497f9722a3daafe3b4186f6b6457e09190a35050565b801580620002265750604051636eb1769f60e11b81523060048201526001600160a01b03838116602483015284169063dd62ed3e90604401602060405180830381865afa158015620001fe573d6000803e3d6000fd5b505050506040513d601f19601f8201168201806040525081019062000224919062000628565b155b6200029e5760405162461bcd60e51b815260206004820152603660248201527f5361666545524332303a20617070726f76652066726f6d206e6f6e2d7a65726f60448201527f20746f206e6f6e2d7a65726f20616c6c6f77616e63650000000000000000000060648201526084015b60405180910390fd5b604080516001600160a01b038416602482015260448082018490528251808303909101815260649091019091526020810180516001600160e01b0390811663095ea7b360e01b17909152620002f6918591620002fb16565b505050565b600062000357826040518060400160405280602081526020017f5361666545524332303a206c6f772d6c6576656c2063616c6c206661696c6564815250856001600160a01b0316620003d960201b62000d14179092919060201c565b805190915015620002f6578080602001905181019062000378919062000642565b620002f65760405162461bcd60e51b815260206004820152602a60248201527f5361666545524332303a204552433230206f7065726174696f6e20646964206e6044820152691bdd081cdd58d8d9595960b21b606482015260840162000295565b6060620003ea8484600085620003f4565b90505b9392505050565b606082471015620004575760405162461bcd60e51b815260206004820152602660248201527f416464726573733a20696e73756666696369656e742062616c616e636520666f6044820152651c8818d85b1b60d21b606482015260840162000295565b6001600160a01b0385163b620004b05760405162461bcd60e51b815260206004820152601d60248201527f416464726573733a2063616c6c20746f206e6f6e2d636f6e7472616374000000604482015260640162000295565b600080866001600160a01b03168587604051620004ce91906200068c565b60006040518083038185875af1925050503d80600081146200050d576040519150601f19603f3d011682016040523d82523d6000602084013e62000512565b606091505b5090925090506200052582828662000530565b979650505050505050565b6060831562000541575081620003ed565b825115620005525782518084602001fd5b8160405162461bcd60e51b8152600401620002959190620006aa565b6000806000606084860312156200058457600080fd5b83516020850151604086015191945092506001600160a01b0381168114620005ab57600080fd5b809150509250925092565b80820180821115620005d857634e487b7160e01b600052601160045260246000fd5b92915050565b8060005b600281101562000603578151845260209384019390910190600101620005e2565b50505050565b60808101620006198285620005de565b620003ed6040830184620005de565b6000602082840312156200063b57600080fd5b5051919050565b6000602082840312156200065557600080fd5b81518015158114620003ed57600080fd5b60005b838110156200068357818101518382015260200162000669565b50506000910152565b60008251620006a081846020870162000666565b9190910192915050565b6020815260008251806020840152620006cb81604085016020870162000666565b601f01601f19169190910160400192915050565b608051611678620007026000396000818161041401526108cd01526116786000f3fe6080604052600436106100e15760003560e01c80638da5cb5b1161007f578063d8b964e611610059578063d8b964e61461023b578063f2fde38b1461026b578063f68016b71461028b578063fe173b97146102a357600080fd5b80638da5cb5b146101c55780639097548d146101fa578063c23697a81461021a57600080fd5b80635c975abb116100bb5780635c975abb1461014c578063715018a6146101885780638456cb591461019d57806387121759146101b257600080fd5b806313faede6146100ed5780633f4ba83a14610115578063446ce0951461012c57600080fd5b366100e857005b600080fd5b3480156100f957600080fd5b506101026102ca565b6040519081526020015b60405180910390f35b34801561012157600080fd5b5061012a6102da565b005b34801561013857600080fd5b5061012a610147366004611371565b6102f4565b34801561015857600080fd5b5060005474010000000000000000000000000000000000000000900460ff165b604051901515815260200161010c565b34801561019457600080fd5b5061012a6103be565b3480156101a957600080fd5b5061012a6103d0565b61012a6101c03660046113b5565b6103e8565b3480156101d157600080fd5b5060005460405173ffffffffffffffffffffffffffffffffffffffff909116815260200161010c565b34801561020657600080fd5b506101026102153660046113f6565b610890565b34801561022657600080fd5b5061017861023536600461140f565b50600190565b34801561024757600080fd5b5061017861025636600461140f565b60026020526000908152604090205460ff1681565b34801561027757600080fd5b5061012a61028636600461140f565b610a53565b34801561029757600080fd5b5060015460801c610102565b3480156102af57600080fd5b506001546fffffffffffffffffffffffffffffffff16610102565b60006102d548610890565b905090565b6102e2610d2d565b6102ea610dae565b6102f2610e32565b565b6102fc610d2d565b6fffffffffffffffffffffffffffffffff8210801561032a57506fffffffffffffffffffffffffffffffff81105b61033357600080fd5b60015461034482608085901b61145b565b600155604080518082018252608083901c81526fffffffffffffffffffffffffffffffff83166020808301919091528251808401845286815290810185905291517f08304c417384e677bfe0075c0373b3004aec0f73a9f7cd734d5065fe679f31cb926103b19291611497565b60405180910390a1505050565b6103c6610d2d565b6102f26000610eaf565b6103d8610d2d565b6103e0610f24565b6102f2610fa9565b6103f0610f24565b61041273ffffffffffffffffffffffffffffffffffffffff8416333084611018565b7f000000000000000000000000000000000000000000000000000000000000000073ffffffffffffffffffffffffffffffffffffffff168373ffffffffffffffffffffffffffffffffffffffff1614158015610494575073ffffffffffffffffffffffffffffffffffffffff831660009081526002602052604090205460ff16155b156105cc576040517f3b8e414d00000000000000000000000000000000000000000000000000000000815273ffffffffffffffffffffffffffffffffffffffff8416600482015261057d907372ce9c846789fdb6fc1f34ac4ad25dd9ef7031ef90633b8e414d90602401602060405180830381865afa15801561051b573d6000803e3d6000fd5b505050506040513d601f19601f8201168201806040525081019061053f91906114b2565b73ffffffffffffffffffffffffffffffffffffffff8516907fffffffffffffffffffffffffffffffffffffffffffffffffffffffffffffffff610b0f565b73ffffffffffffffffffffffffffffffffffffffff8316600090815260026020526040902080547fffffffffffffffffffffffffffffffffffffffffffffffffffffffffffffff001660011790555b6001546040517fa0c76a9600000000000000000000000000000000000000000000000000000000815273ffffffffffffffffffffffffffffffffffffffff8086166004830152306024830152841660448201526064810183905260a06084820152600060a48201819052608083901c916fffffffffffffffffffffffffffffffff841691907372ce9c846789fdb6fc1f34ac4ad25dd9ef7031ef9063a0c76a969060c4016040805180830381865afa15801561068c573d6000803e3d6000fd5b505050506040513d601f19601f820116820180604052508101906106b091906114cf565b915060009050734dbd4fc535ac27206064b68ffcf827b0a60bab3f63a66b327d6106dc8461010061145b565b6040517fffffffff0000000000000000000000000000000000000000000000000000000060e084901b1681526004810191909152486024820152604401602060405180830381865afa158015610736573d6000803e3d6000fd5b505050506040513d601f19601f8201168201806040525081019061075a91906114f3565b9050600061077d60005473ffffffffffffffffffffffffffffffffffffffff1690565b90507372ce9c846789fdb6fc1f34ac4ad25dd9ef7031ef634fb1a07b836107a4878961150c565b6107ae919061145b565b8b848c8c8b8b8a6040516020016107d691815260406020820181905260009082015260600190565b6040516020818303038152906040526040518963ffffffff1660e01b81526004016108079796959493929190611591565b6000604051808303818588803b15801561082057600080fd5b505af1158015610834573d6000803e3d6000fd5b5050505050476000146108855760405173ffffffffffffffffffffffffffffffffffffffff8216904780156108fc02916000818181858888f19350505050158015610883573d6000803e3d6000fd5b505b505050505050505050565b6040517fa0c76a9600000000000000000000000000000000000000000000000000000000815273ffffffffffffffffffffffffffffffffffffffff7f00000000000000000000000000000000000000000000000000000000000000001660048201523060248201523360448201526ec097ce7bc90715b34b9f1000000000606482015260a06084820152600060a482018190529081907372ce9c846789fdb6fc1f34ac4ad25dd9ef7031ef9063a0c76a969060c4016040805180830381865afa158015610961573d6000803e3d6000fd5b505050506040513d601f19601f8201168201806040525081019061098591906114cf565b915060009050734dbd4fc535ac27206064b68ffcf827b0a60bab3f63a66b327d6109b18461010061145b565b866040518363ffffffff1660e01b81526004016109d8929190918252602082015260400190565b602060405180830381865afa1580156109f5573d6000803e3d6000fd5b505050506040513d601f19601f82011682018060405250810190610a1991906114f3565b60015490915081610a406fffffffffffffffffffffffffffffffff8316608084901c61150c565b610a4a919061145b565b95945050505050565b610a5b610d2d565b73ffffffffffffffffffffffffffffffffffffffff8116610b03576040517f08c379a000000000000000000000000000000000000000000000000000000000815260206004820152602660248201527f4f776e61626c653a206e6577206f776e657220697320746865207a65726f206160448201527f646472657373000000000000000000000000000000000000000000000000000060648201526084015b60405180910390fd5b610b0c81610eaf565b50565b801580610baf57506040517fdd62ed3e00000000000000000000000000000000000000000000000000000000815230600482015273ffffffffffffffffffffffffffffffffffffffff838116602483015284169063dd62ed3e90604401602060405180830381865afa158015610b89573d6000803e3d6000fd5b505050506040513d601f19601f82011682018060405250810190610bad91906114f3565b155b610c3b576040517f08c379a000000000000000000000000000000000000000000000000000000000815260206004820152603660248201527f5361666545524332303a20617070726f76652066726f6d206e6f6e2d7a65726f60448201527f20746f206e6f6e2d7a65726f20616c6c6f77616e6365000000000000000000006064820152608401610afa565b60405173ffffffffffffffffffffffffffffffffffffffff8316602482015260448101829052610d0f9084907f095ea7b300000000000000000000000000000000000000000000000000000000906064015b604080517fffffffffffffffffffffffffffffffffffffffffffffffffffffffffffffffe08184030181529190526020810180517bffffffffffffffffffffffffffffffffffffffffffffffffffffffff167fffffffff000000000000000000000000000000000000000000000000000000009093169290921790915261107c565b505050565b6060610d238484600085611188565b90505b9392505050565b60005473ffffffffffffffffffffffffffffffffffffffff1633146102f2576040517f08c379a000000000000000000000000000000000000000000000000000000000815260206004820181905260248201527f4f776e61626c653a2063616c6c6572206973206e6f7420746865206f776e65726044820152606401610afa565b60005474010000000000000000000000000000000000000000900460ff166102f2576040517f08c379a000000000000000000000000000000000000000000000000000000000815260206004820152601460248201527f5061757361626c653a206e6f74207061757365640000000000000000000000006044820152606401610afa565b610e3a610dae565b600080547fffffffffffffffffffffff00ffffffffffffffffffffffffffffffffffffffff1690557f5db9ee0a495bf2e6ff9c91a7834c1ba4fdd244a5e8aa4e537bd38aeae4b073aa335b60405173ffffffffffffffffffffffffffffffffffffffff909116815260200160405180910390a1565b6000805473ffffffffffffffffffffffffffffffffffffffff8381167fffffffffffffffffffffffff0000000000000000000000000000000000000000831681178455604051919092169283917f8be0079c531659141344cd1fd0a4f28419497f9722a3daafe3b4186f6b6457e09190a35050565b60005474010000000000000000000000000000000000000000900460ff16156102f2576040517f08c379a000000000000000000000000000000000000000000000000000000000815260206004820152601060248201527f5061757361626c653a20706175736564000000000000000000000000000000006044820152606401610afa565b610fb1610f24565b600080547fffffffffffffffffffffff00ffffffffffffffffffffffffffffffffffffffff16740100000000000000000000000000000000000000001790557f62e78cea01bee320cd4e420270b5ea74000d11b0c9f74754ebdbfc544b05a258610e853390565b60405173ffffffffffffffffffffffffffffffffffffffff808516602483015283166044820152606481018290526110769085907f23b872dd0000000000000000000000000000000000000000000000000000000090608401610c8d565b50505050565b60006110de826040518060400160405280602081526020017f5361666545524332303a206c6f772d6c6576656c2063616c6c206661696c65648152508573ffffffffffffffffffffffffffffffffffffffff16610d149092919063ffffffff16565b805190915015610d0f57808060200190518101906110fc91906115f1565b610d0f576040517f08c379a000000000000000000000000000000000000000000000000000000000815260206004820152602a60248201527f5361666545524332303a204552433230206f7065726174696f6e20646964206e60448201527f6f742073756363656564000000000000000000000000000000000000000000006064820152608401610afa565b60608247101561121a576040517f08c379a000000000000000000000000000000000000000000000000000000000815260206004820152602660248201527f416464726573733a20696e73756666696369656e742062616c616e636520666f60448201527f722063616c6c00000000000000000000000000000000000000000000000000006064820152608401610afa565b73ffffffffffffffffffffffffffffffffffffffff85163b611298576040517f08c379a000000000000000000000000000000000000000000000000000000000815260206004820152601d60248201527f416464726573733a2063616c6c20746f206e6f6e2d636f6e74726163740000006044820152606401610afa565b6000808673ffffffffffffffffffffffffffffffffffffffff1685876040516112c19190611613565b60006040518083038185875af1925050503d80600081146112fe576040519150601f19603f3d011682016040523d82523d6000602084013e611303565b606091505b509150915061131382828661131e565b979650505050505050565b6060831561132d575081610d26565b82511561133d5782518084602001fd5b816040517f08c379a0000000000000000000000000000000000000000000000000000000008152600401610afa919061162f565b6000806040838503121561138457600080fd5b50508035926020909101359150565b73ffffffffffffffffffffffffffffffffffffffff81168114610b0c57600080fd5b6000806000606084860312156113ca57600080fd5b83356113d581611393565b925060208401356113e581611393565b929592945050506040919091013590565b60006020828403121561140857600080fd5b5035919050565b60006020828403121561142157600080fd5b8135610d2681611393565b7f4e487b7100000000000000000000000000000000000000000000000000000000600052601160045260246000fd5b8082018082111561146e5761146e61142c565b92915050565b8060005b6002811015611076578151845260209384019390910190600101611478565b608081016114a58285611474565b610d266040830184611474565b6000602082840312156114c457600080fd5b8151610d2681611393565b600080604083850312156114e257600080fd5b505080516020909101519092909150565b60006020828403121561150557600080fd5b5051919050565b808202811582820484141761146e5761146e61142c565b60005b8381101561153e578181015183820152602001611526565b50506000910152565b6000815180845261155f816020860160208601611523565b601f017fffffffffffffffffffffffffffffffffffffffffffffffffffffffffffffffe0169290920160200192915050565b600073ffffffffffffffffffffffffffffffffffffffff808a16835280891660208401528088166040840152508560608301528460808301528360a083015260e060c08301526115e460e0830184611547565b9998505050505050505050565b60006020828403121561160357600080fd5b81518015158114610d2657600080fd5b60008251611625818460208701611523565b9190910192915050565b602081526000610d26602083018461154756fea2646970667358221220e5289127f39f6989122ef705d38af16f0004fc4123526444beea37f930a32ecb64736f6c63430008110033",
  "devdoc": {
    "details": "Arbitrum bridge requires base fee for the fee calculation therefore the function may revert on evm implementations that do not support base fee",
    "events": {
      "UpdateSubmissionData(uint256[2],uint256[2])": {
        "params": {
          "newSubmissionData": "new submission data",
          "oldSubmissionData": "previous submission data"
        }
      }
    },
    "kind": "dev",
    "methods": {
      "bridge(address,address,uint256)": {
        "details": "Due to `whenNotPaused` modifier, this function can only be called when the contract is not paused. The sender must have approved this contract.",
        "params": {
          "_amount": "amount of tokens to bridge",
          "_to": "address of the destination account on Arbitrum",
          "_token": "address of the token to bridge"
        }
      },
      "check(address)": {
        "returns": {
          "_0": "true if this bridger can be used"
        }
      },
      "constructor": {
        "params": {
          "_SDL": "The address of the SDL token",
          "_gasLimit": "The gas limit for the outbound transfer",
          "_gasPrice": "The gas price for the outbound transfer"
        }
      },
      "cost()": {
        "returns": {
          "_0": "total gas cost for an outbound transfer"
        }
      },
      "cost(uint256)": {
        "params": {
          "basefee": "The basefee to use for the calculation"
        },
        "returns": {
          "_0": "total gas cost for an outbound transfer"
        }
      },
      "gasLimit()": {
        "returns": {
          "_0": "gas limit to use for arbitrum outbound transfers"
        }
      },
      "gasPrice()": {
        "returns": {
          "_0": "gas price to use for arbitrum outbound transfers"
        }
      },
      "owner()": {
        "details": "Returns the address of the current owner."
      },
      "pause()": {
        "details": "Only the owner can call this function and overriding contracts should implement `whenNotPaused` modifier to their bridge function"
      },
      "paused()": {
        "details": "Returns true if the contract is paused, and false otherwise."
      },
      "renounceOwnership()": {
        "details": "Leaves the contract without owner. It will not be possible to call `onlyOwner` functions anymore. Can only be called by the current owner. NOTE: Renouncing ownership will leave the contract without an owner, thereby removing any functionality that is only available to the owner."
      },
      "setSubmissionData(uint256,uint256)": {
        "details": "only callable by the owner",
        "params": {
          "_gasLimit": "gas limit to store for the outbound transfer",
          "_gasPrice": "gas price to store for the outbound transfer"
        }
      },
      "transferOwnership(address)": {
        "details": "Transfers ownership of the contract to a new account (`newOwner`). Can only be called by the current owner."
      },
      "unpause()": {
        "details": "Only the owner can call this function"
      }
    },
    "title": "Arbitrum bridger contract",
    "version": 1
  },
  "userdoc": {
    "events": {
      "UpdateSubmissionData(uint256[2],uint256[2])": {
        "notice": "Event to emit when gas limit and gas price are updated"
      }
    },
    "kind": "user",
    "methods": {
      "bridge(address,address,uint256)": {
        "notice": "Bridge tokens from the current chain to Arbitrum"
      },
      "check(address)": {
        "notice": "Check if this bridger can be used"
      },
      "constructor": {
        "notice": "Constructor for this contract"
      },
      "cost()": {
        "notice": "Calculate the total gas cost for an outbound transfer"
      },
      "cost(uint256)": {
        "notice": "Calculate the total gas cost for an outbound transfer. Uses the provided base fee instead of the current base fee."
      },
      "gasLimit()": {
        "notice": "Read the stored gas limit"
      },
      "gasPrice()": {
        "notice": "Read the stored gas price"
      },
      "pause()": {
        "notice": "Pause the bridger"
      },
      "setSubmissionData(uint256,uint256)": {
        "notice": "Update the gas limit and gas price for outbound transfers"
      },
      "unpause()": {
        "notice": "Unpause the bridger"
      }
    },
    "notice": "This contract is used to bridge tokens to Arbitrum",
    "version": 1
  },
  "storageLayout": {
    "storage": [
      {
        "astId": 4026,
        "contract": "contracts/xchainGauges/bridgers/ArbitrumBridger.sol:ArbitrumBridger",
        "label": "_owner",
        "offset": 0,
        "slot": "0",
        "type": "t_address"
      },
      {
        "astId": 4860,
        "contract": "contracts/xchainGauges/bridgers/ArbitrumBridger.sol:ArbitrumBridger",
        "label": "_paused",
        "offset": 20,
        "slot": "0",
        "type": "t_bool"
      },
      {
        "astId": 8824,
        "contract": "contracts/xchainGauges/bridgers/ArbitrumBridger.sol:ArbitrumBridger",
        "label": "submissionData",
        "offset": 0,
        "slot": "1",
        "type": "t_uint256"
      },
      {
        "astId": 8828,
        "contract": "contracts/xchainGauges/bridgers/ArbitrumBridger.sol:ArbitrumBridger",
        "label": "approved",
        "offset": 0,
        "slot": "2",
        "type": "t_mapping(t_address,t_bool)"
      }
    ],
    "types": {
      "t_address": {
        "encoding": "inplace",
        "label": "address",
        "numberOfBytes": "20"
      },
      "t_bool": {
        "encoding": "inplace",
        "label": "bool",
        "numberOfBytes": "1"
      },
      "t_mapping(t_address,t_bool)": {
        "encoding": "mapping",
        "key": "t_address",
        "label": "mapping(address => bool)",
        "numberOfBytes": "32",
        "value": "t_bool"
      },
      "t_uint256": {
        "encoding": "inplace",
        "label": "uint256",
        "numberOfBytes": "32"
      }
    }
  }
}