{
  "address": "0x99d99A4aaA2F012D61369242Ec581A1682d615De",
  "abi": [
    {
      "name": "CommitAdmins",
      "inputs": [
        {
          "name": "ownership_admin",
          "type": "address",
          "indexed": false
        },
        {
          "name": "emergency_admin",
          "type": "address",
          "indexed": false
        }
      ],
      "anonymous": false,
      "type": "event"
    },
    {
      "name": "ApplyAdmins",
      "inputs": [
        {
          "name": "ownership_admin",
          "type": "address",
          "indexed": false
        },
        {
          "name": "emergency_admin",
          "type": "address",
          "indexed": false
        }
      ],
      "anonymous": false,
      "type": "event"
    },
    {
      "name": "DelegationSet",
      "inputs": [
        {
          "name": "delegation",
          "type": "address",
          "indexed": false
        }
      ],
      "anonymous": false,
      "type": "event"
    },
    {
      "stateMutability": "nonpayable",
      "type": "constructor",
      "inputs": [
        {
          "name": "_delegation",
          "type": "address"
        },
        {
          "name": "_voting_escrow",
          "type": "address"
        },
        {
          "name": "_o_admin",
          "type": "address"
        },
        {
          "name": "_e_admin",
          "type": "address"
        }
      ],
      "outputs": []
    },
    {
      "stateMutability": "view",
      "type": "function",
      "name": "adjusted_balance_of",
      "inputs": [
        {
          "name": "_account",
          "type": "address"
        }
      ],
      "outputs": [
        {
          "name": "",
          "type": "uint256"
        }
      ],
      "gas": 9686
    },
    {
      "stateMutability": "nonpayable",
      "type": "function",
      "name": "kill_delegation",
      "inputs": [],
      "outputs": [],
      "gas": 26863
    },
    {
      "stateMutability": "nonpayable",
      "type": "function",
      "name": "set_delegation",
      "inputs": [
        {
          "name": "_delegation",
          "type": "address"
        }
      ],
      "outputs": [],
      "gas": 41901
    },
    {
      "stateMutability": "nonpayable",
      "type": "function",
      "name": "commit_set_admins",
      "inputs": [
        {
          "name": "_o_admin",
          "type": "address"
        },
        {
          "name": "_e_admin",
          "type": "address"
        }
      ],
      "outputs": [],
      "gas": 78289
    },
    {
      "stateMutability": "nonpayable",
      "type": "function",
      "name": "apply_set_admins",
      "inputs": [],
      "outputs": [],
      "gas": 82241
    },
    {
      "stateMutability": "view",
      "type": "function",
      "name": "delegation",
      "inputs": [],
      "outputs": [
        {
          "name": "",
          "type": "address"
        }
      ],
      "gas": 2610
    },
    {
      "stateMutability": "view",
      "type": "function",
      "name": "voting_escrow",
      "inputs": [],
      "outputs": [
        {
          "name": "",
          "type": "address"
        }
      ],
      "gas": 2640
    },
    {
      "stateMutability": "view",
      "type": "function",
      "name": "emergency_admin",
      "inputs": [],
      "outputs": [
        {
          "name": "",
          "type": "address"
        }
      ],
      "gas": 2670
    },
    {
      "stateMutability": "view",
      "type": "function",
      "name": "ownership_admin",
      "inputs": [],
      "outputs": [
        {
          "name": "",
          "type": "address"
        }
      ],
      "gas": 2700
    },
    {
      "stateMutability": "view",
      "type": "function",
      "name": "future_emergency_admin",
      "inputs": [],
      "outputs": [
        {
          "name": "",
          "type": "address"
        }
      ],
      "gas": 2730
    },
    {
      "stateMutability": "view",
      "type": "function",
      "name": "future_ownership_admin",
      "inputs": [],
      "outputs": [
        {
          "name": "",
          "type": "address"
        }
      ],
      "gas": 2760
    }
  ],
  "transactionHash": "0xbb7180a1116ec2797521df38c66a71bfbd02546c69e393da6f3aee02328e16ab",
  "args": [
    "0xc7A0E3A5952D4e8A45eBf5E7464C8FBc43F7d081",
    "0xD2751CdBED54B87777E805be36670D7aeAe73bb2",
    "0x3F8E527aF4e0c6e763e8f368AC679c44C45626aE",
    "0x5BDb37d0Ddea3A90F233c7B7F6b9394B6b2eef34"
  ],
  "numDeployments": 1,
  "bytecode": "0x602061051e6080396080518060a01c6105195760e0526020602061051e016080396080518060a01c61051957610100526020604061051e016080396080518060a01c61051957610120526020606061051e016080396080518060a01c610519576101405260e0516000556101005160015561012051600355610140516002557f963001cf3a0c5cdcfc26b2710abe2fe859b3565482158b7cb34f59b6eaff521260e051610160526020610160a161050156600436101561000d57610445565b60046000601c376000513461044b5763bbf7408a81186100d5576004358060a01c61044b5760e052600054610100526101005161008d576370a082316101205260e051610140526020610120602461013c6001545afa610072573d600060003e3d6000fd5b601f3d111561044b57610120516101605260206101606100d3565b63bbf7408a6101205260e051610140526020610120602461013c610100515afa6100bc573d600060003e3d6000fd5b601f3d111561044b57610120516101605260206101605bf35b634b74efb78118610167576003546101005260025461012052600060e05260e060c060006002818352015b60c0516020026101000151331861011a576001835261012a565b8151600101808352811415610100575b50505060e0511561044b5760006000557f963001cf3a0c5cdcfc26b2710abe2fe859b3565482158b7cb34f59b6eaff5212600060e052602060e0a1005b63f4b446a381186101f8576004358060a01c61044b5760e052600354331861044b5763bbf7408a6101005233610120526020610100602461011c60e0515afa6101b5573d600060003e3d6000fd5b601f3d111561044b576101005060e0516000557f963001cf3a0c5cdcfc26b2710abe2fe859b3565482158b7cb34f59b6eaff521260e051610100526020610100a1005b63e3a8d3ab81186102e3576004358060a01c61044b5760e0526024358060a01c61044b5761010052600354331461029e57600d610120527f4163636573732064656e696564000000000000000000000000000000000000006101405261012050610120518061014001818260206001820306601f82010390500336823750506308c379a060e0526020610100526101205160206001820306601f820103905060440160fcfd5b60e051600555610100516004557f8f5425b30e6270c1011973f0ccf6d7795cc10623631523e4c45d2837d337d57460e0516101205261010051610140526040610120a1005b636189392181186103b957600354331461036757600d60e0527f4163636573732064656e696564000000000000000000000000000000000000006101005260e05060e0518061010001818260206001820306601f82010390500336823750506308c379a060a052602060c05260e05160206001820306601f820103905060440160bcfd5b60055460e0526004546101005260e051600355610100516002557fe8d7597c306457cd1fa4eb0e165a1a4c3aea9808e274ea97c6b5d9f73a3c477f60e0516101205261010051610140526040610120a1005b63df5cf72381186103d05760005460e052602060e0f35b63dfe0503181186103e75760015460e052602060e0f35b63680c778381186103fe5760025460e052602060e0f35b6347c8715f81186104155760035460e052602060e0f35b635866507a811861042c5760045460e052602060e0f35b633c2fcbf481186104435760055460e052602060e0f35b505b60006000fd5b600080fd5b6100b1610501036100b16000396100b1610501036000f35b600080fd"
}