{
  "address": "0xabd040A92d29CDC59837e79651BB2979EA66ce04",
  "abi": [
    {
      "name": "CommitAdmin",
      "inputs": [
        {
          "type": "address",
          "name": "admin",
          "indexed": false
        }
      ],
      "anonymous": false,
      "type": "event"
    },
    {
      "name": "ApplyAdmin",
      "inputs": [
        {
          "type": "address",
          "name": "admin",
          "indexed": false
        }
      ],
      "anonymous": false,
      "type": "event"
    },
    {
      "name": "ToggleAllowCheckpointToken",
      "inputs": [
        {
          "type": "bool",
          "name": "toggle_flag",
          "indexed": false
        }
      ],
      "anonymous": false,
      "type": "event"
    },
    {
      "name": "CheckpointToken",
      "inputs": [
        {
          "type": "uint256",
          "name": "time",
          "indexed": false
        },
        {
          "type": "uint256",
          "name": "tokens",
          "indexed": false
        }
      ],
      "anonymous": false,
      "type": "event"
    },
    {
      "name": "Claimed",
      "inputs": [
        {
          "type": "address",
          "name": "recipient",
          "indexed": true
        },
        {
          "type": "uint256",
          "name": "amount",
          "indexed": false
        },
        {
          "type": "uint256",
          "name": "claim_epoch",
          "indexed": false
        },
        {
          "type": "uint256",
          "name": "max_epoch",
          "indexed": false
        }
      ],
      "anonymous": false,
      "type": "event"
    },
    {
      "outputs": [],
      "inputs": [
        {
          "type": "address",
          "name": "_voting_escrow"
        },
        {
          "type": "address",
          "name": "_vesdl_penalty_rewards"
        },
        {
          "type": "uint256",
          "name": "_start_time"
        },
        {
          "type": "address",
          "name": "_token"
        },
        {
          "type": "address",
          "name": "_admin"
        },
        {
          "type": "address",
          "name": "_emergency_return"
        }
      ],
      "stateMutability": "nonpayable",
      "type": "constructor"
    },
    {
      "stateMutability": "payable",
      "type": "fallback"
    },
    {
      "name": "checkpoint_token",
      "outputs": [],
      "inputs": [],
      "stateMutability": "nonpayable",
      "type": "function",
      "gas": 820813
    },
    {
      "name": "ve_for_at",
      "outputs": [
        {
          "type": "uint256",
          "name": ""
        }
      ],
      "inputs": [
        {
          "type": "address",
          "name": "_user"
        },
        {
          "type": "uint256",
          "name": "_timestamp"
        }
      ],
      "stateMutability": "view",
      "type": "function",
      "gas": 249507
    },
    {
      "name": "checkpoint_total_supply",
      "outputs": [],
      "inputs": [],
      "stateMutability": "nonpayable",
      "type": "function",
      "gas": 10592495
    },
    {
      "name": "claimable",
      "outputs": [
        {
          "type": "uint256",
          "name": ""
        }
      ],
      "inputs": [],
      "stateMutability": "view",
      "type": "function"
    },
    {
      "name": "claimable",
      "outputs": [
        {
          "type": "uint256",
          "name": ""
        }
      ],
      "inputs": [
        {
          "type": "address",
          "name": "addr"
        }
      ],
      "stateMutability": "view",
      "type": "function"
    },
    {
      "name": "claim",
      "outputs": [
        {
          "type": "uint256",
          "name": ""
        }
      ],
      "inputs": [],
      "stateMutability": "nonpayable",
      "type": "function"
    },
    {
      "name": "claim",
      "outputs": [
        {
          "type": "uint256",
          "name": ""
        }
      ],
      "inputs": [
        {
          "type": "address",
          "name": "_addr"
        }
      ],
      "stateMutability": "nonpayable",
      "type": "function"
    },
    {
      "name": "claim",
      "outputs": [
        {
          "type": "uint256",
          "name": ""
        }
      ],
      "inputs": [
        {
          "type": "address",
          "name": "_addr"
        },
        {
          "type": "bool",
          "name": "_claimPRewards"
        }
      ],
      "stateMutability": "nonpayable",
      "type": "function"
    },
    {
      "name": "claim",
      "outputs": [
        {
          "type": "uint256",
          "name": ""
        }
      ],
      "inputs": [
        {
          "type": "address",
          "name": "_addr"
        },
        {
          "type": "bool",
          "name": "_claimPRewards"
        },
        {
          "type": "bool",
          "name": "_lock"
        }
      ],
      "stateMutability": "nonpayable",
      "type": "function"
    },
    {
      "name": "claim_many",
      "outputs": [
        {
          "type": "bool",
          "name": ""
        }
      ],
      "inputs": [
        {
          "type": "address[20]",
          "name": "_receivers"
        }
      ],
      "stateMutability": "nonpayable",
      "type": "function",
      "gas": 26339334
    },
    {
      "name": "donate",
      "outputs": [
        {
          "type": "bool",
          "name": ""
        }
      ],
      "inputs": [],
      "stateMutability": "nonpayable",
      "type": "function",
      "gas": 823397
    },
    {
      "name": "commit_admin",
      "outputs": [],
      "inputs": [
        {
          "type": "address",
          "name": "_addr"
        }
      ],
      "stateMutability": "nonpayable",
      "type": "function",
      "gas": 38018
    },
    {
      "name": "apply_admin",
      "outputs": [],
      "inputs": [],
      "stateMutability": "nonpayable",
      "type": "function",
      "gas": 39654
    },
    {
      "name": "toggle_allow_checkpoint_token",
      "outputs": [],
      "inputs": [],
      "stateMutability": "nonpayable",
      "type": "function",
      "gas": 38793
    },
    {
      "name": "kill_me",
      "outputs": [],
      "inputs": [],
      "stateMutability": "nonpayable",
      "type": "function",
      "gas": 39707
    },
    {
      "name": "recover_balance",
      "outputs": [
        {
          "type": "bool",
          "name": ""
        }
      ],
      "inputs": [
        {
          "type": "address",
          "name": "_coin"
        }
      ],
      "stateMutability": "nonpayable",
      "type": "function",
      "gas": 7898
    },
    {
      "name": "start_time",
      "outputs": [
        {
          "type": "uint256",
          "name": ""
        }
      ],
      "inputs": [],
      "stateMutability": "view",
      "type": "function",
      "gas": 1661
    },
    {
      "name": "time_cursor",
      "outputs": [
        {
          "type": "uint256",
          "name": ""
        }
      ],
      "inputs": [],
      "stateMutability": "view",
      "type": "function",
      "gas": 1691
    },
    {
      "name": "time_cursor_of",
      "outputs": [
        {
          "type": "uint256",
          "name": ""
        }
      ],
      "inputs": [
        {
          "type": "address",
          "name": "arg0"
        }
      ],
      "stateMutability": "view",
      "type": "function",
      "gas": 1936
    },
    {
      "name": "user_epoch_of",
      "outputs": [
        {
          "type": "uint256",
          "name": ""
        }
      ],
      "inputs": [
        {
          "type": "address",
          "name": "arg0"
        }
      ],
      "stateMutability": "view",
      "type": "function",
      "gas": 1966
    },
    {
      "name": "last_token_time",
      "outputs": [
        {
          "type": "uint256",
          "name": ""
        }
      ],
      "inputs": [],
      "stateMutability": "view",
      "type": "function",
      "gas": 1781
    },
    {
      "name": "tokens_per_week",
      "outputs": [
        {
          "type": "uint256",
          "name": ""
        }
      ],
      "inputs": [
        {
          "type": "uint256",
          "name": "arg0"
        }
      ],
      "stateMutability": "view",
      "type": "function",
      "gas": 1920
    },
    {
      "name": "voting_escrow",
      "outputs": [
        {
          "type": "address",
          "name": ""
        }
      ],
      "inputs": [],
      "stateMutability": "view",
      "type": "function",
      "gas": 1841
    },
    {
      "name": "vesdl_penalty_rewards",
      "outputs": [
        {
          "type": "address",
          "name": ""
        }
      ],
      "inputs": [],
      "stateMutability": "view",
      "type": "function",
      "gas": 1871
    },
    {
      "name": "token",
      "outputs": [
        {
          "type": "address",
          "name": ""
        }
      ],
      "inputs": [],
      "stateMutability": "view",
      "type": "function",
      "gas": 1901
    },
    {
      "name": "total_received",
      "outputs": [
        {
          "type": "uint256",
          "name": ""
        }
      ],
      "inputs": [],
      "stateMutability": "view",
      "type": "function",
      "gas": 1931
    },
    {
      "name": "token_last_balance",
      "outputs": [
        {
          "type": "uint256",
          "name": ""
        }
      ],
      "inputs": [],
      "stateMutability": "view",
      "type": "function",
      "gas": 1961
    },
    {
      "name": "ve_supply",
      "outputs": [
        {
          "type": "uint256",
          "name": ""
        }
      ],
      "inputs": [
        {
          "type": "uint256",
          "name": "arg0"
        }
      ],
      "stateMutability": "view",
      "type": "function",
      "gas": 2100
    },
    {
      "name": "admin",
      "outputs": [
        {
          "type": "address",
          "name": ""
        }
      ],
      "inputs": [],
      "stateMutability": "view",
      "type": "function",
      "gas": 2021
    },
    {
      "name": "future_admin",
      "outputs": [
        {
          "type": "address",
          "name": ""
        }
      ],
      "inputs": [],
      "stateMutability": "view",
      "type": "function",
      "gas": 2051
    },
    {
      "name": "can_checkpoint_token",
      "outputs": [
        {
          "type": "bool",
          "name": ""
        }
      ],
      "inputs": [],
      "stateMutability": "view",
      "type": "function",
      "gas": 2081
    },
    {
      "name": "emergency_return",
      "outputs": [
        {
          "type": "address",
          "name": ""
        }
      ],
      "inputs": [],
      "stateMutability": "view",
      "type": "function",
      "gas": 2111
    },
    {
      "name": "is_killed",
      "outputs": [
        {
          "type": "bool",
          "name": ""
        }
      ],
      "inputs": [],
      "stateMutability": "view",
      "type": "function",
      "gas": 2141
    }
  ],
  "transactionHash": "0xc782ed79f867091c5b1ad5d6df1c60e9f6a4a7b5f1c86ade78f86e44634e7847",
  "args": [
    "0xD2751CdBED54B87777E805be36670D7aeAe73bb2",
    "0xc7b10D3B08CEB05d8ff58a3c781225D9a72078Ae",
    1655759163,
    "0x0C6F06b32E6Ae0C110861b8607e67dA594781961",
    "0x5BDb37d0Ddea3A90F233c7B7F6b9394B6b2eef34",
    "0x3F8E527aF4e0c6e763e8f368AC679c44C45626aE"
  ],
  "numDeployments": 1,
  "bytecode": "0x6f7fffffffffffffffffffffffffffffff60405260c06126dd6101403960206126dd60c03960c05160a01c1561003457600080fd5b602060206126dd0160c03960c05160a01c1561004f57600080fd5b602060606126dd0160c03960c05160a01c1561006a57600080fd5b602060806126dd0160c03960c05160a01c1561008557600080fd5b602060a06126dd0160c03960c05160a01c156100a057600080fd5b6101805162093a808082049050905062093a8080820282158284830414176100c757600080fd5b80905090509050610200526102005160005561020051600455610200516001556101a05160085561014051600655610160516007556101c051600c556101e051600f556126c556600436101561000d576125b0565b600035601c526f7fffffffffffffffffffffffffffffff604052600015610379575b61014052602061020060246370a0823161018052306101a05261019c6008545afa61005957600080fd5b601f3d1161006657600080fd5b600050610200516101605261016051600a548082101561008557600080fd5b808203905090506101805261016051600a556004546101a052426101a051808210156100b057600080fd5b808203905090506101c052426004556101a05162093a808082049050905062093a8080820282158284830414176100e657600080fd5b809050905090506101e05260006102005261022060006014818352015b6101e05162093a8081818301101561011a57600080fd5b808201905090506102005261020051421015610227576101c0511515610145576101a0514214610148565b60005b15610193576101e05166038d7ea4c68000811061016457600080fd5b600560c052602060c0200180546101805181818301101561018457600080fd5b8082019050905081555061021e565b6101e05166038d7ea4c6800081106101aa57600080fd5b600560c052602060c02001805461018051426101a051808210156101cd57600080fd5b8082039050905080820282158284830414176101e857600080fd5b809050905090506101c05180806101fe57600080fd5b82049050905081818301101561021357600080fd5b808201905090508155505b61033d5661031c565b6101c051151561023f576101a0516102005114610242565b60005b1561028d576101e05166038d7ea4c68000811061025e57600080fd5b600560c052602060c0200180546101805181818301101561027e57600080fd5b8082019050905081555061031b565b6101e05166038d7ea4c6800081106102a457600080fd5b600560c052602060c02001805461018051610200516101a051808210156102ca57600080fd5b8082039050905080820282158284830414176102e557600080fd5b809050905090506101c05180806102fb57600080fd5b82049050905081818301101561031057600080fd5b808201905090508155505b5b610200516101a052610200516101e0525b8151600101808352811415610103575b5050426102205261018051610240527fce749457b74e10f393f2c6b1ce4261b78791376db5a3f501477a809f03f500d66040610220a161014051565b63811a40fe60005114156103eb57341561039257600080fd5b600c543314156103a35760016103d3565b600e54156103cf57600454620151808181830110156103c157600080fd5b8082019050905042116103d2565b60005b5b5b6103dd57600080fd5b6006580161002f565b600050005b6000156105a6575b61018052610140526101605260006101a0526020610240600463900cf0cf6101e0526101fc610140515afa61042757600080fd5b601f3d1161043457600080fd5b600050610240516101c0526101e060006080818352015b6101c0516101a05110151561045f57610592565b6101a0516101c05181818301101561047657600080fd5b80820190509050600281818301101561048e57600080fd5b80820190509050600280820490509050610200526102206080610320602463d1febfb96102a052610200516102c0526102bc610140515afa6104cf57600080fd5b607f3d116104dc57600080fd5b61032080808080516103a0525050602081019050808080516103c0525050602081019050808080516103e05250506020810190508080805161040052505050506000506103a0805182528060200151826020015280604001518260400152806060015182606001525050610160516102605111151561056257610200516101a052610581565b6102005160018082101561057557600080fd5b808203905090506101c0525b5b815160010180835281141561044b575b50506101a051600052600051610180515650005b60001561073f575b6101c0526101405261016052610180526101a05260006101e0526101a0516102005261022060006080818352015b610200516101e0511015156105f05761072b565b6101e0516102005181818301101561060757600080fd5b80820190509050600281818301101561061f57600080fd5b8082019050905060028082049050905061024052610260608061038060446328d09d476102e052610160516103005261024051610320526102fc610140515afa61066857600080fd5b607f3d1161067557600080fd5b61038080808080516104005250506020810190508080805161042052505060208101905080808051610440525050602081019050808080516104605250505050600050610400805182528060200151826020015280604001518260400152806060015182606001525050610180516102a0511115156106fb57610240516101e05261071a565b6102405160018082101561070e57600080fd5b80820390509050610200525b5b81516001018083528114156105dc575b50506101e0516000526000516101c0515650005b63ace296fb600051141561095d57341561075857600080fd5b60043560a01c1561076857600080fd5b600654610140526020610200602463010ae757610180526004356101a05261019c610140515afa61079857600080fd5b601f3d116107a557600080fd5b6000506102005161016052610140516101605161018051610140516101a0526004356101c0526024356101e0526101605161020052610200516101e0516101c0516101a051600658016105ae565b6102605261018052610160526101405261026051610180526101a060806102c060446328d09d476102205260043561024052610180516102605261023c610140515afa61083f57600080fd5b607f3d1161084c57600080fd5b6102c080808080516103405250506020810190508080805161036052505060208101905080808051610380525050602081019050808080516103a052505050506000506103408051825280602001518260200152806040015182604001528060600151826060015250506101a0516101c0516024356101e051808210156108d257600080fd5b808203905090506040518111156108e857600080fd5b808202808060008112156108f857195b607f1c1561090557600080fd5b9050905090508082038080600081121561091b57195b607f1c1561092857600080fd5b90509050905060008082121561093e5780610940565b815b90509050600081121561095257600080fd5b60005260206000f350005b600015610c1b575b6101405260065461016052600154610180524262093a808082049050905062093a80808202821582848304141761099b57600080fd5b809050905090506101a052610160513b6109b457600080fd5b60006000600463c2c4c5c16101c0526101dc6000610160515af16109d757600080fd5b6101c060006014818352015b6101a0516101805111156109fa57610c0c56610bd9565b6101405161016051610180516101a0516101c0516101e051610160516102005261018051610220526102205161020051600658016103f3565b610280526101e0526101c0526101a052610180526101605261014052610280516101e0526102006080610300602463d1febfb9610280526101e0516102a05261029c610160515afa610a8457600080fd5b607f3d11610a9157600080fd5b6103008080808051610380525050602081019050808080516103a0525050602081019050808080516103c0525050602081019050808080516103e0525050505060005061038080518252806020015182602001528060400151826040015280606001518260600152505060006102805261024051610180511115610b3f57610180516102405180821015610b2457600080fd5b80820390509050604051811115610b3a57600080fd5b610280525b61020051610220516102805180820280806000811215610b5b57195b607f1c15610b6857600080fd5b90509050905080820380806000811215610b7e57195b607f1c15610b8b57600080fd5b905090509050600080821215610ba15780610ba3565b815b905090506000811215610bb557600080fd5b6101805166038d7ea4c680008110610bcc57600080fd5b600b60c052602060c02001555b610180805162093a80818183011015610bf157600080fd5b808201905090508152505b81516001018083528114156109e3575b50506101805160015561014051565b63b21ed5026000511415610c42573415610c3457600080fd5b60065801610965565b600050005b6000156113b2575b6101a0526101405261016052610180526040366101c03760206102a0602463010ae75761022052610140516102405261023c610160515afa610c8b57600080fd5b601f3d11610c9857600080fd5b6000506102a0516102005260005461022052610200511515610d3e57610240808080600081525050602081019050808060008152505060208101905080806000815250506020810190508080600081525050602081019050808060008152505060a09050905060c05260c0516102e0525b60006102e051111515610d1b57610d37565b60206102e05103610240015160206102e051036102e052610d09565b6101a05156505b60026101405160e05260c052604060c020546102e0526102e0511515610df0576101405161016051610180516101a0516101c0516101e05161020051610220516102e051610160516103005261014051610320526102205161034052610200516103605261036051610340516103205161030051600658016105ae565b6103c0526102e05261022052610200526101e0526101c0526101a0526101805261016052610140526103c0516101c052610e07565b60036101405160e05260c052604060c020546101c0525b6101c0511515610e185760016101c0525b610300608061042060446328d09d4761038052610140516103a0526101c0516103c05261039c610160515afa610e4d57600080fd5b607f3d11610e5a57600080fd5b61042080808080516104a0525050602081019050808080516104c0525050602081019050808080516104e05250506020810190508080805161050052505050506000506104a08051825280602001518260200152806040015182604001528060600151826060015250506102e0511515610f31576103405162093a80818183011015610ee557600080fd5b80820190509050600180821015610efb57600080fd5b8082039050905062093a808082049050905062093a808082028215828483041417610f2557600080fd5b809050905090506102e0525b610180516102e051101515610fca57610380808080600081525050602081019050808060008152505060208101905080806000815250506020810190508080600081525050602081019050808060008152505060a09050905060c05260c051610420525b600061042051111515610fa757610fc3565b6020610420510361038001516020610420510361042052610f95565b6101a05156505b610220516102e0511015610fe157610220516102e0525b608036610420376104a060006032818352015b610180516102e051101515611008576112e7565b610340516102e05110151561102657610200516101c0511115611029565b60005b15611144576101c08051600181818301101561104457600080fd5b80820190509050815250610420610300805182528060200151826020015280604001518260400152806060015182606001525050610200516101c0511115611092576080366103003761113f565b610300608061056060446328d09d476104c052610140516104e0526101c051610500526104dc610160515afa6110c757600080fd5b607f3d116110d457600080fd5b61056080808080516105e052505060208101905080808051610600525050602081019050808080516106205250506020810190508080805161064052505050506000506105e08051825280602001518260200152806040015182604001528060600151826060015250505b6112d6565b6102e051610460518082101561115957600080fd5b8082039050905060405181111561116f57600080fd5b6104c052610420516104c051610440518082028080600081121561118f57195b607f1c1561119c57600080fd5b905090509050808203808060008112156111b257195b607f1c156111bf57600080fd5b9050905090506000808212156111d557806111d7565b815b9050905060008112156111e957600080fd5b6104e0526104e051151561120557610200516101c05111611208565b60005b15611212576112e7565b60006104e05111156112b3576101e080516104e0516102e05166038d7ea4c68000811061123e57600080fd5b600560c052602060c0200154808202821582848304141761125e57600080fd5b809050905090506102e05166038d7ea4c68000811061127c57600080fd5b600b60c052602060c0200154808061129357600080fd5b8204905090508181830110156112a857600080fd5b808201905090508152505b6102e0805162093a808181830110156112cb57600080fd5b808201905090508152505b5b8151600101808352811415610ff4575b5050610200516101c05160018082101561130057600080fd5b80820390509050808211156113155780611317565b815b905090506101c0526104a08080806101e0518152505060208101905080806101c0518152505060208101905080806102e0518152505060208101905080806102005181525050602081019050808060018152505060a09050905060c05260c051610540525b60006105405111151561138e576113aa565b602061054051036104a00151602061054051036105405261137c565b6101a0515650005b63af38d75760005114156113ca573361014052611400565b63402914f560005114156113f85760043560a01c156113e857600080fd5b6020600461014037600050611400565b60001561153e575b341561140b57600080fd5b6080366101603760016101e0526101405161016051610180516101a0516101c0516101e05161014051610200526006546102205260045462093a808082049050905062093a80808202821582848304141761146557600080fd5b809050905090506102405261024051610220516102005160065801610c4a565b6102a0526102c0526102e05261030052610320526101e0526101c0526101a0526101805261016052610140526102a080808080516103405250506020810190508080805161036052505060208101905080808051610380525050602081019050808080516103a0525050602081019050808080516103c0525050505061034080516101605280602001516101805280604001516101a05280606001516101c05280608001516101e052506101605160005260206000f350005b634e71d92d600051141561156257336101405260006101605260006101805261164e565b631e83409a600051141561159c5760006101605260006101805260043560a01c1561158c57600080fd5b602060046101403760005061164e565b6392fd2daf60005114156115e85760006101805260043560a01c156115c057600080fd5b602060046101403760243560011c156115d857600080fd5b602060246101603760005061164e565b636907ab3760005114156116465760043560a01c1561160657600080fd5b602060046101403760243560011c1561161e57600080fd5b602060246101603760443560011c1561163657600080fd5b602060446101803760005061164e565b6000156119e4575b62ffffff541561165d57600080fd5b600162ffffff55341561166f57600080fd5b6010541561167c57600080fd5b600154421015156116ac5761014051610160516101805160065801610965565b6101805261016052610140526000505b6004546101a052600e54156116e0576101a051620151808181830110156116d257600080fd5b8082019050905042116116e3565b60005b1561171a576101405161016051610180516101a0516006580161002f565b6101a052610180526101605261014052600050426101a0525b6101a05162093a808082049050905062093a80808202821582848304141761174157600080fd5b809050905090506101a0526080366101c0376001610240526101405161016051610180516101a0516101c0516101e0516102005161022051610240516101405161026052600654610280526101a0516102a0526102a051610280516102605160065801610c4a565b61030052610320526103405261036052610380526102405261022052610200526101e0526101c0526101a05261018052610160526101405261030080808080516103a0525050602081019050808080516103c0525050602081019050808080516103e0525050602081019050808080516104005250506020810190508080805161042052505050506103a080516101c05280602001516101e0528060400151610200528060600151610220528060800151610240525061024051156118d8576101e05160036101405160e05260c052604060c020556102005160026101405160e05260c052604060c020556101c051610260526101e05161028052610220516102a052610140517f9cdcf2f7714cca3508c7f0110b04a90a80a3a8dd0e35de99689db74d28c5383e6060610260a25b60006101c051181561195c57600a80546101c051808210156118f957600080fd5b80820390509050815550600854610260526020610320604463a9059cbb61028052610140516102a0526101c0516102c05261029c6000610260515af161193e57600080fd5b601f3d1161194b57600080fd5b6000506103205161195b57600080fd5b5b61016051156119c75761018051610260523361014051181561197f576000610260525b6020610320604463f579513f61028052610140516102a052610260516102c05261029c60006007545af16119b257600080fd5b601f3d116119bf57600080fd5b600050610320505b6101c051600052600062ffffff5560206000f350600062ffffff55005b637b935a236000511415611da55762ffffff5415611a0157600080fd5b600162ffffff553415611a1357600080fd5b6000610120525b610120516004013560a01c15611a2f57600080fd5b6020610120510161012052610280610120511015611a4c57611a1a565b60105415611a5957600080fd5b60015442101515611a715760065801610965565b6000505b60045461014052600e5415611aa5576101405162015180818183011015611a9757600080fd5b808201905090504211611aa8565b60005b15611ac757610140516006580161002f565b6101405260005042610140525b6101405162093a808082049050905062093a808082028215828483041417611aee57600080fd5b8090509050905061014052600654610160526008546101805260a0366101a03760016102405261028060006014818352015b602061028051026004013561026052610260511515611b3e57611d5c565b6101406102a0525b6102a0515160206102a051016102a0526102a06102a0511015611b6857611b46565b610260516102c052610160516102e0526101405161030052610300516102e0516102c05160065801610c4a565b61036052610380526103a0526103c0526103e0526102806102a0525b6102a0515260206102a051036102a0526101406102a051101515611bd457611bb1565b610360808080805161040052505060208101905080808051610420525050602081019050808080516104405250506020810190508080805161046052505060208101905080808051610480525050505061040080516101c05280602001516101e052806040015161020052806060015161022052806080015161024052506102405115611ccb576101e05160036102605160e05260c052604060c020556102005160026102605160e05260c052604060c020556101c0516102a0526101e0516102c052610220516102e052610260517f9cdcf2f7714cca3508c7f0110b04a90a80a3a8dd0e35de99689db74d28c5383e60606102a0a25b60006101c0511815611d4b576101a080516101c051818183011015611cef57600080fd5b808201905090508152506020610340604463a9059cbb6102a052610260516102c0526101c0516102e0526102bc6000610180515af1611d2d57600080fd5b601f3d11611d3a57600080fd5b60005061034051611d4a57600080fd5b5b5b8151600101808352811415611b20575b505060006101a0511815611d8a57600a80546101a05180821015611d7f57600080fd5b808203905090508155505b6001600052600062ffffff5560206000f350600062ffffff55005b63ed88c68e6000511415611ec6573415611dbe57600080fd5b6008546101405260105415611dd257600080fd5b602061020060246370a0823161018052336101a05261019c610140515afa611df957600080fd5b601f3d11611e0657600080fd5b60005061020051610160526000610160511815611eb957602061024060646323b872dd61018052336101a052306101c052610160516101e05261019c6000610140515af1611e5357600080fd5b601f3d11611e6057600080fd5b60005061024050600e5415611e935760045462015180818183011015611e8557600080fd5b808201905090504211611e96565b60005b15611eb85761014051610160516006580161002f565b61016052610140526000505b5b600160005260206000f350005b63b1d3db756000511415611f33573415611edf57600080fd5b60043560a01c15611eef57600080fd5b600c543314611efd57600080fd5b600435600d55600435610140527f59a407284ae6e2986675fa1400d6498af928ed01f4fd2dd6be4a2a8b4fc35b346020610140a1005b63c0e991a66000511415611fa8573415611f4c57600080fd5b600c543314611f5a57600080fd5b6000600d5418611f6957600080fd5b600d546101405261014051600c5561014051610160527f756f845176805c8ebf249854e909627308157f63c96e470e44a9e8549ba6fb1e6020610160a1005b632121bfc3600051141561200f573415611fc157600080fd5b600c543314611fcf57600080fd5b600e54156101405261014051600e5561014051610160527fdbe6ac1081ebd8e648718341126659456f4009fcadfe1c23f66f5e61522610b26020610160a1005b63e369885360005114156120cb57341561202857600080fd5b600c54331461203657600080fd5b60016010556008546101405260206102a0604463a9059cbb61020052600f546102205260206101e060246370a0823161016052306101805261017c610140515afa61208057600080fd5b601f3d1161208d57600080fd5b6000506101e0516102405261021c6000610140515af16120ac57600080fd5b601f3d116120b957600080fd5b6000506102a0516120c957600080fd5b005b63db2f5f79600051141561229e5734156120e457600080fd5b60043560a01c156120f457600080fd5b600c54331461210257600080fd5b6008546004351861211257600080fd5b60206101e060246370a0823161016052306101805261017c6004355afa61213857600080fd5b601f3d1161214557600080fd5b6000506101e05161014052600060046101c0527fa9059cbb000000000000000000000000000000000000000000000000000000006101e0526101c060048060208461022001018260208501600060045af1505080518201915050600f5460208261022001015260208101905061014051602082610220010152602081019050806102205261022090508051602001806102c08284600060045af16121e857600080fd5b505060206103806102c0516102e060006004355af161220657600080fd5b60203d808211156122175780612219565b815b90509050610360526103608051602001806101608284600060045af161223e57600080fd5b505060006101605118156122915761016080602001516000825180602090131561226757600080fd5b809190121561227557600080fd5b806020036101000a8204905090509050151561229057600080fd5b5b600160005260206000f350005b63834ee41760005114156122c55734156122b757600080fd5b60005460005260206000f350005b63127dcbd360005114156122ec5734156122de57600080fd5b60015460005260206000f350005b632a2a314b600051141561233157341561230557600080fd5b60043560a01c1561231557600080fd5b600260043560e05260c052604060c0205460005260206000f350005b63d5d46e88600051141561237657341561234a57600080fd5b60043560a01c1561235a57600080fd5b600360043560e05260c052604060c0205460005260206000f350005b637f58e8f8600051141561239d57341561238f57600080fd5b60045460005260206000f350005b63edf5999760005114156123e35734156123b657600080fd5b60043566038d7ea4c6800081106123cc57600080fd5b600560c052602060c020015460005260206000f350005b63dfe05031600051141561240a5734156123fc57600080fd5b60065460005260206000f350005b63b12a3132600051141561243157341561242357600080fd5b60075460005260206000f350005b63fc0c546a600051141561245857341561244a57600080fd5b60085460005260206000f350005b632f0c222e600051141561247f57341561247157600080fd5b60095460005260206000f350005b6322b04bfc60005114156124a657341561249857600080fd5b600a5460005260206000f350005b63d4dafba860005114156124ec5734156124bf57600080fd5b60043566038d7ea4c6800081106124d557600080fd5b600b60c052602060c020015460005260206000f350005b63f851a440600051141561251357341561250557600080fd5b600c5460005260206000f350005b6317f7182a600051141561253a57341561252c57600080fd5b600d5460005260206000f350005b63aeba4737600051141561256157341561255357600080fd5b600e5460005260206000f350005b632c3f531e600051141561258857341561257a57600080fd5b600f5460005260206000f350005b639c868ac060005114156125af5734156125a157600080fd5b60105460005260206000f350005b5b60006000f35b61010f6126c50361010f60003961010f6126c5036000f3"
}