{
  "address": "0x8020E4134AD6a694AdbE9521a12C751e67CE9861",
  "abi": [
    {
      "inputs": [
        {
          "internalType": "address",
          "name": "_masterRegistry",
          "type": "address"
        }
      ],
      "stateMutability": "nonpayable",
      "type": "constructor"
    },
    {
      "inputs": [],
      "name": "MASTER_REGISTRY",
      "outputs": [
        {
          "internalType": "contract IMasterRegistry",
          "name": "",
          "type": "address"
        }
      ],
      "stateMutability": "view",
      "type": "function"
    },
    {
      "inputs": [],
      "name": "POOL_REGISTRY_NAME",
      "outputs": [
        {
          "internalType": "bytes32",
          "name": "",
          "type": "bytes32"
        }
      ],
      "stateMutability": "view",
      "type": "function"
    },
    {
      "inputs": [
        {
          "internalType": "address",
          "name": "gauge",
          "type": "address"
        }
      ],
      "name": "gaugeToPoolAddress",
      "outputs": [
        {
          "internalType": "address",
          "name": "",
          "type": "address"
        }
      ],
      "stateMutability": "view",
      "type": "function"
    },
    {
      "inputs": [
        {
          "internalType": "address",
          "name": "gauge",
          "type": "address"
        }
      ],
      "name": "gaugeToPoolData",
      "outputs": [
        {
          "components": [
            {
              "internalType": "address",
              "name": "poolAddress",
              "type": "address"
            },
            {
              "internalType": "address",
              "name": "lpToken",
              "type": "address"
            },
            {
              "internalType": "uint8",
              "name": "typeOfAsset",
              "type": "uint8"
            },
            {
              "internalType": "bytes32",
              "name": "poolName",
              "type": "bytes32"
            },
            {
              "internalType": "address",
              "name": "targetAddress",
              "type": "address"
            },
            {
              "internalType": "contract IERC20[]",
              "name": "tokens",
              "type": "address[]"
            },
            {
              "internalType": "contract IERC20[]",
              "name": "underlyingTokens",
              "type": "address[]"
            },
            {
              "internalType": "address",
              "name": "basePoolAddress",
              "type": "address"
            },
            {
              "internalType": "address",
              "name": "metaSwapDepositAddress",
              "type": "address"
            },
            {
              "internalType": "bool",
              "name": "isSaddleApproved",
              "type": "bool"
            },
            {
              "internalType": "bool",
              "name": "isRemoved",
              "type": "bool"
            },
            {
              "internalType": "bool",
              "name": "isGuarded",
              "type": "bool"
            }
          ],
          "internalType": "struct IPoolRegistry.PoolData",
          "name": "",
          "type": "tuple"
        }
      ],
      "stateMutability": "view",
      "type": "function"
    },
    {
      "inputs": [
        {
          "internalType": "address",
          "name": "gauge",
          "type": "address"
        },
        {
          "internalType": "address",
          "name": "user",
          "type": "address"
        }
      ],
      "name": "getClaimableRewards",
      "outputs": [
        {
          "internalType": "uint256[]",
          "name": "",
          "type": "uint256[]"
        }
      ],
      "stateMutability": "view",
      "type": "function"
    },
    {
      "inputs": [
        {
          "internalType": "address",
          "name": "gauge",
          "type": "address"
        }
      ],
      "name": "getGaugeRewards",
      "outputs": [
        {
          "components": [
            {
              "internalType": "address",
              "name": "token",
              "type": "address"
            },
            {
              "internalType": "address",
              "name": "distributor",
              "type": "address"
            },
            {
              "internalType": "uint256",
              "name": "period_finish",
              "type": "uint256"
            },
            {
              "internalType": "uint256",
              "name": "rate",
              "type": "uint256"
            },
            {
              "internalType": "uint256",
              "name": "last_update",
              "type": "uint256"
            },
            {
              "internalType": "uint256",
              "name": "integral",
              "type": "uint256"
            }
          ],
          "internalType": "struct ILiquidityGaugeV5.Reward[]",
          "name": "",
          "type": "tuple[]"
        }
      ],
      "stateMutability": "view",
      "type": "function"
    }
  ],
  "transactionHash": "0x7946b1111c64ce0bbabcc24459973d17412ebf52555254e37e6f9dc589febf4a",
  "args": [
    "0xc5ad17b98D7fe73B6dD3b0df5b3040457E68C045"
  ],
  "numDeployments": 1,
  "solcInputHash": "c686040896eb8f6aa5a808e88bc41205",
  "bytecode": "0x60a060405234801561001057600080fd5b5060405161118938038061118983398101604081905261002f91610044565b60601b6001600160601b031916608052610072565b600060208284031215610055578081fd5b81516001600160a01b038116811461006b578182fd5b9392505050565b60805160601c6110f561009460003980610189528061043c52506110f56000f3fe608060405234801561001057600080fd5b50600436106100725760003560e01c8063ac841ed911610050578063ac841ed9146100d5578063db0af732146100dd578063f56f4f0f146100fd57610072565b80634f8d446b14610077578063920d1331146100955780639dcd6578146100b5575b600080fd5b61007f61011d565b60405161008c9190610f4e565b60405180910390f35b6100a86100a3366004610b79565b610141565b60405161008c9190610f57565b6100c86100c3366004610b79565b6102f6565b60405161008c9190610e3a565b6100c861043a565b6100f06100eb366004610b79565b61045e565b60405161008c9190610e82565b61011061010b366004610bb8565b610734565b60405161008c9190610f0a565b7f506f6f6c5265676973747279000000000000000000000000000000000000000081565b6101496109ff565b6040517f3705f62500000000000000000000000000000000000000000000000000000000815260009073ffffffffffffffffffffffffffffffffffffffff7f00000000000000000000000000000000000000000000000000000000000000001690633705f625906101de907f506f6f6c5265676973747279000000000000000000000000000000000000000090600401610f4e565b60206040518083038186803b1580156101f657600080fd5b505afa15801561020a573d6000803e3d6000fd5b505050506040513d601f19601f8201168201806040525081019061022e9190610b9c565b90508073ffffffffffffffffffffffffffffffffffffffff166313d21cdf610255856102f6565b6040518263ffffffff1660e01b81526004016102719190610e3a565b60006040518083038186803b15801561028957600080fd5b505afa9250505080156102dc57506040513d6000823e601f3d9081017fffffffffffffffffffffffffffffffffffffffffffffffffffffffffffffffe01682016040526102d99190810190610bf0565b60015b6102e8576102e86109ff565b91506102f19050565b919050565b60008173ffffffffffffffffffffffffffffffffffffffff166382c630666040518163ffffffff1660e01b815260040160206040518083038186803b15801561033e57600080fd5b505afa92505050801561038c575060408051601f3d9081017fffffffffffffffffffffffffffffffffffffffffffffffffffffffffffffffe016820190925261038991810190610b9c565b60015b610398575060006102f1565b8073ffffffffffffffffffffffffffffffffffffffff16638da5cb5b6040518163ffffffff1660e01b815260040160206040518083038186803b1580156103de57600080fd5b505afa92505050801561042c575060408051601f3d9081017fffffffffffffffffffffffffffffffffffffffffffffffffffffffffffffffe016820190925261042991810190610b9c565b60015b6102e85760009150506102f1565b7f000000000000000000000000000000000000000000000000000000000000000081565b606060008273ffffffffffffffffffffffffffffffffffffffff1663963c94b96040518163ffffffff1660e01b815260040160206040518083038186803b1580156104a857600080fd5b505afa1580156104bc573d6000803e3d6000fd5b505050506040513d601f19601f820116820180604052508101906104e09190610dab565b905060608167ffffffffffffffff811180156104fb57600080fd5b50604051908082528060200260200182016040528015610525578160200160208202803683370190505b50905060005b8281101561060e576040517f54c49fe900000000000000000000000000000000000000000000000000000000815273ffffffffffffffffffffffffffffffffffffffff8616906354c49fe990610585908490600401610f4e565b60206040518083038186803b15801561059d57600080fd5b505afa1580156105b1573d6000803e3d6000fd5b505050506040513d601f19601f820116820180604052508101906105d59190610b9c565b8282815181106105e157fe5b73ffffffffffffffffffffffffffffffffffffffff9092166020928302919091019091015260010161052b565b5060608267ffffffffffffffff8111801561062857600080fd5b5060405190808252806020026020018201604052801561066257816020015b61064f610a62565b8152602001906001900390816106475790505b50905060005b8381101561072b578573ffffffffffffffffffffffffffffffffffffffff166348e9c65e84838151811061069857fe5b60200260200101516040518263ffffffff1660e01b81526004016106bc9190610e3a565b60c06040518083038186803b1580156106d457600080fd5b505afa1580156106e8573d6000803e3d6000fd5b505050506040513d601f19601f8201168201806040525081019061070c9190610d3c565b82828151811061071857fe5b6020908102919091010152600101610668565b50949350505050565b606060008373ffffffffffffffffffffffffffffffffffffffff1663963c94b96040518163ffffffff1660e01b815260040160206040518083038186803b15801561077e57600080fd5b505afa158015610792573d6000803e3d6000fd5b505050506040513d601f19601f820116820180604052508101906107b69190610dab565b905060608167ffffffffffffffff811180156107d157600080fd5b506040519080825280602002602001820160405280156107fb578160200160208202803683370190505b50905060005b828110156108e4576040517f54c49fe900000000000000000000000000000000000000000000000000000000815273ffffffffffffffffffffffffffffffffffffffff8716906354c49fe99061085b908490600401610f4e565b60206040518083038186803b15801561087357600080fd5b505afa158015610887573d6000803e3d6000fd5b505050506040513d601f19601f820116820180604052508101906108ab9190610b9c565b8282815181106108b757fe5b73ffffffffffffffffffffffffffffffffffffffff90921660209283029190910190910152600101610801565b5060608267ffffffffffffffff811180156108fe57600080fd5b50604051908082528060200260200182016040528015610928578160200160208202803683370190505b50905060005b838110156109f3578673ffffffffffffffffffffffffffffffffffffffff166333fd6f748785848151811061095f57fe5b60200260200101516040518363ffffffff1660e01b8152600401610984929190610e5b565b60206040518083038186803b15801561099c57600080fd5b505afa1580156109b0573d6000803e3d6000fd5b505050506040513d601f19601f820116820180604052508101906109d49190610dab565b8282815181106109e057fe5b602090810291909101015260010161092e565b50925050505b92915050565b604080516101808101825260008082526020820181905291810182905260608082018390526080820183905260a0820181905260c082015260e0810182905261010081018290526101208101829052610140810182905261016081019190915290565b6040518060c00160405280600073ffffffffffffffffffffffffffffffffffffffff168152602001600073ffffffffffffffffffffffffffffffffffffffff168152602001600081526020016000815260200160008152602001600081525090565b80516109f98161109a565b600082601f830112610adf578081fd5b815167ffffffffffffffff811115610af5578182fd5b6020808202610b05828201611073565b83815293508184018583018287018401881015610b2157600080fd5b600092505b84831015610b4d578051610b398161109a565b825260019290920191908301908301610b26565b505050505092915050565b805180151581146109f957600080fd5b805160ff811681146109f957600080fd5b600060208284031215610b8a578081fd5b8135610b958161109a565b9392505050565b600060208284031215610bad578081fd5b8151610b958161109a565b60008060408385031215610bca578081fd5b8235610bd58161109a565b91506020830135610be58161109a565b809150509250929050565b600060208284031215610c01578081fd5b815167ffffffffffffffff80821115610c18578283fd5b8184019150610180808387031215610c2e578384fd5b610c3781611073565b9050610c438684610ac4565b8152610c528660208501610ac4565b6020820152610c648660408501610b68565b604082015260608301516060820152610c808660808501610ac4565b608082015260a083015182811115610c96578485fd5b610ca287828601610acf565b60a08301525060c083015182811115610cb9578485fd5b610cc587828601610acf565b60c083015250610cd88660e08501610ac4565b60e08201526101009150610cee86838501610ac4565b828201526101209150610d0386838501610b58565b828201526101409150610d1886838501610b58565b828201526101609150610d2d86838501610b58565b91810191909152949350505050565b600060c08284031215610d4d578081fd5b610d5760c0611073565b8251610d628161109a565b81526020830151610d728161109a565b8060208301525060408301516040820152606083015160608201526080830151608082015260a083015160a08201528091505092915050565b600060208284031215610dbc578081fd5b5051919050565b73ffffffffffffffffffffffffffffffffffffffff169052565b6000815180845260208085019450808401835b83811015610e2257815173ffffffffffffffffffffffffffffffffffffffff1687529582019590820190600101610df0565b509495945050505050565b15159052565b60ff169052565b73ffffffffffffffffffffffffffffffffffffffff91909116815260200190565b73ffffffffffffffffffffffffffffffffffffffff92831681529116602082015260400190565b602080825282518282018190526000919060409081850190868401855b82811015610efd578151610eb4858251610dc3565b86810151610ec488870182610dc3565b508086015185870152606080820151908601526080808201519086015260a0908101519085015260c09093019290850190600101610e9f565b5091979650505050505050565b6020808252825182820181905260009190848201906040850190845b81811015610f4257835183529284019291840191600101610f26565b50909695505050505050565b90815260200190565b600060208252610f6b602083018451610dc3565b6020830151610f7d6040840182610dc3565b506040830151610f906060840182610e33565b50606083015160808301526080830151610fad60a0840182610dc3565b5060a08301516101808060c0850152610fca6101a0850183610ddd565b915060c08501517fffffffffffffffffffffffffffffffffffffffffffffffffffffffffffffffe08584030160e08601526110058382610ddd565b92505060e085015161010061101c81870183610dc3565b860151905061012061103086820183610dc3565b860151905061014061104486820183610e2d565b860151905061016061105886820183610e2d565b860151905061106985830182610e2d565b5090949350505050565b60405181810167ffffffffffffffff8111828210171561109257600080fd5b604052919050565b73ffffffffffffffffffffffffffffffffffffffff811681146110bc57600080fd5b5056fea26469706673582212206c2f4620d4efe40a0e6aa5f0c8f5e8e472eef869473dcb1f95b0967fc4f09df064736f6c634300060c0033",
  "devdoc": {
    "kind": "dev",
    "methods": {},
    "version": 1
  },
  "userdoc": {
    "kind": "user",
    "methods": {},
    "version": 1
  },
  "storageLayout": {
    "storage": [],
    "types": null
  }
}