{
  "address": "0x2d5D79753bB8e02ca1ce8EcE0aa55288F8c8d840",
  "abi": [
    {
      "inputs": [],
      "stateMutability": "nonpayable",
      "type": "constructor"
    },
    {
      "anonymous": false,
      "inputs": [
        {
          "indexed": true,
          "internalType": "address",
          "name": "oldPoolAddress",
          "type": "address"
        },
        {
          "components": [
            {
              "internalType": "address",
              "name": "newPoolAddress",
              "type": "address"
            },
            {
              "internalType": "contract IERC20",
              "name": "oldPoolLPTokenAddress",
              "type": "address"
            },
            {
              "internalType": "contract IERC20",
              "name": "newPoolLPTokenAddress",
              "type": "address"
            },
            {
              "internalType": "contract IERC20[]",
              "name": "underlyingTokens",
              "type": "address[]"
            }
          ],
          "indexed": false,
          "internalType": "struct GeneralizedSwapMigrator.MigrationData",
          "name": "mData",
          "type": "tuple"
        }
      ],
      "name": "AddMigrationData",
      "type": "event"
    },
    {
      "anonymous": false,
      "inputs": [
        {
          "indexed": true,
          "internalType": "address",
          "name": "migrator",
          "type": "address"
        },
        {
          "indexed": true,
          "internalType": "address",
          "name": "oldPoolAddress",
          "type": "address"
        },
        {
          "indexed": false,
          "internalType": "uint256",
          "name": "oldLPTokenAmount",
          "type": "uint256"
        },
        {
          "indexed": false,
          "internalType": "uint256",
          "name": "newLPTokenAmount",
          "type": "uint256"
        }
      ],
      "name": "Migrate",
      "type": "event"
    },
    {
      "anonymous": false,
      "inputs": [
        {
          "indexed": true,
          "internalType": "address",
          "name": "previousOwner",
          "type": "address"
        },
        {
          "indexed": true,
          "internalType": "address",
          "name": "newOwner",
          "type": "address"
        }
      ],
      "name": "OwnershipTransferred",
      "type": "event"
    },
    {
      "inputs": [
        {
          "internalType": "address",
          "name": "oldPoolAddress",
          "type": "address"
        },
        {
          "components": [
            {
              "internalType": "address",
              "name": "newPoolAddress",
              "type": "address"
            },
            {
              "internalType": "contract IERC20",
              "name": "oldPoolLPTokenAddress",
              "type": "address"
            },
            {
              "internalType": "contract IERC20",
              "name": "newPoolLPTokenAddress",
              "type": "address"
            },
            {
              "internalType": "contract IERC20[]",
              "name": "underlyingTokens",
              "type": "address[]"
            }
          ],
          "internalType": "struct GeneralizedSwapMigrator.MigrationData",
          "name": "mData",
          "type": "tuple"
        },
        {
          "internalType": "bool",
          "name": "overwrite",
          "type": "bool"
        }
      ],
      "name": "addMigrationData",
      "outputs": [],
      "stateMutability": "nonpayable",
      "type": "function"
    },
    {
      "inputs": [
        {
          "internalType": "bytes[]",
          "name": "calls",
          "type": "bytes[]"
        },
        {
          "internalType": "bool",
          "name": "revertOnFail",
          "type": "bool"
        }
      ],
      "name": "batch",
      "outputs": [],
      "stateMutability": "payable",
      "type": "function"
    },
    {
      "inputs": [
        {
          "internalType": "address",
          "name": "oldPoolAddress",
          "type": "address"
        },
        {
          "internalType": "uint256",
          "name": "amount",
          "type": "uint256"
        },
        {
          "internalType": "uint256",
          "name": "minAmount",
          "type": "uint256"
        }
      ],
      "name": "migrate",
      "outputs": [
        {
          "internalType": "uint256",
          "name": "",
          "type": "uint256"
        }
      ],
      "stateMutability": "nonpayable",
      "type": "function"
    },
    {
      "inputs": [
        {
          "internalType": "address",
          "name": "",
          "type": "address"
        }
      ],
      "name": "migrationMap",
      "outputs": [
        {
          "internalType": "address",
          "name": "newPoolAddress",
          "type": "address"
        },
        {
          "internalType": "contract IERC20",
          "name": "oldPoolLPTokenAddress",
          "type": "address"
        },
        {
          "internalType": "contract IERC20",
          "name": "newPoolLPTokenAddress",
          "type": "address"
        }
      ],
      "stateMutability": "view",
      "type": "function"
    },
    {
      "inputs": [],
      "name": "owner",
      "outputs": [
        {
          "internalType": "address",
          "name": "",
          "type": "address"
        }
      ],
      "stateMutability": "view",
      "type": "function"
    },
    {
      "inputs": [],
      "name": "renounceOwnership",
      "outputs": [],
      "stateMutability": "nonpayable",
      "type": "function"
    },
    {
      "inputs": [
        {
          "internalType": "contract IERC20",
          "name": "token",
          "type": "address"
        },
        {
          "internalType": "address",
          "name": "to",
          "type": "address"
        }
      ],
      "name": "rescue",
      "outputs": [],
      "stateMutability": "nonpayable",
      "type": "function"
    },
    {
      "inputs": [
        {
          "internalType": "address",
          "name": "newOwner",
          "type": "address"
        }
      ],
      "name": "transferOwnership",
      "outputs": [],
      "stateMutability": "nonpayable",
      "type": "function"
    }
  ],
  "transactionHash": "0x0e5b46bc591b58b40fa192c6eb2a27f3c8b094caad1b7d42fda4c8ba09b577e0",
  "args": [],
  "solcInputHash": "93c886530ecd68fda19a7ef0f2fabf0b",
  "bytecode": "0x608060405234801561001057600080fd5b50600061001b61006a565b600080546001600160a01b0319166001600160a01b0383169081178255604051929350917f8be0079c531659141344cd1fd0a4f28419497f9722a3daafe3b4186f6b6457e0908290a35061006e565b3390565b611b508061007d6000396000f3fe60806040526004361061007b5760003560e01c8063d2423b511161004e578063d2423b5114610102578063e36ad77e14610115578063f2fde38b14610144578063fc22d0e5146101645761007b565b80634fdf5d1d146100805780636f731330146100a2578063715018a6146100c25780638da5cb5b146100d7575b600080fd5b34801561008c57600080fd5b506100a061009b366004611399565b610191565b005b3480156100ae57600080fd5b506100a06100bd366004611156565b61026e565b3480156100ce57600080fd5b506100a06106b9565b3480156100e357600080fd5b506100ec61075a565b6040516100f991906114e8565b60405180910390f35b6100a0610110366004611251565b610769565b34801561012157600080fd5b5061013561013036600461113a565b61082c565b6040516100f99392919061153a565b34801561015057600080fd5b506100a061015f36600461113a565b61085d565b34801561017057600080fd5b5061018461017f36600461121d565b610935565b6040516100f991906119c9565b610199610c36565b6001600160a01b03166101aa61075a565b6001600160a01b0316146101d95760405162461bcd60e51b81526004016101d0906117b0565b60405180910390fd5b61026a81836001600160a01b03166370a08231306040518263ffffffff1660e01b815260040161020991906114e8565b60206040518083038186803b15801561022157600080fd5b505afa158015610235573d6000803e3d6000fd5b505050506040513d601f19601f82011682018060405250810190610259919061145d565b6001600160a01b0385169190610c3a565b5050565b610276610c36565b6001600160a01b031661028761075a565b6001600160a01b0316146102ad5760405162461bcd60e51b81526004016101d0906117b0565b806102ee576001600160a01b038381166000908152600160208190526040909120015416156102ee5760405162461bcd60e51b81526004016101d090611753565b60208201516001600160a01b03166103185760405162461bcd60e51b81526004016101d0906117e5565b60408201516001600160a01b03166103425760405162461bcd60e51b81526004016101d0906116e5565b60005b60208160ff161015610532576040517f82b866000000000000000000000000000000000000000000000000000000000081526000906001600160a01b038616906382b8660090610399908590600401611a09565b60206040518083038186803b1580156103b157600080fd5b505afa9250505080156103e1575060408051601f3d908101601f191682019092526103de9181019061137d565b60015b6104105760008260ff16116104085760405162461bcd60e51b81526004016101d09061162b565b506000610413565b90505b83516040517f82b866000000000000000000000000000000000000000000000000000000000081526001600160a01b03909116906382b866009061045b908590600401611a09565b60206040518083038186803b15801561047357600080fd5b505afa9250505080156104a3575060408051601f3d908101601f191682019092526104a09181019061137d565b60015b6104f75760008260ff16116104ca5760405162461bcd60e51b81526004016101d09061162b565b6001600160a01b038116156104f15760405162461bcd60e51b81526004016101d09061171c565b50610532565b806001600160a01b0316826001600160a01b0316146105285760405162461bcd60e51b81526004016101d09061171c565b5050600101610345565b506001600160a01b03808416600090815260016020818152604092839020865181549086167fffffffffffffffffffffffff00000000000000000000000000000000000000009182161782558288015193820180549487169482169490941790935592860151600284018054919095169216919091179092556060840151805185936105c5926003850192910190610fcd565b5050506020820151610601906001600160a01b0316847fffffffffffffffffffffffffffffffffffffffffffffffffffffffffffffffff610cc2565b60005b8260600151518110156106725761066a83600001517fffffffffffffffffffffffffffffffffffffffffffffffffffffffffffffffff8560600151848151811061064a57fe5b60200260200101516001600160a01b0316610cc29092919063ffffffff16565b600101610604565b50826001600160a01b03167f3a4863f22c4536b6b3a7e8989396b0b2f9c10de870d877ec333df6cfec568d30836040516106ac9190611944565b60405180910390a2505050565b6106c1610c36565b6001600160a01b03166106d261075a565b6001600160a01b0316146106f85760405162461bcd60e51b81526004016101d0906117b0565b600080546040516001600160a01b03909116907f8be0079c531659141344cd1fd0a4f28419497f9722a3daafe3b4186f6b6457e0908390a3600080547fffffffffffffffffffffffff0000000000000000000000000000000000000000169055565b6000546001600160a01b031690565b60005b8281101561082657600060603086868581811061078557fe5b90506020028101906107979190611a17565b6040516107a59291906114bc565b600060405180830381855af49150503d80600081146107e0576040519150601f19603f3d011682016040523d82523d6000602084013e6107e5565b606091505b5091509150811580156107f55750835b1561081c5761080381610d9e565b60405162461bcd60e51b81526004016101d0919061159b565b505060010161076c565b50505050565b60016020819052600091825260409091208054918101546002909101546001600160a01b0392831692918216911683565b610865610c36565b6001600160a01b031661087661075a565b6001600160a01b03161461089c5760405162461bcd60e51b81526004016101d0906117b0565b6001600160a01b0381166108c25760405162461bcd60e51b81526004016101d0906115ce565b600080546040516001600160a01b03808516939216917f8be0079c531659141344cd1fd0a4f28419497f9722a3daafe3b4186f6b6457e091a3600080547fffffffffffffffffffffffff0000000000000000000000000000000000000000166001600160a01b0392909216919091179055565b600061093f61104a565b6001600160a01b03808616600090815260016020818152604092839020835160808101855281548616815292810154851683830152600281015490941682840152600384018054845181840281018401909552808552929493606086019390928301828280156109d857602002820191906000526020600020905b81546001600160a01b031681526001909101906020018083116109ba575b5050509190925250505060208101519091506001600160a01b0316610a0f5760405162461bcd60e51b81526004016101d09061190d565b6020810151610a29906001600160a01b0316333087610e06565b6060856001600160a01b03166331cd52b08684606001515167ffffffffffffffff81118015610a5757600080fd5b50604051908082528060200260200182016040528015610a81578160200160208202803683370190505b507fffffffffffffffffffffffffffffffffffffffffffffffffffffffffffffffff6040518463ffffffff1660e01b8152600401610ac1939291906119d2565b600060405180830381600087803b158015610adb57600080fd5b505af1158015610aef573d6000803e3d6000fd5b505050506040513d6000823e601f3d908101601f19168201604052610b1791908101906112d1565b9050600082600001516001600160a01b0316634d49e87d83877fffffffffffffffffffffffffffffffffffffffffffffffffffffffffffffffff6040518463ffffffff1660e01b8152600401610b6f93929190611576565b602060405180830381600087803b158015610b8957600080fd5b505af1158015610b9d573d6000803e3d6000fd5b505050506040513d601f19601f82011682018060405250810190610bc1919061145d565b6040840151909150610bdd906001600160a01b03163383610c3a565b866001600160a01b0316336001600160a01b03167fd616b8856fa5febbdb06f07dd8d624380d02864619f3b796002f43bc36a4d1bc8884604051610c229291906119fb565b60405180910390a3925050505b9392505050565b3390565b610cbd8363a9059cbb60e01b8484604051602401610c5992919061155d565b60408051601f198184030181529190526020810180517bffffffffffffffffffffffffffffffffffffffffffffffffffffffff167fffffffff0000000000000000000000000000000000000000000000000000000090931692909217909152610e27565b505050565b801580610d6357506040517fdd62ed3e0000000000000000000000000000000000000000000000000000000081526001600160a01b0384169063dd62ed3e90610d1190309086906004016114fc565b60206040518083038186803b158015610d2957600080fd5b505afa158015610d3d573d6000803e3d6000fd5b505050506040513d601f19601f82011682018060405250810190610d61919061145d565b155b610d7f5760405162461bcd60e51b81526004016101d0906118b0565b610cbd8363095ea7b360e01b8484604051602401610c5992919061155d565b6060604482511015610de4575060408051808201909152601d81527f5472616e73616374696f6e2072657665727465642073696c656e746c790000006020820152610e01565b60048201915081806020019051810190610dfe91906113d1565b90505b919050565b610826846323b872dd60e01b858585604051602401610c5993929190611516565b6060610e7c826040518060400160405280602081526020017f5361666545524332303a206c6f772d6c6576656c2063616c6c206661696c6564815250856001600160a01b0316610eb69092919063ffffffff16565b805190915015610cbd5780806020019051810190610e9a9190611361565b610cbd5760405162461bcd60e51b81526004016101d090611853565b6060610ec58484600085610ecd565b949350505050565b606082471015610eef5760405162461bcd60e51b81526004016101d090611688565b610ef885610f8e565b610f145760405162461bcd60e51b81526004016101d09061181c565b60006060866001600160a01b03168587604051610f3191906114cc565b60006040518083038185875af1925050503d8060008114610f6e576040519150601f19603f3d011682016040523d82523d6000602084013e610f73565b606091505b5091509150610f83828286610f94565b979650505050505050565b3b151590565b60608315610fa3575081610c2f565b825115610fb35782518084602001fd5b8160405162461bcd60e51b81526004016101d0919061159b565b82805482825590600052602060002090810192821561103a579160200282015b8281111561103a57825182547fffffffffffffffffffffffff0000000000000000000000000000000000000000166001600160a01b03909116178255602090920191600190910190610fed565b50611046929150611070565b5090565b604080516080810182526000808252602082018190529181019190915260608082015290565b5b808211156110465780547fffffffffffffffffffffffff0000000000000000000000000000000000000000168155600101611071565b80356110b281611af4565b92915050565b600082601f8301126110c8578081fd5b81356110db6110d682611aa8565b611a81565b8181529150602080830190848101818402860182018710156110fc57600080fd5b60005b8481101561112457813561111281611af4565b845292820192908201906001016110ff565b505050505092915050565b80356110b281611b0c565b60006020828403121561114b578081fd5b8135610c2f81611af4565b60008060006060848603121561116a578182fd5b833561117581611af4565b9250602084013567ffffffffffffffff80821115611191578384fd5b90850190608082880312156111a4578384fd5b6111ae6080611a81565b6111b888846110a7565b81526111c788602085016110a7565b60208201526111d988604085016110a7565b60408201526060830135828111156111ef578586fd5b6111fb898286016110b8565b606083015250809450505050611214856040860161112f565b90509250925092565b600080600060608486031215611231578283fd5b833561123c81611af4565b95602085013595506040909401359392505050565b600080600060408486031215611265578283fd5b833567ffffffffffffffff8082111561127c578485fd5b818601915086601f83011261128f578485fd5b81358181111561129d578586fd5b87602080830285010111156112b0578586fd5b602092830195509350508401356112c681611b0c565b809150509250925092565b600060208083850312156112e3578182fd5b825167ffffffffffffffff8111156112f9578283fd5b8301601f81018513611309578283fd5b80516113176110d682611aa8565b8181528381019083850185840285018601891015611333578687fd5b8694505b83851015611355578051835260019490940193918501918501611337565b50979650505050505050565b600060208284031215611372578081fd5b8151610c2f81611b0c565b60006020828403121561138e578081fd5b8151610c2f81611af4565b600080604083850312156113ab578182fd5b82356113b681611af4565b915060208301356113c681611af4565b809150509250929050565b6000602082840312156113e2578081fd5b815167ffffffffffffffff808211156113f9578283fd5b818401915084601f83011261140c578283fd5b81518181111561141a578384fd5b61142d6020601f19601f84011601611a81565b9150808252856020828501011115611443578384fd5b611454816020840160208601611ac8565b50949350505050565b60006020828403121561146e578081fd5b5051919050565b6000815180845260208085019450808401835b838110156114a457815187529582019590820190600101611488565b509495945050505050565b6001600160a01b03169052565b6000828483379101908152919050565b600082516114de818460208701611ac8565b9190910192915050565b6001600160a01b0391909116815260200190565b6001600160a01b0392831681529116602082015260400190565b6001600160a01b039384168152919092166020820152604081019190915260600190565b6001600160a01b0393841681529183166020830152909116604082015260600190565b6001600160a01b03929092168252602082015260400190565b6000606082526115896060830186611475565b60208301949094525060400152919050565b60006020825282518060208401526115ba816040850160208701611ac8565b601f01601f19169190910160400192915050565b60208082526026908201527f4f776e61626c653a206e6577206f776e657220697320746865207a65726f206160408201527f6464726573730000000000000000000000000000000000000000000000000000606082015260800190565b6020808252602c908201527f4661696c656420746f2067657420746f6b656e7320756e6465726c79696e672060408201527f536164646c6520706f6f6c2e0000000000000000000000000000000000000000606082015260800190565b60208082526026908201527f416464726573733a20696e73756666696369656e742062616c616e636520666f60408201527f722063616c6c0000000000000000000000000000000000000000000000000000606082015260800190565b6020808252601a908201527f6e6577506f6f6c4c50546f6b656e41646472657373203d3d2030000000000000604082015260600190565b6020808252601b908201527f4661696c656420746f206d6174636820746f6b656e73206c6973740000000000604082015260600190565b60208082526028908201527f63616e6e6f74206f7665727772697465206578697374696e67206d696772617460408201527f696f6e2064617461000000000000000000000000000000000000000000000000606082015260800190565b6020808252818101527f4f776e61626c653a2063616c6c6572206973206e6f7420746865206f776e6572604082015260600190565b6020808252601a908201527f6f6c64506f6f6c4c50546f6b656e41646472657373203d3d2030000000000000604082015260600190565b6020808252601d908201527f416464726573733a2063616c6c20746f206e6f6e2d636f6e7472616374000000604082015260600190565b6020808252602a908201527f5361666545524332303a204552433230206f7065726174696f6e20646964206e60408201527f6f74207375636365656400000000000000000000000000000000000000000000606082015260800190565b60208082526036908201527f5361666545524332303a20617070726f76652066726f6d206e6f6e2d7a65726f60408201527f20746f206e6f6e2d7a65726f20616c6c6f77616e636500000000000000000000606082015260800190565b6020808252601a908201527f6d6967726174696f6e206973206e6f7420617661696c61626c65000000000000604082015260600190565b6000602080835260a083016001600160a01b038086511683860152808387015116604086015280604087015116606086015250606085015160808086015281815180845260c08701915084830193508592505b808310156119be576119aa8285516114af565b928401926001929092019190840190611997565b509695505050505050565b90815260200190565b6000848252606060208301526119eb6060830185611475565b9050826040830152949350505050565b918252602082015260400190565b60ff91909116815260200190565b60008083357fffffffffffffffffffffffffffffffffffffffffffffffffffffffffffffffe1843603018112611a4b578283fd5b83018035915067ffffffffffffffff821115611a65578283fd5b602001915036819003821315611a7a57600080fd5b9250929050565b60405181810167ffffffffffffffff81118282101715611aa057600080fd5b604052919050565b600067ffffffffffffffff821115611abe578081fd5b5060209081020190565b60005b83811015611ae3578181015183820152602001611acb565b838111156108265750506000910152565b6001600160a01b0381168114611b0957600080fd5b50565b8015158114611b0957600080fdfea264697066735822122076d9c9a9450ebd76ae1f1ec568266cb89ec3f1fd91218877ed5902df2a15d58564736f6c634300060c0033",
  "devdoc": {
    "kind": "dev",
    "methods": {
      "addMigrationData(address,(address,address,address,address[]),bool)": {
        "params": {
          "mData": "MigrationData struct that contains information of the old and new pools",
          "oldPoolAddress": "pool address to migrate from",
          "overwrite": "should overwrite existing migration data"
        }
      },
      "batch(bytes[],bool)": {
        "params": {
          "calls": "An array of inputs for each call.",
          "revertOnFail": "If True then reverts after a failed call and stops doing further calls."
        }
      },
      "migrate(address,uint256,uint256)": {
        "params": {
          "amount": "amount of LP tokens to migrate",
          "minAmount": "of new LP tokens to receive",
          "oldPoolAddress": "pool address to migrate from"
        }
      },
      "owner()": {
        "details": "Returns the address of the current owner."
      },
      "renounceOwnership()": {
        "details": "Leaves the contract without owner. It will not be possible to call `onlyOwner` functions anymore. Can only be called by the current owner. NOTE: Renouncing ownership will leave the contract without an owner, thereby removing any functionality that is only available to the owner."
      },
      "rescue(address,address)": {
        "params": {
          "to": "Minimum amount of new LPToken to receive",
          "token": "Amount of old LPToken to migrate"
        }
      },
      "transferOwnership(address)": {
        "details": "Transfers ownership of the contract to a new account (`newOwner`). Can only be called by the current owner."
      }
    },
    "title": "GeneralizedSwapMigrator",
    "version": 1
  },
  "userdoc": {
    "kind": "user",
    "methods": {
      "addMigrationData(address,(address,address,address,address[]),bool)": {
        "notice": "Add new migration data to the contract"
      },
      "batch(bytes[],bool)": {
        "notice": "Allows batched call to self (this contract)."
      },
      "migrate(address,uint256,uint256)": {
        "notice": "Migrates saddle LP tokens from a pool to another"
      },
      "rescue(address,address)": {
        "notice": "Rescues any token that may be sent to this contract accidentally."
      }
    },
    "notice": "This contract is responsible for migration liquidity between pools Users can use this contract to remove their liquidity from the old pools and add them to the new ones with a single transaction.",
    "version": 1
  },
  "storageLayout": {
    "storage": [
      {
        "astId": 1711,
        "contract": "contracts/GeneralizedSwapMigrator.sol:GeneralizedSwapMigrator",
        "label": "_owner",
        "offset": 0,
        "slot": "0",
        "type": "t_address"
      },
      {
        "astId": 6653,
        "contract": "contracts/GeneralizedSwapMigrator.sol:GeneralizedSwapMigrator",
        "label": "migrationMap",
        "offset": 0,
        "slot": "1",
        "type": "t_mapping(t_address,t_struct(MigrationData)6642_storage)"
      }
    ],
    "types": {
      "t_address": {
        "encoding": "inplace",
        "label": "address",
        "numberOfBytes": "20"
      },
      "t_array(t_contract(IERC20)3028)dyn_storage": {
        "base": "t_contract(IERC20)3028",
        "encoding": "dynamic_array",
        "label": "contract IERC20[]",
        "numberOfBytes": "32"
      },
      "t_contract(IERC20)3028": {
        "encoding": "inplace",
        "label": "contract IERC20",
        "numberOfBytes": "20"
      },
      "t_mapping(t_address,t_struct(MigrationData)6642_storage)": {
        "encoding": "mapping",
        "key": "t_address",
        "label": "mapping(address => struct GeneralizedSwapMigrator.MigrationData)",
        "numberOfBytes": "32",
        "value": "t_struct(MigrationData)6642_storage"
      },
      "t_struct(MigrationData)6642_storage": {
        "encoding": "inplace",
        "label": "struct GeneralizedSwapMigrator.MigrationData",
        "members": [
          {
            "astId": 6634,
            "contract": "contracts/GeneralizedSwapMigrator.sol:GeneralizedSwapMigrator",
            "label": "newPoolAddress",
            "offset": 0,
            "slot": "0",
            "type": "t_address"
          },
          {
            "astId": 6636,
            "contract": "contracts/GeneralizedSwapMigrator.sol:GeneralizedSwapMigrator",
            "label": "oldPoolLPTokenAddress",
            "offset": 0,
            "slot": "1",
            "type": "t_contract(IERC20)3028"
          },
          {
            "astId": 6638,
            "contract": "contracts/GeneralizedSwapMigrator.sol:GeneralizedSwapMigrator",
            "label": "newPoolLPTokenAddress",
            "offset": 0,
            "slot": "2",
            "type": "t_contract(IERC20)3028"
          },
          {
            "astId": 6641,
            "contract": "contracts/GeneralizedSwapMigrator.sol:GeneralizedSwapMigrator",
            "label": "underlyingTokens",
            "offset": 0,
            "slot": "3",
            "type": "t_array(t_contract(IERC20)3028)dyn_storage"
          }
        ],
        "numberOfBytes": "128"
      }
    }
  }
}