{
  "address": "0x529c59002b51f343a73FFEd2a114b25ae8E698dF",
  "abi": [
    {
      "inputs": [],
      "stateMutability": "nonpayable",
      "type": "constructor"
    },
    {
      "anonymous": false,
      "inputs": [
        {
          "indexed": true,
          "internalType": "address",
          "name": "oldPoolAddress",
          "type": "address"
        },
        {
          "components": [
            {
              "internalType": "address",
              "name": "newPoolAddress",
              "type": "address"
            },
            {
              "internalType": "contract IERC20",
              "name": "oldPoolLPTokenAddress",
              "type": "address"
            },
            {
              "internalType": "contract IERC20",
              "name": "newPoolLPTokenAddress",
              "type": "address"
            },
            {
              "internalType": "contract IERC20[]",
              "name": "underlyingTokens",
              "type": "address[]"
            }
          ],
          "indexed": false,
          "internalType": "struct GeneralizedSwapMigrator.MigrationData",
          "name": "mData",
          "type": "tuple"
        }
      ],
      "name": "AddMigrationData",
      "type": "event"
    },
    {
      "anonymous": false,
      "inputs": [
        {
          "indexed": true,
          "internalType": "address",
          "name": "migrator",
          "type": "address"
        },
        {
          "indexed": true,
          "internalType": "address",
          "name": "oldPoolAddress",
          "type": "address"
        },
        {
          "indexed": false,
          "internalType": "uint256",
          "name": "oldLPTokenAmount",
          "type": "uint256"
        },
        {
          "indexed": false,
          "internalType": "uint256",
          "name": "newLPTokenAmount",
          "type": "uint256"
        }
      ],
      "name": "Migrate",
      "type": "event"
    },
    {
      "anonymous": false,
      "inputs": [
        {
          "indexed": true,
          "internalType": "address",
          "name": "previousOwner",
          "type": "address"
        },
        {
          "indexed": true,
          "internalType": "address",
          "name": "newOwner",
          "type": "address"
        }
      ],
      "name": "OwnershipTransferred",
      "type": "event"
    },
    {
      "inputs": [
        {
          "internalType": "address",
          "name": "oldPoolAddress",
          "type": "address"
        },
        {
          "components": [
            {
              "internalType": "address",
              "name": "newPoolAddress",
              "type": "address"
            },
            {
              "internalType": "contract IERC20",
              "name": "oldPoolLPTokenAddress",
              "type": "address"
            },
            {
              "internalType": "contract IERC20",
              "name": "newPoolLPTokenAddress",
              "type": "address"
            },
            {
              "internalType": "contract IERC20[]",
              "name": "underlyingTokens",
              "type": "address[]"
            }
          ],
          "internalType": "struct GeneralizedSwapMigrator.MigrationData",
          "name": "mData",
          "type": "tuple"
        },
        {
          "internalType": "bool",
          "name": "overwrite",
          "type": "bool"
        }
      ],
      "name": "addMigrationData",
      "outputs": [],
      "stateMutability": "nonpayable",
      "type": "function"
    },
    {
      "inputs": [
        {
          "internalType": "bytes[]",
          "name": "calls",
          "type": "bytes[]"
        },
        {
          "internalType": "bool",
          "name": "revertOnFail",
          "type": "bool"
        }
      ],
      "name": "batch",
      "outputs": [],
      "stateMutability": "payable",
      "type": "function"
    },
    {
      "inputs": [
        {
          "internalType": "address",
          "name": "oldPoolAddress",
          "type": "address"
        },
        {
          "internalType": "uint256",
          "name": "amount",
          "type": "uint256"
        },
        {
          "internalType": "uint256",
          "name": "minAmount",
          "type": "uint256"
        }
      ],
      "name": "migrate",
      "outputs": [
        {
          "internalType": "uint256",
          "name": "",
          "type": "uint256"
        }
      ],
      "stateMutability": "nonpayable",
      "type": "function"
    },
    {
      "inputs": [],
      "name": "owner",
      "outputs": [
        {
          "internalType": "address",
          "name": "",
          "type": "address"
        }
      ],
      "stateMutability": "view",
      "type": "function"
    },
    {
      "inputs": [],
      "name": "renounceOwnership",
      "outputs": [],
      "stateMutability": "nonpayable",
      "type": "function"
    },
    {
      "inputs": [
        {
          "internalType": "contract IERC20",
          "name": "token",
          "type": "address"
        },
        {
          "internalType": "address",
          "name": "to",
          "type": "address"
        }
      ],
      "name": "rescue",
      "outputs": [],
      "stateMutability": "nonpayable",
      "type": "function"
    },
    {
      "inputs": [
        {
          "internalType": "address",
          "name": "newOwner",
          "type": "address"
        }
      ],
      "name": "transferOwnership",
      "outputs": [],
      "stateMutability": "nonpayable",
      "type": "function"
    }
  ],
  "transactionHash": "0xb818a8b49830245a7fe4a60dc743ac3f696ba94327b1d0e787a6b88d642276fb",
  "args": [],
  "solcInputHash": "a7bffbb00fa6171cda7bf89e12cd1b96",
  "bytecode": "0x608060405234801561001057600080fd5b50600061001b61006a565b600080546001600160a01b0319166001600160a01b0383169081178255604051929350917f8be0079c531659141344cd1fd0a4f28419497f9722a3daafe3b4186f6b6457e0908290a35061006e565b3390565b611ac28061007d6000396000f3fe6080604052600436106100705760003560e01c80638da5cb5b1161004e5780638da5cb5b146100cc578063d2423b51146100f7578063f2fde38b1461010a578063fc22d0e51461012a57610070565b80634fdf5d1d146100755780636f73133014610097578063715018a6146100b7575b600080fd5b34801561008157600080fd5b5061009561009036600461132e565b610157565b005b3480156100a357600080fd5b506100956100b23660046110eb565b610234565b3480156100c357600080fd5b5061009561067f565b3480156100d857600080fd5b506100e1610720565b6040516100ee919061147d565b60405180910390f35b6100956101053660046111e6565b61072f565b34801561011657600080fd5b506100956101253660046110cf565b6107f2565b34801561013657600080fd5b5061014a6101453660046111b2565b6108ca565b6040516100ee919061193b565b61015f610bcb565b6001600160a01b0316610170610720565b6001600160a01b03161461019f5760405162461bcd60e51b815260040161019690611722565b60405180910390fd5b61023081836001600160a01b03166370a08231306040518263ffffffff1660e01b81526004016101cf919061147d565b60206040518083038186803b1580156101e757600080fd5b505afa1580156101fb573d6000803e3d6000fd5b505050506040513d601f19601f8201168201806040525081019061021f91906113f2565b6001600160a01b0385169190610bcf565b5050565b61023c610bcb565b6001600160a01b031661024d610720565b6001600160a01b0316146102735760405162461bcd60e51b815260040161019690611722565b806102b4576001600160a01b038381166000908152600160208190526040909120015416156102b45760405162461bcd60e51b8152600401610196906116c5565b60208201516001600160a01b03166102de5760405162461bcd60e51b815260040161019690611757565b60408201516001600160a01b03166103085760405162461bcd60e51b815260040161019690611657565b60005b60208160ff1610156104f8576040517f82b866000000000000000000000000000000000000000000000000000000000081526000906001600160a01b038616906382b866009061035f90859060040161197b565b60206040518083038186803b15801561037757600080fd5b505afa9250505080156103a7575060408051601f3d908101601f191682019092526103a491810190611312565b60015b6103d65760008260ff16116103ce5760405162461bcd60e51b81526004016101969061159d565b5060006103d9565b90505b83516040517f82b866000000000000000000000000000000000000000000000000000000000081526001600160a01b03909116906382b866009061042190859060040161197b565b60206040518083038186803b15801561043957600080fd5b505afa925050508015610469575060408051601f3d908101601f1916820190925261046691810190611312565b60015b6104bd5760008260ff16116104905760405162461bcd60e51b81526004016101969061159d565b6001600160a01b038116156104b75760405162461bcd60e51b81526004016101969061168e565b506104f8565b806001600160a01b0316826001600160a01b0316146104ee5760405162461bcd60e51b81526004016101969061168e565b505060010161030b565b506001600160a01b03808416600090815260016020818152604092839020865181549086167fffffffffffffffffffffffff000000000000000000000000000000000000000091821617825582880151938201805494871694821694909417909355928601516002840180549190951692169190911790925560608401518051859361058b926003850192910190610f62565b50505060208201516105c7906001600160a01b0316847fffffffffffffffffffffffffffffffffffffffffffffffffffffffffffffffff610c57565b60005b8260600151518110156106385761063083600001517fffffffffffffffffffffffffffffffffffffffffffffffffffffffffffffffff8560600151848151811061061057fe5b60200260200101516001600160a01b0316610c579092919063ffffffff16565b6001016105ca565b50826001600160a01b03167f3a4863f22c4536b6b3a7e8989396b0b2f9c10de870d877ec333df6cfec568d308360405161067291906118b6565b60405180910390a2505050565b610687610bcb565b6001600160a01b0316610698610720565b6001600160a01b0316146106be5760405162461bcd60e51b815260040161019690611722565b600080546040516001600160a01b03909116907f8be0079c531659141344cd1fd0a4f28419497f9722a3daafe3b4186f6b6457e0908390a3600080547fffffffffffffffffffffffff0000000000000000000000000000000000000000169055565b6000546001600160a01b031690565b60005b828110156107ec57600060603086868581811061074b57fe5b905060200281019061075d9190611989565b60405161076b929190611451565b600060405180830381855af49150503d80600081146107a6576040519150601f19603f3d011682016040523d82523d6000602084013e6107ab565b606091505b5091509150811580156107bb5750835b156107e2576107c981610d33565b60405162461bcd60e51b8152600401610196919061150d565b5050600101610732565b50505050565b6107fa610bcb565b6001600160a01b031661080b610720565b6001600160a01b0316146108315760405162461bcd60e51b815260040161019690611722565b6001600160a01b0381166108575760405162461bcd60e51b815260040161019690611540565b600080546040516001600160a01b03808516939216917f8be0079c531659141344cd1fd0a4f28419497f9722a3daafe3b4186f6b6457e091a3600080547fffffffffffffffffffffffff0000000000000000000000000000000000000000166001600160a01b0392909216919091179055565b60006108d4610fdf565b6001600160a01b038086166000908152600160208181526040928390208351608081018552815486168152928101548516838301526002810154909416828401526003840180548451818402810184019095528085529294936060860193909283018282801561096d57602002820191906000526020600020905b81546001600160a01b0316815260019091019060200180831161094f575b5050509190925250505060208101519091506001600160a01b03166109a45760405162461bcd60e51b81526004016101969061187f565b60208101516109be906001600160a01b0316333087610d9b565b6060856001600160a01b03166331cd52b08684606001515167ffffffffffffffff811180156109ec57600080fd5b50604051908082528060200260200182016040528015610a16578160200160208202803683370190505b507fffffffffffffffffffffffffffffffffffffffffffffffffffffffffffffffff6040518463ffffffff1660e01b8152600401610a5693929190611944565b600060405180830381600087803b158015610a7057600080fd5b505af1158015610a84573d6000803e3d6000fd5b505050506040513d6000823e601f3d908101601f19168201604052610aac9190810190611266565b9050600082600001516001600160a01b0316634d49e87d83877fffffffffffffffffffffffffffffffffffffffffffffffffffffffffffffffff6040518463ffffffff1660e01b8152600401610b04939291906114e8565b602060405180830381600087803b158015610b1e57600080fd5b505af1158015610b32573d6000803e3d6000fd5b505050506040513d601f19601f82011682018060405250810190610b5691906113f2565b6040840151909150610b72906001600160a01b03163383610bcf565b866001600160a01b0316336001600160a01b03167fd616b8856fa5febbdb06f07dd8d624380d02864619f3b796002f43bc36a4d1bc8884604051610bb792919061196d565b60405180910390a3925050505b9392505050565b3390565b610c528363a9059cbb60e01b8484604051602401610bee9291906114cf565b60408051601f198184030181529190526020810180517bffffffffffffffffffffffffffffffffffffffffffffffffffffffff167fffffffff0000000000000000000000000000000000000000000000000000000090931692909217909152610dbc565b505050565b801580610cf857506040517fdd62ed3e0000000000000000000000000000000000000000000000000000000081526001600160a01b0384169063dd62ed3e90610ca69030908690600401611491565b60206040518083038186803b158015610cbe57600080fd5b505afa158015610cd2573d6000803e3d6000fd5b505050506040513d601f19601f82011682018060405250810190610cf691906113f2565b155b610d145760405162461bcd60e51b815260040161019690611822565b610c528363095ea7b360e01b8484604051602401610bee9291906114cf565b6060604482511015610d79575060408051808201909152601d81527f5472616e73616374696f6e2072657665727465642073696c656e746c790000006020820152610d96565b60048201915081806020019051810190610d939190611366565b90505b919050565b6107ec846323b872dd60e01b858585604051602401610bee939291906114ab565b6060610e11826040518060400160405280602081526020017f5361666545524332303a206c6f772d6c6576656c2063616c6c206661696c6564815250856001600160a01b0316610e4b9092919063ffffffff16565b805190915015610c525780806020019051810190610e2f91906112f6565b610c525760405162461bcd60e51b8152600401610196906117c5565b6060610e5a8484600085610e62565b949350505050565b606082471015610e845760405162461bcd60e51b8152600401610196906115fa565b610e8d85610f23565b610ea95760405162461bcd60e51b81526004016101969061178e565b60006060866001600160a01b03168587604051610ec69190611461565b60006040518083038185875af1925050503d8060008114610f03576040519150601f19603f3d011682016040523d82523d6000602084013e610f08565b606091505b5091509150610f18828286610f29565b979650505050505050565b3b151590565b60608315610f38575081610bc4565b825115610f485782518084602001fd5b8160405162461bcd60e51b8152600401610196919061150d565b828054828255906000526020600020908101928215610fcf579160200282015b82811115610fcf57825182547fffffffffffffffffffffffff0000000000000000000000000000000000000000166001600160a01b03909116178255602090920191600190910190610f82565b50610fdb929150611005565b5090565b604080516080810182526000808252602082018190529181019190915260608082015290565b5b80821115610fdb5780547fffffffffffffffffffffffff0000000000000000000000000000000000000000168155600101611006565b803561104781611a66565b92915050565b600082601f83011261105d578081fd5b813561107061106b82611a1a565b6119f3565b81815291506020808301908481018184028601820187101561109157600080fd5b60005b848110156110b95781356110a781611a66565b84529282019290820190600101611094565b505050505092915050565b803561104781611a7e565b6000602082840312156110e0578081fd5b8135610bc481611a66565b6000806000606084860312156110ff578182fd5b833561110a81611a66565b9250602084013567ffffffffffffffff80821115611126578384fd5b9085019060808288031215611139578384fd5b61114360806119f3565b61114d888461103c565b815261115c886020850161103c565b602082015261116e886040850161103c565b6040820152606083013582811115611184578586fd5b6111908982860161104d565b6060830152508094505050506111a985604086016110c4565b90509250925092565b6000806000606084860312156111c6578283fd5b83356111d181611a66565b95602085013595506040909401359392505050565b6000806000604084860312156111fa578283fd5b833567ffffffffffffffff80821115611211578485fd5b818601915086601f830112611224578485fd5b813581811115611232578586fd5b8760208083028501011115611245578586fd5b6020928301955093505084013561125b81611a7e565b809150509250925092565b60006020808385031215611278578182fd5b825167ffffffffffffffff81111561128e578283fd5b8301601f8101851361129e578283fd5b80516112ac61106b82611a1a565b81815283810190838501858402850186018910156112c8578687fd5b8694505b838510156112ea5780518352600194909401939185019185016112cc565b50979650505050505050565b600060208284031215611307578081fd5b8151610bc481611a7e565b600060208284031215611323578081fd5b8151610bc481611a66565b60008060408385031215611340578182fd5b823561134b81611a66565b9150602083013561135b81611a66565b809150509250929050565b600060208284031215611377578081fd5b815167ffffffffffffffff8082111561138e578283fd5b818401915084601f8301126113a1578283fd5b8151818111156113af578384fd5b6113c26020601f19601f840116016119f3565b91508082528560208285010111156113d8578384fd5b6113e9816020840160208601611a3a565b50949350505050565b600060208284031215611403578081fd5b5051919050565b6000815180845260208085019450808401835b838110156114395781518752958201959082019060010161141d565b509495945050505050565b6001600160a01b03169052565b6000828483379101908152919050565b60008251611473818460208701611a3a565b9190910192915050565b6001600160a01b0391909116815260200190565b6001600160a01b0392831681529116602082015260400190565b6001600160a01b039384168152919092166020820152604081019190915260600190565b6001600160a01b03929092168252602082015260400190565b6000606082526114fb606083018661140a565b60208301949094525060400152919050565b600060208252825180602084015261152c816040850160208701611a3a565b601f01601f19169190910160400192915050565b60208082526026908201527f4f776e61626c653a206e6577206f776e657220697320746865207a65726f206160408201527f6464726573730000000000000000000000000000000000000000000000000000606082015260800190565b6020808252602c908201527f4661696c656420746f2067657420746f6b656e7320756e6465726c79696e672060408201527f536164646c6520706f6f6c2e0000000000000000000000000000000000000000606082015260800190565b60208082526026908201527f416464726573733a20696e73756666696369656e742062616c616e636520666f60408201527f722063616c6c0000000000000000000000000000000000000000000000000000606082015260800190565b6020808252601a908201527f6e6577506f6f6c4c50546f6b656e41646472657373203d3d2030000000000000604082015260600190565b6020808252601b908201527f4661696c656420746f206d6174636820746f6b656e73206c6973740000000000604082015260600190565b60208082526028908201527f63616e6e6f74206f7665727772697465206578697374696e67206d696772617460408201527f696f6e2064617461000000000000000000000000000000000000000000000000606082015260800190565b6020808252818101527f4f776e61626c653a2063616c6c6572206973206e6f7420746865206f776e6572604082015260600190565b6020808252601a908201527f6f6c64506f6f6c4c50546f6b656e41646472657373203d3d2030000000000000604082015260600190565b6020808252601d908201527f416464726573733a2063616c6c20746f206e6f6e2d636f6e7472616374000000604082015260600190565b6020808252602a908201527f5361666545524332303a204552433230206f7065726174696f6e20646964206e60408201527f6f74207375636365656400000000000000000000000000000000000000000000606082015260800190565b60208082526036908201527f5361666545524332303a20617070726f76652066726f6d206e6f6e2d7a65726f60408201527f20746f206e6f6e2d7a65726f20616c6c6f77616e636500000000000000000000606082015260800190565b6020808252601a908201527f6d6967726174696f6e206973206e6f7420617661696c61626c65000000000000604082015260600190565b6000602080835260a083016001600160a01b038086511683860152808387015116604086015280604087015116606086015250606085015160808086015281815180845260c08701915084830193508592505b808310156119305761191c828551611444565b928401926001929092019190840190611909565b509695505050505050565b90815260200190565b60008482526060602083015261195d606083018561140a565b9050826040830152949350505050565b918252602082015260400190565b60ff91909116815260200190565b60008083357fffffffffffffffffffffffffffffffffffffffffffffffffffffffffffffffe18436030181126119bd578283fd5b83018035915067ffffffffffffffff8211156119d7578283fd5b6020019150368190038213156119ec57600080fd5b9250929050565b60405181810167ffffffffffffffff81118282101715611a1257600080fd5b604052919050565b600067ffffffffffffffff821115611a30578081fd5b5060209081020190565b60005b83811015611a55578181015183820152602001611a3d565b838111156107ec5750506000910152565b6001600160a01b0381168114611a7b57600080fd5b50565b8015158114611a7b57600080fdfea2646970667358221220ffbb7b476405ba1982193f841679983507f827c857b87fdbf808b34be7576f2564736f6c634300060c0033",
  "devdoc": {
    "kind": "dev",
    "methods": {
      "addMigrationData(address,(address,address,address,address[]),bool)": {
        "params": {
          "mData": "MigrationData struct that contains information of the old and new pools",
          "oldPoolAddress": "pool address to migrate from",
          "overwrite": "should overwrite existing migration data"
        }
      },
      "batch(bytes[],bool)": {
        "params": {
          "calls": "An array of inputs for each call.",
          "revertOnFail": "If True then reverts after a failed call and stops doing further calls."
        }
      },
      "migrate(address,uint256,uint256)": {
        "params": {
          "amount": "amount of LP tokens to migrate",
          "minAmount": "of new LP tokens to receive",
          "oldPoolAddress": "pool address to migrate from"
        }
      },
      "owner()": {
        "details": "Returns the address of the current owner."
      },
      "renounceOwnership()": {
        "details": "Leaves the contract without owner. It will not be possible to call `onlyOwner` functions anymore. Can only be called by the current owner. NOTE: Renouncing ownership will leave the contract without an owner, thereby removing any functionality that is only available to the owner."
      },
      "rescue(address,address)": {
        "params": {
          "to": "Minimum amount of new LPToken to receive",
          "token": "Amount of old LPToken to migrate"
        }
      },
      "transferOwnership(address)": {
        "details": "Transfers ownership of the contract to a new account (`newOwner`). Can only be called by the current owner."
      }
    },
    "title": "GeneralizedSwapMigrator",
    "version": 1
  },
  "userdoc": {
    "kind": "user",
    "methods": {
      "addMigrationData(address,(address,address,address,address[]),bool)": {
        "notice": "Add new migration data to the contract"
      },
      "batch(bytes[],bool)": {
        "notice": "Allows batched call to self (this contract)."
      },
      "migrate(address,uint256,uint256)": {
        "notice": "Migrates saddle LP tokens from a pool to another"
      },
      "rescue(address,address)": {
        "notice": "Rescues any token that may be sent to this contract accidentally."
      }
    },
    "notice": "This contract is responsible for migration liquidity between pools Users can use this contract to remove their liquidity from the old pools and add them to the new ones with a single transaction.",
    "version": 1
  },
  "storageLayout": {
    "storage": [
      {
        "astId": 1711,
        "contract": "contracts/GeneralizedSwapMigrator.sol:GeneralizedSwapMigrator",
        "label": "_owner",
        "offset": 0,
        "slot": "0",
        "type": "t_address"
      },
      {
        "astId": 6653,
        "contract": "contracts/GeneralizedSwapMigrator.sol:GeneralizedSwapMigrator",
        "label": "migrationMap",
        "offset": 0,
        "slot": "1",
        "type": "t_mapping(t_address,t_struct(MigrationData)6642_storage)"
      }
    ],
    "types": {
      "t_address": {
        "encoding": "inplace",
        "label": "address",
        "numberOfBytes": "20"
      },
      "t_array(t_contract(IERC20)3028)dyn_storage": {
        "base": "t_contract(IERC20)3028",
        "encoding": "dynamic_array",
        "label": "contract IERC20[]",
        "numberOfBytes": "32"
      },
      "t_contract(IERC20)3028": {
        "encoding": "inplace",
        "label": "contract IERC20",
        "numberOfBytes": "20"
      },
      "t_mapping(t_address,t_struct(MigrationData)6642_storage)": {
        "encoding": "mapping",
        "key": "t_address",
        "label": "mapping(address => struct GeneralizedSwapMigrator.MigrationData)",
        "numberOfBytes": "32",
        "value": "t_struct(MigrationData)6642_storage"
      },
      "t_struct(MigrationData)6642_storage": {
        "encoding": "inplace",
        "label": "struct GeneralizedSwapMigrator.MigrationData",
        "members": [
          {
            "astId": 6634,
            "contract": "contracts/GeneralizedSwapMigrator.sol:GeneralizedSwapMigrator",
            "label": "newPoolAddress",
            "offset": 0,
            "slot": "0",
            "type": "t_address"
          },
          {
            "astId": 6636,
            "contract": "contracts/GeneralizedSwapMigrator.sol:GeneralizedSwapMigrator",
            "label": "oldPoolLPTokenAddress",
            "offset": 0,
            "slot": "1",
            "type": "t_contract(IERC20)3028"
          },
          {
            "astId": 6638,
            "contract": "contracts/GeneralizedSwapMigrator.sol:GeneralizedSwapMigrator",
            "label": "newPoolLPTokenAddress",
            "offset": 0,
            "slot": "2",
            "type": "t_contract(IERC20)3028"
          },
          {
            "astId": 6641,
            "contract": "contracts/GeneralizedSwapMigrator.sol:GeneralizedSwapMigrator",
            "label": "underlyingTokens",
            "offset": 0,
            "slot": "3",
            "type": "t_array(t_contract(IERC20)3028)dyn_storage"
          }
        ],
        "numberOfBytes": "128"
      }
    }
  }
}