{
  "address": "0xc64F8A9fe7BabecA66D3997C9d15558BF4817bE3",
  "abi": [
    {
      "name": "Deposit",
      "inputs": [
        {
          "name": "provider",
          "type": "address",
          "indexed": true
        },
        {
          "name": "value",
          "type": "uint256",
          "indexed": false
        }
      ],
      "anonymous": false,
      "type": "event"
    },
    {
      "name": "Withdraw",
      "inputs": [
        {
          "name": "provider",
          "type": "address",
          "indexed": true
        },
        {
          "name": "value",
          "type": "uint256",
          "indexed": false
        }
      ],
      "anonymous": false,
      "type": "event"
    },
    {
      "name": "UpdateLiquidityLimit",
      "inputs": [
        {
          "name": "user",
          "type": "address",
          "indexed": false
        },
        {
          "name": "original_balance",
          "type": "uint256",
          "indexed": false
        },
        {
          "name": "original_supply",
          "type": "uint256",
          "indexed": false
        },
        {
          "name": "working_balance",
          "type": "uint256",
          "indexed": false
        },
        {
          "name": "working_supply",
          "type": "uint256",
          "indexed": false
        }
      ],
      "anonymous": false,
      "type": "event"
    },
    {
      "name": "CommitOwnership",
      "inputs": [
        {
          "name": "admin",
          "type": "address",
          "indexed": false
        }
      ],
      "anonymous": false,
      "type": "event"
    },
    {
      "name": "ApplyOwnership",
      "inputs": [
        {
          "name": "admin",
          "type": "address",
          "indexed": false
        }
      ],
      "anonymous": false,
      "type": "event"
    },
    {
      "name": "Transfer",
      "inputs": [
        {
          "name": "_from",
          "type": "address",
          "indexed": true
        },
        {
          "name": "_to",
          "type": "address",
          "indexed": true
        },
        {
          "name": "_value",
          "type": "uint256",
          "indexed": false
        }
      ],
      "anonymous": false,
      "type": "event"
    },
    {
      "name": "Approval",
      "inputs": [
        {
          "name": "_owner",
          "type": "address",
          "indexed": true
        },
        {
          "name": "_spender",
          "type": "address",
          "indexed": true
        },
        {
          "name": "_value",
          "type": "uint256",
          "indexed": false
        }
      ],
      "anonymous": false,
      "type": "event"
    },
    {
      "stateMutability": "nonpayable",
      "type": "constructor",
      "inputs": [
        {
          "name": "_lp_token",
          "type": "address"
        },
        {
          "name": "_minter",
          "type": "address"
        },
        {
          "name": "_admin",
          "type": "address"
        }
      ],
      "outputs": []
    },
    {
      "stateMutability": "view",
      "type": "function",
      "name": "integrate_checkpoint",
      "inputs": [],
      "outputs": [
        {
          "name": "",
          "type": "uint256"
        }
      ]
    },
    {
      "stateMutability": "nonpayable",
      "type": "function",
      "name": "user_checkpoint",
      "inputs": [
        {
          "name": "addr",
          "type": "address"
        }
      ],
      "outputs": [
        {
          "name": "",
          "type": "bool"
        }
      ]
    },
    {
      "stateMutability": "nonpayable",
      "type": "function",
      "name": "claimable_tokens",
      "inputs": [
        {
          "name": "addr",
          "type": "address"
        }
      ],
      "outputs": [
        {
          "name": "",
          "type": "uint256"
        }
      ]
    },
    {
      "stateMutability": "view",
      "type": "function",
      "name": "claimed_reward",
      "inputs": [
        {
          "name": "_addr",
          "type": "address"
        },
        {
          "name": "_token",
          "type": "address"
        }
      ],
      "outputs": [
        {
          "name": "",
          "type": "uint256"
        }
      ]
    },
    {
      "stateMutability": "view",
      "type": "function",
      "name": "claimable_reward",
      "inputs": [
        {
          "name": "_user",
          "type": "address"
        },
        {
          "name": "_reward_token",
          "type": "address"
        }
      ],
      "outputs": [
        {
          "name": "",
          "type": "uint256"
        }
      ]
    },
    {
      "stateMutability": "nonpayable",
      "type": "function",
      "name": "set_rewards_receiver",
      "inputs": [
        {
          "name": "_receiver",
          "type": "address"
        }
      ],
      "outputs": []
    },
    {
      "stateMutability": "nonpayable",
      "type": "function",
      "name": "claim_rewards",
      "inputs": [],
      "outputs": []
    },
    {
      "stateMutability": "nonpayable",
      "type": "function",
      "name": "claim_rewards",
      "inputs": [
        {
          "name": "_addr",
          "type": "address"
        }
      ],
      "outputs": []
    },
    {
      "stateMutability": "nonpayable",
      "type": "function",
      "name": "claim_rewards",
      "inputs": [
        {
          "name": "_addr",
          "type": "address"
        },
        {
          "name": "_receiver",
          "type": "address"
        }
      ],
      "outputs": []
    },
    {
      "stateMutability": "nonpayable",
      "type": "function",
      "name": "kick",
      "inputs": [
        {
          "name": "addr",
          "type": "address"
        }
      ],
      "outputs": []
    },
    {
      "stateMutability": "nonpayable",
      "type": "function",
      "name": "deposit",
      "inputs": [
        {
          "name": "_value",
          "type": "uint256"
        }
      ],
      "outputs": []
    },
    {
      "stateMutability": "nonpayable",
      "type": "function",
      "name": "deposit",
      "inputs": [
        {
          "name": "_value",
          "type": "uint256"
        },
        {
          "name": "_addr",
          "type": "address"
        }
      ],
      "outputs": []
    },
    {
      "stateMutability": "nonpayable",
      "type": "function",
      "name": "deposit",
      "inputs": [
        {
          "name": "_value",
          "type": "uint256"
        },
        {
          "name": "_addr",
          "type": "address"
        },
        {
          "name": "_claim_rewards",
          "type": "bool"
        }
      ],
      "outputs": []
    },
    {
      "stateMutability": "nonpayable",
      "type": "function",
      "name": "withdraw",
      "inputs": [
        {
          "name": "_value",
          "type": "uint256"
        }
      ],
      "outputs": []
    },
    {
      "stateMutability": "nonpayable",
      "type": "function",
      "name": "withdraw",
      "inputs": [
        {
          "name": "_value",
          "type": "uint256"
        },
        {
          "name": "_claim_rewards",
          "type": "bool"
        }
      ],
      "outputs": []
    },
    {
      "stateMutability": "nonpayable",
      "type": "function",
      "name": "transfer",
      "inputs": [
        {
          "name": "_to",
          "type": "address"
        },
        {
          "name": "_value",
          "type": "uint256"
        }
      ],
      "outputs": [
        {
          "name": "",
          "type": "bool"
        }
      ]
    },
    {
      "stateMutability": "nonpayable",
      "type": "function",
      "name": "transferFrom",
      "inputs": [
        {
          "name": "_from",
          "type": "address"
        },
        {
          "name": "_to",
          "type": "address"
        },
        {
          "name": "_value",
          "type": "uint256"
        }
      ],
      "outputs": [
        {
          "name": "",
          "type": "bool"
        }
      ]
    },
    {
      "stateMutability": "nonpayable",
      "type": "function",
      "name": "approve",
      "inputs": [
        {
          "name": "_spender",
          "type": "address"
        },
        {
          "name": "_value",
          "type": "uint256"
        }
      ],
      "outputs": [
        {
          "name": "",
          "type": "bool"
        }
      ]
    },
    {
      "stateMutability": "nonpayable",
      "type": "function",
      "name": "permit",
      "inputs": [
        {
          "name": "_owner",
          "type": "address"
        },
        {
          "name": "_spender",
          "type": "address"
        },
        {
          "name": "_value",
          "type": "uint256"
        },
        {
          "name": "_deadline",
          "type": "uint256"
        },
        {
          "name": "_v",
          "type": "uint8"
        },
        {
          "name": "_r",
          "type": "bytes32"
        },
        {
          "name": "_s",
          "type": "bytes32"
        }
      ],
      "outputs": [
        {
          "name": "",
          "type": "bool"
        }
      ]
    },
    {
      "stateMutability": "nonpayable",
      "type": "function",
      "name": "increaseAllowance",
      "inputs": [
        {
          "name": "_spender",
          "type": "address"
        },
        {
          "name": "_added_value",
          "type": "uint256"
        }
      ],
      "outputs": [
        {
          "name": "",
          "type": "bool"
        }
      ]
    },
    {
      "stateMutability": "nonpayable",
      "type": "function",
      "name": "decreaseAllowance",
      "inputs": [
        {
          "name": "_spender",
          "type": "address"
        },
        {
          "name": "_subtracted_value",
          "type": "uint256"
        }
      ],
      "outputs": [
        {
          "name": "",
          "type": "bool"
        }
      ]
    },
    {
      "stateMutability": "nonpayable",
      "type": "function",
      "name": "add_reward",
      "inputs": [
        {
          "name": "_reward_token",
          "type": "address"
        },
        {
          "name": "_distributor",
          "type": "address"
        }
      ],
      "outputs": []
    },
    {
      "stateMutability": "nonpayable",
      "type": "function",
      "name": "set_reward_distributor",
      "inputs": [
        {
          "name": "_reward_token",
          "type": "address"
        },
        {
          "name": "_distributor",
          "type": "address"
        }
      ],
      "outputs": []
    },
    {
      "stateMutability": "nonpayable",
      "type": "function",
      "name": "deposit_reward_token",
      "inputs": [
        {
          "name": "_reward_token",
          "type": "address"
        },
        {
          "name": "_amount",
          "type": "uint256"
        }
      ],
      "outputs": []
    },
    {
      "stateMutability": "nonpayable",
      "type": "function",
      "name": "set_killed",
      "inputs": [
        {
          "name": "_is_killed",
          "type": "bool"
        }
      ],
      "outputs": []
    },
    {
      "stateMutability": "nonpayable",
      "type": "function",
      "name": "commit_transfer_ownership",
      "inputs": [
        {
          "name": "addr",
          "type": "address"
        }
      ],
      "outputs": []
    },
    {
      "stateMutability": "nonpayable",
      "type": "function",
      "name": "accept_transfer_ownership",
      "inputs": [],
      "outputs": []
    },
    {
      "stateMutability": "view",
      "type": "function",
      "name": "name",
      "inputs": [],
      "outputs": [
        {
          "name": "",
          "type": "string"
        }
      ]
    },
    {
      "stateMutability": "view",
      "type": "function",
      "name": "symbol",
      "inputs": [],
      "outputs": [
        {
          "name": "",
          "type": "string"
        }
      ]
    },
    {
      "stateMutability": "view",
      "type": "function",
      "name": "decimals",
      "inputs": [],
      "outputs": [
        {
          "name": "",
          "type": "uint256"
        }
      ]
    },
    {
      "stateMutability": "view",
      "type": "function",
      "name": "minter",
      "inputs": [],
      "outputs": [
        {
          "name": "",
          "type": "address"
        }
      ]
    },
    {
      "stateMutability": "view",
      "type": "function",
      "name": "sdl_token",
      "inputs": [],
      "outputs": [
        {
          "name": "",
          "type": "address"
        }
      ]
    },
    {
      "stateMutability": "view",
      "type": "function",
      "name": "controller",
      "inputs": [],
      "outputs": [
        {
          "name": "",
          "type": "address"
        }
      ]
    },
    {
      "stateMutability": "view",
      "type": "function",
      "name": "voting_escrow",
      "inputs": [],
      "outputs": [
        {
          "name": "",
          "type": "address"
        }
      ]
    },
    {
      "stateMutability": "view",
      "type": "function",
      "name": "veboost_proxy",
      "inputs": [],
      "outputs": [
        {
          "name": "",
          "type": "address"
        }
      ]
    },
    {
      "stateMutability": "view",
      "type": "function",
      "name": "lp_token",
      "inputs": [],
      "outputs": [
        {
          "name": "",
          "type": "address"
        }
      ]
    },
    {
      "stateMutability": "view",
      "type": "function",
      "name": "version",
      "inputs": [],
      "outputs": [
        {
          "name": "",
          "type": "string"
        }
      ]
    },
    {
      "stateMutability": "view",
      "type": "function",
      "name": "DOMAIN_SEPARATOR",
      "inputs": [],
      "outputs": [
        {
          "name": "",
          "type": "bytes32"
        }
      ]
    },
    {
      "stateMutability": "view",
      "type": "function",
      "name": "nonces",
      "inputs": [
        {
          "name": "arg0",
          "type": "address"
        }
      ],
      "outputs": [
        {
          "name": "",
          "type": "uint256"
        }
      ]
    },
    {
      "stateMutability": "view",
      "type": "function",
      "name": "future_epoch_time",
      "inputs": [],
      "outputs": [
        {
          "name": "",
          "type": "uint256"
        }
      ]
    },
    {
      "stateMutability": "view",
      "type": "function",
      "name": "balanceOf",
      "inputs": [
        {
          "name": "arg0",
          "type": "address"
        }
      ],
      "outputs": [
        {
          "name": "",
          "type": "uint256"
        }
      ]
    },
    {
      "stateMutability": "view",
      "type": "function",
      "name": "totalSupply",
      "inputs": [],
      "outputs": [
        {
          "name": "",
          "type": "uint256"
        }
      ]
    },
    {
      "stateMutability": "view",
      "type": "function",
      "name": "allowance",
      "inputs": [
        {
          "name": "arg0",
          "type": "address"
        },
        {
          "name": "arg1",
          "type": "address"
        }
      ],
      "outputs": [
        {
          "name": "",
          "type": "uint256"
        }
      ]
    },
    {
      "stateMutability": "view",
      "type": "function",
      "name": "working_balances",
      "inputs": [
        {
          "name": "arg0",
          "type": "address"
        }
      ],
      "outputs": [
        {
          "name": "",
          "type": "uint256"
        }
      ]
    },
    {
      "stateMutability": "view",
      "type": "function",
      "name": "working_supply",
      "inputs": [],
      "outputs": [
        {
          "name": "",
          "type": "uint256"
        }
      ]
    },
    {
      "stateMutability": "view",
      "type": "function",
      "name": "period",
      "inputs": [],
      "outputs": [
        {
          "name": "",
          "type": "int128"
        }
      ]
    },
    {
      "stateMutability": "view",
      "type": "function",
      "name": "period_timestamp",
      "inputs": [
        {
          "name": "arg0",
          "type": "uint256"
        }
      ],
      "outputs": [
        {
          "name": "",
          "type": "uint256"
        }
      ]
    },
    {
      "stateMutability": "view",
      "type": "function",
      "name": "integrate_inv_supply",
      "inputs": [
        {
          "name": "arg0",
          "type": "uint256"
        }
      ],
      "outputs": [
        {
          "name": "",
          "type": "uint256"
        }
      ]
    },
    {
      "stateMutability": "view",
      "type": "function",
      "name": "integrate_inv_supply_of",
      "inputs": [
        {
          "name": "arg0",
          "type": "address"
        }
      ],
      "outputs": [
        {
          "name": "",
          "type": "uint256"
        }
      ]
    },
    {
      "stateMutability": "view",
      "type": "function",
      "name": "integrate_checkpoint_of",
      "inputs": [
        {
          "name": "arg0",
          "type": "address"
        }
      ],
      "outputs": [
        {
          "name": "",
          "type": "uint256"
        }
      ]
    },
    {
      "stateMutability": "view",
      "type": "function",
      "name": "integrate_fraction",
      "inputs": [
        {
          "name": "arg0",
          "type": "address"
        }
      ],
      "outputs": [
        {
          "name": "",
          "type": "uint256"
        }
      ]
    },
    {
      "stateMutability": "view",
      "type": "function",
      "name": "inflation_rate",
      "inputs": [],
      "outputs": [
        {
          "name": "",
          "type": "uint256"
        }
      ]
    },
    {
      "stateMutability": "view",
      "type": "function",
      "name": "reward_count",
      "inputs": [],
      "outputs": [
        {
          "name": "",
          "type": "uint256"
        }
      ]
    },
    {
      "stateMutability": "view",
      "type": "function",
      "name": "reward_tokens",
      "inputs": [
        {
          "name": "arg0",
          "type": "uint256"
        }
      ],
      "outputs": [
        {
          "name": "",
          "type": "address"
        }
      ]
    },
    {
      "stateMutability": "view",
      "type": "function",
      "name": "reward_data",
      "inputs": [
        {
          "name": "arg0",
          "type": "address"
        }
      ],
      "outputs": [
        {
          "name": "",
          "type": "tuple",
          "components": [
            {
              "name": "token",
              "type": "address"
            },
            {
              "name": "distributor",
              "type": "address"
            },
            {
              "name": "period_finish",
              "type": "uint256"
            },
            {
              "name": "rate",
              "type": "uint256"
            },
            {
              "name": "last_update",
              "type": "uint256"
            },
            {
              "name": "integral",
              "type": "uint256"
            }
          ]
        }
      ]
    },
    {
      "stateMutability": "view",
      "type": "function",
      "name": "rewards_receiver",
      "inputs": [
        {
          "name": "arg0",
          "type": "address"
        }
      ],
      "outputs": [
        {
          "name": "",
          "type": "address"
        }
      ]
    },
    {
      "stateMutability": "view",
      "type": "function",
      "name": "reward_integral_for",
      "inputs": [
        {
          "name": "arg0",
          "type": "address"
        },
        {
          "name": "arg1",
          "type": "address"
        }
      ],
      "outputs": [
        {
          "name": "",
          "type": "uint256"
        }
      ]
    },
    {
      "stateMutability": "view",
      "type": "function",
      "name": "admin",
      "inputs": [],
      "outputs": [
        {
          "name": "",
          "type": "address"
        }
      ]
    },
    {
      "stateMutability": "view",
      "type": "function",
      "name": "future_admin",
      "inputs": [],
      "outputs": [
        {
          "name": "",
          "type": "address"
        }
      ]
    },
    {
      "stateMutability": "view",
      "type": "function",
      "name": "is_killed",
      "inputs": [],
      "outputs": [
        {
          "name": "",
          "type": "bool"
        }
      ]
    }
  ],
  "transactionHash": "0x3e726932162e9b25b52f3a51941ebe6f1769237d93bb064916d309f8539c7411",
  "args": [
    "0x0C6F06b32E6Ae0C110861b8607e67dA594781961",
    "0x358fE82370a1B9aDaE2E3ad69D6cF9e503c96018",
    "0x3F8E527aF4e0c6e763e8f368AC679c44C45626aE"
  ],
  "numDeployments": 1,
  "bytecode": "0x60206131646080396080518060a01c61315f5760e05260206020613164016080396080518060a01c61315f576101005260206040613164016080396080518060a01c61315f576101205263fc0c546a610160526020610160600461017c610100515afa610071573d600060003e3d6000fd5b601f3d111561315f57610160518060a01c61315f576101405263f77c4791610180526020610180600461019c610100515afa6100b2573d600060003e3d6000fd5b601f3d111561315f57610180518060a01c61315f57610160526101005161018052610140516101a052610160516101c05263dfe050316101e05260206101e060046101fc610160515afa61010b573d600060003e3d6000fd5b601f3d111561315f576101e0518060a01c61315f57610220526349ec3b3f610240526020610240600461025c610160515afa61014c573d600060003e3d6000fd5b601f3d111561315f57610240518060a01c61315f576101e0526395d89b41610280526060610280600461029c60e0515afa61018c573d600060003e3d6000fd5b603f3d111561315f576102805161028001601a81511161315f5780805160200180610240828460045afa905090505050600060076102e0527f536164646c652000000000000000000000000000000000000000000000000000610300526102e06007806020846103600101826020850160045afa505080518201915050610240601a806020846103600101826020850160045afa505080518201915050600e610320527f204761756765204465706f73697400000000000000000000000000000000000061034052610320600e806020846103600101826020850160045afa50508051820191505080610360526103609050805160200180610280828460045afa905050506102808051602001806102e0828460045afa905050506000610240601a806020846103800101826020850160045afa5050805182019150506006610340527f2d67617567650000000000000000000000000000000000000000000000000000610360526103406006806020846103800101826020850160045afa505080518201915050806103805261038090508051602001806103c0828460045afa905050507f8b73c3c69bb8fe3d512ecc4cf759cc79239f7b179b0ffacaa9a75d522b39400f6104e052610280805160208201209050610500527f572f01d824885a118d5d21c74542f263b131d2897955c62a721594f1d7c3b2e2610520524661054052306105605260a06104c0526104c08051602082012090506102005260e05161034052610120516c02863c1f5cdae420000000001a5542600955632c4e722e610400526020610400600461041c610100515afa6103f1573d600060003e3d6000fd5b601f3d111561315f57610400516c02863c1f5cdae420000000000c5563b26b238e610400526020610400600461041c6000610100515af1610437573d600060003e3d6000fd5b601f3d111561315f57610400516002556130ca56600436101561000d57611df7565b60046000601c3760005134612c795763d31f3f6d811861004f5760016008546c01431e0fae6d7217caa0000000811015612c7957026009015460e052602060e0f35b634b8200938118610114576004358060a01c612c79576102e0526102e05161032052602061018038036080396080516103405260006103005261030060c060006002818352015b60c051602002610320015133186100b057600183526100c0565b8151600101808352811415610096575b5050506103005115612c79576102e05160e0526100db612519565b6102e05160e05260036102e05160a0526080526040608020546101005260045461012052610107611dfd565b6001610300526020610300f35b633313458381186101bf576004358060a01c612c79576102e0526102e05160e05261013d612519565b6c02863c1f5cdae420000000000b6102e05160a052608052604060802054638b752bb0610300526102e0516103205230610340526020610300604461031c602061018038036080396080515afa610199573d600060003e3d6000fd5b601f3d1115612c795761030051808210612c795780820390509050610360526020610360f35b63e77e74378118610237576004358060a01c612c795760e0526024358060a01c612c7957610100526c02863c1f5cdae420000000001960e05160a05260805260406080206101005160a05260805260406080205470010000000000000000000000000000000080820690509050610120526020610120f35b6333fd6f748118610453576004358060a01c612c795760e0526024358060a01c612c79576101005260056c02863c1f5cdae42000000000166101005160a05260805260406080200154610120526004546101405260006101405114610386574260026c02863c1f5cdae42000000000166101005160a052608052604060802001548082116102c557816102c7565b805b90509050610160526101605160046c02863c1f5cdae42000000000166101005160a05260805260406080200154808210612c7957808203905090506101805261012080516101805160036c02863c1f5cdae42000000000166101005160a05260805260406080200154808202821582848304141715612c795790509050670de0b6b3a7640000808202821582848304141715612c79579050905061014051808015612c79578204905090508181830110612c7957808201905090508152505b6c02863c1f5cdae42000000000186101005160a052608052604060802060e05160a05260805260406080205461016052600360e05160a0526080526040608020546101205161016051808210612c795780820390509050808202821582848304141715612c795790509050670de0b6b3a764000080820490509050610180526c02863c1f5cdae420000000001960e05160a05260805260406080206101005160a05260805260406080205460801c610180518181830110612c7957808201905090506101a05260206101a0f35b63bdf98116811861048c576004358060a01c612c795760e05260e0516c02863c1f5cdae42000000000173360a052608052604060802055005b63e6f1daf281186104a75733610440526000610460526104f6565b6384e9bd7e81186104cc576004358060a01c612c7957610440526000610460526104f6565b639faceb1b8118610543576004358060a01c612c7957610440526024358060a01c612c7957610460525b600054612c795760016000556000610460511461051857336104405118612c79575b6104405160e05260045461010052600161012052610460516101405261053c611fed565b6000600055005b6396c551758118610702576004358060a01c612c79576102e0526c02863c1f5cdae420000000000a6102e05160a0526080526040608020546103005263da020a18610380526102e0516103a05263010ae757610340526102e051610360526020610340602461035c602061012038036080396080515afa6105c9573d600060003e3d6000fd5b601f3d1115612c7957610340516103c0526020610380604461039c602061012038036080396080515afa610602573d600060003e3d6000fd5b601f3d1115612c7957610380516103205260036102e05160a052608052604060802054610340526370a082316103a0526102e0516103c05260206103a060246103bc602061012038036080396080515afa610662573d600060003e3d6000fd5b601f3d1115612c79576103a0511561068257610300516103205111610685565b60015b15612c7957610340516028808202821582848304141715612c79579050905060648082049050905060066102e05160a0526080526040608020541115612c79576102e05160e0526106d4612519565b6102e05160e05260036102e05160a0526080526040608020546101005260045461012052610700611dfd565b005b63b6b55f25811861071d57336104405260006104605261076c565b636e553f658118610742576024358060a01c612c79576104405260006104605261076c565b6383df6747811861091b576024358060a01c612c7957610440526044358060011c612c7957610460525b600054612c795760016000556104405160e052610787612519565b6000600435146108ae5760006c02863c1f5cdae420000000000d541415610480526004546104a05261048051156107dd576104405160e0526104a0516101005261046051610120526000610140526107dd611fed565b6104a080516004358181830110612c79578082019050905081525060036104405160a0526080526040608020546004358181830110612c7957808201905090506104c0526104c05160036104405160a0526080526040608020556104a0516004556104405160e0526104c051610100526104a0516101205261085d611dfd565b6323b872dd6104e052336105005230610520526004356105405260206104e060646104fc60006020602038036080396080515af16108a0573d600060003e3d6000fd5b601f3d1115612c79576104e0505b610440517fe1fffcc4923d04b559f4d29a8bfc6cda04eb5b0d3c460751c2402c5c5cc9109c600435610480526020610480a26104405160007fddf252ad1be2c89b69c2b068fc378daa952ba7f163c4a11628f55a4df523b3ef600435610480526020610480a36000600055005b632e1a7d4d81186109315760006104405261094c565b6338d074368118610add576024358060011c612c7957610440525b600054612c795760016000553360e052610964612519565b600060043514610a765760006c02863c1f5cdae420000000000d541415610460526004546104805261046051156109b7573360e052610480516101005261044051610120526000610140526109b7611fed565b6104808051600435808210612c79578082039050905081525060033360a052608052604060802054600435808210612c7957808203905090506104a0526104a05160033360a052608052604060802055610480516004553360e0526104a051610100526104805161012052610a2a611dfd565b63a9059cbb6104c052336104e0526004356105005260206104c060446104dc60006020602038036080396080515af1610a68573d600060003e3d6000fd5b601f3d1115612c79576104c0505b337f884edad9ce6fa2440d8a54cc123490eb96d2768479d49ff9c7366125a9424364600435610460526020610460a26000337fddf252ad1be2c89b69c2b068fc378daa952ba7f163c4a11628f55a4df523b3ef600435610460526020610460a36000600055005b63a9059cbb8118610b31576004358060a01c612c795761050052600054612c795760016000553361044052610500516104605260243561048052610b1f612ae5565b60016105205260206105206000600055f35b6323b872dd8118610c17576004358060a01c612c7957610500526024358060a01c612c795761052052600054612c7957600160005560056105005160a05260805260406080203360a052608052604060802054610540527fffffffffffffffffffffffffffffffffffffffffffffffffffffffffffffffff6105405114610be65761054051604435808210612c79578082039050905060056105005160a05260805260406080203360a0526080526040608020555b6105005161044052610520516104605260443561048052610c05612ae5565b60016105605260206105606000600055f35b63095ea7b38118610c8f576004358060a01c612c795760e05260243560053360a052608052604060802060e05160a05260805260406080205560e051337f8c5be1e5ebec7d5bd14f71427d1e84f3dd0314c0f7b2291e5b200ac8c7c3b925602435610100526020610100a36001610100526020610100f35b63d505accf8118611005576004358060a01c612c795760e0526024358060a01c612c7957610100526084358060081c612c795761012052600060e05114612c79576064354211612c7957600160e05160a0526080526040608020546101405260006002610400527f1901000000000000000000000000000000000000000000000000000000000000610420526104006002806020846106000101826020850160045afa5050805182019150506020604038036080396080516020826106000101526020810190507f6e71edae12b1b97f4d1f60370fef10105fa2faae0126114a169c64845d6126c96105405260e0516105605261010051610580526044356105a052610140516105c0526064356105e05260c0610520526105208051602082012090506020826106000101526020810190508061060052610600905080516020820120905061016052600060e0513b11610e195760e0516101605161018052610120516101a052604060a46101c03760206080608061018060015afa5060805118612c7957610f79565b600060a4356102205260c435610240526040610200526102006040806020846102c00101826020850160045afa505080518201915050601f60016020820661026001602082840111612c79576020806102808261012060045afa5050818152905090506001806020846102c00101826020850160045afa505080518201915050806102c0526102c09050805160200180610180828460045afa905050507f1626ba7e00000000000000000000000000000000000000000000000000000000631626ba7e610200526102208060406101605182526020820191508082528083018061018080516020018083828460045afa905050508051806020830101818260206001820306601f8201039050033682375050805160200160206001820306601f820103905090509050810150505050602061020060c461021c60e0515afa610f66573d600060003e3d6000fd5b601f3d1115612c79576102005118612c79575b604435600560e05160a05260805260406080206101005160a0526080526040608020556101405160018181830110612c795780820190509050600160e05160a0526080526040608020556101005160e0517f8c5be1e5ebec7d5bd14f71427d1e84f3dd0314c0f7b2291e5b200ac8c7c3b925604435610180526020610180a36001610180526020610180f35b633950935181186110b3576004358060a01c612c795760e05260053360a052608052604060802060e05160a0526080526040608020546024358181830110612c795780820190509050610100526101005160053360a052608052604060802060e05160a05260805260406080205560e051337f8c5be1e5ebec7d5bd14f71427d1e84f3dd0314c0f7b2291e5b200ac8c7c3b92561010051610120526020610120a36001610120526020610120f35b63a457c2d7811861115f576004358060a01c612c795760e05260053360a052608052604060802060e05160a052608052604060802054602435808210612c795780820390509050610100526101005160053360a052608052604060802060e05160a05260805260406080205560e051337f8c5be1e5ebec7d5bd14f71427d1e84f3dd0314c0f7b2291e5b200ac8c7c3b92561010051610120526020610120a36001610120526020610120f35b63e8de0d4d8118611277576004358060a01c612c795760e0526024358060a01c612c7957610100526c02863c1f5cdae420000000001a543318612c79576c02863c1f5cdae420000000000d54610120526008610120511015612c795760016c02863c1f5cdae420000000001660e05160a05260805260406080200154612c7957600060e05114612c79576101005160016c02863c1f5cdae420000000001660e05160a0526080526040608020015560e0516001610120516008811015612c7957026c02863c1f5cdae420000000000e015560e0516c02863c1f5cdae420000000001660e05160a0526080526040608020556101205160018181830110612c7957808201905090506c02863c1f5cdae420000000000d55005b63058a3a248118611327576004358060a01c612c795760e0526024358060a01c612c79576101005260016c02863c1f5cdae420000000001660e05160a05260805260406080200154610120526101205133186112d45760016112e6565b6c02863c1f5cdae420000000001a5433145b15612c795760006101205114612c795760006101005114612c79576101005160016c02863c1f5cdae420000000001660e05160a05260805260406080200155005b6393f7aa6781186115ef576004358060a01c612c795761044052600054612c7957600160005560016c02863c1f5cdae42000000000166104405160a052608052604060802001543318612c7957600060e05260045461010052600061012052600061014052611394611fed565b600060046104a0527f23b872dd000000000000000000000000000000000000000000000000000000006104c0526104a06004806020846104e00101826020850160045afa505080518201915050336020826104e0010152602081019050306020826104e00101526020810190506024356020826104e0010152602081019050806104e0526104e0505060206105a06104e0516105006000610440515af1611440573d600060003e3d6000fd5b61058060203d8082116114535781611455565b805b905090508152805160200180610460828460045afa905050506000610460511461149457610480516104605181816020036008021c9050905015612c79575b60026c02863c1f5cdae42000000000166104405160a052608052604060802001546104a0526104a051421015611560576104a05142808210612c7957808203905090506104c0526104c05160036c02863c1f5cdae42000000000166104405160a05260805260406080200154808202821582848304141715612c7957905090506104e0526024356104e0518181830110612c79578082019050905062093a808082049050905060036c02863c1f5cdae42000000000166104405160a05260805260406080200155611590565b60243562093a808082049050905060036c02863c1f5cdae42000000000166104405160a052608052604060802001555b4260046c02863c1f5cdae42000000000166104405160a052608052604060802001554262093a808181830110612c79578082019050905060026c02863c1f5cdae42000000000166104405160a052608052604060802001556000600055005b6390b229978118611631576004358060011c612c795760e0526c02863c1f5cdae420000000001a543318612c795760e0516c02863c1f5cdae420000000001c55005b636b441a4081186116a1576004358060a01c612c795760e0526c02863c1f5cdae420000000001a543318612c795760e0516c02863c1f5cdae420000000001b557f2f56810a6bf40af059b96d3aea4db54081f378029a518390491093a7b67032e960e051610100526020610100a1005b63e5ea47b88118611709576c02863c1f5cdae420000000001b5460e05260e0513318612c795760e0516c02863c1f5cdae420000000001a557febee2d5739011062cb4f14113f3b36bf0ffe3da5c0568f64189d1012a118910560e051610100526020610100a1005b6306fdde03811861177a5760e080602080825260e0380381840180826020816080396080516020018082843950508051806020830101818260206001820306601f8201039050033682375050805160200160206001820306601f8201039050905090509050810190509050905060e0f35b6395d89b4181186117eb5760e08060208082526080380381840180826020816080396080516020018082843950508051806020830101818260206001820306601f8201039050033682375050805160200160206001820306601f8201039050905090509050810190509050905060e0f35b63313ce567811861180157601260e052602060e0f35b63075461728118611822576020610180380360803960805160e052602060e0f35b63d09f22a68118611843576020610160380360803960805160e052602060e0f35b63f77c47918118611864576020610140380360803960805160e052602060e0f35b63dfe050318118611885576020610120380360803960805160e052602060e0f35b6349ec3b3f81186118a6576020610100380360803960805160e052602060e0f35b6382c6306681186118c65760206020380360803960805160e052602060e0f35b6354fd4d50811861196057610120806020808252600660e0527f76352e302e3000000000000000000000000000000000000000000000000000006101005260e0818401808280516020018083828460045afa905050508051806020830101818260206001820306601f8201039050033682375050805160200160206001820306601f82010390509050905090508101905090509050610120f35b633644e51581186119805760206040380360803960805160e052602060e0f35b637ecebe0081186119b5576004358060a01c612c795760e052600160e05160a052608052604060802054610100526020610100f35b63be5d1be981186119cc5760025460e052602060e0f35b6370a082318118611a01576004358060a01c612c795760e052600360e05160a052608052604060802054610100526020610100f35b6318160ddd8118611a185760045460e052602060e0f35b63dd62ed3e8118611a6b576004358060a01c612c795760e0526024358060a01c612c795761010052600560e05160a05260805260406080206101005160a052608052604060802054610120526020610120f35b6313ecb1ca8118611aa0576004358060a01c612c795760e052600660e05160a052608052604060802054610100526020610100f35b6317e280898118611ab75760075460e052602060e0f35b63ef78d4fd8118611ace5760085460e052602060e0f35b637598108c8118611b015760016004356c01431e0fae6d7217caa0000000811015612c7957026009015460e052602060e0f35b63fec8ee0c8118611b405760016004356c01431e0fae6d7217caa0000000811015612c7957026c01431e0fae6d72100000000009015460e052602060e0f35b63de263bfa8118611b81576004358060a01c612c795760e0526c02863c1f5cdae420000000000960e05160a052608052604060802054610100526020610100f35b639bd324f28118611bc2576004358060a01c612c795760e0526c02863c1f5cdae420000000000a60e05160a052608052604060802054610100526020610100f35b63094007078118611c03576004358060a01c612c795760e0526c02863c1f5cdae420000000000b60e05160a052608052604060802054610100526020610100f35b63180692d08118611c26576c02863c1f5cdae420000000000c5460e052602060e0f35b63963c94b98118611c49576c02863c1f5cdae420000000000d5460e052602060e0f35b6354c49fe98118611c7c5760016004356008811015612c7957026c02863c1f5cdae420000000000e015460e052602060e0f35b6348e9c65e8118611cec576004358060a01c612c795760e0526c02863c1f5cdae420000000001660e05160a052608052604060802080546101005260018101546101205260028101546101405260038101546101605260048101546101805260058101546101a0525060c0610100f35b6301ddabf18118611d2d576004358060a01c612c795760e0526c02863c1f5cdae420000000001760e05160a052608052604060802054610100526020610100f35b63f05cc0588118611d8c576004358060a01c612c795760e0526024358060a01c612c7957610100526c02863c1f5cdae420000000001860e05160a05260805260406080206101005160a052608052604060802054610120526020610120f35b63f851a4408118611daf576c02863c1f5cdae420000000001a5460e052602060e0f35b6317f7182a8118611dd2576c02863c1f5cdae420000000001b5460e052602060e0f35b639c868ac08118611df5576c02863c1f5cdae420000000001c5460e052602060e0f35b505b60006000fd5b63bbf7408a6101605260e051610180526020610160602461017c602061010038036080396080515afa611e35573d600060003e3d6000fd5b601f3d1115612c795761016051610140526318160ddd610180526020610180600461019c602061012038036080396080515afa611e77573d600060003e3d6000fd5b601f3d1115612c79576101805161016052610100516028808202821582848304141715612c795790509050606480820490509050610180526000610160511115611f205761018080516101205161014051808202821582848304141715612c79579050905061016051808015612c7957820490509050603c808202821582848304141715612c7957905090506064808204905090508181830110612c7957808201905090508152505b6101005161018051808211611f355781611f37565b805b9050905061018052600660e05160a0526080526040608020546101a05261018051600660e05160a052608052604060802055600754610180518181830110612c7957808201905090506101a051808210612c7957808203905090506101c0526101c0516007557f7ecd84343f76a23d2227290e0288da3251b045541698e575a5515af4f04197a360e0516101e0526101005161020052610120516102205261018051610240526101c0516102605260a06101e0a1565b6000610160526101405161018052600060e0511461206557600360e05160a052608052604060802054610160526101205161202957600061202f565b61014051155b15612065576c02863c1f5cdae420000000001760e05160a05260805260406080205461018052610180516120655760e051610180525b6c02863c1f5cdae420000000000d546101a0526101c060006008818352015b6101a0516101c0511861209657612515565b60016101c0516008811015612c7957026c02863c1f5cdae420000000000e01546101e05260056c02863c1f5cdae42000000000166101e05160a05260805260406080200154610200524260026c02863c1f5cdae42000000000166101e05160a0526080526040608020015480821161210e5781612110565b805b90509050610220526102205160046c02863c1f5cdae42000000000166101e05160a05260805260406080200154808210612c795780820390509050610240526000610240511461222f576102205160046c02863c1f5cdae42000000000166101e05160a052608052604060802001556000610100511461222f5761020080516102405160036c02863c1f5cdae42000000000166101e05160a05260805260406080200154808202821582848304141715612c795790509050670de0b6b3a7640000808202821582848304141715612c79579050905061010051808015612c79578204905090508181830110612c7957808201905090508152506102005160056c02863c1f5cdae42000000000166101e05160a052608052604060802001555b600060e05114612505576c02863c1f5cdae42000000000186101e05160a052608052604060802060e05160a05260805260406080205461026052600061028052610200516102605110156122f057610200516c02863c1f5cdae42000000000186101e05160a052608052604060802060e05160a052608052604060802055610160516102005161026051808210612c795780820390509050808202821582848304141715612c795790509050670de0b6b3a764000080820490509050610280525b6c02863c1f5cdae420000000001960e05160a05260805260406080206101e05160a0526080526040608020546102a0526102a05160801c610280518181830110612c7957808201905090506102c05260006102c0511115612505576102a051700100000000000000000000000000000000808206905090506102e052610120516123cc576000610280511115612505576102e0516102c05160801b8181830110612c7957808201905090506c02863c1f5cdae420000000001960e05160a05260805260406080206101e05160a052608052604060802055612505565b60006004610340527fa9059cbb00000000000000000000000000000000000000000000000000000000610360526103406004806020846103800101826020850160045afa505080518201915050610180516020826103800101526020810190506102c051602082610380010152602081019050806103805261038050506020610420610380516103a060006101e0515af161246c573d600060003e3d6000fd5b61040060203d80821161247f5781612481565b805b905090508152805160200180610300828460045afa90505050600061030051146124c057610320516103005181816020036008021c9050905015612c79575b6102e0516102c0518181830110612c7957808201905090506c02863c1f5cdae420000000001960e05160a05260805260406080206101e05160a0526080526040608020555b8151600101808352811415612084575b5050565b600854610100526001610100516c01431e0fae6d7217caa0000000811015612c79570260090154610120526001610100516c01431e0fae6d7217caa0000000811015612c7957026c01431e0fae6d721000000000090154610140526c02863c1f5cdae420000000000c546101605261016051610180526002546101a0526101a05142106126395763b26b238e6101c05260206101c060046101dc6000602061018038036080396080515af16125d3573d600060003e3d6000fd5b601f3d1115612c79576101c051600255632c4e722e6101c05260206101c060046101dc602061018038036080396080515afa612614573d600060003e3d6000fd5b601f3d1115612c79576101c05161018052610180516c02863c1f5cdae420000000000c555b6c02863c1f5cdae420000000001c541561265a576000610160526000610180525b61012051421115612991576007546101c05263615e52376101e0523061020052602061014038036080396080513b15612c79576000600060246101fc6000602061014038036080396080515af16126b6573d600060003e3d6000fd5b610120516101e0526101205162093a808181830110612c79578082019050905062093a808082049050905062093a80808202821582848304141715612c795790509050428082116127075781612709565b805b905090506102005261022060006101f4818352015b610200516101e051808210612c7957808203905090506102405263d3078c9461028052306102a0526101e05162093a808082049050905062093a80808202821582848304141715612c7957905090506102c0526020610280604461029c602061014038036080396080515afa612799573d600060003e3d6000fd5b601f3d1115612c7957610280516102605260006101c0511115612937576101e0516101a05110156127cb5760006127ea565b610200516101a051106127df5760006127ea565b610180516101605114155b6128505761014080516101805161026051808202821582848304141715612c79579050905061024051808202821582848304141715612c7957905090506101c051808015612c79578204905090508181830110612c795780820190509050815250612937565b61014080516101605161026051808202821582848304141715612c7957905090506101a0516101e051808210612c795780820390509050808202821582848304141715612c7957905090506101c051808015612c79578204905090508181830110612c795780820190509050815250610180516101605261014080516101605161026051808202821582848304141715612c795790509050610200516101a051808210612c795780820390509050808202821582848304141715612c7957905090506101c051808015612c79578204905090508181830110612c7957808201905090508152505b4261020051186129465761298e565b610200516101e0526102005162093a808181830110612c795780820190509050428082116129745781612976565b805b9050905061020052815160010180835281141561271e575b50505b610100805160018082018060801d81607f1d18612c79579050905081525061010051600855426001610100516c01431e0fae6d7217caa0000000811015612c79570260090155610140516001610100516c01431e0fae6d7217caa0000000811015612c7957026c01431e0fae6d721000000000090155600660e05160a0526080526040608020546101c0526c02863c1f5cdae420000000000b60e05160a052608052604060802080546101c051610140516c02863c1f5cdae420000000000960e05160a052608052604060802054808210612c795780820390509050808202821582848304141715612c795790509050670de0b6b3a7640000808204905090508181830110612c795780820190509050815550610140516c02863c1f5cdae420000000000960e05160a052608052604060802055426c02863c1f5cdae420000000000a60e05160a052608052604060802055565b6104405160e052612af4612519565b6104605160e052612b03612519565b60006104805114612c40576004546104a05260006c02863c1f5cdae420000000000d5414156104c0526104c05115612b58576104405160e0526104a05161010052600061012052600061014052612b58611fed565b60036104405160a05260805260406080205461048051808210612c7957808203905090506104e0526104e05160036104405160a0526080526040608020556104405160e0526104e051610100526104a05161012052612bb5611dfd565b6104c05115612be1576104605160e0526104a05161010052600061012052600061014052612be1611fed565b60036104605160a052608052604060802054610480518181830110612c7957808201905090506104e0526104e05160036104605160a0526080526040608020556104605160e0526104e051610100526104a05161012052612c40611dfd565b61046051610440517fddf252ad1be2c89b69c2b068fc378daa952ba7f163c4a11628f55a4df523b3ef610480516104a05260206104a0a3565b600080fd5b61044c6130ca0361044c6104003961044c6130ca03610180518161040001526101a0518161042001526101c0518161044001526101e05181610480015261020051816105400152610220518161046001526102e0805160200180836104a001828460045afa90505050610340518161056001526103c08051602001808361050001828460045afa905050508061018001610400f35b600080fd"
}