{
  "address": "0x358fE82370a1B9aDaE2E3ad69D6cF9e503c96018",
  "abi": [
    {
      "name": "Minted",
      "inputs": [
        {
          "name": "recipient",
          "type": "address",
          "indexed": true
        },
        {
          "name": "gauge",
          "type": "address",
          "indexed": false
        },
        {
          "name": "minted",
          "type": "uint256",
          "indexed": false
        }
      ],
      "anonymous": false,
      "type": "event"
    },
    {
      "name": "UpdateMiningParameters",
      "inputs": [
        {
          "name": "time",
          "type": "uint256",
          "indexed": false
        },
        {
          "name": "rate",
          "type": "uint256",
          "indexed": false
        }
      ],
      "anonymous": false,
      "type": "event"
    },
    {
      "name": "CommitNextEmission",
      "inputs": [
        {
          "name": "rate",
          "type": "uint256",
          "indexed": false
        }
      ],
      "anonymous": false,
      "type": "event"
    },
    {
      "name": "CommitEmergencyReturn",
      "inputs": [
        {
          "name": "admin",
          "type": "address",
          "indexed": false
        }
      ],
      "anonymous": false,
      "type": "event"
    },
    {
      "name": "ApplyEmergencyReturn",
      "inputs": [
        {
          "name": "admin",
          "type": "address",
          "indexed": false
        }
      ],
      "anonymous": false,
      "type": "event"
    },
    {
      "name": "CommitOwnership",
      "inputs": [
        {
          "name": "admin",
          "type": "address",
          "indexed": false
        }
      ],
      "anonymous": false,
      "type": "event"
    },
    {
      "name": "ApplyOwnership",
      "inputs": [
        {
          "name": "admin",
          "type": "address",
          "indexed": false
        }
      ],
      "anonymous": false,
      "type": "event"
    },
    {
      "stateMutability": "nonpayable",
      "type": "constructor",
      "inputs": [
        {
          "name": "_token",
          "type": "address"
        },
        {
          "name": "_controller",
          "type": "address"
        },
        {
          "name": "_emergency_return",
          "type": "address"
        },
        {
          "name": "_admin",
          "type": "address"
        }
      ],
      "outputs": []
    },
    {
      "stateMutability": "nonpayable",
      "type": "function",
      "name": "update_mining_parameters",
      "inputs": [],
      "outputs": []
    },
    {
      "stateMutability": "nonpayable",
      "type": "function",
      "name": "start_epoch_time_write",
      "inputs": [],
      "outputs": [
        {
          "name": "",
          "type": "uint256"
        }
      ]
    },
    {
      "stateMutability": "nonpayable",
      "type": "function",
      "name": "future_epoch_time_write",
      "inputs": [],
      "outputs": [
        {
          "name": "",
          "type": "uint256"
        }
      ]
    },
    {
      "stateMutability": "nonpayable",
      "type": "function",
      "name": "mint",
      "inputs": [
        {
          "name": "gauge_addr",
          "type": "address"
        }
      ],
      "outputs": []
    },
    {
      "stateMutability": "nonpayable",
      "type": "function",
      "name": "mint_many",
      "inputs": [
        {
          "name": "gauge_addrs",
          "type": "address[8]"
        }
      ],
      "outputs": []
    },
    {
      "stateMutability": "nonpayable",
      "type": "function",
      "name": "mint_for",
      "inputs": [
        {
          "name": "gauge_addr",
          "type": "address"
        },
        {
          "name": "_for",
          "type": "address"
        }
      ],
      "outputs": []
    },
    {
      "stateMutability": "nonpayable",
      "type": "function",
      "name": "toggle_approve_mint",
      "inputs": [
        {
          "name": "minting_user",
          "type": "address"
        }
      ],
      "outputs": []
    },
    {
      "stateMutability": "nonpayable",
      "type": "function",
      "name": "recover_balance",
      "inputs": [
        {
          "name": "_coin",
          "type": "address"
        }
      ],
      "outputs": [
        {
          "name": "",
          "type": "bool"
        }
      ]
    },
    {
      "stateMutability": "nonpayable",
      "type": "function",
      "name": "commit_next_emission",
      "inputs": [
        {
          "name": "_rate_per_week",
          "type": "uint256"
        }
      ],
      "outputs": []
    },
    {
      "stateMutability": "nonpayable",
      "type": "function",
      "name": "commit_transfer_emergency_return",
      "inputs": [
        {
          "name": "addr",
          "type": "address"
        }
      ],
      "outputs": []
    },
    {
      "stateMutability": "nonpayable",
      "type": "function",
      "name": "apply_transfer_emergency_return",
      "inputs": [],
      "outputs": []
    },
    {
      "stateMutability": "nonpayable",
      "type": "function",
      "name": "commit_transfer_ownership",
      "inputs": [
        {
          "name": "addr",
          "type": "address"
        }
      ],
      "outputs": []
    },
    {
      "stateMutability": "nonpayable",
      "type": "function",
      "name": "apply_transfer_ownership",
      "inputs": [],
      "outputs": []
    },
    {
      "stateMutability": "view",
      "type": "function",
      "name": "mining_epoch",
      "inputs": [],
      "outputs": [
        {
          "name": "",
          "type": "int128"
        }
      ]
    },
    {
      "stateMutability": "view",
      "type": "function",
      "name": "start_epoch_time",
      "inputs": [],
      "outputs": [
        {
          "name": "",
          "type": "uint256"
        }
      ]
    },
    {
      "stateMutability": "view",
      "type": "function",
      "name": "rate",
      "inputs": [],
      "outputs": [
        {
          "name": "",
          "type": "uint256"
        }
      ]
    },
    {
      "stateMutability": "view",
      "type": "function",
      "name": "committed_rate",
      "inputs": [],
      "outputs": [
        {
          "name": "",
          "type": "uint256"
        }
      ]
    },
    {
      "stateMutability": "view",
      "type": "function",
      "name": "is_start",
      "inputs": [],
      "outputs": [
        {
          "name": "",
          "type": "bool"
        }
      ]
    },
    {
      "stateMutability": "view",
      "type": "function",
      "name": "token",
      "inputs": [],
      "outputs": [
        {
          "name": "",
          "type": "address"
        }
      ]
    },
    {
      "stateMutability": "view",
      "type": "function",
      "name": "controller",
      "inputs": [],
      "outputs": [
        {
          "name": "",
          "type": "address"
        }
      ]
    },
    {
      "stateMutability": "view",
      "type": "function",
      "name": "minted",
      "inputs": [
        {
          "name": "arg0",
          "type": "address"
        },
        {
          "name": "arg1",
          "type": "address"
        }
      ],
      "outputs": [
        {
          "name": "",
          "type": "uint256"
        }
      ]
    },
    {
      "stateMutability": "view",
      "type": "function",
      "name": "allowed_to_mint_for",
      "inputs": [
        {
          "name": "arg0",
          "type": "address"
        },
        {
          "name": "arg1",
          "type": "address"
        }
      ],
      "outputs": [
        {
          "name": "",
          "type": "bool"
        }
      ]
    },
    {
      "stateMutability": "view",
      "type": "function",
      "name": "future_emergency_return",
      "inputs": [],
      "outputs": [
        {
          "name": "",
          "type": "address"
        }
      ]
    },
    {
      "stateMutability": "view",
      "type": "function",
      "name": "emergency_return",
      "inputs": [],
      "outputs": [
        {
          "name": "",
          "type": "address"
        }
      ]
    },
    {
      "stateMutability": "view",
      "type": "function",
      "name": "admin",
      "inputs": [],
      "outputs": [
        {
          "name": "",
          "type": "address"
        }
      ]
    },
    {
      "stateMutability": "view",
      "type": "function",
      "name": "future_admin",
      "inputs": [],
      "outputs": [
        {
          "name": "",
          "type": "address"
        }
      ]
    }
  ],
  "transactionHash": "0x9c5d6f31279d5ab557e7172b7bde751493ce31dccd2f4e9d627510538432c206",
  "args": [
    "0xf1Dc500FdE233A4055e25e5BbF516372BC4F6871",
    "0x99Cb6c36816dE2131eF2626bb5dEF7E5cc8b9B14",
    "0x3F8E527aF4e0c6e763e8f368AC679c44C45626aE",
    "0x3F8E527aF4e0c6e763e8f368AC679c44C45626aE"
  ],
  "numDeployments": 1,
  "bytecode": "0x6020610bfd6080396080518060a01c610bf85760e05260206020610bfd016080396080518060a01c610bf8576101005260206040610bfd016080396080518060a01c610bf8576101205260206060610bfd016080396080518060a01c610bf8576101405260e0516006556101005160075561012051600b5561014051600c554262127500808210610bf857808203905090506002557fffffffffffffffffffffffffffffffffffffffffffffffffffffffffffffffff60015560016005557fffffffffffffffffffffffffffffffffffffffffffffffffffffffffffffffff600455610be056600436101561000d57610819565b60046000601c3760005134610af55763d43b40fa811861004e57600254621275008181830110610af557808201905090504210610af55761004c61081f565b005b63adc4cf4381186100b0576002546101405261014051621275008181830110610af5578082019050905042101561009557610140516101605260206101606100ae566100ae565b61009d61081f565b6002546101605260206101606100ae565bf35b63b26b238e811861013a576002546101405261014051621275008181830110610af5578082019050905042101561010b5761014051621275008181830110610af5578082019050905061016052602061016061013856610138565b61011361081f565b600254621275008181830110610af55780820190509050610160526020610160610138565bf35b636a627842811861017c576004358060a01c610af55761022052600054610af557600160005561022051610140523361016052610175610922565b6000600055005b63a51e19048118610274576004358060a01c610af557610220526024358060a01c610af557610240526044358060a01c610af557610260526064358060a01c610af557610280526084358060a01c610af5576102a05260a4358060a01c610af5576102c05260c4358060a01c610af5576102e05260e4358060a01c610af55761030052600054610af557600160005561032060006008818352015b610220610320516008811015610af55760200201516102355761026b565b610220610320516008811015610af557602002015161014052336101605261025b610922565b8151600101808352811415610217575b50506000600055005b6327f18ae381186102eb576004358060a01c610af557610220526024358060a01c610af55761024052600054610af557600160005560093360a05260805260406080206102405160a052608052604060802054156102e457610220516101405261024051610160526102e4610922565b6000600055005b63dd289d608118610341576004358060a01c610af55760e052600960e05160a05260805260406080203360a05260805260406080205415600960e05160a05260805260406080203360a052608052604060802055005b63db2f5f7981186104a1576004358060a01c610af55760e052600c543318610af5576370a082316101205230610140526020610120602461013c600060e0515af1610391573d600060003e3d6000fd5b601f3d1115610af557610120516101005260006004610160527fa9059cbb00000000000000000000000000000000000000000000000000000000610180526101606004806020846101a00101826020850160045afa505080518201915050600b546020826101a0010152602081019050610100516020826101a0010152602081019050806101a0526101a0505060206102406101a0516101c0600060e0515af1610440573d600060003e3d6000fd5b61022060203d8082116104535781610455565b805b905090508152805160200180610120828460045afa905050506000610120511461049457610140516101205181816020036008021c9050905015610af5575b6001610160526020610160f35b63733d39f4811861051057600c543318610af5576a084595161401484a00000060043511610af55760043562093a808082049050905060e05260e0516004557f42152d0007dbdd6390ad61a899e10fdf351c25d8ead1d2104cd506f7bb02600d60e051610100526020610100a1005b63ef0c7c828118610568576004358060a01c610af55760e052600c543318610af55760e051600a557f25c790a7d612ba9aa2630b1e99a1c79e94200e723561c945ae21661a4f1078b960e051610100526020610100a1005b6307fa40c281186105c257600c543318610af557600a5460e052600060e05114610af55760e051600b557f935a0ec5f76d1f31afb472d8d8411cb3b4551dcb02bbf02d821143d1fbfa368860e051610100526020610100a1005b636b441a40811861061a576004358060a01c610af55760e052600c543318610af55760e051600d557f2f56810a6bf40af059b96d3aea4db54081f378029a518390491093a7b67032e960e051610100526020610100a1005b636a1c05ae811861067457600c543318610af557600d5460e052600060e05114610af55760e051600c557febee2d5739011062cb4f14113f3b36bf0ffe3da5c0568f64189d1012a118910560e051610100526020610100a1005b63f9a40bf6811861068b5760015460e052602060e0f35b637375be2681186106a25760025460e052602060e0f35b632c4e722e81186106b95760035460e052602060e0f35b6323c1bad281186106d05760045460e052602060e0f35b63b208629c81186106e75760055460e052602060e0f35b63fc0c546a81186106fe5760065460e052602060e0f35b63f77c479181186107155760075460e052602060e0f35b638b752bb08118610768576004358060a01c610af55760e0526024358060a01c610af55761010052600860e05160a05260805260406080206101005160a052608052604060802054610120526020610120f35b63a099003381186107bb576004358060a01c610af55760e0526024358060a01c610af55761010052600960e05160a05260805260406080206101005160a052608052604060802054610120526020610120f35b63afc5ffc481186107d257600a5460e052602060e0f35b632c3f531e81186107e957600b5460e052602060e0f35b63f851a440811861080057600c5460e052602060e0f35b6317f7182a811861081757600d5460e052602060e0f35b505b60006000fd5b60035460e05260028054621275008181830110610af557808201905090508155506001805460018082018060801d81607f1d18610af5579050905081555060e0511561086c576000610870565b6005545b6108d557600454610100527fffffffffffffffffffffffffffffffffffffffffffffffffffffffffffffffff61010051146108e7576101005160e0527fffffffffffffffffffffffffffffffffffffffffffffffffffffffffffffffff6004556108e7565b671caebeafec14446660e05260006005555b60e0516003557f8c1f077f7ef6438f97e353be8e229c7c49d3cad572d32be6de3033311a3ede3a426101005260e051610120526040610100a1565b6000633f9095b761018052610140516101a0526020610180602461019c6007545afa610953573d600060003e3d6000fd5b601f3d1115610af5576101805112610af557634b82009361018052610160516101a0526020610180602461019c6000610140515af1610997573d600060003e3d6000fd5b601f3d1115610af5576101805063094007076101a052610160516101c05260206101a060246101bc610140515afa6109d4573d600060003e3d6000fd5b601f3d1115610af5576101a051610180526101805160086101605160a05260805260406080206101405160a052608052604060802054808210610af557808203905090506101a05260006101a05114610af35763a9059cbb6101c052610160516101e0526101a0516102005260206101c060446101dc60006006545af1610a60573d600060003e3d6000fd5b601f3d1115610af5576101c050600254621275008181830110610af557808201905090504210610a9257610a9261081f565b6101805160086101605160a05260805260406080206101405160a052608052604060802055610160517f9d228d69b5fdb8d273a2336f8fb8612d039631024ea9bf09c424a9503aa078f0610140516101c052610180516101e05260406101c0a25b565b600080fd5b6100e6610be0036100e66000396100e6610be0036000f35b600080fd"
}