{
  "address": "0xccFd60589F4E15a23ad326A5E2c2D871ed310152",
  "abi": [
    {
      "inputs": [
        {
          "internalType": "uint32",
          "name": "_gasLimit",
          "type": "uint32"
        },
        {
          "internalType": "address",
          "name": "_SDL",
          "type": "address"
        },
        {
          "internalType": "address",
          "name": "_OP_SDL",
          "type": "address"
        }
      ],
      "stateMutability": "nonpayable",
      "type": "constructor"
    },
    {
      "anonymous": false,
      "inputs": [
        {
          "indexed": true,
          "internalType": "address",
          "name": "previousOwner",
          "type": "address"
        },
        {
          "indexed": true,
          "internalType": "address",
          "name": "newOwner",
          "type": "address"
        }
      ],
      "name": "OwnershipTransferred",
      "type": "event"
    },
    {
      "anonymous": false,
      "inputs": [
        {
          "indexed": false,
          "internalType": "address",
          "name": "account",
          "type": "address"
        }
      ],
      "name": "Paused",
      "type": "event"
    },
    {
      "anonymous": false,
      "inputs": [
        {
          "indexed": false,
          "internalType": "address",
          "name": "account",
          "type": "address"
        }
      ],
      "name": "Unpaused",
      "type": "event"
    },
    {
      "anonymous": false,
      "inputs": [
        {
          "indexed": false,
          "internalType": "uint32",
          "name": "oldGasLimit",
          "type": "uint32"
        },
        {
          "indexed": false,
          "internalType": "uint32",
          "name": "newGasLimit",
          "type": "uint32"
        }
      ],
      "name": "UpdateGasLimit",
      "type": "event"
    },
    {
      "anonymous": false,
      "inputs": [
        {
          "indexed": true,
          "internalType": "address",
          "name": "l1Token",
          "type": "address"
        },
        {
          "indexed": false,
          "internalType": "address",
          "name": "oldL2Token",
          "type": "address"
        },
        {
          "indexed": false,
          "internalType": "address",
          "name": "newL2Token",
          "type": "address"
        }
      ],
      "name": "UpdateTokenMapping",
      "type": "event"
    },
    {
      "inputs": [
        {
          "internalType": "address",
          "name": "_token",
          "type": "address"
        },
        {
          "internalType": "address",
          "name": "_to",
          "type": "address"
        },
        {
          "internalType": "uint256",
          "name": "_amount",
          "type": "uint256"
        }
      ],
      "name": "bridge",
      "outputs": [],
      "stateMutability": "payable",
      "type": "function"
    },
    {
      "inputs": [
        {
          "internalType": "address",
          "name": "",
          "type": "address"
        }
      ],
      "name": "check",
      "outputs": [
        {
          "internalType": "bool",
          "name": "",
          "type": "bool"
        }
      ],
      "stateMutability": "pure",
      "type": "function"
    },
    {
      "inputs": [],
      "name": "cost",
      "outputs": [
        {
          "internalType": "uint256",
          "name": "",
          "type": "uint256"
        }
      ],
      "stateMutability": "pure",
      "type": "function"
    },
    {
      "inputs": [
        {
          "internalType": "address",
          "name": "",
          "type": "address"
        }
      ],
      "name": "l2AddrMap",
      "outputs": [
        {
          "internalType": "address",
          "name": "",
          "type": "address"
        }
      ],
      "stateMutability": "view",
      "type": "function"
    },
    {
      "inputs": [],
      "name": "owner",
      "outputs": [
        {
          "internalType": "address",
          "name": "",
          "type": "address"
        }
      ],
      "stateMutability": "view",
      "type": "function"
    },
    {
      "inputs": [],
      "name": "pause",
      "outputs": [],
      "stateMutability": "nonpayable",
      "type": "function"
    },
    {
      "inputs": [],
      "name": "paused",
      "outputs": [
        {
          "internalType": "bool",
          "name": "",
          "type": "bool"
        }
      ],
      "stateMutability": "view",
      "type": "function"
    },
    {
      "inputs": [],
      "name": "renounceOwnership",
      "outputs": [],
      "stateMutability": "nonpayable",
      "type": "function"
    },
    {
      "inputs": [
        {
          "internalType": "uint32",
          "name": "_gasLimit",
          "type": "uint32"
        }
      ],
      "name": "setGasLimit",
      "outputs": [],
      "stateMutability": "nonpayable",
      "type": "function"
    },
    {
      "inputs": [
        {
          "internalType": "address",
          "name": "_l1Token",
          "type": "address"
        },
        {
          "internalType": "address",
          "name": "_l2Token",
          "type": "address"
        }
      ],
      "name": "setL2TokenPair",
      "outputs": [],
      "stateMutability": "nonpayable",
      "type": "function"
    },
    {
      "inputs": [
        {
          "internalType": "address",
          "name": "newOwner",
          "type": "address"
        }
      ],
      "name": "transferOwnership",
      "outputs": [],
      "stateMutability": "nonpayable",
      "type": "function"
    },
    {
      "inputs": [],
      "name": "unpause",
      "outputs": [],
      "stateMutability": "nonpayable",
      "type": "function"
    },
    {
      "stateMutability": "payable",
      "type": "receive"
    }
  ],
  "transactionHash": "0x37184031327d80e3fd17909755751bc34af36d2af1a02c2f02221bd4fc86696a",
  "args": [
    200000,
    "0xf1Dc500FdE233A4055e25e5BbF516372BC4F6871",
    "0xae31207ac34423c41576ff59bfb4e036150f9cf7"
  ],
  "numDeployments": 1,
  "solcInputHash": "38ac894988ebf4d6035a93b121cacae1",
  "bytecode": "0x60a06040523480156200001157600080fd5b50604051620017cd380380620017cd833981016040819052620000349162000546565b6200003f3362000113565b600080546001600160a01b03841660805264ffffffffff60a01b1916600160a81b63ffffffff86169081029190911782556040805192835260208301919091527fe4954bdfb8c122bbe014a813e293d81a81b4d0140627367e3a047245687049ed910160405180910390a16001600160a01b03828116600081815260016020908152604090912080546001600160a01b031916938516939093179092556200010a917399c9fc46f92e8a1c0dec1b1747d010903e884be1906000199062000163811b6200072617901c565b50505062000651565b600080546001600160a01b038381166001600160a01b0319831681178455604051919092169283917f8be0079c531659141344cd1fd0a4f28419497f9722a3daafe3b4186f6b6457e09190a35050565b801580620001e15750604051636eb1769f60e11b81523060048201526001600160a01b03838116602483015284169063dd62ed3e90604401602060405180830381865afa158015620001b9573d6000803e3d6000fd5b505050506040513d601f19601f82011682018060405250810190620001df91906200059a565b155b620002595760405162461bcd60e51b815260206004820152603660248201527f5361666545524332303a20617070726f76652066726f6d206e6f6e2d7a65726f60448201527f20746f206e6f6e2d7a65726f20616c6c6f77616e63650000000000000000000060648201526084015b60405180910390fd5b604080516001600160a01b038416602482015260448082018490528251808303909101815260649091019091526020810180516001600160e01b0390811663095ea7b360e01b17909152620002b1918591620002b616565b505050565b600062000312826040518060400160405280602081526020017f5361666545524332303a206c6f772d6c6576656c2063616c6c206661696c6564815250856001600160a01b03166200039460201b6200092b179092919060201c565b805190915015620002b15780806020019051810190620003339190620005b4565b620002b15760405162461bcd60e51b815260206004820152602a60248201527f5361666545524332303a204552433230206f7065726174696f6e20646964206e6044820152691bdd081cdd58d8d9595960b21b606482015260840162000250565b6060620003a58484600085620003af565b90505b9392505050565b606082471015620004125760405162461bcd60e51b815260206004820152602660248201527f416464726573733a20696e73756666696369656e742062616c616e636520666f6044820152651c8818d85b1b60d21b606482015260840162000250565b6001600160a01b0385163b6200046b5760405162461bcd60e51b815260206004820152601d60248201527f416464726573733a2063616c6c20746f206e6f6e2d636f6e7472616374000000604482015260640162000250565b600080866001600160a01b03168587604051620004899190620005fe565b60006040518083038185875af1925050503d8060008114620004c8576040519150601f19603f3d011682016040523d82523d6000602084013e620004cd565b606091505b509092509050620004e0828286620004eb565b979650505050505050565b60608315620004fc575081620003a8565b8251156200050d5782518084602001fd5b8160405162461bcd60e51b81526004016200025091906200061c565b80516001600160a01b03811681146200054157600080fd5b919050565b6000806000606084860312156200055c57600080fd5b835163ffffffff811681146200057157600080fd5b9250620005816020850162000529565b9150620005916040850162000529565b90509250925092565b600060208284031215620005ad57600080fd5b5051919050565b600060208284031215620005c757600080fd5b81518015158114620003a857600080fd5b60005b83811015620005f5578181015183820152602001620005db565b50506000910152565b6000825162000612818460208701620005d8565b9190910192915050565b60208152600082518060208401526200063d816040850160208701620005d8565b601f01601f19169190910160400192915050565b6080516111636200066a600039600050506111636000f3fe6080604052600436106100cb5760003560e01c80638456cb5911610074578063c23697a81161004e578063c23697a814610214578063e3445a3b14610235578063f2fde38b1461027857600080fd5b80638456cb59146101a057806387121759146101b55780638da5cb5b146101c857600080fd5b80635c975abb116100a55780635c975abb1461012f578063715018a61461016b57806383d870fa1461018057600080fd5b806313faede6146100d75780633f4ba83a146100f857806352d84c621461010f57600080fd5b366100d257005b600080fd5b3480156100e357600080fd5b50604051600081526020015b60405180910390f35b34801561010457600080fd5b5061010d610298565b005b34801561011b57600080fd5b5061010d61012a366004610f88565b6102b2565b34801561013b57600080fd5b5060005474010000000000000000000000000000000000000000900460ff165b60405190151581526020016100ef565b34801561017757600080fd5b5061010d610367565b34801561018c57600080fd5b5061010d61019b366004610fd7565b610379565b3480156101ac57600080fd5b5061010d6104b1565b61010d6101c336600461100a565b6104c9565b3480156101d457600080fd5b5060005473ffffffffffffffffffffffffffffffffffffffff165b60405173ffffffffffffffffffffffffffffffffffffffff90911681526020016100ef565b34801561022057600080fd5b5061015b61022f366004611046565b50600190565b34801561024157600080fd5b506101ef610250366004611046565b60016020526000908152604090205473ffffffffffffffffffffffffffffffffffffffff1681565b34801561028457600080fd5b5061010d610293366004611046565b61066f565b6102a0610944565b6102a86109c5565b6102b0610a49565b565b6102ba610944565b6000546040805163ffffffff75010000000000000000000000000000000000000000009093048316815291831660208301527fe4954bdfb8c122bbe014a813e293d81a81b4d0140627367e3a047245687049ed910160405180910390a16000805463ffffffff9092167501000000000000000000000000000000000000000000027fffffffffffffff00000000ffffffffffffffffffffffffffffffffffffffffff909216919091179055565b61036f610944565b6102b06000610ac6565b610381610944565b600073ffffffffffffffffffffffffffffffffffffffff8216156103c257507fffffffffffffffffffffffffffffffffffffffffffffffffffffffffffffffff5b6103f773ffffffffffffffffffffffffffffffffffffffff84167399c9fc46f92e8a1c0dec1b1747d010903e884be183610726565b73ffffffffffffffffffffffffffffffffffffffff83811660008181526001602090815260409182902054825190851681529386169084015290917f2069a26c43c36ffaabe0c2d19bf65e55dd03abecdc449f5cc9663491e97f709d910160405180910390a25073ffffffffffffffffffffffffffffffffffffffff918216600090815260016020526040902080547fffffffffffffffffffffffff00000000000000000000000000000000000000001691909216179055565b6104b9610944565b6104c1610b3b565b6102b0610bc0565b6104d1610b3b565b6104f373ffffffffffffffffffffffffffffffffffffffff8416333084610c2f565b73ffffffffffffffffffffffffffffffffffffffff8084166000908152600160205260409020541680610587576040517f08c379a000000000000000000000000000000000000000000000000000000000815260206004820152601060248201527f4c3220746f6b656e206e6f74207365740000000000000000000000000000000060448201526064015b60405180910390fd5b600080546040517f838b252000000000000000000000000000000000000000000000000000000000815273ffffffffffffffffffffffffffffffffffffffff808816600483015280851660248301528616604482015260648101859052750100000000000000000000000000000000000000000090910463ffffffff16608482015260c060a482015260c48101919091527399c9fc46f92e8a1c0dec1b1747d010903e884be19063838b25209060e401600060405180830381600087803b15801561065157600080fd5b505af1158015610665573d6000803e3d6000fd5b5050505050505050565b610677610944565b73ffffffffffffffffffffffffffffffffffffffff811661071a576040517f08c379a000000000000000000000000000000000000000000000000000000000815260206004820152602660248201527f4f776e61626c653a206e6577206f776e657220697320746865207a65726f206160448201527f6464726573730000000000000000000000000000000000000000000000000000606482015260840161057e565b61072381610ac6565b50565b8015806107c657506040517fdd62ed3e00000000000000000000000000000000000000000000000000000000815230600482015273ffffffffffffffffffffffffffffffffffffffff838116602483015284169063dd62ed3e90604401602060405180830381865afa1580156107a0573d6000803e3d6000fd5b505050506040513d601f19601f820116820180604052508101906107c49190611061565b155b610852576040517f08c379a000000000000000000000000000000000000000000000000000000000815260206004820152603660248201527f5361666545524332303a20617070726f76652066726f6d206e6f6e2d7a65726f60448201527f20746f206e6f6e2d7a65726f20616c6c6f77616e636500000000000000000000606482015260840161057e565b60405173ffffffffffffffffffffffffffffffffffffffff83166024820152604481018290526109269084907f095ea7b300000000000000000000000000000000000000000000000000000000906064015b604080517fffffffffffffffffffffffffffffffffffffffffffffffffffffffffffffffe08184030181529190526020810180517bffffffffffffffffffffffffffffffffffffffffffffffffffffffff167fffffffff0000000000000000000000000000000000000000000000000000000090931692909217909152610c93565b505050565b606061093a8484600085610d9f565b90505b9392505050565b60005473ffffffffffffffffffffffffffffffffffffffff1633146102b0576040517f08c379a000000000000000000000000000000000000000000000000000000000815260206004820181905260248201527f4f776e61626c653a2063616c6c6572206973206e6f7420746865206f776e6572604482015260640161057e565b60005474010000000000000000000000000000000000000000900460ff166102b0576040517f08c379a000000000000000000000000000000000000000000000000000000000815260206004820152601460248201527f5061757361626c653a206e6f7420706175736564000000000000000000000000604482015260640161057e565b610a516109c5565b600080547fffffffffffffffffffffff00ffffffffffffffffffffffffffffffffffffffff1690557f5db9ee0a495bf2e6ff9c91a7834c1ba4fdd244a5e8aa4e537bd38aeae4b073aa335b60405173ffffffffffffffffffffffffffffffffffffffff909116815260200160405180910390a1565b6000805473ffffffffffffffffffffffffffffffffffffffff8381167fffffffffffffffffffffffff0000000000000000000000000000000000000000831681178455604051919092169283917f8be0079c531659141344cd1fd0a4f28419497f9722a3daafe3b4186f6b6457e09190a35050565b60005474010000000000000000000000000000000000000000900460ff16156102b0576040517f08c379a000000000000000000000000000000000000000000000000000000000815260206004820152601060248201527f5061757361626c653a2070617573656400000000000000000000000000000000604482015260640161057e565b610bc8610b3b565b600080547fffffffffffffffffffffff00ffffffffffffffffffffffffffffffffffffffff16740100000000000000000000000000000000000000001790557f62e78cea01bee320cd4e420270b5ea74000d11b0c9f74754ebdbfc544b05a258610a9c3390565b60405173ffffffffffffffffffffffffffffffffffffffff80851660248301528316604482015260648101829052610c8d9085907f23b872dd00000000000000000000000000000000000000000000000000000000906084016108a4565b50505050565b6000610cf5826040518060400160405280602081526020017f5361666545524332303a206c6f772d6c6576656c2063616c6c206661696c65648152508573ffffffffffffffffffffffffffffffffffffffff1661092b9092919063ffffffff16565b8051909150156109265780806020019051810190610d13919061107a565b610926576040517f08c379a000000000000000000000000000000000000000000000000000000000815260206004820152602a60248201527f5361666545524332303a204552433230206f7065726174696f6e20646964206e60448201527f6f74207375636365656400000000000000000000000000000000000000000000606482015260840161057e565b606082471015610e31576040517f08c379a000000000000000000000000000000000000000000000000000000000815260206004820152602660248201527f416464726573733a20696e73756666696369656e742062616c616e636520666f60448201527f722063616c6c0000000000000000000000000000000000000000000000000000606482015260840161057e565b73ffffffffffffffffffffffffffffffffffffffff85163b610eaf576040517f08c379a000000000000000000000000000000000000000000000000000000000815260206004820152601d60248201527f416464726573733a2063616c6c20746f206e6f6e2d636f6e7472616374000000604482015260640161057e565b6000808673ffffffffffffffffffffffffffffffffffffffff168587604051610ed891906110c0565b60006040518083038185875af1925050503d8060008114610f15576040519150601f19603f3d011682016040523d82523d6000602084013e610f1a565b606091505b5091509150610f2a828286610f35565b979650505050505050565b60608315610f4457508161093d565b825115610f545782518084602001fd5b816040517f08c379a000000000000000000000000000000000000000000000000000000000815260040161057e91906110dc565b600060208284031215610f9a57600080fd5b813563ffffffff8116811461093d57600080fd5b803573ffffffffffffffffffffffffffffffffffffffff81168114610fd257600080fd5b919050565b60008060408385031215610fea57600080fd5b610ff383610fae565b915061100160208401610fae565b90509250929050565b60008060006060848603121561101f57600080fd5b61102884610fae565b925061103660208501610fae565b9150604084013590509250925092565b60006020828403121561105857600080fd5b61093d82610fae565b60006020828403121561107357600080fd5b5051919050565b60006020828403121561108c57600080fd5b8151801515811461093d57600080fd5b60005b838110156110b757818101518382015260200161109f565b50506000910152565b600082516110d281846020870161109c565b9190910192915050565b60208152600082518060208401526110fb81604085016020870161109c565b601f017fffffffffffffffffffffffffffffffffffffffffffffffffffffffffffffffe016919091016040019291505056fea2646970667358221220e1af6662e1e6ea1ded2e26fcdbda5d6a744c36326bb8192ee774919f47d99dd264736f6c63430008110033",
  "devdoc": {
    "details": "Since Optimism bridge reequires manually providing the L2 token address, the contract owner must set the L2 token address before bridging.",
    "kind": "dev",
    "methods": {
      "bridge(address,address,uint256)": {
        "details": "The function will revert if the L2 token address is not set",
        "params": {
          "_amount": "amount of tokens to bridge",
          "_to": "destination address on Optimism chain",
          "_token": "token address on this chain"
        }
      },
      "check(address)": {
        "returns": {
          "_0": "True if the bridger is active"
        }
      },
      "constructor": {
        "details": "Arbitrum bridge requires base fee for the fee calculation therefore the function may revert on evm implementations that do not support base fee",
        "params": {
          "_OP_SDL": "SDL token address on Optimism chain",
          "_SDL": "SDL token address on this chain",
          "_gasLimit": "Gas limit for the L2 transaction"
        }
      },
      "cost()": {
        "details": "The gas cost for bridging is 0 on Ethereum mainnet",
        "returns": {
          "_0": "The cost of bridging tokens"
        }
      },
      "owner()": {
        "details": "Returns the address of the current owner."
      },
      "pause()": {
        "details": "Only the owner can call this function and overriding contracts should implement `whenNotPaused` modifier to their bridge function"
      },
      "paused()": {
        "details": "Returns true if the contract is paused, and false otherwise."
      },
      "renounceOwnership()": {
        "details": "Leaves the contract without owner. It will not be possible to call `onlyOwner` functions anymore. Can only be called by the current owner. NOTE: Renouncing ownership will leave the contract without an owner, thereby removing any functionality that is only available to the owner."
      },
      "setGasLimit(uint32)": {
        "details": "The function can only be called by the contract owner",
        "params": {
          "_gasLimit": "New gas limit"
        }
      },
      "setL2TokenPair(address,address)": {
        "details": "The function can only be called by the contract owner",
        "params": {
          "_l1Token": "L1 token address",
          "_l2Token": "L2 token address on Optimism"
        }
      },
      "transferOwnership(address)": {
        "details": "Transfers ownership of the contract to a new account (`newOwner`). Can only be called by the current owner."
      },
      "unpause()": {
        "details": "Only the owner can call this function"
      }
    },
    "title": "Optimism bridger contract",
    "version": 1
  },
  "userdoc": {
    "kind": "user",
    "methods": {
      "bridge(address,address,uint256)": {
        "notice": "Bridge given token to Optimism network"
      },
      "check(address)": {
        "notice": "Check if this bridge can be used"
      },
      "constructor": {
        "notice": "This contract is used to bridge tokens to Arbitrum"
      },
      "cost()": {
        "notice": "Get the network cost for bridging tokens to Optimism"
      },
      "pause()": {
        "notice": "Pause the bridger"
      },
      "setGasLimit(uint32)": {
        "notice": "Set gas limit to use for bridging"
      },
      "setL2TokenPair(address,address)": {
        "notice": "Set L2 token address for the given L1 token and approve the bridge to transfer the L1 token"
      },
      "unpause()": {
        "notice": "Unpause the bridger"
      }
    },
    "notice": "This contract is used to bridge tokens to Optimism network",
    "version": 1
  },
  "storageLayout": {
    "storage": [
      {
        "astId": 4026,
        "contract": "contracts/xchainGauges/bridgers/OptimismBridger.sol:OptimismBridger",
        "label": "_owner",
        "offset": 0,
        "slot": "0",
        "type": "t_address"
      },
      {
        "astId": 4860,
        "contract": "contracts/xchainGauges/bridgers/OptimismBridger.sol:OptimismBridger",
        "label": "_paused",
        "offset": 20,
        "slot": "0",
        "type": "t_bool"
      },
      {
        "astId": 9343,
        "contract": "contracts/xchainGauges/bridgers/OptimismBridger.sol:OptimismBridger",
        "label": "gasLimit",
        "offset": 21,
        "slot": "0",
        "type": "t_uint32"
      },
      {
        "astId": 9347,
        "contract": "contracts/xchainGauges/bridgers/OptimismBridger.sol:OptimismBridger",
        "label": "l2AddrMap",
        "offset": 0,
        "slot": "1",
        "type": "t_mapping(t_address,t_address)"
      }
    ],
    "types": {
      "t_address": {
        "encoding": "inplace",
        "label": "address",
        "numberOfBytes": "20"
      },
      "t_bool": {
        "encoding": "inplace",
        "label": "bool",
        "numberOfBytes": "1"
      },
      "t_mapping(t_address,t_address)": {
        "encoding": "mapping",
        "key": "t_address",
        "label": "mapping(address => address)",
        "numberOfBytes": "32",
        "value": "t_address"
      },
      "t_uint32": {
        "encoding": "inplace",
        "label": "uint32",
        "numberOfBytes": "4"
      }
    }
  }
}