{
  "address": "0x5DCA270671935cf3dF78bd8373C22BE250198a03",
  "abi": [
    {
      "inputs": [
        {
          "internalType": "contract IERC20",
          "name": "token_",
          "type": "address"
        },
        {
          "internalType": "bytes32",
          "name": "merkleRoot_",
          "type": "bytes32"
        },
        {
          "internalType": "uint256",
          "name": "startTimestamp_",
          "type": "uint256"
        }
      ],
      "stateMutability": "nonpayable",
      "type": "constructor"
    },
    {
      "anonymous": false,
      "inputs": [
        {
          "indexed": true,
          "internalType": "address",
          "name": "account",
          "type": "address"
        },
        {
          "indexed": false,
          "internalType": "uint256",
          "name": "amount",
          "type": "uint256"
        }
      ],
      "name": "Claimed",
      "type": "event"
    },
    {
      "inputs": [],
      "name": "DURATION",
      "outputs": [
        {
          "internalType": "uint256",
          "name": "",
          "type": "uint256"
        }
      ],
      "stateMutability": "view",
      "type": "function"
    },
    {
      "inputs": [
        {
          "internalType": "address",
          "name": "account",
          "type": "address"
        }
      ],
      "name": "claimReward",
      "outputs": [],
      "stateMutability": "nonpayable",
      "type": "function"
    },
    {
      "inputs": [],
      "name": "merkleRoot",
      "outputs": [
        {
          "internalType": "bytes32",
          "name": "",
          "type": "bytes32"
        }
      ],
      "stateMutability": "view",
      "type": "function"
    },
    {
      "inputs": [],
      "name": "startTimestamp",
      "outputs": [
        {
          "internalType": "uint256",
          "name": "",
          "type": "uint256"
        }
      ],
      "stateMutability": "view",
      "type": "function"
    },
    {
      "inputs": [],
      "name": "token",
      "outputs": [
        {
          "internalType": "contract IERC20",
          "name": "",
          "type": "address"
        }
      ],
      "stateMutability": "view",
      "type": "function"
    },
    {
      "inputs": [
        {
          "internalType": "address",
          "name": "account",
          "type": "address"
        },
        {
          "internalType": "uint256",
          "name": "totalAmount",
          "type": "uint256"
        },
        {
          "internalType": "bytes32[]",
          "name": "merkleProof",
          "type": "bytes32[]"
        }
      ],
      "name": "verifyAndClaimReward",
      "outputs": [],
      "stateMutability": "nonpayable",
      "type": "function"
    },
    {
      "inputs": [
        {
          "internalType": "address",
          "name": "account",
          "type": "address"
        }
      ],
      "name": "vestedAmount",
      "outputs": [
        {
          "internalType": "uint256",
          "name": "",
          "type": "uint256"
        }
      ],
      "stateMutability": "view",
      "type": "function"
    },
    {
      "inputs": [
        {
          "internalType": "address",
          "name": "",
          "type": "address"
        }
      ],
      "name": "vestings",
      "outputs": [
        {
          "internalType": "bool",
          "name": "isVerified",
          "type": "bool"
        },
        {
          "internalType": "uint120",
          "name": "totalAmount",
          "type": "uint120"
        },
        {
          "internalType": "uint120",
          "name": "released",
          "type": "uint120"
        }
      ],
      "stateMutability": "view",
      "type": "function"
    }
  ],
  "transactionHash": "0x46e3fc92135ee7ecb563fef71cc3f6c1772f206a95cf18f35957160965843871",
  "args": [
    "0xf1Dc500FdE233A4055e25e5BbF516372BC4F6871",
    "0x235d88efaae4e04494277ca85279b0550806a2b3efb124e38933a167ba4e7cec",
    1637042400
  ],
  "solcInputHash": "af4196fa2def37a1783574347c2c49c1",
  "bytecode": "0x60e060405234801561001057600080fd5b5060405161112e38038061112e83398101604081905261002f9161016a565b6001600160a01b03831661008a5760405162461bcd60e51b815260206004820152601660248201527f746f6b656e5f2063616e6e6f7420626520656d7074790000000000000000000060448201526064015b60405180910390fd5b8160001a60f81b7fff00000000000000000000000000000000000000000000000000000000000000166100ff5760405162461bcd60e51b815260206004820152601b60248201527f6d65726b6c65526f6f745f2063616e6e6f7420626520656d70747900000000006044820152606401610081565b8061014c5760405162461bcd60e51b815260206004820152601b60248201527f737461727454696d657374616d705f2063616e6e6f74206265203000000000006044820152606401610081565b60609290921b6001600160601b03191660805260a05260c0526101ad565b60008060006060848603121561017f57600080fd5b83516001600160a01b038116811461019657600080fd5b602085015160409095015190969495509392505050565b60805160601c60a05160c051610f346101fa60003960008181610193015281816102ee015261078e01526000818160b0015261047e0152600081816101ba01526108b60152610f346000f3fe608060405234801561001057600080fd5b50600436106100885760003560e01c8063d279c1911161005b578063d279c191146100fa578063daf498631461010d578063e6fd48bc1461018e578063fc0c546a146101b557600080fd5b80631be052891461008d5780632eb4a7ab146100ab578063384711cc146100d2578063935fe8c8146100e5575b600080fd5b6100986303bfc40081565b6040519081526020015b60405180910390f35b6100987f000000000000000000000000000000000000000000000000000000000000000081565b6100986100e0366004610c5c565b610201565b6100f86100f3366004610c77565b61031d565b005b6100f8610108366004610c5c565b610563565b61015f61011b366004610c5c565b60006020819052908152604090205460ff8116906effffffffffffffffffffffffffffff610100820481169170010000000000000000000000000000000090041683565b6040805193151584526effffffffffffffffffffffffffffff92831660208501529116908201526060016100a2565b6100987f000000000000000000000000000000000000000000000000000000000000000081565b6101dc7f000000000000000000000000000000000000000000000000000000000000000081565b60405173ffffffffffffffffffffffffffffffffffffffff90911681526020016100a2565b73ffffffffffffffffffffffffffffffffffffffff811660009081526020819052604081205460ff16610295576040517f08c379a000000000000000000000000000000000000000000000000000000000815260206004820152601160248201527f6d7573742076657269667920666972737400000000000000000000000000000060448201526064015b60405180910390fd5b73ffffffffffffffffffffffffffffffffffffffff8216600090815260208190526040902054610317906effffffffffffffffffffffffffffff61010082048116917001000000000000000000000000000000009004167f00000000000000000000000000000000000000000000000000000000000000006303bfc40061061c565b92915050565b60008311801561033b57506effffffffffffffffffffffffffffff83105b6103c7576040517f08c379a000000000000000000000000000000000000000000000000000000000815260206004820152603860248201527f746f74616c416d6f756e742063616e6e6f742062652030206f72206c6172676560448201527f72207468616e206d61782075696e743132302076616c75650000000000000000606482015260840161028c565b73ffffffffffffffffffffffffffffffffffffffff84166000908152602081905260409020805460ff16610553576040517fffffffffffffffffffffffffffffffffffffffff000000000000000000000000606087901b166020820152603481018590526000906054016040516020818303038152906040528051906020012090506104a98484808060200260200160405190810160405280939291908181526020018383602002808284376000920191909152507f0000000000000000000000000000000000000000000000000000000000000000925085915061067f9050565b61050f576040517f08c379a000000000000000000000000000000000000000000000000000000000815260206004820152601c60248201527f636f756c64206e6f7420766572696679206d65726b6c6550726f6f6600000000604482015260640161028c565b5080546effffffffffffffffffffffffffffff8516610100027fffffffffffffffffffffffffffffffff000000000000000000000000000000009091161760011781555b61055c85610730565b5050505050565b73ffffffffffffffffffffffffffffffffffffffff81166105815750335b73ffffffffffffffffffffffffffffffffffffffff811660009081526020819052604090205460ff16610610576040517f08c379a000000000000000000000000000000000000000000000000000000000815260206004820152601160248201527f6d75737420766572696679206669727374000000000000000000000000000000604482015260640161028c565b61061981610730565b50565b60004283811015610631576000915050610677565b600061063d8583610e20565b9050600084821061064f575086610667565b8461065a838a610de3565b6106649190610da8565b90505b6106718782610e20565b93505050505b949350505050565b600081815b85518110156107235760008682815181106106a1576106a1610ecf565b602002602001015190508083116106e3576040805160208101859052908101829052606001604051602081830303815290604052805190602001209250610710565b60408051602081018390529081018490526060016040516020818303038152906040528051906020012092505b508061071b81610e67565b915050610684565b50831490505b9392505050565b73ffffffffffffffffffffffffffffffffffffffff81166000908152602081905260408120805490916effffffffffffffffffffffffffffff70010000000000000000000000000000000083048116926107b79161010090910416837f00000000000000000000000000000000000000000000000000000000000000006303bfc40061061c565b905060006107c58383610d90565b90506effffffffffffffffffffffffffffff8110610865576040517f08c379a000000000000000000000000000000000000000000000000000000000815260206004820152602960248201527f6e657752656c656173656420697320746f6f2062696720746f2062652063617360448201527f742075696e743132300000000000000000000000000000000000000000000000606482015260840161028c565b83547fff000000000000000000000000000000ffffffffffffffffffffffffffffffff167001000000000000000000000000000000006effffffffffffffffffffffffffffff8316021784556108f27f000000000000000000000000000000000000000000000000000000000000000073ffffffffffffffffffffffffffffffffffffffff168684610949565b8473ffffffffffffffffffffffffffffffffffffffff167fd8138f8a3f377c5259ca548e70e4c2de94f129f5a11036a15b69513cba2b426a8360405161093a91815260200190565b60405180910390a25050505050565b6040805173ffffffffffffffffffffffffffffffffffffffff8416602482015260448082018490528251808303909101815260649091019091526020810180517bffffffffffffffffffffffffffffffffffffffffffffffffffffffff167fa9059cbb000000000000000000000000000000000000000000000000000000001790526109d69084906109db565b505050565b6000610a3d826040518060400160405280602081526020017f5361666545524332303a206c6f772d6c6576656c2063616c6c206661696c65648152508573ffffffffffffffffffffffffffffffffffffffff16610ae79092919063ffffffff16565b8051909150156109d65780806020019051810190610a5b9190610d01565b6109d6576040517f08c379a000000000000000000000000000000000000000000000000000000000815260206004820152602a60248201527f5361666545524332303a204552433230206f7065726174696f6e20646964206e60448201527f6f74207375636365656400000000000000000000000000000000000000000000606482015260840161028c565b6060610677848460008585843b610b5a576040517f08c379a000000000000000000000000000000000000000000000000000000000815260206004820152601d60248201527f416464726573733a2063616c6c20746f206e6f6e2d636f6e7472616374000000604482015260640161028c565b6000808673ffffffffffffffffffffffffffffffffffffffff168587604051610b839190610d23565b60006040518083038185875af1925050503d8060008114610bc0576040519150601f19603f3d011682016040523d82523d6000602084013e610bc5565b606091505b5091509150610bd5828286610be0565b979650505050505050565b60608315610bef575081610729565b825115610bff5782518084602001fd5b816040517f08c379a000000000000000000000000000000000000000000000000000000000815260040161028c9190610d3f565b803573ffffffffffffffffffffffffffffffffffffffff81168114610c5757600080fd5b919050565b600060208284031215610c6e57600080fd5b61072982610c33565b60008060008060608587031215610c8d57600080fd5b610c9685610c33565b935060208501359250604085013567ffffffffffffffff80821115610cba57600080fd5b818701915087601f830112610cce57600080fd5b813581811115610cdd57600080fd5b8860208260051b8501011115610cf257600080fd5b95989497505060200194505050565b600060208284031215610d1357600080fd5b8151801515811461072957600080fd5b60008251610d35818460208701610e37565b9190910192915050565b6020815260008251806020840152610d5e816040850160208701610e37565b601f017fffffffffffffffffffffffffffffffffffffffffffffffffffffffffffffffe0169190910160400192915050565b60008219821115610da357610da3610ea0565b500190565b600082610dde577f4e487b7100000000000000000000000000000000000000000000000000000000600052601260045260246000fd5b500490565b6000817fffffffffffffffffffffffffffffffffffffffffffffffffffffffffffffffff0483118215151615610e1b57610e1b610ea0565b500290565b600082821015610e3257610e32610ea0565b500390565b60005b83811015610e52578181015183820152602001610e3a565b83811115610e61576000848401525b50505050565b60007fffffffffffffffffffffffffffffffffffffffffffffffffffffffffffffffff821415610e9957610e99610ea0565b5060010190565b7f4e487b7100000000000000000000000000000000000000000000000000000000600052601160045260246000fd5b7f4e487b7100000000000000000000000000000000000000000000000000000000600052603260045260246000fdfea264697066735822122055338b0816d4d2b2cb0f40cc2b0d7bd0c7c1c26e03de953c914f1a364201940364736f6c63430008060033",
  "devdoc": {
    "kind": "dev",
    "methods": {
      "claimReward(address)": {
        "params": {
          "account": "Address of the account that the caller is claiming for. If this is set to `address(0)`, it will use the `msg.sender` instead."
        }
      },
      "constructor": {
        "details": "The information about the method used to generate the merkle root and how to replicate it can be found on https://docs.saddle.finance.",
        "params": {
          "merkleRoot_": "Bytes of the merkle root node which is generated off chain.",
          "startTimestamp_": "Timestamp in seconds when to start vesting. This can be backdated as well.",
          "token_": "Address of the token that will be vested"
        }
      },
      "verifyAndClaimReward(address,uint256,bytes32[])": {
        "params": {
          "account": "Address of the account that the caller is verifying for",
          "merkleProof": "Merkle proof that was generated off chain.",
          "totalAmount": "Total amount that will be vested linearly"
        }
      },
      "vestedAmount(address)": {
        "params": {
          "account": "Address to calculate the vested amount for"
        }
      }
    },
    "title": "RetroactiveVesting",
    "version": 1
  },
  "userdoc": {
    "kind": "user",
    "methods": {
      "claimReward(address)": {
        "notice": "Claims the vested amount out of the total amount eligible for the given account."
      },
      "constructor": {
        "notice": "Deploys this contract with given parameters"
      },
      "verifyAndClaimReward(address,uint256,bytes32[])": {
        "notice": "Verifies the given account is eligible for the given amount. Then claims the vested amount out of the total amount eligible."
      },
      "vestedAmount(address)": {
        "notice": "Calculated the amount that has already vested but hasn't been released yet. Reverts if the given account has not been verified."
      }
    },
    "notice": "A token holder contract that can release its token balance linearly over the vesting period of 2 years. Respective address and the amount are included in each merkle node.",
    "version": 1
  },
  "storageLayout": {
    "storage": [
      {
        "astId": 3417,
        "contract": "contracts/RetroactiveVesting.sol:RetroactiveVesting",
        "label": "vestings",
        "offset": 0,
        "slot": "0",
        "type": "t_mapping(t_address,t_struct(VestingData)3393_storage)"
      }
    ],
    "types": {
      "t_address": {
        "encoding": "inplace",
        "label": "address",
        "numberOfBytes": "20"
      },
      "t_bool": {
        "encoding": "inplace",
        "label": "bool",
        "numberOfBytes": "1"
      },
      "t_mapping(t_address,t_struct(VestingData)3393_storage)": {
        "encoding": "mapping",
        "key": "t_address",
        "label": "mapping(address => struct RetroactiveVesting.VestingData)",
        "numberOfBytes": "32",
        "value": "t_struct(VestingData)3393_storage"
      },
      "t_struct(VestingData)3393_storage": {
        "encoding": "inplace",
        "label": "struct RetroactiveVesting.VestingData",
        "members": [
          {
            "astId": 3388,
            "contract": "contracts/RetroactiveVesting.sol:RetroactiveVesting",
            "label": "isVerified",
            "offset": 0,
            "slot": "0",
            "type": "t_bool"
          },
          {
            "astId": 3390,
            "contract": "contracts/RetroactiveVesting.sol:RetroactiveVesting",
            "label": "totalAmount",
            "offset": 1,
            "slot": "0",
            "type": "t_uint120"
          },
          {
            "astId": 3392,
            "contract": "contracts/RetroactiveVesting.sol:RetroactiveVesting",
            "label": "released",
            "offset": 16,
            "slot": "0",
            "type": "t_uint120"
          }
        ],
        "numberOfBytes": "32"
      },
      "t_uint120": {
        "encoding": "inplace",
        "label": "uint120",
        "numberOfBytes": "15"
      }
    }
  }
}