{
  "address": "0x811b699C69ff0AbfF98091919E637fEDCD5DffaC",
  "abi": [
    {
      "inputs": [
        {
          "internalType": "address",
          "name": "_gauge",
          "type": "address"
        }
      ],
      "stateMutability": "nonpayable",
      "type": "constructor"
    },
    {
      "inputs": [
        {
          "internalType": "address",
          "name": "_rewardToken",
          "type": "address"
        }
      ],
      "name": "allow",
      "outputs": [],
      "stateMutability": "nonpayable",
      "type": "function"
    },
    {
      "inputs": [
        {
          "internalType": "address",
          "name": "_rewardToken",
          "type": "address"
        }
      ],
      "name": "depositRewardToken",
      "outputs": [],
      "stateMutability": "nonpayable",
      "type": "function"
    },
    {
      "inputs": [],
      "name": "gauge",
      "outputs": [
        {
          "internalType": "address",
          "name": "",
          "type": "address"
        }
      ],
      "stateMutability": "view",
      "type": "function"
    }
  ],
  "transactionHash": "0x4ad4cc1c4b87fc4b37dbc1c26b55fbede031e1036319ab54747c1d32b4c7b4a6",
  "args": [
    "0x9980C9b35844946cF3451cC0B43D9b6501F4a96E"
  ],
  "numDeployments": 1,
  "solcInputHash": "a86a1f2c9fc265e1191d58ace1a0d05c",
  "bytecode": "0x60a060405234801561001057600080fd5b5060405161093038038061093083398101604081905261002f91610040565b6001600160a01b0316608052610070565b60006020828403121561005257600080fd5b81516001600160a01b038116811461006957600080fd5b9392505050565b60805161089261009e60003960008181605d0152818160fb01528181610215015261025701526108926000f3fe608060405234801561001057600080fd5b50600436106100415760003560e01c806365e7752714610046578063a6f19c841461005b578063ff9913e8146100a5575b600080fd5b61005961005436600461075a565b6100b8565b005b7f000000000000000000000000000000000000000000000000000000000000000060405173ffffffffffffffffffffffffffffffffffffffff909116815260200160405180910390f35b6100596100b336600461075a565b6101f9565b6040517f70a0823100000000000000000000000000000000000000000000000000000000815230600482015273ffffffffffffffffffffffffffffffffffffffff7f00000000000000000000000000000000000000000000000000000000000000008116916393f7aa67918491908216906370a0823190602401602060405180830381865afa15801561014f573d6000803e3d6000fd5b505050506040513d601f19601f820116820180604052508101906101739190610790565b6040517fffffffff0000000000000000000000000000000000000000000000000000000060e085901b16815273ffffffffffffffffffffffffffffffffffffffff90921660048301526024820152604401600060405180830381600087803b1580156101de57600080fd5b505af11580156101f2573d6000803e3d6000fd5b5050505050565b61023b73ffffffffffffffffffffffffffffffffffffffff82167f0000000000000000000000000000000000000000000000000000000000000000600061029f565b61029c73ffffffffffffffffffffffffffffffffffffffff82167f00000000000000000000000000000000000000000000000000000000000000007fffffffffffffffffffffffffffffffffffffffffffffffffffffffffffffffff61029f565b50565b80158061033f57506040517fdd62ed3e00000000000000000000000000000000000000000000000000000000815230600482015273ffffffffffffffffffffffffffffffffffffffff838116602483015284169063dd62ed3e90604401602060405180830381865afa158015610319573d6000803e3d6000fd5b505050506040513d601f19601f8201168201806040525081019061033d9190610790565b155b6103d0576040517f08c379a000000000000000000000000000000000000000000000000000000000815260206004820152603660248201527f5361666545524332303a20617070726f76652066726f6d206e6f6e2d7a65726f60448201527f20746f206e6f6e2d7a65726f20616c6c6f77616e63650000000000000000000060648201526084015b60405180910390fd5b6040805173ffffffffffffffffffffffffffffffffffffffff8416602482015260448082018490528251808303909101815260649091019091526020810180517bffffffffffffffffffffffffffffffffffffffffffffffffffffffff167f095ea7b30000000000000000000000000000000000000000000000000000000017905261045d908490610462565b505050565b60006104c4826040518060400160405280602081526020017f5361666545524332303a206c6f772d6c6576656c2063616c6c206661696c65648152508573ffffffffffffffffffffffffffffffffffffffff1661056e9092919063ffffffff16565b80519091501561045d57808060200190518101906104e291906107a9565b61045d576040517f08c379a000000000000000000000000000000000000000000000000000000000815260206004820152602a60248201527f5361666545524332303a204552433230206f7065726174696f6e20646964206e60448201527f6f7420737563636565640000000000000000000000000000000000000000000060648201526084016103c7565b606061057d8484600085610587565b90505b9392505050565b606082471015610619576040517f08c379a000000000000000000000000000000000000000000000000000000000815260206004820152602660248201527f416464726573733a20696e73756666696369656e742062616c616e636520666f60448201527f722063616c6c000000000000000000000000000000000000000000000000000060648201526084016103c7565b843b610681576040517f08c379a000000000000000000000000000000000000000000000000000000000815260206004820152601d60248201527f416464726573733a2063616c6c20746f206e6f6e2d636f6e747261637400000060448201526064016103c7565b6000808673ffffffffffffffffffffffffffffffffffffffff1685876040516106aa91906107ef565b60006040518083038185875af1925050503d80600081146106e7576040519150601f19603f3d011682016040523d82523d6000602084013e6106ec565b606091505b50915091506106fc828286610707565b979650505050505050565b60608315610716575081610580565b8251156107265782518084602001fd5b816040517f08c379a00000000000000000000000000000000000000000000000000000000081526004016103c7919061080b565b60006020828403121561076c57600080fd5b813573ffffffffffffffffffffffffffffffffffffffff8116811461058057600080fd5b6000602082840312156107a257600080fd5b5051919050565b6000602082840312156107bb57600080fd5b8151801515811461058057600080fd5b60005b838110156107e65781810151838201526020016107ce565b50506000910152565b600082516108018184602087016107cb565b9190910192915050565b602081526000825180602084015261082a8160408501602087016107cb565b601f017fffffffffffffffffffffffffffffffffffffffffffffffffffffffffffffffe016919091016040019291505056fea2646970667358221220847cf7238ea9923e8efcd4b65612b65924934d4c263ba31316ede23dd14f6f3d64736f6c63430008110033",
  "devdoc": {
    "kind": "dev",
    "methods": {},
    "version": 1
  },
  "userdoc": {
    "kind": "user",
    "methods": {},
    "version": 1
  },
  "storageLayout": {
    "storage": [],
    "types": null
  }
}