{
  "address": "0x19a5Ec09eE74f64573ac53f48A48616CE943C047",
  "abi": [
    {
      "name": "BridgerUpdated",
      "inputs": [
        {
          "name": "_chain_id",
          "type": "uint256",
          "indexed": true
        },
        {
          "name": "_old_bridger",
          "type": "address",
          "indexed": false
        },
        {
          "name": "_new_bridger",
          "type": "address",
          "indexed": false
        }
      ],
      "anonymous": false,
      "type": "event"
    },
    {
      "name": "DeployedGauge",
      "inputs": [
        {
          "name": "_implementation",
          "type": "address",
          "indexed": true
        },
        {
          "name": "_chain_id",
          "type": "uint256",
          "indexed": true
        },
        {
          "name": "_deployer",
          "type": "address",
          "indexed": true
        },
        {
          "name": "_salt",
          "type": "bytes32",
          "indexed": false
        },
        {
          "name": "_gauge",
          "type": "address",
          "indexed": false
        }
      ],
      "anonymous": false,
      "type": "event"
    },
    {
      "name": "TransferOwnership",
      "inputs": [
        {
          "name": "_old_owner",
          "type": "address",
          "indexed": false
        },
        {
          "name": "_new_owner",
          "type": "address",
          "indexed": false
        }
      ],
      "anonymous": false,
      "type": "event"
    },
    {
      "name": "UpdateCallProxy",
      "inputs": [
        {
          "name": "_old_call_proxy",
          "type": "address",
          "indexed": false
        },
        {
          "name": "_new_call_proxy",
          "type": "address",
          "indexed": false
        }
      ],
      "anonymous": false,
      "type": "event"
    },
    {
      "name": "UpdateImplementation",
      "inputs": [
        {
          "name": "_old_implementation",
          "type": "address",
          "indexed": false
        },
        {
          "name": "_new_implementation",
          "type": "address",
          "indexed": false
        }
      ],
      "anonymous": false,
      "type": "event"
    },
    {
      "stateMutability": "nonpayable",
      "type": "constructor",
      "inputs": [
        {
          "name": "_call_proxy",
          "type": "address"
        },
        {
          "name": "_owner",
          "type": "address"
        }
      ],
      "outputs": []
    },
    {
      "stateMutability": "nonpayable",
      "type": "function",
      "name": "transmit_emissions",
      "inputs": [
        {
          "name": "_gauge",
          "type": "address"
        }
      ],
      "outputs": []
    },
    {
      "stateMutability": "payable",
      "type": "function",
      "name": "deploy_gauge",
      "inputs": [
        {
          "name": "_chain_id",
          "type": "uint256"
        },
        {
          "name": "_salt",
          "type": "bytes32"
        },
        {
          "name": "_name",
          "type": "string"
        }
      ],
      "outputs": [
        {
          "name": "",
          "type": "address"
        }
      ]
    },
    {
      "stateMutability": "nonpayable",
      "type": "function",
      "name": "deploy_child_gauge",
      "inputs": [
        {
          "name": "_chain_id",
          "type": "uint256"
        },
        {
          "name": "_lp_token",
          "type": "address"
        },
        {
          "name": "_salt",
          "type": "bytes32"
        },
        {
          "name": "_name",
          "type": "string"
        }
      ],
      "outputs": []
    },
    {
      "stateMutability": "nonpayable",
      "type": "function",
      "name": "deploy_child_gauge",
      "inputs": [
        {
          "name": "_chain_id",
          "type": "uint256"
        },
        {
          "name": "_lp_token",
          "type": "address"
        },
        {
          "name": "_salt",
          "type": "bytes32"
        },
        {
          "name": "_name",
          "type": "string"
        },
        {
          "name": "_manager",
          "type": "address"
        }
      ],
      "outputs": []
    },
    {
      "stateMutability": "nonpayable",
      "type": "function",
      "name": "set_bridger",
      "inputs": [
        {
          "name": "_chain_id",
          "type": "uint256"
        },
        {
          "name": "_bridger",
          "type": "address"
        }
      ],
      "outputs": []
    },
    {
      "stateMutability": "nonpayable",
      "type": "function",
      "name": "set_implementation",
      "inputs": [
        {
          "name": "_implementation",
          "type": "address"
        }
      ],
      "outputs": []
    },
    {
      "stateMutability": "nonpayable",
      "type": "function",
      "name": "set_call_proxy",
      "inputs": [
        {
          "name": "_new_call_proxy",
          "type": "address"
        }
      ],
      "outputs": []
    },
    {
      "stateMutability": "nonpayable",
      "type": "function",
      "name": "commit_transfer_ownership",
      "inputs": [
        {
          "name": "_future_owner",
          "type": "address"
        }
      ],
      "outputs": []
    },
    {
      "stateMutability": "nonpayable",
      "type": "function",
      "name": "accept_transfer_ownership",
      "inputs": [],
      "outputs": []
    },
    {
      "stateMutability": "view",
      "type": "function",
      "name": "call_proxy",
      "inputs": [],
      "outputs": [
        {
          "name": "",
          "type": "address"
        }
      ]
    },
    {
      "stateMutability": "view",
      "type": "function",
      "name": "get_bridger",
      "inputs": [
        {
          "name": "arg0",
          "type": "uint256"
        }
      ],
      "outputs": [
        {
          "name": "",
          "type": "address"
        }
      ]
    },
    {
      "stateMutability": "view",
      "type": "function",
      "name": "get_implementation",
      "inputs": [],
      "outputs": [
        {
          "name": "",
          "type": "address"
        }
      ]
    },
    {
      "stateMutability": "view",
      "type": "function",
      "name": "get_gauge",
      "inputs": [
        {
          "name": "arg0",
          "type": "uint256"
        },
        {
          "name": "arg1",
          "type": "uint256"
        }
      ],
      "outputs": [
        {
          "name": "",
          "type": "address"
        }
      ]
    },
    {
      "stateMutability": "view",
      "type": "function",
      "name": "get_gauge_count",
      "inputs": [
        {
          "name": "arg0",
          "type": "uint256"
        }
      ],
      "outputs": [
        {
          "name": "",
          "type": "uint256"
        }
      ]
    },
    {
      "stateMutability": "view",
      "type": "function",
      "name": "is_valid_gauge",
      "inputs": [
        {
          "name": "arg0",
          "type": "address"
        }
      ],
      "outputs": [
        {
          "name": "",
          "type": "bool"
        }
      ]
    },
    {
      "stateMutability": "view",
      "type": "function",
      "name": "owner",
      "inputs": [],
      "outputs": [
        {
          "name": "",
          "type": "address"
        }
      ]
    },
    {
      "stateMutability": "view",
      "type": "function",
      "name": "future_owner",
      "inputs": [],
      "outputs": [
        {
          "name": "",
          "type": "address"
        }
      ]
    }
  ],
  "transactionHash": "0x2bc9534ccfb35db66dd1e4c89503cbabe3fde6923862c64bf19735d1d54e88db",
  "args": [
    "0x0000000000000000000000000000000000000000",
    "0x5BDb37d0Ddea3A90F233c7B7F6b9394B6b2eef34"
  ],
  "numDeployments": 1,
  "bytecode": "0x60206109266080396080518060a01c6109215760e05260206020610926016080396080518060a01c610921576101005260e0516000557fe385116766307e81d4427b03f1ac50c300b2f6a5df7b3c67eeb7eaaab12f080560006101205260e051610140526040610120a1610100516006557f5c486528ec3e3f0ea91181cff8116f02bfa350e03b8b6f12e00765adbb5af85c60006101205261010051610140526040610120a161090956600436101561000d57610854565b60046000601c376000516372a733fc81186102ea57604435600401602081351161085a57808035602001808260e037505050600160043560a0526080526040608020546101205260006101205114156100d7576016610140527f636861696e206964206e6f7420737570706f72746564000000000000000000006101605261014050610140518061016001818260206001820306601f82010390500336823750506308c379a0610100526020610120526101405160206001820306601f820103905060440161011cfd5b600254610140527f602d3d8160093d39f3363d3d373d3d3d363d7300000000000000000000000000610280526101405160601b610293527f5af43d82803e903d91602b57fd5bf300000000000000000000000000000000006102a75260043561022052336102405260243561026052606061020052610200805160208201209050603661028034f561016052600460043560a05260805260406080205461018052610160516001610180517fffffffffffffffffffffffffffffffffffffffffffffffffffffffffffffffff81101561085a5702600360043560a05260805260406080200155610180516001818183011061085a5780820190509050600460043560a052608052604060802055600160056101605160a0526080526040608020556381d609566101a0526101c080606061012051825260208201915060043582526020820191508082528083018060e080516020018083828460045afa905050508051806020830101818260206001820306601f8201039050033682375050805160200160206001820306601f820103905090509050810150505050610160513b1561085a576000600060a46101bc6000610160515af161029d573d600060003e3d6000fd5b33600435610140517fba28410b4fffd5fd249e330e29cf9634734b5fbee13030072e5d27f5620c6f546024356101a052610160516101c05260406101a0a4610160516101a05260206101a0f35b3461085a576311bfb95681186103aa576004358060a01c61085a5760e05263c23697a86101405233610160526020610140602461015c634d47fc85610100526020610100600461011c60e0515afa610347573d600060003e3d6000fd5b601f3d111561085a57610100515afa610365573d600060003e3d6000fd5b601f3d111561085a57610140511561085a57630c33d05a6101005260e0513b1561085a5760006000600461011c600060e0515af16103a8573d600060003e3d6000fd5b005b63545835fc81186103bf5733610140526103da565b633925b5b18118610572576084358060a01c61085a57610140525b6024358060a01c61085a5760e052606435600401602081351161085a57808035602001808261010037505050600160043560a052608052604060802054610160526000610160511461085a5763bd45c4e7610280526102a08060a0308252602082019150808252634f1604706101845260046101a480608060e051825260208201915060443582526020820191508082528083018061010080516020018083828460045afa905050508051806020830101818260206001820306601f8201039050033682375050805160200160206001820306601f82010390509050905081019050602082019150610140518252905090500161018052610180818401808280516020018083828460045afa905050508051806020830101818260206001820306601f8201039050033682375050805160200160206001820306601f820103905090509050905081019050602082019150600082526020820191506004358252602082019150600082525050506000543b1561085a57600060006101a461029c60006000545af1610570573d600060003e3d6000fd5b005b631fffa50181186105f0576024358060a01c61085a5760e052600654331861085a576004357f6a04348f9e0d332969d9565b704002af228aa36cd8ed4a60f95343c0cc89400d600160043560a0526080526040608020546101005260e051610120526040610100a260e051600160043560a052608052604060802055005b634cd69da0811861064f576004358060a01c61085a5760e052600654331861085a577fcdfeee65e4d0a88d6e47c5d034c34b03d52f1e6ffc56906257fc93d993ca04c46002546101005260e051610120526040610100a160e051600255005b635ecb9e1481186106ae576004358060a01c61085a5760e052600654331861085a577fe385116766307e81d4427b03f1ac50c300b2f6a5df7b3c67eeb7eaaab12f08056000546101005260e051610120526040610100a160e051600055005b636b441a4081186106d8576004358060a01c61085a5760e052600654331861085a5760e051600755005b63e5ea47b8811861072357600754331861085a577f5c486528ec3e3f0ea91181cff8116f02bfa350e03b8b6f12e00765adbb5af85c60065460e0523361010052604060e0a133600655005b63f81c6c3e811861073a5760005460e052602060e0f35b63087ca57f811861075f57600160043560a05260805260406080205460e052602060e0f35b63c781c66881186107765760025460e052602060e0f35b63f5de124881186107ca5760016024357fffffffffffffffffffffffffffffffffffffffffffffffffffffffffffffffff81101561085a5702600360043560a0526080526040608020015460e052602060e0f35b6338f3121481186107ef57600460043560a05260805260406080205460e052602060e0f35b634b9203798118610824576004358060a01c61085a5760e052600560e05160a052608052604060802054610100526020610100f35b638da5cb5b811861083b5760065460e052602060e0f35b631ec0cdc181186108525760075460e052602060e0f35b505b60006000fd5b600080fd5b6100aa610909036100aa6000396100aa610909036000f35b600080fd"
}