{
  "address": "0x450441d90715c79870f48105c2ea445110E2F509",
  "abi": [
    {
      "inputs": [
        {
          "internalType": "address",
          "name": "_factory",
          "type": "address"
        },
        {
          "internalType": "address",
          "name": "_ve",
          "type": "address"
        },
        {
          "internalType": "address",
          "name": "_callProxy",
          "type": "address"
        }
      ],
      "stateMutability": "nonpayable",
      "type": "constructor"
    },
    {
      "anonymous": false,
      "inputs": [
        {
          "indexed": false,
          "internalType": "address",
          "name": "oldOwner",
          "type": "address"
        },
        {
          "indexed": false,
          "internalType": "address",
          "name": "newOwner",
          "type": "address"
        }
      ],
      "name": "TransferOwnership",
      "type": "event"
    },
    {
      "anonymous": false,
      "inputs": [
        {
          "indexed": false,
          "internalType": "address",
          "name": "oldCallProxy",
          "type": "address"
        },
        {
          "indexed": false,
          "internalType": "address",
          "name": "newCallProxy",
          "type": "address"
        }
      ],
      "name": "UpdateCallProxy",
      "type": "event"
    },
    {
      "inputs": [],
      "name": "FACTORY",
      "outputs": [
        {
          "internalType": "address",
          "name": "",
          "type": "address"
        }
      ],
      "stateMutability": "view",
      "type": "function"
    },
    {
      "inputs": [],
      "name": "VE",
      "outputs": [
        {
          "internalType": "address",
          "name": "",
          "type": "address"
        }
      ],
      "stateMutability": "view",
      "type": "function"
    },
    {
      "inputs": [],
      "name": "acceptTransferOwnership",
      "outputs": [],
      "stateMutability": "nonpayable",
      "type": "function"
    },
    {
      "inputs": [],
      "name": "callProxy",
      "outputs": [
        {
          "internalType": "address",
          "name": "",
          "type": "address"
        }
      ],
      "stateMutability": "view",
      "type": "function"
    },
    {
      "inputs": [
        {
          "internalType": "address",
          "name": "_futureOwner",
          "type": "address"
        }
      ],
      "name": "commitTransferOwnership",
      "outputs": [],
      "stateMutability": "nonpayable",
      "type": "function"
    },
    {
      "inputs": [],
      "name": "futureOwner",
      "outputs": [
        {
          "internalType": "address",
          "name": "",
          "type": "address"
        }
      ],
      "stateMutability": "view",
      "type": "function"
    },
    {
      "inputs": [],
      "name": "owner",
      "outputs": [
        {
          "internalType": "address",
          "name": "",
          "type": "address"
        }
      ],
      "stateMutability": "view",
      "type": "function"
    },
    {
      "inputs": [
        {
          "internalType": "uint256",
          "name": "_chainId",
          "type": "uint256"
        }
      ],
      "name": "push",
      "outputs": [],
      "stateMutability": "nonpayable",
      "type": "function"
    },
    {
      "inputs": [
        {
          "internalType": "uint256",
          "name": "_chainId",
          "type": "uint256"
        },
        {
          "internalType": "address",
          "name": "_user",
          "type": "address"
        }
      ],
      "name": "push",
      "outputs": [],
      "stateMutability": "nonpayable",
      "type": "function"
    },
    {
      "inputs": [
        {
          "internalType": "address",
          "name": "_newCallProxy",
          "type": "address"
        }
      ],
      "name": "setCallProxy",
      "outputs": [],
      "stateMutability": "nonpayable",
      "type": "function"
    }
  ],
  "transactionHash": "0x86a180216ff66b2632dec114a3e5e13c4dab3bfebe29887ccfe359b05f0551da",
  "args": [
    "0x19a5Ec09eE74f64573ac53f48A48616CE943C047",
    "0xD2751CdBED54B87777E805be36670D7aeAe73bb2",
    "0x31a68C551dB6BaaA0F4ee96443706C7B663bFe5d"
  ],
  "numDeployments": 1,
  "solcInputHash": "38ac894988ebf4d6035a93b121cacae1",
  "bytecode": "0x60c060405234801561001057600080fd5b50604051610ef0380380610ef083398101604081905261002f91610107565b6001600160a01b0383811660805282811660a052600080546001600160a01b03191691831691821781556040805191825260208201929092527fe385116766307e81d4427b03f1ac50c300b2f6a5df7b3c67eeb7eaaab12f0805910160405180910390a1600180546001600160a01b03191633908117909155604080516000815260208101929092527f5c486528ec3e3f0ea91181cff8116f02bfa350e03b8b6f12e00765adbb5af85c910160405180910390a150505061014a565b80516001600160a01b038116811461010257600080fd5b919050565b60008060006060848603121561011c57600080fd5b610125846100eb565b9250610133602085016100eb565b9150610141604085016100eb565b90509250925092565b60805160a051610d57610199600039600081816101bb0152818161052a01528181610646015281816107550152610791015260008181610126015281816103fc01526109f00152610d576000f3fe608060405234801561001057600080fd5b50600436106100be5760003560e01c8063959ac48411610076578063c80fbe4e1161005b578063c80fbe4e146101a3578063c863657d146101b6578063e1cebf0b146101dd57600080fd5b8063959ac48414610170578063b9e9d1aa1461018357600080fd5b80632dd31000116100a75780632dd31000146101215780637b371107146101485780638da5cb5b1461015057600080fd5b80632b0d0a8b146100c35780632da688ac146100d8575b600080fd5b6100d66100d1366004610aaf565b6101f0565b005b6000546100f89073ffffffffffffffffffffffffffffffffffffffff1681565b60405173ffffffffffffffffffffffffffffffffffffffff909116815260200160405180910390f35b6100f87f000000000000000000000000000000000000000000000000000000000000000081565b6100d6610311565b6001546100f89073ffffffffffffffffffffffffffffffffffffffff1681565b6100d661017e366004610ad3565b6103b3565b6002546100f89073ffffffffffffffffffffffffffffffffffffffff1681565b6100d66101b1366004610aec565b6109a9565b6100f87f000000000000000000000000000000000000000000000000000000000000000081565b6100d66101eb366004610aaf565b610a1f565b60015473ffffffffffffffffffffffffffffffffffffffff163314610276576040517f08c379a000000000000000000000000000000000000000000000000000000000815260206004820152600960248201527f6e6f74206f776e6572000000000000000000000000000000000000000000000060448201526064015b60405180910390fd5b6000546040805173ffffffffffffffffffffffffffffffffffffffff928316815291831660208301527fe385116766307e81d4427b03f1ac50c300b2f6a5df7b3c67eeb7eaaab12f0805910160405180910390a1600080547fffffffffffffffffffffffff00000000000000000000000000000000000000001673ffffffffffffffffffffffffffffffffffffffff92909216919091179055565b60025473ffffffffffffffffffffffffffffffffffffffff16331461033557600080fd5b6001546040805173ffffffffffffffffffffffffffffffffffffffff90921682523360208301527f5c486528ec3e3f0ea91181cff8116f02bfa350e03b8b6f12e00765adbb5af85c910160405180910390a1600180547fffffffffffffffffffffffff00000000000000000000000000000000000000001633179055565b6040517f087ca57f00000000000000000000000000000000000000000000000000000000815260048101829052339060009073ffffffffffffffffffffffffffffffffffffffff7f0000000000000000000000000000000000000000000000000000000000000000169063087ca57f906024015b602060405180830381865afa158015610444573d6000803e3d6000fd5b505050506040513d601f19601f820116820180604052508101906104689190610b1c565b73ffffffffffffffffffffffffffffffffffffffff16036104e5576040517f08c379a000000000000000000000000000000000000000000000000000000000815260206004820152601160248201527f42726964676572206e6f7420666f756e64000000000000000000000000000000604482015260640161026d565b6040517f70a0823100000000000000000000000000000000000000000000000000000000815273ffffffffffffffffffffffffffffffffffffffff82811660048301527f000000000000000000000000000000000000000000000000000000000000000016906370a0823190602401602060405180830381865afa158015610571573d6000803e3d6000fd5b505050506040513d601f19601f820116820180604052508101906105959190610b39565b6000036105fe576040517f08c379a000000000000000000000000000000000000000000000000000000000815260206004820152600d60248201527f4e6f2076652062616c616e636500000000000000000000000000000000000000604482015260640161026d565b6040517f010ae75700000000000000000000000000000000000000000000000000000000815273ffffffffffffffffffffffffffffffffffffffff82811660048301526000917f0000000000000000000000000000000000000000000000000000000000000000909116906328d09d47908490839063010ae75790602401602060405180830381865afa158015610699573d6000803e3d6000fd5b505050506040513d601f19601f820116820180604052508101906106bd9190610b39565b6040517fffffffff0000000000000000000000000000000000000000000000000000000060e085901b16815273ffffffffffffffffffffffffffffffffffffffff90921660048301526024820152604401606060405180830381865afa15801561072b573d6000803e3d6000fd5b505050506040513d601f19601f8201168201806040525081019061074f9190610b69565b905060007f000000000000000000000000000000000000000000000000000000000000000073ffffffffffffffffffffffffffffffffffffffff1663d1febfb97f000000000000000000000000000000000000000000000000000000000000000073ffffffffffffffffffffffffffffffffffffffff1663900cf0cf6040518163ffffffff1660e01b8152600401602060405180830381865afa1580156107fa573d6000803e3d6000fd5b505050506040513d601f19601f8201168201806040525081019061081e9190610b39565b6040518263ffffffff1660e01b815260040161083c91815260200190565b606060405180830381865afa158015610859573d6000803e3d6000fd5b505050506040513d601f19601f8201168201806040525081019061087d9190610b69565b60005460405191925073ffffffffffffffffffffffffffffffffffffffff169063bd45c4e79030907fab9923f39ee0038d64d2f003c5a186b3d0484765579dd8028fa16db2c4616943906108d990879087908a90602401610bf8565b604080517fffffffffffffffffffffffffffffffffffffffffffffffffffffffffffffffe08184030181529181526020820180517bffffffffffffffffffffffffffffffffffffffffffffffffffffffff167fffffffff000000000000000000000000000000000000000000000000000000009485161790525160e085901b909216825261097192916000908a908290600401610c69565b600060405180830381600087803b15801561098b57600080fd5b505af115801561099f573d6000803e3d6000fd5b5050505050505050565b6040517f087ca57f0000000000000000000000000000000000000000000000000000000081526004810183905260009073ffffffffffffffffffffffffffffffffffffffff7f0000000000000000000000000000000000000000000000000000000000000000169063087ca57f90602401610427565b60015473ffffffffffffffffffffffffffffffffffffffff163314610a4357600080fd5b600280547fffffffffffffffffffffffff00000000000000000000000000000000000000001673ffffffffffffffffffffffffffffffffffffffff92909216919091179055565b73ffffffffffffffffffffffffffffffffffffffff81168114610aac57600080fd5b50565b600060208284031215610ac157600080fd5b8135610acc81610a8a565b9392505050565b600060208284031215610ae557600080fd5b5035919050565b60008060408385031215610aff57600080fd5b823591506020830135610b1181610a8a565b809150509250929050565b600060208284031215610b2e57600080fd5b8151610acc81610a8a565b600060208284031215610b4b57600080fd5b5051919050565b8051600f81900b8114610b6457600080fd5b919050565b600060608284031215610b7b57600080fd5b6040516060810181811067ffffffffffffffff82111715610bc5577f4e487b7100000000000000000000000000000000000000000000000000000000600052604160045260246000fd5b604052610bd183610b52565b8152610bdf60208401610b52565b6020820152604083015160408201528091505092915050565b60e08101610c2382868051600f0b82526020810151600f0b6020830152604081015160408301525050565b8351600f90810b60608401526020850151900b6080830152604084015160a083015273ffffffffffffffffffffffffffffffffffffffff831660c0830152949350505050565b73ffffffffffffffffffffffffffffffffffffffff861681526000602060a08184015286518060a085015260005b81811015610cb35788810183015185820160c001528201610c97565b50600060c0828601015260c07fffffffffffffffffffffffffffffffffffffffffffffffffffffffffffffffe0601f83011685010192505050610d0e604083018673ffffffffffffffffffffffffffffffffffffffff169052565b606082019390935260800152939250505056fea2646970667358221220aab146b9138856e9d6a7ab23909437b9243016c2f53cff8de6d4aee608e7784d64736f6c63430008110033",
  "devdoc": {
    "events": {
      "TransferOwnership(address,address)": {
        "params": {
          "newOwner": "New owner of the contract",
          "oldOwner": "Previous owner of the contract"
        }
      },
      "UpdateCallProxy(address,address)": {
        "params": {
          "newCallProxy": "New call proxy address",
          "oldCallProxy": "Previous call proxy address"
        }
      }
    },
    "kind": "dev",
    "methods": {
      "acceptTransferOwnership()": {
        "details": "This can only be called by the future owner of the contract"
      },
      "commitTransferOwnership(address)": {
        "details": "This can only be called by the owner of the contract",
        "params": {
          "_futureOwner": "Address of the new owner"
        }
      },
      "constructor": {
        "params": {
          "_callProxy": "CallProxy contract address. This should be set to AnyCallTranslator.",
          "_factory": "RootGaugeFactory contract address",
          "_ve": "VotingEscrow contract address"
        }
      },
      "push(uint256)": {
        "details": "This will be reverted if caller doesn't have any veSDL balance",
        "params": {
          "_chainId": "Chain ID of the child chain to push the data"
        }
      },
      "push(uint256,address)": {
        "details": "This will be reverted if user doesn't have any veSDL balance",
        "params": {
          "_chainId": "Chain ID of the child chain to push the data",
          "_user": "Address of the account to push the data for"
        }
      },
      "setCallProxy(address)": {
        "details": "This can only be called by the owner of the contract",
        "params": {
          "_newCallProxy": "Address of the new call proxy"
        }
      }
    },
    "title": "Root Oracle contract",
    "version": 1
  },
  "userdoc": {
    "events": {
      "TransferOwnership(address,address)": {
        "notice": "Emitted when ownership is transferred"
      },
      "UpdateCallProxy(address,address)": {
        "notice": "Emitted when call proxy address is updated"
      }
    },
    "kind": "user",
    "methods": {
      "acceptTransferOwnership()": {
        "notice": "Accept the ownership of the contract"
      },
      "commitTransferOwnership(address)": {
        "notice": "Commit to transfer of the ownership of the contract"
      },
      "constructor": {
        "notice": "Constructor for RootOracle contract"
      },
      "push(uint256)": {
        "notice": "Push the veSDL data of the caller to the child chain"
      },
      "push(uint256,address)": {
        "notice": "Push the veSDL data of an account to the child chain"
      },
      "setCallProxy(address)": {
        "notice": "Set the call proxy address"
      }
    },
    "notice": "RootOracle contract is responsible for reading veSDL data from this chain and sending it to the child chains",
    "version": 1
  },
  "storageLayout": {
    "storage": [
      {
        "astId": 10280,
        "contract": "contracts/xchainGauges/oracles/RootOracle.sol:RootOracle",
        "label": "callProxy",
        "offset": 0,
        "slot": "0",
        "type": "t_address"
      },
      {
        "astId": 10282,
        "contract": "contracts/xchainGauges/oracles/RootOracle.sol:RootOracle",
        "label": "owner",
        "offset": 0,
        "slot": "1",
        "type": "t_address"
      },
      {
        "astId": 10284,
        "contract": "contracts/xchainGauges/oracles/RootOracle.sol:RootOracle",
        "label": "futureOwner",
        "offset": 0,
        "slot": "2",
        "type": "t_address"
      }
    ],
    "types": {
      "t_address": {
        "encoding": "inplace",
        "label": "address",
        "numberOfBytes": "20"
      }
    }
  }
}