{
  "address": "0xf54D5E38F6F1370BC073ea832526B1D63317a32e",
  "abi": [
    {
      "stateMutability": "nonpayable",
      "type": "constructor",
      "inputs": [
        {
          "name": "_sdl_token",
          "type": "address"
        },
        {
          "name": "_gauge_controller",
          "type": "address"
        },
        {
          "name": "_minter",
          "type": "address"
        }
      ],
      "outputs": []
    },
    {
      "stateMutability": "payable",
      "type": "fallback"
    },
    {
      "stateMutability": "nonpayable",
      "type": "function",
      "name": "transmit_emissions",
      "inputs": [],
      "outputs": []
    },
    {
      "stateMutability": "view",
      "type": "function",
      "name": "integrate_fraction",
      "inputs": [
        {
          "name": "_user",
          "type": "address"
        }
      ],
      "outputs": [
        {
          "name": "",
          "type": "uint256"
        }
      ]
    },
    {
      "stateMutability": "nonpayable",
      "type": "function",
      "name": "user_checkpoint",
      "inputs": [
        {
          "name": "_user",
          "type": "address"
        }
      ],
      "outputs": [
        {
          "name": "",
          "type": "bool"
        }
      ]
    },
    {
      "stateMutability": "nonpayable",
      "type": "function",
      "name": "set_killed",
      "inputs": [
        {
          "name": "_is_killed",
          "type": "bool"
        }
      ],
      "outputs": []
    },
    {
      "stateMutability": "nonpayable",
      "type": "function",
      "name": "update_bridger",
      "inputs": [],
      "outputs": []
    },
    {
      "stateMutability": "nonpayable",
      "type": "function",
      "name": "initialize",
      "inputs": [
        {
          "name": "_bridger",
          "type": "address"
        },
        {
          "name": "_chain_id",
          "type": "uint256"
        },
        {
          "name": "_name",
          "type": "string"
        }
      ],
      "outputs": []
    },
    {
      "stateMutability": "view",
      "type": "function",
      "name": "chain_id",
      "inputs": [],
      "outputs": [
        {
          "name": "",
          "type": "uint256"
        }
      ]
    },
    {
      "stateMutability": "view",
      "type": "function",
      "name": "bridger",
      "inputs": [],
      "outputs": [
        {
          "name": "",
          "type": "address"
        }
      ]
    },
    {
      "stateMutability": "view",
      "type": "function",
      "name": "factory",
      "inputs": [],
      "outputs": [
        {
          "name": "",
          "type": "address"
        }
      ]
    },
    {
      "stateMutability": "view",
      "type": "function",
      "name": "name",
      "inputs": [],
      "outputs": [
        {
          "name": "",
          "type": "string"
        }
      ]
    },
    {
      "stateMutability": "view",
      "type": "function",
      "name": "inflation_params",
      "inputs": [],
      "outputs": [
        {
          "name": "",
          "type": "tuple",
          "components": [
            {
              "name": "rate",
              "type": "uint256"
            },
            {
              "name": "finish_time",
              "type": "uint256"
            }
          ]
        }
      ]
    },
    {
      "stateMutability": "view",
      "type": "function",
      "name": "last_period",
      "inputs": [],
      "outputs": [
        {
          "name": "",
          "type": "uint256"
        }
      ]
    },
    {
      "stateMutability": "view",
      "type": "function",
      "name": "total_emissions",
      "inputs": [],
      "outputs": [
        {
          "name": "",
          "type": "uint256"
        }
      ]
    },
    {
      "stateMutability": "view",
      "type": "function",
      "name": "is_killed",
      "inputs": [],
      "outputs": [
        {
          "name": "",
          "type": "bool"
        }
      ]
    }
  ],
  "transactionHash": "0xa9721e02d64eec415485334aa5cd801eab62113ee807905b1c4e693d06a2f8ff",
  "args": [
    "0xf1Dc500FdE233A4055e25e5BbF516372BC4F6871",
    "0x99Cb6c36816dE2131eF2626bb5dEF7E5cc8b9B14",
    "0x358fE82370a1B9aDaE2E3ad69D6cF9e503c96018"
  ],
  "numDeployments": 1,
  "bytecode": "0x6020610d3a6080396080518060a01c610d355760e05260206020610d3a016080396080518060a01c610d35576101005260206040610d3a016080396080518060a01c610d35576101205261dead60025560e0516101405261010051610160526101205161018052610cf956600436101561000d57610c87565b60046000601c37600051630c33d05a81186101505734610c89576002543318610c8957636a62784260e05230610100526020602038036080396080513b15610c895760006000602460fc60006020602038036080396080515af1610076573d600060003e3d6000fd5b6370a082316101005230610120526020610100602461011c6020606038036080396080515afa6100ab573d600060003e3d6000fd5b601f3d1115610c89576101005160e052600060e05114610c89576001546101005263871217596101605260206060380360803960805161018052306101a05260e0516101c052610100513b15610c895760006000606461017c6313faede6610120526020610120600461013c610100515afa61012c573d600060003e3d6000fd5b601f3d1115610c895761012051610100515af161014e573d600060003e3d6000fd5b005b63094007078118610196576004358060a01c610c895760e05234610c89573060e0511861018857600954610100526020610100610194565b60006101005260206101005bf35b634b8200938118610574576004358060a01c610c895760e05234610c8957600854610100524262093a8080820490509050610120526101205161010051146105675763615e52376101405230610160526020604038036080396080513b15610c895760006000602461015c60006020604038036080396080515af1610220573d600060003e3d6000fd5b632c4e722e610160526020610160600461017c6020602038036080396080515afa610250573d600060003e3d6000fd5b601f3d1115610c8957610160516101405261014051600655600654610160526007546101805260006101a0526101c061010051610100818352015b610120516101c0511861029d57610542565b6101c05162093a80808202821582848304141715610c8957905090506101e05263d3078c946102205230610240526101e051610260526020610220604461023c6020604038036080396080515afa6102fa573d600060003e3d6000fd5b601f3d1115610c89576102205161020052610180516101e051111561032057600061033e565b6101e05162093a808181830110610c89578082019050905061018051105b6103a3576101a080516102005161016051808202821582848304141715610c89579050905062093a80808202821582848304141715610c895790509050670de0b6b3a7640000808204905090508181830110610c895780820190509050815250610532565b6101a080516102005161016051808202821582848304141715610c895790509050610180516101e051808210610c895780820390509050808202821582848304141715610c895790509050670de0b6b3a7640000808204905090508181830110610c8957808201905090508152506323c1bad2610220526020610220600461023c6020602038036080396080515afa610441573d600060003e3d6000fd5b601f3d1115610c895761022051610160527fffffffffffffffffffffffffffffffffffffffffffffffffffffffffffffffff61016051186104855761014051610160525b6101a080516102005161016051808202821582848304141715610c8957905090506101e05162093a808181830110610c89578082019050905061018051808210610c895780820390509050808202821582848304141715610c895790509050670de0b6b3a7640000808204905090508181830110610c8957808201905090508152506101808051621275008181830110610c89578082019050905081525061016051600655610180516007555b815160010180835281141561028b575b505061012051600855600980546101a0518181830110610c8957808201905090508155505b6001610140526020610140f35b6390b229978118610675576004358060011c610c895760e05234610c8957638da5cb5b610100526020610100600461011c6002545afa6105b9573d600060003e3d6000fd5b601f3d1115610c8957610100513318610c895760e05161066757632c4e722e610100526020610100600461011c6020602038036080396080515afa610603573d600060003e3d6000fd5b601f3d1115610c89576101005160065563b26b238e610140526020610140600461015c6020602038036080396080515afa610643573d600060003e3d6000fd5b601f3d1115610c8957610140516007554262093a808082049050905060085561066d565b60006006555b60e051600a55005b633ccc3da781186107925734610c895763087ca57f61010052600054610120526020610100602461011c6002545afa6106b3573d600060003e3d6000fd5b601f3d1115610c8957610100518060a01c610c895760e05263095ea7b361010052600154610120526000610140526020606038036080396080513b15610c895760006000604461011c60006020606038036080396080515af161071b573d600060003e3d6000fd5b63095ea7b36101005260e051610120527fffffffffffffffffffffffffffffffffffffffffffffffffffffffffffffffff610140526020606038036080396080513b15610c895760006000604461011c60006020606038036080396080515af161078a573d600060003e3d6000fd5b60e051600155005b6381d609568118610b12576004358060a01c610c895760e0526044356004016020813511610c895780803560200180826101003750505034610c89576002541561084d576013610140527f616c726561647920696e697469616c697a6564000000000000000000000000006101605261014050610140518061016001818260206001820306601f82010390500336823750506308c379a0610100526020610120526101405160206001820306601f820103905060440161011cfd5b60243560005560e051600155600060076101a0527f536164646c6520000000000000000000000000000000000000000000000000006101c0526101a06007806020846102200101826020850160045afa5050805182019150506101006020806020846102200101826020850160045afa505080518201915050600b6101e0527f20526f6f74204761756765000000000000000000000000000000000000000000610200526101e0600b806020846102200101826020850160045afa50508051820191505080610220526102209050805160200180610140828460045afa90505050610140806003602082510160c060006003818352015b8260c051602002111561095657610975565b60c05160200285015160c0518501558151600101808352811415610944575b50505050505033600255632c4e722e6101e05260206101e060046101fc6020602038036080396080515afa6109af573d600060003e3d6000fd5b601f3d1115610c89576101e0516101a05263b26b238e610220526020610220600461023c6020602038036080396080515afa6109f0573d600060003e3d6000fd5b601f3d1115610c8957610220516101c05260006101a0511415610a845760136101e0527f696e666c6174696f6e2072617465206973203000000000000000000000000000610200526101e0506101e0518061020001818260206001820306601f82010390500336823750506308c379a06101a05260206101c0526101e05160206001820306601f82010390506044016101bcfd5b6101a0516006556101c0516007554262093a808082049050905060085563095ea7b36101e05260e051610200527fffffffffffffffffffffffffffffffffffffffffffffffffffffffffffffffff610220526020606038036080396080513b15610c89576000600060446101fc60006020606038036080396080515af1610b10573d600060003e3d6000fd5b005b633af973b18118610b2e5734610c895760005460e052602060e0f35b634d47fc858118610b4a5734610c895760015460e052602060e0f35b63c45a01558118610b665734610c895760025460e052602060e0f35b6306fdde038118610c0e5734610c895760e08060208082528083018060038082602082540160c060006003818352015b8260c0516020021115610ba857610bc7565b60c05185015460c0516020028501528151600101808352811415610b96575b5050505050508051806020830101818260206001820306601f8201039050033682375050805160200160206001820306601f820103905090509050810190509050905060e0f35b6378de221b8118610c315734610c895760065460e05260075461010052604060e0f35b636f471ed18118610c4d5734610c895760085460e052602060e0f35b63df664d978118610c695734610c895760095460e052602060e0f35b639c868ac08118610c855734610c8957600a5460e052602060e0f35b505b005b600080fd5b61006b610cf90361006b6101a03961006b610cf90361014051816101a0015261016051816101c0015261018051816101e00152806060016101a0f35b600080fd"
}