{
  "address": "0x7Da932ceA0Da8153d928247350be5d3328eD72a9",
  "abi": [
    {
      "stateMutability": "nonpayable",
      "type": "constructor",
      "inputs": [
        {
          "name": "_sdl_token",
          "type": "address"
        },
        {
          "name": "_gauge_controller",
          "type": "address"
        },
        {
          "name": "_minter",
          "type": "address"
        }
      ],
      "outputs": []
    },
    {
      "stateMutability": "payable",
      "type": "fallback"
    },
    {
      "stateMutability": "nonpayable",
      "type": "function",
      "name": "transmit_emissions",
      "inputs": [],
      "outputs": []
    },
    {
      "stateMutability": "view",
      "type": "function",
      "name": "integrate_fraction",
      "inputs": [
        {
          "name": "_user",
          "type": "address"
        }
      ],
      "outputs": [
        {
          "name": "",
          "type": "uint256"
        }
      ]
    },
    {
      "stateMutability": "nonpayable",
      "type": "function",
      "name": "user_checkpoint",
      "inputs": [
        {
          "name": "_user",
          "type": "address"
        }
      ],
      "outputs": [
        {
          "name": "",
          "type": "bool"
        }
      ]
    },
    {
      "stateMutability": "nonpayable",
      "type": "function",
      "name": "set_killed",
      "inputs": [
        {
          "name": "_is_killed",
          "type": "bool"
        }
      ],
      "outputs": []
    },
    {
      "stateMutability": "nonpayable",
      "type": "function",
      "name": "update_bridger",
      "inputs": [],
      "outputs": []
    },
    {
      "stateMutability": "nonpayable",
      "type": "function",
      "name": "initialize",
      "inputs": [
        {
          "name": "_bridger",
          "type": "address"
        },
        {
          "name": "_chain_id",
          "type": "uint256"
        },
        {
          "name": "_name",
          "type": "string"
        }
      ],
      "outputs": []
    },
    {
      "stateMutability": "view",
      "type": "function",
      "name": "chain_id",
      "inputs": [],
      "outputs": [
        {
          "name": "",
          "type": "uint256"
        }
      ]
    },
    {
      "stateMutability": "view",
      "type": "function",
      "name": "bridger",
      "inputs": [],
      "outputs": [
        {
          "name": "",
          "type": "address"
        }
      ]
    },
    {
      "stateMutability": "view",
      "type": "function",
      "name": "factory",
      "inputs": [],
      "outputs": [
        {
          "name": "",
          "type": "address"
        }
      ]
    },
    {
      "stateMutability": "view",
      "type": "function",
      "name": "name",
      "inputs": [],
      "outputs": [
        {
          "name": "",
          "type": "string"
        }
      ]
    },
    {
      "stateMutability": "view",
      "type": "function",
      "name": "inflation_params",
      "inputs": [],
      "outputs": [
        {
          "name": "",
          "type": "tuple",
          "components": [
            {
              "name": "rate",
              "type": "uint256"
            },
            {
              "name": "finish_time",
              "type": "uint256"
            }
          ]
        }
      ]
    },
    {
      "stateMutability": "view",
      "type": "function",
      "name": "last_period",
      "inputs": [],
      "outputs": [
        {
          "name": "",
          "type": "uint256"
        }
      ]
    },
    {
      "stateMutability": "view",
      "type": "function",
      "name": "total_emissions",
      "inputs": [],
      "outputs": [
        {
          "name": "",
          "type": "uint256"
        }
      ]
    },
    {
      "stateMutability": "view",
      "type": "function",
      "name": "is_killed",
      "inputs": [],
      "outputs": [
        {
          "name": "",
          "type": "bool"
        }
      ]
    }
  ],
  "transactionHash": "0x0a912a642fab8e2410163fcaa7faecb1a4d5d27493c02ff9b560083b8ee1a08e",
  "args": [
    "0xf1Dc500FdE233A4055e25e5BbF516372BC4F6871",
    "0x99Cb6c36816dE2131eF2626bb5dEF7E5cc8b9B14",
    "0x358fE82370a1B9aDaE2E3ad69D6cF9e503c96018"
  ],
  "numDeployments": 1,
  "bytecode": "0x6020610d626080396080518060a01c610d5d5760e05260206020610d62016080396080518060a01c610d5d576101005260206040610d62016080396080518060a01c610d5d576101205261dead60025560e0516101405261010051610160526101205161018052610d2156600436101561000d57610caf565b60046000601c37600051630c33d05a81186101505734610cb1576002543318610cb157636a62784260e05230610100526020602038036080396080513b15610cb15760006000602460fc60006020602038036080396080515af1610076573d600060003e3d6000fd5b6370a082316101005230610120526020610100602461011c6020606038036080396080515afa6100ab573d600060003e3d6000fd5b601f3d1115610cb1576101005160e052600060e05114610cb1576001546101005263871217596101605260206060380360803960805161018052306101a05260e0516101c052610100513b15610cb15760006000606461017c6313faede6610120526020610120600461013c610100515afa61012c573d600060003e3d6000fd5b601f3d1115610cb15761012051610100515af161014e573d600060003e3d6000fd5b005b63094007078118610196576004358060a01c610cb15760e05234610cb1573060e0511861018857600954610100526020610100610194565b60006101005260206101005bf35b634b8200938118610598576004358060a01c610cb15760e05234610cb157600854610100524262093a80808204905090506101205261012051610100511461058b5763615e52376101405230610160526020604038036080396080513b15610cb15760006000602461015c60006020604038036080396080515af1610220573d600060003e3d6000fd5b600061014052600a5461026f57632c4e722e610160526020610160600461017c6020602038036080396080515afa61025d573d600060003e3d6000fd5b601f3d1115610cb15761016051610140525b61014051600655600654610160526007546101805260006101a0526101c061010051610100818352015b610120516101c051186102ab57610566565b6101c05162093a80808202821582848304141715610cb157905090506101e05263d3078c946102205230610240526101e051610260526020610220604461023c6020604038036080396080515afa610308573d600060003e3d6000fd5b601f3d1115610cb1576102205161020052610180516101e051111561032e57600061034c565b6101e05162093a808181830110610cb1578082019050905061018051105b6103b1576101a080516102005161016051808202821582848304141715610cb1579050905062093a80808202821582848304141715610cb15790509050670de0b6b3a7640000808204905090508181830110610cb15780820190509050815250610556565b6101a080516102005161016051808202821582848304141715610cb15790509050610180516101e051808210610cb15780820390509050808202821582848304141715610cb15790509050670de0b6b3a7640000808204905090508181830110610cb157808201905090508152506001600a541861043457600061016052610476565b6323c1bad2610220526020610220600461023c6020602038036080396080515afa610464573d600060003e3d6000fd5b601f3d1115610cb15761022051610160525b7fffffffffffffffffffffffffffffffffffffffffffffffffffffffffffffffff61016051186104a95761014051610160525b6101a080516102005161016051808202821582848304141715610cb157905090506101e05162093a808181830110610cb1578082019050905061018051808210610cb15780820390509050808202821582848304141715610cb15790509050670de0b6b3a7640000808204905090508181830110610cb157808201905090508152506101808051621275008181830110610cb1578082019050905081525061016051600655610180516007555b8151600101808352811415610299575b505061012051600855600980546101a0518181830110610cb157808201905090508155505b6001610140526020610140f35b6390b22997811861069b576004358060011c610cb15760e05234610cb157638da5cb5b610100526020610100600461011c6002545afa6105dd573d600060003e3d6000fd5b601f3d1115610cb157610100513318610cb15760e05161068d57632c4e722e610100526020610100600461011c6020602038036080396080515afa610627573d600060003e3d6000fd5b601f3d1115610cb1576101005160065563b26b238e610140526020610140600461015c60006020602038036080396080515af1610669573d600060003e3d6000fd5b601f3d1115610cb157610140516007554262093a8080820490509050600855610693565b60006006555b60e051600a55005b633ccc3da781186107b85734610cb15763087ca57f61010052600054610120526020610100602461011c6002545afa6106d9573d600060003e3d6000fd5b601f3d1115610cb157610100518060a01c610cb15760e05263095ea7b361010052600154610120526000610140526020606038036080396080513b15610cb15760006000604461011c60006020606038036080396080515af1610741573d600060003e3d6000fd5b63095ea7b36101005260e051610120527fffffffffffffffffffffffffffffffffffffffffffffffffffffffffffffffff610140526020606038036080396080513b15610cb15760006000604461011c60006020606038036080396080515af16107b0573d600060003e3d6000fd5b60e051600155005b6381d609568118610b3a576004358060a01c610cb15760e0526044356004016020813511610cb15780803560200180826101003750505034610cb15760025415610873576013610140527f616c726561647920696e697469616c697a6564000000000000000000000000006101605261014050610140518061016001818260206001820306601f82010390500336823750506308c379a0610100526020610120526101405160206001820306601f820103905060440161011cfd5b60243560005560e051600155600060076101a0527f536164646c6520000000000000000000000000000000000000000000000000006101c0526101a06007806020846102200101826020850160045afa5050805182019150506101006020806020846102200101826020850160045afa505080518201915050600b6101e0527f20526f6f74204761756765000000000000000000000000000000000000000000610200526101e0600b806020846102200101826020850160045afa50508051820191505080610220526102209050805160200180610140828460045afa90505050610140806003602082510160c060006003818352015b8260c051602002111561097c5761099b565b60c05160200285015160c051850155815160010180835281141561096a575b50505050505033600255632c4e722e6101e05260206101e060046101fc6020602038036080396080515afa6109d5573d600060003e3d6000fd5b601f3d1115610cb1576101e0516101a05263b26b238e610220526020610220600461023c60006020602038036080396080515af1610a18573d600060003e3d6000fd5b601f3d1115610cb157610220516101c05260006101a0511415610aac5760136101e0527f696e666c6174696f6e2072617465206973203000000000000000000000000000610200526101e0506101e0518061020001818260206001820306601f82010390500336823750506308c379a06101a05260206101c0526101e05160206001820306601f82010390506044016101bcfd5b6101a0516006556101c0516007554262093a808082049050905060085563095ea7b36101e05260e051610200527fffffffffffffffffffffffffffffffffffffffffffffffffffffffffffffffff610220526020606038036080396080513b15610cb1576000600060446101fc60006020606038036080396080515af1610b38573d600060003e3d6000fd5b005b633af973b18118610b565734610cb15760005460e052602060e0f35b634d47fc858118610b725734610cb15760015460e052602060e0f35b63c45a01558118610b8e5734610cb15760025460e052602060e0f35b6306fdde038118610c365734610cb15760e08060208082528083018060038082602082540160c060006003818352015b8260c0516020021115610bd057610bef565b60c05185015460c0516020028501528151600101808352811415610bbe575b5050505050508051806020830101818260206001820306601f8201039050033682375050805160200160206001820306601f820103905090509050810190509050905060e0f35b6378de221b8118610c595734610cb15760065460e05260075461010052604060e0f35b636f471ed18118610c755734610cb15760085460e052602060e0f35b63df664d978118610c915734610cb15760095460e052602060e0f35b639c868ac08118610cad5734610cb157600a5460e052602060e0f35b505b005b600080fd5b61006b610d210361006b6101a03961006b610d210361014051816101a0015261016051816101c0015261018051816101e00152806060016101a0f35b600080fd"
}