{
  "address": "0xAbf69CDE7B3725c12B8703005342EB5DD8a95D61",
  "abi": [
    {
      "inputs": [
        {
          "internalType": "uint256[]",
          "name": "amounts",
          "type": "uint256[]"
        },
        {
          "internalType": "uint256",
          "name": "minToMint",
          "type": "uint256"
        },
        {
          "internalType": "uint256",
          "name": "deadline",
          "type": "uint256"
        }
      ],
      "name": "addLiquidity",
      "outputs": [
        {
          "internalType": "uint256",
          "name": "",
          "type": "uint256"
        }
      ],
      "stateMutability": "nonpayable",
      "type": "function"
    },
    {
      "inputs": [],
      "name": "baseSwap",
      "outputs": [
        {
          "internalType": "contract ISwap",
          "name": "",
          "type": "address"
        }
      ],
      "stateMutability": "view",
      "type": "function"
    },
    {
      "inputs": [
        {
          "internalType": "uint256",
          "name": "",
          "type": "uint256"
        }
      ],
      "name": "baseTokens",
      "outputs": [
        {
          "internalType": "contract IERC20",
          "name": "",
          "type": "address"
        }
      ],
      "stateMutability": "view",
      "type": "function"
    },
    {
      "inputs": [
        {
          "internalType": "uint256",
          "name": "amount",
          "type": "uint256"
        }
      ],
      "name": "calculateRemoveLiquidity",
      "outputs": [
        {
          "internalType": "uint256[]",
          "name": "",
          "type": "uint256[]"
        }
      ],
      "stateMutability": "view",
      "type": "function"
    },
    {
      "inputs": [
        {
          "internalType": "uint256",
          "name": "tokenAmount",
          "type": "uint256"
        },
        {
          "internalType": "uint8",
          "name": "tokenIndex",
          "type": "uint8"
        }
      ],
      "name": "calculateRemoveLiquidityOneToken",
      "outputs": [
        {
          "internalType": "uint256",
          "name": "",
          "type": "uint256"
        }
      ],
      "stateMutability": "view",
      "type": "function"
    },
    {
      "inputs": [
        {
          "internalType": "uint8",
          "name": "tokenIndexFrom",
          "type": "uint8"
        },
        {
          "internalType": "uint8",
          "name": "tokenIndexTo",
          "type": "uint8"
        },
        {
          "internalType": "uint256",
          "name": "dx",
          "type": "uint256"
        }
      ],
      "name": "calculateSwap",
      "outputs": [
        {
          "internalType": "uint256",
          "name": "",
          "type": "uint256"
        }
      ],
      "stateMutability": "view",
      "type": "function"
    },
    {
      "inputs": [
        {
          "internalType": "uint256[]",
          "name": "amounts",
          "type": "uint256[]"
        },
        {
          "internalType": "bool",
          "name": "deposit",
          "type": "bool"
        }
      ],
      "name": "calculateTokenAmount",
      "outputs": [
        {
          "internalType": "uint256",
          "name": "",
          "type": "uint256"
        }
      ],
      "stateMutability": "view",
      "type": "function"
    },
    {
      "inputs": [
        {
          "internalType": "uint8",
          "name": "index",
          "type": "uint8"
        }
      ],
      "name": "getToken",
      "outputs": [
        {
          "internalType": "contract IERC20",
          "name": "",
          "type": "address"
        }
      ],
      "stateMutability": "view",
      "type": "function"
    },
    {
      "inputs": [
        {
          "internalType": "contract ISwap",
          "name": "_baseSwap",
          "type": "address"
        },
        {
          "internalType": "contract IMetaSwap",
          "name": "_metaSwap",
          "type": "address"
        },
        {
          "internalType": "contract IERC20",
          "name": "_metaLPToken",
          "type": "address"
        }
      ],
      "name": "initialize",
      "outputs": [],
      "stateMutability": "nonpayable",
      "type": "function"
    },
    {
      "inputs": [],
      "name": "metaLPToken",
      "outputs": [
        {
          "internalType": "contract IERC20",
          "name": "",
          "type": "address"
        }
      ],
      "stateMutability": "view",
      "type": "function"
    },
    {
      "inputs": [],
      "name": "metaSwap",
      "outputs": [
        {
          "internalType": "contract IMetaSwap",
          "name": "",
          "type": "address"
        }
      ],
      "stateMutability": "view",
      "type": "function"
    },
    {
      "inputs": [
        {
          "internalType": "uint256",
          "name": "",
          "type": "uint256"
        }
      ],
      "name": "metaTokens",
      "outputs": [
        {
          "internalType": "contract IERC20",
          "name": "",
          "type": "address"
        }
      ],
      "stateMutability": "view",
      "type": "function"
    },
    {
      "inputs": [
        {
          "internalType": "uint256",
          "name": "amount",
          "type": "uint256"
        },
        {
          "internalType": "uint256[]",
          "name": "minAmounts",
          "type": "uint256[]"
        },
        {
          "internalType": "uint256",
          "name": "deadline",
          "type": "uint256"
        }
      ],
      "name": "removeLiquidity",
      "outputs": [
        {
          "internalType": "uint256[]",
          "name": "",
          "type": "uint256[]"
        }
      ],
      "stateMutability": "nonpayable",
      "type": "function"
    },
    {
      "inputs": [
        {
          "internalType": "uint256[]",
          "name": "amounts",
          "type": "uint256[]"
        },
        {
          "internalType": "uint256",
          "name": "maxBurnAmount",
          "type": "uint256"
        },
        {
          "internalType": "uint256",
          "name": "deadline",
          "type": "uint256"
        }
      ],
      "name": "removeLiquidityImbalance",
      "outputs": [
        {
          "internalType": "uint256",
          "name": "",
          "type": "uint256"
        }
      ],
      "stateMutability": "nonpayable",
      "type": "function"
    },
    {
      "inputs": [
        {
          "internalType": "uint256",
          "name": "tokenAmount",
          "type": "uint256"
        },
        {
          "internalType": "uint8",
          "name": "tokenIndex",
          "type": "uint8"
        },
        {
          "internalType": "uint256",
          "name": "minAmount",
          "type": "uint256"
        },
        {
          "internalType": "uint256",
          "name": "deadline",
          "type": "uint256"
        }
      ],
      "name": "removeLiquidityOneToken",
      "outputs": [
        {
          "internalType": "uint256",
          "name": "",
          "type": "uint256"
        }
      ],
      "stateMutability": "nonpayable",
      "type": "function"
    },
    {
      "inputs": [
        {
          "internalType": "uint8",
          "name": "tokenIndexFrom",
          "type": "uint8"
        },
        {
          "internalType": "uint8",
          "name": "tokenIndexTo",
          "type": "uint8"
        },
        {
          "internalType": "uint256",
          "name": "dx",
          "type": "uint256"
        },
        {
          "internalType": "uint256",
          "name": "minDy",
          "type": "uint256"
        },
        {
          "internalType": "uint256",
          "name": "deadline",
          "type": "uint256"
        }
      ],
      "name": "swap",
      "outputs": [
        {
          "internalType": "uint256",
          "name": "",
          "type": "uint256"
        }
      ],
      "stateMutability": "nonpayable",
      "type": "function"
    },
    {
      "inputs": [
        {
          "internalType": "uint256",
          "name": "",
          "type": "uint256"
        }
      ],
      "name": "tokens",
      "outputs": [
        {
          "internalType": "contract IERC20",
          "name": "",
          "type": "address"
        }
      ],
      "stateMutability": "view",
      "type": "function"
    }
  ],
  "transactionHash": "0xb0e8632f92def51226b1d5b77c2ca2bac374161cd968305898bd48027cec93b3",
  "args": [],
  "numDeployments": 1,
  "solcInputHash": "c686040896eb8f6aa5a808e88bc41205",
  "bytecode": "0x608060405234801561001057600080fd5b50613a35806100206000396000f3fe608060405234801561001057600080fd5b506004361061011b5760003560e01c806391695586116100b2578063cb2ef5fe11610081578063e6ab280611610066578063e6ab280614610471578063f2fad2b6146104e3578063fd0bd099146105005761011b565b8063cb2ef5fe14610461578063d2650472146104695761011b565b806391695586146103b35780639750a8ee146103ef578063a95b089f146103f7578063c0c53b8b146104275761011b565b80634d49e87d116100ee5780634d49e87d1461028a5780634f64b2be1461030057806382b866001461031d57806384cdd9bc1461033d5761011b565b806331cd52b014610120578063328123a2146101e7578063342a87a1146102205780633e3a156014610258575b600080fd5b6101976004803603606081101561013657600080fd5b8135919081019060408101602082013564010000000081111561015857600080fd5b82018360208201111561016a57600080fd5b8035906020019184602083028401116401000000008311171561018c57600080fd5b91935091503561051d565b60408051602080825283518183015283519192839290830191858101910280838360005b838110156101d35781810151838201526020016101bb565b505050509050019250505060405180910390f35b610204600480360360208110156101fd57600080fd5b5035610c7c565b604080516001600160a01b039092168252519081900360200190f35b6102466004803603604081101561023657600080fd5b508035906020013560ff16610ca3565b60408051918252519081900360200190f35b6102466004803603608081101561026e57600080fd5b5080359060ff6020820135169060408101359060600135610ea7565b610246600480360360608110156102a057600080fd5b8101906020810181356401000000008111156102bb57600080fd5b8201836020820111156102cd57600080fd5b803590602001918460208302840111640100000000831117156102ef57600080fd5b91935091508035906020013561129b565b6102046004803603602081101561031657600080fd5b50356118ae565b6102046004803603602081101561033357600080fd5b503560ff166118bb565b6102466004803603606081101561035357600080fd5b81019060208101813564010000000081111561036e57600080fd5b82018360208201111561038057600080fd5b803590602001918460208302840111640100000000831117156103a257600080fd5b919350915080359060200135611942565b610246600480360360a08110156103c957600080fd5b5060ff813581169160208101359091169060408101359060608101359060800135612223565b6102046123af565b6102466004803603606081101561040d57600080fd5b5060ff8135811691602081013590911690604001356123be565b61045f6004803603606081101561043d57600080fd5b506001600160a01b03813581169160208101358216916040909101351661246a565b005b610204612986565b610204612995565b6102466004803603604081101561048757600080fd5b8101906020810181356401000000008111156104a257600080fd5b8201836020820111156104b457600080fd5b803590602001918460208302840111640100000000831117156104d657600080fd5b91935091503515156129a4565b610197600480360360208110156104f957600080fd5b5035612cab565b6102046004803603602081101561051657600080fd5b503561303e565b606060026001541415610577576040805162461bcd60e51b815260206004820152601f60248201527f5265656e7472616e637947756172643a207265656e7472616e742063616c6c00604482015290519081900360640190fd5b60026001556035805460408051602080840282018101909252828152606093909290918301828280156105d357602002820191906000526020600020905b81546001600160a01b031681526001909101906020018083116105b5575b505050505090506060603680548060200260200160405190810160405280929190818152602001828054801561063257602002820191906000526020600020905b81546001600160a01b03168152600190910190602001808311610614575b50508351865194955060609401600019019250505086811461069b576040805162461bcd60e51b815260206004820152600c60248201527f6f7574206f662072616e67650000000000000000000000000000000000000000604482015290519081900360640190fd5b8067ffffffffffffffff811180156106b257600080fd5b506040519080825280602002602001820160405280156106dc578160200160208202803683370190505b506038549092506106f991506001600160a01b031633308b61304b565b600060606000600185510390506060855167ffffffffffffffff8111801561072057600080fd5b5060405190808252806020026020018201604052801561074a578160200160208202803683370190505b50905060005b828160ff161015610793578b8b8260ff1681811061076a57fe5b90506020020135828260ff168151811061078057fe5b6020908102919091010152600101610750565b50603460009054906101000a90046001600160a01b03166001600160a01b03166331cd52b08d838c6040518463ffffffff1660e01b81526004018084815260200180602001838152602001828103825284818151815260200191508051906020019060200280838360005b838110156108165781810151838201526020016107fe565b50505050905001945050505050600060405180830381600087803b15801561083d57600080fd5b505af1158015610851573d6000803e3d6000fd5b505050506040513d6000823e601f3d9081017fffffffffffffffffffffffffffffffffffffffffffffffffffffffffffffffe0168201604052602081101561089857600080fd5b81019080805160405193929190846401000000008211156108b857600080fd5b9083019060208201858111156108cd57600080fd5b82518660208202830111640100000000821117156108ea57600080fd5b82525081516020918201928201910280838360005b838110156109175781810151838201526020016108ff565b5050505090500160405250505092505060005b818160ff1610156109b957828160ff168151811061094457fe5b6020026020010151858260ff168151811061095b57fe5b6020026020010181815250506109b133848360ff168151811061097a57fe5b6020026020010151888460ff168151811061099157fe5b60200260200101516001600160a01b03166130d39092919063ffffffff16565b60010161092a565b508181815181106109c657fe5b602002602001015192506060865167ffffffffffffffff811180156109ea57600080fd5b50604051908082528060200260200182016040528015610a14578160200160208202803683370190505b50905060005b828160ff161015610a5f578b8b8260ff168501818110610a3657fe5b90506020020135828260ff1681518110610a4c57fe5b6020908102919091010152600101610a1a565b50603360009054906101000a90046001600160a01b03166001600160a01b03166331cd52b085838c6040518463ffffffff1660e01b81526004018084815260200180602001838152602001828103825284818151815260200191508051906020019060200280838360005b83811015610ae2578181015183820152602001610aca565b50505050905001945050505050600060405180830381600087803b158015610b0957600080fd5b505af1158015610b1d573d6000803e3d6000fd5b505050506040513d6000823e601f3d9081017fffffffffffffffffffffffffffffffffffffffffffffffffffffffffffffffe01682016040526020811015610b6457600080fd5b8101908080516040519392919084640100000000821115610b8457600080fd5b908301906020820185811115610b9957600080fd5b8251866020820283011164010000000082111715610bb657600080fd5b82525081516020918201928201910280838360005b83811015610be3578181015183820152602001610bcb565b5050505090500160405250505092505060005b86518160ff161015610c6857828160ff1681518110610c1157fe5b6020026020010151858260ff16840181518110610c2a57fe5b602002602001018181525050610c6033848360ff1681518110610c4957fe5b6020026020010151898460ff168151811061099157fe5b600101610bf6565b505060018055509098975050505050505050565b60358181548110610c8957fe5b6000918252602090912001546001600160a01b0316905081565b6036546000906000190160ff8082169084161015610d5e57603454604080517f342a87a10000000000000000000000000000000000000000000000000000000081526004810187905260ff8616602482015290516001600160a01b039092169163342a87a191604480820192602092909190829003018186803b158015610d2957600080fd5b505afa158015610d3d573d6000803e3d6000fd5b505050506040513d6020811015610d5357600080fd5b50519150610ea19050565b603454604080517f342a87a10000000000000000000000000000000000000000000000000000000081526004810187905260ff8416602482015290516000926001600160a01b03169163342a87a1916044808301926020929190829003018186803b158015610dcc57600080fd5b505afa158015610de0573d6000803e3d6000fd5b505050506040513d6020811015610df657600080fd5b5051603354604080517f342a87a10000000000000000000000000000000000000000000000000000000081526004810184905260ff86890316602482015290519293506001600160a01b039091169163342a87a191604480820192602092909190829003018186803b158015610e6b57600080fd5b505afa158015610e7f573d6000803e3d6000fd5b505050506040513d6020811015610e9557600080fd5b50519250610ea1915050565b92915050565b600060026001541415610f01576040805162461bcd60e51b815260206004820152601f60248201527f5265656e7472616e637947756172643a207265656e7472616e742063616c6c00604482015290519081900360640190fd5b600260015560365460355460385460001990920191610f2b906001600160a01b031633308a61304b565b60008260ff168760ff16101561101257603454604080517f3e3a1560000000000000000000000000000000000000000000000000000000008152600481018b905260ff8a166024820152604481018990526064810188905290516001600160a01b0390921691633e3a1560916084808201926020929091908290030181600087803b158015610fb957600080fd5b505af1158015610fcd573d6000803e3d6000fd5b505050506040513d6020811015610fe357600080fd5b50506036805460ff8916908110610ff657fe5b6000918252602090912001546001600160a01b031690506111fa565b81830160ff168760ff1610156111ad57603454604080517f3e3a1560000000000000000000000000000000000000000000000000000000008152600481018b905260ff8616602482015260006044820181905260648201899052915191926001600160a01b031691633e3a15609160848082019260209290919082900301818787803b1580156110a157600080fd5b505af11580156110b5573d6000803e3d6000fd5b505050506040513d60208110156110cb57600080fd5b5051603354604080517f3e3a15600000000000000000000000000000000000000000000000000000000081526004810184905260ff888d03166024820152604481018b9052606481018a905290519293506001600160a01b0390911691633e3a1560916084808201926020929091908290030181600087803b15801561115057600080fd5b505af1158015611164573d6000803e3d6000fd5b505050506040513d602081101561117a57600080fd5b50506035805460ff868b031690811061118f57fe5b6000918252602090912001546001600160a01b031691506111fa9050565b6040805162461bcd60e51b815260206004820152600c60248201527f6f7574206f662072616e67650000000000000000000000000000000000000000604482015290519081900360640190fd5b6000816001600160a01b03166370a08231306040518263ffffffff1660e01b815260040180826001600160a01b0316815260200191505060206040518083038186803b15801561124957600080fd5b505afa15801561125d573d6000803e3d6000fd5b505050506040513d602081101561127357600080fd5b5051905061128b6001600160a01b03831633836130d3565b6001805598975050505050505050565b6000600260015414156112f5576040805162461bcd60e51b815260206004820152601f60248201527f5265656e7472616e637947756172643a207265656e7472616e742063616c6c00604482015290519081900360640190fd5b600260015560358054604080516020808402820181019092528281526060939092909183018282801561135157602002820191906000526020600020905b81546001600160a01b03168152600190910190602001808311611333575b50505050509050606060368054806020026020016040519081016040528092919081815260200182805480156113b057602002820191906000526020600020905b81546001600160a01b03168152600190910190602001808311611392575b505050505090506000600182510390508083510188889050146113d257600080fd5b60006060845167ffffffffffffffff811180156113ee57600080fd5b50604051908082528060200260200182016040528015611418578160200160208202803683370190505b5090506000805b86518160ff161015611537576000878260ff168151811061143c57fe5b6020026020010151905060008d8d8460ff16890181811061145957fe5b905060200201359050600081111561152d576114806001600160a01b03831633308461304b565b604080517f70a0823100000000000000000000000000000000000000000000000000000000815230600482015290516001600160a01b038416916370a08231916024808301926020929190829003018186803b1580156114df57600080fd5b505afa1580156114f3573d6000803e3d6000fd5b505050506040513d602081101561150957600080fd5b50518551869060ff861690811061151c57fe5b602002602001018181525050600193505b505060010161141f565b508015611624576033546040517f4d49e87d000000000000000000000000000000000000000000000000000000008152600060248201819052604482018b90526060600483019081528551606484015285516001600160a01b0390941693634d49e87d938793928e929091829160849091019060208088019102808383895b838110156115ce5781810151838201526020016115b6565b50505050905001945050505050602060405180830381600087803b1580156115f557600080fd5b505af1158015611609573d6000803e3d6000fd5b505050506040513d602081101561161f57600080fd5b505192505b505060365460009060609067ffffffffffffffff8111801561164557600080fd5b5060405190808252806020026020018201604052801561166f578160200160208202803683370190505b50905060005b848160ff161015611786576000868260ff168151811061169157fe5b6020026020010151905060008d8d8460ff168181106116ac57fe5b905060200201359050600081111561177c576116d36001600160a01b03831633308461304b565b604080517f70a0823100000000000000000000000000000000000000000000000000000000815230600482015290516001600160a01b038416916370a08231916024808301926020929190829003018186803b15801561173257600080fd5b505afa158015611746573d6000803e3d6000fd5b505050506040513d602081101561175c57600080fd5b50518451859060ff861690811061176f57fe5b6020026020010181815250505b5050600101611675565b508281858151811061179457fe5b6020908102919091018101919091526034546040517f4d49e87d000000000000000000000000000000000000000000000000000000008152602481018c9052604481018b90526060600482019081528451606483015284516001600160a01b0390931693634d49e87d9386938f938f939092839260840191878101910280838360005b8381101561182f578181015183820152602001611817565b50505050905001945050505050602060405180830381600087803b15801561185657600080fd5b505af115801561186a573d6000803e3d6000fd5b505050506040513d602081101561188057600080fd5b505160385490925061189d91506001600160a01b031633836130d3565b600180559998505050505050505050565b60378181548110610c8957fe5b60375460009060ff831610611917576040805162461bcd60e51b815260206004820152601260248201527f696e646578206f7574206f662072616e67650000000000000000000000000000604482015290519081900360640190fd5b60378260ff168154811061192757fe5b6000918252602090912001546001600160a01b031692915050565b60006002600154141561199c576040805162461bcd60e51b815260206004820152601f60248201527f5265656e7472616e637947756172643a207265656e7472616e742063616c6c00604482015290519081900360640190fd5b60026001556035805460408051602080840282018101909252828152606093909290918301828280156119f857602002820191906000526020600020905b81546001600160a01b031681526001909101906020018083116119da575b5050505050905060606036805480602002602001604051908101604052809291908181526020018280548015611a5757602002820191906000526020600020905b81546001600160a01b03168152600190910190602001808311611a39575b505050505090506060815167ffffffffffffffff81118015611a7857600080fd5b50604051908082528060200260200182016040528015611aa2578160200160208202803683370190505b5090506060835167ffffffffffffffff81118015611abf57600080fd5b50604051908082528060200260200182016040528015611ae9578160200160208202803683370190505b508351855191925001600019018814611b49576040805162461bcd60e51b815260206004820152600c60248201527f6f7574206f662072616e67650000000000000000000000000000000000000000604482015290519081900360640190fd5b611b516138ad565b506040805160c0810182526033546001600160a01b03908116825260345481166020830152603854169181019190915282516000190160ff16606082015260006080820181905260a082018190525b816060015160ff168160ff161015611bea578a8a8260ff16818110611bc157fe5b90506020020135848260ff1681518110611bd757fe5b6020908102919091010152600101611ba0565b5060005b82518160ff161015611c60578a8a8284606001510160ff16818110611c0f57fe5b90506020020135838260ff1681518110611c2557fe5b6020026020010181815250506000838260ff1681518110611c4257fe5b60200260200101511115611c5857600160808301525b600101611bee565b50806080015115611d6057611d40612710611d3a61271584600001516001600160a01b031663e6ab28068760006040518363ffffffff1660e01b815260040180806020018315158152602001828103825284818151815260200191508051906020019060200280838360005b83811015611ce4578181015183820152602001611ccc565b50505050905001935050505060206040518083038186803b158015611d0857600080fd5b505afa158015611d1c573d6000803e3d6000fd5b505050506040513d6020811015611d3257600080fd5b505190613158565b906131b1565b83826060015160ff1681518110611d5357fe5b6020026020010181815250505b6040810151611d7a906001600160a01b031633308b61304b565b600081602001516001600160a01b03166384cdd9bc858b8b6040518463ffffffff1660e01b81526004018080602001848152602001838152602001828103825285818151815260200191508051906020019060200280838360005b83811015611ded578181015183820152602001611dd5565b50505050905001945050505050602060405180830381600087803b158015611e1457600080fd5b505af1158015611e28573d6000803e3d6000fd5b505050506040513d6020811015611e3e57600080fd5b50519050611e4c8982613218565b60a08301526080820151156121205781600001516001600160a01b03166384cdd9bc8486856060015160ff1681518110611e8257fe5b60200260200101518b6040518463ffffffff1660e01b81526004018080602001848152602001838152602001828103825285818151815260200191508051906020019060200280838360005b83811015611ee6578181015183820152602001611ece565b50505050905001945050505050602060405180830381600087803b158015611f0d57600080fd5b505af1158015611f21573d6000803e3d6000fd5b505050506040513d6020811015611f3757600080fd5b5050835160609067ffffffffffffffff81118015611f5457600080fd5b50604051908082528060200260200182016040528015611f7e578160200160208202803683370190505b509050600086846060015160ff1681518110611f9657fe5b602002602001015190506000816001600160a01b03166370a08231306040518263ffffffff1660e01b815260040180826001600160a01b0316815260200191505060206040518083038186803b158015611fef57600080fd5b505afa158015612003573d6000803e3d6000fd5b505050506040513d602081101561201957600080fd5b50519050801561211c578083866060015160ff168151811061203757fe5b60200260200101818152505061211685602001516001600160a01b0316634d49e87d8560008f6040518463ffffffff1660e01b81526004018080602001848152602001838152602001828103825285818151815260200191508051906020019060200280838360005b838110156120b85781810151838201526020016120a0565b50505050905001945050505050602060405180830381600087803b1580156120df57600080fd5b505af11580156120f3573d6000803e3d6000fd5b505050506040513d602081101561210957600080fd5b505160a087015190613275565b60a08601525b5050505b60005b60ff81168b11156121da576000836060015160ff168260ff16101561216057868260ff168151811061215157fe5b60200260200101519050612180565b878460600151830360ff168151811061217557fe5b602002602001015190505b60008d8d8460ff1681811061219157fe5b9050602002013511156121d1576121d1338e8e8560ff168181106121b157fe5b90506020020135836001600160a01b03166130d39092919063ffffffff16565b50600101612123565b5060a08201511561220b5761220b338360a0015184604001516001600160a01b03166130d39092919063ffffffff16565b5060a001516001805590960398975050505050505050565b60006002600154141561227d576040805162461bcd60e51b815260206004820152601f60248201527f5265656e7472616e637947756172643a207265656e7472616e742063616c6c00604482015290519081900360640190fd5b60026001819055506122b833308660378a60ff168154811061229b57fe5b6000918252602090912001546001600160a01b031692919061304b565b603454604080517f78e0fae800000000000000000000000000000000000000000000000000000000815260ff808a1660048301528816602482015260448101879052606481018690526084810185905290516000926001600160a01b0316916378e0fae89160a480830192602092919082900301818787803b15801561233d57600080fd5b505af1158015612351573d6000803e3d6000fd5b505050506040513d602081101561236757600080fd5b5051603780549192506123a1913391849160ff8b1690811061238557fe5b6000918252602090912001546001600160a01b031691906130d3565b600180559695505050505050565b6033546001600160a01b031681565b603454604080517f75d8e3e400000000000000000000000000000000000000000000000000000000815260ff8087166004830152851660248201526044810184905290516000926001600160a01b0316916375d8e3e4916064808301926020929190829003018186803b15801561243457600080fd5b505afa158015612448573d6000803e3d6000fd5b505050506040513d602081101561245e57600080fd5b505190505b9392505050565b600054610100900460ff168061248357506124836132cf565b80612491575060005460ff16155b6124cc5760405162461bcd60e51b815260040180806020018281038252602e815260200180613909602e913960400191505060405180910390fd5b600054610100900460ff1615801561251557600080547fffffffffffffffffffffffffffffffffffffffffffffffffffffffffffffff0061ff0019909116610100171660011790555b61251d6132e0565b60005b60208160ff16101561263357846001600160a01b03166382b86600826040518263ffffffff1660e01b8152600401808260ff16815260200191505060206040518083038186803b15801561257357600080fd5b505afa92505050801561259857506040513d602081101561259357600080fd5b505160015b6125a157612633565b603580546001810182556000919091527fcfa4bec1d3298408bb5afcfcd9c430549c5b31f8aa5c5848151c0a55f473c34d0180547fffffffffffffffffffffffff0000000000000000000000000000000000000000166001600160a01b03831690811790915561261490876000196133a8565b61262a6001600160a01b038216866000196133a8565b50600101612520565b60018160ff16116126755760405162461bcd60e51b815260040180806020018281038252602481526020018061397c6024913960400191505060405180910390fd5b506000805b60208160ff1610156127b357846001600160a01b03166382b86600826040518263ffffffff1660e01b8152600401808260ff16815260200191505060206040518083038186803b1580156126cd57600080fd5b505afa9250505080156126f257506040513d60208110156126ed57600080fd5b505160015b6126fb576127b3565b6036805460018181019092557f4a11f94e20a93c79f6ec743a1954ec4fc2c08429ae2122118bf234b2185c81b80180546001600160a01b0384167fffffffffffffffffffffffff000000000000000000000000000000000000000091821681179092556037805493840181556000527f42a7b7dd785cd69714a189dffb3fd7d7174edc9ece837694ce50f7078f7c31ae9092018054909216811790915590925082906127aa90876000196133a8565b5060010161267a565b60018160ff16116127f55760405162461bcd60e51b81526004018080602001828103825260248152602001806139586024913960400191505060405180910390fd5b50603560008154811061280457fe5b600091825260209091200154603780546001600160a01b0390921691600019810190811061282e57fe5b600091825260209091200180547fffffffffffffffffffffffff0000000000000000000000000000000000000000166001600160a01b039290921691909117905560015b60355460ff821610156128eb57603760358260ff168154811061289157fe5b6000918252602080832090910154835460018181018655948452919092200180547fffffffffffffffffffffffff0000000000000000000000000000000000000000166001600160a01b0390921691909117905501612872565b506129026001600160a01b038216866000196133a8565b6129186001600160a01b038416856000196133a8565b50603380546001600160a01b038087167fffffffffffffffffffffffff0000000000000000000000000000000000000000928316179092556034805486841690831617905560388054928516929091169190911790558015612980576000805461ff00191690555b50505050565b6034546001600160a01b031681565b6038546001600160a01b031681565b60365460009060609067ffffffffffffffff811180156129c357600080fd5b506040519080825280602002602001820160405280156129ed578160200160208202803683370190505b5060355490915060609067ffffffffffffffff81118015612a0d57600080fd5b50604051908082528060200260200182016040528015612a37578160200160208202803683370190505b5082519091506000190160005b818160ff161015612a875787878260ff16818110612a5e57fe5b90506020020135848260ff1681518110612a7457fe5b6020908102919091010152600101612a44565b5060005b82518160ff161015612ad15787878260ff168401818110612aa857fe5b90506020020135838260ff1681518110612abe57fe5b6020908102919091010152600101612a8b565b50603354604080517fe6ab28060000000000000000000000000000000000000000000000000000000081528715156024820152600481019182528451604482015284516000936001600160a01b03169263e6ab28069287928b92918291606490910190602080870191028083838c5b83811015612b58578181015183820152602001612b40565b50505050905001935050505060206040518083038186803b158015612b7c57600080fd5b505afa158015612b90573d6000803e3d6000fd5b505050506040513d6020811015612ba657600080fd5b505184519091508190859084908110612bbb57fe5b602090810291909101810191909152603454604080517fe6ab28060000000000000000000000000000000000000000000000000000000081528915156024820152600481019182528751604482015287516001600160a01b039093169363e6ab28069389938c9390928392606490920191868201910280838360005b83811015612c4f578181015183820152602001612c37565b50505050905001935050505060206040518083038186803b158015612c7357600080fd5b505afa158015612c87573d6000803e3d6000fd5b505050506040513d6020811015612c9d57600080fd5b505198975050505050505050565b603454604080517ff2fad2b600000000000000000000000000000000000000000000000000000000815260048101849052905160609283926001600160a01b039091169163f2fad2b691602480820192600092909190829003018186803b158015612d1557600080fd5b505afa158015612d29573d6000803e3d6000fd5b505050506040513d6000823e601f3d9081017fffffffffffffffffffffffffffffffffffffffffffffffffffffffffffffffe01682016040526020811015612d7057600080fd5b8101908080516040519392919084640100000000821115612d9057600080fd5b908301906020820185811115612da557600080fd5b8251866020820283011164010000000082111715612dc257600080fd5b82525081516020918201928201910280838360005b83811015612def578181015183820152602001612dd7565b505050509190910160405250508251603354939450600019810193606093506001600160a01b0316915063f2fad2b690859060ff8616908110612e2e57fe5b60200260200101516040518263ffffffff1660e01b81526004018082815260200191505060006040518083038186803b158015612e6a57600080fd5b505afa158015612e7e573d6000803e3d6000fd5b505050506040513d6000823e601f3d9081017fffffffffffffffffffffffffffffffffffffffffffffffffffffffffffffffe01682016040526020811015612ec557600080fd5b8101908080516040519392919084640100000000821115612ee557600080fd5b908301906020820185811115612efa57600080fd5b8251866020820283011164010000000082111715612f1757600080fd5b82525081516020918201928201910280838360005b83811015612f44578181015183820152602001612f2c565b505050509050016040525050509050606081518360ff160167ffffffffffffffff81118015612f7257600080fd5b50604051908082528060200260200182016040528015612f9c578160200160208202803683370190505b50905060005b8360ff168160ff161015612fe957848160ff1681518110612fbf57fe5b6020026020010151828260ff1681518110612fd657fe5b6020908102919091010152600101612fa2565b5060005b82518160ff16101561303457828160ff168151811061300857fe5b60200260200101518282860160ff168151811061302157fe5b6020908102919091010152600101612fed565b5095945050505050565b60368181548110610c8957fe5b604080516001600160a01b0380861660248301528416604482015260648082018490528251808303909101815260849091019091526020810180517bffffffffffffffffffffffffffffffffffffffffffffffffffffffff167f23b872dd000000000000000000000000000000000000000000000000000000001790526129809085906134fe565b604080516001600160a01b038416602482015260448082018490528251808303909101815260649091019091526020810180517bffffffffffffffffffffffffffffffffffffffffffffffffffffffff167fa9059cbb000000000000000000000000000000000000000000000000000000001790526131539084906134fe565b505050565b60008261316757506000610ea1565b8282028284828161317457fe5b04146124635760405162461bcd60e51b81526004018080602001828103825260218152602001806139376021913960400191505060405180910390fd5b6000808211613207576040805162461bcd60e51b815260206004820152601a60248201527f536166654d6174683a206469766973696f6e206279207a65726f000000000000604482015290519081900360640190fd5b81838161321057fe5b049392505050565b60008282111561326f576040805162461bcd60e51b815260206004820152601e60248201527f536166654d6174683a207375627472616374696f6e206f766572666c6f770000604482015290519081900360640190fd5b50900390565b600082820183811015612463576040805162461bcd60e51b815260206004820152601b60248201527f536166654d6174683a206164646974696f6e206f766572666c6f770000000000604482015290519081900360640190fd5b60006132da306135af565b15905090565b600054610100900460ff16806132f957506132f96132cf565b80613307575060005460ff16155b6133425760405162461bcd60e51b815260040180806020018281038252602e815260200180613909602e913960400191505060405180910390fd5b600054610100900460ff1615801561338b57600080547fffffffffffffffffffffffffffffffffffffffffffffffffffffffffffffff0061ff0019909116610100171660011790555b6133936135b5565b80156133a5576000805461ff00191690555b50565b8015806134475750604080517fdd62ed3e0000000000000000000000000000000000000000000000000000000081523060048201526001600160a01b03848116602483015291519185169163dd62ed3e91604480820192602092909190829003018186803b15801561341957600080fd5b505afa15801561342d573d6000803e3d6000fd5b505050506040513d602081101561344357600080fd5b5051155b6134825760405162461bcd60e51b81526004018080602001828103825260368152602001806139ca6036913960400191505060405180910390fd5b604080516001600160a01b038416602482015260448082018490528251808303909101815260649091019091526020810180517bffffffffffffffffffffffffffffffffffffffffffffffffffffffff167f095ea7b3000000000000000000000000000000000000000000000000000000001790526131539084905b6060613553826040518060400160405280602081526020017f5361666545524332303a206c6f772d6c6576656c2063616c6c206661696c6564815250856001600160a01b03166136789092919063ffffffff16565b8051909150156131535780806020019051602081101561357257600080fd5b50516131535760405162461bcd60e51b815260040180806020018281038252602a8152602001806139a0602a913960400191505060405180910390fd5b3b151590565b600054610100900460ff16806135ce57506135ce6132cf565b806135dc575060005460ff16155b6136175760405162461bcd60e51b815260040180806020018281038252602e815260200180613909602e913960400191505060405180910390fd5b600054610100900460ff1615801561366057600080547fffffffffffffffffffffffffffffffffffffffffffffffffffffffffffffff0061ff0019909116610100171660011790555b6001805580156133a5576000805461ff001916905550565b6060613687848460008561368f565b949350505050565b6060824710156136d05760405162461bcd60e51b81526004018080602001828103825260268152602001806138e36026913960400191505060405180910390fd5b6136d9856135af565b61372a576040805162461bcd60e51b815260206004820152601d60248201527f416464726573733a2063616c6c20746f206e6f6e2d636f6e7472616374000000604482015290519081900360640190fd5b60006060866001600160a01b031685876040518082805190602001908083835b6020831061378757805182527fffffffffffffffffffffffffffffffffffffffffffffffffffffffffffffffe0909201916020918201910161374a565b6001836020036101000a03801982511681845116808217855250505050505090500191505060006040518083038185875af1925050503d80600081146137e9576040519150601f19603f3d011682016040523d82523d6000602084013e6137ee565b606091505b50915091506137fe828286613809565b979650505050505050565b60608315613818575081612463565b8251156138285782518084602001fd5b8160405162461bcd60e51b81526004018080602001828103825283818151815260200191508051906020019080838360005b8381101561387257818101518382015260200161385a565b50505050905090810190601f16801561389f5780820380516001836020036101000a031916815260200191505b509250505060405180910390fd5b6040805160c081018252600080825260208201819052918101829052606081018290526080810182905260a08101919091529056fe416464726573733a20696e73756666696369656e742062616c616e636520666f722063616c6c496e697469616c697a61626c653a20636f6e747261637420697320616c726561647920696e697469616c697a6564536166654d6174683a206d756c7469706c69636174696f6e206f766572666c6f776d65746153776170206d7573742068617665206174206c65617374203220746f6b656e736261736553776170206d7573742068617665206174206c65617374203220746f6b656e735361666545524332303a204552433230206f7065726174696f6e20646964206e6f7420737563636565645361666545524332303a20617070726f76652066726f6d206e6f6e2d7a65726f20746f206e6f6e2d7a65726f20616c6c6f77616e6365a2646970667358221220ab9b1c92c7b45a2f1ed4839a981daaf2056246843825fd3d58c058393451a6ab64736f6c634300060c0033",
  "devdoc": {
    "kind": "dev",
    "methods": {
      "addLiquidity(uint256[],uint256,uint256)": {
        "params": {
          "amounts": "the amounts of each token to add, in their native precision",
          "deadline": "latest timestamp to accept this transaction",
          "minToMint": "the minimum LP tokens adding this amount of liquidity should mint, otherwise revert. Handy for front-running mitigation"
        },
        "returns": {
          "_0": "amount of LP token user minted and received"
        }
      },
      "calculateRemoveLiquidity(uint256)": {
        "params": {
          "amount": "the amount of LP tokens that would be burned on withdrawal"
        },
        "returns": {
          "_0": "array of token balances that the user will receive"
        }
      },
      "calculateRemoveLiquidityOneToken(uint256,uint8)": {
        "params": {
          "tokenAmount": "the amount of LP token to burn",
          "tokenIndex": "index of which token will be withdrawn"
        },
        "returns": {
          "_0": "availableTokenAmount calculated amount of underlying token available to withdraw"
        }
      },
      "calculateSwap(uint8,uint8,uint256)": {
        "params": {
          "dx": "the amount of tokens the user wants to sell. If the token charges a fee on transfers, use the amount that gets transferred after the fee.",
          "tokenIndexFrom": "the token the user wants to sell",
          "tokenIndexTo": "the token the user wants to buy"
        },
        "returns": {
          "_0": "amount of tokens the user will receive"
        }
      },
      "calculateTokenAmount(uint256[],bool)": {
        "details": "This shouldn't be used outside frontends for user estimates.",
        "params": {
          "amounts": "an array of token amounts to deposit or withdrawal, corresponding to pooledTokens. The amount should be in each pooled token's native precision. If a token charges a fee on transfers, use the amount that gets transferred after the fee.",
          "deposit": "whether this is a deposit or a withdrawal"
        },
        "returns": {
          "_0": "token amount the user will receive"
        }
      },
      "getToken(uint8)": {
        "params": {
          "index": "the index of the token"
        },
        "returns": {
          "_0": "address of the token at given index"
        }
      },
      "initialize(address,address,address)": {
        "params": {
          "_baseSwap": "the address of the base Swap contract",
          "_metaLPToken": "the address of the MetaSwap LP token contract",
          "_metaSwap": "the address of the MetaSwap contract"
        }
      },
      "removeLiquidity(uint256,uint256[],uint256)": {
        "details": "Liquidity can always be removed, even when the pool is paused.",
        "params": {
          "amount": "the amount of LP tokens to burn",
          "deadline": "latest timestamp to accept this transaction",
          "minAmounts": "the minimum amounts of each token in the pool        acceptable for this burn. Useful as a front-running mitigation"
        },
        "returns": {
          "_0": "amounts of tokens user received"
        }
      },
      "removeLiquidityImbalance(uint256[],uint256,uint256)": {
        "params": {
          "amounts": "how much of each token to withdraw",
          "deadline": "latest timestamp to accept this transaction",
          "maxBurnAmount": "the max LP token provider is willing to pay to remove liquidity. Useful as a front-running mitigation."
        },
        "returns": {
          "_0": "amount of LP tokens burned"
        }
      },
      "removeLiquidityOneToken(uint256,uint8,uint256,uint256)": {
        "params": {
          "deadline": "latest timestamp to accept this transaction",
          "minAmount": "the minimum amount to withdraw, otherwise revert",
          "tokenAmount": "the amount of the token you want to receive",
          "tokenIndex": "the index of the token you want to receive"
        },
        "returns": {
          "_0": "amount of chosen token user received"
        }
      },
      "swap(uint8,uint8,uint256,uint256,uint256)": {
        "params": {
          "deadline": "latest timestamp to accept this transaction",
          "dx": "the amount of tokens the user wants to swap from",
          "minDy": "the min amount the user would like to receive, or revert.",
          "tokenIndexFrom": "the token the user wants to swap from",
          "tokenIndexTo": "the token the user wants to swap to"
        }
      }
    },
    "title": "MetaSwapDeposit",
    "version": 1
  },
  "userdoc": {
    "kind": "user",
    "methods": {
      "addLiquidity(uint256[],uint256,uint256)": {
        "notice": "Add liquidity to the pool with the given amounts of tokens"
      },
      "calculateRemoveLiquidity(uint256)": {
        "notice": "A simple method to calculate amount of each underlying tokens that is returned upon burning given amount of LP tokens"
      },
      "calculateRemoveLiquidityOneToken(uint256,uint8)": {
        "notice": "Calculate the amount of underlying token available to withdraw when withdrawing via only single token"
      },
      "calculateSwap(uint8,uint8,uint256)": {
        "notice": "Calculate amount of tokens you receive on swap"
      },
      "calculateTokenAmount(uint256[],bool)": {
        "notice": "A simple method to calculate prices from deposits or withdrawals, excluding fees but including slippage. This is helpful as an input into the various \"min\" parameters on calls to fight front-running. When withdrawing from the base pool in imbalanced fashion, the recommended slippage setting is 0.2% or higher."
      },
      "getToken(uint8)": {
        "notice": "Returns the address of the pooled token at given index. Reverts if tokenIndex is out of range. This is a flattened representation of the pooled tokens."
      },
      "initialize(address,address,address)": {
        "notice": "Sets the address for the base Swap contract, MetaSwap contract, and the MetaSwap LP token contract."
      },
      "removeLiquidity(uint256,uint256[],uint256)": {
        "notice": "Burn LP tokens to remove liquidity from the pool. Withdraw fee that decays linearly over period of 4 weeks since last deposit will apply."
      },
      "removeLiquidityImbalance(uint256[],uint256,uint256)": {
        "notice": "Remove liquidity from the pool, weighted differently than the pool's current balances. Withdraw fee that decays linearly over period of 4 weeks since last deposit will apply."
      },
      "removeLiquidityOneToken(uint256,uint8,uint256,uint256)": {
        "notice": "Remove liquidity from the pool all in one token. Withdraw fee that decays linearly over period of 4 weeks since last deposit will apply."
      },
      "swap(uint8,uint8,uint256,uint256,uint256)": {
        "notice": "Swap two underlying tokens using the meta pool and the base pool"
      }
    },
    "notice": "This contract flattens the LP token in a MetaSwap pool for easier user access. MetaSwap must be deployed before this contract can be initialized successfully. For example, suppose there exists a base Swap pool consisting of [DAI, USDC, USDT]. Then a MetaSwap pool can be created with [sUSD, BaseSwapLPToken] to allow trades between either the LP token or the underlying tokens and sUSD. MetaSwapDeposit flattens the LP token and remaps them to a single array, allowing users to ignore the dependency on BaseSwapLPToken. Using the above example, MetaSwapDeposit can act as a Swap containing [sUSD, DAI, USDC, USDT] tokens.",
    "version": 1
  },
  "storageLayout": {
    "storage": [
      {
        "astId": 492,
        "contract": "contracts/meta/MetaSwapDeposit.sol:MetaSwapDeposit",
        "label": "_initialized",
        "offset": 0,
        "slot": "0",
        "type": "t_bool"
      },
      {
        "astId": 495,
        "contract": "contracts/meta/MetaSwapDeposit.sol:MetaSwapDeposit",
        "label": "_initializing",
        "offset": 1,
        "slot": "0",
        "type": "t_bool"
      },
      {
        "astId": 1659,
        "contract": "contracts/meta/MetaSwapDeposit.sol:MetaSwapDeposit",
        "label": "_status",
        "offset": 0,
        "slot": "1",
        "type": "t_uint256"
      },
      {
        "astId": 1702,
        "contract": "contracts/meta/MetaSwapDeposit.sol:MetaSwapDeposit",
        "label": "__gap",
        "offset": 0,
        "slot": "2",
        "type": "t_array(t_uint256)49_storage"
      },
      {
        "astId": 27123,
        "contract": "contracts/meta/MetaSwapDeposit.sol:MetaSwapDeposit",
        "label": "baseSwap",
        "offset": 0,
        "slot": "51",
        "type": "t_contract(ISwap)25272"
      },
      {
        "astId": 27125,
        "contract": "contracts/meta/MetaSwapDeposit.sol:MetaSwapDeposit",
        "label": "metaSwap",
        "offset": 0,
        "slot": "52",
        "type": "t_contract(IMetaSwap)24836"
      },
      {
        "astId": 27128,
        "contract": "contracts/meta/MetaSwapDeposit.sol:MetaSwapDeposit",
        "label": "baseTokens",
        "offset": 0,
        "slot": "53",
        "type": "t_array(t_contract(IERC20)3311)dyn_storage"
      },
      {
        "astId": 27131,
        "contract": "contracts/meta/MetaSwapDeposit.sol:MetaSwapDeposit",
        "label": "metaTokens",
        "offset": 0,
        "slot": "54",
        "type": "t_array(t_contract(IERC20)3311)dyn_storage"
      },
      {
        "astId": 27134,
        "contract": "contracts/meta/MetaSwapDeposit.sol:MetaSwapDeposit",
        "label": "tokens",
        "offset": 0,
        "slot": "55",
        "type": "t_array(t_contract(IERC20)3311)dyn_storage"
      },
      {
        "astId": 27136,
        "contract": "contracts/meta/MetaSwapDeposit.sol:MetaSwapDeposit",
        "label": "metaLPToken",
        "offset": 0,
        "slot": "56",
        "type": "t_contract(IERC20)3311"
      }
    ],
    "types": {
      "t_array(t_contract(IERC20)3311)dyn_storage": {
        "base": "t_contract(IERC20)3311",
        "encoding": "dynamic_array",
        "label": "contract IERC20[]",
        "numberOfBytes": "32"
      },
      "t_array(t_uint256)49_storage": {
        "base": "t_uint256",
        "encoding": "inplace",
        "label": "uint256[49]",
        "numberOfBytes": "1568"
      },
      "t_bool": {
        "encoding": "inplace",
        "label": "bool",
        "numberOfBytes": "1"
      },
      "t_contract(IERC20)3311": {
        "encoding": "inplace",
        "label": "contract IERC20",
        "numberOfBytes": "20"
      },
      "t_contract(IMetaSwap)24836": {
        "encoding": "inplace",
        "label": "contract IMetaSwap",
        "numberOfBytes": "20"
      },
      "t_contract(ISwap)25272": {
        "encoding": "inplace",
        "label": "contract ISwap",
        "numberOfBytes": "20"
      },
      "t_uint256": {
        "encoding": "inplace",
        "label": "uint256",
        "numberOfBytes": "32"
      }
    }
  }
}