{
  "address": "0xf1Dc500FdE233A4055e25e5BbF516372BC4F6871",
  "abi": [
    {
      "inputs": [
        {
          "internalType": "address",
          "name": "governance_",
          "type": "address"
        },
        {
          "internalType": "uint256",
          "name": "pausePeriod_",
          "type": "uint256"
        },
        {
          "internalType": "address",
          "name": "vestingContractTarget_",
          "type": "address"
        }
      ],
      "stateMutability": "nonpayable",
      "type": "constructor"
    },
    {
      "anonymous": false,
      "inputs": [
        {
          "indexed": true,
          "internalType": "address",
          "name": "target",
          "type": "address"
        }
      ],
      "name": "Allowed",
      "type": "event"
    },
    {
      "anonymous": false,
      "inputs": [
        {
          "indexed": true,
          "internalType": "address",
          "name": "owner",
          "type": "address"
        },
        {
          "indexed": true,
          "internalType": "address",
          "name": "spender",
          "type": "address"
        },
        {
          "indexed": false,
          "internalType": "uint256",
          "name": "value",
          "type": "uint256"
        }
      ],
      "name": "Approval",
      "type": "event"
    },
    {
      "anonymous": false,
      "inputs": [
        {
          "indexed": true,
          "internalType": "address",
          "name": "target",
          "type": "address"
        }
      ],
      "name": "Disallowed",
      "type": "event"
    },
    {
      "anonymous": false,
      "inputs": [
        {
          "indexed": false,
          "internalType": "address",
          "name": "account",
          "type": "address"
        }
      ],
      "name": "Paused",
      "type": "event"
    },
    {
      "anonymous": false,
      "inputs": [
        {
          "indexed": true,
          "internalType": "address",
          "name": "governance",
          "type": "address"
        }
      ],
      "name": "SetGovernance",
      "type": "event"
    },
    {
      "anonymous": false,
      "inputs": [
        {
          "indexed": true,
          "internalType": "address",
          "name": "from",
          "type": "address"
        },
        {
          "indexed": true,
          "internalType": "address",
          "name": "to",
          "type": "address"
        },
        {
          "indexed": false,
          "internalType": "uint256",
          "name": "value",
          "type": "uint256"
        }
      ],
      "name": "Transfer",
      "type": "event"
    },
    {
      "anonymous": false,
      "inputs": [
        {
          "indexed": false,
          "internalType": "address",
          "name": "account",
          "type": "address"
        }
      ],
      "name": "Unpaused",
      "type": "event"
    },
    {
      "anonymous": false,
      "inputs": [
        {
          "indexed": true,
          "internalType": "address",
          "name": "beneficiary",
          "type": "address"
        },
        {
          "indexed": false,
          "internalType": "address",
          "name": "vestingContract",
          "type": "address"
        }
      ],
      "name": "VestingContractDeployed",
      "type": "event"
    },
    {
      "inputs": [],
      "name": "DOMAIN_SEPARATOR",
      "outputs": [
        {
          "internalType": "bytes32",
          "name": "",
          "type": "bytes32"
        }
      ],
      "stateMutability": "view",
      "type": "function"
    },
    {
      "inputs": [],
      "name": "MAX_SUPPLY",
      "outputs": [
        {
          "internalType": "uint256",
          "name": "",
          "type": "uint256"
        }
      ],
      "stateMutability": "view",
      "type": "function"
    },
    {
      "inputs": [],
      "name": "acceptGovernance",
      "outputs": [],
      "stateMutability": "nonpayable",
      "type": "function"
    },
    {
      "inputs": [
        {
          "internalType": "address[]",
          "name": "targets",
          "type": "address[]"
        }
      ],
      "name": "addToAllowedList",
      "outputs": [],
      "stateMutability": "nonpayable",
      "type": "function"
    },
    {
      "inputs": [
        {
          "internalType": "address",
          "name": "owner",
          "type": "address"
        },
        {
          "internalType": "address",
          "name": "spender",
          "type": "address"
        }
      ],
      "name": "allowance",
      "outputs": [
        {
          "internalType": "uint256",
          "name": "",
          "type": "uint256"
        }
      ],
      "stateMutability": "view",
      "type": "function"
    },
    {
      "inputs": [
        {
          "internalType": "address",
          "name": "",
          "type": "address"
        }
      ],
      "name": "allowedTransferee",
      "outputs": [
        {
          "internalType": "bool",
          "name": "",
          "type": "bool"
        }
      ],
      "stateMutability": "view",
      "type": "function"
    },
    {
      "inputs": [],
      "name": "anyoneCanUnpauseAfter",
      "outputs": [
        {
          "internalType": "uint256",
          "name": "",
          "type": "uint256"
        }
      ],
      "stateMutability": "view",
      "type": "function"
    },
    {
      "inputs": [
        {
          "internalType": "address",
          "name": "spender",
          "type": "address"
        },
        {
          "internalType": "uint256",
          "name": "amount",
          "type": "uint256"
        }
      ],
      "name": "approve",
      "outputs": [
        {
          "internalType": "bool",
          "name": "",
          "type": "bool"
        }
      ],
      "stateMutability": "nonpayable",
      "type": "function"
    },
    {
      "inputs": [
        {
          "internalType": "address",
          "name": "account",
          "type": "address"
        }
      ],
      "name": "balanceOf",
      "outputs": [
        {
          "internalType": "uint256",
          "name": "",
          "type": "uint256"
        }
      ],
      "stateMutability": "view",
      "type": "function"
    },
    {
      "inputs": [
        {
          "internalType": "address",
          "name": "newGovernance",
          "type": "address"
        }
      ],
      "name": "changeGovernance",
      "outputs": [],
      "stateMutability": "nonpayable",
      "type": "function"
    },
    {
      "inputs": [],
      "name": "decimals",
      "outputs": [
        {
          "internalType": "uint8",
          "name": "",
          "type": "uint8"
        }
      ],
      "stateMutability": "view",
      "type": "function"
    },
    {
      "inputs": [
        {
          "internalType": "address",
          "name": "spender",
          "type": "address"
        },
        {
          "internalType": "uint256",
          "name": "subtractedValue",
          "type": "uint256"
        }
      ],
      "name": "decreaseAllowance",
      "outputs": [
        {
          "internalType": "bool",
          "name": "",
          "type": "bool"
        }
      ],
      "stateMutability": "nonpayable",
      "type": "function"
    },
    {
      "inputs": [
        {
          "components": [
            {
              "internalType": "address",
              "name": "to",
              "type": "address"
            },
            {
              "internalType": "uint256",
              "name": "amount",
              "type": "uint256"
            },
            {
              "internalType": "uint256",
              "name": "startTimestamp",
              "type": "uint256"
            },
            {
              "internalType": "uint256",
              "name": "cliffPeriod",
              "type": "uint256"
            },
            {
              "internalType": "uint256",
              "name": "durationPeriod",
              "type": "uint256"
            }
          ],
          "internalType": "struct SDL.Recipient",
          "name": "recipient",
          "type": "tuple"
        }
      ],
      "name": "deployNewVestingContract",
      "outputs": [
        {
          "internalType": "address",
          "name": "",
          "type": "address"
        }
      ],
      "stateMutability": "nonpayable",
      "type": "function"
    },
    {
      "inputs": [],
      "name": "enableTransfer",
      "outputs": [],
      "stateMutability": "nonpayable",
      "type": "function"
    },
    {
      "inputs": [],
      "name": "govCanUnpauseAfter",
      "outputs": [
        {
          "internalType": "uint256",
          "name": "",
          "type": "uint256"
        }
      ],
      "stateMutability": "view",
      "type": "function"
    },
    {
      "inputs": [],
      "name": "governance",
      "outputs": [
        {
          "internalType": "address",
          "name": "",
          "type": "address"
        }
      ],
      "stateMutability": "view",
      "type": "function"
    },
    {
      "inputs": [
        {
          "internalType": "address",
          "name": "spender",
          "type": "address"
        },
        {
          "internalType": "uint256",
          "name": "addedValue",
          "type": "uint256"
        }
      ],
      "name": "increaseAllowance",
      "outputs": [
        {
          "internalType": "bool",
          "name": "",
          "type": "bool"
        }
      ],
      "stateMutability": "nonpayable",
      "type": "function"
    },
    {
      "inputs": [],
      "name": "name",
      "outputs": [
        {
          "internalType": "string",
          "name": "",
          "type": "string"
        }
      ],
      "stateMutability": "view",
      "type": "function"
    },
    {
      "inputs": [
        {
          "internalType": "address",
          "name": "owner",
          "type": "address"
        }
      ],
      "name": "nonces",
      "outputs": [
        {
          "internalType": "uint256",
          "name": "",
          "type": "uint256"
        }
      ],
      "stateMutability": "view",
      "type": "function"
    },
    {
      "inputs": [],
      "name": "paused",
      "outputs": [
        {
          "internalType": "bool",
          "name": "",
          "type": "bool"
        }
      ],
      "stateMutability": "view",
      "type": "function"
    },
    {
      "inputs": [],
      "name": "pendingGovernance",
      "outputs": [
        {
          "internalType": "address",
          "name": "",
          "type": "address"
        }
      ],
      "stateMutability": "view",
      "type": "function"
    },
    {
      "inputs": [
        {
          "internalType": "address",
          "name": "owner",
          "type": "address"
        },
        {
          "internalType": "address",
          "name": "spender",
          "type": "address"
        },
        {
          "internalType": "uint256",
          "name": "value",
          "type": "uint256"
        },
        {
          "internalType": "uint256",
          "name": "deadline",
          "type": "uint256"
        },
        {
          "internalType": "uint8",
          "name": "v",
          "type": "uint8"
        },
        {
          "internalType": "bytes32",
          "name": "r",
          "type": "bytes32"
        },
        {
          "internalType": "bytes32",
          "name": "s",
          "type": "bytes32"
        }
      ],
      "name": "permit",
      "outputs": [],
      "stateMutability": "nonpayable",
      "type": "function"
    },
    {
      "inputs": [
        {
          "internalType": "address[]",
          "name": "targets",
          "type": "address[]"
        }
      ],
      "name": "removeFromAllowedList",
      "outputs": [],
      "stateMutability": "nonpayable",
      "type": "function"
    },
    {
      "inputs": [
        {
          "internalType": "contract IERC20",
          "name": "token",
          "type": "address"
        },
        {
          "internalType": "address payable",
          "name": "to",
          "type": "address"
        },
        {
          "internalType": "uint256",
          "name": "balance",
          "type": "uint256"
        }
      ],
      "name": "rescueTokens",
      "outputs": [],
      "stateMutability": "nonpayable",
      "type": "function"
    },
    {
      "inputs": [],
      "name": "symbol",
      "outputs": [
        {
          "internalType": "string",
          "name": "",
          "type": "string"
        }
      ],
      "stateMutability": "view",
      "type": "function"
    },
    {
      "inputs": [],
      "name": "totalSupply",
      "outputs": [
        {
          "internalType": "uint256",
          "name": "",
          "type": "uint256"
        }
      ],
      "stateMutability": "view",
      "type": "function"
    },
    {
      "inputs": [
        {
          "internalType": "address",
          "name": "recipient",
          "type": "address"
        },
        {
          "internalType": "uint256",
          "name": "amount",
          "type": "uint256"
        }
      ],
      "name": "transfer",
      "outputs": [
        {
          "internalType": "bool",
          "name": "",
          "type": "bool"
        }
      ],
      "stateMutability": "nonpayable",
      "type": "function"
    },
    {
      "inputs": [
        {
          "internalType": "address",
          "name": "sender",
          "type": "address"
        },
        {
          "internalType": "address",
          "name": "recipient",
          "type": "address"
        },
        {
          "internalType": "uint256",
          "name": "amount",
          "type": "uint256"
        }
      ],
      "name": "transferFrom",
      "outputs": [
        {
          "internalType": "bool",
          "name": "",
          "type": "bool"
        }
      ],
      "stateMutability": "nonpayable",
      "type": "function"
    },
    {
      "inputs": [],
      "name": "vestingContractTarget",
      "outputs": [
        {
          "internalType": "address",
          "name": "",
          "type": "address"
        }
      ],
      "stateMutability": "view",
      "type": "function"
    }
  ],
  "transactionHash": "0x35da3d03401ad6e6993bfb64ee0093ca3ffc0c2845700be0dce35decc98fc36e",
  "args": [
    "0x5BDb37d0Ddea3A90F233c7B7F6b9394B6b2eef34",
    7890000,
    "0xf8504e92428d65E56e495684A38f679C1B1DC30b"
  ],
  "solcInputHash": "af4196fa2def37a1783574347c2c49c1",
  "bytecode": "0x6101a06040527f6e71edae12b1b97f4d1f60370fef10105fa2faae0126114a169c64845d6126c9610120523480156200003757600080fd5b5060405162002f3338038062002f338339810160408190526200005a91620006fe565b6040518060400160405280600a815260200169536164646c652044414f60b01b81525080604051806040016040528060018152602001603160f81b8152506040518060400160405280600a815260200169536164646c652044414f60b01b8152506040518060400160405280600381526020016214d11360ea1b8152508160039080519060200190620000ef9291906200063b565b508051620001059060049060208401906200063b565b5050825160209384012082519284019290922060c083815260e08290524660a0818152604080517f8b73c3c69bb8fe3d512ecc4cf759cc79239f7b179b0ffacaa9a75d522b39400f818a018190528183019890985260608101959095526080808601939093523085830152805180860390920182529390920190925280519401939093209092526101005250506006805460ff191690556001600160a01b038316620001f85760405162461bcd60e51b815260206004820152601f60248201527f53444c3a20676f7665726e616e63652063616e6e6f7420626520656d7074790060448201526064015b60405180910390fd5b6001600160a01b038116620002655760405162461bcd60e51b815260206004820152602c60248201527f53444c3a2076657374696e6720636f6e7472616374207461726765742063616e60448201526b6e6f7420626520656d70747960a01b6064820152608401620001ef565b6000821180156200027a57506301dfe2008211155b620002e35760405162461bcd60e51b815260206004820152603260248201527f53444c3a207061757365506572696f64206d75737420626520696e206265747760448201527165656e203020616e64203532207765656b7360701b6064820152608401620001ef565b606081901b6001600160601b0319166101805260068054610100600160a81b0319166101006001600160a01b038616021790556200032282426200073f565b6101405262000336426301dfe2006200073f565b610160526001600160a01b038084166000908152600860205260409020805460ff191660011790556006546200038091610100909104166b033b2e3c9fd0803ce8000000620003ce565b8115620003915762000391620004c1565b6040516001600160a01b038416907f24a8c4807b324a269a51827c3446b8ac1cc13810d7d0c0ca1efafabddd7b621990600090a2505050620007a3565b6001600160a01b038216620004265760405162461bcd60e51b815260206004820152601f60248201527f45524332303a206d696e7420746f20746865207a65726f2061646472657373006044820152606401620001ef565b62000434600083836200055c565b80600260008282546200044891906200073f565b90915550506001600160a01b03821660009081526020819052604081208054839290620004779084906200073f565b90915550506040518181526001600160a01b038316906000907fddf252ad1be2c89b69c2b068fc378daa952ba7f163c4a11628f55a4df523b3ef9060200160405180910390a35050565b60065460ff1615620005095760405162461bcd60e51b815260206004820152601060248201526f14185d5cd8589b194e881c185d5cd95960821b6044820152606401620001ef565b6006805460ff191660011790557f62e78cea01bee320cd4e420270b5ea74000d11b0c9f74754ebdbfc544b05a2586200053f3390565b6040516001600160a01b03909116815260200160405180910390a1565b620005748383836200063660201b620012b71760201c565b60065460ff1615806200059f57506001600160a01b03831660009081526008602052604090205460ff165b620005db5760405162461bcd60e51b815260206004820152600b60248201526a14d1130e881c185d5cd95960aa1b6044820152606401620001ef565b6001600160a01b038216301415620006365760405162461bcd60e51b815260206004820152601660248201527f53444c3a20696e76616c696420726563697069656e74000000000000000000006044820152606401620001ef565b505050565b828054620006499062000766565b90600052602060002090601f0160209004810192826200066d5760008555620006b8565b82601f106200068857805160ff1916838001178555620006b8565b82800160010185558215620006b8579182015b82811115620006b85782518255916020019190600101906200069b565b50620006c6929150620006ca565b5090565b5b80821115620006c65760008155600101620006cb565b80516001600160a01b0381168114620006f957600080fd5b919050565b6000806000606084860312156200071457600080fd5b6200071f84620006e1565b9250602084015191506200073660408501620006e1565b90509250925092565b600082198211156200076157634e487b7160e01b600052601160045260246000fd5b500190565b600181811c908216806200077b57607f821691505b602082108114156200079d57634e487b7160e01b600052602260045260246000fd5b50919050565b60805160a05160c05160e051610100516101205161014051610160516101805160601c6127076200082c6000396000818161040e0152610e10015260008181610299015261148e01526000818161036d01526114b401526000611310015260006119000152600061194f0152600061192a015260006118ae015260006118d701526127076000f3fe608060405234801561001057600080fd5b50600436106101cf5760003560e01c806370a0823111610104578063a9059cbb116100a2578063d5dbfbd711610071578063d5dbfbd714610409578063dd62ed3e14610430578063f1b50c1d14610469578063f39c38a01461047157600080fd5b8063a9059cbb146103bd578063c643b577146103d0578063cea9d26f146103e3578063d505accf146103f657600080fd5b806392e7c85e116100de57806392e7c85e1461036857806395d89b411461038f57806399572d6f14610397578063a457c2d7146103aa57600080fd5b806370a08231146103195780637ecebe0014610342578063885ad0cf1461035557600080fd5b80633644e5151161017157806359baed071161014b57806359baed07146102945780635aa6e675146102bb5780635c975abb146102eb5780635d4545a0146102f657600080fd5b80633644e51514610266578063395093511461026e5780633c8d76d11461028157600080fd5b8063238efcbc116101ad578063238efcbc1461022757806323b872dd14610231578063313ce5671461024457806332cb6b0c1461025357600080fd5b806306fdde03146101d4578063095ea7b3146101f257806318160ddd14610215575b600080fd5b6101dc610484565b6040516101e991906124c4565b60405180910390f35b61020561020036600461230f565b610516565b60405190151581526020016101e9565b6002545b6040519081526020016101e9565b61022f61052c565b005b61020561023f366004612257565b6106b6565b604051601281526020016101e9565b6102196b033b2e3c9fd0803ce800000081565b610219610777565b61020561027c36600461230f565b610786565b61022f61028f36600461233b565b6107c2565b6102197f000000000000000000000000000000000000000000000000000000000000000081565b6006546102d39061010090046001600160a01b031681565b6040516001600160a01b0390911681526020016101e9565b60065460ff16610205565b610205610304366004612201565b60086020526000908152604090205460ff1681565b610219610327366004612201565b6001600160a01b031660009081526020819052604090205490565b610219610350366004612201565b610918565b61022f61036336600461233b565b610938565b6102197f000000000000000000000000000000000000000000000000000000000000000081565b6101dc610a8a565b61022f6103a5366004612201565b610a99565b6102056103b836600461230f565b610c40565b6102056103cb36600461230f565b610cf1565b6102d36103de366004612416565b610cfe565b61022f6103f1366004612257565b610f9d565b61022f610404366004612298565b6112bc565b6102d37f000000000000000000000000000000000000000000000000000000000000000081565b61021961043e36600461221e565b6001600160a01b03918216600090815260016020908152604080832093909416825291909152205490565b61022f611420565b6007546102d3906001600160a01b031681565b606060038054610493906125a8565b80601f01602080910402602001604051908101604052809291908181526020018280546104bf906125a8565b801561050c5780601f106104e15761010080835404028352916020019161050c565b820191906000526020600020905b8154815290600101906020018083116104ef57829003601f168201915b5050505050905090565b6000610523338484611530565b50600192915050565b6007546001600160a01b0316806105b05760405162461bcd60e51b815260206004820152602560248201527f6368616e6765476f7665726e616e6365206d7573742062652063616c6c65642060448201527f666972737400000000000000000000000000000000000000000000000000000060648201526084015b60405180910390fd5b336001600160a01b0382161461062e5760405162461bcd60e51b815260206004820152602b60248201527f6f6e6c792070656e64696e67476f7665726e616e63652063616e20616363657060448201527f74207468697320726f6c6500000000000000000000000000000000000000000060648201526084016105a7565b600780547fffffffffffffffffffffffff0000000000000000000000000000000000000000169055600680547fffffffffffffffffffffff0000000000000000000000000000000000000000ff1661010033908102919091179091556040517f24a8c4807b324a269a51827c3446b8ac1cc13810d7d0c0ca1efafabddd7b621990600090a250565b60006106c3848484611688565b6001600160a01b03841660009081526001602090815260408083203384529091529020548281101561075d5760405162461bcd60e51b815260206004820152602860248201527f45524332303a207472616e7366657220616d6f756e742065786365656473206160448201527f6c6c6f77616e636500000000000000000000000000000000000000000000000060648201526084016105a7565b61076a8533858403611530565b60019150505b9392505050565b60006107816118aa565b905090565b3360008181526001602090815260408083206001600160a01b038716845290915281205490916105239185906107bd908690612564565b611530565b60065461010090046001600160a01b0316336001600160a01b0316146108505760405162461bcd60e51b815260206004820152602760248201527f6f6e6c7920676f7665726e616e63652063616e20706572666f726d207468697360448201527f20616374696f6e0000000000000000000000000000000000000000000000000060648201526084016105a7565b60005b8151811015610914576000600860008484815181106108745761087461265e565b60200260200101516001600160a01b03166001600160a01b0316815260200190815260200160002060006101000a81548160ff0219169083151502179055508181815181106108c5576108c561265e565b60200260200101516001600160a01b03167f9ef90a89b00db1a1891a357dc96b2a273add9d883e378c350d22bad87a9d7d3060405160405180910390a28061090c816125f6565b915050610853565b5050565b6001600160a01b0381166000908152600560205260408120545b92915050565b60065461010090046001600160a01b0316336001600160a01b0316146109c65760405162461bcd60e51b815260206004820152602760248201527f6f6e6c7920676f7665726e616e63652063616e20706572666f726d207468697360448201527f20616374696f6e0000000000000000000000000000000000000000000000000060648201526084016105a7565b60005b8151811015610914576001600860008484815181106109ea576109ea61265e565b60200260200101516001600160a01b03166001600160a01b0316815260200190815260200160002060006101000a81548160ff021916908315150217905550818181518110610a3b57610a3b61265e565b60200260200101516001600160a01b03167f77a7dbc6ad97703ad411a8d5edfcd1df382fb34b076a90898b11884f7ebdcc0560405160405180910390a280610a82816125f6565b9150506109c9565b606060048054610493906125a8565b60065461010090046001600160a01b0316336001600160a01b031614610b275760405162461bcd60e51b815260206004820152602760248201527f6f6e6c7920676f7665726e616e63652063616e20706572666f726d207468697360448201527f20616374696f6e0000000000000000000000000000000000000000000000000060648201526084016105a7565b6006546001600160a01b03828116610100909204161415610bb05760405162461bcd60e51b815260206004820152602d60248201527f676f7665726e616e6365206d75737420626520646966666572656e742066726f60448201527f6d2063757272656e74206f6e650000000000000000000000000000000000000060648201526084016105a7565b6001600160a01b038116610c065760405162461bcd60e51b815260206004820152601a60248201527f676f7665726e616e63652063616e6e6f7420626520656d70747900000000000060448201526064016105a7565b600780547fffffffffffffffffffffffff0000000000000000000000000000000000000000166001600160a01b0392909216919091179055565b3360009081526001602090815260408083206001600160a01b038616845290915281205482811015610cda5760405162461bcd60e51b815260206004820152602560248201527f45524332303a2064656372656173656420616c6c6f77616e63652062656c6f7760448201527f207a65726f00000000000000000000000000000000000000000000000000000060648201526084016105a7565b610ce73385858403611530565b5060019392505050565b6000610523338484611688565b60065460009061010090046001600160a01b0316336001600160a01b031614610d8f5760405162461bcd60e51b815260206004820152602760248201527f6f6e6c7920676f7665726e616e63652063616e20706572666f726d207468697360448201527f20616374696f6e0000000000000000000000000000000000000000000000000060648201526084016105a7565b6000826080015111610e095760405162461bcd60e51b815260206004820152602560248201527f53444c3a206475726174696f6e20666f722076657374696e672063616e6e6f7460448201527f206265203000000000000000000000000000000000000000000000000000000060648201526084016105a7565b6000610e347f000000000000000000000000000000000000000000000000000000000000000061199d565b83516040808601516060870151608088015192517fd13f90b40000000000000000000000000000000000000000000000000000000081523060048201526001600160a01b03948516602482015260448101929092526064820152608481019190915291925082169063d13f90b49060a401600060405180830381600087803b158015610ebf57600080fd5b505af1158015610ed3573d6000803e3d6000fd5b5050506020840151610eeb9150309033908490611a53565b6001600160a01b03811660008181526008602052604080822080547fffffffffffffffffffffffffffffffffffffffffffffffffffffffffffffff00166001179055517f77a7dbc6ad97703ad411a8d5edfcd1df382fb34b076a90898b11884f7ebdcc059190a282516040516001600160a01b038381168252909116907f739fe22b8edefd6ce1fe32460f9cd54bf8e66fc7447f4c8a8131ce078a1988af9060200160405180910390a290505b919050565b60065461010090046001600160a01b0316336001600160a01b03161461102b5760405162461bcd60e51b815260206004820152602760248201527f6f6e6c7920676f7665726e616e63652063616e20706572666f726d207468697360448201527f20616374696f6e0000000000000000000000000000000000000000000000000060648201526084016105a7565b6001600160a01b0382166110815760405162461bcd60e51b815260206004820152601660248201527f53444c3a20696e76616c696420726563697069656e740000000000000000000060448201526064016105a7565b6001600160a01b0383166111a3574781156110a5576110a08183611b22565b6110a7565b805b9150600082116110f95760405162461bcd60e51b815260206004820152601960248201527f53444c3a20747279696e6720746f2073656e642030204554480000000000000060448201526064016105a7565b6000836001600160a01b03168360405160006040518083038185875af1925050503d8060008114611146576040519150601f19603f3d011682016040523d82523d6000602084013e61114b565b606091505b505090508061119c5760405162461bcd60e51b815260206004820152601860248201527f53444c3a20455448207472616e73666572206661696c6564000000000000000060448201526064016105a7565b5050505050565b6040517f70a082310000000000000000000000000000000000000000000000000000000081523060048201526000906001600160a01b038516906370a082319060240160206040518083038186803b1580156111fe57600080fd5b505afa158015611212573d6000803e3d6000fd5b505050506040513d601f19601f82011682018060405250810190611236919061248f565b9050811561124d576112488183611b22565b61124f565b805b9150600082116112a15760405162461bcd60e51b815260206004820152601d60248201527f53444c3a20747279696e6720746f2073656e6420302062616c616e636500000060448201526064016105a7565b6112b56001600160a01b0385168484611b38565b505b505050565b8342111561130c5760405162461bcd60e51b815260206004820152601d60248201527f45524332305065726d69743a206578706972656420646561646c696e6500000060448201526064016105a7565b60007f000000000000000000000000000000000000000000000000000000000000000088888861133b8c611b81565b6040805160208101969096526001600160a01b0394851690860152929091166060840152608083015260a082015260c0810186905260e001604051602081830303815290604052805190602001209050600061139682611ba9565b905060006113a682878787611c12565b9050896001600160a01b0316816001600160a01b0316146114095760405162461bcd60e51b815260206004820152601e60248201527f45524332305065726d69743a20696e76616c6964207369676e6174757265000060448201526064016105a7565b6114148a8a8a611530565b50505050505050505050565b60065460ff166114725760405162461bcd60e51b815260206004820152601860248201527f53444c3a207472616e7366657220697320656e61626c6564000000000000000060448201526064016105a7565b60065460009061010090046001600160a01b031633146114b2577f00000000000000000000000000000000000000000000000000000000000000006114d4565b7f00000000000000000000000000000000000000000000000000000000000000005b90508042116115255760405162461bcd60e51b815260206004820152601f60248201527f53444c3a2063616e6e6f7420656e61626c65207472616e73666572207965740060448201526064016105a7565b61152d611e0f565b50565b6001600160a01b0383166115ab5760405162461bcd60e51b8152602060048201526024808201527f45524332303a20617070726f76652066726f6d20746865207a65726f2061646460448201527f726573730000000000000000000000000000000000000000000000000000000060648201526084016105a7565b6001600160a01b0382166116275760405162461bcd60e51b815260206004820152602260248201527f45524332303a20617070726f766520746f20746865207a65726f20616464726560448201527f737300000000000000000000000000000000000000000000000000000000000060648201526084016105a7565b6001600160a01b0383811660008181526001602090815260408083209487168084529482529182902085905590518481527f8c5be1e5ebec7d5bd14f71427d1e84f3dd0314c0f7b2291e5b200ac8c7c3b925910160405180910390a3505050565b6001600160a01b0383166117045760405162461bcd60e51b815260206004820152602560248201527f45524332303a207472616e736665722066726f6d20746865207a65726f20616460448201527f647265737300000000000000000000000000000000000000000000000000000060648201526084016105a7565b6001600160a01b0382166117805760405162461bcd60e51b815260206004820152602360248201527f45524332303a207472616e7366657220746f20746865207a65726f206164647260448201527f657373000000000000000000000000000000000000000000000000000000000060648201526084016105a7565b61178b838383611ebe565b6001600160a01b0383166000908152602081905260409020548181101561181a5760405162461bcd60e51b815260206004820152602660248201527f45524332303a207472616e7366657220616d6f756e742065786365656473206260448201527f616c616e6365000000000000000000000000000000000000000000000000000060648201526084016105a7565b6001600160a01b03808516600090815260208190526040808220858503905591851681529081208054849290611851908490612564565b92505081905550826001600160a01b0316846001600160a01b03167fddf252ad1be2c89b69c2b068fc378daa952ba7f163c4a11628f55a4df523b3ef8460405161189d91815260200190565b60405180910390a36112b5565b60007f00000000000000000000000000000000000000000000000000000000000000004614156118f957507f000000000000000000000000000000000000000000000000000000000000000090565b50604080517f00000000000000000000000000000000000000000000000000000000000000006020808301919091527f0000000000000000000000000000000000000000000000000000000000000000828401527f000000000000000000000000000000000000000000000000000000000000000060608301524660808301523060a0808401919091528351808403909101815260c0909201909252805191012090565b60006040517f3d602d80600a3d3981f3363d3d373d3d3d363d7300000000000000000000000081528260601b60148201527f5af43d82803e903d91602b57fd5bf3000000000000000000000000000000000060288201526037816000f09150506001600160a01b038116610f985760405162461bcd60e51b815260206004820152601660248201527f455243313136373a20637265617465206661696c65640000000000000000000060448201526064016105a7565b6040516001600160a01b03808516602483015283166044820152606481018290526112b59085907f23b872dd00000000000000000000000000000000000000000000000000000000906084015b604080517fffffffffffffffffffffffffffffffffffffffffffffffffffffffffffffffe08184030181529190526020810180517bffffffffffffffffffffffffffffffffffffffffffffffffffffffff167fffffffff0000000000000000000000000000000000000000000000000000000090931692909217909152611f8d565b6000818310611b315781610770565b5090919050565b6040516001600160a01b0383166024820152604481018290526112b79084907fa9059cbb0000000000000000000000000000000000000000000000000000000090606401611aa0565b6001600160a01b03811660009081526005602052604090208054600181018255905b50919050565b6000610932611bb66118aa565b836040517f19010000000000000000000000000000000000000000000000000000000000006020820152602281018390526042810182905260009060620160405160208183030381529060405280519060200120905092915050565b60007f7fffffffffffffffffffffffffffffff5d576e7357a4501ddfe92f46681b20a0821115611caa5760405162461bcd60e51b815260206004820152602260248201527f45434453413a20696e76616c6964207369676e6174757265202773272076616c60448201527f756500000000000000000000000000000000000000000000000000000000000060648201526084016105a7565b8360ff16601b1480611cbf57508360ff16601c145b611d315760405162461bcd60e51b815260206004820152602260248201527f45434453413a20696e76616c6964207369676e6174757265202776272076616c60448201527f756500000000000000000000000000000000000000000000000000000000000060648201526084016105a7565b6040805160008082526020820180845288905260ff871692820192909252606081018590526080810184905260019060a0016020604051602081039080840390855afa158015611d85573d6000803e3d6000fd5b50506040517fffffffffffffffffffffffffffffffffffffffffffffffffffffffffffffffe001519150506001600160a01b038116611e065760405162461bcd60e51b815260206004820152601860248201527f45434453413a20696e76616c6964207369676e6174757265000000000000000060448201526064016105a7565b95945050505050565b60065460ff16611e615760405162461bcd60e51b815260206004820152601460248201527f5061757361626c653a206e6f742070617573656400000000000000000000000060448201526064016105a7565b600680547fffffffffffffffffffffffffffffffffffffffffffffffffffffffffffffff001690556040805133815290517f5db9ee0a495bf2e6ff9c91a7834c1ba4fdd244a5e8aa4e537bd38aeae4b073aa9181900360200190a1565b60065460ff161580611ee857506001600160a01b03831660009081526008602052604090205460ff165b611f345760405162461bcd60e51b815260206004820152600b60248201527f53444c3a2070617573656400000000000000000000000000000000000000000060448201526064016105a7565b6001600160a01b0382163014156112b75760405162461bcd60e51b815260206004820152601660248201527f53444c3a20696e76616c696420726563697069656e740000000000000000000060448201526064016105a7565b6000611fe2826040518060400160405280602081526020017f5361666545524332303a206c6f772d6c6576656c2063616c6c206661696c6564815250856001600160a01b03166120729092919063ffffffff16565b8051909150156112b7578080602001905181019061200091906123f4565b6112b75760405162461bcd60e51b815260206004820152602a60248201527f5361666545524332303a204552433230206f7065726174696f6e20646964206e60448201527f6f7420737563636565640000000000000000000000000000000000000000000060648201526084016105a7565b60606120818484600085612089565b949350505050565b6060824710156121015760405162461bcd60e51b815260206004820152602660248201527f416464726573733a20696e73756666696369656e742062616c616e636520666f60448201527f722063616c6c000000000000000000000000000000000000000000000000000060648201526084016105a7565b843b61214f5760405162461bcd60e51b815260206004820152601d60248201527f416464726573733a2063616c6c20746f206e6f6e2d636f6e747261637400000060448201526064016105a7565b600080866001600160a01b0316858760405161216b91906124a8565b60006040518083038185875af1925050503d80600081146121a8576040519150601f19603f3d011682016040523d82523d6000602084013e6121ad565b606091505b50915091506121bd8282866121c8565b979650505050505050565b606083156121d7575081610770565b8251156121e75782518084602001fd5b8160405162461bcd60e51b81526004016105a791906124c4565b60006020828403121561221357600080fd5b8135610770816126bc565b6000806040838503121561223157600080fd5b823561223c816126bc565b9150602083013561224c816126bc565b809150509250929050565b60008060006060848603121561226c57600080fd5b8335612277816126bc565b92506020840135612287816126bc565b929592945050506040919091013590565b600080600080600080600060e0888a0312156122b357600080fd5b87356122be816126bc565b965060208801356122ce816126bc565b95506040880135945060608801359350608088013560ff811681146122f257600080fd5b9699959850939692959460a0840135945060c09093013592915050565b6000806040838503121561232257600080fd5b823561232d816126bc565b946020939093013593505050565b6000602080838503121561234e57600080fd5b823567ffffffffffffffff8082111561236657600080fd5b818501915085601f83011261237a57600080fd5b81358181111561238c5761238c61268d565b8060051b915061239d848301612515565b8181528481019084860184860187018a10156123b857600080fd5b600095505b838610156123e757803594506123d2856126bc565b848352600195909501949186019186016123bd565b5098975050505050505050565b60006020828403121561240657600080fd5b8151801515811461077057600080fd5b600060a0828403121561242857600080fd5b60405160a0810181811067ffffffffffffffff8211171561244b5761244b61268d565b6040528235612459816126bc565b80825250602083013560208201526040830135604082015260608301356060820152608083013560808201528091505092915050565b6000602082840312156124a157600080fd5b5051919050565b600082516124ba81846020870161257c565b9190910192915050565b60208152600082518060208401526124e381604085016020870161257c565b601f017fffffffffffffffffffffffffffffffffffffffffffffffffffffffffffffffe0169190910160400192915050565b604051601f82017fffffffffffffffffffffffffffffffffffffffffffffffffffffffffffffffe016810167ffffffffffffffff8111828210171561255c5761255c61268d565b604052919050565b600082198211156125775761257761262f565b500190565b60005b8381101561259757818101518382015260200161257f565b838111156112b55750506000910152565b600181811c908216806125bc57607f821691505b60208210811415611ba3577f4e487b7100000000000000000000000000000000000000000000000000000000600052602260045260246000fd5b60007fffffffffffffffffffffffffffffffffffffffffffffffffffffffffffffffff8214156126285761262861262f565b5060010190565b7f4e487b7100000000000000000000000000000000000000000000000000000000600052601160045260246000fd5b7f4e487b7100000000000000000000000000000000000000000000000000000000600052603260045260246000fd5b7f4e487b7100000000000000000000000000000000000000000000000000000000600052604160045260246000fd5b6001600160a01b038116811461152d57600080fdfea264697066735822122045aa76bc4f5106cb053e3dc1f3dbc3b38e547c4279890480784224f37b03273f64736f6c63430008060033",
  "devdoc": {
    "kind": "dev",
    "methods": {
      "DOMAIN_SEPARATOR()": {
        "details": "See {IERC20Permit-DOMAIN_SEPARATOR}."
      },
      "acceptGovernance()": {
        "details": "`changeGovernance` must be called first to set `pendingGovernance`"
      },
      "addToAllowedList(address[])": {
        "params": {
          "targets": "Array of addresses to add"
        }
      },
      "allowance(address,address)": {
        "details": "See {IERC20-allowance}."
      },
      "approve(address,uint256)": {
        "details": "See {IERC20-approve}. Requirements: - `spender` cannot be the zero address."
      },
      "balanceOf(address)": {
        "details": "See {IERC20-balanceOf}."
      },
      "changeGovernance(address)": {
        "details": "Only governance can call this function. The new governance must call `acceptGovernance` after.",
        "params": {
          "newGovernance": "new address to become the governance"
        }
      },
      "constructor": {
        "params": {
          "governance_": "address of the governance who will own this contract",
          "pausePeriod_": "time in seconds since the deployment. After this period, this token can be unpaused by the governance.",
          "vestingContractTarget_": "logic contract of Vesting.sol to use for cloning"
        }
      },
      "decimals()": {
        "details": "Returns the number of decimals used to get its user representation. For example, if `decimals` equals `2`, a balance of `505` tokens should be displayed to a user as `5,05` (`505 / 10 ** 2`). Tokens usually opt for a value of 18, imitating the relationship between Ether and Wei. This is the value {ERC20} uses, unless this function is overridden; NOTE: This information is only used for _display_ purposes: it in no way affects any of the arithmetic of the contract, including {IERC20-balanceOf} and {IERC20-transfer}."
      },
      "decreaseAllowance(address,uint256)": {
        "details": "Atomically decreases the allowance granted to `spender` by the caller. This is an alternative to {approve} that can be used as a mitigation for problems described in {IERC20-approve}. Emits an {Approval} event indicating the updated allowance. Requirements: - `spender` cannot be the zero address. - `spender` must have allowance for the caller of at least `subtractedValue`."
      },
      "deployNewVestingContract((address,uint256,uint256,uint256,uint256))": {
        "params": {
          "recipient": "Recipient of the token through the vesting schedule."
        }
      },
      "enableTransfer()": {
        "details": "When the transfer is not enabled, only those in allowedTransferee array can transfer this token."
      },
      "increaseAllowance(address,uint256)": {
        "details": "Atomically increases the allowance granted to `spender` by the caller. This is an alternative to {approve} that can be used as a mitigation for problems described in {IERC20-approve}. Emits an {Approval} event indicating the updated allowance. Requirements: - `spender` cannot be the zero address."
      },
      "name()": {
        "details": "Returns the name of the token."
      },
      "nonces(address)": {
        "details": "See {IERC20Permit-nonces}."
      },
      "paused()": {
        "details": "Returns true if the contract is paused, and false otherwise."
      },
      "permit(address,address,uint256,uint256,uint8,bytes32,bytes32)": {
        "details": "See {IERC20Permit-permit}."
      },
      "removeFromAllowedList(address[])": {
        "params": {
          "targets": "Array of addresses to remove"
        }
      },
      "rescueTokens(address,address,uint256)": {
        "details": "Method to claim junk and accidentally sent tokens. This will be only used to rescue tokens that are mistakenly sent by users to this contract.",
        "params": {
          "balance": "Amount to transfer out. Set to 0 to select all available amount.",
          "to": "Destination address that will receive the tokens.",
          "token": "Address of the ERC20 token to transfer out. Set to address(0) to transfer ether instead."
        }
      },
      "symbol()": {
        "details": "Returns the symbol of the token, usually a shorter version of the name."
      },
      "totalSupply()": {
        "details": "See {IERC20-totalSupply}."
      },
      "transfer(address,uint256)": {
        "details": "See {IERC20-transfer}. Requirements: - `recipient` cannot be the zero address. - the caller must have a balance of at least `amount`."
      },
      "transferFrom(address,address,uint256)": {
        "details": "See {IERC20-transferFrom}. Emits an {Approval} event indicating the updated allowance. This is not required by the EIP. See the note at the beginning of {ERC20}. Requirements: - `sender` and `recipient` cannot be the zero address. - `sender` must have a balance of at least `amount`. - the caller must have allowance for ``sender``'s tokens of at least `amount`."
      }
    },
    "title": "Saddle DAO token",
    "version": 1
  },
  "userdoc": {
    "kind": "user",
    "methods": {
      "acceptGovernance()": {
        "notice": "Accept the new role of governance"
      },
      "addToAllowedList(address[])": {
        "notice": "Add the given addresses to the list of allowed addresses that can transfer during paused period. Governance will add auxiliary contracts to the allowed list to facilitate distribution during the paused period."
      },
      "changeGovernance(address)": {
        "notice": "Changes governance of this contract"
      },
      "constructor": {
        "notice": "Initializes SDL token with specified governance address and recipients. For vesting durations and amounts, please refer to our documentation on token distribution schedule."
      },
      "deployNewVestingContract((address,uint256,uint256,uint256,uint256))": {
        "notice": "Deploys a clone of the vesting contract for the given recipient. Details about vesting and token release schedule can be found on https://docs.saddle.finance"
      },
      "enableTransfer()": {
        "notice": "Changes the transferability of this token."
      },
      "removeFromAllowedList(address[])": {
        "notice": "Remove the given addresses from the list of allowed addresses that can transfer during paused period."
      },
      "rescueTokens(address,address,uint256)": {
        "notice": "Transfers any stuck tokens or ether out to the given destination."
      }
    },
    "notice": "A token that is deployed with fixed amount and appropriate vesting contracts. Transfer is blocked for a period of time until the governance can toggle the transferability.",
    "version": 1
  },
  "storageLayout": {
    "storage": [
      {
        "astId": 337,
        "contract": "contracts/SDL.sol:SDL",
        "label": "_balances",
        "offset": 0,
        "slot": "0",
        "type": "t_mapping(t_address,t_uint256)"
      },
      {
        "astId": 343,
        "contract": "contracts/SDL.sol:SDL",
        "label": "_allowances",
        "offset": 0,
        "slot": "1",
        "type": "t_mapping(t_address,t_mapping(t_address,t_uint256))"
      },
      {
        "astId": 345,
        "contract": "contracts/SDL.sol:SDL",
        "label": "_totalSupply",
        "offset": 0,
        "slot": "2",
        "type": "t_uint256"
      },
      {
        "astId": 347,
        "contract": "contracts/SDL.sol:SDL",
        "label": "_name",
        "offset": 0,
        "slot": "3",
        "type": "t_string_storage"
      },
      {
        "astId": 349,
        "contract": "contracts/SDL.sol:SDL",
        "label": "_symbol",
        "offset": 0,
        "slot": "4",
        "type": "t_string_storage"
      },
      {
        "astId": 1695,
        "contract": "contracts/SDL.sol:SDL",
        "label": "_nonces",
        "offset": 0,
        "slot": "5",
        "type": "t_mapping(t_address,t_struct(Counter)2424_storage)"
      },
      {
        "astId": 247,
        "contract": "contracts/SDL.sol:SDL",
        "label": "_paused",
        "offset": 0,
        "slot": "6",
        "type": "t_bool"
      },
      {
        "astId": 4249,
        "contract": "contracts/SDL.sol:SDL",
        "label": "governance",
        "offset": 1,
        "slot": "6",
        "type": "t_address"
      },
      {
        "astId": 4251,
        "contract": "contracts/SDL.sol:SDL",
        "label": "pendingGovernance",
        "offset": 0,
        "slot": "7",
        "type": "t_address"
      },
      {
        "astId": 3768,
        "contract": "contracts/SDL.sol:SDL",
        "label": "allowedTransferee",
        "offset": 0,
        "slot": "8",
        "type": "t_mapping(t_address,t_bool)"
      }
    ],
    "types": {
      "t_address": {
        "encoding": "inplace",
        "label": "address",
        "numberOfBytes": "20"
      },
      "t_bool": {
        "encoding": "inplace",
        "label": "bool",
        "numberOfBytes": "1"
      },
      "t_mapping(t_address,t_bool)": {
        "encoding": "mapping",
        "key": "t_address",
        "label": "mapping(address => bool)",
        "numberOfBytes": "32",
        "value": "t_bool"
      },
      "t_mapping(t_address,t_mapping(t_address,t_uint256))": {
        "encoding": "mapping",
        "key": "t_address",
        "label": "mapping(address => mapping(address => uint256))",
        "numberOfBytes": "32",
        "value": "t_mapping(t_address,t_uint256)"
      },
      "t_mapping(t_address,t_struct(Counter)2424_storage)": {
        "encoding": "mapping",
        "key": "t_address",
        "label": "mapping(address => struct Counters.Counter)",
        "numberOfBytes": "32",
        "value": "t_struct(Counter)2424_storage"
      },
      "t_mapping(t_address,t_uint256)": {
        "encoding": "mapping",
        "key": "t_address",
        "label": "mapping(address => uint256)",
        "numberOfBytes": "32",
        "value": "t_uint256"
      },
      "t_string_storage": {
        "encoding": "bytes",
        "label": "string",
        "numberOfBytes": "32"
      },
      "t_struct(Counter)2424_storage": {
        "encoding": "inplace",
        "label": "struct Counters.Counter",
        "members": [
          {
            "astId": 2423,
            "contract": "contracts/SDL.sol:SDL",
            "label": "_value",
            "offset": 0,
            "slot": "0",
            "type": "t_uint256"
          }
        ],
        "numberOfBytes": "32"
      },
      "t_uint256": {
        "encoding": "inplace",
        "label": "uint256",
        "numberOfBytes": "32"
      }
    }
  }
}