{
  "address": "0x4C6A2bE3D64048a0624568F91720a8f3884eBfd8",
  "abi": [
    {
      "inputs": [
        {
          "internalType": "bool",
          "name": "_isWhitelistEnabled",
          "type": "bool"
        }
      ],
      "stateMutability": "nonpayable",
      "type": "constructor"
    },
    {
      "anonymous": false,
      "inputs": [
        {
          "indexed": false,
          "internalType": "address",
          "name": "",
          "type": "address"
        }
      ],
      "name": "ApproveWallet",
      "type": "event"
    },
    {
      "anonymous": false,
      "inputs": [
        {
          "indexed": true,
          "internalType": "address",
          "name": "previousOwner",
          "type": "address"
        },
        {
          "indexed": true,
          "internalType": "address",
          "name": "newOwner",
          "type": "address"
        }
      ],
      "name": "OwnershipTransferred",
      "type": "event"
    },
    {
      "anonymous": false,
      "inputs": [
        {
          "indexed": false,
          "internalType": "address",
          "name": "",
          "type": "address"
        }
      ],
      "name": "RevokeWallet",
      "type": "event"
    },
    {
      "anonymous": false,
      "inputs": [
        {
          "indexed": false,
          "internalType": "bool",
          "name": "",
          "type": "bool"
        }
      ],
      "name": "WhitelistEnabled",
      "type": "event"
    },
    {
      "inputs": [],
      "name": "applySetChecker",
      "outputs": [],
      "stateMutability": "nonpayable",
      "type": "function"
    },
    {
      "inputs": [
        {
          "internalType": "address",
          "name": "_wallet",
          "type": "address"
        }
      ],
      "name": "approveWallet",
      "outputs": [],
      "stateMutability": "nonpayable",
      "type": "function"
    },
    {
      "inputs": [
        {
          "internalType": "address",
          "name": "_wallet",
          "type": "address"
        }
      ],
      "name": "check",
      "outputs": [
        {
          "internalType": "bool",
          "name": "",
          "type": "bool"
        }
      ],
      "stateMutability": "view",
      "type": "function"
    },
    {
      "inputs": [],
      "name": "checker",
      "outputs": [
        {
          "internalType": "address",
          "name": "",
          "type": "address"
        }
      ],
      "stateMutability": "view",
      "type": "function"
    },
    {
      "inputs": [
        {
          "internalType": "address",
          "name": "_checker",
          "type": "address"
        }
      ],
      "name": "commitSetChecker",
      "outputs": [],
      "stateMutability": "nonpayable",
      "type": "function"
    },
    {
      "inputs": [],
      "name": "future_checker",
      "outputs": [
        {
          "internalType": "address",
          "name": "",
          "type": "address"
        }
      ],
      "stateMutability": "view",
      "type": "function"
    },
    {
      "inputs": [],
      "name": "isWhitelistEnabled",
      "outputs": [
        {
          "internalType": "bool",
          "name": "",
          "type": "bool"
        }
      ],
      "stateMutability": "view",
      "type": "function"
    },
    {
      "inputs": [],
      "name": "owner",
      "outputs": [
        {
          "internalType": "address",
          "name": "",
          "type": "address"
        }
      ],
      "stateMutability": "view",
      "type": "function"
    },
    {
      "inputs": [],
      "name": "renounceOwnership",
      "outputs": [],
      "stateMutability": "nonpayable",
      "type": "function"
    },
    {
      "inputs": [
        {
          "internalType": "address",
          "name": "_wallet",
          "type": "address"
        }
      ],
      "name": "revokeWallet",
      "outputs": [],
      "stateMutability": "nonpayable",
      "type": "function"
    },
    {
      "inputs": [
        {
          "internalType": "bool",
          "name": "_isWhitelistEnabled",
          "type": "bool"
        }
      ],
      "name": "setIsWhitelistEnabled",
      "outputs": [],
      "stateMutability": "nonpayable",
      "type": "function"
    },
    {
      "inputs": [
        {
          "internalType": "address",
          "name": "newOwner",
          "type": "address"
        }
      ],
      "name": "transferOwnership",
      "outputs": [],
      "stateMutability": "nonpayable",
      "type": "function"
    },
    {
      "inputs": [
        {
          "internalType": "address",
          "name": "",
          "type": "address"
        }
      ],
      "name": "wallets",
      "outputs": [
        {
          "internalType": "bool",
          "name": "",
          "type": "bool"
        }
      ],
      "stateMutability": "view",
      "type": "function"
    }
  ],
  "transactionHash": "0xd156c667bf1b1cae8a4f4dc70eb67a2b1cedaf66e65f8f9d419299ef68245f72",
  "args": [
    true
  ],
  "numDeployments": 1,
  "solcInputHash": "6989039dfb8745742c8567c80f9b9aa4",
  "bytecode": "0x608060405234801561001057600080fd5b50604051610c72380380610c7283398101604081905261002f9161014d565b61003833610047565b61004181610097565b50610176565b600080546001600160a01b038381166001600160a01b0319831681178455604051919092169283917f8be0079c531659141344cd1fd0a4f28419497f9722a3daafe3b4186f6b6457e09190a35050565b6000546001600160a01b031633146100f55760405162461bcd60e51b815260206004820181905260248201527f4f776e61626c653a2063616c6c6572206973206e6f7420746865206f776e6572604482015260640160405180910390fd5b60008054821515600160a01b0260ff60a01b199091161790556040517f9bea0dd3cae4438dc4c54c3110002aedc380f4075b6edae73ae0536105a2008a9061014290831515815260200190565b60405180910390a150565b60006020828403121561015f57600080fd5b8151801515811461016f57600080fd5b9392505050565b610aed806101856000396000f3fe608060405234801561001057600080fd5b50600436106100df5760003560e01c806389b08f111161008c578063943f35a411610066578063943f35a4146101eb578063c23697a8146101fe578063cf5303cf14610211578063f2fde38b1461023157600080fd5b806389b08f11146101695780638da5cb5b1461018c5780638fcdecc8146101cb57600080fd5b806326b42b1a116100bd57806326b42b1a14610146578063715018a61461014e578063808a9d401461015657600080fd5b80630fcb0ae5146100e4578063184d69ab146100f9578063194fd7b914610133575b600080fd5b6100f76100f2366004610a3d565b610244565b005b60005461011e9074010000000000000000000000000000000000000000900460ff1681565b60405190151581526020015b60405180910390f35b6100f7610141366004610a73565b610351565b6100f761044b565b6100f7610515565b6100f7610164366004610a3d565b6105a2565b61011e610177366004610a3d565b60016020526000908152604090205460ff1681565b60005473ffffffffffffffffffffffffffffffffffffffff165b60405173ffffffffffffffffffffffffffffffffffffffff909116815260200161012a565b6003546101a69073ffffffffffffffffffffffffffffffffffffffff1681565b6100f76101f9366004610a3d565b61069f565b61011e61020c366004610a3d565b610767565b6002546101a69073ffffffffffffffffffffffffffffffffffffffff1681565b6100f761023f366004610a3d565b610898565b60005473ffffffffffffffffffffffffffffffffffffffff1633146102ca576040517f08c379a000000000000000000000000000000000000000000000000000000000815260206004820181905260248201527f4f776e61626c653a2063616c6c6572206973206e6f7420746865206f776e657260448201526064015b60405180910390fd5b73ffffffffffffffffffffffffffffffffffffffff811660008181526001602081815260409283902080547fffffffffffffffffffffffffffffffffffffffffffffffffffffffffffffff001690921790915590519182527fc1e7aae3f3125e58cfc69ab2a872a655dbb9427614aa85b29bb5abeaca4d6a9291015b60405180910390a150565b60005473ffffffffffffffffffffffffffffffffffffffff1633146103d2576040517f08c379a000000000000000000000000000000000000000000000000000000000815260206004820181905260248201527f4f776e61626c653a2063616c6c6572206973206e6f7420746865206f776e657260448201526064016102c1565b6000805482151574010000000000000000000000000000000000000000027fffffffffffffffffffffff00ffffffffffffffffffffffffffffffffffffffff9091161790556040517f9bea0dd3cae4438dc4c54c3110002aedc380f4075b6edae73ae0536105a2008a9061034690831515815260200190565b60005473ffffffffffffffffffffffffffffffffffffffff1633146104cc576040517f08c379a000000000000000000000000000000000000000000000000000000000815260206004820181905260248201527f4f776e61626c653a2063616c6c6572206973206e6f7420746865206f776e657260448201526064016102c1565b600354600280547fffffffffffffffffffffffff00000000000000000000000000000000000000001673ffffffffffffffffffffffffffffffffffffffff909216919091179055565b60005473ffffffffffffffffffffffffffffffffffffffff163314610596576040517f08c379a000000000000000000000000000000000000000000000000000000000815260206004820181905260248201527f4f776e61626c653a2063616c6c6572206973206e6f7420746865206f776e657260448201526064016102c1565b6105a060006109c8565b565b60005473ffffffffffffffffffffffffffffffffffffffff163314610623576040517f08c379a000000000000000000000000000000000000000000000000000000000815260206004820181905260248201527f4f776e61626c653a2063616c6c6572206973206e6f7420746865206f776e657260448201526064016102c1565b73ffffffffffffffffffffffffffffffffffffffff811660008181526001602090815260409182902080547fffffffffffffffffffffffffffffffffffffffffffffffffffffffffffffff0016905590519182527f1b676c3cc753786cb95aff57280fd7406f1da74e2a8b9755fdd395aded3e16dd9101610346565b60005473ffffffffffffffffffffffffffffffffffffffff163314610720576040517f08c379a000000000000000000000000000000000000000000000000000000000815260206004820181905260248201527f4f776e61626c653a2063616c6c6572206973206e6f7420746865206f776e657260448201526064016102c1565b600380547fffffffffffffffffffffffff00000000000000000000000000000000000000001673ffffffffffffffffffffffffffffffffffffffff92909216919091179055565b6000805474010000000000000000000000000000000000000000900460ff1661079257506001919050565b73ffffffffffffffffffffffffffffffffffffffff821660009081526001602052604090205460ff1680156107c75792915050565b60025473ffffffffffffffffffffffffffffffffffffffff161561088f576002546040517fc23697a800000000000000000000000000000000000000000000000000000000815273ffffffffffffffffffffffffffffffffffffffff85811660048301529091169063c23697a89060240160206040518083038186803b15801561085057600080fd5b505afa158015610864573d6000803e3d6000fd5b505050506040513d601f19601f820116820180604052508101906108889190610a90565b9392505050565b50600092915050565b60005473ffffffffffffffffffffffffffffffffffffffff163314610919576040517f08c379a000000000000000000000000000000000000000000000000000000000815260206004820181905260248201527f4f776e61626c653a2063616c6c6572206973206e6f7420746865206f776e657260448201526064016102c1565b73ffffffffffffffffffffffffffffffffffffffff81166109bc576040517f08c379a000000000000000000000000000000000000000000000000000000000815260206004820152602660248201527f4f776e61626c653a206e6577206f776e657220697320746865207a65726f206160448201527f646472657373000000000000000000000000000000000000000000000000000060648201526084016102c1565b6109c5816109c8565b50565b6000805473ffffffffffffffffffffffffffffffffffffffff8381167fffffffffffffffffffffffff0000000000000000000000000000000000000000831681178455604051919092169283917f8be0079c531659141344cd1fd0a4f28419497f9722a3daafe3b4186f6b6457e09190a35050565b600060208284031215610a4f57600080fd5b813573ffffffffffffffffffffffffffffffffffffffff8116811461088857600080fd5b600060208284031215610a8557600080fd5b813561088881610aa9565b600060208284031215610aa257600080fd5b8151610888815b80151581146109c557600080fdfea2646970667358221220d53ddbe5c7a7de224807fec72230e48f918930cf88d11946abf2cde8d8edeaa564736f6c63430008060033",
  "devdoc": {
    "kind": "dev",
    "methods": {
      "owner()": {
        "details": "Returns the address of the current owner."
      },
      "renounceOwnership()": {
        "details": "Leaves the contract without owner. It will not be possible to call `onlyOwner` functions anymore. Can only be called by the current owner. NOTE: Renouncing ownership will leave the contract without an owner, thereby removing any functionality that is only available to the owner."
      },
      "transferOwnership(address)": {
        "details": "Transfers ownership of the contract to a new account (`newOwner`). Can only be called by the current owner."
      }
    },
    "version": 1
  },
  "userdoc": {
    "kind": "user",
    "methods": {},
    "version": 1
  },
  "storageLayout": {
    "storage": [
      {
        "astId": 7,
        "contract": "contracts/tokenomics/voting_escrow/SmartWalletChecker.sol:SmartWalletChecker",
        "label": "_owner",
        "offset": 0,
        "slot": "0",
        "type": "t_address"
      },
      {
        "astId": 4783,
        "contract": "contracts/tokenomics/voting_escrow/SmartWalletChecker.sol:SmartWalletChecker",
        "label": "isWhitelistEnabled",
        "offset": 20,
        "slot": "0",
        "type": "t_bool"
      },
      {
        "astId": 4787,
        "contract": "contracts/tokenomics/voting_escrow/SmartWalletChecker.sol:SmartWalletChecker",
        "label": "wallets",
        "offset": 0,
        "slot": "1",
        "type": "t_mapping(t_address,t_bool)"
      },
      {
        "astId": 4789,
        "contract": "contracts/tokenomics/voting_escrow/SmartWalletChecker.sol:SmartWalletChecker",
        "label": "checker",
        "offset": 0,
        "slot": "2",
        "type": "t_address"
      },
      {
        "astId": 4791,
        "contract": "contracts/tokenomics/voting_escrow/SmartWalletChecker.sol:SmartWalletChecker",
        "label": "future_checker",
        "offset": 0,
        "slot": "3",
        "type": "t_address"
      }
    ],
    "types": {
      "t_address": {
        "encoding": "inplace",
        "label": "address",
        "numberOfBytes": "20"
      },
      "t_bool": {
        "encoding": "inplace",
        "label": "bool",
        "numberOfBytes": "1"
      },
      "t_mapping(t_address,t_bool)": {
        "encoding": "mapping",
        "key": "t_address",
        "label": "mapping(address => bool)",
        "numberOfBytes": "32",
        "value": "t_bool"
      }
    }
  }
}