{
  "address": "0x1085E85A7384DD2F0d46D2918630a1CF174b5853",
  "abi": [
    {
      "inputs": [
        {
          "internalType": "bool",
          "name": "_isWhitelistEnabled",
          "type": "bool"
        }
      ],
      "stateMutability": "nonpayable",
      "type": "constructor"
    },
    {
      "anonymous": false,
      "inputs": [
        {
          "indexed": false,
          "internalType": "address",
          "name": "",
          "type": "address"
        }
      ],
      "name": "ApproveWallet",
      "type": "event"
    },
    {
      "anonymous": false,
      "inputs": [
        {
          "indexed": true,
          "internalType": "address",
          "name": "previousOwner",
          "type": "address"
        },
        {
          "indexed": true,
          "internalType": "address",
          "name": "newOwner",
          "type": "address"
        }
      ],
      "name": "OwnershipTransferred",
      "type": "event"
    },
    {
      "anonymous": false,
      "inputs": [
        {
          "indexed": false,
          "internalType": "address",
          "name": "",
          "type": "address"
        }
      ],
      "name": "RevokeWallet",
      "type": "event"
    },
    {
      "inputs": [],
      "name": "applySetChecker",
      "outputs": [],
      "stateMutability": "nonpayable",
      "type": "function"
    },
    {
      "inputs": [
        {
          "internalType": "address",
          "name": "_wallet",
          "type": "address"
        }
      ],
      "name": "approveWallet",
      "outputs": [],
      "stateMutability": "nonpayable",
      "type": "function"
    },
    {
      "inputs": [
        {
          "internalType": "address",
          "name": "_wallet",
          "type": "address"
        }
      ],
      "name": "check",
      "outputs": [
        {
          "internalType": "bool",
          "name": "",
          "type": "bool"
        }
      ],
      "stateMutability": "view",
      "type": "function"
    },
    {
      "inputs": [],
      "name": "checker",
      "outputs": [
        {
          "internalType": "address",
          "name": "",
          "type": "address"
        }
      ],
      "stateMutability": "view",
      "type": "function"
    },
    {
      "inputs": [
        {
          "internalType": "address",
          "name": "_checker",
          "type": "address"
        }
      ],
      "name": "commitSetChecker",
      "outputs": [],
      "stateMutability": "nonpayable",
      "type": "function"
    },
    {
      "inputs": [],
      "name": "future_checker",
      "outputs": [
        {
          "internalType": "address",
          "name": "",
          "type": "address"
        }
      ],
      "stateMutability": "view",
      "type": "function"
    },
    {
      "inputs": [],
      "name": "isWhitelistEnabled",
      "outputs": [
        {
          "internalType": "bool",
          "name": "",
          "type": "bool"
        }
      ],
      "stateMutability": "view",
      "type": "function"
    },
    {
      "inputs": [],
      "name": "owner",
      "outputs": [
        {
          "internalType": "address",
          "name": "",
          "type": "address"
        }
      ],
      "stateMutability": "view",
      "type": "function"
    },
    {
      "inputs": [],
      "name": "renounceOwnership",
      "outputs": [],
      "stateMutability": "nonpayable",
      "type": "function"
    },
    {
      "inputs": [
        {
          "internalType": "address",
          "name": "_wallet",
          "type": "address"
        }
      ],
      "name": "revokeWallet",
      "outputs": [],
      "stateMutability": "nonpayable",
      "type": "function"
    },
    {
      "inputs": [
        {
          "internalType": "address",
          "name": "newOwner",
          "type": "address"
        }
      ],
      "name": "transferOwnership",
      "outputs": [],
      "stateMutability": "nonpayable",
      "type": "function"
    },
    {
      "inputs": [
        {
          "internalType": "address",
          "name": "",
          "type": "address"
        }
      ],
      "name": "wallets",
      "outputs": [
        {
          "internalType": "bool",
          "name": "",
          "type": "bool"
        }
      ],
      "stateMutability": "view",
      "type": "function"
    }
  ],
  "transactionHash": "0xb3bc4cd9b5529aa6623279f944495fc5808f28e5473972a6c4a2faece2946954",
  "args": [
    true
  ],
  "numDeployments": 1,
  "solcInputHash": "995e3378db8a32fe17ae47b6ea139d50",
  "bytecode": "0x608060405234801561001057600080fd5b50604051610a94380380610a9483398101604081905261002f916100a9565b61003833610059565b60008054911515600160a01b0260ff60a01b199092169190911790556100d2565b600080546001600160a01b038381166001600160a01b0319831681178455604051919092169283917f8be0079c531659141344cd1fd0a4f28419497f9722a3daafe3b4186f6b6457e09190a35050565b6000602082840312156100bb57600080fd5b815180151581146100cb57600080fd5b9392505050565b6109b3806100e16000396000f3fe608060405234801561001057600080fd5b50600436106100d45760003560e01c80638da5cb5b11610081578063c23697a81161005b578063c23697a8146101e0578063cf5303cf146101f3578063f2fde38b1461021357600080fd5b80638da5cb5b1461016e5780638fcdecc8146101ad578063943f35a4146101cd57600080fd5b8063715018a6116100b2578063715018a614610130578063808a9d401461013857806389b08f111461014b57600080fd5b80630fcb0ae5146100d9578063184d69ab146100ee57806326b42b1a14610128575b600080fd5b6100ec6100e7366004610925565b610226565b005b6000546101139074010000000000000000000000000000000000000000900460ff1681565b60405190151581526020015b60405180910390f35b6100ec610333565b6100ec6103fd565b6100ec610146366004610925565b61048a565b610113610159366004610925565b60016020526000908152604090205460ff1681565b60005473ffffffffffffffffffffffffffffffffffffffff165b60405173ffffffffffffffffffffffffffffffffffffffff909116815260200161011f565b6003546101889073ffffffffffffffffffffffffffffffffffffffff1681565b6100ec6101db366004610925565b610587565b6101136101ee366004610925565b61064f565b6002546101889073ffffffffffffffffffffffffffffffffffffffff1681565b6100ec610221366004610925565b610780565b60005473ffffffffffffffffffffffffffffffffffffffff1633146102ac576040517f08c379a000000000000000000000000000000000000000000000000000000000815260206004820181905260248201527f4f776e61626c653a2063616c6c6572206973206e6f7420746865206f776e657260448201526064015b60405180910390fd5b73ffffffffffffffffffffffffffffffffffffffff811660008181526001602081815260409283902080547fffffffffffffffffffffffffffffffffffffffffffffffffffffffffffffff001690921790915590519182527fc1e7aae3f3125e58cfc69ab2a872a655dbb9427614aa85b29bb5abeaca4d6a9291015b60405180910390a150565b60005473ffffffffffffffffffffffffffffffffffffffff1633146103b4576040517f08c379a000000000000000000000000000000000000000000000000000000000815260206004820181905260248201527f4f776e61626c653a2063616c6c6572206973206e6f7420746865206f776e657260448201526064016102a3565b600354600280547fffffffffffffffffffffffff00000000000000000000000000000000000000001673ffffffffffffffffffffffffffffffffffffffff909216919091179055565b60005473ffffffffffffffffffffffffffffffffffffffff16331461047e576040517f08c379a000000000000000000000000000000000000000000000000000000000815260206004820181905260248201527f4f776e61626c653a2063616c6c6572206973206e6f7420746865206f776e657260448201526064016102a3565b61048860006108b0565b565b60005473ffffffffffffffffffffffffffffffffffffffff16331461050b576040517f08c379a000000000000000000000000000000000000000000000000000000000815260206004820181905260248201527f4f776e61626c653a2063616c6c6572206973206e6f7420746865206f776e657260448201526064016102a3565b73ffffffffffffffffffffffffffffffffffffffff811660008181526001602090815260409182902080547fffffffffffffffffffffffffffffffffffffffffffffffffffffffffffffff0016905590519182527f1b676c3cc753786cb95aff57280fd7406f1da74e2a8b9755fdd395aded3e16dd9101610328565b60005473ffffffffffffffffffffffffffffffffffffffff163314610608576040517f08c379a000000000000000000000000000000000000000000000000000000000815260206004820181905260248201527f4f776e61626c653a2063616c6c6572206973206e6f7420746865206f776e657260448201526064016102a3565b600380547fffffffffffffffffffffffff00000000000000000000000000000000000000001673ffffffffffffffffffffffffffffffffffffffff92909216919091179055565b6000805474010000000000000000000000000000000000000000900460ff1661067a57506001919050565b73ffffffffffffffffffffffffffffffffffffffff821660009081526001602052604090205460ff1680156106af5792915050565b60025473ffffffffffffffffffffffffffffffffffffffff1615610777576002546040517fc23697a800000000000000000000000000000000000000000000000000000000815273ffffffffffffffffffffffffffffffffffffffff85811660048301529091169063c23697a89060240160206040518083038186803b15801561073857600080fd5b505afa15801561074c573d6000803e3d6000fd5b505050506040513d601f19601f82011682018060405250810190610770919061095b565b9392505050565b50600092915050565b60005473ffffffffffffffffffffffffffffffffffffffff163314610801576040517f08c379a000000000000000000000000000000000000000000000000000000000815260206004820181905260248201527f4f776e61626c653a2063616c6c6572206973206e6f7420746865206f776e657260448201526064016102a3565b73ffffffffffffffffffffffffffffffffffffffff81166108a4576040517f08c379a000000000000000000000000000000000000000000000000000000000815260206004820152602660248201527f4f776e61626c653a206e6577206f776e657220697320746865207a65726f206160448201527f646472657373000000000000000000000000000000000000000000000000000060648201526084016102a3565b6108ad816108b0565b50565b6000805473ffffffffffffffffffffffffffffffffffffffff8381167fffffffffffffffffffffffff0000000000000000000000000000000000000000831681178455604051919092169283917f8be0079c531659141344cd1fd0a4f28419497f9722a3daafe3b4186f6b6457e09190a35050565b60006020828403121561093757600080fd5b813573ffffffffffffffffffffffffffffffffffffffff8116811461077057600080fd5b60006020828403121561096d57600080fd5b8151801515811461077057600080fdfea26469706673582212201caef8e092abafb1df19fd8232f1c2b7418effbb6936e004a9d214dca7219e5564736f6c63430008060033",
  "devdoc": {
    "kind": "dev",
    "methods": {
      "owner()": {
        "details": "Returns the address of the current owner."
      },
      "renounceOwnership()": {
        "details": "Leaves the contract without owner. It will not be possible to call `onlyOwner` functions anymore. Can only be called by the current owner. NOTE: Renouncing ownership will leave the contract without an owner, thereby removing any functionality that is only available to the owner."
      },
      "transferOwnership(address)": {
        "details": "Transfers ownership of the contract to a new account (`newOwner`). Can only be called by the current owner."
      }
    },
    "version": 1
  },
  "userdoc": {
    "kind": "user",
    "methods": {},
    "version": 1
  },
  "storageLayout": {
    "storage": [
      {
        "astId": 7,
        "contract": "contracts/tokenomics/voting_escrow/SmartWalletChecker.sol:SmartWalletChecker",
        "label": "_owner",
        "offset": 0,
        "slot": "0",
        "type": "t_address"
      },
      {
        "astId": 4783,
        "contract": "contracts/tokenomics/voting_escrow/SmartWalletChecker.sol:SmartWalletChecker",
        "label": "isWhitelistEnabled",
        "offset": 20,
        "slot": "0",
        "type": "t_bool"
      },
      {
        "astId": 4787,
        "contract": "contracts/tokenomics/voting_escrow/SmartWalletChecker.sol:SmartWalletChecker",
        "label": "wallets",
        "offset": 0,
        "slot": "1",
        "type": "t_mapping(t_address,t_bool)"
      },
      {
        "astId": 4789,
        "contract": "contracts/tokenomics/voting_escrow/SmartWalletChecker.sol:SmartWalletChecker",
        "label": "checker",
        "offset": 0,
        "slot": "2",
        "type": "t_address"
      },
      {
        "astId": 4791,
        "contract": "contracts/tokenomics/voting_escrow/SmartWalletChecker.sol:SmartWalletChecker",
        "label": "future_checker",
        "offset": 0,
        "slot": "3",
        "type": "t_address"
      }
    ],
    "types": {
      "t_address": {
        "encoding": "inplace",
        "label": "address",
        "numberOfBytes": "20"
      },
      "t_bool": {
        "encoding": "inplace",
        "label": "bool",
        "numberOfBytes": "1"
      },
      "t_mapping(t_address,t_bool)": {
        "encoding": "mapping",
        "key": "t_address",
        "label": "mapping(address => bool)",
        "numberOfBytes": "32",
        "value": "t_bool"
      }
    }
  }
}