{
  "address": "0x149bBb210051851016F57a2824C0444f642833a6",
  "abi": [
    {
      "anonymous": false,
      "inputs": [
        {
          "indexed": true,
          "internalType": "address",
          "name": "provider",
          "type": "address"
        },
        {
          "indexed": false,
          "internalType": "uint256[]",
          "name": "tokenAmounts",
          "type": "uint256[]"
        },
        {
          "indexed": false,
          "internalType": "uint256[]",
          "name": "fees",
          "type": "uint256[]"
        },
        {
          "indexed": false,
          "internalType": "uint256",
          "name": "invariant",
          "type": "uint256"
        },
        {
          "indexed": false,
          "internalType": "uint256",
          "name": "lpTokenSupply",
          "type": "uint256"
        }
      ],
      "name": "AddLiquidity",
      "type": "event"
    },
    {
      "anonymous": false,
      "inputs": [
        {
          "indexed": false,
          "internalType": "uint256",
          "name": "newAdminFee",
          "type": "uint256"
        }
      ],
      "name": "NewAdminFee",
      "type": "event"
    },
    {
      "anonymous": false,
      "inputs": [
        {
          "indexed": false,
          "internalType": "uint256",
          "name": "newSwapFee",
          "type": "uint256"
        }
      ],
      "name": "NewSwapFee",
      "type": "event"
    },
    {
      "anonymous": false,
      "inputs": [
        {
          "indexed": false,
          "internalType": "uint256",
          "name": "newWithdrawFee",
          "type": "uint256"
        }
      ],
      "name": "NewWithdrawFee",
      "type": "event"
    },
    {
      "anonymous": false,
      "inputs": [
        {
          "indexed": false,
          "internalType": "uint256",
          "name": "oldA",
          "type": "uint256"
        },
        {
          "indexed": false,
          "internalType": "uint256",
          "name": "newA",
          "type": "uint256"
        },
        {
          "indexed": false,
          "internalType": "uint256",
          "name": "initialTime",
          "type": "uint256"
        },
        {
          "indexed": false,
          "internalType": "uint256",
          "name": "futureTime",
          "type": "uint256"
        }
      ],
      "name": "RampA",
      "type": "event"
    },
    {
      "anonymous": false,
      "inputs": [
        {
          "indexed": true,
          "internalType": "address",
          "name": "provider",
          "type": "address"
        },
        {
          "indexed": false,
          "internalType": "uint256[]",
          "name": "tokenAmounts",
          "type": "uint256[]"
        },
        {
          "indexed": false,
          "internalType": "uint256",
          "name": "lpTokenSupply",
          "type": "uint256"
        }
      ],
      "name": "RemoveLiquidity",
      "type": "event"
    },
    {
      "anonymous": false,
      "inputs": [
        {
          "indexed": true,
          "internalType": "address",
          "name": "provider",
          "type": "address"
        },
        {
          "indexed": false,
          "internalType": "uint256[]",
          "name": "tokenAmounts",
          "type": "uint256[]"
        },
        {
          "indexed": false,
          "internalType": "uint256[]",
          "name": "fees",
          "type": "uint256[]"
        },
        {
          "indexed": false,
          "internalType": "uint256",
          "name": "invariant",
          "type": "uint256"
        },
        {
          "indexed": false,
          "internalType": "uint256",
          "name": "lpTokenSupply",
          "type": "uint256"
        }
      ],
      "name": "RemoveLiquidityImbalance",
      "type": "event"
    },
    {
      "anonymous": false,
      "inputs": [
        {
          "indexed": true,
          "internalType": "address",
          "name": "provider",
          "type": "address"
        },
        {
          "indexed": false,
          "internalType": "uint256",
          "name": "lpTokenAmount",
          "type": "uint256"
        },
        {
          "indexed": false,
          "internalType": "uint256",
          "name": "lpTokenSupply",
          "type": "uint256"
        },
        {
          "indexed": false,
          "internalType": "uint256",
          "name": "boughtId",
          "type": "uint256"
        },
        {
          "indexed": false,
          "internalType": "uint256",
          "name": "tokensBought",
          "type": "uint256"
        }
      ],
      "name": "RemoveLiquidityOne",
      "type": "event"
    },
    {
      "anonymous": false,
      "inputs": [
        {
          "indexed": false,
          "internalType": "uint256",
          "name": "currentA",
          "type": "uint256"
        },
        {
          "indexed": false,
          "internalType": "uint256",
          "name": "time",
          "type": "uint256"
        }
      ],
      "name": "StopRampA",
      "type": "event"
    },
    {
      "anonymous": false,
      "inputs": [
        {
          "indexed": true,
          "internalType": "address",
          "name": "buyer",
          "type": "address"
        },
        {
          "indexed": false,
          "internalType": "uint256",
          "name": "tokensSold",
          "type": "uint256"
        },
        {
          "indexed": false,
          "internalType": "uint256",
          "name": "tokensBought",
          "type": "uint256"
        },
        {
          "indexed": false,
          "internalType": "uint128",
          "name": "soldId",
          "type": "uint128"
        },
        {
          "indexed": false,
          "internalType": "uint128",
          "name": "boughtId",
          "type": "uint128"
        }
      ],
      "name": "TokenSwap",
      "type": "event"
    },
    {
      "inputs": [],
      "name": "A_PRECISION",
      "outputs": [
        {
          "internalType": "uint256",
          "name": "",
          "type": "uint256"
        }
      ],
      "stateMutability": "view",
      "type": "function"
    },
    {
      "inputs": [],
      "name": "MAX_A",
      "outputs": [
        {
          "internalType": "uint256",
          "name": "",
          "type": "uint256"
        }
      ],
      "stateMutability": "view",
      "type": "function"
    },
    {
      "inputs": [],
      "name": "MAX_ADMIN_FEE",
      "outputs": [
        {
          "internalType": "uint256",
          "name": "",
          "type": "uint256"
        }
      ],
      "stateMutability": "view",
      "type": "function"
    },
    {
      "inputs": [],
      "name": "MAX_SWAP_FEE",
      "outputs": [
        {
          "internalType": "uint256",
          "name": "",
          "type": "uint256"
        }
      ],
      "stateMutability": "view",
      "type": "function"
    },
    {
      "inputs": [],
      "name": "MAX_WITHDRAW_FEE",
      "outputs": [
        {
          "internalType": "uint256",
          "name": "",
          "type": "uint256"
        }
      ],
      "stateMutability": "view",
      "type": "function"
    },
    {
      "inputs": [],
      "name": "POOL_PRECISION_DECIMALS",
      "outputs": [
        {
          "internalType": "uint8",
          "name": "",
          "type": "uint8"
        }
      ],
      "stateMutability": "view",
      "type": "function"
    }
  ],
  "transactionHash": "0x1767eacba0e5d100f1f76abb5c2b156e048f80f478e1f376c2806455259312da",
  "args": [],
  "solcInputHash": "56b298fd0706bd84f7f5376d8bd5fd39",
  "bytecode": "0x61487f610026600b82828239805160001a60731461001957fe5b30600052607381538281f3fe73000000000000000000000000000000000000000030146080604052600436106101ce5760003560e01c8063968e559411610103578063e4a9a0da116100a1578063e9252d461161007b578063e9252d46146107d2578063f14e211e14610811578063f3de03621461083b578063f967a81f14610843576101ce565b8063e4a9a0da14610713578063e7a4db8114610767578063e8c47a54146107a6576101ce565b8063b0a14cfc116100dd578063b0a14cfc146106d1578063c9b64dcb146106ee578063d011f9181461070b578063d4b0de2f146106c9576101ce565b8063968e559414610654578063a5397b2214610680578063ab3d8544146106c9576101ce565b806358fdd79b1161017057806371906c2c1161014a57806371906c2c1461050b57806373fd6b3e146105285780637d048160146106015780638ab7697e14610624576101ce565b806358fdd79b1461041e5780635e58579c1461045457806370467276146104db576101ce565b806340370edf116101ac57806340370edf1461024657806341b91c26146102ff578063467e186c146103b85780634b23603c146103e8576101ce565b80630296ab50146101d357806324c5c751146101f1578063396984151461022c575b600080fd5b6101db610875565b6040805160ff9092168252519081900360200190f35b8180156101fd57600080fd5b5061022a6004803603604081101561021457600080fd5b50803590602001356001600160a01b031661087a565b005b61023461097b565b60408051918252519081900360200190f35b81801561025257600080fd5b506102346004803603606081101561026957600080fd5b8135919081019060408101602082013564010000000081111561028b57600080fd5b82018360208201111561029d57600080fd5b803590602001918460208302840111640100000000831117156102bf57600080fd5b9190808060200260200160405190810160405280939291908181526020018383602002808284376000920191909152509295505091359250610982915050565b81801561030b57600080fd5b506102346004803603606081101561032257600080fd5b8135919081019060408101602082013564010000000081111561034457600080fd5b82018360208201111561035657600080fd5b8035906020019184602083028401116401000000008311171561037857600080fd5b9190808060200260200160405190810160405280939291908181526020018383602002808284376000920191909152509295505091359250611263915050565b8180156103c457600080fd5b5061022a600480360360408110156103db57600080fd5b5080359060200135611a3d565b610234600480360360808110156103fe57600080fd5b5080359060ff602082013581169160408101359091169060600135611ad4565b81801561042a57600080fd5b5061022a6004803603606081101561044157600080fd5b5080359060208101359060400135611aec565b6102346004803603608081101561046a57600080fd5b8135916001600160a01b036020820135169181019060608101604082013564010000000081111561049a57600080fd5b8201836020820111156104ac57600080fd5b803590602001918460208302840111640100000000831117156104ce57600080fd5b9193509150351515611d64565b8180156104e757600080fd5b5061022a600480360360408110156104fe57600080fd5b5080359060200135611fe7565b6102346004803603602081101561052157600080fd5b503561207f565b81801561053457600080fd5b506105b16004803603606081101561054b57600080fd5b81359160208101359181019060608101604082013564010000000081111561057257600080fd5b82018360208201111561058457600080fd5b803590602001918460208302840111640100000000831117156105a657600080fd5b5090925090506121c9565b60408051602080825283518183015283519192839290830191858101910280838360005b838110156105ed5781810151838201526020016105d5565b505050509050019250505060405180910390f35b6102346004803603604081101561061757600080fd5b50803590602001356125bb565b81801561063057600080fd5b5061022a6004803603604081101561064757600080fd5b508035906020013561264b565b6102346004803603604081101561066a57600080fd5b50803590602001356001600160a01b03166126e2565b81801561068c57600080fd5b50610234600480360360a08110156106a357600080fd5b5080359060ff602082013581169160408101359091169060608101359060800135612789565b610234612afd565b610234600480360360208110156106e757600080fd5b5035612b05565b6102346004803603602081101561070457600080fd5b5035612b10565b610234612b1b565b61074e6004803603608081101561072957600080fd5b5080359060208101356001600160a01b0316906040810135906060013560ff16612b20565b6040805192835260208301919091528051918290030190f35b81801561077357600080fd5b506102346004803603608081101561078a57600080fd5b5080359060208101359060ff6040820135169060600135612baa565b610234600480360360408110156107bc57600080fd5b50803590602001356001600160a01b0316612f25565b8180156107de57600080fd5b5061022a600480360360608110156107f557600080fd5b508035906001600160a01b036020820135169060400135612f44565b81801561081d57600080fd5b5061022a6004803603602081101561083457600080fd5b5035612f4f565b61023461300c565b6105b16004803603606081101561085957600080fd5b508035906001600160a01b036020820135169060400135613015565b601281565b60005b600883015481101561097657600083600801828154811061089a57fe5b6000918252602082200154600a860180546001600160a01b03909216935061095091859081106108c657fe5b9060005260206000200154836001600160a01b03166370a08231306040518263ffffffff1660e01b815260040180826001600160a01b0316815260200191505060206040518083038186803b15801561091e57600080fd5b505afa158015610932573d6000803e3d6000fd5b505050506040513d602081101561094857600080fd5b505190613022565b9050801561096c5761096c6001600160a01b0383168583613064565b505060010161087d565b505050565b620f424081565b60088301548251600091146109de576040805162461bcd60e51b815260206004820181905260248201527f416d6f756e7473206d757374206d6174636820706f6f6c656420746f6b656e73604482015290519081900360640190fd5b600884015460609067ffffffffffffffff811180156109fc57600080fd5b50604051908082528060200260200182016040528015610a26578160200160208202803683370190505b509050610a31614724565b60405180608001604052806000815260200160008152602001600081526020016000815250905060008660070160009054906101000a90046001600160a01b03166001600160a01b03166318160ddd6040518163ffffffff1660e01b815260040160206040518083038186803b158015610aaa57600080fd5b505afa158015610abe573d6000803e3d6000fd5b505050506040513d6020811015610ad457600080fd5b505190508015610aea57610ae7876130e4565b82525b606087600a01805480602002602001604051908101604052809291908181526020018280548015610b3a57602002820191906000526020600020905b815481526020019060010190808311610b26575b5050505050905060005b6008890154811015610dc25782151580610b7157506000888281518110610b6757fe5b6020026020010151115b610bc2576040805162461bcd60e51b815260206004820152601e60248201527f4d75737420737570706c7920616c6c20746f6b656e7320696e20706f6f6c0000604482015290519081900360640190fd5b878181518110610bce57fe5b6020026020010151600014610d64576000896008018281548110610bee57fe5b60009182526020918290200154604080517f70a0823100000000000000000000000000000000000000000000000000000000815230600482015290516001600160a01b03909216926370a0823192602480840193829003018186803b158015610c5657600080fd5b505afa158015610c6a573d6000803e3d6000fd5b505050506040513d6020811015610c8057600080fd5b50518951909150610ccf90339030908c9086908110610c9b57fe5b60200260200101518d6008018681548110610cb257fe5b6000918252602090912001546001600160a01b03169291906130fb565b610d4a818b6008018481548110610ce257fe5b60009182526020918290200154604080517f70a0823100000000000000000000000000000000000000000000000000000000815230600482015290516001600160a01b03909216926370a0823192602480840193829003018186803b15801561091e57600080fd5b898381518110610d5657fe5b602002602001018181525050505b610da3888281518110610d7357fe5b60200260200101518a600a018381548110610d8a57fe5b906000526020600020015461318990919063ffffffff16565b828281518110610daf57fe5b6020908102919091010152600101610b44565b50610dcc886131e3565b6060840152610de8610dde8983613278565b84606001516132d6565b60208401819052835110610e43576040805162461bcd60e51b815260206004820152601160248201527f442073686f756c6420696e637265617365000000000000000000000000000000604482015290519081900360640190fd5b60208301516040840152811561104f576000610e5e896134bd565b905060005b60088a015481101561102c576000610eaf8660000151610ea98d600a018581548110610e8b57fe5b906000526020600020015489602001516134ea90919063ffffffff16565b90613543565b9050610f5c6402540be400610ea98373c0409ec303b727bc1f511d7f8c71fd5ead96de1c63a95cb7f79091898881518110610ee657fe5b60200260200101516040518363ffffffff1660e01b8152600401808381526020018281526020019250505060206040518083038186803b158015610f2957600080fd5b505af4158015610f3d573d6000803e3d6000fd5b505050506040513d6020811015610f5357600080fd5b505186906134ea565b878381518110610f6857fe5b602002602001018181525050610fcc610faa6402540be400610ea98e600501548b8781518110610f9457fe5b60200260200101516134ea90919063ffffffff16565b858481518110610fb657fe5b602002602001015161302290919063ffffffff16565b8b600a018381548110610fdb57fe5b906000526020600020018190555061100c878381518110610ff857fe5b6020026020010151858481518110610fb657fe5b84838151811061101857fe5b602090810291909101015250600101610e63565b5061104461103a8a84613278565b85606001516132d6565b604085015250611066565b805161106490600a8a0190602084019061474c565b505b6000826110785750602083015161109d565b8351604085015161109a9190610ea99086906110949084613022565b906134ea565b90505b868110156110f2576040805162461bcd60e51b815260206004820152601b60248201527f436f756c646e2774206d696e74206d696e207265717565737465640000000000604482015290519081900360640190fd5b6007890154604080517f40c10f190000000000000000000000000000000000000000000000000000000081523360048201526024810184905290516001600160a01b03909216916340c10f199160448082019260009290919082900301818387803b15801561116057600080fd5b505af1158015611174573d6000803e3d6000fd5b50505060208501513391507f189c623b666b1b45b83d7178f39b8c087cb09774317ca2f53c2d3c3726f222a2908a9088906111af8887613189565b604051808060200180602001858152602001848152602001838103835287818151815260200191508051906020019060200280838360005b838110156111ff5781810151838201526020016111e7565b50505050905001838103825286818151815260200191508051906020019060200280838360005b8381101561123e578181015183820152602001611226565b50505050905001965050505050505060405180910390a29450505050505b9392505050565b60088301548251600091146112bf576040805162461bcd60e51b815260206004820181905260248201527f416d6f756e74732073686f756c64206d6174636820706f6f6c20746f6b656e73604482015290519081900360640190fd5b6007840154604080517f70a0823100000000000000000000000000000000000000000000000000000000815233600482015290516001600160a01b03909216916370a0823191602480820192602092909190829003018186803b15801561132557600080fd5b505afa158015611339573d6000803e3d6000fd5b505050506040513d602081101561134f57600080fd5b5051821180159061135f57508115155b6113b0576040805162461bcd60e51b815260206004820152600d60248201527f3e4c502e62616c616e63654f6600000000000000000000000000000000000000604482015290519081900360640190fd5b6113b8614724565b60405180608001604052806000815260200160008152602001600081526020016000815250905060008560070160009054906101000a90046001600160a01b03166001600160a01b03166318160ddd6040518163ffffffff1660e01b815260040160206040518083038186803b15801561143157600080fd5b505afa158015611445573d6000803e3d6000fd5b505050506040513d602081101561145b57600080fd5b50519050600061146a876134bd565b9050606087600a018054806020026020016040519081016040528092919081815260200182805480156114bc57602002820191906000526020600020905b8154815260200190600101908083116114a8575b505050505090506114cc886131e3565b60608501526114dd61103a89613585565b845260005b6008890154811015611560576115418882815181106114fd57fe5b60200260200101516040518060600160405280602381526020016148276023913984848151811061152a57fe5b60200260200101516136339092919063ffffffff16565b82828151811061154d57fe5b60209081029190910101526001016114e2565b5061156e61103a8983613278565b6020850152600888015460609067ffffffffffffffff8111801561159157600080fd5b506040519080825280602002602001820160405280156115bb578160200160208202803683370190505b50905060005b60088a015481101561175d5760006116078760000151610ea98d600a0185815481106115e957fe5b90600052602060002001548a602001516134ea90919063ffffffff16565b905060008173c0409ec303b727bc1f511d7f8c71fd5ead96de1c63a95cb7f7909187868151811061163457fe5b60200260200101516040518363ffffffff1660e01b8152600401808381526020018281526020019250505060206040518083038186803b15801561167757600080fd5b505af415801561168b573d6000803e3d6000fd5b505050506040513d60208110156116a157600080fd5b505190506116b86402540be400610ea988846134ea565b8484815181106116c457fe5b6020026020010181815250506116fc6116f06402540be400610ea98f60050154888881518110610f9457fe5b868581518110610fb657fe5b8c600a01848154811061170b57fe5b906000526020600020018190555061173c84848151811061172857fe5b6020026020010151868581518110610fb657fe5b85848151811061174857fe5b602090810291909101015250506001016115c1565b5061177561176b8a84613278565b86606001516132d6565b6040860181905285516000916117979190610ea9908890611094908490613022565b9050806117eb576040805162461bcd60e51b815260206004820152601b60248201527f4275726e7420616d6f756e742063616e6e6f74206265207a65726f0000000000604482015290519081900360640190fd5b61181b6118076117fb8c336126e2565b6402540be40090613022565b610ea96402540be400611094856001613189565b905087811115611872576040805162461bcd60e51b815260206004820152601b60248201527f746f6b656e416d6f756e74203e206d61784275726e416d6f756e740000000000604482015290519081900360640190fd5b60078a0154604080517f79cc67900000000000000000000000000000000000000000000000000000000081523360048201526024810184905290516001600160a01b03909216916379cc67909160448082019260009290919082900301818387803b1580156118e057600080fd5b505af11580156118f4573d6000803e3d6000fd5b5050505060005b60088b01548110156119525761194a338b838151811061191757fe5b60200260200101518d600801848154811061192e57fe5b6000918252602090912001546001600160a01b03169190613064565b6001016118fb565b50602086015133907f3631c28b1f9dd213e0319fb167b554d76b6c283a41143eb400a0d1adb1af1755908b90859061198a8a87613022565b604051808060200180602001858152602001848152602001838103835287818151815260200191508051906020019060200280838360005b838110156119da5781810151838201526020016119c2565b50505050905001838103825286818151815260200191508051906020019060200280838360005b83811015611a19578181015183820152602001611a01565b50505050905001965050505050505060405180910390a29998505050505050505050565b6305f5e100811115611a96576040805162461bcd60e51b815260206004820152600f60248201527f46656520697320746f6f20686967680000000000000000000000000000000000604482015290519081900360640190fd5b600482018190556040805182815290517fd88ea5155021c6f8dafa1a741e173f595cdf77ce7c17d43342131d7f06afdfe59181900360200190a15050565b6000611ae2858585856136ca565b5095945050505050565b6002830154611afe9062015180613189565b421015611b52576040805162461bcd60e51b815260206004820152601f60248201527f57616974203120646179206265666f7265207374617274696e672072616d7000604482015290519081900360640190fd5b611b5f4262127500613189565b811015611bb3576040805162461bcd60e51b815260206004820152601660248201527f496e73756666696369656e742072616d702074696d6500000000000000000000604482015290519081900360640190fd5b600082118015611bc55750620f424082105b611c16576040805162461bcd60e51b815260206004820181905260248201527f667574757265415f206d757374206265203e203020616e64203c204d41585f41604482015290519081900360640190fd5b6000611c21846131e3565b90506000611c308460646134ea565b905081811015611c9e5781611c468260026134ea565b1015611c99576040805162461bcd60e51b815260206004820152601560248201527f667574757265415f20697320746f6f20736d616c6c0000000000000000000000604482015290519081900360640190fd5b611cfd565b611ca98260026134ea565b811115611cfd576040805162461bcd60e51b815260206004820152601560248201527f667574757265415f20697320746f6f206c617267650000000000000000000000604482015290519081900360640190fd5b8185556001850181905542600286018190556003860184905560408051848152602081018490528082019290925260608201859052517fa2b71ec6df949300b59aab36b55e189697b750119dd349fcfa8c0f779e83c2549181900360800190a15050505050565b600885015460009081611d76886131e3565b90506000611ddf611dd98a8b600a01805480602002602001604051908101604052809291908181526020018280548015611dcf57602002820191906000526020600020905b815481526020019060010190808311611dbb575b5050505050613278565b836132d6565b9050606089600a01805480602002602001604051908101604052809291908181526020018280548015611e3157602002820191906000526020600020905b815481526020019060010190808311611e1d575b5050505050905060005b84811015611efa578615611e9e57611e81898983818110611e5857fe5b90506020020135838381518110611e6b57fe5b602002602001015161318990919063ffffffff16565b828281518110611e8d57fe5b602002602001018181525050611ef2565b611ed9898983818110611ead57fe5b905060200201356040518060600160405280602381526020016148276023913984848151811061152a57fe5b828281518110611ee557fe5b6020026020010181815250505b600101611e3b565b506000611f10611f0a8c84613278565b856132d6565b905060008b60070160009054906101000a90046001600160a01b03166001600160a01b03166318160ddd6040518163ffffffff1660e01b815260040160206040518083038186803b158015611f6457600080fd5b505afa158015611f78573d6000803e3d6000fd5b505050506040513d6020811015611f8e57600080fd5b505190508715611fb757611faa84610ea9836110948684613022565b9650505050505050611fde565b611faa611fc76117fb8e8e6126e2565b610ea96402540be40061109488838783838b613022565b95945050505050565b6402540be400811115612041576040805162461bcd60e51b815260206004820152600f60248201527f46656520697320746f6f20686967680000000000000000000000000000000000604482015290519081900360640190fd5b600582018190556040805182815290517fab599d640ca80cde2b09b128a4154a8dfe608cb80f4c9399c8b954b01fd35f389181900360200190a15050565b60008061209c61208e84613585565b612097856131e3565b6132d6565b905060008360070160009054906101000a90046001600160a01b03166001600160a01b03166318160ddd6040518163ffffffff1660e01b815260040160206040518083038186803b1580156120f057600080fd5b505afa158015612104573d6000803e3d6000fd5b505050506040513d602081101561211a57600080fd5b5051905080156121bd576121b481610ea98660070160009054906101000a90046001600160a01b03166001600160a01b031663313ce5676040518163ffffffff1660e01b815260040160206040518083038186803b15801561217b57600080fd5b505afa15801561218f573d6000803e3d6000fd5b505050506040513d60208110156121a557600080fd5b5051859060ff16600a0a6134ea565b925050506121c4565b6000925050505b919050565b6007840154604080517f70a0823100000000000000000000000000000000000000000000000000000000815233600482015290516060926001600160a01b0316916370a08231916024808301926020929190829003018186803b15801561222f57600080fd5b505afa158015612243573d6000803e3d6000fd5b505050506040513d602081101561225957600080fd5b50518411156122af576040805162461bcd60e51b815260206004820152600d60248201527f3e4c502e62616c616e63654f6600000000000000000000000000000000000000604482015290519081900360640190fd5b60088501548214612307576040805162461bcd60e51b815260206004820181905260248201527f6d696e416d6f756e7473206d757374206d6174636820706f6f6c546f6b656e73604482015290519081900360640190fd5b6060612314863387613814565b905060005b81518110156124275784848281811061232e57fe5b9050602002013582828151811061234157fe5b6020026020010151101561239c576040805162461bcd60e51b815260206004820152601a60248201527f616d6f756e74735b695d203c206d696e416d6f756e74735b695d000000000000604482015290519081900360640190fd5b6123db8282815181106123ab57fe5b602002602001015188600a0183815481106123c257fe5b906000526020600020015461302290919063ffffffff16565b87600a0182815481106123ea57fe5b906000526020600020018190555061241f3383838151811061240857fe5b602002602001015189600801848154811061192e57fe5b600101612319565b506007860154604080517f79cc67900000000000000000000000000000000000000000000000000000000081523360048201526024810188905290516001600160a01b03909216916379cc67909160448082019260009290919082900301818387803b15801561249657600080fd5b505af11580156124aa573d6000803e3d6000fd5b50505050336001600160a01b03167f88d38ed598fdd809c2bf01ee49cd24b7fdabf379a83d29567952b60324d58cef828860070160009054906101000a90046001600160a01b03166001600160a01b03166318160ddd6040518163ffffffff1660e01b815260040160206040518083038186803b15801561252a57600080fd5b505afa15801561253e573d6000803e3d6000fd5b505050506040513d602081101561255457600080fd5b50516040805160208181018490528282528451928201929092528351909182916060830191868101910280838360005b8381101561259c578181015183820152602001612584565b50505050905001935050505060405180910390a290505b949350505050565b60088201546000908210612616576040805162461bcd60e51b815260206004820152601860248201527f546f6b656e20696e646578206f7574206f662072616e67650000000000000000604482015290519081900360640190fd5b61264283600a01838154811061262857fe5b9060005260206000200154846008018481548110610ce257fe5b90505b92915050565b6305f5e1008111156126a4576040805162461bcd60e51b815260206004820152600f60248201527f46656520697320746f6f20686967680000000000000000000000000000000000604482015290519081900360640190fd5b600682018190556040805182815290517fd5fe46099fa396290a7f57e36c3c3c8774e2562c18ed5d1dcc0fa75071e03f1d9181900360200190a15050565b6001600160a01b0381166000908152600b83016020526040812054819061270c906224ea00613189565b90504281111561277f5760006127228242613022565b90506127766402540be400610ea96224ea00610ea9856110948b600c0160008c6001600160a01b03166001600160a01b03168152602001908152602001600020548c600601546134ea90919063ffffffff16565b92505050612645565b5060009392505050565b6000856008018560ff168154811061279d57fe5b60009182526020918290200154604080517f70a0823100000000000000000000000000000000000000000000000000000000815233600482015290516001600160a01b03909216926370a0823192602480840193829003018186803b15801561280557600080fd5b505afa158015612819573d6000803e3d6000fd5b505050506040513d602081101561282f57600080fd5b5051831115612885576040805162461bcd60e51b815260206004820152601d60248201527f43616e6e6f742073776170206d6f7265207468616e20796f75206f776e000000604482015290519081900360640190fd5b6000866008018660ff168154811061289957fe5b60009182526020918290200154604080517f70a0823100000000000000000000000000000000000000000000000000000000815230600482015290516001600160a01b03909216926370a0823192602480840193829003018186803b15801561290157600080fd5b505afa158015612915573d6000803e3d6000fd5b505050506040513d602081101561292b57600080fd5b505160088801805491925061294e913391309188919060ff8c16908110610cb257fe5b600061296682896008018960ff1681548110610ce257fe5b90506000806129778a8a8a866136ca565b91509150858210156129d0576040805162461bcd60e51b815260206004820181905260248201527f53776170206469646e277420726573756c7420696e206d696e20746f6b656e73604482015290519081900360640190fd5b6000612a128b6009018a60ff16815481106129e757fe5b9060005260206000200154610ea96402540be400610ea98f60050154876134ea90919063ffffffff16565b9050612a2a848c600a018c60ff1681548110610d8a57fe5b8b600a018b60ff1681548110612a3c57fe5b9060005260206000200181905550612a6a81612a64858e600a018d60ff16815481106123c257fe5b90613022565b8b600a018a60ff1681548110612a7c57fe5b9060005260206000200181905550612aa133848d6008018c60ff168154811061192e57fe5b604080518581526020810185905260ff808d16828401528b166060820152905133917fc6c1e0630dbe9130cc068028486c0d118ddcea348550819defd5cb8c257f8a38919081900360800190a250909998505050505050505050565b6305f5e10081565b6000612645826139c4565b6000612645826131e3565b606481565b600080600080612b318886886139d4565b80925081935050506000612b7a83612a648b6009018960ff1681548110612b5457fe5b9060005260206000200154610ea986612b6c8f613585565b8c60ff1681518110610fb657fe5b9050612b9c6402540be400610ea9612b956117fb8d8d6126e2565b86906134ea565b999098509650505050505050565b6000808560070160009054906101000a90046001600160a01b03166001600160a01b03166318160ddd6040518163ffffffff1660e01b815260040160206040518083038186803b158015612bfd57600080fd5b505afa158015612c11573d6000803e3d6000fd5b505050506040513d6020811015612c2757600080fd5b505160088701546007880154604080517f70a08231000000000000000000000000000000000000000000000000000000008152336004820152905193945091926001600160a01b03909116916370a08231916024808301926020929190829003018186803b158015612c9857600080fd5b505afa158015612cac573d6000803e3d6000fd5b505050506040513d6020811015612cc257600080fd5b5051861115612d18576040805162461bcd60e51b815260206004820152600d60248201527f3e4c502e62616c616e63654f6600000000000000000000000000000000000000604482015290519081900360640190fd5b808560ff1610612d6f576040805162461bcd60e51b815260206004820152600f60248201527f546f6b656e206e6f7420666f756e640000000000000000000000000000000000604482015290519081900360640190fd5b600080612d7e89338a8a612b20565b9250905085811015612dd7576040805162461bcd60e51b815260206004820152600e60248201527f6479203c206d696e416d6f756e74000000000000000000000000000000000000604482015290519081900360640190fd5b612e16612e04612dfd6402540be400610ea98d60050154876134ea90919063ffffffff16565b8390613189565b8a600a018960ff16815481106123c257fe5b89600a018860ff1681548110612e2857fe5b600091825260208220019190915560078a0154604080517f79cc6790000000000000000000000000000000000000000000000000000000008152336004820152602481018c905290516001600160a01b03909216926379cc67909260448084019382900301818387803b158015612e9e57600080fd5b505af1158015612eb2573d6000803e3d6000fd5b50505050612ecd33828b6008018a60ff168154811061192e57fe5b604080518981526020810186905260ff89168183015260608101839052905133917f43fb02998f4e03da2e0e6fff53fdbf0c40a9f45f145dc377fc30615d7d7a8a64919081900360800190a298975050505050505050565b6001600160a01b03166000908152600b91909101602052604090205490565b610976838383613d3e565b42816003015411612fa7576040805162461bcd60e51b815260206004820152601760248201527f52616d7020697320616c72656164792073746f70706564000000000000000000604482015290519081900360640190fd5b6000612fb2826131e3565b8083556001830181905542600284018190556003840181905560408051838152602081019290925280519293507f46e22fb3709ad289f62ce63d469248536dbc78d82b84a3d7e74ad606dc20193892918290030190a15050565b6402540be40081565b60606125b3848484613814565b600061264283836040518060400160405280601e81526020017f536166654d6174683a207375627472616374696f6e206f766572666c6f770000815250613633565b604080516001600160a01b038416602482015260448082018490528251808303909101815260649091019091526020810180517bffffffffffffffffffffffffffffffffffffffffffffffffffffffff167fa9059cbb00000000000000000000000000000000000000000000000000000000179052610976908490613ead565b60006126456130f283613585565b612097846131e3565b604080516001600160a01b0380861660248301528416604482015260648082018490528251808303909101815260849091019091526020810180517bffffffffffffffffffffffffffffffffffffffffffffffffffffffff167f23b872dd00000000000000000000000000000000000000000000000000000000179052613183908590613ead565b50505050565b600082820183811015612642576040805162461bcd60e51b815260206004820152601b60248201527f536166654d6174683a206164646974696f6e206f766572666c6f770000000000604482015290519081900360640190fd5b60038101546001820154600091904282111561326f5760028401548454808311156132415761323661322f6132188685613022565b610ea96132254287613022565b6110948887613022565b8290613189565b9450505050506121c4565b6132366132686132518685613022565b610ea961325e4287613022565b6110948689613022565b8290613022565b91506121c49050565b606061264282846009018054806020026020016040519081016040528092919081815260200182805480156132cc57602002820191906000526020600020905b8154815260200190600101908083116132b8575b5050505050613f5e565b815160009081805b828110156133165761330c8682815181106132f557fe5b60200260200101518361318990919063ffffffff16565b91506001016132de565b508061332757600092505050612645565b6000818161333587866134ea565b905060005b61010081101561346f578260005b878110156133775761336d613363898d8481518110610f9457fe5b610ea984886134ea565b9150600101613348565b5092935083926133cb6133ab613392836110948b6001613189565b6133a56064610ea9896110948a84613022565b90613189565b610ea9866110946133bc868d6134ea565b6133a56064610ea98b8f6134ea565b93508373c0409ec303b727bc1f511d7f8c71fd5ead96de1c6313a1ec759091876040518363ffffffff1660e01b8152600401808381526020018281526020019250505060206040518083038186803b15801561342657600080fd5b505af415801561343a573d6000803e3d6000fd5b505050506040513d602081101561345057600080fd5b5051156134665783975050505050505050612645565b5060010161333a565b506040805162461bcd60e51b815260206004820152601360248201527f4420646f6573206e6f7420636f6e766572676500000000000000000000000000604482015290519081900360640190fd5b6008810154600090612645906134db90600490611094906001613022565b60088401546004850154610ea9915b6000826134f957506000612645565b8282028284828161350657fe5b04146126425760405162461bcd60e51b81526004018080602001828103825260218152602001806147dc6021913960400191505060405180910390fd5b600061264283836040518060400160405280601a81526020017f536166654d6174683a206469766973696f6e206279207a65726f000000000000815250614055565b606061264582600a018054806020026020016040519081016040528092919081815260200182805480156135d857602002820191906000526020600020905b8154815260200190600101908083116135c4575b5050505050836009018054806020026020016040519081016040528092919081815260200182805480156132cc57602002820191906000526020600020908154815260200190600101908083116132b8575050505050613f5e565b600081848411156136c25760405162461bcd60e51b81526004018080602001828103825283818151815260200191508051906020019080838360005b8381101561368757818101518382015260200161366f565b50505050905090810190601f1680156136b45780820380516001836020036101000a031916815260200191505b509250505060405180910390fd5b505050900390565b60008060606136d887613585565b905080518660ff161080156136f0575080518560ff16105b613741576040805162461bcd60e51b815260206004820152601860248201527f546f6b656e20696e646578206f7574206f662072616e67650000000000000000604482015290519081900360640190fd5b600061378c828860ff168151811061375557fe5b60200260200101516133a58a6009018a60ff168154811061377257fe5b9060005260206000200154886134ea90919063ffffffff16565b9050600061379d89898985876140ba565b90506137b76001612a6483868b60ff1681518110610fb657fe5b94506137d96402540be400610ea98b60040154886134ea90919063ffffffff16565b9350613806896009018860ff16815481106137f057fe5b600091825260209091200154610ea98787613022565b945050505094509492505050565b606060008460070160009054906101000a90046001600160a01b03166001600160a01b03166318160ddd6040518163ffffffff1660e01b815260040160206040518083038186803b15801561386857600080fd5b505afa15801561387c573d6000803e3d6000fd5b505050506040513d602081101561389257600080fd5b50519050808311156138eb576040805162461bcd60e51b815260206004820152601a60248201527f43616e6e6f742065786365656420746f74616c20737570706c79000000000000604482015290519081900360640190fd5b600061390d6402540be400610ea96139066117fb8a8a6126e2565b87906134ea565b600887015490915060609067ffffffffffffffff8111801561392e57600080fd5b50604051908082528060200260200182016040528015613958578160200160208202803683370190505b50905060005b60088801548110156139b95761399a84610ea9858b600a01858154811061398157fe5b90600052602060002001546134ea90919063ffffffff16565b8282815181106139a657fe5b602090810291909101015260010161395e565b509695505050505050565b60006126456064610ea9846131e3565b6008830154600090819060ff851610613a34576040805162461bcd60e51b815260206004820152601860248201527f546f6b656e20696e646578206f7574206f662072616e67650000000000000000604482015290519081900360640190fd5b6060613a3f86613585565b9050613a49614797565b6040518060a001604052806000815260200160008152602001600081526020016000815260200160008152509050613a80876131e3565b60808201819052613a929083906132d6565b81526007870154604080517f18160ddd0000000000000000000000000000000000000000000000000000000081529051613b3d92613b35926001600160a01b03909116916318160ddd91600480820192602092909190829003018186803b158015613afc57600080fd5b505afa158015613b10573d6000803e3d6000fd5b505050506040513d6020811015613b2657600080fd5b50518351610ea99089906134ea565b825190613022565b60208201528151829060ff8816908110613b5357fe5b6020026020010151851115613baf576040805162461bcd60e51b815260206004820152601a60248201527f5769746864726177206578636565647320617661696c61626c65000000000000604482015290519081900360640190fd5b613bc381608001518784846020015161438c565b6040820152815160609067ffffffffffffffff81118015613be357600080fd5b50604051908082528060200260200182016040528015613c0d578160200160208202803683370190505b509050613c19886134bd565b606083015260005b6008890154811015613cd0576000848281518110613c3b57fe5b60200260200101519050613cb06132686402540be400610ea987606001518d60ff168714613c8957885160208a0151613c8491613c7d91610ea9908a906134ea565b8790613022565b611094565b6110948960400151612a648b60000151610ea98d602001518b6134ea90919063ffffffff16565b838381518110613cbc57fe5b602090810291909101015250600101613c21565b506000613cf9613cea84608001518a85876020015161438c565b838a60ff1681518110610fb657fe5b9050613d27896009018960ff1681548110613d1057fe5b600091825260209091200154610ea9836001613022565b604090930151929550919350505050935093915050565b6001600160a01b038216613d5157610976565b6006830154613d81576001600160a01b0382166000908152600c8401602052604090206402540be4009055613e8c565b6000613d8d84846126e2565b6007850154604080517f70a082310000000000000000000000000000000000000000000000000000000081526001600160a01b038781166004830152915193945060009391909216916370a08231916024808301926020929190829003018186803b158015613dfb57600080fd5b505afa158015613e0f573d6000803e3d6000fd5b505050506040513d6020811015613e2557600080fd5b50516006860154909150613e6e90613e41906110948685613189565b610ea96402540be400611094613e648a60060154896134ea90919063ffffffff16565b6133a587896134ea565b6001600160a01b0385166000908152600c8701602052604090205550505b506001600160a01b03166000908152600b9190910160205260409020429055565b6060613f02826040518060400160405280602081526020017f5361666545524332303a206c6f772d6c6576656c2063616c6c206661696c6564815250856001600160a01b03166145749092919063ffffffff16565b80519091501561097657808060200190516020811015613f2157600080fd5b50516109765760405162461bcd60e51b815260040180806020018281038252602a8152602001806147fd602a913960400191505060405180910390fd5b81518151606091908114613fb9576040805162461bcd60e51b815260206004820152601f60248201527f42616c616e636573206d757374206d61746368206d756c7469706c6965727300604482015290519081900360640190fd5b60608167ffffffffffffffff81118015613fd257600080fd5b50604051908082528060200260200182016040528015613ffc578160200160208202803683370190505b50905060005b8281101561404c5761402d85828151811061401957fe5b6020026020010151878381518110610f9457fe5b82828151811061403957fe5b6020908102919091010152600101614002565b50949350505050565b600081836140a45760405162461bcd60e51b815260206004820181815283516024840152835190928392604490910191908501908083836000831561368757818101518382015260200161366f565b5060008385816140b057fe5b0495945050505050565b600885015460009060ff868116908616141561411d576040805162461bcd60e51b815260206004820152601d60248201527f43616e277420636f6d7061726520746f6b656e20746f20697473656c66000000604482015290519081900360640190fd5b808660ff161080156141315750808560ff16105b614182576040805162461bcd60e51b815260206004820152601660248201527f546f6b656e73206d75737420626520696e20706f6f6c00000000000000000000604482015290519081900360640190fd5b600061418d886131e3565b9050600061419b85836132d6565b9050806000806141ab86866134ea565b90506000805b87811015614224578c60ff168114156141cc578a91506141f6565b8b60ff1681146141f1578981815181106141e257fe5b602002602001015191506141f6565b61421c565b6142008483613189565b935061421961420f838a6134ea565b610ea987896134ea565b94505b6001016141b1565b5061424161423283896134ea565b610ea96064611094888a6134ea565b9350600061425e61425784610ea98960646134ea565b8590613189565b9050600086815b61010081101561433e57909150819061429861428a8a612a64876133a58760026134ea565b610ea98a6133a586806134ea565b91508173c0409ec303b727bc1f511d7f8c71fd5ead96de1c6313a1ec759091856040518363ffffffff1660e01b8152600401808381526020018281526020019250505060206040518083038186803b1580156142f357600080fd5b505af4158015614307573d6000803e3d6000fd5b505050506040513d602081101561431d57600080fd5b50511561433657509950611fde98505050505050505050565b600101614265565b506040805162461bcd60e51b815260206004820152601e60248201527f417070726f78696d6174696f6e20646964206e6f7420636f6e76657267650000604482015290519081900360640190fd5b815160009060ff851681116143e8576040805162461bcd60e51b815260206004820152600f60248201527f546f6b656e206e6f7420666f756e640000000000000000000000000000000000604482015290519081900360640190fd5b826000806143f689856134ea565b905060005b8481101561445d578860ff1681146144555761443388828151811061441c57fe5b60200260200101518461318990919063ffffffff16565b9250614452614448868a8481518110610f9457fe5b610ea9868a6134ea565b93505b6001016143fb565b5061447a61446b82866134ea565b610ea96064611094878b6134ea565b9250600061449761449083610ea98a60646134ea565b8490613189565b9050600087815b61010081101561433e5790915081906144d16144c38b612a64876133a58760026134ea565b610ea9896133a586806134ea565b91508173c0409ec303b727bc1f511d7f8c71fd5ead96de1c6313a1ec759091856040518363ffffffff1660e01b8152600401808381526020018281526020019250505060206040518083038186803b15801561452c57600080fd5b505af4158015614540573d6000803e3d6000fd5b505050506040513d602081101561455657600080fd5b50511561456c575096506125b395505050505050565b60010161449e565b60606125b3848460008585614588856146b8565b6145d9576040805162461bcd60e51b815260206004820152601d60248201527f416464726573733a2063616c6c20746f206e6f6e2d636f6e7472616374000000604482015290519081900360640190fd5b60006060866001600160a01b031685876040518082805190602001908083835b6020831061463657805182527fffffffffffffffffffffffffffffffffffffffffffffffffffffffffffffffe090920191602091820191016145f9565b6001836020036101000a03801982511681845116808217855250505050505090500191505060006040518083038185875af1925050503d8060008114614698576040519150601f19603f3d011682016040523d82523d6000602084013e61469d565b606091505b50915091506146ad8282866146be565b979650505050505050565b3b151590565b606083156146cd57508161125c565b8251156146dd5782518084602001fd5b60405162461bcd60e51b815260206004820181815284516024840152845185939192839260440191908501908083836000831561368757818101518382015260200161366f565b6040518060800160405280600081526020016000815260200160008152602001600081525090565b828054828255906000526020600020908101928215614787579160200282015b8281111561478757825182559160200191906001019061476c565b506147939291506147c6565b5090565b6040518060a0016040528060008152602001600081526020016000815260200160008152602001600081525090565b5b8082111561479357600081556001016147c756fe536166654d6174683a206d756c7469706c69636174696f6e206f766572666c6f775361666545524332303a204552433230206f7065726174696f6e20646964206e6f74207375636365656443616e6e6f74207769746864726177206d6f7265207468616e20617661696c61626c65a2646970667358221220f4d609ee67ac440c19d6265546540d952791645db468ce10cff37094e31ac3d364736f6c634300060c0033",
  "deployedBytecode": "0x73000000000000000000000000000000000000000030146080604052600436106101ce5760003560e01c8063968e559411610103578063e4a9a0da116100a1578063e9252d461161007b578063e9252d46146107d2578063f14e211e14610811578063f3de03621461083b578063f967a81f14610843576101ce565b8063e4a9a0da14610713578063e7a4db8114610767578063e8c47a54146107a6576101ce565b8063b0a14cfc116100dd578063b0a14cfc146106d1578063c9b64dcb146106ee578063d011f9181461070b578063d4b0de2f146106c9576101ce565b8063968e559414610654578063a5397b2214610680578063ab3d8544146106c9576101ce565b806358fdd79b1161017057806371906c2c1161014a57806371906c2c1461050b57806373fd6b3e146105285780637d048160146106015780638ab7697e14610624576101ce565b806358fdd79b1461041e5780635e58579c1461045457806370467276146104db576101ce565b806340370edf116101ac57806340370edf1461024657806341b91c26146102ff578063467e186c146103b85780634b23603c146103e8576101ce565b80630296ab50146101d357806324c5c751146101f1578063396984151461022c575b600080fd5b6101db610875565b6040805160ff9092168252519081900360200190f35b8180156101fd57600080fd5b5061022a6004803603604081101561021457600080fd5b50803590602001356001600160a01b031661087a565b005b61023461097b565b60408051918252519081900360200190f35b81801561025257600080fd5b506102346004803603606081101561026957600080fd5b8135919081019060408101602082013564010000000081111561028b57600080fd5b82018360208201111561029d57600080fd5b803590602001918460208302840111640100000000831117156102bf57600080fd5b9190808060200260200160405190810160405280939291908181526020018383602002808284376000920191909152509295505091359250610982915050565b81801561030b57600080fd5b506102346004803603606081101561032257600080fd5b8135919081019060408101602082013564010000000081111561034457600080fd5b82018360208201111561035657600080fd5b8035906020019184602083028401116401000000008311171561037857600080fd5b9190808060200260200160405190810160405280939291908181526020018383602002808284376000920191909152509295505091359250611263915050565b8180156103c457600080fd5b5061022a600480360360408110156103db57600080fd5b5080359060200135611a3d565b610234600480360360808110156103fe57600080fd5b5080359060ff602082013581169160408101359091169060600135611ad4565b81801561042a57600080fd5b5061022a6004803603606081101561044157600080fd5b5080359060208101359060400135611aec565b6102346004803603608081101561046a57600080fd5b8135916001600160a01b036020820135169181019060608101604082013564010000000081111561049a57600080fd5b8201836020820111156104ac57600080fd5b803590602001918460208302840111640100000000831117156104ce57600080fd5b9193509150351515611d64565b8180156104e757600080fd5b5061022a600480360360408110156104fe57600080fd5b5080359060200135611fe7565b6102346004803603602081101561052157600080fd5b503561207f565b81801561053457600080fd5b506105b16004803603606081101561054b57600080fd5b81359160208101359181019060608101604082013564010000000081111561057257600080fd5b82018360208201111561058457600080fd5b803590602001918460208302840111640100000000831117156105a657600080fd5b5090925090506121c9565b60408051602080825283518183015283519192839290830191858101910280838360005b838110156105ed5781810151838201526020016105d5565b505050509050019250505060405180910390f35b6102346004803603604081101561061757600080fd5b50803590602001356125bb565b81801561063057600080fd5b5061022a6004803603604081101561064757600080fd5b508035906020013561264b565b6102346004803603604081101561066a57600080fd5b50803590602001356001600160a01b03166126e2565b81801561068c57600080fd5b50610234600480360360a08110156106a357600080fd5b5080359060ff602082013581169160408101359091169060608101359060800135612789565b610234612afd565b610234600480360360208110156106e757600080fd5b5035612b05565b6102346004803603602081101561070457600080fd5b5035612b10565b610234612b1b565b61074e6004803603608081101561072957600080fd5b5080359060208101356001600160a01b0316906040810135906060013560ff16612b20565b6040805192835260208301919091528051918290030190f35b81801561077357600080fd5b506102346004803603608081101561078a57600080fd5b5080359060208101359060ff6040820135169060600135612baa565b610234600480360360408110156107bc57600080fd5b50803590602001356001600160a01b0316612f25565b8180156107de57600080fd5b5061022a600480360360608110156107f557600080fd5b508035906001600160a01b036020820135169060400135612f44565b81801561081d57600080fd5b5061022a6004803603602081101561083457600080fd5b5035612f4f565b61023461300c565b6105b16004803603606081101561085957600080fd5b508035906001600160a01b036020820135169060400135613015565b601281565b60005b600883015481101561097657600083600801828154811061089a57fe5b6000918252602082200154600a860180546001600160a01b03909216935061095091859081106108c657fe5b9060005260206000200154836001600160a01b03166370a08231306040518263ffffffff1660e01b815260040180826001600160a01b0316815260200191505060206040518083038186803b15801561091e57600080fd5b505afa158015610932573d6000803e3d6000fd5b505050506040513d602081101561094857600080fd5b505190613022565b9050801561096c5761096c6001600160a01b0383168583613064565b505060010161087d565b505050565b620f424081565b60088301548251600091146109de576040805162461bcd60e51b815260206004820181905260248201527f416d6f756e7473206d757374206d6174636820706f6f6c656420746f6b656e73604482015290519081900360640190fd5b600884015460609067ffffffffffffffff811180156109fc57600080fd5b50604051908082528060200260200182016040528015610a26578160200160208202803683370190505b509050610a31614724565b60405180608001604052806000815260200160008152602001600081526020016000815250905060008660070160009054906101000a90046001600160a01b03166001600160a01b03166318160ddd6040518163ffffffff1660e01b815260040160206040518083038186803b158015610aaa57600080fd5b505afa158015610abe573d6000803e3d6000fd5b505050506040513d6020811015610ad457600080fd5b505190508015610aea57610ae7876130e4565b82525b606087600a01805480602002602001604051908101604052809291908181526020018280548015610b3a57602002820191906000526020600020905b815481526020019060010190808311610b26575b5050505050905060005b6008890154811015610dc25782151580610b7157506000888281518110610b6757fe5b6020026020010151115b610bc2576040805162461bcd60e51b815260206004820152601e60248201527f4d75737420737570706c7920616c6c20746f6b656e7320696e20706f6f6c0000604482015290519081900360640190fd5b878181518110610bce57fe5b6020026020010151600014610d64576000896008018281548110610bee57fe5b60009182526020918290200154604080517f70a0823100000000000000000000000000000000000000000000000000000000815230600482015290516001600160a01b03909216926370a0823192602480840193829003018186803b158015610c5657600080fd5b505afa158015610c6a573d6000803e3d6000fd5b505050506040513d6020811015610c8057600080fd5b50518951909150610ccf90339030908c9086908110610c9b57fe5b60200260200101518d6008018681548110610cb257fe5b6000918252602090912001546001600160a01b03169291906130fb565b610d4a818b6008018481548110610ce257fe5b60009182526020918290200154604080517f70a0823100000000000000000000000000000000000000000000000000000000815230600482015290516001600160a01b03909216926370a0823192602480840193829003018186803b15801561091e57600080fd5b898381518110610d5657fe5b602002602001018181525050505b610da3888281518110610d7357fe5b60200260200101518a600a018381548110610d8a57fe5b906000526020600020015461318990919063ffffffff16565b828281518110610daf57fe5b6020908102919091010152600101610b44565b50610dcc886131e3565b6060840152610de8610dde8983613278565b84606001516132d6565b60208401819052835110610e43576040805162461bcd60e51b815260206004820152601160248201527f442073686f756c6420696e637265617365000000000000000000000000000000604482015290519081900360640190fd5b60208301516040840152811561104f576000610e5e896134bd565b905060005b60088a015481101561102c576000610eaf8660000151610ea98d600a018581548110610e8b57fe5b906000526020600020015489602001516134ea90919063ffffffff16565b90613543565b9050610f5c6402540be400610ea98373__$5dc460cc747dc4210092f6da12cdb25a64$__63a95cb7f79091898881518110610ee657fe5b60200260200101516040518363ffffffff1660e01b8152600401808381526020018281526020019250505060206040518083038186803b158015610f2957600080fd5b505af4158015610f3d573d6000803e3d6000fd5b505050506040513d6020811015610f5357600080fd5b505186906134ea565b878381518110610f6857fe5b602002602001018181525050610fcc610faa6402540be400610ea98e600501548b8781518110610f9457fe5b60200260200101516134ea90919063ffffffff16565b858481518110610fb657fe5b602002602001015161302290919063ffffffff16565b8b600a018381548110610fdb57fe5b906000526020600020018190555061100c878381518110610ff857fe5b6020026020010151858481518110610fb657fe5b84838151811061101857fe5b602090810291909101015250600101610e63565b5061104461103a8a84613278565b85606001516132d6565b604085015250611066565b805161106490600a8a0190602084019061474c565b505b6000826110785750602083015161109d565b8351604085015161109a9190610ea99086906110949084613022565b906134ea565b90505b868110156110f2576040805162461bcd60e51b815260206004820152601b60248201527f436f756c646e2774206d696e74206d696e207265717565737465640000000000604482015290519081900360640190fd5b6007890154604080517f40c10f190000000000000000000000000000000000000000000000000000000081523360048201526024810184905290516001600160a01b03909216916340c10f199160448082019260009290919082900301818387803b15801561116057600080fd5b505af1158015611174573d6000803e3d6000fd5b50505060208501513391507f189c623b666b1b45b83d7178f39b8c087cb09774317ca2f53c2d3c3726f222a2908a9088906111af8887613189565b604051808060200180602001858152602001848152602001838103835287818151815260200191508051906020019060200280838360005b838110156111ff5781810151838201526020016111e7565b50505050905001838103825286818151815260200191508051906020019060200280838360005b8381101561123e578181015183820152602001611226565b50505050905001965050505050505060405180910390a29450505050505b9392505050565b60088301548251600091146112bf576040805162461bcd60e51b815260206004820181905260248201527f416d6f756e74732073686f756c64206d6174636820706f6f6c20746f6b656e73604482015290519081900360640190fd5b6007840154604080517f70a0823100000000000000000000000000000000000000000000000000000000815233600482015290516001600160a01b03909216916370a0823191602480820192602092909190829003018186803b15801561132557600080fd5b505afa158015611339573d6000803e3d6000fd5b505050506040513d602081101561134f57600080fd5b5051821180159061135f57508115155b6113b0576040805162461bcd60e51b815260206004820152600d60248201527f3e4c502e62616c616e63654f6600000000000000000000000000000000000000604482015290519081900360640190fd5b6113b8614724565b60405180608001604052806000815260200160008152602001600081526020016000815250905060008560070160009054906101000a90046001600160a01b03166001600160a01b03166318160ddd6040518163ffffffff1660e01b815260040160206040518083038186803b15801561143157600080fd5b505afa158015611445573d6000803e3d6000fd5b505050506040513d602081101561145b57600080fd5b50519050600061146a876134bd565b9050606087600a018054806020026020016040519081016040528092919081815260200182805480156114bc57602002820191906000526020600020905b8154815260200190600101908083116114a8575b505050505090506114cc886131e3565b60608501526114dd61103a89613585565b845260005b6008890154811015611560576115418882815181106114fd57fe5b60200260200101516040518060600160405280602381526020016148276023913984848151811061152a57fe5b60200260200101516136339092919063ffffffff16565b82828151811061154d57fe5b60209081029190910101526001016114e2565b5061156e61103a8983613278565b6020850152600888015460609067ffffffffffffffff8111801561159157600080fd5b506040519080825280602002602001820160405280156115bb578160200160208202803683370190505b50905060005b60088a015481101561175d5760006116078760000151610ea98d600a0185815481106115e957fe5b90600052602060002001548a602001516134ea90919063ffffffff16565b905060008173__$5dc460cc747dc4210092f6da12cdb25a64$__63a95cb7f7909187868151811061163457fe5b60200260200101516040518363ffffffff1660e01b8152600401808381526020018281526020019250505060206040518083038186803b15801561167757600080fd5b505af415801561168b573d6000803e3d6000fd5b505050506040513d60208110156116a157600080fd5b505190506116b86402540be400610ea988846134ea565b8484815181106116c457fe5b6020026020010181815250506116fc6116f06402540be400610ea98f60050154888881518110610f9457fe5b868581518110610fb657fe5b8c600a01848154811061170b57fe5b906000526020600020018190555061173c84848151811061172857fe5b6020026020010151868581518110610fb657fe5b85848151811061174857fe5b602090810291909101015250506001016115c1565b5061177561176b8a84613278565b86606001516132d6565b6040860181905285516000916117979190610ea9908890611094908490613022565b9050806117eb576040805162461bcd60e51b815260206004820152601b60248201527f4275726e7420616d6f756e742063616e6e6f74206265207a65726f0000000000604482015290519081900360640190fd5b61181b6118076117fb8c336126e2565b6402540be40090613022565b610ea96402540be400611094856001613189565b905087811115611872576040805162461bcd60e51b815260206004820152601b60248201527f746f6b656e416d6f756e74203e206d61784275726e416d6f756e740000000000604482015290519081900360640190fd5b60078a0154604080517f79cc67900000000000000000000000000000000000000000000000000000000081523360048201526024810184905290516001600160a01b03909216916379cc67909160448082019260009290919082900301818387803b1580156118e057600080fd5b505af11580156118f4573d6000803e3d6000fd5b5050505060005b60088b01548110156119525761194a338b838151811061191757fe5b60200260200101518d600801848154811061192e57fe5b6000918252602090912001546001600160a01b03169190613064565b6001016118fb565b50602086015133907f3631c28b1f9dd213e0319fb167b554d76b6c283a41143eb400a0d1adb1af1755908b90859061198a8a87613022565b604051808060200180602001858152602001848152602001838103835287818151815260200191508051906020019060200280838360005b838110156119da5781810151838201526020016119c2565b50505050905001838103825286818151815260200191508051906020019060200280838360005b83811015611a19578181015183820152602001611a01565b50505050905001965050505050505060405180910390a29998505050505050505050565b6305f5e100811115611a96576040805162461bcd60e51b815260206004820152600f60248201527f46656520697320746f6f20686967680000000000000000000000000000000000604482015290519081900360640190fd5b600482018190556040805182815290517fd88ea5155021c6f8dafa1a741e173f595cdf77ce7c17d43342131d7f06afdfe59181900360200190a15050565b6000611ae2858585856136ca565b5095945050505050565b6002830154611afe9062015180613189565b421015611b52576040805162461bcd60e51b815260206004820152601f60248201527f57616974203120646179206265666f7265207374617274696e672072616d7000604482015290519081900360640190fd5b611b5f4262127500613189565b811015611bb3576040805162461bcd60e51b815260206004820152601660248201527f496e73756666696369656e742072616d702074696d6500000000000000000000604482015290519081900360640190fd5b600082118015611bc55750620f424082105b611c16576040805162461bcd60e51b815260206004820181905260248201527f667574757265415f206d757374206265203e203020616e64203c204d41585f41604482015290519081900360640190fd5b6000611c21846131e3565b90506000611c308460646134ea565b905081811015611c9e5781611c468260026134ea565b1015611c99576040805162461bcd60e51b815260206004820152601560248201527f667574757265415f20697320746f6f20736d616c6c0000000000000000000000604482015290519081900360640190fd5b611cfd565b611ca98260026134ea565b811115611cfd576040805162461bcd60e51b815260206004820152601560248201527f667574757265415f20697320746f6f206c617267650000000000000000000000604482015290519081900360640190fd5b8185556001850181905542600286018190556003860184905560408051848152602081018490528082019290925260608201859052517fa2b71ec6df949300b59aab36b55e189697b750119dd349fcfa8c0f779e83c2549181900360800190a15050505050565b600885015460009081611d76886131e3565b90506000611ddf611dd98a8b600a01805480602002602001604051908101604052809291908181526020018280548015611dcf57602002820191906000526020600020905b815481526020019060010190808311611dbb575b5050505050613278565b836132d6565b9050606089600a01805480602002602001604051908101604052809291908181526020018280548015611e3157602002820191906000526020600020905b815481526020019060010190808311611e1d575b5050505050905060005b84811015611efa578615611e9e57611e81898983818110611e5857fe5b90506020020135838381518110611e6b57fe5b602002602001015161318990919063ffffffff16565b828281518110611e8d57fe5b602002602001018181525050611ef2565b611ed9898983818110611ead57fe5b905060200201356040518060600160405280602381526020016148276023913984848151811061152a57fe5b828281518110611ee557fe5b6020026020010181815250505b600101611e3b565b506000611f10611f0a8c84613278565b856132d6565b905060008b60070160009054906101000a90046001600160a01b03166001600160a01b03166318160ddd6040518163ffffffff1660e01b815260040160206040518083038186803b158015611f6457600080fd5b505afa158015611f78573d6000803e3d6000fd5b505050506040513d6020811015611f8e57600080fd5b505190508715611fb757611faa84610ea9836110948684613022565b9650505050505050611fde565b611faa611fc76117fb8e8e6126e2565b610ea96402540be40061109488838783838b613022565b95945050505050565b6402540be400811115612041576040805162461bcd60e51b815260206004820152600f60248201527f46656520697320746f6f20686967680000000000000000000000000000000000604482015290519081900360640190fd5b600582018190556040805182815290517fab599d640ca80cde2b09b128a4154a8dfe608cb80f4c9399c8b954b01fd35f389181900360200190a15050565b60008061209c61208e84613585565b612097856131e3565b6132d6565b905060008360070160009054906101000a90046001600160a01b03166001600160a01b03166318160ddd6040518163ffffffff1660e01b815260040160206040518083038186803b1580156120f057600080fd5b505afa158015612104573d6000803e3d6000fd5b505050506040513d602081101561211a57600080fd5b5051905080156121bd576121b481610ea98660070160009054906101000a90046001600160a01b03166001600160a01b031663313ce5676040518163ffffffff1660e01b815260040160206040518083038186803b15801561217b57600080fd5b505afa15801561218f573d6000803e3d6000fd5b505050506040513d60208110156121a557600080fd5b5051859060ff16600a0a6134ea565b925050506121c4565b6000925050505b919050565b6007840154604080517f70a0823100000000000000000000000000000000000000000000000000000000815233600482015290516060926001600160a01b0316916370a08231916024808301926020929190829003018186803b15801561222f57600080fd5b505afa158015612243573d6000803e3d6000fd5b505050506040513d602081101561225957600080fd5b50518411156122af576040805162461bcd60e51b815260206004820152600d60248201527f3e4c502e62616c616e63654f6600000000000000000000000000000000000000604482015290519081900360640190fd5b60088501548214612307576040805162461bcd60e51b815260206004820181905260248201527f6d696e416d6f756e7473206d757374206d6174636820706f6f6c546f6b656e73604482015290519081900360640190fd5b6060612314863387613814565b905060005b81518110156124275784848281811061232e57fe5b9050602002013582828151811061234157fe5b6020026020010151101561239c576040805162461bcd60e51b815260206004820152601a60248201527f616d6f756e74735b695d203c206d696e416d6f756e74735b695d000000000000604482015290519081900360640190fd5b6123db8282815181106123ab57fe5b602002602001015188600a0183815481106123c257fe5b906000526020600020015461302290919063ffffffff16565b87600a0182815481106123ea57fe5b906000526020600020018190555061241f3383838151811061240857fe5b602002602001015189600801848154811061192e57fe5b600101612319565b506007860154604080517f79cc67900000000000000000000000000000000000000000000000000000000081523360048201526024810188905290516001600160a01b03909216916379cc67909160448082019260009290919082900301818387803b15801561249657600080fd5b505af11580156124aa573d6000803e3d6000fd5b50505050336001600160a01b03167f88d38ed598fdd809c2bf01ee49cd24b7fdabf379a83d29567952b60324d58cef828860070160009054906101000a90046001600160a01b03166001600160a01b03166318160ddd6040518163ffffffff1660e01b815260040160206040518083038186803b15801561252a57600080fd5b505afa15801561253e573d6000803e3d6000fd5b505050506040513d602081101561255457600080fd5b50516040805160208181018490528282528451928201929092528351909182916060830191868101910280838360005b8381101561259c578181015183820152602001612584565b50505050905001935050505060405180910390a290505b949350505050565b60088201546000908210612616576040805162461bcd60e51b815260206004820152601860248201527f546f6b656e20696e646578206f7574206f662072616e67650000000000000000604482015290519081900360640190fd5b61264283600a01838154811061262857fe5b9060005260206000200154846008018481548110610ce257fe5b90505b92915050565b6305f5e1008111156126a4576040805162461bcd60e51b815260206004820152600f60248201527f46656520697320746f6f20686967680000000000000000000000000000000000604482015290519081900360640190fd5b600682018190556040805182815290517fd5fe46099fa396290a7f57e36c3c3c8774e2562c18ed5d1dcc0fa75071e03f1d9181900360200190a15050565b6001600160a01b0381166000908152600b83016020526040812054819061270c906224ea00613189565b90504281111561277f5760006127228242613022565b90506127766402540be400610ea96224ea00610ea9856110948b600c0160008c6001600160a01b03166001600160a01b03168152602001908152602001600020548c600601546134ea90919063ffffffff16565b92505050612645565b5060009392505050565b6000856008018560ff168154811061279d57fe5b60009182526020918290200154604080517f70a0823100000000000000000000000000000000000000000000000000000000815233600482015290516001600160a01b03909216926370a0823192602480840193829003018186803b15801561280557600080fd5b505afa158015612819573d6000803e3d6000fd5b505050506040513d602081101561282f57600080fd5b5051831115612885576040805162461bcd60e51b815260206004820152601d60248201527f43616e6e6f742073776170206d6f7265207468616e20796f75206f776e000000604482015290519081900360640190fd5b6000866008018660ff168154811061289957fe5b60009182526020918290200154604080517f70a0823100000000000000000000000000000000000000000000000000000000815230600482015290516001600160a01b03909216926370a0823192602480840193829003018186803b15801561290157600080fd5b505afa158015612915573d6000803e3d6000fd5b505050506040513d602081101561292b57600080fd5b505160088801805491925061294e913391309188919060ff8c16908110610cb257fe5b600061296682896008018960ff1681548110610ce257fe5b90506000806129778a8a8a866136ca565b91509150858210156129d0576040805162461bcd60e51b815260206004820181905260248201527f53776170206469646e277420726573756c7420696e206d696e20746f6b656e73604482015290519081900360640190fd5b6000612a128b6009018a60ff16815481106129e757fe5b9060005260206000200154610ea96402540be400610ea98f60050154876134ea90919063ffffffff16565b9050612a2a848c600a018c60ff1681548110610d8a57fe5b8b600a018b60ff1681548110612a3c57fe5b9060005260206000200181905550612a6a81612a64858e600a018d60ff16815481106123c257fe5b90613022565b8b600a018a60ff1681548110612a7c57fe5b9060005260206000200181905550612aa133848d6008018c60ff168154811061192e57fe5b604080518581526020810185905260ff808d16828401528b166060820152905133917fc6c1e0630dbe9130cc068028486c0d118ddcea348550819defd5cb8c257f8a38919081900360800190a250909998505050505050505050565b6305f5e10081565b6000612645826139c4565b6000612645826131e3565b606481565b600080600080612b318886886139d4565b80925081935050506000612b7a83612a648b6009018960ff1681548110612b5457fe5b9060005260206000200154610ea986612b6c8f613585565b8c60ff1681518110610fb657fe5b9050612b9c6402540be400610ea9612b956117fb8d8d6126e2565b86906134ea565b999098509650505050505050565b6000808560070160009054906101000a90046001600160a01b03166001600160a01b03166318160ddd6040518163ffffffff1660e01b815260040160206040518083038186803b158015612bfd57600080fd5b505afa158015612c11573d6000803e3d6000fd5b505050506040513d6020811015612c2757600080fd5b505160088701546007880154604080517f70a08231000000000000000000000000000000000000000000000000000000008152336004820152905193945091926001600160a01b03909116916370a08231916024808301926020929190829003018186803b158015612c9857600080fd5b505afa158015612cac573d6000803e3d6000fd5b505050506040513d6020811015612cc257600080fd5b5051861115612d18576040805162461bcd60e51b815260206004820152600d60248201527f3e4c502e62616c616e63654f6600000000000000000000000000000000000000604482015290519081900360640190fd5b808560ff1610612d6f576040805162461bcd60e51b815260206004820152600f60248201527f546f6b656e206e6f7420666f756e640000000000000000000000000000000000604482015290519081900360640190fd5b600080612d7e89338a8a612b20565b9250905085811015612dd7576040805162461bcd60e51b815260206004820152600e60248201527f6479203c206d696e416d6f756e74000000000000000000000000000000000000604482015290519081900360640190fd5b612e16612e04612dfd6402540be400610ea98d60050154876134ea90919063ffffffff16565b8390613189565b8a600a018960ff16815481106123c257fe5b89600a018860ff1681548110612e2857fe5b600091825260208220019190915560078a0154604080517f79cc6790000000000000000000000000000000000000000000000000000000008152336004820152602481018c905290516001600160a01b03909216926379cc67909260448084019382900301818387803b158015612e9e57600080fd5b505af1158015612eb2573d6000803e3d6000fd5b50505050612ecd33828b6008018a60ff168154811061192e57fe5b604080518981526020810186905260ff89168183015260608101839052905133917f43fb02998f4e03da2e0e6fff53fdbf0c40a9f45f145dc377fc30615d7d7a8a64919081900360800190a298975050505050505050565b6001600160a01b03166000908152600b91909101602052604090205490565b610976838383613d3e565b42816003015411612fa7576040805162461bcd60e51b815260206004820152601760248201527f52616d7020697320616c72656164792073746f70706564000000000000000000604482015290519081900360640190fd5b6000612fb2826131e3565b8083556001830181905542600284018190556003840181905560408051838152602081019290925280519293507f46e22fb3709ad289f62ce63d469248536dbc78d82b84a3d7e74ad606dc20193892918290030190a15050565b6402540be40081565b60606125b3848484613814565b600061264283836040518060400160405280601e81526020017f536166654d6174683a207375627472616374696f6e206f766572666c6f770000815250613633565b604080516001600160a01b038416602482015260448082018490528251808303909101815260649091019091526020810180517bffffffffffffffffffffffffffffffffffffffffffffffffffffffff167fa9059cbb00000000000000000000000000000000000000000000000000000000179052610976908490613ead565b60006126456130f283613585565b612097846131e3565b604080516001600160a01b0380861660248301528416604482015260648082018490528251808303909101815260849091019091526020810180517bffffffffffffffffffffffffffffffffffffffffffffffffffffffff167f23b872dd00000000000000000000000000000000000000000000000000000000179052613183908590613ead565b50505050565b600082820183811015612642576040805162461bcd60e51b815260206004820152601b60248201527f536166654d6174683a206164646974696f6e206f766572666c6f770000000000604482015290519081900360640190fd5b60038101546001820154600091904282111561326f5760028401548454808311156132415761323661322f6132188685613022565b610ea96132254287613022565b6110948887613022565b8290613189565b9450505050506121c4565b6132366132686132518685613022565b610ea961325e4287613022565b6110948689613022565b8290613022565b91506121c49050565b606061264282846009018054806020026020016040519081016040528092919081815260200182805480156132cc57602002820191906000526020600020905b8154815260200190600101908083116132b8575b5050505050613f5e565b815160009081805b828110156133165761330c8682815181106132f557fe5b60200260200101518361318990919063ffffffff16565b91506001016132de565b508061332757600092505050612645565b6000818161333587866134ea565b905060005b61010081101561346f578260005b878110156133775761336d613363898d8481518110610f9457fe5b610ea984886134ea565b9150600101613348565b5092935083926133cb6133ab613392836110948b6001613189565b6133a56064610ea9896110948a84613022565b90613189565b610ea9866110946133bc868d6134ea565b6133a56064610ea98b8f6134ea565b93508373__$5dc460cc747dc4210092f6da12cdb25a64$__6313a1ec759091876040518363ffffffff1660e01b8152600401808381526020018281526020019250505060206040518083038186803b15801561342657600080fd5b505af415801561343a573d6000803e3d6000fd5b505050506040513d602081101561345057600080fd5b5051156134665783975050505050505050612645565b5060010161333a565b506040805162461bcd60e51b815260206004820152601360248201527f4420646f6573206e6f7420636f6e766572676500000000000000000000000000604482015290519081900360640190fd5b6008810154600090612645906134db90600490611094906001613022565b60088401546004850154610ea9915b6000826134f957506000612645565b8282028284828161350657fe5b04146126425760405162461bcd60e51b81526004018080602001828103825260218152602001806147dc6021913960400191505060405180910390fd5b600061264283836040518060400160405280601a81526020017f536166654d6174683a206469766973696f6e206279207a65726f000000000000815250614055565b606061264582600a018054806020026020016040519081016040528092919081815260200182805480156135d857602002820191906000526020600020905b8154815260200190600101908083116135c4575b5050505050836009018054806020026020016040519081016040528092919081815260200182805480156132cc57602002820191906000526020600020908154815260200190600101908083116132b8575050505050613f5e565b600081848411156136c25760405162461bcd60e51b81526004018080602001828103825283818151815260200191508051906020019080838360005b8381101561368757818101518382015260200161366f565b50505050905090810190601f1680156136b45780820380516001836020036101000a031916815260200191505b509250505060405180910390fd5b505050900390565b60008060606136d887613585565b905080518660ff161080156136f0575080518560ff16105b613741576040805162461bcd60e51b815260206004820152601860248201527f546f6b656e20696e646578206f7574206f662072616e67650000000000000000604482015290519081900360640190fd5b600061378c828860ff168151811061375557fe5b60200260200101516133a58a6009018a60ff168154811061377257fe5b9060005260206000200154886134ea90919063ffffffff16565b9050600061379d89898985876140ba565b90506137b76001612a6483868b60ff1681518110610fb657fe5b94506137d96402540be400610ea98b60040154886134ea90919063ffffffff16565b9350613806896009018860ff16815481106137f057fe5b600091825260209091200154610ea98787613022565b945050505094509492505050565b606060008460070160009054906101000a90046001600160a01b03166001600160a01b03166318160ddd6040518163ffffffff1660e01b815260040160206040518083038186803b15801561386857600080fd5b505afa15801561387c573d6000803e3d6000fd5b505050506040513d602081101561389257600080fd5b50519050808311156138eb576040805162461bcd60e51b815260206004820152601a60248201527f43616e6e6f742065786365656420746f74616c20737570706c79000000000000604482015290519081900360640190fd5b600061390d6402540be400610ea96139066117fb8a8a6126e2565b87906134ea565b600887015490915060609067ffffffffffffffff8111801561392e57600080fd5b50604051908082528060200260200182016040528015613958578160200160208202803683370190505b50905060005b60088801548110156139b95761399a84610ea9858b600a01858154811061398157fe5b90600052602060002001546134ea90919063ffffffff16565b8282815181106139a657fe5b602090810291909101015260010161395e565b509695505050505050565b60006126456064610ea9846131e3565b6008830154600090819060ff851610613a34576040805162461bcd60e51b815260206004820152601860248201527f546f6b656e20696e646578206f7574206f662072616e67650000000000000000604482015290519081900360640190fd5b6060613a3f86613585565b9050613a49614797565b6040518060a001604052806000815260200160008152602001600081526020016000815260200160008152509050613a80876131e3565b60808201819052613a929083906132d6565b81526007870154604080517f18160ddd0000000000000000000000000000000000000000000000000000000081529051613b3d92613b35926001600160a01b03909116916318160ddd91600480820192602092909190829003018186803b158015613afc57600080fd5b505afa158015613b10573d6000803e3d6000fd5b505050506040513d6020811015613b2657600080fd5b50518351610ea99089906134ea565b825190613022565b60208201528151829060ff8816908110613b5357fe5b6020026020010151851115613baf576040805162461bcd60e51b815260206004820152601a60248201527f5769746864726177206578636565647320617661696c61626c65000000000000604482015290519081900360640190fd5b613bc381608001518784846020015161438c565b6040820152815160609067ffffffffffffffff81118015613be357600080fd5b50604051908082528060200260200182016040528015613c0d578160200160208202803683370190505b509050613c19886134bd565b606083015260005b6008890154811015613cd0576000848281518110613c3b57fe5b60200260200101519050613cb06132686402540be400610ea987606001518d60ff168714613c8957885160208a0151613c8491613c7d91610ea9908a906134ea565b8790613022565b611094565b6110948960400151612a648b60000151610ea98d602001518b6134ea90919063ffffffff16565b838381518110613cbc57fe5b602090810291909101015250600101613c21565b506000613cf9613cea84608001518a85876020015161438c565b838a60ff1681518110610fb657fe5b9050613d27896009018960ff1681548110613d1057fe5b600091825260209091200154610ea9836001613022565b604090930151929550919350505050935093915050565b6001600160a01b038216613d5157610976565b6006830154613d81576001600160a01b0382166000908152600c8401602052604090206402540be4009055613e8c565b6000613d8d84846126e2565b6007850154604080517f70a082310000000000000000000000000000000000000000000000000000000081526001600160a01b038781166004830152915193945060009391909216916370a08231916024808301926020929190829003018186803b158015613dfb57600080fd5b505afa158015613e0f573d6000803e3d6000fd5b505050506040513d6020811015613e2557600080fd5b50516006860154909150613e6e90613e41906110948685613189565b610ea96402540be400611094613e648a60060154896134ea90919063ffffffff16565b6133a587896134ea565b6001600160a01b0385166000908152600c8701602052604090205550505b506001600160a01b03166000908152600b9190910160205260409020429055565b6060613f02826040518060400160405280602081526020017f5361666545524332303a206c6f772d6c6576656c2063616c6c206661696c6564815250856001600160a01b03166145749092919063ffffffff16565b80519091501561097657808060200190516020811015613f2157600080fd5b50516109765760405162461bcd60e51b815260040180806020018281038252602a8152602001806147fd602a913960400191505060405180910390fd5b81518151606091908114613fb9576040805162461bcd60e51b815260206004820152601f60248201527f42616c616e636573206d757374206d61746368206d756c7469706c6965727300604482015290519081900360640190fd5b60608167ffffffffffffffff81118015613fd257600080fd5b50604051908082528060200260200182016040528015613ffc578160200160208202803683370190505b50905060005b8281101561404c5761402d85828151811061401957fe5b6020026020010151878381518110610f9457fe5b82828151811061403957fe5b6020908102919091010152600101614002565b50949350505050565b600081836140a45760405162461bcd60e51b815260206004820181815283516024840152835190928392604490910191908501908083836000831561368757818101518382015260200161366f565b5060008385816140b057fe5b0495945050505050565b600885015460009060ff868116908616141561411d576040805162461bcd60e51b815260206004820152601d60248201527f43616e277420636f6d7061726520746f6b656e20746f20697473656c66000000604482015290519081900360640190fd5b808660ff161080156141315750808560ff16105b614182576040805162461bcd60e51b815260206004820152601660248201527f546f6b656e73206d75737420626520696e20706f6f6c00000000000000000000604482015290519081900360640190fd5b600061418d886131e3565b9050600061419b85836132d6565b9050806000806141ab86866134ea565b90506000805b87811015614224578c60ff168114156141cc578a91506141f6565b8b60ff1681146141f1578981815181106141e257fe5b602002602001015191506141f6565b61421c565b6142008483613189565b935061421961420f838a6134ea565b610ea987896134ea565b94505b6001016141b1565b5061424161423283896134ea565b610ea96064611094888a6134ea565b9350600061425e61425784610ea98960646134ea565b8590613189565b9050600086815b61010081101561433e57909150819061429861428a8a612a64876133a58760026134ea565b610ea98a6133a586806134ea565b91508173__$5dc460cc747dc4210092f6da12cdb25a64$__6313a1ec759091856040518363ffffffff1660e01b8152600401808381526020018281526020019250505060206040518083038186803b1580156142f357600080fd5b505af4158015614307573d6000803e3d6000fd5b505050506040513d602081101561431d57600080fd5b50511561433657509950611fde98505050505050505050565b600101614265565b506040805162461bcd60e51b815260206004820152601e60248201527f417070726f78696d6174696f6e20646964206e6f7420636f6e76657267650000604482015290519081900360640190fd5b815160009060ff851681116143e8576040805162461bcd60e51b815260206004820152600f60248201527f546f6b656e206e6f7420666f756e640000000000000000000000000000000000604482015290519081900360640190fd5b826000806143f689856134ea565b905060005b8481101561445d578860ff1681146144555761443388828151811061441c57fe5b60200260200101518461318990919063ffffffff16565b9250614452614448868a8481518110610f9457fe5b610ea9868a6134ea565b93505b6001016143fb565b5061447a61446b82866134ea565b610ea96064611094878b6134ea565b9250600061449761449083610ea98a60646134ea565b8490613189565b9050600087815b61010081101561433e5790915081906144d16144c38b612a64876133a58760026134ea565b610ea9896133a586806134ea565b91508173__$5dc460cc747dc4210092f6da12cdb25a64$__6313a1ec759091856040518363ffffffff1660e01b8152600401808381526020018281526020019250505060206040518083038186803b15801561452c57600080fd5b505af4158015614540573d6000803e3d6000fd5b505050506040513d602081101561455657600080fd5b50511561456c575096506125b395505050505050565b60010161449e565b60606125b3848460008585614588856146b8565b6145d9576040805162461bcd60e51b815260206004820152601d60248201527f416464726573733a2063616c6c20746f206e6f6e2d636f6e7472616374000000604482015290519081900360640190fd5b60006060866001600160a01b031685876040518082805190602001908083835b6020831061463657805182527fffffffffffffffffffffffffffffffffffffffffffffffffffffffffffffffe090920191602091820191016145f9565b6001836020036101000a03801982511681845116808217855250505050505090500191505060006040518083038185875af1925050503d8060008114614698576040519150601f19603f3d011682016040523d82523d6000602084013e61469d565b606091505b50915091506146ad8282866146be565b979650505050505050565b3b151590565b606083156146cd57508161125c565b8251156146dd5782518084602001fd5b60405162461bcd60e51b815260206004820181815284516024840152845185939192839260440191908501908083836000831561368757818101518382015260200161366f565b6040518060800160405280600081526020016000815260200160008152602001600081525090565b828054828255906000526020600020908101928215614787579160200282015b8281111561478757825182559160200191906001019061476c565b506147939291506147c6565b5090565b6040518060a0016040528060008152602001600081526020016000815260200160008152602001600081525090565b5b8082111561479357600081556001016147c756fe536166654d6174683a206d756c7469706c69636174696f6e206f766572666c6f775361666545524332303a204552433230206f7065726174696f6e20646964206e6f74207375636365656443616e6e6f74207769746864726177206d6f7265207468616e20617661696c61626c65a2646970667358221220f4d609ee67ac440c19d6265546540d952791645db468ce10cff37094e31ac3d364736f6c634300060c0033",
  "libraries": {
    "MathUtils": "0xc0409ec303b727bc1f511d7f8c71fd5ead96de1c"
  },
  "devdoc": {
    "details": "Contracts relying on this library must initialize SwapUtils.Swap struct then use this library for SwapUtils.Swap struct. Note that this library contains both functions called by users and admins. Admin functions should be protected within contracts using this library.",
    "kind": "dev",
    "methods": {
      "addLiquidity(SwapUtils.Swap storage,uint256[],uint256)": {
        "params": {
          "amounts": "the amounts of each token to add, in their native precision",
          "minToMint": "the minimum LP tokens adding this amount of liquidity should mint, otherwise revert. Handy for front-running mitigation allowed addresses. If the pool is not in the guarded launch phase, this parameter will be ignored.",
          "self": "Swap struct to read from and write to"
        },
        "returns": {
          "_0": "amount of LP token user received"
        }
      },
      "calculateCurrentWithdrawFee(SwapUtils.Swap storage,address)": {
        "params": {
          "user": "address you want to calculate withdraw fee of"
        },
        "returns": {
          "_0": "current withdraw fee of the user"
        }
      },
      "calculateRemoveLiquidity(SwapUtils.Swap storage,address,uint256)": {
        "params": {
          "account": "the address that is removing liquidity. required for withdraw fee calculation",
          "amount": "the amount of LP tokens that would to be burned on withdrawal"
        },
        "returns": {
          "_0": "array of amounts of tokens user will receive"
        }
      },
      "calculateSwap(SwapUtils.Swap storage,uint8,uint8,uint256)": {
        "params": {
          "dx": "the number of tokens to sell. If the token charges a fee on transfers, use the amount that gets transferred after the fee.",
          "self": "Swap struct to read from",
          "tokenIndexFrom": "the token to sell",
          "tokenIndexTo": "the token to buy"
        },
        "returns": {
          "dy": "the number of tokens the user will get"
        }
      },
      "calculateTokenAmount(SwapUtils.Swap storage,address,uint256[],bool)": {
        "details": "This shouldn't be used outside frontends for user estimates.",
        "params": {
          "account": "address of the account depositing or withdrawing tokens",
          "amounts": "an array of token amounts to deposit or withdrawal, corresponding to pooledTokens. The amount should be in each pooled token's native precision. If a token charges a fee on transfers, use the amount that gets transferred after the fee.",
          "deposit": "whether this is a deposit or a withdrawal",
          "self": "Swap struct to read from"
        },
        "returns": {
          "_0": "if deposit was true, total amount of lp token that will be minted and if deposit was false, total amount of lp token that will be burned"
        }
      },
      "calculateWithdrawOneToken(SwapUtils.Swap storage,address,uint256,uint8)": {
        "params": {
          "account": "the address that is withdrawing",
          "self": "Swap struct to read from",
          "tokenAmount": "the amount to withdraw in the pool's precision",
          "tokenIndex": "which token will be withdrawn"
        },
        "returns": {
          "_0": "the amount of token user will receive and the associated swap fee"
        }
      },
      "getA(SwapUtils.Swap storage)": {
        "details": "See the StableSwap paper for details",
        "params": {
          "self": "Swap struct to read from"
        },
        "returns": {
          "_0": "A parameter"
        }
      },
      "getAPrecise(SwapUtils.Swap storage)": {
        "details": "See the StableSwap paper for details",
        "params": {
          "self": "Swap struct to read from"
        },
        "returns": {
          "_0": "A parameter in its raw precision form"
        }
      },
      "getAdminBalance(SwapUtils.Swap storage,uint256)": {
        "params": {
          "index": "Index of the pooled token",
          "self": "Swap struct to read from"
        },
        "returns": {
          "_0": "admin balance in the token's precision"
        }
      },
      "getDepositTimestamp(SwapUtils.Swap storage,address)": {
        "params": {
          "self": "Swap struct to read from"
        },
        "returns": {
          "_0": "timestamp of last deposit"
        }
      },
      "getVirtualPrice(SwapUtils.Swap storage)": {
        "params": {
          "self": "Swap struct to read from"
        },
        "returns": {
          "_0": "the virtual price, scaled to precision of POOL_PRECISION_DECIMALS"
        }
      },
      "rampA(SwapUtils.Swap storage,uint256,uint256)": {
        "params": {
          "futureA_": "the new A to ramp towards",
          "futureTime_": "timestamp when the new A should be reached",
          "self": "Swap struct to update"
        }
      },
      "removeLiquidity(SwapUtils.Swap storage,uint256,uint256[])": {
        "details": "Liquidity can always be removed, even when the pool is paused.",
        "params": {
          "amount": "the amount of LP tokens to burn",
          "minAmounts": "the minimum amounts of each token in the pool acceptable for this burn. Useful as a front-running mitigation",
          "self": "Swap struct to read from and write to"
        },
        "returns": {
          "_0": "amounts of tokens the user received"
        }
      },
      "removeLiquidityImbalance(SwapUtils.Swap storage,uint256[],uint256)": {
        "params": {
          "amounts": "how much of each token to withdraw",
          "maxBurnAmount": "the max LP token provider is willing to pay to remove liquidity. Useful as a front-running mitigation.",
          "self": "Swap struct to read from and write to"
        },
        "returns": {
          "_0": "actual amount of LP tokens burned in the withdrawal"
        }
      },
      "removeLiquidityOneToken(SwapUtils.Swap storage,uint256,uint8,uint256)": {
        "params": {
          "minAmount": "the minimum amount to withdraw, otherwise revert",
          "self": "Swap struct to read from and write to",
          "tokenAmount": "the amount of the lp tokens to burn",
          "tokenIndex": "the index of the token you want to receive"
        },
        "returns": {
          "_0": "amount chosen token that user received"
        }
      },
      "setAdminFee(SwapUtils.Swap storage,uint256)": {
        "details": "adminFee cannot be higher than 100% of the swap fee",
        "params": {
          "newAdminFee": "new admin fee to be applied on future transactions",
          "self": "Swap struct to update"
        }
      },
      "setDefaultWithdrawFee(SwapUtils.Swap storage,uint256)": {
        "params": {
          "newWithdrawFee": "new withdraw fee to be applied",
          "self": "Swap struct to update"
        }
      },
      "setSwapFee(SwapUtils.Swap storage,uint256)": {
        "details": "fee cannot be higher than 1% of each swap",
        "params": {
          "newSwapFee": "new swap fee to be applied on future transactions",
          "self": "Swap struct to update"
        }
      },
      "stopRampA(SwapUtils.Swap storage)": {
        "params": {
          "self": "Swap struct to update"
        }
      },
      "swap(SwapUtils.Swap storage,uint8,uint8,uint256,uint256)": {
        "params": {
          "dx": "the amount of tokens the user wants to sell",
          "minDy": "the min amount the user would like to receive, or revert.",
          "self": "Swap struct to read from and write to",
          "tokenIndexFrom": "the token the user wants to sell",
          "tokenIndexTo": "the token the user wants to buy"
        },
        "returns": {
          "_0": "amount of token user received on swap"
        }
      },
      "updateUserWithdrawFee(SwapUtils.Swap storage,address,uint256)": {
        "params": {
          "self": "Swap struct to read from and write to",
          "toMint": "amount of pool tokens to be minted",
          "user": "address of the user depositing tokens"
        }
      },
      "withdrawAdminFees(SwapUtils.Swap storage,address)": {
        "params": {
          "self": "Swap struct to withdraw fees from",
          "to": "Address to send the fees to"
        }
      }
    },
    "title": "SwapUtils library",
    "version": 1
  },
  "userdoc": {
    "kind": "user",
    "methods": {
      "addLiquidity(SwapUtils.Swap storage,uint256[],uint256)": {
        "notice": "Add liquidity to the pool"
      },
      "calculateCurrentWithdrawFee(SwapUtils.Swap storage,address)": {
        "notice": "Calculate the fee that is applied when the given user withdraws. Withdraw fee decays linearly over 4 weeks."
      },
      "calculateRemoveLiquidity(SwapUtils.Swap storage,address,uint256)": {
        "notice": "A simple method to calculate amount of each underlying tokens that is returned upon burning given amount of LP tokens"
      },
      "calculateSwap(SwapUtils.Swap storage,uint8,uint8,uint256)": {
        "notice": "Externally calculates a swap between two tokens."
      },
      "calculateTokenAmount(SwapUtils.Swap storage,address,uint256[],bool)": {
        "notice": "A simple method to calculate prices from deposits or withdrawals, excluding fees but including slippage. This is helpful as an input into the various \"min\" parameters on calls to fight front-running"
      },
      "calculateWithdrawOneToken(SwapUtils.Swap storage,address,uint256,uint8)": {
        "notice": "Calculate the dy, the amount of selected token that user receives and the fee of withdrawing in one token"
      },
      "getA(SwapUtils.Swap storage)": {
        "notice": "Return A, the amplification coefficient * n * (n - 1)"
      },
      "getAPrecise(SwapUtils.Swap storage)": {
        "notice": "Return A in its raw precision"
      },
      "getAdminBalance(SwapUtils.Swap storage,uint256)": {
        "notice": "return accumulated amount of admin fees of the token with given index"
      },
      "getDepositTimestamp(SwapUtils.Swap storage,address)": {
        "notice": "Retrieves the timestamp of last deposit made by the given address"
      },
      "getVirtualPrice(SwapUtils.Swap storage)": {
        "notice": "Get the virtual price, to help calculate profit"
      },
      "rampA(SwapUtils.Swap storage,uint256,uint256)": {
        "notice": "Start ramping up or down A parameter towards given futureA_ and futureTime_ Checks if the change is too rapid, and commits the new A value only when it falls under the limit range."
      },
      "removeLiquidity(SwapUtils.Swap storage,uint256,uint256[])": {
        "notice": "Burn LP tokens to remove liquidity from the pool."
      },
      "removeLiquidityImbalance(SwapUtils.Swap storage,uint256[],uint256)": {
        "notice": "Remove liquidity from the pool, weighted differently than the pool's current balances."
      },
      "removeLiquidityOneToken(SwapUtils.Swap storage,uint256,uint8,uint256)": {
        "notice": "Remove liquidity from the pool all in one token."
      },
      "setAdminFee(SwapUtils.Swap storage,uint256)": {
        "notice": "Sets the admin fee"
      },
      "setDefaultWithdrawFee(SwapUtils.Swap storage,uint256)": {
        "notice": "update the default withdraw fee. This also affects deposits made in the past as well."
      },
      "setSwapFee(SwapUtils.Swap storage,uint256)": {
        "notice": "update the swap fee"
      },
      "stopRampA(SwapUtils.Swap storage)": {
        "notice": "Stops ramping A immediately. Once this function is called, rampA() cannot be called for another 24 hours"
      },
      "swap(SwapUtils.Swap storage,uint8,uint8,uint256,uint256)": {
        "notice": "swap two tokens in the pool"
      },
      "updateUserWithdrawFee(SwapUtils.Swap storage,address,uint256)": {
        "notice": "Update the withdraw fee for `user`. If the user is currently not providing liquidity in the pool, sets to default value. If not, recalculate the starting withdraw fee based on the last deposit's time & amount relative to the new deposit."
      },
      "withdrawAdminFees(SwapUtils.Swap storage,address)": {
        "notice": "withdraw all admin fees to a given address"
      }
    },
    "notice": "A library to be used within Swap.sol. Contains functions responsible for custody and AMM functionalities.",
    "version": 1
  },
  "storageLayout": {
    "storage": [],
    "types": null
  }
}