{
  "address": "0x9cDeF6e33687F438808766fC133b2E9d1A16AD57",
  "abi": [
    {
      "inputs": [
        {
          "components": [
            {
              "internalType": "address",
              "name": "oldPoolAddress",
              "type": "address"
            },
            {
              "internalType": "contract IERC20",
              "name": "oldPoolLPTokenAddress",
              "type": "address"
            },
            {
              "internalType": "address",
              "name": "newPoolAddress",
              "type": "address"
            },
            {
              "internalType": "contract IERC20",
              "name": "newPoolLPTokenAddress",
              "type": "address"
            },
            {
              "internalType": "contract IERC20[]",
              "name": "underlyingTokens",
              "type": "address[]"
            }
          ],
          "internalType": "struct SwapMigrator.MigrationData",
          "name": "usdData_",
          "type": "tuple"
        },
        {
          "internalType": "address",
          "name": "owner_",
          "type": "address"
        }
      ],
      "stateMutability": "nonpayable",
      "type": "constructor"
    },
    {
      "inputs": [
        {
          "internalType": "uint256",
          "name": "amount",
          "type": "uint256"
        },
        {
          "internalType": "uint256",
          "name": "minAmount",
          "type": "uint256"
        }
      ],
      "name": "migrateUSDPool",
      "outputs": [
        {
          "internalType": "uint256",
          "name": "",
          "type": "uint256"
        }
      ],
      "stateMutability": "nonpayable",
      "type": "function"
    },
    {
      "inputs": [],
      "name": "owner",
      "outputs": [
        {
          "internalType": "address",
          "name": "",
          "type": "address"
        }
      ],
      "stateMutability": "view",
      "type": "function"
    },
    {
      "inputs": [
        {
          "internalType": "contract IERC20",
          "name": "token",
          "type": "address"
        },
        {
          "internalType": "address",
          "name": "to",
          "type": "address"
        }
      ],
      "name": "rescue",
      "outputs": [],
      "stateMutability": "nonpayable",
      "type": "function"
    },
    {
      "inputs": [],
      "name": "usdPoolMigrationData",
      "outputs": [
        {
          "internalType": "address",
          "name": "oldPoolAddress",
          "type": "address"
        },
        {
          "internalType": "contract IERC20",
          "name": "oldPoolLPTokenAddress",
          "type": "address"
        },
        {
          "internalType": "address",
          "name": "newPoolAddress",
          "type": "address"
        },
        {
          "internalType": "contract IERC20",
          "name": "newPoolLPTokenAddress",
          "type": "address"
        }
      ],
      "stateMutability": "view",
      "type": "function"
    }
  ],
  "transactionHash": "0x2bf25b45712c2c98d05a519c546105ba9f11ec5c95e58499149811e59ee1b8b9",
  "args": [
    {
      "oldPoolAddress": "0x3911F80530595fBd01Ab1516Ab61255d75AEb066",
      "oldPoolLPTokenAddress": "0x76204f8CFE8B95191A3d1CfA59E267EA65e06FAC",
      "newPoolAddress": "0xaCb83E0633d6605c5001e2Ab59EF3C745547C8C7",
      "newPoolLPTokenAddress": "0x5f86558387293b6009d7896A61fcc86C17808D62",
      "underlyingTokens": [
        "0x6b175474e89094c44da98b954eedeac495271d0f",
        "0xa0b86991c6218b36c1d19d4a2e9eb0ce3606eb48",
        "0xdac17f958d2ee523a2206206994597c13d831ec7"
      ]
    },
    "0x3F8E527aF4e0c6e763e8f368AC679c44C45626aE"
  ],
  "solcInputHash": "9601e546af8d8b6a8b082754e643fb0a",
  "bytecode": "0x60806040523480156200001157600080fd5b506040516200169c3803806200169c833981016040819052620000349162000566565b6020820151825160405163095ea7b360e01b81526001600160a01b039092169163095ea7b3916200006c916000199060040162000708565b602060405180830381600087803b1580156200008757600080fd5b505af11580156200009c573d6000803e3d6000fd5b505050506040513d601f19601f82011682018060405250810190620000c2919062000544565b5060005b826080015151811015620001205762000117836040015160001985608001518481518110620000f157fe5b60200260200101516001600160a01b0316620001c460201b62000457179092919060201c565b600101620000c6565b508151600080546001600160a01b03199081166001600160a01b03938416178255602080860151600180548416918616919091179055604086015160028054841691861691909117905560608601516003805490931694169390931790556080840151805185936200019892600492910190620004a6565b5050600580546001600160a01b0319166001600160a01b03939093169290921790915550620008ed9050565b801580620002535750604051636eb1769f60e11b81526001600160a01b0384169063dd62ed3e90620001fd9030908690600401620006ee565b60206040518083038186803b1580156200021657600080fd5b505afa1580156200022b573d6000803e3d6000fd5b505050506040513d601f19601f82011682018060405250810190620002519190620006b7565b155b6200027b5760405162461bcd60e51b815260040162000272906200081d565b60405180910390fd5b620002d68363095ea7b360e01b84846040516024016200029d92919062000708565b60408051808303601f190181529190526020810180516001600160e01b0319939093166001600160e01b0393841617905290620002db16565b505050565b606062000337826040518060400160405280602081526020017f5361666545524332303a206c6f772d6c6576656c2063616c6c206661696c6564815250856001600160a01b03166200037760201b620005e1179092919060201c565b805190915015620002d6578080602001905181019062000358919062000544565b620002d65760405162461bcd60e51b81526004016200027290620007d3565b606062000388848460008562000392565b90505b9392505050565b606082471015620003b75760405162461bcd60e51b8152600401620002729062000756565b620003c28562000462565b620003e15760405162461bcd60e51b815260040162000272906200079c565b60006060866001600160a01b03168587604051620004009190620006d0565b60006040518083038185875af1925050503d80600081146200043f576040519150601f19603f3d011682016040523d82523d6000602084013e62000444565b606091505b5090925090506200045782828662000468565b979650505050505050565b3b151590565b60608315620004795750816200038b565b8251156200048a5782518084602001fd5b8160405162461bcd60e51b815260040162000272919062000721565b828054828255906000526020600020908101928215620004fe579160200282015b82811115620004fe57825182546001600160a01b0319166001600160a01b03909116178255602090920191600190910190620004c7565b506200050c92915062000510565b5090565b5b808211156200050c5780546001600160a01b031916815560010162000511565b80516200053e81620008d4565b92915050565b60006020828403121562000556578081fd5b815180151581146200038b578182fd5b6000806040838503121562000579578081fd5b82516001600160401b038082111562000590578283fd5b9084019060a08287031215620005a4578283fd5b620005b060a06200087a565b8251620005bd81620008d4565b8152602083810151620005d081620008d4565b828201526040840151620005e481620008d4565b60408301526060840151620005f981620008d4565b606083015260808401518381111562000610578586fd5b80850194505087601f85011262000625578485fd5b83518381111562000634578586fd5b8181029350620006468285016200087a565b8181528281019086840186880185018c101562000661578889fd5b8897505b838810156200068f576200067a8c8262000531565b83526001979097019691840191840162000665565b50806080860152505050819550620006aa8882890162000531565b9450505050509250929050565b600060208284031215620006c9578081fd5b5051919050565b60008251620006e4818460208701620008a1565b9190910192915050565b6001600160a01b0392831681529116602082015260400190565b6001600160a01b03929092168252602082015260400190565b600060208252825180602084015262000742816040850160208701620008a1565b601f01601f19169190910160400192915050565b60208082526026908201527f416464726573733a20696e73756666696369656e742062616c616e636520666f6040820152651c8818d85b1b60d21b606082015260800190565b6020808252601d908201527f416464726573733a2063616c6c20746f206e6f6e2d636f6e7472616374000000604082015260600190565b6020808252602a908201527f5361666545524332303a204552433230206f7065726174696f6e20646964206e6040820152691bdd081cdd58d8d9595960b21b606082015260800190565b60208082526036908201527f5361666545524332303a20617070726f76652066726f6d206e6f6e2d7a65726f60408201527f20746f206e6f6e2d7a65726f20616c6c6f77616e636500000000000000000000606082015260800190565b6040518181016001600160401b03811182821017156200089957600080fd5b604052919050565b60005b83811015620008be578181015183820152602001620008a4565b83811115620008ce576000848401525b50505050565b6001600160a01b0381168114620008ea57600080fd5b50565b610d9f80620008fd6000396000f3fe608060405234801561001057600080fd5b506004361061004c5760003560e01c806334d3c307146100515780634fdf5d1d146100725780638da5cb5b14610087578063f0b312c01461009c575b600080fd5b6100596100bc565b6040516100699493929190610a46565b60405180910390f35b610085610080366004610906565b6100ed565b005b61008f6101f6565b60405161006991906109cd565b6100af6100aa366004610956565b610212565b6040516100699190610c9f565b60005460015460025460035473ffffffffffffffffffffffffffffffffffffffff9384169392831692918216911684565b60055473ffffffffffffffffffffffffffffffffffffffff163314610147576040517f08c379a000000000000000000000000000000000000000000000000000000000815260040161013e90610b77565b60405180910390fd5b6101f2818373ffffffffffffffffffffffffffffffffffffffff166370a08231306040518263ffffffff1660e01b815260040161018491906109cd565b60206040518083038186803b15801561019c57600080fd5b505afa1580156101b0573d6000803e3d6000fd5b505050506040513d601f19601f820116820180604052508101906101d4919061093e565b73ffffffffffffffffffffffffffffffffffffffff851691906105fa565b5050565b60055473ffffffffffffffffffffffffffffffffffffffff1681565b60015460009061023a9073ffffffffffffffffffffffffffffffffffffffff16333086610619565b60005460045460609173ffffffffffffffffffffffffffffffffffffffff16906331cd52b090869067ffffffffffffffff8111801561027857600080fd5b506040519080825280602002602001820160405280156102a2578160200160208202803683370190505b507fffffffffffffffffffffffffffffffffffffffffffffffffffffffffffffffff6040518463ffffffff1660e01b81526004016102e293929190610ca8565b600060405180830381600087803b1580156102fc57600080fd5b505af1158015610310573d6000803e3d6000fd5b505050506040513d6000823e601f3d9081017fffffffffffffffffffffffffffffffffffffffffffffffffffffffffffffffe01682016040526103569190810190610851565b6002546040517f4d49e87d00000000000000000000000000000000000000000000000000000000815291925060009173ffffffffffffffffffffffffffffffffffffffff90911690634d49e87d906103d690859088907fffffffffffffffffffffffffffffffffffffffffffffffffffffffffffffffff90600401610aa4565b602060405180830381600087803b1580156103f057600080fd5b505af1158015610404573d6000803e3d6000fd5b505050506040513d601f19601f82011682018060405250810190610428919061093e565b60035490915061044f9073ffffffffffffffffffffffffffffffffffffffff1633836105fa565b949350505050565b80158061050557506040517fdd62ed3e00000000000000000000000000000000000000000000000000000000815273ffffffffffffffffffffffffffffffffffffffff84169063dd62ed3e906104b390309086906004016109ee565b60206040518083038186803b1580156104cb57600080fd5b505afa1580156104df573d6000803e3d6000fd5b505050506040513d601f19601f82011682018060405250810190610503919061093e565b155b61053b576040517f08c379a000000000000000000000000000000000000000000000000000000000815260040161013e90610c42565b6105dc8363095ea7b360e01b848460405160240161055a929190610a7e565b604080517fffffffffffffffffffffffffffffffffffffffffffffffffffffffffffffffe08184030181529190526020810180517bffffffffffffffffffffffffffffffffffffffffffffffffffffffff167fffffffff0000000000000000000000000000000000000000000000000000000090931692909217909152610640565b505050565b60606105f084846000856106f6565b90505b9392505050565b6105dc8363a9059cbb60e01b848460405160240161055a929190610a7e565b61063a846323b872dd60e01b85858560405160240161055a93929190610a15565b50505050565b60606106a2826040518060400160405280602081526020017f5361666545524332303a206c6f772d6c6576656c2063616c6c206661696c65648152508573ffffffffffffffffffffffffffffffffffffffff166105e19092919063ffffffff16565b8051909150156105dc57808060200190518101906106c091906108e6565b6105dc576040517f08c379a000000000000000000000000000000000000000000000000000000000815260040161013e90610be5565b606082471015610732576040517f08c379a000000000000000000000000000000000000000000000000000000000815260040161013e90610b1a565b61073b856107f8565b610771576040517f08c379a000000000000000000000000000000000000000000000000000000000815260040161013e90610bae565b600060608673ffffffffffffffffffffffffffffffffffffffff16858760405161079b91906109b1565b60006040518083038185875af1925050503d80600081146107d8576040519150601f19603f3d011682016040523d82523d6000602084013e6107dd565b606091505b50915091506107ed8282866107fe565b979650505050505050565b3b151590565b6060831561080d5750816105f3565b82511561081d5782518084602001fd5b816040517f08c379a000000000000000000000000000000000000000000000000000000000815260040161013e9190610ac9565b60006020808385031215610863578182fd5b825167ffffffffffffffff811115610879578283fd5b8301601f81018513610889578283fd5b805161089c61089782610cf8565b610cd1565b81815283810190838501858402850186018910156108b8578687fd5b8694505b838510156108da5780518352600194909401939185019185016108bc565b50979650505050505050565b6000602082840312156108f7578081fd5b815180151581146105f3578182fd5b60008060408385031215610918578081fd5b823561092381610d44565b9150602083013561093381610d44565b809150509250929050565b60006020828403121561094f578081fd5b5051919050565b60008060408385031215610968578182fd5b50508035926020909101359150565b6000815180845260208085019450808401835b838110156109a65781518752958201959082019060010161098a565b509495945050505050565b600082516109c3818460208701610d18565b9190910192915050565b73ffffffffffffffffffffffffffffffffffffffff91909116815260200190565b73ffffffffffffffffffffffffffffffffffffffff92831681529116602082015260400190565b73ffffffffffffffffffffffffffffffffffffffff9384168152919092166020820152604081019190915260600190565b73ffffffffffffffffffffffffffffffffffffffff948516815292841660208401529083166040830152909116606082015260800190565b73ffffffffffffffffffffffffffffffffffffffff929092168252602082015260400190565b600060608252610ab76060830186610977565b60208301949094525060400152919050565b6000602082528251806020840152610ae8816040850160208701610d18565b601f017fffffffffffffffffffffffffffffffffffffffffffffffffffffffffffffffe0169190910160400192915050565b60208082526026908201527f416464726573733a20696e73756666696369656e742062616c616e636520666f60408201527f722063616c6c0000000000000000000000000000000000000000000000000000606082015260800190565b6020808252600c908201527f6973206e6f74206f776e65720000000000000000000000000000000000000000604082015260600190565b6020808252601d908201527f416464726573733a2063616c6c20746f206e6f6e2d636f6e7472616374000000604082015260600190565b6020808252602a908201527f5361666545524332303a204552433230206f7065726174696f6e20646964206e60408201527f6f74207375636365656400000000000000000000000000000000000000000000606082015260800190565b60208082526036908201527f5361666545524332303a20617070726f76652066726f6d206e6f6e2d7a65726f60408201527f20746f206e6f6e2d7a65726f20616c6c6f77616e636500000000000000000000606082015260800190565b90815260200190565b600084825260606020830152610cc16060830185610977565b9050826040830152949350505050565b60405181810167ffffffffffffffff81118282101715610cf057600080fd5b604052919050565b600067ffffffffffffffff821115610d0e578081fd5b5060209081020190565b60005b83811015610d33578181015183820152602001610d1b565b8381111561063a5750506000910152565b73ffffffffffffffffffffffffffffffffffffffff81168114610d6657600080fd5b5056fea264697066735822122073193c304b9f091b449b413a7707ade45f532744a2cffffe2e7fb704663c95fd64736f6c634300060c0033",
  "devdoc": {
    "kind": "dev",
    "methods": {
      "constructor": {
        "params": {
          "owner_": "owner that is allowed to call the `rescue()` function",
          "usdData_": "MigrationData struct with information about old and new USD pools"
        }
      },
      "migrateUSDPool(uint256,uint256)": {
        "params": {
          "amount": "Amount of old LPToken to migrate",
          "minAmount": "Minimum amount of new LPToken to receive"
        }
      },
      "rescue(address,address)": {
        "params": {
          "to": "Minimum amount of new LPToken to receive",
          "token": "Amount of old LPToken to migrate"
        }
      }
    },
    "title": "SwapMigrator",
    "version": 1
  },
  "userdoc": {
    "kind": "user",
    "methods": {
      "constructor": "Sets the storage variables and approves tokens to be used by the old and new swap contracts",
      "migrateUSDPool(uint256,uint256)": {
        "notice": "Migrates old USD pool's LPToken to the new pool"
      },
      "rescue(address,address)": {
        "notice": "Rescues any token that may be sent to this contract accidentally."
      }
    },
    "notice": "This contract is responsible for migrating old USD pool liquidity to the new ones. Users can use this contract to remove their liquidity from the old pools and add them to the new ones with a single transaction.",
    "version": 1
  },
  "storageLayout": {
    "storage": [
      {
        "astId": 8586,
        "contract": "contracts/SwapMigrator.sol:SwapMigrator",
        "label": "usdPoolMigrationData",
        "offset": 0,
        "slot": "0",
        "type": "t_struct(MigrationData)8584_storage"
      },
      {
        "astId": 8588,
        "contract": "contracts/SwapMigrator.sol:SwapMigrator",
        "label": "owner",
        "offset": 0,
        "slot": "5",
        "type": "t_address"
      }
    ],
    "types": {
      "t_address": {
        "encoding": "inplace",
        "label": "address",
        "numberOfBytes": "20"
      },
      "t_array(t_contract(IERC20)3028)dyn_storage": {
        "base": "t_contract(IERC20)3028",
        "encoding": "dynamic_array",
        "label": "contract IERC20[]",
        "numberOfBytes": "32"
      },
      "t_contract(IERC20)3028": {
        "encoding": "inplace",
        "label": "contract IERC20",
        "numberOfBytes": "20"
      },
      "t_struct(MigrationData)8584_storage": {
        "encoding": "inplace",
        "label": "struct SwapMigrator.MigrationData",
        "members": [
          {
            "astId": 8574,
            "contract": "contracts/SwapMigrator.sol:SwapMigrator",
            "label": "oldPoolAddress",
            "offset": 0,
            "slot": "0",
            "type": "t_address"
          },
          {
            "astId": 8576,
            "contract": "contracts/SwapMigrator.sol:SwapMigrator",
            "label": "oldPoolLPTokenAddress",
            "offset": 0,
            "slot": "1",
            "type": "t_contract(IERC20)3028"
          },
          {
            "astId": 8578,
            "contract": "contracts/SwapMigrator.sol:SwapMigrator",
            "label": "newPoolAddress",
            "offset": 0,
            "slot": "2",
            "type": "t_address"
          },
          {
            "astId": 8580,
            "contract": "contracts/SwapMigrator.sol:SwapMigrator",
            "label": "newPoolLPTokenAddress",
            "offset": 0,
            "slot": "3",
            "type": "t_contract(IERC20)3028"
          },
          {
            "astId": 8583,
            "contract": "contracts/SwapMigrator.sol:SwapMigrator",
            "label": "underlyingTokens",
            "offset": 0,
            "slot": "4",
            "type": "t_array(t_contract(IERC20)3028)dyn_storage"
          }
        ],
        "numberOfBytes": "160"
      }
    }
  }
}