{
  "address": "0xeF8Af8b67A58FE795304bE8593c44Ac0D3A59033",
  "abi": [
    {
      "inputs": [
        {
          "internalType": "address",
          "name": "pool",
          "type": "address"
        }
      ],
      "name": "addPool",
      "outputs": [],
      "stateMutability": "payable",
      "type": "function"
    },
    {
      "inputs": [
        {
          "internalType": "bytes[]",
          "name": "calls",
          "type": "bytes[]"
        },
        {
          "internalType": "bool",
          "name": "revertOnFail",
          "type": "bool"
        }
      ],
      "name": "batch",
      "outputs": [],
      "stateMutability": "payable",
      "type": "function"
    },
    {
      "inputs": [
        {
          "internalType": "address",
          "name": "pool",
          "type": "address"
        },
        {
          "internalType": "uint256",
          "name": "inputIndex",
          "type": "uint256"
        },
        {
          "internalType": "uint256",
          "name": "outputIndex",
          "type": "uint256"
        },
        {
          "internalType": "uint256",
          "name": "outputAmount",
          "type": "uint256"
        }
      ],
      "name": "calculateSwapInput",
      "outputs": [
        {
          "internalType": "uint256",
          "name": "inputAmount",
          "type": "uint256"
        }
      ],
      "stateMutability": "view",
      "type": "function"
    },
    {
      "inputs": [
        {
          "internalType": "uint256[]",
          "name": "balances",
          "type": "uint256[]"
        },
        {
          "internalType": "uint256",
          "name": "a",
          "type": "uint256"
        },
        {
          "internalType": "uint256",
          "name": "swapFee",
          "type": "uint256"
        },
        {
          "internalType": "uint256",
          "name": "inputIndex",
          "type": "uint256"
        },
        {
          "internalType": "uint256",
          "name": "outputIndex",
          "type": "uint256"
        },
        {
          "internalType": "uint256",
          "name": "outputAmount",
          "type": "uint256"
        }
      ],
      "name": "calculateSwapInputCustom",
      "outputs": [
        {
          "internalType": "uint256",
          "name": "inputAmount",
          "type": "uint256"
        }
      ],
      "stateMutability": "pure",
      "type": "function"
    },
    {
      "inputs": [
        {
          "internalType": "address",
          "name": "pool",
          "type": "address"
        },
        {
          "internalType": "uint256",
          "name": "inputIndex",
          "type": "uint256"
        },
        {
          "internalType": "uint256",
          "name": "outputIndex",
          "type": "uint256"
        },
        {
          "internalType": "uint256",
          "name": "inputAmount",
          "type": "uint256"
        }
      ],
      "name": "calculateSwapOutput",
      "outputs": [
        {
          "internalType": "uint256",
          "name": "outputAmount",
          "type": "uint256"
        }
      ],
      "stateMutability": "view",
      "type": "function"
    },
    {
      "inputs": [
        {
          "internalType": "uint256[]",
          "name": "balances",
          "type": "uint256[]"
        },
        {
          "internalType": "uint256",
          "name": "a",
          "type": "uint256"
        },
        {
          "internalType": "uint256",
          "name": "swapFee",
          "type": "uint256"
        },
        {
          "internalType": "uint256",
          "name": "inputIndex",
          "type": "uint256"
        },
        {
          "internalType": "uint256",
          "name": "outputIndex",
          "type": "uint256"
        },
        {
          "internalType": "uint256",
          "name": "inputAmount",
          "type": "uint256"
        }
      ],
      "name": "calculateSwapOutputCustom",
      "outputs": [
        {
          "internalType": "uint256",
          "name": "outputAmount",
          "type": "uint256"
        }
      ],
      "stateMutability": "pure",
      "type": "function"
    },
    {
      "inputs": [
        {
          "internalType": "address",
          "name": "pool",
          "type": "address"
        },
        {
          "internalType": "uint256",
          "name": "inputIndex",
          "type": "uint256"
        },
        {
          "internalType": "uint256",
          "name": "outputIndex",
          "type": "uint256"
        }
      ],
      "name": "relativePrice",
      "outputs": [
        {
          "internalType": "uint256",
          "name": "price",
          "type": "uint256"
        }
      ],
      "stateMutability": "view",
      "type": "function"
    },
    {
      "inputs": [
        {
          "internalType": "uint256[]",
          "name": "balances",
          "type": "uint256[]"
        },
        {
          "internalType": "uint256",
          "name": "a",
          "type": "uint256"
        },
        {
          "internalType": "uint256",
          "name": "inputIndex",
          "type": "uint256"
        },
        {
          "internalType": "uint256",
          "name": "outputIndex",
          "type": "uint256"
        }
      ],
      "name": "relativePriceCustom",
      "outputs": [
        {
          "internalType": "uint256",
          "name": "price",
          "type": "uint256"
        }
      ],
      "stateMutability": "pure",
      "type": "function"
    },
    {
      "inputs": [
        {
          "internalType": "address",
          "name": "",
          "type": "address"
        },
        {
          "internalType": "uint256",
          "name": "",
          "type": "uint256"
        }
      ],
      "name": "storedDecimals",
      "outputs": [
        {
          "internalType": "uint256",
          "name": "",
          "type": "uint256"
        }
      ],
      "stateMutability": "view",
      "type": "function"
    }
  ],
  "transactionHash": "0xf0ea7f6e6da63f7eca34d5a3d106a1fa39901de9947ea52d384529026849384d",
  "args": [],
  "numDeployments": 1,
  "solcInputHash": "9a36cc074d200a682e05724b0acb284a",
  "bytecode": "0x608060405234801561001057600080fd5b506118cf806100206000396000f3fe6080604052600436106100965760003560e01c8063a936d00311610069578063d2423b511161004e578063d2423b5114610171578063d914cd4b14610186578063db7ffdb21461019957610096565b8063a936d00314610131578063bcf0fcfa1461015157610096565b80632b4bee461461009b5780632b9edaa9146100d157806364965387146100f157806381a6938914610111575b600080fd5b3480156100a757600080fd5b506100bb6100b63660046112dd565b6101b9565b6040516100c89190611782565b60405180910390f35b3480156100dd57600080fd5b506100bb6100ec3660046111cd565b61029c565b3480156100fd57600080fd5b506100bb61010c36600461128b565b6105b4565b34801561011d57600080fd5b506100bb61012c36600461116e565b6105d6565b34801561013d57600080fd5b506100bb61014c366004611199565b610604565b34801561015d57600080fd5b506100bb61016c3660046112dd565b6107ef565b61018461017f366004611207565b610896565b005b610184610194366004611152565b610959565b3480156101a557600080fd5b506100bb6101b43660046111cd565b610b86565b60008651841080156101cb5750865183105b6101f05760405162461bcd60e51b81526004016101e790611612565b60405180910390fd5b60006102146102046402540be40088610c2f565b61020e8589610c5c565b90610c9d565b90506102208382610ccf565b9250600061024a848a878151811061023457fe5b6020026020010151610c2f90919063ffffffff16565b9050600061025b898888858e610cf4565b905061028e60016102888c8a8151811061027157fe5b602002602001015184610c2f90919063ffffffff16565b90610ccf565b9a9950505050505050505050565b73ffffffffffffffffffffffffffffffffffffffff8416600090815260208181526040808320805482518185028101850190935280835260609383018282801561030557602002820191906000526020600020905b8154815260200190600101908083116102f1575b50505050509050600081511161032d5760405162461bcd60e51b81526004016101e7906114ff565b6060815167ffffffffffffffff8111801561034757600080fd5b50604051908082528060200260200182016040528015610371578160200160208202803683370190505b50905060005b82518110156104615760006103a984838151811061039157fe5b60200260200101516012610c2f90919063ffffffff16565b600a0a9050610441818a73ffffffffffffffffffffffffffffffffffffffff166391ceb3eb856040518263ffffffff1660e01b81526004016103eb919061178b565b60206040518083038186803b15801561040357600080fd5b505afa158015610417573d6000803e3d6000fd5b505050506040513d601f19601f8201168201806040525081019061043b9190611406565b90610c5c565b83838151811061044d57fe5b602090810291909101015250600101610377565b5061047e61047483878151811061039157fe5b8590600a0a610c5c565b935060008773ffffffffffffffffffffffffffffffffffffffff16635fd65f0f6040518163ffffffff1660e01b815260040160e06040518083038186803b1580156104c857600080fd5b505afa1580156104dc573d6000803e3d6000fd5b505050506040513d601f19601f82011682018060405250810190610500919061141e565b50509450505050506105a861051a84898151811061039157fe5b600a0a61020e848b73ffffffffffffffffffffffffffffffffffffffff16630ba819596040518163ffffffff1660e01b815260040160206040518083038186803b15801561056757600080fd5b505afa15801561057b573d6000803e3d6000fd5b505050506040513d601f19601f8201168201806040525081019061059f9190611406565b858c8c8c6101b9565b98975050505050505050565b60006105cd858560008686670de0b6b3a76400006107ef565b95945050505050565b600060205281600052604060002081815481106105ef57fe5b90600052602060002001600091509150505481565b73ffffffffffffffffffffffffffffffffffffffff8316600090815260208181526040808320805482518185028101850190935280835260609383018282801561066d57602002820191906000526020600020905b815481526020019060010190808311610659575b5050505050905060008151116106955760405162461bcd60e51b81526004016101e7906114ff565b6060815167ffffffffffffffff811180156106af57600080fd5b506040519080825280602002602001820160405280156106d9578160200160208202803683370190505b50905060005b825181101561075b5760006106f984838151811061039157fe5b600a0a905061073b818973ffffffffffffffffffffffffffffffffffffffff166391ceb3eb856040518263ffffffff1660e01b81526004016103eb919061178b565b83838151811061074757fe5b6020908102919091010152506001016106df565b506107e5818773ffffffffffffffffffffffffffffffffffffffff16630ba819596040518163ffffffff1660e01b815260040160206040518083038186803b1580156107a657600080fd5b505afa1580156107ba573d6000803e3d6000fd5b505050506040513d601f19601f820116820180604052508101906107de9190611406565b87876105b4565b9695505050505050565b60008651841080156108015750865183105b61081d5760405162461bcd60e51b81526004016101e790611612565b600061084588868151811061082e57fe5b602002602001015184610ccf90919063ffffffff16565b90506000610856888787858d610cff565b9050610873600161086d838c898151811061023457fe5b90610c2f565b9250600061088a6402540be40061020e868b610c5c565b905061028e8482610c2f565b60005b828110156109535760006060308686858181106108b257fe5b90506020028101906108c491906117b7565b6040516108d292919061149e565b600060405180830381855af49150503d806000811461090d576040519150601f19603f3d011682016040523d82523d6000602084013e610912565b606091505b5091509150811580156109225750835b156109495761093081610e94565b60405162461bcd60e51b81526004016101e791906114ae565b5050600101610899565b50505050565b6040805160088082526101208201909252606091602082016101008036833701905050905060005b6008811015610b2b576040517f82b8660000000000000000000000000000000000000000000000000000000000815273ffffffffffffffffffffffffffffffffffffffff8416906382b86600906109dc90849060040161178b565b60206040518083038186803b1580156109f457600080fd5b505afa925050508015610a42575060408051601f3d9081017fffffffffffffffffffffffffffffffffffffffffffffffffffffffffffffffe0168201909252610a3f91810190611340565b60015b610a5457806008038251038252610b2b565b73ffffffffffffffffffffffffffffffffffffffff8116610a875760405162461bcd60e51b81526004016101e79061174b565b8073ffffffffffffffffffffffffffffffffffffffff1663313ce5676040518163ffffffff1660e01b8152600401602060405180830381600087803b158015610acf57600080fd5b505af1158015610ae3573d6000803e3d6000fd5b505050506040513d601f19601f82011682018060405250810190610b07919061147d565b60ff16838381518110610b1657fe5b60200260200101818152505050600101610981565b506000815111610b4d5760405162461bcd60e51b81526004016101e7906114ff565b73ffffffffffffffffffffffffffffffffffffffff82166000908152602081815260409091208251610b8192840190611072565b505050565b6040517fa95b089f00000000000000000000000000000000000000000000000000000000815260009073ffffffffffffffffffffffffffffffffffffffff86169063a95b089f90610bdf90879087908790600401611799565b60206040518083038186803b158015610bf757600080fd5b505afa158015610c0b573d6000803e3d6000fd5b505050506040513d601f19601f820116820180604052508101906105cd9190611406565b600082821115610c515760405162461bcd60e51b81526004016101e79061156d565b508082035b92915050565b600082610c6b57506000610c56565b82820282848281610c7857fe5b0414610c965760405162461bcd60e51b81526004016101e790611649565b9392505050565b6000808211610cbe5760405162461bcd60e51b81526004016101e7906115db565b818381610cc757fe5b049392505050565b600082820183811015610c965760405162461bcd60e51b81526004016101e790611536565b60006107e586858786865b805160009085851415610d245760405162461bcd60e51b81526004016101e7906116dd565b8086108015610d3257508085105b610d4e5760405162461bcd60e51b81526004016101e7906115a4565b6000610d5a8489610efc565b905080600080610d6a858c610c5c565b90506000805b86811015610ddd578b811415610d8857899150610daf565b8a8114610daa57888181518110610d9b57fe5b60200260200101519150610daf565b610dd5565b610db98483610ccf565b9350610dd2610dc88389610c5c565b61020e8789610c5c565b94505b600101610d70565b50610dfa610deb8388610c5c565b61020e606461043b888a610c5c565b93506000610e17610e108461020e896064610c5c565b8590610ccf565b9050600086815b610100811015610e7b579091508190610e51610e438a61086d87610288876002610c5c565b61020e8a6102888680610c5c565b9150610e5d8284611043565b15610e73575098506105cd975050505050505050565b600101610e1e565b5060405162461bcd60e51b81526004016101e7906116a6565b6060604482511015610eda575060408051808201909152601d81527f5472616e73616374696f6e2072657665727465642073696c656e746c790000006020820152610ef7565b60048201915081806020019051810190610ef4919061135c565b90505b919050565b815160009081805b82811015610f3c57610f32868281518110610f1b57fe5b602002602001015183610ccf90919063ffffffff16565b9150600101610f04565b5080610f4d57600092505050610c56565b60008181610f5b8786610c5c565b905060005b61010081101561102a578260005b87811015610fb357610fa9610f9f898d8481518110610f8957fe5b6020026020010151610c5c90919063ffffffff16565b61020e8488610c5c565b9150600101610f6e565b509293508392611001610fe1610fce8361043b8b6001610ccf565b610288606461020e8961043b8a84610c2f565b61020e8661043b610ff2868d610c5c565b610288606461020e8b8f610c5c565b935061100d8486611043565b156110215783975050505050505050610c56565b50600101610f60565b5060405162461bcd60e51b81526004016101e790611714565b60006001611051848461105a565b11159392505050565b60008183111561106d5750808203610c56565b500390565b8280548282559060005260206000209081019282156110ad579160200282015b828111156110ad578251825591602001919060010190611092565b506110b99291506110bd565b5090565b5b808211156110b957600081556001016110be565b600082601f8301126110e2578081fd5b813567ffffffffffffffff8111156110f8578182fd5b6020808202611108828201611821565b8381529350818401858301828701840188101561112457600080fd5b600092505b84831015611147578035825260019290920191908301908301611129565b505050505092915050565b600060208284031215611163578081fd5b8135610c9681611874565b60008060408385031215611180578081fd5b823561118b81611874565b946020939093013593505050565b6000806000606084860312156111ad578081fd5b83356111b881611874565b95602085013595506040909401359392505050565b600080600080608085870312156111e2578081fd5b84356111ed81611874565b966020860135965060408601359560600135945092505050565b60008060006040848603121561121b578283fd5b833567ffffffffffffffff80821115611232578485fd5b818601915086601f830112611245578485fd5b813581811115611253578586fd5b8760208083028501011115611266578586fd5b602092830195509350508401358015158114611280578182fd5b809150509250925092565b600080600080608085870312156112a0578384fd5b843567ffffffffffffffff8111156112b6578485fd5b6112c2878288016110d2565b97602087013597506040870135966060013595509350505050565b60008060008060008060c087890312156112f5578182fd5b863567ffffffffffffffff81111561130b578283fd5b61131789828a016110d2565b9960208901359950604089013598606081013598506080810135975060a0013595509350505050565b600060208284031215611351578081fd5b8151610c9681611874565b60006020828403121561136d578081fd5b815167ffffffffffffffff80821115611384578283fd5b818401915084601f830112611397578283fd5b8151818111156113a5578384fd5b6113d660207fffffffffffffffffffffffffffffffffffffffffffffffffffffffffffffffe0601f84011601611821565b91508082528560208285010111156113ec578384fd5b6113fd816020840160208601611848565b50949350505050565b600060208284031215611417578081fd5b5051919050565b600080600080600080600060e0888a031215611438578081fd5b875196506020880151955060408801519450606088015193506080880151925060a0880151915060c088015161146d81611874565b8091505092959891949750929550565b60006020828403121561148e578081fd5b815160ff81168114610c96578182fd5b6000828483379101908152919050565b60006020825282518060208401526114cd816040850160208701611848565b601f017fffffffffffffffffffffffffffffffffffffffffffffffffffffffffffffffe0169190910160400192915050565b60208082526019908201527f4d7573742063616c6c20616464506f6f6c282920666972737400000000000000604082015260600190565b6020808252601b908201527f536166654d6174683a206164646974696f6e206f766572666c6f770000000000604082015260600190565b6020808252601e908201527f536166654d6174683a207375627472616374696f6e206f766572666c6f770000604082015260600190565b60208082526016908201527f546f6b656e73206d75737420626520696e20706f6f6c00000000000000000000604082015260600190565b6020808252601a908201527f536166654d6174683a206469766973696f6e206279207a65726f000000000000604082015260600190565b60208082526013908201527f496e76616c696420746f6b656e20696e64657800000000000000000000000000604082015260600190565b60208082526021908201527f536166654d6174683a206d756c7469706c69636174696f6e206f766572666c6f60408201527f7700000000000000000000000000000000000000000000000000000000000000606082015260800190565b6020808252601e908201527f417070726f78696d6174696f6e20646964206e6f7420636f6e76657267650000604082015260600190565b6020808252601d908201527f43616e277420636f6d7061726520746f6b656e20746f20697473656c66000000604082015260600190565b60208082526013908201527f4420646f6573206e6f7420636f6e766572676500000000000000000000000000604082015260600190565b6020808252600d908201527f546f6b656e20696e76616c696400000000000000000000000000000000000000604082015260600190565b90815260200190565b60ff91909116815260200190565b60ff9384168152919092166020820152604081019190915260600190565b60008083357fffffffffffffffffffffffffffffffffffffffffffffffffffffffffffffffe18436030181126117eb578283fd5b83018035915067ffffffffffffffff821115611805578283fd5b60200191503681900382131561181a57600080fd5b9250929050565b60405181810167ffffffffffffffff8111828210171561184057600080fd5b604052919050565b60005b8381101561186357818101518382015260200161184b565b838111156109535750506000910152565b73ffffffffffffffffffffffffffffffffffffffff8116811461189657600080fd5b5056fea26469706673582212209aae6319bd76e3168bcb0a00acd7900803eae3c12cf9359b54670925930902f964736f6c634300060c0033",
  "devdoc": {
    "kind": "dev",
    "methods": {
      "addPool(address)": {
        "params": {
          "pool": "address of a pool contract that implements ISwap"
        }
      },
      "batch(bytes[],bool)": {
        "params": {
          "calls": "An array of inputs for each call.",
          "revertOnFail": "If True then reverts after a failed call and stops doing further calls."
        }
      },
      "calculateSwapInput(address,uint256,uint256,uint256)": {
        "params": {
          "inputIndex": "index of the input token in the pool",
          "outputAmount": "desired amount of output token to receive on swap",
          "outputIndex": "index of the output token in the pool",
          "pool": "address of a pool contract that implements ISwap"
        },
        "returns": {
          "inputAmount": "expected input amount"
        }
      },
      "calculateSwapInputCustom(uint256[],uint256,uint256,uint256,uint256,uint256)": {
        "details": "Uses 1e18 precision for balances, 1e2 for A, and 1e10 for swap fee",
        "params": {
          "a": "A parameter to be used in the calculation",
          "balances": "array of balances",
          "inputIndex": "index of the input token in the pool",
          "outputAmount": "desired amount of output token to receive on swap",
          "outputIndex": "index of the output token in the pool",
          "swapFee": "fee to be charged per swap"
        },
        "returns": {
          "inputAmount": "expected input amount"
        }
      },
      "calculateSwapOutput(address,uint256,uint256,uint256)": {
        "params": {
          "inputAmount": "amount of input token to swap",
          "inputIndex": "index of the input token in the pool",
          "outputIndex": "index of the output token in the pool",
          "pool": "address of a pool contract that implements ISwap"
        },
        "returns": {
          "outputAmount": "expected output amount"
        }
      },
      "calculateSwapOutputCustom(uint256[],uint256,uint256,uint256,uint256,uint256)": {
        "details": "Uses 1e18 precision for balances, 1e2 for A, and 1e10 for swap fee",
        "params": {
          "a": "A parameter to be used in the calculation",
          "balances": "array of balances",
          "inputAmount": "amount of input token to swap",
          "inputIndex": "index of the input token in the pool",
          "outputIndex": "index of the output token in the pool",
          "swapFee": "fee to be charged per swap"
        },
        "returns": {
          "outputAmount": "expected output amount"
        }
      },
      "relativePrice(address,uint256,uint256)": {
        "params": {
          "inputIndex": "index of the input token in the pool",
          "outputIndex": "index of the output token in the pool",
          "pool": "address of a pool contract that implements ISwap"
        },
        "returns": {
          "price": "relative price of output tokens per one input token"
        }
      },
      "relativePriceCustom(uint256[],uint256,uint256,uint256)": {
        "details": "Uses 1e18 precision for balances, 1e2 for A",
        "params": {
          "a": "A parameter to be used in the calculation",
          "balances": "array of balances",
          "inputIndex": "index of the input token in the pool",
          "outputIndex": "index of the output token in the pool"
        },
        "returns": {
          "price": "relative price of output tokens per one input token"
        }
      }
    },
    "title": "SwapCalculator",
    "version": 1
  },
  "userdoc": {
    "kind": "user",
    "methods": {
      "addPool(address)": {
        "notice": "Add and registers a new pool. This function exist to cache decimal information."
      },
      "batch(bytes[],bool)": {
        "notice": "Allows batched call to self (this contract)."
      },
      "calculateSwapInput(address,uint256,uint256,uint256)": {
        "notice": "Calculate the expected input amount for given pool, indexes, and out amount"
      },
      "calculateSwapInputCustom(uint256[],uint256,uint256,uint256,uint256,uint256)": {
        "notice": "Calculate the expected input amount for given balances, A, swap fee, indexes, and out amount"
      },
      "calculateSwapOutput(address,uint256,uint256,uint256)": {
        "notice": "Calculate the expected output amount for given pool, indexes, and input amount"
      },
      "calculateSwapOutputCustom(uint256[],uint256,uint256,uint256,uint256,uint256)": {
        "notice": "Calculate the expected input amount for given balances, A, swap fee, indexes, and out amount"
      },
      "relativePrice(address,uint256,uint256)": {
        "notice": "Calculates the relative price between two assets in a pool"
      },
      "relativePriceCustom(uint256[],uint256,uint256,uint256)": {
        "notice": "Calculate the relative price between two assets in given setup of balances and A"
      }
    },
    "notice": "A contract to help calculate exact input and output amounts for a swap. Supports pools with ISwap interfaces. Additionally includes functions to calculate with arbitrary balances, A parameter, and swap fee.",
    "version": 1
  },
  "storageLayout": {
    "storage": [
      {
        "astId": 24683,
        "contract": "contracts/libraries/SwapCalculator.sol:SwapCalculator",
        "label": "storedDecimals",
        "offset": 0,
        "slot": "0",
        "type": "t_mapping(t_address,t_array(t_uint256)dyn_storage)"
      }
    ],
    "types": {
      "t_address": {
        "encoding": "inplace",
        "label": "address",
        "numberOfBytes": "20"
      },
      "t_array(t_uint256)dyn_storage": {
        "base": "t_uint256",
        "encoding": "dynamic_array",
        "label": "uint256[]",
        "numberOfBytes": "32"
      },
      "t_mapping(t_address,t_array(t_uint256)dyn_storage)": {
        "encoding": "mapping",
        "key": "t_address",
        "label": "mapping(address => uint256[])",
        "numberOfBytes": "32",
        "value": "t_array(t_uint256)dyn_storage"
      },
      "t_uint256": {
        "encoding": "inplace",
        "label": "uint256",
        "numberOfBytes": "32"
      }
    }
  }
}