{
  "address": "0x9DC37020f261758871104f9D8b87e575Ee45Bc5a",
  "abi": [
    {
      "anonymous": false,
      "inputs": [
        {
          "indexed": true,
          "internalType": "address",
          "name": "provider",
          "type": "address"
        },
        {
          "indexed": false,
          "internalType": "uint256[]",
          "name": "tokenAmounts",
          "type": "uint256[]"
        },
        {
          "indexed": false,
          "internalType": "uint256[]",
          "name": "fees",
          "type": "uint256[]"
        },
        {
          "indexed": false,
          "internalType": "uint256",
          "name": "invariant",
          "type": "uint256"
        },
        {
          "indexed": false,
          "internalType": "uint256",
          "name": "lpTokenSupply",
          "type": "uint256"
        }
      ],
      "name": "AddLiquidity",
      "type": "event"
    },
    {
      "anonymous": false,
      "inputs": [
        {
          "indexed": false,
          "internalType": "uint256",
          "name": "newAdminFee",
          "type": "uint256"
        }
      ],
      "name": "NewAdminFee",
      "type": "event"
    },
    {
      "anonymous": false,
      "inputs": [
        {
          "indexed": false,
          "internalType": "uint256",
          "name": "newSwapFee",
          "type": "uint256"
        }
      ],
      "name": "NewSwapFee",
      "type": "event"
    },
    {
      "anonymous": false,
      "inputs": [
        {
          "indexed": false,
          "internalType": "uint256",
          "name": "newWithdrawFee",
          "type": "uint256"
        }
      ],
      "name": "NewWithdrawFee",
      "type": "event"
    },
    {
      "anonymous": false,
      "inputs": [
        {
          "indexed": true,
          "internalType": "address",
          "name": "previousOwner",
          "type": "address"
        },
        {
          "indexed": true,
          "internalType": "address",
          "name": "newOwner",
          "type": "address"
        }
      ],
      "name": "OwnershipTransferred",
      "type": "event"
    },
    {
      "anonymous": false,
      "inputs": [
        {
          "indexed": false,
          "internalType": "address",
          "name": "account",
          "type": "address"
        }
      ],
      "name": "Paused",
      "type": "event"
    },
    {
      "anonymous": false,
      "inputs": [
        {
          "indexed": false,
          "internalType": "uint256",
          "name": "oldA",
          "type": "uint256"
        },
        {
          "indexed": false,
          "internalType": "uint256",
          "name": "newA",
          "type": "uint256"
        },
        {
          "indexed": false,
          "internalType": "uint256",
          "name": "initialTime",
          "type": "uint256"
        },
        {
          "indexed": false,
          "internalType": "uint256",
          "name": "futureTime",
          "type": "uint256"
        }
      ],
      "name": "RampA",
      "type": "event"
    },
    {
      "anonymous": false,
      "inputs": [
        {
          "indexed": true,
          "internalType": "address",
          "name": "provider",
          "type": "address"
        },
        {
          "indexed": false,
          "internalType": "uint256[]",
          "name": "tokenAmounts",
          "type": "uint256[]"
        },
        {
          "indexed": false,
          "internalType": "uint256",
          "name": "lpTokenSupply",
          "type": "uint256"
        }
      ],
      "name": "RemoveLiquidity",
      "type": "event"
    },
    {
      "anonymous": false,
      "inputs": [
        {
          "indexed": true,
          "internalType": "address",
          "name": "provider",
          "type": "address"
        },
        {
          "indexed": false,
          "internalType": "uint256[]",
          "name": "tokenAmounts",
          "type": "uint256[]"
        },
        {
          "indexed": false,
          "internalType": "uint256[]",
          "name": "fees",
          "type": "uint256[]"
        },
        {
          "indexed": false,
          "internalType": "uint256",
          "name": "invariant",
          "type": "uint256"
        },
        {
          "indexed": false,
          "internalType": "uint256",
          "name": "lpTokenSupply",
          "type": "uint256"
        }
      ],
      "name": "RemoveLiquidityImbalance",
      "type": "event"
    },
    {
      "anonymous": false,
      "inputs": [
        {
          "indexed": true,
          "internalType": "address",
          "name": "provider",
          "type": "address"
        },
        {
          "indexed": false,
          "internalType": "uint256",
          "name": "lpTokenAmount",
          "type": "uint256"
        },
        {
          "indexed": false,
          "internalType": "uint256",
          "name": "lpTokenSupply",
          "type": "uint256"
        },
        {
          "indexed": false,
          "internalType": "uint256",
          "name": "boughtId",
          "type": "uint256"
        },
        {
          "indexed": false,
          "internalType": "uint256",
          "name": "tokensBought",
          "type": "uint256"
        }
      ],
      "name": "RemoveLiquidityOne",
      "type": "event"
    },
    {
      "anonymous": false,
      "inputs": [
        {
          "indexed": false,
          "internalType": "uint256",
          "name": "currentA",
          "type": "uint256"
        },
        {
          "indexed": false,
          "internalType": "uint256",
          "name": "time",
          "type": "uint256"
        }
      ],
      "name": "StopRampA",
      "type": "event"
    },
    {
      "anonymous": false,
      "inputs": [
        {
          "indexed": true,
          "internalType": "address",
          "name": "buyer",
          "type": "address"
        },
        {
          "indexed": false,
          "internalType": "uint256",
          "name": "tokensSold",
          "type": "uint256"
        },
        {
          "indexed": false,
          "internalType": "uint256",
          "name": "tokensBought",
          "type": "uint256"
        },
        {
          "indexed": false,
          "internalType": "uint128",
          "name": "soldId",
          "type": "uint128"
        },
        {
          "indexed": false,
          "internalType": "uint128",
          "name": "boughtId",
          "type": "uint128"
        }
      ],
      "name": "TokenSwap",
      "type": "event"
    },
    {
      "anonymous": false,
      "inputs": [
        {
          "indexed": false,
          "internalType": "address",
          "name": "account",
          "type": "address"
        }
      ],
      "name": "Unpaused",
      "type": "event"
    },
    {
      "inputs": [
        {
          "internalType": "uint256[]",
          "name": "amounts",
          "type": "uint256[]"
        },
        {
          "internalType": "uint256",
          "name": "minToMint",
          "type": "uint256"
        },
        {
          "internalType": "uint256",
          "name": "deadline",
          "type": "uint256"
        }
      ],
      "name": "addLiquidity",
      "outputs": [
        {
          "internalType": "uint256",
          "name": "",
          "type": "uint256"
        }
      ],
      "stateMutability": "nonpayable",
      "type": "function"
    },
    {
      "inputs": [
        {
          "internalType": "address",
          "name": "user",
          "type": "address"
        }
      ],
      "name": "calculateCurrentWithdrawFee",
      "outputs": [
        {
          "internalType": "uint256",
          "name": "",
          "type": "uint256"
        }
      ],
      "stateMutability": "view",
      "type": "function"
    },
    {
      "inputs": [
        {
          "internalType": "address",
          "name": "account",
          "type": "address"
        },
        {
          "internalType": "uint256",
          "name": "amount",
          "type": "uint256"
        }
      ],
      "name": "calculateRemoveLiquidity",
      "outputs": [
        {
          "internalType": "uint256[]",
          "name": "",
          "type": "uint256[]"
        }
      ],
      "stateMutability": "view",
      "type": "function"
    },
    {
      "inputs": [
        {
          "internalType": "address",
          "name": "account",
          "type": "address"
        },
        {
          "internalType": "uint256",
          "name": "tokenAmount",
          "type": "uint256"
        },
        {
          "internalType": "uint8",
          "name": "tokenIndex",
          "type": "uint8"
        }
      ],
      "name": "calculateRemoveLiquidityOneToken",
      "outputs": [
        {
          "internalType": "uint256",
          "name": "availableTokenAmount",
          "type": "uint256"
        }
      ],
      "stateMutability": "view",
      "type": "function"
    },
    {
      "inputs": [
        {
          "internalType": "uint8",
          "name": "tokenIndexFrom",
          "type": "uint8"
        },
        {
          "internalType": "uint8",
          "name": "tokenIndexTo",
          "type": "uint8"
        },
        {
          "internalType": "uint256",
          "name": "dx",
          "type": "uint256"
        }
      ],
      "name": "calculateSwap",
      "outputs": [
        {
          "internalType": "uint256",
          "name": "",
          "type": "uint256"
        }
      ],
      "stateMutability": "view",
      "type": "function"
    },
    {
      "inputs": [
        {
          "internalType": "address",
          "name": "account",
          "type": "address"
        },
        {
          "internalType": "uint256[]",
          "name": "amounts",
          "type": "uint256[]"
        },
        {
          "internalType": "bool",
          "name": "deposit",
          "type": "bool"
        }
      ],
      "name": "calculateTokenAmount",
      "outputs": [
        {
          "internalType": "uint256",
          "name": "",
          "type": "uint256"
        }
      ],
      "stateMutability": "view",
      "type": "function"
    },
    {
      "inputs": [],
      "name": "getA",
      "outputs": [
        {
          "internalType": "uint256",
          "name": "",
          "type": "uint256"
        }
      ],
      "stateMutability": "view",
      "type": "function"
    },
    {
      "inputs": [],
      "name": "getAPrecise",
      "outputs": [
        {
          "internalType": "uint256",
          "name": "",
          "type": "uint256"
        }
      ],
      "stateMutability": "view",
      "type": "function"
    },
    {
      "inputs": [
        {
          "internalType": "uint256",
          "name": "index",
          "type": "uint256"
        }
      ],
      "name": "getAdminBalance",
      "outputs": [
        {
          "internalType": "uint256",
          "name": "",
          "type": "uint256"
        }
      ],
      "stateMutability": "view",
      "type": "function"
    },
    {
      "inputs": [
        {
          "internalType": "address",
          "name": "user",
          "type": "address"
        }
      ],
      "name": "getDepositTimestamp",
      "outputs": [
        {
          "internalType": "uint256",
          "name": "",
          "type": "uint256"
        }
      ],
      "stateMutability": "view",
      "type": "function"
    },
    {
      "inputs": [
        {
          "internalType": "uint8",
          "name": "index",
          "type": "uint8"
        }
      ],
      "name": "getToken",
      "outputs": [
        {
          "internalType": "contract IERC20",
          "name": "",
          "type": "address"
        }
      ],
      "stateMutability": "view",
      "type": "function"
    },
    {
      "inputs": [
        {
          "internalType": "uint8",
          "name": "index",
          "type": "uint8"
        }
      ],
      "name": "getTokenBalance",
      "outputs": [
        {
          "internalType": "uint256",
          "name": "",
          "type": "uint256"
        }
      ],
      "stateMutability": "view",
      "type": "function"
    },
    {
      "inputs": [
        {
          "internalType": "address",
          "name": "tokenAddress",
          "type": "address"
        }
      ],
      "name": "getTokenIndex",
      "outputs": [
        {
          "internalType": "uint8",
          "name": "",
          "type": "uint8"
        }
      ],
      "stateMutability": "view",
      "type": "function"
    },
    {
      "inputs": [],
      "name": "getVirtualPrice",
      "outputs": [
        {
          "internalType": "uint256",
          "name": "",
          "type": "uint256"
        }
      ],
      "stateMutability": "view",
      "type": "function"
    },
    {
      "inputs": [
        {
          "internalType": "contract IERC20[]",
          "name": "_pooledTokens",
          "type": "address[]"
        },
        {
          "internalType": "uint8[]",
          "name": "decimals",
          "type": "uint8[]"
        },
        {
          "internalType": "string",
          "name": "lpTokenName",
          "type": "string"
        },
        {
          "internalType": "string",
          "name": "lpTokenSymbol",
          "type": "string"
        },
        {
          "internalType": "uint256",
          "name": "_a",
          "type": "uint256"
        },
        {
          "internalType": "uint256",
          "name": "_fee",
          "type": "uint256"
        },
        {
          "internalType": "uint256",
          "name": "_adminFee",
          "type": "uint256"
        },
        {
          "internalType": "uint256",
          "name": "_withdrawFee",
          "type": "uint256"
        }
      ],
      "name": "initialize",
      "outputs": [],
      "stateMutability": "nonpayable",
      "type": "function"
    },
    {
      "inputs": [],
      "name": "owner",
      "outputs": [
        {
          "internalType": "address",
          "name": "",
          "type": "address"
        }
      ],
      "stateMutability": "view",
      "type": "function"
    },
    {
      "inputs": [],
      "name": "pause",
      "outputs": [],
      "stateMutability": "nonpayable",
      "type": "function"
    },
    {
      "inputs": [],
      "name": "paused",
      "outputs": [
        {
          "internalType": "bool",
          "name": "",
          "type": "bool"
        }
      ],
      "stateMutability": "view",
      "type": "function"
    },
    {
      "inputs": [
        {
          "internalType": "uint256",
          "name": "futureA",
          "type": "uint256"
        },
        {
          "internalType": "uint256",
          "name": "futureTime",
          "type": "uint256"
        }
      ],
      "name": "rampA",
      "outputs": [],
      "stateMutability": "nonpayable",
      "type": "function"
    },
    {
      "inputs": [
        {
          "internalType": "uint256",
          "name": "amount",
          "type": "uint256"
        },
        {
          "internalType": "uint256[]",
          "name": "minAmounts",
          "type": "uint256[]"
        },
        {
          "internalType": "uint256",
          "name": "deadline",
          "type": "uint256"
        }
      ],
      "name": "removeLiquidity",
      "outputs": [
        {
          "internalType": "uint256[]",
          "name": "",
          "type": "uint256[]"
        }
      ],
      "stateMutability": "nonpayable",
      "type": "function"
    },
    {
      "inputs": [
        {
          "internalType": "uint256[]",
          "name": "amounts",
          "type": "uint256[]"
        },
        {
          "internalType": "uint256",
          "name": "maxBurnAmount",
          "type": "uint256"
        },
        {
          "internalType": "uint256",
          "name": "deadline",
          "type": "uint256"
        }
      ],
      "name": "removeLiquidityImbalance",
      "outputs": [
        {
          "internalType": "uint256",
          "name": "",
          "type": "uint256"
        }
      ],
      "stateMutability": "nonpayable",
      "type": "function"
    },
    {
      "inputs": [
        {
          "internalType": "uint256",
          "name": "tokenAmount",
          "type": "uint256"
        },
        {
          "internalType": "uint8",
          "name": "tokenIndex",
          "type": "uint8"
        },
        {
          "internalType": "uint256",
          "name": "minAmount",
          "type": "uint256"
        },
        {
          "internalType": "uint256",
          "name": "deadline",
          "type": "uint256"
        }
      ],
      "name": "removeLiquidityOneToken",
      "outputs": [
        {
          "internalType": "uint256",
          "name": "",
          "type": "uint256"
        }
      ],
      "stateMutability": "nonpayable",
      "type": "function"
    },
    {
      "inputs": [],
      "name": "renounceOwnership",
      "outputs": [],
      "stateMutability": "nonpayable",
      "type": "function"
    },
    {
      "inputs": [
        {
          "internalType": "uint256",
          "name": "newAdminFee",
          "type": "uint256"
        }
      ],
      "name": "setAdminFee",
      "outputs": [],
      "stateMutability": "nonpayable",
      "type": "function"
    },
    {
      "inputs": [
        {
          "internalType": "uint256",
          "name": "newWithdrawFee",
          "type": "uint256"
        }
      ],
      "name": "setDefaultWithdrawFee",
      "outputs": [],
      "stateMutability": "nonpayable",
      "type": "function"
    },
    {
      "inputs": [
        {
          "internalType": "uint256",
          "name": "newSwapFee",
          "type": "uint256"
        }
      ],
      "name": "setSwapFee",
      "outputs": [],
      "stateMutability": "nonpayable",
      "type": "function"
    },
    {
      "inputs": [],
      "name": "stopRampA",
      "outputs": [],
      "stateMutability": "nonpayable",
      "type": "function"
    },
    {
      "inputs": [
        {
          "internalType": "uint8",
          "name": "tokenIndexFrom",
          "type": "uint8"
        },
        {
          "internalType": "uint8",
          "name": "tokenIndexTo",
          "type": "uint8"
        },
        {
          "internalType": "uint256",
          "name": "dx",
          "type": "uint256"
        },
        {
          "internalType": "uint256",
          "name": "minDy",
          "type": "uint256"
        },
        {
          "internalType": "uint256",
          "name": "deadline",
          "type": "uint256"
        }
      ],
      "name": "swap",
      "outputs": [
        {
          "internalType": "uint256",
          "name": "",
          "type": "uint256"
        }
      ],
      "stateMutability": "nonpayable",
      "type": "function"
    },
    {
      "inputs": [],
      "name": "swapStorage",
      "outputs": [
        {
          "internalType": "uint256",
          "name": "initialA",
          "type": "uint256"
        },
        {
          "internalType": "uint256",
          "name": "futureA",
          "type": "uint256"
        },
        {
          "internalType": "uint256",
          "name": "initialATime",
          "type": "uint256"
        },
        {
          "internalType": "uint256",
          "name": "futureATime",
          "type": "uint256"
        },
        {
          "internalType": "uint256",
          "name": "swapFee",
          "type": "uint256"
        },
        {
          "internalType": "uint256",
          "name": "adminFee",
          "type": "uint256"
        },
        {
          "internalType": "uint256",
          "name": "defaultWithdrawFee",
          "type": "uint256"
        },
        {
          "internalType": "contract LPToken",
          "name": "lpToken",
          "type": "address"
        }
      ],
      "stateMutability": "view",
      "type": "function"
    },
    {
      "inputs": [
        {
          "internalType": "address",
          "name": "newOwner",
          "type": "address"
        }
      ],
      "name": "transferOwnership",
      "outputs": [],
      "stateMutability": "nonpayable",
      "type": "function"
    },
    {
      "inputs": [],
      "name": "unpause",
      "outputs": [],
      "stateMutability": "nonpayable",
      "type": "function"
    },
    {
      "inputs": [
        {
          "internalType": "address",
          "name": "recipient",
          "type": "address"
        },
        {
          "internalType": "uint256",
          "name": "transferAmount",
          "type": "uint256"
        }
      ],
      "name": "updateUserWithdrawFee",
      "outputs": [],
      "stateMutability": "nonpayable",
      "type": "function"
    },
    {
      "inputs": [],
      "name": "withdrawAdminFees",
      "outputs": [],
      "stateMutability": "nonpayable",
      "type": "function"
    }
  ],
  "transactionHash": "0x0ef9448a99ca2ed3f8103027b4af672caabafd6241339ec483d786c78ae90b90",
  "args": [],
  "solcInputHash": "56b298fd0706bd84f7f5376d8bd5fd39",
  "bytecode": "0x608060405260d6805460ff1916905534801561001a57600080fd5b50614efc8061002a6000396000f3fe60806040523480156200001157600080fd5b50600436106200023e5760003560e01c80638456cb591162000147578063ac5bf26311620000cf578063da7a77be1162000099578063ef0a712f116200007b578063ef0a712f14620009f6578063f2fde38b1462000a16578063f9273ffb1462000a3f576200023e565b8063da7a77be14620009c3578063e25aa5fa14620009ec576200023e565b8063ac5bf2631462000960578063c00c125c1462000980578063c4db7fa014620009af578063d46300fd14620009b9576200023e565b806391695586116200011157806391695586146200089357806391ceb3eb14620008d257806398899f4014620008f5578063a95b089f146200092d576200023e565b80638456cb5914620007e357806384cdd9bc14620007ed5780638beb60b614620008695780638da5cb5b1462000889576200023e565b8063593d132c11620001cb5780636dd4480b11620001955780636dd4480b1462000515578063715018a6146200076b5780637c61e561146200077557806382b8660014620007a4576200023e565b8063593d132c146200043e5780635c975abb14620004645780635fd65f0f146200048257806366c0bd2414620004d6576200023e565b80633e3a1560116200020d5780633e3a1560146200035a5780633f4ba83a146200038f5780634a1b0d5714620003995780634d49e87d14620003c2576200023e565b80630419b45a14620002435780630ba81959146200024f57806331cd52b0146200026b57806334e19907146200033a575b600080fd5b6200024d62000ac7565b005b6200025962000bc6565b60408051918252519081900360200190f35b620002e8600480360360608110156200028357600080fd5b81359190810190604081016020820135640100000000811115620002a657600080fd5b820183602082011115620002b957600080fd5b80359060200191846020830284011164010000000083111715620002dc57600080fd5b91935091503562000c4e565b60408051602080825283518183015283519192839290830191858101910280838360005b83811015620003265781810151838201526020016200030c565b505050509050019250505060405180910390f35b6200024d600480360360208110156200035257600080fd5b503562000e95565b62000259600480360360808110156200037257600080fd5b5080359060ff602082013516906040810135906060013562000f9d565b6200024d62001171565b6200025960048036036020811015620003b157600080fd5b50356001600160a01b0316620011f6565b6200025960048036036060811015620003da57600080fd5b810190602081018135640100000000811115620003f657600080fd5b8201836020820111156200040957600080fd5b803590602001918460208302840111640100000000831117156200042c57600080fd5b919350915080359060200135620012a9565b6200024d600480360360408110156200045657600080fd5b50803590602001356200144f565b6200046e6200155f565b604080519115158252519081900360200190f35b6200048c62001568565b604080519889526020890197909752878701959095526060870193909352608086019190915260a085015260c08401526001600160a01b031660e083015251908190036101000190f35b620004ff60048036036020811015620004ee57600080fd5b50356001600160a01b03166200158c565b6040805160ff9092168252519081900360200190f35b6200024d60048036036101008110156200052e57600080fd5b8101906020810181356401000000008111156200054a57600080fd5b8201836020820111156200055d57600080fd5b803590602001918460208302840111640100000000831117156200058057600080fd5b9190808060200260200160405190810160405280939291908181526020018383602002808284376000920191909152509295949360208101935035915050640100000000811115620005d157600080fd5b820183602082011115620005e457600080fd5b803590602001918460208302840111640100000000831117156200060757600080fd5b91908080602002602001604051908101604052809392919081815260200183836020028082843760009201919091525092959493602081019350359150506401000000008111156200065857600080fd5b8201836020820111156200066b57600080fd5b803590602001918460018302840111640100000000831117156200068e57600080fd5b91908080601f0160208091040260200160405190810160405280939291908181526020018383808284376000920191909152509295949360208101935035915050640100000000811115620006e257600080fd5b820183602082011115620006f557600080fd5b803590602001918460018302840111640100000000831117156200071857600080fd5b91908080601f01602080910402602001604051908101604052809392919081815260200183838082843760009201919091525092955050823593505050602081013590604081013590606001356200161a565b6200024d62001e29565b620002e8600480360360408110156200078d57600080fd5b506001600160a01b03813516906020013562001f04565b620007c760048036036020811015620007bc57600080fd5b503560ff1662002080565b604080516001600160a01b039092168252519081900360200190f35b6200024d6200210a565b62000259600480360360608110156200080557600080fd5b8101906020810181356401000000008111156200082157600080fd5b8201836020820111156200083457600080fd5b803590602001918460208302840111640100000000831117156200085757600080fd5b9193509150803590602001356200218d565b6200024d600480360360208110156200088157600080fd5b503562002333565b620007c76200241f565b62000259600480360360a0811015620008ab57600080fd5b5060ff8135811691602081013590911690604081013590606081013590608001356200242e565b6200025960048036036020811015620008ea57600080fd5b503560ff166200260b565b62000259600480360360608110156200090d57600080fd5b5080356001600160a01b0316906020810135906040013560ff166200268c565b62000259600480360360608110156200094557600080fd5b5060ff8135811691602081013590911690604001356200274c565b6200024d600480360360208110156200097857600080fd5b503562002800565b6200024d600480360360408110156200099857600080fd5b506001600160a01b038135169060200135620028ec565b6200024d620029ce565b6200025962002ab3565b6200025960048036036020811015620009db57600080fd5b50356001600160a01b031662002b08565b6200025962002b87565b620002596004803603602081101562000a0e57600080fd5b503562002bdc565b6200024d6004803603602081101562000a2e57600080fd5b50356001600160a01b031662002c39565b620002596004803603606081101562000a5757600080fd5b6001600160a01b03823516919081019060408101602082013564010000000081111562000a8357600080fd5b82018360208201111562000a9657600080fd5b8035906020019184602083028401116401000000008311171562000ab957600080fd5b919350915035151562002d6d565b62000ad162002e4b565b6001600160a01b031662000ae46200241f565b6001600160a01b03161462000b40576040805162461bcd60e51b815260206004820181905260248201527f4f776e61626c653a2063616c6c6572206973206e6f7420746865206f776e6572604482015290519081900360640190fd5b73149bBb210051851016F57a2824C0444f642833a66324c5c75160c962000b666200241f565b6040518363ffffffff1660e01b815260040180838152602001826001600160a01b031681526020019250505060006040518083038186803b15801562000bab57600080fd5b505af415801562000bc0573d6000803e3d6000fd5b50505050565b600060c973149bBb210051851016F57a2824C0444f642833a663c9b64dcb90916040518263ffffffff1660e01b81526004018082815260200191505060206040518083038186803b15801562000c1b57600080fd5b505af415801562000c30573d6000803e3d6000fd5b505050506040513d602081101562000c4757600080fd5b5051905090565b60606002609754141562000ca9576040805162461bcd60e51b815260206004820152601f60248201527f5265656e7472616e637947756172643a207265656e7472616e742063616c6c00604482015290519081900360640190fd5b6002609755814281101562000d05576040805162461bcd60e51b815260206004820152601060248201527f446561646c696e65206e6f74206d657400000000000000000000000000000000604482015290519081900360640190fd5b60c973149bBb210051851016F57a2824C0444f642833a66373fd6b3e90918888886040518563ffffffff1660e01b815260040180858152602001848152602001806020018281038252848482818152602001925060200280828437600081840152601f19601f8201169050808301925050509550505050505060006040518083038186803b15801562000d9757600080fd5b505af415801562000dac573d6000803e3d6000fd5b505050506040513d6000823e601f3d9081017fffffffffffffffffffffffffffffffffffffffffffffffffffffffffffffffe0168201604052602081101562000df457600080fd5b810190808051604051939291908464010000000082111562000e1557600080fd5b90830190602082018581111562000e2b57600080fd5b825186602082028301116401000000008211171562000e4957600080fd5b82525081516020918201928201910280838360005b8381101562000e7857818101518382015260200162000e5e565b505050509050016040525050509150506001609755949350505050565b62000e9f62002e4b565b6001600160a01b031662000eb26200241f565b6001600160a01b03161462000f0e576040805162461bcd60e51b815260206004820181905260248201527f4f776e61626c653a2063616c6c6572206973206e6f7420746865206f776e6572604482015290519081900360640190fd5b604080517f467e186c00000000000000000000000000000000000000000000000000000000815260c9600482015260248101839052905173149bBb210051851016F57a2824C0444f642833a69163467e186c916044808301926000929190829003018186803b15801562000f8157600080fd5b505af415801562000f96573d6000803e3d6000fd5b5050505050565b60006002609754141562000ff8576040805162461bcd60e51b815260206004820152601f60248201527f5265656e7472616e637947756172643a207265656e7472616e742063616c6c00604482015290519081900360640190fd5b6002609755620010076200155f565b156200105a576040805162461bcd60e51b815260206004820152601060248201527f5061757361626c653a2070617573656400000000000000000000000000000000604482015290519081900360640190fd5b8180421115620010b1576040805162461bcd60e51b815260206004820152601060248201527f446561646c696e65206e6f74206d657400000000000000000000000000000000604482015290519081900360640190fd5b604080517fe7a4db8100000000000000000000000000000000000000000000000000000000815260c960048201526024810188905260ff8716604482015260648101869052905173149bBb210051851016F57a2824C0444f642833a69163e7a4db81916084808301926020929190829003018186803b1580156200113457600080fd5b505af415801562001149573d6000803e3d6000fd5b505050506040513d60208110156200116057600080fd5b505160016097559695505050505050565b6200117b62002e4b565b6001600160a01b03166200118e6200241f565b6001600160a01b031614620011ea576040805162461bcd60e51b815260206004820181905260248201527f4f776e61626c653a2063616c6c6572206973206e6f7420746865206f776e6572604482015290519081900360640190fd5b620011f462002e4f565b565b604080517f968e559400000000000000000000000000000000000000000000000000000000815260c960048201526001600160a01b0383166024820152905160009173149bBb210051851016F57a2824C0444f642833a69163968e559491604480820192602092909190829003018186803b1580156200127557600080fd5b505af41580156200128a573d6000803e3d6000fd5b505050506040513d6020811015620012a157600080fd5b505192915050565b60006002609754141562001304576040805162461bcd60e51b815260206004820152601f60248201527f5265656e7472616e637947756172643a207265656e7472616e742063616c6c00604482015290519081900360640190fd5b6002609755620013136200155f565b1562001366576040805162461bcd60e51b815260206004820152601060248201527f5061757361626c653a2070617573656400000000000000000000000000000000604482015290519081900360640190fd5b8180421115620013bd576040805162461bcd60e51b815260206004820152601060248201527f446561646c696e65206e6f74206d657400000000000000000000000000000000604482015290519081900360640190fd5b60c973149bBb210051851016F57a2824C0444f642833a66340370edf90918888886040518563ffffffff1660e01b815260040180858152602001806020018381526020018281038252858582818152602001925060200280828437600081840152601f19601f8201169050808301925050509550505050505060206040518083038186803b1580156200113457600080fd5b6200145962002e4b565b6001600160a01b03166200146c6200241f565b6001600160a01b031614620014c8576040805162461bcd60e51b815260206004820181905260248201527f4f776e61626c653a2063616c6c6572206973206e6f7420746865206f776e6572604482015290519081900360640190fd5b604080517f58fdd79b00000000000000000000000000000000000000000000000000000000815260c960048201526024810184905260448101839052905173149bBb210051851016F57a2824C0444f642833a6916358fdd79b916064808301926000929190829003018186803b1580156200154257600080fd5b505af415801562001557573d6000803e3d6000fd5b505050505050565b60655460ff1690565b60c95460ca5460cb5460cc5460cd5460ce5460cf5460d0546001600160a01b031688565b6001600160a01b038116600081815260d76020526040812054909160ff90911690620015b88262002080565b6001600160a01b03161462001614576040805162461bcd60e51b815260206004820152601460248201527f546f6b656e20646f6573206e6f74206578697374000000000000000000000000604482015290519081900360640190fd5b92915050565b600054610100900460ff16806200163657506200163662002efd565b8062001645575060005460ff16155b620016825760405162461bcd60e51b815260040180806020018281038252602e81526020018062004e78602e913960400191505060405180910390fd5b600054610100900460ff16158015620016ae576000805460ff1961ff0019909116610100171660011790555b620016b862002f10565b620016c262002fd8565b600189511162001719576040805162461bcd60e51b815260206004820152601960248201527f5f706f6f6c6564546f6b656e732e6c656e677468203c3d203100000000000000604482015290519081900360640190fd5b60208951111562001771576040805162461bcd60e51b815260206004820152601960248201527f5f706f6f6c6564546f6b656e732e6c656e677468203e20333200000000000000604482015290519081900360640190fd5b8751895114620017c8576040805162461bcd60e51b815260206004820152601f60248201527f5f706f6f6c6564546f6b656e7320646563696d616c73206d69736d6174636800604482015290519081900360640190fd5b6060885167ffffffffffffffff81118015620017e357600080fd5b506040519080825280602002602001820160405280156200180e578160200160208202803683370190505b50905060005b8a518160ff16101562001a9d5760ff811615620019045760d760008c8360ff16815181106200183f57fe5b6020908102919091018101516001600160a01b031682528101919091526040016000205460ff16158015620018b257508a8160ff16815181106200187f57fe5b60200260200101516001600160a01b03168b6000815181106200189e57fe5b60200260200101516001600160a01b031614155b62001904576040805162461bcd60e51b815260206004820152601060248201527f4475706c696361746520746f6b656e7300000000000000000000000000000000604482015290519081900360640190fd5b60006001600160a01b03168b8260ff16815181106200191f57fe5b60200260200101516001600160a01b0316141562001984576040805162461bcd60e51b815260206004820152601d60248201527f546865203020616464726573732069736e277420616e204552432d3230000000604482015290519081900360640190fd5b601260ff168a8260ff16815181106200199957fe5b602002602001015160ff161115620019f8576040805162461bcd60e51b815260206004820152601a60248201527f546f6b656e20646563696d616c732065786365656473206d6178000000000000604482015290519081900360640190fd5b62001a2b8a8260ff168151811062001a0c57fe5b602002602001015160ff16601260ff166200307690919063ffffffff16565b600a0a828260ff168151811062001a3e57fe5b6020026020010181815250508060d760008d8460ff168151811062001a5f57fe5b6020908102919091018101516001600160a01b03168252810191909152604001600020805460ff191660ff9290921691909117905560010162001814565b50620f4240861062001af6576040805162461bcd60e51b815260206004820152601260248201527f5f612065786365656473206d6178696d756d0000000000000000000000000000604482015290519081900360640190fd5b6305f5e100851062001b4f576040805162461bcd60e51b815260206004820152601460248201527f5f6665652065786365656473206d6178696d756d000000000000000000000000604482015290519081900360640190fd5b6402540be400841062001ba9576040805162461bcd60e51b815260206004820152601960248201527f5f61646d696e4665652065786365656473206d6178696d756d00000000000000604482015290519081900360640190fd5b6305f5e100831062001c02576040805162461bcd60e51b815260206004820152601c60248201527f5f77697468647261774665652065786365656473206d6178696d756d00000000604482015290519081900360640190fd5b8787601260405162001c149062003579565b60ff82166040820152606080825284519082015283518190602080830191608084019188019080838360005b8381101562001c5a57818101518382015260200162001c40565b50505050905090810190601f16801562001c885780820380516001836020036101000a031916815260200191505b50838103825285518152855160209182019187019080838360005b8381101562001cbd57818101518382015260200162001ca3565b50505050905090810190601f16801562001ceb5780820380516001836020036101000a031916815260200191505b5095505050505050604051809103906000f08015801562001d10573d6000803e3d6000fd5b5060d080547fffffffffffffffffffffffff0000000000000000000000000000000000000000166001600160a01b0392909216919091179055895162001d5e9060d19060208d019062003587565b50805162001d749060d290602084019062003609565b50895167ffffffffffffffff8111801562001d8e57600080fd5b5060405190808252806020026020018201604052801562001db9578160200160208202803683370190505b50805162001dd09160d39160209091019062003609565b5062001dde866064620030c1565b60c95562001dee866064620030c1565b60ca5550600060cb81905560cc5560cd84905560ce83905560cf829055801562001e1e576000805461ff00191690555b505050505050505050565b62001e3362002e4b565b6001600160a01b031662001e466200241f565b6001600160a01b03161462001ea2576040805162461bcd60e51b815260206004820181905260248201527f4f776e61626c653a2063616c6c6572206973206e6f7420746865206f776e6572604482015290519081900360640190fd5b6033546040516000916001600160a01b0316907f8be0079c531659141344cd1fd0a4f28419497f9722a3daafe3b4186f6b6457e0908390a3603380547fffffffffffffffffffffffff0000000000000000000000000000000000000000169055565b604080517ff967a81f00000000000000000000000000000000000000000000000000000000815260c960048201526001600160a01b038416602482015260448101839052905160609173149bBb210051851016F57a2824C0444f642833a69163f967a81f91606480820192600092909190829003018186803b15801562001f8a57600080fd5b505af415801562001f9f573d6000803e3d6000fd5b505050506040513d6000823e601f3d9081017fffffffffffffffffffffffffffffffffffffffffffffffffffffffffffffffe0168201604052602081101562001fe757600080fd5b81019080805160405193929190846401000000008211156200200857600080fd5b9083019060208201858111156200201e57600080fd5b82518660208202830111640100000000821117156200203c57600080fd5b82525081516020918201928201910280838360005b838110156200206b57818101518382015260200162002051565b50505050905001604052505050905092915050565b60d15460009060ff831610620020dd576040805162461bcd60e51b815260206004820152600c60248201527f4f7574206f662072616e67650000000000000000000000000000000000000000604482015290519081900360640190fd5b60d1805460ff8416908110620020ef57fe5b6000918252602090912001546001600160a01b031692915050565b6200211462002e4b565b6001600160a01b0316620021276200241f565b6001600160a01b03161462002183576040805162461bcd60e51b815260206004820181905260248201527f4f776e61626c653a2063616c6c6572206973206e6f7420746865206f776e6572604482015290519081900360640190fd5b620011f46200311f565b600060026097541415620021e8576040805162461bcd60e51b815260206004820152601f60248201527f5265656e7472616e637947756172643a207265656e7472616e742063616c6c00604482015290519081900360640190fd5b6002609755620021f76200155f565b156200224a576040805162461bcd60e51b815260206004820152601060248201527f5061757361626c653a2070617573656400000000000000000000000000000000604482015290519081900360640190fd5b8180421115620022a1576040805162461bcd60e51b815260206004820152601060248201527f446561646c696e65206e6f74206d657400000000000000000000000000000000604482015290519081900360640190fd5b60c973149bBb210051851016F57a2824C0444f642833a66341b91c2690918888886040518563ffffffff1660e01b815260040180858152602001806020018381526020018281038252858582818152602001925060200280828437600081840152601f19601f8201169050808301925050509550505050505060206040518083038186803b1580156200113457600080fd5b6200233d62002e4b565b6001600160a01b0316620023506200241f565b6001600160a01b031614620023ac576040805162461bcd60e51b815260206004820181905260248201527f4f776e61626c653a2063616c6c6572206973206e6f7420746865206f776e6572604482015290519081900360640190fd5b604080517f7046727600000000000000000000000000000000000000000000000000000000815260c9600482015260248101839052905173149bBb210051851016F57a2824C0444f642833a6916370467276916044808301926000929190829003018186803b15801562000f8157600080fd5b6033546001600160a01b031690565b60006002609754141562002489576040805162461bcd60e51b815260206004820152601f60248201527f5265656e7472616e637947756172643a207265656e7472616e742063616c6c00604482015290519081900360640190fd5b6002609755620024986200155f565b15620024eb576040805162461bcd60e51b815260206004820152601060248201527f5061757361626c653a2070617573656400000000000000000000000000000000604482015290519081900360640190fd5b818042111562002542576040805162461bcd60e51b815260206004820152601060248201527f446561646c696e65206e6f74206d657400000000000000000000000000000000604482015290519081900360640190fd5b604080517fa5397b2200000000000000000000000000000000000000000000000000000000815260c9600482015260ff808a166024830152881660448201526064810187905260848101869052905173149bBb210051851016F57a2824C0444f642833a69163a5397b229160a4808301926020929190829003018186803b158015620025cd57600080fd5b505af4158015620025e2573d6000803e3d6000fd5b505050506040513d6020811015620025f957600080fd5b50516001609755979650505050505050565b60d15460009060ff83161062002668576040805162461bcd60e51b815260206004820152601260248201527f496e646578206f7574206f662072616e67650000000000000000000000000000604482015290519081900360640190fd5b60d3805460ff84169081106200267a57fe5b90600052602060002001549050919050565b604080517fe4a9a0da00000000000000000000000000000000000000000000000000000000815260c960048201526001600160a01b03851660248201526044810184905260ff83166064820152815160009273149bBb210051851016F57a2824C0444f642833a69263e4a9a0da9260848083019392829003018186803b1580156200271657600080fd5b505af41580156200272b573d6000803e3d6000fd5b505050506040513d60408110156200274257600080fd5b5051949350505050565b604080517f4b23603c00000000000000000000000000000000000000000000000000000000815260c9600482015260ff80861660248301528416604482015260648101839052905160009173149bBb210051851016F57a2824C0444f642833a691634b23603c91608480820192602092909190829003018186803b158015620027d457600080fd5b505af4158015620027e9573d6000803e3d6000fd5b505050506040513d60208110156200274257600080fd5b6200280a62002e4b565b6001600160a01b03166200281d6200241f565b6001600160a01b03161462002879576040805162461bcd60e51b815260206004820181905260248201527f4f776e61626c653a2063616c6c6572206973206e6f7420746865206f776e6572604482015290519081900360640190fd5b604080517f8ab7697e00000000000000000000000000000000000000000000000000000000815260c9600482015260248101839052905173149bBb210051851016F57a2824C0444f642833a691638ab7697e916044808301926000929190829003018186803b15801562000f8157600080fd5b60d0546001600160a01b031633146200294c576040805162461bcd60e51b815260206004820152601b60248201527f4f6e6c792063616c6c61626c6520627920706f6f6c20746f6b656e0000000000604482015290519081900360640190fd5b604080517fe9252d4600000000000000000000000000000000000000000000000000000000815260c960048201526001600160a01b038416602482015260448101839052905173149bBb210051851016F57a2824C0444f642833a69163e9252d46916064808301926000929190829003018186803b1580156200154257600080fd5b620029d862002e4b565b6001600160a01b0316620029eb6200241f565b6001600160a01b03161462002a47576040805162461bcd60e51b815260206004820181905260248201527f4f776e61626c653a2063616c6c6572206973206e6f7420746865206f776e6572604482015290519081900360640190fd5b604080517ff14e211e00000000000000000000000000000000000000000000000000000000815260c96004820152905173149bBb210051851016F57a2824C0444f642833a69163f14e211e916024808301926000929190829003018186803b15801562000bab57600080fd5b600060c973149bBb210051851016F57a2824C0444f642833a663b0a14cfc90916040518263ffffffff1660e01b81526004018082815260200191505060206040518083038186803b15801562000c1b57600080fd5b604080517fe8c47a5400000000000000000000000000000000000000000000000000000000815260c960048201526001600160a01b0383166024820152905160009173149bBb210051851016F57a2824C0444f642833a69163e8c47a5491604480820192602092909190829003018186803b1580156200127557600080fd5b600060c973149bBb210051851016F57a2824C0444f642833a66371906c2c90916040518263ffffffff1660e01b81526004018082815260200191505060206040518083038186803b15801562000c1b57600080fd5b600060c973149bBb210051851016F57a2824C0444f642833a6637d0481609091846040518363ffffffff1660e01b8152600401808381526020018281526020019250505060206040518083038186803b1580156200127557600080fd5b62002c4362002e4b565b6001600160a01b031662002c566200241f565b6001600160a01b03161462002cb2576040805162461bcd60e51b815260206004820181905260248201527f4f776e61626c653a2063616c6c6572206973206e6f7420746865206f776e6572604482015290519081900360640190fd5b6001600160a01b03811662002cf95760405162461bcd60e51b815260040180806020018281038252602681526020018062004e526026913960400191505060405180910390fd5b6033546040516001600160a01b038084169216907f8be0079c531659141344cd1fd0a4f28419497f9722a3daafe3b4186f6b6457e090600090a3603380547fffffffffffffffffffffffff0000000000000000000000000000000000000000166001600160a01b0392909216919091179055565b600060c973149bBb210051851016F57a2824C0444f642833a6635e58579c9091878787876040518663ffffffff1660e01b815260040180868152602001856001600160a01b031681526020018060200183151581526020018281038252858582818152602001925060200280828437600081840152601f19601f820116905080830192505050965050505050505060206040518083038186803b15801562002e1457600080fd5b505af415801562002e29573d6000803e3d6000fd5b505050506040513d602081101562002e4057600080fd5b505195945050505050565b3390565b62002e596200155f565b62002eab576040805162461bcd60e51b815260206004820152601460248201527f5061757361626c653a206e6f7420706175736564000000000000000000000000604482015290519081900360640190fd5b6065805460ff191690557f5db9ee0a495bf2e6ff9c91a7834c1ba4fdd244a5e8aa4e537bd38aeae4b073aa62002ee062002e4b565b604080516001600160a01b039092168252519081900360200190a1565b600062002f0a30620031b4565b15905090565b600054610100900460ff168062002f2c575062002f2c62002efd565b8062002f3b575060005460ff16155b62002f785760405162461bcd60e51b815260040180806020018281038252602e81526020018062004e78602e913960400191505060405180910390fd5b600054610100900460ff1615801562002fa4576000805460ff1961ff0019909116610100171660011790555b62002fae620031ba565b62002fb862003262565b62002fc26200337d565b801562002fd5576000805461ff00191690555b50565b600054610100900460ff168062002ff4575062002ff462002efd565b8062003003575060005460ff16155b620030405760405162461bcd60e51b815260040180806020018281038252602e81526020018062004e78602e913960400191505060405180910390fd5b600054610100900460ff161580156200306c576000805460ff1961ff0019909116610100171660011790555b62002fc262003430565b6000620030ba83836040518060400160405280601e81526020017f536166654d6174683a207375627472616374696f6e206f766572666c6f770000815250620034de565b9392505050565b600082620030d25750600062001614565b82820282848281620030e057fe5b0414620030ba5760405162461bcd60e51b815260040180806020018281038252602181526020018062004ea66021913960400191505060405180910390fd5b620031296200155f565b156200317c576040805162461bcd60e51b815260206004820152601060248201527f5061757361626c653a2070617573656400000000000000000000000000000000604482015290519081900360640190fd5b6065805460ff191660011790557f62e78cea01bee320cd4e420270b5ea74000d11b0c9f74754ebdbfc544b05a25862002ee062002e4b565b3b151590565b600054610100900460ff1680620031d65750620031d662002efd565b80620031e5575060005460ff16155b620032225760405162461bcd60e51b815260040180806020018281038252602e81526020018062004e78602e913960400191505060405180910390fd5b600054610100900460ff1615801562002fc2576000805460ff1961ff001990911661010017166001179055801562002fd5576000805461ff001916905550565b600054610100900460ff16806200327e57506200327e62002efd565b806200328d575060005460ff16155b620032ca5760405162461bcd60e51b815260040180806020018281038252602e81526020018062004e78602e913960400191505060405180910390fd5b600054610100900460ff16158015620032f6576000805460ff1961ff0019909116610100171660011790555b60006200330262002e4b565b603380547fffffffffffffffffffffffff0000000000000000000000000000000000000000166001600160a01b038316908117909155604051919250906000907f8be0079c531659141344cd1fd0a4f28419497f9722a3daafe3b4186f6b6457e0908290a350801562002fd5576000805461ff001916905550565b600054610100900460ff16806200339957506200339962002efd565b80620033a8575060005460ff16155b620033e55760405162461bcd60e51b815260040180806020018281038252602e81526020018062004e78602e913960400191505060405180910390fd5b600054610100900460ff1615801562003411576000805460ff1961ff0019909116610100171660011790555b6065805460ff19169055801562002fd5576000805461ff001916905550565b600054610100900460ff16806200344c57506200344c62002efd565b806200345b575060005460ff16155b620034985760405162461bcd60e51b815260040180806020018281038252602e81526020018062004e78602e913960400191505060405180910390fd5b600054610100900460ff16158015620034c4576000805460ff1961ff0019909116610100171660011790555b6001609755801562002fd5576000805461ff001916905550565b60008184841115620035715760405162461bcd60e51b81526004018080602001828103825283818151815260200191508051906020019080838360005b83811015620035355781810151838201526020016200351b565b50505050905090810190601f168015620035635780820380516001836020036101000a031916815260200191505b509250505060405180910390fd5b505050900390565b6117ac80620036a683390190565b828054828255906000526020600020908101928215620035f7579160200282015b82811115620035f757825182547fffffffffffffffffffffffff0000000000000000000000000000000000000000166001600160a01b03909116178255602090920191600190910190620035a8565b506200360592915062003655565b5090565b82805482825590600052602060002090810192821562003647579160200282015b82811115620036475782518255916020019190600101906200362a565b50620036059291506200368e565b5b80821115620036055780547fffffffffffffffffffffffff000000000000000000000000000000000000000016815560010162003656565b5b808211156200360557600081556001016200368f56fe60806040523480156200001157600080fd5b50604051620017ac380380620017ac833981810160405260608110156200003757600080fd5b81019080805160405193929190846401000000008211156200005857600080fd5b9083019060208201858111156200006e57600080fd5b82516401000000008111828201881017156200008957600080fd5b82525081516020918201929091019080838360005b83811015620000b85781810151838201526020016200009e565b50505050905090810190601f168015620000e65780820380516001836020036101000a031916815260200191505b50604052602001805160405193929190846401000000008211156200010a57600080fd5b9083019060208201858111156200012057600080fd5b82516401000000008111828201881017156200013b57600080fd5b82525081516020918201929091019080838360005b838110156200016a57818101518382015260200162000150565b50505050905090810190601f168015620001985780820380516001836020036101000a031916815260200191505b5060405260209081015185519093508592508491620001bd916003918501906200029e565b508051620001d39060049060208401906200029e565b50506005805460ff19166012179055506000620001ef62000284565b60058054610100600160a81b0319166101006001600160a01b03841690810291909117909155604051919250906000907f8be0079c531659141344cd1fd0a4f28419497f9722a3daafe3b4186f6b6457e0908290a350620002508162000288565b6200025a62000284565b600680546001600160a01b0319166001600160a01b0392909216919091179055506200033a915050565b3390565b6005805460ff191660ff92909216919091179055565b828054600181600116156101000203166002900490600052602060002090601f016020900481019282601f10620002e157805160ff191683800117855562000311565b8280016001018555821562000311579182015b8281111562000311578251825591602001919060010190620002f4565b506200031f92915062000323565b5090565b5b808211156200031f576000815560010162000324565b611462806200034a6000396000f3fe608060405234801561001057600080fd5b50600436106101365760003560e01c8063715018a6116100b257806395d89b4111610081578063a9059cbb11610066578063a9059cbb146103ff578063dd62ed3e14610438578063f2fde38b1461047357610136565b806395d89b41146103be578063a457c2d7146103c657610136565b8063715018a61461034457806379cc67901461034c5780638119c065146103855780638da5cb5b146103b657610136565b8063313ce5671161010957806340c10f19116100ee57806340c10f19146102b957806342966c68146102f457806370a082311461031157610136565b8063313ce56714610262578063395093511461028057610136565b806306fdde031461013b578063095ea7b3146101b857806318160ddd1461020557806323b872dd1461021f575b600080fd5b6101436104a6565b6040805160208082528351818301528351919283929083019185019080838360005b8381101561017d578181015183820152602001610165565b50505050905090810190601f1680156101aa5780820380516001836020036101000a031916815260200191505b509250505060405180910390f35b6101f1600480360360408110156101ce57600080fd5b5073ffffffffffffffffffffffffffffffffffffffff813516906020013561055a565b604080519115158252519081900360200190f35b61020d610577565b60408051918252519081900360200190f35b6101f16004803603606081101561023557600080fd5b5073ffffffffffffffffffffffffffffffffffffffff81358116916020810135909116906040013561057d565b61026a61061e565b6040805160ff9092168252519081900360200190f35b6101f16004803603604081101561029657600080fd5b5073ffffffffffffffffffffffffffffffffffffffff8135169060200135610627565b6102f2600480360360408110156102cf57600080fd5b5073ffffffffffffffffffffffffffffffffffffffff8135169060200135610682565b005b6102f26004803603602081101561030a57600080fd5b503561075e565b61020d6004803603602081101561032757600080fd5b503573ffffffffffffffffffffffffffffffffffffffff16610772565b6102f261079a565b6102f26004803603604081101561036257600080fd5b5073ffffffffffffffffffffffffffffffffffffffff813516906020013561088a565b61038d6108e4565b6040805173ffffffffffffffffffffffffffffffffffffffff9092168252519081900360200190f35b61038d610900565b610143610921565b6101f1600480360360408110156103dc57600080fd5b5073ffffffffffffffffffffffffffffffffffffffff81351690602001356109a0565b6101f16004803603604081101561041557600080fd5b5073ffffffffffffffffffffffffffffffffffffffff8135169060200135610a15565b61020d6004803603604081101561044e57600080fd5b5073ffffffffffffffffffffffffffffffffffffffff81358116916020013516610a29565b6102f26004803603602081101561048957600080fd5b503573ffffffffffffffffffffffffffffffffffffffff16610a61565b60038054604080516020601f60027fffffffffffffffffffffffffffffffffffffffffffffffffffffffffffffffff6101006001881615020190951694909404938401819004810282018101909252828152606093909290918301828280156105505780601f1061052557610100808354040283529160200191610550565b820191906000526020600020905b81548152906001019060200180831161053357829003601f168201915b5050505050905090565b600061056e610567610bc7565b8484610bcb565b50600192915050565b60025490565b600061058a848484610cde565b61061484610596610bc7565b61060f856040518060600160405280602881526020016113526028913973ffffffffffffffffffffffffffffffffffffffff8a166000908152600160205260408120906105e1610bc7565b73ffffffffffffffffffffffffffffffffffffffff1681526020810191909152604001600020549190610e7a565b610bcb565b5060019392505050565b60055460ff1690565b600061056e610634610bc7565b8461060f8560016000610645610bc7565b73ffffffffffffffffffffffffffffffffffffffff908116825260208083019390935260409182016000908120918c168152925290205490610f11565b61068a610bc7565b600554610100900473ffffffffffffffffffffffffffffffffffffffff9081169116146106fe576040805162461bcd60e51b815260206004820181905260248201527f4f776e61626c653a2063616c6c6572206973206e6f7420746865206f776e6572604482015290519081900360640190fd5b80610750576040805162461bcd60e51b815260206004820152600b60248201527f616d6f756e74203d3d2030000000000000000000000000000000000000000000604482015290519081900360640190fd5b61075a8282610f72565b5050565b61076f610769610bc7565b82611089565b50565b73ffffffffffffffffffffffffffffffffffffffff1660009081526020819052604090205490565b6107a2610bc7565b600554610100900473ffffffffffffffffffffffffffffffffffffffff908116911614610816576040805162461bcd60e51b815260206004820181905260248201527f4f776e61626c653a2063616c6c6572206973206e6f7420746865206f776e6572604482015290519081900360640190fd5b600554604051600091610100900473ffffffffffffffffffffffffffffffffffffffff16907f8be0079c531659141344cd1fd0a4f28419497f9722a3daafe3b4186f6b6457e0908390a3600580547fffffffffffffffffffffff0000000000000000000000000000000000000000ff169055565b60006108c18260405180606001604052806024815260200161137a602491396108ba866108b5610bc7565b610a29565b9190610e7a565b90506108d5836108cf610bc7565b83610bcb565b6108df8383611089565b505050565b60065473ffffffffffffffffffffffffffffffffffffffff1681565b600554610100900473ffffffffffffffffffffffffffffffffffffffff1690565b60048054604080516020601f60027fffffffffffffffffffffffffffffffffffffffffffffffffffffffffffffffff6101006001881615020190951694909404938401819004810282018101909252828152606093909290918301828280156105505780601f1061052557610100808354040283529160200191610550565b600061056e6109ad610bc7565b8461060f8560405180606001604052806025815260200161140860259139600160006109d7610bc7565b73ffffffffffffffffffffffffffffffffffffffff908116825260208083019390935260409182016000908120918d16815292529020549190610e7a565b600061056e610a22610bc7565b8484610cde565b73ffffffffffffffffffffffffffffffffffffffff918216600090815260016020908152604080832093909416825291909152205490565b610a69610bc7565b600554610100900473ffffffffffffffffffffffffffffffffffffffff908116911614610add576040805162461bcd60e51b815260206004820181905260248201527f4f776e61626c653a2063616c6c6572206973206e6f7420746865206f776e6572604482015290519081900360640190fd5b73ffffffffffffffffffffffffffffffffffffffff8116610b2f5760405162461bcd60e51b81526004018080602001828103825260268152602001806112e46026913960400191505060405180910390fd5b60055460405173ffffffffffffffffffffffffffffffffffffffff80841692610100900416907f8be0079c531659141344cd1fd0a4f28419497f9722a3daafe3b4186f6b6457e090600090a36005805473ffffffffffffffffffffffffffffffffffffffff909216610100027fffffffffffffffffffffff0000000000000000000000000000000000000000ff909216919091179055565b3390565b73ffffffffffffffffffffffffffffffffffffffff8316610c1d5760405162461bcd60e51b81526004018080602001828103825260248152602001806113e46024913960400191505060405180910390fd5b73ffffffffffffffffffffffffffffffffffffffff8216610c6f5760405162461bcd60e51b815260040180806020018281038252602281526020018061130a6022913960400191505060405180910390fd5b73ffffffffffffffffffffffffffffffffffffffff808416600081815260016020908152604080832094871680845294825291829020859055815185815291517f8c5be1e5ebec7d5bd14f71427d1e84f3dd0314c0f7b2291e5b200ac8c7c3b9259281900390910190a3505050565b73ffffffffffffffffffffffffffffffffffffffff8316610d305760405162461bcd60e51b81526004018080602001828103825260258152602001806113bf6025913960400191505060405180910390fd5b73ffffffffffffffffffffffffffffffffffffffff8216610d825760405162461bcd60e51b815260040180806020018281038252602381526020018061129f6023913960400191505060405180910390fd5b610d8d8383836111b9565b610dd78160405180606001604052806026815260200161132c6026913973ffffffffffffffffffffffffffffffffffffffff86166000908152602081905260409020549190610e7a565b73ffffffffffffffffffffffffffffffffffffffff8085166000908152602081905260408082209390935590841681522054610e139082610f11565b73ffffffffffffffffffffffffffffffffffffffff8084166000818152602081815260409182902094909455805185815290519193928716927fddf252ad1be2c89b69c2b068fc378daa952ba7f163c4a11628f55a4df523b3ef92918290030190a3505050565b60008184841115610f095760405162461bcd60e51b81526004018080602001828103825283818151815260200191508051906020019080838360005b83811015610ece578181015183820152602001610eb6565b50505050905090810190601f168015610efb5780820380516001836020036101000a031916815260200191505b509250505060405180910390fd5b505050900390565b600082820183811015610f6b576040805162461bcd60e51b815260206004820152601b60248201527f536166654d6174683a206164646974696f6e206f766572666c6f770000000000604482015290519081900360640190fd5b9392505050565b73ffffffffffffffffffffffffffffffffffffffff8216610fda576040805162461bcd60e51b815260206004820152601f60248201527f45524332303a206d696e7420746f20746865207a65726f206164647265737300604482015290519081900360640190fd5b610fe6600083836111b9565b600254610ff39082610f11565b60025573ffffffffffffffffffffffffffffffffffffffff82166000908152602081905260409020546110269082610f11565b73ffffffffffffffffffffffffffffffffffffffff83166000818152602081815260408083209490945583518581529351929391927fddf252ad1be2c89b69c2b068fc378daa952ba7f163c4a11628f55a4df523b3ef9281900390910190a35050565b73ffffffffffffffffffffffffffffffffffffffff82166110db5760405162461bcd60e51b815260040180806020018281038252602181526020018061139e6021913960400191505060405180910390fd5b6110e7826000836111b9565b611131816040518060600160405280602281526020016112c26022913973ffffffffffffffffffffffffffffffffffffffff85166000908152602081905260409020549190610e7a565b73ffffffffffffffffffffffffffffffffffffffff8316600090815260208190526040902055600254611164908261125c565b60025560408051828152905160009173ffffffffffffffffffffffffffffffffffffffff8516917fddf252ad1be2c89b69c2b068fc378daa952ba7f163c4a11628f55a4df523b3ef9181900360200190a35050565b6111c48383836108df565b600654604080517fc00c125c00000000000000000000000000000000000000000000000000000000815273ffffffffffffffffffffffffffffffffffffffff8581166004830152602482018590529151919092169163c00c125c91604480830192600092919082900301818387803b15801561123f57600080fd5b505af1158015611253573d6000803e3d6000fd5b50505050505050565b6000610f6b83836040518060400160405280601e81526020017f536166654d6174683a207375627472616374696f6e206f766572666c6f770000815250610e7a56fe45524332303a207472616e7366657220746f20746865207a65726f206164647265737345524332303a206275726e20616d6f756e7420657863656564732062616c616e63654f776e61626c653a206e6577206f776e657220697320746865207a65726f206164647265737345524332303a20617070726f766520746f20746865207a65726f206164647265737345524332303a207472616e7366657220616d6f756e7420657863656564732062616c616e636545524332303a207472616e7366657220616d6f756e74206578636565647320616c6c6f77616e636545524332303a206275726e20616d6f756e74206578636565647320616c6c6f77616e636545524332303a206275726e2066726f6d20746865207a65726f206164647265737345524332303a207472616e736665722066726f6d20746865207a65726f206164647265737345524332303a20617070726f76652066726f6d20746865207a65726f206164647265737345524332303a2064656372656173656420616c6c6f77616e63652062656c6f77207a65726fa26469706673582212205aaa8153fc7210c26cd758336d0da594d015a66062545e65d4db024af33f533a64736f6c634300060c00334f776e61626c653a206e6577206f776e657220697320746865207a65726f2061646472657373496e697469616c697a61626c653a20636f6e747261637420697320616c726561647920696e697469616c697a6564536166654d6174683a206d756c7469706c69636174696f6e206f766572666c6f77a26469706673582212209b72c813e528edbcaa7de0890cede2eeca09a18aef1cef1683ec04515cfedd0264736f6c634300060c0033",
  "deployedBytecode": "0x60806040523480156200001157600080fd5b50600436106200023e5760003560e01c80638456cb591162000147578063ac5bf26311620000cf578063da7a77be1162000099578063ef0a712f116200007b578063ef0a712f14620009f6578063f2fde38b1462000a16578063f9273ffb1462000a3f576200023e565b8063da7a77be14620009c3578063e25aa5fa14620009ec576200023e565b8063ac5bf2631462000960578063c00c125c1462000980578063c4db7fa014620009af578063d46300fd14620009b9576200023e565b806391695586116200011157806391695586146200089357806391ceb3eb14620008d257806398899f4014620008f5578063a95b089f146200092d576200023e565b80638456cb5914620007e357806384cdd9bc14620007ed5780638beb60b614620008695780638da5cb5b1462000889576200023e565b8063593d132c11620001cb5780636dd4480b11620001955780636dd4480b1462000515578063715018a6146200076b5780637c61e561146200077557806382b8660014620007a4576200023e565b8063593d132c146200043e5780635c975abb14620004645780635fd65f0f146200048257806366c0bd2414620004d6576200023e565b80633e3a1560116200020d5780633e3a1560146200035a5780633f4ba83a146200038f5780634a1b0d5714620003995780634d49e87d14620003c2576200023e565b80630419b45a14620002435780630ba81959146200024f57806331cd52b0146200026b57806334e19907146200033a575b600080fd5b6200024d62000ac7565b005b6200025962000bc6565b60408051918252519081900360200190f35b620002e8600480360360608110156200028357600080fd5b81359190810190604081016020820135640100000000811115620002a657600080fd5b820183602082011115620002b957600080fd5b80359060200191846020830284011164010000000083111715620002dc57600080fd5b91935091503562000c4e565b60408051602080825283518183015283519192839290830191858101910280838360005b83811015620003265781810151838201526020016200030c565b505050509050019250505060405180910390f35b6200024d600480360360208110156200035257600080fd5b503562000e95565b62000259600480360360808110156200037257600080fd5b5080359060ff602082013516906040810135906060013562000f9d565b6200024d62001171565b6200025960048036036020811015620003b157600080fd5b50356001600160a01b0316620011f6565b6200025960048036036060811015620003da57600080fd5b810190602081018135640100000000811115620003f657600080fd5b8201836020820111156200040957600080fd5b803590602001918460208302840111640100000000831117156200042c57600080fd5b919350915080359060200135620012a9565b6200024d600480360360408110156200045657600080fd5b50803590602001356200144f565b6200046e6200155f565b604080519115158252519081900360200190f35b6200048c62001568565b604080519889526020890197909752878701959095526060870193909352608086019190915260a085015260c08401526001600160a01b031660e083015251908190036101000190f35b620004ff60048036036020811015620004ee57600080fd5b50356001600160a01b03166200158c565b6040805160ff9092168252519081900360200190f35b6200024d60048036036101008110156200052e57600080fd5b8101906020810181356401000000008111156200054a57600080fd5b8201836020820111156200055d57600080fd5b803590602001918460208302840111640100000000831117156200058057600080fd5b9190808060200260200160405190810160405280939291908181526020018383602002808284376000920191909152509295949360208101935035915050640100000000811115620005d157600080fd5b820183602082011115620005e457600080fd5b803590602001918460208302840111640100000000831117156200060757600080fd5b91908080602002602001604051908101604052809392919081815260200183836020028082843760009201919091525092959493602081019350359150506401000000008111156200065857600080fd5b8201836020820111156200066b57600080fd5b803590602001918460018302840111640100000000831117156200068e57600080fd5b91908080601f0160208091040260200160405190810160405280939291908181526020018383808284376000920191909152509295949360208101935035915050640100000000811115620006e257600080fd5b820183602082011115620006f557600080fd5b803590602001918460018302840111640100000000831117156200071857600080fd5b91908080601f01602080910402602001604051908101604052809392919081815260200183838082843760009201919091525092955050823593505050602081013590604081013590606001356200161a565b6200024d62001e29565b620002e8600480360360408110156200078d57600080fd5b506001600160a01b03813516906020013562001f04565b620007c760048036036020811015620007bc57600080fd5b503560ff1662002080565b604080516001600160a01b039092168252519081900360200190f35b6200024d6200210a565b62000259600480360360608110156200080557600080fd5b8101906020810181356401000000008111156200082157600080fd5b8201836020820111156200083457600080fd5b803590602001918460208302840111640100000000831117156200085757600080fd5b9193509150803590602001356200218d565b6200024d600480360360208110156200088157600080fd5b503562002333565b620007c76200241f565b62000259600480360360a0811015620008ab57600080fd5b5060ff8135811691602081013590911690604081013590606081013590608001356200242e565b6200025960048036036020811015620008ea57600080fd5b503560ff166200260b565b62000259600480360360608110156200090d57600080fd5b5080356001600160a01b0316906020810135906040013560ff166200268c565b62000259600480360360608110156200094557600080fd5b5060ff8135811691602081013590911690604001356200274c565b6200024d600480360360208110156200097857600080fd5b503562002800565b6200024d600480360360408110156200099857600080fd5b506001600160a01b038135169060200135620028ec565b6200024d620029ce565b6200025962002ab3565b6200025960048036036020811015620009db57600080fd5b50356001600160a01b031662002b08565b6200025962002b87565b620002596004803603602081101562000a0e57600080fd5b503562002bdc565b6200024d6004803603602081101562000a2e57600080fd5b50356001600160a01b031662002c39565b620002596004803603606081101562000a5757600080fd5b6001600160a01b03823516919081019060408101602082013564010000000081111562000a8357600080fd5b82018360208201111562000a9657600080fd5b8035906020019184602083028401116401000000008311171562000ab957600080fd5b919350915035151562002d6d565b62000ad162002e4b565b6001600160a01b031662000ae46200241f565b6001600160a01b03161462000b40576040805162461bcd60e51b815260206004820181905260248201527f4f776e61626c653a2063616c6c6572206973206e6f7420746865206f776e6572604482015290519081900360640190fd5b73__$a4e4384d4f8ec13c7a898ae597a4175ef6$__6324c5c75160c962000b666200241f565b6040518363ffffffff1660e01b815260040180838152602001826001600160a01b031681526020019250505060006040518083038186803b15801562000bab57600080fd5b505af415801562000bc0573d6000803e3d6000fd5b50505050565b600060c973__$a4e4384d4f8ec13c7a898ae597a4175ef6$__63c9b64dcb90916040518263ffffffff1660e01b81526004018082815260200191505060206040518083038186803b15801562000c1b57600080fd5b505af415801562000c30573d6000803e3d6000fd5b505050506040513d602081101562000c4757600080fd5b5051905090565b60606002609754141562000ca9576040805162461bcd60e51b815260206004820152601f60248201527f5265656e7472616e637947756172643a207265656e7472616e742063616c6c00604482015290519081900360640190fd5b6002609755814281101562000d05576040805162461bcd60e51b815260206004820152601060248201527f446561646c696e65206e6f74206d657400000000000000000000000000000000604482015290519081900360640190fd5b60c973__$a4e4384d4f8ec13c7a898ae597a4175ef6$__6373fd6b3e90918888886040518563ffffffff1660e01b815260040180858152602001848152602001806020018281038252848482818152602001925060200280828437600081840152601f19601f8201169050808301925050509550505050505060006040518083038186803b15801562000d9757600080fd5b505af415801562000dac573d6000803e3d6000fd5b505050506040513d6000823e601f3d9081017fffffffffffffffffffffffffffffffffffffffffffffffffffffffffffffffe0168201604052602081101562000df457600080fd5b810190808051604051939291908464010000000082111562000e1557600080fd5b90830190602082018581111562000e2b57600080fd5b825186602082028301116401000000008211171562000e4957600080fd5b82525081516020918201928201910280838360005b8381101562000e7857818101518382015260200162000e5e565b505050509050016040525050509150506001609755949350505050565b62000e9f62002e4b565b6001600160a01b031662000eb26200241f565b6001600160a01b03161462000f0e576040805162461bcd60e51b815260206004820181905260248201527f4f776e61626c653a2063616c6c6572206973206e6f7420746865206f776e6572604482015290519081900360640190fd5b604080517f467e186c00000000000000000000000000000000000000000000000000000000815260c9600482015260248101839052905173__$a4e4384d4f8ec13c7a898ae597a4175ef6$__9163467e186c916044808301926000929190829003018186803b15801562000f8157600080fd5b505af415801562000f96573d6000803e3d6000fd5b5050505050565b60006002609754141562000ff8576040805162461bcd60e51b815260206004820152601f60248201527f5265656e7472616e637947756172643a207265656e7472616e742063616c6c00604482015290519081900360640190fd5b6002609755620010076200155f565b156200105a576040805162461bcd60e51b815260206004820152601060248201527f5061757361626c653a2070617573656400000000000000000000000000000000604482015290519081900360640190fd5b8180421115620010b1576040805162461bcd60e51b815260206004820152601060248201527f446561646c696e65206e6f74206d657400000000000000000000000000000000604482015290519081900360640190fd5b604080517fe7a4db8100000000000000000000000000000000000000000000000000000000815260c960048201526024810188905260ff8716604482015260648101869052905173__$a4e4384d4f8ec13c7a898ae597a4175ef6$__9163e7a4db81916084808301926020929190829003018186803b1580156200113457600080fd5b505af415801562001149573d6000803e3d6000fd5b505050506040513d60208110156200116057600080fd5b505160016097559695505050505050565b6200117b62002e4b565b6001600160a01b03166200118e6200241f565b6001600160a01b031614620011ea576040805162461bcd60e51b815260206004820181905260248201527f4f776e61626c653a2063616c6c6572206973206e6f7420746865206f776e6572604482015290519081900360640190fd5b620011f462002e4f565b565b604080517f968e559400000000000000000000000000000000000000000000000000000000815260c960048201526001600160a01b0383166024820152905160009173__$a4e4384d4f8ec13c7a898ae597a4175ef6$__9163968e559491604480820192602092909190829003018186803b1580156200127557600080fd5b505af41580156200128a573d6000803e3d6000fd5b505050506040513d6020811015620012a157600080fd5b505192915050565b60006002609754141562001304576040805162461bcd60e51b815260206004820152601f60248201527f5265656e7472616e637947756172643a207265656e7472616e742063616c6c00604482015290519081900360640190fd5b6002609755620013136200155f565b1562001366576040805162461bcd60e51b815260206004820152601060248201527f5061757361626c653a2070617573656400000000000000000000000000000000604482015290519081900360640190fd5b8180421115620013bd576040805162461bcd60e51b815260206004820152601060248201527f446561646c696e65206e6f74206d657400000000000000000000000000000000604482015290519081900360640190fd5b60c973__$a4e4384d4f8ec13c7a898ae597a4175ef6$__6340370edf90918888886040518563ffffffff1660e01b815260040180858152602001806020018381526020018281038252858582818152602001925060200280828437600081840152601f19601f8201169050808301925050509550505050505060206040518083038186803b1580156200113457600080fd5b6200145962002e4b565b6001600160a01b03166200146c6200241f565b6001600160a01b031614620014c8576040805162461bcd60e51b815260206004820181905260248201527f4f776e61626c653a2063616c6c6572206973206e6f7420746865206f776e6572604482015290519081900360640190fd5b604080517f58fdd79b00000000000000000000000000000000000000000000000000000000815260c960048201526024810184905260448101839052905173__$a4e4384d4f8ec13c7a898ae597a4175ef6$__916358fdd79b916064808301926000929190829003018186803b1580156200154257600080fd5b505af415801562001557573d6000803e3d6000fd5b505050505050565b60655460ff1690565b60c95460ca5460cb5460cc5460cd5460ce5460cf5460d0546001600160a01b031688565b6001600160a01b038116600081815260d76020526040812054909160ff90911690620015b88262002080565b6001600160a01b03161462001614576040805162461bcd60e51b815260206004820152601460248201527f546f6b656e20646f6573206e6f74206578697374000000000000000000000000604482015290519081900360640190fd5b92915050565b600054610100900460ff16806200163657506200163662002efd565b8062001645575060005460ff16155b620016825760405162461bcd60e51b815260040180806020018281038252602e81526020018062004e78602e913960400191505060405180910390fd5b600054610100900460ff16158015620016ae576000805460ff1961ff0019909116610100171660011790555b620016b862002f10565b620016c262002fd8565b600189511162001719576040805162461bcd60e51b815260206004820152601960248201527f5f706f6f6c6564546f6b656e732e6c656e677468203c3d203100000000000000604482015290519081900360640190fd5b60208951111562001771576040805162461bcd60e51b815260206004820152601960248201527f5f706f6f6c6564546f6b656e732e6c656e677468203e20333200000000000000604482015290519081900360640190fd5b8751895114620017c8576040805162461bcd60e51b815260206004820152601f60248201527f5f706f6f6c6564546f6b656e7320646563696d616c73206d69736d6174636800604482015290519081900360640190fd5b6060885167ffffffffffffffff81118015620017e357600080fd5b506040519080825280602002602001820160405280156200180e578160200160208202803683370190505b50905060005b8a518160ff16101562001a9d5760ff811615620019045760d760008c8360ff16815181106200183f57fe5b6020908102919091018101516001600160a01b031682528101919091526040016000205460ff16158015620018b257508a8160ff16815181106200187f57fe5b60200260200101516001600160a01b03168b6000815181106200189e57fe5b60200260200101516001600160a01b031614155b62001904576040805162461bcd60e51b815260206004820152601060248201527f4475706c696361746520746f6b656e7300000000000000000000000000000000604482015290519081900360640190fd5b60006001600160a01b03168b8260ff16815181106200191f57fe5b60200260200101516001600160a01b0316141562001984576040805162461bcd60e51b815260206004820152601d60248201527f546865203020616464726573732069736e277420616e204552432d3230000000604482015290519081900360640190fd5b601260ff168a8260ff16815181106200199957fe5b602002602001015160ff161115620019f8576040805162461bcd60e51b815260206004820152601a60248201527f546f6b656e20646563696d616c732065786365656473206d6178000000000000604482015290519081900360640190fd5b62001a2b8a8260ff168151811062001a0c57fe5b602002602001015160ff16601260ff166200307690919063ffffffff16565b600a0a828260ff168151811062001a3e57fe5b6020026020010181815250508060d760008d8460ff168151811062001a5f57fe5b6020908102919091018101516001600160a01b03168252810191909152604001600020805460ff191660ff9290921691909117905560010162001814565b50620f4240861062001af6576040805162461bcd60e51b815260206004820152601260248201527f5f612065786365656473206d6178696d756d0000000000000000000000000000604482015290519081900360640190fd5b6305f5e100851062001b4f576040805162461bcd60e51b815260206004820152601460248201527f5f6665652065786365656473206d6178696d756d000000000000000000000000604482015290519081900360640190fd5b6402540be400841062001ba9576040805162461bcd60e51b815260206004820152601960248201527f5f61646d696e4665652065786365656473206d6178696d756d00000000000000604482015290519081900360640190fd5b6305f5e100831062001c02576040805162461bcd60e51b815260206004820152601c60248201527f5f77697468647261774665652065786365656473206d6178696d756d00000000604482015290519081900360640190fd5b8787601260405162001c149062003579565b60ff82166040820152606080825284519082015283518190602080830191608084019188019080838360005b8381101562001c5a57818101518382015260200162001c40565b50505050905090810190601f16801562001c885780820380516001836020036101000a031916815260200191505b50838103825285518152855160209182019187019080838360005b8381101562001cbd57818101518382015260200162001ca3565b50505050905090810190601f16801562001ceb5780820380516001836020036101000a031916815260200191505b5095505050505050604051809103906000f08015801562001d10573d6000803e3d6000fd5b5060d080547fffffffffffffffffffffffff0000000000000000000000000000000000000000166001600160a01b0392909216919091179055895162001d5e9060d19060208d019062003587565b50805162001d749060d290602084019062003609565b50895167ffffffffffffffff8111801562001d8e57600080fd5b5060405190808252806020026020018201604052801562001db9578160200160208202803683370190505b50805162001dd09160d39160209091019062003609565b5062001dde866064620030c1565b60c95562001dee866064620030c1565b60ca5550600060cb81905560cc5560cd84905560ce83905560cf829055801562001e1e576000805461ff00191690555b505050505050505050565b62001e3362002e4b565b6001600160a01b031662001e466200241f565b6001600160a01b03161462001ea2576040805162461bcd60e51b815260206004820181905260248201527f4f776e61626c653a2063616c6c6572206973206e6f7420746865206f776e6572604482015290519081900360640190fd5b6033546040516000916001600160a01b0316907f8be0079c531659141344cd1fd0a4f28419497f9722a3daafe3b4186f6b6457e0908390a3603380547fffffffffffffffffffffffff0000000000000000000000000000000000000000169055565b604080517ff967a81f00000000000000000000000000000000000000000000000000000000815260c960048201526001600160a01b038416602482015260448101839052905160609173__$a4e4384d4f8ec13c7a898ae597a4175ef6$__9163f967a81f91606480820192600092909190829003018186803b15801562001f8a57600080fd5b505af415801562001f9f573d6000803e3d6000fd5b505050506040513d6000823e601f3d9081017fffffffffffffffffffffffffffffffffffffffffffffffffffffffffffffffe0168201604052602081101562001fe757600080fd5b81019080805160405193929190846401000000008211156200200857600080fd5b9083019060208201858111156200201e57600080fd5b82518660208202830111640100000000821117156200203c57600080fd5b82525081516020918201928201910280838360005b838110156200206b57818101518382015260200162002051565b50505050905001604052505050905092915050565b60d15460009060ff831610620020dd576040805162461bcd60e51b815260206004820152600c60248201527f4f7574206f662072616e67650000000000000000000000000000000000000000604482015290519081900360640190fd5b60d1805460ff8416908110620020ef57fe5b6000918252602090912001546001600160a01b031692915050565b6200211462002e4b565b6001600160a01b0316620021276200241f565b6001600160a01b03161462002183576040805162461bcd60e51b815260206004820181905260248201527f4f776e61626c653a2063616c6c6572206973206e6f7420746865206f776e6572604482015290519081900360640190fd5b620011f46200311f565b600060026097541415620021e8576040805162461bcd60e51b815260206004820152601f60248201527f5265656e7472616e637947756172643a207265656e7472616e742063616c6c00604482015290519081900360640190fd5b6002609755620021f76200155f565b156200224a576040805162461bcd60e51b815260206004820152601060248201527f5061757361626c653a2070617573656400000000000000000000000000000000604482015290519081900360640190fd5b8180421115620022a1576040805162461bcd60e51b815260206004820152601060248201527f446561646c696e65206e6f74206d657400000000000000000000000000000000604482015290519081900360640190fd5b60c973__$a4e4384d4f8ec13c7a898ae597a4175ef6$__6341b91c2690918888886040518563ffffffff1660e01b815260040180858152602001806020018381526020018281038252858582818152602001925060200280828437600081840152601f19601f8201169050808301925050509550505050505060206040518083038186803b1580156200113457600080fd5b6200233d62002e4b565b6001600160a01b0316620023506200241f565b6001600160a01b031614620023ac576040805162461bcd60e51b815260206004820181905260248201527f4f776e61626c653a2063616c6c6572206973206e6f7420746865206f776e6572604482015290519081900360640190fd5b604080517f7046727600000000000000000000000000000000000000000000000000000000815260c9600482015260248101839052905173__$a4e4384d4f8ec13c7a898ae597a4175ef6$__916370467276916044808301926000929190829003018186803b15801562000f8157600080fd5b6033546001600160a01b031690565b60006002609754141562002489576040805162461bcd60e51b815260206004820152601f60248201527f5265656e7472616e637947756172643a207265656e7472616e742063616c6c00604482015290519081900360640190fd5b6002609755620024986200155f565b15620024eb576040805162461bcd60e51b815260206004820152601060248201527f5061757361626c653a2070617573656400000000000000000000000000000000604482015290519081900360640190fd5b818042111562002542576040805162461bcd60e51b815260206004820152601060248201527f446561646c696e65206e6f74206d657400000000000000000000000000000000604482015290519081900360640190fd5b604080517fa5397b2200000000000000000000000000000000000000000000000000000000815260c9600482015260ff808a166024830152881660448201526064810187905260848101869052905173__$a4e4384d4f8ec13c7a898ae597a4175ef6$__9163a5397b229160a4808301926020929190829003018186803b158015620025cd57600080fd5b505af4158015620025e2573d6000803e3d6000fd5b505050506040513d6020811015620025f957600080fd5b50516001609755979650505050505050565b60d15460009060ff83161062002668576040805162461bcd60e51b815260206004820152601260248201527f496e646578206f7574206f662072616e67650000000000000000000000000000604482015290519081900360640190fd5b60d3805460ff84169081106200267a57fe5b90600052602060002001549050919050565b604080517fe4a9a0da00000000000000000000000000000000000000000000000000000000815260c960048201526001600160a01b03851660248201526044810184905260ff83166064820152815160009273__$a4e4384d4f8ec13c7a898ae597a4175ef6$__9263e4a9a0da9260848083019392829003018186803b1580156200271657600080fd5b505af41580156200272b573d6000803e3d6000fd5b505050506040513d60408110156200274257600080fd5b5051949350505050565b604080517f4b23603c00000000000000000000000000000000000000000000000000000000815260c9600482015260ff80861660248301528416604482015260648101839052905160009173__$a4e4384d4f8ec13c7a898ae597a4175ef6$__91634b23603c91608480820192602092909190829003018186803b158015620027d457600080fd5b505af4158015620027e9573d6000803e3d6000fd5b505050506040513d60208110156200274257600080fd5b6200280a62002e4b565b6001600160a01b03166200281d6200241f565b6001600160a01b03161462002879576040805162461bcd60e51b815260206004820181905260248201527f4f776e61626c653a2063616c6c6572206973206e6f7420746865206f776e6572604482015290519081900360640190fd5b604080517f8ab7697e00000000000000000000000000000000000000000000000000000000815260c9600482015260248101839052905173__$a4e4384d4f8ec13c7a898ae597a4175ef6$__91638ab7697e916044808301926000929190829003018186803b15801562000f8157600080fd5b60d0546001600160a01b031633146200294c576040805162461bcd60e51b815260206004820152601b60248201527f4f6e6c792063616c6c61626c6520627920706f6f6c20746f6b656e0000000000604482015290519081900360640190fd5b604080517fe9252d4600000000000000000000000000000000000000000000000000000000815260c960048201526001600160a01b038416602482015260448101839052905173__$a4e4384d4f8ec13c7a898ae597a4175ef6$__9163e9252d46916064808301926000929190829003018186803b1580156200154257600080fd5b620029d862002e4b565b6001600160a01b0316620029eb6200241f565b6001600160a01b03161462002a47576040805162461bcd60e51b815260206004820181905260248201527f4f776e61626c653a2063616c6c6572206973206e6f7420746865206f776e6572604482015290519081900360640190fd5b604080517ff14e211e00000000000000000000000000000000000000000000000000000000815260c96004820152905173__$a4e4384d4f8ec13c7a898ae597a4175ef6$__9163f14e211e916024808301926000929190829003018186803b15801562000bab57600080fd5b600060c973__$a4e4384d4f8ec13c7a898ae597a4175ef6$__63b0a14cfc90916040518263ffffffff1660e01b81526004018082815260200191505060206040518083038186803b15801562000c1b57600080fd5b604080517fe8c47a5400000000000000000000000000000000000000000000000000000000815260c960048201526001600160a01b0383166024820152905160009173__$a4e4384d4f8ec13c7a898ae597a4175ef6$__9163e8c47a5491604480820192602092909190829003018186803b1580156200127557600080fd5b600060c973__$a4e4384d4f8ec13c7a898ae597a4175ef6$__6371906c2c90916040518263ffffffff1660e01b81526004018082815260200191505060206040518083038186803b15801562000c1b57600080fd5b600060c973__$a4e4384d4f8ec13c7a898ae597a4175ef6$__637d0481609091846040518363ffffffff1660e01b8152600401808381526020018281526020019250505060206040518083038186803b1580156200127557600080fd5b62002c4362002e4b565b6001600160a01b031662002c566200241f565b6001600160a01b03161462002cb2576040805162461bcd60e51b815260206004820181905260248201527f4f776e61626c653a2063616c6c6572206973206e6f7420746865206f776e6572604482015290519081900360640190fd5b6001600160a01b03811662002cf95760405162461bcd60e51b815260040180806020018281038252602681526020018062004e526026913960400191505060405180910390fd5b6033546040516001600160a01b038084169216907f8be0079c531659141344cd1fd0a4f28419497f9722a3daafe3b4186f6b6457e090600090a3603380547fffffffffffffffffffffffff0000000000000000000000000000000000000000166001600160a01b0392909216919091179055565b600060c973__$a4e4384d4f8ec13c7a898ae597a4175ef6$__635e58579c9091878787876040518663ffffffff1660e01b815260040180868152602001856001600160a01b031681526020018060200183151581526020018281038252858582818152602001925060200280828437600081840152601f19601f820116905080830192505050965050505050505060206040518083038186803b15801562002e1457600080fd5b505af415801562002e29573d6000803e3d6000fd5b505050506040513d602081101562002e4057600080fd5b505195945050505050565b3390565b62002e596200155f565b62002eab576040805162461bcd60e51b815260206004820152601460248201527f5061757361626c653a206e6f7420706175736564000000000000000000000000604482015290519081900360640190fd5b6065805460ff191690557f5db9ee0a495bf2e6ff9c91a7834c1ba4fdd244a5e8aa4e537bd38aeae4b073aa62002ee062002e4b565b604080516001600160a01b039092168252519081900360200190a1565b600062002f0a30620031b4565b15905090565b600054610100900460ff168062002f2c575062002f2c62002efd565b8062002f3b575060005460ff16155b62002f785760405162461bcd60e51b815260040180806020018281038252602e81526020018062004e78602e913960400191505060405180910390fd5b600054610100900460ff1615801562002fa4576000805460ff1961ff0019909116610100171660011790555b62002fae620031ba565b62002fb862003262565b62002fc26200337d565b801562002fd5576000805461ff00191690555b50565b600054610100900460ff168062002ff4575062002ff462002efd565b8062003003575060005460ff16155b620030405760405162461bcd60e51b815260040180806020018281038252602e81526020018062004e78602e913960400191505060405180910390fd5b600054610100900460ff161580156200306c576000805460ff1961ff0019909116610100171660011790555b62002fc262003430565b6000620030ba83836040518060400160405280601e81526020017f536166654d6174683a207375627472616374696f6e206f766572666c6f770000815250620034de565b9392505050565b600082620030d25750600062001614565b82820282848281620030e057fe5b0414620030ba5760405162461bcd60e51b815260040180806020018281038252602181526020018062004ea66021913960400191505060405180910390fd5b620031296200155f565b156200317c576040805162461bcd60e51b815260206004820152601060248201527f5061757361626c653a2070617573656400000000000000000000000000000000604482015290519081900360640190fd5b6065805460ff191660011790557f62e78cea01bee320cd4e420270b5ea74000d11b0c9f74754ebdbfc544b05a25862002ee062002e4b565b3b151590565b600054610100900460ff1680620031d65750620031d662002efd565b80620031e5575060005460ff16155b620032225760405162461bcd60e51b815260040180806020018281038252602e81526020018062004e78602e913960400191505060405180910390fd5b600054610100900460ff1615801562002fc2576000805460ff1961ff001990911661010017166001179055801562002fd5576000805461ff001916905550565b600054610100900460ff16806200327e57506200327e62002efd565b806200328d575060005460ff16155b620032ca5760405162461bcd60e51b815260040180806020018281038252602e81526020018062004e78602e913960400191505060405180910390fd5b600054610100900460ff16158015620032f6576000805460ff1961ff0019909116610100171660011790555b60006200330262002e4b565b603380547fffffffffffffffffffffffff0000000000000000000000000000000000000000166001600160a01b038316908117909155604051919250906000907f8be0079c531659141344cd1fd0a4f28419497f9722a3daafe3b4186f6b6457e0908290a350801562002fd5576000805461ff001916905550565b600054610100900460ff16806200339957506200339962002efd565b80620033a8575060005460ff16155b620033e55760405162461bcd60e51b815260040180806020018281038252602e81526020018062004e78602e913960400191505060405180910390fd5b600054610100900460ff1615801562003411576000805460ff1961ff0019909116610100171660011790555b6065805460ff19169055801562002fd5576000805461ff001916905550565b600054610100900460ff16806200344c57506200344c62002efd565b806200345b575060005460ff16155b620034985760405162461bcd60e51b815260040180806020018281038252602e81526020018062004e78602e913960400191505060405180910390fd5b600054610100900460ff16158015620034c4576000805460ff1961ff0019909116610100171660011790555b6001609755801562002fd5576000805461ff001916905550565b60008184841115620035715760405162461bcd60e51b81526004018080602001828103825283818151815260200191508051906020019080838360005b83811015620035355781810151838201526020016200351b565b50505050905090810190601f168015620035635780820380516001836020036101000a031916815260200191505b509250505060405180910390fd5b505050900390565b6117ac80620036a683390190565b828054828255906000526020600020908101928215620035f7579160200282015b82811115620035f757825182547fffffffffffffffffffffffff0000000000000000000000000000000000000000166001600160a01b03909116178255602090920191600190910190620035a8565b506200360592915062003655565b5090565b82805482825590600052602060002090810192821562003647579160200282015b82811115620036475782518255916020019190600101906200362a565b50620036059291506200368e565b5b80821115620036055780547fffffffffffffffffffffffff000000000000000000000000000000000000000016815560010162003656565b5b808211156200360557600081556001016200368f56fe60806040523480156200001157600080fd5b50604051620017ac380380620017ac833981810160405260608110156200003757600080fd5b81019080805160405193929190846401000000008211156200005857600080fd5b9083019060208201858111156200006e57600080fd5b82516401000000008111828201881017156200008957600080fd5b82525081516020918201929091019080838360005b83811015620000b85781810151838201526020016200009e565b50505050905090810190601f168015620000e65780820380516001836020036101000a031916815260200191505b50604052602001805160405193929190846401000000008211156200010a57600080fd5b9083019060208201858111156200012057600080fd5b82516401000000008111828201881017156200013b57600080fd5b82525081516020918201929091019080838360005b838110156200016a57818101518382015260200162000150565b50505050905090810190601f168015620001985780820380516001836020036101000a031916815260200191505b5060405260209081015185519093508592508491620001bd916003918501906200029e565b508051620001d39060049060208401906200029e565b50506005805460ff19166012179055506000620001ef62000284565b60058054610100600160a81b0319166101006001600160a01b03841690810291909117909155604051919250906000907f8be0079c531659141344cd1fd0a4f28419497f9722a3daafe3b4186f6b6457e0908290a350620002508162000288565b6200025a62000284565b600680546001600160a01b0319166001600160a01b0392909216919091179055506200033a915050565b3390565b6005805460ff191660ff92909216919091179055565b828054600181600116156101000203166002900490600052602060002090601f016020900481019282601f10620002e157805160ff191683800117855562000311565b8280016001018555821562000311579182015b8281111562000311578251825591602001919060010190620002f4565b506200031f92915062000323565b5090565b5b808211156200031f576000815560010162000324565b611462806200034a6000396000f3fe608060405234801561001057600080fd5b50600436106101365760003560e01c8063715018a6116100b257806395d89b4111610081578063a9059cbb11610066578063a9059cbb146103ff578063dd62ed3e14610438578063f2fde38b1461047357610136565b806395d89b41146103be578063a457c2d7146103c657610136565b8063715018a61461034457806379cc67901461034c5780638119c065146103855780638da5cb5b146103b657610136565b8063313ce5671161010957806340c10f19116100ee57806340c10f19146102b957806342966c68146102f457806370a082311461031157610136565b8063313ce56714610262578063395093511461028057610136565b806306fdde031461013b578063095ea7b3146101b857806318160ddd1461020557806323b872dd1461021f575b600080fd5b6101436104a6565b6040805160208082528351818301528351919283929083019185019080838360005b8381101561017d578181015183820152602001610165565b50505050905090810190601f1680156101aa5780820380516001836020036101000a031916815260200191505b509250505060405180910390f35b6101f1600480360360408110156101ce57600080fd5b5073ffffffffffffffffffffffffffffffffffffffff813516906020013561055a565b604080519115158252519081900360200190f35b61020d610577565b60408051918252519081900360200190f35b6101f16004803603606081101561023557600080fd5b5073ffffffffffffffffffffffffffffffffffffffff81358116916020810135909116906040013561057d565b61026a61061e565b6040805160ff9092168252519081900360200190f35b6101f16004803603604081101561029657600080fd5b5073ffffffffffffffffffffffffffffffffffffffff8135169060200135610627565b6102f2600480360360408110156102cf57600080fd5b5073ffffffffffffffffffffffffffffffffffffffff8135169060200135610682565b005b6102f26004803603602081101561030a57600080fd5b503561075e565b61020d6004803603602081101561032757600080fd5b503573ffffffffffffffffffffffffffffffffffffffff16610772565b6102f261079a565b6102f26004803603604081101561036257600080fd5b5073ffffffffffffffffffffffffffffffffffffffff813516906020013561088a565b61038d6108e4565b6040805173ffffffffffffffffffffffffffffffffffffffff9092168252519081900360200190f35b61038d610900565b610143610921565b6101f1600480360360408110156103dc57600080fd5b5073ffffffffffffffffffffffffffffffffffffffff81351690602001356109a0565b6101f16004803603604081101561041557600080fd5b5073ffffffffffffffffffffffffffffffffffffffff8135169060200135610a15565b61020d6004803603604081101561044e57600080fd5b5073ffffffffffffffffffffffffffffffffffffffff81358116916020013516610a29565b6102f26004803603602081101561048957600080fd5b503573ffffffffffffffffffffffffffffffffffffffff16610a61565b60038054604080516020601f60027fffffffffffffffffffffffffffffffffffffffffffffffffffffffffffffffff6101006001881615020190951694909404938401819004810282018101909252828152606093909290918301828280156105505780601f1061052557610100808354040283529160200191610550565b820191906000526020600020905b81548152906001019060200180831161053357829003601f168201915b5050505050905090565b600061056e610567610bc7565b8484610bcb565b50600192915050565b60025490565b600061058a848484610cde565b61061484610596610bc7565b61060f856040518060600160405280602881526020016113526028913973ffffffffffffffffffffffffffffffffffffffff8a166000908152600160205260408120906105e1610bc7565b73ffffffffffffffffffffffffffffffffffffffff1681526020810191909152604001600020549190610e7a565b610bcb565b5060019392505050565b60055460ff1690565b600061056e610634610bc7565b8461060f8560016000610645610bc7565b73ffffffffffffffffffffffffffffffffffffffff908116825260208083019390935260409182016000908120918c168152925290205490610f11565b61068a610bc7565b600554610100900473ffffffffffffffffffffffffffffffffffffffff9081169116146106fe576040805162461bcd60e51b815260206004820181905260248201527f4f776e61626c653a2063616c6c6572206973206e6f7420746865206f776e6572604482015290519081900360640190fd5b80610750576040805162461bcd60e51b815260206004820152600b60248201527f616d6f756e74203d3d2030000000000000000000000000000000000000000000604482015290519081900360640190fd5b61075a8282610f72565b5050565b61076f610769610bc7565b82611089565b50565b73ffffffffffffffffffffffffffffffffffffffff1660009081526020819052604090205490565b6107a2610bc7565b600554610100900473ffffffffffffffffffffffffffffffffffffffff908116911614610816576040805162461bcd60e51b815260206004820181905260248201527f4f776e61626c653a2063616c6c6572206973206e6f7420746865206f776e6572604482015290519081900360640190fd5b600554604051600091610100900473ffffffffffffffffffffffffffffffffffffffff16907f8be0079c531659141344cd1fd0a4f28419497f9722a3daafe3b4186f6b6457e0908390a3600580547fffffffffffffffffffffff0000000000000000000000000000000000000000ff169055565b60006108c18260405180606001604052806024815260200161137a602491396108ba866108b5610bc7565b610a29565b9190610e7a565b90506108d5836108cf610bc7565b83610bcb565b6108df8383611089565b505050565b60065473ffffffffffffffffffffffffffffffffffffffff1681565b600554610100900473ffffffffffffffffffffffffffffffffffffffff1690565b60048054604080516020601f60027fffffffffffffffffffffffffffffffffffffffffffffffffffffffffffffffff6101006001881615020190951694909404938401819004810282018101909252828152606093909290918301828280156105505780601f1061052557610100808354040283529160200191610550565b600061056e6109ad610bc7565b8461060f8560405180606001604052806025815260200161140860259139600160006109d7610bc7565b73ffffffffffffffffffffffffffffffffffffffff908116825260208083019390935260409182016000908120918d16815292529020549190610e7a565b600061056e610a22610bc7565b8484610cde565b73ffffffffffffffffffffffffffffffffffffffff918216600090815260016020908152604080832093909416825291909152205490565b610a69610bc7565b600554610100900473ffffffffffffffffffffffffffffffffffffffff908116911614610add576040805162461bcd60e51b815260206004820181905260248201527f4f776e61626c653a2063616c6c6572206973206e6f7420746865206f776e6572604482015290519081900360640190fd5b73ffffffffffffffffffffffffffffffffffffffff8116610b2f5760405162461bcd60e51b81526004018080602001828103825260268152602001806112e46026913960400191505060405180910390fd5b60055460405173ffffffffffffffffffffffffffffffffffffffff80841692610100900416907f8be0079c531659141344cd1fd0a4f28419497f9722a3daafe3b4186f6b6457e090600090a36005805473ffffffffffffffffffffffffffffffffffffffff909216610100027fffffffffffffffffffffff0000000000000000000000000000000000000000ff909216919091179055565b3390565b73ffffffffffffffffffffffffffffffffffffffff8316610c1d5760405162461bcd60e51b81526004018080602001828103825260248152602001806113e46024913960400191505060405180910390fd5b73ffffffffffffffffffffffffffffffffffffffff8216610c6f5760405162461bcd60e51b815260040180806020018281038252602281526020018061130a6022913960400191505060405180910390fd5b73ffffffffffffffffffffffffffffffffffffffff808416600081815260016020908152604080832094871680845294825291829020859055815185815291517f8c5be1e5ebec7d5bd14f71427d1e84f3dd0314c0f7b2291e5b200ac8c7c3b9259281900390910190a3505050565b73ffffffffffffffffffffffffffffffffffffffff8316610d305760405162461bcd60e51b81526004018080602001828103825260258152602001806113bf6025913960400191505060405180910390fd5b73ffffffffffffffffffffffffffffffffffffffff8216610d825760405162461bcd60e51b815260040180806020018281038252602381526020018061129f6023913960400191505060405180910390fd5b610d8d8383836111b9565b610dd78160405180606001604052806026815260200161132c6026913973ffffffffffffffffffffffffffffffffffffffff86166000908152602081905260409020549190610e7a565b73ffffffffffffffffffffffffffffffffffffffff8085166000908152602081905260408082209390935590841681522054610e139082610f11565b73ffffffffffffffffffffffffffffffffffffffff8084166000818152602081815260409182902094909455805185815290519193928716927fddf252ad1be2c89b69c2b068fc378daa952ba7f163c4a11628f55a4df523b3ef92918290030190a3505050565b60008184841115610f095760405162461bcd60e51b81526004018080602001828103825283818151815260200191508051906020019080838360005b83811015610ece578181015183820152602001610eb6565b50505050905090810190601f168015610efb5780820380516001836020036101000a031916815260200191505b509250505060405180910390fd5b505050900390565b600082820183811015610f6b576040805162461bcd60e51b815260206004820152601b60248201527f536166654d6174683a206164646974696f6e206f766572666c6f770000000000604482015290519081900360640190fd5b9392505050565b73ffffffffffffffffffffffffffffffffffffffff8216610fda576040805162461bcd60e51b815260206004820152601f60248201527f45524332303a206d696e7420746f20746865207a65726f206164647265737300604482015290519081900360640190fd5b610fe6600083836111b9565b600254610ff39082610f11565b60025573ffffffffffffffffffffffffffffffffffffffff82166000908152602081905260409020546110269082610f11565b73ffffffffffffffffffffffffffffffffffffffff83166000818152602081815260408083209490945583518581529351929391927fddf252ad1be2c89b69c2b068fc378daa952ba7f163c4a11628f55a4df523b3ef9281900390910190a35050565b73ffffffffffffffffffffffffffffffffffffffff82166110db5760405162461bcd60e51b815260040180806020018281038252602181526020018061139e6021913960400191505060405180910390fd5b6110e7826000836111b9565b611131816040518060600160405280602281526020016112c26022913973ffffffffffffffffffffffffffffffffffffffff85166000908152602081905260409020549190610e7a565b73ffffffffffffffffffffffffffffffffffffffff8316600090815260208190526040902055600254611164908261125c565b60025560408051828152905160009173ffffffffffffffffffffffffffffffffffffffff8516917fddf252ad1be2c89b69c2b068fc378daa952ba7f163c4a11628f55a4df523b3ef9181900360200190a35050565b6111c48383836108df565b600654604080517fc00c125c00000000000000000000000000000000000000000000000000000000815273ffffffffffffffffffffffffffffffffffffffff8581166004830152602482018590529151919092169163c00c125c91604480830192600092919082900301818387803b15801561123f57600080fd5b505af1158015611253573d6000803e3d6000fd5b50505050505050565b6000610f6b83836040518060400160405280601e81526020017f536166654d6174683a207375627472616374696f6e206f766572666c6f770000815250610e7a56fe45524332303a207472616e7366657220746f20746865207a65726f206164647265737345524332303a206275726e20616d6f756e7420657863656564732062616c616e63654f776e61626c653a206e6577206f776e657220697320746865207a65726f206164647265737345524332303a20617070726f766520746f20746865207a65726f206164647265737345524332303a207472616e7366657220616d6f756e7420657863656564732062616c616e636545524332303a207472616e7366657220616d6f756e74206578636565647320616c6c6f77616e636545524332303a206275726e20616d6f756e74206578636565647320616c6c6f77616e636545524332303a206275726e2066726f6d20746865207a65726f206164647265737345524332303a207472616e736665722066726f6d20746865207a65726f206164647265737345524332303a20617070726f76652066726f6d20746865207a65726f206164647265737345524332303a2064656372656173656420616c6c6f77616e63652062656c6f77207a65726fa26469706673582212205aaa8153fc7210c26cd758336d0da594d015a66062545e65d4db024af33f533a64736f6c634300060c00334f776e61626c653a206e6577206f776e657220697320746865207a65726f2061646472657373496e697469616c697a61626c653a20636f6e747261637420697320616c726561647920696e697469616c697a6564536166654d6174683a206d756c7469706c69636174696f6e206f766572666c6f77a26469706673582212209b72c813e528edbcaa7de0890cede2eeca09a18aef1cef1683ec04515cfedd0264736f6c634300060c0033",
  "libraries": {
    "SwapUtils": "0x149bBb210051851016F57a2824C0444f642833a6"
  },
  "devdoc": {
    "details": "Most of the logic is stored as a library `SwapUtils` for the sake of reducing contract's deployment size.",
    "kind": "dev",
    "methods": {
      "addLiquidity(uint256[],uint256,uint256)": {
        "params": {
          "amounts": "the amounts of each token to add, in their native precision",
          "deadline": "latest timestamp to accept this transaction",
          "minToMint": "the minimum LP tokens adding this amount of liquidity should mint, otherwise revert. Handy for front-running mitigation"
        },
        "returns": {
          "_0": "amount of LP token user minted and received"
        }
      },
      "calculateCurrentWithdrawFee(address)": {
        "details": "returned value should be divided by FEE_DENOMINATOR to convert to correct decimals",
        "params": {
          "user": "address you want to calculate withdraw fee of"
        },
        "returns": {
          "_0": "current withdraw fee of the user"
        }
      },
      "calculateRemoveLiquidity(address,uint256)": {
        "params": {
          "account": "the address that is withdrawing tokens",
          "amount": "the amount of LP tokens that would be burned on withdrawal"
        },
        "returns": {
          "_0": "array of token balances that the user will receive"
        }
      },
      "calculateRemoveLiquidityOneToken(address,uint256,uint8)": {
        "params": {
          "account": "the address that is withdrawing tokens",
          "tokenAmount": "the amount of LP token to burn",
          "tokenIndex": "index of which token will be withdrawn"
        },
        "returns": {
          "availableTokenAmount": "calculated amount of underlying token available to withdraw"
        }
      },
      "calculateSwap(uint8,uint8,uint256)": {
        "params": {
          "dx": "the amount of tokens the user wants to sell. If the token charges a fee on transfers, use the amount that gets transferred after the fee.",
          "tokenIndexFrom": "the token the user wants to sell",
          "tokenIndexTo": "the token the user wants to buy"
        },
        "returns": {
          "_0": "amount of tokens the user will receive"
        }
      },
      "calculateTokenAmount(address,uint256[],bool)": {
        "details": "This shouldn't be used outside frontends for user estimates.",
        "params": {
          "account": "address that is depositing or withdrawing tokens",
          "amounts": "an array of token amounts to deposit or withdrawal, corresponding to pooledTokens. The amount should be in each pooled token's native precision. If a token charges a fee on transfers, use the amount that gets transferred after the fee.",
          "deposit": "whether this is a deposit or a withdrawal"
        },
        "returns": {
          "_0": "token amount the user will receive"
        }
      },
      "getA()": {
        "details": "See the StableSwap paper for details",
        "returns": {
          "_0": "A parameter"
        }
      },
      "getAPrecise()": {
        "details": "See the StableSwap paper for details",
        "returns": {
          "_0": "A parameter in its raw precision form"
        }
      },
      "getAdminBalance(uint256)": {
        "params": {
          "index": "Index of the pooled token"
        },
        "returns": {
          "_0": "admin's token balance in the token's precision"
        }
      },
      "getDepositTimestamp(address)": {
        "returns": {
          "_0": "timestamp of the last deposit made by the given address"
        }
      },
      "getToken(uint8)": {
        "params": {
          "index": "the index of the token"
        },
        "returns": {
          "_0": "address of the token at given index"
        }
      },
      "getTokenBalance(uint8)": {
        "params": {
          "index": "the index of the token"
        },
        "returns": {
          "_0": "current balance of the pooled token at given index with token's native precision"
        }
      },
      "getTokenIndex(address)": {
        "params": {
          "tokenAddress": "address of the token"
        },
        "returns": {
          "_0": "the index of the given token address"
        }
      },
      "getVirtualPrice()": {
        "returns": {
          "_0": "the virtual price, scaled to the POOL_PRECISION_DECIMALS"
        }
      },
      "initialize(address[],uint8[],string,string,uint256,uint256,uint256,uint256)": {
        "params": {
          "_a": "the amplification coefficient * n * (n - 1). See the StableSwap paper for details",
          "_adminFee": "default adminFee to be initialized with",
          "_fee": "default swap fee to be initialized with",
          "_pooledTokens": "an array of ERC20s this pool will accept",
          "_withdrawFee": "default withdrawFee to be initialized with",
          "decimals": "the decimals to use for each pooled token, eg 8 for WBTC. Cannot be larger than POOL_PRECISION_DECIMALS",
          "lpTokenName": "the long-form name of the token to be deployed",
          "lpTokenSymbol": "the short symbol for the token to be deployed"
        }
      },
      "owner()": {
        "details": "Returns the address of the current owner."
      },
      "paused()": {
        "details": "Returns true if the contract is paused, and false otherwise."
      },
      "rampA(uint256,uint256)": {
        "params": {
          "futureA": "the new A to ramp towards",
          "futureTime": "timestamp when the new A should be reached"
        }
      },
      "removeLiquidity(uint256,uint256[],uint256)": {
        "details": "Liquidity can always be removed, even when the pool is paused.",
        "params": {
          "amount": "the amount of LP tokens to burn",
          "deadline": "latest timestamp to accept this transaction",
          "minAmounts": "the minimum amounts of each token in the pool        acceptable for this burn. Useful as a front-running mitigation"
        },
        "returns": {
          "_0": "amounts of tokens user received"
        }
      },
      "removeLiquidityImbalance(uint256[],uint256,uint256)": {
        "params": {
          "amounts": "how much of each token to withdraw",
          "deadline": "latest timestamp to accept this transaction",
          "maxBurnAmount": "the max LP token provider is willing to pay to remove liquidity. Useful as a front-running mitigation."
        },
        "returns": {
          "_0": "amount of LP tokens burned"
        }
      },
      "removeLiquidityOneToken(uint256,uint8,uint256,uint256)": {
        "params": {
          "deadline": "latest timestamp to accept this transaction",
          "minAmount": "the minimum amount to withdraw, otherwise revert",
          "tokenAmount": "the amount of the token you want to receive",
          "tokenIndex": "the index of the token you want to receive"
        },
        "returns": {
          "_0": "amount of chosen token user received"
        }
      },
      "renounceOwnership()": {
        "details": "Leaves the contract without owner. It will not be possible to call `onlyOwner` functions anymore. Can only be called by the current owner. NOTE: Renouncing ownership will leave the contract without an owner, thereby removing any functionality that is only available to the owner."
      },
      "setAdminFee(uint256)": {
        "params": {
          "newAdminFee": "new admin fee to be applied on future transactions"
        }
      },
      "setDefaultWithdrawFee(uint256)": {
        "params": {
          "newWithdrawFee": "new withdraw fee to be applied on future deposits"
        }
      },
      "setSwapFee(uint256)": {
        "params": {
          "newSwapFee": "new swap fee to be applied on future transactions"
        }
      },
      "swap(uint8,uint8,uint256,uint256,uint256)": {
        "params": {
          "deadline": "latest timestamp to accept this transaction",
          "dx": "the amount of tokens the user wants to swap from",
          "minDy": "the min amount the user would like to receive, or revert.",
          "tokenIndexFrom": "the token the user wants to swap from",
          "tokenIndexTo": "the token the user wants to swap to"
        }
      },
      "transferOwnership(address)": {
        "details": "Transfers ownership of the contract to a new account (`newOwner`). Can only be called by the current owner."
      },
      "updateUserWithdrawFee(address,uint256)": {
        "params": {
          "recipient": "address of the recipient of pool token",
          "transferAmount": "amount of pool token to transfer"
        }
      }
    },
    "title": "Swap - A StableSwap implementation in solidity.",
    "version": 1
  },
  "userdoc": {
    "kind": "user",
    "methods": {
      "addLiquidity(uint256[],uint256,uint256)": {
        "notice": "Add liquidity to the pool with the given amounts of tokens"
      },
      "calculateCurrentWithdrawFee(address)": {
        "notice": "Calculate the fee that is applied when the given user withdraws. The withdraw fee decays linearly over period of 4 weeks. For example, depositing and withdrawing right away will charge you the full amount of withdraw fee. But withdrawing after 4 weeks will charge you no additional fees."
      },
      "calculateRemoveLiquidity(address,uint256)": {
        "notice": "A simple method to calculate amount of each underlying tokens that is returned upon burning given amount of LP tokens"
      },
      "calculateRemoveLiquidityOneToken(address,uint256,uint8)": {
        "notice": "Calculate the amount of underlying token available to withdraw when withdrawing via only single token"
      },
      "calculateSwap(uint8,uint8,uint256)": {
        "notice": "Calculate amount of tokens you receive on swap"
      },
      "calculateTokenAmount(address,uint256[],bool)": {
        "notice": "A simple method to calculate prices from deposits or withdrawals, excluding fees but including slippage. This is helpful as an input into the various \"min\" parameters on calls to fight front-running"
      },
      "getA()": {
        "notice": "Return A, the amplification coefficient * n * (n - 1)"
      },
      "getAPrecise()": {
        "notice": "Return A in its raw precision form"
      },
      "getAdminBalance(uint256)": {
        "notice": "This function reads the accumulated amount of admin fees of the token with given index"
      },
      "getDepositTimestamp(address)": {
        "notice": "Return timestamp of last deposit of given address"
      },
      "getToken(uint8)": {
        "notice": "Return address of the pooled token at given index. Reverts if tokenIndex is out of range."
      },
      "getTokenBalance(uint8)": {
        "notice": "Return current balance of the pooled token at given index"
      },
      "getTokenIndex(address)": {
        "notice": "Return the index of the given token address. Reverts if no matching token is found."
      },
      "getVirtualPrice()": {
        "notice": "Get the virtual price, to help calculate profit"
      },
      "initialize(address[],uint8[],string,string,uint256,uint256,uint256,uint256)": {
        "notice": "Initializes this Swap contract with the given parameters. This will also deploy the LPToken that represents users LP position. The owner of LPToken will be this contract - which means only this contract is allowed to mint new tokens."
      },
      "pause()": {
        "notice": "Pause the contract. Revert if already paused."
      },
      "rampA(uint256,uint256)": {
        "notice": "Start ramping up or down A parameter towards given futureA and futureTime Checks if the change is too rapid, and commits the new A value only when it falls under the limit range."
      },
      "removeLiquidity(uint256,uint256[],uint256)": {
        "notice": "Burn LP tokens to remove liquidity from the pool. Withdraw fee that decays linearly over period of 4 weeks since last deposit will apply."
      },
      "removeLiquidityImbalance(uint256[],uint256,uint256)": {
        "notice": "Remove liquidity from the pool, weighted differently than the pool's current balances. Withdraw fee that decays linearly over period of 4 weeks since last deposit will apply."
      },
      "removeLiquidityOneToken(uint256,uint8,uint256,uint256)": {
        "notice": "Remove liquidity from the pool all in one token. Withdraw fee that decays linearly over period of 4 weeks since last deposit will apply."
      },
      "setAdminFee(uint256)": {
        "notice": "Update the admin fee. Admin fee takes portion of the swap fee."
      },
      "setDefaultWithdrawFee(uint256)": {
        "notice": "Update the withdraw fee. This fee decays linearly over 4 weeks since user's last deposit."
      },
      "setSwapFee(uint256)": {
        "notice": "Update the swap fee to be applied on swaps"
      },
      "stopRampA()": {
        "notice": "Stop ramping A immediately. Reverts if ramp A is already stopped."
      },
      "swap(uint8,uint8,uint256,uint256,uint256)": {
        "notice": "Swap two tokens using this pool"
      },
      "unpause()": {
        "notice": "Unpause the contract. Revert if already unpaused."
      },
      "updateUserWithdrawFee(address,uint256)": {
        "notice": "Updates the user withdraw fee. This function can only be called by the pool token. Should be used to update the withdraw fee on transfer of pool tokens. Transferring your pool token will reset the 4 weeks period. If the recipient is already holding some pool tokens, the withdraw fee will be discounted in respective amounts."
      },
      "withdrawAdminFees()": {
        "notice": "Withdraw all admin fees to the contract owner"
      }
    },
    "notice": "This contract is responsible for custody of closely pegged assets (eg. group of stablecoins) and automatic market making system. Users become an LP (Liquidity Provider) by depositing their tokens in desired ratios for an exchange of the pool token that represents their share of the pool. Users can burn pool tokens and withdraw their share of token(s). Each time a swap between the pooled tokens happens, a set fee incurs which effectively gets distributed to the LPs. In case of emergencies, admin can pause additional deposits, swaps, or single-asset withdraws - which stops the ratio of the tokens in the pool from changing. Users can always withdraw their tokens via multi-asset withdraws.",
    "version": 1
  },
  "storageLayout": {
    "storage": [
      {
        "astId": 137,
        "contract": "contracts/Swap.sol:Swap",
        "label": "_initialized",
        "offset": 0,
        "slot": "0",
        "type": "t_bool"
      },
      {
        "astId": 140,
        "contract": "contracts/Swap.sol:Swap",
        "label": "_initializing",
        "offset": 1,
        "slot": "0",
        "type": "t_bool"
      },
      {
        "astId": 484,
        "contract": "contracts/Swap.sol:Swap",
        "label": "__gap",
        "offset": 0,
        "slot": "1",
        "type": "t_array(t_uint256)50_storage"
      },
      {
        "astId": 10,
        "contract": "contracts/Swap.sol:Swap",
        "label": "_owner",
        "offset": 0,
        "slot": "51",
        "type": "t_address"
      },
      {
        "astId": 129,
        "contract": "contracts/Swap.sol:Swap",
        "label": "__gap",
        "offset": 0,
        "slot": "52",
        "type": "t_array(t_uint256)49_storage"
      },
      {
        "astId": 506,
        "contract": "contracts/Swap.sol:Swap",
        "label": "_paused",
        "offset": 0,
        "slot": "101",
        "type": "t_bool"
      },
      {
        "astId": 597,
        "contract": "contracts/Swap.sol:Swap",
        "label": "__gap",
        "offset": 0,
        "slot": "102",
        "type": "t_array(t_uint256)49_storage"
      },
      {
        "astId": 612,
        "contract": "contracts/Swap.sol:Swap",
        "label": "_status",
        "offset": 0,
        "slot": "151",
        "type": "t_uint256"
      },
      {
        "astId": 655,
        "contract": "contracts/Swap.sol:Swap",
        "label": "__gap",
        "offset": 0,
        "slot": "152",
        "type": "t_array(t_uint256)49_storage"
      },
      {
        "astId": 4879,
        "contract": "contracts/Swap.sol:Swap",
        "label": "swapStorage",
        "offset": 0,
        "slot": "201",
        "type": "t_struct(Swap)6244_storage"
      },
      {
        "astId": 4882,
        "contract": "contracts/Swap.sol:Swap",
        "label": "initialized",
        "offset": 0,
        "slot": "214",
        "type": "t_bool"
      },
      {
        "astId": 4886,
        "contract": "contracts/Swap.sol:Swap",
        "label": "tokenIndexes",
        "offset": 0,
        "slot": "215",
        "type": "t_mapping(t_address,t_uint8)"
      }
    ],
    "types": {
      "t_address": {
        "encoding": "inplace",
        "label": "address",
        "numberOfBytes": "20"
      },
      "t_array(t_contract(IERC20)1764)dyn_storage": {
        "base": "t_contract(IERC20)1764",
        "encoding": "dynamic_array",
        "label": "contract IERC20[]",
        "numberOfBytes": "32"
      },
      "t_array(t_uint256)49_storage": {
        "base": "t_uint256",
        "encoding": "inplace",
        "label": "uint256[49]",
        "numberOfBytes": "1568"
      },
      "t_array(t_uint256)50_storage": {
        "base": "t_uint256",
        "encoding": "inplace",
        "label": "uint256[50]",
        "numberOfBytes": "1600"
      },
      "t_array(t_uint256)dyn_storage": {
        "base": "t_uint256",
        "encoding": "dynamic_array",
        "label": "uint256[]",
        "numberOfBytes": "32"
      },
      "t_bool": {
        "encoding": "inplace",
        "label": "bool",
        "numberOfBytes": "1"
      },
      "t_contract(IERC20)1764": {
        "encoding": "inplace",
        "label": "contract IERC20",
        "numberOfBytes": "20"
      },
      "t_contract(LPToken)4590": {
        "encoding": "inplace",
        "label": "contract LPToken",
        "numberOfBytes": "20"
      },
      "t_mapping(t_address,t_uint256)": {
        "encoding": "mapping",
        "key": "t_address",
        "label": "mapping(address => uint256)",
        "numberOfBytes": "32",
        "value": "t_uint256"
      },
      "t_mapping(t_address,t_uint8)": {
        "encoding": "mapping",
        "key": "t_address",
        "label": "mapping(address => uint8)",
        "numberOfBytes": "32",
        "value": "t_uint8"
      },
      "t_struct(Swap)6244_storage": {
        "encoding": "inplace",
        "label": "struct SwapUtils.Swap",
        "members": [
          {
            "astId": 6212,
            "contract": "contracts/Swap.sol:Swap",
            "label": "initialA",
            "offset": 0,
            "slot": "0",
            "type": "t_uint256"
          },
          {
            "astId": 6214,
            "contract": "contracts/Swap.sol:Swap",
            "label": "futureA",
            "offset": 0,
            "slot": "1",
            "type": "t_uint256"
          },
          {
            "astId": 6216,
            "contract": "contracts/Swap.sol:Swap",
            "label": "initialATime",
            "offset": 0,
            "slot": "2",
            "type": "t_uint256"
          },
          {
            "astId": 6218,
            "contract": "contracts/Swap.sol:Swap",
            "label": "futureATime",
            "offset": 0,
            "slot": "3",
            "type": "t_uint256"
          },
          {
            "astId": 6220,
            "contract": "contracts/Swap.sol:Swap",
            "label": "swapFee",
            "offset": 0,
            "slot": "4",
            "type": "t_uint256"
          },
          {
            "astId": 6222,
            "contract": "contracts/Swap.sol:Swap",
            "label": "adminFee",
            "offset": 0,
            "slot": "5",
            "type": "t_uint256"
          },
          {
            "astId": 6224,
            "contract": "contracts/Swap.sol:Swap",
            "label": "defaultWithdrawFee",
            "offset": 0,
            "slot": "6",
            "type": "t_uint256"
          },
          {
            "astId": 6226,
            "contract": "contracts/Swap.sol:Swap",
            "label": "lpToken",
            "offset": 0,
            "slot": "7",
            "type": "t_contract(LPToken)4590"
          },
          {
            "astId": 6229,
            "contract": "contracts/Swap.sol:Swap",
            "label": "pooledTokens",
            "offset": 0,
            "slot": "8",
            "type": "t_array(t_contract(IERC20)1764)dyn_storage"
          },
          {
            "astId": 6232,
            "contract": "contracts/Swap.sol:Swap",
            "label": "tokenPrecisionMultipliers",
            "offset": 0,
            "slot": "9",
            "type": "t_array(t_uint256)dyn_storage"
          },
          {
            "astId": 6235,
            "contract": "contracts/Swap.sol:Swap",
            "label": "balances",
            "offset": 0,
            "slot": "10",
            "type": "t_array(t_uint256)dyn_storage"
          },
          {
            "astId": 6239,
            "contract": "contracts/Swap.sol:Swap",
            "label": "depositTimestamp",
            "offset": 0,
            "slot": "11",
            "type": "t_mapping(t_address,t_uint256)"
          },
          {
            "astId": 6243,
            "contract": "contracts/Swap.sol:Swap",
            "label": "withdrawFeeMultiplier",
            "offset": 0,
            "slot": "12",
            "type": "t_mapping(t_address,t_uint256)"
          }
        ],
        "numberOfBytes": "416"
      },
      "t_uint256": {
        "encoding": "inplace",
        "label": "uint256",
        "numberOfBytes": "32"
      },
      "t_uint8": {
        "encoding": "inplace",
        "label": "uint8",
        "numberOfBytes": "1"
      }
    }
  }
}