{
  "address": "0xdf815Ea6b066Ac9f3107d8863a6c19aA2a5d24d3",
  "abi": [
    {
      "inputs": [],
      "stateMutability": "nonpayable",
      "type": "constructor"
    },
    {
      "inputs": [],
      "name": "SYNTHETIX",
      "outputs": [
        {
          "internalType": "contract ISynthetix",
          "name": "",
          "type": "address"
        }
      ],
      "stateMutability": "view",
      "type": "function"
    },
    {
      "inputs": [],
      "name": "TRACKING",
      "outputs": [
        {
          "internalType": "bytes32",
          "name": "",
          "type": "bytes32"
        }
      ],
      "stateMutability": "view",
      "type": "function"
    },
    {
      "inputs": [],
      "name": "destroy",
      "outputs": [],
      "stateMutability": "nonpayable",
      "type": "function"
    },
    {
      "inputs": [],
      "name": "initialize",
      "outputs": [],
      "stateMutability": "nonpayable",
      "type": "function"
    },
    {
      "inputs": [
        {
          "internalType": "bytes32",
          "name": "sourceKey",
          "type": "bytes32"
        },
        {
          "internalType": "uint256",
          "name": "synthAmount",
          "type": "uint256"
        },
        {
          "internalType": "bytes32",
          "name": "destKey",
          "type": "bytes32"
        }
      ],
      "name": "swapSynth",
      "outputs": [
        {
          "internalType": "uint256",
          "name": "",
          "type": "uint256"
        }
      ],
      "stateMutability": "nonpayable",
      "type": "function"
    },
    {
      "inputs": [
        {
          "internalType": "contract ISwap",
          "name": "swap",
          "type": "address"
        },
        {
          "internalType": "contract IERC20",
          "name": "tokenFrom",
          "type": "address"
        },
        {
          "internalType": "uint8",
          "name": "tokenFromIndex",
          "type": "uint8"
        },
        {
          "internalType": "uint8",
          "name": "tokenToIndex",
          "type": "uint8"
        },
        {
          "internalType": "uint256",
          "name": "tokenFromAmount",
          "type": "uint256"
        },
        {
          "internalType": "uint256",
          "name": "minAmount",
          "type": "uint256"
        },
        {
          "internalType": "uint256",
          "name": "deadline",
          "type": "uint256"
        },
        {
          "internalType": "address",
          "name": "recipient",
          "type": "address"
        }
      ],
      "name": "swapSynthToToken",
      "outputs": [
        {
          "internalType": "contract IERC20",
          "name": "",
          "type": "address"
        },
        {
          "internalType": "uint256",
          "name": "",
          "type": "uint256"
        }
      ],
      "stateMutability": "nonpayable",
      "type": "function"
    },
    {
      "inputs": [
        {
          "internalType": "contract IERC20",
          "name": "token",
          "type": "address"
        },
        {
          "internalType": "address",
          "name": "recipient",
          "type": "address"
        },
        {
          "internalType": "uint256",
          "name": "withdrawAmount",
          "type": "uint256"
        },
        {
          "internalType": "bool",
          "name": "shouldDestroy",
          "type": "bool"
        }
      ],
      "name": "withdraw",
      "outputs": [],
      "stateMutability": "nonpayable",
      "type": "function"
    }
  ],
  "transactionHash": "0xa9b9a7fc64fe5e188062dc4ac384b022ac691fafcc03cf1e2d474bd45822d674",
  "args": [],
  "solcInputHash": "83663b3e19281856908ab864c5be0a28",
  "bytecode": "0x608060405234801561001057600080fd5b5061001961001e565b610152565b600054610100900460ff16806100375750610037610131565b80610045575060005460ff16155b6100805760405162461bcd60e51b815260040180806020018281038252602e815260200180611037602e913960400191505060405180910390fd5b600054610100900460ff161580156100ab576000805460ff1961ff0019909116610100171660011790555b6000546201000090046001600160a01b031615610103576040805162461bcd60e51b81526020600482015260116024820152701bdddb995c88185b1c9958591e481cd95d607a1b604482015290519081900360640190fd5b6000805462010000600160b01b031916336201000002179055801561012e576000805461ff00191690555b50565b60006101463061014c60201b610a0e1760201c565b15905090565b3b151590565b610ed6806101616000396000f3fe608060405234801561001057600080fd5b506004361061007d5760003560e01c80638129fc1c1161005b5780638129fc1c1461018757806383197ef014610191578063934785b714610199578063adfcd35f146101e45761007d565b80635a3f4b2314610082578063775723ca1461011b5780637d1c307114610156575b600080fd5b6100eb600480360361010081101561009957600080fd5b5073ffffffffffffffffffffffffffffffffffffffff8135811691602081013582169160ff604083013581169260608101359091169160808201359160a08101359160c08201359160e00135166101ec565b6040805173ffffffffffffffffffffffffffffffffffffffff909316835260208301919091528051918290030190f35b6101446004803603606081101561013157600080fd5b5080359060208101359060400135610543565b60408051918252519081900360200190f35b61015e6106ad565b6040805173ffffffffffffffffffffffffffffffffffffffff9092168252519081900360200190f35b61018f6106c5565b005b61018f610893565b61018f600480360360808110156101af57600080fd5b5073ffffffffffffffffffffffffffffffffffffffff8135811691602081013590911690604081013590606001351515610929565b6101446109ea565b60008054819062010000900473ffffffffffffffffffffffffffffffffffffffff16331461027b57604080517f08c379a000000000000000000000000000000000000000000000000000000000815260206004820152600c60248201527f6973206e6f74206f776e65720000000000000000000000000000000000000000604482015290519081900360640190fd5b8873ffffffffffffffffffffffffffffffffffffffff1663095ea7b38b886040518363ffffffff1660e01b8152600401808373ffffffffffffffffffffffffffffffffffffffff16815260200182815260200192505050602060405180830381600087803b1580156102ec57600080fd5b505af1158015610300573d6000803e3d6000fd5b505050506040513d602081101561031657600080fd5b5050604080517f9169558600000000000000000000000000000000000000000000000000000000815260ff808b16600483015289166024820152604481018890526064810187905260848101869052905173ffffffffffffffffffffffffffffffffffffffff8c169163916955869160a48083019260209291908290030181600087803b1580156103a657600080fd5b505af11580156103ba573d6000803e3d6000fd5b505050506040513d60208110156103d057600080fd5b5050604080517f82b8660000000000000000000000000000000000000000000000000000000000815260ff89166004820152905160009173ffffffffffffffffffffffffffffffffffffffff8d16916382b8660091602480820192602092909190829003018186803b15801561044557600080fd5b505afa158015610459573d6000803e3d6000fd5b505050506040513d602081101561046f57600080fd5b5051604080517f70a08231000000000000000000000000000000000000000000000000000000008152306004820152905191925060009173ffffffffffffffffffffffffffffffffffffffff8416916370a08231916024808301926020929190829003018186803b1580156104e357600080fd5b505afa1580156104f7573d6000803e3d6000fd5b505050506040513d602081101561050d57600080fd5b5051905061053273ffffffffffffffffffffffffffffffffffffffff83168683610a14565b909b909a5098505050505050505050565b6000805462010000900473ffffffffffffffffffffffffffffffffffffffff1633146105d057604080517f08c379a000000000000000000000000000000000000000000000000000000000815260206004820152600c60248201527f6973206e6f74206f776e65720000000000000000000000000000000000000000604482015290519081900360640190fd5b604080517f30ead7600000000000000000000000000000000000000000000000000000000081526004810186905260248101859052604481018490523360648201527f534144444c4500000000000000000000000000000000000000000000000000006084820152905173c011a73ee8576fb46f5e1c5751ca3b9fe0af2a6f916330ead7609160a48083019260209291908290030181600087803b15801561067757600080fd5b505af115801561068b573d6000803e3d6000fd5b505050506040513d60208110156106a157600080fd5b505190505b9392505050565b73c011a73ee8576fb46f5e1c5751ca3b9fe0af2a6f81565b600054610100900460ff16806106de57506106de610aa6565b806106ec575060005460ff16155b610741576040517f08c379a000000000000000000000000000000000000000000000000000000000815260040180806020018281038252602e815260200180610e49602e913960400191505060405180910390fd5b600054610100900460ff161580156107a757600080547fffffffffffffffffffffffffffffffffffffffffffffffffffffffffffffff007fffffffffffffffffffffffffffffffffffffffffffffffffffffffffffff00ff909116610100171660011790555b60005462010000900473ffffffffffffffffffffffffffffffffffffffff161561083257604080517f08c379a000000000000000000000000000000000000000000000000000000000815260206004820152601160248201527f6f776e657220616c726561647920736574000000000000000000000000000000604482015290519081900360640190fd5b600080547fffffffffffffffffffff0000000000000000000000000000000000000000ffff16336201000002179055801561089057600080547fffffffffffffffffffffffffffffffffffffffffffffffffffffffffffff00ff1690555b50565b60005462010000900473ffffffffffffffffffffffffffffffffffffffff16331461091f57604080517f08c379a000000000000000000000000000000000000000000000000000000000815260206004820152600c60248201527f6973206e6f74206f776e65720000000000000000000000000000000000000000604482015290519081900360640190fd5b610927610ab7565b565b60005462010000900473ffffffffffffffffffffffffffffffffffffffff1633146109b557604080517f08c379a000000000000000000000000000000000000000000000000000000000815260206004820152600c60248201527f6973206e6f74206f776e65720000000000000000000000000000000000000000604482015290519081900360640190fd5b6109d673ffffffffffffffffffffffffffffffffffffffff85168484610a14565b80156109e4576109e4610ab7565b50505050565b7f534144444c45000000000000000000000000000000000000000000000000000081565b3b151590565b6040805173ffffffffffffffffffffffffffffffffffffffff8416602482015260448082018490528251808303909101815260649091019091526020810180517bffffffffffffffffffffffffffffffffffffffffffffffffffffffff167fa9059cbb00000000000000000000000000000000000000000000000000000000179052610aa1908490610aba565b505050565b6000610ab130610a0e565b15905090565b33ff5b6060610b1c826040518060400160405280602081526020017f5361666545524332303a206c6f772d6c6576656c2063616c6c206661696c65648152508573ffffffffffffffffffffffffffffffffffffffff16610b929092919063ffffffff16565b805190915015610aa157808060200190516020811015610b3b57600080fd5b5051610aa1576040517f08c379a000000000000000000000000000000000000000000000000000000000815260040180806020018281038252602a815260200180610e77602a913960400191505060405180910390fd5b6060610ba18484600085610ba9565b949350505050565b606082471015610c04576040517f08c379a0000000000000000000000000000000000000000000000000000000008152600401808060200182810382526026815260200180610e236026913960400191505060405180910390fd5b610c0d85610a0e565b610c7857604080517f08c379a000000000000000000000000000000000000000000000000000000000815260206004820152601d60248201527f416464726573733a2063616c6c20746f206e6f6e2d636f6e7472616374000000604482015290519081900360640190fd5b600060608673ffffffffffffffffffffffffffffffffffffffff1685876040518082805190602001908083835b60208310610ce257805182527fffffffffffffffffffffffffffffffffffffffffffffffffffffffffffffffe09092019160209182019101610ca5565b6001836020036101000a03801982511681845116808217855250505050505090500191505060006040518083038185875af1925050503d8060008114610d44576040519150601f19603f3d011682016040523d82523d6000602084013e610d49565b606091505b5091509150610d59828286610d64565b979650505050505050565b60608315610d735750816106a6565b825115610d835782518084602001fd5b816040517f08c379a00000000000000000000000000000000000000000000000000000000081526004018080602001828103825283818151815260200191508051906020019080838360005b83811015610de7578181015183820152602001610dcf565b50505050905090810190601f168015610e145780820380516001836020036101000a031916815260200191505b509250505060405180910390fdfe416464726573733a20696e73756666696369656e742062616c616e636520666f722063616c6c496e697469616c697a61626c653a20636f6e747261637420697320616c726561647920696e697469616c697a65645361666545524332303a204552433230206f7065726174696f6e20646964206e6f742073756363656564a2646970667358221220224af93197303f9c14b5fd56eab6f2db14efecf820abc27f4d8d443a0f55a63864736f6c634300060c0033496e697469616c697a61626c653a20636f6e747261637420697320616c726561647920696e697469616c697a6564",
  "devdoc": {
    "kind": "dev",
    "methods": {
      "swapSynth(bytes32,uint256,bytes32)": {
        "params": {
          "destKey": "currency key of the destination synth",
          "sourceKey": "currency key of the source synth",
          "synthAmount": "amount of the synth to swap"
        },
        "returns": {
          "_0": "amount of the destination synth received"
        }
      },
      "swapSynthToToken(address,address,uint8,uint8,uint256,uint256,uint256,address)": {
        "params": {
          "deadline": "latest timestamp to accept this transaction",
          "minAmount": "the min amount the user would like to receive, or revert.",
          "recipient": "the address of the recipient",
          "swap": "the address of a pool to swap through",
          "tokenFrom": "the address of the stored synth",
          "tokenFromAmount": "the amount of the token to swap",
          "tokenFromIndex": "the index of the token to swap from",
          "tokenToIndex": "the token the user wants to swap to"
        }
      },
      "withdraw(address,address,uint256,bool)": {
        "params": {
          "recipient": "the address of the account to receive the token",
          "shouldDestroy": "whether this contract should be destroyed after this call",
          "token": "the address of the token to withdraw",
          "withdrawAmount": "the amount of the token to withdraw"
        }
      }
    },
    "title": "SynthSwapper",
    "version": 1
  },
  "userdoc": {
    "kind": "user",
    "methods": {
      "constructor": "Initializes the contract when deploying this directly. This prevents others from calling initialize() on the target contract and setting themself as the owner.",
      "destroy()": {
        "notice": "Destroys this contract. Only owner can call this function."
      },
      "initialize()": {
        "notice": "Sets the `owner` as the caller of this function"
      },
      "swapSynth(bytes32,uint256,bytes32)": {
        "notice": "Swaps the synth to another synth via the Synthetix protocol."
      },
      "swapSynthToToken(address,address,uint8,uint8,uint256,uint256,uint256,address)": {
        "notice": "Approves the given `tokenFrom` and swaps it to another token via the given `swap` pool."
      },
      "withdraw(address,address,uint256,bool)": {
        "notice": "Withdraws the given amount of `token` to the `recipient`."
      }
    },
    "notice": "Replacement of Virtual Synths in favor of gas savings. Allows swapping synths via the Synthetix protocol or Saddle's pools. The `Bridge.sol` contract will deploy minimal clones of this contract upon initiating any cross-asset swaps.",
    "version": 1
  },
  "storageLayout": {
    "storage": [
      {
        "astId": 492,
        "contract": "contracts/VirtualSwap/SynthSwapper.sol:SynthSwapper",
        "label": "_initialized",
        "offset": 0,
        "slot": "0",
        "type": "t_bool"
      },
      {
        "astId": 495,
        "contract": "contracts/VirtualSwap/SynthSwapper.sol:SynthSwapper",
        "label": "_initializing",
        "offset": 1,
        "slot": "0",
        "type": "t_bool"
      },
      {
        "astId": 17556,
        "contract": "contracts/VirtualSwap/SynthSwapper.sol:SynthSwapper",
        "label": "owner",
        "offset": 2,
        "slot": "0",
        "type": "t_address_payable"
      }
    ],
    "types": {
      "t_address_payable": {
        "encoding": "inplace",
        "label": "address payable",
        "numberOfBytes": "20"
      },
      "t_bool": {
        "encoding": "inplace",
        "label": "bool",
        "numberOfBytes": "1"
      }
    }
  }
}