{
  "address": "0xf8504e92428d65E56e495684A38f679C1B1DC30b",
  "abi": [
    {
      "inputs": [],
      "stateMutability": "nonpayable",
      "type": "constructor"
    },
    {
      "anonymous": false,
      "inputs": [
        {
          "indexed": false,
          "internalType": "uint256",
          "name": "amount",
          "type": "uint256"
        }
      ],
      "name": "Released",
      "type": "event"
    },
    {
      "anonymous": false,
      "inputs": [
        {
          "indexed": true,
          "internalType": "address",
          "name": "beneficiary",
          "type": "address"
        }
      ],
      "name": "SetBeneficiary",
      "type": "event"
    },
    {
      "anonymous": false,
      "inputs": [
        {
          "indexed": true,
          "internalType": "address",
          "name": "beneficiary",
          "type": "address"
        },
        {
          "indexed": false,
          "internalType": "uint256",
          "name": "startTimestamp",
          "type": "uint256"
        },
        {
          "indexed": false,
          "internalType": "uint256",
          "name": "cliff",
          "type": "uint256"
        },
        {
          "indexed": false,
          "internalType": "uint256",
          "name": "duration",
          "type": "uint256"
        }
      ],
      "name": "VestingInitialized",
      "type": "event"
    },
    {
      "inputs": [],
      "name": "beneficiary",
      "outputs": [
        {
          "internalType": "address",
          "name": "",
          "type": "address"
        }
      ],
      "stateMutability": "view",
      "type": "function"
    },
    {
      "inputs": [
        {
          "internalType": "address",
          "name": "newBeneficiary",
          "type": "address"
        }
      ],
      "name": "changeBeneficiary",
      "outputs": [],
      "stateMutability": "nonpayable",
      "type": "function"
    },
    {
      "inputs": [],
      "name": "cliffInSeconds",
      "outputs": [
        {
          "internalType": "uint256",
          "name": "",
          "type": "uint256"
        }
      ],
      "stateMutability": "view",
      "type": "function"
    },
    {
      "inputs": [],
      "name": "durationInSeconds",
      "outputs": [
        {
          "internalType": "uint256",
          "name": "",
          "type": "uint256"
        }
      ],
      "stateMutability": "view",
      "type": "function"
    },
    {
      "inputs": [],
      "name": "governance",
      "outputs": [
        {
          "internalType": "address",
          "name": "",
          "type": "address"
        }
      ],
      "stateMutability": "view",
      "type": "function"
    },
    {
      "inputs": [
        {
          "internalType": "address",
          "name": "_token",
          "type": "address"
        },
        {
          "internalType": "address",
          "name": "_beneficiary",
          "type": "address"
        },
        {
          "internalType": "uint256",
          "name": "_startTimestamp",
          "type": "uint256"
        },
        {
          "internalType": "uint256",
          "name": "_cliffInSeconds",
          "type": "uint256"
        },
        {
          "internalType": "uint256",
          "name": "_durationInSeconds",
          "type": "uint256"
        }
      ],
      "name": "initialize",
      "outputs": [],
      "stateMutability": "nonpayable",
      "type": "function"
    },
    {
      "inputs": [],
      "name": "release",
      "outputs": [],
      "stateMutability": "nonpayable",
      "type": "function"
    },
    {
      "inputs": [],
      "name": "released",
      "outputs": [
        {
          "internalType": "uint256",
          "name": "",
          "type": "uint256"
        }
      ],
      "stateMutability": "view",
      "type": "function"
    },
    {
      "inputs": [],
      "name": "startTimestamp",
      "outputs": [
        {
          "internalType": "uint256",
          "name": "",
          "type": "uint256"
        }
      ],
      "stateMutability": "view",
      "type": "function"
    },
    {
      "inputs": [],
      "name": "token",
      "outputs": [
        {
          "internalType": "contract IERC20",
          "name": "",
          "type": "address"
        }
      ],
      "stateMutability": "view",
      "type": "function"
    },
    {
      "inputs": [],
      "name": "vestedAmount",
      "outputs": [
        {
          "internalType": "uint256",
          "name": "",
          "type": "uint256"
        }
      ],
      "stateMutability": "view",
      "type": "function"
    }
  ],
  "transactionHash": "0x0019f74337491fd68475a0543384117ec4a144f7fdfaab1024a2d6a4bfd9ab8e",
  "args": [],
  "solcInputHash": "af4196fa2def37a1783574347c2c49c1",
  "bytecode": "0x608060405234801561001057600080fd5b506000805462010000600160b01b03191633620100000217815561112e90819061003a90396000f3fe608060405234801561001057600080fd5b50600436106100c95760003560e01c80639613252111610081578063dc0706571161005b578063dc07065714610174578063e6fd48bc14610187578063fc0c546a1461019057600080fd5b8063961325211461014f578063b20b15cd14610158578063d13f90b41461016157600080fd5b80634e8602bd116100b25780634e8602bd146101345780635aa6e6751461013d57806386d1a69f1461014557600080fd5b806338af3eed146100ce57806344b1231f1461011e575b600080fd5b6000546100f49062010000900473ffffffffffffffffffffffffffffffffffffffff1681565b60405173ffffffffffffffffffffffffffffffffffffffff90911681526020015b60405180910390f35b6101266101b0565b604051908152602001610115565b61012660035481565b6100f4610388565b61014d610430565b005b61012660055481565b61012660025481565b61014d61016f366004610ed7565b610509565b61014d610182366004610e9d565b610964565b61012660045481565b6001546100f49073ffffffffffffffffffffffffffffffffffffffff1681565b600354600454600091429183906101c79084611060565b90506002548110156101dd576000935050505090565b81811061028d576001546040517f70a0823100000000000000000000000000000000000000000000000000000000815230600482015273ffffffffffffffffffffffffffffffffffffffff909116906370a082319060240160206040518083038186803b15801561024d57600080fd5b505afa158015610261573d6000803e3d6000fd5b505050506040513d601f19601f820116820180604052508101906102859190610f4a565b935050505090565b6001546040517f70a0823100000000000000000000000000000000000000000000000000000000815230600482015260009173ffffffffffffffffffffffffffffffffffffffff16906370a082319060240160206040518083038186803b1580156102f757600080fd5b505afa15801561030b573d6000803e3d6000fd5b505050506040513d601f19601f8201168201806040525081019061032f9190610f4a565b90508061034157600094505050505090565b6000600554826103519190610fd0565b90506000846103608584611023565b61036a9190610fe8565b905060006005548261037c9190611060565b98975050505050505050565b600154604080517f5aa6e675000000000000000000000000000000000000000000000000000000008152905160009273ffffffffffffffffffffffffffffffffffffffff1691635aa6e675916004808301926020929190829003018186803b1580156103f357600080fd5b505afa158015610407573d6000803e3d6000fd5b505050506040513d601f19601f8201168201806040525081019061042b9190610eba565b905090565b600061043a6101b0565b9050600081116104915760405162461bcd60e51b815260206004820152601460248201527f4e6f20746f6b656e7320746f2072656c6561736500000000000000000000000060448201526064015b60405180910390fd5b8060055461049f9190610fd0565b6005556040518181527ffb81f9b30d73d830c3544b34d827c08142579ee75710b490bab0b3995468c5659060200160405180910390a16000546001546105069173ffffffffffffffffffffffffffffffffffffffff91821691620100009091041683610b7b565b50565b600054610100900460ff1680610522575060005460ff16155b6105945760405162461bcd60e51b815260206004820152602e60248201527f496e697469616c697a61626c653a20636f6e747261637420697320616c72656160448201527f647920696e697469616c697a65640000000000000000000000000000000000006064820152608401610488565b600054610100900460ff161580156105d357600080547fffffffffffffffffffffffffffffffffffffffffffffffffffffffffffff0000166101011790555b73ffffffffffffffffffffffffffffffffffffffff86166106365760405162461bcd60e51b815260206004820152601660248201527f5f746f6b656e2063616e6e6f7420626520656d707479000000000000000000006044820152606401610488565b60005462010000900473ffffffffffffffffffffffffffffffffffffffff16156106a25760405162461bcd60e51b815260206004820181905260248201527f63616e6e6f7420696e697469616c697a65206c6f67696320636f6e74726163746044820152606401610488565b73ffffffffffffffffffffffffffffffffffffffff85166107055760405162461bcd60e51b815260206004820152601c60248201527f5f62656e65666963696172792063616e6e6f7420626520656d707479000000006044820152606401610488565b836107525760405162461bcd60e51b815260206004820152601a60248201527f737461727454696d657374616d702063616e6e6f7420626520300000000000006044820152606401610488565b428411156107c85760405162461bcd60e51b815260206004820152602860248201527f737461727454696d657374616d702063616e6e6f742062652066726f6d20746860448201527f65206675747572650000000000000000000000000000000000000000000000006064820152608401610488565b816108155760405162461bcd60e51b815260206004820152601460248201527f6475726174696f6e2063616e6e6f7420626520300000000000000000000000006044820152606401610488565b818311156108655760405162461bcd60e51b815260206004820152601e60248201527f636c6966662069732067726561746572207468616e206475726174696f6e00006044820152606401610488565b600180547fffffffffffffffffffffffff00000000000000000000000000000000000000001673ffffffffffffffffffffffffffffffffffffffff88811691909117909155600080547fffffffffffffffffffff0000000000000000000000000000000000000000ffff166201000092881692830217905560048590556003839055600284905560408051868152602081018690529081018490527fdbacc220742910855f69e0a18ac51a99d810079de20f740f1e022153ad7ba8419060600160405180910390a2801561095c57600080547fffffffffffffffffffffffffffffffffffffffffffffffffffffffffffff00ff1690555b505050505050565b61096c610388565b73ffffffffffffffffffffffffffffffffffffffff163373ffffffffffffffffffffffffffffffffffffffff1614610a0c5760405162461bcd60e51b815260206004820152602760248201527f6f6e6c7920676f7665726e616e63652063616e20706572666f726d207468697360448201527f20616374696f6e000000000000000000000000000000000000000000000000006064820152608401610488565b60005473ffffffffffffffffffffffffffffffffffffffff82811662010000909204161415610aa35760405162461bcd60e51b815260206004820152602e60248201527f62656e6566696369617279206d75737420626520646966666572656e7420667260448201527f6f6d2063757272656e74206f6e650000000000000000000000000000000000006064820152608401610488565b73ffffffffffffffffffffffffffffffffffffffff8116610b065760405162461bcd60e51b815260206004820152601b60248201527f62656e65666963696172792063616e6e6f7420626520656d70747900000000006044820152606401610488565b600080547fffffffffffffffffffff0000000000000000000000000000000000000000ffff166201000073ffffffffffffffffffffffffffffffffffffffff841690810291909117825560405190917f1008eccd86b7b0367a8fd91dc07c1796d0501cd3288389270be997f9cc24665b91a250565b6040805173ffffffffffffffffffffffffffffffffffffffff8416602482015260448082018490528251808303909101815260649091019091526020810180517bffffffffffffffffffffffffffffffffffffffffffffffffffffffff167fa9059cbb00000000000000000000000000000000000000000000000000000000179052610c08908490610c0d565b505050565b6000610c6f826040518060400160405280602081526020017f5361666545524332303a206c6f772d6c6576656c2063616c6c206661696c65648152508573ffffffffffffffffffffffffffffffffffffffff16610cff9092919063ffffffff16565b805190915015610c085780806020019051810190610c8d9190610f28565b610c085760405162461bcd60e51b815260206004820152602a60248201527f5361666545524332303a204552433230206f7065726174696f6e20646964206e60448201527f6f742073756363656564000000000000000000000000000000000000000000006064820152608401610488565b6060610d0e8484600085610d18565b90505b9392505050565b606082471015610d905760405162461bcd60e51b815260206004820152602660248201527f416464726573733a20696e73756666696369656e742062616c616e636520666f60448201527f722063616c6c00000000000000000000000000000000000000000000000000006064820152608401610488565b843b610dde5760405162461bcd60e51b815260206004820152601d60248201527f416464726573733a2063616c6c20746f206e6f6e2d636f6e74726163740000006044820152606401610488565b6000808673ffffffffffffffffffffffffffffffffffffffff168587604051610e079190610f63565b60006040518083038185875af1925050503d8060008114610e44576040519150601f19603f3d011682016040523d82523d6000602084013e610e49565b606091505b5091509150610e59828286610e64565b979650505050505050565b60608315610e73575081610d11565b825115610e835782518084602001fd5b8160405162461bcd60e51b81526004016104889190610f7f565b600060208284031215610eaf57600080fd5b8135610d11816110d6565b600060208284031215610ecc57600080fd5b8151610d11816110d6565b600080600080600060a08688031215610eef57600080fd5b8535610efa816110d6565b94506020860135610f0a816110d6565b94979496505050506040830135926060810135926080909101359150565b600060208284031215610f3a57600080fd5b81518015158114610d1157600080fd5b600060208284031215610f5c57600080fd5b5051919050565b60008251610f75818460208701611077565b9190910192915050565b6020815260008251806020840152610f9e816040850160208701611077565b601f017fffffffffffffffffffffffffffffffffffffffffffffffffffffffffffffffe0169190910160400192915050565b60008219821115610fe357610fe36110a7565b500190565b60008261101e577f4e487b7100000000000000000000000000000000000000000000000000000000600052601260045260246000fd5b500490565b6000817fffffffffffffffffffffffffffffffffffffffffffffffffffffffffffffffff048311821515161561105b5761105b6110a7565b500290565b600082821015611072576110726110a7565b500390565b60005b8381101561109257818101518382015260200161107a565b838111156110a1576000848401525b50505050565b7f4e487b7100000000000000000000000000000000000000000000000000000000600052601160045260246000fd5b73ffffffffffffffffffffffffffffffffffffffff8116811461050657600080fdfea2646970667358221220e452ba952e908eb9bd50865e92b4613116ca89faf6276d8134dceea2433d156064736f6c63430008060033",
  "devdoc": {
    "details": "A token holder contract that can release its token balance gradually like a typical vesting scheme, with a cliff and vesting period. Owner has the power to change the beneficiary who receives the vested tokens.",
    "kind": "dev",
    "methods": {
      "changeBeneficiary(address)": {
        "details": "Only governance can call this function. This is to be used in case the target address needs to be updated. If the previous beneficiary has any unclaimed tokens, the new beneficiary will be able to claim them and the rest of the vested tokens.",
        "params": {
          "newBeneficiary": "new address to become the beneficiary"
        }
      },
      "constructor": {
        "details": "Sets the beneficiary to _msgSender() on deploying this contract. This prevents others from initializing the logic contract."
      },
      "governance()": {
        "details": "Governance of the token contract also owns this vesting contract."
      },
      "initialize(address,address,uint256,uint256,uint256)": {
        "details": "Initializes a vesting contract that vests its balance of any ERC20 token to the _beneficiary, monthly in a linear fashion until duration has passed. By then all of the balance will have vested.",
        "params": {
          "_beneficiary": "address of the beneficiary to whom vested tokens are transferred",
          "_cliffInSeconds": "duration in months of the cliff in which tokens will begin to vest",
          "_durationInSeconds": "duration in months of the period in which the tokens will vest",
          "_startTimestamp": "start timestamp when the cliff and vesting should start to count",
          "_token": "address of the token that is subject to vesting"
        }
      }
    },
    "title": "Vesting",
    "version": 1
  },
  "userdoc": {
    "kind": "user",
    "methods": {
      "changeBeneficiary(address)": {
        "notice": "Changes beneficiary who receives the vested token."
      },
      "governance()": {
        "notice": "Governance who owns this contract."
      },
      "release()": {
        "notice": "Transfers vested tokens to beneficiary."
      },
      "vestedAmount()": {
        "notice": "Calculates the amount that has already vested but hasn't been released yet."
      }
    },
    "version": 1
  },
  "storageLayout": {
    "storage": [
      {
        "astId": 5,
        "contract": "contracts/Vesting.sol:Vesting",
        "label": "_initialized",
        "offset": 0,
        "slot": "0",
        "type": "t_bool"
      },
      {
        "astId": 8,
        "contract": "contracts/Vesting.sol:Vesting",
        "label": "_initializing",
        "offset": 1,
        "slot": "0",
        "type": "t_bool"
      },
      {
        "astId": 4379,
        "contract": "contracts/Vesting.sol:Vesting",
        "label": "beneficiary",
        "offset": 2,
        "slot": "0",
        "type": "t_address"
      },
      {
        "astId": 4382,
        "contract": "contracts/Vesting.sol:Vesting",
        "label": "token",
        "offset": 0,
        "slot": "1",
        "type": "t_contract(IERC20)945"
      },
      {
        "astId": 4384,
        "contract": "contracts/Vesting.sol:Vesting",
        "label": "cliffInSeconds",
        "offset": 0,
        "slot": "2",
        "type": "t_uint256"
      },
      {
        "astId": 4386,
        "contract": "contracts/Vesting.sol:Vesting",
        "label": "durationInSeconds",
        "offset": 0,
        "slot": "3",
        "type": "t_uint256"
      },
      {
        "astId": 4388,
        "contract": "contracts/Vesting.sol:Vesting",
        "label": "startTimestamp",
        "offset": 0,
        "slot": "4",
        "type": "t_uint256"
      },
      {
        "astId": 4390,
        "contract": "contracts/Vesting.sol:Vesting",
        "label": "released",
        "offset": 0,
        "slot": "5",
        "type": "t_uint256"
      }
    ],
    "types": {
      "t_address": {
        "encoding": "inplace",
        "label": "address",
        "numberOfBytes": "20"
      },
      "t_bool": {
        "encoding": "inplace",
        "label": "bool",
        "numberOfBytes": "1"
      },
      "t_contract(IERC20)945": {
        "encoding": "inplace",
        "label": "contract IERC20",
        "numberOfBytes": "20"
      },
      "t_uint256": {
        "encoding": "inplace",
        "label": "uint256",
        "numberOfBytes": "32"
      }
    }
  }
}