{
  "address": "0xD2751CdBED54B87777E805be36670D7aeAe73bb2",
  "abi": [
    {
      "name": "CommitOwnership",
      "inputs": [
        {
          "name": "admin",
          "type": "address",
          "indexed": false
        }
      ],
      "anonymous": false,
      "type": "event"
    },
    {
      "name": "ApplyOwnership",
      "inputs": [
        {
          "name": "admin",
          "type": "address",
          "indexed": false
        }
      ],
      "anonymous": false,
      "type": "event"
    },
    {
      "name": "FundsUnlocked",
      "inputs": [
        {
          "name": "funds_unlocked",
          "type": "bool",
          "indexed": false
        }
      ],
      "anonymous": false,
      "type": "event"
    },
    {
      "name": "Deposit",
      "inputs": [
        {
          "name": "deposit_from",
          "type": "address",
          "indexed": true
        },
        {
          "name": "provider",
          "type": "address",
          "indexed": true
        },
        {
          "name": "value",
          "type": "uint256",
          "indexed": false
        },
        {
          "name": "locktime",
          "type": "uint256",
          "indexed": true
        },
        {
          "name": "type",
          "type": "int128",
          "indexed": false
        },
        {
          "name": "ts",
          "type": "uint256",
          "indexed": false
        }
      ],
      "anonymous": false,
      "type": "event"
    },
    {
      "name": "Withdraw",
      "inputs": [
        {
          "name": "provider",
          "type": "address",
          "indexed": true
        },
        {
          "name": "value",
          "type": "uint256",
          "indexed": false
        },
        {
          "name": "ts",
          "type": "uint256",
          "indexed": false
        }
      ],
      "anonymous": false,
      "type": "event"
    },
    {
      "name": "Supply",
      "inputs": [
        {
          "name": "prevSupply",
          "type": "uint256",
          "indexed": false
        },
        {
          "name": "supply",
          "type": "uint256",
          "indexed": false
        }
      ],
      "anonymous": false,
      "type": "event"
    },
    {
      "stateMutability": "nonpayable",
      "type": "constructor",
      "inputs": [
        {
          "name": "token_addr",
          "type": "address"
        },
        {
          "name": "_name",
          "type": "string"
        },
        {
          "name": "_symbol",
          "type": "string"
        },
        {
          "name": "_admin",
          "type": "address"
        }
      ],
      "outputs": []
    },
    {
      "stateMutability": "nonpayable",
      "type": "function",
      "name": "set_reward_pool",
      "inputs": [
        {
          "name": "addr",
          "type": "address"
        }
      ],
      "outputs": [],
      "gas": 39816
    },
    {
      "stateMutability": "nonpayable",
      "type": "function",
      "name": "commit_transfer_ownership",
      "inputs": [
        {
          "name": "addr",
          "type": "address"
        }
      ],
      "outputs": [],
      "gas": 39475
    },
    {
      "stateMutability": "nonpayable",
      "type": "function",
      "name": "apply_transfer_ownership",
      "inputs": [],
      "outputs": [],
      "gas": 41566
    },
    {
      "stateMutability": "nonpayable",
      "type": "function",
      "name": "commit_smart_wallet_checker",
      "inputs": [
        {
          "name": "addr",
          "type": "address"
        }
      ],
      "outputs": [],
      "gas": 37695
    },
    {
      "stateMutability": "nonpayable",
      "type": "function",
      "name": "apply_smart_wallet_checker",
      "inputs": [],
      "outputs": [],
      "gas": 39671
    },
    {
      "stateMutability": "nonpayable",
      "type": "function",
      "name": "set_funds_unlocked",
      "inputs": [
        {
          "name": "_funds_unlocked",
          "type": "bool"
        }
      ],
      "outputs": [],
      "gas": 39595
    },
    {
      "stateMutability": "view",
      "type": "function",
      "name": "get_last_user_slope",
      "inputs": [
        {
          "name": "addr",
          "type": "address"
        }
      ],
      "outputs": [
        {
          "name": "",
          "type": "int128"
        }
      ],
      "gas": 5184
    },
    {
      "stateMutability": "view",
      "type": "function",
      "name": "user_point_history__ts",
      "inputs": [
        {
          "name": "_addr",
          "type": "address"
        },
        {
          "name": "_idx",
          "type": "uint256"
        }
      ],
      "outputs": [
        {
          "name": "",
          "type": "uint256"
        }
      ],
      "gas": 2987
    },
    {
      "stateMutability": "view",
      "type": "function",
      "name": "locked__end",
      "inputs": [
        {
          "name": "_addr",
          "type": "address"
        }
      ],
      "outputs": [
        {
          "name": "",
          "type": "uint256"
        }
      ],
      "gas": 2972
    },
    {
      "stateMutability": "nonpayable",
      "type": "function",
      "name": "checkpoint",
      "inputs": [],
      "outputs": [],
      "gas": 37283370
    },
    {
      "stateMutability": "nonpayable",
      "type": "function",
      "name": "deposit_for",
      "inputs": [
        {
          "name": "_addr",
          "type": "address"
        },
        {
          "name": "_value",
          "type": "uint256"
        }
      ],
      "outputs": [],
      "gas": 37481203
    },
    {
      "stateMutability": "nonpayable",
      "type": "function",
      "name": "create_lock",
      "inputs": [
        {
          "name": "_value",
          "type": "uint256"
        },
        {
          "name": "_unlock_time",
          "type": "uint256"
        }
      ],
      "outputs": [],
      "gas": 37489081
    },
    {
      "stateMutability": "nonpayable",
      "type": "function",
      "name": "increase_amount",
      "inputs": [
        {
          "name": "_value",
          "type": "uint256"
        }
      ],
      "outputs": [],
      "gas": 37485303
    },
    {
      "stateMutability": "nonpayable",
      "type": "function",
      "name": "increase_unlock_time",
      "inputs": [
        {
          "name": "_unlock_time",
          "type": "uint256"
        }
      ],
      "outputs": [],
      "gas": 37492457
    },
    {
      "stateMutability": "nonpayable",
      "type": "function",
      "name": "withdraw",
      "inputs": [],
      "outputs": [],
      "gas": 37472579
    },
    {
      "stateMutability": "nonpayable",
      "type": "function",
      "name": "force_withdraw",
      "inputs": [],
      "outputs": [],
      "gas": 37484659
    },
    {
      "stateMutability": "view",
      "type": "function",
      "name": "balanceOf",
      "inputs": [
        {
          "name": "addr",
          "type": "address"
        }
      ],
      "outputs": [
        {
          "name": "",
          "type": "uint256"
        }
      ],
      "gas": 12750
    },
    {
      "stateMutability": "view",
      "type": "function",
      "name": "balanceOf",
      "inputs": [
        {
          "name": "addr",
          "type": "address"
        },
        {
          "name": "_t",
          "type": "uint256"
        }
      ],
      "outputs": [
        {
          "name": "",
          "type": "uint256"
        }
      ],
      "gas": 12750
    },
    {
      "stateMutability": "view",
      "type": "function",
      "name": "getPriorVotes",
      "inputs": [
        {
          "name": "addr",
          "type": "address"
        },
        {
          "name": "_block",
          "type": "uint256"
        }
      ],
      "outputs": [
        {
          "name": "",
          "type": "uint256"
        }
      ],
      "gas": 793090
    },
    {
      "stateMutability": "view",
      "type": "function",
      "name": "totalSupply",
      "inputs": [],
      "outputs": [
        {
          "name": "",
          "type": "uint256"
        }
      ],
      "gas": 905206
    },
    {
      "stateMutability": "view",
      "type": "function",
      "name": "totalSupply",
      "inputs": [
        {
          "name": "t",
          "type": "uint256"
        }
      ],
      "outputs": [
        {
          "name": "",
          "type": "uint256"
        }
      ],
      "gas": 905206
    },
    {
      "stateMutability": "view",
      "type": "function",
      "name": "totalSupplyAt",
      "inputs": [
        {
          "name": "_block",
          "type": "uint256"
        }
      ],
      "outputs": [
        {
          "name": "",
          "type": "uint256"
        }
      ],
      "gas": 1287758
    },
    {
      "stateMutability": "view",
      "type": "function",
      "name": "token",
      "inputs": [],
      "outputs": [
        {
          "name": "",
          "type": "address"
        }
      ],
      "gas": 3060
    },
    {
      "stateMutability": "view",
      "type": "function",
      "name": "supply",
      "inputs": [],
      "outputs": [
        {
          "name": "",
          "type": "uint256"
        }
      ],
      "gas": 3090
    },
    {
      "stateMutability": "view",
      "type": "function",
      "name": "locked",
      "inputs": [
        {
          "name": "arg0",
          "type": "address"
        }
      ],
      "outputs": [
        {
          "name": "",
          "type": "tuple",
          "components": [
            {
              "name": "amount",
              "type": "int128"
            },
            {
              "name": "end",
              "type": "uint256"
            }
          ]
        }
      ],
      "gas": 5543
    },
    {
      "stateMutability": "view",
      "type": "function",
      "name": "epoch",
      "inputs": [],
      "outputs": [
        {
          "name": "",
          "type": "uint256"
        }
      ],
      "gas": 3150
    },
    {
      "stateMutability": "view",
      "type": "function",
      "name": "point_history",
      "inputs": [
        {
          "name": "arg0",
          "type": "uint256"
        }
      ],
      "outputs": [
        {
          "name": "",
          "type": "tuple",
          "components": [
            {
              "name": "bias",
              "type": "int128"
            },
            {
              "name": "slope",
              "type": "int128"
            },
            {
              "name": "ts",
              "type": "uint256"
            },
            {
              "name": "blk",
              "type": "uint256"
            }
          ]
        }
      ],
      "gas": 9614
    },
    {
      "stateMutability": "view",
      "type": "function",
      "name": "user_point_history",
      "inputs": [
        {
          "name": "arg0",
          "type": "address"
        },
        {
          "name": "arg1",
          "type": "uint256"
        }
      ],
      "outputs": [
        {
          "name": "",
          "type": "tuple",
          "components": [
            {
              "name": "bias",
              "type": "int128"
            },
            {
              "name": "slope",
              "type": "int128"
            },
            {
              "name": "ts",
              "type": "uint256"
            },
            {
              "name": "blk",
              "type": "uint256"
            }
          ]
        }
      ],
      "gas": 9910
    },
    {
      "stateMutability": "view",
      "type": "function",
      "name": "user_point_epoch",
      "inputs": [
        {
          "name": "arg0",
          "type": "address"
        }
      ],
      "outputs": [
        {
          "name": "",
          "type": "uint256"
        }
      ],
      "gas": 3506
    },
    {
      "stateMutability": "view",
      "type": "function",
      "name": "slope_changes",
      "inputs": [
        {
          "name": "arg0",
          "type": "uint256"
        }
      ],
      "outputs": [
        {
          "name": "",
          "type": "int128"
        }
      ],
      "gas": 3385
    },
    {
      "stateMutability": "view",
      "type": "function",
      "name": "name",
      "inputs": [],
      "outputs": [
        {
          "name": "",
          "type": "string"
        }
      ],
      "gas": 13589
    },
    {
      "stateMutability": "view",
      "type": "function",
      "name": "symbol",
      "inputs": [],
      "outputs": [
        {
          "name": "",
          "type": "string"
        }
      ],
      "gas": 11348
    },
    {
      "stateMutability": "view",
      "type": "function",
      "name": "decimals",
      "inputs": [],
      "outputs": [
        {
          "name": "",
          "type": "uint256"
        }
      ],
      "gas": 3360
    },
    {
      "stateMutability": "view",
      "type": "function",
      "name": "future_smart_wallet_checker",
      "inputs": [],
      "outputs": [
        {
          "name": "",
          "type": "address"
        }
      ],
      "gas": 3390
    },
    {
      "stateMutability": "view",
      "type": "function",
      "name": "smart_wallet_checker",
      "inputs": [],
      "outputs": [
        {
          "name": "",
          "type": "address"
        }
      ],
      "gas": 3420
    },
    {
      "stateMutability": "view",
      "type": "function",
      "name": "admin",
      "inputs": [],
      "outputs": [
        {
          "name": "",
          "type": "address"
        }
      ],
      "gas": 3450
    },
    {
      "stateMutability": "view",
      "type": "function",
      "name": "future_admin",
      "inputs": [],
      "outputs": [
        {
          "name": "",
          "type": "address"
        }
      ],
      "gas": 3480
    },
    {
      "stateMutability": "view",
      "type": "function",
      "name": "is_unlocked",
      "inputs": [],
      "outputs": [
        {
          "name": "",
          "type": "bool"
        }
      ],
      "gas": 3510
    },
    {
      "stateMutability": "view",
      "type": "function",
      "name": "reward_pool",
      "inputs": [],
      "outputs": [
        {
          "name": "",
          "type": "address"
        }
      ],
      "gas": 3540
    }
  ],
  "transactionHash": "0x441c6af99c83bf5a2ad072e1f6dfd6d228081e1a230ab6093ba77d9c916215ac",
  "args": [
    "0xf1Dc500FdE233A4055e25e5BbF516372BC4F6871",
    "Vote-escrowed SDL",
    "veSDL",
    "0x5BDb37d0Ddea3A90F233c7B7F6b9394B6b2eef34"
  ],
  "numDeployments": 1,
  "bytecode": "0x6020612cb46080396080518060a01c612caf5760e05260206020612cb401608039608051612cb401604060208260803960805111612caf578060208160803960805160200180826101003950505060206040612cb401608039608051612cb401602060208260803960805111612caf578060208160803960805160200180826101603950505060206060612cb4016080396080518060a01c612caf576101a0526101a0516c050c783eb9b5c84000000000105560e051600155436008554260075563313ce5676101e05260206101e060046101fc60e0515afa6100e7573d600060003e3d6000fd5b601f3d1115612caf576101e0516101c05260ff6101c05111612caf576101c0516c050c783eb9b5c840000000000d55610100806c050c783eb9b5c8400000000008602082510160c060006003818352015b8260c051602002111561014a57610169565b60c05160200285015160c0518501558151600101808352811415610138575b505050505050610160806c050c783eb9b5c840000000000b602082510160c060006002818352015b8260c05160200211156101a3576101c2565b60c05160200285015160c0518501558151600101808352811415610191575b505050505050612c9756600436101561000d57611e75565b60046000601c3760005134612ac557637952889f8118610085576004358060a01c612ac55760e0526c050c783eb9b5c8400000000010543318610051576001610062565b6c050c783eb9b5c840000000001354155b15612ac557600060e05114612ac55760e0516c050c783eb9b5c840000000001355005b636b441a4081186100f5576004358060a01c612ac55760e0526c050c783eb9b5c8400000000010543318612ac55760e0516c050c783eb9b5c8400000000011557f2f56810a6bf40af059b96d3aea4db54081f378029a518390491093a7b67032e960e051610100526020610100a1005b636a1c05ae8118610173576c050c783eb9b5c8400000000010543318612ac5576c050c783eb9b5c84000000000115460e052600060e05114612ac55760e0516c050c783eb9b5c8400000000010557febee2d5739011062cb4f14113f3b36bf0ffe3da5c0568f64189d1012a118910560e051610100526020610100a1005b6357f901e281186101b5576004358060a01c612ac55760e0526c050c783eb9b5c8400000000010543318612ac55760e0516c050c783eb9b5c840000000000e55005b638e5b490f81186101f5576c050c783eb9b5c8400000000010543318612ac5576c050c783eb9b5c840000000000e546c050c783eb9b5c840000000000f55005b638847b5748118610265576004358060011c612ac55760e0526c050c783eb9b5c8400000000010543318612ac55760e0516c050c783eb9b5c8400000000012557f6f9c7879220530d66ede8422a83c8aabeac4631a7269cbdf3bf8f47f74e5269760e051610100526020610100a1005b637c74a17481186102de576004358060a01c612ac55760e0526c050c783eb9b5c840000000000660e05160a052608052604060802054610100526001600461010051633b9aca00811015612ac557026c050c783eb9b5c840000000000560e05160a0526080526040608020010154610120526020610120f35b63da020a188118610335576004358060a01c612ac55760e05260026004602435633b9aca00811015612ac557026c050c783eb9b5c840000000000560e05160a0526080526040608020010154610100526020610100f35b63adc63589811861036d576004358060a01c612ac55760e0526001600360e05160a05260805260406080200154610100526020610100f35b63c2c4c5c1811861039557600060e0526040366101003760403661014037610393611f86565b005b633a46273e811861055f576004358060a01c612ac55761068052600054612ac557600160005560036106805160a052608052604060802080546106a05260018101546106c0525060006024351115612ac55760006106a051136104695760166106e0527f4e6f206578697374696e67206c6f636b20666f756e6400000000000000000000610700526106e0506106e0518061070001818260206001820306601f82010390500336823750506308c379a06106a05260206106c0526106e05160206001820306601f82010390506044016106bcfd5b426106c0511161050f5760246106e0527f43616e6e6f742061646420746f2065787069726564206c6f636b2e2057697468610700527f6472617700000000000000000000000000000000000000000000000000000000610720526106e0506106e0518061070001818260206001820306601f82010390500336823750506308c379a06106a05260206106c0526106e05160206001820306601f82010390506044016106bcfd5b3361048052610680516104a0526024356104c05260006104e05260036106805160a052608052604060802080546105005260018101546105205250600061054052610558612675565b6000600055005b6365fc387381186107d057600054612ac55760016000553360e052610582611e7b565b60243562093a808082049050905062093a80808202821582848304141715612ac557905090506106805260033360a052608052604060802080546106a05260018101546106c0525060006004351115612ac5576106a051156106555760196106e0527f5769746864726177206f6c6420746f6b656e7320666972737400000000000000610700526106e0506106e0518061070001818260206001820306601f82010390500336823750506308c379a06106a05260206106c0526106e05160206001820306601f82010390506044016106bcfd5b4261068051116106fb5760266106e0527f43616e206f6e6c79206c6f636b20756e74696c2074696d6520696e2074686520610700527f6675747572650000000000000000000000000000000000000000000000000000610720526106e0506106e0518061070001818260206001820306601f82010390500336823750506308c379a06106a05260206106c0526106e05160206001820306601f82010390506044016106bcfd5b42630784ce008181830110612ac5578082019050905061068051111561079257601e6106e0527f566f74696e67206c6f636b2063616e2062652034207965617273206d61780000610700526106e0506106e0518061070001818260206001820306601f82010390500336823750506308c379a06106a05260206106c0526106e05160206001820306601f82010390506044016106bcfd5b3361048052336104a0526004356104c052610680516104e0526106a051610500526106c051610520526001610540526107c9612675565b6000600055005b634957677c811861098057600054612ac55760016000553360e0526107f3611e7b565b60033360a052608052604060802080546106805260018101546106a0525060006004351115612ac5576000610680511361089e5760166106c0527f4e6f206578697374696e67206c6f636b20666f756e64000000000000000000006106e0526106c0506106c051806106e001818260206001820306601f82010390500336823750506308c379a06106805260206106a0526106c05160206001820306601f820103905060440161069cfd5b426106a051116109445760246106c0527f43616e6e6f742061646420746f2065787069726564206c6f636b2e20576974686106e0527f6472617700000000000000000000000000000000000000000000000000000000610700526106c0506106c051806106e001818260206001820306601f82010390500336823750506308c379a06106805260206106a0526106c05160206001820306601f820103905060440161069cfd5b3361048052336104a0526004356104c05260006104e05261068051610500526106a05161052052600261054052610979612675565b6000600055005b63eff7a6128118610c4657600054612ac55760016000553360e0526109a3611e7b565b60033360a052608052604060802080546106805260018101546106a0525060043562093a808082049050905062093a80808202821582848304141715612ac557905090506106c052426106a05111610a6c57600c6106e0527f4c6f636b20657870697265640000000000000000000000000000000000000000610700526106e0506106e0518061070001818260206001820306601f82010390500336823750506308c379a06106a05260206106c0526106e05160206001820306601f82010390506044016106bcfd5b60006106805113610aee5760116106e0527f4e6f7468696e67206973206c6f636b6564000000000000000000000000000000610700526106e0506106e0518061070001818260206001820306601f82010390500336823750506308c379a06106a05260206106c0526106e05160206001820306601f82010390506044016106bcfd5b6106a0516106c05111610b7257601f6106e0527f43616e206f6e6c7920696e637265617365206c6f636b206475726174696f6e00610700526106e0506106e0518061070001818260206001820306601f82010390500336823750506308c379a06106a05260206106c0526106e05160206001820306601f82010390506044016106bcfd5b42630784ce008181830110612ac557808201905090506106c0511115610c0957601e6106e0527f566f74696e67206c6f636b2063616e2062652034207965617273206d61780000610700526106e0506106e0518061070001818260206001820306601f82010390500336823750506308c379a06106a05260206106c0526106e05160206001820306601f82010390506044016106bcfd5b3361048052336104a05260006104c0526106c0516104e05261068051610500526106a05161052052600361054052610c3f612675565b6000600055005b633ccfd60b8118610ef857600054612ac557600160005560033360a052608052604060802080546104805260018101546104a052506c050c783eb9b5c8400000000012546104c0526104a051421015610ca2576104c051610ca5565b60015b610d455760316104e0527f546865206c6f636b206469646e27742065787069726520616e642066756e6473610500527f20617265206e6f7420756e6c6f636b6564000000000000000000000000000000610520526104e0506104e0518061050001818260206001820306601f82010390500336823750506308c379a06104a05260206104c0526104e05160206001820306601f82010390506044016104bcfd5b6104805160008112612ac5576104e05261048051610500526104a0516105205260006104a05260006104805260033360a05260805260406080206104805181556104a05160018201555060025461054052610540516104e051808210612ac557808203905090506002553360e0526105005161010052610520516101205261048051610140526104a05161016052610ddb611f86565b63a9059cbb6105605233610580526104e0516105a0526020610560604461057c60006001545af1610e11573d600060003e3d6000fd5b601f3d1115612ac5576105605115612ac5576104c051610e735763632447c96105605233610580526020610560602461057c60006c050c783eb9b5c8400000000013545af1610e65573d600060003e3d6000fd5b601f3d1115612ac557610560505b337ff279e6a1f5e320cca91135676d9cb6e44ca8a08c0b88342bcdb1144f6511b5686104e0516105605242610580526040610560a27f5e2aa66efd74cce82b21852e317e5490d9ecc9e6bb953ae24d90851258cc2f5c6105405161056052610540516104e051808210612ac55780820390509050610580526040610560a16000600055005b63a81f20ad81186112bd57600054612ac55760016000556c050c783eb9b5c840000000001254612ac55760033360a052608052604060802080546104805260018101546104a052506104a0514210610fc157600c6104c0527f6c6f636b206578706972656400000000000000000000000000000000000000006104e0526104c0506104c051806104e001818260206001820306601f82010390500336823750506308c379a06104805260206104a0526104c05160206001820306601f820103905060440161049cfd5b6104a05142808210612ac557808203905090506104c052670a688906bd8b0000670de0b6b3a76400006104c051808202821582848304141715612ac55790509050630784ce008082049050905080821161101b578161101d565b805b905090506104e0526104805160008112612ac5576105005263632447c96105205233610540526020610520602461053c60006c050c783eb9b5c8400000000013545af161106f573d600060003e3d6000fd5b601f3d1115612ac5576105205061048051610520526104a0516105405260006104a05260006104805260033360a05260805260406080206104805181556104a051600182015550600254610560526105605161050051808210612ac557808203905090506002553360e0526105205161010052610540516101205261048051610140526104a05161016052611102611f86565b610500516104e051808202821582848304141715612ac55790509050670de0b6b3a7640000808204905090506105805263a9059cbb6105a052336105c0526105005161058051808210612ac557808203905090506105e05260206105a060446105bc60006001545af161117a573d600060003e3d6000fd5b601f3d1115612ac5576105a05115612ac557600061058051146112385763095ea7b36105a0526c050c783eb9b5c8400000000013546105c052610580516105e05260206105a060446105bc60006001545af16111db573d600060003e3d6000fd5b601f3d1115612ac5576105a05115612ac55763f14faf6f6105a052610580516105c05260206105a060246105bc60006c050c783eb9b5c8400000000013545af161122a573d600060003e3d6000fd5b601f3d1115612ac5576105a0505b337ff279e6a1f5e320cca91135676d9cb6e44ca8a08c0b88342bcdb1144f6511b568610500516105a052426105c05260406105a0a27f5e2aa66efd74cce82b21852e317e5490d9ecc9e6bb953ae24d90851258cc2f5c610560516105a0526105605161050051808210612ac557808203905090506105c05260406105a0a16000600055005b6370a0823181186112d25742610100526112e4565b62fdd58e811861140357602435610100525b6004358060a01c612ac55760e0526c050c783eb9b5c840000000000660e05160a0526080526040608020546101205261012051156113f157600461012051633b9aca00811015612ac557026c050c783eb9b5c840000000000560e05160a05260805260406080200180546101405260018101546101605260028101546101805260038101546101a052506101408051610160516101005161018051808210612ac5578082039050905080607f1c612ac5578082028060801d81607f1d18612ac557905090508082038060801d81607f1d18612ac5579050905081525060006101405112156113d3576000610140525b6101405160008112612ac5576101c05260206101c061140156611401565b6000610140526020610140611401565bf35b63782d6fe1811861179c576004358060a01c612ac5576101a0524360243511612ac55760006101c0526c050c783eb9b5c84000000000066101a05160a0526080526040608020546101e05261020060006080818352015b6101e0516101c0511061146c57611517565b6101c0516101e0518181830110612ac5578082019050905060018181830110612ac55780820190509050600280820490509050610220526024356003600461022051633b9aca00811015612ac557026c050c783eb9b5c84000000000056101a05160a052608052604060802001015411156114fe57610220516001808210612ac557808203905090506101e052611507565b610220516101c0525b815160010180835281141561145a575b505060046101c051633b9aca00811015612ac557026c050c783eb9b5c84000000000056101a05160a052608052604060802001805461020052600181015461022052600281015461024052600381015461026052506004546102805260243560e052610280516101005261158c6102c061287e565b6102c0516102a05260046102a0516c01431e0fae6d7217caa0000000811015612ac5570260050180546102c05260018101546102e0526002810154610300526003810154610320525060403661034037610280516102a0511061161c574361032051808210612ac55780820390509050610340524261030051808210612ac55780820390509050610360526116a4565b60046102a05160018181830110612ac557808201905090506c01431e0fae6d7217caa0000000811015612ac5570260050180546103805260018101546103a05260028101546103c05260038101546103e052506103e05161032051808210612ac55780820390509050610340526103c05161030051808210612ac55780820390509050610360525b61030051610380526000610340511461170e5761038080516103605160243561032051808210612ac55780820390509050808202821582848304141715612ac5579050905061034051808015612ac5578204905090508181830110612ac557808201905090508152505b6102008051610220516103805161024051808210612ac5578082039050905080607f1c612ac5578082028060801d81607f1d18612ac557905090508082038060801d81607f1d18612ac5579050905081525060006102005112156117805760006103a05260206103a061179a5661179a565b6102005160008112612ac5576103a05260206103a061179a565bf35b6318160ddd81186117b15742610260526117c4565b63bd85b039811861184d57600435610260525b600454610280526004610280516c01431e0fae6d7217caa0000000811015612ac5570260050180546102a05260018101546102c05260028101546102e052600381015461030052506102a05160e0526102c051610100526102e051610120526103005161014052610260516101605261183e61032061294e565b61032051610340526020610340f35b63981b24d08118611a68574360043511612ac5576004546102605260043560e05261026051610100526118816102a061287e565b6102a051610280526004610280516c01431e0fae6d7217caa0000000811015612ac5570260050180546102a05260018101546102c05260028101546102e0526003810154610300525060006103205261026051610280511061194c57436103005114611a135760043561030051808210612ac55780820390509050426102e051808210612ac55780820390509050808202821582848304141715612ac557905090504361030051808210612ac55780820390509050808015612ac55782049050905061032052611a13565b60046102805160018181830110612ac557808201905090506c01431e0fae6d7217caa0000000811015612ac5570260050180546103405260018101546103605260028101546103805260038101546103a052506103a0516103005114611a135760043561030051808210612ac55780820390509050610380516102e051808210612ac55780820390509050808202821582848304141715612ac557905090506103a05161030051808210612ac55780820390509050808015612ac557820490509050610320525b6102a05160e0526102c051610100526102e0516101205261030051610140526102e051610320518181830110612ac5578082019050905061016052611a5961034061294e565b61034051610360526020610360f35b63fc0c546a8118611a7f5760015460e052602060e0f35b63047fc9aa8118611a965760025460e052602060e0f35b63cbf9fe5f8118611ad6576004358060a01c612ac55760e052600360e05160a0526080526040608020805461010052600181015461012052506040610100f35b63900cf0cf8118611aed5760045460e052602060e0f35b63d1febfb98118611b3d5760046004356c01431e0fae6d7217caa0000000811015612ac55702600501805460e05260018101546101005260028101546101205260038101546101405250608060e0f35b6328d09d478118611bae576004358060a01c612ac55760e0526004602435633b9aca00811015612ac557026c050c783eb9b5c840000000000560e05160a052608052604060802001805461010052600181015461012052600281015461014052600381015461016052506080610100f35b63010ae7578118611bef576004358060a01c612ac55760e0526c050c783eb9b5c840000000000660e05160a052608052604060802054610100526020610100f35b63711974848118611c20576c050c783eb9b5c840000000000760043560a05260805260406080205460e052602060e0f35b6306fdde038118611ccf5760e0806020808252808301806c050c783eb9b5c84000000000088082602082540160c060006003818352015b8260c0516020021115611c6957611c88565b60c05185015460c0516020028501528151600101808352811415611c57575b5050505050508051806020830101818260206001820306601f8201039050033682375050805160200160206001820306601f820103905090509050810190509050905060e0f35b6395d89b418118611d7e5760e0806020808252808301806c050c783eb9b5c840000000000b8082602082540160c060006002818352015b8260c0516020021115611d1857611d37565b60c05185015460c0516020028501528151600101808352811415611d06575b5050505050508051806020830101818260206001820306601f8201039050033682375050805160200160206001820306601f820103905090509050810190509050905060e0f35b63313ce5678118611da1576c050c783eb9b5c840000000000d5460e052602060e0f35b638ff36fd18118611dc4576c050c783eb9b5c840000000000e5460e052602060e0f35b637175d4f78118611de7576c050c783eb9b5c840000000000f5460e052602060e0f35b63f851a4408118611e0a576c050c783eb9b5c84000000000105460e052602060e0f35b6317f7182a8118611e2d576c050c783eb9b5c84000000000115460e052602060e0f35b6381565a948118611e50576c050c783eb9b5c84000000000125460e052602060e0f35b6316bfdd568118611e73576c050c783eb9b5c84000000000135460e052602060e0f35b505b60006000fd5b3260e05114611f84576c050c783eb9b5c840000000000f546101005260006101005114611eea5763c23697a86101205260e051610140526020610120602461013c6000610100515af1611ed3573d600060003e3d6000fd5b601f3d1115612ac5576101205115611eea57611f84565b6025610120527f536d61727420636f6e7472616374206465706f7369746f7273206e6f7420616c610140527f6c6f7765640000000000000000000000000000000000000000000000000000006101605261012050610120518061014001818260206001820306601f82010390500336823750506308c379a060e0526020610100526101205160206001820306601f820103905060440160fcfd5b565b61014036610180376004546102c052600060e051146120f757426101205111611fb0576000611fb8565b600061010051135b156120165761010051630784ce008082058060801d81607f1d18612ac557905090506101a0526101a0516101205142808210612ac5578082039050905080607f1c612ac5578082028060801d81607f1d18612ac55790509050610180525b42610160511161202757600061202f565b600061014051135b1561208d5761014051630784ce008082058060801d81607f1d18612ac5579050905061022052610220516101605142808210612ac5578082039050905080607f1c612ac5578082028060801d81607f1d18612ac55790509050610200525b6c050c783eb9b5c84000000000076101205160a05260805260406080205461028052600061016051146120f7576101205161016051186120d457610280516102a0526120f7565b6c050c783eb9b5c84000000000076101605160a0526080526040608020546102a0525b6040366102e0374261032052436103405260006102c05111156121565760046102c0516c01431e0fae6d7217caa0000000811015612ac5570260050180546102e052600181015461030052600281015461032052600381015461034052505b61032051610360526102e05161038052610300516103a052610320516103c052610340516103e052600061040052610320514211156121e457670de0b6b3a76400004361034051808210612ac55780820390509050808202821582848304141715612ac557905090504261032051808210612ac55780820390509050808015612ac557820490509050610400525b6103605162093a808082049050905062093a80808202821582848304141715612ac5579050905061042052610440600060ff818352015b610420805162093a808181830110612ac5578082019050905081525060006104605242610420511161226e576c050c783eb9b5c84000000000076104205160a05260805260406080205461046052612274565b42610420525b6102e08051610300516104205161036051808210612ac5578082039050905080607f1c612ac5578082028060801d81607f1d18612ac557905090508082038060801d81607f1d18612ac557905090508152506103008051610460518082018060801d81607f1d18612ac5579050905081525060006102e05112156122f95760006102e0525b600061030051121561230c576000610300525b610420516103605261042051610320526103e05161040051610420516103c051808210612ac55780820390509050808202821582848304141715612ac55790509050670de0b6b3a7640000808204905090508181830110612ac55780820190509050610340526102c0805160018181830110612ac557808201905090508152504261042051186123a45743610340526123f6566123e6565b60046102c0516c01431e0fae6d7217caa0000000811015612ac557026005016102e0518155610300516001820155610320516002820155610340516003820155505b815160010180835281141561221b575b50506102c051600455600060e0511461249f576103008051610220516101a0518082038060801d81607f1d18612ac557905090508082018060801d81607f1d18612ac557905090508152506102e0805161020051610180518082038060801d81607f1d18612ac557905090508082018060801d81607f1d18612ac55790509050815250600061030051121561248c576000610300525b60006102e051121561249f5760006102e0525b60046102c0516c01431e0fae6d7217caa0000000811015612ac557026005016102e051815561030051600182015561032051600282015561034051600382015550600060e0511461267357426101205111156125665761028080516101a0518082018060801d81607f1d18612ac55790509050815250610120516101605118612543576102808051610220518082038060801d81607f1d18612ac557905090508152505b610280516c050c783eb9b5c84000000000076101205160a0526080526040608020555b426101605111156125c257610120516101605111156125c2576102a08051610220518082038060801d81607f1d18612ac557905090508152506102a0516c050c783eb9b5c84000000000076101605160a0526080526040608020555b6c050c783eb9b5c840000000000660e05160a05260805260406080205460018181830110612ac5578082019050905061044052610440516c050c783eb9b5c840000000000660e05160a05260805260406080205542610240524361026052600461044051633b9aca00811015612ac557026c050c783eb9b5c840000000000560e05160a052608052604060802001610200518155610220516001820155610240516002820155610260516003820155505b565b610500516105605261052051610580526002546105a05263632447c96105c0526104a0516105e05260206105c060246105dc60006c050c783eb9b5c8400000000013545af16126c9573d600060003e3d6000fd5b601f3d1115612ac5576105c0506105a0516104c0518181830110612ac55780820190509050600255610560516105c052610580516105e05261056080516104c05180607f1c612ac5578082018060801d81607f1d18612ac5579050905081525060006104e0511461273d576104e051610580525b60036104a05160a0526080526040608020610560518155610580516001820155506104a05160e0526105c051610100526105e051610120526105605161014052610580516101605261278d611f86565b60006104c051146127e9576323b872dd61060052610480516106205230610640526104c051610660526020610600606461061c60006001545af16127d6573d600060003e3d6000fd5b601f3d1115612ac5576106005115612ac5575b610580516104a051610480517f4ace3cb811d903eba44ce1721d1a1d79232246711977f44236000551f8c11cc16104c05161060052610540516106205242610640526060610600a47f5e2aa66efd74cce82b21852e317e5490d9ecc9e6bb953ae24d90851258cc2f5c6105a051610600526105a0516104c0518181830110612ac55780820190509050610620526040610600a1565b600061012052610100516101405261016060006080818352015b6101405161012051106128aa57612943565b61012051610140518181830110612ac5578082019050905060018181830110612ac557808201905090506002808204905090506101805260e05160036004610180516c01431e0fae6d7217caa0000000811015612ac557026005010154111561292a57610180516001808210612ac5578082039050905061014052612933565b61018051610120525b8151600101808352811415612898575b505061012051815250565b60e05161018052610100516101a052610120516101c052610140516101e0526101c05162093a808082049050905062093a80808202821582848304141715612ac5579050905061020052610220600060ff818352015b610200805162093a808181830110612ac557808201905090508152506000610240526101605161020051116129fa576c050c783eb9b5c84000000000076102005160a05260805260406080205461024052612a03565b61016051610200525b61018080516101a051610200516101c051808210612ac5578082039050905080607f1c612ac5578082028060801d81607f1d18612ac557905090508082038060801d81607f1d18612ac55790509050815250610160516102005118612a6757612a9f565b6101a08051610240518082018060801d81607f1d18612ac55790509050815250610200516101c05281516001018083528114156129a4575b50506000610180511215612ab4576000610180525b6101805160008112612ac557815250565b600080fd5b6101cd612c97036101cd6000396101cd612c97036000f35b600080fd"
}